{
  "_format": "hh-sol-artifact-1",
  "contractName": "EthBlocklistErc20Vault",
  "sourceName": "contracts/vaults/ethereum/EthBlocklistErc20Vault.sol",
  "abi": [
    {
      "inputs": [
        {
          "internalType": "address",
          "name": "_keeper",
          "type": "address"
        },
        {
          "internalType": "address",
          "name": "_vaultsRegistry",
          "type": "address"
        },
        {
          "internalType": "address",
          "name": "_validatorsRegistry",
          "type": "address"
        },
        {
          "internalType": "address",
          "name": "osTokenVaultController",
          "type": "address"
        },
        {
          "internalType": "address",
          "name": "osTokenConfig",
          "type": "address"
        },
        {
          "internalType": "address",
          "name": "osTokenVaultEscrow",
          "type": "address"
        },
        {
          "internalType": "address",
          "name": "sharedMevEscrow",
          "type": "address"
        },
        {
          "internalType": "address",
          "name": "depositDataRegistry",
          "type": "address"
        },
        {
          "internalType": "uint256",
          "name": "exitingAssetsClaimDelay",
          "type": "uint256"
        }
      ],
      "stateMutability": "nonpayable",
      "type": "constructor"
    },
    {
      "inputs": [],
      "name": "AccessDenied",
      "type": "error"
    },
    {
      "inputs": [
        {
          "internalType": "address",
          "name": "target",
          "type": "address"
        }
      ],
      "name": "AddressEmptyCode",
      "type": "error"
    },
    {
      "inputs": [
        {
          "internalType": "address",
          "name": "account",
          "type": "address"
        }
      ],
      "name": "AddressInsufficientBalance",
      "type": "error"
    },
    {
      "inputs": [],
      "name": "CapacityExceeded",
      "type": "error"
    },
    {
      "inputs": [],
      "name": "DeadlineExpired",
      "type": "error"
    },
    {
      "inputs": [
        {
          "internalType": "address",
          "name": "implementation",
          "type": "address"
        }
      ],
      "name": "ERC1967InvalidImplementation",
      "type": "error"
    },
    {
      "inputs": [],
      "name": "ERC1967NonPayable",
      "type": "error"
    },
    {
      "inputs": [],
      "name": "ExitRequestNotProcessed",
      "type": "error"
    },
    {
      "inputs": [],
      "name": "FailedInnerCall",
      "type": "error"
    },
    {
      "inputs": [],
      "name": "InsufficientAssets",
      "type": "error"
    },
    {
      "inputs": [],
      "name": "InvalidAssets",
      "type": "error"
    },
    {
      "inputs": [],
      "name": "InvalidCapacity",
      "type": "error"
    },
    {
      "inputs": [],
      "name": "InvalidCheckpointIndex",
      "type": "error"
    },
    {
      "inputs": [],
      "name": "InvalidCheckpointValue",
      "type": "error"
    },
    {
      "inputs": [],
      "name": "InvalidFeePercent",
      "type": "error"
    },
    {
      "inputs": [],
      "name": "InvalidFeeRecipient",
      "type": "error"
    },
    {
      "inputs": [],
      "name": "InvalidHealthFactor",
      "type": "error"
    },
    {
      "inputs": [],
      "name": "InvalidInitialization",
      "type": "error"
    },
    {
      "inputs": [],
      "name": "InvalidPosition",
      "type": "error"
    },
    {
      "inputs": [],
      "name": "InvalidQueuedShares",
      "type": "error"
    },
    {
      "inputs": [],
      "name": "InvalidReceivedAssets",
      "type": "error"
    },
    {
      "inputs": [],
      "name": "InvalidSecurityDeposit",
      "type": "error"
    },
    {
      "inputs": [],
      "name": "InvalidShares",
      "type": "error"
    },
    {
      "inputs": [],
      "name": "InvalidTokenMeta",
      "type": "error"
    },
    {
      "inputs": [],
      "name": "InvalidValidators",
      "type": "error"
    },
    {
      "inputs": [],
      "name": "LiquidationDisabled",
      "type": "error"
    },
    {
      "inputs": [],
      "name": "LowLtv",
      "type": "error"
    },
    {
      "inputs": [],
      "name": "MathOverflowedMulDiv",
      "type": "error"
    },
    {
      "inputs": [],
      "name": "NotCollateralized",
      "type": "error"
    },
    {
      "inputs": [],
      "name": "NotHarvested",
      "type": "error"
    },
    {
      "inputs": [],
      "name": "NotInitializing",
      "type": "error"
    },
    {
      "inputs": [],
      "name": "PermitInvalidSigner",
      "type": "error"
    },
    {
      "inputs": [],
      "name": "ReentrancyGuardReentrantCall",
      "type": "error"
    },
    {
      "inputs": [
        {
          "internalType": "uint8",
          "name": "bits",
          "type": "uint8"
        },
        {
          "internalType": "uint256",
          "name": "value",
          "type": "uint256"
        }
      ],
      "name": "SafeCastOverflowedUintDowncast",
      "type": "error"
    },
    {
      "inputs": [],
      "name": "UUPSUnauthorizedCallContext",
      "type": "error"
    },
    {
      "inputs": [
        {
          "internalType": "bytes32",
          "name": "slot",
          "type": "bytes32"
        }
      ],
      "name": "UUPSUnsupportedProxiableUUID",
      "type": "error"
    },
    {
      "inputs": [],
      "name": "UpgradeFailed",
      "type": "error"
    },
    {
      "inputs": [],
      "name": "ZeroAddress",
      "type": "error"
    },
    {
      "anonymous": false,
      "inputs": [
        {
          "indexed": true,
          "internalType": "address",
          "name": "owner",
          "type": "address"
        },
        {
          "indexed": true,
          "internalType": "address",
          "name": "spender",
          "type": "address"
        },
        {
          "indexed": false,
          "internalType": "uint256",
          "name": "value",
          "type": "uint256"
        }
      ],
      "name": "Approval",
      "type": "event"
    },
    {
      "anonymous": false,
      "inputs": [
        {
          "indexed": true,
          "internalType": "address",
          "name": "caller",
          "type": "address"
        },
        {
          "indexed": true,
          "internalType": "address",
          "name": "blocklistManager",
          "type": "address"
        }
      ],
      "name": "BlocklistManagerUpdated",
      "type": "event"
    },
    {
      "anonymous": false,
      "inputs": [
        {
          "indexed": true,
          "internalType": "address",
          "name": "caller",
          "type": "address"
        },
        {
          "indexed": true,
          "internalType": "address",
          "name": "account",
          "type": "address"
        },
        {
          "indexed": false,
          "internalType": "bool",
          "name": "isBlocked",
          "type": "bool"
        }
      ],
      "name": "BlocklistUpdated",
      "type": "event"
    },
    {
      "anonymous": false,
      "inputs": [
        {
          "indexed": false,
          "internalType": "uint256",
          "name": "shares",
          "type": "uint256"
        },
        {
          "indexed": false,
          "internalType": "uint256",
          "name": "assets",
          "type": "uint256"
        }
      ],
      "name": "CheckpointCreated",
      "type": "event"
    },
    {
      "anonymous": false,
      "inputs": [
        {
          "indexed": true,
          "internalType": "address",
          "name": "caller",
          "type": "address"
        },
        {
          "indexed": true,
          "internalType": "address",
          "name": "receiver",
          "type": "address"
        },
        {
          "indexed": false,
          "internalType": "uint256",
          "name": "assets",
          "type": "uint256"
        },
        {
          "indexed": false,
          "internalType": "uint256",
          "name": "shares",
          "type": "uint256"
        },
        {
          "indexed": false,
          "internalType": "address",
          "name": "referrer",
          "type": "address"
        }
      ],
      "name": "Deposited",
      "type": "event"
    },
    {
      "anonymous": false,
      "inputs": [
        {
          "indexed": true,
          "internalType": "address",
          "name": "owner",
          "type": "address"
        },
        {
          "indexed": true,
          "internalType": "address",
          "name": "receiver",
          "type": "address"
        },
        {
          "indexed": false,
          "internalType": "uint256",
          "name": "positionTicket",
          "type": "uint256"
        },
        {
          "indexed": false,
          "internalType": "uint256",
          "name": "shares",
          "type": "uint256"
        }
      ],
      "name": "ExitQueueEntered",
      "type": "event"
    },
    {
      "anonymous": false,
      "inputs": [
        {
          "indexed": true,
          "internalType": "address",
          "name": "receiver",
          "type": "address"
        },
        {
          "indexed": false,
          "internalType": "uint256",
          "name": "prevPositionTicket",
          "type": "uint256"
        },
        {
          "indexed": false,
          "internalType": "uint256",
          "name": "newPositionTicket",
          "type": "uint256"
        },
        {
          "indexed": false,
          "internalType": "uint256",
          "name": "withdrawnAssets",
          "type": "uint256"
        }
      ],
      "name": "ExitedAssetsClaimed",
      "type": "event"
    },
    {
      "anonymous": false,
      "inputs": [
        {
          "indexed": false,
          "internalType": "uint256",
          "name": "penalty",
          "type": "uint256"
        }
      ],
      "name": "ExitingAssetsPenalized",
      "type": "event"
    },
    {
      "anonymous": false,
      "inputs": [
        {
          "indexed": true,
          "internalType": "address",
          "name": "caller",
          "type": "address"
        },
        {
          "indexed": true,
          "internalType": "address",
          "name": "feeRecipient",
          "type": "address"
        }
      ],
      "name": "FeeRecipientUpdated",
      "type": "event"
    },
    {
      "anonymous": false,
      "inputs": [
        {
          "indexed": false,
          "internalType": "address",
          "name": "receiver",
          "type": "address"
        },
        {
          "indexed": false,
          "internalType": "uint256",
          "name": "shares",
          "type": "uint256"
        },
        {
          "indexed": false,
          "internalType": "uint256",
          "name": "assets",
          "type": "uint256"
        }
      ],
      "name": "FeeSharesMinted",
      "type": "event"
    },
    {
      "anonymous": false,
      "inputs": [
        {
          "indexed": false,
          "internalType": "uint64",
          "name": "version",
          "type": "uint64"
        }
      ],
      "name": "Initialized",
      "type": "event"
    },
    {
      "anonymous": false,
      "inputs": [
        {
          "indexed": true,
          "internalType": "address",
          "name": "caller",
          "type": "address"
        },
        {
          "indexed": true,
          "internalType": "address",
          "name": "keysManager",
          "type": "address"
        }
      ],
      "name": "KeysManagerUpdated",
      "type": "event"
    },
    {
      "anonymous": false,
      "inputs": [
        {
          "indexed": true,
          "internalType": "address",
          "name": "caller",
          "type": "address"
        },
        {
          "indexed": false,
          "internalType": "string",
          "name": "metadataIpfsHash",
          "type": "string"
        }
      ],
      "name": "MetadataUpdated",
      "type": "event"
    },
    {
      "anonymous": false,
      "inputs": [
        {
          "indexed": true,
          "internalType": "address",
          "name": "caller",
          "type": "address"
        },
        {
          "indexed": false,
          "internalType": "uint256",
          "name": "assets",
          "type": "uint256"
        },
        {
          "indexed": false,
          "internalType": "uint256",
          "name": "shares",
          "type": "uint256"
        }
      ],
      "name": "OsTokenBurned",
      "type": "event"
    },
    {
      "anonymous": false,
      "inputs": [
        {
          "indexed": true,
          "internalType": "address",
          "name": "caller",
          "type": "address"
        },
        {
          "indexed": true,
          "internalType": "address",
          "name": "user",
          "type": "address"
        },
        {
          "indexed": false,
          "internalType": "address",
          "name": "receiver",
          "type": "address"
        },
        {
          "indexed": false,
          "internalType": "uint256",
          "name": "osTokenShares",
          "type": "uint256"
        },
        {
          "indexed": false,
          "internalType": "uint256",
          "name": "shares",
          "type": "uint256"
        },
        {
          "indexed": false,
          "internalType": "uint256",
          "name": "receivedAssets",
          "type": "uint256"
        }
      ],
      "name": "OsTokenLiquidated",
      "type": "event"
    },
    {
      "anonymous": false,
      "inputs": [
        {
          "indexed": true,
          "internalType": "address",
          "name": "caller",
          "type": "address"
        },
        {
          "indexed": false,
          "internalType": "address",
          "name": "receiver",
          "type": "address"
        },
        {
          "indexed": false,
          "internalType": "uint256",
          "name": "assets",
          "type": "uint256"
        },
        {
          "indexed": false,
          "internalType": "uint256",
          "name": "shares",
          "type": "uint256"
        },
        {
          "indexed": false,
          "internalType": "address",
          "name": "referrer",
          "type": "address"
        }
      ],
      "name": "OsTokenMinted",
      "type": "event"
    },
    {
      "anonymous": false,
      "inputs": [
        {
          "indexed": true,
          "internalType": "address",
          "name": "caller",
          "type": "address"
        },
        {
          "indexed": true,
          "internalType": "address",
          "name": "user",
          "type": "address"
        },
        {
          "indexed": false,
          "internalType": "address",
          "name": "receiver",
          "type": "address"
        },
        {
          "indexed": false,
          "internalType": "uint256",
          "name": "osTokenShares",
          "type": "uint256"
        },
        {
          "indexed": false,
          "internalType": "uint256",
          "name": "shares",
          "type": "uint256"
        },
        {
          "indexed": false,
          "internalType": "uint256",
          "name": "assets",
          "type": "uint256"
        }
      ],
      "name": "OsTokenRedeemed",
      "type": "event"
    },
    {
      "anonymous": false,
      "inputs": [
        {
          "indexed": true,
          "internalType": "address",
          "name": "owner",
          "type": "address"
        },
        {
          "indexed": true,
          "internalType": "address",
          "name": "receiver",
          "type": "address"
        },
        {
          "indexed": false,
          "internalType": "uint256",
          "name": "assets",
          "type": "uint256"
        },
        {
          "indexed": false,
          "internalType": "uint256",
          "name": "shares",
          "type": "uint256"
        }
      ],
      "name": "Redeemed",
      "type": "event"
    },
    {
      "anonymous": false,
      "inputs": [
        {
          "indexed": true,
          "internalType": "address",
          "name": "from",
          "type": "address"
        },
        {
          "indexed": true,
          "internalType": "address",
          "name": "to",
          "type": "address"
        },
        {
          "indexed": false,
          "internalType": "uint256",
          "name": "value",
          "type": "uint256"
        }
      ],
      "name": "Transfer",
      "type": "event"
    },
    {
      "anonymous": false,
      "inputs": [
        {
          "indexed": true,
          "internalType": "address",
          "name": "implementation",
          "type": "address"
        }
      ],
      "name": "Upgraded",
      "type": "event"
    },
    {
      "anonymous": false,
      "inputs": [
        {
          "indexed": true,
          "internalType": "address",
          "name": "owner",
          "type": "address"
        },
        {
          "indexed": true,
          "internalType": "address",
          "name": "receiver",
          "type": "address"
        },
        {
          "indexed": false,
          "internalType": "uint256",
          "name": "positionTicket",
          "type": "uint256"
        },
        {
          "indexed": false,
          "internalType": "uint256",
          "name": "shares",
          "type": "uint256"
        },
        {
          "indexed": false,
          "internalType": "uint256",
          "name": "assets",
          "type": "uint256"
        }
      ],
      "name": "V2ExitQueueEntered",
      "type": "event"
    },
    {
      "anonymous": false,
      "inputs": [
        {
          "indexed": false,
          "internalType": "bytes",
          "name": "publicKey",
          "type": "bytes"
        }
      ],
      "name": "ValidatorRegistered",
      "type": "event"
    },
    {
      "anonymous": false,
      "inputs": [
        {
          "indexed": true,
          "internalType": "address",
          "name": "caller",
          "type": "address"
        },
        {
          "indexed": true,
          "internalType": "address",
          "name": "validatorsManager",
          "type": "address"
        }
      ],
      "name": "ValidatorsManagerUpdated",
      "type": "event"
    },
    {
      "anonymous": false,
      "inputs": [
        {
          "indexed": true,
          "internalType": "address",
          "name": "caller",
          "type": "address"
        },
        {
          "indexed": true,
          "internalType": "bytes32",
          "name": "validatorsRoot",
          "type": "bytes32"
        }
      ],
      "name": "ValidatorsRootUpdated",
      "type": "event"
    },
    {
      "inputs": [],
      "name": "DOMAIN_SEPARATOR",
      "outputs": [
        {
          "internalType": "bytes32",
          "name": "",
          "type": "bytes32"
        }
      ],
      "stateMutability": "view",
      "type": "function"
    },
    {
      "inputs": [],
      "name": "UPGRADE_INTERFACE_VERSION",
      "outputs": [
        {
          "internalType": "string",
          "name": "",
          "type": "string"
        }
      ],
      "stateMutability": "view",
      "type": "function"
    },
    {
      "inputs": [],
      "name": "admin",
      "outputs": [
        {
          "internalType": "address",
          "name": "",
          "type": "address"
        }
      ],
      "stateMutability": "view",
      "type": "function"
    },
    {
      "inputs": [
        {
          "internalType": "address",
          "name": "",
          "type": "address"
        },
        {
          "internalType": "address",
          "name": "",
          "type": "address"
        }
      ],
      "name": "allowance",
      "outputs": [
        {
          "internalType": "uint256",
          "name": "",
          "type": "uint256"
        }
      ],
      "stateMutability": "view",
      "type": "function"
    },
    {
      "inputs": [
        {
          "internalType": "address",
          "name": "spender",
          "type": "address"
        },
        {
          "internalType": "uint256",
          "name": "amount",
          "type": "uint256"
        }
      ],
      "name": "approve",
      "outputs": [
        {
          "internalType": "bool",
          "name": "",
          "type": "bool"
        }
      ],
      "stateMutability": "nonpayable",
      "type": "function"
    },
    {
      "inputs": [
        {
          "internalType": "address",
          "name": "account",
          "type": "address"
        }
      ],
      "name": "balanceOf",
      "outputs": [
        {
          "internalType": "uint256",
          "name": "",
          "type": "uint256"
        }
      ],
      "stateMutability": "view",
      "type": "function"
    },
    {
      "inputs": [
        {
          "internalType": "address",
          "name": "",
          "type": "address"
        }
      ],
      "name": "blockedAccounts",
      "outputs": [
        {
          "internalType": "bool",
          "name": "",
          "type": "bool"
        }
      ],
      "stateMutability": "view",
      "type": "function"
    },
    {
      "inputs": [],
      "name": "blocklistManager",
      "outputs": [
        {
          "internalType": "address",
          "name": "",
          "type": "address"
        }
      ],
      "stateMutability": "view",
      "type": "function"
    },
    {
      "inputs": [
        {
          "internalType": "uint128",
          "name": "osTokenShares",
          "type": "uint128"
        }
      ],
      "name": "burnOsToken",
      "outputs": [
        {
          "internalType": "uint256",
          "name": "assets",
          "type": "uint256"
        }
      ],
      "stateMutability": "nonpayable",
      "type": "function"
    },
    {
      "inputs": [
        {
          "internalType": "address",
          "name": "receiver",
          "type": "address"
        },
        {
          "internalType": "uint256",
          "name": "positionTicket",
          "type": "uint256"
        },
        {
          "internalType": "uint256",
          "name": "timestamp",
          "type": "uint256"
        },
        {
          "internalType": "uint256",
          "name": "exitQueueIndex",
          "type": "uint256"
        }
      ],
      "name": "calculateExitedAssets",
      "outputs": [
        {
          "internalType": "uint256",
          "name": "leftTickets",
          "type": "uint256"
        },
        {
          "internalType": "uint256",
          "name": "exitedTickets",
          "type": "uint256"
        },
        {
          "internalType": "uint256",
          "name": "exitedAssets",
          "type": "uint256"
        }
      ],
      "stateMutability": "view",
      "type": "function"
    },
    {
      "inputs": [],
      "name": "capacity",
      "outputs": [
        {
          "internalType": "uint256",
          "name": "",
          "type": "uint256"
        }
      ],
      "stateMutability": "view",
      "type": "function"
    },
    {
      "inputs": [
        {
          "internalType": "uint256",
          "name": "positionTicket",
          "type": "uint256"
        },
        {
          "internalType": "uint256",
          "name": "timestamp",
          "type": "uint256"
        },
        {
          "internalType": "uint256",
          "name": "exitQueueIndex",
          "type": "uint256"
        }
      ],
      "name": "claimExitedAssets",
      "outputs": [],
      "stateMutability": "nonpayable",
      "type": "function"
    },
    {
      "inputs": [
        {
          "internalType": "uint256",
          "name": "shares",
          "type": "uint256"
        }
      ],
      "name": "convertToAssets",
      "outputs": [
        {
          "internalType": "uint256",
          "name": "assets",
          "type": "uint256"
        }
      ],
      "stateMutability": "view",
      "type": "function"
    },
    {
      "inputs": [
        {
          "internalType": "uint256",
          "name": "assets",
          "type": "uint256"
        }
      ],
      "name": "convertToShares",
      "outputs": [
        {
          "internalType": "uint256",
          "name": "shares",
          "type": "uint256"
        }
      ],
      "stateMutability": "view",
      "type": "function"
    },
    {
      "inputs": [],
      "name": "decimals",
      "outputs": [
        {
          "internalType": "uint8",
          "name": "",
          "type": "uint8"
        }
      ],
      "stateMutability": "view",
      "type": "function"
    },
    {
      "inputs": [
        {
          "internalType": "address",
          "name": "receiver",
          "type": "address"
        },
        {
          "internalType": "address",
          "name": "referrer",
          "type": "address"
        }
      ],
      "name": "deposit",
      "outputs": [
        {
          "internalType": "uint256",
          "name": "shares",
          "type": "uint256"
        }
      ],
      "stateMutability": "payable",
      "type": "function"
    },
    {
      "inputs": [
        {
          "internalType": "address",
          "name": "receiver",
          "type": "address"
        },
        {
          "internalType": "uint256",
          "name": "osTokenShares",
          "type": "uint256"
        },
        {
          "internalType": "address",
          "name": "referrer",
          "type": "address"
        }
      ],
      "name": "depositAndMintOsToken",
      "outputs": [
        {
          "internalType": "uint256",
          "name": "",
          "type": "uint256"
        }
      ],
      "stateMutability": "payable",
      "type": "function"
    },
    {
      "inputs": [
        {
          "internalType": "uint256",
          "name": "shares",
          "type": "uint256"
        },
        {
          "internalType": "address",
          "name": "receiver",
          "type": "address"
        }
      ],
      "name": "enterExitQueue",
      "outputs": [
        {
          "internalType": "uint256",
          "name": "positionTicket",
          "type": "uint256"
        }
      ],
      "stateMutability": "nonpayable",
      "type": "function"
    },
    {
      "inputs": [],
      "name": "feePercent",
      "outputs": [
        {
          "internalType": "uint16",
          "name": "",
          "type": "uint16"
        }
      ],
      "stateMutability": "view",
      "type": "function"
    },
    {
      "inputs": [],
      "name": "feeRecipient",
      "outputs": [
        {
          "internalType": "address",
          "name": "",
          "type": "address"
        }
      ],
      "stateMutability": "view",
      "type": "function"
    },
    {
      "inputs": [
        {
          "internalType": "uint256",
          "name": "positionTicket",
          "type": "uint256"
        }
      ],
      "name": "getExitQueueIndex",
      "outputs": [
        {
          "internalType": "int256",
          "name": "",
          "type": "int256"
        }
      ],
      "stateMutability": "view",
      "type": "function"
    },
    {
      "inputs": [
        {
          "internalType": "address",
          "name": "account",
          "type": "address"
        }
      ],
      "name": "getShares",
      "outputs": [
        {
          "internalType": "uint256",
          "name": "",
          "type": "uint256"
        }
      ],
      "stateMutability": "view",
      "type": "function"
    },
    {
      "inputs": [],
      "name": "implementation",
      "outputs": [
        {
          "internalType": "address",
          "name": "",
          "type": "address"
        }
      ],
      "stateMutability": "view",
      "type": "function"
    },
    {
      "inputs": [
        {
          "internalType": "bytes",
          "name": "params",
          "type": "bytes"
        }
      ],
      "name": "initialize",
      "outputs": [],
      "stateMutability": "payable",
      "type": "function"
    },
    {
      "inputs": [],
      "name": "isStateUpdateRequired",
      "outputs": [
        {
          "internalType": "bool",
          "name": "",
          "type": "bool"
        }
      ],
      "stateMutability": "view",
      "type": "function"
    },
    {
      "inputs": [
        {
          "internalType": "uint256",
          "name": "osTokenShares",
          "type": "uint256"
        },
        {
          "internalType": "address",
          "name": "owner",
          "type": "address"
        },
        {
          "internalType": "address",
          "name": "receiver",
          "type": "address"
        }
      ],
      "name": "liquidateOsToken",
      "outputs": [],
      "stateMutability": "nonpayable",
      "type": "function"
    },
    {
      "inputs": [],
      "name": "mevEscrow",
      "outputs": [
        {
          "internalType": "address",
          "name": "",
          "type": "address"
        }
      ],
      "stateMutability": "view",
      "type": "function"
    },
    {
      "inputs": [
        {
          "internalType": "address",
          "name": "receiver",
          "type": "address"
        },
        {
          "internalType": "uint256",
          "name": "osTokenShares",
          "type": "uint256"
        },
        {
          "internalType": "address",
          "name": "referrer",
          "type": "address"
        }
      ],
      "name": "mintOsToken",
      "outputs": [
        {
          "internalType": "uint256",
          "name": "assets",
          "type": "uint256"
        }
      ],
      "stateMutability": "nonpayable",
      "type": "function"
    },
    {
      "inputs": [
        {
          "internalType": "bytes[]",
          "name": "data",
          "type": "bytes[]"
        }
      ],
      "name": "multicall",
      "outputs": [
        {
          "internalType": "bytes[]",
          "name": "results",
          "type": "bytes[]"
        }
      ],
      "stateMutability": "nonpayable",
      "type": "function"
    },
    {
      "inputs": [],
      "name": "name",
      "outputs": [
        {
          "internalType": "string",
          "name": "",
          "type": "string"
        }
      ],
      "stateMutability": "view",
      "type": "function"
    },
    {
      "inputs": [
        {
          "internalType": "address",
          "name": "",
          "type": "address"
        }
      ],
      "name": "nonces",
      "outputs": [
        {
          "internalType": "uint256",
          "name": "",
          "type": "uint256"
        }
      ],
      "stateMutability": "view",
      "type": "function"
    },
    {
      "inputs": [
        {
          "internalType": "address",
          "name": "user",
          "type": "address"
        }
      ],
      "name": "osTokenPositions",
      "outputs": [
        {
          "internalType": "uint128",
          "name": "shares",
          "type": "uint128"
        }
      ],
      "stateMutability": "view",
      "type": "function"
    },
    {
      "inputs": [
        {
          "internalType": "address",
          "name": "owner",
          "type": "address"
        },
        {
          "internalType": "address",
          "name": "spender",
          "type": "address"
        },
        {
          "internalType": "uint256",
          "name": "value",
          "type": "uint256"
        },
        {
          "internalType": "uint256",
          "name": "deadline",
          "type": "uint256"
        },
        {
          "internalType": "uint8",
          "name": "v",
          "type": "uint8"
        },
        {
          "internalType": "bytes32",
          "name": "r",
          "type": "bytes32"
        },
        {
          "internalType": "bytes32",
          "name": "s",
          "type": "bytes32"
        }
      ],
      "name": "permit",
      "outputs": [],
      "stateMutability": "nonpayable",
      "type": "function"
    },
    {
      "inputs": [],
      "name": "proxiableUUID",
      "outputs": [
        {
          "internalType": "bytes32",
          "name": "",
          "type": "bytes32"
        }
      ],
      "stateMutability": "view",
      "type": "function"
    },
    {
      "inputs": [],
      "name": "queuedShares",
      "outputs": [
        {
          "internalType": "uint128",
          "name": "",
          "type": "uint128"
        }
      ],
      "stateMutability": "view",
      "type": "function"
    },
    {
      "inputs": [],
      "name": "receiveFromMevEscrow",
      "outputs": [],
      "stateMutability": "payable",
      "type": "function"
    },
    {
      "inputs": [
        {
          "internalType": "uint256",
          "name": "osTokenShares",
          "type": "uint256"
        },
        {
          "internalType": "address",
          "name": "owner",
          "type": "address"
        },
        {
          "internalType": "address",
          "name": "receiver",
          "type": "address"
        }
      ],
      "name": "redeemOsToken",
      "outputs": [],
      "stateMutability": "nonpayable",
      "type": "function"
    },
    {
      "inputs": [
        {
          "components": [
            {
              "internalType": "bytes32",
              "name": "validatorsRegistryRoot",
              "type": "bytes32"
            },
            {
              "internalType": "uint256",
              "name": "deadline",
              "type": "uint256"
            },
            {
              "internalType": "bytes",
              "name": "validators",
              "type": "bytes"
            },
            {
              "internalType": "bytes",
              "name": "signatures",
              "type": "bytes"
            },
            {
              "internalType": "string",
              "name": "exitSignaturesIpfsHash",
              "type": "string"
            }
          ],
          "internalType": "struct IKeeperValidators.ApprovalParams",
          "name": "keeperParams",
          "type": "tuple"
        },
        {
          "internalType": "bytes",
          "name": "validatorsManagerSignature",
          "type": "bytes"
        }
      ],
      "name": "registerValidators",
      "outputs": [],
      "stateMutability": "nonpayable",
      "type": "function"
    },
    {
      "inputs": [
        {
          "internalType": "address",
          "name": "_blocklistManager",
          "type": "address"
        }
      ],
      "name": "setBlocklistManager",
      "outputs": [],
      "stateMutability": "nonpayable",
      "type": "function"
    },
    {
      "inputs": [
        {
          "internalType": "address",
          "name": "_feeRecipient",
          "type": "address"
        }
      ],
      "name": "setFeeRecipient",
      "outputs": [],
      "stateMutability": "nonpayable",
      "type": "function"
    },
    {
      "inputs": [
        {
          "internalType": "string",
          "name": "metadataIpfsHash",
          "type": "string"
        }
      ],
      "name": "setMetadata",
      "outputs": [],
      "stateMutability": "nonpayable",
      "type": "function"
    },
    {
      "inputs": [
        {
          "internalType": "address",
          "name": "validatorsManager_",
          "type": "address"
        }
      ],
      "name": "setValidatorsManager",
      "outputs": [],
      "stateMutability": "nonpayable",
      "type": "function"
    },
    {
      "inputs": [],
      "name": "symbol",
      "outputs": [
        {
          "internalType": "string",
          "name": "",
          "type": "string"
        }
      ],
      "stateMutability": "view",
      "type": "function"
    },
    {
      "inputs": [],
      "name": "totalAssets",
      "outputs": [
        {
          "internalType": "uint256",
          "name": "",
          "type": "uint256"
        }
      ],
      "stateMutability": "view",
      "type": "function"
    },
    {
      "inputs": [],
      "name": "totalExitingAssets",
      "outputs": [
        {
          "internalType": "uint128",
          "name": "",
          "type": "uint128"
        }
      ],
      "stateMutability": "view",
      "type": "function"
    },
    {
      "inputs": [],
      "name": "totalShares",
      "outputs": [
        {
          "internalType": "uint256",
          "name": "",
          "type": "uint256"
        }
      ],
      "stateMutability": "view",
      "type": "function"
    },
    {
      "inputs": [],
      "name": "totalSupply",
      "outputs": [
        {
          "internalType": "uint256",
          "name": "",
          "type": "uint256"
        }
      ],
      "stateMutability": "view",
      "type": "function"
    },
    {
      "inputs": [
        {
          "internalType": "address",
          "name": "to",
          "type": "address"
        },
        {
          "internalType": "uint256",
          "name": "amount",
          "type": "uint256"
        }
      ],
      "name": "transfer",
      "outputs": [
        {
          "internalType": "bool",
          "name": "",
          "type": "bool"
        }
      ],
      "stateMutability": "nonpayable",
      "type": "function"
    },
    {
      "inputs": [
        {
          "internalType": "address",
          "name": "from",
          "type": "address"
        },
        {
          "internalType": "address",
          "name": "to",
          "type": "address"
        },
        {
          "internalType": "uint256",
          "name": "amount",
          "type": "uint256"
        }
      ],
      "name": "transferFrom",
      "outputs": [
        {
          "internalType": "bool",
          "name": "",
          "type": "bool"
        }
      ],
      "stateMutability": "nonpayable",
      "type": "function"
    },
    {
      "inputs": [
        {
          "internalType": "uint256",
          "name": "osTokenShares",
          "type": "uint256"
        }
      ],
      "name": "transferOsTokenPositionToEscrow",
      "outputs": [
        {
          "internalType": "uint256",
          "name": "positionTicket",
          "type": "uint256"
        }
      ],
      "stateMutability": "nonpayable",
      "type": "function"
    },
    {
      "inputs": [
        {
          "internalType": "address",
          "name": "account",
          "type": "address"
        },
        {
          "internalType": "bool",
          "name": "isBlocked",
          "type": "bool"
        }
      ],
      "name": "updateBlocklist",
      "outputs": [],
      "stateMutability": "nonpayable",
      "type": "function"
    },
    {
      "inputs": [
        {
          "components": [
            {
              "internalType": "bytes32",
              "name": "rewardsRoot",
              "type": "bytes32"
            },
            {
              "internalType": "int160",
              "name": "reward",
              "type": "int160"
            },
            {
              "internalType": "uint160",
              "name": "unlockedMevReward",
              "type": "uint160"
            },
            {
              "internalType": "bytes32[]",
              "name": "proof",
              "type": "bytes32[]"
            }
          ],
          "internalType": "struct IKeeperRewards.HarvestParams",
          "name": "harvestParams",
          "type": "tuple"
        }
      ],
      "name": "updateState",
      "outputs": [],
      "stateMutability": "nonpayable",
      "type": "function"
    },
    {
      "inputs": [
        {
          "internalType": "address",
          "name": "receiver",
          "type": "address"
        },
        {
          "internalType": "address",
          "name": "referrer",
          "type": "address"
        },
        {
          "components": [
            {
              "internalType": "bytes32",
              "name": "rewardsRoot",
              "type": "bytes32"
            },
            {
              "internalType": "int160",
              "name": "reward",
              "type": "int160"
            },
            {
              "internalType": "uint160",
              "name": "unlockedMevReward",
              "type": "uint160"
            },
            {
              "internalType": "bytes32[]",
              "name": "proof",
              "type": "bytes32[]"
            }
          ],
          "internalType": "struct IKeeperRewards.HarvestParams",
          "name": "harvestParams",
          "type": "tuple"
        }
      ],
      "name": "updateStateAndDeposit",
      "outputs": [
        {
          "internalType": "uint256",
          "name": "shares",
          "type": "uint256"
        }
      ],
      "stateMutability": "payable",
      "type": "function"
    },
    {
      "inputs": [
        {
          "internalType": "address",
          "name": "receiver",
          "type": "address"
        },
        {
          "internalType": "uint256",
          "name": "osTokenShares",
          "type": "uint256"
        },
        {
          "internalType": "address",
          "name": "referrer",
          "type": "address"
        },
        {
          "components": [
            {
              "internalType": "bytes32",
              "name": "rewardsRoot",
              "type": "bytes32"
            },
            {
              "internalType": "int160",
              "name": "reward",
              "type": "int160"
            },
            {
              "internalType": "uint160",
              "name": "unlockedMevReward",
              "type": "uint160"
            },
            {
              "internalType": "bytes32[]",
              "name": "proof",
              "type": "bytes32[]"
            }
          ],
          "internalType": "struct IKeeperRewards.HarvestParams",
          "name": "harvestParams",
          "type": "tuple"
        }
      ],
      "name": "updateStateAndDepositAndMintOsToken",
      "outputs": [
        {
          "internalType": "uint256",
          "name": "",
          "type": "uint256"
        }
      ],
      "stateMutability": "payable",
      "type": "function"
    },
    {
      "inputs": [
        {
          "internalType": "address",
          "name": "newImplementation",
          "type": "address"
        },
        {
          "internalType": "bytes",
          "name": "data",
          "type": "bytes"
        }
      ],
      "name": "upgradeToAndCall",
      "outputs": [],
      "stateMutability": "payable",
      "type": "function"
    },
    {
      "inputs": [],
      "name": "validatorsManager",
      "outputs": [
        {
          "internalType": "address",
          "name": "",
          "type": "address"
        }
      ],
      "stateMutability": "view",
      "type": "function"
    },
    {
      "inputs": [],
      "name": "vaultId",
      "outputs": [
        {
          "internalType": "bytes32",
          "name": "",
          "type": "bytes32"
        }
      ],
      "stateMutability": "pure",
      "type": "function"
    },
    {
      "inputs": [],
      "name": "version",
      "outputs": [
        {
          "internalType": "uint8",
          "name": "",
          "type": "uint8"
        }
      ],
      "stateMutability": "pure",
      "type": "function"
    },
    {
      "inputs": [],
      "name": "withdrawableAssets",
      "outputs": [
        {
          "internalType": "uint256",
          "name": "",
          "type": "uint256"
        }
      ],
      "stateMutability": "view",
      "type": "function"
    },
    {
      "stateMutability": "payable",
      "type": "receive"
    }
  ],
  "bytecode": "0x61020034620001f25762005d0838819003601f8101601f191683016001600160401b03811184821017620001f65783928291604052833961012091829181010312620001f25762000050826200020a565b6200005e602084016200020a565b6200006c604085016200020a565b916200007b606086016200020a565b62000089608087016200020a565b916200009860a088016200020a565b93620000a760c089016200020a565b95620000b660e08a016200020a565b91610100809a01519360805260a05260c0523060e052620000d66200021f565b468852865261014046815261016091825260018060a01b038061018094168452806101a0951685526101c0951685526101e0958652620001156200021f565b60405196615a499889620002bf8a396080518981816117f3015281816119c70152818161316901528181613e0501526158b6015260a0518961148a015260c0518981816140f60152614217015260e0518981816116090152613bc70152518861272b01525187612d6001525186613e7b01525185611b6d0152518481816104dd01528181610b0601528181612e42015281816135a80152818161476f015281816148ca0152614a71015251838181610bc5015281816111860152818161366701526149f501525182611e6001525181818161270601526131b10152f35b5f80fd5b634e487b7160e01b5f52604160045260245ffd5b51906001600160a01b0382168203620001f257565b7ff0c57e16840df040f15088dc2f81fe391c3923bec73e23a9662efc9c229c6a00805460ff8160401c16620002ac576001600160401b036002600160401b0319828216016200026d57505050565b6001600160401b031990911681179091556040519081527fc7f505b2f371ae2175ee4913f4499e1f2633a7b5936321eed1cdaeb6115181d290602090a1565b60405163f92ee8a960e01b8152600490fdfe60806040526004361015610022575b3615610018575f80fd5b610020612e1a565b005b5f3560e01c806301d523b6146103c757806301e1d114146103c2578063066055e0146103bd57806306fdde03146103b857806307a2d13a146103b3578063095ea7b3146103ae57806314c4184b146103a957806318160ddd1461036d57806318f72950146103a45780631a7ff5531461039f578063201b9eb51461039a57806323b872dd146103955780632999ad3f146103905780632cdf74011461038b578063313ce567146103865780633229fa951461038157806333194c0a1461037c5780633644e5151461037757806336fe59d2146103725780633a98ef391461036d578063439fab911461036857806343e82a7914610363578063469048401461035e5780634ec96b22146103595780634f1ef2861461035457806352d1902d1461034f57806353156f281461034a57806354fd4d50146103455780635c60da1b146103405780635cfc1a511461033b57806360d60e6e1461033657806370a08231146102be57806372b410a814610331578063754c38881461032c57806376b58b90146103275780637ecebe00146103225780637fd6f15c1461031d57806383d430d5146103185780638697d2c2146103135780638ceab9aa1461030e5780639267842a1461030957806395d89b4114610304578063a49a1e7d146102ff578063a9059cbb146102fa578063ac9650d8146102f5578063ad3cb1cc146102f0578063b1f0e7c7146102eb578063b45a1eb5146102e6578063c6e6f592146102e1578063d0a64ddc146102dc578063d505accf146102d7578063d83ad00c146102d2578063dd62ed3e146102cd578063e74b981b146102c8578063ee3bd5df146102c3578063f04da65b146102be578063f45bf3d2146102b9578063f851a440146102b45763f9609f080361000e57612585565b61255d565b61251c565b61178d565b6124f6565b6124c9565b612485565b61243a565b612225565b6121ed565b6121cf565b61219d565b612179565b612134565b6120cf565b61202e565b611fdc565b611f38565b611d44565b611cec565b611b41565b611971565b61194d565b611912565b6118c1565b611855565b6117c8565b6116ed565b6116d3565b61169f565b611684565b611660565b6115f7565b611372565b61128c565b611264565b611157565b611091565b6108f5565b611022565b611008565b610fce565b610fa2565b610f87565b610f6d565b610adc565b610a00565b6109dd565b610981565b61091b565b6108cc565b61082a565b61080c565b610746565b61048d565b61045c565b6103ef565b6001600160a01b038116036103dd57565b5f80fd5b908160809103126103dd5790565b60803660031901126103dd57600435610407816103cc565b604435610413816103cc565b606435906001600160401b0382116103dd5760209261044161043c61044a9436906004016103e1565b612670565b6024359061275d565b604051908152f35b5f9103126103dd57565b346103dd575f3660031901126103dd57602060cf5460801c604051908152f35b6001600160801b038116036103dd57565b346103dd5760203660031901126103dd576004356104aa8161047c565b604051633b9e9f0160e21b81523360048201526001600160801b03821660248201526020816044815f6001600160a01b037f0000000000000000000000000000000000000000000000000000000000000000165af190811561062c575f916105fd575b50335f90815261016e60205260409020610526906125b7565b916001600160801b0361054084516001600160801b031690565b16156105eb57610599836105566105e795612e2d565b6105806105738461056e84516001600160801b031690565b612608565b6001600160801b03168252565b335f90815261016e60205260409020612621565b612621565b604080518381526001600160801b0392909216602083015233917f3f7354ba02880b4fa37a629985852a38417ff369369ce1e52fa6f8342a9100a79190a26040519081529081906020820190565b0390f35b60405163673f032f60e11b8152600490fd5b61061f915060203d602011610625575b61061781836106cb565b81019061259d565b5f61050d565b503d61060d565b6125ac565b90600182811c9216801561065f575b602083101461064b57565b634e487b7160e01b5f52602260045260245ffd5b91607f1691610640565b634e487b7160e01b5f52604160045260245ffd5b604081019081106001600160401b0382111761069857604052565b610669565b6001600160401b03811161069857604052565b608081019081106001600160401b0382111761069857604052565b90601f801991011681019081106001600160401b0382111761069857604052565b5f5b8381106106fd5750505f910152565b81810151838201526020016106ee565b90602091610726815180928185528580860191016106ec565b601f01601f1916010190565b90602061074392818152019061070d565b90565b346103dd575f3660031901126103dd576040515f805461076581610631565b808452906020906001908181169081156107e2575060011461079e575b6105e785610792818703826106cb565b60405191829182610732565b5f80805293505f805160206159748339815191525b8385106107cf57505050508101602001610792826105e7610782565b80548686018401529382019381016107b3565b8695506105e79693506020925061079294915060ff191682840152151560051b8201019293610782565b346103dd5760203660031901126103dd57602061044a60043561264a565b346103dd5760403660031901126103dd57600435610847816103cc565b6001600160a01b038116906024359082156108ba576108828291335f52600260205260405f209060018060a01b03165f5260205260405f2090565b556040519081527f8c5be1e5ebec7d5bd14f71427d1e84f3dd0314c0f7b2291e5b200ac8c7c3b92560203392a3602060405160018152f35b60405163d92e233d60e01b8152600490fd5b346103dd575f3660031901126103dd5761026a546040516001600160a01b039091168152602090f35b346103dd575f3660031901126103dd5760206001600160801b0360cf5416604051908152f35b60603660031901126103dd57600435610933816103cc565b60243561093f816103cc565b604435906001600160401b0382116103dd5760209261096861043c61044a9436906004016103e1565b61097133613464565b61097a81613464565b34906145e9565b346103dd5760203660031901126103dd576004356001600160401b0381116103dd5761043c6100209136906004016103e1565b60609060031901126103dd576004356109cc816103cc565b9060243590604435610743816103cc565b346103dd57602061044a6109f0366109b4565b916109fa33613464565b336146b0565b346103dd5760603660031901126103dd57600435610a1d816103cc565b60243590610a2a826103cc565b6001600160a01b0381165f8181526002602090815260408083203384529091529020546044359160018201610a7a575b610a6e84610a69858883614944565b613485565b60405160018152602090f35b919093818503948511610aae575f928352600260209081526040808520338652909152909220939093559180610a6e610a5a565b6125dc565b60609060031901126103dd5760043590602435610acf816103cc565b90604435610743816103cc565b346103dd57610aea36610ab3565b906001600160a01b03808316156108ba57610b03613dea565b807f00000000000000000000000000000000000000000000000000000000000000001691823b156103dd5760408051631d8557d760e01b815260049491905f81878183875af1801561062c57610f54575b506001600160a01b0383165f90815261016e60205260409020610b76906125b7565b6001600160801b039283610b9183516001600160801b031690565b1615610f4457610ba082612e2d565b825163e48a5f7b60e01b8152308882019081529097906060908990819060200103818a7f0000000000000000000000000000000000000000000000000000000000000000165afa97881561062c575f98610f13575b50602097888101956001600160401b03918280610c198a516001600160401b031690565b1614610f0357908c92918751918c8380610c456303d1689d60e11b988983528a83019190602083019252565b03818a5afa91821561062c57610c71938e5f94610ede575b5050516001600160801b03165b1690612f5c565b96610c95610c8f8a60018060a01b03165f5260d360205260405f2090565b5461264a565b928389118015610ece575b610ebe57908b610cde9392610cbc89516001600160801b031690565b908a51958692839283528983019190916001600160801b036020820193169052565b0381895afa91821561062c57670de0b6b3a764000094610d2d948e5f95610e91575b5050610d1f610d11610d2592612b36565b93516001600160401b031690565b93612b36565b921690612fd0565b1015610e83578351633b9e9f0160e21b815233918101918252602082018b905294939291889186919082905f90829060400103925af190811561062c577f61fd285f9e34a3dbfa9846bdcf22a023e37a3c93549902843b30dd74a18c535097610e6095610dd793610e65575b5050610dba610573610daa8c61431c565b83516001600160801b0316612608565b6001600160a01b0386165f90815261016e60205260409020612621565b610de0826143e9565b90610e1f610e04610df08561431c565b60cf5460801c5b036001600160801b031690565b6001600160801b0360cf549181199060801b1691161760cf55565b610e29828661537b565b610e33838961434f565b51948594169733978590949392606092608083019660018060a01b03168352602083015260408201520152565b0390a3005b81610e7b92903d106106255761061781836106cb565b505f80610d99565b835163185cfc6d60e11b8152fd5b610d25929550610eb4610d1f9282610d1193903d106106255761061781836106cb565b959250508e610d00565b875163efda1a2760e01b81528590fd5b50610ed76126b7565b8911610ca0565b610c6a9294509081610efb92903d106106255761061781836106cb565b92908e610c5d565b8651630709133160e01b81528490fd5b610f3691985060603d606011610f3d575b610f2e81836106cb565b810190613530565b965f610bf5565b503d610f24565b825163673f032f60e11b81528790fd5b80610f61610f679261069d565b80610452565b5f610b54565b346103dd575f3660031901126103dd57602061044a6126b7565b346103dd575f3660031901126103dd57602060405160128152f35b346103dd575f3660031901126103dd576020610fbc6126ed565b6040516001600160a01b039091168152f35b346103dd575f3660031901126103dd5760206040517fad566d041ad0a21d208459166a94a853aa7fc34cc68f5e214ca9b0cadefaba2c8152f35b346103dd575f3660031901126103dd57602061044a612728565b602061044a611030366109b4565b9161275d565b9181601f840112156103dd578235916001600160401b0383116103dd57602083818601950101116103dd57565b60206003198201126103dd57600435906001600160401b0382116103dd5761108d91600401611036565b9091565b61109a36611063565b907ff0c57e16840df040f15088dc2f81fe391c3923bec73e23a9662efc9c229c6a009182549160ff8360401c168015611143575b61113157680100000000000000036110f49368ffffffffffffffffff1916178455612868565b68ff00000000000000001981541690557fc7f505b2f371ae2175ee4913f4499e1f2633a7b5936321eed1cdaeb6115181d2602060405160038152a1005b60405163f92ee8a960e01b8152600490fd5b5060036001600160401b03841610156110ce565b346103dd5761116536610ab3565b60405163057453a760e31b81529091906001600160a01b03906020816004817f000000000000000000000000000000000000000000000000000000000000000086165afa801561062c5782915f91611235575b501633036112235781610e606111f086867f57f5eb636bf62215c111b54545422f11dfb0cb115f606be905f0be08e8859dd39661358a565b604080516001600160a01b0390981688526020880198909852968601526060850195909552169233929081906080820190565b604051634ca8886760e01b8152600490fd5b611257915060203d60201161125d575b61124f81836106cb565b81019061278a565b5f6111b8565b503d611245565b346103dd575f3660031901126103dd57609c546040516001600160a01b039091168152602090f35b346103dd5760203660031901126103dd576004356112a9816103cc565b60018060a01b03165f5261016e602052602060405f20604051906112cc8261067d565b54906001600160801b03918281169081835260801c848301526112f4575b5116604051908152f35b6112fd81612e2d565b6112ea565b6040519060a082018281106001600160401b0382111761069857604052565b6001600160401b03811161069857601f01601f191660200190565b92919261134882611321565b9161135660405193846106cb565b8294818452818301116103dd578281602093845f960137010152565b6040806003193601126103dd57600490813561138d816103cc565b6024356001600160401b0381116103dd57366023820112156103dd576113bc903690602481870135910161133c565b916113c5613bbd565b8051926113fc846113ee60209363439fab9160e01b85840152846024840152604483019061070d565b03601f1981018652856106cb565b611404613bbd565b61140c613c16565b6001600160a01b038381168015929190879084156115c2575b8415611554575b84156114f1575b5050821561145b575b505061144c576100208383614dc1565b516355299b4960e01b81528390fd5b83516345da87c560e01b81526001600160a01b03861688820190815292935091839183918290819060200103917f0000000000000000000000000000000000000000000000000000000000000000165afa91821561062c575f926114c4575b5050155f8061143c565b6114e39250803d106114ea575b6114db81836106cb565b810190612946565b5f806114ba565b503d6114d1565b855163054fd4d560e41b81529294508391839182905afa90811561062c57879160ff915f91611527575b5016141591865f611433565b6115479150843d861161154d575b61153f81836106cb565b810190614dac565b5f61151b565b503d611535565b935050835163198ca60560e11b815282818981875afa90811561062c5788917fad566d041ad0a21d208459166a94a853aa7fc34cc68f5e214ca9b0cadefaba2c915f916115a5575b5014159361142c565b6115bc9150853d87116106255761061781836106cb565b5f61159c565b5f805160206159b48339815191525490945084906115f0906001600160a01b03165b6001600160a01b031690565b1493611425565b346103dd575f3660031901126103dd577f00000000000000000000000000000000000000000000000000000000000000006001600160a01b0316300361164e5760206040515f805160206159b48339815191528152f35b60405163703e46dd60e11b8152600490fd5b5f3660031901126103dd576001600160a01b0361167b6126ed565b16330361122357005b346103dd575f3660031901126103dd57602060405160038152f35b346103dd575f3660031901126103dd575f805160206159b4833981519152546040516001600160a01b039091168152602090f35b346103dd575f3660031901126103dd57602061044a612938565b346103dd5760203660031901126103dd5760d180549081905f6004355b84821061173b57505050811015611730576105e7905b6040519081529081906020820190565b506105e75f19611720565b909193808316906001818518811c8301809311610aae575f8790525f805160206159f48339815191528301546001600160a01b0316841015611782575050935b919061170a565b90959101925061177b565b346103dd5760203660031901126103dd576004356117aa816103cc565b60018060a01b03165f5260d3602052602060405f2054604051908152f35b346103dd575f3660031901126103dd57604051633eb1acf760e11b81523060048201526020816024817f00000000000000000000000000000000000000000000000000000000000000006001600160a01b03165afa801561062c576020915f91611838575b506040519015158152f35b61184f9150823d84116114ea576114db81836106cb565b5f61182d565b346103dd5760203660031901126103dd57600435611872816103cc565b61187a613c16565b61010980546001600160a01b0319166001600160a01b03929092169182179055337f6bdc78d8c88160b3fc3638e67f2afe523b3f4c7d00c56ebb6216790e4c3eb2cb5f80a3005b346103dd5760803660031901126103dd576105e76118f56004356118e4816103cc565b606435906044359060243590612968565b604080519384526020840192909252908201529081906060820190565b346103dd5760203660031901126103dd5760043561192f816103cc565b60018060a01b03165f526003602052602060405f2054604051908152f35b346103dd575f3660031901126103dd57602061ffff609c5460a01c16604051908152f35b346103dd576003196040368201126103dd5760049081356001600160401b038082116103dd5760a08285019383360301126103dd576024359081116103dd576119bd9036908501611036565b6001600160a01b037f00000000000000000000000000000000000000000000000000000000000000008116803b156103dd5760405163837d444160e01b8152905f908290818381611a108c828f01612a4a565b03925af1801561062c57611b2e575b50611a28613dea565b611a30612d4b565b9081163314159182611aff575b50509050611aee576044019160b0611a558484612ac8565b90500480158015611ad6575b611ac657611a76611a706126b7565b91612b1d565b11611ab7575060b0611a888383612ac8565b9050145f14611aa45761002091611a9e91612ac8565b90614209565b61002091611ab191612ac8565b906140e1565b6040516396d8043360e01b8152fd5b50604051631c6c4cf360e31b8152fd5b50611ae18484612ac8565b905060b082021415611a61565b604051634ca8886760e01b81528390fd5b611b229250611b1c611b2694611b1488613e75565b92369161133c565b91613f50565b1590565b805f80611a3d565b80610f61611b3b9261069d565b5f611a1f565b346103dd5760603660031901126103dd57600435602435611b66604435828433612968565b9192611b927f000000000000000000000000000000000000000000000000000000000000000082612b53565b42108015611ce4575b8015611cdc575b611cca577feb3b05c070c24f667611fdb3ff75fe007d42401c573aed8d8faca95fd00ccb5693611bfd611be2611bd78661431c565b60d05460801c612608565b6001600160801b0360d0549181199060801b1691161760d055565b60408051336020820190815291810184905260608082018990528152601f1993915f91611c419190611c306080826106cb565b5190205f5260d260205260405f2090565b555f9360018311611c7a575b50505050611c5b823361434f565b604080519485526020850191909152830152339180606081015b0390a2005b611cc092939450611c8b9088612b53565b60408051336020820190815291810193909352606083018290529094909190611c309082608081015b039081018352826106cb565b555f808080611c4d565b604051630e3d8e8d60e11b8152600490fd5b508215611ba2565b508115611b9b565b346103dd5760403660031901126103dd576020600435611d18602435611d11816103cc565b8233614fae565b90611d2233613485565b60405190815230905f805160206159d4833981519152843392a3604051908152f35b346103dd5760203660031901126103dd57600435611d60613dea565b335f90815261016e60205260409020611d78906125b7565b6001600160801b0380611d9283516001600160801b031690565b16156105eb578290611da383612e2d565b82516001600160801b03161610611f2657335f90815260d3602052604090205482611de4611dd884516001600160801b031690565b6001600160801b031690565b14611f1057611e089083611e02611dd885516001600160801b031690565b91612fd0565b91611e35611e28611e188361431c565b84516001600160801b0316610df7565b6001600160801b03168352565b335f90815261016e60205260409020611e4f908390612621565b611e976020611e8860018060a01b037f000000000000000000000000000000000000000000000000000000000000000016809633614fae565b9301516001600160801b031690565b833b156103dd5760405163074ee96960e31b81523360048201526024810184905260448101929092526001600160801b03166064820152915f908390608490829084905af191821561062c576105e792611efd575b506040519081529081906020820190565b80610f61611f0a9261069d565b5f611eec565b335f90815261016e602052604081205591611e4f565b604051636edcc52360e01b8152600490fd5b346103dd575f3660031901126103dd576040515f60018054611f5981610631565b80855291602091600181169081156107e25750600114611f83576105e785610792818703826106cb565b60015f90815293507fb10e2d527612073b26eecdfd717e6a320cf44b4afac2b0732d9fcbe2b7fa0cf65b838510611fc957505050508101602001610792826105e7610782565b8054868601840152938201938101611fad565b346103dd57611c757f2013570c343af8ab14a9778150e381a0fda34ed6368127a95fd5e7210cbec5bf61200e36611063565b9290612018613c16565b6040519182916020835233956020840191612a2a565b346103dd5760403660031901126103dd5761205860043561204e816103cc565b6024359033614944565b61206133613485565b602060405160018152f35b6020808201906020835283518092526040830192602060408460051b8301019501935f915b8483106120a15750505050505090565b90919293949584806120bf600193603f198682030187528a5161070d565b9801930193019194939290612091565b346103dd5760203660031901126103dd576001600160401b036004358181116103dd57366023820112156103dd5780600401359182116103dd573660248360051b830101116103dd576105e79160246121289201612c9e565b6040519182918261206c565b346103dd575f3660031901126103dd576105e76040516121538161067d565b60058152640352e302e360dc1b602082015260405191829160208352602083019061070d565b346103dd575f3660031901126103dd576020610fbc612d4b565b801515036103dd57565b346103dd5760403660031901126103dd576100206004356121bd816103cc565b602435906121ca82612193565b612d82565b346103dd5760203660031901126103dd57602061044a6004356143e9565b346103dd5760203660031901126103dd5761002060043561220d816103cc565b612215613c16565b614478565b60ff8116036103dd57565b346103dd5760e03660031901126103dd57600435612242816103cc565b60243561224e816103cc565b6044359060643592608435906122638261221a565b6001600160a01b038381169590929086156108ba57428110612428576020915f91611cb461235689878a612319612298612728565b6001600160a01b0384165f9081526003602052604090209097908054906001820190556040519586948d8601968791959493909260a09360c08401977f6e71edae12b1b97f4d1f60370fef10105fa2faae0126114a169c64845d6126c98552600180871b038092166020860152166040840152606083015260808201520152565b039161232d601f19938481018352826106cb565b5190206040519384918983019687909160429261190160f01b8352600283015260228201520190565b5190206040805191825260ff92909216602082015260a4359181019190915260c435606082015281805260809060015afa1561062c575f5192828416801590811561241b575b50612409576123f685916123e17f8c5be1e5ebec7d5bd14f71427d1e84f3dd0314c0f7b2291e5b200ac8c7c3b9259660018060a01b03165f52600260205260405f2090565b9060018060a01b03165f5260205260405f2090565b5560405193845216918060208101610e60565b6040516323389ba560e21b8152600490fd5b905083831614155f61239c565b604051631ab7da6b60e01b8152600490fd5b346103dd575f3660031901126103dd5760206001600160801b0360d05416604051908152f35b60409060031901126103dd57600435612478816103cc565b90602435610743816103cc565b346103dd5760206124c061249836612460565b6001600160a01b039182165f9081526002855260408082209290931681526020919091522090565b54604051908152f35b346103dd5760203660031901126103dd576100206004356124e9816103cc565b6124f1613c16565b6144bf565b346103dd575f3660031901126103dd5760206001600160801b0360d55416604051908152f35b346103dd5760203660031901126103dd57600435612539816103cc565b60018060a01b03165f5261026b602052602060ff60405f2054166040519015158152f35b346103dd575f3660031901126103dd576037546040516001600160a01b039091168152602090f35b602061044a61259336612460565b9061097133613464565b908160209103126103dd575190565b6040513d5f823e3d90fd5b906040516125c48161067d565b91546001600160801b038116835260801c6020830152565b634e487b7160e01b5f52601160045260245ffd5b6001600160801b039081165f190191908211610aae57565b6001600160801b039182169082160391908211610aae57565b815160209092015160801b6001600160801b0319166001600160801b0392909216919091179055565b60cf546001600160801b038116908161266257505090565b916107439260801c90612fd0565b61267c61268391613138565b91906132ce565b61268957565b6126916151c9565b8061269a575b50565b5f906040519081525f805160206159d483398151915260203092a3565b4760d0546001600160801b036126ce81831661264a565b9060d55416019060801c01908181115f146126e7570390565b50505f90565b6101a1546001600160a01b031680156127035790565b507f000000000000000000000000000000000000000000000000000000000000000090565b467f0000000000000000000000000000000000000000000000000000000000000000036127555760045490565b6107436138a3565b90610743929161276c33613464565b61277533613464565b6127808334336145e9565b506109fa33613464565b908160209103126103dd5751610743816103cc565b359061ffff821682036103dd57565b9080601f830112156103dd578160206107439335910161133c565b906020828203126103dd5781356001600160401b03928382116103dd57019060a0828203126103dd576127fa611302565b928235845261280b6020840161279f565b602085015260408301358181116103dd57826128289185016127ae565b604085015260608301358181116103dd57826128459185016127ae565b606085015260808301359081116103dd5761286092016127ae565b608082015290565b6037549091906001600160a01b031661292e5760405163e7f6f22560e01b8152906020908183600481335afa92831561062c575f9361290f575b50604051636f4fa30f60e01b8152938285600481335afa90811561062c576128ea956128e5945f936128ec575b50506128de91928101906127c9565b9083613af1565b613bb1565b565b6128de9350908161290892903d1061125d5761124f81836106cb565b915f6128cf565b612927919350823d841161125d5761124f81836106cb565b915f6128a2565b50506128ea6139c9565b60d4548061074357505f1990565b908160209103126103dd575161074381612193565b91908203918211610aae57565b604080516001600160a01b039092166020830190815290820193909352606081018290529091906129a681608081015b03601f1981018352826106cb565b5190205f5260d260205260405f20549182156129d6576129c7918391613c4f565b9091828103908111610aae5792565b5050505f905f905f90565b9035601e19823603018112156103dd5701602081359101916001600160401b0382116103dd5781360383136103dd57565b90603060609281835260208301375f60508201520190565b908060209392818452848401375f828201840152601f01601f1916010190565b9060a061074392602081528235602082015260208301356040820152612a86612a7660408501856129e1565b84606085015260c0840191612a2a565b90612ab9612aae612a9a60608701876129e1565b601f19858703810160808701529591612a2a565b9460808101906129e1565b93909282860301910152612a2a565b903590601e19813603018212156103dd57018035906001600160401b0382116103dd576020019181360383136103dd57565b634e487b7160e01b5f52601260045260245ffd5b8115612b18570490565b612afa565b906801bc16d674ec8000009180830292830403610aae57565b90670de0b6b3a764000091828102928184041490151715610aae57565b91908201809211610aae57565b6001600160401b0381116106985760051b60200190565b90612b8182612b60565b612b8e60405191826106cb565b8281528092612b9f601f1991612b60565b01905f5b828110612baf57505050565b806060602080938501015201612ba3565b634e487b7160e01b5f52603260045260245ffd5b90821015612beb5761108d9160051b810190612ac8565b612bc0565b908092918237015f815290565b3d15612c27573d90612c0e82611321565b91612c1c60405193846106cb565b82523d5f602084013e565b606090565b6020818303126103dd578051906001600160401b0382116103dd570181601f820112156103dd578051612c5e81611321565b92612c6c60405194856106cb565b818452602082840101116103dd5761074391602080850191016106ec565b8051821015612beb5760209160051b010190565b919091612caa83612b77565b925f5b818110612cb957505050565b5f80612cc6838587612bd4565b60409391612cd8855180938193612bf0565b0390305af490612ce6612bfd565b9115612d0d575090600191612cfb8288612c8a565b52612d068187612c8a565b5001612cad565b9060448151106103dd57612d47612d3260049283810151602480918301019101612c2c565b925162461bcd60e51b81529283928301610732565b0390fd5b610109546001600160a01b03168061074357507f000000000000000000000000000000000000000000000000000000000000000090565b61026a546001600160a01b03919082163303611223576001600160a01b0381165f90815261026b60205260409020549215159260ff1615158314612e15576001600160a01b0381165f90815261026b6020526040902060ff1981541660ff851617905560405192835216907fffe80d6d91bb72bd036e4be8badcf33d7c8e13b2a0aaab3dc3aef76f6b1f786a60203392a3565b505050565b612e2333613464565b6126973433614521565b60405163752a536d60e01b81526020816004817f00000000000000000000000000000000000000000000000000000000000000006001600160a01b03165afa90811561062c575f91612ec3575b5060208201916001600160801b03918284511691828214612ebc5783612eaf612eaa612eb7958584865116612fd0565b61431c565b16905261431c565b169052565b5050505050565b612edc915060203d6020116106255761061781836106cb565b5f612e7a565b90808202905f1981840990828083109203918083039214612f51576127109082821115612f3f577fbc01a36e2eb1c432ca57a786c226809d495182a9930be0ded288ce703afb7e91940990828211900360fc1b910360041c170290565b60405163227bc15360e01b8152600490fd5b505061271091500490565b90808202905f1981840990828083109203918083039214612fbf57670de0b6b3a76400009082821115612f3f577faccb18165bd6fe31ae1cf318dc5b51eee0e1ba569b88cd74c1773b91fac10669940990828211900360ee1b910360121c170290565b5050670de0b6b3a764000091500490565b9091828202915f19848209938380861095039480860395146130435784831115612f3f57829109815f038216809204600280826003021880830282030280830282030280830282030280830282030280830282030280920290030293600183805f03040190848311900302920304170290565b5050906107439250612b0e565b908160609103126103dd578051916040602083015192015161074381612193565b81835290916001600160fb1b0383116103dd5760209260051b809284830137010190565b90602082528035602083015260208101358060130b8091036103dd57604083015260408101356130c4816103cc565b6001600160a01b031660608381019190915281013536829003601e19018112156103dd5701602081359101906001600160401b0381116103dd578060051b360382136103dd5760a0836080806107439601520191613071565b9190915f8382019384129112908015821691151617610aae57565b6040516325f56f1160e01b81526001600160a01b039291606090829081906131639060048301613095565b03815f877f0000000000000000000000000000000000000000000000000000000000000000165af192831561062c575f915f905f95613289575b50841561323657816131ad6126ed565b16917f000000000000000000000000000000000000000000000000000000000000000016821461322f57509060205f92600460405180958193634641257d60e01b83525af190811561062c5761320a925f9261320e575b5061311d565b9190565b61322891925060203d6020116106255761061781836106cb565b905f613204565b908161323c575b50509190565b803b156103dd57604051636ee3193160e11b815260048101929092525f908290602490829084905af1801561062c57613276575b80613236565b80610f616132839261069d565b5f613270565b919450506132af915060603d6060116132b7575b6132a781836106cb565b810190613050565b93905f61319d565b503d61329d565b600160ff1b8114610aae575f0390565b8015612697576132e3611dd860cf5460801c90565b5f82126133b557816132f491612b53565b90613301610e048361431c565b613316609c549161ffff8360a01c1690612ee2565b8015612e1557807f555ee6b2ef9506d870f386c067e47d3689435330b012ad263d8cc3531868654793613354611dd860cf546001600160801b031690565b8061339f57505061339a90925b6001600160a01b0316916133758484615161565b60405193849384604091949392606082019560018060a01b0316825260208201520152565b0390a1565b61339a926133af92039084612fd0565b92613361565b906133bf906132be565b6133d4611dd860d5546001600160801b031690565b806133f4575b50806133e4575050565b612eaa610e04916128ea9361295b565b9061345b7f3623a54e8078be0d90ecfbef82da6a31ff3e6be8aa1718e7a7f3d0d33ff1d32a9161172061343f61343461342d8888612b53565b8785612fd0565b80809403960361431c565b6001600160801b03166001600160801b031960d554161760d555565b0390a15f6133da565b6001600160a01b03165f90815261026b602052604090205460ff1661122357565b60018060a01b0381165f5261016e60205260405f2090604051916134a88361067d565b54906001600160801b03918281169081855260801c602085015215612e15576134fb610c8f613500926134d9613dea565b6134e286612e2d565b6001600160a01b03165f90815260d36020526040902090565b6149d2565b9151161161350a57565b604051633684c65960e01b8152600490fd5b51906001600160401b03821682036103dd57565b908160609103126103dd5760405190606082018281106001600160401b038211176106985761358291604091825280516135698161047c565b84526135776020820161351c565b60208501520161351c565b604082015290565b92906001600160a01b0390818116156108ba576135a5613dea565b817f00000000000000000000000000000000000000000000000000000000000000001690813b156103dd57604094855193631d8557d760e01b85526004945f81878183895af1801561062c57613890575b506001600160a01b0388165f90815261016e60205260409020613618906125b7565b906001600160801b0361363283516001600160801b031690565b16156138805761364182612e2d565b875163e48a5f7b60e01b81523087820190815290916060918391908290819060200103917f0000000000000000000000000000000000000000000000000000000000000000165afa801561062c57613861575b508651936303d1689d60e11b978886526020918287806136bb888c83019190602083019252565b0381845afa96871561062c575f97613842575b5086996136ee610c8f8d60018060a01b03165f5260d360205260405f2090565b88118015613832575b6138225790836137349261371287516001600160801b031690565b908551948592839283528d83019190916001600160801b036020820193169052565b0381845afa98891561062c575f859488946137799c613805575b5051633b9e9f0160e21b815233928101928352602083019490945292998a9384929091839160400190565b03925af195861561062c57610daa6137c0946137a393610573936128ea9a6137e7575b505061431c565b6001600160a01b0388165f90815261016e60205260409020612621565b6137e26137cc836143e9565b80976137dd610e04610df08761431c565b61537b565b61434f565b816137fd92903d106106255761061781836106cb565b505f8061379c565b61381b90873d89116106255761061781836106cb565b505f61374e565b825163efda1a2760e01b81528990fd5b5061383b6126b7565b88116136f7565b61385a919750833d85116106255761061781836106cb565b955f6136ce565b6138799060603d606011610f3d57610f2e81836106cb565b505f613694565b875163673f032f60e11b81528690fd5b80610f6161389d9261069d565b5f6135f6565b6040515f905f54906138b482610631565b9283825260209384830193600190866001821691825f146139a9575050600114613966575b505091816138ef613960936129989503826106cb565b519020604080517f8b73c3c69bb8fe3d512ecc4cf759cc79239f7b179b0ffacaa9a75d522b39400f95810195865260208601929092527fc89efdaa54c0f20c7adf612882df0950f5a951637e0307cdcb4c672f298b8bc69085015246606085015230608085015291829060a0850190565b51902090565b5f80805286935091905f805160206159748339815191525b82841061399457505050820101816138ef6138d9565b8054868501860152879490930192810161397e565b60ff1916875292151560051b850190920192508391506138ef90506138d9565b6139d1614afe565b6139e6611dd860d0546001600160801b031690565b60018111613adf57600114613a5a575b60d654613a0161557b565b90808210613a1d575b5050613a155f60d655565b6128ea614adc565b5f8051602061599483398151915291613a509103613a3a816154a6565b604080519182525f602083015290918291820190565b0390a15f80613a0a565b613a93613a77613a7260cf546001600160801b031690565b6125f0565b6001600160801b03166001600160801b031960cf54161760cf55565b613aa86001600160801b031960d0541660d055565b613ab0615444565b5f8051602061599483398151915260405180613ad781905f60206040840193600181520152565b0390a16139f6565b604051630299325160e41b8152600490fd5b9190613afb614afe565b608082015190613b09614afe565b6001600160a01b03841680156108ba57613ba994613b9993613b82926001600160601b0360a01b60375416176037557f2013570c343af8ab14a9778150e381a0fda34ed6368127a95fd5e7210cbec5bf6040516020815280613b703394602083019061070d565b0390a2602085015161ffff1690614b3f565b613b8c8351614b90565b613b94614bc0565b614bed565b6060604082015191015190614c1c565b6128ea614d49565b6128ea90612215614afe565b6001600160a01b037f00000000000000000000000000000000000000000000000000000000000000008116308114918215613bfb575b505061164e57565b5f805160206159b48339815191525416141590505f80613bf3565b6037546001600160a01b0316330361122357565b90604051613c378161067d565b91546001600160a01b038116835260a01c6020830152565b60d1545f948594939091808410801590613de2575b613dd55783613d9f575f5b60d15f526001600160a01b0316613c945f805160206159f48339815191528601613c2a565b8051909790613cab906001600160a01b03166115e4565b98613cd0613cc46020809b01516001600160601b031690565b6001600160601b031690565b948381108015613d95575b613d835791600193979a95613cfa613d06939488035b838c0390614e6c565b80920198870391612fd0565b01970193808611801590613d79575b613d6e5760d15f528290613d375f805160206159f48339815191528701613c2a565b805190890151969992966001600160a01b039091169460019392613d069290916001600160601b0390911690613cfa908803613cf1565b945050509250509190565b5081851015613d15565b60405163e8722f8f60e01b8152600490fd5b50808b1115613cdb565b60d15f527f695fb3134ad82c3b8022bc5464edd0bcc9424ef672b52245dcb6ab2374327ce28401546001600160a01b0316613c6f565b505093505050505f905f90565b508415613c64565b604051633eb1acf760e11b81523060048201526020816024817f00000000000000000000000000000000000000000000000000000000000000006001600160a01b03165afa90811561062c575f91613e56575b50613e4457565b60405163e775715160e01b8152600490fd5b613e6f915060203d6020116114ea576114db81836106cb565b5f613e3d565b604290467f000000000000000000000000000000000000000000000000000000000000000003613f245761010a54905b613ebc613eb56040830183612ac8565b369161133c565b602081519101206040519060208201927f838af86bfca91ada6557e38d913af1c2f24ef9b2567b3b77cc9e1144314b35b08452356040830152606082015260608152613f07816106b0565b5190206040519161190160f01b8352600283015260228201522090565b613f2c614e7e565b90613ea5565b60041115613f3c57565b634e487b7160e01b5f52602160045260245ffd5b613f5a8383614f4b565b50613f6781959295613f32565b159384614003575b508315613f7d575b50505090565b5f929350908291604051613fb5816129986020820194630b135d3f60e11b998a8752602484015260406044840152606483019061070d565b51915afa90613fc2612bfd565b82613ff5575b82613fd8575b50505f8080613f77565b613fed9192506020808251830101910161259d565b145f80613fce565b915060208251101591613fc8565b6001600160a01b0383811691161493505f613f6f565b906030116103dd5790603090565b906090116103dd5760300190606090565b9060b0116103dd5760900190602090565b909392938483116103dd5784116103dd578101920390565b35906020811061406f575090565b5f199060200360031b1b1690565b969594906140ba9361409e6140ac926060979560808c5260808c0191612a2a565b9089820360208b015261070d565b918783036040890152612a2a565b930152565b906020610743928181520190612a12565b916020610743938181520191612a2a565b60b091828104915f90816140f3614f85565b957f00000000000000000000000000000000000000000000000000000000000000006001600160a01b0316935f92905b87841061413557505050505050505050565b82614144910180928887614049565b9061414f8282614019565b9161416e6141686141608684614027565b969093614038565b90614061565b90893b156103dd575f908d61419b604094855198899485946304512a2360e31b86528a8a6004880161407d565b03816801bc16d674ec8000008d5af190811561062c577f64b6e61d93b7a91e8cc4376183ede0997a27b44fd9dd2f30a866b2a5730efdb1946141e7926141f6575b5051928392836140d0565b0390a160018193019290614123565b80610f616142039261069d565b5f6141dc565b816030116103dd57614168917f00000000000000000000000000000000000000000000000000000000000000006001600160a01b0316614247614f85565b9061425e6142558486614027565b96909486614038565b94813b156103dd576801bc16d674ec8000005f946142c497604051988996879586946304512a2360e31b8652608060048701526142b56142a28d6084890190612a12565b60031994858983030160248a015261070d565b92868403016044870152612a2a565b90606483015203925af190811561062c577f64b6e61d93b7a91e8cc4376183ede0997a27b44fd9dd2f30a866b2a5730efdb19261339a9261430d575b50604051918291826140bf565b6143169061069d565b5f614300565b6001600160801b0390818111614330571690565b604490604051906306dfcc6560e41b8252608060048301526024820152fd5b907f9b779b17422d0df92223018b32b4d1fa46e071723d6817e2486d003becc55f009160028354146143d757600283558147106143bf575f918291829182916001600160a01b03165af16143a1612bfd565b50156143ad5760019055565b604051630a12f52160e11b8152600490fd5b60405163cd78605960e01b8152306004820152602490fd5b604051633ee5aeb560e01b8152600490fd5b60cf54906001600160801b03821681158015614418575b1561440b5750905090565b6107439260801c91612fd0565b508015614400565b60cf546001600160801b0381169082158015614470575b1561444157505090565b60801c90614450828285612fd0565b928215612b18570961445f5790565b6001810180911115610743576125dc565b508115614437565b61026a80546001600160a01b0319166001600160a01b03929092169182179055337fdd44becc667b27d303085374b2760e783af69bbc9db209947ab811a6f1bbc58b5f80a3565b6144c7613dea565b6001600160a01b0316801561450f57609c80546001600160a01b03191682179055337faaebcf1bfa00580e41d966056b48521fa9f202645c86d4ddf28113e617c1b1d35f80a3565b604051630ed1b8b360e31b8152600490fd5b919061452b613dea565b6001600160a01b0383169081156108ba5780156145d75780614552611dd860cf5460801c90565b019361455c612938565b85116145c557610e04946145839161457e61457685614420565b97889361431c565b615161565b60408051918252602082018590525f9082015233907f861a4138e41fb21c121a7dbb1053df465c837fc77380cc7226189a662281be2c9080606081015b0390a3565b6040516304ffa0ff60e51b8152600490fd5b6040516318374fd160e21b8152600490fd5b909291926145f5613dea565b6001600160a01b0382169182156108ba5781156145d7578161461c611dd860cf5460801c90565b01614625612938565b81116145c557610e049561466c6145c0927f861a4138e41fb21c121a7dbb1053df465c837fc77380cc7226189a662281be2c9461457e61466488614420565b9a8b9361431c565b60408051948552602085018890526001600160a01b039091169084015233929081906060820190565b9190916001600160801b0380809416911601918211610aae57565b93929190916146bd61535a565b6146c5613dea565b6001600160a01b0385165f90815261016e602052604090206146e6906125b7565b946001600160801b0361470087516001600160801b031690565b16156148b55761470f86612e2d565b6001600160a01b0381165f90815260d360205260409020614733906134fb90610c8f565b955f198414614885575b6040516329460cc560e11b81526001600160a01b0386811660048301526024820186905290949093906020866044815f7f00000000000000000000000000000000000000000000000000000000000000008a165af195861561062c575f96614864575b5085986147cf6147c26147b28461431c565b86516001600160801b0316614695565b6001600160801b03168552565b6147e3611dd885516001600160801b031690565b1161350a577fa16d97739893e1436c9753925fb5cef174c4f368699dc86cc8fdb0e6e60f8e589561482c61485f946105948760018060a01b03165f5261016e60205260405f2090565b604080516001600160a01b03998a1681526020810192909252810191909152951660608601529116929081906080820190565b0390a2565b61487e91965060203d6020116106255761061781836106cb565b945f6147a0565b925061489b611dd884516001600160801b031690565b808711156148ab5786039261473d565b505f955050505050565b60405163752a536d60e01b81526020816004817f00000000000000000000000000000000000000000000000000000000000000006001600160a01b03165afa90811561062c5761492091614910915f91614925575b5061431c565b6001600160801b03166020880152565b61470f565b61493e915060203d6020116106255761061781836106cb565b5f61490a565b9061494e82613464565b61495781613464565b6001600160a01b0391821691821580156149c8575b6108ba57825f5260d360205260405f2090815492858403938411610aae575f805160206159d483398151915293602093556149b78160018060a01b03165f5260d360205260405f2090565b8681540190556040519586521693a3565b508082161561496c565b60405163e48a5f7b60e01b81523060048201526001600160a01b036060826024817f000000000000000000000000000000000000000000000000000000000000000085165afa801561062c57614a6d936001600160401b03610c6a6040614a4c946020975f91614abd575b5001516001600160401b031690565b9060405180809581946363737ac960e11b8352600483019190602083019252565b03917f0000000000000000000000000000000000000000000000000000000000000000165afa90811561062c575f91614aa4575090565b610743915060203d6020116106255761061781836106cb565b614ad6915060603d606011610f3d57610f2e81836106cb565b5f614a3d565b614ae4614afe565b614aec614e7e565b61010a80548203614afb575050565b55565b60ff7ff0c57e16840df040f15088dc2f81fe391c3923bec73e23a9662efc9c229c6a005460401c1615614b2d57565b604051631afcd79f60e31b8152600490fd5b614b47614afe565b61271061ffff831611614b7e57614b5d906144bf565b609c805461ffff60a01b191660a09290921b61ffff60a01b16919091179055565b604051638a81d3b360e01b8152600490fd5b614b98614afe565b8015614bae5760018101614ba95750565b60d455565b6040516331278a8760e01b8152600490fd5b614bc8614afe565b6801bc16d674ec800000614bda612938565b10614bae57614be7614e7e565b61010a55565b614bf5614afe565b6001600160a01b031680614c065750565b6101a180546001600160a01b0319169091179055565b614c24614afe565b601e8151118015614d3e575b614d2c57614c3c614afe565b8051906001600160401b03821161069857614c6082614c5b5f54610631565b6155bd565b602090816001601f851114614cb857509180614c9692614c9d95945f92614cad575b50508160011b915f199060031b1c19161790565b5f55615687565b6128ea614ca86138a3565b600455565b015190505f80614c82565b5f80529190601f1984165f80516020615974833981519152935f905b828210614d14575050916001939185614c9d97969410614cfc575b505050811b015f55615687565b01515f1960f88460031b161c191690555f8080614cef565b80600186978294978701518155019601940190614cd4565b604051632d3f993760e21b8152600490fd5b50600a825111614c30565b614d51614afe565b614d59614afe565b614d61614afe565b60017f9b779b17422d0df92223018b32b4d1fa46e071723d6817e2486d003becc55f0055633b9aca003410614d9a576126973430614521565b60405163ea2559bb60e01b8152600490fd5b908160209103126103dd57516107438161221a565b6040516352d1902d60e01b81529290916020846004816001600160a01b0387165afa5f9481614e4b575b50614e1157604051634c9c8ce360e01b81526001600160a01b0384166004820152602490fd5b90915f805160206159b48339815191528403614e32576128ea929350615765565b604051632a87526960e21b815260048101859052602490fd5b614e6591955060203d6020116106255761061781836106cb565b935f614deb565b9080821015614e79575090565b905090565b6e5661756c7456616c696461746f727360881b6020604051614e9f8161067d565b600f8152015260405160208101907f8b73c3c69bb8fe3d512ecc4cf759cc79239f7b179b0ffacaa9a75d522b39400f82527f35d6cf9768d8be929c3a11ed667b1560ae6f1920195a985758fdd7265505d1ca60408201527fc89efdaa54c0f20c7adf612882df0950f5a951637e0307cdcb4c672f298b8bc660608201524660808201523060a082015260a0815260c081018181106001600160401b038211176106985760405251902090565b8151919060418303614f7b57614f749250602082015190606060408401519301515f1a90615807565b9192909190565b50505f9160029190565b604051600160f81b60208201525f60218201523060601b602c820152602081526107438161067d565b9291908015611f26576001600160a01b038281169283156108ba57614fd4611b2261589b565b6150dd5790611c30956150c16150a5857f211091c5bf013c1230f996c3bb2bc327e3de429a3d3c356dcea9a0c858bc407f958161507a61501f611dd860d0546001600160801b031690565b9261299861504c8561504761503261557b565b615041611dd860d55460801c90565b90612b53565b612b53565b9e8f6040519283916020830195429087604091949392606082019560018060a01b0316825260208201520152565b556001600160a01b0385165f90815260d36020526040902061509d83825461295b565b90550161431c565b6001600160801b03166001600160801b031960d054161760d055565b60408051888152602081019590955291169290819081016145c0565b9293946150e98361264a565b9384156145d7577f5cdf07ad0fc222442720b108e3ed4c4640f0fadc2ab2253e66f259a0fea834809361513e8661515993615134610e046151298461431c565b60cf5460801c612608565b6137e2848761537b565b60405193849316958360209093929193604081019481520152565b0390a35f1990565b5f805160206159d483398151915260205f9261517c8561431c565b60cf54906151946001600160801b0391828416614695565b6001600160801b031990921691161760cf556001600160a01b031680845260d3825260408085208054870190555194855293a3565b6151e2476151dc611dd860d05460801c90565b9061295b565b9081156153555760d5546001600160801b03811690816152dd575b5050615214611dd860d0546001600160801b031690565b91821580156152d5575b6152cf576152359061522f8461264a565b90614e6c565b80156152cf57615244816143e9565b9283156152c8576151296128ea926152656150a5612eaa88610e049661295b565b61527f611be26152748361431c565b60d05460801c614695565b61528981876154f1565b60408051878152602081018390525f805160206159948339815191529190a1612eaa613a776152b78861431c565b60cf546001600160801b0316612608565b505f925050565b505f9150565b50801561521e565b81849294106152c85761527484615325935f8051602061599483398151915282611be29560801c61530e82826154f1565b604080519182526020820192909252a1039461431c565b6153396001600160801b0360d5541660d555565b61534e6001600160801b031960d5541660d555565b5f806151fd565b5f9150565b61536261589b565b1561536957565b604051630a62fbdb60e11b8152600490fd5b6001600160a01b03165f81815260d360205260409020805483810391908211610aae575f935f805160206159d483398151915292602092556153bc8161431c565b60cf54906001600160801b03908183160316906001600160801b0319161760cf55604051908152a3565b60d154906801000000000000000082101561069857600182018060d155821015612beb5760d15f52805160209091015160a01b6001600160a01b0319166001600160a01b0391909116175f805160206159f483398151915290910155565b61544c61557b565b60018101809111610aae576001600160a01b0380821161548657906128ea91604051916154788361067d565b1681525f60208201526153e6565b6040516306dfcc6560e41b815260a0600482015260248101839052604490fd5b80156154df576154b461557b565b908101809111610aae576001600160a01b0380821161548657906128ea91604051916154788361067d565b604051632ec8835b60e21b8152600490fd5b91909180156154df5761550261557b565b908101809111610aae576001600160a01b03808211615486576001600160601b039081851161555b57906128ea939461555692604051946155428661067d565b168452166001600160601b03166020830152565b6153e6565b6040516306dfcc6560e41b81526060600482015260248101869052604490fd5b60d1548061558857505f90565b60d15f527f695fb3134ad82c3b8022bc5464edd0bcc9424ef672b52245dcb6ab2374327ce201546001600160a01b03166115e4565b601f81116155c9575050565b5f80525f80516020615974833981519152906020601f840160051c8301931061560c575b601f0160051c01905b818110615601575050565b5f81556001016155f6565b90915081906155ed565b90601f8211615623575050565b60019160015f527fb10e2d527612073b26eecdfd717e6a320cf44b4afac2b0732d9fcbe2b7fa0cf6906020601f840160051c8301931061567d575b601f0160051c01905b81811061567357505050565b5f81558201615667565b909150819061565e565b9081516001600160401b038111610698576001906156ae816156a98454610631565b615616565b602080601f83116001146156e3575081906156df9394955f92614cad5750508160011b915f199060031b1c19161790565b9055565b90601f1983169561571560015f527fb10e2d527612073b26eecdfd717e6a320cf44b4afac2b0732d9fcbe2b7fa0cf690565b925f905b88821061574e5750508385969710615736575b505050811b019055565b01515f1960f88460031b161c191690555f808061572c565b808785968294968601518155019501930190615719565b90813b156157e6575f805160206159b483398151915280546001600160a01b0319166001600160a01b0384169081179091557fbc7cd75a20ee27fd9adebab32041f755214dbc6bffa90cc0225b39da2e5c2d3b5f80a28051156157cb576126979161590a565b5050346157d457565b60405163b398979f60e01b8152600490fd5b604051634c9c8ce360e01b81526001600160a01b0383166004820152602490fd5b90917f7fffffffffffffffffffffffffffffff5d576e7357a4501ddfe92f46681b20a0841161589057906158606020945f9493604051948594859094939260ff6060936080840197845216602083015260408201520152565b838052039060015afa1561062c575f516001600160a01b0381161561588657905f905f90565b505f906001905f90565b5050505f9160039190565b604051630156a69560e11b81523060048201526020816024817f00000000000000000000000000000000000000000000000000000000000000006001600160a01b03165afa90811561062c575f916158f1575090565b610743915060203d6020116114ea576114db81836106cb565b5f8061074393602081519101845af4615921612bfd565b919061593757508051156143ad57805190602001fd5b8151158061596a575b615948575090565b604051639996b31560e01b81526001600160a01b039091166004820152602490fd5b50803b1561594056fe290decd9548b62a8d60345a988386fc84ba6bc95484008f6362f93160ef3e563624ea167e477f9d39f7f4094b9dfe2e6346eb4a7aada54338db51abd554c4b9f360894a13ba1a3210667c828492db98dca3e2076cc3735a920a3ca505d382bbcddf252ad1be2c89b69c2b068fc378daa952ba7f163c4a11628f55a4df523b3ef695fb3134ad82c3b8022bc5464edd0bcc9424ef672b52245dcb6ab2374327ce3a26469706673582212209ddcbe02370e402e806e07916e47bf7898eab2f13568b1f607282f6308231d9464736f6c63430008160033",
  "linkReferences": {},
  "deployedLinkReferences": {}
}