{
  "_format": "hh-sol-artifact-1",
  "contractName": "EthBlocklistVault",
  "sourceName": "contracts/vaults/ethereum/EthBlocklistVault.sol",
  "abi": [
    {
      "inputs": [
        {
          "internalType": "address",
          "name": "_keeper",
          "type": "address"
        },
        {
          "internalType": "address",
          "name": "_vaultsRegistry",
          "type": "address"
        },
        {
          "internalType": "address",
          "name": "_validatorsRegistry",
          "type": "address"
        },
        {
          "internalType": "address",
          "name": "osTokenVaultController",
          "type": "address"
        },
        {
          "internalType": "address",
          "name": "osTokenConfig",
          "type": "address"
        },
        {
          "internalType": "address",
          "name": "sharedMevEscrow",
          "type": "address"
        },
        {
          "internalType": "address",
          "name": "depositDataRegistry",
          "type": "address"
        },
        {
          "internalType": "uint256",
          "name": "exitingAssetsClaimDelay",
          "type": "uint256"
        }
      ],
      "stateMutability": "nonpayable",
      "type": "constructor"
    },
    {
      "inputs": [],
      "name": "AccessDenied",
      "type": "error"
    },
    {
      "inputs": [
        {
          "internalType": "address",
          "name": "target",
          "type": "address"
        }
      ],
      "name": "AddressEmptyCode",
      "type": "error"
    },
    {
      "inputs": [
        {
          "internalType": "address",
          "name": "account",
          "type": "address"
        }
      ],
      "name": "AddressInsufficientBalance",
      "type": "error"
    },
    {
      "inputs": [],
      "name": "CapacityExceeded",
      "type": "error"
    },
    {
      "inputs": [
        {
          "internalType": "address",
          "name": "implementation",
          "type": "address"
        }
      ],
      "name": "ERC1967InvalidImplementation",
      "type": "error"
    },
    {
      "inputs": [],
      "name": "ERC1967NonPayable",
      "type": "error"
    },
    {
      "inputs": [],
      "name": "ExitRequestNotProcessed",
      "type": "error"
    },
    {
      "inputs": [],
      "name": "FailedInnerCall",
      "type": "error"
    },
    {
      "inputs": [],
      "name": "InsufficientAssets",
      "type": "error"
    },
    {
      "inputs": [],
      "name": "InvalidAssets",
      "type": "error"
    },
    {
      "inputs": [],
      "name": "InvalidCapacity",
      "type": "error"
    },
    {
      "inputs": [],
      "name": "InvalidCheckpointIndex",
      "type": "error"
    },
    {
      "inputs": [],
      "name": "InvalidCheckpointValue",
      "type": "error"
    },
    {
      "inputs": [],
      "name": "InvalidFeePercent",
      "type": "error"
    },
    {
      "inputs": [],
      "name": "InvalidFeeRecipient",
      "type": "error"
    },
    {
      "inputs": [],
      "name": "InvalidHealthFactor",
      "type": "error"
    },
    {
      "inputs": [],
      "name": "InvalidInitialization",
      "type": "error"
    },
    {
      "inputs": [],
      "name": "InvalidPosition",
      "type": "error"
    },
    {
      "inputs": [],
      "name": "InvalidReceivedAssets",
      "type": "error"
    },
    {
      "inputs": [],
      "name": "InvalidSecurityDeposit",
      "type": "error"
    },
    {
      "inputs": [],
      "name": "InvalidShares",
      "type": "error"
    },
    {
      "inputs": [],
      "name": "InvalidValidators",
      "type": "error"
    },
    {
      "inputs": [],
      "name": "LiquidationDisabled",
      "type": "error"
    },
    {
      "inputs": [],
      "name": "LowLtv",
      "type": "error"
    },
    {
      "inputs": [],
      "name": "MathOverflowedMulDiv",
      "type": "error"
    },
    {
      "inputs": [],
      "name": "NotCollateralized",
      "type": "error"
    },
    {
      "inputs": [],
      "name": "NotHarvested",
      "type": "error"
    },
    {
      "inputs": [],
      "name": "NotInitializing",
      "type": "error"
    },
    {
      "inputs": [],
      "name": "ReentrancyGuardReentrantCall",
      "type": "error"
    },
    {
      "inputs": [
        {
          "internalType": "uint8",
          "name": "bits",
          "type": "uint8"
        },
        {
          "internalType": "uint256",
          "name": "value",
          "type": "uint256"
        }
      ],
      "name": "SafeCastOverflowedUintDowncast",
      "type": "error"
    },
    {
      "inputs": [],
      "name": "UUPSUnauthorizedCallContext",
      "type": "error"
    },
    {
      "inputs": [
        {
          "internalType": "bytes32",
          "name": "slot",
          "type": "bytes32"
        }
      ],
      "name": "UUPSUnsupportedProxiableUUID",
      "type": "error"
    },
    {
      "inputs": [],
      "name": "UpgradeFailed",
      "type": "error"
    },
    {
      "inputs": [],
      "name": "ZeroAddress",
      "type": "error"
    },
    {
      "anonymous": false,
      "inputs": [
        {
          "indexed": true,
          "internalType": "address",
          "name": "caller",
          "type": "address"
        },
        {
          "indexed": true,
          "internalType": "address",
          "name": "blocklistManager",
          "type": "address"
        }
      ],
      "name": "BlocklistManagerUpdated",
      "type": "event"
    },
    {
      "anonymous": false,
      "inputs": [
        {
          "indexed": true,
          "internalType": "address",
          "name": "caller",
          "type": "address"
        },
        {
          "indexed": true,
          "internalType": "address",
          "name": "account",
          "type": "address"
        },
        {
          "indexed": false,
          "internalType": "bool",
          "name": "isBlocked",
          "type": "bool"
        }
      ],
      "name": "BlocklistUpdated",
      "type": "event"
    },
    {
      "anonymous": false,
      "inputs": [
        {
          "indexed": false,
          "internalType": "uint256",
          "name": "shares",
          "type": "uint256"
        },
        {
          "indexed": false,
          "internalType": "uint256",
          "name": "assets",
          "type": "uint256"
        }
      ],
      "name": "CheckpointCreated",
      "type": "event"
    },
    {
      "anonymous": false,
      "inputs": [
        {
          "indexed": true,
          "internalType": "address",
          "name": "caller",
          "type": "address"
        },
        {
          "indexed": true,
          "internalType": "address",
          "name": "receiver",
          "type": "address"
        },
        {
          "indexed": false,
          "internalType": "uint256",
          "name": "assets",
          "type": "uint256"
        },
        {
          "indexed": false,
          "internalType": "uint256",
          "name": "shares",
          "type": "uint256"
        },
        {
          "indexed": false,
          "internalType": "address",
          "name": "referrer",
          "type": "address"
        }
      ],
      "name": "Deposited",
      "type": "event"
    },
    {
      "anonymous": false,
      "inputs": [
        {
          "indexed": true,
          "internalType": "address",
          "name": "owner",
          "type": "address"
        },
        {
          "indexed": true,
          "internalType": "address",
          "name": "receiver",
          "type": "address"
        },
        {
          "indexed": false,
          "internalType": "uint256",
          "name": "positionTicket",
          "type": "uint256"
        },
        {
          "indexed": false,
          "internalType": "uint256",
          "name": "shares",
          "type": "uint256"
        }
      ],
      "name": "ExitQueueEntered",
      "type": "event"
    },
    {
      "anonymous": false,
      "inputs": [
        {
          "indexed": true,
          "internalType": "address",
          "name": "receiver",
          "type": "address"
        },
        {
          "indexed": false,
          "internalType": "uint256",
          "name": "prevPositionTicket",
          "type": "uint256"
        },
        {
          "indexed": false,
          "internalType": "uint256",
          "name": "newPositionTicket",
          "type": "uint256"
        },
        {
          "indexed": false,
          "internalType": "uint256",
          "name": "withdrawnAssets",
          "type": "uint256"
        }
      ],
      "name": "ExitedAssetsClaimed",
      "type": "event"
    },
    {
      "anonymous": false,
      "inputs": [
        {
          "indexed": false,
          "internalType": "uint256",
          "name": "penalty",
          "type": "uint256"
        }
      ],
      "name": "ExitingAssetsPenalized",
      "type": "event"
    },
    {
      "anonymous": false,
      "inputs": [
        {
          "indexed": true,
          "internalType": "address",
          "name": "caller",
          "type": "address"
        },
        {
          "indexed": true,
          "internalType": "address",
          "name": "feeRecipient",
          "type": "address"
        }
      ],
      "name": "FeeRecipientUpdated",
      "type": "event"
    },
    {
      "anonymous": false,
      "inputs": [
        {
          "indexed": false,
          "internalType": "address",
          "name": "receiver",
          "type": "address"
        },
        {
          "indexed": false,
          "internalType": "uint256",
          "name": "shares",
          "type": "uint256"
        },
        {
          "indexed": false,
          "internalType": "uint256",
          "name": "assets",
          "type": "uint256"
        }
      ],
      "name": "FeeSharesMinted",
      "type": "event"
    },
    {
      "anonymous": false,
      "inputs": [
        {
          "indexed": false,
          "internalType": "uint64",
          "name": "version",
          "type": "uint64"
        }
      ],
      "name": "Initialized",
      "type": "event"
    },
    {
      "anonymous": false,
      "inputs": [
        {
          "indexed": true,
          "internalType": "address",
          "name": "caller",
          "type": "address"
        },
        {
          "indexed": true,
          "internalType": "address",
          "name": "keysManager",
          "type": "address"
        }
      ],
      "name": "KeysManagerUpdated",
      "type": "event"
    },
    {
      "anonymous": false,
      "inputs": [
        {
          "indexed": true,
          "internalType": "address",
          "name": "caller",
          "type": "address"
        },
        {
          "indexed": false,
          "internalType": "string",
          "name": "metadataIpfsHash",
          "type": "string"
        }
      ],
      "name": "MetadataUpdated",
      "type": "event"
    },
    {
      "anonymous": false,
      "inputs": [
        {
          "indexed": true,
          "internalType": "address",
          "name": "caller",
          "type": "address"
        },
        {
          "indexed": false,
          "internalType": "uint256",
          "name": "assets",
          "type": "uint256"
        },
        {
          "indexed": false,
          "internalType": "uint256",
          "name": "shares",
          "type": "uint256"
        }
      ],
      "name": "OsTokenBurned",
      "type": "event"
    },
    {
      "anonymous": false,
      "inputs": [
        {
          "indexed": true,
          "internalType": "address",
          "name": "caller",
          "type": "address"
        },
        {
          "indexed": true,
          "internalType": "address",
          "name": "user",
          "type": "address"
        },
        {
          "indexed": false,
          "internalType": "address",
          "name": "receiver",
          "type": "address"
        },
        {
          "indexed": false,
          "internalType": "uint256",
          "name": "osTokenShares",
          "type": "uint256"
        },
        {
          "indexed": false,
          "internalType": "uint256",
          "name": "shares",
          "type": "uint256"
        },
        {
          "indexed": false,
          "internalType": "uint256",
          "name": "receivedAssets",
          "type": "uint256"
        }
      ],
      "name": "OsTokenLiquidated",
      "type": "event"
    },
    {
      "anonymous": false,
      "inputs": [
        {
          "indexed": true,
          "internalType": "address",
          "name": "caller",
          "type": "address"
        },
        {
          "indexed": false,
          "internalType": "address",
          "name": "receiver",
          "type": "address"
        },
        {
          "indexed": false,
          "internalType": "uint256",
          "name": "assets",
          "type": "uint256"
        },
        {
          "indexed": false,
          "internalType": "uint256",
          "name": "shares",
          "type": "uint256"
        },
        {
          "indexed": false,
          "internalType": "address",
          "name": "referrer",
          "type": "address"
        }
      ],
      "name": "OsTokenMinted",
      "type": "event"
    },
    {
      "anonymous": false,
      "inputs": [
        {
          "indexed": true,
          "internalType": "address",
          "name": "caller",
          "type": "address"
        },
        {
          "indexed": true,
          "internalType": "address",
          "name": "user",
          "type": "address"
        },
        {
          "indexed": false,
          "internalType": "address",
          "name": "receiver",
          "type": "address"
        },
        {
          "indexed": false,
          "internalType": "uint256",
          "name": "osTokenShares",
          "type": "uint256"
        },
        {
          "indexed": false,
          "internalType": "uint256",
          "name": "shares",
          "type": "uint256"
        },
        {
          "indexed": false,
          "internalType": "uint256",
          "name": "assets",
          "type": "uint256"
        }
      ],
      "name": "OsTokenRedeemed",
      "type": "event"
    },
    {
      "anonymous": false,
      "inputs": [
        {
          "indexed": true,
          "internalType": "address",
          "name": "owner",
          "type": "address"
        },
        {
          "indexed": true,
          "internalType": "address",
          "name": "receiver",
          "type": "address"
        },
        {
          "indexed": false,
          "internalType": "uint256",
          "name": "assets",
          "type": "uint256"
        },
        {
          "indexed": false,
          "internalType": "uint256",
          "name": "shares",
          "type": "uint256"
        }
      ],
      "name": "Redeemed",
      "type": "event"
    },
    {
      "anonymous": false,
      "inputs": [
        {
          "indexed": true,
          "internalType": "address",
          "name": "implementation",
          "type": "address"
        }
      ],
      "name": "Upgraded",
      "type": "event"
    },
    {
      "anonymous": false,
      "inputs": [
        {
          "indexed": true,
          "internalType": "address",
          "name": "owner",
          "type": "address"
        },
        {
          "indexed": true,
          "internalType": "address",
          "name": "receiver",
          "type": "address"
        },
        {
          "indexed": false,
          "internalType": "uint256",
          "name": "positionTicket",
          "type": "uint256"
        },
        {
          "indexed": false,
          "internalType": "uint256",
          "name": "shares",
          "type": "uint256"
        },
        {
          "indexed": false,
          "internalType": "uint256",
          "name": "assets",
          "type": "uint256"
        }
      ],
      "name": "V2ExitQueueEntered",
      "type": "event"
    },
    {
      "anonymous": false,
      "inputs": [
        {
          "indexed": false,
          "internalType": "bytes",
          "name": "publicKey",
          "type": "bytes"
        }
      ],
      "name": "ValidatorRegistered",
      "type": "event"
    },
    {
      "anonymous": false,
      "inputs": [
        {
          "indexed": true,
          "internalType": "address",
          "name": "caller",
          "type": "address"
        },
        {
          "indexed": true,
          "internalType": "address",
          "name": "validatorsManager",
          "type": "address"
        }
      ],
      "name": "ValidatorsManagerUpdated",
      "type": "event"
    },
    {
      "anonymous": false,
      "inputs": [
        {
          "indexed": true,
          "internalType": "address",
          "name": "caller",
          "type": "address"
        },
        {
          "indexed": true,
          "internalType": "bytes32",
          "name": "validatorsRoot",
          "type": "bytes32"
        }
      ],
      "name": "ValidatorsRootUpdated",
      "type": "event"
    },
    {
      "inputs": [],
      "name": "UPGRADE_INTERFACE_VERSION",
      "outputs": [
        {
          "internalType": "string",
          "name": "",
          "type": "string"
        }
      ],
      "stateMutability": "view",
      "type": "function"
    },
    {
      "inputs": [],
      "name": "admin",
      "outputs": [
        {
          "internalType": "address",
          "name": "",
          "type": "address"
        }
      ],
      "stateMutability": "view",
      "type": "function"
    },
    {
      "inputs": [
        {
          "internalType": "address",
          "name": "",
          "type": "address"
        }
      ],
      "name": "blockedAccounts",
      "outputs": [
        {
          "internalType": "bool",
          "name": "",
          "type": "bool"
        }
      ],
      "stateMutability": "view",
      "type": "function"
    },
    {
      "inputs": [],
      "name": "blocklistManager",
      "outputs": [
        {
          "internalType": "address",
          "name": "",
          "type": "address"
        }
      ],
      "stateMutability": "view",
      "type": "function"
    },
    {
      "inputs": [
        {
          "internalType": "uint128",
          "name": "osTokenShares",
          "type": "uint128"
        }
      ],
      "name": "burnOsToken",
      "outputs": [
        {
          "internalType": "uint256",
          "name": "assets",
          "type": "uint256"
        }
      ],
      "stateMutability": "nonpayable",
      "type": "function"
    },
    {
      "inputs": [
        {
          "internalType": "address",
          "name": "receiver",
          "type": "address"
        },
        {
          "internalType": "uint256",
          "name": "positionTicket",
          "type": "uint256"
        },
        {
          "internalType": "uint256",
          "name": "timestamp",
          "type": "uint256"
        },
        {
          "internalType": "uint256",
          "name": "exitQueueIndex",
          "type": "uint256"
        }
      ],
      "name": "calculateExitedAssets",
      "outputs": [
        {
          "internalType": "uint256",
          "name": "leftTickets",
          "type": "uint256"
        },
        {
          "internalType": "uint256",
          "name": "exitedTickets",
          "type": "uint256"
        },
        {
          "internalType": "uint256",
          "name": "exitedAssets",
          "type": "uint256"
        }
      ],
      "stateMutability": "view",
      "type": "function"
    },
    {
      "inputs": [],
      "name": "capacity",
      "outputs": [
        {
          "internalType": "uint256",
          "name": "",
          "type": "uint256"
        }
      ],
      "stateMutability": "view",
      "type": "function"
    },
    {
      "inputs": [
        {
          "internalType": "uint256",
          "name": "positionTicket",
          "type": "uint256"
        },
        {
          "internalType": "uint256",
          "name": "timestamp",
          "type": "uint256"
        },
        {
          "internalType": "uint256",
          "name": "exitQueueIndex",
          "type": "uint256"
        }
      ],
      "name": "claimExitedAssets",
      "outputs": [],
      "stateMutability": "nonpayable",
      "type": "function"
    },
    {
      "inputs": [
        {
          "internalType": "uint256",
          "name": "shares",
          "type": "uint256"
        }
      ],
      "name": "convertToAssets",
      "outputs": [
        {
          "internalType": "uint256",
          "name": "assets",
          "type": "uint256"
        }
      ],
      "stateMutability": "view",
      "type": "function"
    },
    {
      "inputs": [
        {
          "internalType": "uint256",
          "name": "assets",
          "type": "uint256"
        }
      ],
      "name": "convertToShares",
      "outputs": [
        {
          "internalType": "uint256",
          "name": "shares",
          "type": "uint256"
        }
      ],
      "stateMutability": "view",
      "type": "function"
    },
    {
      "inputs": [
        {
          "internalType": "address",
          "name": "receiver",
          "type": "address"
        },
        {
          "internalType": "address",
          "name": "referrer",
          "type": "address"
        }
      ],
      "name": "deposit",
      "outputs": [
        {
          "internalType": "uint256",
          "name": "shares",
          "type": "uint256"
        }
      ],
      "stateMutability": "payable",
      "type": "function"
    },
    {
      "inputs": [
        {
          "internalType": "address",
          "name": "receiver",
          "type": "address"
        },
        {
          "internalType": "uint256",
          "name": "osTokenShares",
          "type": "uint256"
        },
        {
          "internalType": "address",
          "name": "referrer",
          "type": "address"
        }
      ],
      "name": "depositAndMintOsToken",
      "outputs": [
        {
          "internalType": "uint256",
          "name": "",
          "type": "uint256"
        }
      ],
      "stateMutability": "payable",
      "type": "function"
    },
    {
      "inputs": [
        {
          "internalType": "uint256",
          "name": "shares",
          "type": "uint256"
        },
        {
          "internalType": "address",
          "name": "receiver",
          "type": "address"
        }
      ],
      "name": "enterExitQueue",
      "outputs": [
        {
          "internalType": "uint256",
          "name": "positionTicket",
          "type": "uint256"
        }
      ],
      "stateMutability": "nonpayable",
      "type": "function"
    },
    {
      "inputs": [],
      "name": "feePercent",
      "outputs": [
        {
          "internalType": "uint16",
          "name": "",
          "type": "uint16"
        }
      ],
      "stateMutability": "view",
      "type": "function"
    },
    {
      "inputs": [],
      "name": "feeRecipient",
      "outputs": [
        {
          "internalType": "address",
          "name": "",
          "type": "address"
        }
      ],
      "stateMutability": "view",
      "type": "function"
    },
    {
      "inputs": [
        {
          "internalType": "uint256",
          "name": "positionTicket",
          "type": "uint256"
        }
      ],
      "name": "getExitQueueIndex",
      "outputs": [
        {
          "internalType": "int256",
          "name": "",
          "type": "int256"
        }
      ],
      "stateMutability": "view",
      "type": "function"
    },
    {
      "inputs": [
        {
          "internalType": "address",
          "name": "account",
          "type": "address"
        }
      ],
      "name": "getShares",
      "outputs": [
        {
          "internalType": "uint256",
          "name": "",
          "type": "uint256"
        }
      ],
      "stateMutability": "view",
      "type": "function"
    },
    {
      "inputs": [],
      "name": "implementation",
      "outputs": [
        {
          "internalType": "address",
          "name": "",
          "type": "address"
        }
      ],
      "stateMutability": "view",
      "type": "function"
    },
    {
      "inputs": [
        {
          "internalType": "bytes",
          "name": "params",
          "type": "bytes"
        }
      ],
      "name": "initialize",
      "outputs": [],
      "stateMutability": "payable",
      "type": "function"
    },
    {
      "inputs": [],
      "name": "isStateUpdateRequired",
      "outputs": [
        {
          "internalType": "bool",
          "name": "",
          "type": "bool"
        }
      ],
      "stateMutability": "view",
      "type": "function"
    },
    {
      "inputs": [
        {
          "internalType": "uint256",
          "name": "osTokenShares",
          "type": "uint256"
        },
        {
          "internalType": "address",
          "name": "owner",
          "type": "address"
        },
        {
          "internalType": "address",
          "name": "receiver",
          "type": "address"
        }
      ],
      "name": "liquidateOsToken",
      "outputs": [],
      "stateMutability": "nonpayable",
      "type": "function"
    },
    {
      "inputs": [],
      "name": "mevEscrow",
      "outputs": [
        {
          "internalType": "address",
          "name": "",
          "type": "address"
        }
      ],
      "stateMutability": "view",
      "type": "function"
    },
    {
      "inputs": [
        {
          "internalType": "address",
          "name": "receiver",
          "type": "address"
        },
        {
          "internalType": "uint256",
          "name": "osTokenShares",
          "type": "uint256"
        },
        {
          "internalType": "address",
          "name": "referrer",
          "type": "address"
        }
      ],
      "name": "mintOsToken",
      "outputs": [
        {
          "internalType": "uint256",
          "name": "assets",
          "type": "uint256"
        }
      ],
      "stateMutability": "nonpayable",
      "type": "function"
    },
    {
      "inputs": [
        {
          "internalType": "bytes[]",
          "name": "data",
          "type": "bytes[]"
        }
      ],
      "name": "multicall",
      "outputs": [
        {
          "internalType": "bytes[]",
          "name": "results",
          "type": "bytes[]"
        }
      ],
      "stateMutability": "nonpayable",
      "type": "function"
    },
    {
      "inputs": [
        {
          "internalType": "address",
          "name": "user",
          "type": "address"
        }
      ],
      "name": "osTokenPositions",
      "outputs": [
        {
          "internalType": "uint128",
          "name": "shares",
          "type": "uint128"
        }
      ],
      "stateMutability": "view",
      "type": "function"
    },
    {
      "inputs": [],
      "name": "proxiableUUID",
      "outputs": [
        {
          "internalType": "bytes32",
          "name": "",
          "type": "bytes32"
        }
      ],
      "stateMutability": "view",
      "type": "function"
    },
    {
      "inputs": [],
      "name": "queuedShares",
      "outputs": [
        {
          "internalType": "uint128",
          "name": "",
          "type": "uint128"
        }
      ],
      "stateMutability": "view",
      "type": "function"
    },
    {
      "inputs": [],
      "name": "receiveFromMevEscrow",
      "outputs": [],
      "stateMutability": "payable",
      "type": "function"
    },
    {
      "inputs": [
        {
          "internalType": "uint256",
          "name": "osTokenShares",
          "type": "uint256"
        },
        {
          "internalType": "address",
          "name": "owner",
          "type": "address"
        },
        {
          "internalType": "address",
          "name": "receiver",
          "type": "address"
        }
      ],
      "name": "redeemOsToken",
      "outputs": [],
      "stateMutability": "nonpayable",
      "type": "function"
    },
    {
      "inputs": [
        {
          "components": [
            {
              "internalType": "bytes32",
              "name": "validatorsRegistryRoot",
              "type": "bytes32"
            },
            {
              "internalType": "uint256",
              "name": "deadline",
              "type": "uint256"
            },
            {
              "internalType": "bytes",
              "name": "validators",
              "type": "bytes"
            },
            {
              "internalType": "bytes",
              "name": "signatures",
              "type": "bytes"
            },
            {
              "internalType": "string",
              "name": "exitSignaturesIpfsHash",
              "type": "string"
            }
          ],
          "internalType": "struct IKeeperValidators.ApprovalParams",
          "name": "keeperParams",
          "type": "tuple"
        },
        {
          "internalType": "bytes",
          "name": "validatorsManagerSignature",
          "type": "bytes"
        }
      ],
      "name": "registerValidators",
      "outputs": [],
      "stateMutability": "nonpayable",
      "type": "function"
    },
    {
      "inputs": [
        {
          "internalType": "address",
          "name": "_blocklistManager",
          "type": "address"
        }
      ],
      "name": "setBlocklistManager",
      "outputs": [],
      "stateMutability": "nonpayable",
      "type": "function"
    },
    {
      "inputs": [
        {
          "internalType": "address",
          "name": "_feeRecipient",
          "type": "address"
        }
      ],
      "name": "setFeeRecipient",
      "outputs": [],
      "stateMutability": "nonpayable",
      "type": "function"
    },
    {
      "inputs": [
        {
          "internalType": "string",
          "name": "metadataIpfsHash",
          "type": "string"
        }
      ],
      "name": "setMetadata",
      "outputs": [],
      "stateMutability": "nonpayable",
      "type": "function"
    },
    {
      "inputs": [
        {
          "internalType": "address",
          "name": "validatorsManager_",
          "type": "address"
        }
      ],
      "name": "setValidatorsManager",
      "outputs": [],
      "stateMutability": "nonpayable",
      "type": "function"
    },
    {
      "inputs": [],
      "name": "totalAssets",
      "outputs": [
        {
          "internalType": "uint256",
          "name": "",
          "type": "uint256"
        }
      ],
      "stateMutability": "view",
      "type": "function"
    },
    {
      "inputs": [],
      "name": "totalExitingAssets",
      "outputs": [
        {
          "internalType": "uint128",
          "name": "",
          "type": "uint128"
        }
      ],
      "stateMutability": "view",
      "type": "function"
    },
    {
      "inputs": [],
      "name": "totalShares",
      "outputs": [
        {
          "internalType": "uint256",
          "name": "",
          "type": "uint256"
        }
      ],
      "stateMutability": "view",
      "type": "function"
    },
    {
      "inputs": [
        {
          "internalType": "address",
          "name": "account",
          "type": "address"
        },
        {
          "internalType": "bool",
          "name": "isBlocked",
          "type": "bool"
        }
      ],
      "name": "updateBlocklist",
      "outputs": [],
      "stateMutability": "nonpayable",
      "type": "function"
    },
    {
      "inputs": [
        {
          "components": [
            {
              "internalType": "bytes32",
              "name": "rewardsRoot",
              "type": "bytes32"
            },
            {
              "internalType": "int160",
              "name": "reward",
              "type": "int160"
            },
            {
              "internalType": "uint160",
              "name": "unlockedMevReward",
              "type": "uint160"
            },
            {
              "internalType": "bytes32[]",
              "name": "proof",
              "type": "bytes32[]"
            }
          ],
          "internalType": "struct IKeeperRewards.HarvestParams",
          "name": "harvestParams",
          "type": "tuple"
        }
      ],
      "name": "updateState",
      "outputs": [],
      "stateMutability": "nonpayable",
      "type": "function"
    },
    {
      "inputs": [
        {
          "internalType": "address",
          "name": "receiver",
          "type": "address"
        },
        {
          "internalType": "address",
          "name": "referrer",
          "type": "address"
        },
        {
          "components": [
            {
              "internalType": "bytes32",
              "name": "rewardsRoot",
              "type": "bytes32"
            },
            {
              "internalType": "int160",
              "name": "reward",
              "type": "int160"
            },
            {
              "internalType": "uint160",
              "name": "unlockedMevReward",
              "type": "uint160"
            },
            {
              "internalType": "bytes32[]",
              "name": "proof",
              "type": "bytes32[]"
            }
          ],
          "internalType": "struct IKeeperRewards.HarvestParams",
          "name": "harvestParams",
          "type": "tuple"
        }
      ],
      "name": "updateStateAndDeposit",
      "outputs": [
        {
          "internalType": "uint256",
          "name": "shares",
          "type": "uint256"
        }
      ],
      "stateMutability": "payable",
      "type": "function"
    },
    {
      "inputs": [
        {
          "internalType": "address",
          "name": "receiver",
          "type": "address"
        },
        {
          "internalType": "uint256",
          "name": "osTokenShares",
          "type": "uint256"
        },
        {
          "internalType": "address",
          "name": "referrer",
          "type": "address"
        },
        {
          "components": [
            {
              "internalType": "bytes32",
              "name": "rewardsRoot",
              "type": "bytes32"
            },
            {
              "internalType": "int160",
              "name": "reward",
              "type": "int160"
            },
            {
              "internalType": "uint160",
              "name": "unlockedMevReward",
              "type": "uint160"
            },
            {
              "internalType": "bytes32[]",
              "name": "proof",
              "type": "bytes32[]"
            }
          ],
          "internalType": "struct IKeeperRewards.HarvestParams",
          "name": "harvestParams",
          "type": "tuple"
        }
      ],
      "name": "updateStateAndDepositAndMintOsToken",
      "outputs": [
        {
          "internalType": "uint256",
          "name": "",
          "type": "uint256"
        }
      ],
      "stateMutability": "payable",
      "type": "function"
    },
    {
      "inputs": [
        {
          "internalType": "address",
          "name": "newImplementation",
          "type": "address"
        },
        {
          "internalType": "bytes",
          "name": "data",
          "type": "bytes"
        }
      ],
      "name": "upgradeToAndCall",
      "outputs": [],
      "stateMutability": "payable",
      "type": "function"
    },
    {
      "inputs": [],
      "name": "validatorsManager",
      "outputs": [
        {
          "internalType": "address",
          "name": "",
          "type": "address"
        }
      ],
      "stateMutability": "view",
      "type": "function"
    },
    {
      "inputs": [],
      "name": "vaultId",
      "outputs": [
        {
          "internalType": "bytes32",
          "name": "",
          "type": "bytes32"
        }
      ],
      "stateMutability": "pure",
      "type": "function"
    },
    {
      "inputs": [],
      "name": "version",
      "outputs": [
        {
          "internalType": "uint8",
          "name": "",
          "type": "uint8"
        }
      ],
      "stateMutability": "pure",
      "type": "function"
    },
    {
      "inputs": [],
      "name": "withdrawableAssets",
      "outputs": [
        {
          "internalType": "uint256",
          "name": "",
          "type": "uint256"
        }
      ],
      "stateMutability": "view",
      "type": "function"
    },
    {
      "stateMutability": "payable",
      "type": "receive"
    }
  ],
  "bytecode": "0x6101c03462000245576001600160401b0362004d5e601f38829003908101601f19168401908382118583101762000249578085936040938452843961010094859181010312620002455762000054826200025d565b9162000063602082016200025d565b92620000718383016200025d565b9262000080606084016200025d565b926200008f608082016200025d565b946200009e60a083016200025d565b9660e0620000af60c085016200025d565b9301519460805260a05260c0523060e05287526101209546875261014092835260018060a01b038061016095168552610180951685526101a09586527ff0c57e16840df040f15088dc2f81fe391c3923bec73e23a9662efc9c229c6a009081549060ff82851c1662000234578080831603620001ef575b5050505194614aeb9687620002738839608051878181611467015281816115ff01528181612cf2015281816139d3015261440e015260a051876111ba015260c051878181613cc30152613de4015260e05187818161133a01526136bb015251866128e901525185613a49015251846117a5015251838181610417015281816106de0152818161209a015281816129cb015281816131b8015261355201525182818161079d01528181610e380152818161327701526134d60152518181816122c70152612d3a0152f35b6001600160401b0319909116811790915581519081527fc7f505b2f371ae2175ee4913f4499e1f2633a7b5936321eed1cdaeb6115181d290602090a15f808062000126565b835163f92ee8a960e01b8152600490fd5b5f80fd5b634e487b7160e01b5f52604160045260245ffd5b51906001600160a01b0382168203620002455756fe60806040526004361015610022575b3615610018575f80fd5b6100206129a3565b005b5f3560e01c806301d523b61461030157806301e1d114146102fc578063066055e0146102f757806307a2d13a146102f257806314c4184b146102ed57806318f72950146102e85780631a7ff553146102e3578063201b9eb5146102de5780632999ad3f146102d95780632cdf7401146102d45780633229fa95146102cf57806333194c0a146102ca57806336fe59d2146102c55780633a98ef39146102c0578063439fab91146102bb57806343e82a79146102b657806346904840146102b15780634ec96b22146102ac5780634f1ef286146102a757806352d1902d146102a257806353156f281461029d57806354fd4d50146102985780635c60da1b146102935780635cfc1a511461028e57806360d60e6e1461028957806372b410a814610284578063754c38881461027f57806376b58b901461027a5780637fd6f15c1461027557806383d430d5146102705780638697d2c21461026b5780638ceab9aa14610266578063a49a1e7d14610261578063ac9650d81461025c578063ad3cb1cc14610257578063b1f0e7c714610252578063b45a1eb51461024d578063c6e6f59214610248578063d0a64ddc14610243578063d83ad00c1461023e578063e74b981b14610239578063ee3bd5df14610234578063f04da65b1461022f578063f45bf3d21461022a578063f851a440146102255763f9609f080361000e57611f3c565b611f15565b611ed4565b611e99565b611e73565b611e46565b611e20565b611df3565b611dd5565b611da3565b611d7f565b611d3a565b611cc4565b611bc9565b6119e0565b611779565b6115a9565b611585565b611534565b6114c9565b61143c565b61141e565b611404565b6113d0565b6113b5565b611391565b611328565b6110a2565b610f2e565b610f06565b610e09565b610c6b565b610bea565b610bd6565b610b9c565b610b70565b610b56565b6106b4565b610672565b610613565b6105ad565b610584565b610566565b6103c7565b610396565b610329565b6001600160a01b0381160361031757565b5f80fd5b908160809103126103175790565b60803660031901126103175760043561034181610306565b60443561034d81610306565b606435906001600160401b0382116103175760209261037b61037661038494369060040161031b565b61202f565b602435906122e9565b604051908152f35b5f91031261031757565b34610317575f36600319011261031757602060985460801c604051908152f35b6001600160801b0381160361031757565b34610317576020366003190112610317576004356103e4816103b6565b604051633b9e9f0160e21b81523360048201526001600160801b03821660248201526020816044815f6001600160a01b037f0000000000000000000000000000000000000000000000000000000000000000165af1908115610561575f91610532575b50335f9081526101376020526040902061046090611f80565b916001600160801b0361047a84516001600160801b031690565b1615610520576104ce8361049061051c956129b6565b6104ba6104ad846104a884516001600160801b031690565b611fb9565b6001600160801b03168252565b335f90815261013760205260409020611fd7565b604080518381526001600160801b0392909216602083015233917f3f7354ba02880b4fa37a629985852a38417ff369369ce1e52fa6f8342a9100a79190a26040519081529081906020820190565b0390f35b60405163673f032f60e11b8152600490fd5b610554915060203d60201161055a575b61054c8183611021565b810190611f66565b5f610447565b503d610542565b611f75565b34610317576020366003190112610317576020610384600435612009565b34610317575f36600319011261031757610201546040516001600160a01b039091168152602090f35b6060366003190112610317576004356105c581610306565b6024356105d181610306565b604435906001600160401b038211610317576020926105fa61037661038494369060040161031b565b6106033361310a565b61060c8161310a565b34906141b6565b34610317576020366003190112610317576004356001600160401b0381116103175761037661002091369060040161031b565b60609060031901126103175760043561065e81610306565b906024359060443561066f81610306565b90565b3461031757602061038461068536610646565b91612053565b606090600319011261031757600435906024356106a781610306565b9060443561066f81610306565b34610317576106c23661068b565b906001600160a01b0380831615610b44576106db6139b8565b807f00000000000000000000000000000000000000000000000000000000000000001691823b156103175760408051631d8557d760e01b815260049491905f81878183875af1801561056157610b2b575b506001600160a01b0383165f9081526101376020526040902061074e90611f80565b6001600160801b03928361076983516001600160801b031690565b1615610b1b57610778826129b6565b825163e48a5f7b60e01b8152308882019081529097906060908990819060200103818a7f0000000000000000000000000000000000000000000000000000000000000000165afa978815610561575f98610aea575b50602097888101956001600160401b039182806107f18a516001600160401b031690565b1614610ada57908c92918751918c838061081d6303d1689d60e11b988983528a83019190602083019252565b03818a5afa91821561056157610849938e5f94610ab5575b5050516001600160801b03165b1690612ae5565b9661086d6108678a60018060a01b03165f52609c60205260405f2090565b54612009565b928389118015610aa5575b610a9557908b6108b6939261089489516001600160801b031690565b908a51958692839283528983019190916001600160801b036020820193169052565b0381895afa91821561056157670de0b6b3a764000094610905948e5f95610a68575b50506108f76108e96108fd926126cd565b93516001600160401b031690565b936126cd565b921690612b59565b1015610a5a578351633b9e9f0160e21b815233918101918252602082018b905294939291889186919082905f90829060400103925af1908115610561577f61fd285f9e34a3dbfa9846bdcf22a023e37a3c93549902843b30dd74a18c535097610a37956109af93610a3c575b50506109926104ad6109828c613ee9565b83516001600160801b0316611fb9565b6001600160a01b0386165f90815261013760205260409020611fd7565b6109b882613fb6565b906109f66109db6109c885613ee9565b60985460801c036001600160801b031690565b6001600160801b036098549181199060801b16911617609855565b610a00828661447f565b610a0a8389613f1c565b51948594169733978590949392606092608083019660018060a01b03168352602083015260408201520152565b0390a3005b81610a5292903d1061055a5761054c8183611021565b505f80610971565b835163185cfc6d60e11b8152fd5b6108fd929550610a8b6108f792826108e993903d1061055a5761054c8183611021565b959250508e6108d8565b875163efda1a2760e01b81528590fd5b50610aae612278565b8911610878565b6108429294509081610ad292903d1061055a5761054c8183611021565b92908e610835565b8651630709133160e01b81528490fd5b610b0d91985060603d606011610b14575b610b058183611021565b81019061315a565b965f6107cd565b503d610afb565b825163673f032f60e11b81528790fd5b80610b38610b3e92610fd8565b8061038c565b5f61072c565b60405163d92e233d60e01b8152600490fd5b34610317575f366003190112610317576020610384612278565b34610317575f366003190112610317576020610b8a6122ae565b6040516001600160a01b039091168152f35b34610317575f3660031901126103175760206040517fa2d618745a84ee1647adb00f6b31dcca3bb90ddc2b1211d1d4d9757016d93d208152f35b6020610384610be436610646565b916122e9565b34610317575f3660031901126103175760206001600160801b0360985416604051908152f35b9181601f84011215610317578235916001600160401b038311610317576020838186019501011161031757565b602060031982011261031757600435906001600160401b03821161031757610c6791600401610c10565b9091565b610c7436610c3d565b7ff0c57e16840df040f15088dc2f81fe391c3923bec73e23a9662efc9c229c6a00805460ff8160401c168015610df5575b610de35768ffffffffffffffffff19166801000000000000000217905560405163e7f6f22560e01b8152906020908183600481335afa928315610561575f93610dc4575b50604051636f4fa30f60e01b8152938285600481335afa90811561056157610d3195610d2c945f93610d91575b5050610d25919281019061234a565b90836135bd565b6136a5565b7ff0c57e16840df040f15088dc2f81fe391c3923bec73e23a9662efc9c229c6a00805468ff000000000000000019169055604051600281527fc7f505b2f371ae2175ee4913f4499e1f2633a7b5936321eed1cdaeb6115181d290602090a1005b610d2593509081610db692903d10610dbd575b610dae8183611021565b810190612335565b915f610d16565b503d610da4565b610ddc919350823d8411610dbd57610dae8183611021565b915f610ce9565b60405163f92ee8a960e01b8152600490fd5b5060026001600160401b0382161015610ca5565b3461031757610e173661068b565b60405163057453a760e31b81529091906001600160a01b03906020816004817f000000000000000000000000000000000000000000000000000000000000000086165afa80156105615782915f91610ee7575b50163303610ed55781610a37610ea286867f57f5eb636bf62215c111b54545422f11dfb0cb115f606be905f0be08e8859dd39661319a565b604080516001600160a01b0390981688526020880198909852968601526060850195909552169233929081906080820190565b604051634ca8886760e01b8152600490fd5b610f00915060203d602011610dbd57610dae8183611021565b5f610e6a565b34610317575f366003190112610317576065546040516001600160a01b039091168152602090f35b3461031757602036600319011261031757600435610f4b81610306565b60018060a01b03165f52610137602052602060405f2060405190610f6e82610fb8565b54906001600160801b03918281169081835260801c84830152610f96575b5116604051908152f35b610f9f816129b6565b610f8c565b634e487b7160e01b5f52604160045260245ffd5b604081019081106001600160401b03821117610fd357604052565b610fa4565b6001600160401b038111610fd357604052565b606081019081106001600160401b03821117610fd357604052565b608081019081106001600160401b03821117610fd357604052565b90601f801991011681019081106001600160401b03821117610fd357604052565b6040519061104f82610fb8565b565b6001600160401b038111610fd357601f01601f191660200190565b92919261107882611051565b916110866040519384611021565b829481845281830111610317578281602093845f960137010152565b6040806003193601126103175760049081356110bd81610306565b6024356001600160401b0381116103175736602382011215610317576110ec903690602481870135910161106c565b916110f56136b1565b80519261112c8461111e60209363439fab9160e01b858401528460248401526044830190611c3c565b03601f198101865285611021565b6111346136b1565b61113c61378a565b6001600160a01b038381168015929190879084156112f3575b8415611285575b8415611221575b5050821561118b575b505061117c576100208383614614565b516355299b4960e01b81528390fd5b83516345da87c560e01b81526001600160a01b03861688820190815292935091839183918290819060200103917f0000000000000000000000000000000000000000000000000000000000000000165afa918215610561575f926111f4575b5050155f8061116c565b6112139250803d1061121a575b61120b8183611021565b8101906124a3565b5f806111ea565b503d611201565b855163054fd4d560e41b81529294508391839182905afa9081156105615760039160ff915f91611258575b5016141591865f611163565b6112789150843d861161127e575b6112708183611021565b8101906145fb565b5f61124c565b503d611266565b935050835163198ca60560e11b815282818981875afa9081156105615788917fa2d618745a84ee1647adb00f6b31dcca3bb90ddc2b1211d1d4d9757016d93d20915f916112d6575b5014159361115c565b6112ed9150853d871161055a5761054c8183611021565b5f6112cd565b5f80516020614a96833981519152549094508490611321906001600160a01b03165b6001600160a01b031690565b1493611155565b34610317575f366003190112610317577f00000000000000000000000000000000000000000000000000000000000000006001600160a01b0316300361137f5760206040515f80516020614a968339815191528152f35b60405163703e46dd60e11b8152600490fd5b5f366003190112610317576001600160a01b036113ac6122ae565b163303610ed557005b34610317575f36600319011261031757602060405160028152f35b34610317575f366003190112610317575f80516020614a96833981519152546040516001600160a01b039091168152602090f35b34610317575f3660031901126103175760206103846123c9565b346103175760203660031901126103175760206103846004356123e4565b34610317575f36600319011261031757604051633eb1acf760e11b81523060048201526020816024817f00000000000000000000000000000000000000000000000000000000000000006001600160a01b03165afa8015610561576020915f916114ac575b506040519015158152f35b6114c39150823d841161121a5761120b8183611021565b5f6114a1565b34610317576020366003190112610317576004356114e681610306565b6114ee61378a565b60d280546001600160a01b0319166001600160a01b03929092169182179055337f6bdc78d8c88160b3fc3638e67f2afe523b3f4c7d00c56ebb6216790e4c3eb2cb5f80a3005b346103175760803660031901126103175761051c61156860043561155781610306565b6064359060443590602435906124c5565b604080519384526020840192909252908201529081906060820190565b34610317575f36600319011261031757602061ffff60655460a01c16604051908152f35b34610317576003196040368201126103175760049081356001600160401b038082116103175760a082850193833603011261031757602435908111610317576115f59036908501610c10565b6001600160a01b037f00000000000000000000000000000000000000000000000000000000000000008116803b156103175760405163837d444160e01b8152905f9082908183816116488c828f016125e1565b03925af1801561056157611766575b506116606139b8565b6116686128d5565b9081163314159182611737575b50509050611726576044019160b061168d848461265f565b9050048015801561170e575b6116fe576116ae6116a8612278565b916126b4565b116116ef575060b06116c0838361265f565b9050145f146116dc57610020916116d69161265f565b90613dd6565b610020916116e99161265f565b90613cae565b6040516396d8043360e01b8152fd5b50604051631c6c4cf360e31b8152fd5b50611719848461265f565b905060b082021415611699565b604051634ca8886760e01b81528390fd5b61175a925061175461175e9461174c88613a43565b92369161106c565b91613b1d565b1590565b805f80611675565b80610b3861177392610fd8565b5f611657565b346103175760603660031901126103175760043560243561179e6044358284336124c5565b91926117ca7f0000000000000000000000000000000000000000000000000000000000000000826123d7565b421080156119d8575b80156119d0575b6119be577feb3b05c070c24f667611fdb3ff75fe007d42401c573aed8d8faca95fd00ccb569361182a866118256118196099546001600160801b031690565b6001600160801b031690565b61370a565b1561192c5761186461184961183e86613ee9565b60995460801c611fb9565b6001600160801b036099549181199060801b16911617609955565b60408051336020820190815291810184905260608082018990528152601f1993915f916118a89190611897608082611021565b5190205f52609b60205260405f2090565b555f93600183116118e1575b505050506118c28233613f1c565b604080519485526020850191909152830152339180606081015b0390a2005b611922929394506118f290886123d7565b60408051336020820190815291810193909352606083018290526080958601835290949091906118979082611021565b555f8080806118b4565b6119346139b8565b61197061195461194386613ee9565b609e546001600160801b0316611fb9565b6001600160801b03166001600160801b0319609e541617609e55565b6119a561198a61197f85613ee9565b609e5460801c611fb9565b6001600160801b03609e549181199060801b16911617609e55565b6119b96119b484609f546123d7565b609f55565b611864565b604051630e3d8e8d60e11b8152600490fd5b5082156117da565b5081156117d3565b34610317576040806003193601126103175760243590600435611a0283610306565b611a0a6139b8565b8015611bb8576001600160a01b038316908115611ba757611a2a81612009565b908115611b9657611a3a82614701565b611a4383613ee9565b60985460801c90611a5391611fb9565b611a72906001600160801b036098549181199060801b16911617609855565b611a7c823361447f565b609e54958660801c8281609f5490611a93916123d7565b98611a9d87613ee9565b611aaf916001600160801b031661312b565b611acf906001600160801b03166001600160801b0319609e541617609e55565b611ad8916123d7565b611ae190613ee9565b611b00906001600160801b03609e549181199060801b16911617609e55565b85516001600160a01b0391909116602082019081524260408301526060808301899052825290611b31608082611021565b519020611b46905f52609b60205260405f2090565b5583518581526020810191909152604081019190915233907f869f12645d154414259c47bcb998b6b6983fae50e5e0c6053bc87d4330db9f2d90606090a3611b8d33614868565b51908152602090f35b83516318374fd160e21b8152600490fd5b825163d92e233d60e01b8152600490fd5b8151636edcc52360e01b8152600490fd5b34610317576118dc7f2013570c343af8ab14a9778150e381a0fda34ed6368127a95fd5e7210cbec5bf611bfb36610c3d565b9290611c0561378a565b60405191829160208352339560208401916125c1565b5f5b838110611c2c5750505f910152565b8181015183820152602001611c1d565b90602091611c5581518092818552858086019101611c1b565b601f01601f1916010190565b6020808201906020835283518092526040830192602060408460051b8301019501935f915b848310611c965750505050505090565b9091929394958480611cb4600193603f198682030187528a51611c3c565b9801930193019194939290611c86565b34610317576020366003190112610317576001600160401b036004358181116103175736602382011215610317578060040135918211610317573660248360051b830101116103175761051c916024611d1d9201612828565b60405191829182611c61565b90602061066f928181520190611c3c565b34610317575f3660031901126103175761051c604051611d5981610fb8565b60058152640352e302e360dc1b6020820152604051918291602083526020830190611c3c565b34610317575f366003190112610317576020610b8a6128d5565b8015150361031757565b3461031757604036600319011261031757610020600435611dc381610306565b60243590611dd082611d99565b61290b565b34610317576020366003190112610317576020610384600435613fb6565b3461031757602036600319011261031757610020600435611e1381610306565b611e1b61378a565b614045565b34610317575f3660031901126103175760206001600160801b0360995416604051908152f35b3461031757602036600319011261031757610020600435611e6681610306565b611e6e61378a565b61408c565b34610317575f3660031901126103175760206001600160801b03609e5416604051908152f35b3461031757602036600319011261031757600435611eb681610306565b60018060a01b03165f52609c602052602060405f2054604051908152f35b3461031757602036600319011261031757600435611ef181610306565b60018060a01b03165f52610202602052602060ff60405f2054166040519015158152f35b34610317575f366003190112610317575f546040516001600160a01b039091168152602090f35b6040366003190112610317576020610384600435611f5981610306565b602435906105fa82610306565b90816020910312610317575190565b6040513d5f823e3d90fd5b90604051611f8d81610fb8565b91546001600160801b038116835260801c6020830152565b634e487b7160e01b5f52601160045260245ffd5b6001600160801b039182169082160391908211611fd257565b611fa5565b815160209092015160801b6fffffffffffffffffffffffffffffffff19166001600160801b0392909216919091179055565b6098546001600160801b038116908161202157505090565b9161066f9260801c90612b59565b61203b61204291612cc1565b9190612e57565b61204857565b612050612fe1565b50565b909161205e3361310a565b6120666143f3565b61206e6139b8565b6040516329460cc560e11b81526001600160a01b038381166004830152602482018590529093602092917f00000000000000000000000000000000000000000000000000000000000000001683866044815f855af1958615610561575f96612259575b50335f908152610137602052604090206120ea90611f80565b936001600160801b0361210486516001600160801b031690565b16156121f5575050612115836129b6565b61214161213461212483613ee9565b85516001600160801b031661312b565b6001600160801b03168452565b335f908152609c602052604090206121619061215c90610867565b6134b3565b61217561181985516001600160801b031690565b116121e357335f908152610137602052604090207fa16d97739893e1436c9753925fb5cef174c4f368699dc86cc8fdb0e6e60f8e58936121b491611fd7565b604080516001600160a01b0395861681526020810187905290810191909152921660608301523391608090a290565b604051633684c65960e01b8152600490fd5b806004926040519384809263752a536d60e01b82525afa9182156105615761223792612228915f9161223c575b50613ee9565b6001600160801b031690850152565b612115565b6122539150833d851161055a5761054c8183611021565b5f612222565b612271919650843d861161055a5761054c8183611021565b945f6120d1565b476099546001600160801b0361228f818316612009565b90609e5416019060801c01908181115f146122a8570390565b50505f90565b61016a546001600160a01b031680156122c45790565b507f000000000000000000000000000000000000000000000000000000000000000090565b916122f33361310a565b6122fc3361310a565b6123078134336141b6565b505f198214612320575b8161231c9293612053565b5090565b61231c915061232e346134b3565b9150612311565b90816020910312610317575161066f81610306565b906020828203126103175781356001600160401b0392838211610317570191606083830312610317576040519261238084610feb565b80358452602081013561ffff81168103610317576020850152604081013591821161031757019080601f83011215610317578160206123c19335910161106c565b604082015290565b609d548061066f57505f1990565b91908201809211611fd257565b6001600160801b03609954166123f86146bf565b908101809111611fd257811061242b5761241c609f54612416613721565b906123d7565b1115612426575f90565b5f1990565b609a90609a549182915f905b8482106124515750505081101561244b5790565b505f1990565b909193808316906001818518811c8301809311611fd2575f8790525f80516020614a768339815191528301546001600160a01b0316841015612498575050935b9190612437565b909591019250612491565b90816020910312610317575161066f81611d99565b91908203918211611fd257565b604080516001600160a01b0390921660208301908152908201939093526060810182905290919061250381608081015b03601f198101835282611021565b5190205f52609b60205260405f205491821561256d576001600160801b03609954169061252e6146bf565b918201809211611fd257839183101561255b579161254b9261381d565b90915b828103908111611fd25792565b50906125669161379d565b909161254e565b5050505f905f905f90565b9035601e19823603018112156103175701602081359101916001600160401b03821161031757813603831361031757565b90603060609281835260208301375f60508201520190565b908060209392818452848401375f828201840152601f01601f1916010190565b9060a061066f9260208152823560208201526020830135604082015261261d61260d6040850185612578565b84606085015260c08401916125c1565b906126506126456126316060870187612578565b601f198587038101608087015295916125c1565b946080810190612578565b939092828603019101526125c1565b903590601e198136030182121561031757018035906001600160401b0382116103175760200191813603831361031757565b634e487b7160e01b5f52601260045260245ffd5b81156126af570490565b612691565b906801bc16d674ec8000009180830292830403611fd257565b90670de0b6b3a764000091828102928184041490151715611fd257565b6001600160401b038111610fd35760051b60200190565b9061270b826126ea565b6127186040519182611021565b8281528092612729601f19916126ea565b01905f5b82811061273957505050565b80606060208093850101520161272d565b634e487b7160e01b5f52603260045260245ffd5b9082101561277557610c679160051b81019061265f565b61274a565b908092918237015f815290565b3d156127b1573d9061279882611051565b916127a66040519384611021565b82523d5f602084013e565b606090565b602081830312610317578051906001600160401b038211610317570181601f820112156103175780516127e881611051565b926127f66040519485611021565b818452602082840101116103175761066f9160208085019101611c1b565b80518210156127755760209160051b010190565b91909161283483612701565b925f5b81811061284357505050565b5f8061285083858761275e565b6040939161286285518093819361277a565b0390305af490612870612787565b91156128975750906001916128858288612814565b526128908187612814565b5001612837565b906044815110610317576128d16128bc600492838101516024809183010191016127b6565b925162461bcd60e51b81529283928301611d29565b0390fd5b60d2546001600160a01b03168061066f57507f000000000000000000000000000000000000000000000000000000000000000090565b610201546001600160a01b03919082163303610ed5576001600160a01b0381165f90815261020260205260409020549215159260ff161515831461299e576001600160a01b0381165f9081526102026020526040902060ff1981541660ff851617905560405192835216907fffe80d6d91bb72bd036e4be8badcf33d7c8e13b2a0aaab3dc3aef76f6b1f786a60203392a3565b505050565b6129ac3361310a565b61205034336140ee565b60405163752a536d60e01b81526020816004817f00000000000000000000000000000000000000000000000000000000000000006001600160a01b03165afa908115610561575f91612a4c575b5060208201916001600160801b03918284511691828214612a455783612a38612a33612a40958584865116612b59565b613ee9565b169052613ee9565b169052565b5050505050565b612a65915060203d60201161055a5761054c8183611021565b5f612a03565b90808202905f1981840990828083109203918083039214612ada576127109082821115612ac8577fbc01a36e2eb1c432ca57a786c226809d495182a9930be0ded288ce703afb7e91940990828211900360fc1b910360041c170290565b60405163227bc15360e01b8152600490fd5b505061271091500490565b90808202905f1981840990828083109203918083039214612b4857670de0b6b3a76400009082821115612ac8577faccb18165bd6fe31ae1cf318dc5b51eee0e1ba569b88cd74c1773b91fac10669940990828211900360ee1b910360121c170290565b5050670de0b6b3a764000091500490565b9091828202915f1984820993838086109503948086039514612bcc5784831115612ac857829109815f038216809204600280826003021880830282030280830282030280830282030280830282030280830282030280920290030293600183805f03040190848311900302920304170290565b50509061066f92506126a5565b90816060910312610317578051916040602083015192015161066f81611d99565b81835290916001600160fb1b0383116103175760209260051b809284830137010190565b90602082528035602083015260208101358060130b8091036103175760408301526040810135612c4d81610306565b6001600160a01b031660608381019190915281013536829003601e19018112156103175701602081359101906001600160401b038111610317578060051b360382136103175760a08360808061066f9601520191612bfa565b9190915f8382019384129112908015821691151617611fd257565b6040516325f56f1160e01b81526001600160a01b03929160609082908190612cec9060048301612c1e565b03815f877f0000000000000000000000000000000000000000000000000000000000000000165af1928315610561575f915f905f95612e12575b508415612dbf5781612d366122ae565b16917f0000000000000000000000000000000000000000000000000000000000000000168214612db857509060205f92600460405180958193634641257d60e01b83525af190811561056157612d93925f92612d97575b50612ca6565b9190565b612db191925060203d60201161055a5761054c8183611021565b905f612d8d565b9081612dc5575b50509190565b803b1561031757604051636ee3193160e11b815260048101929092525f908290602490829084905af1801561056157612dff575b80612dbf565b80610b38612e0c92610fd8565b5f612df9565b91945050612e38915060603d606011612e40575b612e308183611021565b810190612bd9565b93905f612d26565b503d612e26565b600160ff1b8114611fd2575f0390565b801561205057612e6c61181960985460801c90565b5f8212612f3e5781612e7d916123d7565b90612e8a6109db83613ee9565b612e9f6065549161ffff8360a01c1690612a6b565b801561299e57807f555ee6b2ef9506d870f386c067e47d3689435330b012ad263d8cc3531868654793612edd6118196098546001600160801b031690565b80612f28575050612f2390925b6001600160a01b031691612efe8484614262565b60405193849384604091949392606082019560018060a01b0316825260208201520152565b0390a1565b612f2392612f3892039084612b59565b92612eea565b90612f4890612e47565b612f5d611819609e546001600160801b031690565b80612f7d575b5080612f6d575050565b612a336109db9161104f936124b8565b90612fd87f3623a54e8078be0d90ecfbef82da6a31ff3e6be8aa1718e7a7f3d0d33ff1d32a91612fc8611954612fbd612fb688886123d7565b8785612b59565b808094039603613ee9565b6040519081529081906020820190565b0390a15f612f63565b609954906001600160801b0382169182156131045760801c61301561300682476124b8565b61300f85612009565b906142ae565b9081156130fd5761302582613fb6565b9384156130f55782613072611849612a3361104f966109db9661306d613051612a338d6130ea9a6124b8565b6001600160801b03166001600160801b03196099541617609955565b6123d7565b61307c818761431e565b60408051878152602081018390527f624ea167e477f9d39f7f4094b9dfe2e6346eb4a7aada54338db51abd554c4b9f9190a1612a336130ce6130bd88613ee9565b6098546001600160801b0316611fb9565b6001600160801b03166001600160801b03196098541617609855565b60985460801c611fb9565b505f93505050565b505f925050565b505f9150565b6001600160a01b03165f908152610202602052604090205460ff16610ed557565b9190916001600160801b0380809416911601918211611fd257565b51906001600160401b038216820361031757565b90816060910312610317576123c1604080519261317684610feb565b8051613181816103b6565b845261318f60208201613146565b602085015201613146565b92906001600160a01b039081811615610b44576131b56139b8565b817f00000000000000000000000000000000000000000000000000000000000000001690813b1561031757604094855193631d8557d760e01b85526004945f81878183895af18015610561576134a0575b506001600160a01b0388165f9081526101376020526040902061322890611f80565b906001600160801b0361324283516001600160801b031690565b161561349057613251826129b6565b875163e48a5f7b60e01b81523087820190815290916060918391908290819060200103917f0000000000000000000000000000000000000000000000000000000000000000165afa801561056157613471575b508651936303d1689d60e11b978886526020918287806132cb888c83019190602083019252565b0381845afa968715610561575f97613452575b5086996132fe6108678d60018060a01b03165f52609c60205260405f2090565b88118015613442575b6134325790836133449261332287516001600160801b031690565b908551948592839283528d83019190916001600160801b036020820193169052565b0381845afa988915610561575f859488946133899c613415575b5051633b9e9f0160e21b815233928101928352602083019490945292998a9384929091839160400190565b03925af1958615610561576109826133d0946133b3936104ad9361104f9a6133f7575b5050613ee9565b6001600160a01b0388165f90815261013760205260409020611fd7565b6133f26133dc83613fb6565b80976133ed6109db6109c887613ee9565b61447f565b613f1c565b8161340d92903d1061055a5761054c8183611021565b505f806133ac565b61342b90873d891161055a5761054c8183611021565b505f61335e565b825163efda1a2760e01b81528990fd5b5061344b612278565b8811613307565b61346a919750833d851161055a5761054c8183611021565b955f6132de565b6134899060603d606011610b1457610b058183611021565b505f6132a4565b875163673f032f60e11b81528690fd5b80610b386134ad92610fd8565b5f613206565b60405163e48a5f7b60e01b81523060048201526001600160a01b036060826024817f000000000000000000000000000000000000000000000000000000000000000085165afa80156105615761354e936001600160401b03610842604061352d946020975f9161359e575b5001516001600160401b031690565b9060405180809581946363737ac960e11b8352600483019190602083019252565b03917f0000000000000000000000000000000000000000000000000000000000000000165afa908115610561575f91613585575090565b61066f915060203d60201161055a5761054c8183611021565b6135b7915060603d606011610b1457610b058183611021565b5f61351e565b6135c56144cc565b60408301516135d26144cc565b6001600160a01b0382168015610b44576001600160601b0360a01b5f5416175f557f2013570c343af8ab14a9778150e381a0fda34ed6368127a95fd5e7210cbec5bf604051602081528061362b33946020830190611c3c565b0390a260208301519261363c6144cc565b61271061ffff8516116136935761368b9361365961367e9361408c565b6065805461ffff60a01b191660a09290921b61ffff60a01b169190911790555161450d565b61368661453d565b614569565b61104f614598565b604051638a81d3b360e01b8152600490fd5b61104f90611e1b6144cc565b6001600160a01b037f000000000000000000000000000000000000000000000000000000000000000081163081149182156136ef575b505061137f57565b5f80516020614a968339815191525416141590505f806136e7565b906137136146bf565b918201809211611fd2571090565b476099548060801c8203918211611fd257816137466001600160801b03809316612009565b908161376c575b505081156122a85761066f9161376791609e5416906142ae565b614701565b919250908181111561378257035b905f8061374d565b50505f61377a565b5f546001600160a01b03163303610ed557565b6137a5613721565b91609f54928301809311611fd257808311156137ef576137c69203906142ae565b90609e548060801c80155f146137dc5750508190565b6001600160801b0361066f921684612b59565b5050505f905f90565b9060405161380581610fb8565b91546001600160a01b038116835260a01c6020830152565b609a545f9485949390918084108015906139b0575b6139a3578361396d575f5b609a5f526001600160a01b03166138625f80516020614a7683398151915286016137f8565b8051909790613879906001600160a01b0316611315565b9861389e6138926020809b01516001600160601b031690565b6001600160601b031690565b948381108015613963575b6139515791600193979a956138c86138d4939488035b838c03906142ae565b80920198870391612b59565b01970193808611801590613947575b61393c57609a5f5282906139055f80516020614a7683398151915287016137f8565b805190890151969992966001600160a01b0390911694600193926138d49290916001600160601b03909116906138c89088036138bf565b945050509250509190565b50818510156138e3565b60405163e8722f8f60e01b8152600490fd5b50808b11156138a9565b609a5f527f44da158ba27f9252712a74ff6a55c5d531f69609f1f6e7f17c4443a8e2089be38401546001600160a01b031661383d565b505093505050505f905f90565b508415613832565b604051633eb1acf760e11b81523060048201526020816024817f00000000000000000000000000000000000000000000000000000000000000006001600160a01b03165afa908115610561575f91613a24575b50613a1257565b60405163e775715160e01b8152600490fd5b613a3d915060203d60201161121a5761120b8183611021565b5f613a0b565b604290467f000000000000000000000000000000000000000000000000000000000000000003613af15760d354905b613a89613a82604083018361265f565b369161106c565b602081519101206040519060208201927f838af86bfca91ada6557e38d913af1c2f24ef9b2567b3b77cc9e1144314b35b08452356040830152606082015260608152613ad481611006565b5190206040519161190160f01b8352600283015260228201522090565b613af9614738565b90613a72565b60041115613b0957565b634e487b7160e01b5f52602160045260245ffd5b613b278383614805565b50613b3481959295613aff565b159384613bd0575b508315613b4a575b50505090565b5f929350908291604051613b82816124f56020820194630b135d3f60e11b998a87526024840152604060448401526064830190611c3c565b51915afa90613b8f612787565b82613bc2575b82613ba5575b50505f8080613b44565b613bba91925060208082518301019101611f66565b145f80613b9b565b915060208251101591613b95565b6001600160a01b0383811691161493505f613b3c565b906030116103175790603090565b906090116103175760300190606090565b9060b0116103175760900190602090565b90939293848311610317578411610317578101920390565b359060208110613c3c575090565b5f199060200360031b1b1690565b96959490613c8793613c6b613c79926060979560808c5260808c01916125c1565b9089820360208b0152611c3c565b9187830360408901526125c1565b930152565b90602061066f9281815201906125a9565b91602061066f9381815201916125c1565b60b091828104915f9081613cc061483f565b957f00000000000000000000000000000000000000000000000000000000000000006001600160a01b0316935f92905b878410613d0257505050505050505050565b82613d11910180928887613c16565b90613d1c8282613be6565b91613d3b613d35613d2d8684613bf4565b969093613c05565b90613c2e565b90893b15610317575f908d613d68604094855198899485946304512a2360e31b86528a8a60048801613c4a565b03816801bc16d674ec8000008d5af1908115610561577f64b6e61d93b7a91e8cc4376183ede0997a27b44fd9dd2f30a866b2a5730efdb194613db492613dc3575b505192839283613c9d565b0390a160018193019290613cf0565b80610b38613dd092610fd8565b5f613da9565b8160301161031757613d35917f00000000000000000000000000000000000000000000000000000000000000006001600160a01b0316613e1461483f565b90613e2b613e228486613bf4565b96909486613c05565b94813b15610317576801bc16d674ec8000005f94613e9197604051988996879586946304512a2360e31b865260806004870152613e82613e6f8d60848901906125a9565b60031994858983030160248a0152611c3c565b928684030160448701526125c1565b90606483015203925af1908115610561577f64b6e61d93b7a91e8cc4376183ede0997a27b44fd9dd2f30a866b2a5730efdb192612f2392613eda575b5060405191829182613c8c565b613ee390610fd8565b5f613ecd565b6001600160801b0390818111613efd571690565b604490604051906306dfcc6560e41b8252608060048301526024820152fd5b907f9b779b17422d0df92223018b32b4d1fa46e071723d6817e2486d003becc55f00916002835414613fa45760028355814710613f8c575f918291829182916001600160a01b03165af1613f6e612787565b5015613f7a5760019055565b604051630a12f52160e11b8152600490fd5b60405163cd78605960e01b8152306004820152602490fd5b604051633ee5aeb560e01b8152600490fd5b609854906001600160801b03821681158015613fe5575b15613fd85750905090565b61066f9260801c91612b59565b508015613fcd565b6098546001600160801b038116908215801561403d575b1561400e57505090565b60801c9061401d828285612b59565b9282156126af570961402c5790565b600181018091111561066f57611fa5565b508115614004565b61020180546001600160a01b0319166001600160a01b03929092169182179055337fdd44becc667b27d303085374b2760e783af69bbc9db209947ab811a6f1bbc58b5f80a3565b6140946139b8565b6001600160a01b031680156140dc57606580546001600160a01b03191682179055337faaebcf1bfa00580e41d966056b48521fa9f202645c86d4ddf28113e617c1b1d35f80a3565b604051630ed1b8b360e31b8152600490fd5b91906140f86139b8565b6001600160a01b038316908115610b445780156141a4578061411f61181960985460801c90565b01936141296123c9565b8511614192576109db946141509161414b61414385613fed565b978893613ee9565b614262565b60408051918252602082018590525f9082015233907f861a4138e41fb21c121a7dbb1053df465c837fc77380cc7226189a662281be2c9080606081015b0390a3565b6040516304ffa0ff60e51b8152600490fd5b6040516318374fd160e21b8152600490fd5b909291926141c26139b8565b6001600160a01b038216918215610b445781156141a457816141e961181960985460801c90565b016141f26123c9565b8111614192576109db9561423961418d927f861a4138e41fb21c121a7dbb1053df465c837fc77380cc7226189a662281be2c9461414b61423188613fed565b9a8b93613ee9565b60408051948552602085018890526001600160a01b039091169084015233929081906060820190565b61426b82613ee9565b609854906142836001600160801b039182841661312b565b16906001600160801b0319161760985560018060a01b03165f52609c60205260405f20908154019055565b90808210156142bb575090565b905090565b609a549068010000000000000000821015610fd3576001820180609a5582101561277557609a5f52805160209091015160a01b6001600160a01b0319166001600160a01b0391909116175f80516020614a7683398151915290910155565b919091801580156143eb575b6143d9576143366146bf565b908101809111611fd2576001600160a01b038082116143b9576001600160601b0390818511614399579061104f939461438361439493614374611042565b95166001600160a01b03168552565b166001600160601b03166020830152565b6142c0565b6040516306dfcc6560e41b81526060600482015260248101869052604490fd5b6040516306dfcc6560e41b815260a0600482015260248101839052604490fd5b604051632ec8835b60e21b8152600490fd5b50821561432a565b604051630156a69560e11b81523060048201526020816024817f00000000000000000000000000000000000000000000000000000000000000006001600160a01b03165afa908115610561575f91614460575b501561444e57565b604051630a62fbdb60e11b8152600490fd5b614479915060203d60201161121a5761120b8183611021565b5f614446565b60018060a01b03165f52609c60205260405f20908154818103908111611fd2576144a99255613ee9565b609854906001600160801b03908183160316906001600160801b03191617609855565b60ff7ff0c57e16840df040f15088dc2f81fe391c3923bec73e23a9662efc9c229c6a005460401c16156144fb57565b604051631afcd79f60e31b8152600490fd5b6145156144cc565b801561452b57600181016145265750565b609d55565b6040516331278a8760e01b8152600490fd5b6145456144cc565b6801bc16d674ec8000006145576123c9565b1061452b57614564614738565b60d355565b6145716144cc565b6001600160a01b0316806145825750565b61016a80546001600160a01b0319169091179055565b6145a06144cc565b6145a86144cc565b6145b06144cc565b60017f9b779b17422d0df92223018b32b4d1fa46e071723d6817e2486d003becc55f0055633b9aca0034106145e95761205034306140ee565b60405163ea2559bb60e01b8152600490fd5b90816020910312610317575160ff811681036103175790565b6040516352d1902d60e01b81529290916020846004816001600160a01b0387165afa5f948161469e575b5061466457604051634c9c8ce360e01b81526001600160a01b0384166004820152602490fd5b90915f80516020614a9683398151915284036146855761104f9293506148e8565b604051632a87526960e21b815260048101859052602490fd5b6146b891955060203d60201161055a5761054c8183611021565b935f61463e565b609a54806146cc57505f90565b609a5f527f44da158ba27f9252712a74ff6a55c5d531f69609f1f6e7f17c4443a8e2089be301546001600160a01b0316611315565b609e54908160801c81158015614730575b1561471d5750905090565b6001600160801b0361066f931691612b59565b508015614712565b6e5661756c7456616c696461746f727360881b602060405161475981610fb8565b600f8152015260405160208101907f8b73c3c69bb8fe3d512ecc4cf759cc79239f7b179b0ffacaa9a75d522b39400f82527f35d6cf9768d8be929c3a11ed667b1560ae6f1920195a985758fdd7265505d1ca60408201527fc89efdaa54c0f20c7adf612882df0950f5a951637e0307cdcb4c672f298b8bc660608201524660808201523060a082015260a0815260c081018181106001600160401b03821117610fd35760405251902090565b81519190604183036148355761482e9250602082015190606060408401519301515f1a9061498a565b9192909190565b50505f9160029190565b604051600160f81b60208201525f60218201523060601b602c8201526020815261066f81610fb8565b60018060a01b0381165f5261013760205260405f20906040519161488b83610fb8565b54906001600160801b03918281169081855260801c60208501521561299e5761215c6108676148de926148bc6139b8565b6148c5866129b6565b6001600160a01b03165f908152609c6020526040902090565b915116116121e357565b90813b15614969575f80516020614a9683398151915280546001600160a01b0319166001600160a01b0384169081179091557fbc7cd75a20ee27fd9adebab32041f755214dbc6bffa90cc0225b39da2e5c2d3b5f80a280511561494e5761205091614a0c565b50503461495757565b60405163b398979f60e01b8152600490fd5b604051634c9c8ce360e01b81526001600160a01b0383166004820152602490fd5b91907f7fffffffffffffffffffffffffffffff5d576e7357a4501ddfe92f46681b20a08411614a01579160209360809260ff5f9560405194855216868401526040830152606082015282805260015afa15610561575f516001600160a01b038116156149f757905f905f90565b505f906001905f90565b5050505f9160039190565b5f8061066f93602081519101845af4614a23612787565b9190614a395750805115613f7a57805190602001fd5b81511580614a6c575b614a4a575090565b604051639996b31560e01b81526001600160a01b039091166004820152602490fd5b50803b15614a4256fe44da158ba27f9252712a74ff6a55c5d531f69609f1f6e7f17c4443a8e2089be4360894a13ba1a3210667c828492db98dca3e2076cc3735a920a3ca505d382bbca2646970667358221220392364f56c124444cf5e90e0059604d4e1e6d49557b5dc3311adabc4824be92f64736f6c63430008160033",
  "linkReferences": {},
  "deployedLinkReferences": {}
}