{
  "_format": "hh-sol-artifact-1",
  "contractName": "EthBlocklistErc20Vault",
  "sourceName": "contracts/vaults/ethereum/EthBlocklistErc20Vault.sol",
  "abi": [
    {
      "inputs": [
        {
          "internalType": "address",
          "name": "_keeper",
          "type": "address"
        },
        {
          "internalType": "address",
          "name": "_vaultsRegistry",
          "type": "address"
        },
        {
          "internalType": "address",
          "name": "_validatorsRegistry",
          "type": "address"
        },
        {
          "internalType": "address",
          "name": "osTokenVaultController",
          "type": "address"
        },
        {
          "internalType": "address",
          "name": "osTokenConfig",
          "type": "address"
        },
        {
          "internalType": "address",
          "name": "sharedMevEscrow",
          "type": "address"
        },
        {
          "internalType": "address",
          "name": "depositDataRegistry",
          "type": "address"
        },
        {
          "internalType": "uint256",
          "name": "exitingAssetsClaimDelay",
          "type": "uint256"
        }
      ],
      "stateMutability": "nonpayable",
      "type": "constructor"
    },
    {
      "inputs": [],
      "name": "AccessDenied",
      "type": "error"
    },
    {
      "inputs": [
        {
          "internalType": "address",
          "name": "target",
          "type": "address"
        }
      ],
      "name": "AddressEmptyCode",
      "type": "error"
    },
    {
      "inputs": [
        {
          "internalType": "address",
          "name": "account",
          "type": "address"
        }
      ],
      "name": "AddressInsufficientBalance",
      "type": "error"
    },
    {
      "inputs": [],
      "name": "CapacityExceeded",
      "type": "error"
    },
    {
      "inputs": [],
      "name": "DeadlineExpired",
      "type": "error"
    },
    {
      "inputs": [
        {
          "internalType": "address",
          "name": "implementation",
          "type": "address"
        }
      ],
      "name": "ERC1967InvalidImplementation",
      "type": "error"
    },
    {
      "inputs": [],
      "name": "ERC1967NonPayable",
      "type": "error"
    },
    {
      "inputs": [],
      "name": "ExitRequestNotProcessed",
      "type": "error"
    },
    {
      "inputs": [],
      "name": "FailedInnerCall",
      "type": "error"
    },
    {
      "inputs": [],
      "name": "InsufficientAssets",
      "type": "error"
    },
    {
      "inputs": [],
      "name": "InvalidAssets",
      "type": "error"
    },
    {
      "inputs": [],
      "name": "InvalidCapacity",
      "type": "error"
    },
    {
      "inputs": [],
      "name": "InvalidCheckpointIndex",
      "type": "error"
    },
    {
      "inputs": [],
      "name": "InvalidCheckpointValue",
      "type": "error"
    },
    {
      "inputs": [],
      "name": "InvalidFeePercent",
      "type": "error"
    },
    {
      "inputs": [],
      "name": "InvalidFeeRecipient",
      "type": "error"
    },
    {
      "inputs": [],
      "name": "InvalidHealthFactor",
      "type": "error"
    },
    {
      "inputs": [],
      "name": "InvalidInitialization",
      "type": "error"
    },
    {
      "inputs": [],
      "name": "InvalidPosition",
      "type": "error"
    },
    {
      "inputs": [],
      "name": "InvalidReceivedAssets",
      "type": "error"
    },
    {
      "inputs": [],
      "name": "InvalidSecurityDeposit",
      "type": "error"
    },
    {
      "inputs": [],
      "name": "InvalidShares",
      "type": "error"
    },
    {
      "inputs": [],
      "name": "InvalidTokenMeta",
      "type": "error"
    },
    {
      "inputs": [],
      "name": "InvalidValidators",
      "type": "error"
    },
    {
      "inputs": [],
      "name": "LiquidationDisabled",
      "type": "error"
    },
    {
      "inputs": [],
      "name": "LowLtv",
      "type": "error"
    },
    {
      "inputs": [],
      "name": "MathOverflowedMulDiv",
      "type": "error"
    },
    {
      "inputs": [],
      "name": "NotCollateralized",
      "type": "error"
    },
    {
      "inputs": [],
      "name": "NotHarvested",
      "type": "error"
    },
    {
      "inputs": [],
      "name": "NotInitializing",
      "type": "error"
    },
    {
      "inputs": [],
      "name": "PermitInvalidSigner",
      "type": "error"
    },
    {
      "inputs": [],
      "name": "ReentrancyGuardReentrantCall",
      "type": "error"
    },
    {
      "inputs": [
        {
          "internalType": "uint8",
          "name": "bits",
          "type": "uint8"
        },
        {
          "internalType": "uint256",
          "name": "value",
          "type": "uint256"
        }
      ],
      "name": "SafeCastOverflowedUintDowncast",
      "type": "error"
    },
    {
      "inputs": [],
      "name": "UUPSUnauthorizedCallContext",
      "type": "error"
    },
    {
      "inputs": [
        {
          "internalType": "bytes32",
          "name": "slot",
          "type": "bytes32"
        }
      ],
      "name": "UUPSUnsupportedProxiableUUID",
      "type": "error"
    },
    {
      "inputs": [],
      "name": "UpgradeFailed",
      "type": "error"
    },
    {
      "inputs": [],
      "name": "ZeroAddress",
      "type": "error"
    },
    {
      "anonymous": false,
      "inputs": [
        {
          "indexed": true,
          "internalType": "address",
          "name": "owner",
          "type": "address"
        },
        {
          "indexed": true,
          "internalType": "address",
          "name": "spender",
          "type": "address"
        },
        {
          "indexed": false,
          "internalType": "uint256",
          "name": "value",
          "type": "uint256"
        }
      ],
      "name": "Approval",
      "type": "event"
    },
    {
      "anonymous": false,
      "inputs": [
        {
          "indexed": true,
          "internalType": "address",
          "name": "caller",
          "type": "address"
        },
        {
          "indexed": true,
          "internalType": "address",
          "name": "blocklistManager",
          "type": "address"
        }
      ],
      "name": "BlocklistManagerUpdated",
      "type": "event"
    },
    {
      "anonymous": false,
      "inputs": [
        {
          "indexed": true,
          "internalType": "address",
          "name": "caller",
          "type": "address"
        },
        {
          "indexed": true,
          "internalType": "address",
          "name": "account",
          "type": "address"
        },
        {
          "indexed": false,
          "internalType": "bool",
          "name": "isBlocked",
          "type": "bool"
        }
      ],
      "name": "BlocklistUpdated",
      "type": "event"
    },
    {
      "anonymous": false,
      "inputs": [
        {
          "indexed": false,
          "internalType": "uint256",
          "name": "shares",
          "type": "uint256"
        },
        {
          "indexed": false,
          "internalType": "uint256",
          "name": "assets",
          "type": "uint256"
        }
      ],
      "name": "CheckpointCreated",
      "type": "event"
    },
    {
      "anonymous": false,
      "inputs": [
        {
          "indexed": true,
          "internalType": "address",
          "name": "caller",
          "type": "address"
        },
        {
          "indexed": true,
          "internalType": "address",
          "name": "receiver",
          "type": "address"
        },
        {
          "indexed": false,
          "internalType": "uint256",
          "name": "assets",
          "type": "uint256"
        },
        {
          "indexed": false,
          "internalType": "uint256",
          "name": "shares",
          "type": "uint256"
        },
        {
          "indexed": false,
          "internalType": "address",
          "name": "referrer",
          "type": "address"
        }
      ],
      "name": "Deposited",
      "type": "event"
    },
    {
      "anonymous": false,
      "inputs": [
        {
          "indexed": true,
          "internalType": "address",
          "name": "owner",
          "type": "address"
        },
        {
          "indexed": true,
          "internalType": "address",
          "name": "receiver",
          "type": "address"
        },
        {
          "indexed": false,
          "internalType": "uint256",
          "name": "positionTicket",
          "type": "uint256"
        },
        {
          "indexed": false,
          "internalType": "uint256",
          "name": "shares",
          "type": "uint256"
        }
      ],
      "name": "ExitQueueEntered",
      "type": "event"
    },
    {
      "anonymous": false,
      "inputs": [
        {
          "indexed": true,
          "internalType": "address",
          "name": "receiver",
          "type": "address"
        },
        {
          "indexed": false,
          "internalType": "uint256",
          "name": "prevPositionTicket",
          "type": "uint256"
        },
        {
          "indexed": false,
          "internalType": "uint256",
          "name": "newPositionTicket",
          "type": "uint256"
        },
        {
          "indexed": false,
          "internalType": "uint256",
          "name": "withdrawnAssets",
          "type": "uint256"
        }
      ],
      "name": "ExitedAssetsClaimed",
      "type": "event"
    },
    {
      "anonymous": false,
      "inputs": [
        {
          "indexed": false,
          "internalType": "uint256",
          "name": "penalty",
          "type": "uint256"
        }
      ],
      "name": "ExitingAssetsPenalized",
      "type": "event"
    },
    {
      "anonymous": false,
      "inputs": [
        {
          "indexed": true,
          "internalType": "address",
          "name": "caller",
          "type": "address"
        },
        {
          "indexed": true,
          "internalType": "address",
          "name": "feeRecipient",
          "type": "address"
        }
      ],
      "name": "FeeRecipientUpdated",
      "type": "event"
    },
    {
      "anonymous": false,
      "inputs": [
        {
          "indexed": false,
          "internalType": "address",
          "name": "receiver",
          "type": "address"
        },
        {
          "indexed": false,
          "internalType": "uint256",
          "name": "shares",
          "type": "uint256"
        },
        {
          "indexed": false,
          "internalType": "uint256",
          "name": "assets",
          "type": "uint256"
        }
      ],
      "name": "FeeSharesMinted",
      "type": "event"
    },
    {
      "anonymous": false,
      "inputs": [
        {
          "indexed": false,
          "internalType": "uint64",
          "name": "version",
          "type": "uint64"
        }
      ],
      "name": "Initialized",
      "type": "event"
    },
    {
      "anonymous": false,
      "inputs": [
        {
          "indexed": true,
          "internalType": "address",
          "name": "caller",
          "type": "address"
        },
        {
          "indexed": true,
          "internalType": "address",
          "name": "keysManager",
          "type": "address"
        }
      ],
      "name": "KeysManagerUpdated",
      "type": "event"
    },
    {
      "anonymous": false,
      "inputs": [
        {
          "indexed": true,
          "internalType": "address",
          "name": "caller",
          "type": "address"
        },
        {
          "indexed": false,
          "internalType": "string",
          "name": "metadataIpfsHash",
          "type": "string"
        }
      ],
      "name": "MetadataUpdated",
      "type": "event"
    },
    {
      "anonymous": false,
      "inputs": [
        {
          "indexed": true,
          "internalType": "address",
          "name": "caller",
          "type": "address"
        },
        {
          "indexed": false,
          "internalType": "uint256",
          "name": "assets",
          "type": "uint256"
        },
        {
          "indexed": false,
          "internalType": "uint256",
          "name": "shares",
          "type": "uint256"
        }
      ],
      "name": "OsTokenBurned",
      "type": "event"
    },
    {
      "anonymous": false,
      "inputs": [
        {
          "indexed": true,
          "internalType": "address",
          "name": "caller",
          "type": "address"
        },
        {
          "indexed": true,
          "internalType": "address",
          "name": "user",
          "type": "address"
        },
        {
          "indexed": false,
          "internalType": "address",
          "name": "receiver",
          "type": "address"
        },
        {
          "indexed": false,
          "internalType": "uint256",
          "name": "osTokenShares",
          "type": "uint256"
        },
        {
          "indexed": false,
          "internalType": "uint256",
          "name": "shares",
          "type": "uint256"
        },
        {
          "indexed": false,
          "internalType": "uint256",
          "name": "receivedAssets",
          "type": "uint256"
        }
      ],
      "name": "OsTokenLiquidated",
      "type": "event"
    },
    {
      "anonymous": false,
      "inputs": [
        {
          "indexed": true,
          "internalType": "address",
          "name": "caller",
          "type": "address"
        },
        {
          "indexed": false,
          "internalType": "address",
          "name": "receiver",
          "type": "address"
        },
        {
          "indexed": false,
          "internalType": "uint256",
          "name": "assets",
          "type": "uint256"
        },
        {
          "indexed": false,
          "internalType": "uint256",
          "name": "shares",
          "type": "uint256"
        },
        {
          "indexed": false,
          "internalType": "address",
          "name": "referrer",
          "type": "address"
        }
      ],
      "name": "OsTokenMinted",
      "type": "event"
    },
    {
      "anonymous": false,
      "inputs": [
        {
          "indexed": true,
          "internalType": "address",
          "name": "caller",
          "type": "address"
        },
        {
          "indexed": true,
          "internalType": "address",
          "name": "user",
          "type": "address"
        },
        {
          "indexed": false,
          "internalType": "address",
          "name": "receiver",
          "type": "address"
        },
        {
          "indexed": false,
          "internalType": "uint256",
          "name": "osTokenShares",
          "type": "uint256"
        },
        {
          "indexed": false,
          "internalType": "uint256",
          "name": "shares",
          "type": "uint256"
        },
        {
          "indexed": false,
          "internalType": "uint256",
          "name": "assets",
          "type": "uint256"
        }
      ],
      "name": "OsTokenRedeemed",
      "type": "event"
    },
    {
      "anonymous": false,
      "inputs": [
        {
          "indexed": true,
          "internalType": "address",
          "name": "owner",
          "type": "address"
        },
        {
          "indexed": true,
          "internalType": "address",
          "name": "receiver",
          "type": "address"
        },
        {
          "indexed": false,
          "internalType": "uint256",
          "name": "assets",
          "type": "uint256"
        },
        {
          "indexed": false,
          "internalType": "uint256",
          "name": "shares",
          "type": "uint256"
        }
      ],
      "name": "Redeemed",
      "type": "event"
    },
    {
      "anonymous": false,
      "inputs": [
        {
          "indexed": true,
          "internalType": "address",
          "name": "from",
          "type": "address"
        },
        {
          "indexed": true,
          "internalType": "address",
          "name": "to",
          "type": "address"
        },
        {
          "indexed": false,
          "internalType": "uint256",
          "name": "value",
          "type": "uint256"
        }
      ],
      "name": "Transfer",
      "type": "event"
    },
    {
      "anonymous": false,
      "inputs": [
        {
          "indexed": true,
          "internalType": "address",
          "name": "implementation",
          "type": "address"
        }
      ],
      "name": "Upgraded",
      "type": "event"
    },
    {
      "anonymous": false,
      "inputs": [
        {
          "indexed": true,
          "internalType": "address",
          "name": "owner",
          "type": "address"
        },
        {
          "indexed": true,
          "internalType": "address",
          "name": "receiver",
          "type": "address"
        },
        {
          "indexed": false,
          "internalType": "uint256",
          "name": "positionTicket",
          "type": "uint256"
        },
        {
          "indexed": false,
          "internalType": "uint256",
          "name": "shares",
          "type": "uint256"
        },
        {
          "indexed": false,
          "internalType": "uint256",
          "name": "assets",
          "type": "uint256"
        }
      ],
      "name": "V2ExitQueueEntered",
      "type": "event"
    },
    {
      "anonymous": false,
      "inputs": [
        {
          "indexed": false,
          "internalType": "bytes",
          "name": "publicKey",
          "type": "bytes"
        }
      ],
      "name": "ValidatorRegistered",
      "type": "event"
    },
    {
      "anonymous": false,
      "inputs": [
        {
          "indexed": true,
          "internalType": "address",
          "name": "caller",
          "type": "address"
        },
        {
          "indexed": true,
          "internalType": "address",
          "name": "validatorsManager",
          "type": "address"
        }
      ],
      "name": "ValidatorsManagerUpdated",
      "type": "event"
    },
    {
      "anonymous": false,
      "inputs": [
        {
          "indexed": true,
          "internalType": "address",
          "name": "caller",
          "type": "address"
        },
        {
          "indexed": true,
          "internalType": "bytes32",
          "name": "validatorsRoot",
          "type": "bytes32"
        }
      ],
      "name": "ValidatorsRootUpdated",
      "type": "event"
    },
    {
      "inputs": [],
      "name": "DOMAIN_SEPARATOR",
      "outputs": [
        {
          "internalType": "bytes32",
          "name": "",
          "type": "bytes32"
        }
      ],
      "stateMutability": "view",
      "type": "function"
    },
    {
      "inputs": [],
      "name": "UPGRADE_INTERFACE_VERSION",
      "outputs": [
        {
          "internalType": "string",
          "name": "",
          "type": "string"
        }
      ],
      "stateMutability": "view",
      "type": "function"
    },
    {
      "inputs": [],
      "name": "admin",
      "outputs": [
        {
          "internalType": "address",
          "name": "",
          "type": "address"
        }
      ],
      "stateMutability": "view",
      "type": "function"
    },
    {
      "inputs": [
        {
          "internalType": "address",
          "name": "",
          "type": "address"
        },
        {
          "internalType": "address",
          "name": "",
          "type": "address"
        }
      ],
      "name": "allowance",
      "outputs": [
        {
          "internalType": "uint256",
          "name": "",
          "type": "uint256"
        }
      ],
      "stateMutability": "view",
      "type": "function"
    },
    {
      "inputs": [
        {
          "internalType": "address",
          "name": "spender",
          "type": "address"
        },
        {
          "internalType": "uint256",
          "name": "amount",
          "type": "uint256"
        }
      ],
      "name": "approve",
      "outputs": [
        {
          "internalType": "bool",
          "name": "",
          "type": "bool"
        }
      ],
      "stateMutability": "nonpayable",
      "type": "function"
    },
    {
      "inputs": [
        {
          "internalType": "address",
          "name": "account",
          "type": "address"
        }
      ],
      "name": "balanceOf",
      "outputs": [
        {
          "internalType": "uint256",
          "name": "",
          "type": "uint256"
        }
      ],
      "stateMutability": "view",
      "type": "function"
    },
    {
      "inputs": [
        {
          "internalType": "address",
          "name": "",
          "type": "address"
        }
      ],
      "name": "blockedAccounts",
      "outputs": [
        {
          "internalType": "bool",
          "name": "",
          "type": "bool"
        }
      ],
      "stateMutability": "view",
      "type": "function"
    },
    {
      "inputs": [],
      "name": "blocklistManager",
      "outputs": [
        {
          "internalType": "address",
          "name": "",
          "type": "address"
        }
      ],
      "stateMutability": "view",
      "type": "function"
    },
    {
      "inputs": [
        {
          "internalType": "uint128",
          "name": "osTokenShares",
          "type": "uint128"
        }
      ],
      "name": "burnOsToken",
      "outputs": [
        {
          "internalType": "uint256",
          "name": "assets",
          "type": "uint256"
        }
      ],
      "stateMutability": "nonpayable",
      "type": "function"
    },
    {
      "inputs": [
        {
          "internalType": "address",
          "name": "receiver",
          "type": "address"
        },
        {
          "internalType": "uint256",
          "name": "positionTicket",
          "type": "uint256"
        },
        {
          "internalType": "uint256",
          "name": "timestamp",
          "type": "uint256"
        },
        {
          "internalType": "uint256",
          "name": "exitQueueIndex",
          "type": "uint256"
        }
      ],
      "name": "calculateExitedAssets",
      "outputs": [
        {
          "internalType": "uint256",
          "name": "leftTickets",
          "type": "uint256"
        },
        {
          "internalType": "uint256",
          "name": "exitedTickets",
          "type": "uint256"
        },
        {
          "internalType": "uint256",
          "name": "exitedAssets",
          "type": "uint256"
        }
      ],
      "stateMutability": "view",
      "type": "function"
    },
    {
      "inputs": [],
      "name": "capacity",
      "outputs": [
        {
          "internalType": "uint256",
          "name": "",
          "type": "uint256"
        }
      ],
      "stateMutability": "view",
      "type": "function"
    },
    {
      "inputs": [
        {
          "internalType": "uint256",
          "name": "positionTicket",
          "type": "uint256"
        },
        {
          "internalType": "uint256",
          "name": "timestamp",
          "type": "uint256"
        },
        {
          "internalType": "uint256",
          "name": "exitQueueIndex",
          "type": "uint256"
        }
      ],
      "name": "claimExitedAssets",
      "outputs": [],
      "stateMutability": "nonpayable",
      "type": "function"
    },
    {
      "inputs": [
        {
          "internalType": "uint256",
          "name": "shares",
          "type": "uint256"
        }
      ],
      "name": "convertToAssets",
      "outputs": [
        {
          "internalType": "uint256",
          "name": "assets",
          "type": "uint256"
        }
      ],
      "stateMutability": "view",
      "type": "function"
    },
    {
      "inputs": [
        {
          "internalType": "uint256",
          "name": "assets",
          "type": "uint256"
        }
      ],
      "name": "convertToShares",
      "outputs": [
        {
          "internalType": "uint256",
          "name": "shares",
          "type": "uint256"
        }
      ],
      "stateMutability": "view",
      "type": "function"
    },
    {
      "inputs": [],
      "name": "decimals",
      "outputs": [
        {
          "internalType": "uint8",
          "name": "",
          "type": "uint8"
        }
      ],
      "stateMutability": "view",
      "type": "function"
    },
    {
      "inputs": [
        {
          "internalType": "address",
          "name": "receiver",
          "type": "address"
        },
        {
          "internalType": "address",
          "name": "referrer",
          "type": "address"
        }
      ],
      "name": "deposit",
      "outputs": [
        {
          "internalType": "uint256",
          "name": "shares",
          "type": "uint256"
        }
      ],
      "stateMutability": "payable",
      "type": "function"
    },
    {
      "inputs": [
        {
          "internalType": "address",
          "name": "receiver",
          "type": "address"
        },
        {
          "internalType": "uint256",
          "name": "osTokenShares",
          "type": "uint256"
        },
        {
          "internalType": "address",
          "name": "referrer",
          "type": "address"
        }
      ],
      "name": "depositAndMintOsToken",
      "outputs": [
        {
          "internalType": "uint256",
          "name": "",
          "type": "uint256"
        }
      ],
      "stateMutability": "payable",
      "type": "function"
    },
    {
      "inputs": [
        {
          "internalType": "uint256",
          "name": "shares",
          "type": "uint256"
        },
        {
          "internalType": "address",
          "name": "receiver",
          "type": "address"
        }
      ],
      "name": "enterExitQueue",
      "outputs": [
        {
          "internalType": "uint256",
          "name": "positionTicket",
          "type": "uint256"
        }
      ],
      "stateMutability": "nonpayable",
      "type": "function"
    },
    {
      "inputs": [],
      "name": "feePercent",
      "outputs": [
        {
          "internalType": "uint16",
          "name": "",
          "type": "uint16"
        }
      ],
      "stateMutability": "view",
      "type": "function"
    },
    {
      "inputs": [],
      "name": "feeRecipient",
      "outputs": [
        {
          "internalType": "address",
          "name": "",
          "type": "address"
        }
      ],
      "stateMutability": "view",
      "type": "function"
    },
    {
      "inputs": [
        {
          "internalType": "uint256",
          "name": "positionTicket",
          "type": "uint256"
        }
      ],
      "name": "getExitQueueIndex",
      "outputs": [
        {
          "internalType": "int256",
          "name": "",
          "type": "int256"
        }
      ],
      "stateMutability": "view",
      "type": "function"
    },
    {
      "inputs": [
        {
          "internalType": "address",
          "name": "account",
          "type": "address"
        }
      ],
      "name": "getShares",
      "outputs": [
        {
          "internalType": "uint256",
          "name": "",
          "type": "uint256"
        }
      ],
      "stateMutability": "view",
      "type": "function"
    },
    {
      "inputs": [],
      "name": "implementation",
      "outputs": [
        {
          "internalType": "address",
          "name": "",
          "type": "address"
        }
      ],
      "stateMutability": "view",
      "type": "function"
    },
    {
      "inputs": [
        {
          "internalType": "bytes",
          "name": "params",
          "type": "bytes"
        }
      ],
      "name": "initialize",
      "outputs": [],
      "stateMutability": "payable",
      "type": "function"
    },
    {
      "inputs": [],
      "name": "isStateUpdateRequired",
      "outputs": [
        {
          "internalType": "bool",
          "name": "",
          "type": "bool"
        }
      ],
      "stateMutability": "view",
      "type": "function"
    },
    {
      "inputs": [
        {
          "internalType": "uint256",
          "name": "osTokenShares",
          "type": "uint256"
        },
        {
          "internalType": "address",
          "name": "owner",
          "type": "address"
        },
        {
          "internalType": "address",
          "name": "receiver",
          "type": "address"
        }
      ],
      "name": "liquidateOsToken",
      "outputs": [],
      "stateMutability": "nonpayable",
      "type": "function"
    },
    {
      "inputs": [],
      "name": "mevEscrow",
      "outputs": [
        {
          "internalType": "address",
          "name": "",
          "type": "address"
        }
      ],
      "stateMutability": "view",
      "type": "function"
    },
    {
      "inputs": [
        {
          "internalType": "address",
          "name": "receiver",
          "type": "address"
        },
        {
          "internalType": "uint256",
          "name": "osTokenShares",
          "type": "uint256"
        },
        {
          "internalType": "address",
          "name": "referrer",
          "type": "address"
        }
      ],
      "name": "mintOsToken",
      "outputs": [
        {
          "internalType": "uint256",
          "name": "assets",
          "type": "uint256"
        }
      ],
      "stateMutability": "nonpayable",
      "type": "function"
    },
    {
      "inputs": [
        {
          "internalType": "bytes[]",
          "name": "data",
          "type": "bytes[]"
        }
      ],
      "name": "multicall",
      "outputs": [
        {
          "internalType": "bytes[]",
          "name": "results",
          "type": "bytes[]"
        }
      ],
      "stateMutability": "nonpayable",
      "type": "function"
    },
    {
      "inputs": [],
      "name": "name",
      "outputs": [
        {
          "internalType": "string",
          "name": "",
          "type": "string"
        }
      ],
      "stateMutability": "view",
      "type": "function"
    },
    {
      "inputs": [
        {
          "internalType": "address",
          "name": "",
          "type": "address"
        }
      ],
      "name": "nonces",
      "outputs": [
        {
          "internalType": "uint256",
          "name": "",
          "type": "uint256"
        }
      ],
      "stateMutability": "view",
      "type": "function"
    },
    {
      "inputs": [
        {
          "internalType": "address",
          "name": "user",
          "type": "address"
        }
      ],
      "name": "osTokenPositions",
      "outputs": [
        {
          "internalType": "uint128",
          "name": "shares",
          "type": "uint128"
        }
      ],
      "stateMutability": "view",
      "type": "function"
    },
    {
      "inputs": [
        {
          "internalType": "address",
          "name": "owner",
          "type": "address"
        },
        {
          "internalType": "address",
          "name": "spender",
          "type": "address"
        },
        {
          "internalType": "uint256",
          "name": "value",
          "type": "uint256"
        },
        {
          "internalType": "uint256",
          "name": "deadline",
          "type": "uint256"
        },
        {
          "internalType": "uint8",
          "name": "v",
          "type": "uint8"
        },
        {
          "internalType": "bytes32",
          "name": "r",
          "type": "bytes32"
        },
        {
          "internalType": "bytes32",
          "name": "s",
          "type": "bytes32"
        }
      ],
      "name": "permit",
      "outputs": [],
      "stateMutability": "nonpayable",
      "type": "function"
    },
    {
      "inputs": [],
      "name": "proxiableUUID",
      "outputs": [
        {
          "internalType": "bytes32",
          "name": "",
          "type": "bytes32"
        }
      ],
      "stateMutability": "view",
      "type": "function"
    },
    {
      "inputs": [],
      "name": "queuedShares",
      "outputs": [
        {
          "internalType": "uint128",
          "name": "",
          "type": "uint128"
        }
      ],
      "stateMutability": "view",
      "type": "function"
    },
    {
      "inputs": [],
      "name": "receiveFromMevEscrow",
      "outputs": [],
      "stateMutability": "payable",
      "type": "function"
    },
    {
      "inputs": [
        {
          "internalType": "uint256",
          "name": "osTokenShares",
          "type": "uint256"
        },
        {
          "internalType": "address",
          "name": "owner",
          "type": "address"
        },
        {
          "internalType": "address",
          "name": "receiver",
          "type": "address"
        }
      ],
      "name": "redeemOsToken",
      "outputs": [],
      "stateMutability": "nonpayable",
      "type": "function"
    },
    {
      "inputs": [
        {
          "components": [
            {
              "internalType": "bytes32",
              "name": "validatorsRegistryRoot",
              "type": "bytes32"
            },
            {
              "internalType": "uint256",
              "name": "deadline",
              "type": "uint256"
            },
            {
              "internalType": "bytes",
              "name": "validators",
              "type": "bytes"
            },
            {
              "internalType": "bytes",
              "name": "signatures",
              "type": "bytes"
            },
            {
              "internalType": "string",
              "name": "exitSignaturesIpfsHash",
              "type": "string"
            }
          ],
          "internalType": "struct IKeeperValidators.ApprovalParams",
          "name": "keeperParams",
          "type": "tuple"
        },
        {
          "internalType": "bytes",
          "name": "validatorsManagerSignature",
          "type": "bytes"
        }
      ],
      "name": "registerValidators",
      "outputs": [],
      "stateMutability": "nonpayable",
      "type": "function"
    },
    {
      "inputs": [
        {
          "internalType": "address",
          "name": "_blocklistManager",
          "type": "address"
        }
      ],
      "name": "setBlocklistManager",
      "outputs": [],
      "stateMutability": "nonpayable",
      "type": "function"
    },
    {
      "inputs": [
        {
          "internalType": "address",
          "name": "_feeRecipient",
          "type": "address"
        }
      ],
      "name": "setFeeRecipient",
      "outputs": [],
      "stateMutability": "nonpayable",
      "type": "function"
    },
    {
      "inputs": [
        {
          "internalType": "string",
          "name": "metadataIpfsHash",
          "type": "string"
        }
      ],
      "name": "setMetadata",
      "outputs": [],
      "stateMutability": "nonpayable",
      "type": "function"
    },
    {
      "inputs": [
        {
          "internalType": "address",
          "name": "validatorsManager_",
          "type": "address"
        }
      ],
      "name": "setValidatorsManager",
      "outputs": [],
      "stateMutability": "nonpayable",
      "type": "function"
    },
    {
      "inputs": [],
      "name": "symbol",
      "outputs": [
        {
          "internalType": "string",
          "name": "",
          "type": "string"
        }
      ],
      "stateMutability": "view",
      "type": "function"
    },
    {
      "inputs": [],
      "name": "totalAssets",
      "outputs": [
        {
          "internalType": "uint256",
          "name": "",
          "type": "uint256"
        }
      ],
      "stateMutability": "view",
      "type": "function"
    },
    {
      "inputs": [],
      "name": "totalExitingAssets",
      "outputs": [
        {
          "internalType": "uint128",
          "name": "",
          "type": "uint128"
        }
      ],
      "stateMutability": "view",
      "type": "function"
    },
    {
      "inputs": [],
      "name": "totalShares",
      "outputs": [
        {
          "internalType": "uint256",
          "name": "",
          "type": "uint256"
        }
      ],
      "stateMutability": "view",
      "type": "function"
    },
    {
      "inputs": [],
      "name": "totalSupply",
      "outputs": [
        {
          "internalType": "uint256",
          "name": "",
          "type": "uint256"
        }
      ],
      "stateMutability": "view",
      "type": "function"
    },
    {
      "inputs": [
        {
          "internalType": "address",
          "name": "to",
          "type": "address"
        },
        {
          "internalType": "uint256",
          "name": "amount",
          "type": "uint256"
        }
      ],
      "name": "transfer",
      "outputs": [
        {
          "internalType": "bool",
          "name": "",
          "type": "bool"
        }
      ],
      "stateMutability": "nonpayable",
      "type": "function"
    },
    {
      "inputs": [
        {
          "internalType": "address",
          "name": "from",
          "type": "address"
        },
        {
          "internalType": "address",
          "name": "to",
          "type": "address"
        },
        {
          "internalType": "uint256",
          "name": "amount",
          "type": "uint256"
        }
      ],
      "name": "transferFrom",
      "outputs": [
        {
          "internalType": "bool",
          "name": "",
          "type": "bool"
        }
      ],
      "stateMutability": "nonpayable",
      "type": "function"
    },
    {
      "inputs": [
        {
          "internalType": "address",
          "name": "account",
          "type": "address"
        },
        {
          "internalType": "bool",
          "name": "isBlocked",
          "type": "bool"
        }
      ],
      "name": "updateBlocklist",
      "outputs": [],
      "stateMutability": "nonpayable",
      "type": "function"
    },
    {
      "inputs": [
        {
          "components": [
            {
              "internalType": "bytes32",
              "name": "rewardsRoot",
              "type": "bytes32"
            },
            {
              "internalType": "int160",
              "name": "reward",
              "type": "int160"
            },
            {
              "internalType": "uint160",
              "name": "unlockedMevReward",
              "type": "uint160"
            },
            {
              "internalType": "bytes32[]",
              "name": "proof",
              "type": "bytes32[]"
            }
          ],
          "internalType": "struct IKeeperRewards.HarvestParams",
          "name": "harvestParams",
          "type": "tuple"
        }
      ],
      "name": "updateState",
      "outputs": [],
      "stateMutability": "nonpayable",
      "type": "function"
    },
    {
      "inputs": [
        {
          "internalType": "address",
          "name": "receiver",
          "type": "address"
        },
        {
          "internalType": "address",
          "name": "referrer",
          "type": "address"
        },
        {
          "components": [
            {
              "internalType": "bytes32",
              "name": "rewardsRoot",
              "type": "bytes32"
            },
            {
              "internalType": "int160",
              "name": "reward",
              "type": "int160"
            },
            {
              "internalType": "uint160",
              "name": "unlockedMevReward",
              "type": "uint160"
            },
            {
              "internalType": "bytes32[]",
              "name": "proof",
              "type": "bytes32[]"
            }
          ],
          "internalType": "struct IKeeperRewards.HarvestParams",
          "name": "harvestParams",
          "type": "tuple"
        }
      ],
      "name": "updateStateAndDeposit",
      "outputs": [
        {
          "internalType": "uint256",
          "name": "shares",
          "type": "uint256"
        }
      ],
      "stateMutability": "payable",
      "type": "function"
    },
    {
      "inputs": [
        {
          "internalType": "address",
          "name": "receiver",
          "type": "address"
        },
        {
          "internalType": "uint256",
          "name": "osTokenShares",
          "type": "uint256"
        },
        {
          "internalType": "address",
          "name": "referrer",
          "type": "address"
        },
        {
          "components": [
            {
              "internalType": "bytes32",
              "name": "rewardsRoot",
              "type": "bytes32"
            },
            {
              "internalType": "int160",
              "name": "reward",
              "type": "int160"
            },
            {
              "internalType": "uint160",
              "name": "unlockedMevReward",
              "type": "uint160"
            },
            {
              "internalType": "bytes32[]",
              "name": "proof",
              "type": "bytes32[]"
            }
          ],
          "internalType": "struct IKeeperRewards.HarvestParams",
          "name": "harvestParams",
          "type": "tuple"
        }
      ],
      "name": "updateStateAndDepositAndMintOsToken",
      "outputs": [
        {
          "internalType": "uint256",
          "name": "",
          "type": "uint256"
        }
      ],
      "stateMutability": "payable",
      "type": "function"
    },
    {
      "inputs": [
        {
          "internalType": "address",
          "name": "newImplementation",
          "type": "address"
        },
        {
          "internalType": "bytes",
          "name": "data",
          "type": "bytes"
        }
      ],
      "name": "upgradeToAndCall",
      "outputs": [],
      "stateMutability": "payable",
      "type": "function"
    },
    {
      "inputs": [],
      "name": "validatorsManager",
      "outputs": [
        {
          "internalType": "address",
          "name": "",
          "type": "address"
        }
      ],
      "stateMutability": "view",
      "type": "function"
    },
    {
      "inputs": [],
      "name": "vaultId",
      "outputs": [
        {
          "internalType": "bytes32",
          "name": "",
          "type": "bytes32"
        }
      ],
      "stateMutability": "pure",
      "type": "function"
    },
    {
      "inputs": [],
      "name": "version",
      "outputs": [
        {
          "internalType": "uint8",
          "name": "",
          "type": "uint8"
        }
      ],
      "stateMutability": "pure",
      "type": "function"
    },
    {
      "inputs": [],
      "name": "withdrawableAssets",
      "outputs": [
        {
          "internalType": "uint256",
          "name": "",
          "type": "uint256"
        }
      ],
      "stateMutability": "view",
      "type": "function"
    },
    {
      "stateMutability": "payable",
      "type": "receive"
    }
  ],
  "bytecode": "0x6101e034620001d05762005a3f38819003601f8101601f191683016001600160401b03811184821017620001d45783928291604052833961010092839181010312620001d0576200005081620001e8565b6200005e60208301620001e8565b906200006d60408401620001e8565b906200007c60608501620001e8565b906200008b60808601620001e8565b926200009a60a08701620001e8565b9460e0620000ab60c08901620001e8565b9701519260805260a05260c0523060e052620000c6620001fd565b46865261012094855261014046815261016091825260018060a01b0380610180941684526101a0941684526101c094855262000101620001fd565b604051956157a297886200029d8939608051888181611829015281816119fd01528181613452015281816141a30152614a4e015260a05188611541015260c05188818161449401526145b5015260e0518881816116c10152613e8a015251876129cc015251866130490152518561421901525184611ba30152518381816104cd01528181610ae70152818161277a0152818161312b015281816138890152613d49015251828181610ba60152818161123e015281816139480152613ccd0152518181816129a7015261349a0152f35b5f80fd5b634e487b7160e01b5f52604160045260245ffd5b51906001600160a01b0382168203620001d057565b7ff0c57e16840df040f15088dc2f81fe391c3923bec73e23a9662efc9c229c6a00805460ff8160401c166200028a576001600160401b036002600160401b0319828216016200024b57505050565b6001600160401b031990911681179091556040519081527fc7f505b2f371ae2175ee4913f4499e1f2633a7b5936321eed1cdaeb6115181d290602090a1565b60405163f92ee8a960e01b8152600490fdfe60806040526004361015610022575b3615610018575f80fd5b610020613103565b005b5f3560e01c806301d523b6146103b757806301e1d114146103b2578063066055e0146103ad57806306fdde03146103a857806307a2d13a146103a3578063095ea7b31461039e57806314c4184b1461039957806318160ddd1461035d57806318f72950146103945780631a7ff5531461038f578063201b9eb51461038a57806323b872dd146103855780632999ad3f146103805780632cdf74011461037b578063313ce567146103765780633229fa951461037157806333194c0a1461036c5780633644e5151461036757806336fe59d2146103625780633a98ef391461035d578063439fab911461035857806343e82a7914610353578063469048401461034e5780634ec96b22146103495780634f1ef2861461034457806352d1902d1461033f57806353156f281461033a57806354fd4d50146103355780635c60da1b146103305780635cfc1a511461032b57806360d60e6e1461032657806370a08231146102b357806372b410a814610321578063754c38881461031c57806376b58b90146103175780637ecebe00146103125780637fd6f15c1461030d57806383d430d5146103085780638697d2c2146103035780638ceab9aa146102fe57806395d89b41146102f9578063a49a1e7d146102f4578063a9059cbb146102ef578063ac9650d8146102ea578063ad3cb1cc146102e5578063b1f0e7c7146102e0578063b45a1eb5146102db578063c6e6f592146102d6578063d0a64ddc146102d1578063d505accf146102cc578063d83ad00c146102c7578063dd62ed3e146102c2578063e74b981b146102bd578063ee3bd5df146102b8578063f04da65b146102b3578063f45bf3d2146102ae578063f851a440146102a95763f9609f080361000e57612619565b6125f1565b6125b0565b6117c3565b61258a565b61255d565b612519565b6124ce565b6122b9565b612281565b612263565b612231565b61220d565b6121c8565b612163565b6120c2565b612070565b611fcc565b611de3565b611b77565b6119a7565b611983565b611948565b6118f7565b61188b565b6117fe565b6117a5565b61178b565b611757565b61173c565b611718565b6116af565b611429565b611334565b61130c565b61120f565b611071565b6108e0565b611002565b610fe8565b610fae565b610f82565b610f67565b610f4d565b610abd565b6109e1565b6109c8565b61096c565b610906565b6108b7565b610815565b6107f7565b610731565b61047d565b61044c565b6103df565b6001600160a01b038116036103cd57565b5f80fd5b908160809103126103cd5790565b60803660031901126103cd576004356103f7816103bc565b604435610403816103bc565b606435906001600160401b0382116103cd5760209261043161042c61043a9436906004016103d1565b6126ec565b602435906129fe565b604051908152f35b5f9103126103cd57565b346103cd575f3660031901126103cd57602060cf5460801c604051908152f35b6001600160801b038116036103cd57565b346103cd5760203660031901126103cd5760043561049a8161046c565b604051633b9e9f0160e21b81523360048201526001600160801b03821660248201526020816044815f6001600160a01b037f0000000000000000000000000000000000000000000000000000000000000000165af1908115610617575f916105e8575b50335f90815261016e602052604090206105169061264b565b916001600160801b0361053084516001600160801b031690565b16156105d657610584836105466105d295613116565b6105706105638461055e84516001600160801b031690565b612684565b6001600160801b03168252565b335f90815261016e6020526040902061269d565b604080518381526001600160801b0392909216602083015233917f3f7354ba02880b4fa37a629985852a38417ff369369ce1e52fa6f8342a9100a79190a26040519081529081906020820190565b0390f35b60405163673f032f60e11b8152600490fd5b61060a915060203d602011610610575b61060281836106b6565b810190612631565b5f6104fd565b503d6105f8565b612640565b90600182811c9216801561064a575b602083101461063657565b634e487b7160e01b5f52602260045260245ffd5b91607f169161062b565b634e487b7160e01b5f52604160045260245ffd5b604081019081106001600160401b0382111761068357604052565b610654565b6001600160401b03811161068357604052565b608081019081106001600160401b0382111761068357604052565b90601f801991011681019081106001600160401b0382111761068357604052565b5f5b8381106106e85750505f910152565b81810151838201526020016106d9565b90602091610711815180928185528580860191016106d7565b601f01601f1916010190565b90602061072e9281815201906106f8565b90565b346103cd575f3660031901126103cd576040515f80546107508161061c565b808452906020906001908181169081156107cd5750600114610789575b6105d28561077d818703826106b6565b6040519182918261071d565b5f80805293505f805160206156ed8339815191525b8385106107ba5750505050810160200161077d826105d261076d565b805486860184015293820193810161079e565b8695506105d29693506020925061077d94915060ff191682840152151560051b820101929361076d565b346103cd5760203660031901126103cd57602061043a6004356126c6565b346103cd5760403660031901126103cd57600435610832816103bc565b6001600160a01b038116906024359082156108a55761086d8291335f52600260205260405f209060018060a01b03165f5260205260405f2090565b556040519081527f8c5be1e5ebec7d5bd14f71427d1e84f3dd0314c0f7b2291e5b200ac8c7c3b92560203392a3602060405160018152f35b60405163d92e233d60e01b8152600490fd5b346103cd575f3660031901126103cd5761026a546040516001600160a01b039091168152602090f35b346103cd575f3660031901126103cd5760206001600160801b0360cf5416604051908152f35b60603660031901126103cd5760043561091e816103bc565b60243561092a816103bc565b604435906001600160401b0382116103cd5760209261095361042c61043a9436906004016103d1565b61095c33613741565b61096581613741565b3490614987565b346103cd5760203660031901126103cd576004356001600160401b0381116103cd5761042c6100209136906004016103d1565b60609060031901126103cd576004356109b7816103bc565b906024359060443561072e816103bc565b346103cd57602061043a6109db3661099f565b91612733565b346103cd5760603660031901126103cd576004356109fe816103bc565b60243590610a0b826103bc565b6001600160a01b0381165f8181526002602090815260408083203384529091529020546044359160018201610a5b575b610a4f84610a4a858883614abf565b61377d565b60405160018152602090f35b919093818503948511610a8f575f928352600260209081526040808520338652909152909220939093559180610a4f610a3b565b612670565b60609060031901126103cd5760043590602435610ab0816103bc565b9060443561072e816103bc565b346103cd57610acb36610a94565b906001600160a01b03808316156108a557610ae4614188565b807f00000000000000000000000000000000000000000000000000000000000000001691823b156103cd5760408051631d8557d760e01b815260049491905f81878183875af1801561061757610f34575b506001600160a01b0383165f90815261016e60205260409020610b579061264b565b6001600160801b039283610b7283516001600160801b031690565b1615610f2457610b8182613116565b825163e48a5f7b60e01b8152308882019081529097906060908990819060200103818a7f0000000000000000000000000000000000000000000000000000000000000000165afa978815610617575f98610ef3575b50602097888101956001600160401b03918280610bfa8a516001600160401b031690565b1614610ee357908c92918751918c8380610c266303d1689d60e11b988983528a83019190602083019252565b03818a5afa91821561061757610c52938e5f94610ebe575b5050516001600160801b03165b1690613245565b96610c76610c708a60018060a01b03165f5260d360205260405f2090565b546126c6565b928389118015610eae575b610e9e57908b610cbf9392610c9d89516001600160801b031690565b908a51958692839283528983019190916001600160801b036020820193169052565b0381895afa91821561061757670de0b6b3a764000094610d0e948e5f95610e71575b5050610d00610cf2610d0692612e2c565b93516001600160401b031690565b93612e2c565b9216906132b9565b1015610e63578351633b9e9f0160e21b815233918101918252602082018b905294939291889186919082905f90829060400103925af1908115610617577f61fd285f9e34a3dbfa9846bdcf22a023e37a3c93549902843b30dd74a18c535097610e4095610db893610e45575b5050610d9b610563610d8b8c6146ba565b83516001600160801b0316612684565b6001600160a01b0386165f90815261016e6020526040902061269d565b610dc182614787565b90610dff610de4610dd1856146ba565b60cf5460801c036001600160801b031690565b6001600160801b0360cf549181199060801b1691161760cf55565b610e098286615207565b610e1383896146ed565b51948594169733978590949392606092608083019660018060a01b03168352602083015260408201520152565b0390a3005b81610e5b92903d106106105761060281836106b6565b505f80610d7a565b835163185cfc6d60e11b8152fd5b610d06929550610e94610d009282610cf293903d106106105761060281836106b6565b959250508e610ce1565b875163efda1a2760e01b81528590fd5b50610eb7612958565b8911610c81565b610c4b9294509081610edb92903d106106105761060281836106b6565b92908e610c3e565b8651630709133160e01b81528490fd5b610f1691985060603d606011610f1d575b610f0e81836106b6565b810190613811565b965f610bd6565b503d610f04565b825163673f032f60e11b81528790fd5b80610f41610f4792610688565b80610442565b5f610b35565b346103cd575f3660031901126103cd57602061043a612958565b346103cd575f3660031901126103cd57602060405160128152f35b346103cd575f3660031901126103cd576020610f9c61298e565b6040516001600160a01b039091168152f35b346103cd575f3660031901126103cd5760206040517fad566d041ad0a21d208459166a94a853aa7fc34cc68f5e214ca9b0cadefaba2c8152f35b346103cd575f3660031901126103cd57602061043a6129c9565b602061043a6110103661099f565b916129fe565b9181601f840112156103cd578235916001600160401b0383116103cd57602083818601950101116103cd57565b60206003198201126103cd57600435906001600160401b0382116103cd5761106d91600401611016565b9091565b61107a36611043565b7ff0c57e16840df040f15088dc2f81fe391c3923bec73e23a9662efc9c229c6a00805460ff8160401c1680156111fb575b6111e95768ffffffffffffffffff19166801000000000000000217905560405163e7f6f22560e01b8152906020908183600481335afa928315610617575f936111ca575b50604051636f4fa30f60e01b8152938285600481335afa9081156106175761113795611132945f93611197575b505061112b9192810190612a89565b9083613db4565b613e74565b7ff0c57e16840df040f15088dc2f81fe391c3923bec73e23a9662efc9c229c6a00805468ff000000000000000019169055604051600281527fc7f505b2f371ae2175ee4913f4499e1f2633a7b5936321eed1cdaeb6115181d290602090a1005b61112b935090816111bc92903d106111c3575b6111b481836106b6565b810190612a4a565b915f61111c565b503d6111aa565b6111e2919350823d84116111c3576111b481836106b6565b915f6110ef565b60405163f92ee8a960e01b8152600490fd5b5060026001600160401b03821610156110ab565b346103cd5761121d36610a94565b60405163057453a760e31b81529091906001600160a01b03906020816004817f000000000000000000000000000000000000000000000000000000000000000086165afa80156106175782915f916112ed575b501633036112db5781610e406112a886867f57f5eb636bf62215c111b54545422f11dfb0cb115f606be905f0be08e8859dd39661386b565b604080516001600160a01b0390981688526020880198909852968601526060850195909552169233929081906080820190565b604051634ca8886760e01b8152600490fd5b611306915060203d6020116111c3576111b481836106b6565b5f611270565b346103cd575f3660031901126103cd57609c546040516001600160a01b039091168152602090f35b346103cd5760203660031901126103cd57600435611351816103bc565b60018060a01b03165f5261016e602052602060405f206040519061137482610668565b54906001600160801b03918281169081835260801c8483015261139c575b5116604051908152f35b6113a581613116565b611392565b6040519060a082018281106001600160401b0382111761068357604052565b604051906113d682610668565b565b6001600160401b03811161068357601f01601f191660200190565b9291926113ff826113d8565b9161140d60405193846106b6565b8294818452818301116103cd578281602093845f960137010152565b6040806003193601126103cd576004908135611444816103bc565b6024356001600160401b0381116103cd57366023820112156103cd5761147390369060248187013591016113f3565b9161147c613e80565b8051926114b3846114a560209363439fab9160e01b8584015284602484015260448301906106f8565b03601f1981018652856106b6565b6114bb613e80565b6114c3613f59565b6001600160a01b0383811680159291908790841561167a575b841561160c575b84156115a8575b50508215611512575b5050611503576100208383614e10565b516355299b4960e01b81528390fd5b83516345da87c560e01b81526001600160a01b03861688820190815292935091839183918290819060200103917f0000000000000000000000000000000000000000000000000000000000000000165afa918215610617575f9261157b575b5050155f806114f3565b61159a9250803d106115a1575b61159281836106b6565b810190612c02565b5f80611571565b503d611588565b855163054fd4d560e41b81529294508391839182905afa9081156106175760039160ff915f916115df575b5016141591865f6114ea565b6115ff9150843d8611611605575b6115f781836106b6565b810190614dfb565b5f6115d3565b503d6115ed565b935050835163198ca60560e11b815282818981875afa9081156106175788917fad566d041ad0a21d208459166a94a853aa7fc34cc68f5e214ca9b0cadefaba2c915f9161165d575b501415936114e3565b6116749150853d87116106105761060281836106b6565b5f611654565b5f8051602061570d8339815191525490945084906116a8906001600160a01b03165b6001600160a01b031690565b14936114dc565b346103cd575f3660031901126103cd577f00000000000000000000000000000000000000000000000000000000000000006001600160a01b031630036117065760206040515f8051602061570d8339815191528152f35b60405163703e46dd60e11b8152600490fd5b5f3660031901126103cd576001600160a01b0361173361298e565b1633036112db57005b346103cd575f3660031901126103cd57602060405160028152f35b346103cd575f3660031901126103cd575f8051602061570d833981519152546040516001600160a01b039091168152602090f35b346103cd575f3660031901126103cd57602061043a612b28565b346103cd5760203660031901126103cd57602061043a600435612b43565b346103cd5760203660031901126103cd576004356117e0816103bc565b60018060a01b03165f5260d3602052602060405f2054604051908152f35b346103cd575f3660031901126103cd57604051633eb1acf760e11b81523060048201526020816024817f00000000000000000000000000000000000000000000000000000000000000006001600160a01b03165afa8015610617576020915f9161186e575b506040519015158152f35b6118859150823d84116115a15761159281836106b6565b5f611863565b346103cd5760203660031901126103cd576004356118a8816103bc565b6118b0613f59565b61010980546001600160a01b0319166001600160a01b03929092169182179055337f6bdc78d8c88160b3fc3638e67f2afe523b3f4c7d00c56ebb6216790e4c3eb2cb5f80a3005b346103cd5760803660031901126103cd576105d261192b60043561191a816103bc565b606435906044359060243590612c24565b604080519384526020840192909252908201529081906060820190565b346103cd5760203660031901126103cd57600435611965816103bc565b60018060a01b03165f526003602052602060405f2054604051908152f35b346103cd575f3660031901126103cd57602061ffff609c5460a01c16604051908152f35b346103cd576003196040368201126103cd5760049081356001600160401b038082116103cd5760a08285019383360301126103cd576024359081116103cd576119f39036908501611016565b6001600160a01b037f00000000000000000000000000000000000000000000000000000000000000008116803b156103cd5760405163837d444160e01b8152905f908290818381611a468c828f01612d40565b03925af1801561061757611b64575b50611a5e614188565b611a66613034565b9081163314159182611b35575b50509050611b24576044019160b0611a8b8484612dbe565b90500480158015611b0c575b611afc57611aac611aa6612958565b91612e13565b11611aed575060b0611abe8383612dbe565b9050145f14611ada5761002091611ad491612dbe565b906145a7565b61002091611ae791612dbe565b9061447f565b6040516396d8043360e01b8152fd5b50604051631c6c4cf360e31b8152fd5b50611b178484612dbe565b905060b082021415611a97565b604051634ca8886760e01b81528390fd5b611b589250611b52611b5c94611b4a88614213565b9236916113f3565b916142ee565b1590565b805f80611a73565b80610f41611b7192610688565b5f611a55565b346103cd5760603660031901126103cd57600435602435611b9c604435828433612c24565b9192611bc87f000000000000000000000000000000000000000000000000000000000000000082612b36565b42108015611ddb575b8015611dd3575b611dc1577feb3b05c070c24f667611fdb3ff75fe007d42401c573aed8d8faca95fd00ccb5693611c2886611c23611c1760d0546001600160801b031690565b6001600160801b031690565b613ed9565b15611d2f57611c62611c47611c3c866146ba565b60d05460801c612684565b6001600160801b0360d0549181199060801b1691161760d055565b60408051336020820190815291810184905260608082018990528152601f1993915f91611ca69190611c956080826106b6565b5190205f5260d260205260405f2090565b555f9360018311611cdf575b50505050611cc082336146ed565b604080519485526020850191909152830152339180606081015b0390a2005b611d2592939450611cf09088612b36565b60408051336020820190815291810193909352606083018290529094909190611c959082608081015b039081018352826106b6565b555f808080611cb2565b611d37614188565b611d73611d57611d46866146ba565b60d5546001600160801b0316612684565b6001600160801b03166001600160801b031960d554161760d555565b611da8611d8d611d82856146ba565b60d55460801c612684565b6001600160801b0360d5549181199060801b1691161760d555565b611dbc611db78460d654612b36565b60d655565b611c62565b604051630e3d8e8d60e11b8152600490fd5b508215611bd8565b508115611bd1565b346103cd576040806003193601126103cd5760243590600435611e05836103bc565b611e0d614188565b8015611fbb576001600160a01b038316908115611faa57611e2d816126c6565b908115611f9957611e3d82614f0f565b611e46836146ba565b60cf5460801c90611e5691612684565b611e75906001600160801b0360cf549181199060801b1691161760cf55565b611e7f8233615207565b60d554958660801c828160d65490611e9691612b36565b98611ea0876146ba565b611eb2916001600160801b0316613762565b611ed2906001600160801b03166001600160801b031960d554161760d555565b611edb91612b36565b611ee4906146ba565b611f03906001600160801b0360d5549181199060801b1691161760d555565b85516001600160a01b0391909116602082019081524260408301526060808301899052825290611f346080826106b6565b519020611f49905f5260d260205260405f2090565b5583518581526020810191909152604081019190915233907f869f12645d154414259c47bcb998b6b6983fae50e5e0c6053bc87d4330db9f2d90606090a3611f903361377d565b51908152602090f35b83516318374fd160e21b8152600490fd5b825163d92e233d60e01b8152600490fd5b8151636edcc52360e01b8152600490fd5b346103cd575f3660031901126103cd576040515f60018054611fed8161061c565b80855291602091600181169081156107cd5750600114612017576105d28561077d818703826106b6565b60015f90815293507fb10e2d527612073b26eecdfd717e6a320cf44b4afac2b0732d9fcbe2b7fa0cf65b83851061205d5750505050810160200161077d826105d261076d565b8054868601840152938201938101612041565b346103cd57611cda7f2013570c343af8ab14a9778150e381a0fda34ed6368127a95fd5e7210cbec5bf6120a236611043565b92906120ac613f59565b6040519182916020835233956020840191612d20565b346103cd5760403660031901126103cd576120ec6004356120e2816103bc565b6024359033614abf565b6120f53361377d565b602060405160018152f35b6020808201906020835283518092526040830192602060408460051b8301019501935f915b8483106121355750505050505090565b9091929394958480612153600193603f198682030187528a516106f8565b9801930193019194939290612125565b346103cd5760203660031901126103cd576001600160401b036004358181116103cd57366023820112156103cd5780600401359182116103cd573660248360051b830101116103cd576105d29160246121bc9201612f87565b60405191829182612100565b346103cd575f3660031901126103cd576105d26040516121e781610668565b60058152640352e302e360dc1b60208201526040519182916020835260208301906106f8565b346103cd575f3660031901126103cd576020610f9c613034565b801515036103cd57565b346103cd5760403660031901126103cd57610020600435612251816103bc565b6024359061225e82612227565b61306b565b346103cd5760203660031901126103cd57602061043a600435614787565b346103cd5760203660031901126103cd576100206004356122a1816103bc565b6122a9613f59565b614816565b60ff8116036103cd57565b346103cd5760e03660031901126103cd576004356122d6816103bc565b6024356122e2816103bc565b6044359060643592608435906122f7826122ae565b6001600160a01b038381169590929086156108a5574281106124bc576020915f91611d196123ea89878a6123ad61232c6129c9565b6001600160a01b0384165f9081526003602052604090209097908054906001820190556040519586948d8601968791959493909260a09360c08401977f6e71edae12b1b97f4d1f60370fef10105fa2faae0126114a169c64845d6126c98552600180871b038092166020860152166040840152606083015260808201520152565b03916123c1601f19938481018352826106b6565b5190206040519384918983019687909160429261190160f01b8352600283015260228201520190565b5190206040805191825260ff92909216602082015260a4359181019190915260c435606082015281805260809060015afa15610617575f519282841680159081156124af575b5061249d5761248a85916124757f8c5be1e5ebec7d5bd14f71427d1e84f3dd0314c0f7b2291e5b200ac8c7c3b9259660018060a01b03165f52600260205260405f2090565b9060018060a01b03165f5260205260405f2090565b5560405193845216918060208101610e40565b6040516323389ba560e21b8152600490fd5b905083831614155f612430565b604051631ab7da6b60e01b8152600490fd5b346103cd575f3660031901126103cd5760206001600160801b0360d05416604051908152f35b60409060031901126103cd5760043561250c816103bc565b9060243561072e816103bc565b346103cd57602061255461252c366124f4565b6001600160a01b039182165f9081526002855260408082209290931681526020919091522090565b54604051908152f35b346103cd5760203660031901126103cd5761002060043561257d816103bc565b612585613f59565b61485d565b346103cd575f3660031901126103cd5760206001600160801b0360d55416604051908152f35b346103cd5760203660031901126103cd576004356125cd816103bc565b60018060a01b03165f5261026b602052602060ff60405f2054166040519015158152f35b346103cd575f3660031901126103cd576037546040516001600160a01b039091168152602090f35b602061043a612627366124f4565b9061095c33613741565b908160209103126103cd575190565b6040513d5f823e3d90fd5b9060405161265881610668565b91546001600160801b038116835260801c6020830152565b634e487b7160e01b5f52601160045260245ffd5b6001600160801b039182169082160391908211610a8f57565b815160209092015160801b6001600160801b0319166001600160801b0392909216919091179055565b60cf546001600160801b03811690816126de57505090565b9161072e9260801c906132b9565b6126f86126ff91613421565b91906135b7565b61270557565b61270d6150de565b80612716575b50565b5f906040519081525f8051602061572d83398151915260203092a3565b909161273e33613741565b612746614a33565b61274e614188565b6040516329460cc560e11b81526001600160a01b038381166004830152602482018590529093602092917f00000000000000000000000000000000000000000000000000000000000000001683866044815f855af1958615610617575f96612939575b50335f90815261016e602052604090206127ca9061264b565b936001600160801b036127e486516001600160801b031690565b16156128d55750506127f583613116565b612821612814612804836146ba565b85516001600160801b0316613762565b6001600160801b03168452565b335f90815260d3602052604090206128419061283c90610c70565b613caa565b612855611c1785516001600160801b031690565b116128c357335f90815261016e602052604090207fa16d97739893e1436c9753925fb5cef174c4f368699dc86cc8fdb0e6e60f8e58936128949161269d565b604080516001600160a01b0395861681526020810187905290810191909152921660608301523391608090a290565b604051633684c65960e01b8152600490fd5b806004926040519384809263752a536d60e01b82525afa9182156106175761291792612908915f9161291c575b506146ba565b6001600160801b031690850152565b6127f5565b6129339150833d85116106105761060281836106b6565b5f612902565b612951919650843d86116106105761060281836106b6565b945f6127b1565b4760d0546001600160801b0361296f8183166126c6565b9060d55416019060801c01908181115f14612988570390565b50505f90565b6101a1546001600160a01b031680156129a45790565b507f000000000000000000000000000000000000000000000000000000000000000090565b467f0000000000000000000000000000000000000000000000000000000000000000036129f65760045490565b61072e613b84565b91612a0833613741565b612a1133613741565b612a1c813433614987565b505f198214612a35575b81612a319293612733565b5090565b612a319150612a4334613caa565b9150612a26565b908160209103126103cd575161072e816103bc565b359061ffff821682036103cd57565b9080601f830112156103cd5781602061072e933591016113f3565b906020828203126103cd5781356001600160401b03928382116103cd57019060a0828203126103cd57612aba6113aa565b9282358452612acb60208401612a5f565b602085015260408301358181116103cd5782612ae8918501612a6e565b604085015260608301358181116103cd5782612b05918501612a6e565b606085015260808301359081116103cd57612b209201612a6e565b608082015290565b60d4548061072e57505f1990565b91908201809211610a8f57565b6001600160801b0360d05416612b57614ebb565b908101809111610a8f578110612b8a57612b7b60d654612b75613ef0565b90612b36565b1115612b85575f90565b5f1990565b60d19060d1549182915f905b848210612bb057505050811015612baa5790565b505f1990565b909193808316906001818518811c8301809311610a8f575f8790525f8051602061574d8339815191528301546001600160a01b0316841015612bf7575050935b9190612b96565b909591019250612bf0565b908160209103126103cd575161072e81612227565b91908203918211610a8f57565b604080516001600160a01b03909216602083019081529082019390935260608101829052909190612c6281608081015b03601f1981018352826106b6565b5190205f5260d260205260405f2054918215612ccc576001600160801b0360d0541690612c8d614ebb565b918201809211610a8f578391831015612cba5791612caa92613fed565b90915b828103908111610a8f5792565b5090612cc591613f6d565b9091612cad565b5050505f905f905f90565b9035601e19823603018112156103cd5701602081359101916001600160401b0382116103cd5781360383136103cd57565b90603060609281835260208301375f60508201520190565b908060209392818452848401375f828201840152601f01601f1916010190565b9060a061072e92602081528235602082015260208301356040820152612d7c612d6c6040850185612cd7565b84606085015260c0840191612d20565b90612daf612da4612d906060870187612cd7565b601f19858703810160808701529591612d20565b946080810190612cd7565b93909282860301910152612d20565b903590601e19813603018212156103cd57018035906001600160401b0382116103cd576020019181360383136103cd57565b634e487b7160e01b5f52601260045260245ffd5b8115612e0e570490565b612df0565b906801bc16d674ec8000009180830292830403610a8f57565b90670de0b6b3a764000091828102928184041490151715610a8f57565b6001600160401b0381116106835760051b60200190565b90612e6a82612e49565b612e7760405191826106b6565b8281528092612e88601f1991612e49565b01905f5b828110612e9857505050565b806060602080938501015201612e8c565b634e487b7160e01b5f52603260045260245ffd5b90821015612ed45761106d9160051b810190612dbe565b612ea9565b908092918237015f815290565b3d15612f10573d90612ef7826113d8565b91612f0560405193846106b6565b82523d5f602084013e565b606090565b6020818303126103cd578051906001600160401b0382116103cd570181601f820112156103cd578051612f47816113d8565b92612f5560405194856106b6565b818452602082840101116103cd5761072e91602080850191016106d7565b8051821015612ed45760209160051b010190565b919091612f9383612e60565b925f5b818110612fa257505050565b5f80612faf838587612ebd565b60409391612fc1855180938193612ed9565b0390305af490612fcf612ee6565b9115612ff6575090600191612fe48288612f73565b52612fef8187612f73565b5001612f96565b9060448151106103cd5761303061301b60049283810151602480918301019101612f15565b925162461bcd60e51b8152928392830161071d565b0390fd5b610109546001600160a01b03168061072e57507f000000000000000000000000000000000000000000000000000000000000000090565b61026a546001600160a01b039190821633036112db576001600160a01b0381165f90815261026b60205260409020549215159260ff16151583146130fe576001600160a01b0381165f90815261026b6020526040902060ff1981541660ff851617905560405192835216907fffe80d6d91bb72bd036e4be8badcf33d7c8e13b2a0aaab3dc3aef76f6b1f786a60203392a3565b505050565b61310c33613741565b61271334336148bf565b60405163752a536d60e01b81526020816004817f00000000000000000000000000000000000000000000000000000000000000006001600160a01b03165afa908115610617575f916131ac575b5060208201916001600160801b039182845116918282146131a557836131986131936131a09585848651166132b9565b6146ba565b1690526146ba565b169052565b5050505050565b6131c5915060203d6020116106105761060281836106b6565b5f613163565b90808202905f198184099082808310920391808303921461323a576127109082821115613228577fbc01a36e2eb1c432ca57a786c226809d495182a9930be0ded288ce703afb7e91940990828211900360fc1b910360041c170290565b60405163227bc15360e01b8152600490fd5b505061271091500490565b90808202905f19818409908280831092039180830392146132a857670de0b6b3a76400009082821115613228577faccb18165bd6fe31ae1cf318dc5b51eee0e1ba569b88cd74c1773b91fac10669940990828211900360ee1b910360121c170290565b5050670de0b6b3a764000091500490565b9091828202915f198482099383808610950394808603951461332c578483111561322857829109815f038216809204600280826003021880830282030280830282030280830282030280830282030280830282030280920290030293600183805f03040190848311900302920304170290565b50509061072e9250612e04565b908160609103126103cd578051916040602083015192015161072e81612227565b81835290916001600160fb1b0383116103cd5760209260051b809284830137010190565b90602082528035602083015260208101358060130b8091036103cd57604083015260408101356133ad816103bc565b6001600160a01b031660608381019190915281013536829003601e19018112156103cd5701602081359101906001600160401b0381116103cd578060051b360382136103cd5760a08360808061072e960152019161335a565b9190915f8382019384129112908015821691151617610a8f57565b6040516325f56f1160e01b81526001600160a01b0392916060908290819061344c906004830161337e565b03815f877f0000000000000000000000000000000000000000000000000000000000000000165af1928315610617575f915f905f95613572575b50841561351f578161349661298e565b16917f000000000000000000000000000000000000000000000000000000000000000016821461351857509060205f92600460405180958193634641257d60e01b83525af1908115610617576134f3925f926134f7575b50613406565b9190565b61351191925060203d6020116106105761060281836106b6565b905f6134ed565b9081613525575b50509190565b803b156103cd57604051636ee3193160e11b815260048101929092525f908290602490829084905af180156106175761355f575b8061351f565b80610f4161356c92610688565b5f613559565b91945050613598915060603d6060116135a0575b61359081836106b6565b810190613339565b93905f613486565b503d613586565b600160ff1b8114610a8f575f0390565b8015612713576135cc611c1760cf5460801c90565b5f821261369e57816135dd91612b36565b906135ea610de4836146ba565b6135ff609c549161ffff8360a01c16906131cb565b80156130fe57807f555ee6b2ef9506d870f386c067e47d3689435330b012ad263d8cc353186865479361363d611c1760cf546001600160801b031690565b8061368857505061368390925b6001600160a01b03169161365e8484615076565b60405193849384604091949392606082019560018060a01b0316825260208201520152565b0390a1565b61368392613698920390846132b9565b9261364a565b906136a8906135a7565b6136bd611c1760d5546001600160801b031690565b806136dd575b50806136cd575050565b613193610de4916113d693612c17565b906137387f3623a54e8078be0d90ecfbef82da6a31ff3e6be8aa1718e7a7f3d0d33ff1d32a91613728611d5761371d6137168888612b36565b87856132b9565b8080940396036146ba565b6040519081529081906020820190565b0390a15f6136c3565b6001600160a01b03165f90815261026b602052604090205460ff166112db57565b9190916001600160801b0380809416911601918211610a8f57565b60018060a01b0381165f5261016e60205260405f2090604051916137a083610668565b54906001600160801b03918281169081855260801c6020850152156130fe5761283c610c706137f3926137d1614188565b6137da86613116565b6001600160a01b03165f90815260d36020526040902090565b915116116128c357565b51906001600160401b03821682036103cd57565b908160609103126103cd5760405190606082018281106001600160401b0382111761068357613863916040918252805161384a8161046c565b8452613858602082016137fd565b6020850152016137fd565b604082015290565b92906001600160a01b0390818116156108a557613886614188565b817f00000000000000000000000000000000000000000000000000000000000000001690813b156103cd57604094855193631d8557d760e01b85526004945f81878183895af1801561061757613b71575b506001600160a01b0388165f90815261016e602052604090206138f99061264b565b906001600160801b0361391383516001600160801b031690565b1615613b615761392282613116565b875163e48a5f7b60e01b81523087820190815290916060918391908290819060200103917f0000000000000000000000000000000000000000000000000000000000000000165afa801561061757613b42575b508651936303d1689d60e11b9788865260209182878061399c888c83019190602083019252565b0381845afa968715610617575f97613b23575b5086996139cf610c708d60018060a01b03165f5260d360205260405f2090565b88118015613b13575b613b03579083613a15926139f387516001600160801b031690565b908551948592839283528d83019190916001600160801b036020820193169052565b0381845afa988915610617575f85948894613a5a9c613ae6575b5051633b9e9f0160e21b815233928101928352602083019490945292998a9384929091839160400190565b03925af195861561061757610d8b613aa194613a8493610563936113d69a613ac8575b50506146ba565b6001600160a01b0388165f90815261016e6020526040902061269d565b613ac3613aad83614787565b8097613abe610de4610dd1876146ba565b615207565b6146ed565b81613ade92903d106106105761060281836106b6565b505f80613a7d565b613afc90873d89116106105761060281836106b6565b505f613a2f565b825163efda1a2760e01b81528990fd5b50613b1c612958565b88116139d8565b613b3b919750833d85116106105761060281836106b6565b955f6139af565b613b5a9060603d606011610f1d57610f0e81836106b6565b505f613975565b875163673f032f60e11b81528690fd5b80610f41613b7e92610688565b5f6138d7565b6040515f905f5490613b958261061c565b9283825260209384830193600190866001821691825f14613c8a575050600114613c47575b50509181613bd0613c4193612c549503826106b6565b519020604080517f8b73c3c69bb8fe3d512ecc4cf759cc79239f7b179b0ffacaa9a75d522b39400f95810195865260208601929092527fc89efdaa54c0f20c7adf612882df0950f5a951637e0307cdcb4c672f298b8bc69085015246606085015230608085015291829060a0850190565b51902090565b5f80805286935091905f805160206156ed8339815191525b828410613c755750505082010181613bd0613bba565b80548685018601528794909301928101613c5f565b60ff1916875292151560051b85019092019250839150613bd09050613bba565b60405163e48a5f7b60e01b81523060048201526001600160a01b036060826024817f000000000000000000000000000000000000000000000000000000000000000085165afa801561061757613d45936001600160401b03610c4b6040613d24946020975f91613d95575b5001516001600160401b031690565b9060405180809581946363737ac960e11b8352600483019190602083019252565b03917f0000000000000000000000000000000000000000000000000000000000000000165afa908115610617575f91613d7c575090565b61072e915060203d6020116106105761060281836106b6565b613dae915060603d606011610f1d57610f0e81836106b6565b5f613d15565b9190613dbe614b4d565b608082015190613dcc614b4d565b6001600160a01b03841680156108a557613e6c94613e5c93613e45926001600160601b0360a01b60375416176037557f2013570c343af8ab14a9778150e381a0fda34ed6368127a95fd5e7210cbec5bf6040516020815280613e33339460208301906106f8565b0390a2602085015161ffff1690614b8e565b613e4f8351614bdf565b613e57614c0f565b614c3c565b6060604082015191015190614c6b565b6113d6614d98565b6113d6906122a9614b4d565b6001600160a01b037f00000000000000000000000000000000000000000000000000000000000000008116308114918215613ebe575b505061170657565b5f8051602061570d8339815191525416141590505f80613eb6565b90613ee2614ebb565b918201809211610a8f571090565b4760d0548060801c8203918211610a8f5781613f156001600160801b038093166126c6565b9081613f3b575b505081156129885761072e91613f369160d5541690614efd565b614f0f565b9192509081811115613f5157035b905f80613f1c565b50505f613f49565b6037546001600160a01b031633036112db57565b613f75613ef0565b9160d654928301809311610a8f5780831115613fbf57613f96920390614efd565b9060d5548060801c80155f14613fac5750508190565b6001600160801b0361072e9216846132b9565b5050505f905f90565b90604051613fd581610668565b91546001600160a01b038116835260a01c6020830152565b60d1545f948594939091808410801590614180575b614173578361413d575f5b60d15f526001600160a01b03166140325f8051602061574d8339815191528601613fc8565b8051909790614049906001600160a01b031661169c565b9861406e6140626020809b01516001600160601b031690565b6001600160601b031690565b948381108015614133575b6141215791600193979a956140986140a4939488035b838c0390614efd565b809201988703916132b9565b01970193808611801590614117575b61410c5760d15f5282906140d55f8051602061574d8339815191528701613fc8565b805190890151969992966001600160a01b0390911694600193926140a49290916001600160601b039091169061409890880361408f565b945050509250509190565b50818510156140b3565b60405163e8722f8f60e01b8152600490fd5b50808b1115614079565b60d15f527f695fb3134ad82c3b8022bc5464edd0bcc9424ef672b52245dcb6ab2374327ce28401546001600160a01b031661400d565b505093505050505f905f90565b508415614002565b604051633eb1acf760e11b81523060048201526020816024817f00000000000000000000000000000000000000000000000000000000000000006001600160a01b03165afa908115610617575f916141f4575b506141e257565b60405163e775715160e01b8152600490fd5b61420d915060203d6020116115a15761159281836106b6565b5f6141db565b604290467f0000000000000000000000000000000000000000000000000000000000000000036142c25761010a54905b61425a6142536040830183612dbe565b36916113f3565b602081519101206040519060208201927f838af86bfca91ada6557e38d913af1c2f24ef9b2567b3b77cc9e1144314b35b084523560408301526060820152606081526142a58161069b565b5190206040519161190160f01b8352600283015260228201522090565b6142ca614f46565b90614243565b600411156142da57565b634e487b7160e01b5f52602160045260245ffd5b6142f88383615013565b50614305819592956142d0565b1593846143a1575b50831561431b575b50505090565b5f92935090829160405161435381612c546020820194630b135d3f60e11b998a875260248401526040604484015260648301906106f8565b51915afa90614360612ee6565b82614393575b82614376575b50505f8080614315565b61438b91925060208082518301019101612631565b145f8061436c565b915060208251101591614366565b6001600160a01b0383811691161493505f61430d565b906030116103cd5790603090565b906090116103cd5760300190606090565b9060b0116103cd5760900190602090565b909392938483116103cd5784116103cd578101920390565b35906020811061440d575090565b5f199060200360031b1b1690565b969594906144589361443c61444a926060979560808c5260808c0191612d20565b9089820360208b01526106f8565b918783036040890152612d20565b930152565b90602061072e928181520190612d08565b91602061072e938181520191612d20565b60b091828104915f908161449161504d565b957f00000000000000000000000000000000000000000000000000000000000000006001600160a01b0316935f92905b8784106144d357505050505050505050565b826144e29101809288876143e7565b906144ed82826143b7565b9161450c6145066144fe86846143c5565b9690936143d6565b906143ff565b90893b156103cd575f908d614539604094855198899485946304512a2360e31b86528a8a6004880161441b565b03816801bc16d674ec8000008d5af1908115610617577f64b6e61d93b7a91e8cc4376183ede0997a27b44fd9dd2f30a866b2a5730efdb19461458592614594575b50519283928361446e565b0390a1600181930192906144c1565b80610f416145a192610688565b5f61457a565b816030116103cd57614506917f00000000000000000000000000000000000000000000000000000000000000006001600160a01b03166145e561504d565b906145fc6145f384866143c5565b969094866143d6565b94813b156103cd576801bc16d674ec8000005f9461466297604051988996879586946304512a2360e31b8652608060048701526146536146408d6084890190612d08565b60031994858983030160248a01526106f8565b92868403016044870152612d20565b90606483015203925af1908115610617577f64b6e61d93b7a91e8cc4376183ede0997a27b44fd9dd2f30a866b2a5730efdb192613683926146ab575b506040519182918261445d565b6146b490610688565b5f61469e565b6001600160801b03908181116146ce571690565b604490604051906306dfcc6560e41b8252608060048301526024820152fd5b907f9b779b17422d0df92223018b32b4d1fa46e071723d6817e2486d003becc55f00916002835414614775576002835581471061475d575f918291829182916001600160a01b03165af161473f612ee6565b501561474b5760019055565b604051630a12f52160e11b8152600490fd5b60405163cd78605960e01b8152306004820152602490fd5b604051633ee5aeb560e01b8152600490fd5b60cf54906001600160801b038216811580156147b6575b156147a95750905090565b61072e9260801c916132b9565b50801561479e565b60cf546001600160801b038116908215801561480e575b156147df57505090565b60801c906147ee8282856132b9565b928215612e0e57096147fd5790565b600181018091111561072e57612670565b5081156147d5565b61026a80546001600160a01b0319166001600160a01b03929092169182179055337fdd44becc667b27d303085374b2760e783af69bbc9db209947ab811a6f1bbc58b5f80a3565b614865614188565b6001600160a01b031680156148ad57609c80546001600160a01b03191682179055337faaebcf1bfa00580e41d966056b48521fa9f202645c86d4ddf28113e617c1b1d35f80a3565b604051630ed1b8b360e31b8152600490fd5b91906148c9614188565b6001600160a01b0383169081156108a557801561497557806148f0611c1760cf5460801c90565b01936148fa612b28565b851161496357610de4946149219161491c614914856147be565b9788936146ba565b615076565b60408051918252602082018590525f9082015233907f861a4138e41fb21c121a7dbb1053df465c837fc77380cc7226189a662281be2c9080606081015b0390a3565b6040516304ffa0ff60e51b8152600490fd5b6040516318374fd160e21b8152600490fd5b90929192614993614188565b6001600160a01b0382169182156108a557811561497557816149ba611c1760cf5460801c90565b016149c3612b28565b811161496357610de495614a0a61495e927f861a4138e41fb21c121a7dbb1053df465c837fc77380cc7226189a662281be2c9461491c614a02886147be565b9a8b936146ba565b60408051948552602085018890526001600160a01b039091169084015233929081906060820190565b604051630156a69560e11b81523060048201526020816024817f00000000000000000000000000000000000000000000000000000000000000006001600160a01b03165afa908115610617575f91614aa0575b5015614a8e57565b604051630a62fbdb60e11b8152600490fd5b614ab9915060203d6020116115a15761159281836106b6565b5f614a86565b90614ac982613741565b614ad281613741565b6001600160a01b039182169182158015614b43575b6108a557825f5260d360205260405f2090815492858403938411610a8f575f8051602061572d8339815191529360209355614b328160018060a01b03165f5260d360205260405f2090565b8681540190556040519586521693a3565b5080821615614ae7565b60ff7ff0c57e16840df040f15088dc2f81fe391c3923bec73e23a9662efc9c229c6a005460401c1615614b7c57565b604051631afcd79f60e31b8152600490fd5b614b96614b4d565b61271061ffff831611614bcd57614bac9061485d565b609c805461ffff60a01b191660a09290921b61ffff60a01b16919091179055565b604051638a81d3b360e01b8152600490fd5b614be7614b4d565b8015614bfd5760018101614bf85750565b60d455565b6040516331278a8760e01b8152600490fd5b614c17614b4d565b6801bc16d674ec800000614c29612b28565b10614bfd57614c36614f46565b61010a55565b614c44614b4d565b6001600160a01b031680614c555750565b6101a180546001600160a01b0319169091179055565b614c73614b4d565b601e8151118015614d8d575b614d7b57614c8b614b4d565b8051906001600160401b03821161068357614caf82614caa5f5461061c565b615272565b602090816001601f851114614d0757509180614ce592614cec95945f92614cfc575b50508160011b915f199060031b1c19161790565b5f5561533c565b6113d6614cf7613b84565b600455565b015190505f80614cd1565b5f80529190601f1984165f805160206156ed833981519152935f905b828210614d63575050916001939185614cec97969410614d4b575b505050811b015f5561533c565b01515f1960f88460031b161c191690555f8080614d3e565b80600186978294978701518155019601940190614d23565b604051632d3f993760e21b8152600490fd5b50600a825111614c7f565b614da0614b4d565b614da8614b4d565b614db0614b4d565b60017f9b779b17422d0df92223018b32b4d1fa46e071723d6817e2486d003becc55f0055633b9aca003410614de95761271334306148bf565b60405163ea2559bb60e01b8152600490fd5b908160209103126103cd575161072e816122ae565b6040516352d1902d60e01b81529290916020846004816001600160a01b0387165afa5f9481614e9a575b50614e6057604051634c9c8ce360e01b81526001600160a01b0384166004820152602490fd5b90915f8051602061570d8339815191528403614e81576113d692935061541a565b604051632a87526960e21b815260048101859052602490fd5b614eb491955060203d6020116106105761060281836106b6565b935f614e3a565b60d15480614ec857505f90565b60d15f527f695fb3134ad82c3b8022bc5464edd0bcc9424ef672b52245dcb6ab2374327ce201546001600160a01b031661169c565b9080821015614f0a575090565b905090565b60d554908160801c81158015614f3e575b15614f2b5750905090565b6001600160801b0361072e9316916132b9565b508015614f20565b6e5661756c7456616c696461746f727360881b6020604051614f6781610668565b600f8152015260405160208101907f8b73c3c69bb8fe3d512ecc4cf759cc79239f7b179b0ffacaa9a75d522b39400f82527f35d6cf9768d8be929c3a11ed667b1560ae6f1920195a985758fdd7265505d1ca60408201527fc89efdaa54c0f20c7adf612882df0950f5a951637e0307cdcb4c672f298b8bc660608201524660808201523060a082015260a0815260c081018181106001600160401b038211176106835760405251902090565b81519190604183036150435761503c9250602082015190606060408401519301515f1a906154bc565b9192909190565b50505f9160029190565b604051600160f81b60208201525f60218201523060601b602c8201526020815261072e81610668565b5f8051602061572d83398151915260205f92615091856146ba565b60cf54906150a96001600160801b0391828416613762565b6001600160801b031990921691161760cf556001600160a01b031680845260d3825260408085208054870190555194855293a3565b60d054906001600160801b0382169182156152015760801c6151126151038247612c17565b61510c856126c6565b90614efd565b9081156151fa5761512282614787565b9384156151f2578261516f611c476131936113d696610de49661516a61514e6131938d6151e79a612c17565b6001600160801b03166001600160801b031960d054161760d055565b612b36565b61517981876155ae565b60408051878152602081018390527f624ea167e477f9d39f7f4094b9dfe2e6346eb4a7aada54338db51abd554c4b9f9190a16131936151cb6151ba886146ba565b60cf546001600160801b0316612684565b6001600160801b03166001600160801b031960cf54161760cf55565b60cf5460801c612684565b505f93505050565b505f925050565b505f9150565b6001600160a01b03165f81815260d360205260409020805483810391908211610a8f575f935f8051602061572d8339815191529260209255615248816146ba565b60cf54906001600160801b03908183160316906001600160801b0319161760cf55604051908152a3565b601f811161527e575050565b5f80525f805160206156ed833981519152906020601f840160051c830193106152c1575b601f0160051c01905b8181106152b6575050565b5f81556001016152ab565b90915081906152a2565b90601f82116152d8575050565b60019160015f527fb10e2d527612073b26eecdfd717e6a320cf44b4afac2b0732d9fcbe2b7fa0cf6906020601f840160051c83019310615332575b601f0160051c01905b81811061532857505050565b5f8155820161531c565b9091508190615313565b9081516001600160401b038111610683576001906153638161535e845461061c565b6152cb565b602080601f8311600114615398575081906153949394955f92614cfc5750508160011b915f199060031b1c19161790565b9055565b90601f198316956153ca60015f527fb10e2d527612073b26eecdfd717e6a320cf44b4afac2b0732d9fcbe2b7fa0cf690565b925f905b88821061540357505083859697106153eb575b505050811b019055565b01515f1960f88460031b161c191690555f80806153e1565b8087859682949686015181550195019301906153ce565b90813b1561549b575f8051602061570d83398151915280546001600160a01b0319166001600160a01b0384169081179091557fbc7cd75a20ee27fd9adebab32041f755214dbc6bffa90cc0225b39da2e5c2d3b5f80a28051156154805761271391615683565b50503461548957565b60405163b398979f60e01b8152600490fd5b604051634c9c8ce360e01b81526001600160a01b0383166004820152602490fd5b90917f7fffffffffffffffffffffffffffffff5d576e7357a4501ddfe92f46681b20a0841161554557906155156020945f9493604051948594859094939260ff6060936080840197845216602083015260408201520152565b838052039060015afa15610617575f516001600160a01b0381161561553b57905f905f90565b505f906001905f90565b5050505f9160039190565b60d154906801000000000000000082101561068357600182018060d155821015612ed45760d15f52805160209091015160a01b6001600160a01b0319166001600160a01b0391909116175f8051602061574d83398151915290910155565b9190918015801561567b575b615669576155c6614ebb565b908101809111610a8f576001600160a01b03808211615649576001600160601b039081851161562957906113d69394615613615624936156046113c9565b95166001600160a01b03168552565b166001600160601b03166020830152565b615550565b6040516306dfcc6560e41b81526060600482015260248101869052604490fd5b6040516306dfcc6560e41b815260a0600482015260248101839052604490fd5b604051632ec8835b60e21b8152600490fd5b5082156155ba565b5f8061072e93602081519101845af461569a612ee6565b91906156b0575080511561474b57805190602001fd5b815115806156e3575b6156c1575090565b604051639996b31560e01b81526001600160a01b039091166004820152602490fd5b50803b156156b956fe290decd9548b62a8d60345a988386fc84ba6bc95484008f6362f93160ef3e563360894a13ba1a3210667c828492db98dca3e2076cc3735a920a3ca505d382bbcddf252ad1be2c89b69c2b068fc378daa952ba7f163c4a11628f55a4df523b3ef695fb3134ad82c3b8022bc5464edd0bcc9424ef672b52245dcb6ab2374327ce3a264697066735822122027987880fd3eee0efc13db72a8e26ae9518f4ca28311acc202b1ac821cf907d564736f6c63430008160033",
  "linkReferences": {},
  "deployedLinkReferences": {}
}