{
  "_format": "hh-sol-artifact-1",
  "contractName": "EthErc20Vault",
  "sourceName": "contracts/vaults/ethereum/EthErc20Vault.sol",
  "abi": [
    {
      "inputs": [
        {
          "internalType": "address",
          "name": "_keeper",
          "type": "address"
        },
        {
          "internalType": "address",
          "name": "_vaultsRegistry",
          "type": "address"
        },
        {
          "internalType": "address",
          "name": "_validatorsRegistry",
          "type": "address"
        },
        {
          "internalType": "address",
          "name": "osTokenVaultController",
          "type": "address"
        },
        {
          "internalType": "address",
          "name": "osTokenConfig",
          "type": "address"
        },
        {
          "internalType": "address",
          "name": "osTokenVaultEscrow",
          "type": "address"
        },
        {
          "internalType": "address",
          "name": "sharedMevEscrow",
          "type": "address"
        },
        {
          "internalType": "address",
          "name": "depositDataRegistry",
          "type": "address"
        },
        {
          "internalType": "uint256",
          "name": "exitingAssetsClaimDelay",
          "type": "uint256"
        }
      ],
      "stateMutability": "nonpayable",
      "type": "constructor"
    },
    {
      "inputs": [],
      "name": "AccessDenied",
      "type": "error"
    },
    {
      "inputs": [
        {
          "internalType": "address",
          "name": "target",
          "type": "address"
        }
      ],
      "name": "AddressEmptyCode",
      "type": "error"
    },
    {
      "inputs": [
        {
          "internalType": "address",
          "name": "account",
          "type": "address"
        }
      ],
      "name": "AddressInsufficientBalance",
      "type": "error"
    },
    {
      "inputs": [],
      "name": "CapacityExceeded",
      "type": "error"
    },
    {
      "inputs": [],
      "name": "DeadlineExpired",
      "type": "error"
    },
    {
      "inputs": [
        {
          "internalType": "address",
          "name": "implementation",
          "type": "address"
        }
      ],
      "name": "ERC1967InvalidImplementation",
      "type": "error"
    },
    {
      "inputs": [],
      "name": "ERC1967NonPayable",
      "type": "error"
    },
    {
      "inputs": [],
      "name": "ExitRequestNotProcessed",
      "type": "error"
    },
    {
      "inputs": [],
      "name": "FailedInnerCall",
      "type": "error"
    },
    {
      "inputs": [],
      "name": "InsufficientAssets",
      "type": "error"
    },
    {
      "inputs": [],
      "name": "InvalidAssets",
      "type": "error"
    },
    {
      "inputs": [],
      "name": "InvalidCapacity",
      "type": "error"
    },
    {
      "inputs": [],
      "name": "InvalidCheckpointIndex",
      "type": "error"
    },
    {
      "inputs": [],
      "name": "InvalidCheckpointValue",
      "type": "error"
    },
    {
      "inputs": [],
      "name": "InvalidFeePercent",
      "type": "error"
    },
    {
      "inputs": [],
      "name": "InvalidFeeRecipient",
      "type": "error"
    },
    {
      "inputs": [],
      "name": "InvalidHealthFactor",
      "type": "error"
    },
    {
      "inputs": [],
      "name": "InvalidInitialization",
      "type": "error"
    },
    {
      "inputs": [],
      "name": "InvalidPosition",
      "type": "error"
    },
    {
      "inputs": [],
      "name": "InvalidQueuedShares",
      "type": "error"
    },
    {
      "inputs": [],
      "name": "InvalidReceivedAssets",
      "type": "error"
    },
    {
      "inputs": [],
      "name": "InvalidSecurityDeposit",
      "type": "error"
    },
    {
      "inputs": [],
      "name": "InvalidShares",
      "type": "error"
    },
    {
      "inputs": [],
      "name": "InvalidTokenMeta",
      "type": "error"
    },
    {
      "inputs": [],
      "name": "InvalidValidators",
      "type": "error"
    },
    {
      "inputs": [],
      "name": "LiquidationDisabled",
      "type": "error"
    },
    {
      "inputs": [],
      "name": "LowLtv",
      "type": "error"
    },
    {
      "inputs": [],
      "name": "MathOverflowedMulDiv",
      "type": "error"
    },
    {
      "inputs": [],
      "name": "NotCollateralized",
      "type": "error"
    },
    {
      "inputs": [],
      "name": "NotHarvested",
      "type": "error"
    },
    {
      "inputs": [],
      "name": "NotInitializing",
      "type": "error"
    },
    {
      "inputs": [],
      "name": "PermitInvalidSigner",
      "type": "error"
    },
    {
      "inputs": [],
      "name": "ReentrancyGuardReentrantCall",
      "type": "error"
    },
    {
      "inputs": [
        {
          "internalType": "uint8",
          "name": "bits",
          "type": "uint8"
        },
        {
          "internalType": "uint256",
          "name": "value",
          "type": "uint256"
        }
      ],
      "name": "SafeCastOverflowedUintDowncast",
      "type": "error"
    },
    {
      "inputs": [],
      "name": "UUPSUnauthorizedCallContext",
      "type": "error"
    },
    {
      "inputs": [
        {
          "internalType": "bytes32",
          "name": "slot",
          "type": "bytes32"
        }
      ],
      "name": "UUPSUnsupportedProxiableUUID",
      "type": "error"
    },
    {
      "inputs": [],
      "name": "UpgradeFailed",
      "type": "error"
    },
    {
      "inputs": [],
      "name": "ZeroAddress",
      "type": "error"
    },
    {
      "anonymous": false,
      "inputs": [
        {
          "indexed": true,
          "internalType": "address",
          "name": "owner",
          "type": "address"
        },
        {
          "indexed": true,
          "internalType": "address",
          "name": "spender",
          "type": "address"
        },
        {
          "indexed": false,
          "internalType": "uint256",
          "name": "value",
          "type": "uint256"
        }
      ],
      "name": "Approval",
      "type": "event"
    },
    {
      "anonymous": false,
      "inputs": [
        {
          "indexed": false,
          "internalType": "uint256",
          "name": "shares",
          "type": "uint256"
        },
        {
          "indexed": false,
          "internalType": "uint256",
          "name": "assets",
          "type": "uint256"
        }
      ],
      "name": "CheckpointCreated",
      "type": "event"
    },
    {
      "anonymous": false,
      "inputs": [
        {
          "indexed": true,
          "internalType": "address",
          "name": "caller",
          "type": "address"
        },
        {
          "indexed": true,
          "internalType": "address",
          "name": "receiver",
          "type": "address"
        },
        {
          "indexed": false,
          "internalType": "uint256",
          "name": "assets",
          "type": "uint256"
        },
        {
          "indexed": false,
          "internalType": "uint256",
          "name": "shares",
          "type": "uint256"
        },
        {
          "indexed": false,
          "internalType": "address",
          "name": "referrer",
          "type": "address"
        }
      ],
      "name": "Deposited",
      "type": "event"
    },
    {
      "anonymous": false,
      "inputs": [
        {
          "indexed": true,
          "internalType": "address",
          "name": "owner",
          "type": "address"
        },
        {
          "indexed": true,
          "internalType": "address",
          "name": "receiver",
          "type": "address"
        },
        {
          "indexed": false,
          "internalType": "uint256",
          "name": "positionTicket",
          "type": "uint256"
        },
        {
          "indexed": false,
          "internalType": "uint256",
          "name": "shares",
          "type": "uint256"
        }
      ],
      "name": "ExitQueueEntered",
      "type": "event"
    },
    {
      "anonymous": false,
      "inputs": [
        {
          "indexed": true,
          "internalType": "address",
          "name": "receiver",
          "type": "address"
        },
        {
          "indexed": false,
          "internalType": "uint256",
          "name": "prevPositionTicket",
          "type": "uint256"
        },
        {
          "indexed": false,
          "internalType": "uint256",
          "name": "newPositionTicket",
          "type": "uint256"
        },
        {
          "indexed": false,
          "internalType": "uint256",
          "name": "withdrawnAssets",
          "type": "uint256"
        }
      ],
      "name": "ExitedAssetsClaimed",
      "type": "event"
    },
    {
      "anonymous": false,
      "inputs": [
        {
          "indexed": false,
          "internalType": "uint256",
          "name": "penalty",
          "type": "uint256"
        }
      ],
      "name": "ExitingAssetsPenalized",
      "type": "event"
    },
    {
      "anonymous": false,
      "inputs": [
        {
          "indexed": true,
          "internalType": "address",
          "name": "caller",
          "type": "address"
        },
        {
          "indexed": true,
          "internalType": "address",
          "name": "feeRecipient",
          "type": "address"
        }
      ],
      "name": "FeeRecipientUpdated",
      "type": "event"
    },
    {
      "anonymous": false,
      "inputs": [
        {
          "indexed": false,
          "internalType": "address",
          "name": "receiver",
          "type": "address"
        },
        {
          "indexed": false,
          "internalType": "uint256",
          "name": "shares",
          "type": "uint256"
        },
        {
          "indexed": false,
          "internalType": "uint256",
          "name": "assets",
          "type": "uint256"
        }
      ],
      "name": "FeeSharesMinted",
      "type": "event"
    },
    {
      "anonymous": false,
      "inputs": [
        {
          "indexed": false,
          "internalType": "uint64",
          "name": "version",
          "type": "uint64"
        }
      ],
      "name": "Initialized",
      "type": "event"
    },
    {
      "anonymous": false,
      "inputs": [
        {
          "indexed": true,
          "internalType": "address",
          "name": "caller",
          "type": "address"
        },
        {
          "indexed": true,
          "internalType": "address",
          "name": "keysManager",
          "type": "address"
        }
      ],
      "name": "KeysManagerUpdated",
      "type": "event"
    },
    {
      "anonymous": false,
      "inputs": [
        {
          "indexed": true,
          "internalType": "address",
          "name": "caller",
          "type": "address"
        },
        {
          "indexed": false,
          "internalType": "string",
          "name": "metadataIpfsHash",
          "type": "string"
        }
      ],
      "name": "MetadataUpdated",
      "type": "event"
    },
    {
      "anonymous": false,
      "inputs": [
        {
          "indexed": true,
          "internalType": "address",
          "name": "caller",
          "type": "address"
        },
        {
          "indexed": false,
          "internalType": "uint256",
          "name": "assets",
          "type": "uint256"
        },
        {
          "indexed": false,
          "internalType": "uint256",
          "name": "shares",
          "type": "uint256"
        }
      ],
      "name": "OsTokenBurned",
      "type": "event"
    },
    {
      "anonymous": false,
      "inputs": [
        {
          "indexed": true,
          "internalType": "address",
          "name": "caller",
          "type": "address"
        },
        {
          "indexed": true,
          "internalType": "address",
          "name": "user",
          "type": "address"
        },
        {
          "indexed": false,
          "internalType": "address",
          "name": "receiver",
          "type": "address"
        },
        {
          "indexed": false,
          "internalType": "uint256",
          "name": "osTokenShares",
          "type": "uint256"
        },
        {
          "indexed": false,
          "internalType": "uint256",
          "name": "shares",
          "type": "uint256"
        },
        {
          "indexed": false,
          "internalType": "uint256",
          "name": "receivedAssets",
          "type": "uint256"
        }
      ],
      "name": "OsTokenLiquidated",
      "type": "event"
    },
    {
      "anonymous": false,
      "inputs": [
        {
          "indexed": true,
          "internalType": "address",
          "name": "caller",
          "type": "address"
        },
        {
          "indexed": false,
          "internalType": "address",
          "name": "receiver",
          "type": "address"
        },
        {
          "indexed": false,
          "internalType": "uint256",
          "name": "assets",
          "type": "uint256"
        },
        {
          "indexed": false,
          "internalType": "uint256",
          "name": "shares",
          "type": "uint256"
        },
        {
          "indexed": false,
          "internalType": "address",
          "name": "referrer",
          "type": "address"
        }
      ],
      "name": "OsTokenMinted",
      "type": "event"
    },
    {
      "anonymous": false,
      "inputs": [
        {
          "indexed": true,
          "internalType": "address",
          "name": "caller",
          "type": "address"
        },
        {
          "indexed": true,
          "internalType": "address",
          "name": "user",
          "type": "address"
        },
        {
          "indexed": false,
          "internalType": "address",
          "name": "receiver",
          "type": "address"
        },
        {
          "indexed": false,
          "internalType": "uint256",
          "name": "osTokenShares",
          "type": "uint256"
        },
        {
          "indexed": false,
          "internalType": "uint256",
          "name": "shares",
          "type": "uint256"
        },
        {
          "indexed": false,
          "internalType": "uint256",
          "name": "assets",
          "type": "uint256"
        }
      ],
      "name": "OsTokenRedeemed",
      "type": "event"
    },
    {
      "anonymous": false,
      "inputs": [
        {
          "indexed": true,
          "internalType": "address",
          "name": "owner",
          "type": "address"
        },
        {
          "indexed": true,
          "internalType": "address",
          "name": "receiver",
          "type": "address"
        },
        {
          "indexed": false,
          "internalType": "uint256",
          "name": "assets",
          "type": "uint256"
        },
        {
          "indexed": false,
          "internalType": "uint256",
          "name": "shares",
          "type": "uint256"
        }
      ],
      "name": "Redeemed",
      "type": "event"
    },
    {
      "anonymous": false,
      "inputs": [
        {
          "indexed": true,
          "internalType": "address",
          "name": "from",
          "type": "address"
        },
        {
          "indexed": true,
          "internalType": "address",
          "name": "to",
          "type": "address"
        },
        {
          "indexed": false,
          "internalType": "uint256",
          "name": "value",
          "type": "uint256"
        }
      ],
      "name": "Transfer",
      "type": "event"
    },
    {
      "anonymous": false,
      "inputs": [
        {
          "indexed": true,
          "internalType": "address",
          "name": "implementation",
          "type": "address"
        }
      ],
      "name": "Upgraded",
      "type": "event"
    },
    {
      "anonymous": false,
      "inputs": [
        {
          "indexed": true,
          "internalType": "address",
          "name": "owner",
          "type": "address"
        },
        {
          "indexed": true,
          "internalType": "address",
          "name": "receiver",
          "type": "address"
        },
        {
          "indexed": false,
          "internalType": "uint256",
          "name": "positionTicket",
          "type": "uint256"
        },
        {
          "indexed": false,
          "internalType": "uint256",
          "name": "shares",
          "type": "uint256"
        },
        {
          "indexed": false,
          "internalType": "uint256",
          "name": "assets",
          "type": "uint256"
        }
      ],
      "name": "V2ExitQueueEntered",
      "type": "event"
    },
    {
      "anonymous": false,
      "inputs": [
        {
          "indexed": false,
          "internalType": "bytes",
          "name": "publicKey",
          "type": "bytes"
        }
      ],
      "name": "ValidatorRegistered",
      "type": "event"
    },
    {
      "anonymous": false,
      "inputs": [
        {
          "indexed": true,
          "internalType": "address",
          "name": "caller",
          "type": "address"
        },
        {
          "indexed": true,
          "internalType": "address",
          "name": "validatorsManager",
          "type": "address"
        }
      ],
      "name": "ValidatorsManagerUpdated",
      "type": "event"
    },
    {
      "anonymous": false,
      "inputs": [
        {
          "indexed": true,
          "internalType": "address",
          "name": "caller",
          "type": "address"
        },
        {
          "indexed": true,
          "internalType": "bytes32",
          "name": "validatorsRoot",
          "type": "bytes32"
        }
      ],
      "name": "ValidatorsRootUpdated",
      "type": "event"
    },
    {
      "inputs": [],
      "name": "DOMAIN_SEPARATOR",
      "outputs": [
        {
          "internalType": "bytes32",
          "name": "",
          "type": "bytes32"
        }
      ],
      "stateMutability": "view",
      "type": "function"
    },
    {
      "inputs": [],
      "name": "UPGRADE_INTERFACE_VERSION",
      "outputs": [
        {
          "internalType": "string",
          "name": "",
          "type": "string"
        }
      ],
      "stateMutability": "view",
      "type": "function"
    },
    {
      "inputs": [],
      "name": "admin",
      "outputs": [
        {
          "internalType": "address",
          "name": "",
          "type": "address"
        }
      ],
      "stateMutability": "view",
      "type": "function"
    },
    {
      "inputs": [
        {
          "internalType": "address",
          "name": "",
          "type": "address"
        },
        {
          "internalType": "address",
          "name": "",
          "type": "address"
        }
      ],
      "name": "allowance",
      "outputs": [
        {
          "internalType": "uint256",
          "name": "",
          "type": "uint256"
        }
      ],
      "stateMutability": "view",
      "type": "function"
    },
    {
      "inputs": [
        {
          "internalType": "address",
          "name": "spender",
          "type": "address"
        },
        {
          "internalType": "uint256",
          "name": "amount",
          "type": "uint256"
        }
      ],
      "name": "approve",
      "outputs": [
        {
          "internalType": "bool",
          "name": "",
          "type": "bool"
        }
      ],
      "stateMutability": "nonpayable",
      "type": "function"
    },
    {
      "inputs": [
        {
          "internalType": "address",
          "name": "account",
          "type": "address"
        }
      ],
      "name": "balanceOf",
      "outputs": [
        {
          "internalType": "uint256",
          "name": "",
          "type": "uint256"
        }
      ],
      "stateMutability": "view",
      "type": "function"
    },
    {
      "inputs": [
        {
          "internalType": "uint128",
          "name": "osTokenShares",
          "type": "uint128"
        }
      ],
      "name": "burnOsToken",
      "outputs": [
        {
          "internalType": "uint256",
          "name": "assets",
          "type": "uint256"
        }
      ],
      "stateMutability": "nonpayable",
      "type": "function"
    },
    {
      "inputs": [
        {
          "internalType": "address",
          "name": "receiver",
          "type": "address"
        },
        {
          "internalType": "uint256",
          "name": "positionTicket",
          "type": "uint256"
        },
        {
          "internalType": "uint256",
          "name": "timestamp",
          "type": "uint256"
        },
        {
          "internalType": "uint256",
          "name": "exitQueueIndex",
          "type": "uint256"
        }
      ],
      "name": "calculateExitedAssets",
      "outputs": [
        {
          "internalType": "uint256",
          "name": "leftTickets",
          "type": "uint256"
        },
        {
          "internalType": "uint256",
          "name": "exitedTickets",
          "type": "uint256"
        },
        {
          "internalType": "uint256",
          "name": "exitedAssets",
          "type": "uint256"
        }
      ],
      "stateMutability": "view",
      "type": "function"
    },
    {
      "inputs": [],
      "name": "capacity",
      "outputs": [
        {
          "internalType": "uint256",
          "name": "",
          "type": "uint256"
        }
      ],
      "stateMutability": "view",
      "type": "function"
    },
    {
      "inputs": [
        {
          "internalType": "uint256",
          "name": "positionTicket",
          "type": "uint256"
        },
        {
          "internalType": "uint256",
          "name": "timestamp",
          "type": "uint256"
        },
        {
          "internalType": "uint256",
          "name": "exitQueueIndex",
          "type": "uint256"
        }
      ],
      "name": "claimExitedAssets",
      "outputs": [],
      "stateMutability": "nonpayable",
      "type": "function"
    },
    {
      "inputs": [
        {
          "internalType": "uint256",
          "name": "shares",
          "type": "uint256"
        }
      ],
      "name": "convertToAssets",
      "outputs": [
        {
          "internalType": "uint256",
          "name": "assets",
          "type": "uint256"
        }
      ],
      "stateMutability": "view",
      "type": "function"
    },
    {
      "inputs": [
        {
          "internalType": "uint256",
          "name": "assets",
          "type": "uint256"
        }
      ],
      "name": "convertToShares",
      "outputs": [
        {
          "internalType": "uint256",
          "name": "shares",
          "type": "uint256"
        }
      ],
      "stateMutability": "view",
      "type": "function"
    },
    {
      "inputs": [],
      "name": "decimals",
      "outputs": [
        {
          "internalType": "uint8",
          "name": "",
          "type": "uint8"
        }
      ],
      "stateMutability": "view",
      "type": "function"
    },
    {
      "inputs": [
        {
          "internalType": "address",
          "name": "receiver",
          "type": "address"
        },
        {
          "internalType": "address",
          "name": "referrer",
          "type": "address"
        }
      ],
      "name": "deposit",
      "outputs": [
        {
          "internalType": "uint256",
          "name": "shares",
          "type": "uint256"
        }
      ],
      "stateMutability": "payable",
      "type": "function"
    },
    {
      "inputs": [
        {
          "internalType": "address",
          "name": "receiver",
          "type": "address"
        },
        {
          "internalType": "uint256",
          "name": "osTokenShares",
          "type": "uint256"
        },
        {
          "internalType": "address",
          "name": "referrer",
          "type": "address"
        }
      ],
      "name": "depositAndMintOsToken",
      "outputs": [
        {
          "internalType": "uint256",
          "name": "",
          "type": "uint256"
        }
      ],
      "stateMutability": "payable",
      "type": "function"
    },
    {
      "inputs": [
        {
          "internalType": "uint256",
          "name": "shares",
          "type": "uint256"
        },
        {
          "internalType": "address",
          "name": "receiver",
          "type": "address"
        }
      ],
      "name": "enterExitQueue",
      "outputs": [
        {
          "internalType": "uint256",
          "name": "positionTicket",
          "type": "uint256"
        }
      ],
      "stateMutability": "nonpayable",
      "type": "function"
    },
    {
      "inputs": [],
      "name": "feePercent",
      "outputs": [
        {
          "internalType": "uint16",
          "name": "",
          "type": "uint16"
        }
      ],
      "stateMutability": "view",
      "type": "function"
    },
    {
      "inputs": [],
      "name": "feeRecipient",
      "outputs": [
        {
          "internalType": "address",
          "name": "",
          "type": "address"
        }
      ],
      "stateMutability": "view",
      "type": "function"
    },
    {
      "inputs": [
        {
          "internalType": "uint256",
          "name": "positionTicket",
          "type": "uint256"
        }
      ],
      "name": "getExitQueueIndex",
      "outputs": [
        {
          "internalType": "int256",
          "name": "",
          "type": "int256"
        }
      ],
      "stateMutability": "view",
      "type": "function"
    },
    {
      "inputs": [
        {
          "internalType": "address",
          "name": "account",
          "type": "address"
        }
      ],
      "name": "getShares",
      "outputs": [
        {
          "internalType": "uint256",
          "name": "",
          "type": "uint256"
        }
      ],
      "stateMutability": "view",
      "type": "function"
    },
    {
      "inputs": [],
      "name": "implementation",
      "outputs": [
        {
          "internalType": "address",
          "name": "",
          "type": "address"
        }
      ],
      "stateMutability": "view",
      "type": "function"
    },
    {
      "inputs": [
        {
          "internalType": "bytes",
          "name": "params",
          "type": "bytes"
        }
      ],
      "name": "initialize",
      "outputs": [],
      "stateMutability": "payable",
      "type": "function"
    },
    {
      "inputs": [],
      "name": "isStateUpdateRequired",
      "outputs": [
        {
          "internalType": "bool",
          "name": "",
          "type": "bool"
        }
      ],
      "stateMutability": "view",
      "type": "function"
    },
    {
      "inputs": [
        {
          "internalType": "uint256",
          "name": "osTokenShares",
          "type": "uint256"
        },
        {
          "internalType": "address",
          "name": "owner",
          "type": "address"
        },
        {
          "internalType": "address",
          "name": "receiver",
          "type": "address"
        }
      ],
      "name": "liquidateOsToken",
      "outputs": [],
      "stateMutability": "nonpayable",
      "type": "function"
    },
    {
      "inputs": [],
      "name": "mevEscrow",
      "outputs": [
        {
          "internalType": "address",
          "name": "",
          "type": "address"
        }
      ],
      "stateMutability": "view",
      "type": "function"
    },
    {
      "inputs": [
        {
          "internalType": "address",
          "name": "receiver",
          "type": "address"
        },
        {
          "internalType": "uint256",
          "name": "osTokenShares",
          "type": "uint256"
        },
        {
          "internalType": "address",
          "name": "referrer",
          "type": "address"
        }
      ],
      "name": "mintOsToken",
      "outputs": [
        {
          "internalType": "uint256",
          "name": "assets",
          "type": "uint256"
        }
      ],
      "stateMutability": "nonpayable",
      "type": "function"
    },
    {
      "inputs": [
        {
          "internalType": "bytes[]",
          "name": "data",
          "type": "bytes[]"
        }
      ],
      "name": "multicall",
      "outputs": [
        {
          "internalType": "bytes[]",
          "name": "results",
          "type": "bytes[]"
        }
      ],
      "stateMutability": "nonpayable",
      "type": "function"
    },
    {
      "inputs": [],
      "name": "name",
      "outputs": [
        {
          "internalType": "string",
          "name": "",
          "type": "string"
        }
      ],
      "stateMutability": "view",
      "type": "function"
    },
    {
      "inputs": [
        {
          "internalType": "address",
          "name": "",
          "type": "address"
        }
      ],
      "name": "nonces",
      "outputs": [
        {
          "internalType": "uint256",
          "name": "",
          "type": "uint256"
        }
      ],
      "stateMutability": "view",
      "type": "function"
    },
    {
      "inputs": [
        {
          "internalType": "address",
          "name": "user",
          "type": "address"
        }
      ],
      "name": "osTokenPositions",
      "outputs": [
        {
          "internalType": "uint128",
          "name": "shares",
          "type": "uint128"
        }
      ],
      "stateMutability": "view",
      "type": "function"
    },
    {
      "inputs": [
        {
          "internalType": "address",
          "name": "owner",
          "type": "address"
        },
        {
          "internalType": "address",
          "name": "spender",
          "type": "address"
        },
        {
          "internalType": "uint256",
          "name": "value",
          "type": "uint256"
        },
        {
          "internalType": "uint256",
          "name": "deadline",
          "type": "uint256"
        },
        {
          "internalType": "uint8",
          "name": "v",
          "type": "uint8"
        },
        {
          "internalType": "bytes32",
          "name": "r",
          "type": "bytes32"
        },
        {
          "internalType": "bytes32",
          "name": "s",
          "type": "bytes32"
        }
      ],
      "name": "permit",
      "outputs": [],
      "stateMutability": "nonpayable",
      "type": "function"
    },
    {
      "inputs": [],
      "name": "proxiableUUID",
      "outputs": [
        {
          "internalType": "bytes32",
          "name": "",
          "type": "bytes32"
        }
      ],
      "stateMutability": "view",
      "type": "function"
    },
    {
      "inputs": [],
      "name": "queuedShares",
      "outputs": [
        {
          "internalType": "uint128",
          "name": "",
          "type": "uint128"
        }
      ],
      "stateMutability": "view",
      "type": "function"
    },
    {
      "inputs": [],
      "name": "receiveFromMevEscrow",
      "outputs": [],
      "stateMutability": "payable",
      "type": "function"
    },
    {
      "inputs": [
        {
          "internalType": "uint256",
          "name": "osTokenShares",
          "type": "uint256"
        },
        {
          "internalType": "address",
          "name": "owner",
          "type": "address"
        },
        {
          "internalType": "address",
          "name": "receiver",
          "type": "address"
        }
      ],
      "name": "redeemOsToken",
      "outputs": [],
      "stateMutability": "nonpayable",
      "type": "function"
    },
    {
      "inputs": [
        {
          "components": [
            {
              "internalType": "bytes32",
              "name": "validatorsRegistryRoot",
              "type": "bytes32"
            },
            {
              "internalType": "uint256",
              "name": "deadline",
              "type": "uint256"
            },
            {
              "internalType": "bytes",
              "name": "validators",
              "type": "bytes"
            },
            {
              "internalType": "bytes",
              "name": "signatures",
              "type": "bytes"
            },
            {
              "internalType": "string",
              "name": "exitSignaturesIpfsHash",
              "type": "string"
            }
          ],
          "internalType": "struct IKeeperValidators.ApprovalParams",
          "name": "keeperParams",
          "type": "tuple"
        },
        {
          "internalType": "bytes",
          "name": "validatorsManagerSignature",
          "type": "bytes"
        }
      ],
      "name": "registerValidators",
      "outputs": [],
      "stateMutability": "nonpayable",
      "type": "function"
    },
    {
      "inputs": [
        {
          "internalType": "address",
          "name": "_feeRecipient",
          "type": "address"
        }
      ],
      "name": "setFeeRecipient",
      "outputs": [],
      "stateMutability": "nonpayable",
      "type": "function"
    },
    {
      "inputs": [
        {
          "internalType": "string",
          "name": "metadataIpfsHash",
          "type": "string"
        }
      ],
      "name": "setMetadata",
      "outputs": [],
      "stateMutability": "nonpayable",
      "type": "function"
    },
    {
      "inputs": [
        {
          "internalType": "address",
          "name": "validatorsManager_",
          "type": "address"
        }
      ],
      "name": "setValidatorsManager",
      "outputs": [],
      "stateMutability": "nonpayable",
      "type": "function"
    },
    {
      "inputs": [],
      "name": "symbol",
      "outputs": [
        {
          "internalType": "string",
          "name": "",
          "type": "string"
        }
      ],
      "stateMutability": "view",
      "type": "function"
    },
    {
      "inputs": [],
      "name": "totalAssets",
      "outputs": [
        {
          "internalType": "uint256",
          "name": "",
          "type": "uint256"
        }
      ],
      "stateMutability": "view",
      "type": "function"
    },
    {
      "inputs": [],
      "name": "totalExitingAssets",
      "outputs": [
        {
          "internalType": "uint128",
          "name": "",
          "type": "uint128"
        }
      ],
      "stateMutability": "view",
      "type": "function"
    },
    {
      "inputs": [],
      "name": "totalShares",
      "outputs": [
        {
          "internalType": "uint256",
          "name": "",
          "type": "uint256"
        }
      ],
      "stateMutability": "view",
      "type": "function"
    },
    {
      "inputs": [],
      "name": "totalSupply",
      "outputs": [
        {
          "internalType": "uint256",
          "name": "",
          "type": "uint256"
        }
      ],
      "stateMutability": "view",
      "type": "function"
    },
    {
      "inputs": [
        {
          "internalType": "address",
          "name": "to",
          "type": "address"
        },
        {
          "internalType": "uint256",
          "name": "amount",
          "type": "uint256"
        }
      ],
      "name": "transfer",
      "outputs": [
        {
          "internalType": "bool",
          "name": "",
          "type": "bool"
        }
      ],
      "stateMutability": "nonpayable",
      "type": "function"
    },
    {
      "inputs": [
        {
          "internalType": "address",
          "name": "from",
          "type": "address"
        },
        {
          "internalType": "address",
          "name": "to",
          "type": "address"
        },
        {
          "internalType": "uint256",
          "name": "amount",
          "type": "uint256"
        }
      ],
      "name": "transferFrom",
      "outputs": [
        {
          "internalType": "bool",
          "name": "",
          "type": "bool"
        }
      ],
      "stateMutability": "nonpayable",
      "type": "function"
    },
    {
      "inputs": [
        {
          "internalType": "uint256",
          "name": "osTokenShares",
          "type": "uint256"
        }
      ],
      "name": "transferOsTokenPositionToEscrow",
      "outputs": [
        {
          "internalType": "uint256",
          "name": "positionTicket",
          "type": "uint256"
        }
      ],
      "stateMutability": "nonpayable",
      "type": "function"
    },
    {
      "inputs": [
        {
          "components": [
            {
              "internalType": "bytes32",
              "name": "rewardsRoot",
              "type": "bytes32"
            },
            {
              "internalType": "int160",
              "name": "reward",
              "type": "int160"
            },
            {
              "internalType": "uint160",
              "name": "unlockedMevReward",
              "type": "uint160"
            },
            {
              "internalType": "bytes32[]",
              "name": "proof",
              "type": "bytes32[]"
            }
          ],
          "internalType": "struct IKeeperRewards.HarvestParams",
          "name": "harvestParams",
          "type": "tuple"
        }
      ],
      "name": "updateState",
      "outputs": [],
      "stateMutability": "nonpayable",
      "type": "function"
    },
    {
      "inputs": [
        {
          "internalType": "address",
          "name": "receiver",
          "type": "address"
        },
        {
          "internalType": "address",
          "name": "referrer",
          "type": "address"
        },
        {
          "components": [
            {
              "internalType": "bytes32",
              "name": "rewardsRoot",
              "type": "bytes32"
            },
            {
              "internalType": "int160",
              "name": "reward",
              "type": "int160"
            },
            {
              "internalType": "uint160",
              "name": "unlockedMevReward",
              "type": "uint160"
            },
            {
              "internalType": "bytes32[]",
              "name": "proof",
              "type": "bytes32[]"
            }
          ],
          "internalType": "struct IKeeperRewards.HarvestParams",
          "name": "harvestParams",
          "type": "tuple"
        }
      ],
      "name": "updateStateAndDeposit",
      "outputs": [
        {
          "internalType": "uint256",
          "name": "shares",
          "type": "uint256"
        }
      ],
      "stateMutability": "payable",
      "type": "function"
    },
    {
      "inputs": [
        {
          "internalType": "address",
          "name": "receiver",
          "type": "address"
        },
        {
          "internalType": "uint256",
          "name": "osTokenShares",
          "type": "uint256"
        },
        {
          "internalType": "address",
          "name": "referrer",
          "type": "address"
        },
        {
          "components": [
            {
              "internalType": "bytes32",
              "name": "rewardsRoot",
              "type": "bytes32"
            },
            {
              "internalType": "int160",
              "name": "reward",
              "type": "int160"
            },
            {
              "internalType": "uint160",
              "name": "unlockedMevReward",
              "type": "uint160"
            },
            {
              "internalType": "bytes32[]",
              "name": "proof",
              "type": "bytes32[]"
            }
          ],
          "internalType": "struct IKeeperRewards.HarvestParams",
          "name": "harvestParams",
          "type": "tuple"
        }
      ],
      "name": "updateStateAndDepositAndMintOsToken",
      "outputs": [
        {
          "internalType": "uint256",
          "name": "",
          "type": "uint256"
        }
      ],
      "stateMutability": "payable",
      "type": "function"
    },
    {
      "inputs": [
        {
          "internalType": "address",
          "name": "newImplementation",
          "type": "address"
        },
        {
          "internalType": "bytes",
          "name": "data",
          "type": "bytes"
        }
      ],
      "name": "upgradeToAndCall",
      "outputs": [],
      "stateMutability": "payable",
      "type": "function"
    },
    {
      "inputs": [],
      "name": "validatorsManager",
      "outputs": [
        {
          "internalType": "address",
          "name": "",
          "type": "address"
        }
      ],
      "stateMutability": "view",
      "type": "function"
    },
    {
      "inputs": [],
      "name": "vaultId",
      "outputs": [
        {
          "internalType": "bytes32",
          "name": "",
          "type": "bytes32"
        }
      ],
      "stateMutability": "pure",
      "type": "function"
    },
    {
      "inputs": [],
      "name": "version",
      "outputs": [
        {
          "internalType": "uint8",
          "name": "",
          "type": "uint8"
        }
      ],
      "stateMutability": "pure",
      "type": "function"
    },
    {
      "inputs": [],
      "name": "withdrawableAssets",
      "outputs": [
        {
          "internalType": "uint256",
          "name": "",
          "type": "uint256"
        }
      ],
      "stateMutability": "view",
      "type": "function"
    },
    {
      "stateMutability": "payable",
      "type": "receive"
    }
  ],
  "bytecode": "0x61020034620001f25762005aa338819003601f8101601f191683016001600160401b03811184821017620001f65783928291604052833961012091829181010312620001f25762000050826200020a565b6200005e602084016200020a565b6200006c604085016200020a565b916200007b606086016200020a565b62000089608087016200020a565b916200009860a088016200020a565b93620000a760c089016200020a565b95620000b660e08a016200020a565b91610100809a01519360805260a05260c0523060e052620000d66200021f565b468852865261014046815261016091825260018060a01b038061018094168452806101a0951685526101c0951685526101e0958652620001156200021f565b604051966157e49889620002bf8a396080518981816117890152818161195d01528181612f8501528181613ea80152615131015260a05189611420015260c05189818161419901526142ba015260e05189818161159f0152613c6a0152518861261501525187612c1f01525186613f1e01525185611b030152518481816104aa01528181610a8f01528181612c6001528181613364015281816134d10152818161365701526147b1015251838181610b4e0152818161111c01528181613716015261473501525182611df60152518181816125f00152612fcd0152f35b5f80fd5b634e487b7160e01b5f52604160045260245ffd5b51906001600160a01b0382168203620001f257565b7ff0c57e16840df040f15088dc2f81fe391c3923bec73e23a9662efc9c229c6a00805460ff8160401c16620002ac576001600160401b036002600160401b0319828216016200026d57505050565b6001600160401b031990911681179091556040519081527fc7f505b2f371ae2175ee4913f4499e1f2633a7b5936321eed1cdaeb6115181d290602090a1565b60405163f92ee8a960e01b8152600490fdfe60806040526004361015610022575b3615610018575f80fd5b610020612c41565b005b5f3560e01c806301d523b61461038757806301e1d11414610382578063066055e01461037d57806306fdde031461037857806307a2d13a14610373578063095ea7b31461036e57806318160ddd1461033257806318f72950146103695780631a7ff55314610364578063201b9eb51461035f57806323b872dd1461035a5780632999ad3f146103555780632cdf740114610350578063313ce5671461034b5780633229fa951461034657806333194c0a146103415780633644e5151461033c57806336fe59d2146103375780633a98ef3914610332578063439fab911461032d57806343e82a791461032857806346904840146103235780634ec96b221461031e5780634f1ef2861461031957806352d1902d1461031457806353156f281461030f57806354fd4d501461030a5780635c60da1b146103055780635cfc1a511461030057806360d60e6e146102fb57806370a082311461028d57806372b410a8146102f6578063754c3888146102f157806376b58b90146102ec5780637ecebe00146102e75780637fd6f15c146102e257806383d430d5146102dd5780638697d2c2146102d85780638ceab9aa146102d35780639267842a146102ce57806395d89b41146102c9578063a49a1e7d146102c4578063a9059cbb146102bf578063ac9650d8146102ba578063ad3cb1cc146102b5578063b1f0e7c7146102b0578063c6e6f592146102ab578063d505accf146102a6578063d83ad00c146102a1578063dd62ed3e1461029c578063e74b981b14610297578063ee3bd5df14610292578063f04da65b1461028d578063f851a440146102885763f9609f080361000e57612471565b612449565b611723565b612423565b6123f6565b6123b2565b612367565b612152565b612129565b61210f565b6120ca565b612065565b611fc4565b611f72565b611ece565b611cda565b611c82565b611ad7565b611907565b6118e3565b6118a8565b611857565b6117eb565b61175e565b611683565b611669565b611635565b61161a565b6115f6565b61158d565b611308565b611222565b6111fa565b6110ed565b611027565b610899565b610fab565b610f91565b610f57565b610f2b565b610f10565b610ef6565b610a65565b610989565b61096f565b610913565b6108bf565b6107f7565b6107d9565b610713565b61045a565b610429565b6103af565b6001600160a01b0381160361039d57565b5f80fd5b9081608091031261039d5790565b608036600319011261039d576004356103c78161038c565b6044356103d38161038c565b606435906001600160401b03821161039d576020926104016103fc6104179436906004016103a1565b61255a565b61040c823433614645565b5060243590336132a0565b604051908152f35b5f91031261039d57565b3461039d575f36600319011261039d57602060cf5460801c604051908152f35b6001600160801b0381160361039d57565b3461039d57602036600319011261039d5760043561047781610449565b604051633b9e9f0160e21b81523360048201526001600160801b03821660248201526020816044815f6001600160a01b037f0000000000000000000000000000000000000000000000000000000000000000165af19081156105f9575f916105ca575b50335f90815261016e602052604090206104f3906124a1565b916001600160801b0361050d84516001600160801b031690565b16156105b857610566836105236105b495612c4b565b61054d6105408461053b84516001600160801b031690565b6124f2565b6001600160801b03168252565b335f90815261016e6020526040902061250b565b61250b565b604080518381526001600160801b0392909216602083015233917f3f7354ba02880b4fa37a629985852a38417ff369369ce1e52fa6f8342a9100a79190a26040519081529081906020820190565b0390f35b60405163673f032f60e11b8152600490fd5b6105ec915060203d6020116105f2575b6105e48183610698565b810190612487565b5f6104da565b503d6105da565b612496565b90600182811c9216801561062c575b602083101461061857565b634e487b7160e01b5f52602260045260245ffd5b91607f169161060d565b634e487b7160e01b5f52604160045260245ffd5b604081019081106001600160401b0382111761066557604052565b610636565b6001600160401b03811161066557604052565b608081019081106001600160401b0382111761066557604052565b90601f801991011681019081106001600160401b0382111761066557604052565b5f5b8381106106ca5750505f910152565b81810151838201526020016106bb565b906020916106f3815180928185528580860191016106b9565b601f01601f1916010190565b9060206107109281815201906106da565b90565b3461039d575f36600319011261039d576040515f8054610732816105fe565b808452906020906001908181169081156107af575060011461076b575b6105b48561075f81870382610698565b604051918291826106ff565b5f80805293505f8051602061570f8339815191525b83851061079c5750505050810160200161075f826105b461074f565b8054868601840152938201938101610780565b8695506105b49693506020925061075f94915060ff191682840152151560051b820101929361074f565b3461039d57602036600319011261039d576020610417600435612534565b3461039d57604036600319011261039d576004356108148161038c565b6001600160a01b038116906024359082156108875761084f8291335f52600260205260405f209060018060a01b03165f5260205260405f2090565b556040519081527f8c5be1e5ebec7d5bd14f71427d1e84f3dd0314c0f7b2291e5b200ac8c7c3b92560203392a3602060405160018152f35b60405163d92e233d60e01b8152600490fd5b3461039d575f36600319011261039d5760206001600160801b0360cf5416604051908152f35b606036600319011261039d576004356108d78161038c565b6024356108e38161038c565b604435906001600160401b03821161039d5760209261090c6103fc6104179436906004016103a1565b3490614645565b3461039d57602036600319011261039d576004356001600160401b03811161039d576103fc6100209136906004016103a1565b606090600319011261039d5760043561095e8161038c565b90602435906044356107108161038c565b3461039d57602061041761098236610946565b91336132a0565b3461039d57606036600319011261039d576004356109a68161038c565b602435906109b38261038c565b6001600160a01b0381165f8181526002602090815260408083203384529091529020546044359160018201610a03575b6109f7846109f285888361481c565b61354b565b60405160018152602090f35b919093818503948511610a37575f9283526002602090815260408085203386529091529092209390935591806109f76109e3565b6124c6565b606090600319011261039d5760043590602435610a588161038c565b906044356107108161038c565b3461039d57610a7336610a3c565b906001600160a01b038083161561088757610a8c613e8d565b807f00000000000000000000000000000000000000000000000000000000000000001691823b1561039d5760408051631d8557d760e01b815260049491905f81878183875af180156105f957610edd575b506001600160a01b0383165f90815261016e60205260409020610aff906124a1565b6001600160801b039283610b1a83516001600160801b031690565b1615610ecd57610b2982612c4b565b825163e48a5f7b60e01b8152308882019081529097906060908990819060200103818a7f0000000000000000000000000000000000000000000000000000000000000000165afa9788156105f9575f98610e9c575b50602097888101956001600160401b03918280610ba28a516001600160401b031690565b1614610e8c57908c92918751918c8380610bce6303d1689d60e11b988983528a83019190602083019252565b03818a5afa9182156105f957610bfa938e5f94610e67575b5050516001600160801b03165b1690612d7a565b96610c1e610c188a60018060a01b03165f5260d360205260405f2090565b54612534565b928389118015610e57575b610e4757908b610c679392610c4589516001600160801b031690565b908a51958692839283528983019190916001600160801b036020820193169052565b0381895afa9182156105f957670de0b6b3a764000094610cb6948e5f95610e1a575b5050610ca8610c9a610cae926129f5565b93516001600160401b031690565b936129f5565b921690612dee565b1015610e0c578351633b9e9f0160e21b815233918101918252602082018b905294939291889186919082905f90829060400103925af19081156105f9577f61fd285f9e34a3dbfa9846bdcf22a023e37a3c93549902843b30dd74a18c535097610de995610d6093610dee575b5050610d43610540610d338c6143bf565b83516001600160801b03166124f2565b6001600160a01b0386165f90815261016e6020526040902061250b565b610d698261448c565b90610da8610d8d610d79856143bf565b60cf5460801c5b036001600160801b031690565b6001600160801b0360cf549181199060801b1691161760cf55565b610db28286615185565b610dbc83896143f2565b51948594169733978590949392606092608083019660018060a01b03168352602083015260408201520152565b0390a3005b81610e0492903d106105f2576105e48183610698565b505f80610d22565b835163185cfc6d60e11b8152fd5b610cae929550610e3d610ca89282610c9a93903d106105f2576105e48183610698565b959250508e610c89565b875163efda1a2760e01b81528590fd5b50610e606125a1565b8911610c29565b610bf39294509081610e8492903d106105f2576105e48183610698565b92908e610be6565b8651630709133160e01b81528490fd5b610ebf91985060603d606011610ec6575b610eb78183610698565b8101906135df565b965f610b7e565b503d610ead565b825163673f032f60e11b81528790fd5b80610eea610ef09261066a565b8061041f565b5f610add565b3461039d575f36600319011261039d5760206104176125a1565b3461039d575f36600319011261039d57602060405160128152f35b3461039d575f36600319011261039d576020610f456125d7565b6040516001600160a01b039091168152f35b3461039d575f36600319011261039d5760206040517f9480c4a5d7e604111fbc986cd90c895a458ca155fe13c10879b93c4592ce29fd8152f35b3461039d575f36600319011261039d576020610417612612565b6020610417610fb936610946565b91610fc5833433614645565b50336132a0565b9181601f8401121561039d578235916001600160401b03831161039d576020838186019501011161039d57565b602060031982011261039d57600435906001600160401b03821161039d5761102391600401610fcc565b9091565b61103036610ff9565b907ff0c57e16840df040f15088dc2f81fe391c3923bec73e23a9662efc9c229c6a009182549160ff8360401c1680156110d9575b6110c7576801000000000000000361108a9368ffffffffffffffffff1916178455612725565b68ff00000000000000001981541690557fc7f505b2f371ae2175ee4913f4499e1f2633a7b5936321eed1cdaeb6115181d2602060405160038152a1005b60405163f92ee8a960e01b8152600490fd5b5060036001600160401b0384161015611064565b3461039d576110fb36610a3c565b60405163057453a760e31b81529091906001600160a01b03906020816004817f000000000000000000000000000000000000000000000000000000000000000086165afa80156105f95782915f916111cb575b501633036111b95781610de961118686867f57f5eb636bf62215c111b54545422f11dfb0cb115f606be905f0be08e8859dd396613639565b604080516001600160a01b0390981688526020880198909852968601526060850195909552169233929081906080820190565b604051634ca8886760e01b8152600490fd5b6111ed915060203d6020116111f3575b6111e58183610698565b810190612647565b5f61114e565b503d6111db565b3461039d575f36600319011261039d57609c546040516001600160a01b039091168152602090f35b3461039d57602036600319011261039d5760043561123f8161038c565b60018060a01b03165f5261016e602052602060405f20604051906112628261064a565b54906001600160801b03918281169081835260801c8483015261128a575b5116604051908152f35b61129381612c4b565b611280565b6040519060a082018281106001600160401b0382111761066557604052565b6001600160401b03811161066557601f01601f191660200190565b9291926112de826112b7565b916112ec6040519384610698565b82948184528183011161039d578281602093845f960137010152565b60408060031936011261039d5760049081356113238161038c565b6024356001600160401b03811161039d573660238201121561039d5761135290369060248187013591016112d2565b9161135b613c60565b8051926113928461138460209363439fab9160e01b8584015284602484015260448301906106da565b03601f198101865285610698565b61139a613c60565b6113a2613cb9565b6001600160a01b03838116801592919087908415611558575b84156114ea575b8415611487575b505082156113f1575b50506113e2576100208383614b7d565b516355299b4960e01b81528390fd5b83516345da87c560e01b81526001600160a01b03861688820190815292935091839183918290819060200103917f0000000000000000000000000000000000000000000000000000000000000000165afa9182156105f9575f9261145a575b5050155f806113d2565b6114799250803d10611480575b6114718183610698565b810190612806565b5f80611450565b503d611467565b855163054fd4d560e41b81529294508391839182905afa9081156105f957879160ff915f916114bd575b5016141591865f6113c9565b6114dd9150843d86116114e3575b6114d58183610698565b810190614b68565b5f6114b1565b503d6114cb565b935050835163198ca60560e11b815282818981875afa9081156105f95788917f9480c4a5d7e604111fbc986cd90c895a458ca155fe13c10879b93c4592ce29fd915f9161153b575b501415936113c2565b6115529150853d87116105f2576105e48183610698565b5f611532565b5f8051602061574f833981519152549094508490611586906001600160a01b03165b6001600160a01b031690565b14936113bb565b3461039d575f36600319011261039d577f00000000000000000000000000000000000000000000000000000000000000006001600160a01b031630036115e45760206040515f8051602061574f8339815191528152f35b60405163703e46dd60e11b8152600490fd5b5f36600319011261039d576001600160a01b036116116125d7565b1633036111b957005b3461039d575f36600319011261039d57602060405160038152f35b3461039d575f36600319011261039d575f8051602061574f833981519152546040516001600160a01b039091168152602090f35b3461039d575f36600319011261039d5760206104176127eb565b3461039d57602036600319011261039d5760d180549081905f6004355b8482106116d1575050508110156116c6576105b4905b6040519081529081906020820190565b506105b45f196116b6565b909193808316906001818518811c8301809311610a37575f8790525f8051602061578f8339815191528301546001600160a01b0316841015611718575050935b91906116a0565b909591019250611711565b3461039d57602036600319011261039d576004356117408161038c565b60018060a01b03165f5260d3602052602060405f2054604051908152f35b3461039d575f36600319011261039d57604051633eb1acf760e11b81523060048201526020816024817f00000000000000000000000000000000000000000000000000000000000000006001600160a01b03165afa80156105f9576020915f916117ce575b506040519015158152f35b6117e59150823d8411611480576114718183610698565b5f6117c3565b3461039d57602036600319011261039d576004356118088161038c565b611810613cb9565b61010980546001600160a01b0319166001600160a01b03929092169182179055337f6bdc78d8c88160b3fc3638e67f2afe523b3f4c7d00c56ebb6216790e4c3eb2cb5f80a3005b3461039d57608036600319011261039d576105b461188b60043561187a8161038c565b606435906044359060243590612827565b604080519384526020840192909252908201529081906060820190565b3461039d57602036600319011261039d576004356118c58161038c565b60018060a01b03165f526003602052602060405f2054604051908152f35b3461039d575f36600319011261039d57602061ffff609c5460a01c16604051908152f35b3461039d5760031960403682011261039d5760049081356001600160401b0380821161039d5760a082850193833603011261039d5760243590811161039d576119539036908501610fcc565b6001600160a01b037f00000000000000000000000000000000000000000000000000000000000000008116803b1561039d5760405163837d444160e01b8152905f9082908183816119a68c828f01612909565b03925af180156105f957611ac4575b506119be613e8d565b6119c6612c0a565b9081163314159182611a95575b50509050611a84576044019160b06119eb8484612987565b90500480158015611a6c575b611a5c57611a0c611a066125a1565b916129dc565b11611a4d575060b0611a1e8383612987565b9050145f14611a3a5761002091611a3491612987565b906142ac565b61002091611a4791612987565b90614184565b6040516396d8043360e01b8152fd5b50604051631c6c4cf360e31b8152fd5b50611a778484612987565b905060b0820214156119f7565b604051634ca8886760e01b81528390fd5b611ab89250611ab2611abc94611aaa88613f18565b9236916112d2565b91613ff3565b1590565b805f806119d3565b80610eea611ad19261066a565b5f6119b5565b3461039d57606036600319011261039d57600435602435611afc604435828433612827565b9192611b287f000000000000000000000000000000000000000000000000000000000000000082612a12565b42108015611c7a575b8015611c72575b611c60577feb3b05c070c24f667611fdb3ff75fe007d42401c573aed8d8faca95fd00ccb5693611b93611b78611b6d866143bf565b60d05460801c6124f2565b6001600160801b0360d0549181199060801b1691161760d055565b60408051336020820190815291810184905260608082018990528152601f1993915f91611bd79190611bc6608082610698565b5190205f5260d260205260405f2090565b555f9360018311611c10575b50505050611bf182336143f2565b604080519485526020850191909152830152339180606081015b0390a2005b611c5692939450611c219088612a12565b60408051336020820190815291810193909352606083018290529094909190611bc69082608081015b03908101835282610698565b555f808080611be3565b604051630e3d8e8d60e11b8152600490fd5b508215611b38565b508115611b31565b3461039d57604036600319011261039d576020600435611cae602435611ca78161038c565b8233614d6a565b90611cb83361354b565b60405190815230905f8051602061576f833981519152843392a3604051908152f35b3461039d57602036600319011261039d57600435611cf6613e8d565b335f90815261016e60205260409020611d0e906124a1565b6001600160801b0380611d2883516001600160801b031690565b16156105b8578290611d3983612c4b565b82516001600160801b03161610611ebc57335f90815260d3602052604090205482611d7a611d6e84516001600160801b031690565b6001600160801b031690565b14611ea657611d9e9083611d98611d6e85516001600160801b031690565b91612dee565b91611dcb611dbe611dae836143bf565b84516001600160801b0316610d80565b6001600160801b03168352565b335f90815261016e60205260409020611de590839061250b565b611e2d6020611e1e60018060a01b037f000000000000000000000000000000000000000000000000000000000000000016809633614d6a565b9301516001600160801b031690565b833b1561039d5760405163074ee96960e31b81523360048201526024810184905260448101929092526001600160801b03166064820152915f908390608490829084905af19182156105f9576105b492611e93575b506040519081529081906020820190565b80610eea611ea09261066a565b5f611e82565b335f90815261016e602052604081205591611de5565b604051636edcc52360e01b8152600490fd5b3461039d575f36600319011261039d576040515f60018054611eef816105fe565b80855291602091600181169081156107af5750600114611f19576105b48561075f81870382610698565b60015f90815293507fb10e2d527612073b26eecdfd717e6a320cf44b4afac2b0732d9fcbe2b7fa0cf65b838510611f5f5750505050810160200161075f826105b461074f565b8054868601840152938201938101611f43565b3461039d57611c0b7f2013570c343af8ab14a9778150e381a0fda34ed6368127a95fd5e7210cbec5bf611fa436610ff9565b9290611fae613cb9565b60405191829160208352339560208401916128e9565b3461039d57604036600319011261039d57611fee600435611fe48161038c565b602435903361481c565b611ff73361354b565b602060405160018152f35b6020808201906020835283518092526040830192602060408460051b8301019501935f915b8483106120375750505050505090565b9091929394958480612055600193603f198682030187528a516106da565b9801930193019194939290612027565b3461039d57602036600319011261039d576001600160401b0360043581811161039d573660238201121561039d57806004013591821161039d573660248360051b8301011161039d576105b49160246120be9201612b5d565b60405191829182612002565b3461039d575f36600319011261039d576105b46040516120e98161064a565b60058152640352e302e360dc1b60208201526040519182916020835260208301906106da565b3461039d575f36600319011261039d576020610f45612c0a565b3461039d57602036600319011261039d57602061041760043561448c565b60ff81160361039d57565b3461039d5760e036600319011261039d5760043561216f8161038c565b60243561217b8161038c565b60443590606435926084359061219082612147565b6001600160a01b0383811695909290861561088757428110612355576020915f91611c4a61228389878a6122466121c5612612565b6001600160a01b0384165f9081526003602052604090209097908054906001820190556040519586948d8601968791959493909260a09360c08401977f6e71edae12b1b97f4d1f60370fef10105fa2faae0126114a169c64845d6126c98552600180871b038092166020860152166040840152606083015260808201520152565b039161225a601f1993848101835282610698565b5190206040519384918983019687909160429261190160f01b8352600283015260228201520190565b5190206040805191825260ff92909216602082015260a4359181019190915260c435606082015281805260809060015afa156105f9575f51928284168015908115612348575b5061233657612323859161230e7f8c5be1e5ebec7d5bd14f71427d1e84f3dd0314c0f7b2291e5b200ac8c7c3b9259660018060a01b03165f52600260205260405f2090565b9060018060a01b03165f5260205260405f2090565b5560405193845216918060208101610de9565b6040516323389ba560e21b8152600490fd5b905083831614155f6122c9565b604051631ab7da6b60e01b8152600490fd5b3461039d575f36600319011261039d5760206001600160801b0360d05416604051908152f35b604090600319011261039d576004356123a58161038c565b906024356107108161038c565b3461039d5760206123ed6123c53661238d565b6001600160a01b039182165f9081526002855260408082209290931681526020919091522090565b54604051908152f35b3461039d57602036600319011261039d576100206004356124168161038c565b61241e613cb9565b61451b565b3461039d575f36600319011261039d5760206001600160801b0360d55416604051908152f35b3461039d575f36600319011261039d576037546040516001600160a01b039091168152602090f35b602061041761247f3661238d565b903490614645565b9081602091031261039d575190565b6040513d5f823e3d90fd5b906040516124ae8161064a565b91546001600160801b038116835260801c6020830152565b634e487b7160e01b5f52601160045260245ffd5b6001600160801b039081165f190191908211610a3757565b6001600160801b039182169082160391908211610a3757565b815160209092015160801b6001600160801b0319166001600160801b0392909216919091179055565b60cf546001600160801b038116908161254c57505090565b916107109260801c90612dee565b61256661256d91612f54565b91906130ea565b61257357565b61257b614f85565b80612584575b50565b5f906040519081525f8051602061576f83398151915260203092a3565b4760d0546001600160801b036125b8818316612534565b9060d55416019060801c01908181115f146125d1570390565b50505f90565b6101a1546001600160a01b031680156125ed5790565b507f000000000000000000000000000000000000000000000000000000000000000090565b467f00000000000000000000000000000000000000000000000000000000000000000361263f5760045490565b610710613952565b9081602091031261039d57516107108161038c565b359061ffff8216820361039d57565b9080601f8301121561039d57816020610710933591016112d2565b9060208282031261039d5781356001600160401b039283821161039d57019060a08282031261039d576126b7611298565b92823584526126c86020840161265c565b6020850152604083013581811161039d57826126e591850161266b565b6040850152606083013581811161039d578261270291850161266b565b6060850152608083013590811161039d5761271d920161266b565b608082015290565b6037549091906001600160a01b03166127e1576040519063e7f6f22560e01b82526020928383600481335afa9283156105f9575f936127c2575b50604051636f4fa30f60e01b8152908482600481335afa9182156105f95761279d955f9361279f575b50506127979192810190612686565b91613ba0565b565b612797935090816127bb92903d106111f3576111e58183610698565b915f612788565b6127da919350843d86116111f3576111e58183610698565b915f61275f565b505061279d613a78565b60d4548061071057505f1990565b5190811515820361039d57565b9081602091031261039d57610710906127f9565b91908203918211610a3757565b604080516001600160a01b0390921660208301908152908201939093526060810182905290919061286581608081015b03601f198101835282610698565b5190205f5260d260205260405f205491821561289557612886918391613cf2565b9091828103908111610a375792565b5050505f905f905f90565b9035601e198236030181121561039d5701602081359101916001600160401b03821161039d57813603831361039d57565b90603060609281835260208301375f60508201520190565b908060209392818452848401375f828201840152601f01601f1916010190565b9060a06107109260208152823560208201526020830135604082015261294561293560408501856128a0565b84606085015260c08401916128e9565b9061297861296d61295960608701876128a0565b601f198587038101608087015295916128e9565b9460808101906128a0565b939092828603019101526128e9565b903590601e198136030182121561039d57018035906001600160401b03821161039d5760200191813603831361039d57565b634e487b7160e01b5f52601260045260245ffd5b81156129d7570490565b6129b9565b906801bc16d674ec8000009180830292830403610a3757565b90670de0b6b3a764000091828102928184041490151715610a3757565b91908201809211610a3757565b6001600160401b0381116106655760051b60200190565b90612a4082612a1f565b612a4d6040519182610698565b8281528092612a5e601f1991612a1f565b01905f5b828110612a6e57505050565b806060602080938501015201612a62565b634e487b7160e01b5f52603260045260245ffd5b90821015612aaa576110239160051b810190612987565b612a7f565b908092918237015f815290565b3d15612ae6573d90612acd826112b7565b91612adb6040519384610698565b82523d5f602084013e565b606090565b60208183031261039d578051906001600160401b03821161039d570181601f8201121561039d578051612b1d816112b7565b92612b2b6040519485610698565b8184526020828401011161039d5761071091602080850191016106b9565b8051821015612aaa5760209160051b010190565b919091612b6983612a36565b925f5b818110612b7857505050565b5f80612b85838587612a93565b60409391612b97855180938193612aaf565b0390305af490612ba5612abc565b9115612bcc575090600191612bba8288612b49565b52612bc58187612b49565b5001612b6c565b90604481511061039d57612c06612bf160049283810151602480918301019101612aeb565b925162461bcd60e51b815292839283016106ff565b0390fd5b610109546001600160a01b03168061071057507f000000000000000000000000000000000000000000000000000000000000000090565b612581343361457d565b60405163752a536d60e01b81526020816004817f00000000000000000000000000000000000000000000000000000000000000006001600160a01b03165afa9081156105f9575f91612ce1575b5060208201916001600160801b03918284511691828214612cda5783612ccd612cc8612cd5958584865116612dee565b6143bf565b1690526143bf565b169052565b5050505050565b612cfa915060203d6020116105f2576105e48183610698565b5f612c98565b90808202905f1981840990828083109203918083039214612d6f576127109082821115612d5d577fbc01a36e2eb1c432ca57a786c226809d495182a9930be0ded288ce703afb7e91940990828211900360fc1b910360041c170290565b60405163227bc15360e01b8152600490fd5b505061271091500490565b90808202905f1981840990828083109203918083039214612ddd57670de0b6b3a76400009082821115612d5d577faccb18165bd6fe31ae1cf318dc5b51eee0e1ba569b88cd74c1773b91fac10669940990828211900360ee1b910360121c170290565b5050670de0b6b3a764000091500490565b9091828202915f1984820993838086109503948086039514612e615784831115612d5d57829109815f038216809204600280826003021880830282030280830282030280830282030280830282030280830282030280920290030293600183805f03040190848311900302920304170290565b50509061071092506129cd565b9081606091031261039d578051916107106040602084015193016127f9565b81835290916001600160fb1b03831161039d5760209260051b809284830137010190565b90602082528035602083015260208101358060130b80910361039d5760408301526040810135612ee08161038c565b6001600160a01b031660608381019190915281013536829003601e190181121561039d5701602081359101906001600160401b03811161039d578060051b3603821361039d5760a0836080806107109601520191612e8d565b9190915f8382019384129112908015821691151617610a3757565b6040516325f56f1160e01b81526001600160a01b03929160609082908190612f7f9060048301612eb1565b03815f877f0000000000000000000000000000000000000000000000000000000000000000165af19283156105f9575f915f905f956130a5575b5084156130525781612fc96125d7565b16917f000000000000000000000000000000000000000000000000000000000000000016821461304b57509060205f92600460405180958193634641257d60e01b83525af19081156105f957613026925f9261302a575b50612f39565b9190565b61304491925060203d6020116105f2576105e48183610698565b905f613020565b9081613058575b50509190565b803b1561039d57604051636ee3193160e11b815260048101929092525f908290602490829084905af180156105f957613092575b80613052565b80610eea61309f9261066a565b5f61308c565b919450506130cb915060603d6060116130d3575b6130c38183610698565b810190612e6e565b93905f612fb9565b503d6130b9565b600160ff1b8114610a37575f0390565b8015612581576130ff611d6e60cf5460801c90565b5f82126131d6578161311091612a12565b9061311d610d8d836143bf565b613132609c549161ffff8360a01c1690612d00565b80156131d157807f555ee6b2ef9506d870f386c067e47d3689435330b012ad263d8cc3531868654793613170611d6e60cf546001600160801b031690565b806131bb5750506131b690925b6001600160a01b0316916131918484614f1d565b60405193849384604091949392606082019560018060a01b0316825260208201520152565b0390a1565b6131b6926131cb92039084612dee565b9261317d565b505050565b906131e0906130da565b6131f5611d6e60d5546001600160801b031690565b80613215575b5080613205575050565b612cc8610d8d9161279d9361281a565b9061327c7f3623a54e8078be0d90ecfbef82da6a31ff3e6be8aa1718e7a7f3d0d33ff1d32a916116b661326061325561324e8888612a12565b8785612dee565b8080940396036143bf565b6001600160801b03166001600160801b031960d554161760d555565b0390a15f6131fb565b9190916001600160801b0380809416911601918211610a3757565b93929190916132ad6146f1565b6132b5613e8d565b6001600160a01b0385165f90815261016e602052604090206132d6906124a1565b946001600160801b036132f087516001600160801b031690565b16156134bc576132ff86612c4b565b6001600160a01b0381165f90815260d3602052604090206133289061332390610c18565b614712565b955f19841461348c575b6040516329460cc560e11b81526001600160a01b0386811660048301526024820186905290949093906020866044815f7f00000000000000000000000000000000000000000000000000000000000000008a165af19586156105f9575f9661346b575b5085986133c46133b76133a7846143bf565b86516001600160801b0316613285565b6001600160801b03168552565b6133d8611d6e85516001600160801b031690565b11613459577fa16d97739893e1436c9753925fb5cef174c4f368699dc86cc8fdb0e6e60f8e5895613421613454946105618760018060a01b03165f5261016e60205260405f2090565b604080516001600160a01b03998a1681526020810192909252810191909152951660608601529116929081906080820190565b0390a2565b604051633684c65960e01b8152600490fd5b61348591965060203d6020116105f2576105e48183610698565b945f613395565b92506134a2611d6e84516001600160801b031690565b808711156134b257860392613332565b505f955050505050565b60405163752a536d60e01b81526020816004817f00000000000000000000000000000000000000000000000000000000000000006001600160a01b03165afa9081156105f95761352791613517915f9161352c575b506143bf565b6001600160801b03166020880152565b6132ff565b613545915060203d6020116105f2576105e48183610698565b5f613511565b60018060a01b0381165f5261016e60205260405f20906040519161356e8361064a565b54906001600160801b03918281169081855260801c6020850152156131d157613323610c186135c19261359f613e8d565b6135a886612c4b565b6001600160a01b03165f90815260d36020526040902090565b9151161161345957565b51906001600160401b038216820361039d57565b9081606091031261039d5760405190606082018281106001600160401b0382111761066557613631916040918252805161361881610449565b8452613626602082016135cb565b6020850152016135cb565b604082015290565b92906001600160a01b03908181161561088757613654613e8d565b817f00000000000000000000000000000000000000000000000000000000000000001690813b1561039d57604094855193631d8557d760e01b85526004945f81878183895af180156105f95761393f575b506001600160a01b0388165f90815261016e602052604090206136c7906124a1565b906001600160801b036136e183516001600160801b031690565b161561392f576136f082612c4b565b875163e48a5f7b60e01b81523087820190815290916060918391908290819060200103917f0000000000000000000000000000000000000000000000000000000000000000165afa80156105f957613910575b508651936303d1689d60e11b9788865260209182878061376a888c83019190602083019252565b0381845afa9687156105f9575f976138f1575b50869961379d610c188d60018060a01b03165f5260d360205260405f2090565b881180156138e1575b6138d15790836137e3926137c187516001600160801b031690565b908551948592839283528d83019190916001600160801b036020820193169052565b0381845afa9889156105f9575f859488946138289c6138b4575b5051633b9e9f0160e21b815233928101928352602083019490945292998a9384929091839160400190565b03925af19586156105f957610d3361386f94613852936105409361279d9a613896575b50506143bf565b6001600160a01b0388165f90815261016e6020526040902061250b565b61389161387b8361448c565b809761388c610d8d610d79876143bf565b615185565b6143f2565b816138ac92903d106105f2576105e48183610698565b505f8061384b565b6138ca90873d89116105f2576105e48183610698565b505f6137fd565b825163efda1a2760e01b81528990fd5b506138ea6125a1565b88116137a6565b613909919750833d85116105f2576105e48183610698565b955f61377d565b6139289060603d606011610ec657610eb78183610698565b505f613743565b875163673f032f60e11b81528690fd5b80610eea61394c9261066a565b5f6136a5565b6040515f905f5490613963826105fe565b9283825260209384830193600190866001821691825f14613a58575050600114613a15575b5050918161399e613a0f93612857950382610698565b519020604080517f8b73c3c69bb8fe3d512ecc4cf759cc79239f7b179b0ffacaa9a75d522b39400f95810195865260208601929092527fc89efdaa54c0f20c7adf612882df0950f5a951637e0307cdcb4c672f298b8bc69085015246606085015230608085015291829060a0850190565b51902090565b5f80805286935091905f8051602061570f8339815191525b828410613a43575050508201018161399e613988565b80548685018601528794909301928101613a2d565b60ff1916875292151560051b8501909201925083915061399e9050613988565b613a806148ba565b613a95611d6e60d0546001600160801b031690565b60018111613b8e57600114613b09575b60d654613ab0615385565b90808210613acc575b5050613ac45f60d655565b61279d614898565b5f8051602061572f83398151915291613aff9103613ae9816152b0565b604080519182525f602083015290918291820190565b0390a15f80613ab9565b613b42613b26613b2160cf546001600160801b031690565b6124da565b6001600160801b03166001600160801b031960cf54161760cf55565b613b576001600160801b031960d0541660d055565b613b5f61524e565b5f8051602061572f83398151915260405180613b8681905f60206040840193600181520152565b0390a1613aa5565b604051630299325160e41b8152600490fd5b9190613baa6148ba565b608082015190613bb86148ba565b6001600160a01b038416801561088757613c5894613c4893613c31926001600160601b0360a01b60375416176037557f2013570c343af8ab14a9778150e381a0fda34ed6368127a95fd5e7210cbec5bf6040516020815280613c1f339460208301906106da565b0390a2602085015161ffff16906148fb565b613c3b835161494c565b613c4361497c565b6149a9565b60606040820151910151906149d8565b61279d614b05565b6001600160a01b037f00000000000000000000000000000000000000000000000000000000000000008116308114918215613c9e575b50506115e457565b5f8051602061574f8339815191525416141590505f80613c96565b6037546001600160a01b031633036111b957565b90604051613cda8161064a565b91546001600160a01b038116835260a01c6020830152565b60d1545f948594939091808410801590613e85575b613e785783613e42575f5b60d15f526001600160a01b0316613d375f8051602061578f8339815191528601613ccd565b8051909790613d4e906001600160a01b031661157a565b98613d73613d676020809b01516001600160601b031690565b6001600160601b031690565b948381108015613e38575b613e265791600193979a95613d9d613da9939488035b838c0390614c28565b80920198870391612dee565b01970193808611801590613e1c575b613e115760d15f528290613dda5f8051602061578f8339815191528701613ccd565b805190890151969992966001600160a01b039091169460019392613da99290916001600160601b0390911690613d9d908803613d94565b945050509250509190565b5081851015613db8565b60405163e8722f8f60e01b8152600490fd5b50808b1115613d7e565b60d15f527f695fb3134ad82c3b8022bc5464edd0bcc9424ef672b52245dcb6ab2374327ce28401546001600160a01b0316613d12565b505093505050505f905f90565b508415613d07565b604051633eb1acf760e11b81523060048201526020816024817f00000000000000000000000000000000000000000000000000000000000000006001600160a01b03165afa9081156105f9575f91613ef9575b50613ee757565b60405163e775715160e01b8152600490fd5b613f12915060203d602011611480576114718183610698565b5f613ee0565b604290467f000000000000000000000000000000000000000000000000000000000000000003613fc75761010a54905b613f5f613f586040830183612987565b36916112d2565b602081519101206040519060208201927f838af86bfca91ada6557e38d913af1c2f24ef9b2567b3b77cc9e1144314b35b08452356040830152606082015260608152613faa8161067d565b5190206040519161190160f01b8352600283015260228201522090565b613fcf614c3a565b90613f48565b60041115613fdf57565b634e487b7160e01b5f52602160045260245ffd5b613ffd8383614d07565b5061400a81959295613fd5565b1593846140a6575b508315614020575b50505090565b5f929350908291604051614058816128576020820194630b135d3f60e11b998a875260248401526040604484015260648301906106da565b51915afa90614065612abc565b82614098575b8261407b575b50505f808061401a565b61409091925060208082518301019101612487565b145f80614071565b91506020825110159161406b565b6001600160a01b0383811691161493505f614012565b9060301161039d5790603090565b9060901161039d5760300190606090565b9060b01161039d5760900190602090565b9093929384831161039d57841161039d578101920390565b359060208110614112575090565b5f199060200360031b1b1690565b9695949061415d9361414161414f926060979560808c5260808c01916128e9565b9089820360208b01526106da565b9187830360408901526128e9565b930152565b9060206107109281815201906128d1565b9160206107109381815201916128e9565b60b091828104915f9081614196614d41565b957f00000000000000000000000000000000000000000000000000000000000000006001600160a01b0316935f92905b8784106141d857505050505050505050565b826141e79101809288876140ec565b906141f282826140bc565b9161421161420b61420386846140ca565b9690936140db565b90614104565b90893b1561039d575f908d61423e604094855198899485946304512a2360e31b86528a8a60048801614120565b03816801bc16d674ec8000008d5af19081156105f9577f64b6e61d93b7a91e8cc4376183ede0997a27b44fd9dd2f30a866b2a5730efdb19461428a92614299575b505192839283614173565b0390a1600181930192906141c6565b80610eea6142a69261066a565b5f61427f565b8160301161039d5761420b917f00000000000000000000000000000000000000000000000000000000000000006001600160a01b03166142ea614d41565b906143016142f884866140ca565b969094866140db565b94813b1561039d576801bc16d674ec8000005f9461436797604051988996879586946304512a2360e31b8652608060048701526143586143458d60848901906128d1565b60031994858983030160248a01526106da565b928684030160448701526128e9565b90606483015203925af19081156105f9577f64b6e61d93b7a91e8cc4376183ede0997a27b44fd9dd2f30a866b2a5730efdb1926131b6926143b0575b5060405191829182614162565b6143b99061066a565b5f6143a3565b6001600160801b03908181116143d3571690565b604490604051906306dfcc6560e41b8252608060048301526024820152fd5b907f9b779b17422d0df92223018b32b4d1fa46e071723d6817e2486d003becc55f0091600283541461447a5760028355814710614462575f918291829182916001600160a01b03165af1614444612abc565b50156144505760019055565b604051630a12f52160e11b8152600490fd5b60405163cd78605960e01b8152306004820152602490fd5b604051633ee5aeb560e01b8152600490fd5b60cf54906001600160801b038216811580156144bb575b156144ae5750905090565b6107109260801c91612dee565b5080156144a3565b60cf546001600160801b0381169082158015614513575b156144e457505090565b60801c906144f3828285612dee565b9282156129d757096145025790565b6001810180911115610710576124c6565b5081156144da565b614523613e8d565b6001600160a01b0316801561456b57609c80546001600160a01b03191682179055337faaebcf1bfa00580e41d966056b48521fa9f202645c86d4ddf28113e617c1b1d35f80a3565b604051630ed1b8b360e31b8152600490fd5b9190614587613e8d565b6001600160a01b03831690811561088757801561463357806145ae611d6e60cf5460801c90565b01936145b86127eb565b851161462157610d8d946145df916145da6145d2856144c3565b9788936143bf565b614f1d565b60408051918252602082018590525f9082015233907f861a4138e41fb21c121a7dbb1053df465c837fc77380cc7226189a662281be2c9080606081015b0390a3565b6040516304ffa0ff60e51b8152600490fd5b6040516318374fd160e21b8152600490fd5b90929192614651613e8d565b6001600160a01b0382169182156108875781156146335781614678611d6e60cf5460801c90565b016146816127eb565b811161462157610d8d956146c861461c927f861a4138e41fb21c121a7dbb1053df465c837fc77380cc7226189a662281be2c946145da6146c0886144c3565b9a8b936143bf565b60408051948552602085018890526001600160a01b039091169084015233929081906060820190565b6146f9615116565b1561470057565b604051630a62fbdb60e11b8152600490fd5b60405163e48a5f7b60e01b81523060048201526001600160a01b036060826024817f000000000000000000000000000000000000000000000000000000000000000085165afa80156105f9576147ad936001600160401b03610bf3604061478c946020975f916147fd575b5001516001600160401b031690565b9060405180809581946363737ac960e11b8352600483019190602083019252565b03917f0000000000000000000000000000000000000000000000000000000000000000165afa9081156105f9575f916147e4575090565b610710915060203d6020116105f2576105e48183610698565b614816915060603d606011610ec657610eb78183610698565b5f61477d565b6001600160a01b0390811691908215801561488e575b61088757825f5260d360205260405f2090815492858403938411610a37575f8051602061576f833981519152936020935561487d8160018060a01b03165f5260d360205260405f2090565b8681540190556040519586521693a3565b5080821615614832565b6148a06148ba565b6148a8614c3a565b61010a805482036148b7575050565b55565b60ff7ff0c57e16840df040f15088dc2f81fe391c3923bec73e23a9662efc9c229c6a005460401c16156148e957565b604051631afcd79f60e31b8152600490fd5b6149036148ba565b61271061ffff83161161493a576149199061451b565b609c805461ffff60a01b191660a09290921b61ffff60a01b16919091179055565b604051638a81d3b360e01b8152600490fd5b6149546148ba565b801561496a57600181016149655750565b60d455565b6040516331278a8760e01b8152600490fd5b6149846148ba565b6801bc16d674ec8000006149966127eb565b1061496a576149a3614c3a565b61010a55565b6149b16148ba565b6001600160a01b0316806149c25750565b6101a180546001600160a01b0319169091179055565b6149e06148ba565b601e8151118015614afa575b614ae8576149f86148ba565b8051906001600160401b03821161066557614a1c82614a175f546105fe565b6153c7565b602090816001601f851114614a7457509180614a5292614a5995945f92614a69575b50508160011b915f199060031b1c19161790565b5f55615491565b61279d614a64613952565b600455565b015190505f80614a3e565b5f80529190601f1984165f8051602061570f833981519152935f905b828210614ad0575050916001939185614a5997969410614ab8575b505050811b015f55615491565b01515f1960f88460031b161c191690555f8080614aab565b80600186978294978701518155019601940190614a90565b604051632d3f993760e21b8152600490fd5b50600a8251116149ec565b614b0d6148ba565b614b156148ba565b614b1d6148ba565b60017f9b779b17422d0df92223018b32b4d1fa46e071723d6817e2486d003becc55f0055633b9aca003410614b5657612581343061457d565b60405163ea2559bb60e01b8152600490fd5b9081602091031261039d575161071081612147565b6040516352d1902d60e01b81529290916020846004816001600160a01b0387165afa5f9481614c07575b50614bcd57604051634c9c8ce360e01b81526001600160a01b0384166004820152602490fd5b90915f8051602061574f8339815191528403614bee5761279d92935061556f565b604051632a87526960e21b815260048101859052602490fd5b614c2191955060203d6020116105f2576105e48183610698565b935f614ba7565b9080821015614c35575090565b905090565b6e5661756c7456616c696461746f727360881b6020604051614c5b8161064a565b600f8152015260405160208101907f8b73c3c69bb8fe3d512ecc4cf759cc79239f7b179b0ffacaa9a75d522b39400f82527f35d6cf9768d8be929c3a11ed667b1560ae6f1920195a985758fdd7265505d1ca60408201527fc89efdaa54c0f20c7adf612882df0950f5a951637e0307cdcb4c672f298b8bc660608201524660808201523060a082015260a0815260c081018181106001600160401b038211176106655760405251902090565b8151919060418303614d3757614d309250602082015190606060408401519301515f1a90615611565b9192909190565b50505f9160029190565b604051600160f81b60208201525f60218201523060601b602c820152602081526107108161064a565b9291908015611ebc576001600160a01b0382811692831561088757614d90611ab8615116565b614e995790611bc695614e7d614e61857f211091c5bf013c1230f996c3bb2bc327e3de429a3d3c356dcea9a0c858bc407f9581614e36614ddb611d6e60d0546001600160801b031690565b92612857614e0885614e03614dee615385565b614dfd611d6e60d55460801c90565b90612a12565b612a12565b9e8f6040519283916020830195429087604091949392606082019560018060a01b0316825260208201520152565b556001600160a01b0385165f90815260d360205260409020614e5983825461281a565b9055016143bf565b6001600160801b03166001600160801b031960d054161760d055565b604080518881526020810195909552911692908190810161461c565b929394614ea583612534565b938415614633577f5cdf07ad0fc222442720b108e3ed4c4640f0fadc2ab2253e66f259a0fea8348093614efa86614f1593614ef0610d8d614ee5846143bf565b60cf5460801c6124f2565b6138918487615185565b60405193849316958360209093929193604081019481520152565b0390a35f1990565b5f8051602061576f83398151915260205f92614f38856143bf565b60cf5490614f506001600160801b0391828416613285565b6001600160801b031990921691161760cf556001600160a01b031680845260d3825260408085208054870190555194855293a3565b614f9e47614f98611d6e60d05460801c90565b9061281a565b9081156151115760d5546001600160801b0381169081615099575b5050614fd0611d6e60d0546001600160801b031690565b9182158015615091575b61508b57614ff190614feb84612534565b90614c28565b801561508b576150008161448c565b92831561508457614ee561279d92615021614e61612cc888610d8d9661281a565b61503b611b78615030836143bf565b60d05460801c613285565b61504581876152fb565b60408051878152602081018390525f8051602061572f8339815191529190a1612cc8613b26615073886143bf565b60cf546001600160801b03166124f2565b505f925050565b505f9150565b508015614fda565b818492941061508457615030846150e1935f8051602061572f83398151915282611b789560801c6150ca82826152fb565b604080519182526020820192909252a103946143bf565b6150f56001600160801b0360d5541660d555565b61510a6001600160801b031960d5541660d555565b5f80614fb9565b5f9150565b604051630156a69560e11b81523060048201526020816024817f00000000000000000000000000000000000000000000000000000000000000006001600160a01b03165afa9081156105f9575f9161516c575090565b610710915060203d602011611480576114718183610698565b6001600160a01b03165f81815260d360205260409020805483810391908211610a37575f935f8051602061576f83398151915292602092556151c6816143bf565b60cf54906001600160801b03908183160316906001600160801b0319161760cf55604051908152a3565b60d154906801000000000000000082101561066557600182018060d155821015612aaa5760d15f52805160209091015160a01b6001600160a01b0319166001600160a01b0391909116175f8051602061578f83398151915290910155565b615256615385565b60018101809111610a37576001600160a01b03808211615290579061279d91604051916152828361064a565b1681525f60208201526151f0565b6040516306dfcc6560e41b815260a0600482015260248101839052604490fd5b80156152e9576152be615385565b908101809111610a37576001600160a01b03808211615290579061279d91604051916152828361064a565b604051632ec8835b60e21b8152600490fd5b91909180156152e95761530c615385565b908101809111610a37576001600160a01b03808211615290576001600160601b0390818511615365579061279d9394615360926040519461534c8661064a565b168452166001600160601b03166020830152565b6151f0565b6040516306dfcc6560e41b81526060600482015260248101869052604490fd5b60d1548061539257505f90565b60d15f527f695fb3134ad82c3b8022bc5464edd0bcc9424ef672b52245dcb6ab2374327ce201546001600160a01b031661157a565b601f81116153d3575050565b5f80525f8051602061570f833981519152906020601f840160051c83019310615416575b601f0160051c01905b81811061540b575050565b5f8155600101615400565b90915081906153f7565b90601f821161542d575050565b60019160015f527fb10e2d527612073b26eecdfd717e6a320cf44b4afac2b0732d9fcbe2b7fa0cf6906020601f840160051c83019310615487575b601f0160051c01905b81811061547d57505050565b5f81558201615471565b9091508190615468565b9081516001600160401b038111610665576001906154b8816154b384546105fe565b615420565b602080601f83116001146154ed575081906154e99394955f92614a695750508160011b915f199060031b1c19161790565b9055565b90601f1983169561551f60015f527fb10e2d527612073b26eecdfd717e6a320cf44b4afac2b0732d9fcbe2b7fa0cf690565b925f905b8882106155585750508385969710615540575b505050811b019055565b01515f1960f88460031b161c191690555f8080615536565b808785968294968601518155019501930190615523565b90813b156155f0575f8051602061574f83398151915280546001600160a01b0319166001600160a01b0384169081179091557fbc7cd75a20ee27fd9adebab32041f755214dbc6bffa90cc0225b39da2e5c2d3b5f80a28051156155d557612581916156a5565b5050346155de57565b60405163b398979f60e01b8152600490fd5b604051634c9c8ce360e01b81526001600160a01b0383166004820152602490fd5b90917f7fffffffffffffffffffffffffffffff5d576e7357a4501ddfe92f46681b20a0841161569a579061566a6020945f9493604051948594859094939260ff6060936080840197845216602083015260408201520152565b838052039060015afa156105f9575f516001600160a01b0381161561569057905f905f90565b505f906001905f90565b5050505f9160039190565b5f8061071093602081519101845af46156bc612abc565b91906156d2575080511561445057805190602001fd5b81511580615705575b6156e3575090565b604051639996b31560e01b81526001600160a01b039091166004820152602490fd5b50803b156156db56fe290decd9548b62a8d60345a988386fc84ba6bc95484008f6362f93160ef3e563624ea167e477f9d39f7f4094b9dfe2e6346eb4a7aada54338db51abd554c4b9f360894a13ba1a3210667c828492db98dca3e2076cc3735a920a3ca505d382bbcddf252ad1be2c89b69c2b068fc378daa952ba7f163c4a11628f55a4df523b3ef695fb3134ad82c3b8022bc5464edd0bcc9424ef672b52245dcb6ab2374327ce3a2646970667358221220f7de8f37e59c06617071431d53b35ed8f081bb59d4820f5cd0ae3e7f09be091864736f6c63430008160033",
  "linkReferences": {},
  "deployedLinkReferences": {}
}