{
  "_format": "hh-sol-artifact-1",
  "contractName": "EthErc20Vault",
  "sourceName": "contracts/vaults/ethereum/EthErc20Vault.sol",
  "abi": [
    {
      "inputs": [
        {
          "internalType": "address",
          "name": "_keeper",
          "type": "address"
        },
        {
          "internalType": "address",
          "name": "_vaultsRegistry",
          "type": "address"
        },
        {
          "internalType": "address",
          "name": "_validatorsRegistry",
          "type": "address"
        },
        {
          "internalType": "address",
          "name": "osTokenVaultController",
          "type": "address"
        },
        {
          "internalType": "address",
          "name": "osTokenConfig",
          "type": "address"
        },
        {
          "internalType": "address",
          "name": "sharedMevEscrow",
          "type": "address"
        },
        {
          "internalType": "uint256",
          "name": "exitingAssetsClaimDelay",
          "type": "uint256"
        }
      ],
      "stateMutability": "nonpayable",
      "type": "constructor"
    },
    {
      "inputs": [],
      "name": "AccessDenied",
      "type": "error"
    },
    {
      "inputs": [
        {
          "internalType": "address",
          "name": "target",
          "type": "address"
        }
      ],
      "name": "AddressEmptyCode",
      "type": "error"
    },
    {
      "inputs": [
        {
          "internalType": "address",
          "name": "account",
          "type": "address"
        }
      ],
      "name": "AddressInsufficientBalance",
      "type": "error"
    },
    {
      "inputs": [],
      "name": "CapacityExceeded",
      "type": "error"
    },
    {
      "inputs": [],
      "name": "ClaimTooEarly",
      "type": "error"
    },
    {
      "inputs": [],
      "name": "Collateralized",
      "type": "error"
    },
    {
      "inputs": [],
      "name": "DeadlineExpired",
      "type": "error"
    },
    {
      "inputs": [
        {
          "internalType": "address",
          "name": "implementation",
          "type": "address"
        }
      ],
      "name": "ERC1967InvalidImplementation",
      "type": "error"
    },
    {
      "inputs": [],
      "name": "ERC1967NonPayable",
      "type": "error"
    },
    {
      "inputs": [],
      "name": "FailedInnerCall",
      "type": "error"
    },
    {
      "inputs": [],
      "name": "InsufficientAssets",
      "type": "error"
    },
    {
      "inputs": [],
      "name": "InvalidAssets",
      "type": "error"
    },
    {
      "inputs": [],
      "name": "InvalidCapacity",
      "type": "error"
    },
    {
      "inputs": [],
      "name": "InvalidCheckpointIndex",
      "type": "error"
    },
    {
      "inputs": [],
      "name": "InvalidCheckpointValue",
      "type": "error"
    },
    {
      "inputs": [],
      "name": "InvalidFeePercent",
      "type": "error"
    },
    {
      "inputs": [],
      "name": "InvalidFeeRecipient",
      "type": "error"
    },
    {
      "inputs": [],
      "name": "InvalidHealthFactor",
      "type": "error"
    },
    {
      "inputs": [],
      "name": "InvalidInitialization",
      "type": "error"
    },
    {
      "inputs": [],
      "name": "InvalidLtv",
      "type": "error"
    },
    {
      "inputs": [],
      "name": "InvalidPosition",
      "type": "error"
    },
    {
      "inputs": [],
      "name": "InvalidProof",
      "type": "error"
    },
    {
      "inputs": [],
      "name": "InvalidReceivedAssets",
      "type": "error"
    },
    {
      "inputs": [],
      "name": "InvalidSecurityDeposit",
      "type": "error"
    },
    {
      "inputs": [],
      "name": "InvalidShares",
      "type": "error"
    },
    {
      "inputs": [],
      "name": "InvalidTokenMeta",
      "type": "error"
    },
    {
      "inputs": [],
      "name": "InvalidValidator",
      "type": "error"
    },
    {
      "inputs": [],
      "name": "InvalidValidators",
      "type": "error"
    },
    {
      "inputs": [],
      "name": "LowLtv",
      "type": "error"
    },
    {
      "inputs": [],
      "name": "MathOverflowedMulDiv",
      "type": "error"
    },
    {
      "inputs": [],
      "name": "MerkleProofInvalidMultiproof",
      "type": "error"
    },
    {
      "inputs": [],
      "name": "NotCollateralized",
      "type": "error"
    },
    {
      "inputs": [],
      "name": "NotHarvested",
      "type": "error"
    },
    {
      "inputs": [],
      "name": "NotInitializing",
      "type": "error"
    },
    {
      "inputs": [],
      "name": "PermitInvalidSigner",
      "type": "error"
    },
    {
      "inputs": [],
      "name": "RedemptionExceeded",
      "type": "error"
    },
    {
      "inputs": [],
      "name": "ReentrancyGuardReentrantCall",
      "type": "error"
    },
    {
      "inputs": [
        {
          "internalType": "uint8",
          "name": "bits",
          "type": "uint8"
        },
        {
          "internalType": "uint256",
          "name": "value",
          "type": "uint256"
        }
      ],
      "name": "SafeCastOverflowedUintDowncast",
      "type": "error"
    },
    {
      "inputs": [],
      "name": "UUPSUnauthorizedCallContext",
      "type": "error"
    },
    {
      "inputs": [
        {
          "internalType": "bytes32",
          "name": "slot",
          "type": "bytes32"
        }
      ],
      "name": "UUPSUnsupportedProxiableUUID",
      "type": "error"
    },
    {
      "inputs": [],
      "name": "UpgradeFailed",
      "type": "error"
    },
    {
      "inputs": [],
      "name": "ZeroAddress",
      "type": "error"
    },
    {
      "anonymous": false,
      "inputs": [
        {
          "indexed": true,
          "internalType": "address",
          "name": "owner",
          "type": "address"
        },
        {
          "indexed": true,
          "internalType": "address",
          "name": "spender",
          "type": "address"
        },
        {
          "indexed": false,
          "internalType": "uint256",
          "name": "value",
          "type": "uint256"
        }
      ],
      "name": "Approval",
      "type": "event"
    },
    {
      "anonymous": false,
      "inputs": [
        {
          "indexed": false,
          "internalType": "uint256",
          "name": "shares",
          "type": "uint256"
        },
        {
          "indexed": false,
          "internalType": "uint256",
          "name": "assets",
          "type": "uint256"
        }
      ],
      "name": "CheckpointCreated",
      "type": "event"
    },
    {
      "anonymous": false,
      "inputs": [
        {
          "indexed": true,
          "internalType": "address",
          "name": "caller",
          "type": "address"
        },
        {
          "indexed": true,
          "internalType": "address",
          "name": "receiver",
          "type": "address"
        },
        {
          "indexed": false,
          "internalType": "uint256",
          "name": "assets",
          "type": "uint256"
        },
        {
          "indexed": false,
          "internalType": "uint256",
          "name": "shares",
          "type": "uint256"
        },
        {
          "indexed": false,
          "internalType": "address",
          "name": "referrer",
          "type": "address"
        }
      ],
      "name": "Deposited",
      "type": "event"
    },
    {
      "anonymous": false,
      "inputs": [
        {
          "indexed": true,
          "internalType": "address",
          "name": "owner",
          "type": "address"
        },
        {
          "indexed": true,
          "internalType": "address",
          "name": "receiver",
          "type": "address"
        },
        {
          "indexed": false,
          "internalType": "uint256",
          "name": "positionTicket",
          "type": "uint256"
        },
        {
          "indexed": false,
          "internalType": "uint256",
          "name": "shares",
          "type": "uint256"
        }
      ],
      "name": "ExitQueueEntered",
      "type": "event"
    },
    {
      "anonymous": false,
      "inputs": [
        {
          "indexed": true,
          "internalType": "address",
          "name": "receiver",
          "type": "address"
        },
        {
          "indexed": false,
          "internalType": "uint256",
          "name": "prevPositionTicket",
          "type": "uint256"
        },
        {
          "indexed": false,
          "internalType": "uint256",
          "name": "newPositionTicket",
          "type": "uint256"
        },
        {
          "indexed": false,
          "internalType": "uint256",
          "name": "withdrawnAssets",
          "type": "uint256"
        }
      ],
      "name": "ExitedAssetsClaimed",
      "type": "event"
    },
    {
      "anonymous": false,
      "inputs": [
        {
          "indexed": true,
          "internalType": "address",
          "name": "caller",
          "type": "address"
        },
        {
          "indexed": true,
          "internalType": "address",
          "name": "feeRecipient",
          "type": "address"
        }
      ],
      "name": "FeeRecipientUpdated",
      "type": "event"
    },
    {
      "anonymous": false,
      "inputs": [
        {
          "indexed": false,
          "internalType": "address",
          "name": "receiver",
          "type": "address"
        },
        {
          "indexed": false,
          "internalType": "uint256",
          "name": "shares",
          "type": "uint256"
        },
        {
          "indexed": false,
          "internalType": "uint256",
          "name": "assets",
          "type": "uint256"
        }
      ],
      "name": "FeeSharesMinted",
      "type": "event"
    },
    {
      "anonymous": false,
      "inputs": [
        {
          "indexed": false,
          "internalType": "uint64",
          "name": "version",
          "type": "uint64"
        }
      ],
      "name": "Initialized",
      "type": "event"
    },
    {
      "anonymous": false,
      "inputs": [
        {
          "indexed": true,
          "internalType": "address",
          "name": "caller",
          "type": "address"
        },
        {
          "indexed": true,
          "internalType": "address",
          "name": "keysManager",
          "type": "address"
        }
      ],
      "name": "KeysManagerUpdated",
      "type": "event"
    },
    {
      "anonymous": false,
      "inputs": [
        {
          "indexed": true,
          "internalType": "address",
          "name": "caller",
          "type": "address"
        },
        {
          "indexed": false,
          "internalType": "string",
          "name": "metadataIpfsHash",
          "type": "string"
        }
      ],
      "name": "MetadataUpdated",
      "type": "event"
    },
    {
      "anonymous": false,
      "inputs": [
        {
          "indexed": true,
          "internalType": "address",
          "name": "caller",
          "type": "address"
        },
        {
          "indexed": false,
          "internalType": "uint256",
          "name": "assets",
          "type": "uint256"
        },
        {
          "indexed": false,
          "internalType": "uint256",
          "name": "shares",
          "type": "uint256"
        }
      ],
      "name": "OsTokenBurned",
      "type": "event"
    },
    {
      "anonymous": false,
      "inputs": [
        {
          "indexed": true,
          "internalType": "address",
          "name": "caller",
          "type": "address"
        },
        {
          "indexed": true,
          "internalType": "address",
          "name": "user",
          "type": "address"
        },
        {
          "indexed": false,
          "internalType": "address",
          "name": "receiver",
          "type": "address"
        },
        {
          "indexed": false,
          "internalType": "uint256",
          "name": "osTokenShares",
          "type": "uint256"
        },
        {
          "indexed": false,
          "internalType": "uint256",
          "name": "shares",
          "type": "uint256"
        },
        {
          "indexed": false,
          "internalType": "uint256",
          "name": "receivedAssets",
          "type": "uint256"
        }
      ],
      "name": "OsTokenLiquidated",
      "type": "event"
    },
    {
      "anonymous": false,
      "inputs": [
        {
          "indexed": true,
          "internalType": "address",
          "name": "caller",
          "type": "address"
        },
        {
          "indexed": false,
          "internalType": "address",
          "name": "receiver",
          "type": "address"
        },
        {
          "indexed": false,
          "internalType": "uint256",
          "name": "assets",
          "type": "uint256"
        },
        {
          "indexed": false,
          "internalType": "uint256",
          "name": "shares",
          "type": "uint256"
        },
        {
          "indexed": false,
          "internalType": "address",
          "name": "referrer",
          "type": "address"
        }
      ],
      "name": "OsTokenMinted",
      "type": "event"
    },
    {
      "anonymous": false,
      "inputs": [
        {
          "indexed": true,
          "internalType": "address",
          "name": "caller",
          "type": "address"
        },
        {
          "indexed": true,
          "internalType": "address",
          "name": "user",
          "type": "address"
        },
        {
          "indexed": false,
          "internalType": "address",
          "name": "receiver",
          "type": "address"
        },
        {
          "indexed": false,
          "internalType": "uint256",
          "name": "osTokenShares",
          "type": "uint256"
        },
        {
          "indexed": false,
          "internalType": "uint256",
          "name": "shares",
          "type": "uint256"
        },
        {
          "indexed": false,
          "internalType": "uint256",
          "name": "assets",
          "type": "uint256"
        }
      ],
      "name": "OsTokenRedeemed",
      "type": "event"
    },
    {
      "anonymous": false,
      "inputs": [
        {
          "indexed": true,
          "internalType": "address",
          "name": "owner",
          "type": "address"
        },
        {
          "indexed": true,
          "internalType": "address",
          "name": "receiver",
          "type": "address"
        },
        {
          "indexed": false,
          "internalType": "uint256",
          "name": "assets",
          "type": "uint256"
        },
        {
          "indexed": false,
          "internalType": "uint256",
          "name": "shares",
          "type": "uint256"
        }
      ],
      "name": "Redeemed",
      "type": "event"
    },
    {
      "anonymous": false,
      "inputs": [
        {
          "indexed": true,
          "internalType": "address",
          "name": "from",
          "type": "address"
        },
        {
          "indexed": true,
          "internalType": "address",
          "name": "to",
          "type": "address"
        },
        {
          "indexed": false,
          "internalType": "uint256",
          "name": "value",
          "type": "uint256"
        }
      ],
      "name": "Transfer",
      "type": "event"
    },
    {
      "anonymous": false,
      "inputs": [
        {
          "indexed": true,
          "internalType": "address",
          "name": "implementation",
          "type": "address"
        }
      ],
      "name": "Upgraded",
      "type": "event"
    },
    {
      "anonymous": false,
      "inputs": [
        {
          "indexed": false,
          "internalType": "bytes",
          "name": "publicKey",
          "type": "bytes"
        }
      ],
      "name": "ValidatorRegistered",
      "type": "event"
    },
    {
      "anonymous": false,
      "inputs": [
        {
          "indexed": true,
          "internalType": "address",
          "name": "caller",
          "type": "address"
        },
        {
          "indexed": true,
          "internalType": "bytes32",
          "name": "validatorsRoot",
          "type": "bytes32"
        }
      ],
      "name": "ValidatorsRootUpdated",
      "type": "event"
    },
    {
      "inputs": [],
      "name": "DOMAIN_SEPARATOR",
      "outputs": [
        {
          "internalType": "bytes32",
          "name": "",
          "type": "bytes32"
        }
      ],
      "stateMutability": "view",
      "type": "function"
    },
    {
      "inputs": [],
      "name": "UPGRADE_INTERFACE_VERSION",
      "outputs": [
        {
          "internalType": "string",
          "name": "",
          "type": "string"
        }
      ],
      "stateMutability": "view",
      "type": "function"
    },
    {
      "inputs": [],
      "name": "admin",
      "outputs": [
        {
          "internalType": "address",
          "name": "",
          "type": "address"
        }
      ],
      "stateMutability": "view",
      "type": "function"
    },
    {
      "inputs": [
        {
          "internalType": "address",
          "name": "",
          "type": "address"
        },
        {
          "internalType": "address",
          "name": "",
          "type": "address"
        }
      ],
      "name": "allowance",
      "outputs": [
        {
          "internalType": "uint256",
          "name": "",
          "type": "uint256"
        }
      ],
      "stateMutability": "view",
      "type": "function"
    },
    {
      "inputs": [
        {
          "internalType": "address",
          "name": "spender",
          "type": "address"
        },
        {
          "internalType": "uint256",
          "name": "amount",
          "type": "uint256"
        }
      ],
      "name": "approve",
      "outputs": [
        {
          "internalType": "bool",
          "name": "",
          "type": "bool"
        }
      ],
      "stateMutability": "nonpayable",
      "type": "function"
    },
    {
      "inputs": [
        {
          "internalType": "address",
          "name": "account",
          "type": "address"
        }
      ],
      "name": "balanceOf",
      "outputs": [
        {
          "internalType": "uint256",
          "name": "",
          "type": "uint256"
        }
      ],
      "stateMutability": "view",
      "type": "function"
    },
    {
      "inputs": [
        {
          "internalType": "uint128",
          "name": "osTokenShares",
          "type": "uint128"
        }
      ],
      "name": "burnOsToken",
      "outputs": [
        {
          "internalType": "uint256",
          "name": "assets",
          "type": "uint256"
        }
      ],
      "stateMutability": "nonpayable",
      "type": "function"
    },
    {
      "inputs": [
        {
          "internalType": "address",
          "name": "receiver",
          "type": "address"
        },
        {
          "internalType": "uint256",
          "name": "positionTicket",
          "type": "uint256"
        },
        {
          "internalType": "uint256",
          "name": "timestamp",
          "type": "uint256"
        },
        {
          "internalType": "uint256",
          "name": "exitQueueIndex",
          "type": "uint256"
        }
      ],
      "name": "calculateExitedAssets",
      "outputs": [
        {
          "internalType": "uint256",
          "name": "leftShares",
          "type": "uint256"
        },
        {
          "internalType": "uint256",
          "name": "claimedShares",
          "type": "uint256"
        },
        {
          "internalType": "uint256",
          "name": "claimedAssets",
          "type": "uint256"
        }
      ],
      "stateMutability": "view",
      "type": "function"
    },
    {
      "inputs": [],
      "name": "capacity",
      "outputs": [
        {
          "internalType": "uint256",
          "name": "",
          "type": "uint256"
        }
      ],
      "stateMutability": "view",
      "type": "function"
    },
    {
      "inputs": [
        {
          "internalType": "uint256",
          "name": "positionTicket",
          "type": "uint256"
        },
        {
          "internalType": "uint256",
          "name": "timestamp",
          "type": "uint256"
        },
        {
          "internalType": "uint256",
          "name": "exitQueueIndex",
          "type": "uint256"
        }
      ],
      "name": "claimExitedAssets",
      "outputs": [
        {
          "internalType": "uint256",
          "name": "newPositionTicket",
          "type": "uint256"
        },
        {
          "internalType": "uint256",
          "name": "claimedShares",
          "type": "uint256"
        },
        {
          "internalType": "uint256",
          "name": "claimedAssets",
          "type": "uint256"
        }
      ],
      "stateMutability": "nonpayable",
      "type": "function"
    },
    {
      "inputs": [
        {
          "internalType": "uint256",
          "name": "shares",
          "type": "uint256"
        }
      ],
      "name": "convertToAssets",
      "outputs": [
        {
          "internalType": "uint256",
          "name": "assets",
          "type": "uint256"
        }
      ],
      "stateMutability": "view",
      "type": "function"
    },
    {
      "inputs": [
        {
          "internalType": "uint256",
          "name": "assets",
          "type": "uint256"
        }
      ],
      "name": "convertToShares",
      "outputs": [
        {
          "internalType": "uint256",
          "name": "shares",
          "type": "uint256"
        }
      ],
      "stateMutability": "view",
      "type": "function"
    },
    {
      "inputs": [],
      "name": "decimals",
      "outputs": [
        {
          "internalType": "uint8",
          "name": "",
          "type": "uint8"
        }
      ],
      "stateMutability": "view",
      "type": "function"
    },
    {
      "inputs": [
        {
          "internalType": "address",
          "name": "receiver",
          "type": "address"
        },
        {
          "internalType": "address",
          "name": "referrer",
          "type": "address"
        }
      ],
      "name": "deposit",
      "outputs": [
        {
          "internalType": "uint256",
          "name": "shares",
          "type": "uint256"
        }
      ],
      "stateMutability": "payable",
      "type": "function"
    },
    {
      "inputs": [
        {
          "internalType": "uint256",
          "name": "shares",
          "type": "uint256"
        },
        {
          "internalType": "address",
          "name": "receiver",
          "type": "address"
        }
      ],
      "name": "enterExitQueue",
      "outputs": [
        {
          "internalType": "uint256",
          "name": "positionTicket",
          "type": "uint256"
        }
      ],
      "stateMutability": "nonpayable",
      "type": "function"
    },
    {
      "inputs": [],
      "name": "feePercent",
      "outputs": [
        {
          "internalType": "uint16",
          "name": "",
          "type": "uint16"
        }
      ],
      "stateMutability": "view",
      "type": "function"
    },
    {
      "inputs": [],
      "name": "feeRecipient",
      "outputs": [
        {
          "internalType": "address",
          "name": "",
          "type": "address"
        }
      ],
      "stateMutability": "view",
      "type": "function"
    },
    {
      "inputs": [
        {
          "internalType": "uint256",
          "name": "positionTicket",
          "type": "uint256"
        }
      ],
      "name": "getExitQueueIndex",
      "outputs": [
        {
          "internalType": "int256",
          "name": "",
          "type": "int256"
        }
      ],
      "stateMutability": "view",
      "type": "function"
    },
    {
      "inputs": [
        {
          "internalType": "address",
          "name": "account",
          "type": "address"
        }
      ],
      "name": "getShares",
      "outputs": [
        {
          "internalType": "uint256",
          "name": "",
          "type": "uint256"
        }
      ],
      "stateMutability": "view",
      "type": "function"
    },
    {
      "inputs": [],
      "name": "implementation",
      "outputs": [
        {
          "internalType": "address",
          "name": "",
          "type": "address"
        }
      ],
      "stateMutability": "view",
      "type": "function"
    },
    {
      "inputs": [
        {
          "internalType": "bytes",
          "name": "params",
          "type": "bytes"
        }
      ],
      "name": "initialize",
      "outputs": [],
      "stateMutability": "payable",
      "type": "function"
    },
    {
      "inputs": [],
      "name": "isStateUpdateRequired",
      "outputs": [
        {
          "internalType": "bool",
          "name": "",
          "type": "bool"
        }
      ],
      "stateMutability": "view",
      "type": "function"
    },
    {
      "inputs": [],
      "name": "keysManager",
      "outputs": [
        {
          "internalType": "address",
          "name": "",
          "type": "address"
        }
      ],
      "stateMutability": "view",
      "type": "function"
    },
    {
      "inputs": [
        {
          "internalType": "uint256",
          "name": "osTokenShares",
          "type": "uint256"
        },
        {
          "internalType": "address",
          "name": "owner",
          "type": "address"
        },
        {
          "internalType": "address",
          "name": "receiver",
          "type": "address"
        }
      ],
      "name": "liquidateOsToken",
      "outputs": [],
      "stateMutability": "nonpayable",
      "type": "function"
    },
    {
      "inputs": [],
      "name": "mevEscrow",
      "outputs": [
        {
          "internalType": "address",
          "name": "",
          "type": "address"
        }
      ],
      "stateMutability": "view",
      "type": "function"
    },
    {
      "inputs": [
        {
          "internalType": "address",
          "name": "receiver",
          "type": "address"
        },
        {
          "internalType": "uint256",
          "name": "osTokenShares",
          "type": "uint256"
        },
        {
          "internalType": "address",
          "name": "referrer",
          "type": "address"
        }
      ],
      "name": "mintOsToken",
      "outputs": [
        {
          "internalType": "uint256",
          "name": "assets",
          "type": "uint256"
        }
      ],
      "stateMutability": "nonpayable",
      "type": "function"
    },
    {
      "inputs": [
        {
          "internalType": "bytes[]",
          "name": "data",
          "type": "bytes[]"
        }
      ],
      "name": "multicall",
      "outputs": [
        {
          "internalType": "bytes[]",
          "name": "results",
          "type": "bytes[]"
        }
      ],
      "stateMutability": "nonpayable",
      "type": "function"
    },
    {
      "inputs": [],
      "name": "name",
      "outputs": [
        {
          "internalType": "string",
          "name": "",
          "type": "string"
        }
      ],
      "stateMutability": "view",
      "type": "function"
    },
    {
      "inputs": [
        {
          "internalType": "address",
          "name": "",
          "type": "address"
        }
      ],
      "name": "nonces",
      "outputs": [
        {
          "internalType": "uint256",
          "name": "",
          "type": "uint256"
        }
      ],
      "stateMutability": "view",
      "type": "function"
    },
    {
      "inputs": [
        {
          "internalType": "address",
          "name": "user",
          "type": "address"
        }
      ],
      "name": "osTokenPositions",
      "outputs": [
        {
          "internalType": "uint128",
          "name": "shares",
          "type": "uint128"
        }
      ],
      "stateMutability": "view",
      "type": "function"
    },
    {
      "inputs": [
        {
          "internalType": "address",
          "name": "owner",
          "type": "address"
        },
        {
          "internalType": "address",
          "name": "spender",
          "type": "address"
        },
        {
          "internalType": "uint256",
          "name": "value",
          "type": "uint256"
        },
        {
          "internalType": "uint256",
          "name": "deadline",
          "type": "uint256"
        },
        {
          "internalType": "uint8",
          "name": "v",
          "type": "uint8"
        },
        {
          "internalType": "bytes32",
          "name": "r",
          "type": "bytes32"
        },
        {
          "internalType": "bytes32",
          "name": "s",
          "type": "bytes32"
        }
      ],
      "name": "permit",
      "outputs": [],
      "stateMutability": "nonpayable",
      "type": "function"
    },
    {
      "inputs": [],
      "name": "proxiableUUID",
      "outputs": [
        {
          "internalType": "bytes32",
          "name": "",
          "type": "bytes32"
        }
      ],
      "stateMutability": "view",
      "type": "function"
    },
    {
      "inputs": [],
      "name": "queuedShares",
      "outputs": [
        {
          "internalType": "uint128",
          "name": "",
          "type": "uint128"
        }
      ],
      "stateMutability": "view",
      "type": "function"
    },
    {
      "inputs": [],
      "name": "receiveFromMevEscrow",
      "outputs": [],
      "stateMutability": "payable",
      "type": "function"
    },
    {
      "inputs": [
        {
          "internalType": "uint256",
          "name": "shares",
          "type": "uint256"
        },
        {
          "internalType": "address",
          "name": "receiver",
          "type": "address"
        }
      ],
      "name": "redeem",
      "outputs": [
        {
          "internalType": "uint256",
          "name": "assets",
          "type": "uint256"
        }
      ],
      "stateMutability": "nonpayable",
      "type": "function"
    },
    {
      "inputs": [
        {
          "internalType": "uint256",
          "name": "osTokenShares",
          "type": "uint256"
        },
        {
          "internalType": "address",
          "name": "owner",
          "type": "address"
        },
        {
          "internalType": "address",
          "name": "receiver",
          "type": "address"
        }
      ],
      "name": "redeemOsToken",
      "outputs": [],
      "stateMutability": "nonpayable",
      "type": "function"
    },
    {
      "inputs": [
        {
          "components": [
            {
              "internalType": "bytes32",
              "name": "validatorsRegistryRoot",
              "type": "bytes32"
            },
            {
              "internalType": "uint256",
              "name": "deadline",
              "type": "uint256"
            },
            {
              "internalType": "bytes",
              "name": "validators",
              "type": "bytes"
            },
            {
              "internalType": "bytes",
              "name": "signatures",
              "type": "bytes"
            },
            {
              "internalType": "string",
              "name": "exitSignaturesIpfsHash",
              "type": "string"
            }
          ],
          "internalType": "struct IKeeperValidators.ApprovalParams",
          "name": "keeperParams",
          "type": "tuple"
        },
        {
          "internalType": "bytes32[]",
          "name": "proof",
          "type": "bytes32[]"
        }
      ],
      "name": "registerValidator",
      "outputs": [],
      "stateMutability": "nonpayable",
      "type": "function"
    },
    {
      "inputs": [
        {
          "components": [
            {
              "internalType": "bytes32",
              "name": "validatorsRegistryRoot",
              "type": "bytes32"
            },
            {
              "internalType": "uint256",
              "name": "deadline",
              "type": "uint256"
            },
            {
              "internalType": "bytes",
              "name": "validators",
              "type": "bytes"
            },
            {
              "internalType": "bytes",
              "name": "signatures",
              "type": "bytes"
            },
            {
              "internalType": "string",
              "name": "exitSignaturesIpfsHash",
              "type": "string"
            }
          ],
          "internalType": "struct IKeeperValidators.ApprovalParams",
          "name": "keeperParams",
          "type": "tuple"
        },
        {
          "internalType": "uint256[]",
          "name": "indexes",
          "type": "uint256[]"
        },
        {
          "internalType": "bool[]",
          "name": "proofFlags",
          "type": "bool[]"
        },
        {
          "internalType": "bytes32[]",
          "name": "proof",
          "type": "bytes32[]"
        }
      ],
      "name": "registerValidators",
      "outputs": [],
      "stateMutability": "nonpayable",
      "type": "function"
    },
    {
      "inputs": [
        {
          "internalType": "address",
          "name": "_feeRecipient",
          "type": "address"
        }
      ],
      "name": "setFeeRecipient",
      "outputs": [],
      "stateMutability": "nonpayable",
      "type": "function"
    },
    {
      "inputs": [
        {
          "internalType": "address",
          "name": "keysManager_",
          "type": "address"
        }
      ],
      "name": "setKeysManager",
      "outputs": [],
      "stateMutability": "nonpayable",
      "type": "function"
    },
    {
      "inputs": [
        {
          "internalType": "string",
          "name": "metadataIpfsHash",
          "type": "string"
        }
      ],
      "name": "setMetadata",
      "outputs": [],
      "stateMutability": "nonpayable",
      "type": "function"
    },
    {
      "inputs": [
        {
          "internalType": "bytes32",
          "name": "_validatorsRoot",
          "type": "bytes32"
        }
      ],
      "name": "setValidatorsRoot",
      "outputs": [],
      "stateMutability": "nonpayable",
      "type": "function"
    },
    {
      "inputs": [],
      "name": "symbol",
      "outputs": [
        {
          "internalType": "string",
          "name": "",
          "type": "string"
        }
      ],
      "stateMutability": "view",
      "type": "function"
    },
    {
      "inputs": [],
      "name": "totalAssets",
      "outputs": [
        {
          "internalType": "uint256",
          "name": "",
          "type": "uint256"
        }
      ],
      "stateMutability": "view",
      "type": "function"
    },
    {
      "inputs": [],
      "name": "totalShares",
      "outputs": [
        {
          "internalType": "uint256",
          "name": "",
          "type": "uint256"
        }
      ],
      "stateMutability": "view",
      "type": "function"
    },
    {
      "inputs": [],
      "name": "totalSupply",
      "outputs": [
        {
          "internalType": "uint256",
          "name": "",
          "type": "uint256"
        }
      ],
      "stateMutability": "view",
      "type": "function"
    },
    {
      "inputs": [
        {
          "internalType": "address",
          "name": "to",
          "type": "address"
        },
        {
          "internalType": "uint256",
          "name": "amount",
          "type": "uint256"
        }
      ],
      "name": "transfer",
      "outputs": [
        {
          "internalType": "bool",
          "name": "",
          "type": "bool"
        }
      ],
      "stateMutability": "nonpayable",
      "type": "function"
    },
    {
      "inputs": [
        {
          "internalType": "address",
          "name": "from",
          "type": "address"
        },
        {
          "internalType": "address",
          "name": "to",
          "type": "address"
        },
        {
          "internalType": "uint256",
          "name": "amount",
          "type": "uint256"
        }
      ],
      "name": "transferFrom",
      "outputs": [
        {
          "internalType": "bool",
          "name": "",
          "type": "bool"
        }
      ],
      "stateMutability": "nonpayable",
      "type": "function"
    },
    {
      "inputs": [
        {
          "components": [
            {
              "internalType": "bytes32",
              "name": "rewardsRoot",
              "type": "bytes32"
            },
            {
              "internalType": "int160",
              "name": "reward",
              "type": "int160"
            },
            {
              "internalType": "uint160",
              "name": "unlockedMevReward",
              "type": "uint160"
            },
            {
              "internalType": "bytes32[]",
              "name": "proof",
              "type": "bytes32[]"
            }
          ],
          "internalType": "struct IKeeperRewards.HarvestParams",
          "name": "harvestParams",
          "type": "tuple"
        }
      ],
      "name": "updateState",
      "outputs": [],
      "stateMutability": "nonpayable",
      "type": "function"
    },
    {
      "inputs": [
        {
          "internalType": "address",
          "name": "receiver",
          "type": "address"
        },
        {
          "internalType": "address",
          "name": "referrer",
          "type": "address"
        },
        {
          "components": [
            {
              "internalType": "bytes32",
              "name": "rewardsRoot",
              "type": "bytes32"
            },
            {
              "internalType": "int160",
              "name": "reward",
              "type": "int160"
            },
            {
              "internalType": "uint160",
              "name": "unlockedMevReward",
              "type": "uint160"
            },
            {
              "internalType": "bytes32[]",
              "name": "proof",
              "type": "bytes32[]"
            }
          ],
          "internalType": "struct IKeeperRewards.HarvestParams",
          "name": "harvestParams",
          "type": "tuple"
        }
      ],
      "name": "updateStateAndDeposit",
      "outputs": [
        {
          "internalType": "uint256",
          "name": "shares",
          "type": "uint256"
        }
      ],
      "stateMutability": "payable",
      "type": "function"
    },
    {
      "inputs": [
        {
          "internalType": "address",
          "name": "newImplementation",
          "type": "address"
        },
        {
          "internalType": "bytes",
          "name": "data",
          "type": "bytes"
        }
      ],
      "name": "upgradeToAndCall",
      "outputs": [],
      "stateMutability": "payable",
      "type": "function"
    },
    {
      "inputs": [],
      "name": "validatorIndex",
      "outputs": [
        {
          "internalType": "uint256",
          "name": "",
          "type": "uint256"
        }
      ],
      "stateMutability": "view",
      "type": "function"
    },
    {
      "inputs": [],
      "name": "validatorsRoot",
      "outputs": [
        {
          "internalType": "bytes32",
          "name": "",
          "type": "bytes32"
        }
      ],
      "stateMutability": "view",
      "type": "function"
    },
    {
      "inputs": [],
      "name": "vaultId",
      "outputs": [
        {
          "internalType": "bytes32",
          "name": "",
          "type": "bytes32"
        }
      ],
      "stateMutability": "pure",
      "type": "function"
    },
    {
      "inputs": [],
      "name": "version",
      "outputs": [
        {
          "internalType": "uint8",
          "name": "",
          "type": "uint8"
        }
      ],
      "stateMutability": "pure",
      "type": "function"
    },
    {
      "inputs": [],
      "name": "withdrawableAssets",
      "outputs": [
        {
          "internalType": "uint256",
          "name": "",
          "type": "uint256"
        }
      ],
      "stateMutability": "view",
      "type": "function"
    },
    {
      "stateMutability": "payable",
      "type": "receive"
    }
  ],
  "bytecode": "0x6101a034620001b057601f6200566838819003918201601f19168301916001600160401b03831184841017620001b45780849260e094604052833981010312620001b0576200004e81620001c8565b6200005c60208301620001c8565b916200006b60408201620001c8565b926200007a60608301620001c8565b936200008960808401620001c8565b9160c06200009a60a08601620001c8565b9401519460805260a05260c0523060e052620000b5620001dd565b6101009346855261012093845260018060a01b03806101409216825261016092168252610180928352620000e8620001dd565b604051936153eb95866200027d8739608051868181611d5d015281816128b80152818161328c01528181613708015281816139a80152614716015260a0518661196b015260c0518681816142e10152614482015260e051868181611b590152613dfa01525185612bc801525184612e560152518381816104250152818161093e01528181610d0101528181611322015281816134040152613b2b015251828181610a1a01528181610dad015281816113ce0152613aaa015251818181612ba301526137500152f35b5f80fd5b634e487b7160e01b5f52604160045260245ffd5b51906001600160a01b0382168203620001b057565b7ff0c57e16840df040f15088dc2f81fe391c3923bec73e23a9662efc9c229c6a00805460ff8160401c166200026a576001600160401b036002600160401b0319828216016200022b57505050565b6001600160401b031990911681179091556040519081527fc7f505b2f371ae2175ee4913f4499e1f2633a7b5936321eed1cdaeb6115181d290602090a1565b60405163f92ee8a960e01b8152600490fdfe60806040526004361015610022575b3615610018575f80fd5b6100206133e5565b005b5f3560e01c806301e1d11414610397578063066055e01461039257806306fdde031461038d57806307a2d13a14610388578063095ea7b31461038357806318160ddd1461034c57806318f729501461037e5780631a7ff55314610379578063201b9eb51461037457806323b872dd1461036f5780632999ad3f1461036a5780632cdf740114610365578063313ce567146103605780633229fa951461035b57806333194c0a146103565780633644e515146103515780633a98ef391461034c578063439fab911461034757806343e82a7914610342578063469048401461033d5780634ec96b22146103385780634f1ef28614610333578063514e27081461032e57806352d1902d1461032957806353156f281461032457806354fd4d501461031f5780635c60da1b1461031a5780635cfc1a51146103155780635dddf3a81461031057806360d60e6e1461030b57806370a082311461029d57806372b410a81461030657806376b58b90146103015780637bde82f2146102fc5780637ecebe00146102f75780637fd6f15c146102f25780638697d2c2146102ed5780638ceab9aa146102e857806395d89b41146102e35780639b401cde146102de578063a1bf49aa146102d9578063a49a1e7d146102d4578063a9059cbb146102cf578063aaa4e836146102ca578063ac9650d8146102c5578063ad3cb1cc146102c0578063c6e6f592146102bb578063d505accf146102b6578063d83ad00c146102b1578063dd62ed3e146102ac578063e74b981b146102a7578063ef2a2158146102a2578063f04da65b1461029d578063f5e9de4d14610298578063f851a440146102935763f9609f080361000e57612a1b565b6129f3565b612860565b611cf7565b6127d8565b61279d565b612759565b61270e565b6124ed565b6124c4565b61247f565b61239b565b61229a565b61225c565b612205565b6121e7565b6121c9565b612125565b611fb2565b611f8d565b611f69565b611f2e565b611e10565b611dbf565b611d32565b611c57565b611c3d565b611c23565b611bef565b611bd4565b611bb0565b611b47565b611ad9565b611853565b61175e565b611736565b6112f7565b6111de565b61080e565b61117b565b611141565b611115565b6110fa565b6110e0565b610cd7565b610bfb565b6108ce565b61089b565b610842565b61076c565b610735565b61066f565b6103ca565b6103aa565b5f9103126103a657565b5f80fd5b346103a6575f3660031901126103a657602060cf5460801c604051908152f35b346103a65760203660031901126103a6576001600160801b03600435818116908181036103a657604051633b9e9f0160e21b81523360048201526001600160801b0382166024820152916020836044815f6001600160a01b037f0000000000000000000000000000000000000000000000000000000000000000165af1928315610570575f9361053f575b50335f90815261016e6020526040902061046e90612a4b565b9361048085516001600160801b031690565b161561052d57836104c26104b56104a56104db946104a0610529996133ef565b61349f565b83516001600160801b0316612a84565b6001600160801b03168252565b335f90815261016e60205260409020612a9d565b612a9d565b604080518381526001600160801b0392909216602083015233917f3f7354ba02880b4fa37a629985852a38417ff369369ce1e52fa6f8342a9100a79190a26040519081529081906020820190565b0390f35b60405163673f032f60e11b8152600490fd5b61056291935060203d602011610569575b61055a81836105f4565b810190612a31565b915f610455565b503d610550565b612a40565b90600182811c921680156105a3575b602083101461058f57565b634e487b7160e01b5f52602260045260245ffd5b91607f1691610584565b634e487b7160e01b5f52604160045260245ffd5b604081019081106001600160401b038211176105dc57604052565b6105ad565b6001600160401b0381116105dc57604052565b90601f801991011681019081106001600160401b038211176105dc57604052565b5f5b8381106106265750505f910152565b8181015183820152602001610617565b9060209161064f81518092818552858086019101610615565b601f01601f1916010190565b90602061066c928181520190610636565b90565b346103a6575f3660031901126103a6576040515f805461068e81610575565b8084529060209060019081811690811561070b57506001146106c7575b610529856106bb818703826105f4565b6040519182918261065b565b5f80805293505f805160206153168339815191525b8385106106f8575050505081016020016106bb826105296106ab565b80548686018401529382019381016106dc565b869550610529969350602092506106bb94915060ff191682840152151560051b82010192936106ab565b346103a65760203660031901126103a6576020610753600435612ac6565b604051908152f35b6001600160a01b038116036103a657565b346103a65760403660031901126103a6576004356107898161075b565b6001600160a01b038116906024359082156107fc576107c48291335f52600260205260405f209060018060a01b03165f5260205260405f2090565b556040519081527f8c5be1e5ebec7d5bd14f71427d1e84f3dd0314c0f7b2291e5b200ac8c7c3b92560203392a3602060405160018152f35b60405163d92e233d60e01b8152600490fd5b346103a6575f3660031901126103a65760206001600160801b0360cf5416604051908152f35b908160809103126103a65790565b60603660031901126103a65760043561085a8161075b565b6024356108668161075b565b604435906001600160401b0382116103a65760209261089461088f610753943690600401610834565b612aec565b349061464f565b346103a65760203660031901126103a6576004356001600160401b0381116103a65761088f610020913690600401610834565b346103a65760603660031901126103a65760048035906108ed8261075b565b60243590604435926108fe8461075b565b61090661396c565b61090e61398d565b604080516329460cc560e11b81526001600160a01b038381168286019081526020818101889052929693959192907f00000000000000000000000000000000000000000000000000000000000000008416908290899081908a0103815f855af1978815610570575f98610bdc575b50335f90815261016e60205260409020839061099790612a4b565b946001600160801b036109b187516001600160801b031690565b1615610b7a576109c0866133ef565b6109ec6109df6109cf8961349f565b88516001600160801b0316612b40565b6001600160801b03168752565b335f90815260d3602052604090208490610a07905b54612ac6565b918a5193848092631331885160e31b82527f0000000000000000000000000000000000000000000000000000000000000000165afa91821561057057610a96928592610a5a925f92610b5b575b506134f5565b92610a6c87516001600160801b031690565b908a5180809581946303d1689d60e11b83528a83019190916001600160801b036020820193169052565b03915afa928315610570575f93610b3c575b505010610b2e5750947fa16d97739893e1436c9753925fb5cef174c4f368699dc86cc8fdb0e6e60f8e5891610af5610529976104d63360018060a01b03165f5261016e60205260405f2090565b84516001600160a01b039485168152602081018790526040810191909152921660608301523391608090a2519081529081906020820190565b8451633684c65960e01b8152fd5b610b53929350803d106105695761055a81836105f4565b905f80610aa8565b610b73919250843d86116105695761055a81836105f4565b905f610a54565b885163752a536d60e01b8152915083828681865afa801561057057610bab610bba9187945f91610bbf575b5061349f565b6001600160801b031687860152565b6109c0565b610bd69150873d89116105695761055a81836105f4565b5f610ba5565b610bf4919850823d84116105695761055a81836105f4565b965f61097c565b346103a65760603660031901126103a657600435610c188161075b565b60243590610c258261075b565b6001600160a01b0381165f8181526002602090815260408083203384529091529020546044359160018201610c75575b610c6984610c6485888361476a565b613a18565b60405160018152602090f35b919093818503948511610ca9575f928352600260209081526040808520338652909152909220939093559180610c69610c55565b612a70565b60609060031901126103a65760043590602435610cca8161075b565b9060443561066c8161075b565b346103a657610ce536610cae565b906001600160a01b03808316156107fc57610cfe61398d565b807f00000000000000000000000000000000000000000000000000000000000000001691823b156103a65760408051631d8557d760e01b815260049491905f81878183875af18015610570576110c7575b506001600160a01b0383165f90815261016e60205260409020610d7190612a4b565b6001600160801b03610d8a82516001600160801b031690565b16156110b757610d99816133ef565b81516330fe427560e21b81529260a08488817f00000000000000000000000000000000000000000000000000000000000000008a165afa96871561057057610e08975f955f9161107e575b5084516303d1689d60e11b918282528c828060209d8e938883019190602083019252565b0381885afa801561057057610e23925f9161106157506134f5565b95610e41610a018960018060a01b03165f5260d360205260405f2090565b918288118015611051575b61104157908a610e8992610e6788516001600160801b031690565b908951948592839283528883019190916001600160801b036020820193169052565b0381885afa90811561057057670de0b6b3a764000093610ec5938d5f94611018575b5050610eb9610ebf91613248565b92613265565b9161356f565b101561100a578351633b9e9f0160e21b815233918101918252602082018b905294939291889186919082905f90829060400103925af1908115610570577f61fd285f9e34a3dbfa9846bdcf22a023e37a3c93549902843b30dd74a18c535097610fe795610f5f93610fec575b5050610f426104b56104a58c61349f565b6001600160a01b0386165f90815261016e60205260409020612a9d565b610f68826140b7565b90610fa6610f8b610f788561349f565b60cf5460801c036001600160801b031690565b6001600160801b0360cf549181199060801b1691161760cf55565b610fb08286614dfc565b610fba8389614009565b51948594169733978590949392606092608083019660018060a01b03168352602083015260408201520152565b0390a3005b8161100292903d106105695761055a81836105f4565b505f80610f31565b835163185cfc6d60e11b8152fd5b610ebf929450610eb9918161103892903d106105695761055a81836105f4565b9391508d610eab565b865163efda1a2760e01b81528490fd5b5061105a612b5b565b8811610e4c565b61107891508c8d3d106105695761055a81836105f4565b5f610a54565b90506110a391955060a03d60a0116110b0575b61109b81836105f4565b810190613bb1565b509692509050945f610de4565b503d611091565b815163673f032f60e11b81528690fd5b806110d46110da926105e1565b8061039c565b5f610d4f565b346103a6575f3660031901126103a6576020610753612b5b565b346103a6575f3660031901126103a657602060405160128152f35b346103a6575f3660031901126103a657602061112f612b8a565b6040516001600160a01b039091168152f35b346103a6575f3660031901126103a65760206040517f9480c4a5d7e604111fbc986cd90c895a458ca155fe13c10879b93c4592ce29fd8152f35b346103a6575f3660031901126103a6576020610753612bc5565b9060206003198301126103a6576004356001600160401b03928382116103a657806023830112156103a65781600401359384116103a657602484830101116103a6576024019190565b6111e736611195565b905f8051602061539683398151915254916001600160401b0360ff8460401c16159316801590816112ef575b60011490816112e5575b1590816112dc575b506112ca575f80516020615396833981519152805467ffffffffffffffff1916600117905561125891836112a657612c39565b61125e57005b5f80516020615396833981519152805460ff60401b19169055604051600181527fc7f505b2f371ae2175ee4913f4499e1f2633a7b5936321eed1cdaeb6115181d290602090a1005b5f80516020615396833981519152805460ff60401b1916600160401b179055612c39565b60405163f92ee8a960e01b8152600490fd5b9050155f611225565b303b15915061121d565b849150611213565b346103a65761130536610cae565b906001600160a01b0390818316156107fc5761131f61398d565b817f000000000000000000000000000000000000000000000000000000000000000016803b156103a65760408051631d8557d760e01b815260049291905f81858183875af1801561057057611723575b506001600160a01b0384165f90815261016e6020526040902061139190612a4b565b926001600160801b036113ab85516001600160801b031690565b1615611715576113ba846133ef565b81516330fe427560e21b81529360a08583817f00000000000000000000000000000000000000000000000000000000000000008b165afa938415610570575f955f956116e7575b5083516303d1689d60e11b8082528482018c81529197602094939285908a90819083015b0381865afa988915610570575f996116c8575b506001600160a01b038a165f90815260d36020526040902061145990610a01565b90818a1180156116b8575b6116a85761149f908661147e87516001600160801b031690565b8a51809481928883528c83019190916001600160801b036020820193169052565b0381885afa918215610570575f92611687575b506114bd91926134f5565b11611677578551633b9e9f0160e21b815233868201908152602081018e905290919085908390819060400103815f875af191821561057057859261165a575b506115068d61349f565b84516001600160801b03169061151b91612a84565b6001600160801b031684526001600160a01b038a165f90815261016e602052604090208461154891612a9d565b611551896140b7565b9761155b8a61349f565b60cf5460801c036001600160801b031661158a906001600160801b0360cf549181199060801b1691161760cf55565b611594898c614dfc565b6001600160a01b038b165f90815260d360205260409020546115b590612ac6565b906115bf916134f5565b935187519182526001600160801b0316868201908152909283918290036020019082905afa928315610570575f9361163b575b50501161162d575091610fe7917f57f5eb636bf62215c111b54545422f11dfb0cb115f606be905f0be08e8859dd3959493610fba8389614009565b9051631d8fa13d60e31b8152fd5b611652929350803d106105695761055a81836105f4565b905f806115f2565b61167090833d85116105695761055a81836105f4565b505f6114fc565b855163324b20e160e11b81528590fd5b6114bd92506116a290883d8a116105695761055a81836105f4565b916114b2565b875163efda1a2760e01b81528790fd5b506116c1612b5b565b8a11611464565b6116e0919950853d87116105695761055a81836105f4565b975f611438565b61142592965061170791955060a03d60a0116110b05761109b81836105f4565b505050959095949091611401565b905163673f032f60e11b8152fd5b806110d4611730926105e1565b5f61136f565b346103a6575f3660031901126103a657609c546040516001600160a01b039091168152602090f35b346103a65760203660031901126103a65760043561177b8161075b565b60018060a01b03165f5261016e602052602060405f206040519061179e826105c1565b54906001600160801b03918281169081835260801c848301526117c6575b5116604051908152f35b6117cf816133ef565b6117bc565b6040519060a082018281106001600160401b038211176105dc57604052565b60405190611800826105c1565b565b6001600160401b0381116105dc57601f01601f191660200190565b92919261182982611802565b9161183760405193846105f4565b8294818452818301116103a6578281602093845f960137010152565b6040806003193601126103a657600490813561186e8161075b565b6024356001600160401b0381116103a657366023820112156103a65761189d903690602481870135910161181d565b916118a6613df0565b8051926118dd846118cf60209363439fab9160e01b858401528460248401526044830190610636565b03601f1981018652856105f4565b6118e5613df0565b6118ed6140a3565b6001600160a01b03838116801592919087908415611aa4575b8415611a36575b84156119d2575b5050821561193c575b505061192d576100208383614a39565b516355299b4960e01b81528390fd5b83516345da87c560e01b81526001600160a01b03861688820190815292935091839183918290819060200103917f0000000000000000000000000000000000000000000000000000000000000000165afa918215610570575f926119a5575b5050155f8061191d565b6119c49250803d106119cb575b6119bc81836105f4565b810190612daf565b5f8061199b565b503d6119b2565b855163054fd4d560e41b81529294508391839182905afa9081156105705760029160ff915f91611a09575b5016141591865f611914565b611a299150843d8611611a2f575b611a2181836105f4565b810190614a24565b5f6119fd565b503d611a17565b935050835163198ca60560e11b815282818981875afa9081156105705788917f9480c4a5d7e604111fbc986cd90c895a458ca155fe13c10879b93c4592ce29fd915f91611a87575b5014159361190d565b611a9e9150853d87116105695761055a81836105f4565b5f611a7e565b5f80516020615336833981519152549094508490611ad2906001600160a01b03165b6001600160a01b031690565b1493611906565b346103a65760203660031901126103a6576004356001600160a01b03611afd612d84565b163303611b355780610107555f61010855337fbe9758e2d6800505eeb0292a08fe647c52762ccea131177456e7062dd77b41065f80a3005b604051634ca8886760e01b8152600490fd5b346103a6575f3660031901126103a6577f00000000000000000000000000000000000000000000000000000000000000006001600160a01b03163003611b9e5760206040515f805160206153368339815191528152f35b60405163703e46dd60e11b8152600490fd5b5f3660031901126103a6576001600160a01b03611bcb612b8a565b163303611b3557005b346103a6575f3660031901126103a657602060405160018152f35b346103a6575f3660031901126103a6575f80516020615336833981519152546040516001600160a01b039091168152602090f35b346103a6575f3660031901126103a6576020610753612d76565b346103a6575f3660031901126103a657602061112f612d84565b346103a65760203660031901126103a65760d180549081905f6004355b848210611ca557505050811015611c9a57610529905b6040519081529081906020820190565b506105295f19611c8a565b909193808316906001818518811c8301809311610ca9575f8790525f805160206153768339815191528301546001600160a01b0316841015611cec575050935b9190611c74565b909591019250611ce5565b346103a65760203660031901126103a657600435611d148161075b565b60018060a01b03165f5260d3602052602060405f2054604051908152f35b346103a6575f3660031901126103a657604051633eb1acf760e11b81523060048201526020816024817f00000000000000000000000000000000000000000000000000000000000000006001600160a01b03165afa8015610570576020915f91611da2575b506040519015158152f35b611db99150823d84116119cb576119bc81836105f4565b5f611d97565b346103a65760803660031901126103a657610529611df3600435611de28161075b565b606435906044359060243590612dd1565b604080519384526020840192909252908201529081906060820190565b346103a6576040806003193601126103a65760043560243591611e328361075b565b611e3a61522f565b8115611f1e576001600160a01b0383168015611f0d57611e5983612ac6565b928315611efc57611e68612b5b565b8411611eeb57611e9f8461052996611e90610f8b611e858461349f565b60cf5460801c612a84565b611e9a8433614dfc565b614009565b8251848152602081019190915233907f5cdf07ad0fc222442720b108e3ed4c4640f0fadc2ab2253e66f259a0fea8348090604090a3611edd33613a18565b519081529081906020820190565b82516396d8043360e01b8152600490fd5b82516318374fd160e21b8152600490fd5b815163d92e233d60e01b8152600490fd5b51636edcc52360e01b8152600490fd5b346103a65760203660031901126103a657600435611f4b8161075b565b60018060a01b03165f526003602052602060405f2054604051908152f35b346103a6575f3660031901126103a657602061ffff609c5460a01c16604051908152f35b346103a65760603660031901126103a657610529611df3604435602435600435612e4b565b346103a6576040806003193601126103a6576004359060243590611fd58261075b565b611fdd61396c565b8215611f1e576001600160a01b038216928315611f0d57610529936120be6120a28361202061201460d0546001600160801b031690565b6001600160801b031690565b816120806120358361203061524f565b612e3e565b89516001600160a01b03909b1660208c019081524260408d015260608c01829052909a61206f81608081015b03601f1981018352826105f4565b5190205f5260d260205260405f2090565b55335f90815260d36020526040902061209a838254612dc4565b90550161349f565b6001600160801b03166001600160801b031960d054161760d055565b82518481526020810183905233907f211091c5bf013c1230f996c3bb2bc327e3de429a3d3c356dcea9a0c858bc407f90604090a36120fb33613a18565b8151908152309033905f8051602061535683398151915290602090a3519081529081906020820190565b346103a6575f3660031901126103a6576040515f6001805461214681610575565b808552916020916001811690811561070b575060011461217057610529856106bb818703826105f4565b60015f90815293507fb10e2d527612073b26eecdfd717e6a320cf44b4afac2b0732d9fcbe2b7fa0cf65b8385106121b6575050505081016020016106bb826105296106ab565b805486860184015293820193810161219a565b346103a6575f3660031901126103a657602061010754604051908152f35b346103a6575f3660031901126103a657602061010854604051908152f35b346103a6576122577f2013570c343af8ab14a9778150e381a0fda34ed6368127a95fd5e7210cbec5bf61223736611195565b92906122416140a3565b6040519182916020835233956020840191612fdf565b0390a2005b346103a65760403660031901126103a65761228660043561227c8161075b565b602435903361476a565b61228f33613a18565b602060405160018152f35b346103a65760203660031901126103a6576004356122b78161075b565b6122bf6140a3565b6001600160a01b031680156107fc5761010980546001600160a01b03191682179055337fb710e1d0ebf395f895942ac4e559a4a86d57f748a90cf05e9d70798c67e9c65b5f80a3005b9181601f840112156103a6578235916001600160401b0383116103a6576020808501948460051b0101116103a657565b6020808201906020835283518092526040830192602060408460051b8301019501935f915b84831061236d5750505050505090565b909192939495848061238b600193603f198682030187528a51610636565b980193019301919493929061235d565b346103a65760203660031901126103a657600480356001600160401b0381116103a6576123cc903690600401612308565b916123d683613016565b925f5b8181106123ee57604051806105298782612338565b5f806123fb8385886130a5565b6040939161240d8551809381936130c5565b0390305af49061241b6130d2565b9115612442575090600191612430828861316c565b5261243b818761316c565b50016123d9565b848260448151106103a657612466818361247b930151602480918301019101613101565b925162461bcd60e51b8152928392830161065b565b0390fd5b346103a6575f3660031901126103a65761052960405161249e816105c1565b60058152640352e302e360dc1b6020820152604051918291602083526020830190610636565b346103a65760203660031901126103a65760206107536004356140b7565b60ff8116036103a657565b346103a65760e03660031901126103a65760043561250a8161075b565b6024356125168161075b565b60443590606435926084359061252b826124e2565b6001600160a01b038381169590929086156107fc574281106126fc576020915f9161261e61262a89878a6125e1612560612bc5565b6001600160a01b0384165f9081526003602052604090209097908054906001820190556040519586948d8601968791959493909260a09360c08401977f6e71edae12b1b97f4d1f60370fef10105fa2faae0126114a169c64845d6126c98552600180871b038092166020860152166040840152606083015260808201520152565b03916125f5601f19938481018352826105f4565b5190206040519384918983019687909160429261190160f01b8352600283015260228201520190565b039081018352826105f4565b5190206040805191825260ff92909216602082015260a4359181019190915260c435606082015281805260809060015afa15610570575f519282841680159081156126ef575b506126dd576126ca85916126b57f8c5be1e5ebec7d5bd14f71427d1e84f3dd0314c0f7b2291e5b200ac8c7c3b9259660018060a01b03165f52600260205260405f2090565b9060018060a01b03165f5260205260405f2090565b5560405193845216918060208101610fe7565b6040516323389ba560e21b8152600490fd5b905083831614155f612670565b604051631ab7da6b60e01b8152600490fd5b346103a6575f3660031901126103a65760206001600160801b0360d05416604051908152f35b60409060031901126103a65760043561274c8161075b565b9060243561066c8161075b565b346103a657602061279461276c36612734565b6001600160a01b039182165f9081526002855260408082209290931681526020919091522090565b54604051908152f35b346103a65760203660031901126103a6576100206004356127bd8161075b565b6127c56140a3565b614146565b908160a09103126103a65790565b346103a65760803660031901126103a6576001600160401b036004358181116103a6576128099036906004016127ca565b6024358281116103a657612821903690600401612308565b6044929192358481116103a65761283c903690600401612308565b916064359586116103a657612858610020963690600401612308565b95909461327c565b346103a6576040806003193601126103a6576004906001600160401b0382358181116103a65761289390369085016127ca565b906024359081116103a6576128ab9036908501612308565b9390926128b661398d565b7f00000000000000000000000000000000000000000000000000000000000000006001600160a01b0316803b156103a6575f8251809263837d444160e01b82528183816129058a8a83016131b1565b03925af18015610570576129e0575b506801bc16d674ec800000612927612b5b565b106129d3578083019360b061293c8686613073565b9050036129c557612990612994916101085497610107549061298361297b8b6129658c8c613073565b6120618b949294519384926020840196876133b1565b5190206133ce565b602081519101209261443c565b1590565b6129b8576100206001866129b16129ab8888613073565b90614474565b0161010855565b516309bde33960e01b8152fd5b5051631a0a9b9f60e21b8152fd5b516396d8043360e01b8152fd5b806110d46129ed926105e1565b5f612914565b346103a6575f3660031901126103a6576037546040516001600160a01b039091168152602090f35b6020610753612a2936612734565b90349061464f565b908160209103126103a6575190565b6040513d5f823e3d90fd5b90604051612a58816105c1565b91546001600160801b038116835260801c6020830152565b634e487b7160e01b5f52601160045260245ffd5b6001600160801b039182169082160391908211610ca957565b815160209092015160801b6001600160801b0319166001600160801b0392909216919091179055565b60cf546001600160801b0381169081612ade57505090565b9161066c9260801c9061356f565b612af5906136d7565b9080612b31575b50612b0357565b612b0b614cff565b80612b14575b50565b5f906040519081525f8051602061535683398151915260203092a3565b612b3a9061386d565b5f612afc565b9190916001600160801b0380809416911601918211610ca957565b4760d054612b716001600160801b038216612ac6565b9060801c01908181115f14612b84570390565b50505f90565b6101a1546001600160a01b03168015612ba05790565b507f000000000000000000000000000000000000000000000000000000000000000090565b467f000000000000000000000000000000000000000000000000000000000000000003612bf25760045490565b61066c613bd8565b908160209103126103a6575161066c8161075b565b359061ffff821682036103a657565b9080601f830112156103a65781602061066c9335910161181d565b60405163e7f6f22560e01b815290916020918281600481335afa908115610570575f91612d59575b50604051636f4fa30f60e01b8152918383600481335afa928315610570575f93612d2a575b50840183858203126103a65784356001600160401b03958682116103a657019060a0828203126103a657612cb86117d4565b9482358652612cc8818401612c0f565b9086015260408201358681116103a65781612ce4918401612c1e565b604086015260608201358681116103a65781612d01918401612c1e565b606086015260808201359586116103a65761180095612d209201612c1e565b6080840152613cfe565b612d4b919350843d8611612d52575b612d4381836105f4565b810190612bfa565b915f612c86565b503d612d39565b612d709150833d8511612d5257612d4381836105f4565b5f612c61565b60d4548061066c57505f1990565b610109546001600160a01b0390811680612da057506037541690565b905090565b801515036103a657565b908160209103126103a6575161066c81612da5565b91908203918211610ca957565b604080516001600160a01b039092166020830190815290820193909352606081018290529092612e21929091612e0a8160808101612061565b5190205f5260d260205260405f2054928391613e6e565b9091828103908111610ca95792565b9060018201809211610ca957565b91908201809211610ca957565b929190915f93612e7b7f000000000000000000000000000000000000000000000000000000000000000085612e3e565b4210612fb55760408051336020820190815291810186905260608082018490528152601f1991612ebc91612eb06080826105f4565b51902094868433612dd1565b9096909587878115612fa75750505f90815260d2602052604081205560018211612f60575b505050612f19612efe612ef38561349f565b60d05460801c612a84565b6001600160801b0360d0549181199060801b1691161760d055565b612f238333614009565b6040805191825260208201869052810183905233907feb3b05c070c24f667611fdb3ff75fe007d42401c573aed8d8faca95fd00ccb5690606090a2565b612f9e91929750612f718785612e3e565b6040805133602082019081529181019390935260608301829052909890919061206f90826080810161261e565b555f8080612ee1565b959950975093955050505050565b604051631613b7eb60e01b8152600490fd5b90603060609281835260208301375f60508201520190565b908060209392818452848401375f828201840152601f01601f1916010190565b6001600160401b0381116105dc5760051b60200190565b9061302082612fff565b61302d60405191826105f4565b828152809261303e601f1991612fff565b01905f5b82811061304e57505050565b806060602080938501015201613042565b634e487b7160e01b5f52603260045260245ffd5b903590601e19813603018212156103a657018035906001600160401b0382116103a6576020019181360383136103a657565b908210156130c0576130bc9160051b810190613073565b9091565b61305f565b908092918237015f815290565b3d156130fc573d906130e382611802565b916130f160405193846105f4565b82523d5f602084013e565b606090565b6020818303126103a6578051906001600160401b0382116103a6570181601f820112156103a657805161313381611802565b9261314160405194856105f4565b818452602082840101116103a65761066c9160208085019101610615565b8051156130c05760200190565b80518210156130c05760209160051b010190565b9035601e19823603018112156103a65701602081359101916001600160401b0382116103a65781360383136103a657565b9060a061066c926020815282356020820152602083013560408201526131ed6131dd6040850185613180565b84606085015260c0840191612fdf565b906132206132156132016060870187613180565b601f19858703810160808701529591612fdf565b946080810190613180565b93909282860301910152612fdf565b906801bc16d674ec8000009180830292830403610ca957565b90670de0b6b3a764000091828102928184041490151715610ca957565b9061271091828102928184041490151715610ca957565b92909493919561328a61398d565b7f00000000000000000000000000000000000000000000000000000000000000006001600160a01b031695863b156103a6576040965f8851809263837d444160e01b82528183816132de8c600483016131b1565b03925af180156105705761339e575b506132f6612b5b565b6132ff8961322f565b1161338d5787158015613373575b613362579161333e95939161333889612990979561333261010754978c810190613073565b906142b6565b9461442a565b613352575061180090610108540161010855565b516309bde33960e01b8152600490fd5b8651631c6c4cf360e31b8152600490fd5b5061338087860186613073565b905060b08902141561330d565b86516396d8043360e01b8152600490fd5b806110d46133ab926105e1565b5f6132ed565b9392916020916133c991604087526040870191612fdf565b930152565b9060405191602083015260208252611800826105c1565b612b113433614587565b60405163752a536d60e01b81526020816004817f00000000000000000000000000000000000000000000000000000000000000006001600160a01b03165afa908115610570575f91613480575b5060208201916001600160801b03918284511691828214613479578361346c6104a061347495858486511661356f565b16905261349f565b169052565b5050505050565b613499915060203d6020116105695761055a81836105f4565b5f61343c565b6001600160801b03908181116134b3571690565b604490604051906306dfcc6560e41b8252608060048301526024820152fd5b634e487b7160e01b5f52601260045260245ffd5b81156134f0570490565b6134d2565b90808202905f1981840990828083109203918083039214613564576127109082821115613552577fbc01a36e2eb1c432ca57a786c226809d495182a9930be0ded288ce703afb7e91940990828211900360fc1b910360041c170290565b60405163227bc15360e01b8152600490fd5b505061271091500490565b9091828202915f19848209938380861095039480860395146135e2578483111561355257829109815f038216809204600280826003021880830282030280830282030280830282030280830282030280830282030280920290030293600183805f03040190848311900302920304170290565b50509061066c92506134e6565b908160609103126103a6578051916040602083015192015161066c81612da5565b81835290916001600160fb1b0383116103a65760209260051b809284830137010190565b90602082528035602083015260208101358060130b8091036103a657604083015260408101356136638161075b565b6001600160a01b031660608381019190915281013536829003601e19018112156103a65701602081359101906001600160401b0381116103a6578060051b360382136103a65760a08360808061066c9601520191613610565b9190915f8382019384129112908015821691151617610ca957565b6040516325f56f1160e01b81526001600160a01b039291606090829081906137029060048301613634565b03815f877f0000000000000000000000000000000000000000000000000000000000000000165af1928315610570575f915f905f95613828575b5084156137d5578161374c612b8a565b16917f00000000000000000000000000000000000000000000000000000000000000001682146137ce57509060205f92600460405180958193634641257d60e01b83525af1908115610570576137a9925f926137ad575b506136bc565b9190565b6137c791925060203d6020116105695761055a81836105f4565b905f6137a3565b90816137db575b50509190565b803b156103a657604051636ee3193160e11b815260048101929092525f908290602490829084905af1801561057057613815575b806137d5565b806110d4613822926105e1565b5f61380f565b9194505061384e915060603d606011613856575b61384681836105f4565b8101906135ef565b93905f61373c565b503d61383c565b600160ff1b8114610ca9575f0390565b61387c61201460cf5460801c90565b5f8212613953578161388d91612e3e565b9061389a610f8b8361349f565b6138af609c549161ffff8360a01c16906134f5565b801561394e57807f555ee6b2ef9506d870f386c067e47d3689435330b012ad263d8cc35318686547936138ed61201460cf546001600160801b031690565b8061393857505061393390925b6001600160a01b03169161390e8484614c97565b60405193849384604091949392606082019560018060a01b0316825260208201520152565b0390a1565b613933926139489203908461356f565b926138fa565b505050565b6104a0610f8b916139666118009461385d565b90612dc4565b6139746146fb565b1561397b57565b604051630a62fbdb60e11b8152600490fd5b604051633eb1acf760e11b81523060048201526020816024817f00000000000000000000000000000000000000000000000000000000000000006001600160a01b03165afa908115610570575f916139f9575b506139e757565b60405163e775715160e01b8152600490fd5b613a12915060203d6020116119cb576119bc81836105f4565b5f6139e0565b6001600160a01b0381165f90815261016e60205260409020613a3990612a4b565b906001600160801b03613a5383516001600160801b031690565b1615613bad57610a01613a8a91613a6861398d565b613a71846133ef565b6001600160a01b03165f90815260d36020526040902090565b604051631331885160e31b8152602092916001600160a01b0384836004817f000000000000000000000000000000000000000000000000000000000000000085165afa91821561057057613aed8693613afb92613b27965f92613b9557506134f5565b94516001600160801b031690565b6040516303d1689d60e11b81526001600160801b03909116600482015292839190829081906024820190565b03917f0000000000000000000000000000000000000000000000000000000000000000165afa928315610570575f93613b76575b505010613b6457565b604051633684c65960e01b8152600490fd5b613b8d929350803d106105695761055a81836105f4565b905f80613b5b565b610b73919250863d88116105695761055a81836105f4565b5050565b908160a09103126103a6578051916020820151916040810151916080606083015192015190565b6040515f905f5490613be982610575565b9283825260209384830193600190866001821691825f14613cde575050600114613c9b575b50509181613c24613c95936120619503826105f4565b519020604080517f8b73c3c69bb8fe3d512ecc4cf759cc79239f7b179b0ffacaa9a75d522b39400f95810195865260208601929092527fc89efdaa54c0f20c7adf612882df0950f5a951637e0307cdcb4c672f298b8bc69085015246606085015230608085015291829060a0850190565b51902090565b5f80805286935091905f805160206153168339815191525b828410613cc95750505082010181613c24613c0e565b80548685018601528794909301928101613cb3565b60ff1916875292151560051b85019092019250839150613c249050613c0e565b919091613d096147e6565b6080820151613d166147e6565b603780546001600160a01b0319166001600160a01b03841617905560405133917f2013570c343af8ab14a9778150e381a0fda34ed6368127a95fd5e7210cbec5bf91908190613d65908261065b565b0390a2602082015192613d766147e6565b61271061ffff851611613dde57613dd693613d93613dc693614146565b609c549061ffff60a01b9060a01b169061ffff60a01b191617609c55613db98351614814565b613dc1614844565b614865565b6060604082015191015190614894565b6118006149c1565b604051638a81d3b360e01b8152600490fd5b6001600160a01b037f00000000000000000000000000000000000000000000000000000000000000008116308114918215613e2e575b5050611b9e57565b5f805160206153368339815191525416141590505f80613e26565b90604051613e56816105c1565b91546001600160a01b038116835260a01c6020830152565b60d1545f948594939091808410801590614001575b613ff45783613fbe575f5b60d15f526001600160a01b0316613eb35f805160206153768339815191528601613e49565b8051909790613eca906001600160a01b0316611ac6565b98613eef613ee36020809b01516001600160601b031690565b6001600160601b031690565b948381108015613fb4575b613fa25791600193979a95613f19613f25939488035b838c0390614ae4565b8092019887039161356f565b01970193808611801590613f98575b613f8d5760d15f528290613f565f805160206153768339815191528701613e49565b805190890151969992966001600160a01b039091169460019392613f259290916001600160601b0390911690613f19908803613f10565b945050509250509190565b5081851015613f34565b60405163e8722f8f60e01b8152600490fd5b50808b1115613efa565b60d15f527f695fb3134ad82c3b8022bc5464edd0bcc9424ef672b52245dcb6ab2374327ce28401546001600160a01b0316613e8e565b505093505050505f905f90565b508415613e83565b907f9b779b17422d0df92223018b32b4d1fa46e071723d6817e2486d003becc55f009160028354146140915760028355814710614079575f918291829182916001600160a01b03165af161405b6130d2565b50156140675760019055565b604051630a12f52160e11b8152600490fd5b60405163cd78605960e01b8152306004820152602490fd5b604051633ee5aeb560e01b8152600490fd5b6037546001600160a01b03163303611b3557565b60cf54906001600160801b038216811580156140e6575b156140d95750905090565b61066c9260801c9161356f565b5080156140ce565b60cf546001600160801b038116908215801561413e575b1561410f57505090565b60801c9061411e82828561356f565b9282156134f0570961412d5790565b600181018091111561066c57612a70565b508115614105565b61414e61398d565b6001600160a01b0316801561419657609c80546001600160a01b03191682179055337faaebcf1bfa00580e41d966056b48521fa9f202645c86d4ddf28113e617c1b1d35f80a3565b604051630ed1b8b360e31b8152600490fd5b906141b282612fff565b6141bf60405191826105f4565b82815280926141d0601f1991612fff565b0190602036910137565b906030116103a65790603090565b906090116103a65760300190606090565b9060b0116103a65760900190602090565b909392938483116103a65784116103a6578101920390565b90156130c05790565b91908110156130c05760051b0190565b359060208110614249575090565b5f199060200360031b1b1690565b969594906133c993614278614286926060979560808c5260808c0191612fdf565b9089820360208b0152610636565b918783036040890152612fdf565b90602061066c928181520190612fc7565b91602061066c938181520191612fdf565b9193929061010854925f925f906142cc816141a8565b976142d5614af1565b935f9760018060a01b037f000000000000000000000000000000000000000000000000000000000000000016945b848a106143165750505050505050505050565b60b061432691018099898561420a565b9960409a8d6143628d5161434a6020918281019061297b816120618c8a8d876133b1565b80519101209161435b858b8b61422b565b359061316c565b5261436d81846141da565b909361438d61438761437f85846141e8565b9590936141f9565b9061423b565b908a3b156103a6578b8f5f936143b8915196879485946304512a2360e31b8652888c60048801614257565b03816801bc16d674ec8000008d5af19384156105705761440b60018e7f64b6e61d93b7a91e8cc4376183ede0997a27b44fd9dd2f30a866b2a5730efdb1958298614417575b5097019e51928392836142a5565b0390a101989097614303565b806110d4614424926105e1565b5f6143fd565b906144389495939291614b32565b1490565b9192915f915b808310614450575050501490565b90919261446b60019161446486858761422b565b35906150b1565b93019190614442565b816030116103a657614387917f00000000000000000000000000000000000000000000000000000000000000006001600160a01b03166144b2614af1565b906144c96144c084866141e8565b969094866141f9565b94813b156103a6576801bc16d674ec8000005f9461452f97604051988996879586946304512a2360e31b86526080600487015261452061450d8d6084890190612fc7565b60031994858983030160248a0152610636565b92868403016044870152612fdf565b90606483015203925af1908115610570577f64b6e61d93b7a91e8cc4376183ede0997a27b44fd9dd2f30a866b2a5730efdb19261393392614578575b5060405191829182614294565b614581906105e1565b5f61456b565b919061459161398d565b6001600160a01b0383169081156107fc57801561463d57806145b861201460cf5460801c90565b01936145c2612d76565b851161462b57610f8b946145e9916145e46145dc856140ee565b97889361349f565b614c97565b60408051918252602082018590525f9082015233907f861a4138e41fb21c121a7dbb1053df465c837fc77380cc7226189a662281be2c9080606081015b0390a3565b6040516304ffa0ff60e51b8152600490fd5b6040516318374fd160e21b8152600490fd5b9092919261465b61398d565b6001600160a01b0382169182156107fc57811561463d578161468261201460cf5460801c90565b0161468b612d76565b811161462b57610f8b956146d2614626927f861a4138e41fb21c121a7dbb1053df465c837fc77380cc7226189a662281be2c946145e46146ca886140ee565b9a8b9361349f565b60408051948552602085018890526001600160a01b039091169084015233929081906060820190565b604051630156a69560e11b81523060048201526020816024817f00000000000000000000000000000000000000000000000000000000000000006001600160a01b03165afa908115610570575f91614751575090565b61066c915060203d6020116119cb576119bc81836105f4565b6001600160a01b039081169190821580156147dc575b6107fc57825f5260d360205260405f2090815492858403938411610ca9575f8051602061535683398151915293602093556147cb8160018060a01b03165f5260d360205260405f2090565b8681540190556040519586521693a3565b5080821615614780565b60ff5f805160206153968339815191525460401c161561480257565b604051631afcd79f60e31b8152600490fd5b61481c6147e6565b8015614832576001810161482d5750565b60d455565b6040516331278a8760e01b8152600490fd5b61484c6147e6565b6801bc16d674ec80000061485e612d76565b1061483257565b61486d6147e6565b6001600160a01b03168061487e5750565b6101a180546001600160a01b0319169091179055565b61489c6147e6565b601e81511180156149b6575b6149a4576148b46147e6565b8051906001600160401b0382116105dc576148d8826148d35f54610575565b614e67565b602090816001601f8511146149305750918061490e9261491595945f92614925575b50508160011b915f199060031b1c19161790565b5f55614f31565b611800614920613bd8565b600455565b015190505f806148fa565b5f80529190601f1984165f80516020615316833981519152935f905b82821061498c57505091600193918561491597969410614974575b505050811b015f55614f31565b01515f1960f88460031b161c191690555f8080614967565b8060018697829497870151815501960194019061494c565b604051632d3f993760e21b8152600490fd5b50600a8251116148a8565b6149c96147e6565b6149d16147e6565b6149d96147e6565b60017f9b779b17422d0df92223018b32b4d1fa46e071723d6817e2486d003becc55f0055633b9aca003410614a1257612b113430614587565b60405163ea2559bb60e01b8152600490fd5b908160209103126103a6575161066c816124e2565b6040516352d1902d60e01b81529290916020846004816001600160a01b0387165afa5f9481614ac3575b50614a8957604051634c9c8ce360e01b81526001600160a01b0384166004820152602490fd5b90915f805160206153368339815191528403614aaa5761180092935061500f565b604051632a87526960e21b815260048101859052602490fd5b614add91955060203d6020116105695761055a81836105f4565b935f614a63565b9080821015612da0575090565b604051600160f81b60208201525f60218201523060601b602c8201526020815261066c816105c1565b5f198114610ca95760010190565b3561066c81612da5565b9293919091805193614b448486612e3e565b614b4d87612e30565b03614b8f57614b5b866141a8565b945f8094885f965f5b828110614bc7575050159150614ba190505750505003614b8f57614b8b915f19019061316c565b5190565b604051631a8a024960e11b8152600490fd5b919550929350159050614bb9575050614b8b9061315f565b614bc39250614222565b3590565b8a86861015614c7a5750614bf9614bf482614beb614be489614b1a565b988c61316c565b51955b8761422b565b614b28565b15614c5f578a86861015614c3e5750614c2a60019293614c22614c1b88614b1a565b978b61316c565b515b906150b1565b614c34828d61316c565b5201908a91614b64565b92614c2a90614c5984614c5360019691614b1a565b9661316c565b51614c24565b614c2a60019293614464614c728c614b1a565b9b8d8b61422b565b91614bf482614c9083614c53614bf99591614b1a565b5195614bee565b5f8051602061535683398151915260205f92614cb28561349f565b60cf5490614cca6001600160801b0391828416612b40565b6001600160801b031990921691161760cf556001600160a01b031680845260d3825260408085208054870190555194855293a3565b60d054906001600160801b038216918215614df65760801c614d33614d248247612dc4565b614d2d85612ac6565b90614ae4565b908115614def57614d43826140b7565b938415614de75782614d6f612efe6104a061180096610f8b966120306120a26104a08d611e859a612dc4565b614d79818761512b565b60408051878152602081018390527f624ea167e477f9d39f7f4094b9dfe2e6346eb4a7aada54338db51abd554c4b9f9190a16104a0614dcb614dba8861349f565b60cf546001600160801b0316612a84565b6001600160801b03166001600160801b031960cf54161760cf55565b505f93505050565b505f925050565b505f9150565b6001600160a01b03165f81815260d360205260409020805483810391908211610ca9575f935f805160206153568339815191529260209255614e3d8161349f565b60cf54906001600160801b03908183160316906001600160801b0319161760cf55604051908152a3565b601f8111614e73575050565b5f80525f80516020615316833981519152906020601f840160051c83019310614eb6575b601f0160051c01905b818110614eab575050565b5f8155600101614ea0565b9091508190614e97565b90601f8211614ecd575050565b60019160015f527fb10e2d527612073b26eecdfd717e6a320cf44b4afac2b0732d9fcbe2b7fa0cf6906020601f840160051c83019310614f27575b601f0160051c01905b818110614f1d57505050565b5f81558201614f11565b9091508190614f08565b9081516001600160401b0381116105dc57600190614f5881614f538454610575565b614ec0565b602080601f8311600114614f8d57508190614f899394955f926149255750508160011b915f199060031b1c19161790565b9055565b90601f19831695614fbf60015f527fb10e2d527612073b26eecdfd717e6a320cf44b4afac2b0732d9fcbe2b7fa0cf690565b925f905b888210614ff85750508385969710614fe0575b505050811b019055565b01515f1960f88460031b161c191690555f8080614fd6565b808785968294968601518155019501930190614fc3565b90813b15615090575f8051602061533683398151915280546001600160a01b0319166001600160a01b0384169081179091557fbc7cd75a20ee27fd9adebab32041f755214dbc6bffa90cc0225b39da2e5c2d3b5f80a280511561507557612b1191615212565b50503461507e57565b60405163b398979f60e01b8152600490fd5b604051634c9c8ce360e01b81526001600160a01b0383166004820152602490fd5b818110156150c5575f5260205260405f2090565b905f5260205260405f2090565b60d15490600160401b8210156105dc57600182018060d1558210156130c05760d15f52805160209091015160a01b6001600160a01b0319166001600160a01b0391909116175f8051602061537683398151915290910155565b908115801561520a575b6151f85760d154806151c257505f905b6001600160a01b03918216928301928310610ca9578183116151a257611800929161518d61517561519d93615291565b9161517e6117f3565b94166001600160a01b03168452565b6001600160601b03166020830152565b6150d2565b6040516306dfcc6560e41b815260a0600482015260248101849052604490fd5b60d15f527f695fb3134ad82c3b8022bc5464edd0bcc9424ef672b52245dcb6ab2374327ce201546001600160a01b031690615145565b604051632ec8835b60e21b8152600490fd5b508015615135565b5f8061066c93602081519101845af46152296130d2565b916152c4565b6152376146fb565b61523d57565b6040516389a1dc6360e01b8152600490fd5b60d1548061525c57505f90565b60d15f527f695fb3134ad82c3b8022bc5464edd0bcc9424ef672b52245dcb6ab2374327ce201546001600160a01b0316611ac6565b6001600160601b03908181116152a5571690565b604490604051906306dfcc6560e41b8252606060048301526024820152fd5b906152d9575080511561406757805190602001fd5b8151158061530c575b6152ea575090565b604051639996b31560e01b81526001600160a01b039091166004820152602490fd5b50803b156152e256fe290decd9548b62a8d60345a988386fc84ba6bc95484008f6362f93160ef3e563360894a13ba1a3210667c828492db98dca3e2076cc3735a920a3ca505d382bbcddf252ad1be2c89b69c2b068fc378daa952ba7f163c4a11628f55a4df523b3ef695fb3134ad82c3b8022bc5464edd0bcc9424ef672b52245dcb6ab2374327ce3f0c57e16840df040f15088dc2f81fe391c3923bec73e23a9662efc9c229c6a00a26469706673582212201b7a2a4606a5e03acc6b226b34e17aaa62090ae9ec2eb74766012a9b7091a63064736f6c63430008160033",
  "linkReferences": {},
  "deployedLinkReferences": {}
}