{
  "_format": "hh-sol-artifact-1",
  "contractName": "EthErc20Vault",
  "sourceName": "contracts/vaults/ethereum/EthErc20Vault.sol",
  "abi": [
    {
      "inputs": [
        {
          "internalType": "address",
          "name": "_keeper",
          "type": "address"
        },
        {
          "internalType": "address",
          "name": "_vaultsRegistry",
          "type": "address"
        },
        {
          "internalType": "address",
          "name": "_validatorsRegistry",
          "type": "address"
        },
        {
          "internalType": "address",
          "name": "osTokenVaultController",
          "type": "address"
        },
        {
          "internalType": "address",
          "name": "osTokenConfig",
          "type": "address"
        },
        {
          "internalType": "address",
          "name": "sharedMevEscrow",
          "type": "address"
        },
        {
          "internalType": "address",
          "name": "depositDataRegistry",
          "type": "address"
        },
        {
          "internalType": "uint256",
          "name": "exitingAssetsClaimDelay",
          "type": "uint256"
        }
      ],
      "stateMutability": "nonpayable",
      "type": "constructor"
    },
    {
      "inputs": [],
      "name": "AccessDenied",
      "type": "error"
    },
    {
      "inputs": [
        {
          "internalType": "address",
          "name": "target",
          "type": "address"
        }
      ],
      "name": "AddressEmptyCode",
      "type": "error"
    },
    {
      "inputs": [
        {
          "internalType": "address",
          "name": "account",
          "type": "address"
        }
      ],
      "name": "AddressInsufficientBalance",
      "type": "error"
    },
    {
      "inputs": [],
      "name": "CapacityExceeded",
      "type": "error"
    },
    {
      "inputs": [],
      "name": "DeadlineExpired",
      "type": "error"
    },
    {
      "inputs": [
        {
          "internalType": "address",
          "name": "implementation",
          "type": "address"
        }
      ],
      "name": "ERC1967InvalidImplementation",
      "type": "error"
    },
    {
      "inputs": [],
      "name": "ERC1967NonPayable",
      "type": "error"
    },
    {
      "inputs": [],
      "name": "ExitRequestNotProcessed",
      "type": "error"
    },
    {
      "inputs": [],
      "name": "FailedInnerCall",
      "type": "error"
    },
    {
      "inputs": [],
      "name": "InsufficientAssets",
      "type": "error"
    },
    {
      "inputs": [],
      "name": "InvalidAssets",
      "type": "error"
    },
    {
      "inputs": [],
      "name": "InvalidCapacity",
      "type": "error"
    },
    {
      "inputs": [],
      "name": "InvalidCheckpointIndex",
      "type": "error"
    },
    {
      "inputs": [],
      "name": "InvalidCheckpointValue",
      "type": "error"
    },
    {
      "inputs": [],
      "name": "InvalidFeePercent",
      "type": "error"
    },
    {
      "inputs": [],
      "name": "InvalidFeeRecipient",
      "type": "error"
    },
    {
      "inputs": [],
      "name": "InvalidHealthFactor",
      "type": "error"
    },
    {
      "inputs": [],
      "name": "InvalidInitialization",
      "type": "error"
    },
    {
      "inputs": [],
      "name": "InvalidPosition",
      "type": "error"
    },
    {
      "inputs": [],
      "name": "InvalidReceivedAssets",
      "type": "error"
    },
    {
      "inputs": [],
      "name": "InvalidSecurityDeposit",
      "type": "error"
    },
    {
      "inputs": [],
      "name": "InvalidShares",
      "type": "error"
    },
    {
      "inputs": [],
      "name": "InvalidTokenMeta",
      "type": "error"
    },
    {
      "inputs": [],
      "name": "InvalidValidators",
      "type": "error"
    },
    {
      "inputs": [],
      "name": "LiquidationDisabled",
      "type": "error"
    },
    {
      "inputs": [],
      "name": "LowLtv",
      "type": "error"
    },
    {
      "inputs": [],
      "name": "MathOverflowedMulDiv",
      "type": "error"
    },
    {
      "inputs": [],
      "name": "NotCollateralized",
      "type": "error"
    },
    {
      "inputs": [],
      "name": "NotHarvested",
      "type": "error"
    },
    {
      "inputs": [],
      "name": "NotInitializing",
      "type": "error"
    },
    {
      "inputs": [],
      "name": "PermitInvalidSigner",
      "type": "error"
    },
    {
      "inputs": [],
      "name": "ReentrancyGuardReentrantCall",
      "type": "error"
    },
    {
      "inputs": [
        {
          "internalType": "uint8",
          "name": "bits",
          "type": "uint8"
        },
        {
          "internalType": "uint256",
          "name": "value",
          "type": "uint256"
        }
      ],
      "name": "SafeCastOverflowedUintDowncast",
      "type": "error"
    },
    {
      "inputs": [],
      "name": "UUPSUnauthorizedCallContext",
      "type": "error"
    },
    {
      "inputs": [
        {
          "internalType": "bytes32",
          "name": "slot",
          "type": "bytes32"
        }
      ],
      "name": "UUPSUnsupportedProxiableUUID",
      "type": "error"
    },
    {
      "inputs": [],
      "name": "UpgradeFailed",
      "type": "error"
    },
    {
      "inputs": [],
      "name": "ZeroAddress",
      "type": "error"
    },
    {
      "anonymous": false,
      "inputs": [
        {
          "indexed": true,
          "internalType": "address",
          "name": "owner",
          "type": "address"
        },
        {
          "indexed": true,
          "internalType": "address",
          "name": "spender",
          "type": "address"
        },
        {
          "indexed": false,
          "internalType": "uint256",
          "name": "value",
          "type": "uint256"
        }
      ],
      "name": "Approval",
      "type": "event"
    },
    {
      "anonymous": false,
      "inputs": [
        {
          "indexed": false,
          "internalType": "uint256",
          "name": "shares",
          "type": "uint256"
        },
        {
          "indexed": false,
          "internalType": "uint256",
          "name": "assets",
          "type": "uint256"
        }
      ],
      "name": "CheckpointCreated",
      "type": "event"
    },
    {
      "anonymous": false,
      "inputs": [
        {
          "indexed": true,
          "internalType": "address",
          "name": "caller",
          "type": "address"
        },
        {
          "indexed": true,
          "internalType": "address",
          "name": "receiver",
          "type": "address"
        },
        {
          "indexed": false,
          "internalType": "uint256",
          "name": "assets",
          "type": "uint256"
        },
        {
          "indexed": false,
          "internalType": "uint256",
          "name": "shares",
          "type": "uint256"
        },
        {
          "indexed": false,
          "internalType": "address",
          "name": "referrer",
          "type": "address"
        }
      ],
      "name": "Deposited",
      "type": "event"
    },
    {
      "anonymous": false,
      "inputs": [
        {
          "indexed": true,
          "internalType": "address",
          "name": "owner",
          "type": "address"
        },
        {
          "indexed": true,
          "internalType": "address",
          "name": "receiver",
          "type": "address"
        },
        {
          "indexed": false,
          "internalType": "uint256",
          "name": "positionTicket",
          "type": "uint256"
        },
        {
          "indexed": false,
          "internalType": "uint256",
          "name": "shares",
          "type": "uint256"
        }
      ],
      "name": "ExitQueueEntered",
      "type": "event"
    },
    {
      "anonymous": false,
      "inputs": [
        {
          "indexed": true,
          "internalType": "address",
          "name": "receiver",
          "type": "address"
        },
        {
          "indexed": false,
          "internalType": "uint256",
          "name": "prevPositionTicket",
          "type": "uint256"
        },
        {
          "indexed": false,
          "internalType": "uint256",
          "name": "newPositionTicket",
          "type": "uint256"
        },
        {
          "indexed": false,
          "internalType": "uint256",
          "name": "withdrawnAssets",
          "type": "uint256"
        }
      ],
      "name": "ExitedAssetsClaimed",
      "type": "event"
    },
    {
      "anonymous": false,
      "inputs": [
        {
          "indexed": false,
          "internalType": "uint256",
          "name": "penalty",
          "type": "uint256"
        }
      ],
      "name": "ExitingAssetsPenalized",
      "type": "event"
    },
    {
      "anonymous": false,
      "inputs": [
        {
          "indexed": true,
          "internalType": "address",
          "name": "caller",
          "type": "address"
        },
        {
          "indexed": true,
          "internalType": "address",
          "name": "feeRecipient",
          "type": "address"
        }
      ],
      "name": "FeeRecipientUpdated",
      "type": "event"
    },
    {
      "anonymous": false,
      "inputs": [
        {
          "indexed": false,
          "internalType": "address",
          "name": "receiver",
          "type": "address"
        },
        {
          "indexed": false,
          "internalType": "uint256",
          "name": "shares",
          "type": "uint256"
        },
        {
          "indexed": false,
          "internalType": "uint256",
          "name": "assets",
          "type": "uint256"
        }
      ],
      "name": "FeeSharesMinted",
      "type": "event"
    },
    {
      "anonymous": false,
      "inputs": [
        {
          "indexed": false,
          "internalType": "uint64",
          "name": "version",
          "type": "uint64"
        }
      ],
      "name": "Initialized",
      "type": "event"
    },
    {
      "anonymous": false,
      "inputs": [
        {
          "indexed": true,
          "internalType": "address",
          "name": "caller",
          "type": "address"
        },
        {
          "indexed": true,
          "internalType": "address",
          "name": "keysManager",
          "type": "address"
        }
      ],
      "name": "KeysManagerUpdated",
      "type": "event"
    },
    {
      "anonymous": false,
      "inputs": [
        {
          "indexed": true,
          "internalType": "address",
          "name": "caller",
          "type": "address"
        },
        {
          "indexed": false,
          "internalType": "string",
          "name": "metadataIpfsHash",
          "type": "string"
        }
      ],
      "name": "MetadataUpdated",
      "type": "event"
    },
    {
      "anonymous": false,
      "inputs": [
        {
          "indexed": true,
          "internalType": "address",
          "name": "caller",
          "type": "address"
        },
        {
          "indexed": false,
          "internalType": "uint256",
          "name": "assets",
          "type": "uint256"
        },
        {
          "indexed": false,
          "internalType": "uint256",
          "name": "shares",
          "type": "uint256"
        }
      ],
      "name": "OsTokenBurned",
      "type": "event"
    },
    {
      "anonymous": false,
      "inputs": [
        {
          "indexed": true,
          "internalType": "address",
          "name": "caller",
          "type": "address"
        },
        {
          "indexed": true,
          "internalType": "address",
          "name": "user",
          "type": "address"
        },
        {
          "indexed": false,
          "internalType": "address",
          "name": "receiver",
          "type": "address"
        },
        {
          "indexed": false,
          "internalType": "uint256",
          "name": "osTokenShares",
          "type": "uint256"
        },
        {
          "indexed": false,
          "internalType": "uint256",
          "name": "shares",
          "type": "uint256"
        },
        {
          "indexed": false,
          "internalType": "uint256",
          "name": "receivedAssets",
          "type": "uint256"
        }
      ],
      "name": "OsTokenLiquidated",
      "type": "event"
    },
    {
      "anonymous": false,
      "inputs": [
        {
          "indexed": true,
          "internalType": "address",
          "name": "caller",
          "type": "address"
        },
        {
          "indexed": false,
          "internalType": "address",
          "name": "receiver",
          "type": "address"
        },
        {
          "indexed": false,
          "internalType": "uint256",
          "name": "assets",
          "type": "uint256"
        },
        {
          "indexed": false,
          "internalType": "uint256",
          "name": "shares",
          "type": "uint256"
        },
        {
          "indexed": false,
          "internalType": "address",
          "name": "referrer",
          "type": "address"
        }
      ],
      "name": "OsTokenMinted",
      "type": "event"
    },
    {
      "anonymous": false,
      "inputs": [
        {
          "indexed": true,
          "internalType": "address",
          "name": "caller",
          "type": "address"
        },
        {
          "indexed": true,
          "internalType": "address",
          "name": "user",
          "type": "address"
        },
        {
          "indexed": false,
          "internalType": "address",
          "name": "receiver",
          "type": "address"
        },
        {
          "indexed": false,
          "internalType": "uint256",
          "name": "osTokenShares",
          "type": "uint256"
        },
        {
          "indexed": false,
          "internalType": "uint256",
          "name": "shares",
          "type": "uint256"
        },
        {
          "indexed": false,
          "internalType": "uint256",
          "name": "assets",
          "type": "uint256"
        }
      ],
      "name": "OsTokenRedeemed",
      "type": "event"
    },
    {
      "anonymous": false,
      "inputs": [
        {
          "indexed": true,
          "internalType": "address",
          "name": "owner",
          "type": "address"
        },
        {
          "indexed": true,
          "internalType": "address",
          "name": "receiver",
          "type": "address"
        },
        {
          "indexed": false,
          "internalType": "uint256",
          "name": "assets",
          "type": "uint256"
        },
        {
          "indexed": false,
          "internalType": "uint256",
          "name": "shares",
          "type": "uint256"
        }
      ],
      "name": "Redeemed",
      "type": "event"
    },
    {
      "anonymous": false,
      "inputs": [
        {
          "indexed": true,
          "internalType": "address",
          "name": "from",
          "type": "address"
        },
        {
          "indexed": true,
          "internalType": "address",
          "name": "to",
          "type": "address"
        },
        {
          "indexed": false,
          "internalType": "uint256",
          "name": "value",
          "type": "uint256"
        }
      ],
      "name": "Transfer",
      "type": "event"
    },
    {
      "anonymous": false,
      "inputs": [
        {
          "indexed": true,
          "internalType": "address",
          "name": "implementation",
          "type": "address"
        }
      ],
      "name": "Upgraded",
      "type": "event"
    },
    {
      "anonymous": false,
      "inputs": [
        {
          "indexed": true,
          "internalType": "address",
          "name": "owner",
          "type": "address"
        },
        {
          "indexed": true,
          "internalType": "address",
          "name": "receiver",
          "type": "address"
        },
        {
          "indexed": false,
          "internalType": "uint256",
          "name": "positionTicket",
          "type": "uint256"
        },
        {
          "indexed": false,
          "internalType": "uint256",
          "name": "shares",
          "type": "uint256"
        },
        {
          "indexed": false,
          "internalType": "uint256",
          "name": "assets",
          "type": "uint256"
        }
      ],
      "name": "V2ExitQueueEntered",
      "type": "event"
    },
    {
      "anonymous": false,
      "inputs": [
        {
          "indexed": false,
          "internalType": "bytes",
          "name": "publicKey",
          "type": "bytes"
        }
      ],
      "name": "ValidatorRegistered",
      "type": "event"
    },
    {
      "anonymous": false,
      "inputs": [
        {
          "indexed": true,
          "internalType": "address",
          "name": "caller",
          "type": "address"
        },
        {
          "indexed": true,
          "internalType": "address",
          "name": "validatorsManager",
          "type": "address"
        }
      ],
      "name": "ValidatorsManagerUpdated",
      "type": "event"
    },
    {
      "anonymous": false,
      "inputs": [
        {
          "indexed": true,
          "internalType": "address",
          "name": "caller",
          "type": "address"
        },
        {
          "indexed": true,
          "internalType": "bytes32",
          "name": "validatorsRoot",
          "type": "bytes32"
        }
      ],
      "name": "ValidatorsRootUpdated",
      "type": "event"
    },
    {
      "inputs": [],
      "name": "DOMAIN_SEPARATOR",
      "outputs": [
        {
          "internalType": "bytes32",
          "name": "",
          "type": "bytes32"
        }
      ],
      "stateMutability": "view",
      "type": "function"
    },
    {
      "inputs": [],
      "name": "UPGRADE_INTERFACE_VERSION",
      "outputs": [
        {
          "internalType": "string",
          "name": "",
          "type": "string"
        }
      ],
      "stateMutability": "view",
      "type": "function"
    },
    {
      "inputs": [],
      "name": "admin",
      "outputs": [
        {
          "internalType": "address",
          "name": "",
          "type": "address"
        }
      ],
      "stateMutability": "view",
      "type": "function"
    },
    {
      "inputs": [
        {
          "internalType": "address",
          "name": "",
          "type": "address"
        },
        {
          "internalType": "address",
          "name": "",
          "type": "address"
        }
      ],
      "name": "allowance",
      "outputs": [
        {
          "internalType": "uint256",
          "name": "",
          "type": "uint256"
        }
      ],
      "stateMutability": "view",
      "type": "function"
    },
    {
      "inputs": [
        {
          "internalType": "address",
          "name": "spender",
          "type": "address"
        },
        {
          "internalType": "uint256",
          "name": "amount",
          "type": "uint256"
        }
      ],
      "name": "approve",
      "outputs": [
        {
          "internalType": "bool",
          "name": "",
          "type": "bool"
        }
      ],
      "stateMutability": "nonpayable",
      "type": "function"
    },
    {
      "inputs": [
        {
          "internalType": "address",
          "name": "account",
          "type": "address"
        }
      ],
      "name": "balanceOf",
      "outputs": [
        {
          "internalType": "uint256",
          "name": "",
          "type": "uint256"
        }
      ],
      "stateMutability": "view",
      "type": "function"
    },
    {
      "inputs": [
        {
          "internalType": "uint128",
          "name": "osTokenShares",
          "type": "uint128"
        }
      ],
      "name": "burnOsToken",
      "outputs": [
        {
          "internalType": "uint256",
          "name": "assets",
          "type": "uint256"
        }
      ],
      "stateMutability": "nonpayable",
      "type": "function"
    },
    {
      "inputs": [
        {
          "internalType": "address",
          "name": "receiver",
          "type": "address"
        },
        {
          "internalType": "uint256",
          "name": "positionTicket",
          "type": "uint256"
        },
        {
          "internalType": "uint256",
          "name": "timestamp",
          "type": "uint256"
        },
        {
          "internalType": "uint256",
          "name": "exitQueueIndex",
          "type": "uint256"
        }
      ],
      "name": "calculateExitedAssets",
      "outputs": [
        {
          "internalType": "uint256",
          "name": "leftTickets",
          "type": "uint256"
        },
        {
          "internalType": "uint256",
          "name": "exitedTickets",
          "type": "uint256"
        },
        {
          "internalType": "uint256",
          "name": "exitedAssets",
          "type": "uint256"
        }
      ],
      "stateMutability": "view",
      "type": "function"
    },
    {
      "inputs": [],
      "name": "capacity",
      "outputs": [
        {
          "internalType": "uint256",
          "name": "",
          "type": "uint256"
        }
      ],
      "stateMutability": "view",
      "type": "function"
    },
    {
      "inputs": [
        {
          "internalType": "uint256",
          "name": "positionTicket",
          "type": "uint256"
        },
        {
          "internalType": "uint256",
          "name": "timestamp",
          "type": "uint256"
        },
        {
          "internalType": "uint256",
          "name": "exitQueueIndex",
          "type": "uint256"
        }
      ],
      "name": "claimExitedAssets",
      "outputs": [],
      "stateMutability": "nonpayable",
      "type": "function"
    },
    {
      "inputs": [
        {
          "internalType": "uint256",
          "name": "shares",
          "type": "uint256"
        }
      ],
      "name": "convertToAssets",
      "outputs": [
        {
          "internalType": "uint256",
          "name": "assets",
          "type": "uint256"
        }
      ],
      "stateMutability": "view",
      "type": "function"
    },
    {
      "inputs": [
        {
          "internalType": "uint256",
          "name": "assets",
          "type": "uint256"
        }
      ],
      "name": "convertToShares",
      "outputs": [
        {
          "internalType": "uint256",
          "name": "shares",
          "type": "uint256"
        }
      ],
      "stateMutability": "view",
      "type": "function"
    },
    {
      "inputs": [],
      "name": "decimals",
      "outputs": [
        {
          "internalType": "uint8",
          "name": "",
          "type": "uint8"
        }
      ],
      "stateMutability": "view",
      "type": "function"
    },
    {
      "inputs": [
        {
          "internalType": "address",
          "name": "receiver",
          "type": "address"
        },
        {
          "internalType": "address",
          "name": "referrer",
          "type": "address"
        }
      ],
      "name": "deposit",
      "outputs": [
        {
          "internalType": "uint256",
          "name": "shares",
          "type": "uint256"
        }
      ],
      "stateMutability": "payable",
      "type": "function"
    },
    {
      "inputs": [
        {
          "internalType": "address",
          "name": "receiver",
          "type": "address"
        },
        {
          "internalType": "uint256",
          "name": "osTokenShares",
          "type": "uint256"
        },
        {
          "internalType": "address",
          "name": "referrer",
          "type": "address"
        }
      ],
      "name": "depositAndMintOsToken",
      "outputs": [
        {
          "internalType": "uint256",
          "name": "",
          "type": "uint256"
        }
      ],
      "stateMutability": "payable",
      "type": "function"
    },
    {
      "inputs": [
        {
          "internalType": "uint256",
          "name": "shares",
          "type": "uint256"
        },
        {
          "internalType": "address",
          "name": "receiver",
          "type": "address"
        }
      ],
      "name": "enterExitQueue",
      "outputs": [
        {
          "internalType": "uint256",
          "name": "positionTicket",
          "type": "uint256"
        }
      ],
      "stateMutability": "nonpayable",
      "type": "function"
    },
    {
      "inputs": [],
      "name": "feePercent",
      "outputs": [
        {
          "internalType": "uint16",
          "name": "",
          "type": "uint16"
        }
      ],
      "stateMutability": "view",
      "type": "function"
    },
    {
      "inputs": [],
      "name": "feeRecipient",
      "outputs": [
        {
          "internalType": "address",
          "name": "",
          "type": "address"
        }
      ],
      "stateMutability": "view",
      "type": "function"
    },
    {
      "inputs": [
        {
          "internalType": "uint256",
          "name": "positionTicket",
          "type": "uint256"
        }
      ],
      "name": "getExitQueueIndex",
      "outputs": [
        {
          "internalType": "int256",
          "name": "",
          "type": "int256"
        }
      ],
      "stateMutability": "view",
      "type": "function"
    },
    {
      "inputs": [
        {
          "internalType": "address",
          "name": "account",
          "type": "address"
        }
      ],
      "name": "getShares",
      "outputs": [
        {
          "internalType": "uint256",
          "name": "",
          "type": "uint256"
        }
      ],
      "stateMutability": "view",
      "type": "function"
    },
    {
      "inputs": [],
      "name": "implementation",
      "outputs": [
        {
          "internalType": "address",
          "name": "",
          "type": "address"
        }
      ],
      "stateMutability": "view",
      "type": "function"
    },
    {
      "inputs": [
        {
          "internalType": "bytes",
          "name": "params",
          "type": "bytes"
        }
      ],
      "name": "initialize",
      "outputs": [],
      "stateMutability": "payable",
      "type": "function"
    },
    {
      "inputs": [],
      "name": "isStateUpdateRequired",
      "outputs": [
        {
          "internalType": "bool",
          "name": "",
          "type": "bool"
        }
      ],
      "stateMutability": "view",
      "type": "function"
    },
    {
      "inputs": [
        {
          "internalType": "uint256",
          "name": "osTokenShares",
          "type": "uint256"
        },
        {
          "internalType": "address",
          "name": "owner",
          "type": "address"
        },
        {
          "internalType": "address",
          "name": "receiver",
          "type": "address"
        }
      ],
      "name": "liquidateOsToken",
      "outputs": [],
      "stateMutability": "nonpayable",
      "type": "function"
    },
    {
      "inputs": [],
      "name": "mevEscrow",
      "outputs": [
        {
          "internalType": "address",
          "name": "",
          "type": "address"
        }
      ],
      "stateMutability": "view",
      "type": "function"
    },
    {
      "inputs": [
        {
          "internalType": "address",
          "name": "receiver",
          "type": "address"
        },
        {
          "internalType": "uint256",
          "name": "osTokenShares",
          "type": "uint256"
        },
        {
          "internalType": "address",
          "name": "referrer",
          "type": "address"
        }
      ],
      "name": "mintOsToken",
      "outputs": [
        {
          "internalType": "uint256",
          "name": "assets",
          "type": "uint256"
        }
      ],
      "stateMutability": "nonpayable",
      "type": "function"
    },
    {
      "inputs": [
        {
          "internalType": "bytes[]",
          "name": "data",
          "type": "bytes[]"
        }
      ],
      "name": "multicall",
      "outputs": [
        {
          "internalType": "bytes[]",
          "name": "results",
          "type": "bytes[]"
        }
      ],
      "stateMutability": "nonpayable",
      "type": "function"
    },
    {
      "inputs": [],
      "name": "name",
      "outputs": [
        {
          "internalType": "string",
          "name": "",
          "type": "string"
        }
      ],
      "stateMutability": "view",
      "type": "function"
    },
    {
      "inputs": [
        {
          "internalType": "address",
          "name": "",
          "type": "address"
        }
      ],
      "name": "nonces",
      "outputs": [
        {
          "internalType": "uint256",
          "name": "",
          "type": "uint256"
        }
      ],
      "stateMutability": "view",
      "type": "function"
    },
    {
      "inputs": [
        {
          "internalType": "address",
          "name": "user",
          "type": "address"
        }
      ],
      "name": "osTokenPositions",
      "outputs": [
        {
          "internalType": "uint128",
          "name": "shares",
          "type": "uint128"
        }
      ],
      "stateMutability": "view",
      "type": "function"
    },
    {
      "inputs": [
        {
          "internalType": "address",
          "name": "owner",
          "type": "address"
        },
        {
          "internalType": "address",
          "name": "spender",
          "type": "address"
        },
        {
          "internalType": "uint256",
          "name": "value",
          "type": "uint256"
        },
        {
          "internalType": "uint256",
          "name": "deadline",
          "type": "uint256"
        },
        {
          "internalType": "uint8",
          "name": "v",
          "type": "uint8"
        },
        {
          "internalType": "bytes32",
          "name": "r",
          "type": "bytes32"
        },
        {
          "internalType": "bytes32",
          "name": "s",
          "type": "bytes32"
        }
      ],
      "name": "permit",
      "outputs": [],
      "stateMutability": "nonpayable",
      "type": "function"
    },
    {
      "inputs": [],
      "name": "proxiableUUID",
      "outputs": [
        {
          "internalType": "bytes32",
          "name": "",
          "type": "bytes32"
        }
      ],
      "stateMutability": "view",
      "type": "function"
    },
    {
      "inputs": [],
      "name": "queuedShares",
      "outputs": [
        {
          "internalType": "uint128",
          "name": "",
          "type": "uint128"
        }
      ],
      "stateMutability": "view",
      "type": "function"
    },
    {
      "inputs": [],
      "name": "receiveFromMevEscrow",
      "outputs": [],
      "stateMutability": "payable",
      "type": "function"
    },
    {
      "inputs": [
        {
          "internalType": "uint256",
          "name": "osTokenShares",
          "type": "uint256"
        },
        {
          "internalType": "address",
          "name": "owner",
          "type": "address"
        },
        {
          "internalType": "address",
          "name": "receiver",
          "type": "address"
        }
      ],
      "name": "redeemOsToken",
      "outputs": [],
      "stateMutability": "nonpayable",
      "type": "function"
    },
    {
      "inputs": [
        {
          "components": [
            {
              "internalType": "bytes32",
              "name": "validatorsRegistryRoot",
              "type": "bytes32"
            },
            {
              "internalType": "uint256",
              "name": "deadline",
              "type": "uint256"
            },
            {
              "internalType": "bytes",
              "name": "validators",
              "type": "bytes"
            },
            {
              "internalType": "bytes",
              "name": "signatures",
              "type": "bytes"
            },
            {
              "internalType": "string",
              "name": "exitSignaturesIpfsHash",
              "type": "string"
            }
          ],
          "internalType": "struct IKeeperValidators.ApprovalParams",
          "name": "keeperParams",
          "type": "tuple"
        },
        {
          "internalType": "bytes",
          "name": "validatorsManagerSignature",
          "type": "bytes"
        }
      ],
      "name": "registerValidators",
      "outputs": [],
      "stateMutability": "nonpayable",
      "type": "function"
    },
    {
      "inputs": [
        {
          "internalType": "address",
          "name": "_feeRecipient",
          "type": "address"
        }
      ],
      "name": "setFeeRecipient",
      "outputs": [],
      "stateMutability": "nonpayable",
      "type": "function"
    },
    {
      "inputs": [
        {
          "internalType": "string",
          "name": "metadataIpfsHash",
          "type": "string"
        }
      ],
      "name": "setMetadata",
      "outputs": [],
      "stateMutability": "nonpayable",
      "type": "function"
    },
    {
      "inputs": [
        {
          "internalType": "address",
          "name": "validatorsManager_",
          "type": "address"
        }
      ],
      "name": "setValidatorsManager",
      "outputs": [],
      "stateMutability": "nonpayable",
      "type": "function"
    },
    {
      "inputs": [],
      "name": "symbol",
      "outputs": [
        {
          "internalType": "string",
          "name": "",
          "type": "string"
        }
      ],
      "stateMutability": "view",
      "type": "function"
    },
    {
      "inputs": [],
      "name": "totalAssets",
      "outputs": [
        {
          "internalType": "uint256",
          "name": "",
          "type": "uint256"
        }
      ],
      "stateMutability": "view",
      "type": "function"
    },
    {
      "inputs": [],
      "name": "totalExitingAssets",
      "outputs": [
        {
          "internalType": "uint128",
          "name": "",
          "type": "uint128"
        }
      ],
      "stateMutability": "view",
      "type": "function"
    },
    {
      "inputs": [],
      "name": "totalShares",
      "outputs": [
        {
          "internalType": "uint256",
          "name": "",
          "type": "uint256"
        }
      ],
      "stateMutability": "view",
      "type": "function"
    },
    {
      "inputs": [],
      "name": "totalSupply",
      "outputs": [
        {
          "internalType": "uint256",
          "name": "",
          "type": "uint256"
        }
      ],
      "stateMutability": "view",
      "type": "function"
    },
    {
      "inputs": [
        {
          "internalType": "address",
          "name": "to",
          "type": "address"
        },
        {
          "internalType": "uint256",
          "name": "amount",
          "type": "uint256"
        }
      ],
      "name": "transfer",
      "outputs": [
        {
          "internalType": "bool",
          "name": "",
          "type": "bool"
        }
      ],
      "stateMutability": "nonpayable",
      "type": "function"
    },
    {
      "inputs": [
        {
          "internalType": "address",
          "name": "from",
          "type": "address"
        },
        {
          "internalType": "address",
          "name": "to",
          "type": "address"
        },
        {
          "internalType": "uint256",
          "name": "amount",
          "type": "uint256"
        }
      ],
      "name": "transferFrom",
      "outputs": [
        {
          "internalType": "bool",
          "name": "",
          "type": "bool"
        }
      ],
      "stateMutability": "nonpayable",
      "type": "function"
    },
    {
      "inputs": [
        {
          "components": [
            {
              "internalType": "bytes32",
              "name": "rewardsRoot",
              "type": "bytes32"
            },
            {
              "internalType": "int160",
              "name": "reward",
              "type": "int160"
            },
            {
              "internalType": "uint160",
              "name": "unlockedMevReward",
              "type": "uint160"
            },
            {
              "internalType": "bytes32[]",
              "name": "proof",
              "type": "bytes32[]"
            }
          ],
          "internalType": "struct IKeeperRewards.HarvestParams",
          "name": "harvestParams",
          "type": "tuple"
        }
      ],
      "name": "updateState",
      "outputs": [],
      "stateMutability": "nonpayable",
      "type": "function"
    },
    {
      "inputs": [
        {
          "internalType": "address",
          "name": "receiver",
          "type": "address"
        },
        {
          "internalType": "address",
          "name": "referrer",
          "type": "address"
        },
        {
          "components": [
            {
              "internalType": "bytes32",
              "name": "rewardsRoot",
              "type": "bytes32"
            },
            {
              "internalType": "int160",
              "name": "reward",
              "type": "int160"
            },
            {
              "internalType": "uint160",
              "name": "unlockedMevReward",
              "type": "uint160"
            },
            {
              "internalType": "bytes32[]",
              "name": "proof",
              "type": "bytes32[]"
            }
          ],
          "internalType": "struct IKeeperRewards.HarvestParams",
          "name": "harvestParams",
          "type": "tuple"
        }
      ],
      "name": "updateStateAndDeposit",
      "outputs": [
        {
          "internalType": "uint256",
          "name": "shares",
          "type": "uint256"
        }
      ],
      "stateMutability": "payable",
      "type": "function"
    },
    {
      "inputs": [
        {
          "internalType": "address",
          "name": "receiver",
          "type": "address"
        },
        {
          "internalType": "uint256",
          "name": "osTokenShares",
          "type": "uint256"
        },
        {
          "internalType": "address",
          "name": "referrer",
          "type": "address"
        },
        {
          "components": [
            {
              "internalType": "bytes32",
              "name": "rewardsRoot",
              "type": "bytes32"
            },
            {
              "internalType": "int160",
              "name": "reward",
              "type": "int160"
            },
            {
              "internalType": "uint160",
              "name": "unlockedMevReward",
              "type": "uint160"
            },
            {
              "internalType": "bytes32[]",
              "name": "proof",
              "type": "bytes32[]"
            }
          ],
          "internalType": "struct IKeeperRewards.HarvestParams",
          "name": "harvestParams",
          "type": "tuple"
        }
      ],
      "name": "updateStateAndDepositAndMintOsToken",
      "outputs": [
        {
          "internalType": "uint256",
          "name": "",
          "type": "uint256"
        }
      ],
      "stateMutability": "payable",
      "type": "function"
    },
    {
      "inputs": [
        {
          "internalType": "address",
          "name": "newImplementation",
          "type": "address"
        },
        {
          "internalType": "bytes",
          "name": "data",
          "type": "bytes"
        }
      ],
      "name": "upgradeToAndCall",
      "outputs": [],
      "stateMutability": "payable",
      "type": "function"
    },
    {
      "inputs": [],
      "name": "validatorsManager",
      "outputs": [
        {
          "internalType": "address",
          "name": "",
          "type": "address"
        }
      ],
      "stateMutability": "view",
      "type": "function"
    },
    {
      "inputs": [],
      "name": "vaultId",
      "outputs": [
        {
          "internalType": "bytes32",
          "name": "",
          "type": "bytes32"
        }
      ],
      "stateMutability": "pure",
      "type": "function"
    },
    {
      "inputs": [],
      "name": "version",
      "outputs": [
        {
          "internalType": "uint8",
          "name": "",
          "type": "uint8"
        }
      ],
      "stateMutability": "pure",
      "type": "function"
    },
    {
      "inputs": [],
      "name": "withdrawableAssets",
      "outputs": [
        {
          "internalType": "uint256",
          "name": "",
          "type": "uint256"
        }
      ],
      "stateMutability": "view",
      "type": "function"
    },
    {
      "stateMutability": "payable",
      "type": "receive"
    }
  ],
  "bytecode": "0x6101e034620001d757620058f438819003601f8101601f191683016001600160401b03811184821017620001db5783928291604052833961010092839181010312620001d7576200005081620001ef565b6200005e60208301620001ef565b906200006d60408401620001ef565b906200007c60608501620001ef565b906200008b60808601620001ef565b926200009a60a08701620001ef565b9460e0620000ab60c08901620001ef565b9701519260805260a05260c0523060e052620000c662000204565b46865261012094855261014046815261016091825260018060a01b0380610180941684526101a0941684526101c09485526200010162000204565b604051956156509788620002a489396080518881816116e6015281816118ba01528181613296015281816135a50152613631015260a051886113fe015260c0518881816144600152614581015260e05188818161157e0152613ee1015251876127f5015251868181612f300152613d6d015251856141e501525184611a6001525183818161048d01528181610a6c0152818161259801528181612f71015281816137e101526138ea015251828181610b2b015281816110eb0152818161376501526139a90152518181816127d001526132de0152f35b5f80fd5b634e487b7160e01b5f52604160045260245ffd5b51906001600160a01b0382168203620001d757565b7ff0c57e16840df040f15088dc2f81fe391c3923bec73e23a9662efc9c229c6a00805460ff8160401c1662000291576001600160401b036002600160401b0319828216016200025257505050565b6001600160401b031990911681179091556040519081527fc7f505b2f371ae2175ee4913f4499e1f2633a7b5936321eed1cdaeb6115181d290602090a1565b60405163f92ee8a960e01b8152600490fdfe60806040526004361015610022575b3615610018575f80fd5b610020612f52565b005b5f3560e01c806301d523b61461037757806301e1d11414610372578063066055e01461036d57806306fdde031461036857806307a2d13a14610363578063095ea7b31461035e57806318160ddd1461032257806318f72950146103595780631a7ff55314610354578063201b9eb51461034f57806323b872dd1461034a5780632999ad3f146103455780632cdf740114610340578063313ce5671461033b5780633229fa951461033657806333194c0a146103315780633644e5151461032c57806336fe59d2146103275780633a98ef3914610322578063439fab911461031d57806343e82a791461031857806346904840146103135780634ec96b221461030e5780634f1ef2861461030957806352d1902d1461030457806353156f28146102ff57806354fd4d50146102fa5780635c60da1b146102f55780635cfc1a51146102f057806360d60e6e146102eb57806370a082311461028257806372b410a8146102e6578063754c3888146102e157806376b58b90146102dc5780637ecebe00146102d75780637fd6f15c146102d257806383d430d5146102cd5780638697d2c2146102c85780638ceab9aa146102c357806395d89b41146102be578063a49a1e7d146102b9578063a9059cbb146102b4578063ac9650d8146102af578063ad3cb1cc146102aa578063b1f0e7c7146102a5578063c6e6f592146102a0578063d505accf1461029b578063d83ad00c14610296578063dd62ed3e14610291578063e74b981b1461028c578063ee3bd5df14610287578063f04da65b14610282578063f851a4401461027d5763f9609f080361000e5761242c565b612404565b611680565b6123de565b6123b1565b61236d565b612322565b61210d565b6120e4565b6120ca565b612085565b612020565b611f7f565b611f2d565b611e89565b611ca0565b611a34565b611864565b611840565b611805565b6117b4565b611748565b6116bb565b611662565b611648565b611614565b6115f9565b6115d5565b61156c565b6112e6565b6111f1565b6111c9565b6110bc565b610ff6565b610877565b610f87565b610f6d565b610f33565b610f07565b610eec565b610ed2565b610a42565b610966565b61094d565b6108f1565b61089d565b6107d5565b6107b7565b6106f1565b61043d565b61040c565b61039f565b6001600160a01b0381160361038d57565b5f80fd5b9081608091031261038d5790565b608036600319011261038d576004356103b78161037c565b6044356103c38161037c565b606435906001600160401b03821161038d576020926103f16103ec6103fa943690600401610391565b6124fd565b60243590612827565b604051908152f35b5f91031261038d57565b3461038d575f36600319011261038d57602060cf5460801c604051908152f35b6001600160801b0381160361038d57565b3461038d57602036600319011261038d5760043561045a8161042c565b604051633b9e9f0160e21b81523360048201526001600160801b03821660248201526020816044815f6001600160a01b037f0000000000000000000000000000000000000000000000000000000000000000165af19081156105d7575f916105a8575b50335f90815261016e602052604090206104d69061245c565b916001600160801b036104f084516001600160801b031690565b1615610596576105448361050661059295612f5c565b6105306105238461051e84516001600160801b031690565b612495565b6001600160801b03168252565b335f90815261016e602052604090206124ae565b604080518381526001600160801b0392909216602083015233917f3f7354ba02880b4fa37a629985852a38417ff369369ce1e52fa6f8342a9100a79190a26040519081529081906020820190565b0390f35b60405163673f032f60e11b8152600490fd5b6105ca915060203d6020116105d0575b6105c28183610676565b810190612442565b5f6104bd565b503d6105b8565b612451565b90600182811c9216801561060a575b60208310146105f657565b634e487b7160e01b5f52602260045260245ffd5b91607f16916105eb565b634e487b7160e01b5f52604160045260245ffd5b604081019081106001600160401b0382111761064357604052565b610614565b6001600160401b03811161064357604052565b608081019081106001600160401b0382111761064357604052565b90601f801991011681019081106001600160401b0382111761064357604052565b5f5b8381106106a85750505f910152565b8181015183820152602001610699565b906020916106d181518092818552858086019101610697565b601f01601f1916010190565b9060206106ee9281815201906106b8565b90565b3461038d575f36600319011261038d576040515f8054610710816105dc565b8084529060209060019081811690811561078d5750600114610749575b6105928561073d81870382610676565b604051918291826106dd565b5f80805293505f8051602061559b8339815191525b83851061077a5750505050810160200161073d8261059261072d565b805486860184015293820193810161075e565b8695506105929693506020925061073d94915060ff191682840152151560051b820101929361072d565b3461038d57602036600319011261038d5760206103fa6004356124d7565b3461038d57604036600319011261038d576004356107f28161037c565b6001600160a01b038116906024359082156108655761082d8291335f52600260205260405f209060018060a01b03165f5260205260405f2090565b556040519081527f8c5be1e5ebec7d5bd14f71427d1e84f3dd0314c0f7b2291e5b200ac8c7c3b92560203392a3602060405160018152f35b60405163d92e233d60e01b8152600490fd5b3461038d575f36600319011261038d5760206001600160801b0360cf5416604051908152f35b606036600319011261038d576004356108b58161037c565b6024356108c18161037c565b604435906001600160401b03821161038d576020926108ea6103ec6103fa943690600401610391565b34906148d9565b3461038d57602036600319011261038d576004356001600160401b03811161038d576103ec610020913690600401610391565b606090600319011261038d5760043561093c8161037c565b90602435906044356106ee8161037c565b3461038d5760206103fa61096036610924565b9161255f565b3461038d57606036600319011261038d576004356109838161037c565b602435906109908261037c565b6001600160a01b0381165f81815260026020908152604080832033845290915290205460443591600182016109e0575b6109d4846109cf858883614985565b61384c565b60405160018152602090f35b919093818503948511610a14575f9283526002602090815260408085203386529091529092209390935591806109d46109c0565b612481565b606090600319011261038d5760043590602435610a358161037c565b906044356106ee8161037c565b3461038d57610a5036610a19565b906001600160a01b038083161561086557610a69613616565b807f00000000000000000000000000000000000000000000000000000000000000001691823b1561038d5760408051631d8557d760e01b815260049491905f81878183875af180156105d757610eb9575b506001600160a01b0383165f90815261016e60205260409020610adc9061245c565b6001600160801b039283610af783516001600160801b031690565b1615610ea957610b0682612f5c565b825163e48a5f7b60e01b8152308882019081529097906060908990819060200103818a7f0000000000000000000000000000000000000000000000000000000000000000165afa9788156105d7575f98610e78575b50602097888101956001600160401b03918280610b7f8a516001600160401b031690565b1614610e6857908c92918751918c8380610bab6303d1689d60e11b988983528a83019190602083019252565b03818a5afa9182156105d757610bd7938e5f94610e43575b5050516001600160801b03165b169061308b565b96610bfb610bf58a60018060a01b03165f5260d360205260405f2090565b546124d7565b928389118015610e33575b610e2357908b610c449392610c2289516001600160801b031690565b908a51958692839283528983019190916001600160801b036020820193169052565b0381895afa9182156105d757670de0b6b3a764000094610c93948e5f95610df6575b5050610c85610c77610c8b92612d13565b93516001600160401b031690565b93612d13565b9216906130ff565b1015610de8578351633b9e9f0160e21b815233918101918252602082018b905294939291889186919082905f90829060400103925af19081156105d7577f61fd285f9e34a3dbfa9846bdcf22a023e37a3c93549902843b30dd74a18c535097610dc595610d3d93610dca575b5050610d20610523610d108c6136a1565b83516001600160801b0316612495565b6001600160a01b0386165f90815261016e602052604090206124ae565b610d4682614720565b90610d84610d69610d56856136a1565b60cf5460801c036001600160801b031690565b6001600160801b0360cf549181199060801b1691161760cf55565b610d8e82866150b5565b610d988389614686565b51948594169733978590949392606092608083019660018060a01b03168352602083015260408201520152565b0390a3005b81610de092903d106105d0576105c28183610676565b505f80610cff565b835163185cfc6d60e11b8152fd5b610c8b929550610e19610c859282610c7793903d106105d0576105c28183610676565b959250508e610c66565b875163efda1a2760e01b81528590fd5b50610e3c612781565b8911610c06565b610bd09294509081610e6092903d106105d0576105c28183610676565b92908e610bc3565b8651630709133160e01b81528490fd5b610e9b91985060603d606011610ea2575b610e938183610676565b8101906136e8565b965f610b5b565b503d610e89565b825163673f032f60e11b81528790fd5b80610ec6610ecc92610648565b80610402565b5f610aba565b3461038d575f36600319011261038d5760206103fa612781565b3461038d575f36600319011261038d57602060405160128152f35b3461038d575f36600319011261038d576020610f216127b7565b6040516001600160a01b039091168152f35b3461038d575f36600319011261038d5760206040517f9480c4a5d7e604111fbc986cd90c895a458ca155fe13c10879b93c4592ce29fd8152f35b3461038d575f36600319011261038d5760206103fa6127f2565b60206103fa610f9536610924565b91612827565b9181601f8401121561038d578235916001600160401b03831161038d576020838186019501011161038d57565b602060031982011261038d57600435906001600160401b03821161038d57610ff291600401610f9b565b9091565b610fff36610fc8565b907ff0c57e16840df040f15088dc2f81fe391c3923bec73e23a9662efc9c229c6a009182549160ff8360401c1680156110a8575b61109657680100000000000000026110599368ffffffffffffffffff191617845561293f565b68ff00000000000000001981541690557fc7f505b2f371ae2175ee4913f4499e1f2633a7b5936321eed1cdaeb6115181d2602060405160028152a1005b60405163f92ee8a960e01b8152600490fd5b5060026001600160401b0384161015611033565b3461038d576110ca36610a19565b60405163057453a760e31b81529091906001600160a01b03906020816004817f000000000000000000000000000000000000000000000000000000000000000086165afa80156105d75782915f9161119a575b501633036111885781610dc561115586867f57f5eb636bf62215c111b54545422f11dfb0cb115f606be905f0be08e8859dd3966138cc565b604080516001600160a01b0390981688526020880198909852968601526060850195909552169233929081906080820190565b604051634ca8886760e01b8152600490fd5b6111bc915060203d6020116111c2575b6111b48183610676565b810190612861565b5f61111d565b503d6111aa565b3461038d575f36600319011261038d57609c546040516001600160a01b039091168152602090f35b3461038d57602036600319011261038d5760043561120e8161037c565b60018060a01b03165f5261016e602052602060405f206040519061123182610628565b54906001600160801b03918281169081835260801c84830152611259575b5116604051908152f35b61126281612f5c565b61124f565b6040519060a082018281106001600160401b0382111761064357604052565b6040519061129382610628565b565b6001600160401b03811161064357601f01601f191660200190565b9291926112bc82611295565b916112ca6040519384610676565b82948184528183011161038d578281602093845f960137010152565b60408060031936011261038d5760049081356113018161037c565b6024356001600160401b03811161038d573660238201121561038d5761133090369060248187013591016112b0565b91611339613ed7565b8051926113708461136260209363439fab9160e01b8584015284602484015260448301906106b8565b03601f198101865285610676565b611378613ed7565b611380613fb0565b6001600160a01b03838116801592919087908415611537575b84156114c9575b8415611465575b505082156113cf575b50506113c0576100208383614cbe565b516355299b4960e01b81528390fd5b83516345da87c560e01b81526001600160a01b03861688820190815292935091839183918290819060200103917f0000000000000000000000000000000000000000000000000000000000000000165afa9182156105d7575f92611438575b5050155f806113b0565b6114579250803d1061145e575b61144f8183610676565b810190612aea565b5f8061142e565b503d611445565b855163054fd4d560e41b81529294508391839182905afa9081156105d75760039160ff915f9161149c575b5016141591865f6113a7565b6114bc9150843d86116114c2575b6114b48183610676565b810190614ca9565b5f611490565b503d6114aa565b935050835163198ca60560e11b815282818981875afa9081156105d75788917f9480c4a5d7e604111fbc986cd90c895a458ca155fe13c10879b93c4592ce29fd915f9161151a575b501415936113a0565b6115319150853d87116105d0576105c28183610676565b5f611511565b5f805160206155bb833981519152549094508490611565906001600160a01b03165b6001600160a01b031690565b1493611399565b3461038d575f36600319011261038d577f00000000000000000000000000000000000000000000000000000000000000006001600160a01b031630036115c35760206040515f805160206155bb8339815191528152f35b60405163703e46dd60e11b8152600490fd5b5f36600319011261038d576001600160a01b036115f06127b7565b16330361118857005b3461038d575f36600319011261038d57602060405160028152f35b3461038d575f36600319011261038d575f805160206155bb833981519152546040516001600160a01b039091168152602090f35b3461038d575f36600319011261038d5760206103fa612a03565b3461038d57602036600319011261038d5760206103fa600435612a1e565b3461038d57602036600319011261038d5760043561169d8161037c565b60018060a01b03165f5260d3602052602060405f2054604051908152f35b3461038d575f36600319011261038d57604051633eb1acf760e11b81523060048201526020816024817f00000000000000000000000000000000000000000000000000000000000000006001600160a01b03165afa80156105d7576020915f9161172b575b506040519015158152f35b6117429150823d841161145e5761144f8183610676565b5f611720565b3461038d57602036600319011261038d576004356117658161037c565b61176d613fb0565b61010980546001600160a01b0319166001600160a01b03929092169182179055337f6bdc78d8c88160b3fc3638e67f2afe523b3f4c7d00c56ebb6216790e4c3eb2cb5f80a3005b3461038d57608036600319011261038d576105926117e86004356117d78161037c565b606435906044359060243590612b0b565b604080519384526020840192909252908201529081906060820190565b3461038d57602036600319011261038d576004356118228161037c565b60018060a01b03165f526003602052602060405f2054604051908152f35b3461038d575f36600319011261038d57602061ffff609c5460a01c16604051908152f35b3461038d5760031960403682011261038d5760049081356001600160401b0380821161038d5760a082850193833603011261038d5760243590811161038d576118b09036908501610f9b565b6001600160a01b037f00000000000000000000000000000000000000000000000000000000000000008116803b1561038d5760405163837d444160e01b8152905f9082908183816119038c828f01612c27565b03925af180156105d757611a21575b5061191b613616565b611923612f1b565b90811633141591826119f2575b505090506119e1576044019160b06119488484612ca5565b905004801580156119c9575b6119b957611969611963612781565b91612cfa565b116119aa575060b061197b8383612ca5565b9050145f14611997576100209161199191612ca5565b90614573565b610020916119a491612ca5565b9061444b565b6040516396d8043360e01b8152fd5b50604051631c6c4cf360e31b8152fd5b506119d48484612ca5565b905060b082021415611954565b604051634ca8886760e01b81528390fd5b611a159250611a0f611a1994611a07886141df565b9236916112b0565b916142ba565b1590565b805f80611930565b80610ec6611a2e92610648565b5f611912565b3461038d57606036600319011261038d57600435602435611a59604435828433612b0b565b9192611a857f000000000000000000000000000000000000000000000000000000000000000082612a11565b42108015611c98575b8015611c90575b611c7e577feb3b05c070c24f667611fdb3ff75fe007d42401c573aed8d8faca95fd00ccb5693611ae586611ae0611ad460d0546001600160801b031690565b6001600160801b031690565b613f30565b15611bec57611b1f611b04611af9866136a1565b60d05460801c612495565b6001600160801b0360d0549181199060801b1691161760d055565b60408051336020820190815291810184905260608082018990528152601f1993915f91611b639190611b52608082610676565b5190205f5260d260205260405f2090565b555f9360018311611b9c575b50505050611b7d8233614686565b604080519485526020850191909152830152339180606081015b0390a2005b611be292939450611bad9088612a11565b60408051336020820190815291810193909352606083018290529094909190611b529082608081015b03908101835282610676565b555f808080611b6f565b611bf4613616565b611c30611c14611c03866136a1565b60d5546001600160801b0316612495565b6001600160801b03166001600160801b031960d554161760d555565b611c65611c4a611c3f856136a1565b60d55460801c612495565b6001600160801b0360d5549181199060801b1691161760d555565b611c79611c748460d654612a11565b60d655565b611b1f565b604051630e3d8e8d60e11b8152600490fd5b508215611a95565b508115611a8e565b3461038d5760408060031936011261038d5760243590600435611cc28361037c565b611cca613616565b8015611e78576001600160a01b038316908115611e6757611cea816124d7565b908115611e5657611cfa82614dbd565b611d03836136a1565b60cf5460801c90611d1391612495565b611d32906001600160801b0360cf549181199060801b1691161760cf55565b611d3c82336150b5565b60d554958660801c828160d65490611d5391612a11565b98611d5d876136a1565b611d6f916001600160801b0316612544565b611d8f906001600160801b03166001600160801b031960d554161760d555565b611d9891612a11565b611da1906136a1565b611dc0906001600160801b0360d5549181199060801b1691161760d555565b85516001600160a01b0391909116602082019081524260408301526060808301899052825290611df1608082610676565b519020611e06905f5260d260205260405f2090565b5583518581526020810191909152604081019190915233907f869f12645d154414259c47bcb998b6b6983fae50e5e0c6053bc87d4330db9f2d90606090a3611e4d3361384c565b51908152602090f35b83516318374fd160e21b8152600490fd5b825163d92e233d60e01b8152600490fd5b8151636edcc52360e01b8152600490fd5b3461038d575f36600319011261038d576040515f60018054611eaa816105dc565b808552916020916001811690811561078d5750600114611ed4576105928561073d81870382610676565b60015f90815293507fb10e2d527612073b26eecdfd717e6a320cf44b4afac2b0732d9fcbe2b7fa0cf65b838510611f1a5750505050810160200161073d8261059261072d565b8054868601840152938201938101611efe565b3461038d57611b977f2013570c343af8ab14a9778150e381a0fda34ed6368127a95fd5e7210cbec5bf611f5f36610fc8565b9290611f69613fb0565b6040519182916020835233956020840191612c07565b3461038d57604036600319011261038d57611fa9600435611f9f8161037c565b6024359033614985565b611fb23361384c565b602060405160018152f35b6020808201906020835283518092526040830192602060408460051b8301019501935f915b848310611ff25750505050505090565b9091929394958480612010600193603f198682030187528a516106b8565b9801930193019194939290611fe2565b3461038d57602036600319011261038d576001600160401b0360043581811161038d573660238201121561038d57806004013591821161038d573660248360051b8301011161038d576105929160246120799201612e6e565b60405191829182611fbd565b3461038d575f36600319011261038d576105926040516120a481610628565b60058152640352e302e360dc1b60208201526040519182916020835260208301906106b8565b3461038d575f36600319011261038d576020610f21612f1b565b3461038d57602036600319011261038d5760206103fa600435614720565b60ff81160361038d57565b3461038d5760e036600319011261038d5760043561212a8161037c565b6024356121368161037c565b60443590606435926084359061214b82612102565b6001600160a01b0383811695909290861561086557428110612310576020915f91611bd661223e89878a6122016121806127f2565b6001600160a01b0384165f9081526003602052604090209097908054906001820190556040519586948d8601968791959493909260a09360c08401977f6e71edae12b1b97f4d1f60370fef10105fa2faae0126114a169c64845d6126c98552600180871b038092166020860152166040840152606083015260808201520152565b0391612215601f1993848101835282610676565b5190206040519384918983019687909160429261190160f01b8352600283015260228201520190565b5190206040805191825260ff92909216602082015260a4359181019190915260c435606082015281805260809060015afa156105d7575f51928284168015908115612303575b506122f1576122de85916122c97f8c5be1e5ebec7d5bd14f71427d1e84f3dd0314c0f7b2291e5b200ac8c7c3b9259660018060a01b03165f52600260205260405f2090565b9060018060a01b03165f5260205260405f2090565b5560405193845216918060208101610dc5565b6040516323389ba560e21b8152600490fd5b905083831614155f612284565b604051631ab7da6b60e01b8152600490fd5b3461038d575f36600319011261038d5760206001600160801b0360d05416604051908152f35b604090600319011261038d576004356123608161037c565b906024356106ee8161037c565b3461038d5760206123a861238036612348565b6001600160a01b039182165f9081526002855260408082209290931681526020919091522090565b54604051908152f35b3461038d57602036600319011261038d576100206004356123d18161037c565b6123d9613fb0565b6147af565b3461038d575f36600319011261038d5760206001600160801b0360d55416604051908152f35b3461038d575f36600319011261038d576037546040516001600160a01b039091168152602090f35b60206103fa61243a36612348565b9034906148d9565b9081602091031261038d575190565b6040513d5f823e3d90fd5b9060405161246981610628565b91546001600160801b038116835260801c6020830152565b634e487b7160e01b5f52601160045260245ffd5b6001600160801b039182169082160391908211610a1457565b815160209092015160801b6001600160801b0319166001600160801b0392909216919091179055565b60cf546001600160801b03811690816124ef57505090565b916106ee9260801c906130ff565b61250961251091613265565b91906133fb565b61251657565b61251e614f8c565b80612527575b50565b5f906040519081525f805160206155db83398151915260203092a3565b9190916001600160801b0380809416911601918211610a1457565b90929161256a61358a565b612572613616565b6040516329460cc560e11b81526001600160a01b038381166004830152602482018690527f0000000000000000000000000000000000000000000000000000000000000000169490602080826044815f8b5af19182156105d7575f92612762575b50335f90815261016e60205260409020919687926125f09061245c565b916001600160801b0361260a84516001600160801b031690565b16156126fe57505061261b81612f5c565b61263a61052361262a856136a1565b83516001600160801b0316612544565b335f90815260d36020526040902061265a9061265590610bf5565b613742565b61266e611ad483516001600160801b031690565b116126ec57335f90815261016e602052604090207fa16d97739893e1436c9753925fb5cef174c4f368699dc86cc8fdb0e6e60f8e58946126e79290916126b491906124ae565b604080516001600160a01b0397881681526020810194909452830193909352939091166060820152339281906080820190565b0390a2565b604051633684c65960e01b8152600490fd5b806004926040519384809263752a536d60e01b82525afa9182156105d75761274092612731915f91612745575b506136a1565b6001600160801b031690830152565b61261b565b61275c9150833d85116105d0576105c28183610676565b5f61272b565b8161277a9293503d84116105d0576105c28183610676565b905f6125d3565b4760d0546001600160801b036127988183166124d7565b9060d55416019060801c01908181115f146127b1570390565b50505f90565b6101a1546001600160a01b031680156127cd5790565b507f000000000000000000000000000000000000000000000000000000000000000090565b467f00000000000000000000000000000000000000000000000000000000000000000361281f5760045490565b6106ee613be5565b916128338134336148d9565b505f19821461284c575b81612848929361255f565b5090565b612848915061285a34613742565b915061283d565b9081602091031261038d57516106ee8161037c565b359061ffff8216820361038d57565b9080601f8301121561038d578160206106ee933591016112b0565b9060208282031261038d5781356001600160401b039283821161038d57019060a08282031261038d576128d1611267565b92823584526128e260208401612876565b6020850152604083013581811161038d57826128ff918501612885565b6040850152606083013581811161038d578261291c918501612885565b6060850152608083013590811161038d576129379201612885565b608082015290565b6037549091906001600160a01b03166129f9576040519063e7f6f22560e01b82526020928383600481335afa9283156105d7575f936129da575b50604051636f4fa30f60e01b8152908482600481335afa9182156105d757611293955f936129b7575b50506129b191928101906128a0565b91613e17565b6129b1935090816129d392903d106111c2576111b48183610676565b915f6129a2565b6129f2919350843d86116111c2576111b48183610676565b915f612979565b5050611293613d0b565b60d454806106ee57505f1990565b91908201809211610a1457565b6001600160801b0360d05416612a32614d69565b908101809111610a14578110612a6557612a5660d654612a50613f47565b90612a11565b1115612a60575f90565b5f1990565b60d19060d1549182915f905b848210612a8b57505050811015612a855790565b505f1990565b909193808316906001818518811c8301809311610a14575f8790525f805160206155fb8339815191528301546001600160a01b0316841015612ad2575050935b9190612a71565b909591019250612acb565b5190811515820361038d57565b9081602091031261038d576106ee90612add565b91908203918211610a1457565b604080516001600160a01b03909216602083019081529082019390935260608101829052909190612b4981608081015b03601f198101835282610676565b5190205f5260d260205260405f2054918215612bb3576001600160801b0360d0541690612b74614d69565b918201809211610a14578391831015612ba15791612b9192614044565b90915b828103908111610a145792565b5090612bac91613fc4565b9091612b94565b5050505f905f905f90565b9035601e198236030181121561038d5701602081359101916001600160401b03821161038d57813603831361038d57565b90603060609281835260208301375f60508201520190565b908060209392818452848401375f828201840152601f01601f1916010190565b9060a06106ee92602081528235602082015260208301356040820152612c63612c536040850185612bbe565b84606085015260c0840191612c07565b90612c96612c8b612c776060870187612bbe565b601f19858703810160808701529591612c07565b946080810190612bbe565b93909282860301910152612c07565b903590601e198136030182121561038d57018035906001600160401b03821161038d5760200191813603831361038d57565b634e487b7160e01b5f52601260045260245ffd5b8115612cf5570490565b612cd7565b906801bc16d674ec8000009180830292830403610a1457565b90670de0b6b3a764000091828102928184041490151715610a1457565b6001600160401b0381116106435760051b60200190565b90612d5182612d30565b612d5e6040519182610676565b8281528092612d6f601f1991612d30565b01905f5b828110612d7f57505050565b806060602080938501015201612d73565b634e487b7160e01b5f52603260045260245ffd5b90821015612dbb57610ff29160051b810190612ca5565b612d90565b908092918237015f815290565b3d15612df7573d90612dde82611295565b91612dec6040519384610676565b82523d5f602084013e565b606090565b60208183031261038d578051906001600160401b03821161038d570181601f8201121561038d578051612e2e81611295565b92612e3c6040519485610676565b8184526020828401011161038d576106ee9160208085019101610697565b8051821015612dbb5760209160051b010190565b919091612e7a83612d47565b925f5b818110612e8957505050565b5f80612e96838587612da4565b60409391612ea8855180938193612dc0565b0390305af490612eb6612dcd565b9115612edd575090600191612ecb8288612e5a565b52612ed68187612e5a565b5001612e7d565b90604481511061038d57612f17612f0260049283810151602480918301019101612dfc565b925162461bcd60e51b815292839283016106dd565b0390fd5b610109546001600160a01b0316806106ee57507f000000000000000000000000000000000000000000000000000000000000000090565b6125243433614811565b60405163752a536d60e01b81526020816004817f00000000000000000000000000000000000000000000000000000000000000006001600160a01b03165afa9081156105d7575f91612ff2575b5060208201916001600160801b03918284511691828214612feb5783612fde612fd9612fe69585848651166130ff565b6136a1565b1690526136a1565b169052565b5050505050565b61300b915060203d6020116105d0576105c28183610676565b5f612fa9565b90808202905f198184099082808310920391808303921461308057612710908282111561306e577fbc01a36e2eb1c432ca57a786c226809d495182a9930be0ded288ce703afb7e91940990828211900360fc1b910360041c170290565b60405163227bc15360e01b8152600490fd5b505061271091500490565b90808202905f19818409908280831092039180830392146130ee57670de0b6b3a7640000908282111561306e577faccb18165bd6fe31ae1cf318dc5b51eee0e1ba569b88cd74c1773b91fac10669940990828211900360ee1b910360121c170290565b5050670de0b6b3a764000091500490565b9091828202915f1984820993838086109503948086039514613172578483111561306e57829109815f038216809204600280826003021880830282030280830282030280830282030280830282030280830282030280920290030293600183805f03040190848311900302920304170290565b5050906106ee9250612ceb565b9081606091031261038d578051916106ee604060208401519301612add565b81835290916001600160fb1b03831161038d5760209260051b809284830137010190565b90602082528035602083015260208101358060130b80910361038d57604083015260408101356131f18161037c565b6001600160a01b031660608381019190915281013536829003601e190181121561038d5701602081359101906001600160401b03811161038d578060051b3603821361038d5760a0836080806106ee960152019161319e565b9190915f8382019384129112908015821691151617610a1457565b6040516325f56f1160e01b81526001600160a01b0392916060908290819061329090600483016131c2565b03815f877f0000000000000000000000000000000000000000000000000000000000000000165af19283156105d7575f915f905f956133b6575b50841561336357816132da6127b7565b16917f000000000000000000000000000000000000000000000000000000000000000016821461335c57509060205f92600460405180958193634641257d60e01b83525af19081156105d757613337925f9261333b575b5061324a565b9190565b61335591925060203d6020116105d0576105c28183610676565b905f613331565b9081613369575b50509190565b803b1561038d57604051636ee3193160e11b815260048101929092525f908290602490829084905af180156105d7576133a3575b80613363565b80610ec66133b092610648565b5f61339d565b919450506133dc915060603d6060116133e4575b6133d48183610676565b81019061317f565b93905f6132ca565b503d6133ca565b600160ff1b8114610a14575f0390565b801561252457613410611ad460cf5460801c90565b5f82126134e7578161342191612a11565b9061342e610d69836136a1565b613443609c549161ffff8360a01c1690613011565b80156134e257807f555ee6b2ef9506d870f386c067e47d3689435330b012ad263d8cc3531868654793613481611ad460cf546001600160801b031690565b806134cc5750506134c790925b6001600160a01b0316916134a28484614f24565b60405193849384604091949392606082019560018060a01b0316825260208201520152565b0390a1565b6134c7926134dc920390846130ff565b9261348e565b505050565b906134f1906133eb565b613506611ad460d5546001600160801b031690565b80613526575b5080613516575050565b612fd9610d699161129393612afe565b906135817f3623a54e8078be0d90ecfbef82da6a31ff3e6be8aa1718e7a7f3d0d33ff1d32a91613571611c1461356661355f8888612a11565b87856130ff565b8080940396036136a1565b6040519081529081906020820190565b0390a15f61350c565b604051630156a69560e11b81523060048201526020816024817f00000000000000000000000000000000000000000000000000000000000000006001600160a01b03165afa9081156105d7575f916135f7575b50156135e557565b604051630a62fbdb60e11b8152600490fd5b613610915060203d60201161145e5761144f8183610676565b5f6135dd565b604051633eb1acf760e11b81523060048201526020816024817f00000000000000000000000000000000000000000000000000000000000000006001600160a01b03165afa9081156105d7575f91613682575b5061367057565b60405163e775715160e01b8152600490fd5b61369b915060203d60201161145e5761144f8183610676565b5f613669565b6001600160801b03908181116136b5571690565b604490604051906306dfcc6560e41b8252608060048301526024820152fd5b51906001600160401b038216820361038d57565b9081606091031261038d5760405190606082018281106001600160401b038211176106435761373a91604091825280516137218161042c565b845261372f602082016136d4565b6020850152016136d4565b604082015290565b60405163e48a5f7b60e01b81523060048201526001600160a01b036060826024817f000000000000000000000000000000000000000000000000000000000000000085165afa80156105d7576137dd936001600160401b03610bd060406137bc946020975f9161382d575b5001516001600160401b031690565b9060405180809581946363737ac960e11b8352600483019190602083019252565b03917f0000000000000000000000000000000000000000000000000000000000000000165afa9081156105d7575f91613814575090565b6106ee915060203d6020116105d0576105c28183610676565b613846915060603d606011610ea257610e938183610676565b5f6137ad565b60018060a01b0381165f5261016e60205260405f20906040519161386f83610628565b54906001600160801b03918281169081855260801c6020850152156134e257612655610bf56138c2926138a0613616565b6138a986612f5c565b6001600160a01b03165f90815260d36020526040902090565b915116116126ec57565b92906001600160a01b039081811615610865576138e7613616565b817f00000000000000000000000000000000000000000000000000000000000000001690813b1561038d57604094855193631d8557d760e01b85526004945f81878183895af180156105d757613bd2575b506001600160a01b0388165f90815261016e6020526040902061395a9061245c565b906001600160801b0361397483516001600160801b031690565b1615613bc25761398382612f5c565b875163e48a5f7b60e01b81523087820190815290916060918391908290819060200103917f0000000000000000000000000000000000000000000000000000000000000000165afa80156105d757613ba3575b508651936303d1689d60e11b978886526020918287806139fd888c83019190602083019252565b0381845afa9687156105d7575f97613b84575b508699613a30610bf58d60018060a01b03165f5260d360205260405f2090565b88118015613b74575b613b64579083613a7692613a5487516001600160801b031690565b908551948592839283528d83019190916001600160801b036020820193169052565b0381845afa9889156105d7575f85948894613abb9c613b47575b5051633b9e9f0160e21b815233928101928352602083019490945292998a9384929091839160400190565b03925af19586156105d757610d10613b0294613ae593610523936112939a613b29575b50506136a1565b6001600160a01b0388165f90815261016e602052604090206124ae565b613b24613b0e83614720565b8097613b1f610d69610d56876136a1565b6150b5565b614686565b81613b3f92903d106105d0576105c28183610676565b505f80613ade565b613b5d90873d89116105d0576105c28183610676565b505f613a90565b825163efda1a2760e01b81528990fd5b50613b7d612781565b8811613a39565b613b9c919750833d85116105d0576105c28183610676565b955f613a10565b613bbb9060603d606011610ea257610e938183610676565b505f6139d6565b875163673f032f60e11b81528690fd5b80610ec6613bdf92610648565b5f613938565b6040515f905f5490613bf6826105dc565b9283825260209384830193600190866001821691825f14613ceb575050600114613ca8575b50509181613c31613ca293612b3b950382610676565b519020604080517f8b73c3c69bb8fe3d512ecc4cf759cc79239f7b179b0ffacaa9a75d522b39400f95810195865260208601929092527fc89efdaa54c0f20c7adf612882df0950f5a951637e0307cdcb4c672f298b8bc69085015246606085015230608085015291829060a0850190565b51902090565b5f80805286935091905f8051602061559b8339815191525b828410613cd65750505082010181613c31613c1b565b80548685018601528794909301928101613cc0565b60ff1916875292151560051b85019092019250839150613c319050613c1b565b613d13614a01565b613d1b614a01565b613d23614d69565b6001600160801b0360d054168101809111610a145760d655613d43614a01565b613d54613d4e614df4565b61010a55565b6101075461010854610109549091906001600160a01b037f00000000000000000000000000000000000000000000000000000000000000008116911690803b1561038d576040516376615a5560e01b8152600481019390935260248301939093526001600160a01b03166044820152905f908290606490829084905af180156105d757613e04575b50613de75f61010755565b613df15f61010855565b61010980546001600160a01b0319169055565b80610ec6613e1192610648565b5f613ddc565b9190613e21614a01565b608082015190613e2f614a01565b6001600160a01b038416801561086557613ecf94613ebf93613ea8926001600160601b0360a01b60375416176037557f2013570c343af8ab14a9778150e381a0fda34ed6368127a95fd5e7210cbec5bf6040516020815280613e96339460208301906106b8565b0390a2602085015161ffff1690614a42565b613eb28351614a93565b613eba614ac3565b614aea565b6060604082015191015190614b19565b611293614c46565b6001600160a01b037f00000000000000000000000000000000000000000000000000000000000000008116308114918215613f15575b50506115c357565b5f805160206155bb8339815191525416141590505f80613f0d565b90613f39614d69565b918201809211610a14571090565b4760d0548060801c8203918211610a145781613f6c6001600160801b038093166124d7565b9081613f92575b505081156127b1576106ee91613f8d9160d5541690614dab565b614dbd565b9192509081811115613fa857035b905f80613f73565b50505f613fa0565b6037546001600160a01b0316330361118857565b613fcc613f47565b9160d654928301809311610a14578083111561401657613fed920390614dab565b9060d5548060801c80155f146140035750508190565b6001600160801b036106ee9216846130ff565b5050505f905f90565b9060405161402c81610628565b91546001600160a01b038116835260a01c6020830152565b60d1545f9485949390918084108015906141d7575b6141ca5783614194575f5b60d15f526001600160a01b03166140895f805160206155fb833981519152860161401f565b80519097906140a0906001600160a01b0316611559565b986140c56140b96020809b01516001600160601b031690565b6001600160601b031690565b94838110801561418a575b6141785791600193979a956140ef6140fb939488035b838c0390614dab565b809201988703916130ff565b0197019380861180159061416e575b6141635760d15f52829061412c5f805160206155fb833981519152870161401f565b805190890151969992966001600160a01b0390911694600193926140fb9290916001600160601b03909116906140ef9088036140e6565b945050509250509190565b508185101561410a565b60405163e8722f8f60e01b8152600490fd5b50808b11156140d0565b60d15f527f695fb3134ad82c3b8022bc5464edd0bcc9424ef672b52245dcb6ab2374327ce28401546001600160a01b0316614064565b505093505050505f905f90565b508415614059565b604290467f00000000000000000000000000000000000000000000000000000000000000000361428e5761010a54905b61422661421f6040830183612ca5565b36916112b0565b602081519101206040519060208201927f838af86bfca91ada6557e38d913af1c2f24ef9b2567b3b77cc9e1144314b35b084523560408301526060820152606081526142718161065b565b5190206040519161190160f01b8352600283015260228201522090565b614296614df4565b9061420f565b600411156142a657565b634e487b7160e01b5f52602160045260245ffd5b6142c48383614ec1565b506142d18195929561429c565b15938461436d575b5083156142e7575b50505090565b5f92935090829160405161431f81612b3b6020820194630b135d3f60e11b998a875260248401526040604484015260648301906106b8565b51915afa9061432c612dcd565b8261435f575b82614342575b50505f80806142e1565b61435791925060208082518301019101612442565b145f80614338565b915060208251101591614332565b6001600160a01b0383811691161493505f6142d9565b9060301161038d5790603090565b9060901161038d5760300190606090565b9060b01161038d5760900190602090565b9093929384831161038d57841161038d578101920390565b3590602081106143d9575090565b5f199060200360031b1b1690565b9695949061442493614408614416926060979560808c5260808c0191612c07565b9089820360208b01526106b8565b918783036040890152612c07565b930152565b9060206106ee928181520190612bef565b9160206106ee938181520191612c07565b60b091828104915f908161445d614efb565b957f00000000000000000000000000000000000000000000000000000000000000006001600160a01b0316935f92905b87841061449f57505050505050505050565b826144ae9101809288876143b3565b906144b98282614383565b916144d86144d26144ca8684614391565b9690936143a2565b906143cb565b90893b1561038d575f908d614505604094855198899485946304512a2360e31b86528a8a600488016143e7565b03816801bc16d674ec8000008d5af19081156105d7577f64b6e61d93b7a91e8cc4376183ede0997a27b44fd9dd2f30a866b2a5730efdb19461455192614560575b50519283928361443a565b0390a16001819301929061448d565b80610ec661456d92610648565b5f614546565b8160301161038d576144d2917f00000000000000000000000000000000000000000000000000000000000000006001600160a01b03166145b1614efb565b906145c86145bf8486614391565b969094866143a2565b94813b1561038d576801bc16d674ec8000005f9461462e97604051988996879586946304512a2360e31b86526080600487015261461f61460c8d6084890190612bef565b60031994858983030160248a01526106b8565b92868403016044870152612c07565b90606483015203925af19081156105d7577f64b6e61d93b7a91e8cc4376183ede0997a27b44fd9dd2f30a866b2a5730efdb1926134c792614677575b5060405191829182614429565b61468090610648565b5f61466a565b907f9b779b17422d0df92223018b32b4d1fa46e071723d6817e2486d003becc55f0091600283541461470e57600283558147106146f6575f918291829182916001600160a01b03165af16146d8612dcd565b50156146e45760019055565b604051630a12f52160e11b8152600490fd5b60405163cd78605960e01b8152306004820152602490fd5b604051633ee5aeb560e01b8152600490fd5b60cf54906001600160801b0382168115801561474f575b156147425750905090565b6106ee9260801c916130ff565b508015614737565b60cf546001600160801b03811690821580156147a7575b1561477857505090565b60801c906147878282856130ff565b928215612cf557096147965790565b60018101809111156106ee57612481565b50811561476e565b6147b7613616565b6001600160a01b031680156147ff57609c80546001600160a01b03191682179055337faaebcf1bfa00580e41d966056b48521fa9f202645c86d4ddf28113e617c1b1d35f80a3565b604051630ed1b8b360e31b8152600490fd5b919061481b613616565b6001600160a01b0383169081156108655780156148c75780614842611ad460cf5460801c90565b019361484c612a03565b85116148b557610d69946148739161486e61486685614757565b9788936136a1565b614f24565b60408051918252602082018590525f9082015233907f861a4138e41fb21c121a7dbb1053df465c837fc77380cc7226189a662281be2c9080606081015b0390a3565b6040516304ffa0ff60e51b8152600490fd5b6040516318374fd160e21b8152600490fd5b909291926148e5613616565b6001600160a01b0382169182156108655781156148c7578161490c611ad460cf5460801c90565b01614915612a03565b81116148b557610d699561495c6148b0927f861a4138e41fb21c121a7dbb1053df465c837fc77380cc7226189a662281be2c9461486e61495488614757565b9a8b936136a1565b60408051948552602085018890526001600160a01b039091169084015233929081906060820190565b6001600160a01b039081169190821580156149f7575b61086557825f5260d360205260405f2090815492858403938411610a14575f805160206155db83398151915293602093556149e68160018060a01b03165f5260d360205260405f2090565b8681540190556040519586521693a3565b508082161561499b565b60ff7ff0c57e16840df040f15088dc2f81fe391c3923bec73e23a9662efc9c229c6a005460401c1615614a3057565b604051631afcd79f60e31b8152600490fd5b614a4a614a01565b61271061ffff831611614a8157614a60906147af565b609c805461ffff60a01b191660a09290921b61ffff60a01b16919091179055565b604051638a81d3b360e01b8152600490fd5b614a9b614a01565b8015614ab15760018101614aac5750565b60d455565b6040516331278a8760e01b8152600490fd5b614acb614a01565b6801bc16d674ec800000614add612a03565b10614ab157613d4e614df4565b614af2614a01565b6001600160a01b031680614b035750565b6101a180546001600160a01b0319169091179055565b614b21614a01565b601e8151118015614c3b575b614c2957614b39614a01565b8051906001600160401b03821161064357614b5d82614b585f546105dc565b615120565b602090816001601f851114614bb557509180614b9392614b9a95945f92614baa575b50508160011b915f199060031b1c19161790565b5f556151ea565b611293614ba5613be5565b600455565b015190505f80614b7f565b5f80529190601f1984165f8051602061559b833981519152935f905b828210614c11575050916001939185614b9a97969410614bf9575b505050811b015f556151ea565b01515f1960f88460031b161c191690555f8080614bec565b80600186978294978701518155019601940190614bd1565b604051632d3f993760e21b8152600490fd5b50600a825111614b2d565b614c4e614a01565b614c56614a01565b614c5e614a01565b60017f9b779b17422d0df92223018b32b4d1fa46e071723d6817e2486d003becc55f0055633b9aca003410614c97576125243430614811565b60405163ea2559bb60e01b8152600490fd5b9081602091031261038d57516106ee81612102565b6040516352d1902d60e01b81529290916020846004816001600160a01b0387165afa5f9481614d48575b50614d0e57604051634c9c8ce360e01b81526001600160a01b0384166004820152602490fd5b90915f805160206155bb8339815191528403614d2f576112939293506152c8565b604051632a87526960e21b815260048101859052602490fd5b614d6291955060203d6020116105d0576105c28183610676565b935f614ce8565b60d15480614d7657505f90565b60d15f527f695fb3134ad82c3b8022bc5464edd0bcc9424ef672b52245dcb6ab2374327ce201546001600160a01b0316611559565b9080821015614db8575090565b905090565b60d554908160801c81158015614dec575b15614dd95750905090565b6001600160801b036106ee9316916130ff565b508015614dce565b6e5661756c7456616c696461746f727360881b6020604051614e1581610628565b600f8152015260405160208101907f8b73c3c69bb8fe3d512ecc4cf759cc79239f7b179b0ffacaa9a75d522b39400f82527f35d6cf9768d8be929c3a11ed667b1560ae6f1920195a985758fdd7265505d1ca60408201527fc89efdaa54c0f20c7adf612882df0950f5a951637e0307cdcb4c672f298b8bc660608201524660808201523060a082015260a0815260c081018181106001600160401b038211176106435760405251902090565b8151919060418303614ef157614eea9250602082015190606060408401519301515f1a9061536a565b9192909190565b50505f9160029190565b604051600160f81b60208201525f60218201523060601b602c820152602081526106ee81610628565b5f805160206155db83398151915260205f92614f3f856136a1565b60cf5490614f576001600160801b0391828416612544565b6001600160801b031990921691161760cf556001600160a01b031680845260d3825260408085208054870190555194855293a3565b60d054906001600160801b0382169182156150af5760801c614fc0614fb18247612afe565b614fba856124d7565b90614dab565b9081156150a857614fd082614720565b9384156150a0578261501d611b04612fd961129396610d6996615018614ffc612fd98d6150959a612afe565b6001600160801b03166001600160801b031960d054161760d055565b612a11565b615027818761545c565b60408051878152602081018390527f624ea167e477f9d39f7f4094b9dfe2e6346eb4a7aada54338db51abd554c4b9f9190a1612fd9615079615068886136a1565b60cf546001600160801b0316612495565b6001600160801b03166001600160801b031960cf54161760cf55565b60cf5460801c612495565b505f93505050565b505f925050565b505f9150565b6001600160a01b03165f81815260d360205260409020805483810391908211610a14575f935f805160206155db83398151915292602092556150f6816136a1565b60cf54906001600160801b03908183160316906001600160801b0319161760cf55604051908152a3565b601f811161512c575050565b5f80525f8051602061559b833981519152906020601f840160051c8301931061516f575b601f0160051c01905b818110615164575050565b5f8155600101615159565b9091508190615150565b90601f8211615186575050565b60019160015f527fb10e2d527612073b26eecdfd717e6a320cf44b4afac2b0732d9fcbe2b7fa0cf6906020601f840160051c830193106151e0575b601f0160051c01905b8181106151d657505050565b5f815582016151ca565b90915081906151c1565b9081516001600160401b038111610643576001906152118161520c84546105dc565b615179565b602080601f8311600114615246575081906152429394955f92614baa5750508160011b915f199060031b1c19161790565b9055565b90601f1983169561527860015f527fb10e2d527612073b26eecdfd717e6a320cf44b4afac2b0732d9fcbe2b7fa0cf690565b925f905b8882106152b15750508385969710615299575b505050811b019055565b01515f1960f88460031b161c191690555f808061528f565b80878596829496860151815501950193019061527c565b90813b15615349575f805160206155bb83398151915280546001600160a01b0319166001600160a01b0384169081179091557fbc7cd75a20ee27fd9adebab32041f755214dbc6bffa90cc0225b39da2e5c2d3b5f80a280511561532e5761252491615531565b50503461533757565b60405163b398979f60e01b8152600490fd5b604051634c9c8ce360e01b81526001600160a01b0383166004820152602490fd5b90917f7fffffffffffffffffffffffffffffff5d576e7357a4501ddfe92f46681b20a084116153f357906153c36020945f9493604051948594859094939260ff6060936080840197845216602083015260408201520152565b838052039060015afa156105d7575f516001600160a01b038116156153e957905f905f90565b505f906001905f90565b5050505f9160039190565b60d154906801000000000000000082101561064357600182018060d155821015612dbb5760d15f52805160209091015160a01b6001600160a01b0319166001600160a01b0391909116175f805160206155fb83398151915290910155565b91909180158015615529575b61551757615474614d69565b908101809111610a14576001600160a01b038082116154f7576001600160601b03908185116154d7579061129393946154c16154d2936154b2611286565b95166001600160a01b03168552565b166001600160601b03166020830152565b6153fe565b6040516306dfcc6560e41b81526060600482015260248101869052604490fd5b6040516306dfcc6560e41b815260a0600482015260248101839052604490fd5b604051632ec8835b60e21b8152600490fd5b508215615468565b5f806106ee93602081519101845af4615548612dcd565b919061555e57508051156146e457805190602001fd5b81511580615591575b61556f575090565b604051639996b31560e01b81526001600160a01b039091166004820152602490fd5b50803b1561556756fe290decd9548b62a8d60345a988386fc84ba6bc95484008f6362f93160ef3e563360894a13ba1a3210667c828492db98dca3e2076cc3735a920a3ca505d382bbcddf252ad1be2c89b69c2b068fc378daa952ba7f163c4a11628f55a4df523b3ef695fb3134ad82c3b8022bc5464edd0bcc9424ef672b52245dcb6ab2374327ce3a264697066735822122054a5a01db94b2f114f0246118c758ce9603c8a0a5a00a5ad865eba122679fe1264736f6c63430008160033",
  "linkReferences": {},
  "deployedLinkReferences": {}
}