{
  "_format": "hh-sol-artifact-1",
  "contractName": "EthGenesisVault",
  "sourceName": "contracts/vaults/ethereum/EthGenesisVault.sol",
  "abi": [
    {
      "inputs": [
        {
          "internalType": "address",
          "name": "_keeper",
          "type": "address"
        },
        {
          "internalType": "address",
          "name": "_vaultsRegistry",
          "type": "address"
        },
        {
          "internalType": "address",
          "name": "_validatorsRegistry",
          "type": "address"
        },
        {
          "internalType": "address",
          "name": "osTokenVaultController",
          "type": "address"
        },
        {
          "internalType": "address",
          "name": "osTokenConfig",
          "type": "address"
        },
        {
          "internalType": "address",
          "name": "osTokenVaultEscrow",
          "type": "address"
        },
        {
          "internalType": "address",
          "name": "sharedMevEscrow",
          "type": "address"
        },
        {
          "internalType": "address",
          "name": "depositDataRegistry",
          "type": "address"
        },
        {
          "internalType": "address",
          "name": "poolEscrow",
          "type": "address"
        },
        {
          "internalType": "address",
          "name": "rewardEthToken",
          "type": "address"
        },
        {
          "internalType": "uint256",
          "name": "exitingAssetsClaimDelay",
          "type": "uint256"
        }
      ],
      "stateMutability": "nonpayable",
      "type": "constructor"
    },
    {
      "inputs": [],
      "name": "AccessDenied",
      "type": "error"
    },
    {
      "inputs": [
        {
          "internalType": "address",
          "name": "target",
          "type": "address"
        }
      ],
      "name": "AddressEmptyCode",
      "type": "error"
    },
    {
      "inputs": [
        {
          "internalType": "address",
          "name": "account",
          "type": "address"
        }
      ],
      "name": "AddressInsufficientBalance",
      "type": "error"
    },
    {
      "inputs": [],
      "name": "CapacityExceeded",
      "type": "error"
    },
    {
      "inputs": [
        {
          "internalType": "address",
          "name": "implementation",
          "type": "address"
        }
      ],
      "name": "ERC1967InvalidImplementation",
      "type": "error"
    },
    {
      "inputs": [],
      "name": "ERC1967NonPayable",
      "type": "error"
    },
    {
      "inputs": [],
      "name": "ExitRequestNotProcessed",
      "type": "error"
    },
    {
      "inputs": [],
      "name": "FailedInnerCall",
      "type": "error"
    },
    {
      "inputs": [],
      "name": "InsufficientAssets",
      "type": "error"
    },
    {
      "inputs": [],
      "name": "InvalidAssets",
      "type": "error"
    },
    {
      "inputs": [],
      "name": "InvalidCapacity",
      "type": "error"
    },
    {
      "inputs": [],
      "name": "InvalidCheckpointIndex",
      "type": "error"
    },
    {
      "inputs": [],
      "name": "InvalidCheckpointValue",
      "type": "error"
    },
    {
      "inputs": [],
      "name": "InvalidFeePercent",
      "type": "error"
    },
    {
      "inputs": [],
      "name": "InvalidFeeRecipient",
      "type": "error"
    },
    {
      "inputs": [],
      "name": "InvalidHealthFactor",
      "type": "error"
    },
    {
      "inputs": [],
      "name": "InvalidInitialHarvest",
      "type": "error"
    },
    {
      "inputs": [],
      "name": "InvalidInitialization",
      "type": "error"
    },
    {
      "inputs": [],
      "name": "InvalidPosition",
      "type": "error"
    },
    {
      "inputs": [],
      "name": "InvalidQueuedShares",
      "type": "error"
    },
    {
      "inputs": [],
      "name": "InvalidReceivedAssets",
      "type": "error"
    },
    {
      "inputs": [],
      "name": "InvalidSecurityDeposit",
      "type": "error"
    },
    {
      "inputs": [],
      "name": "InvalidShares",
      "type": "error"
    },
    {
      "inputs": [],
      "name": "InvalidValidators",
      "type": "error"
    },
    {
      "inputs": [],
      "name": "LiquidationDisabled",
      "type": "error"
    },
    {
      "inputs": [],
      "name": "LowLtv",
      "type": "error"
    },
    {
      "inputs": [],
      "name": "MathOverflowedMulDiv",
      "type": "error"
    },
    {
      "inputs": [],
      "name": "NotCollateralized",
      "type": "error"
    },
    {
      "inputs": [],
      "name": "NotHarvested",
      "type": "error"
    },
    {
      "inputs": [],
      "name": "NotInitializing",
      "type": "error"
    },
    {
      "inputs": [],
      "name": "ReentrancyGuardReentrantCall",
      "type": "error"
    },
    {
      "inputs": [
        {
          "internalType": "uint8",
          "name": "bits",
          "type": "uint8"
        },
        {
          "internalType": "uint256",
          "name": "value",
          "type": "uint256"
        }
      ],
      "name": "SafeCastOverflowedUintDowncast",
      "type": "error"
    },
    {
      "inputs": [
        {
          "internalType": "uint256",
          "name": "value",
          "type": "uint256"
        }
      ],
      "name": "SafeCastOverflowedUintToInt",
      "type": "error"
    },
    {
      "inputs": [],
      "name": "UUPSUnauthorizedCallContext",
      "type": "error"
    },
    {
      "inputs": [
        {
          "internalType": "bytes32",
          "name": "slot",
          "type": "bytes32"
        }
      ],
      "name": "UUPSUnsupportedProxiableUUID",
      "type": "error"
    },
    {
      "inputs": [],
      "name": "UpgradeFailed",
      "type": "error"
    },
    {
      "inputs": [],
      "name": "ZeroAddress",
      "type": "error"
    },
    {
      "anonymous": false,
      "inputs": [
        {
          "indexed": false,
          "internalType": "uint256",
          "name": "shares",
          "type": "uint256"
        },
        {
          "indexed": false,
          "internalType": "uint256",
          "name": "assets",
          "type": "uint256"
        }
      ],
      "name": "CheckpointCreated",
      "type": "event"
    },
    {
      "anonymous": false,
      "inputs": [
        {
          "indexed": true,
          "internalType": "address",
          "name": "caller",
          "type": "address"
        },
        {
          "indexed": true,
          "internalType": "address",
          "name": "receiver",
          "type": "address"
        },
        {
          "indexed": false,
          "internalType": "uint256",
          "name": "assets",
          "type": "uint256"
        },
        {
          "indexed": false,
          "internalType": "uint256",
          "name": "shares",
          "type": "uint256"
        },
        {
          "indexed": false,
          "internalType": "address",
          "name": "referrer",
          "type": "address"
        }
      ],
      "name": "Deposited",
      "type": "event"
    },
    {
      "anonymous": false,
      "inputs": [
        {
          "indexed": true,
          "internalType": "address",
          "name": "owner",
          "type": "address"
        },
        {
          "indexed": true,
          "internalType": "address",
          "name": "receiver",
          "type": "address"
        },
        {
          "indexed": false,
          "internalType": "uint256",
          "name": "positionTicket",
          "type": "uint256"
        },
        {
          "indexed": false,
          "internalType": "uint256",
          "name": "shares",
          "type": "uint256"
        }
      ],
      "name": "ExitQueueEntered",
      "type": "event"
    },
    {
      "anonymous": false,
      "inputs": [
        {
          "indexed": true,
          "internalType": "address",
          "name": "receiver",
          "type": "address"
        },
        {
          "indexed": false,
          "internalType": "uint256",
          "name": "prevPositionTicket",
          "type": "uint256"
        },
        {
          "indexed": false,
          "internalType": "uint256",
          "name": "newPositionTicket",
          "type": "uint256"
        },
        {
          "indexed": false,
          "internalType": "uint256",
          "name": "withdrawnAssets",
          "type": "uint256"
        }
      ],
      "name": "ExitedAssetsClaimed",
      "type": "event"
    },
    {
      "anonymous": false,
      "inputs": [
        {
          "indexed": false,
          "internalType": "uint256",
          "name": "penalty",
          "type": "uint256"
        }
      ],
      "name": "ExitingAssetsPenalized",
      "type": "event"
    },
    {
      "anonymous": false,
      "inputs": [
        {
          "indexed": true,
          "internalType": "address",
          "name": "caller",
          "type": "address"
        },
        {
          "indexed": true,
          "internalType": "address",
          "name": "feeRecipient",
          "type": "address"
        }
      ],
      "name": "FeeRecipientUpdated",
      "type": "event"
    },
    {
      "anonymous": false,
      "inputs": [
        {
          "indexed": false,
          "internalType": "address",
          "name": "receiver",
          "type": "address"
        },
        {
          "indexed": false,
          "internalType": "uint256",
          "name": "shares",
          "type": "uint256"
        },
        {
          "indexed": false,
          "internalType": "uint256",
          "name": "assets",
          "type": "uint256"
        }
      ],
      "name": "FeeSharesMinted",
      "type": "event"
    },
    {
      "anonymous": false,
      "inputs": [
        {
          "indexed": false,
          "internalType": "address",
          "name": "admin",
          "type": "address"
        },
        {
          "indexed": false,
          "internalType": "uint256",
          "name": "capacity",
          "type": "uint256"
        },
        {
          "indexed": false,
          "internalType": "uint16",
          "name": "feePercent",
          "type": "uint16"
        },
        {
          "indexed": false,
          "internalType": "string",
          "name": "metadataIpfsHash",
          "type": "string"
        }
      ],
      "name": "GenesisVaultCreated",
      "type": "event"
    },
    {
      "anonymous": false,
      "inputs": [
        {
          "indexed": false,
          "internalType": "uint64",
          "name": "version",
          "type": "uint64"
        }
      ],
      "name": "Initialized",
      "type": "event"
    },
    {
      "anonymous": false,
      "inputs": [
        {
          "indexed": true,
          "internalType": "address",
          "name": "caller",
          "type": "address"
        },
        {
          "indexed": true,
          "internalType": "address",
          "name": "keysManager",
          "type": "address"
        }
      ],
      "name": "KeysManagerUpdated",
      "type": "event"
    },
    {
      "anonymous": false,
      "inputs": [
        {
          "indexed": true,
          "internalType": "address",
          "name": "caller",
          "type": "address"
        },
        {
          "indexed": false,
          "internalType": "string",
          "name": "metadataIpfsHash",
          "type": "string"
        }
      ],
      "name": "MetadataUpdated",
      "type": "event"
    },
    {
      "anonymous": false,
      "inputs": [
        {
          "indexed": false,
          "internalType": "address",
          "name": "receiver",
          "type": "address"
        },
        {
          "indexed": false,
          "internalType": "uint256",
          "name": "assets",
          "type": "uint256"
        },
        {
          "indexed": false,
          "internalType": "uint256",
          "name": "shares",
          "type": "uint256"
        }
      ],
      "name": "Migrated",
      "type": "event"
    },
    {
      "anonymous": false,
      "inputs": [
        {
          "indexed": true,
          "internalType": "address",
          "name": "caller",
          "type": "address"
        },
        {
          "indexed": false,
          "internalType": "uint256",
          "name": "assets",
          "type": "uint256"
        },
        {
          "indexed": false,
          "internalType": "uint256",
          "name": "shares",
          "type": "uint256"
        }
      ],
      "name": "OsTokenBurned",
      "type": "event"
    },
    {
      "anonymous": false,
      "inputs": [
        {
          "indexed": true,
          "internalType": "address",
          "name": "caller",
          "type": "address"
        },
        {
          "indexed": true,
          "internalType": "address",
          "name": "user",
          "type": "address"
        },
        {
          "indexed": false,
          "internalType": "address",
          "name": "receiver",
          "type": "address"
        },
        {
          "indexed": false,
          "internalType": "uint256",
          "name": "osTokenShares",
          "type": "uint256"
        },
        {
          "indexed": false,
          "internalType": "uint256",
          "name": "shares",
          "type": "uint256"
        },
        {
          "indexed": false,
          "internalType": "uint256",
          "name": "receivedAssets",
          "type": "uint256"
        }
      ],
      "name": "OsTokenLiquidated",
      "type": "event"
    },
    {
      "anonymous": false,
      "inputs": [
        {
          "indexed": true,
          "internalType": "address",
          "name": "caller",
          "type": "address"
        },
        {
          "indexed": false,
          "internalType": "address",
          "name": "receiver",
          "type": "address"
        },
        {
          "indexed": false,
          "internalType": "uint256",
          "name": "assets",
          "type": "uint256"
        },
        {
          "indexed": false,
          "internalType": "uint256",
          "name": "shares",
          "type": "uint256"
        },
        {
          "indexed": false,
          "internalType": "address",
          "name": "referrer",
          "type": "address"
        }
      ],
      "name": "OsTokenMinted",
      "type": "event"
    },
    {
      "anonymous": false,
      "inputs": [
        {
          "indexed": true,
          "internalType": "address",
          "name": "caller",
          "type": "address"
        },
        {
          "indexed": true,
          "internalType": "address",
          "name": "user",
          "type": "address"
        },
        {
          "indexed": false,
          "internalType": "address",
          "name": "receiver",
          "type": "address"
        },
        {
          "indexed": false,
          "internalType": "uint256",
          "name": "osTokenShares",
          "type": "uint256"
        },
        {
          "indexed": false,
          "internalType": "uint256",
          "name": "shares",
          "type": "uint256"
        },
        {
          "indexed": false,
          "internalType": "uint256",
          "name": "assets",
          "type": "uint256"
        }
      ],
      "name": "OsTokenRedeemed",
      "type": "event"
    },
    {
      "anonymous": false,
      "inputs": [
        {
          "indexed": true,
          "internalType": "address",
          "name": "owner",
          "type": "address"
        },
        {
          "indexed": true,
          "internalType": "address",
          "name": "receiver",
          "type": "address"
        },
        {
          "indexed": false,
          "internalType": "uint256",
          "name": "assets",
          "type": "uint256"
        },
        {
          "indexed": false,
          "internalType": "uint256",
          "name": "shares",
          "type": "uint256"
        }
      ],
      "name": "Redeemed",
      "type": "event"
    },
    {
      "anonymous": false,
      "inputs": [
        {
          "indexed": true,
          "internalType": "address",
          "name": "implementation",
          "type": "address"
        }
      ],
      "name": "Upgraded",
      "type": "event"
    },
    {
      "anonymous": false,
      "inputs": [
        {
          "indexed": true,
          "internalType": "address",
          "name": "owner",
          "type": "address"
        },
        {
          "indexed": true,
          "internalType": "address",
          "name": "receiver",
          "type": "address"
        },
        {
          "indexed": false,
          "internalType": "uint256",
          "name": "positionTicket",
          "type": "uint256"
        },
        {
          "indexed": false,
          "internalType": "uint256",
          "name": "shares",
          "type": "uint256"
        },
        {
          "indexed": false,
          "internalType": "uint256",
          "name": "assets",
          "type": "uint256"
        }
      ],
      "name": "V2ExitQueueEntered",
      "type": "event"
    },
    {
      "anonymous": false,
      "inputs": [
        {
          "indexed": false,
          "internalType": "bytes",
          "name": "publicKey",
          "type": "bytes"
        }
      ],
      "name": "ValidatorRegistered",
      "type": "event"
    },
    {
      "anonymous": false,
      "inputs": [
        {
          "indexed": true,
          "internalType": "address",
          "name": "caller",
          "type": "address"
        },
        {
          "indexed": true,
          "internalType": "address",
          "name": "validatorsManager",
          "type": "address"
        }
      ],
      "name": "ValidatorsManagerUpdated",
      "type": "event"
    },
    {
      "anonymous": false,
      "inputs": [
        {
          "indexed": true,
          "internalType": "address",
          "name": "caller",
          "type": "address"
        },
        {
          "indexed": true,
          "internalType": "bytes32",
          "name": "validatorsRoot",
          "type": "bytes32"
        }
      ],
      "name": "ValidatorsRootUpdated",
      "type": "event"
    },
    {
      "inputs": [],
      "name": "UPGRADE_INTERFACE_VERSION",
      "outputs": [
        {
          "internalType": "string",
          "name": "",
          "type": "string"
        }
      ],
      "stateMutability": "view",
      "type": "function"
    },
    {
      "inputs": [],
      "name": "acceptPoolEscrowOwnership",
      "outputs": [],
      "stateMutability": "nonpayable",
      "type": "function"
    },
    {
      "inputs": [],
      "name": "admin",
      "outputs": [
        {
          "internalType": "address",
          "name": "",
          "type": "address"
        }
      ],
      "stateMutability": "view",
      "type": "function"
    },
    {
      "inputs": [
        {
          "internalType": "uint128",
          "name": "osTokenShares",
          "type": "uint128"
        }
      ],
      "name": "burnOsToken",
      "outputs": [
        {
          "internalType": "uint256",
          "name": "assets",
          "type": "uint256"
        }
      ],
      "stateMutability": "nonpayable",
      "type": "function"
    },
    {
      "inputs": [
        {
          "internalType": "address",
          "name": "receiver",
          "type": "address"
        },
        {
          "internalType": "uint256",
          "name": "positionTicket",
          "type": "uint256"
        },
        {
          "internalType": "uint256",
          "name": "timestamp",
          "type": "uint256"
        },
        {
          "internalType": "uint256",
          "name": "exitQueueIndex",
          "type": "uint256"
        }
      ],
      "name": "calculateExitedAssets",
      "outputs": [
        {
          "internalType": "uint256",
          "name": "leftTickets",
          "type": "uint256"
        },
        {
          "internalType": "uint256",
          "name": "exitedTickets",
          "type": "uint256"
        },
        {
          "internalType": "uint256",
          "name": "exitedAssets",
          "type": "uint256"
        }
      ],
      "stateMutability": "view",
      "type": "function"
    },
    {
      "inputs": [],
      "name": "capacity",
      "outputs": [
        {
          "internalType": "uint256",
          "name": "",
          "type": "uint256"
        }
      ],
      "stateMutability": "view",
      "type": "function"
    },
    {
      "inputs": [
        {
          "internalType": "uint256",
          "name": "positionTicket",
          "type": "uint256"
        },
        {
          "internalType": "uint256",
          "name": "timestamp",
          "type": "uint256"
        },
        {
          "internalType": "uint256",
          "name": "exitQueueIndex",
          "type": "uint256"
        }
      ],
      "name": "claimExitedAssets",
      "outputs": [],
      "stateMutability": "nonpayable",
      "type": "function"
    },
    {
      "inputs": [
        {
          "internalType": "uint256",
          "name": "shares",
          "type": "uint256"
        }
      ],
      "name": "convertToAssets",
      "outputs": [
        {
          "internalType": "uint256",
          "name": "assets",
          "type": "uint256"
        }
      ],
      "stateMutability": "view",
      "type": "function"
    },
    {
      "inputs": [
        {
          "internalType": "uint256",
          "name": "assets",
          "type": "uint256"
        }
      ],
      "name": "convertToShares",
      "outputs": [
        {
          "internalType": "uint256",
          "name": "shares",
          "type": "uint256"
        }
      ],
      "stateMutability": "view",
      "type": "function"
    },
    {
      "inputs": [
        {
          "internalType": "address",
          "name": "receiver",
          "type": "address"
        },
        {
          "internalType": "address",
          "name": "referrer",
          "type": "address"
        }
      ],
      "name": "deposit",
      "outputs": [
        {
          "internalType": "uint256",
          "name": "shares",
          "type": "uint256"
        }
      ],
      "stateMutability": "payable",
      "type": "function"
    },
    {
      "inputs": [
        {
          "internalType": "address",
          "name": "receiver",
          "type": "address"
        },
        {
          "internalType": "uint256",
          "name": "osTokenShares",
          "type": "uint256"
        },
        {
          "internalType": "address",
          "name": "referrer",
          "type": "address"
        }
      ],
      "name": "depositAndMintOsToken",
      "outputs": [
        {
          "internalType": "uint256",
          "name": "",
          "type": "uint256"
        }
      ],
      "stateMutability": "payable",
      "type": "function"
    },
    {
      "inputs": [
        {
          "internalType": "uint256",
          "name": "shares",
          "type": "uint256"
        },
        {
          "internalType": "address",
          "name": "receiver",
          "type": "address"
        }
      ],
      "name": "enterExitQueue",
      "outputs": [
        {
          "internalType": "uint256",
          "name": "positionTicket",
          "type": "uint256"
        }
      ],
      "stateMutability": "nonpayable",
      "type": "function"
    },
    {
      "inputs": [],
      "name": "feePercent",
      "outputs": [
        {
          "internalType": "uint16",
          "name": "",
          "type": "uint16"
        }
      ],
      "stateMutability": "view",
      "type": "function"
    },
    {
      "inputs": [],
      "name": "feeRecipient",
      "outputs": [
        {
          "internalType": "address",
          "name": "",
          "type": "address"
        }
      ],
      "stateMutability": "view",
      "type": "function"
    },
    {
      "inputs": [
        {
          "internalType": "uint256",
          "name": "positionTicket",
          "type": "uint256"
        }
      ],
      "name": "getExitQueueIndex",
      "outputs": [
        {
          "internalType": "int256",
          "name": "",
          "type": "int256"
        }
      ],
      "stateMutability": "view",
      "type": "function"
    },
    {
      "inputs": [
        {
          "internalType": "address",
          "name": "account",
          "type": "address"
        }
      ],
      "name": "getShares",
      "outputs": [
        {
          "internalType": "uint256",
          "name": "",
          "type": "uint256"
        }
      ],
      "stateMutability": "view",
      "type": "function"
    },
    {
      "inputs": [],
      "name": "implementation",
      "outputs": [
        {
          "internalType": "address",
          "name": "",
          "type": "address"
        }
      ],
      "stateMutability": "view",
      "type": "function"
    },
    {
      "inputs": [
        {
          "internalType": "bytes",
          "name": "params",
          "type": "bytes"
        }
      ],
      "name": "initialize",
      "outputs": [],
      "stateMutability": "payable",
      "type": "function"
    },
    {
      "inputs": [],
      "name": "isStateUpdateRequired",
      "outputs": [
        {
          "internalType": "bool",
          "name": "",
          "type": "bool"
        }
      ],
      "stateMutability": "view",
      "type": "function"
    },
    {
      "inputs": [
        {
          "internalType": "uint256",
          "name": "osTokenShares",
          "type": "uint256"
        },
        {
          "internalType": "address",
          "name": "owner",
          "type": "address"
        },
        {
          "internalType": "address",
          "name": "receiver",
          "type": "address"
        }
      ],
      "name": "liquidateOsToken",
      "outputs": [],
      "stateMutability": "nonpayable",
      "type": "function"
    },
    {
      "inputs": [],
      "name": "mevEscrow",
      "outputs": [
        {
          "internalType": "address",
          "name": "",
          "type": "address"
        }
      ],
      "stateMutability": "view",
      "type": "function"
    },
    {
      "inputs": [
        {
          "internalType": "address",
          "name": "receiver",
          "type": "address"
        },
        {
          "internalType": "uint256",
          "name": "assets",
          "type": "uint256"
        }
      ],
      "name": "migrate",
      "outputs": [
        {
          "internalType": "uint256",
          "name": "shares",
          "type": "uint256"
        }
      ],
      "stateMutability": "nonpayable",
      "type": "function"
    },
    {
      "inputs": [
        {
          "internalType": "address",
          "name": "receiver",
          "type": "address"
        },
        {
          "internalType": "uint256",
          "name": "osTokenShares",
          "type": "uint256"
        },
        {
          "internalType": "address",
          "name": "referrer",
          "type": "address"
        }
      ],
      "name": "mintOsToken",
      "outputs": [
        {
          "internalType": "uint256",
          "name": "assets",
          "type": "uint256"
        }
      ],
      "stateMutability": "nonpayable",
      "type": "function"
    },
    {
      "inputs": [
        {
          "internalType": "bytes[]",
          "name": "data",
          "type": "bytes[]"
        }
      ],
      "name": "multicall",
      "outputs": [
        {
          "internalType": "bytes[]",
          "name": "results",
          "type": "bytes[]"
        }
      ],
      "stateMutability": "nonpayable",
      "type": "function"
    },
    {
      "inputs": [
        {
          "internalType": "address",
          "name": "user",
          "type": "address"
        }
      ],
      "name": "osTokenPositions",
      "outputs": [
        {
          "internalType": "uint128",
          "name": "shares",
          "type": "uint128"
        }
      ],
      "stateMutability": "view",
      "type": "function"
    },
    {
      "inputs": [],
      "name": "proxiableUUID",
      "outputs": [
        {
          "internalType": "bytes32",
          "name": "",
          "type": "bytes32"
        }
      ],
      "stateMutability": "view",
      "type": "function"
    },
    {
      "inputs": [],
      "name": "queuedShares",
      "outputs": [
        {
          "internalType": "uint128",
          "name": "",
          "type": "uint128"
        }
      ],
      "stateMutability": "view",
      "type": "function"
    },
    {
      "inputs": [],
      "name": "receiveFromMevEscrow",
      "outputs": [],
      "stateMutability": "payable",
      "type": "function"
    },
    {
      "inputs": [
        {
          "internalType": "uint256",
          "name": "osTokenShares",
          "type": "uint256"
        },
        {
          "internalType": "address",
          "name": "owner",
          "type": "address"
        },
        {
          "internalType": "address",
          "name": "receiver",
          "type": "address"
        }
      ],
      "name": "redeemOsToken",
      "outputs": [],
      "stateMutability": "nonpayable",
      "type": "function"
    },
    {
      "inputs": [
        {
          "components": [
            {
              "internalType": "bytes32",
              "name": "validatorsRegistryRoot",
              "type": "bytes32"
            },
            {
              "internalType": "uint256",
              "name": "deadline",
              "type": "uint256"
            },
            {
              "internalType": "bytes",
              "name": "validators",
              "type": "bytes"
            },
            {
              "internalType": "bytes",
              "name": "signatures",
              "type": "bytes"
            },
            {
              "internalType": "string",
              "name": "exitSignaturesIpfsHash",
              "type": "string"
            }
          ],
          "internalType": "struct IKeeperValidators.ApprovalParams",
          "name": "keeperParams",
          "type": "tuple"
        },
        {
          "internalType": "bytes",
          "name": "validatorsManagerSignature",
          "type": "bytes"
        }
      ],
      "name": "registerValidators",
      "outputs": [],
      "stateMutability": "nonpayable",
      "type": "function"
    },
    {
      "inputs": [
        {
          "internalType": "address",
          "name": "_feeRecipient",
          "type": "address"
        }
      ],
      "name": "setFeeRecipient",
      "outputs": [],
      "stateMutability": "nonpayable",
      "type": "function"
    },
    {
      "inputs": [
        {
          "internalType": "string",
          "name": "metadataIpfsHash",
          "type": "string"
        }
      ],
      "name": "setMetadata",
      "outputs": [],
      "stateMutability": "nonpayable",
      "type": "function"
    },
    {
      "inputs": [
        {
          "internalType": "address",
          "name": "validatorsManager_",
          "type": "address"
        }
      ],
      "name": "setValidatorsManager",
      "outputs": [],
      "stateMutability": "nonpayable",
      "type": "function"
    },
    {
      "inputs": [],
      "name": "totalAssets",
      "outputs": [
        {
          "internalType": "uint256",
          "name": "",
          "type": "uint256"
        }
      ],
      "stateMutability": "view",
      "type": "function"
    },
    {
      "inputs": [],
      "name": "totalExitingAssets",
      "outputs": [
        {
          "internalType": "uint128",
          "name": "",
          "type": "uint128"
        }
      ],
      "stateMutability": "view",
      "type": "function"
    },
    {
      "inputs": [],
      "name": "totalShares",
      "outputs": [
        {
          "internalType": "uint256",
          "name": "",
          "type": "uint256"
        }
      ],
      "stateMutability": "view",
      "type": "function"
    },
    {
      "inputs": [
        {
          "internalType": "uint256",
          "name": "osTokenShares",
          "type": "uint256"
        }
      ],
      "name": "transferOsTokenPositionToEscrow",
      "outputs": [
        {
          "internalType": "uint256",
          "name": "positionTicket",
          "type": "uint256"
        }
      ],
      "stateMutability": "nonpayable",
      "type": "function"
    },
    {
      "inputs": [
        {
          "components": [
            {
              "internalType": "bytes32",
              "name": "rewardsRoot",
              "type": "bytes32"
            },
            {
              "internalType": "int160",
              "name": "reward",
              "type": "int160"
            },
            {
              "internalType": "uint160",
              "name": "unlockedMevReward",
              "type": "uint160"
            },
            {
              "internalType": "bytes32[]",
              "name": "proof",
              "type": "bytes32[]"
            }
          ],
          "internalType": "struct IKeeperRewards.HarvestParams",
          "name": "harvestParams",
          "type": "tuple"
        }
      ],
      "name": "updateState",
      "outputs": [],
      "stateMutability": "nonpayable",
      "type": "function"
    },
    {
      "inputs": [
        {
          "internalType": "address",
          "name": "receiver",
          "type": "address"
        },
        {
          "internalType": "address",
          "name": "referrer",
          "type": "address"
        },
        {
          "components": [
            {
              "internalType": "bytes32",
              "name": "rewardsRoot",
              "type": "bytes32"
            },
            {
              "internalType": "int160",
              "name": "reward",
              "type": "int160"
            },
            {
              "internalType": "uint160",
              "name": "unlockedMevReward",
              "type": "uint160"
            },
            {
              "internalType": "bytes32[]",
              "name": "proof",
              "type": "bytes32[]"
            }
          ],
          "internalType": "struct IKeeperRewards.HarvestParams",
          "name": "harvestParams",
          "type": "tuple"
        }
      ],
      "name": "updateStateAndDeposit",
      "outputs": [
        {
          "internalType": "uint256",
          "name": "shares",
          "type": "uint256"
        }
      ],
      "stateMutability": "payable",
      "type": "function"
    },
    {
      "inputs": [
        {
          "internalType": "address",
          "name": "receiver",
          "type": "address"
        },
        {
          "internalType": "uint256",
          "name": "osTokenShares",
          "type": "uint256"
        },
        {
          "internalType": "address",
          "name": "referrer",
          "type": "address"
        },
        {
          "components": [
            {
              "internalType": "bytes32",
              "name": "rewardsRoot",
              "type": "bytes32"
            },
            {
              "internalType": "int160",
              "name": "reward",
              "type": "int160"
            },
            {
              "internalType": "uint160",
              "name": "unlockedMevReward",
              "type": "uint160"
            },
            {
              "internalType": "bytes32[]",
              "name": "proof",
              "type": "bytes32[]"
            }
          ],
          "internalType": "struct IKeeperRewards.HarvestParams",
          "name": "harvestParams",
          "type": "tuple"
        }
      ],
      "name": "updateStateAndDepositAndMintOsToken",
      "outputs": [
        {
          "internalType": "uint256",
          "name": "",
          "type": "uint256"
        }
      ],
      "stateMutability": "payable",
      "type": "function"
    },
    {
      "inputs": [
        {
          "internalType": "address",
          "name": "newImplementation",
          "type": "address"
        },
        {
          "internalType": "bytes",
          "name": "data",
          "type": "bytes"
        }
      ],
      "name": "upgradeToAndCall",
      "outputs": [],
      "stateMutability": "payable",
      "type": "function"
    },
    {
      "inputs": [],
      "name": "validatorsManager",
      "outputs": [
        {
          "internalType": "address",
          "name": "",
          "type": "address"
        }
      ],
      "stateMutability": "view",
      "type": "function"
    },
    {
      "inputs": [],
      "name": "vaultId",
      "outputs": [
        {
          "internalType": "bytes32",
          "name": "",
          "type": "bytes32"
        }
      ],
      "stateMutability": "pure",
      "type": "function"
    },
    {
      "inputs": [],
      "name": "version",
      "outputs": [
        {
          "internalType": "uint8",
          "name": "",
          "type": "uint8"
        }
      ],
      "stateMutability": "pure",
      "type": "function"
    },
    {
      "inputs": [],
      "name": "withdrawableAssets",
      "outputs": [
        {
          "internalType": "uint256",
          "name": "",
          "type": "uint256"
        }
      ],
      "stateMutability": "view",
      "type": "function"
    },
    {
      "stateMutability": "payable",
      "type": "receive"
    }
  ],
  "bytecode": "0x61022034620002f657601f6200585238819003918201601f19168301926001600160401b039290919083851183861017620002fa578083926040968752833961016092839181010312620002f657620000d793620000e59362000062836200030e565b9162000071602085016200030e565b946200007f8286016200030e565b946200008e606082016200030e565b926200009d608083016200030e565b93620000ac60a084016200030e565b95620000bb60c085016200030e565b97620000ca60e086016200030e565b6101009d8e87016200030e565b9a6101209d8e88016200030e565b9c610140809801519360805260a05260c0523060e0528d52468c52845260018060a01b0380921685528161018096168652816101a0971687526101c09788527ff0c57e16840df040f15088dc2f81fe391c3923bec73e23a9662efc9c229c6a009081549060ff82861c16620002e5578080831603620002a0575b505050806101e09816885261020098168852519761552e998a620003248b396080518a8181611428015281816115c00152818161213401528181612dfc01528181613eec015261524c015260a0518a6110f5015260c0518a818161411e0152614247015260e0518a81816112740152613cc201525189612a6401525188613f62015251876117660152518681816104140152818161072001528181612ad70152818161340001528181613568015281816136a1015281816137f7015281816138d601526145aa0152518581816107df01528181610db001528181613995015261452e01525184611a3001525183818161235e0152612e4401525182818161066e01528181611e3601528181612210015281816122e501528181612a88015281816131670152614eed015251818181611cea015281816121ad0152612f9e0152f35b6001600160401b0319909116811790915582519081527fc7f505b2f371ae2175ee4913f4499e1f2633a7b5936321eed1cdaeb6115181d290602090a15f80806200015f565b845163f92ee8a960e01b8152600490fd5b5f80fd5b634e487b7160e01b5f52604160045260245ffd5b51906001600160a01b0382168203620002f65756fe60806040526004361015610022575b3615610018575f80fd5b610020612a86565b005b5f3560e01c806301d523b6146102f157806301e1d114146102ec578063066055e0146102e757806307a2d13a146102e257806318f72950146102dd5780631a7ff553146102d8578063201b9eb5146102d357806323d18ed8146102ce5780632999ad3f146102c95780632cdf7401146102c45780633229fa95146102bf57806333194c0a146102ba57806336fe59d2146102b55780633a98ef39146102b0578063439fab91146102ab57806343e82a79146102a657806346904840146102a15780634ec96b221461029c5780634f1ef2861461029757806352d1902d1461029257806353156f281461028d57806354fd4d50146102885780635c60da1b146102835780635cfc1a511461027e57806360d60e6e1461027957806372b410a814610274578063754c38881461026f57806376b58b901461026a5780637fd6f15c1461026557806383d430d5146102605780638697d2c21461025b5780638ceab9aa146102565780639267842a14610251578063a49a1e7d1461024c578063ac9650d814610247578063ad3cb1cc14610242578063ad68ebf71461023d578063b1f0e7c714610238578063c6e6f59214610233578063d83ad00c1461022e578063e74b981b14610229578063ee3bd5df14610224578063f04da65b1461021f578063f851a4401461021a5763f9609f080361000e57611fa4565b611f7d565b611f42565b611f1c565b611eef565b611ec9565b611eab565b611e91565b611cbe565b611c79565b611c03565b611b08565b611914565b6118e0565b61173a565b61156a565b611546565b6114f5565b61148a565b6113fd565b611358565b61133e565b61130a565b6112ef565b6112cb565b611262565b610fdd565b610eb6565b610e8e565b610d81565b610cbb565b610c3a565b610c19565b610bdf565b610bb3565b610b99565b6106f6565b610653565b610639565b6105da565b610586565b610568565b6103c4565b610393565b610319565b6001600160a01b0381160361030757565b5f80fd5b908160809103126103075790565b608036600319011261030757600435610331816102f6565b60443561033d816102f6565b606435906001600160401b0382116103075760209261036b61036661038194369060040161030b565b61210d565b6103768234336147e0565b5060243590336135e2565b604051908152f35b5f91031261030757565b34610307575f36600319011261030757602060985460801c604051908152f35b6001600160801b0381160361030757565b34610307576020366003190112610307576004356103e1816103b3565b604051633b9e9f0160e21b81523360048201526001600160801b03821660248201526020816044815f6001600160a01b037f0000000000000000000000000000000000000000000000000000000000000000165af1908115610563575f91610534575b50335f9081526101376020526040902061045d90611fe8565b916001600160801b0361047784516001600160801b031690565b1615610522576104d08361048d61051e95612ac2565b6104b76104aa846104a584516001600160801b031690565b612039565b6001600160801b03168252565b335f90815261013760205260409020612052565b612052565b604080518381526001600160801b0392909216602083015233917f3f7354ba02880b4fa37a629985852a38417ff369369ce1e52fa6f8342a9100a79190a26040519081529081906020820190565b0390f35b60405163673f032f60e11b8152600490fd5b610556915060203d60201161055c575b61054e8183610f6b565b810190611fce565b5f610444565b503d610544565b611fdd565b34610307576020366003190112610307576020610381600435612084565b60603660031901126103075760043561059e816102f6565b6024356105aa816102f6565b604435906001600160401b038211610307576020926105d361036661038194369060040161030b565b34906147e0565b34610307576020366003190112610307576004356001600160401b0381116103075761036661002091369060040161030b565b606090600319011261030757600435610625816102f6565b9060243590604435610636816102f6565b90565b3461030757602061038161064c3661060d565b91336135e2565b34610307575f806003193601126103075761066c613851565b7f00000000000000000000000000000000000000000000000000000000000000006001600160a01b0316803b15610307575f809160046040518094819363b4b6d74f60e01b83525af18015610563576106c3575080f35b6100209150610f02565b606090600319011261030757600435906024356106e9816102f6565b90604435610636816102f6565b3461030757610704366106cd565b906001600160a01b0380831615610b875761071d613ed1565b807f00000000000000000000000000000000000000000000000000000000000000001691823b156103075760408051631d8557d760e01b815260049491905f81878183875af1801561056357610b6e575b506001600160a01b0383165f9081526101376020526040902061079090611fe8565b6001600160801b0392836107ab83516001600160801b031690565b1615610b5e576107ba82612ac2565b825163e48a5f7b60e01b8152308882019081529097906060908990819060200103818a7f0000000000000000000000000000000000000000000000000000000000000000165afa978815610563575f98610b2d575b50602097888101956001600160401b039182806108338a516001600160401b031690565b1614610b1d57908c92918751918c838061085f6303d1689d60e11b988983528a83019190602083019252565b03818a5afa9182156105635761088b938e5f94610af8575b5050516001600160801b03165b1690612b77565b966108af6108a98a60018060a01b03165f52609c60205260405f2090565b54612084565b928389118015610ae8575b610ad857908b6108f893926108d689516001600160801b031690565b908a51958692839283528983019190916001600160801b036020820193169052565b0381895afa91821561056357670de0b6b3a764000094610947948e5f95610aab575b505061093961092b61093f92612820565b93516001600160401b031690565b93612820565b921690612c65565b1015610a9d578351633b9e9f0160e21b815233918101918252602082018b905294939291889186919082905f90829060400103925af1908115610563577f61fd285f9e34a3dbfa9846bdcf22a023e37a3c93549902843b30dd74a18c535097610a7a956109f193610a7f575b50506109d46104aa6109c48c61434c565b83516001600160801b0316612039565b6001600160a01b0386165f90815261013760205260409020612052565b6109fa82614627565b90610a39610a1e610a0a8561434c565b60985460801c5b036001600160801b031690565b6001600160801b036098549181199060801b16911617609855565b610a438286614bb7565b610a4d838961437f565b51948594169733978590949392606092608083019660018060a01b03168352602083015260408201520152565b0390a3005b81610a9592903d1061055c5761054e8183610f6b565b505f806109b3565b835163185cfc6d60e11b8152fd5b61093f929550610ace610939928261092b93903d1061055c5761054e8183610f6b565b959250508e61091a565b875163efda1a2760e01b81528590fd5b50610af16122e3565b89116108ba565b6108849294509081610b1592903d1061055c5761054e8183610f6b565b92908e610877565b8651630709133160e01b81528490fd5b610b5091985060603d606011610b57575b610b488183610f6b565b810190613878565b965f61080f565b503d610b3e565b825163673f032f60e11b81528790fd5b80610b7b610b8192610f02565b80610389565b5f61076e565b60405163d92e233d60e01b8152600490fd5b34610307575f3660031901126103075760206103816122e3565b34610307575f366003190112610307576020610bcd612345565b6040516001600160a01b039091168152f35b34610307575f3660031901126103075760206040517f11a6b7bef0f97d298d56e5af2aa94330353808e861cbac86172faad21b10c5058152f35b6020610381610c273661060d565b91610c338334336147e0565b50336135e2565b34610307575f3660031901126103075760206001600160801b0360985416604051908152f35b9181601f84011215610307578235916001600160401b038311610307576020838186019501011161030757565b602060031982011261030757600435906001600160401b03821161030757610cb791600401610c60565b9091565b610cc436610c8d565b907ff0c57e16840df040f15088dc2f81fe391c3923bec73e23a9662efc9c229c6a009182549160ff8360401c168015610d6d575b610d5b5768010000000000000003610d1e9368ffffffffffffffffff191617845561243f565b68ff00000000000000001981541690557fc7f505b2f371ae2175ee4913f4499e1f2633a7b5936321eed1cdaeb6115181d2602060405160038152a1005b60405163f92ee8a960e01b8152600490fd5b5060036001600160401b0384161015610cf8565b3461030757610d8f366106cd565b60405163057453a760e31b81529091906001600160a01b03906020816004817f000000000000000000000000000000000000000000000000000000000000000086165afa80156105635782915f91610e5f575b50163303610e4d5781610a7a610e1a86867f57f5eb636bf62215c111b54545422f11dfb0cb115f606be905f0be08e8859dd3966138b8565b604080516001600160a01b0390981688526020880198909852968601526060850195909552169233929081906080820190565b604051634ca8886760e01b8152600490fd5b610e81915060203d602011610e87575b610e798183610f6b565b8101906120f8565b5f610de2565b503d610e6f565b34610307575f366003190112610307576065546040516001600160a01b039091168152602090f35b34610307576020366003190112610307576020610edd600435610ed8816102f6565b6125e5565b6001600160801b0360405191168152f35b634e487b7160e01b5f52604160045260245ffd5b6001600160401b038111610f1557604052565b610eee565b604081019081106001600160401b03821117610f1557604052565b606081019081106001600160401b03821117610f1557604052565b608081019081106001600160401b03821117610f1557604052565b90601f801991011681019081106001600160401b03821117610f1557604052565b6001600160401b038111610f1557601f01601f191660200190565b929192610fb382610f8c565b91610fc16040519384610f6b565b829481845281830111610307578281602093845f960137010152565b604080600319360112610307576004908135610ff8816102f6565b6024356001600160401b0381116103075736602382011215610307576110279036906024818701359101610fa7565b91611030613cb8565b8051926110678461105960209363439fab9160e01b858401528460248401526044830190611b7b565b03601f198101865285610f6b565b61106f613cb8565b611077613851565b6001600160a01b0383811680159291908790841561122d575b84156111bf575b841561115c575b505082156110c6575b50506110b7576100208383614d39565b516355299b4960e01b81528390fd5b83516345da87c560e01b81526001600160a01b03861688820190815292935091839183918290819060200103917f0000000000000000000000000000000000000000000000000000000000000000165afa918215610563575f9261112f575b5050155f806110a7565b61114e9250803d10611155575b6111468183610f6b565b8101906120b7565b5f80611125565b503d61113c565b855163054fd4d560e41b81529294508391839182905afa90811561056357879160ff915f91611192575b5016141591865f61109e565b6111b29150843d86116111b8575b6111aa8183610f6b565b810190614d20565b5f611186565b503d6111a0565b935050835163198ca60560e11b815282818981875afa9081156105635788917f11a6b7bef0f97d298d56e5af2aa94330353808e861cbac86172faad21b10c505915f91611210575b50141593611097565b6112279150853d871161055c5761054e8183610f6b565b5f611207565b5f805160206154d983398151915254909450849061125b906001600160a01b03165b6001600160a01b031690565b1493611090565b34610307575f366003190112610307577f00000000000000000000000000000000000000000000000000000000000000006001600160a01b031630036112b95760206040515f805160206154d98339815191528152f35b60405163703e46dd60e11b8152600490fd5b5f366003190112610307576001600160a01b036112e6612345565b163303610e4d57005b34610307575f36600319011261030757602060405160038152f35b34610307575f366003190112610307575f805160206154d9833981519152546040516001600160a01b039091168152602090f35b34610307575f366003190112610307576020610381612637565b3461030757602036600319011261030757609a80549081905f6004355b8482106113a65750505081101561139b5761051e905b6040519081529081906020820190565b5061051e5f1961138b565b909193808316906001818518811c83018093116113f8575f8790525f805160206154998339815191528301546001600160a01b03168410156113ed575050935b9190611375565b9095910192506113e6565b61200d565b34610307575f36600319011261030757604051633eb1acf760e11b81523060048201526020816024817f00000000000000000000000000000000000000000000000000000000000000006001600160a01b03165afa8015610563576020915f9161146d575b506040519015158152f35b6114849150823d8411611155576111468183610f6b565b5f611462565b34610307576020366003190112610307576004356114a7816102f6565b6114af613851565b60d280546001600160a01b0319166001600160a01b03929092169182179055337f6bdc78d8c88160b3fc3638e67f2afe523b3f4c7d00c56ebb6216790e4c3eb2cb5f80a3005b346103075760803660031901126103075761051e611529600435611518816102f6565b606435906044359060243590612652565b604080519384526020840192909252908201529081906060820190565b34610307575f36600319011261030757602061ffff60655460a01c16604051908152f35b34610307576003196040368201126103075760049081356001600160401b038082116103075760a082850193833603011261030757602435908111610307576115b69036908501610c60565b6001600160a01b037f00000000000000000000000000000000000000000000000000000000000000008116803b156103075760405163837d444160e01b8152905f9082908183816116098c828f01612734565b03925af1801561056357611727575b50611621613ed1565b611629612a50565b90811633141591826116f8575b505090506116e7576044019160b061164e84846127b2565b905004801580156116cf575b6116bf5761166f6116696122e3565b91612807565b116116b0575060b061168183836127b2565b9050145f1461169d5761002091611697916127b2565b90614231565b610020916116aa916127b2565b906140ff565b6040516396d8043360e01b8152fd5b50604051631c6c4cf360e31b8152fd5b506116da84846127b2565b905060b08202141561165a565b604051634ca8886760e01b81528390fd5b61171b925061171561171f9461170d88613f5c565b923691610fa7565b91614036565b1590565b805f80611636565b80610b7b61173492610f02565b5f611618565b346103075760603660031901126103075760043560243561175f604435828433612652565b919261178b7f00000000000000000000000000000000000000000000000000000000000000008261283d565b421080156118d8575b80156118d0575b6118be577feb3b05c070c24f667611fdb3ff75fe007d42401c573aed8d8faca95fd00ccb56936117f66117db6117d08661434c565b60995460801c612039565b6001600160801b036099549181199060801b16911617609955565b60408051336020820190815291810184905260608082018990528152601f1993915f9161183a9190611829608082610f6b565b5190205f52609b60205260405f2090565b555f9360018311611873575b50505050611854823361437f565b604080519485526020850191909152830152339180606081015b0390a2005b6118b492939450611884908861283d565b60408051336020820190815291810193909352606083018290526080958601835290949091906118299082610f6b565b555f808080611846565b604051630e3d8e8d60e11b8152600490fd5b50821561179b565b508115611794565b3461030757604036600319011261030757602061190b602435611902816102f6565b600435336150aa565b6103813361502a565b3461030757602036600319011261030757600435611930613ed1565b335f9081526101376020526040902061194890611fe8565b6001600160801b038061196283516001600160801b031690565b161561052257829061197383612ac2565b82516001600160801b03161610611af657335f908152609c6020526040902054826119b46119a884516001600160801b031690565b6001600160801b031690565b14611ae0576119d890836119d26119a885516001600160801b031690565b91612c65565b91611a056119f86119e88361434c565b84516001600160801b0316610a11565b6001600160801b03168352565b335f90815261013760205260409020611a1f908390612052565b611a676020611a5860018060a01b037f0000000000000000000000000000000000000000000000000000000000000000168096336150aa565b9301516001600160801b031690565b833b156103075760405163074ee96960e31b81523360048201526024810184905260448101929092526001600160801b03166064820152915f908390608490829084905af19182156105635761051e92611acd575b506040519081529081906020820190565b80610b7b611ada92610f02565b5f611abc565b335f908152610137602052604081205591611a1f565b604051636edcc52360e01b8152600490fd5b346103075761186e7f2013570c343af8ab14a9778150e381a0fda34ed6368127a95fd5e7210cbec5bf611b3a36610c8d565b9290611b44613851565b6040519182916020835233956020840191612714565b5f5b838110611b6b5750505f910152565b8181015183820152602001611b5c565b90602091611b9481518092818552858086019101611b5a565b601f01601f1916010190565b6020808201906020835283518092526040830192602060408460051b8301019501935f915b848310611bd55750505050505090565b9091929394958480611bf3600193603f198682030187528a51611b7b565b9801930193019194939290611bc5565b34610307576020366003190112610307576001600160401b036004358181116103075736602382011215610307578060040135918211610307573660248360051b830101116103075761051e916024611c5c9201612988565b60405191829182611ba0565b906020610636928181520190611b7b565b34610307575f3660031901126103075761051e604051611c9881610f1a565b60058152640352e302e360dc1b6020820152604051918291602083526020830190611b7b565b346103075760408060031936011261030757600435611cdc816102f6565b6024356001600160a01b03337f0000000000000000000000000000000000000000000000000000000000000000821614801590611e21575b611e1057611d2061444f565b611d28613ed1565b821615611dff578015611dee57917fd083678824038160bef3975359ab29f19c3f0e9bcf9d7ead540a492d4d678b6383611d6461051e95614627565b93611d7f610a1e611d748461434c565b60985460801c612a35565b611d898582614470565b611da4611d95826144bc565b611d9e8461450b565b90614615565b80611ddc575b5083516001600160a01b03919091168152602081019190915260408101849052606090a1519081529081906020820190565b611de7908280613340565b505f611daa565b82516318374fd160e21b8152600490fd5b825163d92e233d60e01b8152600490fd5b8351634ca8886760e01b8152600490fd5b508351638da5cb5b60e01b81526020816004817f000000000000000000000000000000000000000000000000000000000000000086165afa908115610563575f91611e72575b508116301415611d14565b611e8b915060203d602011610e8757610e798183610f6b565b5f611e67565b34610307575f366003190112610307576020610bcd612a50565b34610307576020366003190112610307576020610381600435614627565b34610307575f3660031901126103075760206001600160801b0360995416604051908152f35b3461030757602036600319011261030757610020600435611f0f816102f6565b611f17613851565b6146b6565b34610307575f3660031901126103075760206001600160801b03609e5416604051908152f35b3461030757602036600319011261030757600435611f5f816102f6565b60018060a01b03165f52609c602052602060405f2054604051908152f35b34610307575f366003190112610307575f546040516001600160a01b039091168152602090f35b6040366003190112610307576020610381600435611fc1816102f6565b602435906105d3826102f6565b90816020910312610307575190565b6040513d5f823e3d90fd5b90604051611ff581610f1a565b91546001600160801b038116835260801c6020830152565b634e487b7160e01b5f52601160045260245ffd5b6001600160801b039081165f1901919082116113f857565b6001600160801b0391821690821603919082116113f857565b815160209092015160801b6fffffffffffffffffffffffffffffffff19166001600160801b0392909216919091179055565b6098546001600160801b038116908161209c57505090565b916106369260801c90612c65565b5190811515820361030757565b9081602091031261030757610636906120aa565b908160209103126103075751610636816103b3565b81810392915f1380158285131691841216176113f857565b908160209103126103075751610636816102f6565b604051630156a69560e11b81523060048201526020916001600160a01b03919083826024817f000000000000000000000000000000000000000000000000000000000000000087165afa918215610563575f926122c0575b5061216f90612dcb565b9390809215612196575b50506121859150612f8a565b61218b57565b612193613162565b50565b60405163070aab0d60e11b815291925082826004817f000000000000000000000000000000000000000000000000000000000000000088165afa8015610563576001600160801b036121f4916121fa945f91612293575b5016612f51565b906120e0565b91604051638da5cb5b60e01b81528281600481857f0000000000000000000000000000000000000000000000000000000000000000165afa928315610563575f93612274575b505016301480159061226b575b61225957805f80612179565b60405163c284f82560e01b8152600490fd5b505f811261224d565b61228b929350803d10610e8757610e798183610f6b565b905f80612240565b6122b39150863d88116122b9575b6122ab8183610f6b565b8101906120cb565b5f6121ed565b503d6122a1565b61216f9192506122dc90853d8711611155576111468183610f6b565b9190612165565b7f00000000000000000000000000000000000000000000000000000000000000006001600160a01b03163147016099546001600160801b03612326818316612084565b90609e5416019060801c01908181115f1461233f570390565b50505f90565b61016a546001600160a01b0316801561235b5790565b507f000000000000000000000000000000000000000000000000000000000000000090565b919091604081840312610307578035612398816102f6565b9260208201356001600160401b039283821161030757019160608383031261030757604051926123c784610f35565b80358452602081013561ffff81168103610307576020850152604081013591821161030757019080601f830112156103075781602061240893359101610fa7565b604082015290565b90610636949360809361ffff9260018060a01b0316845260208401521660408201528160608201520190611b7b565b5f5490916001600160a01b039182166124b85782612480917f6efc3c5ea2064c46840711aa5ff8d7f70826faa0cc04fcf0557a3863533aafad940190612380565b911661248c8282613bd1565b6124b382519260406124a3602083015161ffff1690565b9101519060405194859485612410565b0390a1565b5050506124c3614c25565b6124d86119a86099546001600160801b031690565b600181116125d35760011461254e575b609f546124f36152a0565b90808210612511575b50506125075f609f55565b61250f614c04565b565b5f805160206154b983398151915291612544910361252e81614ae2565b604080519182525f602083015290918291820190565b0390a15f806124fc565b61258761256b6125666098546001600160801b031690565b612021565b6001600160801b03166001600160801b03196098541617609855565b61259c6001600160801b031960995416609955565b6125a4614a80565b5f805160206154b9833981519152604051806125cb81905f60206040840193600181520152565b0390a16124e8565b604051630299325160e41b8152600490fd5b60018060a01b03165f5261013760205260405f206040519061260682610f1a565b54906001600160801b03918281169081835260801c602083015261262957511690565b61263281612ac2565b511690565b609d548061063657505f1990565b919082039182116113f857565b604080516001600160a01b0390921660208301908152908201939093526060810182905290919061269081608081015b03601f198101835282610f6b565b5190205f52609b60205260405f20549182156126c0576126b1918391613d36565b90918281039081116113f85792565b5050505f905f905f90565b9035601e19823603018112156103075701602081359101916001600160401b03821161030757813603831361030757565b90603060609281835260208301375f60508201520190565b908060209392818452848401375f828201840152601f01601f1916010190565b9060a06106369260208152823560208201526020830135604082015261277061276060408501856126cb565b84606085015260c0840191612714565b906127a361279861278460608701876126cb565b601f19858703810160808701529591612714565b9460808101906126cb565b93909282860301910152612714565b903590601e198136030182121561030757018035906001600160401b0382116103075760200191813603831361030757565b634e487b7160e01b5f52601260045260245ffd5b8115612802570490565b6127e4565b906801bc16d674ec80000091808302928304036113f857565b90670de0b6b3a7640000918281029281840414901517156113f857565b919082018092116113f857565b6001600160401b038111610f155760051b60200190565b9061286b8261284a565b6128786040519182610f6b565b8281528092612889601f199161284a565b01905f5b82811061289957505050565b80606060208093850101520161288d565b634e487b7160e01b5f52603260045260245ffd5b908210156128d557610cb79160051b8101906127b2565b6128aa565b908092918237015f815290565b3d15612911573d906128f882610f8c565b916129066040519384610f6b565b82523d5f602084013e565b606090565b602081830312610307578051906001600160401b038211610307570181601f8201121561030757805161294881610f8c565b926129566040519485610f6b565b81845260208284010111610307576106369160208085019101611b5a565b80518210156128d55760209160051b010190565b91909161299483612861565b925f5b8181106129a357505050565b5f806129b08385876128be565b604093916129c28551809381936128da565b0390305af4906129d06128e7565b91156129f75750906001916129e58288612974565b526129f08187612974565b5001612997565b90604481511061030757612a31612a1c60049283810151602480918301019101612916565b925162461bcd60e51b81529283928301611c68565b0390fd5b9190916001600160801b03808094169116019182116113f857565b60d2546001600160a01b03168061063657507f000000000000000000000000000000000000000000000000000000000000000090565b7f00000000000000000000000000000000000000000000000000000000000000006001600160a01b03163303612ab857565b6121933433614718565b60405163752a536d60e01b81526020816004817f00000000000000000000000000000000000000000000000000000000000000006001600160a01b03165afa908115610563575f91612b58575b5060208201916001600160801b03918284511691828214612b515783612b44612b3f612b4c958584865116612c65565b61434c565b16905261434c565b169052565b5050505050565b612b71915060203d60201161055c5761054e8183610f6b565b5f612b0f565b90808202905f1981840990828083109203918083039214612bec57670de0b6b3a76400009082821115612bda577faccb18165bd6fe31ae1cf318dc5b51eee0e1ba569b88cd74c1773b91fac10669940990828211900360ee1b910360121c170290565b60405163227bc15360e01b8152600490fd5b5050670de0b6b3a764000091500490565b90808202905f1981840990828083109203918083039214612c5a576127109082821115612bda577fbc01a36e2eb1c432ca57a786c226809d495182a9930be0ded288ce703afb7e91940990828211900360fc1b910360041c170290565b505061271091500490565b9091828202915f1984820993838086109503948086039514612cd85784831115612bda57829109815f038216809204600280826003021880830282030280830282030280830282030280830282030280830282030280920290030293600183805f03040190848311900302920304170290565b50509061063692506127f8565b90816060910312610307578051916106366040602084015193016120aa565b81835290916001600160fb1b0383116103075760209260051b809284830137010190565b90602082528035602083015260208101358060130b8091036103075760408301526040810135612d57816102f6565b6001600160a01b031660608381019190915281013536829003601e19018112156103075701602081359101906001600160401b038111610307578060051b360382136103075760a0836080806106369601520191612d04565b9190915f83820193841291129080158216911516176113f857565b6040516325f56f1160e01b81526001600160a01b03929160609082908190612df69060048301612d28565b03815f877f0000000000000000000000000000000000000000000000000000000000000000165af1928315610563575f915f905f95612f1c575b508415612ec95781612e40612345565b16917f0000000000000000000000000000000000000000000000000000000000000000168214612ec257509060205f92600460405180958193634641257d60e01b83525af190811561056357612e9d925f92612ea1575b50612db0565b9190565b612ebb91925060203d60201161055c5761054e8183610f6b565b905f612e97565b9081612ecf575b50509190565b803b1561030757604051636ee3193160e11b815260048101929092525f908290602490829084905af1801561056357612f09575b80612ec9565b80610b7b612f1692610f02565b5f612f03565b91945050612f42915060603d606011612f4a575b612f3a8183610f6b565b810190612ce5565b93905f612e30565b503d612f30565b6001600160ff1b038111612f625790565b6024906040519063123baf0360e11b82526004820152fd5b600160ff1b81146113f8575f0390565b8015612193576040516278744560e21b81527f00000000000000000000000000000000000000000000000000000000000000006001600160a01b031691906020908181600481875afa908115610563575f91613145575b50604051631cd5ec3960e31b8152908282600481885afa91821561056357613011935f93613126575b5050612645565b801561311b5761302f8161302a6119a860985460801c90565b61283d565b905f8312156130b7576130539161304e9161304985612f7a565b612c65565b612f51565b61305c81612f7a565b92803b156103075760405163304f0a6b60e21b815260048101949094525f908490602490829084905af19182156105635761250f9361309f936130a45750612db0565b61488c565b80610b7b6130b192610f02565b5f612e97565b6130c59161304e9184612c65565b823b156103075760405163304f0a6b60e21b815260048101829052925f908490602490829084905af19182156105635761250f9361309f93613108575b506120e0565b80610b7b61311592610f02565b5f613102565b5061250f915061488c565b61313d929350803d1061055c5761054e8183610f6b565b905f8061300a565b61315c9150823d841161055c5761054e8183610f6b565b5f612fe1565b6131a77f00000000000000000000000000000000000000000000000000000000000000006001600160a01b03163147016131a16119a860995460801c90565b90612645565b90811561333b57609e546001600160801b03811690816132c3575b50506131d96119a86099546001600160801b031690565b91821580156132bb575b6132b5576131f490611d9e84612084565b80156132b55761320381614627565b9283156132ae576132a361250f92613240613224612b3f88610a1e96612645565b6001600160801b03166001600160801b03196099541617609955565b61325a6117db61324f8361434c565b60995460801c612a35565b6132648187614b2d565b60408051878152602081018390525f805160206154b98339815191529190a1612b3f61256b6132928861434c565b6098546001600160801b0316612039565b60985460801c612039565b505f925050565b505f9150565b5080156131e3565b81849294106132ae5761324f8461330b935f805160206154b9833981519152826117db9560801c6132f48282614b2d565b604080519182526020820192909252a1039461434c565b61331f6001600160801b03609e5416609e55565b6133346001600160801b0319609e5416609e55565b5f806131c2565b5f9150565b929161334a61444f565b613352613ed1565b6001600160a01b0384165f9081526101376020526040902061337390611fe8565b6001600160801b0361338c82516001600160801b031690565b16156135535761339b81612ac2565b6001600160a01b0385165f908152609c602052604090206133c4906133bf906108a9565b61450b565b945f198314613524575b6040516329460cc560e11b81526001600160a01b0385811660048301526024820185905290939092906020856044815f7f000000000000000000000000000000000000000000000000000000000000000089165af1948515610563575f95613503575b5084976134606134536134438461434c565b85516001600160801b0316612a35565b6001600160801b03168452565b6134746119a884516001600160801b031690565b116134f1577fa16d97739893e1436c9753925fb5cef174c4f368699dc86cc8fdb0e6e60f8e58946134bd6134ec936104cb8660018060a01b03165f5261013760205260405f2090565b604080516001600160a01b03909816885260208801919091528601525f60608601529116929081906080820190565b0390a2565b604051633684c65960e01b8152600490fd5b61351d91955060203d60201161055c5761054e8183610f6b565b935f613431565b915061353a6119a882516001600160801b031690565b8086111561354a578503916133ce565b505f9450505050565b60405163752a536d60e01b81526020816004817f00000000000000000000000000000000000000000000000000000000000000006001600160a01b03165afa908115610563576135be916135ae915f916135c3575b5061434c565b6001600160801b03166020830152565b61339b565b6135dc915060203d60201161055c5761054e8183610f6b565b5f6135a8565b93929190916135ef61444f565b6135f7613ed1565b6001600160a01b0385165f9081526101376020526040902061361890611fe8565b946001600160801b0361363287516001600160801b031690565b16156137e25761364186612ac2565b6001600160a01b0381165f908152609c60205260409020613665906133bf906108a9565b955f1984146137b2575b6040516329460cc560e11b81526001600160a01b0386811660048301526024820186905290949093906020866044815f7f00000000000000000000000000000000000000000000000000000000000000008a165af1958615610563575f96613791575b5085986137016136f46136e48461434c565b86516001600160801b0316612a35565b6001600160801b03168552565b6137156119a885516001600160801b031690565b116134f1577fa16d97739893e1436c9753925fb5cef174c4f368699dc86cc8fdb0e6e60f8e589561375e6134ec946104cb8760018060a01b03165f5261013760205260405f2090565b604080516001600160a01b03998a1681526020810192909252810191909152951660608601529116929081906080820190565b6137ab91965060203d60201161055c5761054e8183610f6b565b945f6136d2565b92506137c86119a884516001600160801b031690565b808711156137d85786039261366f565b505f955050505050565b60405163752a536d60e01b81526020816004817f00000000000000000000000000000000000000000000000000000000000000006001600160a01b03165afa9081156105635761384c9161383c915f916135c3575061434c565b6001600160801b03166020880152565b613641565b5f546001600160a01b03163303610e4d57565b51906001600160401b038216820361030757565b9081606091031261030757612408604080519261389484610f35565b805161389f816103b3565b84526138ad60208201613864565b602085015201613864565b92906001600160a01b039081811615610b87576138d3613ed1565b817f00000000000000000000000000000000000000000000000000000000000000001690813b1561030757604094855193631d8557d760e01b85526004945f81878183895af1801561056357613bbe575b506001600160a01b0388165f9081526101376020526040902061394690611fe8565b906001600160801b0361396083516001600160801b031690565b1615613bae5761396f82612ac2565b875163e48a5f7b60e01b81523087820190815290916060918391908290819060200103917f0000000000000000000000000000000000000000000000000000000000000000165afa801561056357613b8f575b508651936303d1689d60e11b978886526020918287806139e9888c83019190602083019252565b0381845afa968715610563575f97613b70575b508699613a1c6108a98d60018060a01b03165f52609c60205260405f2090565b88118015613b60575b613b50579083613a6292613a4087516001600160801b031690565b908551948592839283528d83019190916001600160801b036020820193169052565b0381845afa988915610563575f85948894613aa79c613b33575b5051633b9e9f0160e21b815233928101928352602083019490945292998a9384929091839160400190565b03925af1958615610563576109c4613aee94613ad1936104aa9361250f9a613b15575b505061434c565b6001600160a01b0388165f90815261013760205260409020612052565b613b10613afa83614627565b8097613b0b610a1e610a0a8761434c565b614bb7565b61437f565b81613b2b92903d1061055c5761054e8183610f6b565b505f80613aca565b613b4990873d891161055c5761054e8183610f6b565b505f613a7c565b825163efda1a2760e01b81528990fd5b50613b696122e3565b8811613a25565b613b88919750833d851161055c5761054e8183610f6b565b955f6139fc565b613ba79060603d606011610b5757610b488183610f6b565b505f6139c2565b875163673f032f60e11b81528690fd5b80610b7b613bcb92610f02565b5f613924565b90613bda614c25565b6040810151613be7614c25565b6001600160a01b0383168015610b87576001600160601b0360a01b5f5416175f557f2013570c343af8ab14a9778150e381a0fda34ed6368127a95fd5e7210cbec5bf6040516020815280613c4033946020830190611b7b565b0390a26020810151613c50614c25565b61271061ffff821611613ca657613c69613c8e936146b6565b6065805461ffff60a01b191660a09290921b61ffff60a01b1691909117905551614c66565b613c96614c96565b613c9e614c25565b61250f614cbd565b604051638a81d3b360e01b8152600490fd5b6001600160a01b037f00000000000000000000000000000000000000000000000000000000000000008116308114918215613cf6575b50506112b957565b5f805160206154d98339815191525416141590505f80613cee565b90604051613d1e81610f1a565b91546001600160a01b038116835260a01c6020830152565b609a545f948594939091808410801590613ec9575b613ebc5783613e86575f5b609a5f526001600160a01b0316613d7b5f805160206154998339815191528601613d11565b8051909790613d92906001600160a01b031661124f565b98613db7613dab6020809b01516001600160601b031690565b6001600160601b031690565b948381108015613e7c575b613e6a5791600193979a95613de1613ded939488035b838c0390614615565b80920198870391612c65565b01970193808611801590613e60575b613e5557609a5f528290613e1e5f805160206154998339815191528701613d11565b805190890151969992966001600160a01b039091169460019392613ded9290916001600160601b0390911690613de1908803613dd8565b945050509250509190565b5081851015613dfc565b60405163e8722f8f60e01b8152600490fd5b50808b1115613dc2565b609a5f527f44da158ba27f9252712a74ff6a55c5d531f69609f1f6e7f17c4443a8e2089be38401546001600160a01b0316613d56565b505093505050505f905f90565b508415613d4b565b604051633eb1acf760e11b81523060048201526020816024817f00000000000000000000000000000000000000000000000000000000000000006001600160a01b03165afa908115610563575f91613f3d575b50613f2b57565b60405163e775715160e01b8152600490fd5b613f56915060203d602011611155576111468183610f6b565b5f613f24565b604290467f00000000000000000000000000000000000000000000000000000000000000000361400a5760d354905b613fa2613f9b60408301836127b2565b3691610fa7565b602081519101206040519060208201927f838af86bfca91ada6557e38d913af1c2f24ef9b2567b3b77cc9e1144314b35b08452356040830152606082015260608152613fed81610f50565b5190206040519161190160f01b8352600283015260228201522090565b614012614de4565b90613f8b565b6004111561402257565b634e487b7160e01b5f52602160045260245ffd5b6140408383614eb1565b5061404d81959295614018565b1593846140e9575b508315614063575b50505090565b5f92935090829160405161409b816126826020820194630b135d3f60e11b998a87526024840152604060448401526064830190611b7b565b51915afa906140a86128e7565b826140db575b826140be575b50505f808061405d565b6140d391925060208082518301019101611fce565b145f806140b4565b9150602082511015916140ae565b6001600160a01b0383811691161493505f614055565b90614108614eeb565b5f905f60b09360b083049361411b615406565b957f00000000000000000000000000000000000000000000000000000000000000006001600160a01b0316935f92905b87841061415d57505050505050505050565b8261416c910180928887614f92565b906141778282614f62565b916141966141906141888684614f70565b969093614f81565b90614faa565b90893b15610307575f908d6141c3604094855198899485946304512a2360e31b86528a8a60048801614fc6565b03816801bc16d674ec8000008d5af1908115610563577f64b6e61d93b7a91e8cc4376183ede0997a27b44fd9dd2f30a866b2a5730efdb19461420f9261421e575b505192839283615019565b0390a16001819301929061414b565b80610b7b61422b92610f02565b5f614204565b614239614eeb565b8160301161030757614190917f00000000000000000000000000000000000000000000000000000000000000006001600160a01b0316614277615406565b9061428e6142858486614f70565b96909486614f81565b94813b15610307576801bc16d674ec8000005f946142f497604051988996879586946304512a2360e31b8652608060048701526142e56142d28d60848901906126fc565b60031994858983030160248a0152611b7b565b92868403016044870152612714565b90606483015203925af1908115610563577f64b6e61d93b7a91e8cc4376183ede0997a27b44fd9dd2f30a866b2a5730efdb1926124b39261433d575b5060405191829182615008565b61434690610f02565b5f614330565b6001600160801b0390818111614360571690565b604490604051906306dfcc6560e41b8252608060048301526024820152fd5b478211614442575b7f9b779b17422d0df92223018b32b4d1fa46e071723d6817e2486d003becc55f0060028154146144305760029055814710614418575f918291829182916001600160a01b03165af16143d76128e7565b50156144065761250f60017f9b779b17422d0df92223018b32b4d1fa46e071723d6817e2486d003becc55f0055565b604051630a12f52160e11b8152600490fd5b60405163cd78605960e01b8152306004820152602490fd5b604051633ee5aeb560e01b8152600490fd5b61444a614eeb565b614387565b614457615231565b1561445e57565b604051630a62fbdb60e11b8152600490fd5b6144798261434c565b609854906144916001600160801b0391828416612a35565b16906001600160801b0319161760985560018060a01b03165f52609c60205260405f20908154019055565b6001600160a01b0381165f908152609c60205260409020546144dd90612084565b90811561233f576001600160801b036144f86144ff926125e5565b169161450b565b8082101561233f570390565b60405163e48a5f7b60e01b81523060048201526001600160a01b036060826024817f000000000000000000000000000000000000000000000000000000000000000085165afa8015610563576145a6936001600160401b036108846040614585946020975f916145f6575b5001516001600160401b031690565b9060405180809581946363737ac960e11b8352600483019190602083019252565b03917f0000000000000000000000000000000000000000000000000000000000000000165afa908115610563575f916145dd575090565b610636915060203d60201161055c5761054e8183610f6b565b61460f915060603d606011610b5757610b488183610f6b565b5f614576565b9080821015614622575090565b905090565b609854906001600160801b03821681158015614656575b156146495750905090565b6106369260801c91612c65565b50801561463e565b6098546001600160801b03811690821580156146ae575b1561467f57505090565b60801c9061468e828285612c65565b928215612802570961469d5790565b60018101809111156106365761200d565b508115614675565b6146be613ed1565b6001600160a01b0316801561470657606580546001600160a01b03191682179055337faaebcf1bfa00580e41d966056b48521fa9f202645c86d4ddf28113e617c1b1d35f80a3565b604051630ed1b8b360e31b8152600490fd5b9190614722613ed1565b6001600160a01b038316908115610b875780156147ce57806147496119a860985460801c90565b0193614753612637565b85116147bc57610a1e9461477a9161477561476d8561465e565b97889361434c565b614470565b60408051918252602082018590525f9082015233907f861a4138e41fb21c121a7dbb1053df465c837fc77380cc7226189a662281be2c9080606081015b0390a3565b6040516304ffa0ff60e51b8152600490fd5b6040516318374fd160e21b8152600490fd5b909291926147ec613ed1565b6001600160a01b038216918215610b875781156147ce57816148136119a860985460801c90565b0161481c612637565b81116147bc57610a1e956148636147b7927f861a4138e41fb21c121a7dbb1053df465c837fc77380cc7226189a662281be2c9461477561485b8861465e565b9a8b9361434c565b60408051948552602085018890526001600160a01b039091169084015233929081906060820190565b8015612193576148a16119a860985460801c90565b5f821261497357816148b29161283d565b906148bf610a1e8361434c565b6148d46065549161ffff8360a01c1690612bfd565b801561496e57807f555ee6b2ef9506d870f386c067e47d3689435330b012ad263d8cc35318686547936149126119a86098546001600160801b031690565b806149585750506124b390925b6001600160a01b0316916149338484614470565b60405193849384604091949392606082019560018060a01b0316825260208201520152565b6124b39261496892039084612c65565b9261491f565b505050565b9061497d90612f7a565b6149926119a8609e546001600160801b031690565b806149b2575b50806149a2575050565b612b3f610a1e9161250f93612645565b90614a197f3623a54e8078be0d90ecfbef82da6a31ff3e6be8aa1718e7a7f3d0d33ff1d32a9161138b6149fd6149f26149eb888861283d565b8785612c65565b80809403960361434c565b6001600160801b03166001600160801b0319609e541617609e55565b0390a15f614998565b609a549068010000000000000000821015610f15576001820180609a558210156128d557609a5f52805160209091015160a01b6001600160a01b0319166001600160a01b0391909116175f8051602061549983398151915290910155565b614a886152a0565b600181018091116113f8576001600160a01b03808211614ac2579061250f9160405191614ab483610f1a565b1681525f6020820152614a22565b6040516306dfcc6560e41b815260a0600482015260248101839052604490fd5b8015614b1b57614af06152a0565b9081018091116113f8576001600160a01b03808211614ac2579061250f9160405191614ab483610f1a565b604051632ec8835b60e21b8152600490fd5b9190918015614b1b57614b3e6152a0565b9081018091116113f8576001600160a01b03808211614ac2576001600160601b0390818511614b97579061250f9394614b929260405194614b7e86610f1a565b168452166001600160601b03166020830152565b614a22565b6040516306dfcc6560e41b81526060600482015260248101869052604490fd5b60018060a01b03165f52609c60205260405f209081548181039081116113f857614be1925561434c565b609854906001600160801b03908183160316906001600160801b03191617609855565b614c0c614c25565b614c14614de4565b60d3548103614c205750565b60d355565b60ff7ff0c57e16840df040f15088dc2f81fe391c3923bec73e23a9662efc9c229c6a005460401c1615614c5457565b604051631afcd79f60e31b8152600490fd5b614c6e614c25565b8015614c845760018101614c7f5750565b609d55565b6040516331278a8760e01b8152600490fd5b614c9e614c25565b6801bc16d674ec800000614cb0612637565b10614c8457614c20614de4565b614cc5614c25565b614ccd614c25565b614cd5614c25565b60017f9b779b17422d0df92223018b32b4d1fa46e071723d6817e2486d003becc55f0055633b9aca003410614d0e576121933430614718565b60405163ea2559bb60e01b8152600490fd5b90816020910312610307575160ff811681036103075790565b6040516352d1902d60e01b81529290916020846004816001600160a01b0387165afa5f9481614dc3575b50614d8957604051634c9c8ce360e01b81526001600160a01b0384166004820152602490fd5b90915f805160206154d98339815191528403614daa5761250f9293506152e2565b604051632a87526960e21b815260048101859052602490fd5b614ddd91955060203d60201161055c5761054e8183610f6b565b935f614d63565b6e5661756c7456616c696461746f727360881b6020604051614e0581610f1a565b600f8152015260405160208101907f8b73c3c69bb8fe3d512ecc4cf759cc79239f7b179b0ffacaa9a75d522b39400f82527f35d6cf9768d8be929c3a11ed667b1560ae6f1920195a985758fdd7265505d1ca60408201527fc89efdaa54c0f20c7adf612882df0950f5a951637e0307cdcb4c672f298b8bc660608201524660808201523060a082015260a0815260c081018181106001600160401b03821117610f155760405251902090565b8151919060418303614ee157614eda9250602082015190606060408401519301515f1a90615384565b9192909190565b50505f9160029190565b7f00000000000000000000000000000000000000000000000000000000000000006001600160a01b0316803180614f20575050565b813b15610307575f9160448392604051948593849263f3fef3a360e01b845230600485015260248401525af1801561056357614f595750565b61250f90610f02565b906030116103075790603090565b906090116103075760300190606090565b9060b0116103075760900190602090565b90939293848311610307578411610307578101920390565b359060208110614fb8575090565b5f199060200360031b1b1690565b9695949061500393614fe7614ff5926060979560808c5260808c0191612714565b9089820360208b0152611b7b565b918783036040890152612714565b930152565b9060206106369281815201906126fc565b916020610636938181520191612714565b60018060a01b0381165f5261013760205260405f20906040519161504d83610f1a565b54906001600160801b03918281169081855260801c60208501521561496e576133bf6108a96150a09261507e613ed1565b61508786612ac2565b6001600160a01b03165f908152609c6020526040902090565b915116116134f157565b9291908015611af6576001600160a01b03828116928315610b87576150d061171b615231565b6151b857906118299561519c613224857f211091c5bf013c1230f996c3bb2bc327e3de429a3d3c356dcea9a0c858bc407f958161517161511b6119a86099546001600160801b031690565b926126826151438561302a61512e6152a0565b61513d6119a8609e5460801c90565b9061283d565b9e8f6040519283916020830195429087604091949392606082019560018060a01b0316825260208201520152565b556001600160a01b0385165f908152609c60205260409020615194838254612645565b90550161434c565b60408051888152602081019590955291169290819081016147b7565b9293946151c483612084565b9384156147ce577f5cdf07ad0fc222442720b108e3ed4c4640f0fadc2ab2253e66f259a0fea834809361520e8661522993615204610a1e6132a38461434c565b613b108487614bb7565b60405193849316958360209093929193604081019481520152565b0390a35f1990565b604051630156a69560e11b81523060048201526020816024817f00000000000000000000000000000000000000000000000000000000000000006001600160a01b03165afa908115610563575f91615287575090565b610636915060203d602011611155576111468183610f6b565b609a54806152ad57505f90565b609a5f527f44da158ba27f9252712a74ff6a55c5d531f69609f1f6e7f17c4443a8e2089be301546001600160a01b031661124f565b90813b15615363575f805160206154d983398151915280546001600160a01b0319166001600160a01b0384169081179091557fbc7cd75a20ee27fd9adebab32041f755214dbc6bffa90cc0225b39da2e5c2d3b5f80a2805115615348576121939161542f565b50503461535157565b60405163b398979f60e01b8152600490fd5b604051634c9c8ce360e01b81526001600160a01b0383166004820152602490fd5b91907f7fffffffffffffffffffffffffffffff5d576e7357a4501ddfe92f46681b20a084116153fb579160209360809260ff5f9560405194855216868401526040830152606082015282805260015afa15610563575f516001600160a01b038116156153f157905f905f90565b505f906001905f90565b5050505f9160039190565b604051600160f81b60208201525f60218201523060601b602c8201526020815261063681610f1a565b5f8061063693602081519101845af46154466128e7565b919061545c575080511561440657805190602001fd5b8151158061548f575b61546d575090565b604051639996b31560e01b81526001600160a01b039091166004820152602490fd5b50803b1561546556fe44da158ba27f9252712a74ff6a55c5d531f69609f1f6e7f17c4443a8e2089be4624ea167e477f9d39f7f4094b9dfe2e6346eb4a7aada54338db51abd554c4b9f360894a13ba1a3210667c828492db98dca3e2076cc3735a920a3ca505d382bbca264697066735822122059150ede3015bf2d6cd55d31f6a9c9f02cfd4250f4ec391b1296422786a6730f64736f6c63430008160033",
  "linkReferences": {},
  "deployedLinkReferences": {}
}