{
  "_format": "hh-sol-artifact-1",
  "contractName": "EthGenesisVault",
  "sourceName": "contracts/vaults/ethereum/EthGenesisVault.sol",
  "abi": [
    {
      "inputs": [
        {
          "internalType": "address",
          "name": "_keeper",
          "type": "address"
        },
        {
          "internalType": "address",
          "name": "_vaultsRegistry",
          "type": "address"
        },
        {
          "internalType": "address",
          "name": "_validatorsRegistry",
          "type": "address"
        },
        {
          "internalType": "address",
          "name": "osTokenVaultController",
          "type": "address"
        },
        {
          "internalType": "address",
          "name": "osTokenConfig",
          "type": "address"
        },
        {
          "internalType": "address",
          "name": "sharedMevEscrow",
          "type": "address"
        },
        {
          "internalType": "address",
          "name": "poolEscrow",
          "type": "address"
        },
        {
          "internalType": "address",
          "name": "rewardEthToken",
          "type": "address"
        },
        {
          "internalType": "uint256",
          "name": "exitingAssetsClaimDelay",
          "type": "uint256"
        }
      ],
      "stateMutability": "nonpayable",
      "type": "constructor"
    },
    {
      "inputs": [],
      "name": "AccessDenied",
      "type": "error"
    },
    {
      "inputs": [
        {
          "internalType": "address",
          "name": "target",
          "type": "address"
        }
      ],
      "name": "AddressEmptyCode",
      "type": "error"
    },
    {
      "inputs": [
        {
          "internalType": "address",
          "name": "account",
          "type": "address"
        }
      ],
      "name": "AddressInsufficientBalance",
      "type": "error"
    },
    {
      "inputs": [],
      "name": "CapacityExceeded",
      "type": "error"
    },
    {
      "inputs": [],
      "name": "ClaimTooEarly",
      "type": "error"
    },
    {
      "inputs": [],
      "name": "Collateralized",
      "type": "error"
    },
    {
      "inputs": [
        {
          "internalType": "address",
          "name": "implementation",
          "type": "address"
        }
      ],
      "name": "ERC1967InvalidImplementation",
      "type": "error"
    },
    {
      "inputs": [],
      "name": "ERC1967NonPayable",
      "type": "error"
    },
    {
      "inputs": [],
      "name": "FailedInnerCall",
      "type": "error"
    },
    {
      "inputs": [],
      "name": "InsufficientAssets",
      "type": "error"
    },
    {
      "inputs": [],
      "name": "InvalidAssets",
      "type": "error"
    },
    {
      "inputs": [],
      "name": "InvalidCapacity",
      "type": "error"
    },
    {
      "inputs": [],
      "name": "InvalidCheckpointIndex",
      "type": "error"
    },
    {
      "inputs": [],
      "name": "InvalidCheckpointValue",
      "type": "error"
    },
    {
      "inputs": [],
      "name": "InvalidFeePercent",
      "type": "error"
    },
    {
      "inputs": [],
      "name": "InvalidFeeRecipient",
      "type": "error"
    },
    {
      "inputs": [],
      "name": "InvalidHealthFactor",
      "type": "error"
    },
    {
      "inputs": [],
      "name": "InvalidInitialHarvest",
      "type": "error"
    },
    {
      "inputs": [],
      "name": "InvalidInitialization",
      "type": "error"
    },
    {
      "inputs": [],
      "name": "InvalidLtv",
      "type": "error"
    },
    {
      "inputs": [],
      "name": "InvalidPosition",
      "type": "error"
    },
    {
      "inputs": [],
      "name": "InvalidProof",
      "type": "error"
    },
    {
      "inputs": [],
      "name": "InvalidReceivedAssets",
      "type": "error"
    },
    {
      "inputs": [],
      "name": "InvalidSecurityDeposit",
      "type": "error"
    },
    {
      "inputs": [],
      "name": "InvalidShares",
      "type": "error"
    },
    {
      "inputs": [],
      "name": "InvalidValidator",
      "type": "error"
    },
    {
      "inputs": [],
      "name": "InvalidValidators",
      "type": "error"
    },
    {
      "inputs": [],
      "name": "LowLtv",
      "type": "error"
    },
    {
      "inputs": [],
      "name": "MathOverflowedMulDiv",
      "type": "error"
    },
    {
      "inputs": [],
      "name": "MerkleProofInvalidMultiproof",
      "type": "error"
    },
    {
      "inputs": [],
      "name": "NotCollateralized",
      "type": "error"
    },
    {
      "inputs": [],
      "name": "NotHarvested",
      "type": "error"
    },
    {
      "inputs": [],
      "name": "NotInitializing",
      "type": "error"
    },
    {
      "inputs": [],
      "name": "RedemptionExceeded",
      "type": "error"
    },
    {
      "inputs": [],
      "name": "ReentrancyGuardReentrantCall",
      "type": "error"
    },
    {
      "inputs": [
        {
          "internalType": "uint8",
          "name": "bits",
          "type": "uint8"
        },
        {
          "internalType": "uint256",
          "name": "value",
          "type": "uint256"
        }
      ],
      "name": "SafeCastOverflowedUintDowncast",
      "type": "error"
    },
    {
      "inputs": [
        {
          "internalType": "uint256",
          "name": "value",
          "type": "uint256"
        }
      ],
      "name": "SafeCastOverflowedUintToInt",
      "type": "error"
    },
    {
      "inputs": [],
      "name": "UUPSUnauthorizedCallContext",
      "type": "error"
    },
    {
      "inputs": [
        {
          "internalType": "bytes32",
          "name": "slot",
          "type": "bytes32"
        }
      ],
      "name": "UUPSUnsupportedProxiableUUID",
      "type": "error"
    },
    {
      "inputs": [],
      "name": "UpgradeFailed",
      "type": "error"
    },
    {
      "inputs": [],
      "name": "ZeroAddress",
      "type": "error"
    },
    {
      "anonymous": false,
      "inputs": [
        {
          "indexed": false,
          "internalType": "uint256",
          "name": "shares",
          "type": "uint256"
        },
        {
          "indexed": false,
          "internalType": "uint256",
          "name": "assets",
          "type": "uint256"
        }
      ],
      "name": "CheckpointCreated",
      "type": "event"
    },
    {
      "anonymous": false,
      "inputs": [
        {
          "indexed": true,
          "internalType": "address",
          "name": "caller",
          "type": "address"
        },
        {
          "indexed": true,
          "internalType": "address",
          "name": "receiver",
          "type": "address"
        },
        {
          "indexed": false,
          "internalType": "uint256",
          "name": "assets",
          "type": "uint256"
        },
        {
          "indexed": false,
          "internalType": "uint256",
          "name": "shares",
          "type": "uint256"
        },
        {
          "indexed": false,
          "internalType": "address",
          "name": "referrer",
          "type": "address"
        }
      ],
      "name": "Deposited",
      "type": "event"
    },
    {
      "anonymous": false,
      "inputs": [
        {
          "indexed": true,
          "internalType": "address",
          "name": "owner",
          "type": "address"
        },
        {
          "indexed": true,
          "internalType": "address",
          "name": "receiver",
          "type": "address"
        },
        {
          "indexed": false,
          "internalType": "uint256",
          "name": "positionTicket",
          "type": "uint256"
        },
        {
          "indexed": false,
          "internalType": "uint256",
          "name": "shares",
          "type": "uint256"
        }
      ],
      "name": "ExitQueueEntered",
      "type": "event"
    },
    {
      "anonymous": false,
      "inputs": [
        {
          "indexed": true,
          "internalType": "address",
          "name": "receiver",
          "type": "address"
        },
        {
          "indexed": false,
          "internalType": "uint256",
          "name": "prevPositionTicket",
          "type": "uint256"
        },
        {
          "indexed": false,
          "internalType": "uint256",
          "name": "newPositionTicket",
          "type": "uint256"
        },
        {
          "indexed": false,
          "internalType": "uint256",
          "name": "withdrawnAssets",
          "type": "uint256"
        }
      ],
      "name": "ExitedAssetsClaimed",
      "type": "event"
    },
    {
      "anonymous": false,
      "inputs": [
        {
          "indexed": true,
          "internalType": "address",
          "name": "caller",
          "type": "address"
        },
        {
          "indexed": true,
          "internalType": "address",
          "name": "feeRecipient",
          "type": "address"
        }
      ],
      "name": "FeeRecipientUpdated",
      "type": "event"
    },
    {
      "anonymous": false,
      "inputs": [
        {
          "indexed": false,
          "internalType": "address",
          "name": "receiver",
          "type": "address"
        },
        {
          "indexed": false,
          "internalType": "uint256",
          "name": "shares",
          "type": "uint256"
        },
        {
          "indexed": false,
          "internalType": "uint256",
          "name": "assets",
          "type": "uint256"
        }
      ],
      "name": "FeeSharesMinted",
      "type": "event"
    },
    {
      "anonymous": false,
      "inputs": [
        {
          "indexed": false,
          "internalType": "address",
          "name": "admin",
          "type": "address"
        },
        {
          "indexed": false,
          "internalType": "uint256",
          "name": "capacity",
          "type": "uint256"
        },
        {
          "indexed": false,
          "internalType": "uint16",
          "name": "feePercent",
          "type": "uint16"
        },
        {
          "indexed": false,
          "internalType": "string",
          "name": "metadataIpfsHash",
          "type": "string"
        }
      ],
      "name": "GenesisVaultCreated",
      "type": "event"
    },
    {
      "anonymous": false,
      "inputs": [
        {
          "indexed": false,
          "internalType": "uint64",
          "name": "version",
          "type": "uint64"
        }
      ],
      "name": "Initialized",
      "type": "event"
    },
    {
      "anonymous": false,
      "inputs": [
        {
          "indexed": true,
          "internalType": "address",
          "name": "caller",
          "type": "address"
        },
        {
          "indexed": true,
          "internalType": "address",
          "name": "keysManager",
          "type": "address"
        }
      ],
      "name": "KeysManagerUpdated",
      "type": "event"
    },
    {
      "anonymous": false,
      "inputs": [
        {
          "indexed": true,
          "internalType": "address",
          "name": "caller",
          "type": "address"
        },
        {
          "indexed": false,
          "internalType": "string",
          "name": "metadataIpfsHash",
          "type": "string"
        }
      ],
      "name": "MetadataUpdated",
      "type": "event"
    },
    {
      "anonymous": false,
      "inputs": [
        {
          "indexed": false,
          "internalType": "address",
          "name": "receiver",
          "type": "address"
        },
        {
          "indexed": false,
          "internalType": "uint256",
          "name": "assets",
          "type": "uint256"
        },
        {
          "indexed": false,
          "internalType": "uint256",
          "name": "shares",
          "type": "uint256"
        }
      ],
      "name": "Migrated",
      "type": "event"
    },
    {
      "anonymous": false,
      "inputs": [
        {
          "indexed": true,
          "internalType": "address",
          "name": "caller",
          "type": "address"
        },
        {
          "indexed": false,
          "internalType": "uint256",
          "name": "assets",
          "type": "uint256"
        },
        {
          "indexed": false,
          "internalType": "uint256",
          "name": "shares",
          "type": "uint256"
        }
      ],
      "name": "OsTokenBurned",
      "type": "event"
    },
    {
      "anonymous": false,
      "inputs": [
        {
          "indexed": true,
          "internalType": "address",
          "name": "caller",
          "type": "address"
        },
        {
          "indexed": true,
          "internalType": "address",
          "name": "user",
          "type": "address"
        },
        {
          "indexed": false,
          "internalType": "address",
          "name": "receiver",
          "type": "address"
        },
        {
          "indexed": false,
          "internalType": "uint256",
          "name": "osTokenShares",
          "type": "uint256"
        },
        {
          "indexed": false,
          "internalType": "uint256",
          "name": "shares",
          "type": "uint256"
        },
        {
          "indexed": false,
          "internalType": "uint256",
          "name": "receivedAssets",
          "type": "uint256"
        }
      ],
      "name": "OsTokenLiquidated",
      "type": "event"
    },
    {
      "anonymous": false,
      "inputs": [
        {
          "indexed": true,
          "internalType": "address",
          "name": "caller",
          "type": "address"
        },
        {
          "indexed": false,
          "internalType": "address",
          "name": "receiver",
          "type": "address"
        },
        {
          "indexed": false,
          "internalType": "uint256",
          "name": "assets",
          "type": "uint256"
        },
        {
          "indexed": false,
          "internalType": "uint256",
          "name": "shares",
          "type": "uint256"
        },
        {
          "indexed": false,
          "internalType": "address",
          "name": "referrer",
          "type": "address"
        }
      ],
      "name": "OsTokenMinted",
      "type": "event"
    },
    {
      "anonymous": false,
      "inputs": [
        {
          "indexed": true,
          "internalType": "address",
          "name": "caller",
          "type": "address"
        },
        {
          "indexed": true,
          "internalType": "address",
          "name": "user",
          "type": "address"
        },
        {
          "indexed": false,
          "internalType": "address",
          "name": "receiver",
          "type": "address"
        },
        {
          "indexed": false,
          "internalType": "uint256",
          "name": "osTokenShares",
          "type": "uint256"
        },
        {
          "indexed": false,
          "internalType": "uint256",
          "name": "shares",
          "type": "uint256"
        },
        {
          "indexed": false,
          "internalType": "uint256",
          "name": "assets",
          "type": "uint256"
        }
      ],
      "name": "OsTokenRedeemed",
      "type": "event"
    },
    {
      "anonymous": false,
      "inputs": [
        {
          "indexed": true,
          "internalType": "address",
          "name": "owner",
          "type": "address"
        },
        {
          "indexed": true,
          "internalType": "address",
          "name": "receiver",
          "type": "address"
        },
        {
          "indexed": false,
          "internalType": "uint256",
          "name": "assets",
          "type": "uint256"
        },
        {
          "indexed": false,
          "internalType": "uint256",
          "name": "shares",
          "type": "uint256"
        }
      ],
      "name": "Redeemed",
      "type": "event"
    },
    {
      "anonymous": false,
      "inputs": [
        {
          "indexed": true,
          "internalType": "address",
          "name": "implementation",
          "type": "address"
        }
      ],
      "name": "Upgraded",
      "type": "event"
    },
    {
      "anonymous": false,
      "inputs": [
        {
          "indexed": false,
          "internalType": "bytes",
          "name": "publicKey",
          "type": "bytes"
        }
      ],
      "name": "ValidatorRegistered",
      "type": "event"
    },
    {
      "anonymous": false,
      "inputs": [
        {
          "indexed": true,
          "internalType": "address",
          "name": "caller",
          "type": "address"
        },
        {
          "indexed": true,
          "internalType": "bytes32",
          "name": "validatorsRoot",
          "type": "bytes32"
        }
      ],
      "name": "ValidatorsRootUpdated",
      "type": "event"
    },
    {
      "inputs": [],
      "name": "UPGRADE_INTERFACE_VERSION",
      "outputs": [
        {
          "internalType": "string",
          "name": "",
          "type": "string"
        }
      ],
      "stateMutability": "view",
      "type": "function"
    },
    {
      "inputs": [],
      "name": "acceptPoolEscrowOwnership",
      "outputs": [],
      "stateMutability": "nonpayable",
      "type": "function"
    },
    {
      "inputs": [],
      "name": "admin",
      "outputs": [
        {
          "internalType": "address",
          "name": "",
          "type": "address"
        }
      ],
      "stateMutability": "view",
      "type": "function"
    },
    {
      "inputs": [
        {
          "internalType": "uint128",
          "name": "osTokenShares",
          "type": "uint128"
        }
      ],
      "name": "burnOsToken",
      "outputs": [
        {
          "internalType": "uint256",
          "name": "assets",
          "type": "uint256"
        }
      ],
      "stateMutability": "nonpayable",
      "type": "function"
    },
    {
      "inputs": [
        {
          "internalType": "address",
          "name": "receiver",
          "type": "address"
        },
        {
          "internalType": "uint256",
          "name": "positionTicket",
          "type": "uint256"
        },
        {
          "internalType": "uint256",
          "name": "timestamp",
          "type": "uint256"
        },
        {
          "internalType": "uint256",
          "name": "exitQueueIndex",
          "type": "uint256"
        }
      ],
      "name": "calculateExitedAssets",
      "outputs": [
        {
          "internalType": "uint256",
          "name": "leftShares",
          "type": "uint256"
        },
        {
          "internalType": "uint256",
          "name": "claimedShares",
          "type": "uint256"
        },
        {
          "internalType": "uint256",
          "name": "claimedAssets",
          "type": "uint256"
        }
      ],
      "stateMutability": "view",
      "type": "function"
    },
    {
      "inputs": [],
      "name": "capacity",
      "outputs": [
        {
          "internalType": "uint256",
          "name": "",
          "type": "uint256"
        }
      ],
      "stateMutability": "view",
      "type": "function"
    },
    {
      "inputs": [
        {
          "internalType": "uint256",
          "name": "positionTicket",
          "type": "uint256"
        },
        {
          "internalType": "uint256",
          "name": "timestamp",
          "type": "uint256"
        },
        {
          "internalType": "uint256",
          "name": "exitQueueIndex",
          "type": "uint256"
        }
      ],
      "name": "claimExitedAssets",
      "outputs": [
        {
          "internalType": "uint256",
          "name": "newPositionTicket",
          "type": "uint256"
        },
        {
          "internalType": "uint256",
          "name": "claimedShares",
          "type": "uint256"
        },
        {
          "internalType": "uint256",
          "name": "claimedAssets",
          "type": "uint256"
        }
      ],
      "stateMutability": "nonpayable",
      "type": "function"
    },
    {
      "inputs": [
        {
          "internalType": "uint256",
          "name": "shares",
          "type": "uint256"
        }
      ],
      "name": "convertToAssets",
      "outputs": [
        {
          "internalType": "uint256",
          "name": "assets",
          "type": "uint256"
        }
      ],
      "stateMutability": "view",
      "type": "function"
    },
    {
      "inputs": [
        {
          "internalType": "uint256",
          "name": "assets",
          "type": "uint256"
        }
      ],
      "name": "convertToShares",
      "outputs": [
        {
          "internalType": "uint256",
          "name": "shares",
          "type": "uint256"
        }
      ],
      "stateMutability": "view",
      "type": "function"
    },
    {
      "inputs": [
        {
          "internalType": "address",
          "name": "receiver",
          "type": "address"
        },
        {
          "internalType": "address",
          "name": "referrer",
          "type": "address"
        }
      ],
      "name": "deposit",
      "outputs": [
        {
          "internalType": "uint256",
          "name": "shares",
          "type": "uint256"
        }
      ],
      "stateMutability": "payable",
      "type": "function"
    },
    {
      "inputs": [
        {
          "internalType": "uint256",
          "name": "shares",
          "type": "uint256"
        },
        {
          "internalType": "address",
          "name": "receiver",
          "type": "address"
        }
      ],
      "name": "enterExitQueue",
      "outputs": [
        {
          "internalType": "uint256",
          "name": "positionTicket",
          "type": "uint256"
        }
      ],
      "stateMutability": "nonpayable",
      "type": "function"
    },
    {
      "inputs": [],
      "name": "feePercent",
      "outputs": [
        {
          "internalType": "uint16",
          "name": "",
          "type": "uint16"
        }
      ],
      "stateMutability": "view",
      "type": "function"
    },
    {
      "inputs": [],
      "name": "feeRecipient",
      "outputs": [
        {
          "internalType": "address",
          "name": "",
          "type": "address"
        }
      ],
      "stateMutability": "view",
      "type": "function"
    },
    {
      "inputs": [
        {
          "internalType": "uint256",
          "name": "positionTicket",
          "type": "uint256"
        }
      ],
      "name": "getExitQueueIndex",
      "outputs": [
        {
          "internalType": "int256",
          "name": "",
          "type": "int256"
        }
      ],
      "stateMutability": "view",
      "type": "function"
    },
    {
      "inputs": [
        {
          "internalType": "address",
          "name": "account",
          "type": "address"
        }
      ],
      "name": "getShares",
      "outputs": [
        {
          "internalType": "uint256",
          "name": "",
          "type": "uint256"
        }
      ],
      "stateMutability": "view",
      "type": "function"
    },
    {
      "inputs": [],
      "name": "implementation",
      "outputs": [
        {
          "internalType": "address",
          "name": "",
          "type": "address"
        }
      ],
      "stateMutability": "view",
      "type": "function"
    },
    {
      "inputs": [
        {
          "internalType": "bytes",
          "name": "params",
          "type": "bytes"
        }
      ],
      "name": "initialize",
      "outputs": [],
      "stateMutability": "payable",
      "type": "function"
    },
    {
      "inputs": [],
      "name": "isStateUpdateRequired",
      "outputs": [
        {
          "internalType": "bool",
          "name": "",
          "type": "bool"
        }
      ],
      "stateMutability": "view",
      "type": "function"
    },
    {
      "inputs": [],
      "name": "keysManager",
      "outputs": [
        {
          "internalType": "address",
          "name": "",
          "type": "address"
        }
      ],
      "stateMutability": "view",
      "type": "function"
    },
    {
      "inputs": [
        {
          "internalType": "uint256",
          "name": "osTokenShares",
          "type": "uint256"
        },
        {
          "internalType": "address",
          "name": "owner",
          "type": "address"
        },
        {
          "internalType": "address",
          "name": "receiver",
          "type": "address"
        }
      ],
      "name": "liquidateOsToken",
      "outputs": [],
      "stateMutability": "nonpayable",
      "type": "function"
    },
    {
      "inputs": [],
      "name": "mevEscrow",
      "outputs": [
        {
          "internalType": "address",
          "name": "",
          "type": "address"
        }
      ],
      "stateMutability": "view",
      "type": "function"
    },
    {
      "inputs": [
        {
          "internalType": "address",
          "name": "receiver",
          "type": "address"
        },
        {
          "internalType": "uint256",
          "name": "assets",
          "type": "uint256"
        }
      ],
      "name": "migrate",
      "outputs": [
        {
          "internalType": "uint256",
          "name": "shares",
          "type": "uint256"
        }
      ],
      "stateMutability": "nonpayable",
      "type": "function"
    },
    {
      "inputs": [
        {
          "internalType": "address",
          "name": "receiver",
          "type": "address"
        },
        {
          "internalType": "uint256",
          "name": "osTokenShares",
          "type": "uint256"
        },
        {
          "internalType": "address",
          "name": "referrer",
          "type": "address"
        }
      ],
      "name": "mintOsToken",
      "outputs": [
        {
          "internalType": "uint256",
          "name": "assets",
          "type": "uint256"
        }
      ],
      "stateMutability": "nonpayable",
      "type": "function"
    },
    {
      "inputs": [
        {
          "internalType": "bytes[]",
          "name": "data",
          "type": "bytes[]"
        }
      ],
      "name": "multicall",
      "outputs": [
        {
          "internalType": "bytes[]",
          "name": "results",
          "type": "bytes[]"
        }
      ],
      "stateMutability": "nonpayable",
      "type": "function"
    },
    {
      "inputs": [
        {
          "internalType": "address",
          "name": "user",
          "type": "address"
        }
      ],
      "name": "osTokenPositions",
      "outputs": [
        {
          "internalType": "uint128",
          "name": "shares",
          "type": "uint128"
        }
      ],
      "stateMutability": "view",
      "type": "function"
    },
    {
      "inputs": [],
      "name": "proxiableUUID",
      "outputs": [
        {
          "internalType": "bytes32",
          "name": "",
          "type": "bytes32"
        }
      ],
      "stateMutability": "view",
      "type": "function"
    },
    {
      "inputs": [],
      "name": "queuedShares",
      "outputs": [
        {
          "internalType": "uint128",
          "name": "",
          "type": "uint128"
        }
      ],
      "stateMutability": "view",
      "type": "function"
    },
    {
      "inputs": [],
      "name": "receiveFromMevEscrow",
      "outputs": [],
      "stateMutability": "payable",
      "type": "function"
    },
    {
      "inputs": [
        {
          "internalType": "uint256",
          "name": "shares",
          "type": "uint256"
        },
        {
          "internalType": "address",
          "name": "receiver",
          "type": "address"
        }
      ],
      "name": "redeem",
      "outputs": [
        {
          "internalType": "uint256",
          "name": "assets",
          "type": "uint256"
        }
      ],
      "stateMutability": "nonpayable",
      "type": "function"
    },
    {
      "inputs": [
        {
          "internalType": "uint256",
          "name": "osTokenShares",
          "type": "uint256"
        },
        {
          "internalType": "address",
          "name": "owner",
          "type": "address"
        },
        {
          "internalType": "address",
          "name": "receiver",
          "type": "address"
        }
      ],
      "name": "redeemOsToken",
      "outputs": [],
      "stateMutability": "nonpayable",
      "type": "function"
    },
    {
      "inputs": [
        {
          "components": [
            {
              "internalType": "bytes32",
              "name": "validatorsRegistryRoot",
              "type": "bytes32"
            },
            {
              "internalType": "uint256",
              "name": "deadline",
              "type": "uint256"
            },
            {
              "internalType": "bytes",
              "name": "validators",
              "type": "bytes"
            },
            {
              "internalType": "bytes",
              "name": "signatures",
              "type": "bytes"
            },
            {
              "internalType": "string",
              "name": "exitSignaturesIpfsHash",
              "type": "string"
            }
          ],
          "internalType": "struct IKeeperValidators.ApprovalParams",
          "name": "keeperParams",
          "type": "tuple"
        },
        {
          "internalType": "bytes32[]",
          "name": "proof",
          "type": "bytes32[]"
        }
      ],
      "name": "registerValidator",
      "outputs": [],
      "stateMutability": "nonpayable",
      "type": "function"
    },
    {
      "inputs": [
        {
          "components": [
            {
              "internalType": "bytes32",
              "name": "validatorsRegistryRoot",
              "type": "bytes32"
            },
            {
              "internalType": "uint256",
              "name": "deadline",
              "type": "uint256"
            },
            {
              "internalType": "bytes",
              "name": "validators",
              "type": "bytes"
            },
            {
              "internalType": "bytes",
              "name": "signatures",
              "type": "bytes"
            },
            {
              "internalType": "string",
              "name": "exitSignaturesIpfsHash",
              "type": "string"
            }
          ],
          "internalType": "struct IKeeperValidators.ApprovalParams",
          "name": "keeperParams",
          "type": "tuple"
        },
        {
          "internalType": "uint256[]",
          "name": "indexes",
          "type": "uint256[]"
        },
        {
          "internalType": "bool[]",
          "name": "proofFlags",
          "type": "bool[]"
        },
        {
          "internalType": "bytes32[]",
          "name": "proof",
          "type": "bytes32[]"
        }
      ],
      "name": "registerValidators",
      "outputs": [],
      "stateMutability": "nonpayable",
      "type": "function"
    },
    {
      "inputs": [
        {
          "internalType": "address",
          "name": "_feeRecipient",
          "type": "address"
        }
      ],
      "name": "setFeeRecipient",
      "outputs": [],
      "stateMutability": "nonpayable",
      "type": "function"
    },
    {
      "inputs": [
        {
          "internalType": "address",
          "name": "keysManager_",
          "type": "address"
        }
      ],
      "name": "setKeysManager",
      "outputs": [],
      "stateMutability": "nonpayable",
      "type": "function"
    },
    {
      "inputs": [
        {
          "internalType": "string",
          "name": "metadataIpfsHash",
          "type": "string"
        }
      ],
      "name": "setMetadata",
      "outputs": [],
      "stateMutability": "nonpayable",
      "type": "function"
    },
    {
      "inputs": [
        {
          "internalType": "bytes32",
          "name": "_validatorsRoot",
          "type": "bytes32"
        }
      ],
      "name": "setValidatorsRoot",
      "outputs": [],
      "stateMutability": "nonpayable",
      "type": "function"
    },
    {
      "inputs": [],
      "name": "totalAssets",
      "outputs": [
        {
          "internalType": "uint256",
          "name": "",
          "type": "uint256"
        }
      ],
      "stateMutability": "view",
      "type": "function"
    },
    {
      "inputs": [],
      "name": "totalShares",
      "outputs": [
        {
          "internalType": "uint256",
          "name": "",
          "type": "uint256"
        }
      ],
      "stateMutability": "view",
      "type": "function"
    },
    {
      "inputs": [
        {
          "components": [
            {
              "internalType": "bytes32",
              "name": "rewardsRoot",
              "type": "bytes32"
            },
            {
              "internalType": "int160",
              "name": "reward",
              "type": "int160"
            },
            {
              "internalType": "uint160",
              "name": "unlockedMevReward",
              "type": "uint160"
            },
            {
              "internalType": "bytes32[]",
              "name": "proof",
              "type": "bytes32[]"
            }
          ],
          "internalType": "struct IKeeperRewards.HarvestParams",
          "name": "harvestParams",
          "type": "tuple"
        }
      ],
      "name": "updateState",
      "outputs": [],
      "stateMutability": "nonpayable",
      "type": "function"
    },
    {
      "inputs": [
        {
          "internalType": "address",
          "name": "receiver",
          "type": "address"
        },
        {
          "internalType": "address",
          "name": "referrer",
          "type": "address"
        },
        {
          "components": [
            {
              "internalType": "bytes32",
              "name": "rewardsRoot",
              "type": "bytes32"
            },
            {
              "internalType": "int160",
              "name": "reward",
              "type": "int160"
            },
            {
              "internalType": "uint160",
              "name": "unlockedMevReward",
              "type": "uint160"
            },
            {
              "internalType": "bytes32[]",
              "name": "proof",
              "type": "bytes32[]"
            }
          ],
          "internalType": "struct IKeeperRewards.HarvestParams",
          "name": "harvestParams",
          "type": "tuple"
        }
      ],
      "name": "updateStateAndDeposit",
      "outputs": [
        {
          "internalType": "uint256",
          "name": "shares",
          "type": "uint256"
        }
      ],
      "stateMutability": "payable",
      "type": "function"
    },
    {
      "inputs": [
        {
          "internalType": "address",
          "name": "newImplementation",
          "type": "address"
        },
        {
          "internalType": "bytes",
          "name": "data",
          "type": "bytes"
        }
      ],
      "name": "upgradeToAndCall",
      "outputs": [],
      "stateMutability": "payable",
      "type": "function"
    },
    {
      "inputs": [],
      "name": "validatorIndex",
      "outputs": [
        {
          "internalType": "uint256",
          "name": "",
          "type": "uint256"
        }
      ],
      "stateMutability": "view",
      "type": "function"
    },
    {
      "inputs": [],
      "name": "validatorsRoot",
      "outputs": [
        {
          "internalType": "bytes32",
          "name": "",
          "type": "bytes32"
        }
      ],
      "stateMutability": "view",
      "type": "function"
    },
    {
      "inputs": [],
      "name": "vaultId",
      "outputs": [
        {
          "internalType": "bytes32",
          "name": "",
          "type": "bytes32"
        }
      ],
      "stateMutability": "pure",
      "type": "function"
    },
    {
      "inputs": [],
      "name": "version",
      "outputs": [
        {
          "internalType": "uint8",
          "name": "",
          "type": "uint8"
        }
      ],
      "stateMutability": "pure",
      "type": "function"
    },
    {
      "inputs": [],
      "name": "withdrawableAssets",
      "outputs": [
        {
          "internalType": "uint256",
          "name": "",
          "type": "uint256"
        }
      ],
      "stateMutability": "view",
      "type": "function"
    },
    {
      "stateMutability": "payable",
      "type": "receive"
    }
  ],
  "bytecode": "0x6101c0346200029b576200512b6001600160401b03601f38839003908101601f1916840190828211858310176200029f5780859460409384528539610120938491810103126200029b576200005484620002b3565b6200006260208601620002b3565b9262000070838701620002b3565b926200007f60608801620002b3565b6200008d60808901620002b3565b926200009c60a08a01620002b3565b94620000ab60c08b01620002b3565b96620000ba60e08c01620002b3565b98610100809c01519260805260a05260c0523060e052895260018060a01b03809216885281610140941684526101609485527ff0c57e16840df040f15088dc2f81fe391c3923bec73e23a9662efc9c229c6a009081549060ff82861c166200028a57808083160362000245575b50505080610180951685526101a0951685525194614e629687620002c98839608051878181611a47015281816123f50152818161272401528181613122015281816135b70152818161399301526144fb015260a0518761168d015260c051878181613f70015261411a015260e0518781816118790152613b2301525186612ce90152518581816103950152818161062f015281816109bc01528181610fe0015281816132c9015261485501525184818161070b01528181610a680152818161108c01526147d4015251838181612b1201526135ff015251828181610907015281816121f0015281816129b601528181612aa00152818161327a0152818161384f01526148dd0152518181816120e90152818161276c01526129550152f35b6001600160401b0319909116811790915582519081527fc7f505b2f371ae2175ee4913f4499e1f2633a7b5936321eed1cdaeb6115181d290602090a15f808062000127565b845163f92ee8a960e01b8152600490fd5b5f80fd5b634e487b7160e01b5f52604160045260245ffd5b51906001600160a01b03821682036200029b5756fe60806040526004361015610022575b3615610018575f80fd5b610020613278565b005b5f3560e01c806301e1d11414610301578063066055e0146102fc57806307a2d13a146102f757806318f72950146102f25780631a7ff553146102ed578063201b9eb5146102e857806323d18ed8146102e35780632999ad3f146102de5780632cdf7401146102d95780633229fa95146102d457806333194c0a146102cf5780633a98ef39146102ca578063439fab91146102c557806343e82a79146102c057806346904840146102bb5780634ec96b22146102b65780634f1ef286146102b1578063514e2708146102ac57806352d1902d146102a757806353156f28146102a257806354fd4d501461029d5780635c60da1b146102985780635cfc1a51146102935780635dddf3a81461028e57806360d60e6e1461028957806372b410a81461028457806376b58b901461027f5780637bde82f21461027a5780637fd6f15c146102755780638697d2c2146102705780638ceab9aa1461026b5780639b401cde14610266578063a1bf49aa14610261578063a49a1e7d1461025c578063aaa4e83614610257578063ac9650d814610252578063ad3cb1cc1461024d578063ad68ebf714610248578063c6e6f59214610243578063d83ad00c1461023e578063e74b981b14610239578063ef2a215814610234578063f04da65b1461022f578063f5e9de4d1461022a578063f851a440146102255763f9609f080361000e57612554565b61252d565b61239d565b612362565b6122da565b61229f565b612279565b61225b565b6120bd565b612078565b611f83565b611e3d565b611de6565b611dc9565b611dac565b611c66565b611c41565b611c1d565b611afa565b611aa9565b611a1c565b611977565b61195d565b611943565b61190f565b6118f4565b6118d0565b611867565b6117fb565b611575565b61141c565b6113f4565b610fb5565b610e9c565b610e2d565b610df3565b610dc7565b610dad565b610992565b6108ec565b6105bf565b61058c565b610533565b6104ee565b610345565b610314565b5f91031261031057565b5f80fd5b34610310575f36600319011261031057602060985460801c604051908152f35b6001600160801b0381160361031057565b346103105760203660031901126103105760043561036281610334565b604051633b9e9f0160e21b81523360048201526001600160801b03821660248201526020816044815f6001600160a01b037f0000000000000000000000000000000000000000000000000000000000000000165af19081156104e9575f916104ba575b50335f908152610137602052604090206103de90612598565b916001600160801b03806103f985516001600160801b031690565b16156104a8578361043d610430610420610456946104196104a4996132b4565b8616613369565b83516001600160801b03166125d1565b6001600160801b03168252565b335f908152610137602052604090206125ea565b6125ea565b604080518381526001600160801b0392909216602083015233917f3f7354ba02880b4fa37a629985852a38417ff369369ce1e52fa6f8342a9100a79190a26040519081529081906020820190565b0390f35b60405163673f032f60e11b8152600490fd5b6104dc915060203d6020116104e2575b6104d481836114f4565b81019061257e565b5f6103c5565b503d6104ca565b61258d565b3461031057602036600319011261031057602061050c60043561261c565b604051908152f35b6001600160a01b0381160361031057565b908160809103126103105790565b60603660031901126103105760043561054b81610514565b60243561055781610514565b604435906001600160401b0382116103105760209261058561058061050c943690600401610525565b6126f6565b34906142e7565b34610310576020366003190112610310576004356001600160401b03811161031057610580610020913690600401610525565b346103105760603660031901126103105760048035906105de82610514565b60243590604435926105ef84610514565b6105f7613957565b6105ff613978565b604080516329460cc560e11b81526001600160a01b038381168286019081526020818101889052929693959192907f00000000000000000000000000000000000000000000000000000000000000008416908290899081908a0103815f855af19788156104e9575f986108cd575b50335f90815261013760205260409020839061068890612598565b946001600160801b036106a287516001600160801b031690565b161561086b576106b1866132b4565b6106dd6106d06106c089613369565b88516001600160801b0316612a83565b6001600160801b03168752565b335f908152609c6020526040902084906106f8905b5461261c565b918a5193848092631331885160e31b82527f0000000000000000000000000000000000000000000000000000000000000000165afa9182156104e95761078792859261074b925f9261084c575b506133bf565b9261075d87516001600160801b031690565b908a5180809581946303d1689d60e11b83528a83019190916001600160801b036020820193169052565b03915afa9283156104e9575f9361082d575b50501061081f5750947fa16d97739893e1436c9753925fb5cef174c4f368699dc86cc8fdb0e6e60f8e58916107e66104a4976104513360018060a01b03165f5261013760205260405f2090565b84516001600160a01b039485168152602081018790526040810191909152921660608301523391608090a2519081529081906020820190565b8451633684c65960e01b8152fd5b610844929350803d106104e2576104d481836114f4565b905f80610799565b610864919250843d86116104e2576104d481836114f4565b905f610745565b885163752a536d60e01b8152915083828681865afa80156104e95761089c6108ab9187945f916108b0575b50613369565b6001600160801b031687860152565b6106b1565b6108c79150873d89116104e2576104d481836114f4565b5f610896565b6108e5919850823d84116104e2576104d481836114f4565b965f61066d565b34610310575f8060031936011261031057610905613a03565b7f00000000000000000000000000000000000000000000000000000000000000006001600160a01b0316803b15610310575f809160046040518094819363b4b6d74f60e01b83525af180156104e95761095c575080f35b61002091506114a6565b6060906003190112610310576004359060243561098281610514565b9060443561098f81610514565b90565b34610310576109a036610966565b906001600160a01b0380831615610d9b576109b9613978565b807f00000000000000000000000000000000000000000000000000000000000000001691823b156103105760408051631d8557d760e01b815260049491905f81878183875af180156104e957610d82575b506001600160a01b0383165f90815261013760205260409020610a2c90612598565b6001600160801b03610a4582516001600160801b031690565b1615610d7257610a54816132b4565b81516330fe427560e21b81529260a08488817f00000000000000000000000000000000000000000000000000000000000000008a165afa9687156104e957610ac3975f955f91610d39575b5084516303d1689d60e11b918282528c828060209d8e938883019190602083019252565b0381885afa80156104e957610ade925f91610d1c57506133bf565b95610afc6106f28960018060a01b03165f52609c60205260405f2090565b918288118015610d0c575b610cfc57908a610b4492610b2288516001600160801b031690565b908951948592839283528883019190916001600160801b036020820193169052565b0381885afa9081156104e957670de0b6b3a764000093610b80938d5f94610cd3575b5050610b74610b7a916130de565b926130fb565b91613439565b1015610cc5578351633b9e9f0160e21b815233918101918252602082018b905294939291889186919082905f90829060400103925af19081156104e9577f61fd285f9e34a3dbfa9846bdcf22a023e37a3c93549902843b30dd74a18c535097610ca295610c1a93610ca7575b5050610bfd6104306104208c613369565b6001600160a01b0386165f908152610137602052604090206125ea565b610c2382613e4e565b90610c61610c46610c3385613369565b60985460801c036001600160801b031690565b6001600160801b036098549181199060801b16911617609855565b610c6b828661454f565b610c758389613d32565b51948594169733978590949392606092608083019660018060a01b03168352602083015260408201520152565b0390a3005b81610cbd92903d106104e2576104d481836114f4565b505f80610bec565b835163185cfc6d60e11b8152fd5b610b7a929450610b749181610cf392903d106104e2576104d481836114f4565b9391508d610b66565b865163efda1a2760e01b81528490fd5b50610d15612a9e565b8811610b07565b610d3391508c8d3d106104e2576104d481836114f4565b5f610745565b9050610d5e91955060a03d60a011610d6b575b610d5681836114f4565b810190613a16565b509692509050945f610a9f565b503d610d4c565b815163673f032f60e11b81528690fd5b80610d8f610d95926114a6565b80610306565b5f610a0a565b60405163d92e233d60e01b8152600490fd5b34610310575f36600319011261031057602061050c612a9e565b34610310575f366003190112610310576020610de1612af9565b6040516001600160a01b039091168152f35b34610310575f3660031901126103105760206040517f11a6b7bef0f97d298d56e5af2aa94330353808e861cbac86172faad21b10c5058152f35b34610310575f3660031901126103105760206001600160801b0360985416604051908152f35b906020600319830112610310576004356001600160401b039283821161031057806023830112156103105781600401359384116103105760248483010111610310576024019190565b610ea536610e53565b905f80516020614e0d83398151915254916001600160401b0360ff8460401c1615931680159081610fad575b6001149081610fa3575b159081610f9a575b50610f88575f80516020614e0d833981519152805467ffffffffffffffff19166001179055610f169183610f6457612b63565b610f1c57005b5f80516020614e0d833981519152805460ff60401b19169055604051600181527fc7f505b2f371ae2175ee4913f4499e1f2633a7b5936321eed1cdaeb6115181d290602090a1005b5f80516020614e0d833981519152805460ff60401b1916600160401b179055612b63565b60405163f92ee8a960e01b8152600490fd5b9050155f610ee3565b303b159150610edb565b849150610ed1565b3461031057610fc336610966565b906001600160a01b039081831615610d9b57610fdd613978565b817f000000000000000000000000000000000000000000000000000000000000000016803b156103105760408051631d8557d760e01b815260049291905f81858183875af180156104e9576113e1575b506001600160a01b0384165f9081526101376020526040902061104f90612598565b926001600160801b0361106985516001600160801b031690565b16156113d357611078846132b4565b81516330fe427560e21b81529360a08583817f00000000000000000000000000000000000000000000000000000000000000008b165afa9384156104e9575f955f956113a5575b5083516303d1689d60e11b8082528482018c81529197602094939285908a90819083015b0381865afa9889156104e9575f99611386575b506001600160a01b038a165f908152609c60205260409020611117906106f2565b90818a118015611376575b6113665761115d908661113c87516001600160801b031690565b8a51809481928883528c83019190916001600160801b036020820193169052565b0381885afa9182156104e9575f92611345575b5061117b91926133bf565b11611335578551633b9e9f0160e21b815233868201908152602081018e905290919085908390819060400103815f875af19182156104e9578592611318575b506111c48d613369565b84516001600160801b0316906111d9916125d1565b6001600160801b031684526001600160a01b038a165f9081526101376020526040902084611206916125ea565b61120f89613e4e565b976112198a613369565b60985460801c036001600160801b0316611248906001600160801b036098549181199060801b16911617609855565b611252898c61454f565b6001600160a01b038b165f908152609c60205260409020546112739061261c565b9061127d916133bf565b935187519182526001600160801b0316868201908152909283918290036020019082905afa9283156104e9575f936112f9575b5050116112eb575091610ca2917f57f5eb636bf62215c111b54545422f11dfb0cb115f606be905f0be08e8859dd3959493610c758389613d32565b9051631d8fa13d60e31b8152fd5b611310929350803d106104e2576104d481836114f4565b905f806112b0565b61132e90833d85116104e2576104d481836114f4565b505f6111ba565b855163324b20e160e11b81528590fd5b61117b925061136090883d8a116104e2576104d481836114f4565b91611170565b875163efda1a2760e01b81528790fd5b5061137f612a9e565b8a11611122565b61139e919950853d87116104e2576104d481836114f4565b975f6110f6565b6110e39296506113c591955060a03d60a011610d6b57610d5681836114f4565b5050509590959490916110bf565b905163673f032f60e11b8152fd5b80610d8f6113ee926114a6565b5f61102d565b34610310575f366003190112610310576065546040516001600160a01b039091168152602090f35b346103105760203660031901126103105760043561143981610514565b60018060a01b03165f52610137602052602060405f206040519061145c826114be565b54906001600160801b03918281169081835260801c84830152611484575b5116604051908152f35b61148d816132b4565b61147a565b634e487b7160e01b5f52604160045260245ffd5b6001600160401b0381116114b957604052565b611492565b604081019081106001600160401b038211176114b957604052565b606081019081106001600160401b038211176114b957604052565b90601f801991011681019081106001600160401b038211176114b957604052565b60405190611522826114be565b565b6001600160401b0381116114b957601f01601f191660200190565b92919261154b82611524565b9161155960405193846114f4565b829481845281830111610310578281602093845f960137010152565b60408060031936011261031057600490813561159081610514565b6024356001600160401b0381116103105736602382011215610310576115bf903690602481870135910161153f565b916115c8613b19565b8051926115ff846115f160209363439fab9160e01b858401528460248401526044830190611efb565b03601f1981018652856114f4565b611607613b19565b61160f613a03565b6001600160a01b038381168015929190879084156117c6575b8415611758575b84156116f4575b5050821561165e575b505061164f576100208383614697565b516355299b4960e01b81528390fd5b83516345da87c560e01b81526001600160a01b03861688820190815292935091839183918290819060200103917f0000000000000000000000000000000000000000000000000000000000000000165afa9182156104e9575f926116c7575b5050155f8061163f565b6116e69250803d106116ed575b6116de81836114f4565b81019061264c565b5f806116bd565b503d6116d4565b855163054fd4d560e41b81529294508391839182905afa9081156104e95760029160ff915f9161172b575b5016141591865f611636565b61174b9150843d8611611751575b61174381836114f4565b81019061467e565b5f61171f565b503d611739565b935050835163198ca60560e11b815282818981875afa9081156104e95788917f11a6b7bef0f97d298d56e5af2aa94330353808e861cbac86172faad21b10c505915f916117a9575b5014159361162f565b6117c09150853d87116104e2576104d481836114f4565b5f6117a0565b5f80516020614ded8339815191525490945084906117f4906001600160a01b03165b6001600160a01b031690565b1493611628565b34610310576020366003190112610310576004356001600160a01b0361181f612c60565b163303611855578060d0555f60d155337fbe9758e2d6800505eeb0292a08fe647c52762ccea131177456e7062dd77b41065f80a3005b604051634ca8886760e01b8152600490fd5b34610310575f366003190112610310577f00000000000000000000000000000000000000000000000000000000000000006001600160a01b031630036118be5760206040515f80516020614ded8339815191528152f35b60405163703e46dd60e11b8152600490fd5b5f366003190112610310576001600160a01b036118eb612af9565b16330361185557005b34610310575f36600319011261031057602060405160018152f35b34610310575f366003190112610310575f80516020614ded833981519152546040516001600160a01b039091168152602090f35b34610310575f36600319011261031057602061050c612c52565b34610310575f366003190112610310576020610de1612c60565b3461031057602036600319011261031057609a80549081905f6004355b8482106119c5575050508110156119ba576104a4905b6040519081529081906020820190565b506104a45f196119aa565b909193808316906001818518811c8301809311611a17575f8790525f80516020614dcd8339815191528301546001600160a01b0316841015611a0c575050935b9190611994565b909591019250611a05565b6125bd565b34610310575f36600319011261031057604051633eb1acf760e11b81523060048201526020816024817f00000000000000000000000000000000000000000000000000000000000000006001600160a01b03165afa80156104e9576020915f91611a8c575b506040519015158152f35b611aa39150823d84116116ed576116de81836114f4565b5f611a81565b34610310576080366003190112610310576104a4611add600435611acc81610514565b606435906044359060243590612c7f565b604080519384526020840192909252908201529081906060820190565b34610310576040806003193601126103105760043560243591611b1c83610514565b611b24614d5b565b8115611c0d576001600160a01b0383168015611bfc57611b438361261c565b928315611beb57611b52612a9e565b8411611bda57611b89846104a496611b7a610c46611b6f84613369565b60985460801c6125d1565b611b84843361454f565b613d32565b8251848152602081019190915233907f5cdf07ad0fc222442720b108e3ed4c4640f0fadc2ab2253e66f259a0fea834809080604081015b0390a3611bcc33614742565b519081529081906020820190565b82516396d8043360e01b8152600490fd5b82516318374fd160e21b8152600490fd5b815163d92e233d60e01b8152600490fd5b51636edcc52360e01b8152600490fd5b34610310575f36600319011261031057602061ffff60655460a01c16604051908152f35b34610310576060366003190112610310576104a4611add604435602435600435612cde565b3461031057604080600319360112610310576004359060243590611c8982610514565b611c91613957565b8215611c0d576001600160a01b0382168015611bfc5783611d71611d556104a496611cd3611cc76099546001600160801b031690565b6001600160801b031690565b81611d33611ce883611ce3614bdd565b6126be565b89516001600160a01b03909b1660208c019081524260408d015260608c01829052909a611d2281608081015b03601f1981018352826114f4565b5190205f52609b60205260405f2090565b55335f908152609c60205260409020611d4d8382546126a3565b905501613369565b6001600160801b03166001600160801b03196099541617609955565b8251848152602081019190915233907f211091c5bf013c1230f996c3bb2bc327e3de429a3d3c356dcea9a0c858bc407f908060408101611bc0565b34610310575f36600319011261031057602060d054604051908152f35b34610310575f36600319011261031057602060d154604051908152f35b3461031057611e387f2013570c343af8ab14a9778150e381a0fda34ed6368127a95fd5e7210cbec5bf611e1836610e53565b9290611e22613a03565b6040519182916020835233956020840191612e75565b0390a2005b3461031057602036600319011261031057600435611e5a81610514565b611e62613a03565b6001600160a01b03168015610d9b5760d280546001600160a01b03191682179055337fb710e1d0ebf395f895942ac4e559a4a86d57f748a90cf05e9d70798c67e9c65b5f80a3005b9181601f84011215610310578235916001600160401b038311610310576020808501948460051b01011161031057565b5f5b838110611eeb5750505f910152565b8181015183820152602001611edc565b90602091611f1481518092818552858086019101611eda565b601f01601f1916010190565b6020808201906020835283518092526040830192602060408460051b8301019501935f915b848310611f555750505050505090565b9091929394958480611f73600193603f198682030187528a51611efb565b9801930193019194939290611f45565b3461031057602036600319011261031057600480356001600160401b03811161031057611fb4903690600401611eaa565b91611fbe83612eac565b925f5b818110611fd657604051806104a48782611f20565b5f80611fe3838588612f3b565b60409391611ff5855180938193612f5b565b0390305af490612003612f68565b911561202a5750906001916120188288613002565b526120238187613002565b5001611fc1565b848260448151106103105761204e8183612063930151602480918301019101612f97565b925162461bcd60e51b81529283928301612067565b0390fd5b90602061098f928181520190611efb565b34610310575f366003190112610310576104a4604051612097816114be565b60058152640352e302e360dc1b6020820152604051918291602083526020830190611efb565b3461031057604080600319360112610310576004356120db81610514565b6024356001600160a01b03337f00000000000000000000000000000000000000000000000000000000000000008216148015906121db575b6121ca5761211f613957565b612127613978565b8216156121b9578015611beb57917fd083678824038160bef3975359ab29f19c3f0e9bcf9d7ead540a492d4d678b63836121636104a495613e4e565b9361217e610c4661217384613369565b60985460801c612a83565b6121888582613e02565b83516001600160a01b03919091168152602081019190915260408101849052606090a1519081529081906020820190565b825163d92e233d60e01b8152600490fd5b8351634ca8886760e01b8152600490fd5b508351638da5cb5b60e01b81526020816004817f000000000000000000000000000000000000000000000000000000000000000086165afa9081156104e9575f9161222c575b508116301415612113565b61224e915060203d602011612254575b61224681836114f4565b81019061268e565b5f612221565b503d61223c565b3461031057602036600319011261031057602061050c600435613e4e565b34610310575f3660031901126103105760206001600160801b0360995416604051908152f35b34610310576020366003190112610310576100206004356122bf81610514565b6122c7613a03565b613edd565b908160a09103126103105790565b34610310576080366003190112610310576001600160401b036004358181116103105761230b9036906004016122cc565b60243582811161031057612323903690600401611eaa565b6044929192358481116103105761233e903690600401611eaa565b916064359586116103105761235a610020963690600401611eaa565b959094613112565b346103105760203660031901126103105760043561237f81610514565b60018060a01b03165f52609c602052602060405f2054604051908152f35b3461031057604080600319360112610310576004906001600160401b038235818111610310576123d090369085016122cc565b90602435908111610310576123e89036908501611eaa565b9390926123f3613978565b7f00000000000000000000000000000000000000000000000000000000000000006001600160a01b0316803b15610310575f8251809263837d444160e01b82528183816124428a8a8301613047565b03925af180156104e95761251a575b506801bc16d674ec800000612464612a9e565b1061250d578083019360b06124798686612f09565b9050036124ff576124cb6124cf9160d1549760d054906124be6124b68b6124a08c8c612f09565b611d148b94929451938492602084019687613244565b519020613261565b60208151910120926140cc565b1590565b6124f2576100206001866124ec6124e68888612f09565b90614104565b0160d155565b516309bde33960e01b8152fd5b5051631a0a9b9f60e21b8152fd5b516396d8043360e01b8152fd5b80610d8f612527926114a6565b5f612451565b34610310575f366003190112610310575f546040516001600160a01b039091168152602090f35b604036600319011261031057602061050c60043561257181610514565b6024359061058582610514565b90816020910312610310575190565b6040513d5f823e3d90fd5b906040516125a5816114be565b91546001600160801b038116835260801c6020830152565b634e487b7160e01b5f52601160045260245ffd5b6001600160801b039182169082160391908211611a1757565b815160209092015160801b6fffffffffffffffffffffffffffffffff19166001600160801b0392909216919091179055565b6098546001600160801b038116908161263457505090565b9161098f9260801c90613439565b8015150361031057565b90816020910312610310575161098f81612642565b90816020910312610310575161098f81610334565b81810392915f138015828513169184121617611a1757565b90816020910312610310575161098f81610514565b91908203918211611a1757565b9060018201809211611a1757565b91908201809211611a1757565b600160ff1b8114611a17575f0390565b9190915f8382019384129112908015821691151617611a1757565b60408051630156a69560e11b8152306004808301919091526001600160a01b039390926020929183836024817f00000000000000000000000000000000000000000000000000000000000000008a165afa9283156104e9575f93612a60575b5061275f90613586565b9590809315612940575b507f0000000000000000000000000000000000000000000000000000000000000000169281516278744560e21b815281818781885afa9081156104e9575f91612923575b508251631cd5ec3960e31b81529082828881895afa9182156104e9576127db935f93612904575b50506126a3565b6127ee81611ce3611cc760985460801c90565b905f841215612897576128129161280d91612808866126cb565b613439565b61370b565b9261281c846126cb565b90803b1561031057915163304f0a6b60e21b81529485019081525f91859182908490829060200103925af19283156104e95761285d93612884575b506126db565b80612875575b5061286a57565b61287261382e565b50565b61287e90613734565b5f612863565b80610d8f612891926114a6565b5f612857565b6128a99161280d918597949697613439565b92843b15610310575163304f0a6b60e21b815290810183815290935f9185919082908490829060200103925af19283156104e9576128ec936128f1575b50612676565b61285d565b80610d8f6128fe926114a6565b5f6128e6565b61291b929350803d106104e2576104d481836114f4565b905f806127d4565b61293a9150823d84116104e2576104d481836114f4565b5f6127ad565b825163070aab0d60e11b8152919350848287817f000000000000000000000000000000000000000000000000000000000000000088165afa80156104e9576001600160801b0361299c916129a2945f91612a33575b501661370b565b90612676565b918151638da5cb5b60e01b815284818781857f0000000000000000000000000000000000000000000000000000000000000000165afa9081156104e9575f91612a16575b5081163014801590612a0d575b6129fd575f612769565b815163c284f82560e01b81528590fd5b505f83126129f3565b612a2d9150853d87116122545761224681836114f4565b5f6129e6565b612a539150883d8a11612a59575b612a4b81836114f4565b810190612661565b5f612995565b503d612a41565b61275f919350612a7c90853d87116116ed576116de81836114f4565b9290612755565b9190916001600160801b0380809416911601918211611a1757565b7f00000000000000000000000000000000000000000000000000000000000000006001600160a01b0316314701609954612ae06001600160801b03821661261c565b9060801c01908181115f14612af3570390565b50505f90565b61016a546001600160a01b03168015612b0f5790565b507f000000000000000000000000000000000000000000000000000000000000000090565b9061098f949360809361ffff9260018060a01b0316845260208401521660408201528160608201520190611efb565b9081019060408183031261031057803590612b7d82610514565b60208101356001600160401b03918282116103105701916060838503126103105760405191612bab836114d9565b8335835260208401359361ffff851685036103105760208401948552604081013591821161031057019084601f8301121561031057612c3e612c177f6efc3c5ea2064c46840711aa5ff8d7f70826faa0cc04fcf0557a3863533aafad96846020612c4d9635910161153f565b604085019081526001600160a01b0390921693612c348186613a3d565b51945161ffff1690565b90519060405194859485612b34565b0390a1565b609d548061098f57505f1990565b60d2546001600160a01b0390811680612c7a57505f541690565b905090565b604080516001600160a01b039092166020830190815290820193909352606081018290529092612ccf929091612cb88160808101611d14565b5190205f52609b60205260405f2054928391613b97565b9091828103908111611a175792565b929190915f93612d0e7f0000000000000000000000000000000000000000000000000000000000000000856126be565b4210612e4b5760408051336020820190815291810186905260608082018490528152601f1991612d4f91612d436080826114f4565b51902094868433612c7f565b9096909587878115612e3d5750505f908152609b602052604081205560018211612df3575b505050612dac612d91612d8685613369565b60995460801c6125d1565b6001600160801b036099549181199060801b16911617609955565b612db68333613d32565b6040805191825260208201869052810183905233907feb3b05c070c24f667611fdb3ff75fe007d42401c573aed8d8faca95fd00ccb5690606090a2565b612e3491929750612e0487856126be565b60408051336020820190815291810193909352606083018290526080998a0183529098909190611d2290826114f4565b555f8080612d74565b959950975093955050505050565b604051631613b7eb60e01b8152600490fd5b90603060609281835260208301375f60508201520190565b908060209392818452848401375f828201840152601f01601f1916010190565b6001600160401b0381116114b95760051b60200190565b90612eb682612e95565b612ec360405191826114f4565b8281528092612ed4601f1991612e95565b01905f5b828110612ee457505050565b806060602080938501015201612ed8565b634e487b7160e01b5f52603260045260245ffd5b903590601e198136030182121561031057018035906001600160401b0382116103105760200191813603831361031057565b90821015612f5657612f529160051b810190612f09565b9091565b612ef5565b908092918237015f815290565b3d15612f92573d90612f7982611524565b91612f8760405193846114f4565b82523d5f602084013e565b606090565b602081830312610310578051906001600160401b038211610310570181601f82011215610310578051612fc981611524565b92612fd760405194856114f4565b818452602082840101116103105761098f9160208085019101611eda565b805115612f565760200190565b8051821015612f565760209160051b010190565b9035601e19823603018112156103105701602081359101916001600160401b03821161031057813603831361031057565b9060a061098f926020815282356020820152602083013560408201526130836130736040850185613016565b84606085015260c0840191612e75565b906130b66130ab6130976060870187613016565b601f19858703810160808701529591612e75565b946080810190613016565b93909282860301910152612e75565b906801bc16d674ec8000009180830292830403611a1757565b90670de0b6b3a764000091828102928184041490151715611a1757565b9061271091828102928184041490151715611a1757565b929094939195613120613978565b7f00000000000000000000000000000000000000000000000000000000000000006001600160a01b031695863b15610310576040965f8851809263837d444160e01b82528183816131748c60048301613047565b03925af180156104e957613231575b5061318c612a9e565b613195896130c5565b116132205787158015613206575b6131f557916131d39593916131cd896124cb97956131c760d054978c810190612f09565b90613f3f565b946140ba565b6131e557506115229060d1540160d155565b516309bde33960e01b8152600490fd5b8651631c6c4cf360e31b8152600490fd5b5061321387860186612f09565b905060b0890214156131a3565b86516396d8043360e01b8152600490fd5b80610d8f61323e926114a6565b5f613183565b93929160209161325c91604087526040870191612e75565b930152565b9060405191602083015260208252611522826114be565b7f00000000000000000000000000000000000000000000000000000000000000006001600160a01b031633036132aa57565b612872343361421f565b60405163752a536d60e01b81526020816004817f00000000000000000000000000000000000000000000000000000000000000006001600160a01b03165afa9081156104e9575f9161334a575b5060208201916001600160801b03918284511691828214613343578361333661333161333e958584865116613439565b613369565b169052613369565b169052565b5050505050565b613363915060203d6020116104e2576104d481836114f4565b5f613301565b6001600160801b039081811161337d571690565b604490604051906306dfcc6560e41b8252608060048301526024820152fd5b634e487b7160e01b5f52601260045260245ffd5b81156133ba570490565b61339c565b90808202905f198184099082808310920391808303921461342e57612710908282111561341c577fbc01a36e2eb1c432ca57a786c226809d495182a9930be0ded288ce703afb7e91940990828211900360fc1b910360041c170290565b60405163227bc15360e01b8152600490fd5b505061271091500490565b9091828202915f19848209938380861095039480860395146134ac578483111561341c57829109815f038216809204600280826003021880830282030280830282030280830282030280830282030280830282030280920290030293600183805f03040190848311900302920304170290565b50509061098f92506133b0565b90816060910312610310578051916040602083015192015161098f81612642565b81835290916001600160fb1b0383116103105760209260051b809284830137010190565b90602082528035602083015260208101358060130b809103610310576040830152604081013561352d81610514565b6001600160a01b031660608381019190915281013536829003601e19018112156103105701602081359101906001600160401b038111610310578060051b360382136103105760a08360808061098f96015201916134da565b6040516325f56f1160e01b81526001600160a01b039291606090829081906135b190600483016134fe565b03815f877f0000000000000000000000000000000000000000000000000000000000000000165af19283156104e9575f915f905f956136d6575b50841561368357816135fb612af9565b16917f000000000000000000000000000000000000000000000000000000000000000016821461367c57509060205f92600460405180958193634641257d60e01b83525af19081156104e957613657925f9261365b57506126db565b9190565b61367591925060203d6020116104e2576104d481836114f4565b905f612857565b9081613689575b50509190565b803b1561031057604051636ee3193160e11b815260048101929092525f908290602490829084905af180156104e9576136c3575b80613683565b80610d8f6136d0926114a6565b5f6136bd565b919450506136fc915060603d606011613704575b6136f481836114f4565b8101906134b9565b93905f6135eb565b503d6136ea565b6001600160ff1b03811161371c5790565b6024906040519063123baf0360e11b82526004820152fd5b613743611cc760985460801c90565b5f82126138155781613754916126be565b90613761610c4683613369565b6137766065549161ffff8360a01c16906133bf565b801561381057807f555ee6b2ef9506d870f386c067e47d3689435330b012ad263d8cc35318686547936137b4611cc76098546001600160801b031690565b806137fa575050612c4d90925b6001600160a01b0316916137d58484613e02565b60405193849384604091949392606082019560018060a01b0316825260208201520152565b612c4d9261380a92039084613439565b926137c1565b505050565b613331610c4691613828611522946126cb565b906126a3565b609954906001600160801b0382169182156139515760801c61388e61387f827f00000000000000000000000000000000000000000000000000000000000000006001600160a01b03163147016126a3565b6138888561261c565b90614393565b90811561394a5761389e82613e4e565b93841561394257826138ca612d9161333161152296610c4696611ce3611d556133318d611b6f9a6126a3565b6138d481876143f9565b60408051878152602081018390527f624ea167e477f9d39f7f4094b9dfe2e6346eb4a7aada54338db51abd554c4b9f9190a161333161392661391588613369565b6098546001600160801b03166125d1565b6001600160801b03166001600160801b03196098541617609855565b505f93505050565b505f925050565b505f9150565b61395f6144e0565b1561396657565b604051630a62fbdb60e11b8152600490fd5b604051633eb1acf760e11b81523060048201526020816024817f00000000000000000000000000000000000000000000000000000000000000006001600160a01b03165afa9081156104e9575f916139e4575b506139d257565b60405163e775715160e01b8152600490fd5b6139fd915060203d6020116116ed576116de81836114f4565b5f6139cb565b5f546001600160a01b0316330361185557565b908160a0910312610310578051916020820151916040810151916080606083015192015190565b90613a4661459c565b6040810151613a5361459c565b5f80546001600160a01b0319166001600160a01b03851617905560405133917f2013570c343af8ab14a9778150e381a0fda34ed6368127a95fd5e7210cbec5bf91908190613aa19082612067565b0390a26020810151613ab161459c565b61271061ffff821611613b0757613aca613aef93613edd565b6065805461ffff60a01b191660a09290921b61ffff60a01b16919091179055516145ca565b613af76145fa565b613aff61459c565b61152261461b565b604051638a81d3b360e01b8152600490fd5b6001600160a01b037f00000000000000000000000000000000000000000000000000000000000000008116308114918215613b57575b50506118be57565b5f80516020614ded8339815191525416141590505f80613b4f565b90604051613b7f816114be565b91546001600160a01b038116835260a01c6020830152565b609a545f948594939091808410801590613d2a575b613d1d5783613ce7575f5b609a5f526001600160a01b0316613bdc5f80516020614dcd8339815191528601613b72565b8051909790613bf3906001600160a01b03166117e8565b98613c18613c0c6020809b01516001600160601b031690565b6001600160601b031690565b948381108015613cdd575b613ccb5791600193979a95613c42613c4e939488035b838c0390614393565b80920198870391613439565b01970193808611801590613cc1575b613cb657609a5f528290613c7f5f80516020614dcd8339815191528701613b72565b805190890151969992966001600160a01b039091169460019392613c4e9290916001600160601b0390911690613c42908803613c39565b945050509250509190565b5081851015613c5d565b60405163e8722f8f60e01b8152600490fd5b50808b1115613c23565b609a5f527f44da158ba27f9252712a74ff6a55c5d531f69609f1f6e7f17c4443a8e2089be38401546001600160a01b0316613bb7565b505093505050505f905f90565b508415613bac565b478211613df5575b7f9b779b17422d0df92223018b32b4d1fa46e071723d6817e2486d003becc55f006002815414613de35760029055814710613dcb575f918291829182916001600160a01b03165af1613d8a612f68565b5015613db95761152260017f9b779b17422d0df92223018b32b4d1fa46e071723d6817e2486d003becc55f0055565b604051630a12f52160e11b8152600490fd5b60405163cd78605960e01b8152306004820152602490fd5b604051633ee5aeb560e01b8152600490fd5b613dfd6148db565b613d3a565b613e0b82613369565b60985490613e236001600160801b0391828416612a83565b16906001600160801b0319161760985560018060a01b03165f52609c60205260405f20908154019055565b609854906001600160801b03821681158015613e7d575b15613e705750905090565b61098f9260801c91613439565b508015613e65565b6098546001600160801b0381169082158015613ed5575b15613ea657505090565b60801c90613eb5828285613439565b9282156133ba5709613ec45790565b600181018091111561098f576125bd565b508115613e9c565b613ee5613978565b6001600160a01b03168015613f2d57606580546001600160a01b03191682179055337faaebcf1bfa00580e41d966056b48521fa9f202645c86d4ddf28113e617c1b1d35f80a3565b604051630ed1b8b360e31b8152600490fd5b919290613f4a6148db565b60d154925f925f90613f5b81614952565b96613f64614cf4565b935f9760018060a01b037f000000000000000000000000000000000000000000000000000000000000000016945b848a10613fa6575050505050505050505090565b60b0613fb69101809989856149b4565b9960409a8c613ff28d51613fda602091828101906124b681611d148c8a8d87613244565b805191012091613feb858b8b6149d5565b3590613002565b52613ffd8184614984565b909361401d61401761400f8584614992565b9590936149a3565b906149e5565b908a3b15610310578b8f5f93614048915196879485946304512a2360e31b8652888c60048801614a01565b03816801bc16d674ec8000008d5af19384156104e95761409b60018e7f64b6e61d93b7a91e8cc4376183ede0997a27b44fd9dd2f30a866b2a5730efdb19582986140a7575b5097019e5192839283614a4f565b0390a101989097613f92565b80610d8f6140b4926114a6565b5f61408d565b906140c89495939291614a78565b1490565b9192915f915b8083106140e0575050501490565b9091926140fb6001916140f48685876149d5565b3590614d1d565b930191906140d2565b61410c6148db565b8160301161031057614017917f00000000000000000000000000000000000000000000000000000000000000006001600160a01b031661414a614cf4565b906141616141588486614992565b969094866149a3565b94813b15610310576801bc16d674ec8000005f946141c797604051988996879586946304512a2360e31b8652608060048701526141b86141a58d6084890190612e5d565b60031994858983030160248a0152611efb565b92868403016044870152612e75565b90606483015203925af19081156104e9577f64b6e61d93b7a91e8cc4376183ede0997a27b44fd9dd2f30a866b2a5730efdb192612c4d92614210575b5060405191829182614a3e565b614219906114a6565b5f614203565b9190614229613978565b6001600160a01b038316908115610d9b5780156142d55780614250611cc760985460801c90565b019361425a612c52565b85116142c357610c46946142819161427c61427485613e85565b978893613369565b613e02565b60408051918252602082018590525f9082015233907f861a4138e41fb21c121a7dbb1053df465c837fc77380cc7226189a662281be2c9080606081015b0390a3565b6040516304ffa0ff60e51b8152600490fd5b6040516318374fd160e21b8152600490fd5b909291926142f3613978565b6001600160a01b038216918215610d9b5781156142d5578161431a611cc760985460801c90565b01614323612c52565b81116142c357610c469561436a6142be927f861a4138e41fb21c121a7dbb1053df465c837fc77380cc7226189a662281be2c9461427c61436288613e85565b9a8b93613369565b60408051948552602085018890526001600160a01b039091169084015233929081906060820190565b9080821015612c7a575090565b609a5490600160401b8210156114b9576001820180609a55821015612f5657609a5f52805160209091015160a01b6001600160a01b0319166001600160a01b0391909116175f80516020614dcd83398151915290910155565b90811580156144d8575b6144c657609a548061449057505f905b6001600160a01b03918216928301928310611a175781831161447057611522929161445b61444361446b93614c1f565b9161444c611515565b94166001600160a01b03168452565b6001600160601b03166020830152565b6143a0565b6040516306dfcc6560e41b815260a0600482015260248101849052604490fd5b609a5f527f44da158ba27f9252712a74ff6a55c5d531f69609f1f6e7f17c4443a8e2089be301546001600160a01b031690614413565b604051632ec8835b60e21b8152600490fd5b508015614403565b604051630156a69560e11b81523060048201526020816024817f00000000000000000000000000000000000000000000000000000000000000006001600160a01b03165afa9081156104e9575f91614536575090565b61098f915060203d6020116116ed576116de81836114f4565b60018060a01b03165f52609c60205260405f20908154818103908111611a17576145799255613369565b609854906001600160801b03908183160316906001600160801b03191617609855565b60ff5f80516020614e0d8339815191525460401c16156145b857565b604051631afcd79f60e31b8152600490fd5b6145d261459c565b80156145e857600181016145e35750565b609d55565b6040516331278a8760e01b8152600490fd5b61460261459c565b6801bc16d674ec800000614614612c52565b106145e857565b61462361459c565b61462b61459c565b61463361459c565b60017f9b779b17422d0df92223018b32b4d1fa46e071723d6817e2486d003becc55f0055633b9aca00341061466c57612872343061421f565b60405163ea2559bb60e01b8152600490fd5b90816020910312610310575160ff811681036103105790565b6040516352d1902d60e01b81529290916020846004816001600160a01b0387165afa5f9481614721575b506146e757604051634c9c8ce360e01b81526001600160a01b0384166004820152602490fd5b90915f80516020614ded833981519152840361470857611522929350614c52565b604051632a87526960e21b815260048101859052602490fd5b61473b91955060203d6020116104e2576104d481836114f4565b935f6146c1565b6001600160a01b0381165f9081526101376020526040902061476390612598565b906001600160801b0361477d83516001600160801b031690565b16156148d7576106f26147b491614792613978565b61479b846132b4565b6001600160a01b03165f908152609c6020526040902090565b604051631331885160e31b8152602092916001600160a01b0384836004817f000000000000000000000000000000000000000000000000000000000000000085165afa9182156104e957614817869361482592614851965f926148bf57506133bf565b94516001600160801b031690565b6040516303d1689d60e11b81526001600160801b03909116600482015292839190829081906024820190565b03917f0000000000000000000000000000000000000000000000000000000000000000165afa9283156104e9575f936148a0575b50501061488e57565b604051633684c65960e01b8152600490fd5b6148b7929350803d106104e2576104d481836114f4565b905f80614885565b610864919250863d88116104e2576104d481836114f4565b5050565b7f00000000000000000000000000000000000000000000000000000000000000006001600160a01b0316803180614910575050565b813b15610310575f9160448392604051948593849263f3fef3a360e01b845230600485015260248401525af180156104e9576149495750565b611522906114a6565b9061495c82612e95565b61496960405191826114f4565b828152809261497a601f1991612e95565b0190602036910137565b906030116103105790603090565b906090116103105760300190606090565b9060b0116103105760900190602090565b90939293848311610310578411610310578101920390565b9015612f565790565b9190811015612f565760051b0190565b3590602081106149f3575090565b5f199060200360031b1b1690565b9695949061325c93614a22614a30926060979560808c5260808c0191612e75565b9089820360208b0152611efb565b918783036040890152612e75565b90602061098f928181520190612e5d565b91602061098f938181520191612e75565b5f198114611a175760010190565b3561098f81612642565b9293919091805193614a8a84866126be565b614a93876126b0565b03614ad557614aa186614952565b945f8094885f965f5b828110614b0d575050159150614ae790505750505003614ad557614ad1915f190190613002565b5190565b604051631a8a024960e11b8152600490fd5b919550929350159050614aff575050614ad190612ff5565b614b0992506149cc565b3590565b8a86861015614bc05750614b3f614b3a82614b31614b2a89614a60565b988c613002565b51955b876149d5565b614a6e565b15614ba5578a86861015614b845750614b7060019293614b68614b6188614a60565b978b613002565b515b90614d1d565b614b7a828d613002565b5201908a91614aaa565b92614b7090614b9f84614b9960019691614a60565b96613002565b51614b6a565b614b70600192936140f4614bb88c614a60565b9b8d8b6149d5565b91614b3a82614bd683614b99614b3f9591614a60565b5195614b34565b609a5480614bea57505f90565b609a5f527f44da158ba27f9252712a74ff6a55c5d531f69609f1f6e7f17c4443a8e2089be301546001600160a01b03166117e8565b6001600160601b0390818111614c33571690565b604490604051906306dfcc6560e41b8252606060048301526024820152fd5b90813b15614cd3575f80516020614ded83398151915280546001600160a01b0319166001600160a01b0384169081179091557fbc7cd75a20ee27fd9adebab32041f755214dbc6bffa90cc0225b39da2e5c2d3b5f80a2805115614cb85761287291614d3e565b505034614cc157565b60405163b398979f60e01b8152600490fd5b604051634c9c8ce360e01b81526001600160a01b0383166004820152602490fd5b604051600160f81b60208201525f60218201523060601b602c8201526020815261098f816114be565b81811015614d31575f5260205260405f2090565b905f5260205260405f2090565b5f8061098f93602081519101845af4614d55612f68565b91614d7b565b614d636144e0565b614d6957565b6040516389a1dc6360e01b8152600490fd5b90614d905750805115613db957805190602001fd5b81511580614dc3575b614da1575090565b604051639996b31560e01b81526001600160a01b039091166004820152602490fd5b50803b15614d9956fe44da158ba27f9252712a74ff6a55c5d531f69609f1f6e7f17c4443a8e2089be4360894a13ba1a3210667c828492db98dca3e2076cc3735a920a3ca505d382bbcf0c57e16840df040f15088dc2f81fe391c3923bec73e23a9662efc9c229c6a00a264697066735822122008c0a365c0eacebc60ec435e202f7516e2d88ee6141f2dc09523f89e64d7345864736f6c63430008160033",
  "linkReferences": {},
  "deployedLinkReferences": {}
}