{
  "_format": "hh-sol-artifact-1",
  "contractName": "EthGenesisVault",
  "sourceName": "contracts/vaults/ethereum/EthGenesisVault.sol",
  "abi": [
    {
      "inputs": [
        {
          "internalType": "address",
          "name": "_keeper",
          "type": "address"
        },
        {
          "internalType": "address",
          "name": "_vaultsRegistry",
          "type": "address"
        },
        {
          "internalType": "address",
          "name": "_validatorsRegistry",
          "type": "address"
        },
        {
          "internalType": "address",
          "name": "osTokenVaultController",
          "type": "address"
        },
        {
          "internalType": "address",
          "name": "osTokenConfig",
          "type": "address"
        },
        {
          "internalType": "address",
          "name": "sharedMevEscrow",
          "type": "address"
        },
        {
          "internalType": "address",
          "name": "depositDataRegistry",
          "type": "address"
        },
        {
          "internalType": "address",
          "name": "poolEscrow",
          "type": "address"
        },
        {
          "internalType": "address",
          "name": "rewardEthToken",
          "type": "address"
        },
        {
          "internalType": "uint256",
          "name": "exitingAssetsClaimDelay",
          "type": "uint256"
        }
      ],
      "stateMutability": "nonpayable",
      "type": "constructor"
    },
    {
      "inputs": [],
      "name": "AccessDenied",
      "type": "error"
    },
    {
      "inputs": [
        {
          "internalType": "address",
          "name": "target",
          "type": "address"
        }
      ],
      "name": "AddressEmptyCode",
      "type": "error"
    },
    {
      "inputs": [
        {
          "internalType": "address",
          "name": "account",
          "type": "address"
        }
      ],
      "name": "AddressInsufficientBalance",
      "type": "error"
    },
    {
      "inputs": [],
      "name": "CapacityExceeded",
      "type": "error"
    },
    {
      "inputs": [
        {
          "internalType": "address",
          "name": "implementation",
          "type": "address"
        }
      ],
      "name": "ERC1967InvalidImplementation",
      "type": "error"
    },
    {
      "inputs": [],
      "name": "ERC1967NonPayable",
      "type": "error"
    },
    {
      "inputs": [],
      "name": "ExitRequestNotProcessed",
      "type": "error"
    },
    {
      "inputs": [],
      "name": "FailedInnerCall",
      "type": "error"
    },
    {
      "inputs": [],
      "name": "InsufficientAssets",
      "type": "error"
    },
    {
      "inputs": [],
      "name": "InvalidAssets",
      "type": "error"
    },
    {
      "inputs": [],
      "name": "InvalidCapacity",
      "type": "error"
    },
    {
      "inputs": [],
      "name": "InvalidCheckpointIndex",
      "type": "error"
    },
    {
      "inputs": [],
      "name": "InvalidCheckpointValue",
      "type": "error"
    },
    {
      "inputs": [],
      "name": "InvalidFeePercent",
      "type": "error"
    },
    {
      "inputs": [],
      "name": "InvalidFeeRecipient",
      "type": "error"
    },
    {
      "inputs": [],
      "name": "InvalidHealthFactor",
      "type": "error"
    },
    {
      "inputs": [],
      "name": "InvalidInitialHarvest",
      "type": "error"
    },
    {
      "inputs": [],
      "name": "InvalidInitialization",
      "type": "error"
    },
    {
      "inputs": [],
      "name": "InvalidPosition",
      "type": "error"
    },
    {
      "inputs": [],
      "name": "InvalidReceivedAssets",
      "type": "error"
    },
    {
      "inputs": [],
      "name": "InvalidSecurityDeposit",
      "type": "error"
    },
    {
      "inputs": [],
      "name": "InvalidShares",
      "type": "error"
    },
    {
      "inputs": [],
      "name": "InvalidValidators",
      "type": "error"
    },
    {
      "inputs": [],
      "name": "LiquidationDisabled",
      "type": "error"
    },
    {
      "inputs": [],
      "name": "LowLtv",
      "type": "error"
    },
    {
      "inputs": [],
      "name": "MathOverflowedMulDiv",
      "type": "error"
    },
    {
      "inputs": [],
      "name": "NotCollateralized",
      "type": "error"
    },
    {
      "inputs": [],
      "name": "NotHarvested",
      "type": "error"
    },
    {
      "inputs": [],
      "name": "NotInitializing",
      "type": "error"
    },
    {
      "inputs": [],
      "name": "ReentrancyGuardReentrantCall",
      "type": "error"
    },
    {
      "inputs": [
        {
          "internalType": "uint8",
          "name": "bits",
          "type": "uint8"
        },
        {
          "internalType": "uint256",
          "name": "value",
          "type": "uint256"
        }
      ],
      "name": "SafeCastOverflowedUintDowncast",
      "type": "error"
    },
    {
      "inputs": [
        {
          "internalType": "uint256",
          "name": "value",
          "type": "uint256"
        }
      ],
      "name": "SafeCastOverflowedUintToInt",
      "type": "error"
    },
    {
      "inputs": [],
      "name": "UUPSUnauthorizedCallContext",
      "type": "error"
    },
    {
      "inputs": [
        {
          "internalType": "bytes32",
          "name": "slot",
          "type": "bytes32"
        }
      ],
      "name": "UUPSUnsupportedProxiableUUID",
      "type": "error"
    },
    {
      "inputs": [],
      "name": "UpgradeFailed",
      "type": "error"
    },
    {
      "inputs": [],
      "name": "ZeroAddress",
      "type": "error"
    },
    {
      "anonymous": false,
      "inputs": [
        {
          "indexed": false,
          "internalType": "uint256",
          "name": "shares",
          "type": "uint256"
        },
        {
          "indexed": false,
          "internalType": "uint256",
          "name": "assets",
          "type": "uint256"
        }
      ],
      "name": "CheckpointCreated",
      "type": "event"
    },
    {
      "anonymous": false,
      "inputs": [
        {
          "indexed": true,
          "internalType": "address",
          "name": "caller",
          "type": "address"
        },
        {
          "indexed": true,
          "internalType": "address",
          "name": "receiver",
          "type": "address"
        },
        {
          "indexed": false,
          "internalType": "uint256",
          "name": "assets",
          "type": "uint256"
        },
        {
          "indexed": false,
          "internalType": "uint256",
          "name": "shares",
          "type": "uint256"
        },
        {
          "indexed": false,
          "internalType": "address",
          "name": "referrer",
          "type": "address"
        }
      ],
      "name": "Deposited",
      "type": "event"
    },
    {
      "anonymous": false,
      "inputs": [
        {
          "indexed": true,
          "internalType": "address",
          "name": "owner",
          "type": "address"
        },
        {
          "indexed": true,
          "internalType": "address",
          "name": "receiver",
          "type": "address"
        },
        {
          "indexed": false,
          "internalType": "uint256",
          "name": "positionTicket",
          "type": "uint256"
        },
        {
          "indexed": false,
          "internalType": "uint256",
          "name": "shares",
          "type": "uint256"
        }
      ],
      "name": "ExitQueueEntered",
      "type": "event"
    },
    {
      "anonymous": false,
      "inputs": [
        {
          "indexed": true,
          "internalType": "address",
          "name": "receiver",
          "type": "address"
        },
        {
          "indexed": false,
          "internalType": "uint256",
          "name": "prevPositionTicket",
          "type": "uint256"
        },
        {
          "indexed": false,
          "internalType": "uint256",
          "name": "newPositionTicket",
          "type": "uint256"
        },
        {
          "indexed": false,
          "internalType": "uint256",
          "name": "withdrawnAssets",
          "type": "uint256"
        }
      ],
      "name": "ExitedAssetsClaimed",
      "type": "event"
    },
    {
      "anonymous": false,
      "inputs": [
        {
          "indexed": false,
          "internalType": "uint256",
          "name": "penalty",
          "type": "uint256"
        }
      ],
      "name": "ExitingAssetsPenalized",
      "type": "event"
    },
    {
      "anonymous": false,
      "inputs": [
        {
          "indexed": true,
          "internalType": "address",
          "name": "caller",
          "type": "address"
        },
        {
          "indexed": true,
          "internalType": "address",
          "name": "feeRecipient",
          "type": "address"
        }
      ],
      "name": "FeeRecipientUpdated",
      "type": "event"
    },
    {
      "anonymous": false,
      "inputs": [
        {
          "indexed": false,
          "internalType": "address",
          "name": "receiver",
          "type": "address"
        },
        {
          "indexed": false,
          "internalType": "uint256",
          "name": "shares",
          "type": "uint256"
        },
        {
          "indexed": false,
          "internalType": "uint256",
          "name": "assets",
          "type": "uint256"
        }
      ],
      "name": "FeeSharesMinted",
      "type": "event"
    },
    {
      "anonymous": false,
      "inputs": [
        {
          "indexed": false,
          "internalType": "address",
          "name": "admin",
          "type": "address"
        },
        {
          "indexed": false,
          "internalType": "uint256",
          "name": "capacity",
          "type": "uint256"
        },
        {
          "indexed": false,
          "internalType": "uint16",
          "name": "feePercent",
          "type": "uint16"
        },
        {
          "indexed": false,
          "internalType": "string",
          "name": "metadataIpfsHash",
          "type": "string"
        }
      ],
      "name": "GenesisVaultCreated",
      "type": "event"
    },
    {
      "anonymous": false,
      "inputs": [
        {
          "indexed": false,
          "internalType": "uint64",
          "name": "version",
          "type": "uint64"
        }
      ],
      "name": "Initialized",
      "type": "event"
    },
    {
      "anonymous": false,
      "inputs": [
        {
          "indexed": true,
          "internalType": "address",
          "name": "caller",
          "type": "address"
        },
        {
          "indexed": true,
          "internalType": "address",
          "name": "keysManager",
          "type": "address"
        }
      ],
      "name": "KeysManagerUpdated",
      "type": "event"
    },
    {
      "anonymous": false,
      "inputs": [
        {
          "indexed": true,
          "internalType": "address",
          "name": "caller",
          "type": "address"
        },
        {
          "indexed": false,
          "internalType": "string",
          "name": "metadataIpfsHash",
          "type": "string"
        }
      ],
      "name": "MetadataUpdated",
      "type": "event"
    },
    {
      "anonymous": false,
      "inputs": [
        {
          "indexed": false,
          "internalType": "address",
          "name": "receiver",
          "type": "address"
        },
        {
          "indexed": false,
          "internalType": "uint256",
          "name": "assets",
          "type": "uint256"
        },
        {
          "indexed": false,
          "internalType": "uint256",
          "name": "shares",
          "type": "uint256"
        }
      ],
      "name": "Migrated",
      "type": "event"
    },
    {
      "anonymous": false,
      "inputs": [
        {
          "indexed": true,
          "internalType": "address",
          "name": "caller",
          "type": "address"
        },
        {
          "indexed": false,
          "internalType": "uint256",
          "name": "assets",
          "type": "uint256"
        },
        {
          "indexed": false,
          "internalType": "uint256",
          "name": "shares",
          "type": "uint256"
        }
      ],
      "name": "OsTokenBurned",
      "type": "event"
    },
    {
      "anonymous": false,
      "inputs": [
        {
          "indexed": true,
          "internalType": "address",
          "name": "caller",
          "type": "address"
        },
        {
          "indexed": true,
          "internalType": "address",
          "name": "user",
          "type": "address"
        },
        {
          "indexed": false,
          "internalType": "address",
          "name": "receiver",
          "type": "address"
        },
        {
          "indexed": false,
          "internalType": "uint256",
          "name": "osTokenShares",
          "type": "uint256"
        },
        {
          "indexed": false,
          "internalType": "uint256",
          "name": "shares",
          "type": "uint256"
        },
        {
          "indexed": false,
          "internalType": "uint256",
          "name": "receivedAssets",
          "type": "uint256"
        }
      ],
      "name": "OsTokenLiquidated",
      "type": "event"
    },
    {
      "anonymous": false,
      "inputs": [
        {
          "indexed": true,
          "internalType": "address",
          "name": "caller",
          "type": "address"
        },
        {
          "indexed": false,
          "internalType": "address",
          "name": "receiver",
          "type": "address"
        },
        {
          "indexed": false,
          "internalType": "uint256",
          "name": "assets",
          "type": "uint256"
        },
        {
          "indexed": false,
          "internalType": "uint256",
          "name": "shares",
          "type": "uint256"
        },
        {
          "indexed": false,
          "internalType": "address",
          "name": "referrer",
          "type": "address"
        }
      ],
      "name": "OsTokenMinted",
      "type": "event"
    },
    {
      "anonymous": false,
      "inputs": [
        {
          "indexed": true,
          "internalType": "address",
          "name": "caller",
          "type": "address"
        },
        {
          "indexed": true,
          "internalType": "address",
          "name": "user",
          "type": "address"
        },
        {
          "indexed": false,
          "internalType": "address",
          "name": "receiver",
          "type": "address"
        },
        {
          "indexed": false,
          "internalType": "uint256",
          "name": "osTokenShares",
          "type": "uint256"
        },
        {
          "indexed": false,
          "internalType": "uint256",
          "name": "shares",
          "type": "uint256"
        },
        {
          "indexed": false,
          "internalType": "uint256",
          "name": "assets",
          "type": "uint256"
        }
      ],
      "name": "OsTokenRedeemed",
      "type": "event"
    },
    {
      "anonymous": false,
      "inputs": [
        {
          "indexed": true,
          "internalType": "address",
          "name": "owner",
          "type": "address"
        },
        {
          "indexed": true,
          "internalType": "address",
          "name": "receiver",
          "type": "address"
        },
        {
          "indexed": false,
          "internalType": "uint256",
          "name": "assets",
          "type": "uint256"
        },
        {
          "indexed": false,
          "internalType": "uint256",
          "name": "shares",
          "type": "uint256"
        }
      ],
      "name": "Redeemed",
      "type": "event"
    },
    {
      "anonymous": false,
      "inputs": [
        {
          "indexed": true,
          "internalType": "address",
          "name": "implementation",
          "type": "address"
        }
      ],
      "name": "Upgraded",
      "type": "event"
    },
    {
      "anonymous": false,
      "inputs": [
        {
          "indexed": true,
          "internalType": "address",
          "name": "owner",
          "type": "address"
        },
        {
          "indexed": true,
          "internalType": "address",
          "name": "receiver",
          "type": "address"
        },
        {
          "indexed": false,
          "internalType": "uint256",
          "name": "positionTicket",
          "type": "uint256"
        },
        {
          "indexed": false,
          "internalType": "uint256",
          "name": "shares",
          "type": "uint256"
        },
        {
          "indexed": false,
          "internalType": "uint256",
          "name": "assets",
          "type": "uint256"
        }
      ],
      "name": "V2ExitQueueEntered",
      "type": "event"
    },
    {
      "anonymous": false,
      "inputs": [
        {
          "indexed": false,
          "internalType": "bytes",
          "name": "publicKey",
          "type": "bytes"
        }
      ],
      "name": "ValidatorRegistered",
      "type": "event"
    },
    {
      "anonymous": false,
      "inputs": [
        {
          "indexed": true,
          "internalType": "address",
          "name": "caller",
          "type": "address"
        },
        {
          "indexed": true,
          "internalType": "address",
          "name": "validatorsManager",
          "type": "address"
        }
      ],
      "name": "ValidatorsManagerUpdated",
      "type": "event"
    },
    {
      "anonymous": false,
      "inputs": [
        {
          "indexed": true,
          "internalType": "address",
          "name": "caller",
          "type": "address"
        },
        {
          "indexed": true,
          "internalType": "bytes32",
          "name": "validatorsRoot",
          "type": "bytes32"
        }
      ],
      "name": "ValidatorsRootUpdated",
      "type": "event"
    },
    {
      "inputs": [],
      "name": "UPGRADE_INTERFACE_VERSION",
      "outputs": [
        {
          "internalType": "string",
          "name": "",
          "type": "string"
        }
      ],
      "stateMutability": "view",
      "type": "function"
    },
    {
      "inputs": [],
      "name": "acceptPoolEscrowOwnership",
      "outputs": [],
      "stateMutability": "nonpayable",
      "type": "function"
    },
    {
      "inputs": [],
      "name": "admin",
      "outputs": [
        {
          "internalType": "address",
          "name": "",
          "type": "address"
        }
      ],
      "stateMutability": "view",
      "type": "function"
    },
    {
      "inputs": [
        {
          "internalType": "uint128",
          "name": "osTokenShares",
          "type": "uint128"
        }
      ],
      "name": "burnOsToken",
      "outputs": [
        {
          "internalType": "uint256",
          "name": "assets",
          "type": "uint256"
        }
      ],
      "stateMutability": "nonpayable",
      "type": "function"
    },
    {
      "inputs": [
        {
          "internalType": "address",
          "name": "receiver",
          "type": "address"
        },
        {
          "internalType": "uint256",
          "name": "positionTicket",
          "type": "uint256"
        },
        {
          "internalType": "uint256",
          "name": "timestamp",
          "type": "uint256"
        },
        {
          "internalType": "uint256",
          "name": "exitQueueIndex",
          "type": "uint256"
        }
      ],
      "name": "calculateExitedAssets",
      "outputs": [
        {
          "internalType": "uint256",
          "name": "leftTickets",
          "type": "uint256"
        },
        {
          "internalType": "uint256",
          "name": "exitedTickets",
          "type": "uint256"
        },
        {
          "internalType": "uint256",
          "name": "exitedAssets",
          "type": "uint256"
        }
      ],
      "stateMutability": "view",
      "type": "function"
    },
    {
      "inputs": [],
      "name": "capacity",
      "outputs": [
        {
          "internalType": "uint256",
          "name": "",
          "type": "uint256"
        }
      ],
      "stateMutability": "view",
      "type": "function"
    },
    {
      "inputs": [
        {
          "internalType": "uint256",
          "name": "positionTicket",
          "type": "uint256"
        },
        {
          "internalType": "uint256",
          "name": "timestamp",
          "type": "uint256"
        },
        {
          "internalType": "uint256",
          "name": "exitQueueIndex",
          "type": "uint256"
        }
      ],
      "name": "claimExitedAssets",
      "outputs": [],
      "stateMutability": "nonpayable",
      "type": "function"
    },
    {
      "inputs": [
        {
          "internalType": "uint256",
          "name": "shares",
          "type": "uint256"
        }
      ],
      "name": "convertToAssets",
      "outputs": [
        {
          "internalType": "uint256",
          "name": "assets",
          "type": "uint256"
        }
      ],
      "stateMutability": "view",
      "type": "function"
    },
    {
      "inputs": [
        {
          "internalType": "uint256",
          "name": "assets",
          "type": "uint256"
        }
      ],
      "name": "convertToShares",
      "outputs": [
        {
          "internalType": "uint256",
          "name": "shares",
          "type": "uint256"
        }
      ],
      "stateMutability": "view",
      "type": "function"
    },
    {
      "inputs": [
        {
          "internalType": "address",
          "name": "receiver",
          "type": "address"
        },
        {
          "internalType": "address",
          "name": "referrer",
          "type": "address"
        }
      ],
      "name": "deposit",
      "outputs": [
        {
          "internalType": "uint256",
          "name": "shares",
          "type": "uint256"
        }
      ],
      "stateMutability": "payable",
      "type": "function"
    },
    {
      "inputs": [
        {
          "internalType": "address",
          "name": "receiver",
          "type": "address"
        },
        {
          "internalType": "uint256",
          "name": "osTokenShares",
          "type": "uint256"
        },
        {
          "internalType": "address",
          "name": "referrer",
          "type": "address"
        }
      ],
      "name": "depositAndMintOsToken",
      "outputs": [
        {
          "internalType": "uint256",
          "name": "",
          "type": "uint256"
        }
      ],
      "stateMutability": "payable",
      "type": "function"
    },
    {
      "inputs": [
        {
          "internalType": "uint256",
          "name": "shares",
          "type": "uint256"
        },
        {
          "internalType": "address",
          "name": "receiver",
          "type": "address"
        }
      ],
      "name": "enterExitQueue",
      "outputs": [
        {
          "internalType": "uint256",
          "name": "positionTicket",
          "type": "uint256"
        }
      ],
      "stateMutability": "nonpayable",
      "type": "function"
    },
    {
      "inputs": [],
      "name": "feePercent",
      "outputs": [
        {
          "internalType": "uint16",
          "name": "",
          "type": "uint16"
        }
      ],
      "stateMutability": "view",
      "type": "function"
    },
    {
      "inputs": [],
      "name": "feeRecipient",
      "outputs": [
        {
          "internalType": "address",
          "name": "",
          "type": "address"
        }
      ],
      "stateMutability": "view",
      "type": "function"
    },
    {
      "inputs": [
        {
          "internalType": "uint256",
          "name": "positionTicket",
          "type": "uint256"
        }
      ],
      "name": "getExitQueueIndex",
      "outputs": [
        {
          "internalType": "int256",
          "name": "",
          "type": "int256"
        }
      ],
      "stateMutability": "view",
      "type": "function"
    },
    {
      "inputs": [
        {
          "internalType": "address",
          "name": "account",
          "type": "address"
        }
      ],
      "name": "getShares",
      "outputs": [
        {
          "internalType": "uint256",
          "name": "",
          "type": "uint256"
        }
      ],
      "stateMutability": "view",
      "type": "function"
    },
    {
      "inputs": [],
      "name": "implementation",
      "outputs": [
        {
          "internalType": "address",
          "name": "",
          "type": "address"
        }
      ],
      "stateMutability": "view",
      "type": "function"
    },
    {
      "inputs": [
        {
          "internalType": "bytes",
          "name": "params",
          "type": "bytes"
        }
      ],
      "name": "initialize",
      "outputs": [],
      "stateMutability": "payable",
      "type": "function"
    },
    {
      "inputs": [],
      "name": "isStateUpdateRequired",
      "outputs": [
        {
          "internalType": "bool",
          "name": "",
          "type": "bool"
        }
      ],
      "stateMutability": "view",
      "type": "function"
    },
    {
      "inputs": [
        {
          "internalType": "uint256",
          "name": "osTokenShares",
          "type": "uint256"
        },
        {
          "internalType": "address",
          "name": "owner",
          "type": "address"
        },
        {
          "internalType": "address",
          "name": "receiver",
          "type": "address"
        }
      ],
      "name": "liquidateOsToken",
      "outputs": [],
      "stateMutability": "nonpayable",
      "type": "function"
    },
    {
      "inputs": [],
      "name": "mevEscrow",
      "outputs": [
        {
          "internalType": "address",
          "name": "",
          "type": "address"
        }
      ],
      "stateMutability": "view",
      "type": "function"
    },
    {
      "inputs": [
        {
          "internalType": "address",
          "name": "receiver",
          "type": "address"
        },
        {
          "internalType": "uint256",
          "name": "assets",
          "type": "uint256"
        }
      ],
      "name": "migrate",
      "outputs": [
        {
          "internalType": "uint256",
          "name": "shares",
          "type": "uint256"
        }
      ],
      "stateMutability": "nonpayable",
      "type": "function"
    },
    {
      "inputs": [
        {
          "internalType": "address",
          "name": "receiver",
          "type": "address"
        },
        {
          "internalType": "uint256",
          "name": "osTokenShares",
          "type": "uint256"
        },
        {
          "internalType": "address",
          "name": "referrer",
          "type": "address"
        }
      ],
      "name": "mintOsToken",
      "outputs": [
        {
          "internalType": "uint256",
          "name": "assets",
          "type": "uint256"
        }
      ],
      "stateMutability": "nonpayable",
      "type": "function"
    },
    {
      "inputs": [
        {
          "internalType": "bytes[]",
          "name": "data",
          "type": "bytes[]"
        }
      ],
      "name": "multicall",
      "outputs": [
        {
          "internalType": "bytes[]",
          "name": "results",
          "type": "bytes[]"
        }
      ],
      "stateMutability": "nonpayable",
      "type": "function"
    },
    {
      "inputs": [
        {
          "internalType": "address",
          "name": "user",
          "type": "address"
        }
      ],
      "name": "osTokenPositions",
      "outputs": [
        {
          "internalType": "uint128",
          "name": "shares",
          "type": "uint128"
        }
      ],
      "stateMutability": "view",
      "type": "function"
    },
    {
      "inputs": [],
      "name": "proxiableUUID",
      "outputs": [
        {
          "internalType": "bytes32",
          "name": "",
          "type": "bytes32"
        }
      ],
      "stateMutability": "view",
      "type": "function"
    },
    {
      "inputs": [],
      "name": "queuedShares",
      "outputs": [
        {
          "internalType": "uint128",
          "name": "",
          "type": "uint128"
        }
      ],
      "stateMutability": "view",
      "type": "function"
    },
    {
      "inputs": [],
      "name": "receiveFromMevEscrow",
      "outputs": [],
      "stateMutability": "payable",
      "type": "function"
    },
    {
      "inputs": [
        {
          "internalType": "uint256",
          "name": "osTokenShares",
          "type": "uint256"
        },
        {
          "internalType": "address",
          "name": "owner",
          "type": "address"
        },
        {
          "internalType": "address",
          "name": "receiver",
          "type": "address"
        }
      ],
      "name": "redeemOsToken",
      "outputs": [],
      "stateMutability": "nonpayable",
      "type": "function"
    },
    {
      "inputs": [
        {
          "components": [
            {
              "internalType": "bytes32",
              "name": "validatorsRegistryRoot",
              "type": "bytes32"
            },
            {
              "internalType": "uint256",
              "name": "deadline",
              "type": "uint256"
            },
            {
              "internalType": "bytes",
              "name": "validators",
              "type": "bytes"
            },
            {
              "internalType": "bytes",
              "name": "signatures",
              "type": "bytes"
            },
            {
              "internalType": "string",
              "name": "exitSignaturesIpfsHash",
              "type": "string"
            }
          ],
          "internalType": "struct IKeeperValidators.ApprovalParams",
          "name": "keeperParams",
          "type": "tuple"
        },
        {
          "internalType": "bytes",
          "name": "validatorsManagerSignature",
          "type": "bytes"
        }
      ],
      "name": "registerValidators",
      "outputs": [],
      "stateMutability": "nonpayable",
      "type": "function"
    },
    {
      "inputs": [
        {
          "internalType": "address",
          "name": "_feeRecipient",
          "type": "address"
        }
      ],
      "name": "setFeeRecipient",
      "outputs": [],
      "stateMutability": "nonpayable",
      "type": "function"
    },
    {
      "inputs": [
        {
          "internalType": "string",
          "name": "metadataIpfsHash",
          "type": "string"
        }
      ],
      "name": "setMetadata",
      "outputs": [],
      "stateMutability": "nonpayable",
      "type": "function"
    },
    {
      "inputs": [
        {
          "internalType": "address",
          "name": "validatorsManager_",
          "type": "address"
        }
      ],
      "name": "setValidatorsManager",
      "outputs": [],
      "stateMutability": "nonpayable",
      "type": "function"
    },
    {
      "inputs": [],
      "name": "totalAssets",
      "outputs": [
        {
          "internalType": "uint256",
          "name": "",
          "type": "uint256"
        }
      ],
      "stateMutability": "view",
      "type": "function"
    },
    {
      "inputs": [],
      "name": "totalExitingAssets",
      "outputs": [
        {
          "internalType": "uint128",
          "name": "",
          "type": "uint128"
        }
      ],
      "stateMutability": "view",
      "type": "function"
    },
    {
      "inputs": [],
      "name": "totalShares",
      "outputs": [
        {
          "internalType": "uint256",
          "name": "",
          "type": "uint256"
        }
      ],
      "stateMutability": "view",
      "type": "function"
    },
    {
      "inputs": [
        {
          "components": [
            {
              "internalType": "bytes32",
              "name": "rewardsRoot",
              "type": "bytes32"
            },
            {
              "internalType": "int160",
              "name": "reward",
              "type": "int160"
            },
            {
              "internalType": "uint160",
              "name": "unlockedMevReward",
              "type": "uint160"
            },
            {
              "internalType": "bytes32[]",
              "name": "proof",
              "type": "bytes32[]"
            }
          ],
          "internalType": "struct IKeeperRewards.HarvestParams",
          "name": "harvestParams",
          "type": "tuple"
        }
      ],
      "name": "updateState",
      "outputs": [],
      "stateMutability": "nonpayable",
      "type": "function"
    },
    {
      "inputs": [
        {
          "internalType": "address",
          "name": "receiver",
          "type": "address"
        },
        {
          "internalType": "address",
          "name": "referrer",
          "type": "address"
        },
        {
          "components": [
            {
              "internalType": "bytes32",
              "name": "rewardsRoot",
              "type": "bytes32"
            },
            {
              "internalType": "int160",
              "name": "reward",
              "type": "int160"
            },
            {
              "internalType": "uint160",
              "name": "unlockedMevReward",
              "type": "uint160"
            },
            {
              "internalType": "bytes32[]",
              "name": "proof",
              "type": "bytes32[]"
            }
          ],
          "internalType": "struct IKeeperRewards.HarvestParams",
          "name": "harvestParams",
          "type": "tuple"
        }
      ],
      "name": "updateStateAndDeposit",
      "outputs": [
        {
          "internalType": "uint256",
          "name": "shares",
          "type": "uint256"
        }
      ],
      "stateMutability": "payable",
      "type": "function"
    },
    {
      "inputs": [
        {
          "internalType": "address",
          "name": "receiver",
          "type": "address"
        },
        {
          "internalType": "uint256",
          "name": "osTokenShares",
          "type": "uint256"
        },
        {
          "internalType": "address",
          "name": "referrer",
          "type": "address"
        },
        {
          "components": [
            {
              "internalType": "bytes32",
              "name": "rewardsRoot",
              "type": "bytes32"
            },
            {
              "internalType": "int160",
              "name": "reward",
              "type": "int160"
            },
            {
              "internalType": "uint160",
              "name": "unlockedMevReward",
              "type": "uint160"
            },
            {
              "internalType": "bytes32[]",
              "name": "proof",
              "type": "bytes32[]"
            }
          ],
          "internalType": "struct IKeeperRewards.HarvestParams",
          "name": "harvestParams",
          "type": "tuple"
        }
      ],
      "name": "updateStateAndDepositAndMintOsToken",
      "outputs": [
        {
          "internalType": "uint256",
          "name": "",
          "type": "uint256"
        }
      ],
      "stateMutability": "payable",
      "type": "function"
    },
    {
      "inputs": [
        {
          "internalType": "address",
          "name": "newImplementation",
          "type": "address"
        },
        {
          "internalType": "bytes",
          "name": "data",
          "type": "bytes"
        }
      ],
      "name": "upgradeToAndCall",
      "outputs": [],
      "stateMutability": "payable",
      "type": "function"
    },
    {
      "inputs": [],
      "name": "validatorsManager",
      "outputs": [
        {
          "internalType": "address",
          "name": "",
          "type": "address"
        }
      ],
      "stateMutability": "view",
      "type": "function"
    },
    {
      "inputs": [],
      "name": "vaultId",
      "outputs": [
        {
          "internalType": "bytes32",
          "name": "",
          "type": "bytes32"
        }
      ],
      "stateMutability": "pure",
      "type": "function"
    },
    {
      "inputs": [],
      "name": "version",
      "outputs": [
        {
          "internalType": "uint8",
          "name": "",
          "type": "uint8"
        }
      ],
      "stateMutability": "pure",
      "type": "function"
    },
    {
      "inputs": [],
      "name": "withdrawableAssets",
      "outputs": [
        {
          "internalType": "uint256",
          "name": "",
          "type": "uint256"
        }
      ],
      "stateMutability": "view",
      "type": "function"
    },
    {
      "stateMutability": "payable",
      "type": "receive"
    }
  ],
  "bytecode": "0x61020034620002ce57620053db601f38829003908101601f19168301906001600160401b039081831185841017620002d2578085946040948552853961014094859181010312620002ce576200005583620002e6565b906200006460208501620002e6565b9262000072818601620002e6565b956200008160608701620002e6565b906200009060808801620002e6565b926200009f60a08901620002e6565b94620000ae60c08a01620002e6565b96620000bd60e08b01620002e6565b976101009b620000cf8d8d01620002e6565b9a610120809d01519360805260a05260c0523060e0528b52468a52835260018060a01b0390816101609516855281610180961686526101a09687527ff0c57e16840df040f15088dc2f81fe391c3923bec73e23a9662efc9c229c6a009081549060ff82861c16620002bd57808083160362000278575b505050806101c0971687526101e09716875251966150df9889620002fc8a396080518981816113be01528181611556015281816120f4015281816130970152818161356801526135f4015260a05189611111015260c0518981816140ea0152614213015260e0518981816112910152613c120152518881816127460152612cff01525187613f2e015251866116fc0152518581816103f7015281816106fd015281816122f701528181612d720152818161378a01526138260152518481816107bc01528181610d7f0152818161370e01526138e501525183818161255b01526130df01525182818161064b01528181611e09015281816121d0015281816124e201528181612d230152818161341e01528181613c7a0152614cf6015251818181611d020152818161216d01526132390152f35b6001600160401b0319909116811790915582519081527fc7f505b2f371ae2175ee4913f4499e1f2633a7b5936321eed1cdaeb6115181d290602090a15f808062000145565b845163f92ee8a960e01b8152600490fd5b5f80fd5b634e487b7160e01b5f52604160045260245ffd5b51906001600160a01b0382168203620002ce5756fe60806040526004361015610022575b3615610018575f80fd5b610020612d21565b005b5f3560e01c806301d523b6146102e157806301e1d114146102dc578063066055e0146102d757806307a2d13a146102d257806318f72950146102cd5780631a7ff553146102c8578063201b9eb5146102c357806323d18ed8146102be5780632999ad3f146102b95780632cdf7401146102b45780633229fa95146102af57806333194c0a146102aa57806336fe59d2146102a55780633a98ef39146102a0578063439fab911461029b57806343e82a791461029657806346904840146102915780634ec96b221461028c5780634f1ef2861461028757806352d1902d1461028257806353156f281461027d57806354fd4d50146102785780635c60da1b146102735780635cfc1a511461026e57806360d60e6e1461026957806372b410a814610264578063754c38881461025f57806376b58b901461025a5780637fd6f15c1461025557806383d430d5146102505780638697d2c21461024b5780638ceab9aa14610246578063a49a1e7d14610241578063ac9650d81461023c578063ad3cb1cc14610237578063ad68ebf714610232578063b1f0e7c71461022d578063c6e6f59214610228578063d83ad00c14610223578063e74b981b1461021e578063ee3bd5df14610219578063f04da65b14610214578063f851a4401461020f5763f9609f080361000e57611f77565b611f50565b611f15565b611eef565b611ec2565b611e9c565b611e7e565b611e64565b611cd6565b611c91565b611c1b565b611b20565b611937565b6116d0565b611500565b6114dc565b61148b565b611420565b611393565b611375565b61135b565b611327565b61130c565b6112e8565b61127f565b610ff9565b610e85565b610e5d565b610d50565b610c8a565b610c09565b610bf5565b610bbb565b610b8f565b610b75565b6106d3565b610630565b610617565b6105b8565b610564565b610546565b6103a7565b610376565b610309565b6001600160a01b038116036102f757565b5f80fd5b908160809103126102f75790565b60803660031901126102f757600435610321816102e6565b60443561032d816102e6565b606435906001600160401b0382116102f75760209261035b6103566103649436906004016102fb565b6120cd565b6024359061257d565b604051908152f35b5f9103126102f757565b346102f7575f3660031901126102f757602060985460801c604051908152f35b6001600160801b038116036102f757565b346102f75760203660031901126102f7576004356103c481610396565b604051633b9e9f0160e21b81523360048201526001600160801b03821660248201526020816044815f6001600160a01b037f0000000000000000000000000000000000000000000000000000000000000000165af1908115610541575f91610512575b50335f9081526101376020526040902061044090611fbb565b916001600160801b0361045a84516001600160801b031690565b1615610500576104ae836104706104fc95612d5d565b61049a61048d8461048884516001600160801b031690565b611ff4565b6001600160801b03168252565b335f90815261013760205260409020612012565b604080518381526001600160801b0392909216602083015233917f3f7354ba02880b4fa37a629985852a38417ff369369ce1e52fa6f8342a9100a79190a26040519081529081906020820190565b0390f35b60405163673f032f60e11b8152600490fd5b610534915060203d60201161053a575b61052c8183610f78565b810190611fa1565b5f610427565b503d610522565b611fb0565b346102f75760203660031901126102f7576020610364600435612044565b60603660031901126102f75760043561057c816102e6565b602435610588816102e6565b604435906001600160401b0382116102f7576020926105b16103566103649436906004016102fb565b34906145ed565b346102f75760203660031901126102f7576004356001600160401b0381116102f7576103566100209136906004016102fb565b60609060031901126102f757600435610603816102e6565b9060243590604435610614816102e6565b90565b346102f757602061036461062a366105eb565b916122be565b346102f7575f806003193601126102f7576106496137f5565b7f00000000000000000000000000000000000000000000000000000000000000006001600160a01b0316803b156102f7575f809160046040518094819363b4b6d74f60e01b83525af18015610541576106a0575080f35b6100209150610f0f565b60609060031901126102f757600435906024356106c6816102e6565b90604435610614816102e6565b346102f7576106e1366106aa565b906001600160a01b0380831615610b63576106fa6135d9565b807f00000000000000000000000000000000000000000000000000000000000000001691823b156102f75760408051631d8557d760e01b815260049491905f81878183875af1801561054157610b4a575b506001600160a01b0383165f9081526101376020526040902061076d90611fbb565b6001600160801b03928361078883516001600160801b031690565b1615610b3a5761079782612d5d565b825163e48a5f7b60e01b8152308882019081529097906060908990819060200103818a7f0000000000000000000000000000000000000000000000000000000000000000165afa978815610541575f98610b09575b50602097888101956001600160401b039182806108108a516001600160401b031690565b1614610af957908c92918751918c838061083c6303d1689d60e11b988983528a83019190602083019252565b03818a5afa91821561054157610868938e5f94610ad4575b5050516001600160801b03165b1690612e12565b9661088c6108868a60018060a01b03165f52609c60205260405f2090565b54612044565b928389118015610ac4575b610ab457908b6108d593926108b389516001600160801b031690565b908a51958692839283528983019190916001600160801b036020820193169052565b0381895afa91821561054157670de0b6b3a764000094610924948e5f95610a87575b505061091661090861091c92612ae3565b93516001600160401b031690565b93612ae3565b921690612f00565b1015610a79578351633b9e9f0160e21b815233918101918252602082018b905294939291889186919082905f90829060400103925af1908115610541577f61fd285f9e34a3dbfa9846bdcf22a023e37a3c93549902843b30dd74a18c535097610a56956109ce93610a5b575b50506109b161048d6109a18c613664565b83516001600160801b0316611ff4565b6001600160a01b0386165f90815261013760205260409020612012565b6109d782614434565b90610a156109fa6109e785613664565b60985460801c036001600160801b031690565b6001600160801b036098549181199060801b16911617609855565b610a1f8286614968565b610a298389614318565b51948594169733978590949392606092608083019660018060a01b03168352602083015260408201520152565b0390a3005b81610a7192903d1061053a5761052c8183610f78565b505f80610990565b835163185cfc6d60e11b8152fd5b61091c929550610aaa610916928261090893903d1061053a5761052c8183610f78565b959250508e6108f7565b875163efda1a2760e01b81528590fd5b50610acd6124e0565b8911610897565b6108619294509081610af192903d1061053a5761052c8183610f78565b92908e610854565b8651630709133160e01b81528490fd5b610b2c91985060603d606011610b33575b610b248183610f78565b8101906136ab565b965f6107ec565b503d610b1a565b825163673f032f60e11b81528790fd5b80610b57610b5d92610f0f565b8061036c565b5f61074b565b60405163d92e233d60e01b8152600490fd5b346102f7575f3660031901126102f75760206103646124e0565b346102f7575f3660031901126102f7576020610ba9612542565b6040516001600160a01b039091168152f35b346102f7575f3660031901126102f75760206040517f11a6b7bef0f97d298d56e5af2aa94330353808e861cbac86172faad21b10c5058152f35b6020610364610c03366105eb565b9161257d565b346102f7575f3660031901126102f75760206001600160801b0360985416604051908152f35b9181601f840112156102f7578235916001600160401b0383116102f757602083818601950101116102f757565b60206003198201126102f757600435906001600160401b0382116102f757610c8691600401610c2f565b9091565b610c9336610c5c565b907ff0c57e16840df040f15088dc2f81fe391c3923bec73e23a9662efc9c229c6a009182549160ff8360401c168015610d3c575b610d2a5768010000000000000002610ced9368ffffffffffffffffff1916178455612676565b68ff00000000000000001981541690557fc7f505b2f371ae2175ee4913f4499e1f2633a7b5936321eed1cdaeb6115181d2602060405160028152a1005b60405163f92ee8a960e01b8152600490fd5b5060026001600160401b0384161015610cc7565b346102f757610d5e366106aa565b60405163057453a760e31b81529091906001600160a01b03906020816004817f000000000000000000000000000000000000000000000000000000000000000086165afa80156105415782915f91610e2e575b50163303610e1c5781610a56610de986867f57f5eb636bf62215c111b54545422f11dfb0cb115f606be905f0be08e8859dd396613808565b604080516001600160a01b0390981688526020880198909852968601526060850195909552169233929081906080820190565b604051634ca8886760e01b8152600490fd5b610e50915060203d602011610e56575b610e488183610f78565b8101906120b8565b5f610db1565b503d610e3e565b346102f7575f3660031901126102f7576065546040516001600160a01b039091168152602090f35b346102f75760203660031901126102f757600435610ea2816102e6565b60018060a01b03165f52610137602052602060405f2060405190610ec582610f27565b54906001600160801b03918281169081835260801c84830152610eed575b5116604051908152f35b610ef681612d5d565b610ee3565b634e487b7160e01b5f52604160045260245ffd5b6001600160401b038111610f2257604052565b610efb565b604081019081106001600160401b03821117610f2257604052565b606081019081106001600160401b03821117610f2257604052565b608081019081106001600160401b03821117610f2257604052565b90601f801991011681019081106001600160401b03821117610f2257604052565b60405190610fa682610f27565b565b6001600160401b038111610f2257601f01601f191660200190565b929192610fcf82610fa8565b91610fdd6040519384610f78565b8294818452818301116102f7578281602093845f960137010152565b6040806003193601126102f7576004908135611014816102e6565b6024356001600160401b0381116102f757366023820112156102f7576110439036906024818701359101610fc3565b9161104c613c08565b8051926110838461107560209363439fab9160e01b858401528460248401526044830190611b93565b03601f198101865285610f78565b61108b613c08565b6110936137f5565b6001600160a01b0383811680159291908790841561124a575b84156111dc575b8415611178575b505082156110e2575b50506110d3576100208383614ac9565b516355299b4960e01b81528390fd5b83516345da87c560e01b81526001600160a01b03861688820190815292935091839183918290819060200103917f0000000000000000000000000000000000000000000000000000000000000000165afa918215610541575f9261114b575b5050155f806110c3565b61116a9250803d10611171575b6111628183610f78565b810190612077565b5f80611141565b503d611158565b855163054fd4d560e41b81529294508391839182905afa9081156105415760039160ff915f916111af575b5016141591865f6110ba565b6111cf9150843d86116111d5575b6111c78183610f78565b810190614ab0565b5f6111a3565b503d6111bd565b935050835163198ca60560e11b815282818981875afa9081156105415788917f11a6b7bef0f97d298d56e5af2aa94330353808e861cbac86172faad21b10c505915f9161122d575b501415936110b3565b6112449150853d871161053a5761052c8183610f78565b5f611224565b5f8051602061508a833981519152549094508490611278906001600160a01b03165b6001600160a01b031690565b14936110ac565b346102f7575f3660031901126102f7577f00000000000000000000000000000000000000000000000000000000000000006001600160a01b031630036112d65760206040515f8051602061508a8339815191528152f35b60405163703e46dd60e11b8152600490fd5b5f3660031901126102f7576001600160a01b03611303612542565b163303610e1c57005b346102f7575f3660031901126102f757602060405160028152f35b346102f7575f3660031901126102f7575f8051602061508a833981519152546040516001600160a01b039091168152602090f35b346102f7575f3660031901126102f75760206103646127f4565b346102f75760203660031901126102f757602061036460043561280f565b346102f7575f3660031901126102f757604051633eb1acf760e11b81523060048201526020816024817f00000000000000000000000000000000000000000000000000000000000000006001600160a01b03165afa8015610541576020915f91611403575b506040519015158152f35b61141a9150823d8411611171576111628183610f78565b5f6113f8565b346102f75760203660031901126102f75760043561143d816102e6565b6114456137f5565b60d280546001600160a01b0319166001600160a01b03929092169182179055337f6bdc78d8c88160b3fc3638e67f2afe523b3f4c7d00c56ebb6216790e4c3eb2cb5f80a3005b346102f75760803660031901126102f7576104fc6114bf6004356114ae816102e6565b6064359060443590602435906128db565b604080519384526020840192909252908201529081906060820190565b346102f7575f3660031901126102f757602061ffff60655460a01c16604051908152f35b346102f7576003196040368201126102f75760049081356001600160401b038082116102f75760a08285019383360301126102f7576024359081116102f75761154c9036908501610c2f565b6001600160a01b037f00000000000000000000000000000000000000000000000000000000000000008116803b156102f75760405163837d444160e01b8152905f90829081838161159f8c828f016129f7565b03925af18015610541576116bd575b506115b76135d9565b6115bf612ceb565b908116331415918261168e575b5050905061167d576044019160b06115e48484612a75565b90500480158015611665575b611655576116056115ff6124e0565b91612aca565b11611646575060b06116178383612a75565b9050145f14611633576100209161162d91612a75565b906141fd565b6100209161164091612a75565b906140cb565b6040516396d8043360e01b8152fd5b50604051631c6c4cf360e31b8152fd5b506116708484612a75565b905060b0820214156115f0565b604051634ca8886760e01b81528390fd5b6116b192506116ab6116b5946116a388613f28565b923691610fc3565b91614002565b1590565b805f806115cc565b80610b576116ca92610f0f565b5f6115ae565b346102f75760603660031901126102f7576004356024356116f56044358284336128db565b91926117217f000000000000000000000000000000000000000000000000000000000000000082612802565b4210801561192f575b8015611927575b611915577feb3b05c070c24f667611fdb3ff75fe007d42401c573aed8d8faca95fd00ccb56936117818661177c6117706099546001600160801b031690565b6001600160801b031690565b613c61565b15611883576117bb6117a061179586613664565b60995460801c611ff4565b6001600160801b036099549181199060801b16911617609955565b60408051336020820190815291810184905260608082018990528152601f1993915f916117ff91906117ee608082610f78565b5190205f52609b60205260405f2090565b555f9360018311611838575b505050506118198233614318565b604080519485526020850191909152830152339180606081015b0390a2005b611879929394506118499088612802565b60408051336020820190815291810193909352606083018290526080958601835290949091906117ee9082610f78565b555f80808061180b565b61188b6135d9565b6118c76118ab61189a86613664565b609e546001600160801b0316611ff4565b6001600160801b03166001600160801b0319609e541617609e55565b6118fc6118e16118d685613664565b609e5460801c611ff4565b6001600160801b03609e549181199060801b16911617609e55565b61191061190b84609f54612802565b609f55565b6117bb565b604051630e3d8e8d60e11b8152600490fd5b508215611731565b50811561172a565b346102f7576040806003193601126102f75760243590600435611959836102e6565b6119616135d9565b8015611b0f576001600160a01b038316908115611afe5761198181612044565b908115611aed5761199182614bb6565b61199a83613664565b60985460801c906119aa91611ff4565b6119c9906001600160801b036098549181199060801b16911617609855565b6119d38233614968565b609e54958660801c8281609f54906119ea91612802565b986119f487613664565b611a06916001600160801b03166122a3565b611a26906001600160801b03166001600160801b0319609e541617609e55565b611a2f91612802565b611a3890613664565b611a57906001600160801b03609e549181199060801b16911617609e55565b85516001600160a01b0391909116602082019081524260408301526060808301899052825290611a88608082610f78565b519020611a9d905f52609b60205260405f2090565b5583518581526020810191909152604081019190915233907f869f12645d154414259c47bcb998b6b6983fae50e5e0c6053bc87d4330db9f2d90606090a3611ae433614e33565b51908152602090f35b83516318374fd160e21b8152600490fd5b825163d92e233d60e01b8152600490fd5b8151636edcc52360e01b8152600490fd5b346102f7576118337f2013570c343af8ab14a9778150e381a0fda34ed6368127a95fd5e7210cbec5bf611b5236610c5c565b9290611b5c6137f5565b60405191829160208352339560208401916129d7565b5f5b838110611b835750505f910152565b8181015183820152602001611b74565b90602091611bac81518092818552858086019101611b72565b601f01601f1916010190565b6020808201906020835283518092526040830192602060408460051b8301019501935f915b848310611bed5750505050505090565b9091929394958480611c0b600193603f198682030187528a51611b93565b9801930193019194939290611bdd565b346102f75760203660031901126102f7576001600160401b036004358181116102f757366023820112156102f75780600401359182116102f7573660248360051b830101116102f7576104fc916024611c749201612c3e565b60405191829182611bb8565b906020610614928181520190611b93565b346102f7575f3660031901126102f7576104fc604051611cb081610f27565b60058152640352e302e360dc1b6020820152604051918291602083526020830190611b93565b346102f7576040806003193601126102f757600435611cf4816102e6565b6024356001600160a01b03337f0000000000000000000000000000000000000000000000000000000000000000821614801590611df4575b611de357611d3861354d565b611d406135d9565b821615611afe578015611dd257917fd083678824038160bef3975359ab29f19c3f0e9bcf9d7ead540a492d4d678b6383611d7c6104fc95614434565b93611d976109fa611d8c84613664565b60985460801c6122a3565b611da185826143e8565b83516001600160a01b03919091168152602081019190915260408101849052606090a1519081529081906020820190565b82516318374fd160e21b8152600490fd5b8351634ca8886760e01b8152600490fd5b508351638da5cb5b60e01b81526020816004817f000000000000000000000000000000000000000000000000000000000000000086165afa908115610541575f91611e45575b508116301415611d2c565b611e5e915060203d602011610e5657610e488183610f78565b5f611e3a565b346102f7575f3660031901126102f7576020610ba9612ceb565b346102f75760203660031901126102f7576020610364600435614434565b346102f7575f3660031901126102f75760206001600160801b0360995416604051908152f35b346102f75760203660031901126102f757610020600435611ee2816102e6565b611eea6137f5565b6144c3565b346102f7575f3660031901126102f75760206001600160801b03609e5416604051908152f35b346102f75760203660031901126102f757600435611f32816102e6565b60018060a01b03165f52609c602052602060405f2054604051908152f35b346102f7575f3660031901126102f7575f546040516001600160a01b039091168152602090f35b60403660031901126102f7576020610364600435611f94816102e6565b602435906105b1826102e6565b908160209103126102f7575190565b6040513d5f823e3d90fd5b90604051611fc881610f27565b91546001600160801b038116835260801c6020830152565b634e487b7160e01b5f52601160045260245ffd5b6001600160801b03918216908216039190821161200d57565b611fe0565b815160209092015160801b6fffffffffffffffffffffffffffffffff19166001600160801b0392909216919091179055565b6098546001600160801b038116908161205c57505090565b916106149260801c90612f00565b519081151582036102f757565b908160209103126102f7576106149061206a565b908160209103126102f7575161061481610396565b81810392915f13801582851316918412161761200d57565b908160209103126102f75751610614816102e6565b604051630156a69560e11b81523060048201526020916001600160a01b03919083826024817f000000000000000000000000000000000000000000000000000000000000000087165afa918215610541575f92612280575b5061212f90613066565b9390809215612156575b50506121459150613225565b61214b57565b6121536133fd565b50565b60405163070aab0d60e11b815291925082826004817f000000000000000000000000000000000000000000000000000000000000000088165afa8015610541576001600160801b036121b4916121ba945f91612253575b50166131ec565b906120a0565b91604051638da5cb5b60e01b81528281600481857f0000000000000000000000000000000000000000000000000000000000000000165afa928315610541575f93612234575b505016301480159061222b575b61221957805f80612139565b60405163c284f82560e01b8152600490fd5b505f811261220d565b61224b929350803d10610e5657610e488183610f78565b905f80612200565b6122739150863d8811612279575b61226b8183610f78565b81019061208b565b5f6121ad565b503d612261565b61212f91925061229c90853d8711611171576111628183610f78565b9190612125565b9190916001600160801b038080941691160191821161200d57565b9092916122c961354d565b6122d16135d9565b6040516329460cc560e11b81526001600160a01b038381166004830152602482018690527f0000000000000000000000000000000000000000000000000000000000000000169490602080826044815f8b5af1918215610541575f926124c1575b50335f908152610137602052604090209196879261234f90611fbb565b916001600160801b0361236984516001600160801b031690565b161561245d57505061237a81612d5d565b61239961048d61238985613664565b83516001600160801b03166122a3565b335f908152609c602052604090206123b9906123b490610886565b6136eb565b6123cd61177083516001600160801b031690565b1161244b57335f908152610137602052604090207fa16d97739893e1436c9753925fb5cef174c4f368699dc86cc8fdb0e6e60f8e58946124469290916124139190612012565b604080516001600160a01b0397881681526020810194909452830193909352939091166060820152339281906080820190565b0390a2565b604051633684c65960e01b8152600490fd5b806004926040519384809263752a536d60e01b82525afa9182156105415761249f92612490915f916124a4575b50613664565b6001600160801b031690830152565b61237a565b6124bb9150833d851161053a5761052c8183610f78565b5f61248a565b816124d99293503d841161053a5761052c8183610f78565b905f612332565b7f00000000000000000000000000000000000000000000000000000000000000006001600160a01b03163147016099546001600160801b03612523818316612044565b90609e5416019060801c01908181115f1461253c570390565b50505f90565b61016a546001600160a01b031680156125585790565b507f000000000000000000000000000000000000000000000000000000000000000090565b916125898134336145ed565b505f1982146125a2575b8161259e92936122be565b5090565b61259e91506125b0346136eb565b9150612593565b9190916040818403126102f75780356125cf816102e6565b9260208201356001600160401b03928382116102f75701916060838303126102f757604051926125fe84610f42565b80358452602081013561ffff811681036102f757602085015260408101359182116102f757019080601f830112156102f75781602061263f93359101610fc3565b604082015290565b90610614949360809361ffff9260018060a01b0316845260208401521660408201528160608201520190611b93565b5f546001600160a01b03929083166126ef57816126b7917f6efc3c5ea2064c46840711aa5ff8d7f70826faa0cc04fcf0557a3863533aafad949301906125b7565b91166126c38282613b21565b6126ea82519260406126da602083015161ffff1690565b9101519060405194859485612647565b0390a1565b50506126f96149b5565b6127016149b5565b612709614b74565b6001600160801b0360995416810180911161200d57609f556127296149b5565b612739612734614bed565b60d355565b60d05460d15460d25490927f000000000000000000000000000000000000000000000000000000000000000016906001600160a01b031690803b156102f7576040516376615a5560e01b8152600481019390935260248301939093526001600160a01b03166044820152905f908290606490829084905af18015610541576127e1575b506127c65f60d055565b6127cf5f60d155565b60d280546001600160a01b0319169055565b80610b576127ee92610f0f565b5f6127bc565b609d548061061457505f1990565b9190820180921161200d57565b6001600160801b0360995416612823614b74565b90810180911161200d57811061285657612847609f54612841613c78565b90612802565b1115612851575f90565b5f1990565b609a90609a549182915f905b84821061287c575050508110156128765790565b505f1990565b909193808316906001818518811c830180931161200d575f8790525f8051602061506a8339815191528301546001600160a01b03168410156128c3575050935b9190612862565b9095910192506128bc565b9190820391821161200d57565b604080516001600160a01b0390921660208301908152908201939093526060810182905290919061291981608081015b03601f198101835282610f78565b5190205f52609b60205260405f2054918215612983576001600160801b036099541690612944614b74565b91820180921161200d578391831015612971579161296192613d8d565b90915b82810390811161200d5792565b509061297c91613d0d565b9091612964565b5050505f905f905f90565b9035601e19823603018112156102f75701602081359101916001600160401b0382116102f75781360383136102f757565b90603060609281835260208301375f60508201520190565b908060209392818452848401375f828201840152601f01601f1916010190565b9060a061061492602081528235602082015260208301356040820152612a33612a23604085018561298e565b84606085015260c08401916129d7565b90612a66612a5b612a47606087018761298e565b601f198587038101608087015295916129d7565b94608081019061298e565b939092828603019101526129d7565b903590601e19813603018212156102f757018035906001600160401b0382116102f7576020019181360383136102f757565b634e487b7160e01b5f52601260045260245ffd5b8115612ac5570490565b612aa7565b906801bc16d674ec800000918083029283040361200d57565b90670de0b6b3a76400009182810292818404149015171561200d57565b6001600160401b038111610f225760051b60200190565b90612b2182612b00565b612b2e6040519182610f78565b8281528092612b3f601f1991612b00565b01905f5b828110612b4f57505050565b806060602080938501015201612b43565b634e487b7160e01b5f52603260045260245ffd5b90821015612b8b57610c869160051b810190612a75565b612b60565b908092918237015f815290565b3d15612bc7573d90612bae82610fa8565b91612bbc6040519384610f78565b82523d5f602084013e565b606090565b6020818303126102f7578051906001600160401b0382116102f7570181601f820112156102f7578051612bfe81610fa8565b92612c0c6040519485610f78565b818452602082840101116102f7576106149160208085019101611b72565b8051821015612b8b5760209160051b010190565b919091612c4a83612b17565b925f5b818110612c5957505050565b5f80612c66838587612b74565b60409391612c78855180938193612b90565b0390305af490612c86612b9d565b9115612cad575090600191612c9b8288612c2a565b52612ca68187612c2a565b5001612c4d565b9060448151106102f757612ce7612cd260049283810151602480918301019101612bcc565b925162461bcd60e51b81529283928301611c80565b0390fd5b60d2546001600160a01b03168061061457507f000000000000000000000000000000000000000000000000000000000000000090565b7f00000000000000000000000000000000000000000000000000000000000000006001600160a01b03163303612d5357565b6121533433614525565b60405163752a536d60e01b81526020816004817f00000000000000000000000000000000000000000000000000000000000000006001600160a01b03165afa908115610541575f91612df3575b5060208201916001600160801b03918284511691828214612dec5783612ddf612dda612de7958584865116612f00565b613664565b169052613664565b169052565b5050505050565b612e0c915060203d60201161053a5761052c8183610f78565b5f612daa565b90808202905f1981840990828083109203918083039214612e8757670de0b6b3a76400009082821115612e75577faccb18165bd6fe31ae1cf318dc5b51eee0e1ba569b88cd74c1773b91fac10669940990828211900360ee1b910360121c170290565b60405163227bc15360e01b8152600490fd5b5050670de0b6b3a764000091500490565b90808202905f1981840990828083109203918083039214612ef5576127109082821115612e75577fbc01a36e2eb1c432ca57a786c226809d495182a9930be0ded288ce703afb7e91940990828211900360fc1b910360041c170290565b505061271091500490565b9091828202915f1984820993838086109503948086039514612f735784831115612e7557829109815f038216809204600280826003021880830282030280830282030280830282030280830282030280830282030280920290030293600183805f03040190848311900302920304170290565b5050906106149250612abb565b908160609103126102f75780519161061460406020840151930161206a565b81835290916001600160fb1b0383116102f75760209260051b809284830137010190565b90602082528035602083015260208101358060130b8091036102f75760408301526040810135612ff2816102e6565b6001600160a01b031660608381019190915281013536829003601e19018112156102f75701602081359101906001600160401b0381116102f7578060051b360382136102f75760a0836080806106149601520191612f9f565b9190915f838201938412911290801582169115161761200d57565b6040516325f56f1160e01b81526001600160a01b039291606090829081906130919060048301612fc3565b03815f877f0000000000000000000000000000000000000000000000000000000000000000165af1928315610541575f915f905f956131b7575b50841561316457816130db612542565b16917f000000000000000000000000000000000000000000000000000000000000000016821461315d57509060205f92600460405180958193634641257d60e01b83525af190811561054157613138925f9261313c575b5061304b565b9190565b61315691925060203d60201161053a5761052c8183610f78565b905f613132565b908161316a575b50509190565b803b156102f757604051636ee3193160e11b815260048101929092525f908290602490829084905af18015610541576131a4575b80613164565b80610b576131b192610f0f565b5f61319e565b919450506131dd915060603d6060116131e5575b6131d58183610f78565b810190612f80565b93905f6130cb565b503d6131cb565b6001600160ff1b0381116131fd5790565b6024906040519063123baf0360e11b82526004820152fd5b600160ff1b811461200d575f0390565b8015612153576040516278744560e21b81527f00000000000000000000000000000000000000000000000000000000000000006001600160a01b031691906020908181600481875afa908115610541575f916133e0575b50604051631cd5ec3960e31b8152908282600481885afa918215610541576132ac935f936133c1575b50506128ce565b80156133b6576132ca816132c561177060985460801c90565b612802565b905f831215613352576132ee916132e9916132e485613215565b612f00565b6131ec565b6132f781613215565b92803b156102f75760405163304f0a6b60e21b815260048101949094525f908490602490829084905af191821561054157610fa69361333a9361333f575061304b565b614699565b80610b5761334c92610f0f565b5f613132565b613360916132e99184612f00565b823b156102f75760405163304f0a6b60e21b815260048101829052925f908490602490829084905af191821561054157610fa69361333a936133a3575b506120a0565b80610b576133b092610f0f565b5f61339d565b50610fa69150614699565b6133d8929350803d1061053a5761052c8183610f78565b905f806132a5565b6133f79150823d841161053a5761052c8183610f78565b5f61327c565b609954906001600160801b0382169182156135475760801c61345d61344e827f00000000000000000000000000000000000000000000000000000000000000006001600160a01b03163147016128ce565b61345785612044565b90614823565b9081156135405761346d82614434565b93841561353857826134b56117a0612dda610fa6966109fa966132c5613499612dda8d61352d9a6128ce565b6001600160801b03166001600160801b03196099541617609955565b6134bf8187614893565b60408051878152602081018390527f624ea167e477f9d39f7f4094b9dfe2e6346eb4a7aada54338db51abd554c4b9f9190a1612dda61351161350088613664565b6098546001600160801b0316611ff4565b6001600160801b03166001600160801b03196098541617609855565b60985460801c611ff4565b505f93505050565b505f925050565b505f9150565b604051630156a69560e11b81523060048201526020816024817f00000000000000000000000000000000000000000000000000000000000000006001600160a01b03165afa908115610541575f916135ba575b50156135a857565b604051630a62fbdb60e11b8152600490fd5b6135d3915060203d602011611171576111628183610f78565b5f6135a0565b604051633eb1acf760e11b81523060048201526020816024817f00000000000000000000000000000000000000000000000000000000000000006001600160a01b03165afa908115610541575f91613645575b5061363357565b60405163e775715160e01b8152600490fd5b61365e915060203d602011611171576111628183610f78565b5f61362c565b6001600160801b0390818111613678571690565b604490604051906306dfcc6560e41b8252608060048301526024820152fd5b51906001600160401b03821682036102f757565b908160609103126102f75761263f60408051926136c784610f42565b80516136d281610396565b84526136e060208201613697565b602085015201613697565b60405163e48a5f7b60e01b81523060048201526001600160a01b036060826024817f000000000000000000000000000000000000000000000000000000000000000085165afa801561054157613786936001600160401b036108616040613765946020975f916137d6575b5001516001600160401b031690565b9060405180809581946363737ac960e11b8352600483019190602083019252565b03917f0000000000000000000000000000000000000000000000000000000000000000165afa908115610541575f916137bd575090565b610614915060203d60201161053a5761052c8183610f78565b6137ef915060603d606011610b3357610b248183610f78565b5f613756565b5f546001600160a01b03163303610e1c57565b92906001600160a01b039081811615610b63576138236135d9565b817f00000000000000000000000000000000000000000000000000000000000000001690813b156102f757604094855193631d8557d760e01b85526004945f81878183895af1801561054157613b0e575b506001600160a01b0388165f9081526101376020526040902061389690611fbb565b906001600160801b036138b083516001600160801b031690565b1615613afe576138bf82612d5d565b875163e48a5f7b60e01b81523087820190815290916060918391908290819060200103917f0000000000000000000000000000000000000000000000000000000000000000165afa801561054157613adf575b508651936303d1689d60e11b97888652602091828780613939888c83019190602083019252565b0381845afa968715610541575f97613ac0575b50869961396c6108868d60018060a01b03165f52609c60205260405f2090565b88118015613ab0575b613aa05790836139b29261399087516001600160801b031690565b908551948592839283528d83019190916001600160801b036020820193169052565b0381845afa988915610541575f859488946139f79c613a83575b5051633b9e9f0160e21b815233928101928352602083019490945292998a9384929091839160400190565b03925af1958615610541576109a1613a3e94613a219361048d93610fa69a613a65575b5050613664565b6001600160a01b0388165f90815261013760205260409020612012565b613a60613a4a83614434565b8097613a5b6109fa6109e787613664565b614968565b614318565b81613a7b92903d1061053a5761052c8183610f78565b505f80613a1a565b613a9990873d891161053a5761052c8183610f78565b505f6139cc565b825163efda1a2760e01b81528990fd5b50613ab96124e0565b8811613975565b613ad8919750833d851161053a5761052c8183610f78565b955f61394c565b613af79060603d606011610b3357610b248183610f78565b505f613912565b875163673f032f60e11b81528690fd5b80610b57613b1b92610f0f565b5f613874565b90613b2a6149b5565b6040810151613b376149b5565b6001600160a01b0383168015610b63576001600160601b0360a01b5f5416175f557f2013570c343af8ab14a9778150e381a0fda34ed6368127a95fd5e7210cbec5bf6040516020815280613b9033946020830190611b93565b0390a26020810151613ba06149b5565b61271061ffff821611613bf657613bb9613bde936144c3565b6065805461ffff60a01b191660a09290921b61ffff60a01b16919091179055516149f6565b613be6614a26565b613bee6149b5565b610fa6614a4d565b604051638a81d3b360e01b8152600490fd5b6001600160a01b037f00000000000000000000000000000000000000000000000000000000000000008116308114918215613c46575b50506112d657565b5f8051602061508a8339815191525416141590505f80613c3e565b90613c6a614b74565b91820180921161200d571090565b7f00000000000000000000000000000000000000000000000000000000000000006001600160a01b03163147016099548060801c820391821161200d5781613cc96001600160801b03809316612044565b9081613cef575b5050811561253c5761061491613cea91609e541690614823565b614bb6565b9192509081811115613d0557035b905f80613cd0565b50505f613cfd565b613d15613c78565b91609f5492830180931161200d5780831115613d5f57613d36920390614823565b90609e548060801c80155f14613d4c5750508190565b6001600160801b03610614921684612f00565b5050505f905f90565b90604051613d7581610f27565b91546001600160a01b038116835260a01c6020830152565b609a545f948594939091808410801590613f20575b613f135783613edd575f5b609a5f526001600160a01b0316613dd25f8051602061506a8339815191528601613d68565b8051909790613de9906001600160a01b031661126c565b98613e0e613e026020809b01516001600160601b031690565b6001600160601b031690565b948381108015613ed3575b613ec15791600193979a95613e38613e44939488035b838c0390614823565b80920198870391612f00565b01970193808611801590613eb7575b613eac57609a5f528290613e755f8051602061506a8339815191528701613d68565b805190890151969992966001600160a01b039091169460019392613e449290916001600160601b0390911690613e38908803613e2f565b945050509250509190565b5081851015613e53565b60405163e8722f8f60e01b8152600490fd5b50808b1115613e19565b609a5f527f44da158ba27f9252712a74ff6a55c5d531f69609f1f6e7f17c4443a8e2089be38401546001600160a01b0316613dad565b505093505050505f905f90565b508415613da2565b604290467f000000000000000000000000000000000000000000000000000000000000000003613fd65760d354905b613f6e613f676040830183612a75565b3691610fc3565b602081519101206040519060208201927f838af86bfca91ada6557e38d913af1c2f24ef9b2567b3b77cc9e1144314b35b08452356040830152606082015260608152613fb981610f5d565b5190206040519161190160f01b8352600283015260228201522090565b613fde614bed565b90613f57565b60041115613fee57565b634e487b7160e01b5f52602160045260245ffd5b61400c8383614cba565b5061401981959295613fe4565b1593846140b5575b50831561402f575b50505090565b5f9293509082916040516140678161290b6020820194630b135d3f60e11b998a87526024840152604060448401526064830190611b93565b51915afa90614074612b9d565b826140a7575b8261408a575b50505f8080614029565b61409f91925060208082518301019101611fa1565b145f80614080565b91506020825110159161407a565b6001600160a01b0383811691161493505f614021565b906140d4614cf4565b5f905f60b09360b08304936140e7614fd7565b957f00000000000000000000000000000000000000000000000000000000000000006001600160a01b0316935f92905b87841061412957505050505050505050565b82614138910180928887614d9b565b906141438282614d6b565b9161416261415c6141548684614d79565b969093614d8a565b90614db3565b90893b156102f7575f908d61418f604094855198899485946304512a2360e31b86528a8a60048801614dcf565b03816801bc16d674ec8000008d5af1908115610541577f64b6e61d93b7a91e8cc4376183ede0997a27b44fd9dd2f30a866b2a5730efdb1946141db926141ea575b505192839283614e22565b0390a160018193019290614117565b80610b576141f792610f0f565b5f6141d0565b614205614cf4565b816030116102f75761415c917f00000000000000000000000000000000000000000000000000000000000000006001600160a01b0316614243614fd7565b9061425a6142518486614d79565b96909486614d8a565b94813b156102f7576801bc16d674ec8000005f946142c097604051988996879586946304512a2360e31b8652608060048701526142b161429e8d60848901906129bf565b60031994858983030160248a0152611b93565b928684030160448701526129d7565b90606483015203925af1908115610541577f64b6e61d93b7a91e8cc4376183ede0997a27b44fd9dd2f30a866b2a5730efdb1926126ea92614309575b5060405191829182614e11565b61431290610f0f565b5f6142fc565b4782116143db575b7f9b779b17422d0df92223018b32b4d1fa46e071723d6817e2486d003becc55f0060028154146143c957600290558147106143b1575f918291829182916001600160a01b03165af1614370612b9d565b501561439f57610fa660017f9b779b17422d0df92223018b32b4d1fa46e071723d6817e2486d003becc55f0055565b604051630a12f52160e11b8152600490fd5b60405163cd78605960e01b8152306004820152602490fd5b604051633ee5aeb560e01b8152600490fd5b6143e3614cf4565b614320565b6143f182613664565b609854906144096001600160801b03918284166122a3565b16906001600160801b0319161760985560018060a01b03165f52609c60205260405f20908154019055565b609854906001600160801b03821681158015614463575b156144565750905090565b6106149260801c91612f00565b50801561444b565b6098546001600160801b03811690821580156144bb575b1561448c57505090565b60801c9061449b828285612f00565b928215612ac557096144aa5790565b600181018091111561061457611fe0565b508115614482565b6144cb6135d9565b6001600160a01b0316801561451357606580546001600160a01b03191682179055337faaebcf1bfa00580e41d966056b48521fa9f202645c86d4ddf28113e617c1b1d35f80a3565b604051630ed1b8b360e31b8152600490fd5b919061452f6135d9565b6001600160a01b038316908115610b635780156145db578061455661177060985460801c90565b01936145606127f4565b85116145c9576109fa946145879161458261457a8561446b565b978893613664565b6143e8565b60408051918252602082018590525f9082015233907f861a4138e41fb21c121a7dbb1053df465c837fc77380cc7226189a662281be2c9080606081015b0390a3565b6040516304ffa0ff60e51b8152600490fd5b6040516318374fd160e21b8152600490fd5b909291926145f96135d9565b6001600160a01b038216918215610b635781156145db578161462061177060985460801c90565b016146296127f4565b81116145c9576109fa956146706145c4927f861a4138e41fb21c121a7dbb1053df465c837fc77380cc7226189a662281be2c946145826146688861446b565b9a8b93613664565b60408051948552602085018890526001600160a01b039091169084015233929081906060820190565b8015612153576146ae61177060985460801c90565b5f821261478057816146bf91612802565b906146cc6109fa83613664565b6146e16065549161ffff8360a01c1690612e98565b801561477b57807f555ee6b2ef9506d870f386c067e47d3689435330b012ad263d8cc353186865479361471f6117706098546001600160801b031690565b806147655750506126ea90925b6001600160a01b03169161474084846143e8565b60405193849384604091949392606082019560018060a01b0316825260208201520152565b6126ea9261477592039084612f00565b9261472c565b505050565b9061478a90613215565b61479f611770609e546001600160801b031690565b806147bf575b50806147af575050565b612dda6109fa91610fa6936128ce565b9061481a7f3623a54e8078be0d90ecfbef82da6a31ff3e6be8aa1718e7a7f3d0d33ff1d32a9161480a6118ab6147ff6147f88888612802565b8785612f00565b808094039603613664565b6040519081529081906020820190565b0390a15f6147a5565b9080821015614830575090565b905090565b609a549068010000000000000000821015610f22576001820180609a55821015612b8b57609a5f52805160209091015160a01b6001600160a01b0319166001600160a01b0391909116175f8051602061506a83398151915290910155565b91909180158015614960575b61494e576148ab614b74565b90810180911161200d576001600160a01b0380821161492e576001600160601b039081851161490e5790610fa693946148f8614909936148e9610f99565b95166001600160a01b03168552565b166001600160601b03166020830152565b614835565b6040516306dfcc6560e41b81526060600482015260248101869052604490fd5b6040516306dfcc6560e41b815260a0600482015260248101839052604490fd5b604051632ec8835b60e21b8152600490fd5b50821561489f565b60018060a01b03165f52609c60205260405f2090815481810390811161200d576149929255613664565b609854906001600160801b03908183160316906001600160801b03191617609855565b60ff7ff0c57e16840df040f15088dc2f81fe391c3923bec73e23a9662efc9c229c6a005460401c16156149e457565b604051631afcd79f60e31b8152600490fd5b6149fe6149b5565b8015614a145760018101614a0f5750565b609d55565b6040516331278a8760e01b8152600490fd5b614a2e6149b5565b6801bc16d674ec800000614a406127f4565b10614a1457612734614bed565b614a556149b5565b614a5d6149b5565b614a656149b5565b60017f9b779b17422d0df92223018b32b4d1fa46e071723d6817e2486d003becc55f0055633b9aca003410614a9e576121533430614525565b60405163ea2559bb60e01b8152600490fd5b908160209103126102f7575160ff811681036102f75790565b6040516352d1902d60e01b81529290916020846004816001600160a01b0387165afa5f9481614b53575b50614b1957604051634c9c8ce360e01b81526001600160a01b0384166004820152602490fd5b90915f8051602061508a8339815191528403614b3a57610fa6929350614eb3565b604051632a87526960e21b815260048101859052602490fd5b614b6d91955060203d60201161053a5761052c8183610f78565b935f614af3565b609a5480614b8157505f90565b609a5f527f44da158ba27f9252712a74ff6a55c5d531f69609f1f6e7f17c4443a8e2089be301546001600160a01b031661126c565b609e54908160801c81158015614be5575b15614bd25750905090565b6001600160801b03610614931691612f00565b508015614bc7565b6e5661756c7456616c696461746f727360881b6020604051614c0e81610f27565b600f8152015260405160208101907f8b73c3c69bb8fe3d512ecc4cf759cc79239f7b179b0ffacaa9a75d522b39400f82527f35d6cf9768d8be929c3a11ed667b1560ae6f1920195a985758fdd7265505d1ca60408201527fc89efdaa54c0f20c7adf612882df0950f5a951637e0307cdcb4c672f298b8bc660608201524660808201523060a082015260a0815260c081018181106001600160401b03821117610f225760405251902090565b8151919060418303614cea57614ce39250602082015190606060408401519301515f1a90614f55565b9192909190565b50505f9160029190565b7f00000000000000000000000000000000000000000000000000000000000000006001600160a01b0316803180614d29575050565b813b156102f7575f9160448392604051948593849263f3fef3a360e01b845230600485015260248401525af1801561054157614d625750565b610fa690610f0f565b906030116102f75790603090565b906090116102f75760300190606090565b9060b0116102f75760900190602090565b909392938483116102f75784116102f7578101920390565b359060208110614dc1575090565b5f199060200360031b1b1690565b96959490614e0c93614df0614dfe926060979560808c5260808c01916129d7565b9089820360208b0152611b93565b9187830360408901526129d7565b930152565b9060206106149281815201906129bf565b9160206106149381815201916129d7565b60018060a01b0381165f5261013760205260405f209060405191614e5683610f27565b54906001600160801b03918281169081855260801c60208501521561477b576123b4610886614ea992614e876135d9565b614e9086612d5d565b6001600160a01b03165f908152609c6020526040902090565b9151161161244b57565b90813b15614f34575f8051602061508a83398151915280546001600160a01b0319166001600160a01b0384169081179091557fbc7cd75a20ee27fd9adebab32041f755214dbc6bffa90cc0225b39da2e5c2d3b5f80a2805115614f195761215391615000565b505034614f2257565b60405163b398979f60e01b8152600490fd5b604051634c9c8ce360e01b81526001600160a01b0383166004820152602490fd5b91907f7fffffffffffffffffffffffffffffff5d576e7357a4501ddfe92f46681b20a08411614fcc579160209360809260ff5f9560405194855216868401526040830152606082015282805260015afa15610541575f516001600160a01b03811615614fc257905f905f90565b505f906001905f90565b5050505f9160039190565b604051600160f81b60208201525f60218201523060601b602c8201526020815261061481610f27565b5f8061061493602081519101845af4615017612b9d565b919061502d575080511561439f57805190602001fd5b81511580615060575b61503e575090565b604051639996b31560e01b81526001600160a01b039091166004820152602490fd5b50803b1561503656fe44da158ba27f9252712a74ff6a55c5d531f69609f1f6e7f17c4443a8e2089be4360894a13ba1a3210667c828492db98dca3e2076cc3735a920a3ca505d382bbca26469706673582212209cd81ab756c322f4d891d4f589e42b36394a09b7bcea5970c620cd1502ad6da664736f6c63430008160033",
  "linkReferences": {},
  "deployedLinkReferences": {}
}