{
  "_format": "hh-sol-artifact-1",
  "contractName": "EthPrivVault",
  "sourceName": "contracts/vaults/ethereum/EthPrivVault.sol",
  "abi": [
    {
      "inputs": [
        {
          "internalType": "address",
          "name": "_keeper",
          "type": "address"
        },
        {
          "internalType": "address",
          "name": "_vaultsRegistry",
          "type": "address"
        },
        {
          "internalType": "address",
          "name": "_validatorsRegistry",
          "type": "address"
        },
        {
          "internalType": "address",
          "name": "osTokenVaultController",
          "type": "address"
        },
        {
          "internalType": "address",
          "name": "osTokenConfig",
          "type": "address"
        },
        {
          "internalType": "address",
          "name": "sharedMevEscrow",
          "type": "address"
        },
        {
          "internalType": "uint256",
          "name": "exitingAssetsClaimDelay",
          "type": "uint256"
        }
      ],
      "stateMutability": "nonpayable",
      "type": "constructor"
    },
    {
      "inputs": [],
      "name": "AccessDenied",
      "type": "error"
    },
    {
      "inputs": [
        {
          "internalType": "address",
          "name": "target",
          "type": "address"
        }
      ],
      "name": "AddressEmptyCode",
      "type": "error"
    },
    {
      "inputs": [
        {
          "internalType": "address",
          "name": "account",
          "type": "address"
        }
      ],
      "name": "AddressInsufficientBalance",
      "type": "error"
    },
    {
      "inputs": [],
      "name": "CapacityExceeded",
      "type": "error"
    },
    {
      "inputs": [],
      "name": "ClaimTooEarly",
      "type": "error"
    },
    {
      "inputs": [],
      "name": "Collateralized",
      "type": "error"
    },
    {
      "inputs": [
        {
          "internalType": "address",
          "name": "implementation",
          "type": "address"
        }
      ],
      "name": "ERC1967InvalidImplementation",
      "type": "error"
    },
    {
      "inputs": [],
      "name": "ERC1967NonPayable",
      "type": "error"
    },
    {
      "inputs": [],
      "name": "FailedInnerCall",
      "type": "error"
    },
    {
      "inputs": [],
      "name": "InsufficientAssets",
      "type": "error"
    },
    {
      "inputs": [],
      "name": "InvalidAssets",
      "type": "error"
    },
    {
      "inputs": [],
      "name": "InvalidCapacity",
      "type": "error"
    },
    {
      "inputs": [],
      "name": "InvalidCheckpointIndex",
      "type": "error"
    },
    {
      "inputs": [],
      "name": "InvalidCheckpointValue",
      "type": "error"
    },
    {
      "inputs": [],
      "name": "InvalidFeePercent",
      "type": "error"
    },
    {
      "inputs": [],
      "name": "InvalidFeeRecipient",
      "type": "error"
    },
    {
      "inputs": [],
      "name": "InvalidHealthFactor",
      "type": "error"
    },
    {
      "inputs": [],
      "name": "InvalidInitialization",
      "type": "error"
    },
    {
      "inputs": [],
      "name": "InvalidLtv",
      "type": "error"
    },
    {
      "inputs": [],
      "name": "InvalidPosition",
      "type": "error"
    },
    {
      "inputs": [],
      "name": "InvalidProof",
      "type": "error"
    },
    {
      "inputs": [],
      "name": "InvalidReceivedAssets",
      "type": "error"
    },
    {
      "inputs": [],
      "name": "InvalidSecurityDeposit",
      "type": "error"
    },
    {
      "inputs": [],
      "name": "InvalidShares",
      "type": "error"
    },
    {
      "inputs": [],
      "name": "InvalidValidator",
      "type": "error"
    },
    {
      "inputs": [],
      "name": "InvalidValidators",
      "type": "error"
    },
    {
      "inputs": [],
      "name": "LowLtv",
      "type": "error"
    },
    {
      "inputs": [],
      "name": "MathOverflowedMulDiv",
      "type": "error"
    },
    {
      "inputs": [],
      "name": "MerkleProofInvalidMultiproof",
      "type": "error"
    },
    {
      "inputs": [],
      "name": "NotCollateralized",
      "type": "error"
    },
    {
      "inputs": [],
      "name": "NotHarvested",
      "type": "error"
    },
    {
      "inputs": [],
      "name": "NotInitializing",
      "type": "error"
    },
    {
      "inputs": [],
      "name": "RedemptionExceeded",
      "type": "error"
    },
    {
      "inputs": [],
      "name": "ReentrancyGuardReentrantCall",
      "type": "error"
    },
    {
      "inputs": [
        {
          "internalType": "uint8",
          "name": "bits",
          "type": "uint8"
        },
        {
          "internalType": "uint256",
          "name": "value",
          "type": "uint256"
        }
      ],
      "name": "SafeCastOverflowedUintDowncast",
      "type": "error"
    },
    {
      "inputs": [],
      "name": "UUPSUnauthorizedCallContext",
      "type": "error"
    },
    {
      "inputs": [
        {
          "internalType": "bytes32",
          "name": "slot",
          "type": "bytes32"
        }
      ],
      "name": "UUPSUnsupportedProxiableUUID",
      "type": "error"
    },
    {
      "inputs": [],
      "name": "UpgradeFailed",
      "type": "error"
    },
    {
      "inputs": [],
      "name": "WhitelistAlreadyUpdated",
      "type": "error"
    },
    {
      "inputs": [],
      "name": "ZeroAddress",
      "type": "error"
    },
    {
      "anonymous": false,
      "inputs": [
        {
          "indexed": false,
          "internalType": "uint256",
          "name": "shares",
          "type": "uint256"
        },
        {
          "indexed": false,
          "internalType": "uint256",
          "name": "assets",
          "type": "uint256"
        }
      ],
      "name": "CheckpointCreated",
      "type": "event"
    },
    {
      "anonymous": false,
      "inputs": [
        {
          "indexed": true,
          "internalType": "address",
          "name": "caller",
          "type": "address"
        },
        {
          "indexed": true,
          "internalType": "address",
          "name": "receiver",
          "type": "address"
        },
        {
          "indexed": false,
          "internalType": "uint256",
          "name": "assets",
          "type": "uint256"
        },
        {
          "indexed": false,
          "internalType": "uint256",
          "name": "shares",
          "type": "uint256"
        },
        {
          "indexed": false,
          "internalType": "address",
          "name": "referrer",
          "type": "address"
        }
      ],
      "name": "Deposited",
      "type": "event"
    },
    {
      "anonymous": false,
      "inputs": [
        {
          "indexed": true,
          "internalType": "address",
          "name": "owner",
          "type": "address"
        },
        {
          "indexed": true,
          "internalType": "address",
          "name": "receiver",
          "type": "address"
        },
        {
          "indexed": false,
          "internalType": "uint256",
          "name": "positionTicket",
          "type": "uint256"
        },
        {
          "indexed": false,
          "internalType": "uint256",
          "name": "shares",
          "type": "uint256"
        }
      ],
      "name": "ExitQueueEntered",
      "type": "event"
    },
    {
      "anonymous": false,
      "inputs": [
        {
          "indexed": true,
          "internalType": "address",
          "name": "receiver",
          "type": "address"
        },
        {
          "indexed": false,
          "internalType": "uint256",
          "name": "prevPositionTicket",
          "type": "uint256"
        },
        {
          "indexed": false,
          "internalType": "uint256",
          "name": "newPositionTicket",
          "type": "uint256"
        },
        {
          "indexed": false,
          "internalType": "uint256",
          "name": "withdrawnAssets",
          "type": "uint256"
        }
      ],
      "name": "ExitedAssetsClaimed",
      "type": "event"
    },
    {
      "anonymous": false,
      "inputs": [
        {
          "indexed": true,
          "internalType": "address",
          "name": "caller",
          "type": "address"
        },
        {
          "indexed": true,
          "internalType": "address",
          "name": "feeRecipient",
          "type": "address"
        }
      ],
      "name": "FeeRecipientUpdated",
      "type": "event"
    },
    {
      "anonymous": false,
      "inputs": [
        {
          "indexed": false,
          "internalType": "address",
          "name": "receiver",
          "type": "address"
        },
        {
          "indexed": false,
          "internalType": "uint256",
          "name": "shares",
          "type": "uint256"
        },
        {
          "indexed": false,
          "internalType": "uint256",
          "name": "assets",
          "type": "uint256"
        }
      ],
      "name": "FeeSharesMinted",
      "type": "event"
    },
    {
      "anonymous": false,
      "inputs": [
        {
          "indexed": false,
          "internalType": "uint64",
          "name": "version",
          "type": "uint64"
        }
      ],
      "name": "Initialized",
      "type": "event"
    },
    {
      "anonymous": false,
      "inputs": [
        {
          "indexed": true,
          "internalType": "address",
          "name": "caller",
          "type": "address"
        },
        {
          "indexed": true,
          "internalType": "address",
          "name": "keysManager",
          "type": "address"
        }
      ],
      "name": "KeysManagerUpdated",
      "type": "event"
    },
    {
      "anonymous": false,
      "inputs": [
        {
          "indexed": true,
          "internalType": "address",
          "name": "caller",
          "type": "address"
        },
        {
          "indexed": false,
          "internalType": "string",
          "name": "metadataIpfsHash",
          "type": "string"
        }
      ],
      "name": "MetadataUpdated",
      "type": "event"
    },
    {
      "anonymous": false,
      "inputs": [
        {
          "indexed": true,
          "internalType": "address",
          "name": "caller",
          "type": "address"
        },
        {
          "indexed": false,
          "internalType": "uint256",
          "name": "assets",
          "type": "uint256"
        },
        {
          "indexed": false,
          "internalType": "uint256",
          "name": "shares",
          "type": "uint256"
        }
      ],
      "name": "OsTokenBurned",
      "type": "event"
    },
    {
      "anonymous": false,
      "inputs": [
        {
          "indexed": true,
          "internalType": "address",
          "name": "caller",
          "type": "address"
        },
        {
          "indexed": true,
          "internalType": "address",
          "name": "user",
          "type": "address"
        },
        {
          "indexed": false,
          "internalType": "address",
          "name": "receiver",
          "type": "address"
        },
        {
          "indexed": false,
          "internalType": "uint256",
          "name": "osTokenShares",
          "type": "uint256"
        },
        {
          "indexed": false,
          "internalType": "uint256",
          "name": "shares",
          "type": "uint256"
        },
        {
          "indexed": false,
          "internalType": "uint256",
          "name": "receivedAssets",
          "type": "uint256"
        }
      ],
      "name": "OsTokenLiquidated",
      "type": "event"
    },
    {
      "anonymous": false,
      "inputs": [
        {
          "indexed": true,
          "internalType": "address",
          "name": "caller",
          "type": "address"
        },
        {
          "indexed": false,
          "internalType": "address",
          "name": "receiver",
          "type": "address"
        },
        {
          "indexed": false,
          "internalType": "uint256",
          "name": "assets",
          "type": "uint256"
        },
        {
          "indexed": false,
          "internalType": "uint256",
          "name": "shares",
          "type": "uint256"
        },
        {
          "indexed": false,
          "internalType": "address",
          "name": "referrer",
          "type": "address"
        }
      ],
      "name": "OsTokenMinted",
      "type": "event"
    },
    {
      "anonymous": false,
      "inputs": [
        {
          "indexed": true,
          "internalType": "address",
          "name": "caller",
          "type": "address"
        },
        {
          "indexed": true,
          "internalType": "address",
          "name": "user",
          "type": "address"
        },
        {
          "indexed": false,
          "internalType": "address",
          "name": "receiver",
          "type": "address"
        },
        {
          "indexed": false,
          "internalType": "uint256",
          "name": "osTokenShares",
          "type": "uint256"
        },
        {
          "indexed": false,
          "internalType": "uint256",
          "name": "shares",
          "type": "uint256"
        },
        {
          "indexed": false,
          "internalType": "uint256",
          "name": "assets",
          "type": "uint256"
        }
      ],
      "name": "OsTokenRedeemed",
      "type": "event"
    },
    {
      "anonymous": false,
      "inputs": [
        {
          "indexed": true,
          "internalType": "address",
          "name": "owner",
          "type": "address"
        },
        {
          "indexed": true,
          "internalType": "address",
          "name": "receiver",
          "type": "address"
        },
        {
          "indexed": false,
          "internalType": "uint256",
          "name": "assets",
          "type": "uint256"
        },
        {
          "indexed": false,
          "internalType": "uint256",
          "name": "shares",
          "type": "uint256"
        }
      ],
      "name": "Redeemed",
      "type": "event"
    },
    {
      "anonymous": false,
      "inputs": [
        {
          "indexed": true,
          "internalType": "address",
          "name": "implementation",
          "type": "address"
        }
      ],
      "name": "Upgraded",
      "type": "event"
    },
    {
      "anonymous": false,
      "inputs": [
        {
          "indexed": false,
          "internalType": "bytes",
          "name": "publicKey",
          "type": "bytes"
        }
      ],
      "name": "ValidatorRegistered",
      "type": "event"
    },
    {
      "anonymous": false,
      "inputs": [
        {
          "indexed": true,
          "internalType": "address",
          "name": "caller",
          "type": "address"
        },
        {
          "indexed": true,
          "internalType": "bytes32",
          "name": "validatorsRoot",
          "type": "bytes32"
        }
      ],
      "name": "ValidatorsRootUpdated",
      "type": "event"
    },
    {
      "anonymous": false,
      "inputs": [
        {
          "indexed": true,
          "internalType": "address",
          "name": "caller",
          "type": "address"
        },
        {
          "indexed": true,
          "internalType": "address",
          "name": "account",
          "type": "address"
        },
        {
          "indexed": false,
          "internalType": "bool",
          "name": "approved",
          "type": "bool"
        }
      ],
      "name": "WhitelistUpdated",
      "type": "event"
    },
    {
      "anonymous": false,
      "inputs": [
        {
          "indexed": true,
          "internalType": "address",
          "name": "caller",
          "type": "address"
        },
        {
          "indexed": true,
          "internalType": "address",
          "name": "whitelister",
          "type": "address"
        }
      ],
      "name": "WhitelisterUpdated",
      "type": "event"
    },
    {
      "inputs": [],
      "name": "UPGRADE_INTERFACE_VERSION",
      "outputs": [
        {
          "internalType": "string",
          "name": "",
          "type": "string"
        }
      ],
      "stateMutability": "view",
      "type": "function"
    },
    {
      "inputs": [],
      "name": "admin",
      "outputs": [
        {
          "internalType": "address",
          "name": "",
          "type": "address"
        }
      ],
      "stateMutability": "view",
      "type": "function"
    },
    {
      "inputs": [
        {
          "internalType": "uint128",
          "name": "osTokenShares",
          "type": "uint128"
        }
      ],
      "name": "burnOsToken",
      "outputs": [
        {
          "internalType": "uint256",
          "name": "assets",
          "type": "uint256"
        }
      ],
      "stateMutability": "nonpayable",
      "type": "function"
    },
    {
      "inputs": [
        {
          "internalType": "address",
          "name": "receiver",
          "type": "address"
        },
        {
          "internalType": "uint256",
          "name": "positionTicket",
          "type": "uint256"
        },
        {
          "internalType": "uint256",
          "name": "timestamp",
          "type": "uint256"
        },
        {
          "internalType": "uint256",
          "name": "exitQueueIndex",
          "type": "uint256"
        }
      ],
      "name": "calculateExitedAssets",
      "outputs": [
        {
          "internalType": "uint256",
          "name": "leftShares",
          "type": "uint256"
        },
        {
          "internalType": "uint256",
          "name": "claimedShares",
          "type": "uint256"
        },
        {
          "internalType": "uint256",
          "name": "claimedAssets",
          "type": "uint256"
        }
      ],
      "stateMutability": "view",
      "type": "function"
    },
    {
      "inputs": [],
      "name": "capacity",
      "outputs": [
        {
          "internalType": "uint256",
          "name": "",
          "type": "uint256"
        }
      ],
      "stateMutability": "view",
      "type": "function"
    },
    {
      "inputs": [
        {
          "internalType": "uint256",
          "name": "positionTicket",
          "type": "uint256"
        },
        {
          "internalType": "uint256",
          "name": "timestamp",
          "type": "uint256"
        },
        {
          "internalType": "uint256",
          "name": "exitQueueIndex",
          "type": "uint256"
        }
      ],
      "name": "claimExitedAssets",
      "outputs": [
        {
          "internalType": "uint256",
          "name": "newPositionTicket",
          "type": "uint256"
        },
        {
          "internalType": "uint256",
          "name": "claimedShares",
          "type": "uint256"
        },
        {
          "internalType": "uint256",
          "name": "claimedAssets",
          "type": "uint256"
        }
      ],
      "stateMutability": "nonpayable",
      "type": "function"
    },
    {
      "inputs": [
        {
          "internalType": "uint256",
          "name": "shares",
          "type": "uint256"
        }
      ],
      "name": "convertToAssets",
      "outputs": [
        {
          "internalType": "uint256",
          "name": "assets",
          "type": "uint256"
        }
      ],
      "stateMutability": "view",
      "type": "function"
    },
    {
      "inputs": [
        {
          "internalType": "uint256",
          "name": "assets",
          "type": "uint256"
        }
      ],
      "name": "convertToShares",
      "outputs": [
        {
          "internalType": "uint256",
          "name": "shares",
          "type": "uint256"
        }
      ],
      "stateMutability": "view",
      "type": "function"
    },
    {
      "inputs": [
        {
          "internalType": "address",
          "name": "receiver",
          "type": "address"
        },
        {
          "internalType": "address",
          "name": "referrer",
          "type": "address"
        }
      ],
      "name": "deposit",
      "outputs": [
        {
          "internalType": "uint256",
          "name": "shares",
          "type": "uint256"
        }
      ],
      "stateMutability": "payable",
      "type": "function"
    },
    {
      "inputs": [
        {
          "internalType": "uint256",
          "name": "shares",
          "type": "uint256"
        },
        {
          "internalType": "address",
          "name": "receiver",
          "type": "address"
        }
      ],
      "name": "enterExitQueue",
      "outputs": [
        {
          "internalType": "uint256",
          "name": "positionTicket",
          "type": "uint256"
        }
      ],
      "stateMutability": "nonpayable",
      "type": "function"
    },
    {
      "inputs": [],
      "name": "feePercent",
      "outputs": [
        {
          "internalType": "uint16",
          "name": "",
          "type": "uint16"
        }
      ],
      "stateMutability": "view",
      "type": "function"
    },
    {
      "inputs": [],
      "name": "feeRecipient",
      "outputs": [
        {
          "internalType": "address",
          "name": "",
          "type": "address"
        }
      ],
      "stateMutability": "view",
      "type": "function"
    },
    {
      "inputs": [
        {
          "internalType": "uint256",
          "name": "positionTicket",
          "type": "uint256"
        }
      ],
      "name": "getExitQueueIndex",
      "outputs": [
        {
          "internalType": "int256",
          "name": "",
          "type": "int256"
        }
      ],
      "stateMutability": "view",
      "type": "function"
    },
    {
      "inputs": [
        {
          "internalType": "address",
          "name": "account",
          "type": "address"
        }
      ],
      "name": "getShares",
      "outputs": [
        {
          "internalType": "uint256",
          "name": "",
          "type": "uint256"
        }
      ],
      "stateMutability": "view",
      "type": "function"
    },
    {
      "inputs": [],
      "name": "implementation",
      "outputs": [
        {
          "internalType": "address",
          "name": "",
          "type": "address"
        }
      ],
      "stateMutability": "view",
      "type": "function"
    },
    {
      "inputs": [
        {
          "internalType": "bytes",
          "name": "params",
          "type": "bytes"
        }
      ],
      "name": "initialize",
      "outputs": [],
      "stateMutability": "payable",
      "type": "function"
    },
    {
      "inputs": [],
      "name": "isStateUpdateRequired",
      "outputs": [
        {
          "internalType": "bool",
          "name": "",
          "type": "bool"
        }
      ],
      "stateMutability": "view",
      "type": "function"
    },
    {
      "inputs": [],
      "name": "keysManager",
      "outputs": [
        {
          "internalType": "address",
          "name": "",
          "type": "address"
        }
      ],
      "stateMutability": "view",
      "type": "function"
    },
    {
      "inputs": [
        {
          "internalType": "uint256",
          "name": "osTokenShares",
          "type": "uint256"
        },
        {
          "internalType": "address",
          "name": "owner",
          "type": "address"
        },
        {
          "internalType": "address",
          "name": "receiver",
          "type": "address"
        }
      ],
      "name": "liquidateOsToken",
      "outputs": [],
      "stateMutability": "nonpayable",
      "type": "function"
    },
    {
      "inputs": [],
      "name": "mevEscrow",
      "outputs": [
        {
          "internalType": "address",
          "name": "",
          "type": "address"
        }
      ],
      "stateMutability": "view",
      "type": "function"
    },
    {
      "inputs": [
        {
          "internalType": "address",
          "name": "receiver",
          "type": "address"
        },
        {
          "internalType": "uint256",
          "name": "osTokenShares",
          "type": "uint256"
        },
        {
          "internalType": "address",
          "name": "referrer",
          "type": "address"
        }
      ],
      "name": "mintOsToken",
      "outputs": [
        {
          "internalType": "uint256",
          "name": "assets",
          "type": "uint256"
        }
      ],
      "stateMutability": "nonpayable",
      "type": "function"
    },
    {
      "inputs": [
        {
          "internalType": "bytes[]",
          "name": "data",
          "type": "bytes[]"
        }
      ],
      "name": "multicall",
      "outputs": [
        {
          "internalType": "bytes[]",
          "name": "results",
          "type": "bytes[]"
        }
      ],
      "stateMutability": "nonpayable",
      "type": "function"
    },
    {
      "inputs": [
        {
          "internalType": "address",
          "name": "user",
          "type": "address"
        }
      ],
      "name": "osTokenPositions",
      "outputs": [
        {
          "internalType": "uint128",
          "name": "shares",
          "type": "uint128"
        }
      ],
      "stateMutability": "view",
      "type": "function"
    },
    {
      "inputs": [],
      "name": "proxiableUUID",
      "outputs": [
        {
          "internalType": "bytes32",
          "name": "",
          "type": "bytes32"
        }
      ],
      "stateMutability": "view",
      "type": "function"
    },
    {
      "inputs": [],
      "name": "queuedShares",
      "outputs": [
        {
          "internalType": "uint128",
          "name": "",
          "type": "uint128"
        }
      ],
      "stateMutability": "view",
      "type": "function"
    },
    {
      "inputs": [],
      "name": "receiveFromMevEscrow",
      "outputs": [],
      "stateMutability": "payable",
      "type": "function"
    },
    {
      "inputs": [
        {
          "internalType": "uint256",
          "name": "shares",
          "type": "uint256"
        },
        {
          "internalType": "address",
          "name": "receiver",
          "type": "address"
        }
      ],
      "name": "redeem",
      "outputs": [
        {
          "internalType": "uint256",
          "name": "assets",
          "type": "uint256"
        }
      ],
      "stateMutability": "nonpayable",
      "type": "function"
    },
    {
      "inputs": [
        {
          "internalType": "uint256",
          "name": "osTokenShares",
          "type": "uint256"
        },
        {
          "internalType": "address",
          "name": "owner",
          "type": "address"
        },
        {
          "internalType": "address",
          "name": "receiver",
          "type": "address"
        }
      ],
      "name": "redeemOsToken",
      "outputs": [],
      "stateMutability": "nonpayable",
      "type": "function"
    },
    {
      "inputs": [
        {
          "components": [
            {
              "internalType": "bytes32",
              "name": "validatorsRegistryRoot",
              "type": "bytes32"
            },
            {
              "internalType": "uint256",
              "name": "deadline",
              "type": "uint256"
            },
            {
              "internalType": "bytes",
              "name": "validators",
              "type": "bytes"
            },
            {
              "internalType": "bytes",
              "name": "signatures",
              "type": "bytes"
            },
            {
              "internalType": "string",
              "name": "exitSignaturesIpfsHash",
              "type": "string"
            }
          ],
          "internalType": "struct IKeeperValidators.ApprovalParams",
          "name": "keeperParams",
          "type": "tuple"
        },
        {
          "internalType": "bytes32[]",
          "name": "proof",
          "type": "bytes32[]"
        }
      ],
      "name": "registerValidator",
      "outputs": [],
      "stateMutability": "nonpayable",
      "type": "function"
    },
    {
      "inputs": [
        {
          "components": [
            {
              "internalType": "bytes32",
              "name": "validatorsRegistryRoot",
              "type": "bytes32"
            },
            {
              "internalType": "uint256",
              "name": "deadline",
              "type": "uint256"
            },
            {
              "internalType": "bytes",
              "name": "validators",
              "type": "bytes"
            },
            {
              "internalType": "bytes",
              "name": "signatures",
              "type": "bytes"
            },
            {
              "internalType": "string",
              "name": "exitSignaturesIpfsHash",
              "type": "string"
            }
          ],
          "internalType": "struct IKeeperValidators.ApprovalParams",
          "name": "keeperParams",
          "type": "tuple"
        },
        {
          "internalType": "uint256[]",
          "name": "indexes",
          "type": "uint256[]"
        },
        {
          "internalType": "bool[]",
          "name": "proofFlags",
          "type": "bool[]"
        },
        {
          "internalType": "bytes32[]",
          "name": "proof",
          "type": "bytes32[]"
        }
      ],
      "name": "registerValidators",
      "outputs": [],
      "stateMutability": "nonpayable",
      "type": "function"
    },
    {
      "inputs": [
        {
          "internalType": "address",
          "name": "_feeRecipient",
          "type": "address"
        }
      ],
      "name": "setFeeRecipient",
      "outputs": [],
      "stateMutability": "nonpayable",
      "type": "function"
    },
    {
      "inputs": [
        {
          "internalType": "address",
          "name": "keysManager_",
          "type": "address"
        }
      ],
      "name": "setKeysManager",
      "outputs": [],
      "stateMutability": "nonpayable",
      "type": "function"
    },
    {
      "inputs": [
        {
          "internalType": "string",
          "name": "metadataIpfsHash",
          "type": "string"
        }
      ],
      "name": "setMetadata",
      "outputs": [],
      "stateMutability": "nonpayable",
      "type": "function"
    },
    {
      "inputs": [
        {
          "internalType": "bytes32",
          "name": "_validatorsRoot",
          "type": "bytes32"
        }
      ],
      "name": "setValidatorsRoot",
      "outputs": [],
      "stateMutability": "nonpayable",
      "type": "function"
    },
    {
      "inputs": [
        {
          "internalType": "address",
          "name": "_whitelister",
          "type": "address"
        }
      ],
      "name": "setWhitelister",
      "outputs": [],
      "stateMutability": "nonpayable",
      "type": "function"
    },
    {
      "inputs": [],
      "name": "totalAssets",
      "outputs": [
        {
          "internalType": "uint256",
          "name": "",
          "type": "uint256"
        }
      ],
      "stateMutability": "view",
      "type": "function"
    },
    {
      "inputs": [],
      "name": "totalShares",
      "outputs": [
        {
          "internalType": "uint256",
          "name": "",
          "type": "uint256"
        }
      ],
      "stateMutability": "view",
      "type": "function"
    },
    {
      "inputs": [
        {
          "components": [
            {
              "internalType": "bytes32",
              "name": "rewardsRoot",
              "type": "bytes32"
            },
            {
              "internalType": "int160",
              "name": "reward",
              "type": "int160"
            },
            {
              "internalType": "uint160",
              "name": "unlockedMevReward",
              "type": "uint160"
            },
            {
              "internalType": "bytes32[]",
              "name": "proof",
              "type": "bytes32[]"
            }
          ],
          "internalType": "struct IKeeperRewards.HarvestParams",
          "name": "harvestParams",
          "type": "tuple"
        }
      ],
      "name": "updateState",
      "outputs": [],
      "stateMutability": "nonpayable",
      "type": "function"
    },
    {
      "inputs": [
        {
          "internalType": "address",
          "name": "receiver",
          "type": "address"
        },
        {
          "internalType": "address",
          "name": "referrer",
          "type": "address"
        },
        {
          "components": [
            {
              "internalType": "bytes32",
              "name": "rewardsRoot",
              "type": "bytes32"
            },
            {
              "internalType": "int160",
              "name": "reward",
              "type": "int160"
            },
            {
              "internalType": "uint160",
              "name": "unlockedMevReward",
              "type": "uint160"
            },
            {
              "internalType": "bytes32[]",
              "name": "proof",
              "type": "bytes32[]"
            }
          ],
          "internalType": "struct IKeeperRewards.HarvestParams",
          "name": "harvestParams",
          "type": "tuple"
        }
      ],
      "name": "updateStateAndDeposit",
      "outputs": [
        {
          "internalType": "uint256",
          "name": "shares",
          "type": "uint256"
        }
      ],
      "stateMutability": "payable",
      "type": "function"
    },
    {
      "inputs": [
        {
          "internalType": "address",
          "name": "account",
          "type": "address"
        },
        {
          "internalType": "bool",
          "name": "approved",
          "type": "bool"
        }
      ],
      "name": "updateWhitelist",
      "outputs": [],
      "stateMutability": "nonpayable",
      "type": "function"
    },
    {
      "inputs": [
        {
          "internalType": "address",
          "name": "newImplementation",
          "type": "address"
        },
        {
          "internalType": "bytes",
          "name": "data",
          "type": "bytes"
        }
      ],
      "name": "upgradeToAndCall",
      "outputs": [],
      "stateMutability": "payable",
      "type": "function"
    },
    {
      "inputs": [],
      "name": "validatorIndex",
      "outputs": [
        {
          "internalType": "uint256",
          "name": "",
          "type": "uint256"
        }
      ],
      "stateMutability": "view",
      "type": "function"
    },
    {
      "inputs": [],
      "name": "validatorsRoot",
      "outputs": [
        {
          "internalType": "bytes32",
          "name": "",
          "type": "bytes32"
        }
      ],
      "stateMutability": "view",
      "type": "function"
    },
    {
      "inputs": [],
      "name": "vaultId",
      "outputs": [
        {
          "internalType": "bytes32",
          "name": "",
          "type": "bytes32"
        }
      ],
      "stateMutability": "pure",
      "type": "function"
    },
    {
      "inputs": [],
      "name": "version",
      "outputs": [
        {
          "internalType": "uint8",
          "name": "",
          "type": "uint8"
        }
      ],
      "stateMutability": "pure",
      "type": "function"
    },
    {
      "inputs": [
        {
          "internalType": "address",
          "name": "",
          "type": "address"
        }
      ],
      "name": "whitelistedAccounts",
      "outputs": [
        {
          "internalType": "bool",
          "name": "",
          "type": "bool"
        }
      ],
      "stateMutability": "view",
      "type": "function"
    },
    {
      "inputs": [],
      "name": "whitelister",
      "outputs": [
        {
          "internalType": "address",
          "name": "",
          "type": "address"
        }
      ],
      "stateMutability": "view",
      "type": "function"
    },
    {
      "inputs": [],
      "name": "withdrawableAssets",
      "outputs": [
        {
          "internalType": "uint256",
          "name": "",
          "type": "uint256"
        }
      ],
      "stateMutability": "view",
      "type": "function"
    },
    {
      "stateMutability": "payable",
      "type": "receive"
    }
  ],
  "bytecode": "0x610180346200022657601f62004cba38819003918201601f19168301926001600160401b03929091838511838610176200022a578160e09284926040978852833981010312620002265762000054816200023e565b9262000063602083016200023e565b90620000718184016200023e565b9362000080606085016200023e565b946200008f608086016200023e565b9360c0620000a060a088016200023e565b9601519760805260a05260c0523060e05261010095865260018060a01b038061012096168652610140931683526101609384527ff0c57e16840df040f15088dc2f81fe391c3923bec73e23a9662efc9c229c6a009081549060ff82851c1662000215578080831603620001d0575b5050505192614a669485620002548639608051858181611ade015281816122ee01528181612cc201528181613268015281816136050152614255015260a05185611724015260c051858181613cf60152613e97015260e0518581816119100152613811015251846128890152518381816103af0152818161071701528181610a530152818161107701528181612f6401526145de0152518281816107f301528181610aff01528181611123015261455d01525181818161263d01526132b00152f35b6001600160401b0319909116811790915581519081527fc7f505b2f371ae2175ee4913f4499e1f2633a7b5936321eed1cdaeb6115181d290602090a15f80806200010e565b835163f92ee8a960e01b8152600490fd5b5f80fd5b634e487b7160e01b5f52604160045260245ffd5b51906001600160a01b0382168203620002265756fe60806040526004361015610022575b3615610018575f80fd5b610020612f2f565b005b5f3560e01c806301e1d11414610321578063066055e01461031c57806307a2d13a146103175780630d392cd91461031257806318f729501461030d5780631a7ff55314610308578063201b9eb51461030357806322758a4a146102fe5780632999ad3f146102f95780632cdf7401146102f45780633229fa95146102ef57806333194c0a146102ea5780633a98ef39146102e5578063439fab91146102e057806343e82a79146102db57806346904840146102d65780634ec96b22146102d15780634f1ef286146102cc578063514e2708146102c757806352d1902d146102c257806353156f28146102bd57806354fd4d50146102b85780635c60da1b146102b35780635cfc1a51146102ae5780635dddf3a8146102a957806360d60e6e146102a457806372b410a81461029f57806376b58b901461029a5780637bde82f2146102955780637fd6f15c146102905780638697d2c21461028b5780638ceab9aa146102865780639b401cde14610281578063a1bf49aa1461027c578063a49a1e7d14610277578063aaa4e83614610272578063ac9650d81461026d578063ad3cb1cc14610268578063c6e6f59214610263578063d83ad00c1461025e578063e74b981b14610259578063ef2a215814610254578063f04da65b1461024f578063f5e9de4d1461024a578063f6a6830f14610245578063f851a44014610240578063f9609f081461023b5763f98f5b920361000e576124b8565b61248e565b612467565b612426565b612296565b61225b565b6121d3565b612198565b612172565b612154565b61210f565b61201a565b611ed4565b611e7d565b611e60565b611e43565b611cfd565b611cd8565b611cb4565b611b91565b611b40565b611ab3565b611a0e565b6119f4565b6119da565b6119a6565b61198b565b611967565b6118fe565b611892565b61160c565b6114b3565b61148b565b61104c565b610f33565b610ec4565b610e8a565b610e5e565b610e44565b610a29565b6109d4565b6106a7565b610674565b61061d565b610540565b6104ff565b610354565b610334565b5f91031261033057565b5f80fd5b34610330575f36600319011261033057602060985460801c604051908152f35b34610330576020366003190112610330576001600160801b036004358181169081810361033057604051633b9e9f0160e21b81523360048201526001600160801b0382166024820152916020836044815f6001600160a01b037f0000000000000000000000000000000000000000000000000000000000000000165af19283156104fa575f936104c9575b50335f908152610137602052604090206103f8906124ff565b9361040a85516001600160801b031690565b16156104b7578361044c61043f61042f6104659461042a6104b399612f4f565b612fff565b83516001600160801b0316612538565b6001600160801b03168252565b335f90815261013760205260409020612551565b612551565b604080518381526001600160801b0392909216602083015233917f3f7354ba02880b4fa37a629985852a38417ff369369ce1e52fa6f8342a9100a79190a26040519081529081906020820190565b0390f35b60405163673f032f60e11b8152600490fd5b6104ec91935060203d6020116104f3575b6104e4818361158b565b8101906124e5565b915f6103df565b503d6104da565b6124f4565b3461033057602036600319011261033057602061051d600435612583565b604051908152f35b6001600160a01b0381160361033057565b8015150361033057565b34610330576040806003193601126103305760043561055e81610525565b6024359061056b82610536565b610201546001600160a01b039190821633036105fe571691825f52610202918260205260ff825f2054169281151580941515146105ed57906105c191855f52602052825f209060ff801983541691151516179055565b519081527fd9c6c3eabe38e3b9a606a66358d8f225489216a59eeba66facefb7d91663526660203392a3005b8251637d5bf36f60e11b8152600490fd5b8351634ca8886760e01b8152600490fd5b908160809103126103305790565b60603660031901126103305760043561063581610525565b60243561064181610525565b604435906001600160401b0382116103305760209261066f61066a61051d94369060040161060f565b6125a9565b612e18565b34610330576020366003190112610330576004356001600160401b0381116103305761066a61002091369060040161060f565b346103305760603660031901126103305760048035906106c682610525565b60243590604435926106d784610525565b6106df6135c9565b6106e76135ea565b604080516329460cc560e11b81526001600160a01b038381168286019081526020818101889052929693959192907f00000000000000000000000000000000000000000000000000000000000000008416908290899081908a0103815f855af19788156104fa575f986109b5575b50335f908152610137602052604090208390610770906124ff565b946001600160801b0361078a87516001600160801b031690565b16156109535761079986612f4f565b6107c56107b86107a889612fff565b88516001600160801b03166125da565b6001600160801b03168752565b335f908152609c6020526040902084906107e0905b54612583565b918a5193848092631331885160e31b82527f0000000000000000000000000000000000000000000000000000000000000000165afa9182156104fa5761086f928592610833925f92610934575b50613055565b9261084587516001600160801b031690565b908a5180809581946303d1689d60e11b83528a83019190916001600160801b036020820193169052565b03915afa9283156104fa575f93610915575b5050106109075750947fa16d97739893e1436c9753925fb5cef174c4f368699dc86cc8fdb0e6e60f8e58916108ce6104b3976104603360018060a01b03165f5261013760205260405f2090565b84516001600160a01b039485168152602081018790526040810191909152921660608301523391608090a2519081529081906020820190565b8451633684c65960e01b8152fd5b61092c929350803d106104f3576104e4818361158b565b905f80610881565b61094c919250843d86116104f3576104e4818361158b565b905f61082d565b885163752a536d60e01b8152915083828681865afa80156104fa576109846109939187945f91610998575b50612fff565b6001600160801b031687860152565b610799565b6109af9150873d89116104f3576104e4818361158b565b5f61097e565b6109cd919850823d84116104f3576104e4818361158b565b965f610755565b34610330575f36600319011261033057610201546040516001600160a01b039091168152602090f35b60609060031901126103305760043590602435610a1981610525565b90604435610a2681610525565b90565b3461033057610a37366109fd565b906001600160a01b0380831615610e3257610a506135ea565b807f00000000000000000000000000000000000000000000000000000000000000001691823b156103305760408051631d8557d760e01b815260049491905f81878183875af180156104fa57610e19575b506001600160a01b0383165f90815261013760205260409020610ac3906124ff565b6001600160801b03610adc82516001600160801b031690565b1615610e0957610aeb81612f4f565b81516330fe427560e21b81529260a08488817f00000000000000000000000000000000000000000000000000000000000000008a165afa9687156104fa57610b5a975f955f91610dd0575b5084516303d1689d60e11b918282528c828060209d8e938883019190602083019252565b0381885afa80156104fa57610b75925f91610db35750613055565b95610b936107da8960018060a01b03165f52609c60205260405f2090565b918288118015610da3575b610d9357908a610bdb92610bb988516001600160801b031690565b908951948592839283528883019190916001600160801b036020820193169052565b0381885afa9081156104fa57670de0b6b3a764000093610c17938d5f94610d6a575b5050610c0b610c1191612c7e565b92612c9b565b916130cf565b1015610d5c578351633b9e9f0160e21b815233918101918252602082018b905294939291889186919082905f90829060400103925af19081156104fa577f61fd285f9e34a3dbfa9846bdcf22a023e37a3c93549902843b30dd74a18c535097610d3995610cb193610d3e575b5050610c9461043f61042f8c612fff565b6001600160a01b0386165f90815261013760205260409020612551565b610cba82613acd565b90610cf8610cdd610cca85612fff565b60985460801c036001600160801b031690565b6001600160801b036098549181199060801b16911617609855565b610d0282866142a9565b610d0c8389613a20565b51948594169733978590949392606092608083019660018060a01b03168352602083015260408201520152565b0390a3005b81610d5492903d106104f3576104e4818361158b565b505f80610c83565b835163185cfc6d60e11b8152fd5b610c11929450610c0b9181610d8a92903d106104f3576104e4818361158b565b9391508d610bfd565b865163efda1a2760e01b81528490fd5b50610dac6125f5565b8811610b9e565b610dca91508c8d3d106104f3576104e4818361158b565b5f61082d565b9050610df591955060a03d60a011610e02575b610ded818361158b565b810190613675565b509692509050945f610b36565b503d610de3565b815163673f032f60e11b81528690fd5b80610e26610e2c9261155d565b80610326565b5f610aa1565b60405163d92e233d60e01b8152600490fd5b34610330575f36600319011261033057602061051d6125f5565b34610330575f366003190112610330576020610e78612624565b6040516001600160a01b039091168152f35b34610330575f3660031901126103305760206040517fa90b5863127e5f962890f832f07b9f40c8df2fc043326a0e4b538552d600f2d98152f35b34610330575f3660031901126103305760206001600160801b0360985416604051908152f35b906020600319830112610330576004356001600160401b039283821161033057806023830112156103305781600401359384116103305760248483010111610330576024019190565b610f3c36610eea565b905f80516020614a1183398151915254916001600160401b0360ff8460401c1615931680159081611044575b600114908161103a575b159081611031575b5061101f575f80516020614a11833981519152805467ffffffffffffffff19166001179055610fad9183610ffb576126f3565b610fb357005b5f80516020614a11833981519152805460ff60401b19169055604051600181527fc7f505b2f371ae2175ee4913f4499e1f2633a7b5936321eed1cdaeb6115181d290602090a1005b5f80516020614a11833981519152805460ff60401b1916600160401b1790556126f3565b60405163f92ee8a960e01b8152600490fd5b9050155f610f7a565b303b159150610f72565b849150610f68565b346103305761105a366109fd565b906001600160a01b039081831615610e32576110746135ea565b817f000000000000000000000000000000000000000000000000000000000000000016803b156103305760408051631d8557d760e01b815260049291905f81858183875af180156104fa57611478575b506001600160a01b0384165f908152610137602052604090206110e6906124ff565b926001600160801b0361110085516001600160801b031690565b161561146a5761110f84612f4f565b81516330fe427560e21b81529360a08583817f00000000000000000000000000000000000000000000000000000000000000008b165afa9384156104fa575f955f9561143c575b5083516303d1689d60e11b8082528482018c81529197602094939285908a90819083015b0381865afa9889156104fa575f9961141d575b506001600160a01b038a165f908152609c602052604090206111ae906107da565b90818a11801561140d575b6113fd576111f490866111d387516001600160801b031690565b8a51809481928883528c83019190916001600160801b036020820193169052565b0381885afa9182156104fa575f926113dc575b506112129192613055565b116113cc578551633b9e9f0160e21b815233868201908152602081018e905290919085908390819060400103815f875af19182156104fa5785926113af575b5061125b8d612fff565b84516001600160801b03169061127091612538565b6001600160801b031684526001600160a01b038a165f908152610137602052604090208461129d91612551565b6112a689613acd565b976112b08a612fff565b60985460801c036001600160801b03166112df906001600160801b036098549181199060801b16911617609855565b6112e9898c6142a9565b6001600160a01b038b165f908152609c602052604090205461130a90612583565b9061131491613055565b935187519182526001600160801b0316868201908152909283918290036020019082905afa9283156104fa575f93611390575b505011611382575091610d39917f57f5eb636bf62215c111b54545422f11dfb0cb115f606be905f0be08e8859dd3959493610d0c8389613a20565b9051631d8fa13d60e31b8152fd5b6113a7929350803d106104f3576104e4818361158b565b905f80611347565b6113c590833d85116104f3576104e4818361158b565b505f611251565b855163324b20e160e11b81528590fd5b61121292506113f790883d8a116104f3576104e4818361158b565b91611207565b875163efda1a2760e01b81528790fd5b506114166125f5565b8a116111b9565b611435919950853d87116104f3576104e4818361158b565b975f61118d565b61117a92965061145c91955060a03d60a011610e0257610ded818361158b565b505050959095949091611156565b905163673f032f60e11b8152fd5b80610e266114859261155d565b5f6110c4565b34610330575f366003190112610330576065546040516001600160a01b039091168152602090f35b34610330576020366003190112610330576004356114d081610525565b60018060a01b03165f52610137602052602060405f20604051906114f38261153d565b54906001600160801b03918281169081835260801c8483015261151b575b5116604051908152f35b61152481612f4f565b611511565b634e487b7160e01b5f52604160045260245ffd5b604081019081106001600160401b0382111761155857604052565b611529565b6001600160401b03811161155857604052565b606081019081106001600160401b0382111761155857604052565b90601f801991011681019081106001600160401b0382111761155857604052565b604051906115b98261153d565b565b6001600160401b03811161155857601f01601f191660200190565b9291926115e2826115bb565b916115f0604051938461158b565b829481845281830111610330578281602093845f960137010152565b60408060031936011261033057600490813561162781610525565b6024356001600160401b03811161033057366023820112156103305761165690369060248187013591016115d6565b9161165f613807565b8051926116968461168860209363439fab9160e01b858401528460248401526044830190611f92565b03601f19810186528561158b565b61169e613807565b6116a6613aba565b6001600160a01b0383811680159291908790841561185d575b84156117ef575b841561178b575b505082156116f5575b50506116e6576100208383614420565b516355299b4960e01b81528390fd5b83516345da87c560e01b81526001600160a01b03861688820190815292935091839183918290819060200103917f0000000000000000000000000000000000000000000000000000000000000000165afa9182156104fa575f9261175e575b5050155f806116d6565b61177d9250803d10611784575b611775818361158b565b8101906127e2565b5f80611754565b503d61176b565b855163054fd4d560e41b81529294508391839182905afa9081156104fa5760029160ff915f916117c2575b5016141591865f6116cd565b6117e29150843d86116117e8575b6117da818361158b565b810190614407565b5f6117b6565b503d6117d0565b935050835163198ca60560e11b815282818981875afa9081156104fa5788917fa90b5863127e5f962890f832f07b9f40c8df2fc043326a0e4b538552d600f2d9915f91611840575b501415936116c6565b6118579150853d87116104f3576104e4818361158b565b5f611837565b5f805160206149f183398151915254909450849061188b906001600160a01b03165b6001600160a01b031690565b14936116bf565b34610330576020366003190112610330576004356001600160a01b036118b66127c3565b1633036118ec578060d0555f60d155337fbe9758e2d6800505eeb0292a08fe647c52762ccea131177456e7062dd77b41065f80a3005b604051634ca8886760e01b8152600490fd5b34610330575f366003190112610330577f00000000000000000000000000000000000000000000000000000000000000006001600160a01b031630036119555760206040515f805160206149f18339815191528152f35b60405163703e46dd60e11b8152600490fd5b5f366003190112610330576001600160a01b03611982612624565b1633036118ec57005b34610330575f36600319011261033057602060405160018152f35b34610330575f366003190112610330575f805160206149f1833981519152546040516001600160a01b039091168152602090f35b34610330575f36600319011261033057602061051d6127b5565b34610330575f366003190112610330576020610e786127c3565b3461033057602036600319011261033057609a80549081905f6004355b848210611a5c57505050811015611a51576104b3905b6040519081529081906020820190565b506104b35f19611a41565b909193808316906001818518811c8301809311611aae575f8790525f805160206149d18339815191528301546001600160a01b0316841015611aa3575050935b9190611a2b565b909591019250611a9c565b612524565b34610330575f36600319011261033057604051633eb1acf760e11b81523060048201526020816024817f00000000000000000000000000000000000000000000000000000000000000006001600160a01b03165afa80156104fa576020915f91611b23575b506040519015158152f35b611b3a9150823d841161178457611775818361158b565b5f611b18565b34610330576080366003190112610330576104b3611b74600435611b6381610525565b606435906044359060243590612804565b604080519384526020840192909252908201529081906060820190565b34610330576040806003193601126103305760043560243591611bb383610525565b611bbb61495f565b8115611ca4576001600160a01b0383168015611c9357611bda83612583565b928315611c8257611be96125f5565b8411611c7157611c20846104b396611c11610cdd611c0684612fff565b60985460801c612538565b611c1b84336142a9565b613a20565b8251848152602081019190915233907f5cdf07ad0fc222442720b108e3ed4c4640f0fadc2ab2253e66f259a0fea834809080604081015b0390a3611c63336144cb565b519081529081906020820190565b82516396d8043360e01b8152600490fd5b82516318374fd160e21b8152600490fd5b815163d92e233d60e01b8152600490fd5b51636edcc52360e01b8152600490fd5b34610330575f36600319011261033057602061ffff60655460a01c16604051908152f35b34610330576060366003190112610330576104b3611b7460443560243560043561287e565b3461033057604080600319360112610330576004359060243590611d2082610525565b611d286135c9565b8215611ca4576001600160a01b0382168015611c935783611e08611dec6104b396611d6a611d5e6099546001600160801b031690565b6001600160801b031690565b81611dca611d7f83611d7a61480a565b612871565b89516001600160a01b03909b1660208c019081524260408d015260608c01829052909a611db981608081015b03601f19810183528261158b565b5190205f52609b60205260405f2090565b55335f908152609c60205260409020611de48382546127f7565b905501612fff565b6001600160801b03166001600160801b03196099541617609955565b8251848152602081019190915233907f211091c5bf013c1230f996c3bb2bc327e3de429a3d3c356dcea9a0c858bc407f908060408101611c57565b34610330575f36600319011261033057602060d054604051908152f35b34610330575f36600319011261033057602060d154604051908152f35b3461033057611ecf7f2013570c343af8ab14a9778150e381a0fda34ed6368127a95fd5e7210cbec5bf611eaf36610eea565b9290611eb9613aba565b6040519182916020835233956020840191612a15565b0390a2005b3461033057602036600319011261033057600435611ef181610525565b611ef9613aba565b6001600160a01b03168015610e325760d280546001600160a01b03191682179055337fb710e1d0ebf395f895942ac4e559a4a86d57f748a90cf05e9d70798c67e9c65b5f80a3005b9181601f84011215610330578235916001600160401b038311610330576020808501948460051b01011161033057565b5f5b838110611f825750505f910152565b8181015183820152602001611f73565b90602091611fab81518092818552858086019101611f71565b601f01601f1916010190565b6020808201906020835283518092526040830192602060408460051b8301019501935f915b848310611fec5750505050505090565b909192939495848061200a600193603f198682030187528a51611f92565b9801930193019194939290611fdc565b3461033057602036600319011261033057600480356001600160401b0381116103305761204b903690600401611f41565b9161205583612a4c565b925f5b81811061206d57604051806104b38782611fb7565b5f8061207a838588612adb565b6040939161208c855180938193612afb565b0390305af49061209a612b08565b91156120c15750906001916120af8288612ba2565b526120ba8187612ba2565b5001612058565b84826044815110610330576120e581836120fa930151602480918301019101612b37565b925162461bcd60e51b815292839283016120fe565b0390fd5b906020610a26928181520190611f92565b34610330575f366003190112610330576104b360405161212e8161153d565b60058152640352e302e360dc1b6020820152604051918291602083526020830190611f92565b3461033057602036600319011261033057602061051d600435613acd565b34610330575f3660031901126103305760206001600160801b0360995416604051908152f35b34610330576020366003190112610330576100206004356121b881610525565b6121c0613aba565b613b5c565b908160a09103126103305790565b34610330576080366003190112610330576001600160401b03600435818111610330576122049036906004016121c5565b6024358281116103305761221c903690600401611f41565b60449291923584811161033057612237903690600401611f41565b9160643595861161033057612253610020963690600401611f41565b959094612cb2565b346103305760203660031901126103305760043561227881610525565b60018060a01b03165f52609c602052602060405f2054604051908152f35b3461033057604080600319360112610330576004906001600160401b038235818111610330576122c990369085016121c5565b90602435908111610330576122e19036908501611f41565b9390926122ec6135ea565b7f00000000000000000000000000000000000000000000000000000000000000006001600160a01b0316803b15610330575f8251809263837d444160e01b825281838161233b8a8a8301612be7565b03925af180156104fa57612413575b506801bc16d674ec80000061235d6125f5565b10612406578083019360b06123728686612aa9565b9050036123f8576123c46123c89160d1549760d054906123b76123af8b6123998c8c612aa9565b611dab8b94929451938492602084019687612de4565b519020612e01565b6020815191012092613e51565b1590565b6123eb576100206001866123e56123df8888612aa9565b90613e89565b0160d155565b516309bde33960e01b8152fd5b5051631a0a9b9f60e21b8152fd5b516396d8043360e01b8152fd5b80610e266124209261155d565b5f61234a565b346103305760203660031901126103305760043561244381610525565b60018060a01b03165f52610202602052602060ff60405f2054166040519015158152f35b34610330575f366003190112610330575f546040516001600160a01b039091168152602090f35b604036600319011261033057602061051d6004356124ab81610525565b6024359061066f82610525565b34610330576020366003190112610330576100206004356124d881610525565b6124e0613aba565b613f9c565b90816020910312610330575190565b6040513d5f823e3d90fd5b9060405161250c8161153d565b91546001600160801b038116835260801c6020830152565b634e487b7160e01b5f52601160045260245ffd5b6001600160801b039182169082160391908211611aae57565b815160209092015160801b6fffffffffffffffffffffffffffffffff19166001600160801b0392909216919091179055565b6098546001600160801b038116908161259b57505090565b91610a269260801c906130cf565b6125b290613237565b90806125cb575b506125c057565b6125c86134cc565b50565b6125d4906133cd565b5f6125b9565b9190916001600160801b0380809416911601918211611aae57565b4760995461260b6001600160801b038216612583565b9060801c01908181115f1461261e570390565b50505f90565b61016a546001600160a01b0316801561263a5790565b507f000000000000000000000000000000000000000000000000000000000000000090565b908160209103126103305751610a2681610525565b906020828203126103305781356001600160401b039283821161033057019160608383031261033057604051926126aa84611570565b80358452602081013561ffff81168103610330576020850152604081013591821161033057019080601f83011215610330578160206126eb933591016115d6565b604082015290565b60405163e7f6f22560e01b815290916020908183600481335afa9283156104fa575f93612796575b50604051636f4fa30f60e01b8152938285600481335afa9081156104fa576115b99561275e945f93612763575b50506127579192810190612674565b908361369c565b613779565b6127579350908161278892903d1061278f575b612780818361158b565b81019061265f565b915f612748565b503d612776565b6127ae919350823d841161278f57612780818361158b565b915f61271b565b609d5480610a2657505f1990565b60d2546001600160a01b03908116806127dd57505f541690565b905090565b908160209103126103305751610a2681610536565b91908203918211611aae57565b604080516001600160a01b03909216602083019081529082019390935260608101829052909261285492909161283d8160808101611dab565b5190205f52609b60205260405f2054928391613885565b9091828103908111611aae5792565b9060018201809211611aae57565b91908201809211611aae57565b929190915f936128ae7f000000000000000000000000000000000000000000000000000000000000000085612871565b42106129eb5760408051336020820190815291810186905260608082018490528152601f19916128ef916128e360808261158b565b51902094868433612804565b90969095878781156129dd5750505f908152609b602052604081205560018211612993575b50505061294c61293161292685612fff565b60995460801c612538565b6001600160801b036099549181199060801b16911617609955565b6129568333613a20565b6040805191825260208201869052810183905233907feb3b05c070c24f667611fdb3ff75fe007d42401c573aed8d8faca95fd00ccb5690606090a2565b6129d4919297506129a48785612871565b60408051336020820190815291810193909352606083018290526080998a0183529098909190611db9908261158b565b555f8080612914565b959950975093955050505050565b604051631613b7eb60e01b8152600490fd5b90603060609281835260208301375f60508201520190565b908060209392818452848401375f828201840152601f01601f1916010190565b6001600160401b0381116115585760051b60200190565b90612a5682612a35565b612a63604051918261158b565b8281528092612a74601f1991612a35565b01905f5b828110612a8457505050565b806060602080938501015201612a78565b634e487b7160e01b5f52603260045260245ffd5b903590601e198136030182121561033057018035906001600160401b0382116103305760200191813603831361033057565b90821015612af657612af29160051b810190612aa9565b9091565b612a95565b908092918237015f815290565b3d15612b32573d90612b19826115bb565b91612b27604051938461158b565b82523d5f602084013e565b606090565b602081830312610330578051906001600160401b038211610330570181601f82011215610330578051612b69816115bb565b92612b77604051948561158b565b8184526020828401011161033057610a269160208085019101611f71565b805115612af65760200190565b8051821015612af65760209160051b010190565b9035601e19823603018112156103305701602081359101916001600160401b03821161033057813603831361033057565b9060a0610a2692602081528235602082015260208301356040820152612c23612c136040850185612bb6565b84606085015260c0840191612a15565b90612c56612c4b612c376060870187612bb6565b601f19858703810160808701529591612a15565b946080810190612bb6565b93909282860301910152612a15565b906801bc16d674ec8000009180830292830403611aae57565b90670de0b6b3a764000091828102928184041490151715611aae57565b9061271091828102928184041490151715611aae57565b929094939195612cc06135ea565b7f00000000000000000000000000000000000000000000000000000000000000006001600160a01b031695863b15610330576040965f8851809263837d444160e01b8252818381612d148c60048301612be7565b03925af180156104fa57612dd1575b50612d2c6125f5565b612d3589612c65565b11612dc05787158015612da6575b612d955791612d73959391612d6d896123c49795612d6760d054978c810190612aa9565b90613ccc565b94613e3f565b612d8557506115b99060d1540160d155565b516309bde33960e01b8152600490fd5b8651631c6c4cf360e31b8152600490fd5b50612db387860186612aa9565b905060b089021415612d43565b86516396d8043360e01b8152600490fd5b80610e26612dde9261155d565b5f612d23565b939291602091612dfc91604087526040870191612a15565b930152565b90604051916020830152602082526115b98261153d565b919091335f5261020260205260409260ff845f20541680612f14575b156105fe57612e416135ea565b6001600160a01b038216918215612f03573415612ef25734612e68611d5e60985460801c90565b0190612e726127b5565b8211612ee15794612ebc7f861a4138e41fb21c121a7dbb1053df465c837fc77380cc7226189a662281be2c92610cdd9697612eb7612eaf34613b04565b988993612fff565b6140a1565b51348152602081018590526001600160a01b039290921660408301523391606090a390565b85516304ffa0ff60e51b8152600490fd5b84516318374fd160e21b8152600490fd5b845163d92e233d60e01b8152600490fd5b506001600160a01b0382165f9081528490205460ff16612e34565b335f5261020260205260ff60405f205416156118ec576125c83433613fe3565b60405163752a536d60e01b81526020816004817f00000000000000000000000000000000000000000000000000000000000000006001600160a01b03165afa9081156104fa575f91612fe0575b5060208201916001600160801b03918284511691828214612fd95783612fcc61042a612fd49585848651166130cf565b169052612fff565b169052565b5050505050565b612ff9915060203d6020116104f3576104e4818361158b565b5f612f9c565b6001600160801b0390818111613013571690565b604490604051906306dfcc6560e41b8252608060048301526024820152fd5b634e487b7160e01b5f52601260045260245ffd5b8115613050570490565b613032565b90808202905f19818409908280831092039180830392146130c45761271090828211156130b2577fbc01a36e2eb1c432ca57a786c226809d495182a9930be0ded288ce703afb7e91940990828211900360fc1b910360041c170290565b60405163227bc15360e01b8152600490fd5b505061271091500490565b9091828202915f198482099383808610950394808603951461314257848311156130b257829109815f038216809204600280826003021880830282030280830282030280830282030280830282030280830282030280920290030293600183805f03040190848311900302920304170290565b505090610a269250613046565b908160609103126103305780519160406020830151920151610a2681610536565b81835290916001600160fb1b0383116103305760209260051b809284830137010190565b90602082528035602083015260208101358060130b80910361033057604083015260408101356131c381610525565b6001600160a01b031660608381019190915281013536829003601e19018112156103305701602081359101906001600160401b038111610330578060051b360382136103305760a083608080610a269601520191613170565b9190915f8382019384129112908015821691151617611aae57565b6040516325f56f1160e01b81526001600160a01b039291606090829081906132629060048301613194565b03815f877f0000000000000000000000000000000000000000000000000000000000000000165af19283156104fa575f915f905f95613388575b50841561333557816132ac612624565b16917f000000000000000000000000000000000000000000000000000000000000000016821461332e57509060205f92600460405180958193634641257d60e01b83525af19081156104fa57613309925f9261330d575b5061321c565b9190565b61332791925060203d6020116104f3576104e4818361158b565b905f613303565b908161333b575b50509190565b803b1561033057604051636ee3193160e11b815260048101929092525f908290602490829084905af180156104fa57613375575b80613335565b80610e266133829261155d565b5f61336f565b919450506133ae915060603d6060116133b6575b6133a6818361158b565b81019061314f565b93905f61329c565b503d61339c565b600160ff1b8114611aae575f0390565b6133dc611d5e60985460801c90565b5f82126134b357816133ed91612871565b906133fa610cdd83612fff565b61340f6065549161ffff8360a01c1690613055565b80156134ae57807f555ee6b2ef9506d870f386c067e47d3689435330b012ad263d8cc353186865479361344d611d5e6098546001600160801b031690565b8061349857505061349390925b6001600160a01b03169161346e84846140a1565b60405193849384604091949392606082019560018060a01b0316825260208201520152565b0390a1565b613493926134a8920390846130cf565b9261345a565b505050565b61042a610cdd916134c66115b9946133bd565b906127f7565b609954906001600160801b0382169182156135c35760801c6135006134f182476127f7565b6134fa85612583565b906140ed565b9081156135bc5761351082613acd565b9384156135b4578261353c61293161042a6115b996610cdd96611d7a611dec61042a8d611c069a6127f7565b6135468187614153565b60408051878152602081018390527f624ea167e477f9d39f7f4094b9dfe2e6346eb4a7aada54338db51abd554c4b9f9190a161042a61359861358788612fff565b6098546001600160801b0316612538565b6001600160801b03166001600160801b03196098541617609855565b505f93505050565b505f925050565b505f9150565b6135d161423a565b156135d857565b604051630a62fbdb60e11b8152600490fd5b604051633eb1acf760e11b81523060048201526020816024817f00000000000000000000000000000000000000000000000000000000000000006001600160a01b03165afa9081156104fa575f91613656575b5061364457565b60405163e775715160e01b8152600490fd5b61366f915060203d60201161178457611775818361158b565b5f61363d565b908160a0910312610330578051916020820151916040810151916080606083015192015190565b6136a46142f6565b60408301516136b16142f6565b5f80546001600160a01b0319166001600160a01b03841617905560405133917f2013570c343af8ab14a9778150e381a0fda34ed6368127a95fd5e7210cbec5bf919081906136ff90826120fe565b0390a26020830151926137106142f6565b61271061ffff8516116137675761375f9361372d61375293613b5c565b6065805461ffff60a01b191660a09290921b61ffff60a01b1691909117905551614324565b61375a614354565b614375565b6115b96143a4565b604051638a81d3b360e01b8152600490fd5b6137816142f6565b61378a81613f9c565b6001600160a01b03165f818152610202602081905260409091205460ff1615156001146137f557815f5260205260405f20600160ff19825416179055604051600181527fd9c6c3eabe38e3b9a606a66358d8f225489216a59eeba66facefb7d91663526660203392a3565b604051637d5bf36f60e11b8152600490fd5b6001600160a01b037f00000000000000000000000000000000000000000000000000000000000000008116308114918215613845575b505061195557565b5f805160206149f18339815191525416141590505f8061383d565b9060405161386d8161153d565b91546001600160a01b038116835260a01c6020830152565b609a545f948594939091808410801590613a18575b613a0b57836139d5575f5b609a5f526001600160a01b03166138ca5f805160206149d18339815191528601613860565b80519097906138e1906001600160a01b031661187f565b986139066138fa6020809b01516001600160601b031690565b6001600160601b031690565b9483811080156139cb575b6139b95791600193979a9561393061393c939488035b838c03906140ed565b809201988703916130cf565b019701938086118015906139af575b6139a457609a5f52829061396d5f805160206149d18339815191528701613860565b805190890151969992966001600160a01b03909116946001939261393c9290916001600160601b0390911690613930908803613927565b945050509250509190565b508185101561394b565b60405163e8722f8f60e01b8152600490fd5b50808b1115613911565b609a5f527f44da158ba27f9252712a74ff6a55c5d531f69609f1f6e7f17c4443a8e2089be38401546001600160a01b03166138a5565b505093505050505f905f90565b50841561389a565b907f9b779b17422d0df92223018b32b4d1fa46e071723d6817e2486d003becc55f00916002835414613aa85760028355814710613a90575f918291829182916001600160a01b03165af1613a72612b08565b5015613a7e5760019055565b604051630a12f52160e11b8152600490fd5b60405163cd78605960e01b8152306004820152602490fd5b604051633ee5aeb560e01b8152600490fd5b5f546001600160a01b031633036118ec57565b609854906001600160801b03821681158015613afc575b15613aef5750905090565b610a269260801c916130cf565b508015613ae4565b6098546001600160801b0381169082158015613b54575b15613b2557505090565b60801c90613b348282856130cf565b9282156130505709613b435790565b6001810180911115610a2657612524565b508115613b1b565b613b646135ea565b6001600160a01b03168015613bac57606580546001600160a01b03191682179055337faaebcf1bfa00580e41d966056b48521fa9f202645c86d4ddf28113e617c1b1d35f80a3565b604051630ed1b8b360e31b8152600490fd5b90613bc882612a35565b613bd5604051918261158b565b8281528092613be6601f1991612a35565b0190602036910137565b906030116103305790603090565b906090116103305760300190606090565b9060b0116103305760900190602090565b90939293848311610330578411610330578101920390565b9015612af65790565b9190811015612af65760051b0190565b359060208110613c5f575090565b5f199060200360031b1b1690565b96959490612dfc93613c8e613c9c926060979560808c5260808c0191612a15565b9089820360208b0152611f92565b918783036040890152612a15565b906020610a269281815201906129fd565b916020610a26938181520191612a15565b9193929060d154925f925f90613ce181613bbe565b97613cea614664565b935f9760018060a01b037f000000000000000000000000000000000000000000000000000000000000000016945b848a10613d2b5750505050505050505050565b60b0613d3b910180998985613c20565b9960409a8d613d778d51613d5f602091828101906123af81611dab8c8a8d87612de4565b805191012091613d70858b8b613c41565b3590612ba2565b52613d828184613bf0565b9093613da2613d9c613d948584613bfe565b959093613c0f565b90613c51565b908a3b15610330578b8f5f93613dcd915196879485946304512a2360e31b8652888c60048801613c6d565b03816801bc16d674ec8000008d5af19384156104fa57613e2060018e7f64b6e61d93b7a91e8cc4376183ede0997a27b44fd9dd2f30a866b2a5730efdb1958298613e2c575b5097019e5192839283613cbb565b0390a101989097613d18565b80610e26613e399261155d565b5f613e12565b90613e4d94959392916146a5565b1490565b9192915f915b808310613e65575050501490565b909192613e80600191613e79868587613c41565b3590614921565b93019190613e57565b8160301161033057613d9c917f00000000000000000000000000000000000000000000000000000000000000006001600160a01b0316613ec7614664565b90613ede613ed58486613bfe565b96909486613c0f565b94813b15610330576801bc16d674ec8000005f94613f4497604051988996879586946304512a2360e31b865260806004870152613f35613f228d60848901906129fd565b60031994858983030160248a0152611f92565b92868403016044870152612a15565b90606483015203925af19081156104fa577f64b6e61d93b7a91e8cc4376183ede0997a27b44fd9dd2f30a866b2a5730efdb19261349392613f8d575b5060405191829182613caa565b613f969061155d565b5f613f80565b61020180546001600160a01b0319166001600160a01b03929092169182179055337fda2bcad4d57ac529886ff995d07bce191c08b5424c8f5824de6c73f90cc623d45f80a3565b9190613fed6135ea565b6001600160a01b038316908115610e3257801561408f5780614014611d5e60985460801c90565b019361401e6127b5565b851161407d57610cdd9461404091612eb761403885613b04565b978893612fff565b60408051918252602082018590525f9082015233907f861a4138e41fb21c121a7dbb1053df465c837fc77380cc7226189a662281be2c90606090a3565b6040516304ffa0ff60e51b8152600490fd5b6040516318374fd160e21b8152600490fd5b6140aa82612fff565b609854906140c26001600160801b03918284166125da565b16906001600160801b0319161760985560018060a01b03165f52609c60205260405f20908154019055565b90808210156127dd575090565b609a5490600160401b821015611558576001820180609a55821015612af657609a5f52805160209091015160a01b6001600160a01b0319166001600160a01b0391909116175f805160206149d183398151915290910155565b9081158015614232575b61422057609a54806141ea57505f905b6001600160a01b03918216928301928310611aae578183116141ca576115b992916141b561419d6141c59361484c565b916141a66115ac565b94166001600160a01b03168452565b6001600160601b03166020830152565b6140fa565b6040516306dfcc6560e41b815260a0600482015260248101849052604490fd5b609a5f527f44da158ba27f9252712a74ff6a55c5d531f69609f1f6e7f17c4443a8e2089be301546001600160a01b03169061416d565b604051632ec8835b60e21b8152600490fd5b50801561415d565b604051630156a69560e11b81523060048201526020816024817f00000000000000000000000000000000000000000000000000000000000000006001600160a01b03165afa9081156104fa575f91614290575090565b610a26915060203d60201161178457611775818361158b565b60018060a01b03165f52609c60205260405f20908154818103908111611aae576142d39255612fff565b609854906001600160801b03908183160316906001600160801b03191617609855565b60ff5f80516020614a118339815191525460401c161561431257565b604051631afcd79f60e31b8152600490fd5b61432c6142f6565b8015614342576001810161433d5750565b609d55565b6040516331278a8760e01b8152600490fd5b61435c6142f6565b6801bc16d674ec80000061436e6127b5565b1061434257565b61437d6142f6565b6001600160a01b03168061438e5750565b61016a80546001600160a01b0319169091179055565b6143ac6142f6565b6143b46142f6565b6143bc6142f6565b60017f9b779b17422d0df92223018b32b4d1fa46e071723d6817e2486d003becc55f0055633b9aca0034106143f5576125c83430613fe3565b60405163ea2559bb60e01b8152600490fd5b90816020910312610330575160ff811681036103305790565b6040516352d1902d60e01b81529290916020846004816001600160a01b0387165afa5f94816144aa575b5061447057604051634c9c8ce360e01b81526001600160a01b0384166004820152602490fd5b90915f805160206149f18339815191528403614491576115b992935061487f565b604051632a87526960e21b815260048101859052602490fd5b6144c491955060203d6020116104f3576104e4818361158b565b935f61444a565b6001600160a01b0381165f908152610137602052604090206144ec906124ff565b906001600160801b0361450683516001600160801b031690565b1615614660576107da61453d9161451b6135ea565b61452484612f4f565b6001600160a01b03165f908152609c6020526040902090565b604051631331885160e31b8152602092916001600160a01b0384836004817f000000000000000000000000000000000000000000000000000000000000000085165afa9182156104fa576145a086936145ae926145da965f926146485750613055565b94516001600160801b031690565b6040516303d1689d60e11b81526001600160801b03909116600482015292839190829081906024820190565b03917f0000000000000000000000000000000000000000000000000000000000000000165afa9283156104fa575f93614629575b50501061461757565b604051633684c65960e01b8152600490fd5b614640929350803d106104f3576104e4818361158b565b905f8061460e565b61094c919250863d88116104f3576104e4818361158b565b5050565b604051600160f81b60208201525f60218201523060601b602c82015260208152610a268161153d565b5f198114611aae5760010190565b35610a2681610536565b92939190918051936146b78486612871565b6146c087612863565b03614702576146ce86613bbe565b945f8094885f965f5b82811061473a57505015915061471490505750505003614702576146fe915f190190612ba2565b5190565b604051631a8a024960e11b8152600490fd5b91955092935015905061472c5750506146fe90612b95565b6147369250613c38565b3590565b8a868610156147ed575061476c6147678261475e6147578961468d565b988c612ba2565b51955b87613c41565b61469b565b156147d2578a868610156147b1575061479d6001929361479561478e8861468d565b978b612ba2565b515b90614921565b6147a7828d612ba2565b5201908a916146d7565b9261479d906147cc846147c66001969161468d565b96612ba2565b51614797565b61479d60019293613e796147e58c61468d565b9b8d8b613c41565b9161476782614803836147c661476c959161468d565b5195614761565b609a548061481757505f90565b609a5f527f44da158ba27f9252712a74ff6a55c5d531f69609f1f6e7f17c4443a8e2089be301546001600160a01b031661187f565b6001600160601b0390818111614860571690565b604490604051906306dfcc6560e41b8252606060048301526024820152fd5b90813b15614900575f805160206149f183398151915280546001600160a01b0319166001600160a01b0384169081179091557fbc7cd75a20ee27fd9adebab32041f755214dbc6bffa90cc0225b39da2e5c2d3b5f80a28051156148e5576125c891614942565b5050346148ee57565b60405163b398979f60e01b8152600490fd5b604051634c9c8ce360e01b81526001600160a01b0383166004820152602490fd5b81811015614935575f5260205260405f2090565b905f5260205260405f2090565b5f80610a2693602081519101845af4614959612b08565b9161497f565b61496761423a565b61496d57565b6040516389a1dc6360e01b8152600490fd5b906149945750805115613a7e57805190602001fd5b815115806149c7575b6149a5575090565b604051639996b31560e01b81526001600160a01b039091166004820152602490fd5b50803b1561499d56fe44da158ba27f9252712a74ff6a55c5d531f69609f1f6e7f17c4443a8e2089be4360894a13ba1a3210667c828492db98dca3e2076cc3735a920a3ca505d382bbcf0c57e16840df040f15088dc2f81fe391c3923bec73e23a9662efc9c229c6a00a2646970667358221220b65b21247b3d0da849e2508eba27c779ad5d2fbc94ae7abbc6a25ce14aaea84a64736f6c63430008160033",
  "linkReferences": {},
  "deployedLinkReferences": {}
}