{
  "_format": "hh-sol-artifact-1",
  "contractName": "EthPrivVault",
  "sourceName": "contracts/vaults/ethereum/EthPrivVault.sol",
  "abi": [
    {
      "inputs": [
        {
          "internalType": "address",
          "name": "_keeper",
          "type": "address"
        },
        {
          "internalType": "address",
          "name": "_vaultsRegistry",
          "type": "address"
        },
        {
          "internalType": "address",
          "name": "_validatorsRegistry",
          "type": "address"
        },
        {
          "internalType": "address",
          "name": "osTokenVaultController",
          "type": "address"
        },
        {
          "internalType": "address",
          "name": "osTokenConfig",
          "type": "address"
        },
        {
          "internalType": "address",
          "name": "sharedMevEscrow",
          "type": "address"
        },
        {
          "internalType": "address",
          "name": "depositDataRegistry",
          "type": "address"
        },
        {
          "internalType": "uint256",
          "name": "exitingAssetsClaimDelay",
          "type": "uint256"
        }
      ],
      "stateMutability": "nonpayable",
      "type": "constructor"
    },
    {
      "inputs": [],
      "name": "AccessDenied",
      "type": "error"
    },
    {
      "inputs": [
        {
          "internalType": "address",
          "name": "target",
          "type": "address"
        }
      ],
      "name": "AddressEmptyCode",
      "type": "error"
    },
    {
      "inputs": [
        {
          "internalType": "address",
          "name": "account",
          "type": "address"
        }
      ],
      "name": "AddressInsufficientBalance",
      "type": "error"
    },
    {
      "inputs": [],
      "name": "CapacityExceeded",
      "type": "error"
    },
    {
      "inputs": [
        {
          "internalType": "address",
          "name": "implementation",
          "type": "address"
        }
      ],
      "name": "ERC1967InvalidImplementation",
      "type": "error"
    },
    {
      "inputs": [],
      "name": "ERC1967NonPayable",
      "type": "error"
    },
    {
      "inputs": [],
      "name": "ExitRequestNotProcessed",
      "type": "error"
    },
    {
      "inputs": [],
      "name": "FailedInnerCall",
      "type": "error"
    },
    {
      "inputs": [],
      "name": "InsufficientAssets",
      "type": "error"
    },
    {
      "inputs": [],
      "name": "InvalidAssets",
      "type": "error"
    },
    {
      "inputs": [],
      "name": "InvalidCapacity",
      "type": "error"
    },
    {
      "inputs": [],
      "name": "InvalidCheckpointIndex",
      "type": "error"
    },
    {
      "inputs": [],
      "name": "InvalidCheckpointValue",
      "type": "error"
    },
    {
      "inputs": [],
      "name": "InvalidFeePercent",
      "type": "error"
    },
    {
      "inputs": [],
      "name": "InvalidFeeRecipient",
      "type": "error"
    },
    {
      "inputs": [],
      "name": "InvalidHealthFactor",
      "type": "error"
    },
    {
      "inputs": [],
      "name": "InvalidInitialization",
      "type": "error"
    },
    {
      "inputs": [],
      "name": "InvalidPosition",
      "type": "error"
    },
    {
      "inputs": [],
      "name": "InvalidReceivedAssets",
      "type": "error"
    },
    {
      "inputs": [],
      "name": "InvalidSecurityDeposit",
      "type": "error"
    },
    {
      "inputs": [],
      "name": "InvalidShares",
      "type": "error"
    },
    {
      "inputs": [],
      "name": "InvalidValidators",
      "type": "error"
    },
    {
      "inputs": [],
      "name": "LiquidationDisabled",
      "type": "error"
    },
    {
      "inputs": [],
      "name": "LowLtv",
      "type": "error"
    },
    {
      "inputs": [],
      "name": "MathOverflowedMulDiv",
      "type": "error"
    },
    {
      "inputs": [],
      "name": "NotCollateralized",
      "type": "error"
    },
    {
      "inputs": [],
      "name": "NotHarvested",
      "type": "error"
    },
    {
      "inputs": [],
      "name": "NotInitializing",
      "type": "error"
    },
    {
      "inputs": [],
      "name": "ReentrancyGuardReentrantCall",
      "type": "error"
    },
    {
      "inputs": [
        {
          "internalType": "uint8",
          "name": "bits",
          "type": "uint8"
        },
        {
          "internalType": "uint256",
          "name": "value",
          "type": "uint256"
        }
      ],
      "name": "SafeCastOverflowedUintDowncast",
      "type": "error"
    },
    {
      "inputs": [],
      "name": "UUPSUnauthorizedCallContext",
      "type": "error"
    },
    {
      "inputs": [
        {
          "internalType": "bytes32",
          "name": "slot",
          "type": "bytes32"
        }
      ],
      "name": "UUPSUnsupportedProxiableUUID",
      "type": "error"
    },
    {
      "inputs": [],
      "name": "UpgradeFailed",
      "type": "error"
    },
    {
      "inputs": [],
      "name": "ZeroAddress",
      "type": "error"
    },
    {
      "anonymous": false,
      "inputs": [
        {
          "indexed": false,
          "internalType": "uint256",
          "name": "shares",
          "type": "uint256"
        },
        {
          "indexed": false,
          "internalType": "uint256",
          "name": "assets",
          "type": "uint256"
        }
      ],
      "name": "CheckpointCreated",
      "type": "event"
    },
    {
      "anonymous": false,
      "inputs": [
        {
          "indexed": true,
          "internalType": "address",
          "name": "caller",
          "type": "address"
        },
        {
          "indexed": true,
          "internalType": "address",
          "name": "receiver",
          "type": "address"
        },
        {
          "indexed": false,
          "internalType": "uint256",
          "name": "assets",
          "type": "uint256"
        },
        {
          "indexed": false,
          "internalType": "uint256",
          "name": "shares",
          "type": "uint256"
        },
        {
          "indexed": false,
          "internalType": "address",
          "name": "referrer",
          "type": "address"
        }
      ],
      "name": "Deposited",
      "type": "event"
    },
    {
      "anonymous": false,
      "inputs": [
        {
          "indexed": true,
          "internalType": "address",
          "name": "owner",
          "type": "address"
        },
        {
          "indexed": true,
          "internalType": "address",
          "name": "receiver",
          "type": "address"
        },
        {
          "indexed": false,
          "internalType": "uint256",
          "name": "positionTicket",
          "type": "uint256"
        },
        {
          "indexed": false,
          "internalType": "uint256",
          "name": "shares",
          "type": "uint256"
        }
      ],
      "name": "ExitQueueEntered",
      "type": "event"
    },
    {
      "anonymous": false,
      "inputs": [
        {
          "indexed": true,
          "internalType": "address",
          "name": "receiver",
          "type": "address"
        },
        {
          "indexed": false,
          "internalType": "uint256",
          "name": "prevPositionTicket",
          "type": "uint256"
        },
        {
          "indexed": false,
          "internalType": "uint256",
          "name": "newPositionTicket",
          "type": "uint256"
        },
        {
          "indexed": false,
          "internalType": "uint256",
          "name": "withdrawnAssets",
          "type": "uint256"
        }
      ],
      "name": "ExitedAssetsClaimed",
      "type": "event"
    },
    {
      "anonymous": false,
      "inputs": [
        {
          "indexed": false,
          "internalType": "uint256",
          "name": "penalty",
          "type": "uint256"
        }
      ],
      "name": "ExitingAssetsPenalized",
      "type": "event"
    },
    {
      "anonymous": false,
      "inputs": [
        {
          "indexed": true,
          "internalType": "address",
          "name": "caller",
          "type": "address"
        },
        {
          "indexed": true,
          "internalType": "address",
          "name": "feeRecipient",
          "type": "address"
        }
      ],
      "name": "FeeRecipientUpdated",
      "type": "event"
    },
    {
      "anonymous": false,
      "inputs": [
        {
          "indexed": false,
          "internalType": "address",
          "name": "receiver",
          "type": "address"
        },
        {
          "indexed": false,
          "internalType": "uint256",
          "name": "shares",
          "type": "uint256"
        },
        {
          "indexed": false,
          "internalType": "uint256",
          "name": "assets",
          "type": "uint256"
        }
      ],
      "name": "FeeSharesMinted",
      "type": "event"
    },
    {
      "anonymous": false,
      "inputs": [
        {
          "indexed": false,
          "internalType": "uint64",
          "name": "version",
          "type": "uint64"
        }
      ],
      "name": "Initialized",
      "type": "event"
    },
    {
      "anonymous": false,
      "inputs": [
        {
          "indexed": true,
          "internalType": "address",
          "name": "caller",
          "type": "address"
        },
        {
          "indexed": true,
          "internalType": "address",
          "name": "keysManager",
          "type": "address"
        }
      ],
      "name": "KeysManagerUpdated",
      "type": "event"
    },
    {
      "anonymous": false,
      "inputs": [
        {
          "indexed": true,
          "internalType": "address",
          "name": "caller",
          "type": "address"
        },
        {
          "indexed": false,
          "internalType": "string",
          "name": "metadataIpfsHash",
          "type": "string"
        }
      ],
      "name": "MetadataUpdated",
      "type": "event"
    },
    {
      "anonymous": false,
      "inputs": [
        {
          "indexed": true,
          "internalType": "address",
          "name": "caller",
          "type": "address"
        },
        {
          "indexed": false,
          "internalType": "uint256",
          "name": "assets",
          "type": "uint256"
        },
        {
          "indexed": false,
          "internalType": "uint256",
          "name": "shares",
          "type": "uint256"
        }
      ],
      "name": "OsTokenBurned",
      "type": "event"
    },
    {
      "anonymous": false,
      "inputs": [
        {
          "indexed": true,
          "internalType": "address",
          "name": "caller",
          "type": "address"
        },
        {
          "indexed": true,
          "internalType": "address",
          "name": "user",
          "type": "address"
        },
        {
          "indexed": false,
          "internalType": "address",
          "name": "receiver",
          "type": "address"
        },
        {
          "indexed": false,
          "internalType": "uint256",
          "name": "osTokenShares",
          "type": "uint256"
        },
        {
          "indexed": false,
          "internalType": "uint256",
          "name": "shares",
          "type": "uint256"
        },
        {
          "indexed": false,
          "internalType": "uint256",
          "name": "receivedAssets",
          "type": "uint256"
        }
      ],
      "name": "OsTokenLiquidated",
      "type": "event"
    },
    {
      "anonymous": false,
      "inputs": [
        {
          "indexed": true,
          "internalType": "address",
          "name": "caller",
          "type": "address"
        },
        {
          "indexed": false,
          "internalType": "address",
          "name": "receiver",
          "type": "address"
        },
        {
          "indexed": false,
          "internalType": "uint256",
          "name": "assets",
          "type": "uint256"
        },
        {
          "indexed": false,
          "internalType": "uint256",
          "name": "shares",
          "type": "uint256"
        },
        {
          "indexed": false,
          "internalType": "address",
          "name": "referrer",
          "type": "address"
        }
      ],
      "name": "OsTokenMinted",
      "type": "event"
    },
    {
      "anonymous": false,
      "inputs": [
        {
          "indexed": true,
          "internalType": "address",
          "name": "caller",
          "type": "address"
        },
        {
          "indexed": true,
          "internalType": "address",
          "name": "user",
          "type": "address"
        },
        {
          "indexed": false,
          "internalType": "address",
          "name": "receiver",
          "type": "address"
        },
        {
          "indexed": false,
          "internalType": "uint256",
          "name": "osTokenShares",
          "type": "uint256"
        },
        {
          "indexed": false,
          "internalType": "uint256",
          "name": "shares",
          "type": "uint256"
        },
        {
          "indexed": false,
          "internalType": "uint256",
          "name": "assets",
          "type": "uint256"
        }
      ],
      "name": "OsTokenRedeemed",
      "type": "event"
    },
    {
      "anonymous": false,
      "inputs": [
        {
          "indexed": true,
          "internalType": "address",
          "name": "owner",
          "type": "address"
        },
        {
          "indexed": true,
          "internalType": "address",
          "name": "receiver",
          "type": "address"
        },
        {
          "indexed": false,
          "internalType": "uint256",
          "name": "assets",
          "type": "uint256"
        },
        {
          "indexed": false,
          "internalType": "uint256",
          "name": "shares",
          "type": "uint256"
        }
      ],
      "name": "Redeemed",
      "type": "event"
    },
    {
      "anonymous": false,
      "inputs": [
        {
          "indexed": true,
          "internalType": "address",
          "name": "implementation",
          "type": "address"
        }
      ],
      "name": "Upgraded",
      "type": "event"
    },
    {
      "anonymous": false,
      "inputs": [
        {
          "indexed": true,
          "internalType": "address",
          "name": "owner",
          "type": "address"
        },
        {
          "indexed": true,
          "internalType": "address",
          "name": "receiver",
          "type": "address"
        },
        {
          "indexed": false,
          "internalType": "uint256",
          "name": "positionTicket",
          "type": "uint256"
        },
        {
          "indexed": false,
          "internalType": "uint256",
          "name": "shares",
          "type": "uint256"
        },
        {
          "indexed": false,
          "internalType": "uint256",
          "name": "assets",
          "type": "uint256"
        }
      ],
      "name": "V2ExitQueueEntered",
      "type": "event"
    },
    {
      "anonymous": false,
      "inputs": [
        {
          "indexed": false,
          "internalType": "bytes",
          "name": "publicKey",
          "type": "bytes"
        }
      ],
      "name": "ValidatorRegistered",
      "type": "event"
    },
    {
      "anonymous": false,
      "inputs": [
        {
          "indexed": true,
          "internalType": "address",
          "name": "caller",
          "type": "address"
        },
        {
          "indexed": true,
          "internalType": "address",
          "name": "validatorsManager",
          "type": "address"
        }
      ],
      "name": "ValidatorsManagerUpdated",
      "type": "event"
    },
    {
      "anonymous": false,
      "inputs": [
        {
          "indexed": true,
          "internalType": "address",
          "name": "caller",
          "type": "address"
        },
        {
          "indexed": true,
          "internalType": "bytes32",
          "name": "validatorsRoot",
          "type": "bytes32"
        }
      ],
      "name": "ValidatorsRootUpdated",
      "type": "event"
    },
    {
      "anonymous": false,
      "inputs": [
        {
          "indexed": true,
          "internalType": "address",
          "name": "caller",
          "type": "address"
        },
        {
          "indexed": true,
          "internalType": "address",
          "name": "account",
          "type": "address"
        },
        {
          "indexed": false,
          "internalType": "bool",
          "name": "approved",
          "type": "bool"
        }
      ],
      "name": "WhitelistUpdated",
      "type": "event"
    },
    {
      "anonymous": false,
      "inputs": [
        {
          "indexed": true,
          "internalType": "address",
          "name": "caller",
          "type": "address"
        },
        {
          "indexed": true,
          "internalType": "address",
          "name": "whitelister",
          "type": "address"
        }
      ],
      "name": "WhitelisterUpdated",
      "type": "event"
    },
    {
      "inputs": [],
      "name": "UPGRADE_INTERFACE_VERSION",
      "outputs": [
        {
          "internalType": "string",
          "name": "",
          "type": "string"
        }
      ],
      "stateMutability": "view",
      "type": "function"
    },
    {
      "inputs": [],
      "name": "admin",
      "outputs": [
        {
          "internalType": "address",
          "name": "",
          "type": "address"
        }
      ],
      "stateMutability": "view",
      "type": "function"
    },
    {
      "inputs": [
        {
          "internalType": "uint128",
          "name": "osTokenShares",
          "type": "uint128"
        }
      ],
      "name": "burnOsToken",
      "outputs": [
        {
          "internalType": "uint256",
          "name": "assets",
          "type": "uint256"
        }
      ],
      "stateMutability": "nonpayable",
      "type": "function"
    },
    {
      "inputs": [
        {
          "internalType": "address",
          "name": "receiver",
          "type": "address"
        },
        {
          "internalType": "uint256",
          "name": "positionTicket",
          "type": "uint256"
        },
        {
          "internalType": "uint256",
          "name": "timestamp",
          "type": "uint256"
        },
        {
          "internalType": "uint256",
          "name": "exitQueueIndex",
          "type": "uint256"
        }
      ],
      "name": "calculateExitedAssets",
      "outputs": [
        {
          "internalType": "uint256",
          "name": "leftTickets",
          "type": "uint256"
        },
        {
          "internalType": "uint256",
          "name": "exitedTickets",
          "type": "uint256"
        },
        {
          "internalType": "uint256",
          "name": "exitedAssets",
          "type": "uint256"
        }
      ],
      "stateMutability": "view",
      "type": "function"
    },
    {
      "inputs": [],
      "name": "capacity",
      "outputs": [
        {
          "internalType": "uint256",
          "name": "",
          "type": "uint256"
        }
      ],
      "stateMutability": "view",
      "type": "function"
    },
    {
      "inputs": [
        {
          "internalType": "uint256",
          "name": "positionTicket",
          "type": "uint256"
        },
        {
          "internalType": "uint256",
          "name": "timestamp",
          "type": "uint256"
        },
        {
          "internalType": "uint256",
          "name": "exitQueueIndex",
          "type": "uint256"
        }
      ],
      "name": "claimExitedAssets",
      "outputs": [],
      "stateMutability": "nonpayable",
      "type": "function"
    },
    {
      "inputs": [
        {
          "internalType": "uint256",
          "name": "shares",
          "type": "uint256"
        }
      ],
      "name": "convertToAssets",
      "outputs": [
        {
          "internalType": "uint256",
          "name": "assets",
          "type": "uint256"
        }
      ],
      "stateMutability": "view",
      "type": "function"
    },
    {
      "inputs": [
        {
          "internalType": "uint256",
          "name": "assets",
          "type": "uint256"
        }
      ],
      "name": "convertToShares",
      "outputs": [
        {
          "internalType": "uint256",
          "name": "shares",
          "type": "uint256"
        }
      ],
      "stateMutability": "view",
      "type": "function"
    },
    {
      "inputs": [
        {
          "internalType": "address",
          "name": "receiver",
          "type": "address"
        },
        {
          "internalType": "address",
          "name": "referrer",
          "type": "address"
        }
      ],
      "name": "deposit",
      "outputs": [
        {
          "internalType": "uint256",
          "name": "shares",
          "type": "uint256"
        }
      ],
      "stateMutability": "payable",
      "type": "function"
    },
    {
      "inputs": [
        {
          "internalType": "address",
          "name": "receiver",
          "type": "address"
        },
        {
          "internalType": "uint256",
          "name": "osTokenShares",
          "type": "uint256"
        },
        {
          "internalType": "address",
          "name": "referrer",
          "type": "address"
        }
      ],
      "name": "depositAndMintOsToken",
      "outputs": [
        {
          "internalType": "uint256",
          "name": "",
          "type": "uint256"
        }
      ],
      "stateMutability": "payable",
      "type": "function"
    },
    {
      "inputs": [
        {
          "internalType": "uint256",
          "name": "shares",
          "type": "uint256"
        },
        {
          "internalType": "address",
          "name": "receiver",
          "type": "address"
        }
      ],
      "name": "enterExitQueue",
      "outputs": [
        {
          "internalType": "uint256",
          "name": "positionTicket",
          "type": "uint256"
        }
      ],
      "stateMutability": "nonpayable",
      "type": "function"
    },
    {
      "inputs": [],
      "name": "feePercent",
      "outputs": [
        {
          "internalType": "uint16",
          "name": "",
          "type": "uint16"
        }
      ],
      "stateMutability": "view",
      "type": "function"
    },
    {
      "inputs": [],
      "name": "feeRecipient",
      "outputs": [
        {
          "internalType": "address",
          "name": "",
          "type": "address"
        }
      ],
      "stateMutability": "view",
      "type": "function"
    },
    {
      "inputs": [
        {
          "internalType": "uint256",
          "name": "positionTicket",
          "type": "uint256"
        }
      ],
      "name": "getExitQueueIndex",
      "outputs": [
        {
          "internalType": "int256",
          "name": "",
          "type": "int256"
        }
      ],
      "stateMutability": "view",
      "type": "function"
    },
    {
      "inputs": [
        {
          "internalType": "address",
          "name": "account",
          "type": "address"
        }
      ],
      "name": "getShares",
      "outputs": [
        {
          "internalType": "uint256",
          "name": "",
          "type": "uint256"
        }
      ],
      "stateMutability": "view",
      "type": "function"
    },
    {
      "inputs": [],
      "name": "implementation",
      "outputs": [
        {
          "internalType": "address",
          "name": "",
          "type": "address"
        }
      ],
      "stateMutability": "view",
      "type": "function"
    },
    {
      "inputs": [
        {
          "internalType": "bytes",
          "name": "params",
          "type": "bytes"
        }
      ],
      "name": "initialize",
      "outputs": [],
      "stateMutability": "payable",
      "type": "function"
    },
    {
      "inputs": [],
      "name": "isStateUpdateRequired",
      "outputs": [
        {
          "internalType": "bool",
          "name": "",
          "type": "bool"
        }
      ],
      "stateMutability": "view",
      "type": "function"
    },
    {
      "inputs": [
        {
          "internalType": "uint256",
          "name": "osTokenShares",
          "type": "uint256"
        },
        {
          "internalType": "address",
          "name": "owner",
          "type": "address"
        },
        {
          "internalType": "address",
          "name": "receiver",
          "type": "address"
        }
      ],
      "name": "liquidateOsToken",
      "outputs": [],
      "stateMutability": "nonpayable",
      "type": "function"
    },
    {
      "inputs": [],
      "name": "mevEscrow",
      "outputs": [
        {
          "internalType": "address",
          "name": "",
          "type": "address"
        }
      ],
      "stateMutability": "view",
      "type": "function"
    },
    {
      "inputs": [
        {
          "internalType": "address",
          "name": "receiver",
          "type": "address"
        },
        {
          "internalType": "uint256",
          "name": "osTokenShares",
          "type": "uint256"
        },
        {
          "internalType": "address",
          "name": "referrer",
          "type": "address"
        }
      ],
      "name": "mintOsToken",
      "outputs": [
        {
          "internalType": "uint256",
          "name": "assets",
          "type": "uint256"
        }
      ],
      "stateMutability": "nonpayable",
      "type": "function"
    },
    {
      "inputs": [
        {
          "internalType": "bytes[]",
          "name": "data",
          "type": "bytes[]"
        }
      ],
      "name": "multicall",
      "outputs": [
        {
          "internalType": "bytes[]",
          "name": "results",
          "type": "bytes[]"
        }
      ],
      "stateMutability": "nonpayable",
      "type": "function"
    },
    {
      "inputs": [
        {
          "internalType": "address",
          "name": "user",
          "type": "address"
        }
      ],
      "name": "osTokenPositions",
      "outputs": [
        {
          "internalType": "uint128",
          "name": "shares",
          "type": "uint128"
        }
      ],
      "stateMutability": "view",
      "type": "function"
    },
    {
      "inputs": [],
      "name": "proxiableUUID",
      "outputs": [
        {
          "internalType": "bytes32",
          "name": "",
          "type": "bytes32"
        }
      ],
      "stateMutability": "view",
      "type": "function"
    },
    {
      "inputs": [],
      "name": "queuedShares",
      "outputs": [
        {
          "internalType": "uint128",
          "name": "",
          "type": "uint128"
        }
      ],
      "stateMutability": "view",
      "type": "function"
    },
    {
      "inputs": [],
      "name": "receiveFromMevEscrow",
      "outputs": [],
      "stateMutability": "payable",
      "type": "function"
    },
    {
      "inputs": [
        {
          "internalType": "uint256",
          "name": "osTokenShares",
          "type": "uint256"
        },
        {
          "internalType": "address",
          "name": "owner",
          "type": "address"
        },
        {
          "internalType": "address",
          "name": "receiver",
          "type": "address"
        }
      ],
      "name": "redeemOsToken",
      "outputs": [],
      "stateMutability": "nonpayable",
      "type": "function"
    },
    {
      "inputs": [
        {
          "components": [
            {
              "internalType": "bytes32",
              "name": "validatorsRegistryRoot",
              "type": "bytes32"
            },
            {
              "internalType": "uint256",
              "name": "deadline",
              "type": "uint256"
            },
            {
              "internalType": "bytes",
              "name": "validators",
              "type": "bytes"
            },
            {
              "internalType": "bytes",
              "name": "signatures",
              "type": "bytes"
            },
            {
              "internalType": "string",
              "name": "exitSignaturesIpfsHash",
              "type": "string"
            }
          ],
          "internalType": "struct IKeeperValidators.ApprovalParams",
          "name": "keeperParams",
          "type": "tuple"
        },
        {
          "internalType": "bytes",
          "name": "validatorsManagerSignature",
          "type": "bytes"
        }
      ],
      "name": "registerValidators",
      "outputs": [],
      "stateMutability": "nonpayable",
      "type": "function"
    },
    {
      "inputs": [
        {
          "internalType": "address",
          "name": "_feeRecipient",
          "type": "address"
        }
      ],
      "name": "setFeeRecipient",
      "outputs": [],
      "stateMutability": "nonpayable",
      "type": "function"
    },
    {
      "inputs": [
        {
          "internalType": "string",
          "name": "metadataIpfsHash",
          "type": "string"
        }
      ],
      "name": "setMetadata",
      "outputs": [],
      "stateMutability": "nonpayable",
      "type": "function"
    },
    {
      "inputs": [
        {
          "internalType": "address",
          "name": "validatorsManager_",
          "type": "address"
        }
      ],
      "name": "setValidatorsManager",
      "outputs": [],
      "stateMutability": "nonpayable",
      "type": "function"
    },
    {
      "inputs": [
        {
          "internalType": "address",
          "name": "_whitelister",
          "type": "address"
        }
      ],
      "name": "setWhitelister",
      "outputs": [],
      "stateMutability": "nonpayable",
      "type": "function"
    },
    {
      "inputs": [],
      "name": "totalAssets",
      "outputs": [
        {
          "internalType": "uint256",
          "name": "",
          "type": "uint256"
        }
      ],
      "stateMutability": "view",
      "type": "function"
    },
    {
      "inputs": [],
      "name": "totalExitingAssets",
      "outputs": [
        {
          "internalType": "uint128",
          "name": "",
          "type": "uint128"
        }
      ],
      "stateMutability": "view",
      "type": "function"
    },
    {
      "inputs": [],
      "name": "totalShares",
      "outputs": [
        {
          "internalType": "uint256",
          "name": "",
          "type": "uint256"
        }
      ],
      "stateMutability": "view",
      "type": "function"
    },
    {
      "inputs": [
        {
          "components": [
            {
              "internalType": "bytes32",
              "name": "rewardsRoot",
              "type": "bytes32"
            },
            {
              "internalType": "int160",
              "name": "reward",
              "type": "int160"
            },
            {
              "internalType": "uint160",
              "name": "unlockedMevReward",
              "type": "uint160"
            },
            {
              "internalType": "bytes32[]",
              "name": "proof",
              "type": "bytes32[]"
            }
          ],
          "internalType": "struct IKeeperRewards.HarvestParams",
          "name": "harvestParams",
          "type": "tuple"
        }
      ],
      "name": "updateState",
      "outputs": [],
      "stateMutability": "nonpayable",
      "type": "function"
    },
    {
      "inputs": [
        {
          "internalType": "address",
          "name": "receiver",
          "type": "address"
        },
        {
          "internalType": "address",
          "name": "referrer",
          "type": "address"
        },
        {
          "components": [
            {
              "internalType": "bytes32",
              "name": "rewardsRoot",
              "type": "bytes32"
            },
            {
              "internalType": "int160",
              "name": "reward",
              "type": "int160"
            },
            {
              "internalType": "uint160",
              "name": "unlockedMevReward",
              "type": "uint160"
            },
            {
              "internalType": "bytes32[]",
              "name": "proof",
              "type": "bytes32[]"
            }
          ],
          "internalType": "struct IKeeperRewards.HarvestParams",
          "name": "harvestParams",
          "type": "tuple"
        }
      ],
      "name": "updateStateAndDeposit",
      "outputs": [
        {
          "internalType": "uint256",
          "name": "shares",
          "type": "uint256"
        }
      ],
      "stateMutability": "payable",
      "type": "function"
    },
    {
      "inputs": [
        {
          "internalType": "address",
          "name": "receiver",
          "type": "address"
        },
        {
          "internalType": "uint256",
          "name": "osTokenShares",
          "type": "uint256"
        },
        {
          "internalType": "address",
          "name": "referrer",
          "type": "address"
        },
        {
          "components": [
            {
              "internalType": "bytes32",
              "name": "rewardsRoot",
              "type": "bytes32"
            },
            {
              "internalType": "int160",
              "name": "reward",
              "type": "int160"
            },
            {
              "internalType": "uint160",
              "name": "unlockedMevReward",
              "type": "uint160"
            },
            {
              "internalType": "bytes32[]",
              "name": "proof",
              "type": "bytes32[]"
            }
          ],
          "internalType": "struct IKeeperRewards.HarvestParams",
          "name": "harvestParams",
          "type": "tuple"
        }
      ],
      "name": "updateStateAndDepositAndMintOsToken",
      "outputs": [
        {
          "internalType": "uint256",
          "name": "",
          "type": "uint256"
        }
      ],
      "stateMutability": "payable",
      "type": "function"
    },
    {
      "inputs": [
        {
          "internalType": "address",
          "name": "account",
          "type": "address"
        },
        {
          "internalType": "bool",
          "name": "approved",
          "type": "bool"
        }
      ],
      "name": "updateWhitelist",
      "outputs": [],
      "stateMutability": "nonpayable",
      "type": "function"
    },
    {
      "inputs": [
        {
          "internalType": "address",
          "name": "newImplementation",
          "type": "address"
        },
        {
          "internalType": "bytes",
          "name": "data",
          "type": "bytes"
        }
      ],
      "name": "upgradeToAndCall",
      "outputs": [],
      "stateMutability": "payable",
      "type": "function"
    },
    {
      "inputs": [],
      "name": "validatorsManager",
      "outputs": [
        {
          "internalType": "address",
          "name": "",
          "type": "address"
        }
      ],
      "stateMutability": "view",
      "type": "function"
    },
    {
      "inputs": [],
      "name": "vaultId",
      "outputs": [
        {
          "internalType": "bytes32",
          "name": "",
          "type": "bytes32"
        }
      ],
      "stateMutability": "pure",
      "type": "function"
    },
    {
      "inputs": [],
      "name": "version",
      "outputs": [
        {
          "internalType": "uint8",
          "name": "",
          "type": "uint8"
        }
      ],
      "stateMutability": "pure",
      "type": "function"
    },
    {
      "inputs": [
        {
          "internalType": "address",
          "name": "",
          "type": "address"
        }
      ],
      "name": "whitelistedAccounts",
      "outputs": [
        {
          "internalType": "bool",
          "name": "",
          "type": "bool"
        }
      ],
      "stateMutability": "view",
      "type": "function"
    },
    {
      "inputs": [],
      "name": "whitelister",
      "outputs": [
        {
          "internalType": "address",
          "name": "",
          "type": "address"
        }
      ],
      "stateMutability": "view",
      "type": "function"
    },
    {
      "inputs": [],
      "name": "withdrawableAssets",
      "outputs": [
        {
          "internalType": "uint256",
          "name": "",
          "type": "uint256"
        }
      ],
      "stateMutability": "view",
      "type": "function"
    },
    {
      "stateMutability": "payable",
      "type": "receive"
    }
  ],
  "bytecode": "0x6101c0346200024c576001600160401b0362004e6b601f38829003908101601f191684019083821185831017620002505780859360409384528439610100948591810103126200024c57620000548262000264565b91620000636020820162000264565b926200007183830162000264565b92620000806060840162000264565b926200008f6080820162000264565b946200009e60a0830162000264565b9660e0620000af60c0850162000264565b9301519460805260a05260c0523060e05287526101209546875261014092835260018060a01b038061016095168552610180951685526101a09586527ff0c57e16840df040f15088dc2f81fe391c3923bec73e23a9662efc9c229c6a009081549060ff82851c166200023b578080831603620001f6575b5050505194614bf196876200027a88396080518781816113db0152818161157301528181612cf701528181613ade0152614519015260a0518761112e015260c051878181613dce0152613eef015260e0518781816112ae01526137c6015251868181612986015261362101525185613b54015251846117190152518381816104170152818161071a0152818161206a015281816129d0015281816131be01526135580152518281816107d901528181610d9c0152818161327d01526134dc0152518181816122970152612d3f0152f35b6001600160401b0319909116811790915581519081527fc7f505b2f371ae2175ee4913f4499e1f2633a7b5936321eed1cdaeb6115181d290602090a15f808062000126565b835163f92ee8a960e01b8152600490fd5b5f80fd5b634e487b7160e01b5f52604160045260245ffd5b51906001600160a01b03821682036200024c5756fe60806040526004361015610022575b3615610018575f80fd5b6100206129a8565b005b5f3560e01c806301d523b61461030157806301e1d114146102fc578063066055e0146102f757806307a2d13a146102f25780630d392cd9146102ed57806318f72950146102e85780631a7ff553146102e3578063201b9eb5146102de57806322758a4a146102d95780632999ad3f146102d45780632cdf7401146102cf5780633229fa95146102ca57806333194c0a146102c557806336fe59d2146102c05780633a98ef39146102bb578063439fab91146102b657806343e82a79146102b157806346904840146102ac5780634ec96b22146102a75780634f1ef286146102a257806352d1902d1461029d57806353156f281461029857806354fd4d50146102935780635c60da1b1461028e5780635cfc1a511461028957806360d60e6e1461028457806372b410a81461027f578063754c38881461027a57806376b58b90146102755780637fd6f15c1461027057806383d430d51461026b5780638697d2c2146102665780638ceab9aa14610261578063a49a1e7d1461025c578063ac9650d814610257578063ad3cb1cc14610252578063b1f0e7c71461024d578063c6e6f59214610248578063d83ad00c14610243578063e74b981b1461023e578063ee3bd5df14610239578063f04da65b14610234578063f6a6830f1461022f578063f851a4401461022a578063f9609f08146102255763f98f5b920361000e57611e71565b611e47565b611e20565b611ddf565b611da4565b611d7e565b611d51565b611d2b565b611d0d565b611cf3565b611cae565b611c38565b611b3d565b611954565b6116ed565b61151d565b6114f9565b6114a8565b61143d565b6113b0565b611392565b611378565b611344565b611329565b611305565b61129c565b611016565b610ea2565b610e7a565b610d6d565b610ca7565b610c26565b610c12565b610bd8565b610bac565b610b92565b6106f0565b61069e565b610685565b610626565b6105c0565b61058e565b610566565b6103c7565b610396565b610329565b6001600160a01b0381160361031757565b5f80fd5b908160809103126103175790565b60803660031901126103175760043561034181610306565b60443561034d81610306565b606435906001600160401b0382116103175760209261037b61037661038494369060040161031b565b611fff565b602435906122b9565b604051908152f35b5f91031261031757565b34610317575f36600319011261031757602060985460801c604051908152f35b6001600160801b0381160361031757565b34610317576020366003190112610317576004356103e4816103b6565b604051633b9e9f0160e21b81523360048201526001600160801b03821660248201526020816044815f6001600160a01b037f0000000000000000000000000000000000000000000000000000000000000000165af1908115610561575f91610532575b50335f9081526101376020526040902061046090611eb8565b916001600160801b0361047a84516001600160801b031690565b1615610520576104ce8361049061051c956129bb565b6104ba6104ad846104a884516001600160801b031690565b611ef1565b6001600160801b03168252565b335f90815261013760205260409020611f0f565b604080518381526001600160801b0392909216602083015233917f3f7354ba02880b4fa37a629985852a38417ff369369ce1e52fa6f8342a9100a79190a26040519081529081906020820190565b0390f35b60405163673f032f60e11b8152600490fd5b610554915060203d60201161055a575b61054c8183610f95565b810190611e9e565b5f610447565b503d610542565b611ead565b34610317576020366003190112610317576020610384600435611f41565b8015150361031757565b34610317576040366003190112610317576100206004356105ae81610306565b602435906105bb82610584565b611f67565b6060366003190112610317576004356105d881610306565b6024356105e481610306565b604435906001600160401b0382116103175760209261060d61037661038494369060040161031b565b6106163361310f565b61061f8161310f565b34906142c1565b34610317576020366003190112610317576004356001600160401b0381116103175761037661002091369060040161031b565b60609060031901126103175760043561067181610306565b906024359060443561068281610306565b90565b3461031757602061038461069836610659565b91612023565b34610317575f36600319011261031757610201546040516001600160a01b039091168152602090f35b606090600319011261031757600435906024356106e381610306565b9060443561068281610306565b34610317576106fe366106c7565b906001600160a01b0380831615610b8057610717613ac3565b807f00000000000000000000000000000000000000000000000000000000000000001691823b156103175760408051631d8557d760e01b815260049491905f81878183875af1801561056157610b67575b506001600160a01b0383165f9081526101376020526040902061078a90611eb8565b6001600160801b0392836107a583516001600160801b031690565b1615610b57576107b4826129bb565b825163e48a5f7b60e01b8152308882019081529097906060908990819060200103818a7f0000000000000000000000000000000000000000000000000000000000000000165afa978815610561575f98610b26575b50602097888101956001600160401b0391828061082d8a516001600160401b031690565b1614610b1657908c92918751918c83806108596303d1689d60e11b988983528a83019190602083019252565b03818a5afa91821561056157610885938e5f94610af1575b5050516001600160801b03165b1690612aea565b966108a96108a38a60018060a01b03165f52609c60205260405f2090565b54611f41565b928389118015610ae1575b610ad157908b6108f293926108d089516001600160801b031690565b908a51958692839283528983019190916001600160801b036020820193169052565b0381895afa91821561056157670de0b6b3a764000094610941948e5f95610aa4575b50506109336109256109399261276a565b93516001600160401b031690565b9361276a565b921690612b5e565b1015610a96578351633b9e9f0160e21b815233918101918252602082018b905294939291889186919082905f90829060400103925af1908115610561577f61fd285f9e34a3dbfa9846bdcf22a023e37a3c93549902843b30dd74a18c535097610a73956109eb93610a78575b50506109ce6104ad6109be8c613ff4565b83516001600160801b0316611ef1565b6001600160a01b0386165f90815261013760205260409020611f0f565b6109f4826140c1565b90610a32610a17610a0485613ff4565b60985460801c036001600160801b031690565b6001600160801b036098549181199060801b16911617609855565b610a3c828661458a565b610a468389614027565b51948594169733978590949392606092608083019660018060a01b03168352602083015260408201520152565b0390a3005b81610a8e92903d1061055a5761054c8183610f95565b505f806109ad565b835163185cfc6d60e11b8152fd5b610939929550610ac7610933928261092593903d1061055a5761054c8183610f95565b959250508e610914565b875163efda1a2760e01b81528590fd5b50610aea612248565b89116108b4565b61087e9294509081610b0e92903d1061055a5761054c8183610f95565b92908e610871565b8651630709133160e01b81528490fd5b610b4991985060603d606011610b50575b610b418183610f95565b810190613160565b965f610809565b503d610b37565b825163673f032f60e11b81528790fd5b80610b74610b7a92610f4c565b8061038c565b5f610768565b60405163d92e233d60e01b8152600490fd5b34610317575f366003190112610317576020610384612248565b34610317575f366003190112610317576020610bc661227e565b6040516001600160a01b039091168152f35b34610317575f3660031901126103175760206040517fa90b5863127e5f962890f832f07b9f40c8df2fc043326a0e4b538552d600f2d98152f35b6020610384610c2036610659565b916122b9565b34610317575f3660031901126103175760206001600160801b0360985416604051908152f35b9181601f84011215610317578235916001600160401b038311610317576020838186019501011161031757565b602060031982011261031757600435906001600160401b03821161031757610ca391600401610c4c565b9091565b610cb036610c79565b907ff0c57e16840df040f15088dc2f81fe391c3923bec73e23a9662efc9c229c6a009182549160ff8360401c168015610d59575b610d475768010000000000000002610d0a9368ffffffffffffffffff1916178455612399565b68ff00000000000000001981541690557fc7f505b2f371ae2175ee4913f4499e1f2633a7b5936321eed1cdaeb6115181d2602060405160028152a1005b60405163f92ee8a960e01b8152600490fd5b5060026001600160401b0384161015610ce4565b3461031757610d7b366106c7565b60405163057453a760e31b81529091906001600160a01b03906020816004817f000000000000000000000000000000000000000000000000000000000000000086165afa80156105615782915f91610e4b575b50163303610e395781610a73610e0686867f57f5eb636bf62215c111b54545422f11dfb0cb115f606be905f0be08e8859dd3966131a0565b604080516001600160a01b0390981688526020880198909852968601526060850195909552169233929081906080820190565b604051634ca8886760e01b8152600490fd5b610e6d915060203d602011610e73575b610e658183610f95565b810190612305565b5f610dce565b503d610e5b565b34610317575f366003190112610317576065546040516001600160a01b039091168152602090f35b3461031757602036600319011261031757600435610ebf81610306565b60018060a01b03165f52610137602052602060405f2060405190610ee282610f2c565b54906001600160801b03918281169081835260801c84830152610f0a575b5116604051908152f35b610f13816129bb565b610f00565b634e487b7160e01b5f52604160045260245ffd5b604081019081106001600160401b03821117610f4757604052565b610f18565b6001600160401b038111610f4757604052565b606081019081106001600160401b03821117610f4757604052565b608081019081106001600160401b03821117610f4757604052565b90601f801991011681019081106001600160401b03821117610f4757604052565b60405190610fc382610f2c565b565b6001600160401b038111610f4757601f01601f191660200190565b929192610fec82610fc5565b91610ffa6040519384610f95565b829481845281830111610317578281602093845f960137010152565b60408060031936011261031757600490813561103181610306565b6024356001600160401b0381116103175736602382011215610317576110609036906024818701359101610fe0565b916110696137bc565b8051926110a08461109260209363439fab9160e01b858401528460248401526044830190611bb0565b03601f198101865285610f95565b6110a86137bc565b6110b0613895565b6001600160a01b03838116801592919087908415611267575b84156111f9575b8415611195575b505082156110ff575b50506110f057610020838361471a565b516355299b4960e01b81528390fd5b83516345da87c560e01b81526001600160a01b03861688820190815292935091839183918290819060200103917f0000000000000000000000000000000000000000000000000000000000000000165afa918215610561575f92611168575b5050155f806110e0565b6111879250803d1061118e575b61117f8183610f95565b810190612540565b5f8061115e565b503d611175565b855163054fd4d560e41b81529294508391839182905afa9081156105615760039160ff915f916111cc575b5016141591865f6110d7565b6111ec9150843d86116111f2575b6111e48183610f95565b810190614701565b5f6111c0565b503d6111da565b935050835163198ca60560e11b815282818981875afa9081156105615788917fa90b5863127e5f962890f832f07b9f40c8df2fc043326a0e4b538552d600f2d9915f9161124a575b501415936110d0565b6112619150853d871161055a5761054c8183610f95565b5f611241565b5f80516020614b9c833981519152549094508490611295906001600160a01b03165b6001600160a01b031690565b14936110c9565b34610317575f366003190112610317577f00000000000000000000000000000000000000000000000000000000000000006001600160a01b031630036112f35760206040515f80516020614b9c8339815191528152f35b60405163703e46dd60e11b8152600490fd5b5f366003190112610317576001600160a01b0361132061227e565b163303610e3957005b34610317575f36600319011261031757602060405160028152f35b34610317575f366003190112610317575f80516020614b9c833981519152546040516001600160a01b039091168152602090f35b34610317575f366003190112610317576020610384612466565b34610317576020366003190112610317576020610384600435612481565b34610317575f36600319011261031757604051633eb1acf760e11b81523060048201526020816024817f00000000000000000000000000000000000000000000000000000000000000006001600160a01b03165afa8015610561576020915f91611420575b506040519015158152f35b6114379150823d841161118e5761117f8183610f95565b5f611415565b346103175760203660031901126103175760043561145a81610306565b611462613895565b60d280546001600160a01b0319166001600160a01b03929092169182179055337f6bdc78d8c88160b3fc3638e67f2afe523b3f4c7d00c56ebb6216790e4c3eb2cb5f80a3005b346103175760803660031901126103175761051c6114dc6004356114cb81610306565b606435906044359060243590612562565b604080519384526020840192909252908201529081906060820190565b34610317575f36600319011261031757602061ffff60655460a01c16604051908152f35b34610317576003196040368201126103175760049081356001600160401b038082116103175760a082850193833603011261031757602435908111610317576115699036908501610c4c565b6001600160a01b037f00000000000000000000000000000000000000000000000000000000000000008116803b156103175760405163837d444160e01b8152905f9082908183816115bc8c828f0161267e565b03925af18015610561576116da575b506115d4613ac3565b6115dc612972565b90811633141591826116ab575b5050905061169a576044019160b061160184846126fc565b90500480158015611682575b6116725761162261161c612248565b91612751565b11611663575060b061163483836126fc565b9050145f14611650576100209161164a916126fc565b90613ee1565b6100209161165d916126fc565b90613db9565b6040516396d8043360e01b8152fd5b50604051631c6c4cf360e31b8152fd5b5061168d84846126fc565b905060b08202141561160d565b604051634ca8886760e01b81528390fd5b6116ce92506116c86116d2946116c088613b4e565b923691610fe0565b91613c28565b1590565b805f806115e9565b80610b746116e792610f4c565b5f6115cb565b3461031757606036600319011261031757600435602435611712604435828433612562565b919261173e7f000000000000000000000000000000000000000000000000000000000000000082612474565b4210801561194c575b8015611944575b611932577feb3b05c070c24f667611fdb3ff75fe007d42401c573aed8d8faca95fd00ccb569361179e8661179961178d6099546001600160801b031690565b6001600160801b031690565b613815565b156118a0576117d86117bd6117b286613ff4565b60995460801c611ef1565b6001600160801b036099549181199060801b16911617609955565b60408051336020820190815291810184905260608082018990528152601f1993915f9161181c919061180b608082610f95565b5190205f52609b60205260405f2090565b555f9360018311611855575b505050506118368233614027565b604080519485526020850191909152830152339180606081015b0390a2005b611896929394506118669088612474565b604080513360208201908152918101939093526060830182905260809586018352909490919061180b9082610f95565b555f808080611828565b6118a8613ac3565b6118e46118c86118b786613ff4565b609e546001600160801b0316611ef1565b6001600160801b03166001600160801b0319609e541617609e55565b6119196118fe6118f385613ff4565b609e5460801c611ef1565b6001600160801b03609e549181199060801b16911617609e55565b61192d61192884609f54612474565b609f55565b6117d8565b604051630e3d8e8d60e11b8152600490fd5b50821561174e565b508115611747565b3461031757604080600319360112610317576024359060043561197683610306565b61197e613ac3565b8015611b2c576001600160a01b038316908115611b1b5761199e81611f41565b908115611b0a576119ae82614807565b6119b783613ff4565b60985460801c906119c791611ef1565b6119e6906001600160801b036098549181199060801b16911617609855565b6119f0823361458a565b609e54958660801c8281609f5490611a0791612474565b98611a1187613ff4565b611a23916001600160801b0316613131565b611a43906001600160801b03166001600160801b0319609e541617609e55565b611a4c91612474565b611a5590613ff4565b611a74906001600160801b03609e549181199060801b16911617609e55565b85516001600160a01b0391909116602082019081524260408301526060808301899052825290611aa5608082610f95565b519020611aba905f52609b60205260405f2090565b5583518581526020810191909152604081019190915233907f869f12645d154414259c47bcb998b6b6983fae50e5e0c6053bc87d4330db9f2d90606090a3611b013361496e565b51908152602090f35b83516318374fd160e21b8152600490fd5b825163d92e233d60e01b8152600490fd5b8151636edcc52360e01b8152600490fd5b34610317576118507f2013570c343af8ab14a9778150e381a0fda34ed6368127a95fd5e7210cbec5bf611b6f36610c79565b9290611b79613895565b604051918291602083523395602084019161265e565b5f5b838110611ba05750505f910152565b8181015183820152602001611b91565b90602091611bc981518092818552858086019101611b8f565b601f01601f1916010190565b6020808201906020835283518092526040830192602060408460051b8301019501935f915b848310611c0a5750505050505090565b9091929394958480611c28600193603f198682030187528a51611bb0565b9801930193019194939290611bfa565b34610317576020366003190112610317576001600160401b036004358181116103175736602382011215610317578060040135918211610317573660248360051b830101116103175761051c916024611c9192016128c5565b60405191829182611bd5565b906020610682928181520190611bb0565b34610317575f3660031901126103175761051c604051611ccd81610f2c565b60058152640352e302e360dc1b6020820152604051918291602083526020830190611bb0565b34610317575f366003190112610317576020610bc6612972565b346103175760203660031901126103175760206103846004356140c1565b34610317575f3660031901126103175760206001600160801b0360995416604051908152f35b3461031757602036600319011261031757610020600435611d7181610306565b611d79613895565b614150565b34610317575f3660031901126103175760206001600160801b03609e5416604051908152f35b3461031757602036600319011261031757600435611dc181610306565b60018060a01b03165f52609c602052602060405f2054604051908152f35b3461031757602036600319011261031757600435611dfc81610306565b60018060a01b03165f52610202602052602060ff60405f2054166040519015158152f35b34610317575f366003190112610317575f546040516001600160a01b039091168152602090f35b6040366003190112610317576020610384600435611e6481610306565b6024359061060d82610306565b3461031757602036600319011261031757610020600435611e9181610306565b611e99613895565b6141b2565b90816020910312610317575190565b6040513d5f823e3d90fd5b90604051611ec581610f2c565b91546001600160801b038116835260801c6020830152565b634e487b7160e01b5f52601160045260245ffd5b6001600160801b039182169082160391908211611f0a57565b611edd565b815160209092015160801b6fffffffffffffffffffffffffffffffff19166001600160801b0392909216919091179055565b6098546001600160801b0381169081611f5957505090565b916106829260801c90612b5e565b610201546001600160a01b03919082163303610e39576001600160a01b0381165f90815261020260205260409020549215159260ff1615158314611ffa576001600160a01b0381165f9081526102026020526040902060ff1981541660ff851617905560405192835216907fd9c6c3eabe38e3b9a606a66358d8f225489216a59eeba66facefb7d91663526660203392a3565b505050565b61200b61201291612cc6565b9190612e5c565b61201857565b612020612fe6565b50565b909161202e3361310f565b6120366144fe565b61203e613ac3565b6040516329460cc560e11b81526001600160a01b038381166004830152602482018590529093602092917f00000000000000000000000000000000000000000000000000000000000000001683866044815f855af1958615610561575f96612229575b50335f908152610137602052604090206120ba90611eb8565b936001600160801b036120d486516001600160801b031690565b16156121c55750506120e5836129bb565b6121116121046120f483613ff4565b85516001600160801b0316613131565b6001600160801b03168452565b335f908152609c602052604090206121319061212c906108a3565b6134b9565b61214561178d85516001600160801b031690565b116121b357335f908152610137602052604090207fa16d97739893e1436c9753925fb5cef174c4f368699dc86cc8fdb0e6e60f8e589361218491611f0f565b604080516001600160a01b0395861681526020810187905290810191909152921660608301523391608090a290565b604051633684c65960e01b8152600490fd5b806004926040519384809263752a536d60e01b82525afa91821561056157612207926121f8915f9161220c575b50613ff4565b6001600160801b031690850152565b6120e5565b6122239150833d851161055a5761054c8183610f95565b5f6121f2565b612241919650843d861161055a5761054c8183610f95565b945f6120a1565b476099546001600160801b0361225f818316611f41565b90609e5416019060801c01908181115f14612278570390565b50505f90565b61016a546001600160a01b031680156122945790565b507f000000000000000000000000000000000000000000000000000000000000000090565b916122c33361310f565b6122cc3361310f565b6122d78134336142c1565b505f1982146122f0575b816122ec9293612023565b5090565b6122ec91506122fe346134b9565b91506122e1565b90816020910312610317575161068281610306565b906020828203126103175781356001600160401b0392838211610317570191606083830312610317576040519261235084610f5f565b80358452602081013561ffff81168103610317576020850152604081013591821161031757019080601f830112156103175781602061239193359101610fe0565b604082015290565b5f549091906001600160a01b031661245c5760405163e7f6f22560e01b8152906020908183600481335afa928315610561575f9361243d575b50604051636f4fa30f60e01b8152938285600481335afa90811561056157610fc395612415945f9361241a575b505061240e919281019061231a565b90836136c8565b6137b0565b61240e9350908161243692903d10610e7357610e658183610f95565b915f6123ff565b612455919350823d8411610e7357610e658183610f95565b915f6123d2565b5050610fc36135c3565b609d548061068257505f1990565b91908201809211611f0a57565b6001600160801b03609954166124956147c5565b908101809111611f0a5781106124c8576124b9609f546124b361382c565b90612474565b11156124c3575f90565b5f1990565b609a90609a549182915f905b8482106124ee575050508110156124e85790565b505f1990565b909193808316906001818518811c8301809311611f0a575f8790525f80516020614b7c8339815191528301546001600160a01b0316841015612535575050935b91906124d4565b90959101925061252e565b90816020910312610317575161068281610584565b91908203918211611f0a57565b604080516001600160a01b039092166020830190815290820193909352606081018290529091906125a081608081015b03601f198101835282610f95565b5190205f52609b60205260405f205491821561260a576001600160801b0360995416906125cb6147c5565b918201809211611f0a5783918310156125f857916125e892613928565b90915b828103908111611f0a5792565b5090612603916138a8565b90916125eb565b5050505f905f905f90565b9035601e19823603018112156103175701602081359101916001600160401b03821161031757813603831361031757565b90603060609281835260208301375f60508201520190565b908060209392818452848401375f828201840152601f01601f1916010190565b9060a0610682926020815282356020820152602083013560408201526126ba6126aa6040850185612615565b84606085015260c084019161265e565b906126ed6126e26126ce6060870187612615565b601f1985870381016080870152959161265e565b946080810190612615565b9390928286030191015261265e565b903590601e198136030182121561031757018035906001600160401b0382116103175760200191813603831361031757565b634e487b7160e01b5f52601260045260245ffd5b811561274c570490565b61272e565b906801bc16d674ec8000009180830292830403611f0a57565b90670de0b6b3a764000091828102928184041490151715611f0a57565b6001600160401b038111610f475760051b60200190565b906127a882612787565b6127b56040519182610f95565b82815280926127c6601f1991612787565b01905f5b8281106127d657505050565b8060606020809385010152016127ca565b634e487b7160e01b5f52603260045260245ffd5b9082101561281257610ca39160051b8101906126fc565b6127e7565b908092918237015f815290565b3d1561284e573d9061283582610fc5565b916128436040519384610f95565b82523d5f602084013e565b606090565b602081830312610317578051906001600160401b038211610317570181601f8201121561031757805161288581610fc5565b926128936040519485610f95565b81845260208284010111610317576106829160208085019101611b8f565b80518210156128125760209160051b010190565b9190916128d18361279e565b925f5b8181106128e057505050565b5f806128ed8385876127fb565b604093916128ff855180938193612817565b0390305af49061290d612824565b911561293457509060019161292282886128b1565b5261292d81876128b1565b50016128d4565b9060448151106103175761296e61295960049283810151602480918301019101612853565b925162461bcd60e51b81529283928301611c9d565b0390fd5b60d2546001600160a01b03168061068257507f000000000000000000000000000000000000000000000000000000000000000090565b6129b13361310f565b61202034336141f9565b60405163752a536d60e01b81526020816004817f00000000000000000000000000000000000000000000000000000000000000006001600160a01b03165afa908115610561575f91612a51575b5060208201916001600160801b03918284511691828214612a4a5783612a3d612a38612a45958584865116612b5e565b613ff4565b169052613ff4565b169052565b5050505050565b612a6a915060203d60201161055a5761054c8183610f95565b5f612a08565b90808202905f1981840990828083109203918083039214612adf576127109082821115612acd577fbc01a36e2eb1c432ca57a786c226809d495182a9930be0ded288ce703afb7e91940990828211900360fc1b910360041c170290565b60405163227bc15360e01b8152600490fd5b505061271091500490565b90808202905f1981840990828083109203918083039214612b4d57670de0b6b3a76400009082821115612acd577faccb18165bd6fe31ae1cf318dc5b51eee0e1ba569b88cd74c1773b91fac10669940990828211900360ee1b910360121c170290565b5050670de0b6b3a764000091500490565b9091828202915f1984820993838086109503948086039514612bd15784831115612acd57829109815f038216809204600280826003021880830282030280830282030280830282030280830282030280830282030280920290030293600183805f03040190848311900302920304170290565b5050906106829250612742565b90816060910312610317578051916040602083015192015161068281610584565b81835290916001600160fb1b0383116103175760209260051b809284830137010190565b90602082528035602083015260208101358060130b8091036103175760408301526040810135612c5281610306565b6001600160a01b031660608381019190915281013536829003601e19018112156103175701602081359101906001600160401b038111610317578060051b360382136103175760a0836080806106829601520191612bff565b9190915f8382019384129112908015821691151617611f0a57565b6040516325f56f1160e01b81526001600160a01b03929160609082908190612cf19060048301612c23565b03815f877f0000000000000000000000000000000000000000000000000000000000000000165af1928315610561575f915f905f95612e17575b508415612dc45781612d3b61227e565b16917f0000000000000000000000000000000000000000000000000000000000000000168214612dbd57509060205f92600460405180958193634641257d60e01b83525af190811561056157612d98925f92612d9c575b50612cab565b9190565b612db691925060203d60201161055a5761054c8183610f95565b905f612d92565b9081612dca575b50509190565b803b1561031757604051636ee3193160e11b815260048101929092525f908290602490829084905af1801561056157612e04575b80612dc4565b80610b74612e1192610f4c565b5f612dfe565b91945050612e3d915060603d606011612e45575b612e358183610f95565b810190612bde565b93905f612d2b565b503d612e2b565b600160ff1b8114611f0a575f0390565b801561202057612e7161178d60985460801c90565b5f8212612f435781612e8291612474565b90612e8f610a1783613ff4565b612ea46065549161ffff8360a01c1690612a70565b8015611ffa57807f555ee6b2ef9506d870f386c067e47d3689435330b012ad263d8cc3531868654793612ee261178d6098546001600160801b031690565b80612f2d575050612f2890925b6001600160a01b031691612f03848461436d565b60405193849384604091949392606082019560018060a01b0316825260208201520152565b0390a1565b612f2892612f3d92039084612b5e565b92612eef565b90612f4d90612e4c565b612f6261178d609e546001600160801b031690565b80612f82575b5080612f72575050565b612a38610a1791610fc393612555565b90612fdd7f3623a54e8078be0d90ecfbef82da6a31ff3e6be8aa1718e7a7f3d0d33ff1d32a91612fcd6118c8612fc2612fbb8888612474565b8785612b5e565b808094039603613ff4565b6040519081529081906020820190565b0390a15f612f68565b609954906001600160801b0382169182156131095760801c61301a61300b8247612555565b61301485611f41565b906143b9565b9081156131025761302a826140c1565b9384156130fa57826130776117bd612a38610fc396610a1796613072613056612a388d6130ef9a612555565b6001600160801b03166001600160801b03196099541617609955565b612474565b6130818187614429565b60408051878152602081018390527f624ea167e477f9d39f7f4094b9dfe2e6346eb4a7aada54338db51abd554c4b9f9190a1612a386130d36130c288613ff4565b6098546001600160801b0316611ef1565b6001600160801b03166001600160801b03196098541617609855565b60985460801c611ef1565b505f93505050565b505f925050565b505f9150565b6001600160a01b03165f908152610202602052604090205460ff1615610e3957565b9190916001600160801b0380809416911601918211611f0a57565b51906001600160401b038216820361031757565b9081606091031261031757612391604080519261317c84610f5f565b8051613187816103b6565b84526131956020820161314c565b60208501520161314c565b92906001600160a01b039081811615610b80576131bb613ac3565b817f00000000000000000000000000000000000000000000000000000000000000001690813b1561031757604094855193631d8557d760e01b85526004945f81878183895af18015610561576134a6575b506001600160a01b0388165f9081526101376020526040902061322e90611eb8565b906001600160801b0361324883516001600160801b031690565b161561349657613257826129bb565b875163e48a5f7b60e01b81523087820190815290916060918391908290819060200103917f0000000000000000000000000000000000000000000000000000000000000000165afa801561056157613477575b508651936303d1689d60e11b978886526020918287806132d1888c83019190602083019252565b0381845afa968715610561575f97613458575b5086996133046108a38d60018060a01b03165f52609c60205260405f2090565b88118015613448575b61343857908361334a9261332887516001600160801b031690565b908551948592839283528d83019190916001600160801b036020820193169052565b0381845afa988915610561575f8594889461338f9c61341b575b5051633b9e9f0160e21b815233928101928352602083019490945292998a9384929091839160400190565b03925af1958615610561576109be6133d6946133b9936104ad93610fc39a6133fd575b5050613ff4565b6001600160a01b0388165f90815261013760205260409020611f0f565b6133f86133e2836140c1565b80976133f3610a17610a0487613ff4565b61458a565b614027565b8161341392903d1061055a5761054c8183610f95565b505f806133b2565b61343190873d891161055a5761054c8183610f95565b505f613364565b825163efda1a2760e01b81528990fd5b50613451612248565b881161330d565b613470919750833d851161055a5761054c8183610f95565b955f6132e4565b61348f9060603d606011610b5057610b418183610f95565b505f6132aa565b875163673f032f60e11b81528690fd5b80610b746134b392610f4c565b5f61320c565b60405163e48a5f7b60e01b81523060048201526001600160a01b036060826024817f000000000000000000000000000000000000000000000000000000000000000085165afa801561056157613554936001600160401b0361087e6040613533946020975f916135a4575b5001516001600160401b031690565b9060405180809581946363737ac960e11b8352600483019190602083019252565b03917f0000000000000000000000000000000000000000000000000000000000000000165afa908115610561575f9161358b575090565b610682915060203d60201161055a5761054c8183610f95565b6135bd915060603d606011610b5057610b418183610f95565b5f613524565b6135cb6145d7565b6135d36145d7565b6135db6147c5565b6001600160801b03609954168101809111611f0a57609f556135fb6145d7565b61360b61360661483e565b60d355565b60d05460d15460d2549091906001600160a01b037f00000000000000000000000000000000000000000000000000000000000000008116911690803b15610317576040516376615a5560e01b8152600481019390935260248301939093526001600160a01b03166044820152905f908290606490829084905af18015610561576136b5575b5061369a5f60d055565b6136a35f60d155565b60d280546001600160a01b0319169055565b80610b746136c292610f4c565b5f613690565b6136d06145d7565b60408301516136dd6145d7565b6001600160a01b0382168015610b80576001600160601b0360a01b5f5416175f557f2013570c343af8ab14a9778150e381a0fda34ed6368127a95fd5e7210cbec5bf604051602081528061373633946020830190611bb0565b0390a26020830151926137476145d7565b61271061ffff85161161379e576137969361376461378993614150565b6065805461ffff60a01b191660a09290921b61ffff60a01b1691909117905551614618565b613791614648565b61466f565b610fc361469e565b604051638a81d3b360e01b8152600490fd5b610fc390611e996145d7565b6001600160a01b037f000000000000000000000000000000000000000000000000000000000000000081163081149182156137fa575b50506112f357565b5f80516020614b9c8339815191525416141590505f806137f2565b9061381e6147c5565b918201809211611f0a571090565b476099548060801c8203918211611f0a57816138516001600160801b03809316611f41565b9081613877575b50508115612278576106829161387291609e5416906143b9565b614807565b919250908181111561388d57035b905f80613858565b50505f613885565b5f546001600160a01b03163303610e3957565b6138b061382c565b91609f54928301809311611f0a57808311156138fa576138d19203906143b9565b90609e548060801c80155f146138e75750508190565b6001600160801b03610682921684612b5e565b5050505f905f90565b9060405161391081610f2c565b91546001600160a01b038116835260a01c6020830152565b609a545f948594939091808410801590613abb575b613aae5783613a78575f5b609a5f526001600160a01b031661396d5f80516020614b7c8339815191528601613903565b8051909790613984906001600160a01b0316611289565b986139a961399d6020809b01516001600160601b031690565b6001600160601b031690565b948381108015613a6e575b613a5c5791600193979a956139d36139df939488035b838c03906143b9565b80920198870391612b5e565b01970193808611801590613a52575b613a4757609a5f528290613a105f80516020614b7c8339815191528701613903565b805190890151969992966001600160a01b0390911694600193926139df9290916001600160601b03909116906139d39088036139ca565b945050509250509190565b50818510156139ee565b60405163e8722f8f60e01b8152600490fd5b50808b11156139b4565b609a5f527f44da158ba27f9252712a74ff6a55c5d531f69609f1f6e7f17c4443a8e2089be38401546001600160a01b0316613948565b505093505050505f905f90565b50841561393d565b604051633eb1acf760e11b81523060048201526020816024817f00000000000000000000000000000000000000000000000000000000000000006001600160a01b03165afa908115610561575f91613b2f575b50613b1d57565b60405163e775715160e01b8152600490fd5b613b48915060203d60201161118e5761117f8183610f95565b5f613b16565b604290467f000000000000000000000000000000000000000000000000000000000000000003613bfc5760d354905b613b94613b8d60408301836126fc565b3691610fe0565b602081519101206040519060208201927f838af86bfca91ada6557e38d913af1c2f24ef9b2567b3b77cc9e1144314b35b08452356040830152606082015260608152613bdf81610f7a565b5190206040519161190160f01b8352600283015260228201522090565b613c0461483e565b90613b7d565b60041115613c1457565b634e487b7160e01b5f52602160045260245ffd5b613c32838361490b565b50613c3f81959295613c0a565b159384613cdb575b508315613c55575b50505090565b5f929350908291604051613c8d816125926020820194630b135d3f60e11b998a87526024840152604060448401526064830190611bb0565b51915afa90613c9a612824565b82613ccd575b82613cb0575b50505f8080613c4f565b613cc591925060208082518301019101611e9e565b145f80613ca6565b915060208251101591613ca0565b6001600160a01b0383811691161493505f613c47565b906030116103175790603090565b906090116103175760300190606090565b9060b0116103175760900190602090565b90939293848311610317578411610317578101920390565b359060208110613d47575090565b5f199060200360031b1b1690565b96959490613d9293613d76613d84926060979560808c5260808c019161265e565b9089820360208b0152611bb0565b91878303604089015261265e565b930152565b906020610682928181520190612646565b91602061068293818152019161265e565b60b091828104915f9081613dcb614945565b957f00000000000000000000000000000000000000000000000000000000000000006001600160a01b0316935f92905b878410613e0d57505050505050505050565b82613e1c910180928887613d21565b90613e278282613cf1565b91613e46613e40613e388684613cff565b969093613d10565b90613d39565b90893b15610317575f908d613e73604094855198899485946304512a2360e31b86528a8a60048801613d55565b03816801bc16d674ec8000008d5af1908115610561577f64b6e61d93b7a91e8cc4376183ede0997a27b44fd9dd2f30a866b2a5730efdb194613ebf92613ece575b505192839283613da8565b0390a160018193019290613dfb565b80610b74613edb92610f4c565b5f613eb4565b8160301161031757613e40917f00000000000000000000000000000000000000000000000000000000000000006001600160a01b0316613f1f614945565b90613f36613f2d8486613cff565b96909486613d10565b94813b15610317576801bc16d674ec8000005f94613f9c97604051988996879586946304512a2360e31b865260806004870152613f8d613f7a8d6084890190612646565b60031994858983030160248a0152611bb0565b9286840301604487015261265e565b90606483015203925af1908115610561577f64b6e61d93b7a91e8cc4376183ede0997a27b44fd9dd2f30a866b2a5730efdb192612f2892613fe5575b5060405191829182613d97565b613fee90610f4c565b5f613fd8565b6001600160801b0390818111614008571690565b604490604051906306dfcc6560e41b8252608060048301526024820152fd5b907f9b779b17422d0df92223018b32b4d1fa46e071723d6817e2486d003becc55f009160028354146140af5760028355814710614097575f918291829182916001600160a01b03165af1614079612824565b50156140855760019055565b604051630a12f52160e11b8152600490fd5b60405163cd78605960e01b8152306004820152602490fd5b604051633ee5aeb560e01b8152600490fd5b609854906001600160801b038216811580156140f0575b156140e35750905090565b6106829260801c91612b5e565b5080156140d8565b6098546001600160801b0381169082158015614148575b1561411957505090565b60801c90614128828285612b5e565b92821561274c57096141375790565b600181018091111561068257611edd565b50811561410f565b614158613ac3565b6001600160a01b031680156141a057606580546001600160a01b03191682179055337faaebcf1bfa00580e41d966056b48521fa9f202645c86d4ddf28113e617c1b1d35f80a3565b604051630ed1b8b360e31b8152600490fd5b61020180546001600160a01b0319166001600160a01b03929092169182179055337fda2bcad4d57ac529886ff995d07bce191c08b5424c8f5824de6c73f90cc623d45f80a3565b9190614203613ac3565b6001600160a01b038316908115610b805780156142af578061422a61178d60985460801c90565b0193614234612466565b851161429d57610a179461425b9161425661424e856140f8565b978893613ff4565b61436d565b60408051918252602082018590525f9082015233907f861a4138e41fb21c121a7dbb1053df465c837fc77380cc7226189a662281be2c9080606081015b0390a3565b6040516304ffa0ff60e51b8152600490fd5b6040516318374fd160e21b8152600490fd5b909291926142cd613ac3565b6001600160a01b038216918215610b805781156142af57816142f461178d60985460801c90565b016142fd612466565b811161429d57610a1795614344614298927f861a4138e41fb21c121a7dbb1053df465c837fc77380cc7226189a662281be2c9461425661433c886140f8565b9a8b93613ff4565b60408051948552602085018890526001600160a01b039091169084015233929081906060820190565b61437682613ff4565b6098549061438e6001600160801b0391828416613131565b16906001600160801b0319161760985560018060a01b03165f52609c60205260405f20908154019055565b90808210156143c6575090565b905090565b609a549068010000000000000000821015610f47576001820180609a5582101561281257609a5f52805160209091015160a01b6001600160a01b0319166001600160a01b0391909116175f80516020614b7c83398151915290910155565b919091801580156144f6575b6144e4576144416147c5565b908101809111611f0a576001600160a01b038082116144c4576001600160601b03908185116144a45790610fc3939461448e61449f9361447f610fb6565b95166001600160a01b03168552565b166001600160601b03166020830152565b6143cb565b6040516306dfcc6560e41b81526060600482015260248101869052604490fd5b6040516306dfcc6560e41b815260a0600482015260248101839052604490fd5b604051632ec8835b60e21b8152600490fd5b508215614435565b604051630156a69560e11b81523060048201526020816024817f00000000000000000000000000000000000000000000000000000000000000006001600160a01b03165afa908115610561575f9161456b575b501561455957565b604051630a62fbdb60e11b8152600490fd5b614584915060203d60201161118e5761117f8183610f95565b5f614551565b60018060a01b03165f52609c60205260405f20908154818103908111611f0a576145b49255613ff4565b609854906001600160801b03908183160316906001600160801b03191617609855565b60ff7ff0c57e16840df040f15088dc2f81fe391c3923bec73e23a9662efc9c229c6a005460401c161561460657565b604051631afcd79f60e31b8152600490fd5b6146206145d7565b801561463657600181016146315750565b609d55565b6040516331278a8760e01b8152600490fd5b6146506145d7565b6801bc16d674ec800000614662612466565b106146365761360661483e565b6146776145d7565b6001600160a01b0316806146885750565b61016a80546001600160a01b0319169091179055565b6146a66145d7565b6146ae6145d7565b6146b66145d7565b60017f9b779b17422d0df92223018b32b4d1fa46e071723d6817e2486d003becc55f0055633b9aca0034106146ef5761202034306141f9565b60405163ea2559bb60e01b8152600490fd5b90816020910312610317575160ff811681036103175790565b6040516352d1902d60e01b81529290916020846004816001600160a01b0387165afa5f94816147a4575b5061476a57604051634c9c8ce360e01b81526001600160a01b0384166004820152602490fd5b90915f80516020614b9c833981519152840361478b57610fc39293506149ee565b604051632a87526960e21b815260048101859052602490fd5b6147be91955060203d60201161055a5761054c8183610f95565b935f614744565b609a54806147d257505f90565b609a5f527f44da158ba27f9252712a74ff6a55c5d531f69609f1f6e7f17c4443a8e2089be301546001600160a01b0316611289565b609e54908160801c81158015614836575b156148235750905090565b6001600160801b03610682931691612b5e565b508015614818565b6e5661756c7456616c696461746f727360881b602060405161485f81610f2c565b600f8152015260405160208101907f8b73c3c69bb8fe3d512ecc4cf759cc79239f7b179b0ffacaa9a75d522b39400f82527f35d6cf9768d8be929c3a11ed667b1560ae6f1920195a985758fdd7265505d1ca60408201527fc89efdaa54c0f20c7adf612882df0950f5a951637e0307cdcb4c672f298b8bc660608201524660808201523060a082015260a0815260c081018181106001600160401b03821117610f475760405251902090565b815191906041830361493b576149349250602082015190606060408401519301515f1a90614a90565b9192909190565b50505f9160029190565b604051600160f81b60208201525f60218201523060601b602c8201526020815261068281610f2c565b60018060a01b0381165f5261013760205260405f20906040519161499183610f2c565b54906001600160801b03918281169081855260801c602085015215611ffa5761212c6108a36149e4926149c2613ac3565b6149cb866129bb565b6001600160a01b03165f908152609c6020526040902090565b915116116121b357565b90813b15614a6f575f80516020614b9c83398151915280546001600160a01b0319166001600160a01b0384169081179091557fbc7cd75a20ee27fd9adebab32041f755214dbc6bffa90cc0225b39da2e5c2d3b5f80a2805115614a545761202091614b12565b505034614a5d57565b60405163b398979f60e01b8152600490fd5b604051634c9c8ce360e01b81526001600160a01b0383166004820152602490fd5b91907f7fffffffffffffffffffffffffffffff5d576e7357a4501ddfe92f46681b20a08411614b07579160209360809260ff5f9560405194855216868401526040830152606082015282805260015afa15610561575f516001600160a01b03811615614afd57905f905f90565b505f906001905f90565b5050505f9160039190565b5f8061068293602081519101845af4614b29612824565b9190614b3f575080511561408557805190602001fd5b81511580614b72575b614b50575090565b604051639996b31560e01b81526001600160a01b039091166004820152602490fd5b50803b15614b4856fe44da158ba27f9252712a74ff6a55c5d531f69609f1f6e7f17c4443a8e2089be4360894a13ba1a3210667c828492db98dca3e2076cc3735a920a3ca505d382bbca26469706673582212205c41f2a8f50045872a430ede8f1eec44cddf2f36cdd1f1e4e95107f9a84afa0964736f6c63430008160033",
  "linkReferences": {},
  "deployedLinkReferences": {}
}