{
  "_format": "hh-sol-artifact-1",
  "contractName": "EthPrivErc20Vault",
  "sourceName": "contracts/vaults/ethereum/EthPrivErc20Vault.sol",
  "abi": [
    {
      "inputs": [
        {
          "internalType": "address",
          "name": "_keeper",
          "type": "address"
        },
        {
          "internalType": "address",
          "name": "_vaultsRegistry",
          "type": "address"
        },
        {
          "internalType": "address",
          "name": "_validatorsRegistry",
          "type": "address"
        },
        {
          "internalType": "address",
          "name": "osTokenVaultController",
          "type": "address"
        },
        {
          "internalType": "address",
          "name": "osTokenConfig",
          "type": "address"
        },
        {
          "internalType": "address",
          "name": "osTokenVaultEscrow",
          "type": "address"
        },
        {
          "internalType": "address",
          "name": "sharedMevEscrow",
          "type": "address"
        },
        {
          "internalType": "address",
          "name": "depositDataRegistry",
          "type": "address"
        },
        {
          "internalType": "uint256",
          "name": "exitingAssetsClaimDelay",
          "type": "uint256"
        }
      ],
      "stateMutability": "nonpayable",
      "type": "constructor"
    },
    {
      "inputs": [],
      "name": "AccessDenied",
      "type": "error"
    },
    {
      "inputs": [
        {
          "internalType": "address",
          "name": "target",
          "type": "address"
        }
      ],
      "name": "AddressEmptyCode",
      "type": "error"
    },
    {
      "inputs": [
        {
          "internalType": "address",
          "name": "account",
          "type": "address"
        }
      ],
      "name": "AddressInsufficientBalance",
      "type": "error"
    },
    {
      "inputs": [],
      "name": "CapacityExceeded",
      "type": "error"
    },
    {
      "inputs": [],
      "name": "DeadlineExpired",
      "type": "error"
    },
    {
      "inputs": [
        {
          "internalType": "address",
          "name": "implementation",
          "type": "address"
        }
      ],
      "name": "ERC1967InvalidImplementation",
      "type": "error"
    },
    {
      "inputs": [],
      "name": "ERC1967NonPayable",
      "type": "error"
    },
    {
      "inputs": [],
      "name": "ExitRequestNotProcessed",
      "type": "error"
    },
    {
      "inputs": [],
      "name": "FailedInnerCall",
      "type": "error"
    },
    {
      "inputs": [],
      "name": "InsufficientAssets",
      "type": "error"
    },
    {
      "inputs": [],
      "name": "InvalidAssets",
      "type": "error"
    },
    {
      "inputs": [],
      "name": "InvalidCapacity",
      "type": "error"
    },
    {
      "inputs": [],
      "name": "InvalidCheckpointIndex",
      "type": "error"
    },
    {
      "inputs": [],
      "name": "InvalidCheckpointValue",
      "type": "error"
    },
    {
      "inputs": [],
      "name": "InvalidFeePercent",
      "type": "error"
    },
    {
      "inputs": [],
      "name": "InvalidFeeRecipient",
      "type": "error"
    },
    {
      "inputs": [],
      "name": "InvalidHealthFactor",
      "type": "error"
    },
    {
      "inputs": [],
      "name": "InvalidInitialization",
      "type": "error"
    },
    {
      "inputs": [],
      "name": "InvalidPosition",
      "type": "error"
    },
    {
      "inputs": [],
      "name": "InvalidQueuedShares",
      "type": "error"
    },
    {
      "inputs": [],
      "name": "InvalidReceivedAssets",
      "type": "error"
    },
    {
      "inputs": [],
      "name": "InvalidSecurityDeposit",
      "type": "error"
    },
    {
      "inputs": [],
      "name": "InvalidShares",
      "type": "error"
    },
    {
      "inputs": [],
      "name": "InvalidTokenMeta",
      "type": "error"
    },
    {
      "inputs": [],
      "name": "InvalidValidators",
      "type": "error"
    },
    {
      "inputs": [],
      "name": "LiquidationDisabled",
      "type": "error"
    },
    {
      "inputs": [],
      "name": "LowLtv",
      "type": "error"
    },
    {
      "inputs": [],
      "name": "MathOverflowedMulDiv",
      "type": "error"
    },
    {
      "inputs": [],
      "name": "NotCollateralized",
      "type": "error"
    },
    {
      "inputs": [],
      "name": "NotHarvested",
      "type": "error"
    },
    {
      "inputs": [],
      "name": "NotInitializing",
      "type": "error"
    },
    {
      "inputs": [],
      "name": "PermitInvalidSigner",
      "type": "error"
    },
    {
      "inputs": [],
      "name": "ReentrancyGuardReentrantCall",
      "type": "error"
    },
    {
      "inputs": [
        {
          "internalType": "uint8",
          "name": "bits",
          "type": "uint8"
        },
        {
          "internalType": "uint256",
          "name": "value",
          "type": "uint256"
        }
      ],
      "name": "SafeCastOverflowedUintDowncast",
      "type": "error"
    },
    {
      "inputs": [],
      "name": "UUPSUnauthorizedCallContext",
      "type": "error"
    },
    {
      "inputs": [
        {
          "internalType": "bytes32",
          "name": "slot",
          "type": "bytes32"
        }
      ],
      "name": "UUPSUnsupportedProxiableUUID",
      "type": "error"
    },
    {
      "inputs": [],
      "name": "UpgradeFailed",
      "type": "error"
    },
    {
      "inputs": [],
      "name": "ZeroAddress",
      "type": "error"
    },
    {
      "anonymous": false,
      "inputs": [
        {
          "indexed": true,
          "internalType": "address",
          "name": "owner",
          "type": "address"
        },
        {
          "indexed": true,
          "internalType": "address",
          "name": "spender",
          "type": "address"
        },
        {
          "indexed": false,
          "internalType": "uint256",
          "name": "value",
          "type": "uint256"
        }
      ],
      "name": "Approval",
      "type": "event"
    },
    {
      "anonymous": false,
      "inputs": [
        {
          "indexed": false,
          "internalType": "uint256",
          "name": "shares",
          "type": "uint256"
        },
        {
          "indexed": false,
          "internalType": "uint256",
          "name": "assets",
          "type": "uint256"
        }
      ],
      "name": "CheckpointCreated",
      "type": "event"
    },
    {
      "anonymous": false,
      "inputs": [
        {
          "indexed": true,
          "internalType": "address",
          "name": "caller",
          "type": "address"
        },
        {
          "indexed": true,
          "internalType": "address",
          "name": "receiver",
          "type": "address"
        },
        {
          "indexed": false,
          "internalType": "uint256",
          "name": "assets",
          "type": "uint256"
        },
        {
          "indexed": false,
          "internalType": "uint256",
          "name": "shares",
          "type": "uint256"
        },
        {
          "indexed": false,
          "internalType": "address",
          "name": "referrer",
          "type": "address"
        }
      ],
      "name": "Deposited",
      "type": "event"
    },
    {
      "anonymous": false,
      "inputs": [
        {
          "indexed": true,
          "internalType": "address",
          "name": "owner",
          "type": "address"
        },
        {
          "indexed": true,
          "internalType": "address",
          "name": "receiver",
          "type": "address"
        },
        {
          "indexed": false,
          "internalType": "uint256",
          "name": "positionTicket",
          "type": "uint256"
        },
        {
          "indexed": false,
          "internalType": "uint256",
          "name": "shares",
          "type": "uint256"
        }
      ],
      "name": "ExitQueueEntered",
      "type": "event"
    },
    {
      "anonymous": false,
      "inputs": [
        {
          "indexed": true,
          "internalType": "address",
          "name": "receiver",
          "type": "address"
        },
        {
          "indexed": false,
          "internalType": "uint256",
          "name": "prevPositionTicket",
          "type": "uint256"
        },
        {
          "indexed": false,
          "internalType": "uint256",
          "name": "newPositionTicket",
          "type": "uint256"
        },
        {
          "indexed": false,
          "internalType": "uint256",
          "name": "withdrawnAssets",
          "type": "uint256"
        }
      ],
      "name": "ExitedAssetsClaimed",
      "type": "event"
    },
    {
      "anonymous": false,
      "inputs": [
        {
          "indexed": false,
          "internalType": "uint256",
          "name": "penalty",
          "type": "uint256"
        }
      ],
      "name": "ExitingAssetsPenalized",
      "type": "event"
    },
    {
      "anonymous": false,
      "inputs": [
        {
          "indexed": true,
          "internalType": "address",
          "name": "caller",
          "type": "address"
        },
        {
          "indexed": true,
          "internalType": "address",
          "name": "feeRecipient",
          "type": "address"
        }
      ],
      "name": "FeeRecipientUpdated",
      "type": "event"
    },
    {
      "anonymous": false,
      "inputs": [
        {
          "indexed": false,
          "internalType": "address",
          "name": "receiver",
          "type": "address"
        },
        {
          "indexed": false,
          "internalType": "uint256",
          "name": "shares",
          "type": "uint256"
        },
        {
          "indexed": false,
          "internalType": "uint256",
          "name": "assets",
          "type": "uint256"
        }
      ],
      "name": "FeeSharesMinted",
      "type": "event"
    },
    {
      "anonymous": false,
      "inputs": [
        {
          "indexed": false,
          "internalType": "uint64",
          "name": "version",
          "type": "uint64"
        }
      ],
      "name": "Initialized",
      "type": "event"
    },
    {
      "anonymous": false,
      "inputs": [
        {
          "indexed": true,
          "internalType": "address",
          "name": "caller",
          "type": "address"
        },
        {
          "indexed": true,
          "internalType": "address",
          "name": "keysManager",
          "type": "address"
        }
      ],
      "name": "KeysManagerUpdated",
      "type": "event"
    },
    {
      "anonymous": false,
      "inputs": [
        {
          "indexed": true,
          "internalType": "address",
          "name": "caller",
          "type": "address"
        },
        {
          "indexed": false,
          "internalType": "string",
          "name": "metadataIpfsHash",
          "type": "string"
        }
      ],
      "name": "MetadataUpdated",
      "type": "event"
    },
    {
      "anonymous": false,
      "inputs": [
        {
          "indexed": true,
          "internalType": "address",
          "name": "caller",
          "type": "address"
        },
        {
          "indexed": false,
          "internalType": "uint256",
          "name": "assets",
          "type": "uint256"
        },
        {
          "indexed": false,
          "internalType": "uint256",
          "name": "shares",
          "type": "uint256"
        }
      ],
      "name": "OsTokenBurned",
      "type": "event"
    },
    {
      "anonymous": false,
      "inputs": [
        {
          "indexed": true,
          "internalType": "address",
          "name": "caller",
          "type": "address"
        },
        {
          "indexed": true,
          "internalType": "address",
          "name": "user",
          "type": "address"
        },
        {
          "indexed": false,
          "internalType": "address",
          "name": "receiver",
          "type": "address"
        },
        {
          "indexed": false,
          "internalType": "uint256",
          "name": "osTokenShares",
          "type": "uint256"
        },
        {
          "indexed": false,
          "internalType": "uint256",
          "name": "shares",
          "type": "uint256"
        },
        {
          "indexed": false,
          "internalType": "uint256",
          "name": "receivedAssets",
          "type": "uint256"
        }
      ],
      "name": "OsTokenLiquidated",
      "type": "event"
    },
    {
      "anonymous": false,
      "inputs": [
        {
          "indexed": true,
          "internalType": "address",
          "name": "caller",
          "type": "address"
        },
        {
          "indexed": false,
          "internalType": "address",
          "name": "receiver",
          "type": "address"
        },
        {
          "indexed": false,
          "internalType": "uint256",
          "name": "assets",
          "type": "uint256"
        },
        {
          "indexed": false,
          "internalType": "uint256",
          "name": "shares",
          "type": "uint256"
        },
        {
          "indexed": false,
          "internalType": "address",
          "name": "referrer",
          "type": "address"
        }
      ],
      "name": "OsTokenMinted",
      "type": "event"
    },
    {
      "anonymous": false,
      "inputs": [
        {
          "indexed": true,
          "internalType": "address",
          "name": "caller",
          "type": "address"
        },
        {
          "indexed": true,
          "internalType": "address",
          "name": "user",
          "type": "address"
        },
        {
          "indexed": false,
          "internalType": "address",
          "name": "receiver",
          "type": "address"
        },
        {
          "indexed": false,
          "internalType": "uint256",
          "name": "osTokenShares",
          "type": "uint256"
        },
        {
          "indexed": false,
          "internalType": "uint256",
          "name": "shares",
          "type": "uint256"
        },
        {
          "indexed": false,
          "internalType": "uint256",
          "name": "assets",
          "type": "uint256"
        }
      ],
      "name": "OsTokenRedeemed",
      "type": "event"
    },
    {
      "anonymous": false,
      "inputs": [
        {
          "indexed": true,
          "internalType": "address",
          "name": "owner",
          "type": "address"
        },
        {
          "indexed": true,
          "internalType": "address",
          "name": "receiver",
          "type": "address"
        },
        {
          "indexed": false,
          "internalType": "uint256",
          "name": "assets",
          "type": "uint256"
        },
        {
          "indexed": false,
          "internalType": "uint256",
          "name": "shares",
          "type": "uint256"
        }
      ],
      "name": "Redeemed",
      "type": "event"
    },
    {
      "anonymous": false,
      "inputs": [
        {
          "indexed": true,
          "internalType": "address",
          "name": "from",
          "type": "address"
        },
        {
          "indexed": true,
          "internalType": "address",
          "name": "to",
          "type": "address"
        },
        {
          "indexed": false,
          "internalType": "uint256",
          "name": "value",
          "type": "uint256"
        }
      ],
      "name": "Transfer",
      "type": "event"
    },
    {
      "anonymous": false,
      "inputs": [
        {
          "indexed": true,
          "internalType": "address",
          "name": "implementation",
          "type": "address"
        }
      ],
      "name": "Upgraded",
      "type": "event"
    },
    {
      "anonymous": false,
      "inputs": [
        {
          "indexed": true,
          "internalType": "address",
          "name": "owner",
          "type": "address"
        },
        {
          "indexed": true,
          "internalType": "address",
          "name": "receiver",
          "type": "address"
        },
        {
          "indexed": false,
          "internalType": "uint256",
          "name": "positionTicket",
          "type": "uint256"
        },
        {
          "indexed": false,
          "internalType": "uint256",
          "name": "shares",
          "type": "uint256"
        },
        {
          "indexed": false,
          "internalType": "uint256",
          "name": "assets",
          "type": "uint256"
        }
      ],
      "name": "V2ExitQueueEntered",
      "type": "event"
    },
    {
      "anonymous": false,
      "inputs": [
        {
          "indexed": false,
          "internalType": "bytes",
          "name": "publicKey",
          "type": "bytes"
        }
      ],
      "name": "ValidatorRegistered",
      "type": "event"
    },
    {
      "anonymous": false,
      "inputs": [
        {
          "indexed": true,
          "internalType": "address",
          "name": "caller",
          "type": "address"
        },
        {
          "indexed": true,
          "internalType": "address",
          "name": "validatorsManager",
          "type": "address"
        }
      ],
      "name": "ValidatorsManagerUpdated",
      "type": "event"
    },
    {
      "anonymous": false,
      "inputs": [
        {
          "indexed": true,
          "internalType": "address",
          "name": "caller",
          "type": "address"
        },
        {
          "indexed": true,
          "internalType": "bytes32",
          "name": "validatorsRoot",
          "type": "bytes32"
        }
      ],
      "name": "ValidatorsRootUpdated",
      "type": "event"
    },
    {
      "anonymous": false,
      "inputs": [
        {
          "indexed": true,
          "internalType": "address",
          "name": "caller",
          "type": "address"
        },
        {
          "indexed": true,
          "internalType": "address",
          "name": "account",
          "type": "address"
        },
        {
          "indexed": false,
          "internalType": "bool",
          "name": "approved",
          "type": "bool"
        }
      ],
      "name": "WhitelistUpdated",
      "type": "event"
    },
    {
      "anonymous": false,
      "inputs": [
        {
          "indexed": true,
          "internalType": "address",
          "name": "caller",
          "type": "address"
        },
        {
          "indexed": true,
          "internalType": "address",
          "name": "whitelister",
          "type": "address"
        }
      ],
      "name": "WhitelisterUpdated",
      "type": "event"
    },
    {
      "inputs": [],
      "name": "DOMAIN_SEPARATOR",
      "outputs": [
        {
          "internalType": "bytes32",
          "name": "",
          "type": "bytes32"
        }
      ],
      "stateMutability": "view",
      "type": "function"
    },
    {
      "inputs": [],
      "name": "UPGRADE_INTERFACE_VERSION",
      "outputs": [
        {
          "internalType": "string",
          "name": "",
          "type": "string"
        }
      ],
      "stateMutability": "view",
      "type": "function"
    },
    {
      "inputs": [],
      "name": "admin",
      "outputs": [
        {
          "internalType": "address",
          "name": "",
          "type": "address"
        }
      ],
      "stateMutability": "view",
      "type": "function"
    },
    {
      "inputs": [
        {
          "internalType": "address",
          "name": "",
          "type": "address"
        },
        {
          "internalType": "address",
          "name": "",
          "type": "address"
        }
      ],
      "name": "allowance",
      "outputs": [
        {
          "internalType": "uint256",
          "name": "",
          "type": "uint256"
        }
      ],
      "stateMutability": "view",
      "type": "function"
    },
    {
      "inputs": [
        {
          "internalType": "address",
          "name": "spender",
          "type": "address"
        },
        {
          "internalType": "uint256",
          "name": "amount",
          "type": "uint256"
        }
      ],
      "name": "approve",
      "outputs": [
        {
          "internalType": "bool",
          "name": "",
          "type": "bool"
        }
      ],
      "stateMutability": "nonpayable",
      "type": "function"
    },
    {
      "inputs": [
        {
          "internalType": "address",
          "name": "account",
          "type": "address"
        }
      ],
      "name": "balanceOf",
      "outputs": [
        {
          "internalType": "uint256",
          "name": "",
          "type": "uint256"
        }
      ],
      "stateMutability": "view",
      "type": "function"
    },
    {
      "inputs": [
        {
          "internalType": "uint128",
          "name": "osTokenShares",
          "type": "uint128"
        }
      ],
      "name": "burnOsToken",
      "outputs": [
        {
          "internalType": "uint256",
          "name": "assets",
          "type": "uint256"
        }
      ],
      "stateMutability": "nonpayable",
      "type": "function"
    },
    {
      "inputs": [
        {
          "internalType": "address",
          "name": "receiver",
          "type": "address"
        },
        {
          "internalType": "uint256",
          "name": "positionTicket",
          "type": "uint256"
        },
        {
          "internalType": "uint256",
          "name": "timestamp",
          "type": "uint256"
        },
        {
          "internalType": "uint256",
          "name": "exitQueueIndex",
          "type": "uint256"
        }
      ],
      "name": "calculateExitedAssets",
      "outputs": [
        {
          "internalType": "uint256",
          "name": "leftTickets",
          "type": "uint256"
        },
        {
          "internalType": "uint256",
          "name": "exitedTickets",
          "type": "uint256"
        },
        {
          "internalType": "uint256",
          "name": "exitedAssets",
          "type": "uint256"
        }
      ],
      "stateMutability": "view",
      "type": "function"
    },
    {
      "inputs": [],
      "name": "capacity",
      "outputs": [
        {
          "internalType": "uint256",
          "name": "",
          "type": "uint256"
        }
      ],
      "stateMutability": "view",
      "type": "function"
    },
    {
      "inputs": [
        {
          "internalType": "uint256",
          "name": "positionTicket",
          "type": "uint256"
        },
        {
          "internalType": "uint256",
          "name": "timestamp",
          "type": "uint256"
        },
        {
          "internalType": "uint256",
          "name": "exitQueueIndex",
          "type": "uint256"
        }
      ],
      "name": "claimExitedAssets",
      "outputs": [],
      "stateMutability": "nonpayable",
      "type": "function"
    },
    {
      "inputs": [
        {
          "internalType": "uint256",
          "name": "shares",
          "type": "uint256"
        }
      ],
      "name": "convertToAssets",
      "outputs": [
        {
          "internalType": "uint256",
          "name": "assets",
          "type": "uint256"
        }
      ],
      "stateMutability": "view",
      "type": "function"
    },
    {
      "inputs": [
        {
          "internalType": "uint256",
          "name": "assets",
          "type": "uint256"
        }
      ],
      "name": "convertToShares",
      "outputs": [
        {
          "internalType": "uint256",
          "name": "shares",
          "type": "uint256"
        }
      ],
      "stateMutability": "view",
      "type": "function"
    },
    {
      "inputs": [],
      "name": "decimals",
      "outputs": [
        {
          "internalType": "uint8",
          "name": "",
          "type": "uint8"
        }
      ],
      "stateMutability": "view",
      "type": "function"
    },
    {
      "inputs": [
        {
          "internalType": "address",
          "name": "receiver",
          "type": "address"
        },
        {
          "internalType": "address",
          "name": "referrer",
          "type": "address"
        }
      ],
      "name": "deposit",
      "outputs": [
        {
          "internalType": "uint256",
          "name": "shares",
          "type": "uint256"
        }
      ],
      "stateMutability": "payable",
      "type": "function"
    },
    {
      "inputs": [
        {
          "internalType": "address",
          "name": "receiver",
          "type": "address"
        },
        {
          "internalType": "uint256",
          "name": "osTokenShares",
          "type": "uint256"
        },
        {
          "internalType": "address",
          "name": "referrer",
          "type": "address"
        }
      ],
      "name": "depositAndMintOsToken",
      "outputs": [
        {
          "internalType": "uint256",
          "name": "",
          "type": "uint256"
        }
      ],
      "stateMutability": "payable",
      "type": "function"
    },
    {
      "inputs": [
        {
          "internalType": "uint256",
          "name": "shares",
          "type": "uint256"
        },
        {
          "internalType": "address",
          "name": "receiver",
          "type": "address"
        }
      ],
      "name": "enterExitQueue",
      "outputs": [
        {
          "internalType": "uint256",
          "name": "positionTicket",
          "type": "uint256"
        }
      ],
      "stateMutability": "nonpayable",
      "type": "function"
    },
    {
      "inputs": [],
      "name": "feePercent",
      "outputs": [
        {
          "internalType": "uint16",
          "name": "",
          "type": "uint16"
        }
      ],
      "stateMutability": "view",
      "type": "function"
    },
    {
      "inputs": [],
      "name": "feeRecipient",
      "outputs": [
        {
          "internalType": "address",
          "name": "",
          "type": "address"
        }
      ],
      "stateMutability": "view",
      "type": "function"
    },
    {
      "inputs": [
        {
          "internalType": "uint256",
          "name": "positionTicket",
          "type": "uint256"
        }
      ],
      "name": "getExitQueueIndex",
      "outputs": [
        {
          "internalType": "int256",
          "name": "",
          "type": "int256"
        }
      ],
      "stateMutability": "view",
      "type": "function"
    },
    {
      "inputs": [
        {
          "internalType": "address",
          "name": "account",
          "type": "address"
        }
      ],
      "name": "getShares",
      "outputs": [
        {
          "internalType": "uint256",
          "name": "",
          "type": "uint256"
        }
      ],
      "stateMutability": "view",
      "type": "function"
    },
    {
      "inputs": [],
      "name": "implementation",
      "outputs": [
        {
          "internalType": "address",
          "name": "",
          "type": "address"
        }
      ],
      "stateMutability": "view",
      "type": "function"
    },
    {
      "inputs": [
        {
          "internalType": "bytes",
          "name": "params",
          "type": "bytes"
        }
      ],
      "name": "initialize",
      "outputs": [],
      "stateMutability": "payable",
      "type": "function"
    },
    {
      "inputs": [],
      "name": "isStateUpdateRequired",
      "outputs": [
        {
          "internalType": "bool",
          "name": "",
          "type": "bool"
        }
      ],
      "stateMutability": "view",
      "type": "function"
    },
    {
      "inputs": [
        {
          "internalType": "uint256",
          "name": "osTokenShares",
          "type": "uint256"
        },
        {
          "internalType": "address",
          "name": "owner",
          "type": "address"
        },
        {
          "internalType": "address",
          "name": "receiver",
          "type": "address"
        }
      ],
      "name": "liquidateOsToken",
      "outputs": [],
      "stateMutability": "nonpayable",
      "type": "function"
    },
    {
      "inputs": [],
      "name": "mevEscrow",
      "outputs": [
        {
          "internalType": "address",
          "name": "",
          "type": "address"
        }
      ],
      "stateMutability": "view",
      "type": "function"
    },
    {
      "inputs": [
        {
          "internalType": "address",
          "name": "receiver",
          "type": "address"
        },
        {
          "internalType": "uint256",
          "name": "osTokenShares",
          "type": "uint256"
        },
        {
          "internalType": "address",
          "name": "referrer",
          "type": "address"
        }
      ],
      "name": "mintOsToken",
      "outputs": [
        {
          "internalType": "uint256",
          "name": "assets",
          "type": "uint256"
        }
      ],
      "stateMutability": "nonpayable",
      "type": "function"
    },
    {
      "inputs": [
        {
          "internalType": "bytes[]",
          "name": "data",
          "type": "bytes[]"
        }
      ],
      "name": "multicall",
      "outputs": [
        {
          "internalType": "bytes[]",
          "name": "results",
          "type": "bytes[]"
        }
      ],
      "stateMutability": "nonpayable",
      "type": "function"
    },
    {
      "inputs": [],
      "name": "name",
      "outputs": [
        {
          "internalType": "string",
          "name": "",
          "type": "string"
        }
      ],
      "stateMutability": "view",
      "type": "function"
    },
    {
      "inputs": [
        {
          "internalType": "address",
          "name": "",
          "type": "address"
        }
      ],
      "name": "nonces",
      "outputs": [
        {
          "internalType": "uint256",
          "name": "",
          "type": "uint256"
        }
      ],
      "stateMutability": "view",
      "type": "function"
    },
    {
      "inputs": [
        {
          "internalType": "address",
          "name": "user",
          "type": "address"
        }
      ],
      "name": "osTokenPositions",
      "outputs": [
        {
          "internalType": "uint128",
          "name": "shares",
          "type": "uint128"
        }
      ],
      "stateMutability": "view",
      "type": "function"
    },
    {
      "inputs": [
        {
          "internalType": "address",
          "name": "owner",
          "type": "address"
        },
        {
          "internalType": "address",
          "name": "spender",
          "type": "address"
        },
        {
          "internalType": "uint256",
          "name": "value",
          "type": "uint256"
        },
        {
          "internalType": "uint256",
          "name": "deadline",
          "type": "uint256"
        },
        {
          "internalType": "uint8",
          "name": "v",
          "type": "uint8"
        },
        {
          "internalType": "bytes32",
          "name": "r",
          "type": "bytes32"
        },
        {
          "internalType": "bytes32",
          "name": "s",
          "type": "bytes32"
        }
      ],
      "name": "permit",
      "outputs": [],
      "stateMutability": "nonpayable",
      "type": "function"
    },
    {
      "inputs": [],
      "name": "proxiableUUID",
      "outputs": [
        {
          "internalType": "bytes32",
          "name": "",
          "type": "bytes32"
        }
      ],
      "stateMutability": "view",
      "type": "function"
    },
    {
      "inputs": [],
      "name": "queuedShares",
      "outputs": [
        {
          "internalType": "uint128",
          "name": "",
          "type": "uint128"
        }
      ],
      "stateMutability": "view",
      "type": "function"
    },
    {
      "inputs": [],
      "name": "receiveFromMevEscrow",
      "outputs": [],
      "stateMutability": "payable",
      "type": "function"
    },
    {
      "inputs": [
        {
          "internalType": "uint256",
          "name": "osTokenShares",
          "type": "uint256"
        },
        {
          "internalType": "address",
          "name": "owner",
          "type": "address"
        },
        {
          "internalType": "address",
          "name": "receiver",
          "type": "address"
        }
      ],
      "name": "redeemOsToken",
      "outputs": [],
      "stateMutability": "nonpayable",
      "type": "function"
    },
    {
      "inputs": [
        {
          "components": [
            {
              "internalType": "bytes32",
              "name": "validatorsRegistryRoot",
              "type": "bytes32"
            },
            {
              "internalType": "uint256",
              "name": "deadline",
              "type": "uint256"
            },
            {
              "internalType": "bytes",
              "name": "validators",
              "type": "bytes"
            },
            {
              "internalType": "bytes",
              "name": "signatures",
              "type": "bytes"
            },
            {
              "internalType": "string",
              "name": "exitSignaturesIpfsHash",
              "type": "string"
            }
          ],
          "internalType": "struct IKeeperValidators.ApprovalParams",
          "name": "keeperParams",
          "type": "tuple"
        },
        {
          "internalType": "bytes",
          "name": "validatorsManagerSignature",
          "type": "bytes"
        }
      ],
      "name": "registerValidators",
      "outputs": [],
      "stateMutability": "nonpayable",
      "type": "function"
    },
    {
      "inputs": [
        {
          "internalType": "address",
          "name": "_feeRecipient",
          "type": "address"
        }
      ],
      "name": "setFeeRecipient",
      "outputs": [],
      "stateMutability": "nonpayable",
      "type": "function"
    },
    {
      "inputs": [
        {
          "internalType": "string",
          "name": "metadataIpfsHash",
          "type": "string"
        }
      ],
      "name": "setMetadata",
      "outputs": [],
      "stateMutability": "nonpayable",
      "type": "function"
    },
    {
      "inputs": [
        {
          "internalType": "address",
          "name": "validatorsManager_",
          "type": "address"
        }
      ],
      "name": "setValidatorsManager",
      "outputs": [],
      "stateMutability": "nonpayable",
      "type": "function"
    },
    {
      "inputs": [
        {
          "internalType": "address",
          "name": "_whitelister",
          "type": "address"
        }
      ],
      "name": "setWhitelister",
      "outputs": [],
      "stateMutability": "nonpayable",
      "type": "function"
    },
    {
      "inputs": [],
      "name": "symbol",
      "outputs": [
        {
          "internalType": "string",
          "name": "",
          "type": "string"
        }
      ],
      "stateMutability": "view",
      "type": "function"
    },
    {
      "inputs": [],
      "name": "totalAssets",
      "outputs": [
        {
          "internalType": "uint256",
          "name": "",
          "type": "uint256"
        }
      ],
      "stateMutability": "view",
      "type": "function"
    },
    {
      "inputs": [],
      "name": "totalExitingAssets",
      "outputs": [
        {
          "internalType": "uint128",
          "name": "",
          "type": "uint128"
        }
      ],
      "stateMutability": "view",
      "type": "function"
    },
    {
      "inputs": [],
      "name": "totalShares",
      "outputs": [
        {
          "internalType": "uint256",
          "name": "",
          "type": "uint256"
        }
      ],
      "stateMutability": "view",
      "type": "function"
    },
    {
      "inputs": [],
      "name": "totalSupply",
      "outputs": [
        {
          "internalType": "uint256",
          "name": "",
          "type": "uint256"
        }
      ],
      "stateMutability": "view",
      "type": "function"
    },
    {
      "inputs": [
        {
          "internalType": "address",
          "name": "to",
          "type": "address"
        },
        {
          "internalType": "uint256",
          "name": "amount",
          "type": "uint256"
        }
      ],
      "name": "transfer",
      "outputs": [
        {
          "internalType": "bool",
          "name": "",
          "type": "bool"
        }
      ],
      "stateMutability": "nonpayable",
      "type": "function"
    },
    {
      "inputs": [
        {
          "internalType": "address",
          "name": "from",
          "type": "address"
        },
        {
          "internalType": "address",
          "name": "to",
          "type": "address"
        },
        {
          "internalType": "uint256",
          "name": "amount",
          "type": "uint256"
        }
      ],
      "name": "transferFrom",
      "outputs": [
        {
          "internalType": "bool",
          "name": "",
          "type": "bool"
        }
      ],
      "stateMutability": "nonpayable",
      "type": "function"
    },
    {
      "inputs": [
        {
          "internalType": "uint256",
          "name": "osTokenShares",
          "type": "uint256"
        }
      ],
      "name": "transferOsTokenPositionToEscrow",
      "outputs": [
        {
          "internalType": "uint256",
          "name": "positionTicket",
          "type": "uint256"
        }
      ],
      "stateMutability": "nonpayable",
      "type": "function"
    },
    {
      "inputs": [
        {
          "components": [
            {
              "internalType": "bytes32",
              "name": "rewardsRoot",
              "type": "bytes32"
            },
            {
              "internalType": "int160",
              "name": "reward",
              "type": "int160"
            },
            {
              "internalType": "uint160",
              "name": "unlockedMevReward",
              "type": "uint160"
            },
            {
              "internalType": "bytes32[]",
              "name": "proof",
              "type": "bytes32[]"
            }
          ],
          "internalType": "struct IKeeperRewards.HarvestParams",
          "name": "harvestParams",
          "type": "tuple"
        }
      ],
      "name": "updateState",
      "outputs": [],
      "stateMutability": "nonpayable",
      "type": "function"
    },
    {
      "inputs": [
        {
          "internalType": "address",
          "name": "receiver",
          "type": "address"
        },
        {
          "internalType": "address",
          "name": "referrer",
          "type": "address"
        },
        {
          "components": [
            {
              "internalType": "bytes32",
              "name": "rewardsRoot",
              "type": "bytes32"
            },
            {
              "internalType": "int160",
              "name": "reward",
              "type": "int160"
            },
            {
              "internalType": "uint160",
              "name": "unlockedMevReward",
              "type": "uint160"
            },
            {
              "internalType": "bytes32[]",
              "name": "proof",
              "type": "bytes32[]"
            }
          ],
          "internalType": "struct IKeeperRewards.HarvestParams",
          "name": "harvestParams",
          "type": "tuple"
        }
      ],
      "name": "updateStateAndDeposit",
      "outputs": [
        {
          "internalType": "uint256",
          "name": "shares",
          "type": "uint256"
        }
      ],
      "stateMutability": "payable",
      "type": "function"
    },
    {
      "inputs": [
        {
          "internalType": "address",
          "name": "receiver",
          "type": "address"
        },
        {
          "internalType": "uint256",
          "name": "osTokenShares",
          "type": "uint256"
        },
        {
          "internalType": "address",
          "name": "referrer",
          "type": "address"
        },
        {
          "components": [
            {
              "internalType": "bytes32",
              "name": "rewardsRoot",
              "type": "bytes32"
            },
            {
              "internalType": "int160",
              "name": "reward",
              "type": "int160"
            },
            {
              "internalType": "uint160",
              "name": "unlockedMevReward",
              "type": "uint160"
            },
            {
              "internalType": "bytes32[]",
              "name": "proof",
              "type": "bytes32[]"
            }
          ],
          "internalType": "struct IKeeperRewards.HarvestParams",
          "name": "harvestParams",
          "type": "tuple"
        }
      ],
      "name": "updateStateAndDepositAndMintOsToken",
      "outputs": [
        {
          "internalType": "uint256",
          "name": "",
          "type": "uint256"
        }
      ],
      "stateMutability": "payable",
      "type": "function"
    },
    {
      "inputs": [
        {
          "internalType": "address",
          "name": "account",
          "type": "address"
        },
        {
          "internalType": "bool",
          "name": "approved",
          "type": "bool"
        }
      ],
      "name": "updateWhitelist",
      "outputs": [],
      "stateMutability": "nonpayable",
      "type": "function"
    },
    {
      "inputs": [
        {
          "internalType": "address",
          "name": "newImplementation",
          "type": "address"
        },
        {
          "internalType": "bytes",
          "name": "data",
          "type": "bytes"
        }
      ],
      "name": "upgradeToAndCall",
      "outputs": [],
      "stateMutability": "payable",
      "type": "function"
    },
    {
      "inputs": [],
      "name": "validatorsManager",
      "outputs": [
        {
          "internalType": "address",
          "name": "",
          "type": "address"
        }
      ],
      "stateMutability": "view",
      "type": "function"
    },
    {
      "inputs": [],
      "name": "vaultId",
      "outputs": [
        {
          "internalType": "bytes32",
          "name": "",
          "type": "bytes32"
        }
      ],
      "stateMutability": "pure",
      "type": "function"
    },
    {
      "inputs": [],
      "name": "version",
      "outputs": [
        {
          "internalType": "uint8",
          "name": "",
          "type": "uint8"
        }
      ],
      "stateMutability": "pure",
      "type": "function"
    },
    {
      "inputs": [
        {
          "internalType": "address",
          "name": "",
          "type": "address"
        }
      ],
      "name": "whitelistedAccounts",
      "outputs": [
        {
          "internalType": "bool",
          "name": "",
          "type": "bool"
        }
      ],
      "stateMutability": "view",
      "type": "function"
    },
    {
      "inputs": [],
      "name": "whitelister",
      "outputs": [
        {
          "internalType": "address",
          "name": "",
          "type": "address"
        }
      ],
      "stateMutability": "view",
      "type": "function"
    },
    {
      "inputs": [],
      "name": "withdrawableAssets",
      "outputs": [
        {
          "internalType": "uint256",
          "name": "",
          "type": "uint256"
        }
      ],
      "stateMutability": "view",
      "type": "function"
    },
    {
      "stateMutability": "payable",
      "type": "receive"
    }
  ],
  "bytecode": "0x61020034620001f25762005d0938819003601f8101601f191683016001600160401b03811184821017620001f65783928291604052833961012091829181010312620001f25762000050826200020a565b6200005e602084016200020a565b6200006c604085016200020a565b916200007b606086016200020a565b62000089608087016200020a565b916200009860a088016200020a565b93620000a760c089016200020a565b95620000b660e08a016200020a565b91610100809a01519360805260a05260c0523060e052620000d66200021f565b468852865261014046815261016091825260018060a01b038061018094168452806101a0951685526101c0951685526101e0958652620001156200021f565b60405196615a4a9889620002bf8a3960805189818161182f01528181611a030152818161316901528181613e0601526158b7015260a051896114c6015260c0518981816140f70152614218015260e0518981816116450152613bc8015251886127c301525187612df801525186613e7c01525185611ba90152518481816104dd01528181610b4201528181612e42015281816135a901528181614770015281816148cb0152614a72015251838181610c01015281816111c20152818161366801526149f601525182611e9c01525181818161279e01526131b10152f35b5f80fd5b634e487b7160e01b5f52604160045260245ffd5b51906001600160a01b0382168203620001f257565b7ff0c57e16840df040f15088dc2f81fe391c3923bec73e23a9662efc9c229c6a00805460ff8160401c16620002ac576001600160401b036002600160401b0319828216016200026d57505050565b6001600160401b031990911681179091556040519081527fc7f505b2f371ae2175ee4913f4499e1f2633a7b5936321eed1cdaeb6115181d290602090a1565b60405163f92ee8a960e01b8152600490fdfe60806040526004361015610022575b3615610018575f80fd5b610020612e1a565b005b5f3560e01c806301d523b6146103c757806301e1d114146103c2578063066055e0146103bd57806306fdde03146103b857806307a2d13a146103b3578063095ea7b3146103ae5780630d392cd9146103a957806318160ddd1461036857806318f72950146103a45780631a7ff5531461039f578063201b9eb51461039a57806322758a4a1461039557806323b872dd146103905780632999ad3f1461038b5780632cdf740114610386578063313ce567146103815780633229fa951461037c57806333194c0a146103775780633644e5151461037257806336fe59d21461036d5780633a98ef3914610368578063439fab911461036357806343e82a791461035e57806346904840146103595780634ec96b22146103545780634f1ef2861461034f57806352d1902d1461034a57806353156f281461034557806354fd4d50146103405780635c60da1b1461033b5780635cfc1a511461033657806360d60e6e1461033157806370a08231146102c357806372b410a81461032c578063754c38881461032757806376b58b90146103225780637ecebe001461031d5780637fd6f15c1461031857806383d430d5146103135780638697d2c21461030e5780638ceab9aa146103095780639267842a1461030457806395d89b41146102ff578063a49a1e7d146102fa578063a9059cbb146102f5578063ac9650d8146102f0578063ad3cb1cc146102eb578063b1f0e7c7146102e6578063c6e6f592146102e1578063d505accf146102dc578063d83ad00c146102d7578063dd62ed3e146102d2578063e74b981b146102cd578063ee3bd5df146102c8578063f04da65b146102c3578063f6a6830f146102be578063f851a440146102b9578063f9609f08146102b45763f98f5b920361000e57612570565b612558565b612530565b6124ef565b6117c9565b6124c9565b61249c565b612458565b61240d565b6121f8565b6121cf565b6121b5565b612170565b61210b565b61206a565b612018565b611f74565b611d80565b611d28565b611b7d565b6119ad565b611989565b61194e565b6118fd565b611891565b611804565b611729565b61170f565b6116db565b6116c0565b61169c565b611633565b6113ae565b6112c8565b6112a0565b611193565b6110cd565b610908565b61105e565b611044565b61100a565b610fde565b610fc3565b610fa9565b610b18565b610a3c565b610a13565b6109f0565b610994565b61092e565b6108d6565b61082a565b61080c565b610746565b61048d565b61045c565b6103ef565b6001600160a01b038116036103dd57565b5f80fd5b908160809103126103dd5790565b60803660031901126103dd57600435610407816103cc565b604435610413816103cc565b606435906001600160401b0382116103dd5760209261044161043c61044a9436906004016103e1565b612708565b602435906127f5565b604051908152f35b5f9103126103dd57565b346103dd575f3660031901126103dd57602060cf5460801c604051908152f35b6001600160801b038116036103dd57565b346103dd5760203660031901126103dd576004356104aa8161047c565b604051633b9e9f0160e21b81523360048201526001600160801b03821660248201526020816044815f6001600160a01b037f0000000000000000000000000000000000000000000000000000000000000000165af190811561062c575f916105fd575b50335f90815261016e60205260409020610526906125b7565b916001600160801b0361054084516001600160801b031690565b16156105eb57610599836105566105e795612e2d565b6105806105738461056e84516001600160801b031690565b612608565b6001600160801b03168252565b335f90815261016e60205260409020612621565b612621565b604080518381526001600160801b0392909216602083015233917f3f7354ba02880b4fa37a629985852a38417ff369369ce1e52fa6f8342a9100a79190a26040519081529081906020820190565b0390f35b60405163673f032f60e11b8152600490fd5b61061f915060203d602011610625575b61061781836106cb565b81019061259d565b5f61050d565b503d61060d565b6125ac565b90600182811c9216801561065f575b602083101461064b57565b634e487b7160e01b5f52602260045260245ffd5b91607f1691610640565b634e487b7160e01b5f52604160045260245ffd5b604081019081106001600160401b0382111761069857604052565b610669565b6001600160401b03811161069857604052565b608081019081106001600160401b0382111761069857604052565b90601f801991011681019081106001600160401b0382111761069857604052565b5f5b8381106106fd5750505f910152565b81810151838201526020016106ee565b90602091610726815180928185528580860191016106ec565b601f01601f1916010190565b90602061074392818152019061070d565b90565b346103dd575f3660031901126103dd576040515f805461076581610631565b808452906020906001908181169081156107e2575060011461079e575b6105e785610792818703826106cb565b60405191829182610732565b5f80805293505f805160206159758339815191525b8385106107cf57505050508101602001610792826105e7610782565b80548686018401529382019381016107b3565b8695506105e79693506020925061079294915060ff191682840152151560051b8201019293610782565b346103dd5760203660031901126103dd57602061044a60043561264a565b346103dd5760403660031901126103dd57600435610847816103cc565b6001600160a01b038116906024359082156108ba576108828291335f52600260205260405f209060018060a01b03165f5260205260405f2090565b556040519081527f8c5be1e5ebec7d5bd14f71427d1e84f3dd0314c0f7b2291e5b200ac8c7c3b92560203392a3602060405160018152f35b60405163d92e233d60e01b8152600490fd5b801515036103dd57565b346103dd5760403660031901126103dd576100206004356108f6816103cc565b60243590610903826108cc565b612670565b346103dd575f3660031901126103dd5760206001600160801b0360cf5416604051908152f35b60603660031901126103dd57600435610946816103cc565b602435610952816103cc565b604435906001600160401b0382116103dd5760209261097b61043c61044a9436906004016103e1565b61098433613464565b61098d81613464565b34906145ea565b346103dd5760203660031901126103dd576004356001600160401b0381116103dd5761043c6100209136906004016103e1565b60609060031901126103dd576004356109df816103cc565b9060243590604435610743816103cc565b346103dd57602061044a610a03366109c7565b91610a0d33613464565b336146b1565b346103dd575f3660031901126103dd5761026a546040516001600160a01b039091168152602090f35b346103dd5760603660031901126103dd57600435610a59816103cc565b60243590610a66826103cc565b6001600160a01b0381165f8181526002602090815260408083203384529091529020546044359160018201610ab6575b610aaa84610aa5858883614945565b613486565b60405160018152602090f35b919093818503948511610aea575f928352600260209081526040808520338652909152909220939093559180610aaa610a96565b6125dc565b60609060031901126103dd5760043590602435610b0b816103cc565b90604435610743816103cc565b346103dd57610b2636610aef565b906001600160a01b03808316156108ba57610b3f613deb565b807f00000000000000000000000000000000000000000000000000000000000000001691823b156103dd5760408051631d8557d760e01b815260049491905f81878183875af1801561062c57610f90575b506001600160a01b0383165f90815261016e60205260409020610bb2906125b7565b6001600160801b039283610bcd83516001600160801b031690565b1615610f8057610bdc82612e2d565b825163e48a5f7b60e01b8152308882019081529097906060908990819060200103818a7f0000000000000000000000000000000000000000000000000000000000000000165afa97881561062c575f98610f4f575b50602097888101956001600160401b03918280610c558a516001600160401b031690565b1614610f3f57908c92918751918c8380610c816303d1689d60e11b988983528a83019190602083019252565b03818a5afa91821561062c57610cad938e5f94610f1a575b5050516001600160801b03165b1690612f5c565b96610cd1610ccb8a60018060a01b03165f5260d360205260405f2090565b5461264a565b928389118015610f0a575b610efa57908b610d1a9392610cf889516001600160801b031690565b908a51958692839283528983019190916001600160801b036020820193169052565b0381895afa91821561062c57670de0b6b3a764000094610d69948e5f95610ecd575b5050610d5b610d4d610d6192612bce565b93516001600160401b031690565b93612bce565b921690612fd0565b1015610ebf578351633b9e9f0160e21b815233918101918252602082018b905294939291889186919082905f90829060400103925af190811561062c577f61fd285f9e34a3dbfa9846bdcf22a023e37a3c93549902843b30dd74a18c535097610e9c95610e1393610ea1575b5050610df6610573610de68c61431d565b83516001600160801b0316612608565b6001600160a01b0386165f90815261016e60205260409020612621565b610e1c826143ea565b90610e5b610e40610e2c8561431d565b60cf5460801c5b036001600160801b031690565b6001600160801b0360cf549181199060801b1691161760cf55565b610e65828661537c565b610e6f8389614350565b51948594169733978590949392606092608083019660018060a01b03168352602083015260408201520152565b0390a3005b81610eb792903d106106255761061781836106cb565b505f80610dd5565b835163185cfc6d60e11b8152fd5b610d61929550610ef0610d5b9282610d4d93903d106106255761061781836106cb565b959250508e610d3c565b875163efda1a2760e01b81528590fd5b50610f1361274f565b8911610cdc565b610ca69294509081610f3792903d106106255761061781836106cb565b92908e610c99565b8651630709133160e01b81528490fd5b610f7291985060603d606011610f79575b610f6a81836106cb565b810190613531565b965f610c31565b503d610f60565b825163673f032f60e11b81528790fd5b80610f9d610fa39261069d565b80610452565b5f610b90565b346103dd575f3660031901126103dd57602061044a61274f565b346103dd575f3660031901126103dd57602060405160128152f35b346103dd575f3660031901126103dd576020610ff8612785565b6040516001600160a01b039091168152f35b346103dd575f3660031901126103dd5760206040517f3c60bf85548481aa53872c99e20f566d08c7fc12e0f05302f4002dedc8d45e4d8152f35b346103dd575f3660031901126103dd57602061044a6127c0565b602061044a61106c366109c7565b916127f5565b9181601f840112156103dd578235916001600160401b0383116103dd57602083818601950101116103dd57565b60206003198201126103dd57600435906001600160401b0382116103dd576110c991600401611072565b9091565b6110d63661109f565b907ff0c57e16840df040f15088dc2f81fe391c3923bec73e23a9662efc9c229c6a009182549160ff8360401c16801561117f575b61116d57680100000000000000036111309368ffffffffffffffffff1916178455612900565b68ff00000000000000001981541690557fc7f505b2f371ae2175ee4913f4499e1f2633a7b5936321eed1cdaeb6115181d2602060405160038152a1005b60405163f92ee8a960e01b8152600490fd5b5060036001600160401b038416101561110a565b346103dd576111a136610aef565b60405163057453a760e31b81529091906001600160a01b03906020816004817f000000000000000000000000000000000000000000000000000000000000000086165afa801561062c5782915f91611271575b5016330361125f5781610e9c61122c86867f57f5eb636bf62215c111b54545422f11dfb0cb115f606be905f0be08e8859dd39661358b565b604080516001600160a01b0390981688526020880198909852968601526060850195909552169233929081906080820190565b604051634ca8886760e01b8152600490fd5b611293915060203d602011611299575b61128b81836106cb565b810190612822565b5f6111f4565b503d611281565b346103dd575f3660031901126103dd57609c546040516001600160a01b039091168152602090f35b346103dd5760203660031901126103dd576004356112e5816103cc565b60018060a01b03165f5261016e602052602060405f20604051906113088261067d565b54906001600160801b03918281169081835260801c84830152611330575b5116604051908152f35b61133981612e2d565b611326565b6040519060a082018281106001600160401b0382111761069857604052565b6001600160401b03811161069857601f01601f191660200190565b9291926113848261135d565b9161139260405193846106cb565b8294818452818301116103dd578281602093845f960137010152565b6040806003193601126103dd5760049081356113c9816103cc565b6024356001600160401b0381116103dd57366023820112156103dd576113f89036906024818701359101611378565b91611401613bbe565b8051926114388461142a60209363439fab9160e01b85840152846024840152604483019061070d565b03601f1981018652856106cb565b611440613bbe565b611448613c17565b6001600160a01b038381168015929190879084156115fe575b8415611590575b841561152d575b50508215611497575b5050611488576100208383614dc2565b516355299b4960e01b81528390fd5b83516345da87c560e01b81526001600160a01b03861688820190815292935091839183918290819060200103917f0000000000000000000000000000000000000000000000000000000000000000165afa91821561062c575f92611500575b5050155f80611478565b61151f9250803d10611526575b61151781836106cb565b8101906129de565b5f806114f6565b503d61150d565b855163054fd4d560e41b81529294508391839182905afa90811561062c57879160ff915f91611563575b5016141591865f61146f565b6115839150843d8611611589575b61157b81836106cb565b810190614dad565b5f611557565b503d611571565b935050835163198ca60560e11b815282818981875afa90811561062c5788917f3c60bf85548481aa53872c99e20f566d08c7fc12e0f05302f4002dedc8d45e4d915f916115e1575b50141593611468565b6115f89150853d87116106255761061781836106cb565b5f6115d8565b5f805160206159b583398151915254909450849061162c906001600160a01b03165b6001600160a01b031690565b1493611461565b346103dd575f3660031901126103dd577f00000000000000000000000000000000000000000000000000000000000000006001600160a01b0316300361168a5760206040515f805160206159b58339815191528152f35b60405163703e46dd60e11b8152600490fd5b5f3660031901126103dd576001600160a01b036116b7612785565b16330361125f57005b346103dd575f3660031901126103dd57602060405160038152f35b346103dd575f3660031901126103dd575f805160206159b5833981519152546040516001600160a01b039091168152602090f35b346103dd575f3660031901126103dd57602061044a6129d0565b346103dd5760203660031901126103dd5760d180549081905f6004355b8482106117775750505081101561176c576105e7905b6040519081529081906020820190565b506105e75f1961175c565b909193808316906001818518811c8301809311610aea575f8790525f805160206159f58339815191528301546001600160a01b03168410156117be575050935b9190611746565b9095910192506117b7565b346103dd5760203660031901126103dd576004356117e6816103cc565b60018060a01b03165f5260d3602052602060405f2054604051908152f35b346103dd575f3660031901126103dd57604051633eb1acf760e11b81523060048201526020816024817f00000000000000000000000000000000000000000000000000000000000000006001600160a01b03165afa801561062c576020915f91611874575b506040519015158152f35b61188b9150823d84116115265761151781836106cb565b5f611869565b346103dd5760203660031901126103dd576004356118ae816103cc565b6118b6613c17565b61010980546001600160a01b0319166001600160a01b03929092169182179055337f6bdc78d8c88160b3fc3638e67f2afe523b3f4c7d00c56ebb6216790e4c3eb2cb5f80a3005b346103dd5760803660031901126103dd576105e7611931600435611920816103cc565b606435906044359060243590612a00565b604080519384526020840192909252908201529081906060820190565b346103dd5760203660031901126103dd5760043561196b816103cc565b60018060a01b03165f526003602052602060405f2054604051908152f35b346103dd575f3660031901126103dd57602061ffff609c5460a01c16604051908152f35b346103dd576003196040368201126103dd5760049081356001600160401b038082116103dd5760a08285019383360301126103dd576024359081116103dd576119f99036908501611072565b6001600160a01b037f00000000000000000000000000000000000000000000000000000000000000008116803b156103dd5760405163837d444160e01b8152905f908290818381611a4c8c828f01612ae2565b03925af1801561062c57611b6a575b50611a64613deb565b611a6c612de3565b9081163314159182611b3b575b50509050611b2a576044019160b0611a918484612b60565b90500480158015611b12575b611b0257611ab2611aac61274f565b91612bb5565b11611af3575060b0611ac48383612b60565b9050145f14611ae05761002091611ada91612b60565b9061420a565b61002091611aed91612b60565b906140e2565b6040516396d8043360e01b8152fd5b50604051631c6c4cf360e31b8152fd5b50611b1d8484612b60565b905060b082021415611a9d565b604051634ca8886760e01b81528390fd5b611b5e9250611b58611b6294611b5088613e76565b923691611378565b91613f51565b1590565b805f80611a79565b80610f9d611b779261069d565b5f611a5b565b346103dd5760603660031901126103dd57600435602435611ba2604435828433612a00565b9192611bce7f000000000000000000000000000000000000000000000000000000000000000082612beb565b42108015611d20575b8015611d18575b611d06577feb3b05c070c24f667611fdb3ff75fe007d42401c573aed8d8faca95fd00ccb5693611c39611c1e611c138661431d565b60d05460801c612608565b6001600160801b0360d0549181199060801b1691161760d055565b60408051336020820190815291810184905260608082018990528152601f1993915f91611c7d9190611c6c6080826106cb565b5190205f5260d260205260405f2090565b555f9360018311611cb6575b50505050611c978233614350565b604080519485526020850191909152830152339180606081015b0390a2005b611cfc92939450611cc79088612beb565b60408051336020820190815291810193909352606083018290529094909190611c6c9082608081015b039081018352826106cb565b555f808080611c89565b604051630e3d8e8d60e11b8152600490fd5b508215611bde565b508115611bd7565b346103dd5760403660031901126103dd576020600435611d54602435611d4d816103cc565b8233614faf565b90611d5e33613486565b60405190815230905f805160206159d5833981519152843392a3604051908152f35b346103dd5760203660031901126103dd57600435611d9c613deb565b335f90815261016e60205260409020611db4906125b7565b6001600160801b0380611dce83516001600160801b031690565b16156105eb578290611ddf83612e2d565b82516001600160801b03161610611f6257335f90815260d3602052604090205482611e20611e1484516001600160801b031690565b6001600160801b031690565b14611f4c57611e449083611e3e611e1485516001600160801b031690565b91612fd0565b91611e71611e64611e548361431d565b84516001600160801b0316610e33565b6001600160801b03168352565b335f90815261016e60205260409020611e8b908390612621565b611ed36020611ec460018060a01b037f000000000000000000000000000000000000000000000000000000000000000016809633614faf565b9301516001600160801b031690565b833b156103dd5760405163074ee96960e31b81523360048201526024810184905260448101929092526001600160801b03166064820152915f908390608490829084905af191821561062c576105e792611f39575b506040519081529081906020820190565b80610f9d611f469261069d565b5f611f28565b335f90815261016e602052604081205591611e8b565b604051636edcc52360e01b8152600490fd5b346103dd575f3660031901126103dd576040515f60018054611f9581610631565b80855291602091600181169081156107e25750600114611fbf576105e785610792818703826106cb565b60015f90815293507fb10e2d527612073b26eecdfd717e6a320cf44b4afac2b0732d9fcbe2b7fa0cf65b83851061200557505050508101602001610792826105e7610782565b8054868601840152938201938101611fe9565b346103dd57611cb17f2013570c343af8ab14a9778150e381a0fda34ed6368127a95fd5e7210cbec5bf61204a3661109f565b9290612054613c17565b6040519182916020835233956020840191612ac2565b346103dd5760403660031901126103dd5761209460043561208a816103cc565b6024359033614945565b61209d33613486565b602060405160018152f35b6020808201906020835283518092526040830192602060408460051b8301019501935f915b8483106120dd5750505050505090565b90919293949584806120fb600193603f198682030187528a5161070d565b98019301930191949392906120cd565b346103dd5760203660031901126103dd576001600160401b036004358181116103dd57366023820112156103dd5780600401359182116103dd573660248360051b830101116103dd576105e79160246121649201612d36565b604051918291826120a8565b346103dd575f3660031901126103dd576105e760405161218f8161067d565b60058152640352e302e360dc1b602082015260405191829160208352602083019061070d565b346103dd575f3660031901126103dd576020610ff8612de3565b346103dd5760203660031901126103dd57602061044a6004356143ea565b60ff8116036103dd57565b346103dd5760e03660031901126103dd57600435612215816103cc565b602435612221816103cc565b604435906064359260843590612236826121ed565b6001600160a01b038381169590929086156108ba574281106123fb576020915f91611cf061232989878a6122ec61226b6127c0565b6001600160a01b0384165f9081526003602052604090209097908054906001820190556040519586948d8601968791959493909260a09360c08401977f6e71edae12b1b97f4d1f60370fef10105fa2faae0126114a169c64845d6126c98552600180871b038092166020860152166040840152606083015260808201520152565b0391612300601f19938481018352826106cb565b5190206040519384918983019687909160429261190160f01b8352600283015260228201520190565b5190206040805191825260ff92909216602082015260a4359181019190915260c435606082015281805260809060015afa1561062c575f519282841680159081156123ee575b506123dc576123c985916123b47f8c5be1e5ebec7d5bd14f71427d1e84f3dd0314c0f7b2291e5b200ac8c7c3b9259660018060a01b03165f52600260205260405f2090565b9060018060a01b03165f5260205260405f2090565b5560405193845216918060208101610e9c565b6040516323389ba560e21b8152600490fd5b905083831614155f61236f565b604051631ab7da6b60e01b8152600490fd5b346103dd575f3660031901126103dd5760206001600160801b0360d05416604051908152f35b60409060031901126103dd5760043561244b816103cc565b90602435610743816103cc565b346103dd57602061249361246b36612433565b6001600160a01b039182165f9081526002855260408082209290931681526020919091522090565b54604051908152f35b346103dd5760203660031901126103dd576100206004356124bc816103cc565b6124c4613c17565b614479565b346103dd575f3660031901126103dd5760206001600160801b0360d55416604051908152f35b346103dd5760203660031901126103dd5760043561250c816103cc565b60018060a01b03165f5261026b602052602060ff60405f2054166040519015158152f35b346103dd575f3660031901126103dd576037546040516001600160a01b039091168152602090f35b602061044a61256636612433565b9061098433613464565b346103dd5760203660031901126103dd57610020600435612590816103cc565b612598613c17565b6144db565b908160209103126103dd575190565b6040513d5f823e3d90fd5b906040516125c48161067d565b91546001600160801b038116835260801c6020830152565b634e487b7160e01b5f52601160045260245ffd5b6001600160801b039081165f190191908211610aea57565b6001600160801b039182169082160391908211610aea57565b815160209092015160801b6001600160801b0319166001600160801b0392909216919091179055565b60cf546001600160801b038116908161266257505090565b916107439260801c90612fd0565b61026a546001600160a01b0391908216330361125f576001600160a01b0381165f90815261026b60205260409020549215159260ff1615158314612703576001600160a01b0381165f90815261026b6020526040902060ff1981541660ff851617905560405192835216907fd9c6c3eabe38e3b9a606a66358d8f225489216a59eeba66facefb7d91663526660203392a3565b505050565b61271461271b91613138565b91906132ce565b61272157565b6127296151ca565b80612732575b50565b5f906040519081525f805160206159d583398151915260203092a3565b4760d0546001600160801b0361276681831661264a565b9060d55416019060801c01908181115f1461277f570390565b50505f90565b6101a1546001600160a01b0316801561279b5790565b507f000000000000000000000000000000000000000000000000000000000000000090565b467f0000000000000000000000000000000000000000000000000000000000000000036127ed5760045490565b6107436138a4565b90610743929161280433613464565b61280d33613464565b6128188334336145ea565b50610a0d33613464565b908160209103126103dd5751610743816103cc565b359061ffff821682036103dd57565b9080601f830112156103dd5781602061074393359101611378565b906020828203126103dd5781356001600160401b03928382116103dd57019060a0828203126103dd5761289261133e565b92823584526128a360208401612837565b602085015260408301358181116103dd57826128c0918501612846565b604085015260608301358181116103dd57826128dd918501612846565b606085015260808301359081116103dd576128f89201612846565b608082015290565b6037549091906001600160a01b03166129c65760405163e7f6f22560e01b8152906020908183600481335afa92831561062c575f936129a7575b50604051636f4fa30f60e01b8152938285600481335afa90811561062c576129829561297d945f93612984575b50506129769192810190612861565b9083613af2565b613bb2565b565b612976935090816129a092903d106112995761128b81836106cb565b915f612967565b6129bf919350823d84116112995761128b81836106cb565b915f61293a565b50506129826139ca565b60d4548061074357505f1990565b908160209103126103dd5751610743816108cc565b91908203918211610aea57565b604080516001600160a01b03909216602083019081529082019390935260608101829052909190612a3e81608081015b03601f1981018352826106cb565b5190205f5260d260205260405f2054918215612a6e57612a5f918391613c50565b9091828103908111610aea5792565b5050505f905f905f90565b9035601e19823603018112156103dd5701602081359101916001600160401b0382116103dd5781360383136103dd57565b90603060609281835260208301375f60508201520190565b908060209392818452848401375f828201840152601f01601f1916010190565b9060a061074392602081528235602082015260208301356040820152612b1e612b0e6040850185612a79565b84606085015260c0840191612ac2565b90612b51612b46612b326060870187612a79565b601f19858703810160808701529591612ac2565b946080810190612a79565b93909282860301910152612ac2565b903590601e19813603018212156103dd57018035906001600160401b0382116103dd576020019181360383136103dd57565b634e487b7160e01b5f52601260045260245ffd5b8115612bb0570490565b612b92565b906801bc16d674ec8000009180830292830403610aea57565b90670de0b6b3a764000091828102928184041490151715610aea57565b91908201809211610aea57565b6001600160401b0381116106985760051b60200190565b90612c1982612bf8565b612c2660405191826106cb565b8281528092612c37601f1991612bf8565b01905f5b828110612c4757505050565b806060602080938501015201612c3b565b634e487b7160e01b5f52603260045260245ffd5b90821015612c83576110c99160051b810190612b60565b612c58565b908092918237015f815290565b3d15612cbf573d90612ca68261135d565b91612cb460405193846106cb565b82523d5f602084013e565b606090565b6020818303126103dd578051906001600160401b0382116103dd570181601f820112156103dd578051612cf68161135d565b92612d0460405194856106cb565b818452602082840101116103dd5761074391602080850191016106ec565b8051821015612c835760209160051b010190565b919091612d4283612c0f565b925f5b818110612d5157505050565b5f80612d5e838587612c6c565b60409391612d70855180938193612c88565b0390305af490612d7e612c95565b9115612da5575090600191612d938288612d22565b52612d9e8187612d22565b5001612d45565b9060448151106103dd57612ddf612dca60049283810151602480918301019101612cc4565b925162461bcd60e51b81529283928301610732565b0390fd5b610109546001600160a01b03168061074357507f000000000000000000000000000000000000000000000000000000000000000090565b612e2333613464565b61272f3433614522565b60405163752a536d60e01b81526020816004817f00000000000000000000000000000000000000000000000000000000000000006001600160a01b03165afa90811561062c575f91612ec3575b5060208201916001600160801b03918284511691828214612ebc5783612eaf612eaa612eb7958584865116612fd0565b61431d565b16905261431d565b169052565b5050505050565b612edc915060203d6020116106255761061781836106cb565b5f612e7a565b90808202905f1981840990828083109203918083039214612f51576127109082821115612f3f577fbc01a36e2eb1c432ca57a786c226809d495182a9930be0ded288ce703afb7e91940990828211900360fc1b910360041c170290565b60405163227bc15360e01b8152600490fd5b505061271091500490565b90808202905f1981840990828083109203918083039214612fbf57670de0b6b3a76400009082821115612f3f577faccb18165bd6fe31ae1cf318dc5b51eee0e1ba569b88cd74c1773b91fac10669940990828211900360ee1b910360121c170290565b5050670de0b6b3a764000091500490565b9091828202915f19848209938380861095039480860395146130435784831115612f3f57829109815f038216809204600280826003021880830282030280830282030280830282030280830282030280830282030280920290030293600183805f03040190848311900302920304170290565b5050906107439250612ba6565b908160609103126103dd5780519160406020830151920151610743816108cc565b81835290916001600160fb1b0383116103dd5760209260051b809284830137010190565b90602082528035602083015260208101358060130b8091036103dd57604083015260408101356130c4816103cc565b6001600160a01b031660608381019190915281013536829003601e19018112156103dd5701602081359101906001600160401b0381116103dd578060051b360382136103dd5760a0836080806107439601520191613071565b9190915f8382019384129112908015821691151617610aea57565b6040516325f56f1160e01b81526001600160a01b039291606090829081906131639060048301613095565b03815f877f0000000000000000000000000000000000000000000000000000000000000000165af192831561062c575f915f905f95613289575b50841561323657816131ad612785565b16917f000000000000000000000000000000000000000000000000000000000000000016821461322f57509060205f92600460405180958193634641257d60e01b83525af190811561062c5761320a925f9261320e575b5061311d565b9190565b61322891925060203d6020116106255761061781836106cb565b905f613204565b908161323c575b50509190565b803b156103dd57604051636ee3193160e11b815260048101929092525f908290602490829084905af1801561062c57613276575b80613236565b80610f9d6132839261069d565b5f613270565b919450506132af915060603d6060116132b7575b6132a781836106cb565b810190613050565b93905f61319d565b503d61329d565b600160ff1b8114610aea575f0390565b801561272f576132e3611e1460cf5460801c90565b5f82126133b557816132f491612beb565b90613301610e408361431d565b613316609c549161ffff8360a01c1690612ee2565b801561270357807f555ee6b2ef9506d870f386c067e47d3689435330b012ad263d8cc3531868654793613354611e1460cf546001600160801b031690565b8061339f57505061339a90925b6001600160a01b0316916133758484615162565b60405193849384604091949392606082019560018060a01b0316825260208201520152565b0390a1565b61339a926133af92039084612fd0565b92613361565b906133bf906132be565b6133d4611e1460d5546001600160801b031690565b806133f4575b50806133e4575050565b612eaa610e4091612982936129f3565b9061345b7f3623a54e8078be0d90ecfbef82da6a31ff3e6be8aa1718e7a7f3d0d33ff1d32a9161175c61343f61343461342d8888612beb565b8785612fd0565b80809403960361431d565b6001600160801b03166001600160801b031960d554161760d555565b0390a15f6133da565b6001600160a01b03165f90815261026b602052604090205460ff161561125f57565b60018060a01b0381165f5261016e60205260405f2090604051916134a98361067d565b54906001600160801b03918281169081855260801c602085015215612703576134fc610ccb613501926134da613deb565b6134e386612e2d565b6001600160a01b03165f90815260d36020526040902090565b6149d3565b9151161161350b57565b604051633684c65960e01b8152600490fd5b51906001600160401b03821682036103dd57565b908160609103126103dd5760405190606082018281106001600160401b0382111761069857613583916040918252805161356a8161047c565b84526135786020820161351d565b60208501520161351d565b604082015290565b92906001600160a01b0390818116156108ba576135a6613deb565b817f00000000000000000000000000000000000000000000000000000000000000001690813b156103dd57604094855193631d8557d760e01b85526004945f81878183895af1801561062c57613891575b506001600160a01b0388165f90815261016e60205260409020613619906125b7565b906001600160801b0361363383516001600160801b031690565b16156138815761364282612e2d565b875163e48a5f7b60e01b81523087820190815290916060918391908290819060200103917f0000000000000000000000000000000000000000000000000000000000000000165afa801561062c57613862575b508651936303d1689d60e11b978886526020918287806136bc888c83019190602083019252565b0381845afa96871561062c575f97613843575b5086996136ef610ccb8d60018060a01b03165f5260d360205260405f2090565b88118015613833575b6138235790836137359261371387516001600160801b031690565b908551948592839283528d83019190916001600160801b036020820193169052565b0381845afa98891561062c575f8594889461377a9c613806575b5051633b9e9f0160e21b815233928101928352602083019490945292998a9384929091839160400190565b03925af195861561062c57610de66137c1946137a493610573936129829a6137e8575b505061431d565b6001600160a01b0388165f90815261016e60205260409020612621565b6137e36137cd836143ea565b80976137de610e40610e2c8761431d565b61537c565b614350565b816137fe92903d106106255761061781836106cb565b505f8061379d565b61381c90873d89116106255761061781836106cb565b505f61374f565b825163efda1a2760e01b81528990fd5b5061383c61274f565b88116136f8565b61385b919750833d85116106255761061781836106cb565b955f6136cf565b61387a9060603d606011610f7957610f6a81836106cb565b505f613695565b875163673f032f60e11b81528690fd5b80610f9d61389e9261069d565b5f6135f7565b6040515f905f54906138b582610631565b9283825260209384830193600190866001821691825f146139aa575050600114613967575b505091816138f061396193612a309503826106cb565b519020604080517f8b73c3c69bb8fe3d512ecc4cf759cc79239f7b179b0ffacaa9a75d522b39400f95810195865260208601929092527fc89efdaa54c0f20c7adf612882df0950f5a951637e0307cdcb4c672f298b8bc69085015246606085015230608085015291829060a0850190565b51902090565b5f80805286935091905f805160206159758339815191525b82841061399557505050820101816138f06138da565b8054868501860152879490930192810161397f565b60ff1916875292151560051b850190920192508391506138f090506138da565b6139d2614aff565b6139e7611e1460d0546001600160801b031690565b60018111613ae057600114613a5b575b60d654613a0261557c565b90808210613a1e575b5050613a165f60d655565b612982614add565b5f8051602061599583398151915291613a519103613a3b816154a7565b604080519182525f602083015290918291820190565b0390a15f80613a0b565b613a94613a78613a7360cf546001600160801b031690565b6125f0565b6001600160801b03166001600160801b031960cf54161760cf55565b613aa96001600160801b031960d0541660d055565b613ab1615445565b5f8051602061599583398151915260405180613ad881905f60206040840193600181520152565b0390a16139f7565b604051630299325160e41b8152600490fd5b9190613afc614aff565b608082015190613b0a614aff565b6001600160a01b03841680156108ba57613baa94613b9a93613b83926001600160601b0360a01b60375416176037557f2013570c343af8ab14a9778150e381a0fda34ed6368127a95fd5e7210cbec5bf6040516020815280613b713394602083019061070d565b0390a2602085015161ffff1690614b40565b613b8d8351614b91565b613b95614bc1565b614bee565b6060604082015191015190614c1d565b612982614d4a565b61298290612598614aff565b6001600160a01b037f00000000000000000000000000000000000000000000000000000000000000008116308114918215613bfc575b505061168a57565b5f805160206159b58339815191525416141590505f80613bf4565b6037546001600160a01b0316330361125f57565b90604051613c388161067d565b91546001600160a01b038116835260a01c6020830152565b60d1545f948594939091808410801590613de3575b613dd65783613da0575f5b60d15f526001600160a01b0316613c955f805160206159f58339815191528601613c2b565b8051909790613cac906001600160a01b0316611620565b98613cd1613cc56020809b01516001600160601b031690565b6001600160601b031690565b948381108015613d96575b613d845791600193979a95613cfb613d07939488035b838c0390614e6d565b80920198870391612fd0565b01970193808611801590613d7a575b613d6f5760d15f528290613d385f805160206159f58339815191528701613c2b565b805190890151969992966001600160a01b039091169460019392613d079290916001600160601b0390911690613cfb908803613cf2565b945050509250509190565b5081851015613d16565b60405163e8722f8f60e01b8152600490fd5b50808b1115613cdc565b60d15f527f695fb3134ad82c3b8022bc5464edd0bcc9424ef672b52245dcb6ab2374327ce28401546001600160a01b0316613c70565b505093505050505f905f90565b508415613c65565b604051633eb1acf760e11b81523060048201526020816024817f00000000000000000000000000000000000000000000000000000000000000006001600160a01b03165afa90811561062c575f91613e57575b50613e4557565b60405163e775715160e01b8152600490fd5b613e70915060203d6020116115265761151781836106cb565b5f613e3e565b604290467f000000000000000000000000000000000000000000000000000000000000000003613f255761010a54905b613ebd613eb66040830183612b60565b3691611378565b602081519101206040519060208201927f838af86bfca91ada6557e38d913af1c2f24ef9b2567b3b77cc9e1144314b35b08452356040830152606082015260608152613f08816106b0565b5190206040519161190160f01b8352600283015260228201522090565b613f2d614e7f565b90613ea6565b60041115613f3d57565b634e487b7160e01b5f52602160045260245ffd5b613f5b8383614f4c565b50613f6881959295613f33565b159384614004575b508315613f7e575b50505090565b5f929350908291604051613fb681612a306020820194630b135d3f60e11b998a8752602484015260406044840152606483019061070d565b51915afa90613fc3612c95565b82613ff6575b82613fd9575b50505f8080613f78565b613fee9192506020808251830101910161259d565b145f80613fcf565b915060208251101591613fc9565b6001600160a01b0383811691161493505f613f70565b906030116103dd5790603090565b906090116103dd5760300190606090565b9060b0116103dd5760900190602090565b909392938483116103dd5784116103dd578101920390565b359060208110614070575090565b5f199060200360031b1b1690565b969594906140bb9361409f6140ad926060979560808c5260808c0191612ac2565b9089820360208b015261070d565b918783036040890152612ac2565b930152565b906020610743928181520190612aaa565b916020610743938181520191612ac2565b60b091828104915f90816140f4614f86565b957f00000000000000000000000000000000000000000000000000000000000000006001600160a01b0316935f92905b87841061413657505050505050505050565b8261414591018092888761404a565b90614150828261401a565b9161416f6141696141618684614028565b969093614039565b90614062565b90893b156103dd575f908d61419c604094855198899485946304512a2360e31b86528a8a6004880161407e565b03816801bc16d674ec8000008d5af190811561062c577f64b6e61d93b7a91e8cc4376183ede0997a27b44fd9dd2f30a866b2a5730efdb1946141e8926141f7575b5051928392836140d1565b0390a160018193019290614124565b80610f9d6142049261069d565b5f6141dd565b816030116103dd57614169917f00000000000000000000000000000000000000000000000000000000000000006001600160a01b0316614248614f86565b9061425f6142568486614028565b96909486614039565b94813b156103dd576801bc16d674ec8000005f946142c597604051988996879586946304512a2360e31b8652608060048701526142b66142a38d6084890190612aaa565b60031994858983030160248a015261070d565b92868403016044870152612ac2565b90606483015203925af190811561062c577f64b6e61d93b7a91e8cc4376183ede0997a27b44fd9dd2f30a866b2a5730efdb19261339a9261430e575b50604051918291826140c0565b6143179061069d565b5f614301565b6001600160801b0390818111614331571690565b604490604051906306dfcc6560e41b8252608060048301526024820152fd5b907f9b779b17422d0df92223018b32b4d1fa46e071723d6817e2486d003becc55f009160028354146143d857600283558147106143c0575f918291829182916001600160a01b03165af16143a2612c95565b50156143ae5760019055565b604051630a12f52160e11b8152600490fd5b60405163cd78605960e01b8152306004820152602490fd5b604051633ee5aeb560e01b8152600490fd5b60cf54906001600160801b03821681158015614419575b1561440c5750905090565b6107439260801c91612fd0565b508015614401565b60cf546001600160801b0381169082158015614471575b1561444257505090565b60801c90614451828285612fd0565b928215612bb057096144605790565b6001810180911115610743576125dc565b508115614438565b614481613deb565b6001600160a01b031680156144c957609c80546001600160a01b03191682179055337faaebcf1bfa00580e41d966056b48521fa9f202645c86d4ddf28113e617c1b1d35f80a3565b604051630ed1b8b360e31b8152600490fd5b61026a80546001600160a01b0319166001600160a01b03929092169182179055337fda2bcad4d57ac529886ff995d07bce191c08b5424c8f5824de6c73f90cc623d45f80a3565b919061452c613deb565b6001600160a01b0383169081156108ba5780156145d85780614553611e1460cf5460801c90565b019361455d6129d0565b85116145c657610e40946145849161457f61457785614421565b97889361431d565b615162565b60408051918252602082018590525f9082015233907f861a4138e41fb21c121a7dbb1053df465c837fc77380cc7226189a662281be2c9080606081015b0390a3565b6040516304ffa0ff60e51b8152600490fd5b6040516318374fd160e21b8152600490fd5b909291926145f6613deb565b6001600160a01b0382169182156108ba5781156145d8578161461d611e1460cf5460801c90565b016146266129d0565b81116145c657610e409561466d6145c1927f861a4138e41fb21c121a7dbb1053df465c837fc77380cc7226189a662281be2c9461457f61466588614421565b9a8b9361431d565b60408051948552602085018890526001600160a01b039091169084015233929081906060820190565b9190916001600160801b0380809416911601918211610aea57565b93929190916146be61535b565b6146c6613deb565b6001600160a01b0385165f90815261016e602052604090206146e7906125b7565b946001600160801b0361470187516001600160801b031690565b16156148b65761471086612e2d565b6001600160a01b0381165f90815260d360205260409020614734906134fc90610ccb565b955f198414614886575b6040516329460cc560e11b81526001600160a01b0386811660048301526024820186905290949093906020866044815f7f00000000000000000000000000000000000000000000000000000000000000008a165af195861561062c575f96614865575b5085986147d06147c36147b38461431d565b86516001600160801b0316614696565b6001600160801b03168552565b6147e4611e1485516001600160801b031690565b1161350b577fa16d97739893e1436c9753925fb5cef174c4f368699dc86cc8fdb0e6e60f8e589561482d614860946105948760018060a01b03165f5261016e60205260405f2090565b604080516001600160a01b03998a1681526020810192909252810191909152951660608601529116929081906080820190565b0390a2565b61487f91965060203d6020116106255761061781836106cb565b945f6147a1565b925061489c611e1484516001600160801b031690565b808711156148ac5786039261473e565b505f955050505050565b60405163752a536d60e01b81526020816004817f00000000000000000000000000000000000000000000000000000000000000006001600160a01b03165afa90811561062c5761492191614911915f91614926575b5061431d565b6001600160801b03166020880152565b614710565b61493f915060203d6020116106255761061781836106cb565b5f61490b565b9061494f82613464565b61495881613464565b6001600160a01b0391821691821580156149c9575b6108ba57825f5260d360205260405f2090815492858403938411610aea575f805160206159d583398151915293602093556149b88160018060a01b03165f5260d360205260405f2090565b8681540190556040519586521693a3565b508082161561496d565b60405163e48a5f7b60e01b81523060048201526001600160a01b036060826024817f000000000000000000000000000000000000000000000000000000000000000085165afa801561062c57614a6e936001600160401b03610ca66040614a4d946020975f91614abe575b5001516001600160401b031690565b9060405180809581946363737ac960e11b8352600483019190602083019252565b03917f0000000000000000000000000000000000000000000000000000000000000000165afa90811561062c575f91614aa5575090565b610743915060203d6020116106255761061781836106cb565b614ad7915060603d606011610f7957610f6a81836106cb565b5f614a3e565b614ae5614aff565b614aed614e7f565b61010a80548203614afc575050565b55565b60ff7ff0c57e16840df040f15088dc2f81fe391c3923bec73e23a9662efc9c229c6a005460401c1615614b2e57565b604051631afcd79f60e31b8152600490fd5b614b48614aff565b61271061ffff831611614b7f57614b5e90614479565b609c805461ffff60a01b191660a09290921b61ffff60a01b16919091179055565b604051638a81d3b360e01b8152600490fd5b614b99614aff565b8015614baf5760018101614baa5750565b60d455565b6040516331278a8760e01b8152600490fd5b614bc9614aff565b6801bc16d674ec800000614bdb6129d0565b10614baf57614be8614e7f565b61010a55565b614bf6614aff565b6001600160a01b031680614c075750565b6101a180546001600160a01b0319169091179055565b614c25614aff565b601e8151118015614d3f575b614d2d57614c3d614aff565b8051906001600160401b03821161069857614c6182614c5c5f54610631565b6155be565b602090816001601f851114614cb957509180614c9792614c9e95945f92614cae575b50508160011b915f199060031b1c19161790565b5f55615688565b612982614ca96138a4565b600455565b015190505f80614c83565b5f80529190601f1984165f80516020615975833981519152935f905b828210614d15575050916001939185614c9e97969410614cfd575b505050811b015f55615688565b01515f1960f88460031b161c191690555f8080614cf0565b80600186978294978701518155019601940190614cd5565b604051632d3f993760e21b8152600490fd5b50600a825111614c31565b614d52614aff565b614d5a614aff565b614d62614aff565b60017f9b779b17422d0df92223018b32b4d1fa46e071723d6817e2486d003becc55f0055633b9aca003410614d9b5761272f3430614522565b60405163ea2559bb60e01b8152600490fd5b908160209103126103dd5751610743816121ed565b6040516352d1902d60e01b81529290916020846004816001600160a01b0387165afa5f9481614e4c575b50614e1257604051634c9c8ce360e01b81526001600160a01b0384166004820152602490fd5b90915f805160206159b58339815191528403614e3357612982929350615766565b604051632a87526960e21b815260048101859052602490fd5b614e6691955060203d6020116106255761061781836106cb565b935f614dec565b9080821015614e7a575090565b905090565b6e5661756c7456616c696461746f727360881b6020604051614ea08161067d565b600f8152015260405160208101907f8b73c3c69bb8fe3d512ecc4cf759cc79239f7b179b0ffacaa9a75d522b39400f82527f35d6cf9768d8be929c3a11ed667b1560ae6f1920195a985758fdd7265505d1ca60408201527fc89efdaa54c0f20c7adf612882df0950f5a951637e0307cdcb4c672f298b8bc660608201524660808201523060a082015260a0815260c081018181106001600160401b038211176106985760405251902090565b8151919060418303614f7c57614f759250602082015190606060408401519301515f1a90615808565b9192909190565b50505f9160029190565b604051600160f81b60208201525f60218201523060601b602c820152602081526107438161067d565b9291908015611f62576001600160a01b038281169283156108ba57614fd5611b5e61589c565b6150de5790611c6c956150c26150a6857f211091c5bf013c1230f996c3bb2bc327e3de429a3d3c356dcea9a0c858bc407f958161507b615020611e1460d0546001600160801b031690565b92612a3061504d8561504861503361557c565b615042611e1460d55460801c90565b90612beb565b612beb565b9e8f6040519283916020830195429087604091949392606082019560018060a01b0316825260208201520152565b556001600160a01b0385165f90815260d36020526040902061509e8382546129f3565b90550161431d565b6001600160801b03166001600160801b031960d054161760d055565b60408051888152602081019590955291169290819081016145c1565b9293946150ea8361264a565b9384156145d8577f5cdf07ad0fc222442720b108e3ed4c4640f0fadc2ab2253e66f259a0fea834809361513f8661515a93615135610e4061512a8461431d565b60cf5460801c612608565b6137e3848761537c565b60405193849316958360209093929193604081019481520152565b0390a35f1990565b5f805160206159d583398151915260205f9261517d8561431d565b60cf54906151956001600160801b0391828416614696565b6001600160801b031990921691161760cf556001600160a01b031680845260d3825260408085208054870190555194855293a3565b6151e3476151dd611e1460d05460801c90565b906129f3565b9081156153565760d5546001600160801b03811690816152de575b5050615215611e1460d0546001600160801b031690565b91821580156152d6575b6152d057615236906152308461264a565b90614e6d565b80156152d057615245816143ea565b9283156152c95761512a612982926152666150a6612eaa88610e40966129f3565b615280611c1e6152758361431d565b60d05460801c614696565b61528a81876154f2565b60408051878152602081018390525f805160206159958339815191529190a1612eaa613a786152b88861431d565b60cf546001600160801b0316612608565b505f925050565b505f9150565b50801561521f565b81849294106152c95761527584615326935f8051602061599583398151915282611c1e9560801c61530f82826154f2565b604080519182526020820192909252a1039461431d565b61533a6001600160801b0360d5541660d555565b61534f6001600160801b031960d5541660d555565b5f806151fe565b5f9150565b61536361589c565b1561536a57565b604051630a62fbdb60e11b8152600490fd5b6001600160a01b03165f81815260d360205260409020805483810391908211610aea575f935f805160206159d583398151915292602092556153bd8161431d565b60cf54906001600160801b03908183160316906001600160801b0319161760cf55604051908152a3565b60d154906801000000000000000082101561069857600182018060d155821015612c835760d15f52805160209091015160a01b6001600160a01b0319166001600160a01b0391909116175f805160206159f583398151915290910155565b61544d61557c565b60018101809111610aea576001600160a01b03808211615487579061298291604051916154798361067d565b1681525f60208201526153e7565b6040516306dfcc6560e41b815260a0600482015260248101839052604490fd5b80156154e0576154b561557c565b908101809111610aea576001600160a01b03808211615487579061298291604051916154798361067d565b604051632ec8835b60e21b8152600490fd5b91909180156154e05761550361557c565b908101809111610aea576001600160a01b03808211615487576001600160601b039081851161555c5790612982939461555792604051946155438661067d565b168452166001600160601b03166020830152565b6153e7565b6040516306dfcc6560e41b81526060600482015260248101869052604490fd5b60d1548061558957505f90565b60d15f527f695fb3134ad82c3b8022bc5464edd0bcc9424ef672b52245dcb6ab2374327ce201546001600160a01b0316611620565b601f81116155ca575050565b5f80525f80516020615975833981519152906020601f840160051c8301931061560d575b601f0160051c01905b818110615602575050565b5f81556001016155f7565b90915081906155ee565b90601f8211615624575050565b60019160015f527fb10e2d527612073b26eecdfd717e6a320cf44b4afac2b0732d9fcbe2b7fa0cf6906020601f840160051c8301931061567e575b601f0160051c01905b81811061567457505050565b5f81558201615668565b909150819061565f565b9081516001600160401b038111610698576001906156af816156aa8454610631565b615617565b602080601f83116001146156e4575081906156e09394955f92614cae5750508160011b915f199060031b1c19161790565b9055565b90601f1983169561571660015f527fb10e2d527612073b26eecdfd717e6a320cf44b4afac2b0732d9fcbe2b7fa0cf690565b925f905b88821061574f5750508385969710615737575b505050811b019055565b01515f1960f88460031b161c191690555f808061572d565b80878596829496860151815501950193019061571a565b90813b156157e7575f805160206159b583398151915280546001600160a01b0319166001600160a01b0384169081179091557fbc7cd75a20ee27fd9adebab32041f755214dbc6bffa90cc0225b39da2e5c2d3b5f80a28051156157cc5761272f9161590b565b5050346157d557565b60405163b398979f60e01b8152600490fd5b604051634c9c8ce360e01b81526001600160a01b0383166004820152602490fd5b90917f7fffffffffffffffffffffffffffffff5d576e7357a4501ddfe92f46681b20a0841161589157906158616020945f9493604051948594859094939260ff6060936080840197845216602083015260408201520152565b838052039060015afa1561062c575f516001600160a01b0381161561588757905f905f90565b505f906001905f90565b5050505f9160039190565b604051630156a69560e11b81523060048201526020816024817f00000000000000000000000000000000000000000000000000000000000000006001600160a01b03165afa90811561062c575f916158f2575090565b610743915060203d6020116115265761151781836106cb565b5f8061074393602081519101845af4615922612c95565b919061593857508051156143ae57805190602001fd5b8151158061596b575b615949575090565b604051639996b31560e01b81526001600160a01b039091166004820152602490fd5b50803b1561594156fe290decd9548b62a8d60345a988386fc84ba6bc95484008f6362f93160ef3e563624ea167e477f9d39f7f4094b9dfe2e6346eb4a7aada54338db51abd554c4b9f360894a13ba1a3210667c828492db98dca3e2076cc3735a920a3ca505d382bbcddf252ad1be2c89b69c2b068fc378daa952ba7f163c4a11628f55a4df523b3ef695fb3134ad82c3b8022bc5464edd0bcc9424ef672b52245dcb6ab2374327ce3a26469706673582212201629caca5f73ed443a1870106ce3ecbfbc91dfd1616c7659127690242718758e64736f6c63430008160033",
  "linkReferences": {},
  "deployedLinkReferences": {}
}