{
  "_format": "hh-sol-artifact-1",
  "contractName": "EthPrivErc20Vault",
  "sourceName": "contracts/vaults/ethereum/EthPrivErc20Vault.sol",
  "abi": [
    {
      "inputs": [
        {
          "internalType": "address",
          "name": "_keeper",
          "type": "address"
        },
        {
          "internalType": "address",
          "name": "_vaultsRegistry",
          "type": "address"
        },
        {
          "internalType": "address",
          "name": "_validatorsRegistry",
          "type": "address"
        },
        {
          "internalType": "address",
          "name": "osTokenVaultController",
          "type": "address"
        },
        {
          "internalType": "address",
          "name": "osTokenConfig",
          "type": "address"
        },
        {
          "internalType": "address",
          "name": "sharedMevEscrow",
          "type": "address"
        },
        {
          "internalType": "address",
          "name": "depositDataRegistry",
          "type": "address"
        },
        {
          "internalType": "uint256",
          "name": "exitingAssetsClaimDelay",
          "type": "uint256"
        }
      ],
      "stateMutability": "nonpayable",
      "type": "constructor"
    },
    {
      "inputs": [],
      "name": "AccessDenied",
      "type": "error"
    },
    {
      "inputs": [
        {
          "internalType": "address",
          "name": "target",
          "type": "address"
        }
      ],
      "name": "AddressEmptyCode",
      "type": "error"
    },
    {
      "inputs": [
        {
          "internalType": "address",
          "name": "account",
          "type": "address"
        }
      ],
      "name": "AddressInsufficientBalance",
      "type": "error"
    },
    {
      "inputs": [],
      "name": "CapacityExceeded",
      "type": "error"
    },
    {
      "inputs": [],
      "name": "DeadlineExpired",
      "type": "error"
    },
    {
      "inputs": [
        {
          "internalType": "address",
          "name": "implementation",
          "type": "address"
        }
      ],
      "name": "ERC1967InvalidImplementation",
      "type": "error"
    },
    {
      "inputs": [],
      "name": "ERC1967NonPayable",
      "type": "error"
    },
    {
      "inputs": [],
      "name": "ExitRequestNotProcessed",
      "type": "error"
    },
    {
      "inputs": [],
      "name": "FailedInnerCall",
      "type": "error"
    },
    {
      "inputs": [],
      "name": "InsufficientAssets",
      "type": "error"
    },
    {
      "inputs": [],
      "name": "InvalidAssets",
      "type": "error"
    },
    {
      "inputs": [],
      "name": "InvalidCapacity",
      "type": "error"
    },
    {
      "inputs": [],
      "name": "InvalidCheckpointIndex",
      "type": "error"
    },
    {
      "inputs": [],
      "name": "InvalidCheckpointValue",
      "type": "error"
    },
    {
      "inputs": [],
      "name": "InvalidFeePercent",
      "type": "error"
    },
    {
      "inputs": [],
      "name": "InvalidFeeRecipient",
      "type": "error"
    },
    {
      "inputs": [],
      "name": "InvalidHealthFactor",
      "type": "error"
    },
    {
      "inputs": [],
      "name": "InvalidInitialization",
      "type": "error"
    },
    {
      "inputs": [],
      "name": "InvalidPosition",
      "type": "error"
    },
    {
      "inputs": [],
      "name": "InvalidReceivedAssets",
      "type": "error"
    },
    {
      "inputs": [],
      "name": "InvalidSecurityDeposit",
      "type": "error"
    },
    {
      "inputs": [],
      "name": "InvalidShares",
      "type": "error"
    },
    {
      "inputs": [],
      "name": "InvalidTokenMeta",
      "type": "error"
    },
    {
      "inputs": [],
      "name": "InvalidValidators",
      "type": "error"
    },
    {
      "inputs": [],
      "name": "LiquidationDisabled",
      "type": "error"
    },
    {
      "inputs": [],
      "name": "LowLtv",
      "type": "error"
    },
    {
      "inputs": [],
      "name": "MathOverflowedMulDiv",
      "type": "error"
    },
    {
      "inputs": [],
      "name": "NotCollateralized",
      "type": "error"
    },
    {
      "inputs": [],
      "name": "NotHarvested",
      "type": "error"
    },
    {
      "inputs": [],
      "name": "NotInitializing",
      "type": "error"
    },
    {
      "inputs": [],
      "name": "PermitInvalidSigner",
      "type": "error"
    },
    {
      "inputs": [],
      "name": "ReentrancyGuardReentrantCall",
      "type": "error"
    },
    {
      "inputs": [
        {
          "internalType": "uint8",
          "name": "bits",
          "type": "uint8"
        },
        {
          "internalType": "uint256",
          "name": "value",
          "type": "uint256"
        }
      ],
      "name": "SafeCastOverflowedUintDowncast",
      "type": "error"
    },
    {
      "inputs": [],
      "name": "UUPSUnauthorizedCallContext",
      "type": "error"
    },
    {
      "inputs": [
        {
          "internalType": "bytes32",
          "name": "slot",
          "type": "bytes32"
        }
      ],
      "name": "UUPSUnsupportedProxiableUUID",
      "type": "error"
    },
    {
      "inputs": [],
      "name": "UpgradeFailed",
      "type": "error"
    },
    {
      "inputs": [],
      "name": "ZeroAddress",
      "type": "error"
    },
    {
      "anonymous": false,
      "inputs": [
        {
          "indexed": true,
          "internalType": "address",
          "name": "owner",
          "type": "address"
        },
        {
          "indexed": true,
          "internalType": "address",
          "name": "spender",
          "type": "address"
        },
        {
          "indexed": false,
          "internalType": "uint256",
          "name": "value",
          "type": "uint256"
        }
      ],
      "name": "Approval",
      "type": "event"
    },
    {
      "anonymous": false,
      "inputs": [
        {
          "indexed": false,
          "internalType": "uint256",
          "name": "shares",
          "type": "uint256"
        },
        {
          "indexed": false,
          "internalType": "uint256",
          "name": "assets",
          "type": "uint256"
        }
      ],
      "name": "CheckpointCreated",
      "type": "event"
    },
    {
      "anonymous": false,
      "inputs": [
        {
          "indexed": true,
          "internalType": "address",
          "name": "caller",
          "type": "address"
        },
        {
          "indexed": true,
          "internalType": "address",
          "name": "receiver",
          "type": "address"
        },
        {
          "indexed": false,
          "internalType": "uint256",
          "name": "assets",
          "type": "uint256"
        },
        {
          "indexed": false,
          "internalType": "uint256",
          "name": "shares",
          "type": "uint256"
        },
        {
          "indexed": false,
          "internalType": "address",
          "name": "referrer",
          "type": "address"
        }
      ],
      "name": "Deposited",
      "type": "event"
    },
    {
      "anonymous": false,
      "inputs": [
        {
          "indexed": true,
          "internalType": "address",
          "name": "owner",
          "type": "address"
        },
        {
          "indexed": true,
          "internalType": "address",
          "name": "receiver",
          "type": "address"
        },
        {
          "indexed": false,
          "internalType": "uint256",
          "name": "positionTicket",
          "type": "uint256"
        },
        {
          "indexed": false,
          "internalType": "uint256",
          "name": "shares",
          "type": "uint256"
        }
      ],
      "name": "ExitQueueEntered",
      "type": "event"
    },
    {
      "anonymous": false,
      "inputs": [
        {
          "indexed": true,
          "internalType": "address",
          "name": "receiver",
          "type": "address"
        },
        {
          "indexed": false,
          "internalType": "uint256",
          "name": "prevPositionTicket",
          "type": "uint256"
        },
        {
          "indexed": false,
          "internalType": "uint256",
          "name": "newPositionTicket",
          "type": "uint256"
        },
        {
          "indexed": false,
          "internalType": "uint256",
          "name": "withdrawnAssets",
          "type": "uint256"
        }
      ],
      "name": "ExitedAssetsClaimed",
      "type": "event"
    },
    {
      "anonymous": false,
      "inputs": [
        {
          "indexed": false,
          "internalType": "uint256",
          "name": "penalty",
          "type": "uint256"
        }
      ],
      "name": "ExitingAssetsPenalized",
      "type": "event"
    },
    {
      "anonymous": false,
      "inputs": [
        {
          "indexed": true,
          "internalType": "address",
          "name": "caller",
          "type": "address"
        },
        {
          "indexed": true,
          "internalType": "address",
          "name": "feeRecipient",
          "type": "address"
        }
      ],
      "name": "FeeRecipientUpdated",
      "type": "event"
    },
    {
      "anonymous": false,
      "inputs": [
        {
          "indexed": false,
          "internalType": "address",
          "name": "receiver",
          "type": "address"
        },
        {
          "indexed": false,
          "internalType": "uint256",
          "name": "shares",
          "type": "uint256"
        },
        {
          "indexed": false,
          "internalType": "uint256",
          "name": "assets",
          "type": "uint256"
        }
      ],
      "name": "FeeSharesMinted",
      "type": "event"
    },
    {
      "anonymous": false,
      "inputs": [
        {
          "indexed": false,
          "internalType": "uint64",
          "name": "version",
          "type": "uint64"
        }
      ],
      "name": "Initialized",
      "type": "event"
    },
    {
      "anonymous": false,
      "inputs": [
        {
          "indexed": true,
          "internalType": "address",
          "name": "caller",
          "type": "address"
        },
        {
          "indexed": true,
          "internalType": "address",
          "name": "keysManager",
          "type": "address"
        }
      ],
      "name": "KeysManagerUpdated",
      "type": "event"
    },
    {
      "anonymous": false,
      "inputs": [
        {
          "indexed": true,
          "internalType": "address",
          "name": "caller",
          "type": "address"
        },
        {
          "indexed": false,
          "internalType": "string",
          "name": "metadataIpfsHash",
          "type": "string"
        }
      ],
      "name": "MetadataUpdated",
      "type": "event"
    },
    {
      "anonymous": false,
      "inputs": [
        {
          "indexed": true,
          "internalType": "address",
          "name": "caller",
          "type": "address"
        },
        {
          "indexed": false,
          "internalType": "uint256",
          "name": "assets",
          "type": "uint256"
        },
        {
          "indexed": false,
          "internalType": "uint256",
          "name": "shares",
          "type": "uint256"
        }
      ],
      "name": "OsTokenBurned",
      "type": "event"
    },
    {
      "anonymous": false,
      "inputs": [
        {
          "indexed": true,
          "internalType": "address",
          "name": "caller",
          "type": "address"
        },
        {
          "indexed": true,
          "internalType": "address",
          "name": "user",
          "type": "address"
        },
        {
          "indexed": false,
          "internalType": "address",
          "name": "receiver",
          "type": "address"
        },
        {
          "indexed": false,
          "internalType": "uint256",
          "name": "osTokenShares",
          "type": "uint256"
        },
        {
          "indexed": false,
          "internalType": "uint256",
          "name": "shares",
          "type": "uint256"
        },
        {
          "indexed": false,
          "internalType": "uint256",
          "name": "receivedAssets",
          "type": "uint256"
        }
      ],
      "name": "OsTokenLiquidated",
      "type": "event"
    },
    {
      "anonymous": false,
      "inputs": [
        {
          "indexed": true,
          "internalType": "address",
          "name": "caller",
          "type": "address"
        },
        {
          "indexed": false,
          "internalType": "address",
          "name": "receiver",
          "type": "address"
        },
        {
          "indexed": false,
          "internalType": "uint256",
          "name": "assets",
          "type": "uint256"
        },
        {
          "indexed": false,
          "internalType": "uint256",
          "name": "shares",
          "type": "uint256"
        },
        {
          "indexed": false,
          "internalType": "address",
          "name": "referrer",
          "type": "address"
        }
      ],
      "name": "OsTokenMinted",
      "type": "event"
    },
    {
      "anonymous": false,
      "inputs": [
        {
          "indexed": true,
          "internalType": "address",
          "name": "caller",
          "type": "address"
        },
        {
          "indexed": true,
          "internalType": "address",
          "name": "user",
          "type": "address"
        },
        {
          "indexed": false,
          "internalType": "address",
          "name": "receiver",
          "type": "address"
        },
        {
          "indexed": false,
          "internalType": "uint256",
          "name": "osTokenShares",
          "type": "uint256"
        },
        {
          "indexed": false,
          "internalType": "uint256",
          "name": "shares",
          "type": "uint256"
        },
        {
          "indexed": false,
          "internalType": "uint256",
          "name": "assets",
          "type": "uint256"
        }
      ],
      "name": "OsTokenRedeemed",
      "type": "event"
    },
    {
      "anonymous": false,
      "inputs": [
        {
          "indexed": true,
          "internalType": "address",
          "name": "owner",
          "type": "address"
        },
        {
          "indexed": true,
          "internalType": "address",
          "name": "receiver",
          "type": "address"
        },
        {
          "indexed": false,
          "internalType": "uint256",
          "name": "assets",
          "type": "uint256"
        },
        {
          "indexed": false,
          "internalType": "uint256",
          "name": "shares",
          "type": "uint256"
        }
      ],
      "name": "Redeemed",
      "type": "event"
    },
    {
      "anonymous": false,
      "inputs": [
        {
          "indexed": true,
          "internalType": "address",
          "name": "from",
          "type": "address"
        },
        {
          "indexed": true,
          "internalType": "address",
          "name": "to",
          "type": "address"
        },
        {
          "indexed": false,
          "internalType": "uint256",
          "name": "value",
          "type": "uint256"
        }
      ],
      "name": "Transfer",
      "type": "event"
    },
    {
      "anonymous": false,
      "inputs": [
        {
          "indexed": true,
          "internalType": "address",
          "name": "implementation",
          "type": "address"
        }
      ],
      "name": "Upgraded",
      "type": "event"
    },
    {
      "anonymous": false,
      "inputs": [
        {
          "indexed": true,
          "internalType": "address",
          "name": "owner",
          "type": "address"
        },
        {
          "indexed": true,
          "internalType": "address",
          "name": "receiver",
          "type": "address"
        },
        {
          "indexed": false,
          "internalType": "uint256",
          "name": "positionTicket",
          "type": "uint256"
        },
        {
          "indexed": false,
          "internalType": "uint256",
          "name": "shares",
          "type": "uint256"
        },
        {
          "indexed": false,
          "internalType": "uint256",
          "name": "assets",
          "type": "uint256"
        }
      ],
      "name": "V2ExitQueueEntered",
      "type": "event"
    },
    {
      "anonymous": false,
      "inputs": [
        {
          "indexed": false,
          "internalType": "bytes",
          "name": "publicKey",
          "type": "bytes"
        }
      ],
      "name": "ValidatorRegistered",
      "type": "event"
    },
    {
      "anonymous": false,
      "inputs": [
        {
          "indexed": true,
          "internalType": "address",
          "name": "caller",
          "type": "address"
        },
        {
          "indexed": true,
          "internalType": "address",
          "name": "validatorsManager",
          "type": "address"
        }
      ],
      "name": "ValidatorsManagerUpdated",
      "type": "event"
    },
    {
      "anonymous": false,
      "inputs": [
        {
          "indexed": true,
          "internalType": "address",
          "name": "caller",
          "type": "address"
        },
        {
          "indexed": true,
          "internalType": "bytes32",
          "name": "validatorsRoot",
          "type": "bytes32"
        }
      ],
      "name": "ValidatorsRootUpdated",
      "type": "event"
    },
    {
      "anonymous": false,
      "inputs": [
        {
          "indexed": true,
          "internalType": "address",
          "name": "caller",
          "type": "address"
        },
        {
          "indexed": true,
          "internalType": "address",
          "name": "account",
          "type": "address"
        },
        {
          "indexed": false,
          "internalType": "bool",
          "name": "approved",
          "type": "bool"
        }
      ],
      "name": "WhitelistUpdated",
      "type": "event"
    },
    {
      "anonymous": false,
      "inputs": [
        {
          "indexed": true,
          "internalType": "address",
          "name": "caller",
          "type": "address"
        },
        {
          "indexed": true,
          "internalType": "address",
          "name": "whitelister",
          "type": "address"
        }
      ],
      "name": "WhitelisterUpdated",
      "type": "event"
    },
    {
      "inputs": [],
      "name": "DOMAIN_SEPARATOR",
      "outputs": [
        {
          "internalType": "bytes32",
          "name": "",
          "type": "bytes32"
        }
      ],
      "stateMutability": "view",
      "type": "function"
    },
    {
      "inputs": [],
      "name": "UPGRADE_INTERFACE_VERSION",
      "outputs": [
        {
          "internalType": "string",
          "name": "",
          "type": "string"
        }
      ],
      "stateMutability": "view",
      "type": "function"
    },
    {
      "inputs": [],
      "name": "admin",
      "outputs": [
        {
          "internalType": "address",
          "name": "",
          "type": "address"
        }
      ],
      "stateMutability": "view",
      "type": "function"
    },
    {
      "inputs": [
        {
          "internalType": "address",
          "name": "",
          "type": "address"
        },
        {
          "internalType": "address",
          "name": "",
          "type": "address"
        }
      ],
      "name": "allowance",
      "outputs": [
        {
          "internalType": "uint256",
          "name": "",
          "type": "uint256"
        }
      ],
      "stateMutability": "view",
      "type": "function"
    },
    {
      "inputs": [
        {
          "internalType": "address",
          "name": "spender",
          "type": "address"
        },
        {
          "internalType": "uint256",
          "name": "amount",
          "type": "uint256"
        }
      ],
      "name": "approve",
      "outputs": [
        {
          "internalType": "bool",
          "name": "",
          "type": "bool"
        }
      ],
      "stateMutability": "nonpayable",
      "type": "function"
    },
    {
      "inputs": [
        {
          "internalType": "address",
          "name": "account",
          "type": "address"
        }
      ],
      "name": "balanceOf",
      "outputs": [
        {
          "internalType": "uint256",
          "name": "",
          "type": "uint256"
        }
      ],
      "stateMutability": "view",
      "type": "function"
    },
    {
      "inputs": [
        {
          "internalType": "uint128",
          "name": "osTokenShares",
          "type": "uint128"
        }
      ],
      "name": "burnOsToken",
      "outputs": [
        {
          "internalType": "uint256",
          "name": "assets",
          "type": "uint256"
        }
      ],
      "stateMutability": "nonpayable",
      "type": "function"
    },
    {
      "inputs": [
        {
          "internalType": "address",
          "name": "receiver",
          "type": "address"
        },
        {
          "internalType": "uint256",
          "name": "positionTicket",
          "type": "uint256"
        },
        {
          "internalType": "uint256",
          "name": "timestamp",
          "type": "uint256"
        },
        {
          "internalType": "uint256",
          "name": "exitQueueIndex",
          "type": "uint256"
        }
      ],
      "name": "calculateExitedAssets",
      "outputs": [
        {
          "internalType": "uint256",
          "name": "leftTickets",
          "type": "uint256"
        },
        {
          "internalType": "uint256",
          "name": "exitedTickets",
          "type": "uint256"
        },
        {
          "internalType": "uint256",
          "name": "exitedAssets",
          "type": "uint256"
        }
      ],
      "stateMutability": "view",
      "type": "function"
    },
    {
      "inputs": [],
      "name": "capacity",
      "outputs": [
        {
          "internalType": "uint256",
          "name": "",
          "type": "uint256"
        }
      ],
      "stateMutability": "view",
      "type": "function"
    },
    {
      "inputs": [
        {
          "internalType": "uint256",
          "name": "positionTicket",
          "type": "uint256"
        },
        {
          "internalType": "uint256",
          "name": "timestamp",
          "type": "uint256"
        },
        {
          "internalType": "uint256",
          "name": "exitQueueIndex",
          "type": "uint256"
        }
      ],
      "name": "claimExitedAssets",
      "outputs": [],
      "stateMutability": "nonpayable",
      "type": "function"
    },
    {
      "inputs": [
        {
          "internalType": "uint256",
          "name": "shares",
          "type": "uint256"
        }
      ],
      "name": "convertToAssets",
      "outputs": [
        {
          "internalType": "uint256",
          "name": "assets",
          "type": "uint256"
        }
      ],
      "stateMutability": "view",
      "type": "function"
    },
    {
      "inputs": [
        {
          "internalType": "uint256",
          "name": "assets",
          "type": "uint256"
        }
      ],
      "name": "convertToShares",
      "outputs": [
        {
          "internalType": "uint256",
          "name": "shares",
          "type": "uint256"
        }
      ],
      "stateMutability": "view",
      "type": "function"
    },
    {
      "inputs": [],
      "name": "decimals",
      "outputs": [
        {
          "internalType": "uint8",
          "name": "",
          "type": "uint8"
        }
      ],
      "stateMutability": "view",
      "type": "function"
    },
    {
      "inputs": [
        {
          "internalType": "address",
          "name": "receiver",
          "type": "address"
        },
        {
          "internalType": "address",
          "name": "referrer",
          "type": "address"
        }
      ],
      "name": "deposit",
      "outputs": [
        {
          "internalType": "uint256",
          "name": "shares",
          "type": "uint256"
        }
      ],
      "stateMutability": "payable",
      "type": "function"
    },
    {
      "inputs": [
        {
          "internalType": "address",
          "name": "receiver",
          "type": "address"
        },
        {
          "internalType": "uint256",
          "name": "osTokenShares",
          "type": "uint256"
        },
        {
          "internalType": "address",
          "name": "referrer",
          "type": "address"
        }
      ],
      "name": "depositAndMintOsToken",
      "outputs": [
        {
          "internalType": "uint256",
          "name": "",
          "type": "uint256"
        }
      ],
      "stateMutability": "payable",
      "type": "function"
    },
    {
      "inputs": [
        {
          "internalType": "uint256",
          "name": "shares",
          "type": "uint256"
        },
        {
          "internalType": "address",
          "name": "receiver",
          "type": "address"
        }
      ],
      "name": "enterExitQueue",
      "outputs": [
        {
          "internalType": "uint256",
          "name": "positionTicket",
          "type": "uint256"
        }
      ],
      "stateMutability": "nonpayable",
      "type": "function"
    },
    {
      "inputs": [],
      "name": "feePercent",
      "outputs": [
        {
          "internalType": "uint16",
          "name": "",
          "type": "uint16"
        }
      ],
      "stateMutability": "view",
      "type": "function"
    },
    {
      "inputs": [],
      "name": "feeRecipient",
      "outputs": [
        {
          "internalType": "address",
          "name": "",
          "type": "address"
        }
      ],
      "stateMutability": "view",
      "type": "function"
    },
    {
      "inputs": [
        {
          "internalType": "uint256",
          "name": "positionTicket",
          "type": "uint256"
        }
      ],
      "name": "getExitQueueIndex",
      "outputs": [
        {
          "internalType": "int256",
          "name": "",
          "type": "int256"
        }
      ],
      "stateMutability": "view",
      "type": "function"
    },
    {
      "inputs": [
        {
          "internalType": "address",
          "name": "account",
          "type": "address"
        }
      ],
      "name": "getShares",
      "outputs": [
        {
          "internalType": "uint256",
          "name": "",
          "type": "uint256"
        }
      ],
      "stateMutability": "view",
      "type": "function"
    },
    {
      "inputs": [],
      "name": "implementation",
      "outputs": [
        {
          "internalType": "address",
          "name": "",
          "type": "address"
        }
      ],
      "stateMutability": "view",
      "type": "function"
    },
    {
      "inputs": [
        {
          "internalType": "bytes",
          "name": "params",
          "type": "bytes"
        }
      ],
      "name": "initialize",
      "outputs": [],
      "stateMutability": "payable",
      "type": "function"
    },
    {
      "inputs": [],
      "name": "isStateUpdateRequired",
      "outputs": [
        {
          "internalType": "bool",
          "name": "",
          "type": "bool"
        }
      ],
      "stateMutability": "view",
      "type": "function"
    },
    {
      "inputs": [
        {
          "internalType": "uint256",
          "name": "osTokenShares",
          "type": "uint256"
        },
        {
          "internalType": "address",
          "name": "owner",
          "type": "address"
        },
        {
          "internalType": "address",
          "name": "receiver",
          "type": "address"
        }
      ],
      "name": "liquidateOsToken",
      "outputs": [],
      "stateMutability": "nonpayable",
      "type": "function"
    },
    {
      "inputs": [],
      "name": "mevEscrow",
      "outputs": [
        {
          "internalType": "address",
          "name": "",
          "type": "address"
        }
      ],
      "stateMutability": "view",
      "type": "function"
    },
    {
      "inputs": [
        {
          "internalType": "address",
          "name": "receiver",
          "type": "address"
        },
        {
          "internalType": "uint256",
          "name": "osTokenShares",
          "type": "uint256"
        },
        {
          "internalType": "address",
          "name": "referrer",
          "type": "address"
        }
      ],
      "name": "mintOsToken",
      "outputs": [
        {
          "internalType": "uint256",
          "name": "assets",
          "type": "uint256"
        }
      ],
      "stateMutability": "nonpayable",
      "type": "function"
    },
    {
      "inputs": [
        {
          "internalType": "bytes[]",
          "name": "data",
          "type": "bytes[]"
        }
      ],
      "name": "multicall",
      "outputs": [
        {
          "internalType": "bytes[]",
          "name": "results",
          "type": "bytes[]"
        }
      ],
      "stateMutability": "nonpayable",
      "type": "function"
    },
    {
      "inputs": [],
      "name": "name",
      "outputs": [
        {
          "internalType": "string",
          "name": "",
          "type": "string"
        }
      ],
      "stateMutability": "view",
      "type": "function"
    },
    {
      "inputs": [
        {
          "internalType": "address",
          "name": "",
          "type": "address"
        }
      ],
      "name": "nonces",
      "outputs": [
        {
          "internalType": "uint256",
          "name": "",
          "type": "uint256"
        }
      ],
      "stateMutability": "view",
      "type": "function"
    },
    {
      "inputs": [
        {
          "internalType": "address",
          "name": "user",
          "type": "address"
        }
      ],
      "name": "osTokenPositions",
      "outputs": [
        {
          "internalType": "uint128",
          "name": "shares",
          "type": "uint128"
        }
      ],
      "stateMutability": "view",
      "type": "function"
    },
    {
      "inputs": [
        {
          "internalType": "address",
          "name": "owner",
          "type": "address"
        },
        {
          "internalType": "address",
          "name": "spender",
          "type": "address"
        },
        {
          "internalType": "uint256",
          "name": "value",
          "type": "uint256"
        },
        {
          "internalType": "uint256",
          "name": "deadline",
          "type": "uint256"
        },
        {
          "internalType": "uint8",
          "name": "v",
          "type": "uint8"
        },
        {
          "internalType": "bytes32",
          "name": "r",
          "type": "bytes32"
        },
        {
          "internalType": "bytes32",
          "name": "s",
          "type": "bytes32"
        }
      ],
      "name": "permit",
      "outputs": [],
      "stateMutability": "nonpayable",
      "type": "function"
    },
    {
      "inputs": [],
      "name": "proxiableUUID",
      "outputs": [
        {
          "internalType": "bytes32",
          "name": "",
          "type": "bytes32"
        }
      ],
      "stateMutability": "view",
      "type": "function"
    },
    {
      "inputs": [],
      "name": "queuedShares",
      "outputs": [
        {
          "internalType": "uint128",
          "name": "",
          "type": "uint128"
        }
      ],
      "stateMutability": "view",
      "type": "function"
    },
    {
      "inputs": [],
      "name": "receiveFromMevEscrow",
      "outputs": [],
      "stateMutability": "payable",
      "type": "function"
    },
    {
      "inputs": [
        {
          "internalType": "uint256",
          "name": "osTokenShares",
          "type": "uint256"
        },
        {
          "internalType": "address",
          "name": "owner",
          "type": "address"
        },
        {
          "internalType": "address",
          "name": "receiver",
          "type": "address"
        }
      ],
      "name": "redeemOsToken",
      "outputs": [],
      "stateMutability": "nonpayable",
      "type": "function"
    },
    {
      "inputs": [
        {
          "components": [
            {
              "internalType": "bytes32",
              "name": "validatorsRegistryRoot",
              "type": "bytes32"
            },
            {
              "internalType": "uint256",
              "name": "deadline",
              "type": "uint256"
            },
            {
              "internalType": "bytes",
              "name": "validators",
              "type": "bytes"
            },
            {
              "internalType": "bytes",
              "name": "signatures",
              "type": "bytes"
            },
            {
              "internalType": "string",
              "name": "exitSignaturesIpfsHash",
              "type": "string"
            }
          ],
          "internalType": "struct IKeeperValidators.ApprovalParams",
          "name": "keeperParams",
          "type": "tuple"
        },
        {
          "internalType": "bytes",
          "name": "validatorsManagerSignature",
          "type": "bytes"
        }
      ],
      "name": "registerValidators",
      "outputs": [],
      "stateMutability": "nonpayable",
      "type": "function"
    },
    {
      "inputs": [
        {
          "internalType": "address",
          "name": "_feeRecipient",
          "type": "address"
        }
      ],
      "name": "setFeeRecipient",
      "outputs": [],
      "stateMutability": "nonpayable",
      "type": "function"
    },
    {
      "inputs": [
        {
          "internalType": "string",
          "name": "metadataIpfsHash",
          "type": "string"
        }
      ],
      "name": "setMetadata",
      "outputs": [],
      "stateMutability": "nonpayable",
      "type": "function"
    },
    {
      "inputs": [
        {
          "internalType": "address",
          "name": "validatorsManager_",
          "type": "address"
        }
      ],
      "name": "setValidatorsManager",
      "outputs": [],
      "stateMutability": "nonpayable",
      "type": "function"
    },
    {
      "inputs": [
        {
          "internalType": "address",
          "name": "_whitelister",
          "type": "address"
        }
      ],
      "name": "setWhitelister",
      "outputs": [],
      "stateMutability": "nonpayable",
      "type": "function"
    },
    {
      "inputs": [],
      "name": "symbol",
      "outputs": [
        {
          "internalType": "string",
          "name": "",
          "type": "string"
        }
      ],
      "stateMutability": "view",
      "type": "function"
    },
    {
      "inputs": [],
      "name": "totalAssets",
      "outputs": [
        {
          "internalType": "uint256",
          "name": "",
          "type": "uint256"
        }
      ],
      "stateMutability": "view",
      "type": "function"
    },
    {
      "inputs": [],
      "name": "totalExitingAssets",
      "outputs": [
        {
          "internalType": "uint128",
          "name": "",
          "type": "uint128"
        }
      ],
      "stateMutability": "view",
      "type": "function"
    },
    {
      "inputs": [],
      "name": "totalShares",
      "outputs": [
        {
          "internalType": "uint256",
          "name": "",
          "type": "uint256"
        }
      ],
      "stateMutability": "view",
      "type": "function"
    },
    {
      "inputs": [],
      "name": "totalSupply",
      "outputs": [
        {
          "internalType": "uint256",
          "name": "",
          "type": "uint256"
        }
      ],
      "stateMutability": "view",
      "type": "function"
    },
    {
      "inputs": [
        {
          "internalType": "address",
          "name": "to",
          "type": "address"
        },
        {
          "internalType": "uint256",
          "name": "amount",
          "type": "uint256"
        }
      ],
      "name": "transfer",
      "outputs": [
        {
          "internalType": "bool",
          "name": "",
          "type": "bool"
        }
      ],
      "stateMutability": "nonpayable",
      "type": "function"
    },
    {
      "inputs": [
        {
          "internalType": "address",
          "name": "from",
          "type": "address"
        },
        {
          "internalType": "address",
          "name": "to",
          "type": "address"
        },
        {
          "internalType": "uint256",
          "name": "amount",
          "type": "uint256"
        }
      ],
      "name": "transferFrom",
      "outputs": [
        {
          "internalType": "bool",
          "name": "",
          "type": "bool"
        }
      ],
      "stateMutability": "nonpayable",
      "type": "function"
    },
    {
      "inputs": [
        {
          "components": [
            {
              "internalType": "bytes32",
              "name": "rewardsRoot",
              "type": "bytes32"
            },
            {
              "internalType": "int160",
              "name": "reward",
              "type": "int160"
            },
            {
              "internalType": "uint160",
              "name": "unlockedMevReward",
              "type": "uint160"
            },
            {
              "internalType": "bytes32[]",
              "name": "proof",
              "type": "bytes32[]"
            }
          ],
          "internalType": "struct IKeeperRewards.HarvestParams",
          "name": "harvestParams",
          "type": "tuple"
        }
      ],
      "name": "updateState",
      "outputs": [],
      "stateMutability": "nonpayable",
      "type": "function"
    },
    {
      "inputs": [
        {
          "internalType": "address",
          "name": "receiver",
          "type": "address"
        },
        {
          "internalType": "address",
          "name": "referrer",
          "type": "address"
        },
        {
          "components": [
            {
              "internalType": "bytes32",
              "name": "rewardsRoot",
              "type": "bytes32"
            },
            {
              "internalType": "int160",
              "name": "reward",
              "type": "int160"
            },
            {
              "internalType": "uint160",
              "name": "unlockedMevReward",
              "type": "uint160"
            },
            {
              "internalType": "bytes32[]",
              "name": "proof",
              "type": "bytes32[]"
            }
          ],
          "internalType": "struct IKeeperRewards.HarvestParams",
          "name": "harvestParams",
          "type": "tuple"
        }
      ],
      "name": "updateStateAndDeposit",
      "outputs": [
        {
          "internalType": "uint256",
          "name": "shares",
          "type": "uint256"
        }
      ],
      "stateMutability": "payable",
      "type": "function"
    },
    {
      "inputs": [
        {
          "internalType": "address",
          "name": "receiver",
          "type": "address"
        },
        {
          "internalType": "uint256",
          "name": "osTokenShares",
          "type": "uint256"
        },
        {
          "internalType": "address",
          "name": "referrer",
          "type": "address"
        },
        {
          "components": [
            {
              "internalType": "bytes32",
              "name": "rewardsRoot",
              "type": "bytes32"
            },
            {
              "internalType": "int160",
              "name": "reward",
              "type": "int160"
            },
            {
              "internalType": "uint160",
              "name": "unlockedMevReward",
              "type": "uint160"
            },
            {
              "internalType": "bytes32[]",
              "name": "proof",
              "type": "bytes32[]"
            }
          ],
          "internalType": "struct IKeeperRewards.HarvestParams",
          "name": "harvestParams",
          "type": "tuple"
        }
      ],
      "name": "updateStateAndDepositAndMintOsToken",
      "outputs": [
        {
          "internalType": "uint256",
          "name": "",
          "type": "uint256"
        }
      ],
      "stateMutability": "payable",
      "type": "function"
    },
    {
      "inputs": [
        {
          "internalType": "address",
          "name": "account",
          "type": "address"
        },
        {
          "internalType": "bool",
          "name": "approved",
          "type": "bool"
        }
      ],
      "name": "updateWhitelist",
      "outputs": [],
      "stateMutability": "nonpayable",
      "type": "function"
    },
    {
      "inputs": [
        {
          "internalType": "address",
          "name": "newImplementation",
          "type": "address"
        },
        {
          "internalType": "bytes",
          "name": "data",
          "type": "bytes"
        }
      ],
      "name": "upgradeToAndCall",
      "outputs": [],
      "stateMutability": "payable",
      "type": "function"
    },
    {
      "inputs": [],
      "name": "validatorsManager",
      "outputs": [
        {
          "internalType": "address",
          "name": "",
          "type": "address"
        }
      ],
      "stateMutability": "view",
      "type": "function"
    },
    {
      "inputs": [],
      "name": "vaultId",
      "outputs": [
        {
          "internalType": "bytes32",
          "name": "",
          "type": "bytes32"
        }
      ],
      "stateMutability": "pure",
      "type": "function"
    },
    {
      "inputs": [],
      "name": "version",
      "outputs": [
        {
          "internalType": "uint8",
          "name": "",
          "type": "uint8"
        }
      ],
      "stateMutability": "pure",
      "type": "function"
    },
    {
      "inputs": [
        {
          "internalType": "address",
          "name": "",
          "type": "address"
        }
      ],
      "name": "whitelistedAccounts",
      "outputs": [
        {
          "internalType": "bool",
          "name": "",
          "type": "bool"
        }
      ],
      "stateMutability": "view",
      "type": "function"
    },
    {
      "inputs": [],
      "name": "whitelister",
      "outputs": [
        {
          "internalType": "address",
          "name": "",
          "type": "address"
        }
      ],
      "stateMutability": "view",
      "type": "function"
    },
    {
      "inputs": [],
      "name": "withdrawableAssets",
      "outputs": [
        {
          "internalType": "uint256",
          "name": "",
          "type": "uint256"
        }
      ],
      "stateMutability": "view",
      "type": "function"
    },
    {
      "stateMutability": "payable",
      "type": "receive"
    }
  ],
  "bytecode": "0x6101e034620001d75762005b5338819003601f8101601f191683016001600160401b03811184821017620001db5783928291604052833961010092839181010312620001d7576200005081620001ef565b6200005e60208301620001ef565b906200006d60408401620001ef565b906200007c60608501620001ef565b906200008b60808601620001ef565b926200009a60a08701620001ef565b9460e0620000ab60c08901620001ef565b9701519260805260a05260c0523060e052620000c662000204565b46865261012094855261014046815261016091825260018060a01b0380610180941684526101a0941684526101c09485526200010162000204565b604051956158af9788620002a4893960805188818161179d0152818161197101528181613458015281816142b60152614b61015260a051886114b5015260c0518881816145a701526146c8015260e0518881816116350152613f9d0152518761299c0152518681816130e70152613e1d0152518561432c01525184611b170152518381816104cd01528181610b230152818161274a01528181613131015281816138900152613d50015251828181610be2015281816111a20152818161394f0152613cd401525181818161297701526134a00152f35b5f80fd5b634e487b7160e01b5f52604160045260245ffd5b51906001600160a01b0382168203620001d757565b7ff0c57e16840df040f15088dc2f81fe391c3923bec73e23a9662efc9c229c6a00805460ff8160401c1662000291576001600160401b036002600160401b0319828216016200025257505050565b6001600160401b031990911681179091556040519081527fc7f505b2f371ae2175ee4913f4499e1f2633a7b5936321eed1cdaeb6115181d290602090a1565b60405163f92ee8a960e01b8152600490fdfe60806040526004361015610022575b3615610018575f80fd5b610020613109565b005b5f3560e01c806301d523b6146103b757806301e1d114146103b2578063066055e0146103ad57806306fdde03146103a857806307a2d13a146103a3578063095ea7b31461039e5780630d392cd91461039957806318160ddd1461035857806318f72950146103945780631a7ff5531461038f578063201b9eb51461038a57806322758a4a1461038557806323b872dd146103805780632999ad3f1461037b5780632cdf740114610376578063313ce567146103715780633229fa951461036c57806333194c0a146103675780633644e5151461036257806336fe59d21461035d5780633a98ef3914610358578063439fab911461035357806343e82a791461034e57806346904840146103495780634ec96b22146103445780634f1ef2861461033f57806352d1902d1461033a57806353156f281461033557806354fd4d50146103305780635c60da1b1461032b5780635cfc1a511461032657806360d60e6e1461032157806370a08231146102b857806372b410a81461031c578063754c38881461031757806376b58b90146103125780637ecebe001461030d5780637fd6f15c1461030857806383d430d5146103035780638697d2c2146102fe5780638ceab9aa146102f957806395d89b41146102f4578063a49a1e7d146102ef578063a9059cbb146102ea578063ac9650d8146102e5578063ad3cb1cc146102e0578063b1f0e7c7146102db578063c6e6f592146102d6578063d505accf146102d1578063d83ad00c146102cc578063dd62ed3e146102c7578063e74b981b146102c2578063ee3bd5df146102bd578063f04da65b146102b8578063f6a6830f146102b3578063f851a440146102ae578063f9609f08146102a95763f98f5b920361000e5761253c565b612524565b6124fc565b6124bb565b611737565b612495565b612468565b612424565b6123d9565b6121c4565b61219b565b612181565b61213c565b6120d7565b612036565b611fe4565b611f40565b611d57565b611aeb565b61191b565b6118f7565b6118bc565b61186b565b6117ff565b611772565b611719565b6116ff565b6116cb565b6116b0565b61168c565b611623565b61139d565b6112a8565b611280565b611173565b6110ad565b6108f3565b61103e565b611024565b610fea565b610fbe565b610fa3565b610f89565b610af9565b610a1d565b6109f4565b6109db565b61097f565b610919565b6108c1565b610815565b6107f7565b610731565b61047d565b61044c565b6103df565b6001600160a01b038116036103cd57565b5f80fd5b908160809103126103cd5790565b60803660031901126103cd576004356103f7816103bc565b604435610403816103bc565b606435906001600160401b0382116103cd5760209261043161042c61043a9436906004016103d1565b6126bc565b602435906129ce565b604051908152f35b5f9103126103cd57565b346103cd575f3660031901126103cd57602060cf5460801c604051908152f35b6001600160801b038116036103cd57565b346103cd5760203660031901126103cd5760043561049a8161046c565b604051633b9e9f0160e21b81523360048201526001600160801b03821660248201526020816044815f6001600160a01b037f0000000000000000000000000000000000000000000000000000000000000000165af1908115610617575f916105e8575b50335f90815261016e6020526040902061051690612583565b916001600160801b0361053084516001600160801b031690565b16156105d657610584836105466105d29561311c565b6105706105638461055e84516001600160801b031690565b6125bc565b6001600160801b03168252565b335f90815261016e602052604090206125d5565b604080518381526001600160801b0392909216602083015233917f3f7354ba02880b4fa37a629985852a38417ff369369ce1e52fa6f8342a9100a79190a26040519081529081906020820190565b0390f35b60405163673f032f60e11b8152600490fd5b61060a915060203d602011610610575b61060281836106b6565b810190612569565b5f6104fd565b503d6105f8565b612578565b90600182811c9216801561064a575b602083101461063657565b634e487b7160e01b5f52602260045260245ffd5b91607f169161062b565b634e487b7160e01b5f52604160045260245ffd5b604081019081106001600160401b0382111761068357604052565b610654565b6001600160401b03811161068357604052565b608081019081106001600160401b0382111761068357604052565b90601f801991011681019081106001600160401b0382111761068357604052565b5f5b8381106106e85750505f910152565b81810151838201526020016106d9565b90602091610711815180928185528580860191016106d7565b601f01601f1916010190565b90602061072e9281815201906106f8565b90565b346103cd575f3660031901126103cd576040515f80546107508161061c565b808452906020906001908181169081156107cd5750600114610789575b6105d28561077d818703826106b6565b6040519182918261071d565b5f80805293505f805160206157fa8339815191525b8385106107ba5750505050810160200161077d826105d261076d565b805486860184015293820193810161079e565b8695506105d29693506020925061077d94915060ff191682840152151560051b820101929361076d565b346103cd5760203660031901126103cd57602061043a6004356125fe565b346103cd5760403660031901126103cd57600435610832816103bc565b6001600160a01b038116906024359082156108a55761086d8291335f52600260205260405f209060018060a01b03165f5260205260405f2090565b556040519081527f8c5be1e5ebec7d5bd14f71427d1e84f3dd0314c0f7b2291e5b200ac8c7c3b92560203392a3602060405160018152f35b60405163d92e233d60e01b8152600490fd5b801515036103cd57565b346103cd5760403660031901126103cd576100206004356108e1816103bc565b602435906108ee826108b7565b612624565b346103cd575f3660031901126103cd5760206001600160801b0360cf5416604051908152f35b60603660031901126103cd57600435610931816103bc565b60243561093d816103bc565b604435906001600160401b0382116103cd5760209261096661042c61043a9436906004016103d1565b61096f33613747565b61097881613747565b3490614a9a565b346103cd5760203660031901126103cd576004356001600160401b0381116103cd5761042c6100209136906004016103d1565b60609060031901126103cd576004356109ca816103bc565b906024359060443561072e816103bc565b346103cd57602061043a6109ee366109b2565b91612703565b346103cd575f3660031901126103cd5761026a546040516001600160a01b039091168152602090f35b346103cd5760603660031901126103cd57600435610a3a816103bc565b60243590610a47826103bc565b6001600160a01b0381165f8181526002602090815260408083203384529091529020546044359160018201610a97575b610a8b84610a86858883614bd2565b613784565b60405160018152602090f35b919093818503948511610acb575f928352600260209081526040808520338652909152909220939093559180610a8b610a77565b6125a8565b60609060031901126103cd5760043590602435610aec816103bc565b9060443561072e816103bc565b346103cd57610b0736610ad0565b906001600160a01b03808316156108a557610b2061429b565b807f00000000000000000000000000000000000000000000000000000000000000001691823b156103cd5760408051631d8557d760e01b815260049491905f81878183875af1801561061757610f70575b506001600160a01b0383165f90815261016e60205260409020610b9390612583565b6001600160801b039283610bae83516001600160801b031690565b1615610f6057610bbd8261311c565b825163e48a5f7b60e01b8152308882019081529097906060908990819060200103818a7f0000000000000000000000000000000000000000000000000000000000000000165afa978815610617575f98610f2f575b50602097888101956001600160401b03918280610c368a516001600160401b031690565b1614610f1f57908c92918751918c8380610c626303d1689d60e11b988983528a83019190602083019252565b03818a5afa91821561061757610c8e938e5f94610efa575b5050516001600160801b03165b169061324b565b96610cb2610cac8a60018060a01b03165f5260d360205260405f2090565b546125fe565b928389118015610eea575b610eda57908b610cfb9392610cd989516001600160801b031690565b908a51958692839283528983019190916001600160801b036020820193169052565b0381895afa91821561061757670de0b6b3a764000094610d4a948e5f95610ead575b5050610d3c610d2e610d4292612eca565b93516001600160401b031690565b93612eca565b9216906132bf565b1015610e9f578351633b9e9f0160e21b815233918101918252602082018b905294939291889186919082905f90829060400103925af1908115610617577f61fd285f9e34a3dbfa9846bdcf22a023e37a3c93549902843b30dd74a18c535097610e7c95610df493610e81575b5050610dd7610563610dc78c6147cd565b83516001600160801b03166125bc565b6001600160a01b0386165f90815261016e602052604090206125d5565b610dfd8261489a565b90610e3b610e20610e0d856147cd565b60cf5460801c036001600160801b031690565b6001600160801b0360cf549181199060801b1691161760cf55565b610e458286615314565b610e4f8389614800565b51948594169733978590949392606092608083019660018060a01b03168352602083015260408201520152565b0390a3005b81610e9792903d106106105761060281836106b6565b505f80610db6565b835163185cfc6d60e11b8152fd5b610d42929550610ed0610d3c9282610d2e93903d106106105761060281836106b6565b959250508e610d1d565b875163efda1a2760e01b81528590fd5b50610ef3612928565b8911610cbd565b610c879294509081610f1792903d106106105761060281836106b6565b92908e610c7a565b8651630709133160e01b81528490fd5b610f5291985060603d606011610f59575b610f4a81836106b6565b810190613818565b965f610c12565b503d610f40565b825163673f032f60e11b81528790fd5b80610f7d610f8392610688565b80610442565b5f610b71565b346103cd575f3660031901126103cd57602061043a612928565b346103cd575f3660031901126103cd57602060405160128152f35b346103cd575f3660031901126103cd576020610fd861295e565b6040516001600160a01b039091168152f35b346103cd575f3660031901126103cd5760206040517f3c60bf85548481aa53872c99e20f566d08c7fc12e0f05302f4002dedc8d45e4d8152f35b346103cd575f3660031901126103cd57602061043a612999565b602061043a61104c366109b2565b916129ce565b9181601f840112156103cd578235916001600160401b0383116103cd57602083818601950101116103cd57565b60206003198201126103cd57600435906001600160401b0382116103cd576110a991600401611052565b9091565b6110b63661107f565b907ff0c57e16840df040f15088dc2f81fe391c3923bec73e23a9662efc9c229c6a009182549160ff8360401c16801561115f575b61114d57680100000000000000026111109368ffffffffffffffffff1916178455612af8565b68ff00000000000000001981541690557fc7f505b2f371ae2175ee4913f4499e1f2633a7b5936321eed1cdaeb6115181d2602060405160028152a1005b60405163f92ee8a960e01b8152600490fd5b5060026001600160401b03841610156110ea565b346103cd5761118136610ad0565b60405163057453a760e31b81529091906001600160a01b03906020816004817f000000000000000000000000000000000000000000000000000000000000000086165afa80156106175782915f91611251575b5016330361123f5781610e7c61120c86867f57f5eb636bf62215c111b54545422f11dfb0cb115f606be905f0be08e8859dd396613872565b604080516001600160a01b0390981688526020880198909852968601526060850195909552169233929081906080820190565b604051634ca8886760e01b8152600490fd5b611273915060203d602011611279575b61126b81836106b6565b810190612a1a565b5f6111d4565b503d611261565b346103cd575f3660031901126103cd57609c546040516001600160a01b039091168152602090f35b346103cd5760203660031901126103cd576004356112c5816103bc565b60018060a01b03165f5261016e602052602060405f20604051906112e882610668565b54906001600160801b03918281169081835260801c84830152611310575b5116604051908152f35b6113198161311c565b611306565b6040519060a082018281106001600160401b0382111761068357604052565b6040519061134a82610668565b565b6001600160401b03811161068357601f01601f191660200190565b9291926113738261134c565b9161138160405193846106b6565b8294818452818301116103cd578281602093845f960137010152565b6040806003193601126103cd5760049081356113b8816103bc565b6024356001600160401b0381116103cd57366023820112156103cd576113e79036906024818701359101611367565b916113f0613f93565b8051926114278461141960209363439fab9160e01b8584015284602484015260448301906106f8565b03601f1981018652856106b6565b61142f613f93565b61143761406c565b6001600160a01b038381168015929190879084156115ee575b8415611580575b841561151c575b50508215611486575b5050611477576100208383614f1d565b516355299b4960e01b81528390fd5b83516345da87c560e01b81526001600160a01b03861688820190815292935091839183918290819060200103917f0000000000000000000000000000000000000000000000000000000000000000165afa918215610617575f926114ef575b5050155f80611467565b61150e9250803d10611515575b61150681836106b6565b810190612ca0565b5f806114e5565b503d6114fc565b855163054fd4d560e41b81529294508391839182905afa9081156106175760039160ff915f91611553575b5016141591865f61145e565b6115739150843d8611611579575b61156b81836106b6565b810190614f08565b5f611547565b503d611561565b935050835163198ca60560e11b815282818981875afa9081156106175788917f3c60bf85548481aa53872c99e20f566d08c7fc12e0f05302f4002dedc8d45e4d915f916115d1575b50141593611457565b6115e89150853d87116106105761060281836106b6565b5f6115c8565b5f8051602061581a83398151915254909450849061161c906001600160a01b03165b6001600160a01b031690565b1493611450565b346103cd575f3660031901126103cd577f00000000000000000000000000000000000000000000000000000000000000006001600160a01b0316300361167a5760206040515f8051602061581a8339815191528152f35b60405163703e46dd60e11b8152600490fd5b5f3660031901126103cd576001600160a01b036116a761295e565b16330361123f57005b346103cd575f3660031901126103cd57602060405160028152f35b346103cd575f3660031901126103cd575f8051602061581a833981519152546040516001600160a01b039091168152602090f35b346103cd575f3660031901126103cd57602061043a612bc6565b346103cd5760203660031901126103cd57602061043a600435612be1565b346103cd5760203660031901126103cd57600435611754816103bc565b60018060a01b03165f5260d3602052602060405f2054604051908152f35b346103cd575f3660031901126103cd57604051633eb1acf760e11b81523060048201526020816024817f00000000000000000000000000000000000000000000000000000000000000006001600160a01b03165afa8015610617576020915f916117e2575b506040519015158152f35b6117f99150823d84116115155761150681836106b6565b5f6117d7565b346103cd5760203660031901126103cd5760043561181c816103bc565b61182461406c565b61010980546001600160a01b0319166001600160a01b03929092169182179055337f6bdc78d8c88160b3fc3638e67f2afe523b3f4c7d00c56ebb6216790e4c3eb2cb5f80a3005b346103cd5760803660031901126103cd576105d261189f60043561188e816103bc565b606435906044359060243590612cc2565b604080519384526020840192909252908201529081906060820190565b346103cd5760203660031901126103cd576004356118d9816103bc565b60018060a01b03165f526003602052602060405f2054604051908152f35b346103cd575f3660031901126103cd57602061ffff609c5460a01c16604051908152f35b346103cd576003196040368201126103cd5760049081356001600160401b038082116103cd5760a08285019383360301126103cd576024359081116103cd576119679036908501611052565b6001600160a01b037f00000000000000000000000000000000000000000000000000000000000000008116803b156103cd5760405163837d444160e01b8152905f9082908183816119ba8c828f01612dde565b03925af1801561061757611ad8575b506119d261429b565b6119da6130d2565b9081163314159182611aa9575b50509050611a98576044019160b06119ff8484612e5c565b90500480158015611a80575b611a7057611a20611a1a612928565b91612eb1565b11611a61575060b0611a328383612e5c565b9050145f14611a4e5761002091611a4891612e5c565b906146ba565b61002091611a5b91612e5c565b90614592565b6040516396d8043360e01b8152fd5b50604051631c6c4cf360e31b8152fd5b50611a8b8484612e5c565b905060b082021415611a0b565b604051634ca8886760e01b81528390fd5b611acc9250611ac6611ad094611abe88614326565b923691611367565b91614401565b1590565b805f806119e7565b80610f7d611ae592610688565b5f6119c9565b346103cd5760603660031901126103cd57600435602435611b10604435828433612cc2565b9192611b3c7f000000000000000000000000000000000000000000000000000000000000000082612bd4565b42108015611d4f575b8015611d47575b611d35577feb3b05c070c24f667611fdb3ff75fe007d42401c573aed8d8faca95fd00ccb5693611b9c86611b97611b8b60d0546001600160801b031690565b6001600160801b031690565b613fec565b15611ca357611bd6611bbb611bb0866147cd565b60d05460801c6125bc565b6001600160801b0360d0549181199060801b1691161760d055565b60408051336020820190815291810184905260608082018990528152601f1993915f91611c1a9190611c096080826106b6565b5190205f5260d260205260405f2090565b555f9360018311611c53575b50505050611c348233614800565b604080519485526020850191909152830152339180606081015b0390a2005b611c9992939450611c649088612bd4565b60408051336020820190815291810193909352606083018290529094909190611c099082608081015b039081018352826106b6565b555f808080611c26565b611cab61429b565b611ce7611ccb611cba866147cd565b60d5546001600160801b03166125bc565b6001600160801b03166001600160801b031960d554161760d555565b611d1c611d01611cf6856147cd565b60d55460801c6125bc565b6001600160801b0360d5549181199060801b1691161760d555565b611d30611d2b8460d654612bd4565b60d655565b611bd6565b604051630e3d8e8d60e11b8152600490fd5b508215611b4c565b508115611b45565b346103cd576040806003193601126103cd5760243590600435611d79836103bc565b611d8161429b565b8015611f2f576001600160a01b038316908115611f1e57611da1816125fe565b908115611f0d57611db18261501c565b611dba836147cd565b60cf5460801c90611dca916125bc565b611de9906001600160801b0360cf549181199060801b1691161760cf55565b611df38233615314565b60d554958660801c828160d65490611e0a91612bd4565b98611e14876147cd565b611e26916001600160801b0316613769565b611e46906001600160801b03166001600160801b031960d554161760d555565b611e4f91612bd4565b611e58906147cd565b611e77906001600160801b0360d5549181199060801b1691161760d555565b85516001600160a01b0391909116602082019081524260408301526060808301899052825290611ea86080826106b6565b519020611ebd905f5260d260205260405f2090565b5583518581526020810191909152604081019190915233907f869f12645d154414259c47bcb998b6b6983fae50e5e0c6053bc87d4330db9f2d90606090a3611f0433613784565b51908152602090f35b83516318374fd160e21b8152600490fd5b825163d92e233d60e01b8152600490fd5b8151636edcc52360e01b8152600490fd5b346103cd575f3660031901126103cd576040515f60018054611f618161061c565b80855291602091600181169081156107cd5750600114611f8b576105d28561077d818703826106b6565b60015f90815293507fb10e2d527612073b26eecdfd717e6a320cf44b4afac2b0732d9fcbe2b7fa0cf65b838510611fd15750505050810160200161077d826105d261076d565b8054868601840152938201938101611fb5565b346103cd57611c4e7f2013570c343af8ab14a9778150e381a0fda34ed6368127a95fd5e7210cbec5bf6120163661107f565b929061202061406c565b6040519182916020835233956020840191612dbe565b346103cd5760403660031901126103cd57612060600435612056816103bc565b6024359033614bd2565b61206933613784565b602060405160018152f35b6020808201906020835283518092526040830192602060408460051b8301019501935f915b8483106120a95750505050505090565b90919293949584806120c7600193603f198682030187528a516106f8565b9801930193019194939290612099565b346103cd5760203660031901126103cd576001600160401b036004358181116103cd57366023820112156103cd5780600401359182116103cd573660248360051b830101116103cd576105d29160246121309201613025565b60405191829182612074565b346103cd575f3660031901126103cd576105d260405161215b81610668565b60058152640352e302e360dc1b60208201526040519182916020835260208301906106f8565b346103cd575f3660031901126103cd576020610fd86130d2565b346103cd5760203660031901126103cd57602061043a60043561489a565b60ff8116036103cd57565b346103cd5760e03660031901126103cd576004356121e1816103bc565b6024356121ed816103bc565b604435906064359260843590612202826121b9565b6001600160a01b038381169590929086156108a5574281106123c7576020915f91611c8d6122f589878a6122b8612237612999565b6001600160a01b0384165f9081526003602052604090209097908054906001820190556040519586948d8601968791959493909260a09360c08401977f6e71edae12b1b97f4d1f60370fef10105fa2faae0126114a169c64845d6126c98552600180871b038092166020860152166040840152606083015260808201520152565b03916122cc601f19938481018352826106b6565b5190206040519384918983019687909160429261190160f01b8352600283015260228201520190565b5190206040805191825260ff92909216602082015260a4359181019190915260c435606082015281805260809060015afa15610617575f519282841680159081156123ba575b506123a85761239585916123807f8c5be1e5ebec7d5bd14f71427d1e84f3dd0314c0f7b2291e5b200ac8c7c3b9259660018060a01b03165f52600260205260405f2090565b9060018060a01b03165f5260205260405f2090565b5560405193845216918060208101610e7c565b6040516323389ba560e21b8152600490fd5b905083831614155f61233b565b604051631ab7da6b60e01b8152600490fd5b346103cd575f3660031901126103cd5760206001600160801b0360d05416604051908152f35b60409060031901126103cd57600435612417816103bc565b9060243561072e816103bc565b346103cd57602061245f612437366123ff565b6001600160a01b039182165f9081526002855260408082209290931681526020919091522090565b54604051908152f35b346103cd5760203660031901126103cd57610020600435612488816103bc565b61249061406c565b614929565b346103cd575f3660031901126103cd5760206001600160801b0360d55416604051908152f35b346103cd5760203660031901126103cd576004356124d8816103bc565b60018060a01b03165f5261026b602052602060ff60405f2054166040519015158152f35b346103cd575f3660031901126103cd576037546040516001600160a01b039091168152602090f35b602061043a612532366123ff565b9061096f33613747565b346103cd5760203660031901126103cd5761002060043561255c816103bc565b61256461406c565b61498b565b908160209103126103cd575190565b6040513d5f823e3d90fd5b9060405161259081610668565b91546001600160801b038116835260801c6020830152565b634e487b7160e01b5f52601160045260245ffd5b6001600160801b039182169082160391908211610acb57565b815160209092015160801b6001600160801b0319166001600160801b0392909216919091179055565b60cf546001600160801b038116908161261657505090565b9161072e9260801c906132bf565b61026a546001600160a01b0391908216330361123f576001600160a01b0381165f90815261026b60205260409020549215159260ff16151583146126b7576001600160a01b0381165f90815261026b6020526040902060ff1981541660ff851617905560405192835216907fd9c6c3eabe38e3b9a606a66358d8f225489216a59eeba66facefb7d91663526660203392a3565b505050565b6126c86126cf91613427565b91906135bd565b6126d557565b6126dd6151eb565b806126e6575b50565b5f906040519081525f8051602061583a83398151915260203092a3565b909161270e33613747565b612716614b46565b61271e61429b565b6040516329460cc560e11b81526001600160a01b038381166004830152602482018590529093602092917f00000000000000000000000000000000000000000000000000000000000000001683866044815f855af1958615610617575f96612909575b50335f90815261016e6020526040902061279a90612583565b936001600160801b036127b486516001600160801b031690565b16156128a55750506127c58361311c565b6127f16127e46127d4836147cd565b85516001600160801b0316613769565b6001600160801b03168452565b335f90815260d3602052604090206128119061280c90610cac565b613cb1565b612825611b8b85516001600160801b031690565b1161289357335f90815261016e602052604090207fa16d97739893e1436c9753925fb5cef174c4f368699dc86cc8fdb0e6e60f8e5893612864916125d5565b604080516001600160a01b0395861681526020810187905290810191909152921660608301523391608090a290565b604051633684c65960e01b8152600490fd5b806004926040519384809263752a536d60e01b82525afa918215610617576128e7926128d8915f916128ec575b506147cd565b6001600160801b031690850152565b6127c5565b6129039150833d85116106105761060281836106b6565b5f6128d2565b612921919650843d86116106105761060281836106b6565b945f612781565b4760d0546001600160801b0361293f8183166125fe565b9060d55416019060801c01908181115f14612958570390565b50505f90565b6101a1546001600160a01b031680156129745790565b507f000000000000000000000000000000000000000000000000000000000000000090565b467f0000000000000000000000000000000000000000000000000000000000000000036129c65760045490565b61072e613b8b565b916129d833613747565b6129e133613747565b6129ec813433614a9a565b505f198214612a05575b81612a019293612703565b5090565b612a019150612a1334613cb1565b91506129f6565b908160209103126103cd575161072e816103bc565b359061ffff821682036103cd57565b9080601f830112156103cd5781602061072e93359101611367565b906020828203126103cd5781356001600160401b03928382116103cd57019060a0828203126103cd57612a8a61131e565b9282358452612a9b60208401612a2f565b602085015260408301358181116103cd5782612ab8918501612a3e565b604085015260608301358181116103cd5782612ad5918501612a3e565b606085015260808301359081116103cd57612af09201612a3e565b608082015290565b6037549091906001600160a01b0316612bbc5760405163e7f6f22560e01b8152906020908183600481335afa928315610617575f93612b9d575b50604051636f4fa30f60e01b8152938285600481335afa9081156106175761134a95612b75945f93612b7a575b5050612b6e9192810190612a59565b9083613ec7565b613f87565b612b6e93509081612b9692903d106112795761126b81836106b6565b915f612b5f565b612bb5919350823d84116112795761126b81836106b6565b915f612b32565b505061134a613dbb565b60d4548061072e57505f1990565b91908201809211610acb57565b6001600160801b0360d05416612bf5614fc8565b908101809111610acb578110612c2857612c1960d654612c13614003565b90612bd4565b1115612c23575f90565b5f1990565b60d19060d1549182915f905b848210612c4e57505050811015612c485790565b505f1990565b909193808316906001818518811c8301809311610acb575f8790525f8051602061585a8339815191528301546001600160a01b0316841015612c95575050935b9190612c34565b909591019250612c8e565b908160209103126103cd575161072e816108b7565b91908203918211610acb57565b604080516001600160a01b03909216602083019081529082019390935260608101829052909190612d0081608081015b03601f1981018352826106b6565b5190205f5260d260205260405f2054918215612d6a576001600160801b0360d0541690612d2b614fc8565b918201809211610acb578391831015612d585791612d4892614100565b90915b828103908111610acb5792565b5090612d6391614080565b9091612d4b565b5050505f905f905f90565b9035601e19823603018112156103cd5701602081359101916001600160401b0382116103cd5781360383136103cd57565b90603060609281835260208301375f60508201520190565b908060209392818452848401375f828201840152601f01601f1916010190565b9060a061072e92602081528235602082015260208301356040820152612e1a612e0a6040850185612d75565b84606085015260c0840191612dbe565b90612e4d612e42612e2e6060870187612d75565b601f19858703810160808701529591612dbe565b946080810190612d75565b93909282860301910152612dbe565b903590601e19813603018212156103cd57018035906001600160401b0382116103cd576020019181360383136103cd57565b634e487b7160e01b5f52601260045260245ffd5b8115612eac570490565b612e8e565b906801bc16d674ec8000009180830292830403610acb57565b90670de0b6b3a764000091828102928184041490151715610acb57565b6001600160401b0381116106835760051b60200190565b90612f0882612ee7565b612f1560405191826106b6565b8281528092612f26601f1991612ee7565b01905f5b828110612f3657505050565b806060602080938501015201612f2a565b634e487b7160e01b5f52603260045260245ffd5b90821015612f72576110a99160051b810190612e5c565b612f47565b908092918237015f815290565b3d15612fae573d90612f958261134c565b91612fa360405193846106b6565b82523d5f602084013e565b606090565b6020818303126103cd578051906001600160401b0382116103cd570181601f820112156103cd578051612fe58161134c565b92612ff360405194856106b6565b818452602082840101116103cd5761072e91602080850191016106d7565b8051821015612f725760209160051b010190565b91909161303183612efe565b925f5b81811061304057505050565b5f8061304d838587612f5b565b6040939161305f855180938193612f77565b0390305af49061306d612f84565b91156130945750906001916130828288613011565b5261308d8187613011565b5001613034565b9060448151106103cd576130ce6130b960049283810151602480918301019101612fb3565b925162461bcd60e51b8152928392830161071d565b0390fd5b610109546001600160a01b03168061072e57507f000000000000000000000000000000000000000000000000000000000000000090565b61311233613747565b6126e334336149d2565b60405163752a536d60e01b81526020816004817f00000000000000000000000000000000000000000000000000000000000000006001600160a01b03165afa908115610617575f916131b2575b5060208201916001600160801b039182845116918282146131ab578361319e6131996131a69585848651166132bf565b6147cd565b1690526147cd565b169052565b5050505050565b6131cb915060203d6020116106105761060281836106b6565b5f613169565b90808202905f198184099082808310920391808303921461324057612710908282111561322e577fbc01a36e2eb1c432ca57a786c226809d495182a9930be0ded288ce703afb7e91940990828211900360fc1b910360041c170290565b60405163227bc15360e01b8152600490fd5b505061271091500490565b90808202905f19818409908280831092039180830392146132ae57670de0b6b3a7640000908282111561322e577faccb18165bd6fe31ae1cf318dc5b51eee0e1ba569b88cd74c1773b91fac10669940990828211900360ee1b910360121c170290565b5050670de0b6b3a764000091500490565b9091828202915f1984820993838086109503948086039514613332578483111561322e57829109815f038216809204600280826003021880830282030280830282030280830282030280830282030280830282030280920290030293600183805f03040190848311900302920304170290565b50509061072e9250612ea2565b908160609103126103cd578051916040602083015192015161072e816108b7565b81835290916001600160fb1b0383116103cd5760209260051b809284830137010190565b90602082528035602083015260208101358060130b8091036103cd57604083015260408101356133b3816103bc565b6001600160a01b031660608381019190915281013536829003601e19018112156103cd5701602081359101906001600160401b0381116103cd578060051b360382136103cd5760a08360808061072e9601520191613360565b9190915f8382019384129112908015821691151617610acb57565b6040516325f56f1160e01b81526001600160a01b039291606090829081906134529060048301613384565b03815f877f0000000000000000000000000000000000000000000000000000000000000000165af1928315610617575f915f905f95613578575b508415613525578161349c61295e565b16917f000000000000000000000000000000000000000000000000000000000000000016821461351e57509060205f92600460405180958193634641257d60e01b83525af1908115610617576134f9925f926134fd575b5061340c565b9190565b61351791925060203d6020116106105761060281836106b6565b905f6134f3565b908161352b575b50509190565b803b156103cd57604051636ee3193160e11b815260048101929092525f908290602490829084905af1801561061757613565575b80613525565b80610f7d61357292610688565b5f61355f565b9194505061359e915060603d6060116135a6575b61359681836106b6565b81019061333f565b93905f61348c565b503d61358c565b600160ff1b8114610acb575f0390565b80156126e3576135d2611b8b60cf5460801c90565b5f82126136a457816135e391612bd4565b906135f0610e20836147cd565b613605609c549161ffff8360a01c16906131d1565b80156126b757807f555ee6b2ef9506d870f386c067e47d3689435330b012ad263d8cc3531868654793613643611b8b60cf546001600160801b031690565b8061368e57505061368990925b6001600160a01b0316916136648484615183565b60405193849384604091949392606082019560018060a01b0316825260208201520152565b0390a1565b6136899261369e920390846132bf565b92613650565b906136ae906135ad565b6136c3611b8b60d5546001600160801b031690565b806136e3575b50806136d3575050565b613199610e209161134a93612cb5565b9061373e7f3623a54e8078be0d90ecfbef82da6a31ff3e6be8aa1718e7a7f3d0d33ff1d32a9161372e611ccb61372361371c8888612bd4565b87856132bf565b8080940396036147cd565b6040519081529081906020820190565b0390a15f6136c9565b6001600160a01b03165f90815261026b602052604090205460ff161561123f57565b9190916001600160801b0380809416911601918211610acb57565b60018060a01b0381165f5261016e60205260405f2090604051916137a783610668565b54906001600160801b03918281169081855260801c6020850152156126b75761280c610cac6137fa926137d861429b565b6137e18661311c565b6001600160a01b03165f90815260d36020526040902090565b9151161161289357565b51906001600160401b03821682036103cd57565b908160609103126103cd5760405190606082018281106001600160401b038211176106835761386a91604091825280516138518161046c565b845261385f60208201613804565b602085015201613804565b604082015290565b92906001600160a01b0390818116156108a55761388d61429b565b817f00000000000000000000000000000000000000000000000000000000000000001690813b156103cd57604094855193631d8557d760e01b85526004945f81878183895af1801561061757613b78575b506001600160a01b0388165f90815261016e6020526040902061390090612583565b906001600160801b0361391a83516001600160801b031690565b1615613b68576139298261311c565b875163e48a5f7b60e01b81523087820190815290916060918391908290819060200103917f0000000000000000000000000000000000000000000000000000000000000000165afa801561061757613b49575b508651936303d1689d60e11b978886526020918287806139a3888c83019190602083019252565b0381845afa968715610617575f97613b2a575b5086996139d6610cac8d60018060a01b03165f5260d360205260405f2090565b88118015613b1a575b613b0a579083613a1c926139fa87516001600160801b031690565b908551948592839283528d83019190916001600160801b036020820193169052565b0381845afa988915610617575f85948894613a619c613aed575b5051633b9e9f0160e21b815233928101928352602083019490945292998a9384929091839160400190565b03925af195861561061757610dc7613aa894613a8b936105639361134a9a613acf575b50506147cd565b6001600160a01b0388165f90815261016e602052604090206125d5565b613aca613ab48361489a565b8097613ac5610e20610e0d876147cd565b615314565b614800565b81613ae592903d106106105761060281836106b6565b505f80613a84565b613b0390873d89116106105761060281836106b6565b505f613a36565b825163efda1a2760e01b81528990fd5b50613b23612928565b88116139df565b613b42919750833d85116106105761060281836106b6565b955f6139b6565b613b619060603d606011610f5957610f4a81836106b6565b505f61397c565b875163673f032f60e11b81528690fd5b80610f7d613b8592610688565b5f6138de565b6040515f905f5490613b9c8261061c565b9283825260209384830193600190866001821691825f14613c91575050600114613c4e575b50509181613bd7613c4893612cf29503826106b6565b519020604080517f8b73c3c69bb8fe3d512ecc4cf759cc79239f7b179b0ffacaa9a75d522b39400f95810195865260208601929092527fc89efdaa54c0f20c7adf612882df0950f5a951637e0307cdcb4c672f298b8bc69085015246606085015230608085015291829060a0850190565b51902090565b5f80805286935091905f805160206157fa8339815191525b828410613c7c5750505082010181613bd7613bc1565b80548685018601528794909301928101613c66565b60ff1916875292151560051b85019092019250839150613bd79050613bc1565b60405163e48a5f7b60e01b81523060048201526001600160a01b036060826024817f000000000000000000000000000000000000000000000000000000000000000085165afa801561061757613d4c936001600160401b03610c876040613d2b946020975f91613d9c575b5001516001600160401b031690565b9060405180809581946363737ac960e11b8352600483019190602083019252565b03917f0000000000000000000000000000000000000000000000000000000000000000165afa908115610617575f91613d83575090565b61072e915060203d6020116106105761060281836106b6565b613db5915060603d606011610f5957610f4a81836106b6565b5f613d1c565b613dc3614c60565b613dcb614c60565b613dd3614fc8565b6001600160801b0360d054168101809111610acb5760d655613df3614c60565b613e04613dfe615053565b61010a55565b6101075461010854610109549091906001600160a01b037f00000000000000000000000000000000000000000000000000000000000000008116911690803b156103cd576040516376615a5560e01b8152600481019390935260248301939093526001600160a01b03166044820152905f908290606490829084905af1801561061757613eb4575b50613e975f61010755565b613ea15f61010855565b61010980546001600160a01b0319169055565b80610f7d613ec192610688565b5f613e8c565b9190613ed1614c60565b608082015190613edf614c60565b6001600160a01b03841680156108a557613f7f94613f6f93613f58926001600160601b0360a01b60375416176037557f2013570c343af8ab14a9778150e381a0fda34ed6368127a95fd5e7210cbec5bf6040516020815280613f46339460208301906106f8565b0390a2602085015161ffff1690614ca1565b613f628351614cf2565b613f6a614d22565b614d49565b6060604082015191015190614d78565b61134a614ea5565b61134a90612564614c60565b6001600160a01b037f00000000000000000000000000000000000000000000000000000000000000008116308114918215613fd1575b505061167a57565b5f8051602061581a8339815191525416141590505f80613fc9565b90613ff5614fc8565b918201809211610acb571090565b4760d0548060801c8203918211610acb57816140286001600160801b038093166125fe565b908161404e575b505081156129585761072e916140499160d554169061500a565b61501c565b919250908181111561406457035b905f8061402f565b50505f61405c565b6037546001600160a01b0316330361123f57565b614088614003565b9160d654928301809311610acb57808311156140d2576140a992039061500a565b9060d5548060801c80155f146140bf5750508190565b6001600160801b0361072e9216846132bf565b5050505f905f90565b906040516140e881610668565b91546001600160a01b038116835260a01c6020830152565b60d1545f948594939091808410801590614293575b6142865783614250575f5b60d15f526001600160a01b03166141455f8051602061585a83398151915286016140db565b805190979061415c906001600160a01b0316611610565b986141816141756020809b01516001600160601b031690565b6001600160601b031690565b948381108015614246575b6142345791600193979a956141ab6141b7939488035b838c039061500a565b809201988703916132bf565b0197019380861180159061422a575b61421f5760d15f5282906141e85f8051602061585a83398151915287016140db565b805190890151969992966001600160a01b0390911694600193926141b79290916001600160601b03909116906141ab9088036141a2565b945050509250509190565b50818510156141c6565b60405163e8722f8f60e01b8152600490fd5b50808b111561418c565b60d15f527f695fb3134ad82c3b8022bc5464edd0bcc9424ef672b52245dcb6ab2374327ce28401546001600160a01b0316614120565b505093505050505f905f90565b508415614115565b604051633eb1acf760e11b81523060048201526020816024817f00000000000000000000000000000000000000000000000000000000000000006001600160a01b03165afa908115610617575f91614307575b506142f557565b60405163e775715160e01b8152600490fd5b614320915060203d6020116115155761150681836106b6565b5f6142ee565b604290467f0000000000000000000000000000000000000000000000000000000000000000036143d55761010a54905b61436d6143666040830183612e5c565b3691611367565b602081519101206040519060208201927f838af86bfca91ada6557e38d913af1c2f24ef9b2567b3b77cc9e1144314b35b084523560408301526060820152606081526143b88161069b565b5190206040519161190160f01b8352600283015260228201522090565b6143dd615053565b90614356565b600411156143ed57565b634e487b7160e01b5f52602160045260245ffd5b61440b8383615120565b50614418819592956143e3565b1593846144b4575b50831561442e575b50505090565b5f92935090829160405161446681612cf26020820194630b135d3f60e11b998a875260248401526040604484015260648301906106f8565b51915afa90614473612f84565b826144a6575b82614489575b50505f8080614428565b61449e91925060208082518301019101612569565b145f8061447f565b915060208251101591614479565b6001600160a01b0383811691161493505f614420565b906030116103cd5790603090565b906090116103cd5760300190606090565b9060b0116103cd5760900190602090565b909392938483116103cd5784116103cd578101920390565b359060208110614520575090565b5f199060200360031b1b1690565b9695949061456b9361454f61455d926060979560808c5260808c0191612dbe565b9089820360208b01526106f8565b918783036040890152612dbe565b930152565b90602061072e928181520190612da6565b91602061072e938181520191612dbe565b60b091828104915f90816145a461515a565b957f00000000000000000000000000000000000000000000000000000000000000006001600160a01b0316935f92905b8784106145e657505050505050505050565b826145f59101809288876144fa565b9061460082826144ca565b9161461f61461961461186846144d8565b9690936144e9565b90614512565b90893b156103cd575f908d61464c604094855198899485946304512a2360e31b86528a8a6004880161452e565b03816801bc16d674ec8000008d5af1908115610617577f64b6e61d93b7a91e8cc4376183ede0997a27b44fd9dd2f30a866b2a5730efdb194614698926146a7575b505192839283614581565b0390a1600181930192906145d4565b80610f7d6146b492610688565b5f61468d565b816030116103cd57614619917f00000000000000000000000000000000000000000000000000000000000000006001600160a01b03166146f861515a565b9061470f61470684866144d8565b969094866144e9565b94813b156103cd576801bc16d674ec8000005f9461477597604051988996879586946304512a2360e31b8652608060048701526147666147538d6084890190612da6565b60031994858983030160248a01526106f8565b92868403016044870152612dbe565b90606483015203925af1908115610617577f64b6e61d93b7a91e8cc4376183ede0997a27b44fd9dd2f30a866b2a5730efdb192613689926147be575b5060405191829182614570565b6147c790610688565b5f6147b1565b6001600160801b03908181116147e1571690565b604490604051906306dfcc6560e41b8252608060048301526024820152fd5b907f9b779b17422d0df92223018b32b4d1fa46e071723d6817e2486d003becc55f009160028354146148885760028355814710614870575f918291829182916001600160a01b03165af1614852612f84565b501561485e5760019055565b604051630a12f52160e11b8152600490fd5b60405163cd78605960e01b8152306004820152602490fd5b604051633ee5aeb560e01b8152600490fd5b60cf54906001600160801b038216811580156148c9575b156148bc5750905090565b61072e9260801c916132bf565b5080156148b1565b60cf546001600160801b0381169082158015614921575b156148f257505090565b60801c906149018282856132bf565b928215612eac57096149105790565b600181018091111561072e576125a8565b5081156148e8565b61493161429b565b6001600160a01b0316801561497957609c80546001600160a01b03191682179055337faaebcf1bfa00580e41d966056b48521fa9f202645c86d4ddf28113e617c1b1d35f80a3565b604051630ed1b8b360e31b8152600490fd5b61026a80546001600160a01b0319166001600160a01b03929092169182179055337fda2bcad4d57ac529886ff995d07bce191c08b5424c8f5824de6c73f90cc623d45f80a3565b91906149dc61429b565b6001600160a01b0383169081156108a5578015614a885780614a03611b8b60cf5460801c90565b0193614a0d612bc6565b8511614a7657610e2094614a3491614a2f614a27856148d1565b9788936147cd565b615183565b60408051918252602082018590525f9082015233907f861a4138e41fb21c121a7dbb1053df465c837fc77380cc7226189a662281be2c9080606081015b0390a3565b6040516304ffa0ff60e51b8152600490fd5b6040516318374fd160e21b8152600490fd5b90929192614aa661429b565b6001600160a01b0382169182156108a5578115614a885781614acd611b8b60cf5460801c90565b01614ad6612bc6565b8111614a7657610e2095614b1d614a71927f861a4138e41fb21c121a7dbb1053df465c837fc77380cc7226189a662281be2c94614a2f614b15886148d1565b9a8b936147cd565b60408051948552602085018890526001600160a01b039091169084015233929081906060820190565b604051630156a69560e11b81523060048201526020816024817f00000000000000000000000000000000000000000000000000000000000000006001600160a01b03165afa908115610617575f91614bb3575b5015614ba157565b604051630a62fbdb60e11b8152600490fd5b614bcc915060203d6020116115155761150681836106b6565b5f614b99565b90614bdc82613747565b614be581613747565b6001600160a01b039182169182158015614c56575b6108a557825f5260d360205260405f2090815492858403938411610acb575f8051602061583a8339815191529360209355614c458160018060a01b03165f5260d360205260405f2090565b8681540190556040519586521693a3565b5080821615614bfa565b60ff7ff0c57e16840df040f15088dc2f81fe391c3923bec73e23a9662efc9c229c6a005460401c1615614c8f57565b604051631afcd79f60e31b8152600490fd5b614ca9614c60565b61271061ffff831611614ce057614cbf90614929565b609c805461ffff60a01b191660a09290921b61ffff60a01b16919091179055565b604051638a81d3b360e01b8152600490fd5b614cfa614c60565b8015614d105760018101614d0b5750565b60d455565b6040516331278a8760e01b8152600490fd5b614d2a614c60565b6801bc16d674ec800000614d3c612bc6565b10614d1057613dfe615053565b614d51614c60565b6001600160a01b031680614d625750565b6101a180546001600160a01b0319169091179055565b614d80614c60565b601e8151118015614e9a575b614e8857614d98614c60565b8051906001600160401b03821161068357614dbc82614db75f5461061c565b61537f565b602090816001601f851114614e1457509180614df292614df995945f92614e09575b50508160011b915f199060031b1c19161790565b5f55615449565b61134a614e04613b8b565b600455565b015190505f80614dde565b5f80529190601f1984165f805160206157fa833981519152935f905b828210614e70575050916001939185614df997969410614e58575b505050811b015f55615449565b01515f1960f88460031b161c191690555f8080614e4b565b80600186978294978701518155019601940190614e30565b604051632d3f993760e21b8152600490fd5b50600a825111614d8c565b614ead614c60565b614eb5614c60565b614ebd614c60565b60017f9b779b17422d0df92223018b32b4d1fa46e071723d6817e2486d003becc55f0055633b9aca003410614ef6576126e334306149d2565b60405163ea2559bb60e01b8152600490fd5b908160209103126103cd575161072e816121b9565b6040516352d1902d60e01b81529290916020846004816001600160a01b0387165afa5f9481614fa7575b50614f6d57604051634c9c8ce360e01b81526001600160a01b0384166004820152602490fd5b90915f8051602061581a8339815191528403614f8e5761134a929350615527565b604051632a87526960e21b815260048101859052602490fd5b614fc191955060203d6020116106105761060281836106b6565b935f614f47565b60d15480614fd557505f90565b60d15f527f695fb3134ad82c3b8022bc5464edd0bcc9424ef672b52245dcb6ab2374327ce201546001600160a01b0316611610565b9080821015615017575090565b905090565b60d554908160801c8115801561504b575b156150385750905090565b6001600160801b0361072e9316916132bf565b50801561502d565b6e5661756c7456616c696461746f727360881b602060405161507481610668565b600f8152015260405160208101907f8b73c3c69bb8fe3d512ecc4cf759cc79239f7b179b0ffacaa9a75d522b39400f82527f35d6cf9768d8be929c3a11ed667b1560ae6f1920195a985758fdd7265505d1ca60408201527fc89efdaa54c0f20c7adf612882df0950f5a951637e0307cdcb4c672f298b8bc660608201524660808201523060a082015260a0815260c081018181106001600160401b038211176106835760405251902090565b8151919060418303615150576151499250602082015190606060408401519301515f1a906155c9565b9192909190565b50505f9160029190565b604051600160f81b60208201525f60218201523060601b602c8201526020815261072e81610668565b5f8051602061583a83398151915260205f9261519e856147cd565b60cf54906151b66001600160801b0391828416613769565b6001600160801b031990921691161760cf556001600160a01b031680845260d3825260408085208054870190555194855293a3565b60d054906001600160801b03821691821561530e5760801c61521f6152108247612cb5565b615219856125fe565b9061500a565b9081156153075761522f8261489a565b9384156152ff578261527c611bbb61319961134a96610e209661527761525b6131998d6152f49a612cb5565b6001600160801b03166001600160801b031960d054161760d055565b612bd4565b61528681876156bb565b60408051878152602081018390527f624ea167e477f9d39f7f4094b9dfe2e6346eb4a7aada54338db51abd554c4b9f9190a16131996152d86152c7886147cd565b60cf546001600160801b03166125bc565b6001600160801b03166001600160801b031960cf54161760cf55565b60cf5460801c6125bc565b505f93505050565b505f925050565b505f9150565b6001600160a01b03165f81815260d360205260409020805483810391908211610acb575f935f8051602061583a8339815191529260209255615355816147cd565b60cf54906001600160801b03908183160316906001600160801b0319161760cf55604051908152a3565b601f811161538b575050565b5f80525f805160206157fa833981519152906020601f840160051c830193106153ce575b601f0160051c01905b8181106153c3575050565b5f81556001016153b8565b90915081906153af565b90601f82116153e5575050565b60019160015f527fb10e2d527612073b26eecdfd717e6a320cf44b4afac2b0732d9fcbe2b7fa0cf6906020601f840160051c8301931061543f575b601f0160051c01905b81811061543557505050565b5f81558201615429565b9091508190615420565b9081516001600160401b038111610683576001906154708161546b845461061c565b6153d8565b602080601f83116001146154a5575081906154a19394955f92614e095750508160011b915f199060031b1c19161790565b9055565b90601f198316956154d760015f527fb10e2d527612073b26eecdfd717e6a320cf44b4afac2b0732d9fcbe2b7fa0cf690565b925f905b88821061551057505083859697106154f8575b505050811b019055565b01515f1960f88460031b161c191690555f80806154ee565b8087859682949686015181550195019301906154db565b90813b156155a8575f8051602061581a83398151915280546001600160a01b0319166001600160a01b0384169081179091557fbc7cd75a20ee27fd9adebab32041f755214dbc6bffa90cc0225b39da2e5c2d3b5f80a280511561558d576126e391615790565b50503461559657565b60405163b398979f60e01b8152600490fd5b604051634c9c8ce360e01b81526001600160a01b0383166004820152602490fd5b90917f7fffffffffffffffffffffffffffffff5d576e7357a4501ddfe92f46681b20a0841161565257906156226020945f9493604051948594859094939260ff6060936080840197845216602083015260408201520152565b838052039060015afa15610617575f516001600160a01b0381161561564857905f905f90565b505f906001905f90565b5050505f9160039190565b60d154906801000000000000000082101561068357600182018060d155821015612f725760d15f52805160209091015160a01b6001600160a01b0319166001600160a01b0391909116175f8051602061585a83398151915290910155565b91909180158015615788575b615776576156d3614fc8565b908101809111610acb576001600160a01b03808211615756576001600160601b0390818511615736579061134a93946157206157319361571161133d565b95166001600160a01b03168552565b166001600160601b03166020830152565b61565d565b6040516306dfcc6560e41b81526060600482015260248101869052604490fd5b6040516306dfcc6560e41b815260a0600482015260248101839052604490fd5b604051632ec8835b60e21b8152600490fd5b5082156156c7565b5f8061072e93602081519101845af46157a7612f84565b91906157bd575080511561485e57805190602001fd5b815115806157f0575b6157ce575090565b604051639996b31560e01b81526001600160a01b039091166004820152602490fd5b50803b156157c656fe290decd9548b62a8d60345a988386fc84ba6bc95484008f6362f93160ef3e563360894a13ba1a3210667c828492db98dca3e2076cc3735a920a3ca505d382bbcddf252ad1be2c89b69c2b068fc378daa952ba7f163c4a11628f55a4df523b3ef695fb3134ad82c3b8022bc5464edd0bcc9424ef672b52245dcb6ab2374327ce3a2646970667358221220c4894778f5ed96dbc146b0c48b68b4fcfc7920d79d451265dc402b6d990443da64736f6c63430008160033",
  "linkReferences": {},
  "deployedLinkReferences": {}
}