{
  "_format": "hh-sol-artifact-1",
  "contractName": "EthPrivVault",
  "sourceName": "contracts/vaults/ethereum/EthPrivVault.sol",
  "abi": [
    {
      "inputs": [
        {
          "internalType": "address",
          "name": "_keeper",
          "type": "address"
        },
        {
          "internalType": "address",
          "name": "_vaultsRegistry",
          "type": "address"
        },
        {
          "internalType": "address",
          "name": "_validatorsRegistry",
          "type": "address"
        },
        {
          "internalType": "address",
          "name": "osTokenVaultController",
          "type": "address"
        },
        {
          "internalType": "address",
          "name": "osTokenConfig",
          "type": "address"
        },
        {
          "internalType": "address",
          "name": "osTokenVaultEscrow",
          "type": "address"
        },
        {
          "internalType": "address",
          "name": "sharedMevEscrow",
          "type": "address"
        },
        {
          "internalType": "address",
          "name": "depositDataRegistry",
          "type": "address"
        },
        {
          "internalType": "uint256",
          "name": "exitingAssetsClaimDelay",
          "type": "uint256"
        }
      ],
      "stateMutability": "nonpayable",
      "type": "constructor"
    },
    {
      "inputs": [],
      "name": "AccessDenied",
      "type": "error"
    },
    {
      "inputs": [
        {
          "internalType": "address",
          "name": "target",
          "type": "address"
        }
      ],
      "name": "AddressEmptyCode",
      "type": "error"
    },
    {
      "inputs": [
        {
          "internalType": "address",
          "name": "account",
          "type": "address"
        }
      ],
      "name": "AddressInsufficientBalance",
      "type": "error"
    },
    {
      "inputs": [],
      "name": "CapacityExceeded",
      "type": "error"
    },
    {
      "inputs": [
        {
          "internalType": "address",
          "name": "implementation",
          "type": "address"
        }
      ],
      "name": "ERC1967InvalidImplementation",
      "type": "error"
    },
    {
      "inputs": [],
      "name": "ERC1967NonPayable",
      "type": "error"
    },
    {
      "inputs": [],
      "name": "ExitRequestNotProcessed",
      "type": "error"
    },
    {
      "inputs": [],
      "name": "FailedInnerCall",
      "type": "error"
    },
    {
      "inputs": [],
      "name": "InsufficientAssets",
      "type": "error"
    },
    {
      "inputs": [],
      "name": "InvalidAssets",
      "type": "error"
    },
    {
      "inputs": [],
      "name": "InvalidCapacity",
      "type": "error"
    },
    {
      "inputs": [],
      "name": "InvalidCheckpointIndex",
      "type": "error"
    },
    {
      "inputs": [],
      "name": "InvalidCheckpointValue",
      "type": "error"
    },
    {
      "inputs": [],
      "name": "InvalidFeePercent",
      "type": "error"
    },
    {
      "inputs": [],
      "name": "InvalidFeeRecipient",
      "type": "error"
    },
    {
      "inputs": [],
      "name": "InvalidHealthFactor",
      "type": "error"
    },
    {
      "inputs": [],
      "name": "InvalidInitialization",
      "type": "error"
    },
    {
      "inputs": [],
      "name": "InvalidPosition",
      "type": "error"
    },
    {
      "inputs": [],
      "name": "InvalidQueuedShares",
      "type": "error"
    },
    {
      "inputs": [],
      "name": "InvalidReceivedAssets",
      "type": "error"
    },
    {
      "inputs": [],
      "name": "InvalidSecurityDeposit",
      "type": "error"
    },
    {
      "inputs": [],
      "name": "InvalidShares",
      "type": "error"
    },
    {
      "inputs": [],
      "name": "InvalidValidators",
      "type": "error"
    },
    {
      "inputs": [],
      "name": "LiquidationDisabled",
      "type": "error"
    },
    {
      "inputs": [],
      "name": "LowLtv",
      "type": "error"
    },
    {
      "inputs": [],
      "name": "MathOverflowedMulDiv",
      "type": "error"
    },
    {
      "inputs": [],
      "name": "NotCollateralized",
      "type": "error"
    },
    {
      "inputs": [],
      "name": "NotHarvested",
      "type": "error"
    },
    {
      "inputs": [],
      "name": "NotInitializing",
      "type": "error"
    },
    {
      "inputs": [],
      "name": "ReentrancyGuardReentrantCall",
      "type": "error"
    },
    {
      "inputs": [
        {
          "internalType": "uint8",
          "name": "bits",
          "type": "uint8"
        },
        {
          "internalType": "uint256",
          "name": "value",
          "type": "uint256"
        }
      ],
      "name": "SafeCastOverflowedUintDowncast",
      "type": "error"
    },
    {
      "inputs": [],
      "name": "UUPSUnauthorizedCallContext",
      "type": "error"
    },
    {
      "inputs": [
        {
          "internalType": "bytes32",
          "name": "slot",
          "type": "bytes32"
        }
      ],
      "name": "UUPSUnsupportedProxiableUUID",
      "type": "error"
    },
    {
      "inputs": [],
      "name": "UpgradeFailed",
      "type": "error"
    },
    {
      "inputs": [],
      "name": "ZeroAddress",
      "type": "error"
    },
    {
      "anonymous": false,
      "inputs": [
        {
          "indexed": false,
          "internalType": "uint256",
          "name": "shares",
          "type": "uint256"
        },
        {
          "indexed": false,
          "internalType": "uint256",
          "name": "assets",
          "type": "uint256"
        }
      ],
      "name": "CheckpointCreated",
      "type": "event"
    },
    {
      "anonymous": false,
      "inputs": [
        {
          "indexed": true,
          "internalType": "address",
          "name": "caller",
          "type": "address"
        },
        {
          "indexed": true,
          "internalType": "address",
          "name": "receiver",
          "type": "address"
        },
        {
          "indexed": false,
          "internalType": "uint256",
          "name": "assets",
          "type": "uint256"
        },
        {
          "indexed": false,
          "internalType": "uint256",
          "name": "shares",
          "type": "uint256"
        },
        {
          "indexed": false,
          "internalType": "address",
          "name": "referrer",
          "type": "address"
        }
      ],
      "name": "Deposited",
      "type": "event"
    },
    {
      "anonymous": false,
      "inputs": [
        {
          "indexed": true,
          "internalType": "address",
          "name": "owner",
          "type": "address"
        },
        {
          "indexed": true,
          "internalType": "address",
          "name": "receiver",
          "type": "address"
        },
        {
          "indexed": false,
          "internalType": "uint256",
          "name": "positionTicket",
          "type": "uint256"
        },
        {
          "indexed": false,
          "internalType": "uint256",
          "name": "shares",
          "type": "uint256"
        }
      ],
      "name": "ExitQueueEntered",
      "type": "event"
    },
    {
      "anonymous": false,
      "inputs": [
        {
          "indexed": true,
          "internalType": "address",
          "name": "receiver",
          "type": "address"
        },
        {
          "indexed": false,
          "internalType": "uint256",
          "name": "prevPositionTicket",
          "type": "uint256"
        },
        {
          "indexed": false,
          "internalType": "uint256",
          "name": "newPositionTicket",
          "type": "uint256"
        },
        {
          "indexed": false,
          "internalType": "uint256",
          "name": "withdrawnAssets",
          "type": "uint256"
        }
      ],
      "name": "ExitedAssetsClaimed",
      "type": "event"
    },
    {
      "anonymous": false,
      "inputs": [
        {
          "indexed": false,
          "internalType": "uint256",
          "name": "penalty",
          "type": "uint256"
        }
      ],
      "name": "ExitingAssetsPenalized",
      "type": "event"
    },
    {
      "anonymous": false,
      "inputs": [
        {
          "indexed": true,
          "internalType": "address",
          "name": "caller",
          "type": "address"
        },
        {
          "indexed": true,
          "internalType": "address",
          "name": "feeRecipient",
          "type": "address"
        }
      ],
      "name": "FeeRecipientUpdated",
      "type": "event"
    },
    {
      "anonymous": false,
      "inputs": [
        {
          "indexed": false,
          "internalType": "address",
          "name": "receiver",
          "type": "address"
        },
        {
          "indexed": false,
          "internalType": "uint256",
          "name": "shares",
          "type": "uint256"
        },
        {
          "indexed": false,
          "internalType": "uint256",
          "name": "assets",
          "type": "uint256"
        }
      ],
      "name": "FeeSharesMinted",
      "type": "event"
    },
    {
      "anonymous": false,
      "inputs": [
        {
          "indexed": false,
          "internalType": "uint64",
          "name": "version",
          "type": "uint64"
        }
      ],
      "name": "Initialized",
      "type": "event"
    },
    {
      "anonymous": false,
      "inputs": [
        {
          "indexed": true,
          "internalType": "address",
          "name": "caller",
          "type": "address"
        },
        {
          "indexed": true,
          "internalType": "address",
          "name": "keysManager",
          "type": "address"
        }
      ],
      "name": "KeysManagerUpdated",
      "type": "event"
    },
    {
      "anonymous": false,
      "inputs": [
        {
          "indexed": true,
          "internalType": "address",
          "name": "caller",
          "type": "address"
        },
        {
          "indexed": false,
          "internalType": "string",
          "name": "metadataIpfsHash",
          "type": "string"
        }
      ],
      "name": "MetadataUpdated",
      "type": "event"
    },
    {
      "anonymous": false,
      "inputs": [
        {
          "indexed": true,
          "internalType": "address",
          "name": "caller",
          "type": "address"
        },
        {
          "indexed": false,
          "internalType": "uint256",
          "name": "assets",
          "type": "uint256"
        },
        {
          "indexed": false,
          "internalType": "uint256",
          "name": "shares",
          "type": "uint256"
        }
      ],
      "name": "OsTokenBurned",
      "type": "event"
    },
    {
      "anonymous": false,
      "inputs": [
        {
          "indexed": true,
          "internalType": "address",
          "name": "caller",
          "type": "address"
        },
        {
          "indexed": true,
          "internalType": "address",
          "name": "user",
          "type": "address"
        },
        {
          "indexed": false,
          "internalType": "address",
          "name": "receiver",
          "type": "address"
        },
        {
          "indexed": false,
          "internalType": "uint256",
          "name": "osTokenShares",
          "type": "uint256"
        },
        {
          "indexed": false,
          "internalType": "uint256",
          "name": "shares",
          "type": "uint256"
        },
        {
          "indexed": false,
          "internalType": "uint256",
          "name": "receivedAssets",
          "type": "uint256"
        }
      ],
      "name": "OsTokenLiquidated",
      "type": "event"
    },
    {
      "anonymous": false,
      "inputs": [
        {
          "indexed": true,
          "internalType": "address",
          "name": "caller",
          "type": "address"
        },
        {
          "indexed": false,
          "internalType": "address",
          "name": "receiver",
          "type": "address"
        },
        {
          "indexed": false,
          "internalType": "uint256",
          "name": "assets",
          "type": "uint256"
        },
        {
          "indexed": false,
          "internalType": "uint256",
          "name": "shares",
          "type": "uint256"
        },
        {
          "indexed": false,
          "internalType": "address",
          "name": "referrer",
          "type": "address"
        }
      ],
      "name": "OsTokenMinted",
      "type": "event"
    },
    {
      "anonymous": false,
      "inputs": [
        {
          "indexed": true,
          "internalType": "address",
          "name": "caller",
          "type": "address"
        },
        {
          "indexed": true,
          "internalType": "address",
          "name": "user",
          "type": "address"
        },
        {
          "indexed": false,
          "internalType": "address",
          "name": "receiver",
          "type": "address"
        },
        {
          "indexed": false,
          "internalType": "uint256",
          "name": "osTokenShares",
          "type": "uint256"
        },
        {
          "indexed": false,
          "internalType": "uint256",
          "name": "shares",
          "type": "uint256"
        },
        {
          "indexed": false,
          "internalType": "uint256",
          "name": "assets",
          "type": "uint256"
        }
      ],
      "name": "OsTokenRedeemed",
      "type": "event"
    },
    {
      "anonymous": false,
      "inputs": [
        {
          "indexed": true,
          "internalType": "address",
          "name": "owner",
          "type": "address"
        },
        {
          "indexed": true,
          "internalType": "address",
          "name": "receiver",
          "type": "address"
        },
        {
          "indexed": false,
          "internalType": "uint256",
          "name": "assets",
          "type": "uint256"
        },
        {
          "indexed": false,
          "internalType": "uint256",
          "name": "shares",
          "type": "uint256"
        }
      ],
      "name": "Redeemed",
      "type": "event"
    },
    {
      "anonymous": false,
      "inputs": [
        {
          "indexed": true,
          "internalType": "address",
          "name": "implementation",
          "type": "address"
        }
      ],
      "name": "Upgraded",
      "type": "event"
    },
    {
      "anonymous": false,
      "inputs": [
        {
          "indexed": true,
          "internalType": "address",
          "name": "owner",
          "type": "address"
        },
        {
          "indexed": true,
          "internalType": "address",
          "name": "receiver",
          "type": "address"
        },
        {
          "indexed": false,
          "internalType": "uint256",
          "name": "positionTicket",
          "type": "uint256"
        },
        {
          "indexed": false,
          "internalType": "uint256",
          "name": "shares",
          "type": "uint256"
        },
        {
          "indexed": false,
          "internalType": "uint256",
          "name": "assets",
          "type": "uint256"
        }
      ],
      "name": "V2ExitQueueEntered",
      "type": "event"
    },
    {
      "anonymous": false,
      "inputs": [
        {
          "indexed": false,
          "internalType": "bytes",
          "name": "publicKey",
          "type": "bytes"
        }
      ],
      "name": "ValidatorRegistered",
      "type": "event"
    },
    {
      "anonymous": false,
      "inputs": [
        {
          "indexed": true,
          "internalType": "address",
          "name": "caller",
          "type": "address"
        },
        {
          "indexed": true,
          "internalType": "address",
          "name": "validatorsManager",
          "type": "address"
        }
      ],
      "name": "ValidatorsManagerUpdated",
      "type": "event"
    },
    {
      "anonymous": false,
      "inputs": [
        {
          "indexed": true,
          "internalType": "address",
          "name": "caller",
          "type": "address"
        },
        {
          "indexed": true,
          "internalType": "bytes32",
          "name": "validatorsRoot",
          "type": "bytes32"
        }
      ],
      "name": "ValidatorsRootUpdated",
      "type": "event"
    },
    {
      "anonymous": false,
      "inputs": [
        {
          "indexed": true,
          "internalType": "address",
          "name": "caller",
          "type": "address"
        },
        {
          "indexed": true,
          "internalType": "address",
          "name": "account",
          "type": "address"
        },
        {
          "indexed": false,
          "internalType": "bool",
          "name": "approved",
          "type": "bool"
        }
      ],
      "name": "WhitelistUpdated",
      "type": "event"
    },
    {
      "anonymous": false,
      "inputs": [
        {
          "indexed": true,
          "internalType": "address",
          "name": "caller",
          "type": "address"
        },
        {
          "indexed": true,
          "internalType": "address",
          "name": "whitelister",
          "type": "address"
        }
      ],
      "name": "WhitelisterUpdated",
      "type": "event"
    },
    {
      "inputs": [],
      "name": "UPGRADE_INTERFACE_VERSION",
      "outputs": [
        {
          "internalType": "string",
          "name": "",
          "type": "string"
        }
      ],
      "stateMutability": "view",
      "type": "function"
    },
    {
      "inputs": [],
      "name": "admin",
      "outputs": [
        {
          "internalType": "address",
          "name": "",
          "type": "address"
        }
      ],
      "stateMutability": "view",
      "type": "function"
    },
    {
      "inputs": [
        {
          "internalType": "uint128",
          "name": "osTokenShares",
          "type": "uint128"
        }
      ],
      "name": "burnOsToken",
      "outputs": [
        {
          "internalType": "uint256",
          "name": "assets",
          "type": "uint256"
        }
      ],
      "stateMutability": "nonpayable",
      "type": "function"
    },
    {
      "inputs": [
        {
          "internalType": "address",
          "name": "receiver",
          "type": "address"
        },
        {
          "internalType": "uint256",
          "name": "positionTicket",
          "type": "uint256"
        },
        {
          "internalType": "uint256",
          "name": "timestamp",
          "type": "uint256"
        },
        {
          "internalType": "uint256",
          "name": "exitQueueIndex",
          "type": "uint256"
        }
      ],
      "name": "calculateExitedAssets",
      "outputs": [
        {
          "internalType": "uint256",
          "name": "leftTickets",
          "type": "uint256"
        },
        {
          "internalType": "uint256",
          "name": "exitedTickets",
          "type": "uint256"
        },
        {
          "internalType": "uint256",
          "name": "exitedAssets",
          "type": "uint256"
        }
      ],
      "stateMutability": "view",
      "type": "function"
    },
    {
      "inputs": [],
      "name": "capacity",
      "outputs": [
        {
          "internalType": "uint256",
          "name": "",
          "type": "uint256"
        }
      ],
      "stateMutability": "view",
      "type": "function"
    },
    {
      "inputs": [
        {
          "internalType": "uint256",
          "name": "positionTicket",
          "type": "uint256"
        },
        {
          "internalType": "uint256",
          "name": "timestamp",
          "type": "uint256"
        },
        {
          "internalType": "uint256",
          "name": "exitQueueIndex",
          "type": "uint256"
        }
      ],
      "name": "claimExitedAssets",
      "outputs": [],
      "stateMutability": "nonpayable",
      "type": "function"
    },
    {
      "inputs": [
        {
          "internalType": "uint256",
          "name": "shares",
          "type": "uint256"
        }
      ],
      "name": "convertToAssets",
      "outputs": [
        {
          "internalType": "uint256",
          "name": "assets",
          "type": "uint256"
        }
      ],
      "stateMutability": "view",
      "type": "function"
    },
    {
      "inputs": [
        {
          "internalType": "uint256",
          "name": "assets",
          "type": "uint256"
        }
      ],
      "name": "convertToShares",
      "outputs": [
        {
          "internalType": "uint256",
          "name": "shares",
          "type": "uint256"
        }
      ],
      "stateMutability": "view",
      "type": "function"
    },
    {
      "inputs": [
        {
          "internalType": "address",
          "name": "receiver",
          "type": "address"
        },
        {
          "internalType": "address",
          "name": "referrer",
          "type": "address"
        }
      ],
      "name": "deposit",
      "outputs": [
        {
          "internalType": "uint256",
          "name": "shares",
          "type": "uint256"
        }
      ],
      "stateMutability": "payable",
      "type": "function"
    },
    {
      "inputs": [
        {
          "internalType": "address",
          "name": "receiver",
          "type": "address"
        },
        {
          "internalType": "uint256",
          "name": "osTokenShares",
          "type": "uint256"
        },
        {
          "internalType": "address",
          "name": "referrer",
          "type": "address"
        }
      ],
      "name": "depositAndMintOsToken",
      "outputs": [
        {
          "internalType": "uint256",
          "name": "",
          "type": "uint256"
        }
      ],
      "stateMutability": "payable",
      "type": "function"
    },
    {
      "inputs": [
        {
          "internalType": "uint256",
          "name": "shares",
          "type": "uint256"
        },
        {
          "internalType": "address",
          "name": "receiver",
          "type": "address"
        }
      ],
      "name": "enterExitQueue",
      "outputs": [
        {
          "internalType": "uint256",
          "name": "positionTicket",
          "type": "uint256"
        }
      ],
      "stateMutability": "nonpayable",
      "type": "function"
    },
    {
      "inputs": [],
      "name": "feePercent",
      "outputs": [
        {
          "internalType": "uint16",
          "name": "",
          "type": "uint16"
        }
      ],
      "stateMutability": "view",
      "type": "function"
    },
    {
      "inputs": [],
      "name": "feeRecipient",
      "outputs": [
        {
          "internalType": "address",
          "name": "",
          "type": "address"
        }
      ],
      "stateMutability": "view",
      "type": "function"
    },
    {
      "inputs": [
        {
          "internalType": "uint256",
          "name": "positionTicket",
          "type": "uint256"
        }
      ],
      "name": "getExitQueueIndex",
      "outputs": [
        {
          "internalType": "int256",
          "name": "",
          "type": "int256"
        }
      ],
      "stateMutability": "view",
      "type": "function"
    },
    {
      "inputs": [
        {
          "internalType": "address",
          "name": "account",
          "type": "address"
        }
      ],
      "name": "getShares",
      "outputs": [
        {
          "internalType": "uint256",
          "name": "",
          "type": "uint256"
        }
      ],
      "stateMutability": "view",
      "type": "function"
    },
    {
      "inputs": [],
      "name": "implementation",
      "outputs": [
        {
          "internalType": "address",
          "name": "",
          "type": "address"
        }
      ],
      "stateMutability": "view",
      "type": "function"
    },
    {
      "inputs": [
        {
          "internalType": "bytes",
          "name": "params",
          "type": "bytes"
        }
      ],
      "name": "initialize",
      "outputs": [],
      "stateMutability": "payable",
      "type": "function"
    },
    {
      "inputs": [],
      "name": "isStateUpdateRequired",
      "outputs": [
        {
          "internalType": "bool",
          "name": "",
          "type": "bool"
        }
      ],
      "stateMutability": "view",
      "type": "function"
    },
    {
      "inputs": [
        {
          "internalType": "uint256",
          "name": "osTokenShares",
          "type": "uint256"
        },
        {
          "internalType": "address",
          "name": "owner",
          "type": "address"
        },
        {
          "internalType": "address",
          "name": "receiver",
          "type": "address"
        }
      ],
      "name": "liquidateOsToken",
      "outputs": [],
      "stateMutability": "nonpayable",
      "type": "function"
    },
    {
      "inputs": [],
      "name": "mevEscrow",
      "outputs": [
        {
          "internalType": "address",
          "name": "",
          "type": "address"
        }
      ],
      "stateMutability": "view",
      "type": "function"
    },
    {
      "inputs": [
        {
          "internalType": "address",
          "name": "receiver",
          "type": "address"
        },
        {
          "internalType": "uint256",
          "name": "osTokenShares",
          "type": "uint256"
        },
        {
          "internalType": "address",
          "name": "referrer",
          "type": "address"
        }
      ],
      "name": "mintOsToken",
      "outputs": [
        {
          "internalType": "uint256",
          "name": "assets",
          "type": "uint256"
        }
      ],
      "stateMutability": "nonpayable",
      "type": "function"
    },
    {
      "inputs": [
        {
          "internalType": "bytes[]",
          "name": "data",
          "type": "bytes[]"
        }
      ],
      "name": "multicall",
      "outputs": [
        {
          "internalType": "bytes[]",
          "name": "results",
          "type": "bytes[]"
        }
      ],
      "stateMutability": "nonpayable",
      "type": "function"
    },
    {
      "inputs": [
        {
          "internalType": "address",
          "name": "user",
          "type": "address"
        }
      ],
      "name": "osTokenPositions",
      "outputs": [
        {
          "internalType": "uint128",
          "name": "shares",
          "type": "uint128"
        }
      ],
      "stateMutability": "view",
      "type": "function"
    },
    {
      "inputs": [],
      "name": "proxiableUUID",
      "outputs": [
        {
          "internalType": "bytes32",
          "name": "",
          "type": "bytes32"
        }
      ],
      "stateMutability": "view",
      "type": "function"
    },
    {
      "inputs": [],
      "name": "queuedShares",
      "outputs": [
        {
          "internalType": "uint128",
          "name": "",
          "type": "uint128"
        }
      ],
      "stateMutability": "view",
      "type": "function"
    },
    {
      "inputs": [],
      "name": "receiveFromMevEscrow",
      "outputs": [],
      "stateMutability": "payable",
      "type": "function"
    },
    {
      "inputs": [
        {
          "internalType": "uint256",
          "name": "osTokenShares",
          "type": "uint256"
        },
        {
          "internalType": "address",
          "name": "owner",
          "type": "address"
        },
        {
          "internalType": "address",
          "name": "receiver",
          "type": "address"
        }
      ],
      "name": "redeemOsToken",
      "outputs": [],
      "stateMutability": "nonpayable",
      "type": "function"
    },
    {
      "inputs": [
        {
          "components": [
            {
              "internalType": "bytes32",
              "name": "validatorsRegistryRoot",
              "type": "bytes32"
            },
            {
              "internalType": "uint256",
              "name": "deadline",
              "type": "uint256"
            },
            {
              "internalType": "bytes",
              "name": "validators",
              "type": "bytes"
            },
            {
              "internalType": "bytes",
              "name": "signatures",
              "type": "bytes"
            },
            {
              "internalType": "string",
              "name": "exitSignaturesIpfsHash",
              "type": "string"
            }
          ],
          "internalType": "struct IKeeperValidators.ApprovalParams",
          "name": "keeperParams",
          "type": "tuple"
        },
        {
          "internalType": "bytes",
          "name": "validatorsManagerSignature",
          "type": "bytes"
        }
      ],
      "name": "registerValidators",
      "outputs": [],
      "stateMutability": "nonpayable",
      "type": "function"
    },
    {
      "inputs": [
        {
          "internalType": "address",
          "name": "_feeRecipient",
          "type": "address"
        }
      ],
      "name": "setFeeRecipient",
      "outputs": [],
      "stateMutability": "nonpayable",
      "type": "function"
    },
    {
      "inputs": [
        {
          "internalType": "string",
          "name": "metadataIpfsHash",
          "type": "string"
        }
      ],
      "name": "setMetadata",
      "outputs": [],
      "stateMutability": "nonpayable",
      "type": "function"
    },
    {
      "inputs": [
        {
          "internalType": "address",
          "name": "validatorsManager_",
          "type": "address"
        }
      ],
      "name": "setValidatorsManager",
      "outputs": [],
      "stateMutability": "nonpayable",
      "type": "function"
    },
    {
      "inputs": [
        {
          "internalType": "address",
          "name": "_whitelister",
          "type": "address"
        }
      ],
      "name": "setWhitelister",
      "outputs": [],
      "stateMutability": "nonpayable",
      "type": "function"
    },
    {
      "inputs": [],
      "name": "totalAssets",
      "outputs": [
        {
          "internalType": "uint256",
          "name": "",
          "type": "uint256"
        }
      ],
      "stateMutability": "view",
      "type": "function"
    },
    {
      "inputs": [],
      "name": "totalExitingAssets",
      "outputs": [
        {
          "internalType": "uint128",
          "name": "",
          "type": "uint128"
        }
      ],
      "stateMutability": "view",
      "type": "function"
    },
    {
      "inputs": [],
      "name": "totalShares",
      "outputs": [
        {
          "internalType": "uint256",
          "name": "",
          "type": "uint256"
        }
      ],
      "stateMutability": "view",
      "type": "function"
    },
    {
      "inputs": [
        {
          "internalType": "uint256",
          "name": "osTokenShares",
          "type": "uint256"
        }
      ],
      "name": "transferOsTokenPositionToEscrow",
      "outputs": [
        {
          "internalType": "uint256",
          "name": "positionTicket",
          "type": "uint256"
        }
      ],
      "stateMutability": "nonpayable",
      "type": "function"
    },
    {
      "inputs": [
        {
          "components": [
            {
              "internalType": "bytes32",
              "name": "rewardsRoot",
              "type": "bytes32"
            },
            {
              "internalType": "int160",
              "name": "reward",
              "type": "int160"
            },
            {
              "internalType": "uint160",
              "name": "unlockedMevReward",
              "type": "uint160"
            },
            {
              "internalType": "bytes32[]",
              "name": "proof",
              "type": "bytes32[]"
            }
          ],
          "internalType": "struct IKeeperRewards.HarvestParams",
          "name": "harvestParams",
          "type": "tuple"
        }
      ],
      "name": "updateState",
      "outputs": [],
      "stateMutability": "nonpayable",
      "type": "function"
    },
    {
      "inputs": [
        {
          "internalType": "address",
          "name": "receiver",
          "type": "address"
        },
        {
          "internalType": "address",
          "name": "referrer",
          "type": "address"
        },
        {
          "components": [
            {
              "internalType": "bytes32",
              "name": "rewardsRoot",
              "type": "bytes32"
            },
            {
              "internalType": "int160",
              "name": "reward",
              "type": "int160"
            },
            {
              "internalType": "uint160",
              "name": "unlockedMevReward",
              "type": "uint160"
            },
            {
              "internalType": "bytes32[]",
              "name": "proof",
              "type": "bytes32[]"
            }
          ],
          "internalType": "struct IKeeperRewards.HarvestParams",
          "name": "harvestParams",
          "type": "tuple"
        }
      ],
      "name": "updateStateAndDeposit",
      "outputs": [
        {
          "internalType": "uint256",
          "name": "shares",
          "type": "uint256"
        }
      ],
      "stateMutability": "payable",
      "type": "function"
    },
    {
      "inputs": [
        {
          "internalType": "address",
          "name": "receiver",
          "type": "address"
        },
        {
          "internalType": "uint256",
          "name": "osTokenShares",
          "type": "uint256"
        },
        {
          "internalType": "address",
          "name": "referrer",
          "type": "address"
        },
        {
          "components": [
            {
              "internalType": "bytes32",
              "name": "rewardsRoot",
              "type": "bytes32"
            },
            {
              "internalType": "int160",
              "name": "reward",
              "type": "int160"
            },
            {
              "internalType": "uint160",
              "name": "unlockedMevReward",
              "type": "uint160"
            },
            {
              "internalType": "bytes32[]",
              "name": "proof",
              "type": "bytes32[]"
            }
          ],
          "internalType": "struct IKeeperRewards.HarvestParams",
          "name": "harvestParams",
          "type": "tuple"
        }
      ],
      "name": "updateStateAndDepositAndMintOsToken",
      "outputs": [
        {
          "internalType": "uint256",
          "name": "",
          "type": "uint256"
        }
      ],
      "stateMutability": "payable",
      "type": "function"
    },
    {
      "inputs": [
        {
          "internalType": "address",
          "name": "account",
          "type": "address"
        },
        {
          "internalType": "bool",
          "name": "approved",
          "type": "bool"
        }
      ],
      "name": "updateWhitelist",
      "outputs": [],
      "stateMutability": "nonpayable",
      "type": "function"
    },
    {
      "inputs": [
        {
          "internalType": "address",
          "name": "newImplementation",
          "type": "address"
        },
        {
          "internalType": "bytes",
          "name": "data",
          "type": "bytes"
        }
      ],
      "name": "upgradeToAndCall",
      "outputs": [],
      "stateMutability": "payable",
      "type": "function"
    },
    {
      "inputs": [],
      "name": "validatorsManager",
      "outputs": [
        {
          "internalType": "address",
          "name": "",
          "type": "address"
        }
      ],
      "stateMutability": "view",
      "type": "function"
    },
    {
      "inputs": [],
      "name": "vaultId",
      "outputs": [
        {
          "internalType": "bytes32",
          "name": "",
          "type": "bytes32"
        }
      ],
      "stateMutability": "pure",
      "type": "function"
    },
    {
      "inputs": [],
      "name": "version",
      "outputs": [
        {
          "internalType": "uint8",
          "name": "",
          "type": "uint8"
        }
      ],
      "stateMutability": "pure",
      "type": "function"
    },
    {
      "inputs": [
        {
          "internalType": "address",
          "name": "",
          "type": "address"
        }
      ],
      "name": "whitelistedAccounts",
      "outputs": [
        {
          "internalType": "bool",
          "name": "",
          "type": "bool"
        }
      ],
      "stateMutability": "view",
      "type": "function"
    },
    {
      "inputs": [],
      "name": "whitelister",
      "outputs": [
        {
          "internalType": "address",
          "name": "",
          "type": "address"
        }
      ],
      "stateMutability": "view",
      "type": "function"
    },
    {
      "inputs": [],
      "name": "withdrawableAssets",
      "outputs": [
        {
          "internalType": "uint256",
          "name": "",
          "type": "uint256"
        }
      ],
      "stateMutability": "view",
      "type": "function"
    },
    {
      "stateMutability": "payable",
      "type": "receive"
    }
  ],
  "bytecode": "0x6101e034620002695762004fff6001600160401b03601f38839003908101601f1916840190828211858310176200026d5780859460409384528539610120938491810103126200026957620000548462000281565b91620000636020860162000281565b916200007181870162000281565b93620000806060880162000281565b916200008f6080890162000281565b936200009e60a08a0162000281565b95620000ad60c08b0162000281565b97620000bc60e08c0162000281565b91610100809c01519560805260a05260c0523060e052895246885261014092835260018060a01b03806101609516855280610180961686526101a0961686526101c09687527ff0c57e16840df040f15088dc2f81fe391c3923bec73e23a9662efc9c229c6a009081549060ff82851c166200025857808083160362000213575b5050505195614d6897886200029789396080518881816114720152818161160a015281816129e4015281816136a40152614c15015260a0518861113f015260c0518881816139940152613ab5015260e0518881816112be0152613467015251876126730152518661371a015251856117b001525184818161042701528181610739015281816126bd01528181612f62015281816141ea015281816143570152614a6b0152518381816107f801528181610dbc0152818161302101526149ef01525182611a7a01525181818161209a0152612a2c0152f35b6001600160401b0319909116811790915581519081527fc7f505b2f371ae2175ee4913f4499e1f2633a7b5936321eed1cdaeb6115181d290602090a15f80806200013c565b835163f92ee8a960e01b8152600490fd5b5f80fd5b634e487b7160e01b5f52604160045260245ffd5b51906001600160a01b0382168203620002695756fe60806040526004361015610022575b3615610018575f80fd5b610020612695565b005b5f3560e01c806301d523b61461031157806301e1d1141461030c578063066055e01461030757806307a2d13a146103025780630d392cd9146102fd57806318f72950146102f85780631a7ff553146102f3578063201b9eb5146102ee57806322758a4a146102e95780632999ad3f146102e45780632cdf7401146102df5780633229fa95146102da57806333194c0a146102d557806336fe59d2146102d05780633a98ef39146102cb578063439fab91146102c657806343e82a79146102c157806346904840146102bc5780634ec96b22146102b75780634f1ef286146102b257806352d1902d146102ad57806353156f28146102a857806354fd4d50146102a35780635c60da1b1461029e5780635cfc1a511461029957806360d60e6e1461029457806372b410a81461028f578063754c38881461028a57806376b58b90146102855780637fd6f15c1461028057806383d430d51461027b5780638697d2c2146102765780638ceab9aa146102715780639267842a1461026c578063a49a1e7d14610267578063ac9650d814610262578063ad3cb1cc1461025d578063b1f0e7c714610258578063c6e6f59214610253578063d83ad00c1461024e578063e74b981b14610249578063ee3bd5df14610244578063f04da65b1461023f578063f6a6830f1461023a578063f851a44014610235578063f9609f08146102305763f98f5b920361000e57611e86565b611e5c565b611e35565b611df4565b611db9565b611d93565b611d66565b611d40565b611d22565b611d08565b611cc3565b611c4d565b611b52565b61195e565b61192a565b611784565b6115b4565b611590565b61153f565b6114d4565b611447565b6113a2565b611388565b611354565b611339565b611315565b6112ac565b611027565b610ec2565b610e9a565b610d8d565b610cc7565b610c46565b610c32565b610bf8565b610bcc565b610bb2565b61070f565b6106bd565b61069a565b61063b565b6105d5565b6105a3565b61057b565b6103d7565b6103a6565b610339565b6001600160a01b0381160361032757565b5f80fd5b908160809103126103275790565b60803660031901126103275760043561035181610316565b60443561035d81610316565b606435906001600160401b0382116103275760209261038b61038661039494369060040161032b565b612027565b602435906120bc565b604051908152f35b5f91031261032757565b34610327575f36600319011261032757602060985460801c604051908152f35b6001600160801b0381160361032757565b34610327576020366003190112610327576004356103f4816103c6565b604051633b9e9f0160e21b81523360048201526001600160801b03821660248201526020816044815f6001600160a01b037f0000000000000000000000000000000000000000000000000000000000000000165af1908115610576575f91610547575b50335f9081526101376020526040902061047090611ecd565b916001600160801b0361048a84516001600160801b031690565b1615610535576104e3836104a0610531956126a8565b6104ca6104bd846104b884516001600160801b031690565b611f1e565b6001600160801b03168252565b335f90815261013760205260409020611f37565b611f37565b604080518381526001600160801b0392909216602083015233917f3f7354ba02880b4fa37a629985852a38417ff369369ce1e52fa6f8342a9100a79190a26040519081529081906020820190565b0390f35b60405163673f032f60e11b8152600490fd5b610569915060203d60201161056f575b6105618183610fb5565b810190611eb3565b5f610457565b503d610557565b611ec2565b34610327576020366003190112610327576020610394600435611f69565b8015150361032757565b34610327576040366003190112610327576100206004356105c381610316565b602435906105d082610599565b611f8f565b6060366003190112610327576004356105ed81610316565b6024356105f981610316565b604435906001600160401b0382116103275760209261062261038661039494369060040161032b565b61062b33612ece565b61063481612ece565b3490613e87565b34610327576020366003190112610327576004356001600160401b0381116103275761038661002091369060040161032b565b60609060031901126103275760043561068681610316565b906024359060443561069781610316565b90565b346103275760206103946106ad3661066e565b916106b733612ece565b33614126565b34610327575f36600319011261032757610201546040516001600160a01b039091168152602090f35b6060906003190112610327576004359060243561070281610316565b9060443561069781610316565b346103275761071d366106e6565b906001600160a01b0380831615610ba057610736613689565b807f00000000000000000000000000000000000000000000000000000000000000001691823b156103275760408051631d8557d760e01b815260049491905f81878183875af1801561057657610b87575b506001600160a01b0383165f908152610137602052604090206107a990611ecd565b6001600160801b0392836107c483516001600160801b031690565b1615610b77576107d3826126a8565b825163e48a5f7b60e01b8152308882019081529097906060908990819060200103818a7f0000000000000000000000000000000000000000000000000000000000000000165afa978815610576575f98610b46575b50602097888101956001600160401b0391828061084c8a516001600160401b031690565b1614610b3657908c92918751918c83806108786303d1689d60e11b988983528a83019190602083019252565b03818a5afa918215610576576108a4938e5f94610b11575b5050516001600160801b03165b16906127d7565b966108c86108c28a60018060a01b03165f52609c60205260405f2090565b54611f69565b928389118015610b01575b610af157908b61091193926108ef89516001600160801b031690565b908a51958692839283528983019190916001600160801b036020820193169052565b0381895afa91821561057657670de0b6b3a764000094610960948e5f95610ac4575b50506109526109446109589261244a565b93516001600160401b031690565b9361244a565b92169061284b565b1015610ab6578351633b9e9f0160e21b815233918101918252602082018b905294939291889186919082905f90829060400103925af1908115610576577f61fd285f9e34a3dbfa9846bdcf22a023e37a3c93549902843b30dd74a18c535097610a9395610a0a93610a98575b50506109ed6104bd6109dd8c613bba565b83516001600160801b0316611f1e565b6001600160a01b0386165f90815261013760205260409020611f37565b610a1382613c87565b90610a52610a37610a2385613bba565b60985460801c5b036001600160801b031690565b6001600160801b036098549181199060801b16911617609855565b610a5c82866143d1565b610a668389613bed565b51948594169733978590949392606092608083019660018060a01b03168352602083015260408201520152565b0390a3005b81610aae92903d1061056f576105618183610fb5565b505f806109cc565b835163185cfc6d60e11b8152fd5b610958929550610ae7610952928261094493903d1061056f576105618183610fb5565b959250508e610933565b875163efda1a2760e01b81528590fd5b50610b0a61204b565b89116108d3565b61089d9294509081610b2e92903d1061056f576105618183610fb5565b92908e610890565b8651630709133160e01b81528490fd5b610b6991985060603d606011610b70575b610b618183610fb5565b810190612f04565b965f610828565b503d610b57565b825163673f032f60e11b81528790fd5b80610b94610b9a92610f6c565b8061039c565b5f610787565b60405163d92e233d60e01b8152600490fd5b34610327575f36600319011261032757602061039461204b565b34610327575f366003190112610327576020610be6612081565b6040516001600160a01b039091168152f35b34610327575f3660031901126103275760206040517fa90b5863127e5f962890f832f07b9f40c8df2fc043326a0e4b538552d600f2d98152f35b6020610394610c403661066e565b916120bc565b34610327575f3660031901126103275760206001600160801b0360985416604051908152f35b9181601f84011215610327578235916001600160401b038311610327576020838186019501011161032757565b602060031982011261032757600435906001600160401b03821161032757610cc391600401610c6c565b9091565b610cd036610c99565b907ff0c57e16840df040f15088dc2f81fe391c3923bec73e23a9662efc9c229c6a009182549160ff8360401c168015610d79575b610d675768010000000000000003610d2a9368ffffffffffffffffff191617845561217d565b68ff00000000000000001981541690557fc7f505b2f371ae2175ee4913f4499e1f2633a7b5936321eed1cdaeb6115181d2602060405160038152a1005b60405163f92ee8a960e01b8152600490fd5b5060036001600160401b0384161015610d04565b3461032757610d9b366106e6565b60405163057453a760e31b81529091906001600160a01b03906020816004817f000000000000000000000000000000000000000000000000000000000000000086165afa80156105765782915f91610e6b575b50163303610e595781610a93610e2686867f57f5eb636bf62215c111b54545422f11dfb0cb115f606be905f0be08e8859dd396612f44565b604080516001600160a01b0390981688526020880198909852968601526060850195909552169233929081906080820190565b604051634ca8886760e01b8152600490fd5b610e8d915060203d602011610e93575b610e858183610fb5565b8101906120e9565b5f610dee565b503d610e7b565b34610327575f366003190112610327576065546040516001600160a01b039091168152602090f35b3461032757602036600319011261032757600435610edf81610316565b60018060a01b03165f52610137602052602060405f2060405190610f0282610f4c565b54906001600160801b03918281169081835260801c84830152610f2a575b5116604051908152f35b610f33816126a8565b610f20565b634e487b7160e01b5f52604160045260245ffd5b604081019081106001600160401b03821117610f6757604052565b610f38565b6001600160401b038111610f6757604052565b606081019081106001600160401b03821117610f6757604052565b608081019081106001600160401b03821117610f6757604052565b90601f801991011681019081106001600160401b03821117610f6757604052565b6001600160401b038111610f6757601f01601f191660200190565b929192610ffd82610fd6565b9161100b6040519384610fb5565b829481845281830111610327578281602093845f960137010152565b60408060031936011261032757600490813561104281610316565b6024356001600160401b0381116103275736602382011215610327576110719036906024818701359101610ff1565b9161107a61345d565b8051926110b1846110a360209363439fab9160e01b858401528460248401526044830190611bc5565b03601f198101865285610fb5565b6110b961345d565b6110c16134b6565b6001600160a01b03838116801592919087908415611277575b8415611209575b84156111a6575b50508215611110575b5050611101576100208383614582565b516355299b4960e01b81528390fd5b83516345da87c560e01b81526001600160a01b03861688820190815292935091839183918290819060200103917f0000000000000000000000000000000000000000000000000000000000000000165afa918215610576575f92611179575b5050155f806110f1565b6111989250803d1061119f575b6111908183610fb5565b81019061225a565b5f8061116f565b503d611186565b855163054fd4d560e41b81529294508391839182905afa90811561057657879160ff915f916111dc575b5016141591865f6110e8565b6111fc9150843d8611611202575b6111f48183610fb5565b810190614569565b5f6111d0565b503d6111ea565b935050835163198ca60560e11b815282818981875afa9081156105765788917fa90b5863127e5f962890f832f07b9f40c8df2fc043326a0e4b538552d600f2d9915f9161125a575b501415936110e1565b6112719150853d871161056f576105618183610fb5565b5f611251565b5f80516020614d138339815191525490945084906112a5906001600160a01b03165b6001600160a01b031690565b14936110da565b34610327575f366003190112610327577f00000000000000000000000000000000000000000000000000000000000000006001600160a01b031630036113035760206040515f80516020614d138339815191528152f35b60405163703e46dd60e11b8152600490fd5b5f366003190112610327576001600160a01b03611330612081565b163303610e5957005b34610327575f36600319011261032757602060405160038152f35b34610327575f366003190112610327575f80516020614d13833981519152546040516001600160a01b039091168152602090f35b34610327575f36600319011261032757602061039461224c565b3461032757602036600319011261032757609a80549081905f6004355b8482106113f0575050508110156113e557610531905b6040519081529081906020820190565b506105315f196113d5565b909193808316906001818518811c8301809311611442575f8790525f80516020614cd38339815191528301546001600160a01b0316841015611437575050935b91906113bf565b909591019250611430565b611ef2565b34610327575f36600319011261032757604051633eb1acf760e11b81523060048201526020816024817f00000000000000000000000000000000000000000000000000000000000000006001600160a01b03165afa8015610576576020915f916114b7575b506040519015158152f35b6114ce9150823d841161119f576111908183610fb5565b5f6114ac565b34610327576020366003190112610327576004356114f181610316565b6114f96134b6565b60d280546001600160a01b0319166001600160a01b03929092169182179055337f6bdc78d8c88160b3fc3638e67f2afe523b3f4c7d00c56ebb6216790e4c3eb2cb5f80a3005b346103275760803660031901126103275761053161157360043561156281610316565b60643590604435906024359061227c565b604080519384526020840192909252908201529081906060820190565b34610327575f36600319011261032757602061ffff60655460a01c16604051908152f35b34610327576003196040368201126103275760049081356001600160401b038082116103275760a082850193833603011261032757602435908111610327576116009036908501610c6c565b6001600160a01b037f00000000000000000000000000000000000000000000000000000000000000008116803b156103275760405163837d444160e01b8152905f9082908183816116538c828f0161235e565b03925af1801561057657611771575b5061166b613689565b61167361265f565b9081163314159182611742575b50509050611731576044019160b061169884846123dc565b90500480158015611719575b611709576116b96116b361204b565b91612431565b116116fa575060b06116cb83836123dc565b9050145f146116e757610020916116e1916123dc565b90613aa7565b610020916116f4916123dc565b9061397f565b6040516396d8043360e01b8152fd5b50604051631c6c4cf360e31b8152fd5b5061172484846123dc565b905060b0820214156116a4565b604051634ca8886760e01b81528390fd5b611765925061175f6117699461175788613714565b923691610ff1565b916137ee565b1590565b805f80611680565b80610b9461177e92610f6c565b5f611662565b34610327576060366003190112610327576004356024356117a960443582843361227c565b91926117d57f000000000000000000000000000000000000000000000000000000000000000082612467565b42108015611922575b801561191a575b611908577feb3b05c070c24f667611fdb3ff75fe007d42401c573aed8d8faca95fd00ccb569361184061182561181a86613bba565b60995460801c611f1e565b6001600160801b036099549181199060801b16911617609955565b60408051336020820190815291810184905260608082018990528152601f1993915f916118849190611873608082610fb5565b5190205f52609b60205260405f2090565b555f93600183116118bd575b5050505061189e8233613bed565b604080519485526020850191909152830152339180606081015b0390a2005b6118fe929394506118ce9088612467565b60408051336020820190815291810193909352606083018290526080958601835290949091906118739082610fb5565b555f808080611890565b604051630e3d8e8d60e11b8152600490fd5b5082156117e5565b5081156117de565b3461032757604036600319011261032757602061195560243561194c81610316565b600435336147dd565b6103943361475d565b346103275760203660031901126103275760043561197a613689565b335f9081526101376020526040902061199290611ecd565b6001600160801b03806119ac83516001600160801b031690565b16156105355782906119bd836126a8565b82516001600160801b03161610611b4057335f908152609c6020526040902054826119fe6119f284516001600160801b031690565b6001600160801b031690565b14611b2a57611a229083611a1c6119f285516001600160801b031690565b9161284b565b91611a4f611a42611a3283613bba565b84516001600160801b0316610a2a565b6001600160801b03168352565b335f90815261013760205260409020611a69908390611f37565b611ab16020611aa260018060a01b037f0000000000000000000000000000000000000000000000000000000000000000168096336147dd565b9301516001600160801b031690565b833b156103275760405163074ee96960e31b81523360048201526024810184905260448101929092526001600160801b03166064820152915f908390608490829084905af19182156105765761053192611b17575b506040519081529081906020820190565b80610b94611b2492610f6c565b5f611b06565b335f908152610137602052604081205591611a69565b604051636edcc52360e01b8152600490fd5b34610327576118b87f2013570c343af8ab14a9778150e381a0fda34ed6368127a95fd5e7210cbec5bf611b8436610c99565b9290611b8e6134b6565b604051918291602083523395602084019161233e565b5f5b838110611bb55750505f910152565b8181015183820152602001611ba6565b90602091611bde81518092818552858086019101611ba4565b601f01601f1916010190565b6020808201906020835283518092526040830192602060408460051b8301019501935f915b848310611c1f5750505050505090565b9091929394958480611c3d600193603f198682030187528a51611bc5565b9801930193019194939290611c0f565b34610327576020366003190112610327576001600160401b036004358181116103275736602382011215610327578060040135918211610327573660248360051b8301011161032757610531916024611ca692016125b2565b60405191829182611bea565b906020610697928181520190611bc5565b34610327575f36600319011261032757610531604051611ce281610f4c565b60058152640352e302e360dc1b6020820152604051918291602083526020830190611bc5565b34610327575f366003190112610327576020610be661265f565b34610327576020366003190112610327576020610394600435613c87565b34610327575f3660031901126103275760206001600160801b0360995416604051908152f35b3461032757602036600319011261032757610020600435611d8681610316565b611d8e6134b6565b613d16565b34610327575f3660031901126103275760206001600160801b03609e5416604051908152f35b3461032757602036600319011261032757600435611dd681610316565b60018060a01b03165f52609c602052602060405f2054604051908152f35b3461032757602036600319011261032757600435611e1181610316565b60018060a01b03165f52610202602052602060ff60405f2054166040519015158152f35b34610327575f366003190112610327575f546040516001600160a01b039091168152602090f35b6040366003190112610327576020610394600435611e7981610316565b6024359061062282610316565b3461032757602036600319011261032757610020600435611ea681610316565b611eae6134b6565b613d78565b90816020910312610327575190565b6040513d5f823e3d90fd5b90604051611eda81610f4c565b91546001600160801b038116835260801c6020830152565b634e487b7160e01b5f52601160045260245ffd5b6001600160801b039081165f19019190821161144257565b6001600160801b03918216908216039190821161144257565b815160209092015160801b6fffffffffffffffffffffffffffffffff19166001600160801b0392909216919091179055565b6098546001600160801b0381169081611f8157505090565b916106979260801c9061284b565b610201546001600160a01b03919082163303610e59576001600160a01b0381165f90815261020260205260409020549215159260ff1615158314612022576001600160a01b0381165f9081526102026020526040902060ff1981541660ff851617905560405192835216907fd9c6c3eabe38e3b9a606a66358d8f225489216a59eeba66facefb7d91663526660203392a3565b505050565b61203361203a916129b3565b9190612b49565b61204057565b612048612cfa565b50565b476099546001600160801b03612062818316611f69565b90609e5416019060801c01908181115f1461207b570390565b50505f90565b61016a546001600160a01b031680156120975790565b507f000000000000000000000000000000000000000000000000000000000000000090565b9061069792916120cb33612ece565b6120d433612ece565b6120df833433613e87565b506106b733612ece565b90816020910312610327575161069781610316565b906020828203126103275781356001600160401b0392838211610327570191606083830312610327576040519261213484610f7f565b80358452602081013561ffff81168103610327576020850152604081013591821161032757019080601f830112156103275781602061217593359101610ff1565b604082015290565b5f549091906001600160a01b03166122425760405163e7f6f22560e01b8152906020908183600481335afa928315610576575f93612223575b50604051636f4fa30f60e01b8152938285600481335afa908115610576576121fe956121f9945f93612200575b50506121f291928101906120fe565b9083613369565b613451565b565b6121f29350908161221c92903d10610e9357610e858183610fb5565b915f6121e3565b61223b919350823d8411610e9357610e858183610fb5565b915f6121b6565b50506121fe61325d565b609d548061069757505f1990565b90816020910312610327575161069781610599565b9190820391821161144257565b604080516001600160a01b039092166020830190815290820193909352606081018290529091906122ba81608081015b03601f198101835282610fb5565b5190205f52609b60205260405f20549182156122ea576122db9183916134ee565b90918281039081116114425792565b5050505f905f905f90565b9035601e19823603018112156103275701602081359101916001600160401b03821161032757813603831361032757565b90603060609281835260208301375f60508201520190565b908060209392818452848401375f828201840152601f01601f1916010190565b9060a06106979260208152823560208201526020830135604082015261239a61238a60408501856122f5565b84606085015260c084019161233e565b906123cd6123c26123ae60608701876122f5565b601f1985870381016080870152959161233e565b9460808101906122f5565b9390928286030191015261233e565b903590601e198136030182121561032757018035906001600160401b0382116103275760200191813603831361032757565b634e487b7160e01b5f52601260045260245ffd5b811561242c570490565b61240e565b906801bc16d674ec800000918083029283040361144257565b90670de0b6b3a76400009182810292818404149015171561144257565b9190820180921161144257565b6001600160401b038111610f675760051b60200190565b9061249582612474565b6124a26040519182610fb5565b82815280926124b3601f1991612474565b01905f5b8281106124c357505050565b8060606020809385010152016124b7565b634e487b7160e01b5f52603260045260245ffd5b908210156124ff57610cc39160051b8101906123dc565b6124d4565b908092918237015f815290565b3d1561253b573d9061252282610fd6565b916125306040519384610fb5565b82523d5f602084013e565b606090565b602081830312610327578051906001600160401b038211610327570181601f8201121561032757805161257281610fd6565b926125806040519485610fb5565b81845260208284010111610327576106979160208085019101611ba4565b80518210156124ff5760209160051b010190565b9190916125be8361248b565b925f5b8181106125cd57505050565b5f806125da8385876124e8565b604093916125ec855180938193612504565b0390305af4906125fa612511565b911561262157509060019161260f828861259e565b5261261a818761259e565b50016125c1565b9060448151106103275761265b61264660049283810151602480918301019101612540565b925162461bcd60e51b81529283928301611cb2565b0390fd5b60d2546001600160a01b03168061069757507f000000000000000000000000000000000000000000000000000000000000000090565b61269e33612ece565b6120483433613dbf565b60405163752a536d60e01b81526020816004817f00000000000000000000000000000000000000000000000000000000000000006001600160a01b03165afa908115610576575f9161273e575b5060208201916001600160801b03918284511691828214612737578361272a61272561273295858486511661284b565b613bba565b169052613bba565b169052565b5050505050565b612757915060203d60201161056f576105618183610fb5565b5f6126f5565b90808202905f19818409908280831092039180830392146127cc5761271090828211156127ba577fbc01a36e2eb1c432ca57a786c226809d495182a9930be0ded288ce703afb7e91940990828211900360fc1b910360041c170290565b60405163227bc15360e01b8152600490fd5b505061271091500490565b90808202905f198184099082808310920391808303921461283a57670de0b6b3a764000090828211156127ba577faccb18165bd6fe31ae1cf318dc5b51eee0e1ba569b88cd74c1773b91fac10669940990828211900360ee1b910360121c170290565b5050670de0b6b3a764000091500490565b9091828202915f19848209938380861095039480860395146128be57848311156127ba57829109815f038216809204600280826003021880830282030280830282030280830282030280830282030280830282030280920290030293600183805f03040190848311900302920304170290565b5050906106979250612422565b90816060910312610327578051916040602083015192015161069781610599565b81835290916001600160fb1b0383116103275760209260051b809284830137010190565b90602082528035602083015260208101358060130b809103610327576040830152604081013561293f81610316565b6001600160a01b031660608381019190915281013536829003601e19018112156103275701602081359101906001600160401b038111610327578060051b360382136103275760a08360808061069796015201916128ec565b9190915f838201938412911290801582169115161761144257565b6040516325f56f1160e01b81526001600160a01b039291606090829081906129de9060048301612910565b03815f877f0000000000000000000000000000000000000000000000000000000000000000165af1928315610576575f915f905f95612b04575b508415612ab15781612a28612081565b16917f0000000000000000000000000000000000000000000000000000000000000000168214612aaa57509060205f92600460405180958193634641257d60e01b83525af190811561057657612a85925f92612a89575b50612998565b9190565b612aa391925060203d60201161056f576105618183610fb5565b905f612a7f565b9081612ab7575b50509190565b803b1561032757604051636ee3193160e11b815260048101929092525f908290602490829084905af1801561057657612af1575b80612ab1565b80610b94612afe92610f6c565b5f612aeb565b91945050612b2a915060603d606011612b32575b612b228183610fb5565b8101906128cb565b93905f612a18565b503d612b18565b600160ff1b8114611442575f0390565b801561204857612b5e6119f260985460801c90565b5f8212612c305781612b6f91612467565b90612b7c610a3783613bba565b612b916065549161ffff8360a01c169061275d565b801561202257807f555ee6b2ef9506d870f386c067e47d3689435330b012ad263d8cc3531868654793612bcf6119f26098546001600160801b031690565b80612c1a575050612c1590925b6001600160a01b031691612bf08484613f33565b60405193849384604091949392606082019560018060a01b0316825260208201520152565b0390a1565b612c1592612c2a9203908461284b565b92612bdc565b90612c3a90612b39565b612c4f6119f2609e546001600160801b031690565b80612c6f575b5080612c5f575050565b612725610a37916121fe9361226f565b90612cd67f3623a54e8078be0d90ecfbef82da6a31ff3e6be8aa1718e7a7f3d0d33ff1d32a916113d5612cba612caf612ca88888612467565b878561284b565b808094039603613bba565b6001600160801b03166001600160801b0319609e541617609e55565b0390a15f612c55565b9190916001600160801b038080941691160191821161144257565b612d1347612d0d6119f260995460801c90565b9061226f565b908115612ec957609e546001600160801b0381169081612e51575b5050612d456119f26099546001600160801b031690565b9182158015612e49575b612e4357612d6690612d6084611f69565b90614114565b8015612e4357612d7581613c87565b928315612e3c57612e316121fe92612db2612d9661272588610a379661226f565b6001600160801b03166001600160801b03196099541617609955565b612dcc611825612dc183613bba565b60995460801c612cdf565b612dd68187613fdd565b60408051878152602081018390525f80516020614cf38339815191529190a1612725612e15612e0488613bba565b6098546001600160801b0316611f1e565b6001600160801b03166001600160801b03196098541617609855565b60985460801c611f1e565b505f925050565b505f9150565b508015612d4f565b8184929410612e3c57612dc184612e99935f80516020614cf3833981519152826118259560801c612e828282613fdd565b604080519182526020820192909252a10394613bba565b612ead6001600160801b03609e5416609e55565b612ec26001600160801b0319609e5416609e55565b5f80612d2e565b5f9150565b6001600160a01b03165f908152610202602052604090205460ff1615610e5957565b51906001600160401b038216820361032757565b90816060910312610327576121756040805192612f2084610f7f565b8051612f2b816103c6565b8452612f3960208201612ef0565b602085015201612ef0565b92906001600160a01b039081811615610ba057612f5f613689565b817f00000000000000000000000000000000000000000000000000000000000000001690813b1561032757604094855193631d8557d760e01b85526004945f81878183895af180156105765761324a575b506001600160a01b0388165f90815261013760205260409020612fd290611ecd565b906001600160801b03612fec83516001600160801b031690565b161561323a57612ffb826126a8565b875163e48a5f7b60e01b81523087820190815290916060918391908290819060200103917f0000000000000000000000000000000000000000000000000000000000000000165afa80156105765761321b575b508651936303d1689d60e11b97888652602091828780613075888c83019190602083019252565b0381845afa968715610576575f976131fc575b5086996130a86108c28d60018060a01b03165f52609c60205260405f2090565b881180156131ec575b6131dc5790836130ee926130cc87516001600160801b031690565b908551948592839283528d83019190916001600160801b036020820193169052565b0381845afa988915610576575f859488946131339c6131bf575b5051633b9e9f0160e21b815233928101928352602083019490945292998a9384929091839160400190565b03925af1958615610576576109dd61317a9461315d936104bd936121fe9a6131a1575b5050613bba565b6001600160a01b0388165f90815261013760205260409020611f37565b61319c61318683613c87565b8097613197610a37610a2387613bba565b6143d1565b613bed565b816131b792903d1061056f576105618183610fb5565b505f80613156565b6131d590873d891161056f576105618183610fb5565b505f613108565b825163efda1a2760e01b81528990fd5b506131f561204b565b88116130b1565b613214919750833d851161056f576105618183610fb5565b955f613088565b6132339060603d606011610b7057610b618183610fb5565b505f61304e565b875163673f032f60e11b81528690fd5b80610b9461325792610f6c565b5f612fb0565b61326561443f565b61327a6119f26099546001600160801b031690565b60018111613357576001146132ee575b609f54613295614969565b908082106132b1575b50506132a95f609f55565b6121fe61441e565b5f80516020614cf3833981519152916132e491036132ce816140db565b604080519182525f602083015290918291820190565b0390a15f8061329e565b61330b612e156133066098546001600160801b031690565b611f06565b6133206001600160801b031960995416609955565b613328614099565b5f80516020614cf38339815191526040518061334f81905f60206040840193600181520152565b0390a161328a565b604051630299325160e41b8152600490fd5b61337161443f565b604083015161337e61443f565b6001600160a01b0382168015610ba0576001600160601b0360a01b5f5416175f557f2013570c343af8ab14a9778150e381a0fda34ed6368127a95fd5e7210cbec5bf60405160208152806133d733946020830190611bc5565b0390a26020830151926133e861443f565b61271061ffff85161161343f576134379361340561342a93613d16565b6065805461ffff60a01b191660a09290921b61ffff60a01b1691909117905551614480565b6134326144b0565b6144d7565b6121fe614506565b604051638a81d3b360e01b8152600490fd5b6121fe90611eae61443f565b6001600160a01b037f0000000000000000000000000000000000000000000000000000000000000000811630811491821561349b575b505061130357565b5f80516020614d138339815191525416141590505f80613493565b5f546001600160a01b03163303610e5957565b906040516134d681610f4c565b91546001600160a01b038116835260a01c6020830152565b609a545f948594939091808410801590613681575b613674578361363e575f5b609a5f526001600160a01b03166135335f80516020614cd383398151915286016134c9565b805190979061354a906001600160a01b0316611299565b9861356f6135636020809b01516001600160601b031690565b6001600160601b031690565b948381108015613634575b6136225791600193979a956135996135a5939488035b838c0390614114565b8092019887039161284b565b01970193808611801590613618575b61360d57609a5f5282906135d65f80516020614cd383398151915287016134c9565b805190890151969992966001600160a01b0390911694600193926135a59290916001600160601b0390911690613599908803613590565b945050509250509190565b50818510156135b4565b60405163e8722f8f60e01b8152600490fd5b50808b111561357a565b609a5f527f44da158ba27f9252712a74ff6a55c5d531f69609f1f6e7f17c4443a8e2089be38401546001600160a01b031661350e565b505093505050505f905f90565b508415613503565b604051633eb1acf760e11b81523060048201526020816024817f00000000000000000000000000000000000000000000000000000000000000006001600160a01b03165afa908115610576575f916136f5575b506136e357565b60405163e775715160e01b8152600490fd5b61370e915060203d60201161119f576111908183610fb5565b5f6136dc565b604290467f0000000000000000000000000000000000000000000000000000000000000000036137c25760d354905b61375a61375360408301836123dc565b3691610ff1565b602081519101206040519060208201927f838af86bfca91ada6557e38d913af1c2f24ef9b2567b3b77cc9e1144314b35b084523560408301526060820152606081526137a581610f9a565b5190206040519161190160f01b8352600283015260228201522090565b6137ca61462d565b90613743565b600411156137da57565b634e487b7160e01b5f52602160045260245ffd5b6137f883836146fa565b50613805819592956137d0565b1593846138a1575b50831561381b575b50505090565b5f929350908291604051613853816122ac6020820194630b135d3f60e11b998a87526024840152604060448401526064830190611bc5565b51915afa90613860612511565b82613893575b82613876575b50505f8080613815565b61388b91925060208082518301019101611eb3565b145f8061386c565b915060208251101591613866565b6001600160a01b0383811691161493505f61380d565b906030116103275790603090565b906090116103275760300190606090565b9060b0116103275760900190602090565b90939293848311610327578411610327578101920390565b35906020811061390d575090565b5f199060200360031b1b1690565b969594906139589361393c61394a926060979560808c5260808c019161233e565b9089820360208b0152611bc5565b91878303604089015261233e565b930152565b906020610697928181520190612326565b91602061069793818152019161233e565b60b091828104915f9081613991614734565b957f00000000000000000000000000000000000000000000000000000000000000006001600160a01b0316935f92905b8784106139d357505050505050505050565b826139e29101809288876138e7565b906139ed82826138b7565b91613a0c613a066139fe86846138c5565b9690936138d6565b906138ff565b90893b15610327575f908d613a39604094855198899485946304512a2360e31b86528a8a6004880161391b565b03816801bc16d674ec8000008d5af1908115610576577f64b6e61d93b7a91e8cc4376183ede0997a27b44fd9dd2f30a866b2a5730efdb194613a8592613a94575b50519283928361396e565b0390a1600181930192906139c1565b80610b94613aa192610f6c565b5f613a7a565b8160301161032757613a06917f00000000000000000000000000000000000000000000000000000000000000006001600160a01b0316613ae5614734565b90613afc613af384866138c5565b969094866138d6565b94813b15610327576801bc16d674ec8000005f94613b6297604051988996879586946304512a2360e31b865260806004870152613b53613b408d6084890190612326565b60031994858983030160248a0152611bc5565b9286840301604487015261233e565b90606483015203925af1908115610576577f64b6e61d93b7a91e8cc4376183ede0997a27b44fd9dd2f30a866b2a5730efdb192612c1592613bab575b506040519182918261395d565b613bb490610f6c565b5f613b9e565b6001600160801b0390818111613bce571690565b604490604051906306dfcc6560e41b8252608060048301526024820152fd5b907f9b779b17422d0df92223018b32b4d1fa46e071723d6817e2486d003becc55f00916002835414613c755760028355814710613c5d575f918291829182916001600160a01b03165af1613c3f612511565b5015613c4b5760019055565b604051630a12f52160e11b8152600490fd5b60405163cd78605960e01b8152306004820152602490fd5b604051633ee5aeb560e01b8152600490fd5b609854906001600160801b03821681158015613cb6575b15613ca95750905090565b6106979260801c9161284b565b508015613c9e565b6098546001600160801b0381169082158015613d0e575b15613cdf57505090565b60801c90613cee82828561284b565b92821561242c5709613cfd5790565b600181018091111561069757611ef2565b508115613cd5565b613d1e613689565b6001600160a01b03168015613d6657606580546001600160a01b03191682179055337faaebcf1bfa00580e41d966056b48521fa9f202645c86d4ddf28113e617c1b1d35f80a3565b604051630ed1b8b360e31b8152600490fd5b61020180546001600160a01b0319166001600160a01b03929092169182179055337fda2bcad4d57ac529886ff995d07bce191c08b5424c8f5824de6c73f90cc623d45f80a3565b9190613dc9613689565b6001600160a01b038316908115610ba0578015613e755780613df06119f260985460801c90565b0193613dfa61224c565b8511613e6357610a3794613e2191613e1c613e1485613cbe565b978893613bba565b613f33565b60408051918252602082018590525f9082015233907f861a4138e41fb21c121a7dbb1053df465c837fc77380cc7226189a662281be2c9080606081015b0390a3565b6040516304ffa0ff60e51b8152600490fd5b6040516318374fd160e21b8152600490fd5b90929192613e93613689565b6001600160a01b038216918215610ba0578115613e755781613eba6119f260985460801c90565b01613ec361224c565b8111613e6357610a3795613f0a613e5e927f861a4138e41fb21c121a7dbb1053df465c837fc77380cc7226189a662281be2c94613e1c613f0288613cbe565b9a8b93613bba565b60408051948552602085018890526001600160a01b039091169084015233929081906060820190565b613f3c82613bba565b60985490613f546001600160801b0391828416612cdf565b16906001600160801b0319161760985560018060a01b03165f52609c60205260405f20908154019055565b609a549068010000000000000000821015610f67576001820180609a558210156124ff57609a5f52805160209091015160a01b6001600160a01b0319166001600160a01b0391909116175f80516020614cd383398151915290910155565b919091801561408757613fee614969565b908101809111611442576001600160a01b03808211614067576001600160601b039081851161404757906121fe9394614042926040519461402e86610f4c565b168452166001600160601b03166020830152565b613f7f565b6040516306dfcc6560e41b81526060600482015260248101869052604490fd5b6040516306dfcc6560e41b815260a0600482015260248101839052604490fd5b604051632ec8835b60e21b8152600490fd5b6140a1614969565b60018101809111611442576001600160a01b0380821161406757906121fe91604051916140cd83610f4c565b1681525f6020820152613f7f565b8015614087576140e9614969565b908101809111611442576001600160a01b0380821161406757906121fe91604051916140cd83610f4c565b9080821015614121575090565b905090565b93929190916141336149ab565b61413b613689565b6001600160a01b0385165f9081526101376020526040902061415c90611ecd565b946001600160801b0361417687516001600160801b031690565b161561434257614185866126a8565b6001600160a01b0381165f908152609c602052604090206141ae906141a9906108c2565b6149cc565b955f198414614312575b6040516329460cc560e11b81526001600160a01b0386811660048301526024820186905290949093906020866044815f7f00000000000000000000000000000000000000000000000000000000000000008a165af1958615610576575f966142f1575b50859861424a61423d61422d84613bba565b86516001600160801b0316612cdf565b6001600160801b03168552565b61425e6119f285516001600160801b031690565b116142df577fa16d97739893e1436c9753925fb5cef174c4f368699dc86cc8fdb0e6e60f8e58956142a76142da946104de8760018060a01b03165f5261013760205260405f2090565b604080516001600160a01b03998a1681526020810192909252810191909152951660608601529116929081906080820190565b0390a2565b604051633684c65960e01b8152600490fd5b61430b91965060203d60201161056f576105618183610fb5565b945f61421b565b92506143286119f284516001600160801b031690565b80871115614338578603926141b8565b505f955050505050565b60405163752a536d60e01b81526020816004817f00000000000000000000000000000000000000000000000000000000000000006001600160a01b03165afa908115610576576143ad9161439d915f916143b2575b50613bba565b6001600160801b03166020880152565b614185565b6143cb915060203d60201161056f576105618183610fb5565b5f614397565b60018060a01b03165f52609c60205260405f20908154818103908111611442576143fb9255613bba565b609854906001600160801b03908183160316906001600160801b03191617609855565b61442661443f565b61442e61462d565b60d354810361443a5750565b60d355565b60ff7ff0c57e16840df040f15088dc2f81fe391c3923bec73e23a9662efc9c229c6a005460401c161561446e57565b604051631afcd79f60e31b8152600490fd5b61448861443f565b801561449e57600181016144995750565b609d55565b6040516331278a8760e01b8152600490fd5b6144b861443f565b6801bc16d674ec8000006144ca61224c565b1061449e5761443a61462d565b6144df61443f565b6001600160a01b0316806144f05750565b61016a80546001600160a01b0319169091179055565b61450e61443f565b61451661443f565b61451e61443f565b60017f9b779b17422d0df92223018b32b4d1fa46e071723d6817e2486d003becc55f0055633b9aca003410614557576120483430613dbf565b60405163ea2559bb60e01b8152600490fd5b90816020910312610327575160ff811681036103275790565b6040516352d1902d60e01b81529290916020846004816001600160a01b0387165afa5f948161460c575b506145d257604051634c9c8ce360e01b81526001600160a01b0384166004820152602490fd5b90915f80516020614d1383398151915284036145f3576121fe929350614ad6565b604051632a87526960e21b815260048101859052602490fd5b61462691955060203d60201161056f576105618183610fb5565b935f6145ac565b6e5661756c7456616c696461746f727360881b602060405161464e81610f4c565b600f8152015260405160208101907f8b73c3c69bb8fe3d512ecc4cf759cc79239f7b179b0ffacaa9a75d522b39400f82527f35d6cf9768d8be929c3a11ed667b1560ae6f1920195a985758fdd7265505d1ca60408201527fc89efdaa54c0f20c7adf612882df0950f5a951637e0307cdcb4c672f298b8bc660608201524660808201523060a082015260a0815260c081018181106001600160401b03821117610f675760405251902090565b815191906041830361472a576147239250602082015190606060408401519301515f1a90614b78565b9192909190565b50505f9160029190565b604051600160f81b60208201525f60218201523060601b602c8201526020815261069781610f4c565b60018060a01b0381165f5261013760205260405f20906040519161478083610f4c565b54906001600160801b03918281169081855260801c602085015215612022576141a96108c26147d3926147b1613689565b6147ba866126a8565b6001600160a01b03165f908152609c6020526040902090565b915116116142df57565b9291908015611b40576001600160a01b03828116928315610ba057614803611765614bfa565b6148f05790611873956148d4612d96857f211091c5bf013c1230f996c3bb2bc327e3de429a3d3c356dcea9a0c858bc407f95816148a961484e6119f26099546001600160801b031690565b926122ac61487b85614876614861614969565b6148706119f2609e5460801c90565b90612467565b612467565b9e8f6040519283916020830195429087604091949392606082019560018060a01b0316825260208201520152565b556001600160a01b0385165f908152609c602052604090206148cc83825461226f565b905501613bba565b6040805188815260208101959095529116929081908101613e5e565b9293946148fc83611f69565b938415613e75577f5cdf07ad0fc222442720b108e3ed4c4640f0fadc2ab2253e66f259a0fea8348093614946866149619361493c610a37612e3184613bba565b61319c84876143d1565b60405193849316958360209093929193604081019481520152565b0390a35f1990565b609a548061497657505f90565b609a5f527f44da158ba27f9252712a74ff6a55c5d531f69609f1f6e7f17c4443a8e2089be301546001600160a01b0316611299565b6149b3614bfa565b156149ba57565b604051630a62fbdb60e11b8152600490fd5b60405163e48a5f7b60e01b81523060048201526001600160a01b036060826024817f000000000000000000000000000000000000000000000000000000000000000085165afa801561057657614a67936001600160401b0361089d6040614a46946020975f91614ab7575b5001516001600160401b031690565b9060405180809581946363737ac960e11b8352600483019190602083019252565b03917f0000000000000000000000000000000000000000000000000000000000000000165afa908115610576575f91614a9e575090565b610697915060203d60201161056f576105618183610fb5565b614ad0915060603d606011610b7057610b618183610fb5565b5f614a37565b90813b15614b57575f80516020614d1383398151915280546001600160a01b0319166001600160a01b0384169081179091557fbc7cd75a20ee27fd9adebab32041f755214dbc6bffa90cc0225b39da2e5c2d3b5f80a2805115614b3c5761204891614c69565b505034614b4557565b60405163b398979f60e01b8152600490fd5b604051634c9c8ce360e01b81526001600160a01b0383166004820152602490fd5b91907f7fffffffffffffffffffffffffffffff5d576e7357a4501ddfe92f46681b20a08411614bef579160209360809260ff5f9560405194855216868401526040830152606082015282805260015afa15610576575f516001600160a01b03811615614be557905f905f90565b505f906001905f90565b5050505f9160039190565b604051630156a69560e11b81523060048201526020816024817f00000000000000000000000000000000000000000000000000000000000000006001600160a01b03165afa908115610576575f91614c50575090565b610697915060203d60201161119f576111908183610fb5565b5f8061069793602081519101845af4614c80612511565b9190614c965750805115613c4b57805190602001fd5b81511580614cc9575b614ca7575090565b604051639996b31560e01b81526001600160a01b039091166004820152602490fd5b50803b15614c9f56fe44da158ba27f9252712a74ff6a55c5d531f69609f1f6e7f17c4443a8e2089be4624ea167e477f9d39f7f4094b9dfe2e6346eb4a7aada54338db51abd554c4b9f360894a13ba1a3210667c828492db98dca3e2076cc3735a920a3ca505d382bbca26469706673582212204c918f55e91104380be7ef7c103845b4c187704a0f4748c5828f43eed67deeb664736f6c63430008160033",
  "linkReferences": {},
  "deployedLinkReferences": {}
}