{
  "_format": "hh-sol-artifact-1",
  "contractName": "EthPrivErc20Vault",
  "sourceName": "contracts/vaults/ethereum/EthPrivErc20Vault.sol",
  "abi": [
    {
      "inputs": [
        {
          "internalType": "address",
          "name": "_keeper",
          "type": "address"
        },
        {
          "internalType": "address",
          "name": "_vaultsRegistry",
          "type": "address"
        },
        {
          "internalType": "address",
          "name": "_validatorsRegistry",
          "type": "address"
        },
        {
          "internalType": "address",
          "name": "osTokenVaultController",
          "type": "address"
        },
        {
          "internalType": "address",
          "name": "osTokenConfig",
          "type": "address"
        },
        {
          "internalType": "address",
          "name": "sharedMevEscrow",
          "type": "address"
        },
        {
          "internalType": "uint256",
          "name": "exitingAssetsClaimDelay",
          "type": "uint256"
        }
      ],
      "stateMutability": "nonpayable",
      "type": "constructor"
    },
    {
      "inputs": [],
      "name": "AccessDenied",
      "type": "error"
    },
    {
      "inputs": [
        {
          "internalType": "address",
          "name": "target",
          "type": "address"
        }
      ],
      "name": "AddressEmptyCode",
      "type": "error"
    },
    {
      "inputs": [
        {
          "internalType": "address",
          "name": "account",
          "type": "address"
        }
      ],
      "name": "AddressInsufficientBalance",
      "type": "error"
    },
    {
      "inputs": [],
      "name": "CapacityExceeded",
      "type": "error"
    },
    {
      "inputs": [],
      "name": "ClaimTooEarly",
      "type": "error"
    },
    {
      "inputs": [],
      "name": "Collateralized",
      "type": "error"
    },
    {
      "inputs": [],
      "name": "DeadlineExpired",
      "type": "error"
    },
    {
      "inputs": [
        {
          "internalType": "address",
          "name": "implementation",
          "type": "address"
        }
      ],
      "name": "ERC1967InvalidImplementation",
      "type": "error"
    },
    {
      "inputs": [],
      "name": "ERC1967NonPayable",
      "type": "error"
    },
    {
      "inputs": [],
      "name": "FailedInnerCall",
      "type": "error"
    },
    {
      "inputs": [],
      "name": "InsufficientAssets",
      "type": "error"
    },
    {
      "inputs": [],
      "name": "InvalidAssets",
      "type": "error"
    },
    {
      "inputs": [],
      "name": "InvalidCapacity",
      "type": "error"
    },
    {
      "inputs": [],
      "name": "InvalidCheckpointIndex",
      "type": "error"
    },
    {
      "inputs": [],
      "name": "InvalidCheckpointValue",
      "type": "error"
    },
    {
      "inputs": [],
      "name": "InvalidFeePercent",
      "type": "error"
    },
    {
      "inputs": [],
      "name": "InvalidFeeRecipient",
      "type": "error"
    },
    {
      "inputs": [],
      "name": "InvalidHealthFactor",
      "type": "error"
    },
    {
      "inputs": [],
      "name": "InvalidInitialization",
      "type": "error"
    },
    {
      "inputs": [],
      "name": "InvalidLtv",
      "type": "error"
    },
    {
      "inputs": [],
      "name": "InvalidPosition",
      "type": "error"
    },
    {
      "inputs": [],
      "name": "InvalidProof",
      "type": "error"
    },
    {
      "inputs": [],
      "name": "InvalidReceivedAssets",
      "type": "error"
    },
    {
      "inputs": [],
      "name": "InvalidSecurityDeposit",
      "type": "error"
    },
    {
      "inputs": [],
      "name": "InvalidShares",
      "type": "error"
    },
    {
      "inputs": [],
      "name": "InvalidTokenMeta",
      "type": "error"
    },
    {
      "inputs": [],
      "name": "InvalidValidator",
      "type": "error"
    },
    {
      "inputs": [],
      "name": "InvalidValidators",
      "type": "error"
    },
    {
      "inputs": [],
      "name": "LowLtv",
      "type": "error"
    },
    {
      "inputs": [],
      "name": "MathOverflowedMulDiv",
      "type": "error"
    },
    {
      "inputs": [],
      "name": "MerkleProofInvalidMultiproof",
      "type": "error"
    },
    {
      "inputs": [],
      "name": "NotCollateralized",
      "type": "error"
    },
    {
      "inputs": [],
      "name": "NotHarvested",
      "type": "error"
    },
    {
      "inputs": [],
      "name": "NotInitializing",
      "type": "error"
    },
    {
      "inputs": [],
      "name": "PermitInvalidSigner",
      "type": "error"
    },
    {
      "inputs": [],
      "name": "RedemptionExceeded",
      "type": "error"
    },
    {
      "inputs": [],
      "name": "ReentrancyGuardReentrantCall",
      "type": "error"
    },
    {
      "inputs": [
        {
          "internalType": "uint8",
          "name": "bits",
          "type": "uint8"
        },
        {
          "internalType": "uint256",
          "name": "value",
          "type": "uint256"
        }
      ],
      "name": "SafeCastOverflowedUintDowncast",
      "type": "error"
    },
    {
      "inputs": [],
      "name": "UUPSUnauthorizedCallContext",
      "type": "error"
    },
    {
      "inputs": [
        {
          "internalType": "bytes32",
          "name": "slot",
          "type": "bytes32"
        }
      ],
      "name": "UUPSUnsupportedProxiableUUID",
      "type": "error"
    },
    {
      "inputs": [],
      "name": "UpgradeFailed",
      "type": "error"
    },
    {
      "inputs": [],
      "name": "WhitelistAlreadyUpdated",
      "type": "error"
    },
    {
      "inputs": [],
      "name": "ZeroAddress",
      "type": "error"
    },
    {
      "anonymous": false,
      "inputs": [
        {
          "indexed": true,
          "internalType": "address",
          "name": "owner",
          "type": "address"
        },
        {
          "indexed": true,
          "internalType": "address",
          "name": "spender",
          "type": "address"
        },
        {
          "indexed": false,
          "internalType": "uint256",
          "name": "value",
          "type": "uint256"
        }
      ],
      "name": "Approval",
      "type": "event"
    },
    {
      "anonymous": false,
      "inputs": [
        {
          "indexed": false,
          "internalType": "uint256",
          "name": "shares",
          "type": "uint256"
        },
        {
          "indexed": false,
          "internalType": "uint256",
          "name": "assets",
          "type": "uint256"
        }
      ],
      "name": "CheckpointCreated",
      "type": "event"
    },
    {
      "anonymous": false,
      "inputs": [
        {
          "indexed": true,
          "internalType": "address",
          "name": "caller",
          "type": "address"
        },
        {
          "indexed": true,
          "internalType": "address",
          "name": "receiver",
          "type": "address"
        },
        {
          "indexed": false,
          "internalType": "uint256",
          "name": "assets",
          "type": "uint256"
        },
        {
          "indexed": false,
          "internalType": "uint256",
          "name": "shares",
          "type": "uint256"
        },
        {
          "indexed": false,
          "internalType": "address",
          "name": "referrer",
          "type": "address"
        }
      ],
      "name": "Deposited",
      "type": "event"
    },
    {
      "anonymous": false,
      "inputs": [
        {
          "indexed": true,
          "internalType": "address",
          "name": "owner",
          "type": "address"
        },
        {
          "indexed": true,
          "internalType": "address",
          "name": "receiver",
          "type": "address"
        },
        {
          "indexed": false,
          "internalType": "uint256",
          "name": "positionTicket",
          "type": "uint256"
        },
        {
          "indexed": false,
          "internalType": "uint256",
          "name": "shares",
          "type": "uint256"
        }
      ],
      "name": "ExitQueueEntered",
      "type": "event"
    },
    {
      "anonymous": false,
      "inputs": [
        {
          "indexed": true,
          "internalType": "address",
          "name": "receiver",
          "type": "address"
        },
        {
          "indexed": false,
          "internalType": "uint256",
          "name": "prevPositionTicket",
          "type": "uint256"
        },
        {
          "indexed": false,
          "internalType": "uint256",
          "name": "newPositionTicket",
          "type": "uint256"
        },
        {
          "indexed": false,
          "internalType": "uint256",
          "name": "withdrawnAssets",
          "type": "uint256"
        }
      ],
      "name": "ExitedAssetsClaimed",
      "type": "event"
    },
    {
      "anonymous": false,
      "inputs": [
        {
          "indexed": true,
          "internalType": "address",
          "name": "caller",
          "type": "address"
        },
        {
          "indexed": true,
          "internalType": "address",
          "name": "feeRecipient",
          "type": "address"
        }
      ],
      "name": "FeeRecipientUpdated",
      "type": "event"
    },
    {
      "anonymous": false,
      "inputs": [
        {
          "indexed": false,
          "internalType": "address",
          "name": "receiver",
          "type": "address"
        },
        {
          "indexed": false,
          "internalType": "uint256",
          "name": "shares",
          "type": "uint256"
        },
        {
          "indexed": false,
          "internalType": "uint256",
          "name": "assets",
          "type": "uint256"
        }
      ],
      "name": "FeeSharesMinted",
      "type": "event"
    },
    {
      "anonymous": false,
      "inputs": [
        {
          "indexed": false,
          "internalType": "uint64",
          "name": "version",
          "type": "uint64"
        }
      ],
      "name": "Initialized",
      "type": "event"
    },
    {
      "anonymous": false,
      "inputs": [
        {
          "indexed": true,
          "internalType": "address",
          "name": "caller",
          "type": "address"
        },
        {
          "indexed": true,
          "internalType": "address",
          "name": "keysManager",
          "type": "address"
        }
      ],
      "name": "KeysManagerUpdated",
      "type": "event"
    },
    {
      "anonymous": false,
      "inputs": [
        {
          "indexed": true,
          "internalType": "address",
          "name": "caller",
          "type": "address"
        },
        {
          "indexed": false,
          "internalType": "string",
          "name": "metadataIpfsHash",
          "type": "string"
        }
      ],
      "name": "MetadataUpdated",
      "type": "event"
    },
    {
      "anonymous": false,
      "inputs": [
        {
          "indexed": true,
          "internalType": "address",
          "name": "caller",
          "type": "address"
        },
        {
          "indexed": false,
          "internalType": "uint256",
          "name": "assets",
          "type": "uint256"
        },
        {
          "indexed": false,
          "internalType": "uint256",
          "name": "shares",
          "type": "uint256"
        }
      ],
      "name": "OsTokenBurned",
      "type": "event"
    },
    {
      "anonymous": false,
      "inputs": [
        {
          "indexed": true,
          "internalType": "address",
          "name": "caller",
          "type": "address"
        },
        {
          "indexed": true,
          "internalType": "address",
          "name": "user",
          "type": "address"
        },
        {
          "indexed": false,
          "internalType": "address",
          "name": "receiver",
          "type": "address"
        },
        {
          "indexed": false,
          "internalType": "uint256",
          "name": "osTokenShares",
          "type": "uint256"
        },
        {
          "indexed": false,
          "internalType": "uint256",
          "name": "shares",
          "type": "uint256"
        },
        {
          "indexed": false,
          "internalType": "uint256",
          "name": "receivedAssets",
          "type": "uint256"
        }
      ],
      "name": "OsTokenLiquidated",
      "type": "event"
    },
    {
      "anonymous": false,
      "inputs": [
        {
          "indexed": true,
          "internalType": "address",
          "name": "caller",
          "type": "address"
        },
        {
          "indexed": false,
          "internalType": "address",
          "name": "receiver",
          "type": "address"
        },
        {
          "indexed": false,
          "internalType": "uint256",
          "name": "assets",
          "type": "uint256"
        },
        {
          "indexed": false,
          "internalType": "uint256",
          "name": "shares",
          "type": "uint256"
        },
        {
          "indexed": false,
          "internalType": "address",
          "name": "referrer",
          "type": "address"
        }
      ],
      "name": "OsTokenMinted",
      "type": "event"
    },
    {
      "anonymous": false,
      "inputs": [
        {
          "indexed": true,
          "internalType": "address",
          "name": "caller",
          "type": "address"
        },
        {
          "indexed": true,
          "internalType": "address",
          "name": "user",
          "type": "address"
        },
        {
          "indexed": false,
          "internalType": "address",
          "name": "receiver",
          "type": "address"
        },
        {
          "indexed": false,
          "internalType": "uint256",
          "name": "osTokenShares",
          "type": "uint256"
        },
        {
          "indexed": false,
          "internalType": "uint256",
          "name": "shares",
          "type": "uint256"
        },
        {
          "indexed": false,
          "internalType": "uint256",
          "name": "assets",
          "type": "uint256"
        }
      ],
      "name": "OsTokenRedeemed",
      "type": "event"
    },
    {
      "anonymous": false,
      "inputs": [
        {
          "indexed": true,
          "internalType": "address",
          "name": "owner",
          "type": "address"
        },
        {
          "indexed": true,
          "internalType": "address",
          "name": "receiver",
          "type": "address"
        },
        {
          "indexed": false,
          "internalType": "uint256",
          "name": "assets",
          "type": "uint256"
        },
        {
          "indexed": false,
          "internalType": "uint256",
          "name": "shares",
          "type": "uint256"
        }
      ],
      "name": "Redeemed",
      "type": "event"
    },
    {
      "anonymous": false,
      "inputs": [
        {
          "indexed": true,
          "internalType": "address",
          "name": "from",
          "type": "address"
        },
        {
          "indexed": true,
          "internalType": "address",
          "name": "to",
          "type": "address"
        },
        {
          "indexed": false,
          "internalType": "uint256",
          "name": "value",
          "type": "uint256"
        }
      ],
      "name": "Transfer",
      "type": "event"
    },
    {
      "anonymous": false,
      "inputs": [
        {
          "indexed": true,
          "internalType": "address",
          "name": "implementation",
          "type": "address"
        }
      ],
      "name": "Upgraded",
      "type": "event"
    },
    {
      "anonymous": false,
      "inputs": [
        {
          "indexed": false,
          "internalType": "bytes",
          "name": "publicKey",
          "type": "bytes"
        }
      ],
      "name": "ValidatorRegistered",
      "type": "event"
    },
    {
      "anonymous": false,
      "inputs": [
        {
          "indexed": true,
          "internalType": "address",
          "name": "caller",
          "type": "address"
        },
        {
          "indexed": true,
          "internalType": "bytes32",
          "name": "validatorsRoot",
          "type": "bytes32"
        }
      ],
      "name": "ValidatorsRootUpdated",
      "type": "event"
    },
    {
      "anonymous": false,
      "inputs": [
        {
          "indexed": true,
          "internalType": "address",
          "name": "caller",
          "type": "address"
        },
        {
          "indexed": true,
          "internalType": "address",
          "name": "account",
          "type": "address"
        },
        {
          "indexed": false,
          "internalType": "bool",
          "name": "approved",
          "type": "bool"
        }
      ],
      "name": "WhitelistUpdated",
      "type": "event"
    },
    {
      "anonymous": false,
      "inputs": [
        {
          "indexed": true,
          "internalType": "address",
          "name": "caller",
          "type": "address"
        },
        {
          "indexed": true,
          "internalType": "address",
          "name": "whitelister",
          "type": "address"
        }
      ],
      "name": "WhitelisterUpdated",
      "type": "event"
    },
    {
      "inputs": [],
      "name": "DOMAIN_SEPARATOR",
      "outputs": [
        {
          "internalType": "bytes32",
          "name": "",
          "type": "bytes32"
        }
      ],
      "stateMutability": "view",
      "type": "function"
    },
    {
      "inputs": [],
      "name": "UPGRADE_INTERFACE_VERSION",
      "outputs": [
        {
          "internalType": "string",
          "name": "",
          "type": "string"
        }
      ],
      "stateMutability": "view",
      "type": "function"
    },
    {
      "inputs": [],
      "name": "admin",
      "outputs": [
        {
          "internalType": "address",
          "name": "",
          "type": "address"
        }
      ],
      "stateMutability": "view",
      "type": "function"
    },
    {
      "inputs": [
        {
          "internalType": "address",
          "name": "",
          "type": "address"
        },
        {
          "internalType": "address",
          "name": "",
          "type": "address"
        }
      ],
      "name": "allowance",
      "outputs": [
        {
          "internalType": "uint256",
          "name": "",
          "type": "uint256"
        }
      ],
      "stateMutability": "view",
      "type": "function"
    },
    {
      "inputs": [
        {
          "internalType": "address",
          "name": "spender",
          "type": "address"
        },
        {
          "internalType": "uint256",
          "name": "amount",
          "type": "uint256"
        }
      ],
      "name": "approve",
      "outputs": [
        {
          "internalType": "bool",
          "name": "",
          "type": "bool"
        }
      ],
      "stateMutability": "nonpayable",
      "type": "function"
    },
    {
      "inputs": [
        {
          "internalType": "address",
          "name": "account",
          "type": "address"
        }
      ],
      "name": "balanceOf",
      "outputs": [
        {
          "internalType": "uint256",
          "name": "",
          "type": "uint256"
        }
      ],
      "stateMutability": "view",
      "type": "function"
    },
    {
      "inputs": [
        {
          "internalType": "uint128",
          "name": "osTokenShares",
          "type": "uint128"
        }
      ],
      "name": "burnOsToken",
      "outputs": [
        {
          "internalType": "uint256",
          "name": "assets",
          "type": "uint256"
        }
      ],
      "stateMutability": "nonpayable",
      "type": "function"
    },
    {
      "inputs": [
        {
          "internalType": "address",
          "name": "receiver",
          "type": "address"
        },
        {
          "internalType": "uint256",
          "name": "positionTicket",
          "type": "uint256"
        },
        {
          "internalType": "uint256",
          "name": "timestamp",
          "type": "uint256"
        },
        {
          "internalType": "uint256",
          "name": "exitQueueIndex",
          "type": "uint256"
        }
      ],
      "name": "calculateExitedAssets",
      "outputs": [
        {
          "internalType": "uint256",
          "name": "leftShares",
          "type": "uint256"
        },
        {
          "internalType": "uint256",
          "name": "claimedShares",
          "type": "uint256"
        },
        {
          "internalType": "uint256",
          "name": "claimedAssets",
          "type": "uint256"
        }
      ],
      "stateMutability": "view",
      "type": "function"
    },
    {
      "inputs": [],
      "name": "capacity",
      "outputs": [
        {
          "internalType": "uint256",
          "name": "",
          "type": "uint256"
        }
      ],
      "stateMutability": "view",
      "type": "function"
    },
    {
      "inputs": [
        {
          "internalType": "uint256",
          "name": "positionTicket",
          "type": "uint256"
        },
        {
          "internalType": "uint256",
          "name": "timestamp",
          "type": "uint256"
        },
        {
          "internalType": "uint256",
          "name": "exitQueueIndex",
          "type": "uint256"
        }
      ],
      "name": "claimExitedAssets",
      "outputs": [
        {
          "internalType": "uint256",
          "name": "newPositionTicket",
          "type": "uint256"
        },
        {
          "internalType": "uint256",
          "name": "claimedShares",
          "type": "uint256"
        },
        {
          "internalType": "uint256",
          "name": "claimedAssets",
          "type": "uint256"
        }
      ],
      "stateMutability": "nonpayable",
      "type": "function"
    },
    {
      "inputs": [
        {
          "internalType": "uint256",
          "name": "shares",
          "type": "uint256"
        }
      ],
      "name": "convertToAssets",
      "outputs": [
        {
          "internalType": "uint256",
          "name": "assets",
          "type": "uint256"
        }
      ],
      "stateMutability": "view",
      "type": "function"
    },
    {
      "inputs": [
        {
          "internalType": "uint256",
          "name": "assets",
          "type": "uint256"
        }
      ],
      "name": "convertToShares",
      "outputs": [
        {
          "internalType": "uint256",
          "name": "shares",
          "type": "uint256"
        }
      ],
      "stateMutability": "view",
      "type": "function"
    },
    {
      "inputs": [],
      "name": "decimals",
      "outputs": [
        {
          "internalType": "uint8",
          "name": "",
          "type": "uint8"
        }
      ],
      "stateMutability": "view",
      "type": "function"
    },
    {
      "inputs": [
        {
          "internalType": "address",
          "name": "receiver",
          "type": "address"
        },
        {
          "internalType": "address",
          "name": "referrer",
          "type": "address"
        }
      ],
      "name": "deposit",
      "outputs": [
        {
          "internalType": "uint256",
          "name": "shares",
          "type": "uint256"
        }
      ],
      "stateMutability": "payable",
      "type": "function"
    },
    {
      "inputs": [
        {
          "internalType": "uint256",
          "name": "shares",
          "type": "uint256"
        },
        {
          "internalType": "address",
          "name": "receiver",
          "type": "address"
        }
      ],
      "name": "enterExitQueue",
      "outputs": [
        {
          "internalType": "uint256",
          "name": "positionTicket",
          "type": "uint256"
        }
      ],
      "stateMutability": "nonpayable",
      "type": "function"
    },
    {
      "inputs": [],
      "name": "feePercent",
      "outputs": [
        {
          "internalType": "uint16",
          "name": "",
          "type": "uint16"
        }
      ],
      "stateMutability": "view",
      "type": "function"
    },
    {
      "inputs": [],
      "name": "feeRecipient",
      "outputs": [
        {
          "internalType": "address",
          "name": "",
          "type": "address"
        }
      ],
      "stateMutability": "view",
      "type": "function"
    },
    {
      "inputs": [
        {
          "internalType": "uint256",
          "name": "positionTicket",
          "type": "uint256"
        }
      ],
      "name": "getExitQueueIndex",
      "outputs": [
        {
          "internalType": "int256",
          "name": "",
          "type": "int256"
        }
      ],
      "stateMutability": "view",
      "type": "function"
    },
    {
      "inputs": [
        {
          "internalType": "address",
          "name": "account",
          "type": "address"
        }
      ],
      "name": "getShares",
      "outputs": [
        {
          "internalType": "uint256",
          "name": "",
          "type": "uint256"
        }
      ],
      "stateMutability": "view",
      "type": "function"
    },
    {
      "inputs": [],
      "name": "implementation",
      "outputs": [
        {
          "internalType": "address",
          "name": "",
          "type": "address"
        }
      ],
      "stateMutability": "view",
      "type": "function"
    },
    {
      "inputs": [
        {
          "internalType": "bytes",
          "name": "params",
          "type": "bytes"
        }
      ],
      "name": "initialize",
      "outputs": [],
      "stateMutability": "payable",
      "type": "function"
    },
    {
      "inputs": [],
      "name": "isStateUpdateRequired",
      "outputs": [
        {
          "internalType": "bool",
          "name": "",
          "type": "bool"
        }
      ],
      "stateMutability": "view",
      "type": "function"
    },
    {
      "inputs": [],
      "name": "keysManager",
      "outputs": [
        {
          "internalType": "address",
          "name": "",
          "type": "address"
        }
      ],
      "stateMutability": "view",
      "type": "function"
    },
    {
      "inputs": [
        {
          "internalType": "uint256",
          "name": "osTokenShares",
          "type": "uint256"
        },
        {
          "internalType": "address",
          "name": "owner",
          "type": "address"
        },
        {
          "internalType": "address",
          "name": "receiver",
          "type": "address"
        }
      ],
      "name": "liquidateOsToken",
      "outputs": [],
      "stateMutability": "nonpayable",
      "type": "function"
    },
    {
      "inputs": [],
      "name": "mevEscrow",
      "outputs": [
        {
          "internalType": "address",
          "name": "",
          "type": "address"
        }
      ],
      "stateMutability": "view",
      "type": "function"
    },
    {
      "inputs": [
        {
          "internalType": "address",
          "name": "receiver",
          "type": "address"
        },
        {
          "internalType": "uint256",
          "name": "osTokenShares",
          "type": "uint256"
        },
        {
          "internalType": "address",
          "name": "referrer",
          "type": "address"
        }
      ],
      "name": "mintOsToken",
      "outputs": [
        {
          "internalType": "uint256",
          "name": "assets",
          "type": "uint256"
        }
      ],
      "stateMutability": "nonpayable",
      "type": "function"
    },
    {
      "inputs": [
        {
          "internalType": "bytes[]",
          "name": "data",
          "type": "bytes[]"
        }
      ],
      "name": "multicall",
      "outputs": [
        {
          "internalType": "bytes[]",
          "name": "results",
          "type": "bytes[]"
        }
      ],
      "stateMutability": "nonpayable",
      "type": "function"
    },
    {
      "inputs": [],
      "name": "name",
      "outputs": [
        {
          "internalType": "string",
          "name": "",
          "type": "string"
        }
      ],
      "stateMutability": "view",
      "type": "function"
    },
    {
      "inputs": [
        {
          "internalType": "address",
          "name": "",
          "type": "address"
        }
      ],
      "name": "nonces",
      "outputs": [
        {
          "internalType": "uint256",
          "name": "",
          "type": "uint256"
        }
      ],
      "stateMutability": "view",
      "type": "function"
    },
    {
      "inputs": [
        {
          "internalType": "address",
          "name": "user",
          "type": "address"
        }
      ],
      "name": "osTokenPositions",
      "outputs": [
        {
          "internalType": "uint128",
          "name": "shares",
          "type": "uint128"
        }
      ],
      "stateMutability": "view",
      "type": "function"
    },
    {
      "inputs": [
        {
          "internalType": "address",
          "name": "owner",
          "type": "address"
        },
        {
          "internalType": "address",
          "name": "spender",
          "type": "address"
        },
        {
          "internalType": "uint256",
          "name": "value",
          "type": "uint256"
        },
        {
          "internalType": "uint256",
          "name": "deadline",
          "type": "uint256"
        },
        {
          "internalType": "uint8",
          "name": "v",
          "type": "uint8"
        },
        {
          "internalType": "bytes32",
          "name": "r",
          "type": "bytes32"
        },
        {
          "internalType": "bytes32",
          "name": "s",
          "type": "bytes32"
        }
      ],
      "name": "permit",
      "outputs": [],
      "stateMutability": "nonpayable",
      "type": "function"
    },
    {
      "inputs": [],
      "name": "proxiableUUID",
      "outputs": [
        {
          "internalType": "bytes32",
          "name": "",
          "type": "bytes32"
        }
      ],
      "stateMutability": "view",
      "type": "function"
    },
    {
      "inputs": [],
      "name": "queuedShares",
      "outputs": [
        {
          "internalType": "uint128",
          "name": "",
          "type": "uint128"
        }
      ],
      "stateMutability": "view",
      "type": "function"
    },
    {
      "inputs": [],
      "name": "receiveFromMevEscrow",
      "outputs": [],
      "stateMutability": "payable",
      "type": "function"
    },
    {
      "inputs": [
        {
          "internalType": "uint256",
          "name": "shares",
          "type": "uint256"
        },
        {
          "internalType": "address",
          "name": "receiver",
          "type": "address"
        }
      ],
      "name": "redeem",
      "outputs": [
        {
          "internalType": "uint256",
          "name": "assets",
          "type": "uint256"
        }
      ],
      "stateMutability": "nonpayable",
      "type": "function"
    },
    {
      "inputs": [
        {
          "internalType": "uint256",
          "name": "osTokenShares",
          "type": "uint256"
        },
        {
          "internalType": "address",
          "name": "owner",
          "type": "address"
        },
        {
          "internalType": "address",
          "name": "receiver",
          "type": "address"
        }
      ],
      "name": "redeemOsToken",
      "outputs": [],
      "stateMutability": "nonpayable",
      "type": "function"
    },
    {
      "inputs": [
        {
          "components": [
            {
              "internalType": "bytes32",
              "name": "validatorsRegistryRoot",
              "type": "bytes32"
            },
            {
              "internalType": "uint256",
              "name": "deadline",
              "type": "uint256"
            },
            {
              "internalType": "bytes",
              "name": "validators",
              "type": "bytes"
            },
            {
              "internalType": "bytes",
              "name": "signatures",
              "type": "bytes"
            },
            {
              "internalType": "string",
              "name": "exitSignaturesIpfsHash",
              "type": "string"
            }
          ],
          "internalType": "struct IKeeperValidators.ApprovalParams",
          "name": "keeperParams",
          "type": "tuple"
        },
        {
          "internalType": "bytes32[]",
          "name": "proof",
          "type": "bytes32[]"
        }
      ],
      "name": "registerValidator",
      "outputs": [],
      "stateMutability": "nonpayable",
      "type": "function"
    },
    {
      "inputs": [
        {
          "components": [
            {
              "internalType": "bytes32",
              "name": "validatorsRegistryRoot",
              "type": "bytes32"
            },
            {
              "internalType": "uint256",
              "name": "deadline",
              "type": "uint256"
            },
            {
              "internalType": "bytes",
              "name": "validators",
              "type": "bytes"
            },
            {
              "internalType": "bytes",
              "name": "signatures",
              "type": "bytes"
            },
            {
              "internalType": "string",
              "name": "exitSignaturesIpfsHash",
              "type": "string"
            }
          ],
          "internalType": "struct IKeeperValidators.ApprovalParams",
          "name": "keeperParams",
          "type": "tuple"
        },
        {
          "internalType": "uint256[]",
          "name": "indexes",
          "type": "uint256[]"
        },
        {
          "internalType": "bool[]",
          "name": "proofFlags",
          "type": "bool[]"
        },
        {
          "internalType": "bytes32[]",
          "name": "proof",
          "type": "bytes32[]"
        }
      ],
      "name": "registerValidators",
      "outputs": [],
      "stateMutability": "nonpayable",
      "type": "function"
    },
    {
      "inputs": [
        {
          "internalType": "address",
          "name": "_feeRecipient",
          "type": "address"
        }
      ],
      "name": "setFeeRecipient",
      "outputs": [],
      "stateMutability": "nonpayable",
      "type": "function"
    },
    {
      "inputs": [
        {
          "internalType": "address",
          "name": "keysManager_",
          "type": "address"
        }
      ],
      "name": "setKeysManager",
      "outputs": [],
      "stateMutability": "nonpayable",
      "type": "function"
    },
    {
      "inputs": [
        {
          "internalType": "string",
          "name": "metadataIpfsHash",
          "type": "string"
        }
      ],
      "name": "setMetadata",
      "outputs": [],
      "stateMutability": "nonpayable",
      "type": "function"
    },
    {
      "inputs": [
        {
          "internalType": "bytes32",
          "name": "_validatorsRoot",
          "type": "bytes32"
        }
      ],
      "name": "setValidatorsRoot",
      "outputs": [],
      "stateMutability": "nonpayable",
      "type": "function"
    },
    {
      "inputs": [
        {
          "internalType": "address",
          "name": "_whitelister",
          "type": "address"
        }
      ],
      "name": "setWhitelister",
      "outputs": [],
      "stateMutability": "nonpayable",
      "type": "function"
    },
    {
      "inputs": [],
      "name": "symbol",
      "outputs": [
        {
          "internalType": "string",
          "name": "",
          "type": "string"
        }
      ],
      "stateMutability": "view",
      "type": "function"
    },
    {
      "inputs": [],
      "name": "totalAssets",
      "outputs": [
        {
          "internalType": "uint256",
          "name": "",
          "type": "uint256"
        }
      ],
      "stateMutability": "view",
      "type": "function"
    },
    {
      "inputs": [],
      "name": "totalShares",
      "outputs": [
        {
          "internalType": "uint256",
          "name": "",
          "type": "uint256"
        }
      ],
      "stateMutability": "view",
      "type": "function"
    },
    {
      "inputs": [],
      "name": "totalSupply",
      "outputs": [
        {
          "internalType": "uint256",
          "name": "",
          "type": "uint256"
        }
      ],
      "stateMutability": "view",
      "type": "function"
    },
    {
      "inputs": [
        {
          "internalType": "address",
          "name": "to",
          "type": "address"
        },
        {
          "internalType": "uint256",
          "name": "amount",
          "type": "uint256"
        }
      ],
      "name": "transfer",
      "outputs": [
        {
          "internalType": "bool",
          "name": "",
          "type": "bool"
        }
      ],
      "stateMutability": "nonpayable",
      "type": "function"
    },
    {
      "inputs": [
        {
          "internalType": "address",
          "name": "from",
          "type": "address"
        },
        {
          "internalType": "address",
          "name": "to",
          "type": "address"
        },
        {
          "internalType": "uint256",
          "name": "amount",
          "type": "uint256"
        }
      ],
      "name": "transferFrom",
      "outputs": [
        {
          "internalType": "bool",
          "name": "",
          "type": "bool"
        }
      ],
      "stateMutability": "nonpayable",
      "type": "function"
    },
    {
      "inputs": [
        {
          "components": [
            {
              "internalType": "bytes32",
              "name": "rewardsRoot",
              "type": "bytes32"
            },
            {
              "internalType": "int160",
              "name": "reward",
              "type": "int160"
            },
            {
              "internalType": "uint160",
              "name": "unlockedMevReward",
              "type": "uint160"
            },
            {
              "internalType": "bytes32[]",
              "name": "proof",
              "type": "bytes32[]"
            }
          ],
          "internalType": "struct IKeeperRewards.HarvestParams",
          "name": "harvestParams",
          "type": "tuple"
        }
      ],
      "name": "updateState",
      "outputs": [],
      "stateMutability": "nonpayable",
      "type": "function"
    },
    {
      "inputs": [
        {
          "internalType": "address",
          "name": "receiver",
          "type": "address"
        },
        {
          "internalType": "address",
          "name": "referrer",
          "type": "address"
        },
        {
          "components": [
            {
              "internalType": "bytes32",
              "name": "rewardsRoot",
              "type": "bytes32"
            },
            {
              "internalType": "int160",
              "name": "reward",
              "type": "int160"
            },
            {
              "internalType": "uint160",
              "name": "unlockedMevReward",
              "type": "uint160"
            },
            {
              "internalType": "bytes32[]",
              "name": "proof",
              "type": "bytes32[]"
            }
          ],
          "internalType": "struct IKeeperRewards.HarvestParams",
          "name": "harvestParams",
          "type": "tuple"
        }
      ],
      "name": "updateStateAndDeposit",
      "outputs": [
        {
          "internalType": "uint256",
          "name": "shares",
          "type": "uint256"
        }
      ],
      "stateMutability": "payable",
      "type": "function"
    },
    {
      "inputs": [
        {
          "internalType": "address",
          "name": "account",
          "type": "address"
        },
        {
          "internalType": "bool",
          "name": "approved",
          "type": "bool"
        }
      ],
      "name": "updateWhitelist",
      "outputs": [],
      "stateMutability": "nonpayable",
      "type": "function"
    },
    {
      "inputs": [
        {
          "internalType": "address",
          "name": "newImplementation",
          "type": "address"
        },
        {
          "internalType": "bytes",
          "name": "data",
          "type": "bytes"
        }
      ],
      "name": "upgradeToAndCall",
      "outputs": [],
      "stateMutability": "payable",
      "type": "function"
    },
    {
      "inputs": [],
      "name": "validatorIndex",
      "outputs": [
        {
          "internalType": "uint256",
          "name": "",
          "type": "uint256"
        }
      ],
      "stateMutability": "view",
      "type": "function"
    },
    {
      "inputs": [],
      "name": "validatorsRoot",
      "outputs": [
        {
          "internalType": "bytes32",
          "name": "",
          "type": "bytes32"
        }
      ],
      "stateMutability": "view",
      "type": "function"
    },
    {
      "inputs": [],
      "name": "vaultId",
      "outputs": [
        {
          "internalType": "bytes32",
          "name": "",
          "type": "bytes32"
        }
      ],
      "stateMutability": "pure",
      "type": "function"
    },
    {
      "inputs": [],
      "name": "version",
      "outputs": [
        {
          "internalType": "uint8",
          "name": "",
          "type": "uint8"
        }
      ],
      "stateMutability": "pure",
      "type": "function"
    },
    {
      "inputs": [
        {
          "internalType": "address",
          "name": "",
          "type": "address"
        }
      ],
      "name": "whitelistedAccounts",
      "outputs": [
        {
          "internalType": "bool",
          "name": "",
          "type": "bool"
        }
      ],
      "stateMutability": "view",
      "type": "function"
    },
    {
      "inputs": [],
      "name": "whitelister",
      "outputs": [
        {
          "internalType": "address",
          "name": "",
          "type": "address"
        }
      ],
      "stateMutability": "view",
      "type": "function"
    },
    {
      "inputs": [],
      "name": "withdrawableAssets",
      "outputs": [
        {
          "internalType": "uint256",
          "name": "",
          "type": "uint256"
        }
      ],
      "stateMutability": "view",
      "type": "function"
    },
    {
      "stateMutability": "payable",
      "type": "receive"
    }
  ],
  "bytecode": "0x6101a034620001b057601f6200597a38819003918201601f19168301916001600160401b03831184841017620001b45780849260e094604052833981010312620001b0576200004e81620001c8565b6200005c60208301620001c8565b916200006b60408201620001c8565b926200007a60608301620001c8565b936200008960808401620001c8565b9160c06200009a60a08601620001c8565b9401519460805260a05260c0523060e052620000b5620001dd565b6101009346855261012093845260018060a01b03806101409216825261016092168252610180928352620000e8620001dd565b604051936156fd95866200027d8739608051868181611e9d015281816129f801528181613452015281816139fb01528181613c9b0152614a28015260a05186611aab015260c0518681816146620152614803015260e051868181611c99015261417b01525185612d740152518461301c01525183818161046501528181610a5501528181610e4101528181611462015281816136f70152613e1e015251828181610b3101528181610eed0152818161150e0152613d9d015251818181612d4f0152613a430152f35b5f80fd5b634e487b7160e01b5f52604160045260245ffd5b51906001600160a01b0382168203620001b057565b7ff0c57e16840df040f15088dc2f81fe391c3923bec73e23a9662efc9c229c6a00805460ff8160401c166200026a576001600160401b036002600160401b0319828216016200022b57505050565b6001600160401b031990911681179091556040519081527fc7f505b2f371ae2175ee4913f4499e1f2633a7b5936321eed1cdaeb6115181d290602090a1565b60405163f92ee8a960e01b8152600490fdfe60806040526004361015610022575b3615610018575f80fd5b6100206136c2565b005b5f3560e01c806301e1d114146103d7578063066055e0146103d257806306fdde03146103cd57806307a2d13a146103c8578063095ea7b3146103c35780630d392cd9146103be57806318160ddd1461038257806318f72950146103b95780631a7ff553146103b4578063201b9eb5146103af57806322758a4a146103aa57806323b872dd146103a55780632999ad3f146103a05780632cdf74011461039b578063313ce567146103965780633229fa951461039157806333194c0a1461038c5780633644e515146103875780633a98ef3914610382578063439fab911461037d57806343e82a791461037857806346904840146103735780634ec96b221461036e5780634f1ef28614610369578063514e27081461036457806352d1902d1461035f57806353156f281461035a57806354fd4d50146103555780635c60da1b146103505780635cfc1a511461034b5780635dddf3a81461034657806360d60e6e1461034157806370a08231146102d357806372b410a81461033c57806376b58b90146103375780637bde82f2146103325780637ecebe001461032d5780637fd6f15c146103285780638697d2c2146103235780638ceab9aa1461031e57806395d89b41146103195780639b401cde14610314578063a1bf49aa1461030f578063a49a1e7d1461030a578063a9059cbb14610305578063aaa4e83614610300578063ac9650d8146102fb578063ad3cb1cc146102f6578063c6e6f592146102f1578063d505accf146102ec578063d83ad00c146102e7578063dd62ed3e146102e2578063e74b981b146102dd578063ef2a2158146102d8578063f04da65b146102d3578063f5e9de4d146102ce578063f6a6830f146102c9578063f851a440146102c4578063f9609f08146102bf5763f98f5b920361000e57612bb0565b612b9c565b612b74565b612b33565b6129a0565b611e37565b612918565b6128dd565b612899565b61284e565b61262d565b612604565b6125bf565b6124db565b6123da565b61239c565b612345565b612327565b612309565b612265565b6120f2565b6120cd565b6120a9565b61206e565b611f50565b611eff565b611e72565b611d97565b611d7d565b611d63565b611d2f565b611d14565b611cf0565b611c87565b611c19565b611993565b61189e565b611876565b611437565b61131e565b610927565b6112bb565b611281565b611255565b61123a565b611220565b610e17565b610d3b565b610d12565b6109e5565b6109b2565b61095b565b610858565b6107ac565b610775565b6106af565b61040a565b6103ea565b5f9103126103e657565b5f80fd5b346103e6575f3660031901126103e657602060cf5460801c604051908152f35b346103e65760203660031901126103e6576001600160801b03600435818116908181036103e657604051633b9e9f0160e21b81523360048201526001600160801b0382166024820152916020836044815f6001600160a01b037f0000000000000000000000000000000000000000000000000000000000000000165af19283156105b0575f9361057f575b50335f90815261016e602052604090206104ae90612bf7565b936104c085516001600160801b031690565b161561056d57836105026104f56104e561051b946104e0610569996136e2565b613792565b83516001600160801b0316612c30565b6001600160801b03168252565b335f90815261016e60205260409020612c49565b612c49565b604080518381526001600160801b0392909216602083015233917f3f7354ba02880b4fa37a629985852a38417ff369369ce1e52fa6f8342a9100a79190a26040519081529081906020820190565b0390f35b60405163673f032f60e11b8152600490fd5b6105a291935060203d6020116105a9575b61059a8183610634565b810190612bdd565b915f610495565b503d610590565b612bec565b90600182811c921680156105e3575b60208310146105cf57565b634e487b7160e01b5f52602260045260245ffd5b91607f16916105c4565b634e487b7160e01b5f52604160045260245ffd5b604081019081106001600160401b0382111761061c57604052565b6105ed565b6001600160401b03811161061c57604052565b90601f801991011681019081106001600160401b0382111761061c57604052565b5f5b8381106106665750505f910152565b8181015183820152602001610657565b9060209161068f81518092818552858086019101610655565b601f01601f1916010190565b9060206106ac928181520190610676565b90565b346103e6575f3660031901126103e6576040515f80546106ce816105b5565b8084529060209060019081811690811561074b5750600114610707575b610569856106fb81870382610634565b6040519182918261069b565b5f80805293505f805160206156288339815191525b838510610738575050505081016020016106fb826105696106eb565b805486860184015293820193810161071c565b869550610569969350602092506106fb94915060ff191682840152151560051b82010192936106eb565b346103e65760203660031901126103e6576020610793600435612c72565b604051908152f35b6001600160a01b038116036103e657565b346103e65760403660031901126103e6576004356107c98161079b565b6001600160a01b0381169060243590821561083c576108048291335f52600260205260405f209060018060a01b03165f5260205260405f2090565b556040519081527f8c5be1e5ebec7d5bd14f71427d1e84f3dd0314c0f7b2291e5b200ac8c7c3b92560203392a3602060405160018152f35b60405163d92e233d60e01b8152600490fd5b801515036103e657565b346103e6576040806003193601126103e6576004356108768161079b565b602435906108838261084e565b61026a546001600160a01b03919082163303610916571691825f5261026b918260205260ff825f20541692811515809415151461090557906108d991855f52602052825f209060ff801983541691151516179055565b519081527fd9c6c3eabe38e3b9a606a66358d8f225489216a59eeba66facefb7d91663526660203392a3005b8251637d5bf36f60e11b8152600490fd5b8351634ca8886760e01b8152600490fd5b346103e6575f3660031901126103e65760206001600160801b0360cf5416604051908152f35b908160809103126103e65790565b60603660031901126103e6576004356109738161079b565b60243561097f8161079b565b604435906001600160401b0382116103e6576020926109ad6109a861079394369060040161094d565b612c98565b6135ab565b346103e65760203660031901126103e6576004356001600160401b0381116103e6576109a861002091369060040161094d565b346103e65760603660031901126103e6576004803590610a048261079b565b6024359060443592610a158461079b565b610a1d613c5f565b610a25613c80565b604080516329460cc560e11b81526001600160a01b038381168286019081526020818101889052929693959192907f00000000000000000000000000000000000000000000000000000000000000008416908290899081908a0103815f855af19788156105b0575f98610cf3575b50335f90815261016e602052604090208390610aae90612bf7565b946001600160801b03610ac887516001600160801b031690565b1615610c9157610ad7866136e2565b610b03610af6610ae689613792565b88516001600160801b0316612cec565b6001600160801b03168752565b335f90815260d3602052604090208490610b1e905b54612c72565b918a5193848092631331885160e31b82527f0000000000000000000000000000000000000000000000000000000000000000165afa9182156105b057610bad928592610b71925f92610c72575b506137e8565b92610b8387516001600160801b031690565b908a5180809581946303d1689d60e11b83528a83019190916001600160801b036020820193169052565b03915afa9283156105b0575f93610c53575b505010610c455750947fa16d97739893e1436c9753925fb5cef174c4f368699dc86cc8fdb0e6e60f8e5891610c0c610569976105163360018060a01b03165f5261016e60205260405f2090565b84516001600160a01b039485168152602081018790526040810191909152921660608301523391608090a2519081529081906020820190565b8451633684c65960e01b8152fd5b610c6a929350803d106105a95761059a8183610634565b905f80610bbf565b610c8a919250843d86116105a95761059a8183610634565b905f610b6b565b885163752a536d60e01b8152915083828681865afa80156105b057610cc2610cd19187945f91610cd6575b50613792565b6001600160801b031687860152565b610ad7565b610ced9150873d89116105a95761059a8183610634565b5f610cbc565b610d0b919850823d84116105a95761059a8183610634565b965f610a93565b346103e6575f3660031901126103e65761026a546040516001600160a01b039091168152602090f35b346103e65760603660031901126103e657600435610d588161079b565b60243590610d658261079b565b6001600160a01b0381165f8181526002602090815260408083203384529091529020546044359160018201610db5575b610da984610da4858883614a7c565b613d0b565b60405160018152602090f35b919093818503948511610de9575f928352600260209081526040808520338652909152909220939093559180610da9610d95565b612c1c565b60609060031901126103e65760043590602435610e0a8161079b565b906044356106ac8161079b565b346103e657610e2536610dee565b906001600160a01b038083161561083c57610e3e613c80565b807f00000000000000000000000000000000000000000000000000000000000000001691823b156103e65760408051631d8557d760e01b815260049491905f81878183875af180156105b057611207575b506001600160a01b0383165f90815261016e60205260409020610eb190612bf7565b6001600160801b03610eca82516001600160801b031690565b16156111f757610ed9816136e2565b81516330fe427560e21b81529260a08488817f00000000000000000000000000000000000000000000000000000000000000008a165afa9687156105b057610f48975f955f916111be575b5084516303d1689d60e11b918282528c828060209d8e938883019190602083019252565b0381885afa80156105b057610f63925f916111a157506137e8565b95610f81610b188960018060a01b03165f5260d360205260405f2090565b918288118015611191575b61118157908a610fc992610fa788516001600160801b031690565b908951948592839283528883019190916001600160801b036020820193169052565b0381885afa9081156105b057670de0b6b3a764000093611005938d5f94611158575b5050610ff9610fff9161340e565b9261342b565b91613862565b101561114a578351633b9e9f0160e21b815233918101918252602082018b905294939291889186919082905f90829060400103925af19081156105b0577f61fd285f9e34a3dbfa9846bdcf22a023e37a3c93549902843b30dd74a18c5350976111279561109f9361112c575b50506110826104f56104e58c613792565b6001600160a01b0386165f90815261016e60205260409020612c49565b6110a882614438565b906110e66110cb6110b885613792565b60cf5460801c036001600160801b031690565b6001600160801b0360cf549181199060801b1691161760cf55565b6110f0828661510e565b6110fa838961438a565b51948594169733978590949392606092608083019660018060a01b03168352602083015260408201520152565b0390a3005b8161114292903d106105a95761059a8183610634565b505f80611071565b835163185cfc6d60e11b8152fd5b610fff929450610ff9918161117892903d106105a95761059a8183610634565b9391508d610feb565b865163efda1a2760e01b81528490fd5b5061119a612d07565b8811610f8c565b6111b891508c8d3d106105a95761059a8183610634565b5f610b6b565b90506111e391955060a03d60a0116111f0575b6111db8183610634565b810190613ea4565b509692509050945f610f24565b503d6111d1565b815163673f032f60e11b81528690fd5b8061121461121a92610621565b806103dc565b5f610e8f565b346103e6575f3660031901126103e6576020610793612d07565b346103e6575f3660031901126103e657602060405160128152f35b346103e6575f3660031901126103e657602061126f612d36565b6040516001600160a01b039091168152f35b346103e6575f3660031901126103e65760206040517f3c60bf85548481aa53872c99e20f566d08c7fc12e0f05302f4002dedc8d45e4d8152f35b346103e6575f3660031901126103e6576020610793612d71565b9060206003198301126103e6576004356001600160401b03928382116103e657806023830112156103e65781600401359384116103e657602484830101116103e6576024019190565b611327366112d5565b905f805160206156a883398151915254916001600160401b0360ff8460401c161593168015908161142f575b6001149081611425575b15908161141c575b5061140a575f805160206156a8833981519152805467ffffffffffffffff1916600117905561139891836113e657612e84565b61139e57005b5f805160206156a8833981519152805460ff60401b19169055604051600181527fc7f505b2f371ae2175ee4913f4499e1f2633a7b5936321eed1cdaeb6115181d290602090a1005b5f805160206156a8833981519152805460ff60401b1916600160401b179055612e84565b60405163f92ee8a960e01b8152600490fd5b9050155f611365565b303b15915061135d565b849150611353565b346103e65761144536610dee565b906001600160a01b03908183161561083c5761145f613c80565b817f000000000000000000000000000000000000000000000000000000000000000016803b156103e65760408051631d8557d760e01b815260049291905f81858183875af180156105b057611863575b506001600160a01b0384165f90815261016e602052604090206114d190612bf7565b926001600160801b036114eb85516001600160801b031690565b1615611855576114fa846136e2565b81516330fe427560e21b81529360a08583817f00000000000000000000000000000000000000000000000000000000000000008b165afa9384156105b0575f955f95611827575b5083516303d1689d60e11b8082528482018c81529197602094939285908a90819083015b0381865afa9889156105b0575f99611808575b506001600160a01b038a165f90815260d36020526040902061159990610b18565b90818a1180156117f8575b6117e8576115df90866115be87516001600160801b031690565b8a51809481928883528c83019190916001600160801b036020820193169052565b0381885afa9182156105b0575f926117c7575b506115fd91926137e8565b116117b7578551633b9e9f0160e21b815233868201908152602081018e905290919085908390819060400103815f875af19182156105b057859261179a575b506116468d613792565b84516001600160801b03169061165b91612c30565b6001600160801b031684526001600160a01b038a165f90815261016e602052604090208461168891612c49565b61169189614438565b9761169b8a613792565b60cf5460801c036001600160801b03166116ca906001600160801b0360cf549181199060801b1691161760cf55565b6116d4898c61510e565b6001600160a01b038b165f90815260d360205260409020546116f590612c72565b906116ff916137e8565b935187519182526001600160801b0316868201908152909283918290036020019082905afa9283156105b0575f9361177b575b50501161176d575091611127917f57f5eb636bf62215c111b54545422f11dfb0cb115f606be905f0be08e8859dd39594936110fa838961438a565b9051631d8fa13d60e31b8152fd5b611792929350803d106105a95761059a8183610634565b905f80611732565b6117b090833d85116105a95761059a8183610634565b505f61163c565b855163324b20e160e11b81528590fd5b6115fd92506117e290883d8a116105a95761059a8183610634565b916115f2565b875163efda1a2760e01b81528790fd5b50611801612d07565b8a116115a4565b611820919950853d87116105a95761059a8183610634565b975f611578565b61156592965061184791955060a03d60a0116111f0576111db8183610634565b505050959095949091611541565b905163673f032f60e11b8152fd5b8061121461187092610621565b5f6114af565b346103e6575f3660031901126103e657609c546040516001600160a01b039091168152602090f35b346103e65760203660031901126103e6576004356118bb8161079b565b60018060a01b03165f5261016e602052602060405f20604051906118de82610601565b54906001600160801b03918281169081835260801c84830152611906575b5116604051908152f35b61190f816136e2565b6118fc565b6040519060a082018281106001600160401b0382111761061c57604052565b6040519061194082610601565b565b6001600160401b03811161061c57601f01601f191660200190565b92919261196982611942565b916119776040519384610634565b8294818452818301116103e6578281602093845f960137010152565b6040806003193601126103e65760049081356119ae8161079b565b6024356001600160401b0381116103e657366023820112156103e6576119dd903690602481870135910161195d565b916119e6614171565b805192611a1d84611a0f60209363439fab9160e01b858401528460248401526044830190610676565b03601f198101865285610634565b611a25614171565b611a2d614424565b6001600160a01b03838116801592919087908415611be4575b8415611b76575b8415611b12575b50508215611a7c575b5050611a6d576100208383614d4b565b516355299b4960e01b81528390fd5b83516345da87c560e01b81526001600160a01b03861688820190815292935091839183918290819060200103917f0000000000000000000000000000000000000000000000000000000000000000165afa9182156105b0575f92611ae5575b5050155f80611a5d565b611b049250803d10611b0b575b611afc8183610634565b810190612f75565b5f80611adb565b503d611af2565b855163054fd4d560e41b81529294508391839182905afa9081156105b05760029160ff915f91611b49575b5016141591865f611a54565b611b699150843d8611611b6f575b611b618183610634565b810190614d36565b5f611b3d565b503d611b57565b935050835163198ca60560e11b815282818981875afa9081156105b05788917f3c60bf85548481aa53872c99e20f566d08c7fc12e0f05302f4002dedc8d45e4d915f91611bc7575b50141593611a4d565b611bde9150853d87116105a95761059a8183610634565b5f611bbe565b5f80516020615648833981519152549094508490611c12906001600160a01b03165b6001600160a01b031690565b1493611a46565b346103e65760203660031901126103e6576004356001600160a01b03611c3d612f54565b163303611c755780610107555f61010855337fbe9758e2d6800505eeb0292a08fe647c52762ccea131177456e7062dd77b41065f80a3005b604051634ca8886760e01b8152600490fd5b346103e6575f3660031901126103e6577f00000000000000000000000000000000000000000000000000000000000000006001600160a01b03163003611cde5760206040515f805160206156488339815191528152f35b60405163703e46dd60e11b8152600490fd5b5f3660031901126103e6576001600160a01b03611d0b612d36565b163303611c7557005b346103e6575f3660031901126103e657602060405160018152f35b346103e6575f3660031901126103e6575f80516020615648833981519152546040516001600160a01b039091168152602090f35b346103e6575f3660031901126103e6576020610793612f46565b346103e6575f3660031901126103e657602061126f612f54565b346103e65760203660031901126103e65760d180549081905f6004355b848210611de557505050811015611dda57610569905b6040519081529081906020820190565b506105695f19611dca565b909193808316906001818518811c8301809311610de9575f8790525f805160206156888339815191528301546001600160a01b0316841015611e2c575050935b9190611db4565b909591019250611e25565b346103e65760203660031901126103e657600435611e548161079b565b60018060a01b03165f5260d3602052602060405f2054604051908152f35b346103e6575f3660031901126103e657604051633eb1acf760e11b81523060048201526020816024817f00000000000000000000000000000000000000000000000000000000000000006001600160a01b03165afa80156105b0576020915f91611ee2575b506040519015158152f35b611ef99150823d8411611b0b57611afc8183610634565b5f611ed7565b346103e65760803660031901126103e657610569611f33600435611f228161079b565b606435906044359060243590612f97565b604080519384526020840192909252908201529081906060820190565b346103e6576040806003193601126103e65760043560243591611f728361079b565b611f7a615541565b811561205e576001600160a01b038316801561204d57611f9983612c72565b92831561203c57611fa8612d07565b841161202b57611fdf8461056996611fd06110cb611fc584613792565b60cf5460801c612c30565b611fda843361510e565b61438a565b8251848152602081019190915233907f5cdf07ad0fc222442720b108e3ed4c4640f0fadc2ab2253e66f259a0fea8348090604090a361201d33613d0b565b519081529081906020820190565b82516396d8043360e01b8152600490fd5b82516318374fd160e21b8152600490fd5b815163d92e233d60e01b8152600490fd5b51636edcc52360e01b8152600490fd5b346103e65760203660031901126103e65760043561208b8161079b565b60018060a01b03165f526003602052602060405f2054604051908152f35b346103e6575f3660031901126103e657602061ffff609c5460a01c16604051908152f35b346103e65760603660031901126103e657610569611f33604435602435600435613011565b346103e6576040806003193601126103e65760043590602435906121158261079b565b61211d613c5f565b821561205e576001600160a01b03821692831561204d57610569936121fe6121e28361216061215460d0546001600160801b031690565b6001600160801b031690565b816121c061217583612170615561565b613004565b89516001600160a01b03909b1660208c019081524260408d015260608c01829052909a6121af81608081015b03601f198101835282610634565b5190205f5260d260205260405f2090565b55335f90815260d3602052604090206121da838254612f8a565b905501613792565b6001600160801b03166001600160801b031960d054161760d055565b82518481526020810183905233907f211091c5bf013c1230f996c3bb2bc327e3de429a3d3c356dcea9a0c858bc407f90604090a361223b33613d0b565b8151908152309033905f8051602061566883398151915290602090a3519081529081906020820190565b346103e6575f3660031901126103e6576040515f60018054612286816105b5565b808552916020916001811690811561074b57506001146122b057610569856106fb81870382610634565b60015f90815293507fb10e2d527612073b26eecdfd717e6a320cf44b4afac2b0732d9fcbe2b7fa0cf65b8385106122f6575050505081016020016106fb826105696106eb565b80548686018401529382019381016122da565b346103e6575f3660031901126103e657602061010754604051908152f35b346103e6575f3660031901126103e657602061010854604051908152f35b346103e6576123977f2013570c343af8ab14a9778150e381a0fda34ed6368127a95fd5e7210cbec5bf612377366112d5565b9290612381614424565b60405191829160208352339560208401916131a5565b0390a2005b346103e65760403660031901126103e6576123c66004356123bc8161079b565b6024359033614a7c565b6123cf33613d0b565b602060405160018152f35b346103e65760203660031901126103e6576004356123f78161079b565b6123ff614424565b6001600160a01b0316801561083c5761010980546001600160a01b03191682179055337fb710e1d0ebf395f895942ac4e559a4a86d57f748a90cf05e9d70798c67e9c65b5f80a3005b9181601f840112156103e6578235916001600160401b0383116103e6576020808501948460051b0101116103e657565b6020808201906020835283518092526040830192602060408460051b8301019501935f915b8483106124ad5750505050505090565b90919293949584806124cb600193603f198682030187528a51610676565b980193019301919493929061249d565b346103e65760203660031901126103e657600480356001600160401b0381116103e65761250c903690600401612448565b91612516836131dc565b925f5b81811061252e57604051806105698782612478565b5f8061253b83858861326b565b6040939161254d85518093819361328b565b0390305af49061255b613298565b91156125825750906001916125708288613332565b5261257b8187613332565b5001612519565b848260448151106103e6576125a681836125bb9301516024809183010191016132c7565b925162461bcd60e51b8152928392830161069b565b0390fd5b346103e6575f3660031901126103e6576105696040516125de81610601565b60058152640352e302e360dc1b6020820152604051918291602083526020830190610676565b346103e65760203660031901126103e6576020610793600435614438565b60ff8116036103e657565b346103e65760e03660031901126103e65760043561264a8161079b565b6024356126568161079b565b60443590606435926084359061266b82612622565b6001600160a01b0383811695909290861561083c5742811061283c576020915f9161275e61276a89878a6127216126a0612d71565b6001600160a01b0384165f9081526003602052604090209097908054906001820190556040519586948d8601968791959493909260a09360c08401977f6e71edae12b1b97f4d1f60370fef10105fa2faae0126114a169c64845d6126c98552600180871b038092166020860152166040840152606083015260808201520152565b0391612735601f1993848101835282610634565b5190206040519384918983019687909160429261190160f01b8352600283015260228201520190565b03908101835282610634565b5190206040805191825260ff92909216602082015260a4359181019190915260c435606082015281805260809060015afa156105b0575f5192828416801590811561282f575b5061281d5761280a85916127f57f8c5be1e5ebec7d5bd14f71427d1e84f3dd0314c0f7b2291e5b200ac8c7c3b9259660018060a01b03165f52600260205260405f2090565b9060018060a01b03165f5260205260405f2090565b5560405193845216918060208101611127565b6040516323389ba560e21b8152600490fd5b905083831614155f6127b0565b604051631ab7da6b60e01b8152600490fd5b346103e6575f3660031901126103e65760206001600160801b0360d05416604051908152f35b60409060031901126103e65760043561288c8161079b565b906024356106ac8161079b565b346103e65760206128d46128ac36612874565b6001600160a01b039182165f9081526002855260408082209290931681526020919091522090565b54604051908152f35b346103e65760203660031901126103e6576100206004356128fd8161079b565b612905614424565b6144c7565b908160a09103126103e65790565b346103e65760803660031901126103e6576001600160401b036004358181116103e65761294990369060040161290a565b6024358281116103e657612961903690600401612448565b6044929192358481116103e65761297c903690600401612448565b916064359586116103e657612998610020963690600401612448565b959094613442565b346103e6576040806003193601126103e6576004906001600160401b0382358181116103e6576129d3903690850161290a565b906024359081116103e6576129eb9036908501612448565b9390926129f6613c80565b7f00000000000000000000000000000000000000000000000000000000000000006001600160a01b0316803b156103e6575f8251809263837d444160e01b8252818381612a458a8a8301613377565b03925af180156105b057612b20575b506801bc16d674ec800000612a67612d07565b10612b13578083019360b0612a7c8686613239565b905003612b0557612ad0612ad49161010854976101075490612ac3612abb8b612aa58c8c613239565b6121a18b94929451938492602084019687613577565b519020613594565b60208151910120926147bd565b1590565b612af857610020600186612af1612aeb8888613239565b906147f5565b0161010855565b516309bde33960e01b8152fd5b5051631a0a9b9f60e21b8152fd5b516396d8043360e01b8152fd5b80611214612b2d92610621565b5f612a54565b346103e65760203660031901126103e657600435612b508161079b565b60018060a01b03165f5261026b602052602060ff60405f2054166040519015158152f35b346103e6575f3660031901126103e6576037546040516001600160a01b039091168152602090f35b6020610793612baa36612874565b906135ab565b346103e65760203660031901126103e657610020600435612bd08161079b565b612bd8614424565b614908565b908160209103126103e6575190565b6040513d5f823e3d90fd5b90604051612c0481610601565b91546001600160801b038116835260801c6020830152565b634e487b7160e01b5f52601160045260245ffd5b6001600160801b039182169082160391908211610de957565b815160209092015160801b6001600160801b0319166001600160801b0392909216919091179055565b60cf546001600160801b0381169081612c8a57505090565b916106ac9260801c90613862565b612ca1906139ca565b9080612cdd575b50612caf57565b612cb7615011565b80612cc0575b50565b5f906040519081525f8051602061566883398151915260203092a3565b612ce690613b60565b5f612ca8565b9190916001600160801b0380809416911601918211610de957565b4760d054612d1d6001600160801b038216612c72565b9060801c01908181115f14612d30570390565b50505f90565b6101a1546001600160a01b03168015612d4c5790565b507f000000000000000000000000000000000000000000000000000000000000000090565b467f000000000000000000000000000000000000000000000000000000000000000003612d9e5760045490565b6106ac613ecb565b908160209103126103e657516106ac8161079b565b359061ffff821682036103e657565b9080601f830112156103e6578160206106ac9335910161195d565b906020828203126103e65781356001600160401b03928382116103e657019060a0828203126103e657612e16611914565b9282358452612e2760208401612dbb565b602085015260408301358181116103e65782612e44918501612dca565b604085015260608301358181116103e65782612e61918501612dca565b606085015260808301359081116103e657612e7c9201612dca565b608082015290565b60405163e7f6f22560e01b815290916020908183600481335afa9283156105b0575f93612f27575b50604051636f4fa30f60e01b8152938285600481335afa9081156105b05761194095612eef945f93612ef4575b5050612ee89192810190612de5565b9083613ff1565b6140e3565b612ee893509081612f1992903d10612f20575b612f118183610634565b810190612da6565b915f612ed9565b503d612f07565b612f3f919350823d8411612f2057612f118183610634565b915f612eac565b60d454806106ac57505f1990565b610109546001600160a01b0390811680612f7057506037541690565b905090565b908160209103126103e657516106ac8161084e565b91908203918211610de957565b604080516001600160a01b039092166020830190815290820193909352606081018290529092612fe7929091612fd081608081016121a1565b5190205f5260d260205260405f20549283916141ef565b9091828103908111610de95792565b9060018201809211610de957565b91908201809211610de957565b929190915f936130417f000000000000000000000000000000000000000000000000000000000000000085613004565b421061317b5760408051336020820190815291810186905260608082018490528152601f199161308291613076608082610634565b51902094868433612f97565b909690958787811561316d5750505f90815260d2602052604081205560018211613126575b5050506130df6130c46130b985613792565b60d05460801c612c30565b6001600160801b0360d0549181199060801b1691161760d055565b6130e9833361438a565b6040805191825260208201869052810183905233907feb3b05c070c24f667611fdb3ff75fe007d42401c573aed8d8faca95fd00ccb5690606090a2565b613164919297506131378785613004565b604080513360208201908152918101939093526060830182905290989091906121af90826080810161275e565b555f80806130a7565b959950975093955050505050565b604051631613b7eb60e01b8152600490fd5b90603060609281835260208301375f60508201520190565b908060209392818452848401375f828201840152601f01601f1916010190565b6001600160401b03811161061c5760051b60200190565b906131e6826131c5565b6131f36040519182610634565b8281528092613204601f19916131c5565b01905f5b82811061321457505050565b806060602080938501015201613208565b634e487b7160e01b5f52603260045260245ffd5b903590601e19813603018212156103e657018035906001600160401b0382116103e6576020019181360383136103e657565b90821015613286576132829160051b810190613239565b9091565b613225565b908092918237015f815290565b3d156132c2573d906132a982611942565b916132b76040519384610634565b82523d5f602084013e565b606090565b6020818303126103e6578051906001600160401b0382116103e6570181601f820112156103e65780516132f981611942565b926133076040519485610634565b818452602082840101116103e6576106ac9160208085019101610655565b8051156132865760200190565b80518210156132865760209160051b010190565b9035601e19823603018112156103e65701602081359101916001600160401b0382116103e65781360383136103e657565b9060a06106ac926020815282356020820152602083013560408201526133b36133a36040850185613346565b84606085015260c08401916131a5565b906133e66133db6133c76060870187613346565b601f198587038101608087015295916131a5565b946080810190613346565b939092828603019101526131a5565b906801bc16d674ec8000009180830292830403610de957565b90670de0b6b3a764000091828102928184041490151715610de957565b9061271091828102928184041490151715610de957565b929094939195613450613c80565b7f00000000000000000000000000000000000000000000000000000000000000006001600160a01b031695863b156103e6576040965f8851809263837d444160e01b82528183816134a48c60048301613377565b03925af180156105b057613564575b506134bc612d07565b6134c5896133f5565b116135535787158015613539575b61352857916135049593916134fe89612ad097956134f861010754978c810190613239565b90614637565b946147ab565b613518575061194090610108540161010855565b516309bde33960e01b8152600490fd5b8651631c6c4cf360e31b8152600490fd5b5061354687860186613239565b905060b0890214156134d3565b86516396d8043360e01b8152600490fd5b8061121461357192610621565b5f6134b3565b93929160209161358f916040875260408701916131a5565b930152565b906040519160208301526020825261194082610601565b919091335f5261026b60205260409260ff845f205416806136a7575b15610916576135d4613c80565b6001600160a01b03821691821561369657341561368557346135fb61215460cf5460801c90565b0190613605612f46565b8211613674579461364f7f861a4138e41fb21c121a7dbb1053df465c837fc77380cc7226189a662281be2c926110cb969761364a6136423461446f565b988993613792565b614fa9565b51348152602081018590526001600160a01b039290921660408301523391606090a390565b85516304ffa0ff60e51b8152600490fd5b84516318374fd160e21b8152600490fd5b845163d92e233d60e01b8152600490fd5b506001600160a01b0382165f9081528490205460ff166135c7565b335f5261026b60205260ff60405f20541615611c7557612cbd343361494f565b60405163752a536d60e01b81526020816004817f00000000000000000000000000000000000000000000000000000000000000006001600160a01b03165afa9081156105b0575f91613773575b5060208201916001600160801b0391828451169182821461376c578361375f6104e0613767958584865116613862565b169052613792565b169052565b5050505050565b61378c915060203d6020116105a95761059a8183610634565b5f61372f565b6001600160801b03908181116137a6571690565b604490604051906306dfcc6560e41b8252608060048301526024820152fd5b634e487b7160e01b5f52601260045260245ffd5b81156137e3570490565b6137c5565b90808202905f1981840990828083109203918083039214613857576127109082821115613845577fbc01a36e2eb1c432ca57a786c226809d495182a9930be0ded288ce703afb7e91940990828211900360fc1b910360041c170290565b60405163227bc15360e01b8152600490fd5b505061271091500490565b9091828202915f19848209938380861095039480860395146138d5578483111561384557829109815f038216809204600280826003021880830282030280830282030280830282030280830282030280830282030280920290030293600183805f03040190848311900302920304170290565b5050906106ac92506137d9565b908160609103126103e657805191604060208301519201516106ac8161084e565b81835290916001600160fb1b0383116103e65760209260051b809284830137010190565b90602082528035602083015260208101358060130b8091036103e657604083015260408101356139568161079b565b6001600160a01b031660608381019190915281013536829003601e19018112156103e65701602081359101906001600160401b0381116103e6578060051b360382136103e65760a0836080806106ac9601520191613903565b9190915f8382019384129112908015821691151617610de957565b6040516325f56f1160e01b81526001600160a01b039291606090829081906139f59060048301613927565b03815f877f0000000000000000000000000000000000000000000000000000000000000000165af19283156105b0575f915f905f95613b1b575b508415613ac85781613a3f612d36565b16917f0000000000000000000000000000000000000000000000000000000000000000168214613ac157509060205f92600460405180958193634641257d60e01b83525af19081156105b057613a9c925f92613aa0575b506139af565b9190565b613aba91925060203d6020116105a95761059a8183610634565b905f613a96565b9081613ace575b50509190565b803b156103e657604051636ee3193160e11b815260048101929092525f908290602490829084905af180156105b057613b08575b80613ac8565b80611214613b1592610621565b5f613b02565b91945050613b41915060603d606011613b49575b613b398183610634565b8101906138e2565b93905f613a2f565b503d613b2f565b600160ff1b8114610de9575f0390565b613b6f61215460cf5460801c90565b5f8212613c465781613b8091613004565b90613b8d6110cb83613792565b613ba2609c549161ffff8360a01c16906137e8565b8015613c4157807f555ee6b2ef9506d870f386c067e47d3689435330b012ad263d8cc3531868654793613be061215460cf546001600160801b031690565b80613c2b575050613c2690925b6001600160a01b031691613c018484614fa9565b60405193849384604091949392606082019560018060a01b0316825260208201520152565b0390a1565b613c2692613c3b92039084613862565b92613bed565b505050565b6104e06110cb91613c5961194094613b50565b90612f8a565b613c67614a0d565b15613c6e57565b604051630a62fbdb60e11b8152600490fd5b604051633eb1acf760e11b81523060048201526020816024817f00000000000000000000000000000000000000000000000000000000000000006001600160a01b03165afa9081156105b0575f91613cec575b50613cda57565b60405163e775715160e01b8152600490fd5b613d05915060203d602011611b0b57611afc8183610634565b5f613cd3565b6001600160a01b0381165f90815261016e60205260409020613d2c90612bf7565b906001600160801b03613d4683516001600160801b031690565b1615613ea057610b18613d7d91613d5b613c80565b613d64846136e2565b6001600160a01b03165f90815260d36020526040902090565b604051631331885160e31b8152602092916001600160a01b0384836004817f000000000000000000000000000000000000000000000000000000000000000085165afa9182156105b057613de08693613dee92613e1a965f92613e8857506137e8565b94516001600160801b031690565b6040516303d1689d60e11b81526001600160801b03909116600482015292839190829081906024820190565b03917f0000000000000000000000000000000000000000000000000000000000000000165afa9283156105b0575f93613e69575b505010613e5757565b604051633684c65960e01b8152600490fd5b613e80929350803d106105a95761059a8183610634565b905f80613e4e565b610c8a919250863d88116105a95761059a8183610634565b5050565b908160a09103126103e6578051916020820151916040810151916080606083015192015190565b6040515f905f5490613edc826105b5565b9283825260209384830193600190866001821691825f14613fd1575050600114613f8e575b50509181613f17613f88936121a1950382610634565b519020604080517f8b73c3c69bb8fe3d512ecc4cf759cc79239f7b179b0ffacaa9a75d522b39400f95810195865260208601929092527fc89efdaa54c0f20c7adf612882df0950f5a951637e0307cdcb4c672f298b8bc69085015246606085015230608085015291829060a0850190565b51902090565b5f80805286935091905f805160206156288339815191525b828410613fbc5750505082010181613f17613f01565b80548685018601528794909301928101613fa6565b60ff1916875292151560051b85019092019250839150613f179050613f01565b919091613ffc614af8565b6080820151614009614af8565b603780546001600160a01b0319166001600160a01b03841617905560405133917f2013570c343af8ab14a9778150e381a0fda34ed6368127a95fd5e7210cbec5bf91908190614058908261069b565b0390a2602082015192614069614af8565b61271061ffff8516116140d1576140c9936140866140b9936144c7565b609c549061ffff60a01b9060a01b169061ffff60a01b191617609c556140ac8351614b26565b6140b4614b56565b614b77565b6060604082015191015190614ba6565b611940614cd3565b604051638a81d3b360e01b8152600490fd5b6140eb614af8565b6140f481614908565b6001600160a01b03165f81815261026b602081905260409091205460ff16151560011461415f57815f5260205260405f20600160ff19825416179055604051600181527fd9c6c3eabe38e3b9a606a66358d8f225489216a59eeba66facefb7d91663526660203392a3565b604051637d5bf36f60e11b8152600490fd5b6001600160a01b037f000000000000000000000000000000000000000000000000000000000000000081163081149182156141af575b5050611cde57565b5f805160206156488339815191525416141590505f806141a7565b906040516141d781610601565b91546001600160a01b038116835260a01c6020830152565b60d1545f948594939091808410801590614382575b614375578361433f575f5b60d15f526001600160a01b03166142345f8051602061568883398151915286016141ca565b805190979061424b906001600160a01b0316611c06565b986142706142646020809b01516001600160601b031690565b6001600160601b031690565b948381108015614335575b6143235791600193979a9561429a6142a6939488035b838c0390614df6565b80920198870391613862565b01970193808611801590614319575b61430e5760d15f5282906142d75f8051602061568883398151915287016141ca565b805190890151969992966001600160a01b0390911694600193926142a69290916001600160601b039091169061429a908803614291565b945050509250509190565b50818510156142b5565b60405163e8722f8f60e01b8152600490fd5b50808b111561427b565b60d15f527f695fb3134ad82c3b8022bc5464edd0bcc9424ef672b52245dcb6ab2374327ce28401546001600160a01b031661420f565b505093505050505f905f90565b508415614204565b907f9b779b17422d0df92223018b32b4d1fa46e071723d6817e2486d003becc55f0091600283541461441257600283558147106143fa575f918291829182916001600160a01b03165af16143dc613298565b50156143e85760019055565b604051630a12f52160e11b8152600490fd5b60405163cd78605960e01b8152306004820152602490fd5b604051633ee5aeb560e01b8152600490fd5b6037546001600160a01b03163303611c7557565b60cf54906001600160801b03821681158015614467575b1561445a5750905090565b6106ac9260801c91613862565b50801561444f565b60cf546001600160801b03811690821580156144bf575b1561449057505090565b60801c9061449f828285613862565b9282156137e357096144ae5790565b60018101809111156106ac57612c1c565b508115614486565b6144cf613c80565b6001600160a01b0316801561451757609c80546001600160a01b03191682179055337faaebcf1bfa00580e41d966056b48521fa9f202645c86d4ddf28113e617c1b1d35f80a3565b604051630ed1b8b360e31b8152600490fd5b90614533826131c5565b6145406040519182610634565b8281528092614551601f19916131c5565b0190602036910137565b906030116103e65790603090565b906090116103e65760300190606090565b9060b0116103e65760900190602090565b909392938483116103e65784116103e6578101920390565b90156132865790565b91908110156132865760051b0190565b3590602081106145ca575090565b5f199060200360031b1b1690565b9695949061358f936145f9614607926060979560808c5260808c01916131a5565b9089820360208b0152610676565b9187830360408901526131a5565b9060206106ac92818152019061318d565b9160206106ac9381815201916131a5565b9193929061010854925f925f9061464d81614529565b97614656614e03565b935f9760018060a01b037f000000000000000000000000000000000000000000000000000000000000000016945b848a106146975750505050505050505050565b60b06146a791018099898561458b565b9960409a8d6146e38d516146cb60209182810190612abb816121a18c8a8d87613577565b8051910120916146dc858b8b6145ac565b3590613332565b526146ee818461455b565b909361470e6147086147008584614569565b95909361457a565b906145bc565b908a3b156103e6578b8f5f93614739915196879485946304512a2360e31b8652888c600488016145d8565b03816801bc16d674ec8000008d5af19384156105b05761478c60018e7f64b6e61d93b7a91e8cc4376183ede0997a27b44fd9dd2f30a866b2a5730efdb1958298614798575b5097019e5192839283614626565b0390a101989097614684565b806112146147a592610621565b5f61477e565b906147b99495939291614e44565b1490565b9192915f915b8083106147d1575050501490565b9091926147ec6001916147e58685876145ac565b35906153c3565b930191906147c3565b816030116103e657614708917f00000000000000000000000000000000000000000000000000000000000000006001600160a01b0316614833614e03565b9061484a6148418486614569565b9690948661457a565b94813b156103e6576801bc16d674ec8000005f946148b097604051988996879586946304512a2360e31b8652608060048701526148a161488e8d608489019061318d565b60031994858983030160248a0152610676565b928684030160448701526131a5565b90606483015203925af19081156105b0577f64b6e61d93b7a91e8cc4376183ede0997a27b44fd9dd2f30a866b2a5730efdb192613c26926148f9575b5060405191829182614615565b61490290610621565b5f6148ec565b61026a80546001600160a01b0319166001600160a01b03929092169182179055337fda2bcad4d57ac529886ff995d07bce191c08b5424c8f5824de6c73f90cc623d45f80a3565b9190614959613c80565b6001600160a01b03831690811561083c5780156149fb578061498061215460cf5460801c90565b019361498a612f46565b85116149e9576110cb946149ac9161364a6149a48561446f565b978893613792565b60408051918252602082018590525f9082015233907f861a4138e41fb21c121a7dbb1053df465c837fc77380cc7226189a662281be2c90606090a3565b6040516304ffa0ff60e51b8152600490fd5b6040516318374fd160e21b8152600490fd5b604051630156a69560e11b81523060048201526020816024817f00000000000000000000000000000000000000000000000000000000000000006001600160a01b03165afa9081156105b0575f91614a63575090565b6106ac915060203d602011611b0b57611afc8183610634565b6001600160a01b03908116919082158015614aee575b61083c57825f5260d360205260405f2090815492858403938411610de9575f805160206156688339815191529360209355614add8160018060a01b03165f5260d360205260405f2090565b8681540190556040519586521693a3565b5080821615614a92565b60ff5f805160206156a88339815191525460401c1615614b1457565b604051631afcd79f60e31b8152600490fd5b614b2e614af8565b8015614b445760018101614b3f5750565b60d455565b6040516331278a8760e01b8152600490fd5b614b5e614af8565b6801bc16d674ec800000614b70612f46565b10614b4457565b614b7f614af8565b6001600160a01b031680614b905750565b6101a180546001600160a01b0319169091179055565b614bae614af8565b601e8151118015614cc8575b614cb657614bc6614af8565b8051906001600160401b03821161061c57614bea82614be55f546105b5565b615179565b602090816001601f851114614c4257509180614c2092614c2795945f92614c37575b50508160011b915f199060031b1c19161790565b5f55615243565b611940614c32613ecb565b600455565b015190505f80614c0c565b5f80529190601f1984165f80516020615628833981519152935f905b828210614c9e575050916001939185614c2797969410614c86575b505050811b015f55615243565b01515f1960f88460031b161c191690555f8080614c79565b80600186978294978701518155019601940190614c5e565b604051632d3f993760e21b8152600490fd5b50600a825111614bba565b614cdb614af8565b614ce3614af8565b614ceb614af8565b60017f9b779b17422d0df92223018b32b4d1fa46e071723d6817e2486d003becc55f0055633b9aca003410614d2457612cbd343061494f565b60405163ea2559bb60e01b8152600490fd5b908160209103126103e657516106ac81612622565b6040516352d1902d60e01b81529290916020846004816001600160a01b0387165afa5f9481614dd5575b50614d9b57604051634c9c8ce360e01b81526001600160a01b0384166004820152602490fd5b90915f805160206156488339815191528403614dbc57611940929350615321565b604051632a87526960e21b815260048101859052602490fd5b614def91955060203d6020116105a95761059a8183610634565b935f614d75565b9080821015612f70575090565b604051600160f81b60208201525f60218201523060601b602c820152602081526106ac81610601565b5f198114610de95760010190565b356106ac8161084e565b9293919091805193614e568486613004565b614e5f87612ff6565b03614ea157614e6d86614529565b945f8094885f965f5b828110614ed9575050159150614eb390505750505003614ea157614e9d915f190190613332565b5190565b604051631a8a024960e11b8152600490fd5b919550929350159050614ecb575050614e9d90613325565b614ed592506145a3565b3590565b8a86861015614f8c5750614f0b614f0682614efd614ef689614e2c565b988c613332565b51955b876145ac565b614e3a565b15614f71578a86861015614f505750614f3c60019293614f34614f2d88614e2c565b978b613332565b515b906153c3565b614f46828d613332565b5201908a91614e76565b92614f3c90614f6b84614f6560019691614e2c565b96613332565b51614f36565b614f3c600192936147e5614f848c614e2c565b9b8d8b6145ac565b91614f0682614fa283614f65614f0b9591614e2c565b5195614f00565b5f8051602061566883398151915260205f92614fc485613792565b60cf5490614fdc6001600160801b0391828416612cec565b6001600160801b031990921691161760cf556001600160a01b031680845260d3825260408085208054870190555194855293a3565b60d054906001600160801b0382169182156151085760801c6150456150368247612f8a565b61503f85612c72565b90614df6565b9081156151015761505582614438565b9384156150f957826150816130c46104e0611940966110cb966121706121e26104e08d611fc59a612f8a565b61508b818761543d565b60408051878152602081018390527f624ea167e477f9d39f7f4094b9dfe2e6346eb4a7aada54338db51abd554c4b9f9190a16104e06150dd6150cc88613792565b60cf546001600160801b0316612c30565b6001600160801b03166001600160801b031960cf54161760cf55565b505f93505050565b505f925050565b505f9150565b6001600160a01b03165f81815260d360205260409020805483810391908211610de9575f935f80516020615668833981519152926020925561514f81613792565b60cf54906001600160801b03908183160316906001600160801b0319161760cf55604051908152a3565b601f8111615185575050565b5f80525f80516020615628833981519152906020601f840160051c830193106151c8575b601f0160051c01905b8181106151bd575050565b5f81556001016151b2565b90915081906151a9565b90601f82116151df575050565b60019160015f527fb10e2d527612073b26eecdfd717e6a320cf44b4afac2b0732d9fcbe2b7fa0cf6906020601f840160051c83019310615239575b601f0160051c01905b81811061522f57505050565b5f81558201615223565b909150819061521a565b9081516001600160401b03811161061c5760019061526a8161526584546105b5565b6151d2565b602080601f831160011461529f5750819061529b9394955f92614c375750508160011b915f199060031b1c19161790565b9055565b90601f198316956152d160015f527fb10e2d527612073b26eecdfd717e6a320cf44b4afac2b0732d9fcbe2b7fa0cf690565b925f905b88821061530a57505083859697106152f2575b505050811b019055565b01515f1960f88460031b161c191690555f80806152e8565b8087859682949686015181550195019301906152d5565b90813b156153a2575f8051602061564883398151915280546001600160a01b0319166001600160a01b0384169081179091557fbc7cd75a20ee27fd9adebab32041f755214dbc6bffa90cc0225b39da2e5c2d3b5f80a280511561538757612cbd91615524565b50503461539057565b60405163b398979f60e01b8152600490fd5b604051634c9c8ce360e01b81526001600160a01b0383166004820152602490fd5b818110156153d7575f5260205260405f2090565b905f5260205260405f2090565b60d15490600160401b82101561061c57600182018060d1558210156132865760d15f52805160209091015160a01b6001600160a01b0319166001600160a01b0391909116175f8051602061568883398151915290910155565b908115801561551c575b61550a5760d154806154d457505f905b6001600160a01b03918216928301928310610de9578183116154b457611940929161549f6154876154af936155a3565b91615490611933565b94166001600160a01b03168452565b6001600160601b03166020830152565b6153e4565b6040516306dfcc6560e41b815260a0600482015260248101849052604490fd5b60d15f527f695fb3134ad82c3b8022bc5464edd0bcc9424ef672b52245dcb6ab2374327ce201546001600160a01b031690615457565b604051632ec8835b60e21b8152600490fd5b508015615447565b5f806106ac93602081519101845af461553b613298565b916155d6565b615549614a0d565b61554f57565b6040516389a1dc6360e01b8152600490fd5b60d1548061556e57505f90565b60d15f527f695fb3134ad82c3b8022bc5464edd0bcc9424ef672b52245dcb6ab2374327ce201546001600160a01b0316611c06565b6001600160601b03908181116155b7571690565b604490604051906306dfcc6560e41b8252606060048301526024820152fd5b906155eb57508051156143e857805190602001fd5b8151158061561e575b6155fc575090565b604051639996b31560e01b81526001600160a01b039091166004820152602490fd5b50803b156155f456fe290decd9548b62a8d60345a988386fc84ba6bc95484008f6362f93160ef3e563360894a13ba1a3210667c828492db98dca3e2076cc3735a920a3ca505d382bbcddf252ad1be2c89b69c2b068fc378daa952ba7f163c4a11628f55a4df523b3ef695fb3134ad82c3b8022bc5464edd0bcc9424ef672b52245dcb6ab2374327ce3f0c57e16840df040f15088dc2f81fe391c3923bec73e23a9662efc9c229c6a00a26469706673582212202e23b370e0941c06867beb0c0750c778738e9000991419280166e75e3fc3d99764736f6c63430008160033",
  "linkReferences": {},
  "deployedLinkReferences": {}
}