{
  "_format": "hh-sol-artifact-1",
  "contractName": "EthRestakeBlocklistVault",
  "sourceName": "contracts/vaults/ethereum/restake/EthRestakeBlocklistVault.sol",
  "abi": [
    {
      "inputs": [
        {
          "internalType": "address",
          "name": "_keeper",
          "type": "address"
        },
        {
          "internalType": "address",
          "name": "_vaultsRegistry",
          "type": "address"
        },
        {
          "internalType": "address",
          "name": "_validatorsRegistry",
          "type": "address"
        },
        {
          "internalType": "address",
          "name": "sharedMevEscrow",
          "type": "address"
        },
        {
          "internalType": "address",
          "name": "depositDataRegistry",
          "type": "address"
        },
        {
          "internalType": "address",
          "name": "eigenPodOwnerImplementation",
          "type": "address"
        },
        {
          "internalType": "uint256",
          "name": "exitingAssetsClaimDelay",
          "type": "uint256"
        }
      ],
      "stateMutability": "nonpayable",
      "type": "constructor"
    },
    {
      "inputs": [],
      "name": "AccessDenied",
      "type": "error"
    },
    {
      "inputs": [
        {
          "internalType": "address",
          "name": "target",
          "type": "address"
        }
      ],
      "name": "AddressEmptyCode",
      "type": "error"
    },
    {
      "inputs": [
        {
          "internalType": "address",
          "name": "account",
          "type": "address"
        }
      ],
      "name": "AddressInsufficientBalance",
      "type": "error"
    },
    {
      "inputs": [],
      "name": "CapacityExceeded",
      "type": "error"
    },
    {
      "inputs": [
        {
          "internalType": "address",
          "name": "implementation",
          "type": "address"
        }
      ],
      "name": "ERC1967InvalidImplementation",
      "type": "error"
    },
    {
      "inputs": [],
      "name": "ERC1967NonPayable",
      "type": "error"
    },
    {
      "inputs": [],
      "name": "EigenPodNotFound",
      "type": "error"
    },
    {
      "inputs": [],
      "name": "ExitRequestNotProcessed",
      "type": "error"
    },
    {
      "inputs": [],
      "name": "FailedInnerCall",
      "type": "error"
    },
    {
      "inputs": [],
      "name": "InsufficientAssets",
      "type": "error"
    },
    {
      "inputs": [],
      "name": "InvalidAssets",
      "type": "error"
    },
    {
      "inputs": [],
      "name": "InvalidCapacity",
      "type": "error"
    },
    {
      "inputs": [],
      "name": "InvalidCheckpointIndex",
      "type": "error"
    },
    {
      "inputs": [],
      "name": "InvalidCheckpointValue",
      "type": "error"
    },
    {
      "inputs": [],
      "name": "InvalidFeePercent",
      "type": "error"
    },
    {
      "inputs": [],
      "name": "InvalidFeeRecipient",
      "type": "error"
    },
    {
      "inputs": [],
      "name": "InvalidInitialization",
      "type": "error"
    },
    {
      "inputs": [],
      "name": "InvalidSecurityDeposit",
      "type": "error"
    },
    {
      "inputs": [],
      "name": "InvalidShares",
      "type": "error"
    },
    {
      "inputs": [],
      "name": "InvalidValidators",
      "type": "error"
    },
    {
      "inputs": [],
      "name": "InvalidWithdrawalCredentials",
      "type": "error"
    },
    {
      "inputs": [],
      "name": "MathOverflowedMulDiv",
      "type": "error"
    },
    {
      "inputs": [],
      "name": "NotHarvested",
      "type": "error"
    },
    {
      "inputs": [],
      "name": "NotInitializing",
      "type": "error"
    },
    {
      "inputs": [],
      "name": "ReentrancyGuardReentrantCall",
      "type": "error"
    },
    {
      "inputs": [
        {
          "internalType": "uint8",
          "name": "bits",
          "type": "uint8"
        },
        {
          "internalType": "uint256",
          "name": "value",
          "type": "uint256"
        }
      ],
      "name": "SafeCastOverflowedUintDowncast",
      "type": "error"
    },
    {
      "inputs": [],
      "name": "UUPSUnauthorizedCallContext",
      "type": "error"
    },
    {
      "inputs": [
        {
          "internalType": "bytes32",
          "name": "slot",
          "type": "bytes32"
        }
      ],
      "name": "UUPSUnsupportedProxiableUUID",
      "type": "error"
    },
    {
      "inputs": [],
      "name": "UpgradeFailed",
      "type": "error"
    },
    {
      "inputs": [],
      "name": "ValueNotChanged",
      "type": "error"
    },
    {
      "inputs": [],
      "name": "ZeroAddress",
      "type": "error"
    },
    {
      "anonymous": false,
      "inputs": [
        {
          "indexed": true,
          "internalType": "address",
          "name": "caller",
          "type": "address"
        },
        {
          "indexed": true,
          "internalType": "address",
          "name": "blocklistManager",
          "type": "address"
        }
      ],
      "name": "BlocklistManagerUpdated",
      "type": "event"
    },
    {
      "anonymous": false,
      "inputs": [
        {
          "indexed": true,
          "internalType": "address",
          "name": "caller",
          "type": "address"
        },
        {
          "indexed": true,
          "internalType": "address",
          "name": "account",
          "type": "address"
        },
        {
          "indexed": false,
          "internalType": "bool",
          "name": "isBlocked",
          "type": "bool"
        }
      ],
      "name": "BlocklistUpdated",
      "type": "event"
    },
    {
      "anonymous": false,
      "inputs": [
        {
          "indexed": false,
          "internalType": "uint256",
          "name": "shares",
          "type": "uint256"
        },
        {
          "indexed": false,
          "internalType": "uint256",
          "name": "assets",
          "type": "uint256"
        }
      ],
      "name": "CheckpointCreated",
      "type": "event"
    },
    {
      "anonymous": false,
      "inputs": [
        {
          "indexed": true,
          "internalType": "address",
          "name": "caller",
          "type": "address"
        },
        {
          "indexed": true,
          "internalType": "address",
          "name": "receiver",
          "type": "address"
        },
        {
          "indexed": false,
          "internalType": "uint256",
          "name": "assets",
          "type": "uint256"
        },
        {
          "indexed": false,
          "internalType": "uint256",
          "name": "shares",
          "type": "uint256"
        },
        {
          "indexed": false,
          "internalType": "address",
          "name": "referrer",
          "type": "address"
        }
      ],
      "name": "Deposited",
      "type": "event"
    },
    {
      "anonymous": false,
      "inputs": [
        {
          "indexed": false,
          "internalType": "address",
          "name": "eigenPodOwner",
          "type": "address"
        },
        {
          "indexed": false,
          "internalType": "address",
          "name": "eigenPod",
          "type": "address"
        }
      ],
      "name": "EigenPodCreated",
      "type": "event"
    },
    {
      "anonymous": false,
      "inputs": [
        {
          "indexed": true,
          "internalType": "address",
          "name": "owner",
          "type": "address"
        },
        {
          "indexed": true,
          "internalType": "address",
          "name": "receiver",
          "type": "address"
        },
        {
          "indexed": false,
          "internalType": "uint256",
          "name": "positionTicket",
          "type": "uint256"
        },
        {
          "indexed": false,
          "internalType": "uint256",
          "name": "shares",
          "type": "uint256"
        }
      ],
      "name": "ExitQueueEntered",
      "type": "event"
    },
    {
      "anonymous": false,
      "inputs": [
        {
          "indexed": true,
          "internalType": "address",
          "name": "receiver",
          "type": "address"
        },
        {
          "indexed": false,
          "internalType": "uint256",
          "name": "prevPositionTicket",
          "type": "uint256"
        },
        {
          "indexed": false,
          "internalType": "uint256",
          "name": "newPositionTicket",
          "type": "uint256"
        },
        {
          "indexed": false,
          "internalType": "uint256",
          "name": "withdrawnAssets",
          "type": "uint256"
        }
      ],
      "name": "ExitedAssetsClaimed",
      "type": "event"
    },
    {
      "anonymous": false,
      "inputs": [
        {
          "indexed": false,
          "internalType": "uint256",
          "name": "penalty",
          "type": "uint256"
        }
      ],
      "name": "ExitingAssetsPenalized",
      "type": "event"
    },
    {
      "anonymous": false,
      "inputs": [
        {
          "indexed": true,
          "internalType": "address",
          "name": "caller",
          "type": "address"
        },
        {
          "indexed": true,
          "internalType": "address",
          "name": "feeRecipient",
          "type": "address"
        }
      ],
      "name": "FeeRecipientUpdated",
      "type": "event"
    },
    {
      "anonymous": false,
      "inputs": [
        {
          "indexed": false,
          "internalType": "address",
          "name": "receiver",
          "type": "address"
        },
        {
          "indexed": false,
          "internalType": "uint256",
          "name": "shares",
          "type": "uint256"
        },
        {
          "indexed": false,
          "internalType": "uint256",
          "name": "assets",
          "type": "uint256"
        }
      ],
      "name": "FeeSharesMinted",
      "type": "event"
    },
    {
      "anonymous": false,
      "inputs": [
        {
          "indexed": false,
          "internalType": "uint64",
          "name": "version",
          "type": "uint64"
        }
      ],
      "name": "Initialized",
      "type": "event"
    },
    {
      "anonymous": false,
      "inputs": [
        {
          "indexed": true,
          "internalType": "address",
          "name": "caller",
          "type": "address"
        },
        {
          "indexed": true,
          "internalType": "address",
          "name": "keysManager",
          "type": "address"
        }
      ],
      "name": "KeysManagerUpdated",
      "type": "event"
    },
    {
      "anonymous": false,
      "inputs": [
        {
          "indexed": true,
          "internalType": "address",
          "name": "caller",
          "type": "address"
        },
        {
          "indexed": false,
          "internalType": "string",
          "name": "metadataIpfsHash",
          "type": "string"
        }
      ],
      "name": "MetadataUpdated",
      "type": "event"
    },
    {
      "anonymous": false,
      "inputs": [
        {
          "indexed": true,
          "internalType": "address",
          "name": "owner",
          "type": "address"
        },
        {
          "indexed": true,
          "internalType": "address",
          "name": "receiver",
          "type": "address"
        },
        {
          "indexed": false,
          "internalType": "uint256",
          "name": "assets",
          "type": "uint256"
        },
        {
          "indexed": false,
          "internalType": "uint256",
          "name": "shares",
          "type": "uint256"
        }
      ],
      "name": "Redeemed",
      "type": "event"
    },
    {
      "anonymous": false,
      "inputs": [
        {
          "indexed": false,
          "internalType": "address",
          "name": "newRestakeOperatorsManager",
          "type": "address"
        }
      ],
      "name": "RestakeOperatorsManagerUpdated",
      "type": "event"
    },
    {
      "anonymous": false,
      "inputs": [
        {
          "indexed": false,
          "internalType": "address",
          "name": "newRestakeWithdrawalsManager",
          "type": "address"
        }
      ],
      "name": "RestakeWithdrawalsManagerUpdated",
      "type": "event"
    },
    {
      "anonymous": false,
      "inputs": [
        {
          "indexed": true,
          "internalType": "address",
          "name": "implementation",
          "type": "address"
        }
      ],
      "name": "Upgraded",
      "type": "event"
    },
    {
      "anonymous": false,
      "inputs": [
        {
          "indexed": true,
          "internalType": "address",
          "name": "owner",
          "type": "address"
        },
        {
          "indexed": true,
          "internalType": "address",
          "name": "receiver",
          "type": "address"
        },
        {
          "indexed": false,
          "internalType": "uint256",
          "name": "positionTicket",
          "type": "uint256"
        },
        {
          "indexed": false,
          "internalType": "uint256",
          "name": "shares",
          "type": "uint256"
        },
        {
          "indexed": false,
          "internalType": "uint256",
          "name": "assets",
          "type": "uint256"
        }
      ],
      "name": "V2ExitQueueEntered",
      "type": "event"
    },
    {
      "anonymous": false,
      "inputs": [
        {
          "indexed": false,
          "internalType": "bytes",
          "name": "publicKey",
          "type": "bytes"
        }
      ],
      "name": "ValidatorRegistered",
      "type": "event"
    },
    {
      "anonymous": false,
      "inputs": [
        {
          "indexed": true,
          "internalType": "address",
          "name": "caller",
          "type": "address"
        },
        {
          "indexed": true,
          "internalType": "address",
          "name": "validatorsManager",
          "type": "address"
        }
      ],
      "name": "ValidatorsManagerUpdated",
      "type": "event"
    },
    {
      "anonymous": false,
      "inputs": [
        {
          "indexed": true,
          "internalType": "address",
          "name": "caller",
          "type": "address"
        },
        {
          "indexed": true,
          "internalType": "bytes32",
          "name": "validatorsRoot",
          "type": "bytes32"
        }
      ],
      "name": "ValidatorsRootUpdated",
      "type": "event"
    },
    {
      "inputs": [],
      "name": "UPGRADE_INTERFACE_VERSION",
      "outputs": [
        {
          "internalType": "string",
          "name": "",
          "type": "string"
        }
      ],
      "stateMutability": "view",
      "type": "function"
    },
    {
      "inputs": [],
      "name": "admin",
      "outputs": [
        {
          "internalType": "address",
          "name": "",
          "type": "address"
        }
      ],
      "stateMutability": "view",
      "type": "function"
    },
    {
      "inputs": [
        {
          "internalType": "address",
          "name": "",
          "type": "address"
        }
      ],
      "name": "blockedAccounts",
      "outputs": [
        {
          "internalType": "bool",
          "name": "",
          "type": "bool"
        }
      ],
      "stateMutability": "view",
      "type": "function"
    },
    {
      "inputs": [],
      "name": "blocklistManager",
      "outputs": [
        {
          "internalType": "address",
          "name": "",
          "type": "address"
        }
      ],
      "stateMutability": "view",
      "type": "function"
    },
    {
      "inputs": [
        {
          "internalType": "address",
          "name": "receiver",
          "type": "address"
        },
        {
          "internalType": "uint256",
          "name": "positionTicket",
          "type": "uint256"
        },
        {
          "internalType": "uint256",
          "name": "timestamp",
          "type": "uint256"
        },
        {
          "internalType": "uint256",
          "name": "exitQueueIndex",
          "type": "uint256"
        }
      ],
      "name": "calculateExitedAssets",
      "outputs": [
        {
          "internalType": "uint256",
          "name": "leftTickets",
          "type": "uint256"
        },
        {
          "internalType": "uint256",
          "name": "exitedTickets",
          "type": "uint256"
        },
        {
          "internalType": "uint256",
          "name": "exitedAssets",
          "type": "uint256"
        }
      ],
      "stateMutability": "view",
      "type": "function"
    },
    {
      "inputs": [],
      "name": "capacity",
      "outputs": [
        {
          "internalType": "uint256",
          "name": "",
          "type": "uint256"
        }
      ],
      "stateMutability": "view",
      "type": "function"
    },
    {
      "inputs": [
        {
          "internalType": "uint256",
          "name": "positionTicket",
          "type": "uint256"
        },
        {
          "internalType": "uint256",
          "name": "timestamp",
          "type": "uint256"
        },
        {
          "internalType": "uint256",
          "name": "exitQueueIndex",
          "type": "uint256"
        }
      ],
      "name": "claimExitedAssets",
      "outputs": [],
      "stateMutability": "nonpayable",
      "type": "function"
    },
    {
      "inputs": [
        {
          "internalType": "uint256",
          "name": "shares",
          "type": "uint256"
        }
      ],
      "name": "convertToAssets",
      "outputs": [
        {
          "internalType": "uint256",
          "name": "assets",
          "type": "uint256"
        }
      ],
      "stateMutability": "view",
      "type": "function"
    },
    {
      "inputs": [
        {
          "internalType": "uint256",
          "name": "assets",
          "type": "uint256"
        }
      ],
      "name": "convertToShares",
      "outputs": [
        {
          "internalType": "uint256",
          "name": "shares",
          "type": "uint256"
        }
      ],
      "stateMutability": "view",
      "type": "function"
    },
    {
      "inputs": [],
      "name": "createEigenPod",
      "outputs": [],
      "stateMutability": "nonpayable",
      "type": "function"
    },
    {
      "inputs": [
        {
          "internalType": "address",
          "name": "receiver",
          "type": "address"
        },
        {
          "internalType": "address",
          "name": "referrer",
          "type": "address"
        }
      ],
      "name": "deposit",
      "outputs": [
        {
          "internalType": "uint256",
          "name": "shares",
          "type": "uint256"
        }
      ],
      "stateMutability": "payable",
      "type": "function"
    },
    {
      "inputs": [
        {
          "internalType": "uint256",
          "name": "shares",
          "type": "uint256"
        },
        {
          "internalType": "address",
          "name": "receiver",
          "type": "address"
        }
      ],
      "name": "enterExitQueue",
      "outputs": [
        {
          "internalType": "uint256",
          "name": "positionTicket",
          "type": "uint256"
        }
      ],
      "stateMutability": "nonpayable",
      "type": "function"
    },
    {
      "inputs": [],
      "name": "feePercent",
      "outputs": [
        {
          "internalType": "uint16",
          "name": "",
          "type": "uint16"
        }
      ],
      "stateMutability": "view",
      "type": "function"
    },
    {
      "inputs": [],
      "name": "feeRecipient",
      "outputs": [
        {
          "internalType": "address",
          "name": "",
          "type": "address"
        }
      ],
      "stateMutability": "view",
      "type": "function"
    },
    {
      "inputs": [],
      "name": "getEigenPods",
      "outputs": [
        {
          "internalType": "address[]",
          "name": "",
          "type": "address[]"
        }
      ],
      "stateMutability": "view",
      "type": "function"
    },
    {
      "inputs": [
        {
          "internalType": "uint256",
          "name": "positionTicket",
          "type": "uint256"
        }
      ],
      "name": "getExitQueueIndex",
      "outputs": [
        {
          "internalType": "int256",
          "name": "",
          "type": "int256"
        }
      ],
      "stateMutability": "view",
      "type": "function"
    },
    {
      "inputs": [
        {
          "internalType": "address",
          "name": "account",
          "type": "address"
        }
      ],
      "name": "getShares",
      "outputs": [
        {
          "internalType": "uint256",
          "name": "",
          "type": "uint256"
        }
      ],
      "stateMutability": "view",
      "type": "function"
    },
    {
      "inputs": [],
      "name": "implementation",
      "outputs": [
        {
          "internalType": "address",
          "name": "",
          "type": "address"
        }
      ],
      "stateMutability": "view",
      "type": "function"
    },
    {
      "inputs": [
        {
          "internalType": "bytes",
          "name": "params",
          "type": "bytes"
        }
      ],
      "name": "initialize",
      "outputs": [],
      "stateMutability": "payable",
      "type": "function"
    },
    {
      "inputs": [],
      "name": "isStateUpdateRequired",
      "outputs": [
        {
          "internalType": "bool",
          "name": "",
          "type": "bool"
        }
      ],
      "stateMutability": "view",
      "type": "function"
    },
    {
      "inputs": [],
      "name": "mevEscrow",
      "outputs": [
        {
          "internalType": "address",
          "name": "",
          "type": "address"
        }
      ],
      "stateMutability": "view",
      "type": "function"
    },
    {
      "inputs": [
        {
          "internalType": "bytes[]",
          "name": "data",
          "type": "bytes[]"
        }
      ],
      "name": "multicall",
      "outputs": [
        {
          "internalType": "bytes[]",
          "name": "results",
          "type": "bytes[]"
        }
      ],
      "stateMutability": "nonpayable",
      "type": "function"
    },
    {
      "inputs": [],
      "name": "proxiableUUID",
      "outputs": [
        {
          "internalType": "bytes32",
          "name": "",
          "type": "bytes32"
        }
      ],
      "stateMutability": "view",
      "type": "function"
    },
    {
      "inputs": [],
      "name": "queuedShares",
      "outputs": [
        {
          "internalType": "uint128",
          "name": "",
          "type": "uint128"
        }
      ],
      "stateMutability": "view",
      "type": "function"
    },
    {
      "inputs": [],
      "name": "receiveFromMevEscrow",
      "outputs": [],
      "stateMutability": "payable",
      "type": "function"
    },
    {
      "inputs": [
        {
          "components": [
            {
              "internalType": "bytes32",
              "name": "validatorsRegistryRoot",
              "type": "bytes32"
            },
            {
              "internalType": "uint256",
              "name": "deadline",
              "type": "uint256"
            },
            {
              "internalType": "bytes",
              "name": "validators",
              "type": "bytes"
            },
            {
              "internalType": "bytes",
              "name": "signatures",
              "type": "bytes"
            },
            {
              "internalType": "string",
              "name": "exitSignaturesIpfsHash",
              "type": "string"
            }
          ],
          "internalType": "struct IKeeperValidators.ApprovalParams",
          "name": "keeperParams",
          "type": "tuple"
        },
        {
          "internalType": "bytes",
          "name": "validatorsManagerSignature",
          "type": "bytes"
        }
      ],
      "name": "registerValidators",
      "outputs": [],
      "stateMutability": "nonpayable",
      "type": "function"
    },
    {
      "inputs": [],
      "name": "restakeOperatorsManager",
      "outputs": [
        {
          "internalType": "address",
          "name": "",
          "type": "address"
        }
      ],
      "stateMutability": "view",
      "type": "function"
    },
    {
      "inputs": [],
      "name": "restakeWithdrawalsManager",
      "outputs": [
        {
          "internalType": "address",
          "name": "",
          "type": "address"
        }
      ],
      "stateMutability": "view",
      "type": "function"
    },
    {
      "inputs": [
        {
          "internalType": "address",
          "name": "_blocklistManager",
          "type": "address"
        }
      ],
      "name": "setBlocklistManager",
      "outputs": [],
      "stateMutability": "nonpayable",
      "type": "function"
    },
    {
      "inputs": [
        {
          "internalType": "address",
          "name": "_feeRecipient",
          "type": "address"
        }
      ],
      "name": "setFeeRecipient",
      "outputs": [],
      "stateMutability": "nonpayable",
      "type": "function"
    },
    {
      "inputs": [
        {
          "internalType": "string",
          "name": "metadataIpfsHash",
          "type": "string"
        }
      ],
      "name": "setMetadata",
      "outputs": [],
      "stateMutability": "nonpayable",
      "type": "function"
    },
    {
      "inputs": [
        {
          "internalType": "address",
          "name": "newRestakeOperatorsManager",
          "type": "address"
        }
      ],
      "name": "setRestakeOperatorsManager",
      "outputs": [],
      "stateMutability": "nonpayable",
      "type": "function"
    },
    {
      "inputs": [
        {
          "internalType": "address",
          "name": "newRestakeWithdrawalsManager",
          "type": "address"
        }
      ],
      "name": "setRestakeWithdrawalsManager",
      "outputs": [],
      "stateMutability": "nonpayable",
      "type": "function"
    },
    {
      "inputs": [
        {
          "internalType": "address",
          "name": "validatorsManager_",
          "type": "address"
        }
      ],
      "name": "setValidatorsManager",
      "outputs": [],
      "stateMutability": "nonpayable",
      "type": "function"
    },
    {
      "inputs": [],
      "name": "totalAssets",
      "outputs": [
        {
          "internalType": "uint256",
          "name": "",
          "type": "uint256"
        }
      ],
      "stateMutability": "view",
      "type": "function"
    },
    {
      "inputs": [],
      "name": "totalExitingAssets",
      "outputs": [
        {
          "internalType": "uint128",
          "name": "",
          "type": "uint128"
        }
      ],
      "stateMutability": "view",
      "type": "function"
    },
    {
      "inputs": [],
      "name": "totalShares",
      "outputs": [
        {
          "internalType": "uint256",
          "name": "",
          "type": "uint256"
        }
      ],
      "stateMutability": "view",
      "type": "function"
    },
    {
      "inputs": [
        {
          "internalType": "address",
          "name": "account",
          "type": "address"
        },
        {
          "internalType": "bool",
          "name": "isBlocked",
          "type": "bool"
        }
      ],
      "name": "updateBlocklist",
      "outputs": [],
      "stateMutability": "nonpayable",
      "type": "function"
    },
    {
      "inputs": [
        {
          "components": [
            {
              "internalType": "bytes32",
              "name": "rewardsRoot",
              "type": "bytes32"
            },
            {
              "internalType": "int160",
              "name": "reward",
              "type": "int160"
            },
            {
              "internalType": "uint160",
              "name": "unlockedMevReward",
              "type": "uint160"
            },
            {
              "internalType": "bytes32[]",
              "name": "proof",
              "type": "bytes32[]"
            }
          ],
          "internalType": "struct IKeeperRewards.HarvestParams",
          "name": "harvestParams",
          "type": "tuple"
        }
      ],
      "name": "updateState",
      "outputs": [],
      "stateMutability": "nonpayable",
      "type": "function"
    },
    {
      "inputs": [
        {
          "internalType": "address",
          "name": "receiver",
          "type": "address"
        },
        {
          "internalType": "address",
          "name": "referrer",
          "type": "address"
        },
        {
          "components": [
            {
              "internalType": "bytes32",
              "name": "rewardsRoot",
              "type": "bytes32"
            },
            {
              "internalType": "int160",
              "name": "reward",
              "type": "int160"
            },
            {
              "internalType": "uint160",
              "name": "unlockedMevReward",
              "type": "uint160"
            },
            {
              "internalType": "bytes32[]",
              "name": "proof",
              "type": "bytes32[]"
            }
          ],
          "internalType": "struct IKeeperRewards.HarvestParams",
          "name": "harvestParams",
          "type": "tuple"
        }
      ],
      "name": "updateStateAndDeposit",
      "outputs": [
        {
          "internalType": "uint256",
          "name": "shares",
          "type": "uint256"
        }
      ],
      "stateMutability": "payable",
      "type": "function"
    },
    {
      "inputs": [
        {
          "internalType": "address",
          "name": "newImplementation",
          "type": "address"
        },
        {
          "internalType": "bytes",
          "name": "data",
          "type": "bytes"
        }
      ],
      "name": "upgradeToAndCall",
      "outputs": [],
      "stateMutability": "payable",
      "type": "function"
    },
    {
      "inputs": [],
      "name": "validatorsManager",
      "outputs": [
        {
          "internalType": "address",
          "name": "",
          "type": "address"
        }
      ],
      "stateMutability": "view",
      "type": "function"
    },
    {
      "inputs": [],
      "name": "vaultId",
      "outputs": [
        {
          "internalType": "bytes32",
          "name": "",
          "type": "bytes32"
        }
      ],
      "stateMutability": "pure",
      "type": "function"
    },
    {
      "inputs": [],
      "name": "version",
      "outputs": [
        {
          "internalType": "uint8",
          "name": "",
          "type": "uint8"
        }
      ],
      "stateMutability": "pure",
      "type": "function"
    },
    {
      "inputs": [],
      "name": "withdrawableAssets",
      "outputs": [
        {
          "internalType": "uint256",
          "name": "",
          "type": "uint256"
        }
      ],
      "stateMutability": "view",
      "type": "function"
    },
    {
      "stateMutability": "payable",
      "type": "receive"
    }
  ],
  "bytecode": "0x6101a034620001e457601f620047d738819003918201601f19168301926001600160401b0392909183851183861017620001e8578160e09284926040978852833981010312620001e4576200005481620001fc565b926200006360208301620001fc565b9362000071828401620001fc565b916200008060608501620001fc565b926200008f60808601620001fc565b9660c0620000a060a08801620001fc565b9601519360805260a05260c0523060e052610100958652610120944686526101409283526101609384526101809485527ff0c57e16840df040f15088dc2f81fe391c3923bec73e23a9662efc9c229c6a009081549060ff82851c16620001d35780808316036200018e575b50505051936145c59586620002128739608051868181610f42015281816111bf0152818161271a015261302f015260a05186610c54015260c051868181613d900152613ee6015260e051868181610e000152612ce1015251856123da015251846130ad01525183611398015251828181611d8e0152612767015251816104bd0152f35b6001600160401b0319909116811790915581519081527fc7f505b2f371ae2175ee4913f4499e1f2633a7b5936321eed1cdaeb6115181d290602090a15f80806200010b565b835163f92ee8a960e01b8152600490fd5b5f80fd5b634e487b7160e01b5f52604160045260245ffd5b51906001600160a01b0382168203620001e45756fe6080604052600436101562000026575b36156200001a575f80fd5b62000024620024b7565b005b5f3560e01c806301e1d114146200034e57806307a2d13a1462000348578063096ae80d14620003425780630b10b201146200033c57806314c4184b146200033657806318f7295014620003305780631a7ff553146200032a5780632cdf740114620003245780633229fa95146200031e57806333194c0a14620003185780633a98ef391462000312578063439fab91146200030c5780634690484014620003065780634f1ef286146200030057806352d1902d14620002fa57806353156f2814620002f457806354fd4d5014620002ee5780635c60da1b14620002e85780635cfc1a5114620002e257806360d60e6e14620002dc57806372b410a814620002d6578063754c388814620002d057806376b58b9014620002ca5780637b6341c614620002c45780637fd6f15c14620002be57806383d430d514620002b85780638697d2c214620002b25780638ceab9aa14620002ac578063a045dd0c14620002a6578063a49a1e7d14620002a0578063ac9650d8146200029a578063ad3cb1cc1462000294578063b1f0e7c7146200028e578063b45a1eb51462000288578063c5aecb221462000282578063c6e6f592146200027c578063d0a64ddc1462000276578063d83ad00c1462000270578063e74b981b146200026a578063ee3bd5df1462000264578063f04da65b146200025e578063f132f5d31462000258578063f45bf3d21462000252578063f851a440146200024c5763f9609f08036200000f5762001c94565b62001c6b565b62001c26565b62001bb9565b62001b7a565b62001b52565b62001b1d565b62001af5565b62001ac0565b62001a9e565b62001a80565b62001a46565b62001a1d565b620019d2565b6200194d565b62001843565b62001802565b620015ff565b62001367565b62001162565b6200113c565b62001078565b6200101c565b62000fab565b62000f15565b62000ef3565b62000ed5565b62000e9e565b62000e81565b62000e59565b62000dec565b62000b24565b620009f4565b62000847565b620007bd565b62000781565b62000751565b62000733565b620006fa565b6200067f565b62000645565b62000456565b620003c1565b62000385565b62000363565b5f9103126200035f57565b5f80fd5b346200035f575f3660031901126200035f57602060985460801c604051908152f35b346200035f5760203660031901126200035f576020620003a760043562001cc4565b604051908152f35b6001600160a01b038116036200035f57565b346200035f5760203660031901126200035f57600435620003e281620003af565b61019d805490916001600160a01b03908116908216811462000444577f890ff5077ab1949ce16449a660eb28ce16646b4c99e0901266d44a1042b1f9e892816020936200042e620025ce565b6001600160a01b031916179055604051908152a1005b604051638c8728c760e01b8152600490fd5b346200035f575f3660031901126200035f57620004826200047662002496565b6001600160a01b031690565b330362000633576040516102c8808201908282106001600160401b038311176200062d578291620004f3916200428884396001600160a01b037f00000000000000000000000000000000000000000000000000000000000000001681526040602082018190525f9082015260600190565b03905ff0801562000609576001600160a01b0390811690813b156200035f5760405163439fab9160e01b8152602060048201525f602482018190528160448183875af1801562000609576200060f575b506040516351d5709b60e11b815291602083600481845afa91821562000609577fcdc82cfed67d9b46d3a15dd3b48745fb894a354d554cb5da5fb8c440f85c108e935f93620005cc575b506200059b9083166200363a565b50620005a781620036a8565b50604080516001600160a01b039283168152929091166020830152819081015b0390a1005b6200059b919350620005f99060203d60201162000601575b620005f0818362000a9a565b81019062001cf8565b92906200058d565b503d620005e4565b62001ced565b806200061f620006269262000a32565b8062000354565b5f62000543565b62000a1e565b604051634ca8886760e01b8152600490fd5b346200035f575f3660031901126200035f57610206546040516001600160a01b039091168152602090f35b908160809103126200035f5790565b60603660031901126200035f576004356200069a81620003af565b602435620006a881620003af565b604435906001600160401b0382116200035f57602092620006dc620006d6620003a794369060040162000670565b62001d10565b620006e73362003484565b620006f28162003484565b34906200357e565b346200035f5760203660031901126200035f576004356001600160401b0381116200035f57620006d66200002491369060040162000670565b346200035f575f3660031901126200035f576020620003a762001d3b565b346200035f575f3660031901126200035f5760206200076f62001d74565b6040516001600160a01b039091168152f35b346200035f575f3660031901126200035f5760206040517f903c7cfddba46ee63384d0bf7016d55c117fc01332779257355a1400c68e97d18152f35b346200035f575f3660031901126200035f5760206001600160801b0360985416604051908152f35b9181601f840112156200035f578235916001600160401b0383116200035f57602083818601950101116200035f57565b60206003198201126200035f57600435906001600160401b0382116200035f576200084391600401620007e5565b9091565b620008523662000815565b7ff0c57e16840df040f15088dc2f81fe391c3923bec73e23a9662efc9c229c6a00805460ff8160401c168015620009df575b620009cd5768ffffffffffffffffff19166801000000000000000217905560405163e7f6f22560e01b8152906020908183600481335afa92831562000609575f93620009a9575b50604051636f4fa30f60e01b8152938285600481335afa90811562000609576200091b9562000915945f9362000980575b50506200090d919281019062001db0565b908362002bba565b62002cc8565b7ff0c57e16840df040f15088dc2f81fe391c3923bec73e23a9662efc9c229c6a00805468ff000000000000000019169055604051600281527fc7f505b2f371ae2175ee4913f4499e1f2633a7b5936321eed1cdaeb6115181d2908060208101620005c7565b6200090d93509081620009a192903d106200060157620005f0818362000a9a565b915f620008fc565b620009c5919350823d84116200060157620005f0818362000a9a565b915f620008cb565b60405163f92ee8a960e01b8152600490fd5b5060026001600160401b038216101562000884565b346200035f575f3660031901126200035f576065546040516001600160a01b039091168152602090f35b634e487b7160e01b5f52604160045260245ffd5b6001600160401b0381116200062d57604052565b606081019081106001600160401b038211176200062d57604052565b604081019081106001600160401b038211176200062d57604052565b608081019081106001600160401b038211176200062d57604052565b90601f801991011681019081106001600160401b038211176200062d57604052565b6040519062000acb8262000a62565b565b6001600160401b0381116200062d57601f01601f191660200190565b92919262000af78262000acd565b9162000b07604051938462000a9a565b8294818452818301116200035f578281602093845f960137010152565b6040806003193601126200035f57600490813562000b4281620003af565b6024356001600160401b0381116200035f57366023820112156200035f5762000b75903690602481870135910162000ae9565b9162000b8062002cd7565b80519262000bbb8462000bac60209363439fab9160e01b858401528460248401526044830190620018bf565b03601f19810186528562000a9a565b62000bc562002cd7565b62000bcf620025ce565b6001600160a01b0383811680159291908790841562000dbb575b841562000d33575b841562000cc5575b5050821562000c25575b505062000c165762000024838362003a31565b516355299b4960e01b81528390fd5b83516345da87c560e01b81526001600160a01b03861688820190815292935091839183918290819060200103917f0000000000000000000000000000000000000000000000000000000000000000165afa91821562000609575f9262000c91575b5050155f8062000c03565b62000cb59250803d1062000cbd575b62000cac818362000a9a565b81019062001f3f565b5f8062000c86565b503d62000ca0565b855163054fd4d560e41b81529294508391839182905afa908115620006095760039160ff915f9162000cff575b5016141591865f62000bf9565b62000d249150843d861162000d2b575b62000d1b818362000a9a565b81019062003a16565b5f62000cf2565b503d62000d0f565b935050835163198ca60560e11b815282818981875afa908115620006095788917f903c7cfddba46ee63384d0bf7016d55c117fc01332779257355a1400c68e97d1915f9162000d87575b5014159362000bf1565b62000dac9150853d871162000db3575b62000da3818362000a9a565b810190620026bb565b5f62000d7d565b503d62000d97565b5f805160206200457083398151915254909450849062000de4906001600160a01b031662000476565b149362000be9565b346200035f575f3660031901126200035f577f00000000000000000000000000000000000000000000000000000000000000006001600160a01b0316300362000e475760206040515f80516020620045708339815191528152f35b60405163703e46dd60e11b8152600490fd5b5f3660031901126200035f576001600160a01b0362000e7762001d74565b1633036200063357005b346200035f575f3660031901126200035f57602060405160028152f35b346200035f575f3660031901126200035f575f8051602062004570833981519152546040516001600160a01b039091168152602090f35b346200035f575f3660031901126200035f576020620003a762001e39565b346200035f5760203660031901126200035f576020620003a760043562001e70565b346200035f575f3660031901126200035f57604051633eb1acf760e11b81523060048201526020816024817f00000000000000000000000000000000000000000000000000000000000000006001600160a01b03165afa801562000609576020915f9162000f89575b506040519015158152f35b62000fa49150823d841162000cbd5762000cac818362000a9a565b5f62000f7e565b346200035f5760203660031901126200035f5760043562000fcc81620003af565b62000fd6620025ce565b60d280546001600160a01b0319166001600160a01b03929092169182179055337f6bdc78d8c88160b3fc3638e67f2afe523b3f4c7d00c56ebb6216790e4c3eb2cb5f80a3005b346200035f5760803660031901126200035f5762001074620010576004356200104581620003af565b60643590604435906024359062001f65565b604080519384526020840192909252908201529081906060820190565b0390f35b346200035f575f3660031901126200035f576040518061019e805480845260208094019081925f527fe182ec4162b2bb087af6d462e45917a32b2b0170bcaf1db406b2ae4590b6953b905f5b8682821062001127578686620010dd8288038362000a9a565b60405192839281840190828552518091526040840192915f5b8281106200110657505050500390f35b83516001600160a01b031685528695509381019392810192600101620010f6565b835485529093019260019283019201620010c4565b346200035f575f3660031901126200035f57602061ffff60655460a01c16604051908152f35b346200035f576003196040368201126200035f5760049081356001600160401b038082116200035f5760a08285019383360301126200035f576024359081116200035f57620011b59036908501620007e5565b6001600160a01b037f00000000000000000000000000000000000000000000000000000000000000008116803b156200035f5760405163837d444160e01b8152905f9082908183816200120b8c828f0162002091565b03925af18015620006095762001350575b506200122762003014565b62001231620023c5565b908116331415918262001319575b5050905062001308576044019160c46200125a84846200211b565b90500480158015620012ed575b620012dd57620012816200127a62001d3b565b9162002175565b11620012ce575060c46200129683836200211b565b9050145f14620012b7576200002491620012b0916200211b565b9062003edb565b6200002491620012c7916200211b565b9062003d8e565b6040516396d8043360e01b8152fd5b50604051631c6c4cf360e31b8152fd5b50620012fa84846200211b565b905060c48202141562001267565b604051634ca8886760e01b81528390fd5b6200134392506200133c62001347946200133388620030a7565b92369162000ae9565b916200318c565b1590565b805f806200123f565b806200061f620013609262000a32565b5f6200121c565b346200035f5760603660031901126200035f576004356024356200139060443582843362001f65565b9192620013be7f00000000000000000000000000000000000000000000000000000000000000008262001e5c565b42108015620015f6575b8015620015ed575b620015db577feb3b05c070c24f667611fdb3ff75fe007d42401c573aed8d8faca95fd00ccb569362001425866200141f620014136099546001600160801b031690565b6001600160801b031690565b62002d34565b156200153957620014656200144a6200143e8662003268565b60995460801c6200218f565b6001600160801b036099549181199060801b16911617609955565b60408051336020820190815291810184905260608082018990528152601f1993915f91620014ac91906200149b60808262000a9a565b5190205f52609b60205260405f2090565b555f9360018311620014e8575b50505050620014c982336200329c565b604080519485526020850191909152830152339180606081015b0390a2005b6200152e92939450620014fc908862001e5c565b60408051336020820190815291810193909352606083018290526080958601835290949091906200149b908262000a9a565b555f808080620014b9565b6200154362003014565b6200158462001568620015568662003268565b609e546001600160801b03166200218f565b6001600160801b03166001600160801b0319609e541617609e55565b620015be620015a3620015978562003268565b609e5460801c6200218f565b6001600160801b03609e549181199060801b16911617609e55565b620015d5620015d084609f5462001e5c565b609f55565b62001465565b604051630e3d8e8d60e11b8152600490fd5b508215620013d0565b508115620013c8565b346200035f576040806003193601126200035f57602435906004356200162583620003af565b6200162f62003014565b8015620017f1576001600160a01b038316908115620017e057620016538162001cc4565b908115620017cf57620016668262003b2b565b620016718362003268565b60985460801c9062001683916200218f565b620016a3906001600160801b036098549181199060801b16911617609855565b620016af8233620041c6565b609e54958660801c8281609f5490620016c89162001e5c565b98620016d48762003268565b620016e8916001600160801b031662003716565b62001709906001600160801b03166001600160801b0319609e541617609e55565b620017149162001e5c565b6200171f9062003268565b6200173f906001600160801b03609e549181199060801b16911617609e55565b85516001600160a01b03919091166020820190815242604083015260608083018990528252906200177260808262000a9a565b51902062001788905f52609b60205260405f2090565b5583518581526020810191909152604081019190915233907f869f12645d154414259c47bcb998b6b6983fae50e5e0c6053bc87d4330db9f2d90606090a351908152602090f35b83516318374fd160e21b8152600490fd5b825163d92e233d60e01b8152600490fd5b8151636edcc52360e01b8152600490fd5b346200035f575f3660031901126200035f5761019d546020906001600160a01b03908116806200183c5750805f5416905b60405191168152f35b9062001833565b346200035f57620014e37f2013570c343af8ab14a9778150e381a0fda34ed6368127a95fd5e7210cbec5bf620018793662000815565b929062001885620025ce565b604051918291602083523395602084019162002071565b5f5b838110620018ae5750505f910152565b81810151838201526020016200189e565b90602091620018da815180928185528580860191016200189c565b601f01601f1916010190565b6020808201906020835283518092526040830192602060408460051b8301019501935f915b8483106200191c5750505050505090565b90919293949584806200193c600193603f198682030187528a51620018bf565b98019301930191949392906200190b565b346200035f5760203660031901126200035f576001600160401b036004358181116200035f57366023820112156200035f5780600401359182116200035f573660248360051b830101116200035f5762001074916024620019af920162002304565b60405191829182620018e6565b906020620019cf928181520190620018bf565b90565b346200035f575f3660031901126200035f5762001074604051620019f68162000a62565b60058152640352e302e360dc1b6020820152604051918291602083526020830190620018bf565b346200035f575f3660031901126200035f5760206200076f620023c5565b801515036200035f57565b346200035f5760403660031901126200035f576200002460043562001a6b81620003af565b6024359062001a7a8262001a3b565b620023fc565b346200035f575f3660031901126200035f5760206200076f62002496565b346200035f5760203660031901126200035f576020620003a76004356200333b565b346200035f5760203660031901126200035f576200002460043562001ae581620003af565b62001aef620025ce565b620033d8565b346200035f575f3660031901126200035f5760206001600160801b0360995416604051908152f35b346200035f5760203660031901126200035f576200002460043562001b4281620003af565b62001b4c620025ce565b6200341f565b346200035f575f3660031901126200035f5760206001600160801b03609e5416604051908152f35b346200035f5760203660031901126200035f5760043562001b9b81620003af565b60018060a01b03165f52609c602052602060405f2054604051908152f35b346200035f5760203660031901126200035f5760043562001bda81620003af565b61019c805490916001600160a01b03908116908216811462000444577f399f9aba7ac1bda99e0bee41ebd93a32387a0f37b3934265478e96121dac166d92816020936200042e620025ce565b346200035f5760203660031901126200035f5760043562001c4781620003af565b60018060a01b03165f52610207602052602060ff60405f2054166040519015158152f35b346200035f575f3660031901126200035f575f546040516001600160a01b039091168152602090f35b60403660031901126200035f576020620003a760043562001cb581620003af565b60243590620006dc82620003af565b6098546001600160801b038116908162001cdd57505090565b91620019cf9260801c906200254a565b6040513d5f823e3d90fd5b908160209103126200035f5751620019cf81620003af565b62001d1f62001d2791620026e7565b91906200289f565b62001d2e57565b62001d3862002a73565b50565b476099546001600160801b0362001d5481831662001cc4565b90609e5416019060801c01908181115f1462001d6e570390565b50505f90565b610137546001600160a01b0316801562001d8b5790565b507f000000000000000000000000000000000000000000000000000000000000000090565b906020828203126200035f5781356001600160401b03928382116200035f5701916060838303126200035f576040519262001deb8462000a46565b80358452602081013561ffff811681036200035f57602085015260408101359182116200035f57019080601f830112156200035f5781602062001e319335910162000ae9565b604082015290565b609d5480620019cf57505f1990565b634e487b7160e01b5f52601160045260245ffd5b9190820180921162001e6a57565b62001e48565b6001600160801b036099541662001e8662003ae7565b90810180911162001e6a57811062001ec05762001eb0609f5462001ea962002d4e565b9062001e5c565b111562001ebb575f90565b5f1990565b609a90609a549182915f905b84821062001ee85750505081101562001ee25790565b505f1990565b909193808316906001818518811c830180931162001e6a575f8790525f80516020620045508339815191528301546001600160a01b031684101562001f33575050935b919062001ecc565b90959101925062001f2b565b908160209103126200035f5751620019cf8162001a3b565b9190820391821162001e6a57565b604080516001600160a01b0390921660208301908152908201939093526060810182905290919062001fa581608081015b03601f19810183528262000a9a565b5190205f52609b60205260405f20549182156200201a576001600160801b03609954169062001fd362003ae7565b91820180921162001e6a57839183101562002005579162001ff49262002e5d565b90915b82810390811162001e6a5792565b5090620020129162002dc3565b909162001ff7565b5050505f905f905f90565b9035601e19823603018112156200035f5701602081359101916001600160401b0382116200035f5781360383136200035f57565b90603060609281835260208301375f60508201520190565b908060209392818452848401375f828201840152601f01601f1916010190565b9060a0620019cf92602081528235602082015260208301356040820152620020d2620020c1604085018562002025565b84606085015260c084019162002071565b906200210b620020ff620020ea606087018762002025565b601f1985870381016080870152959162002071565b94608081019062002025565b9390928286030191015262002071565b903590601e19813603018212156200035f57018035906001600160401b0382116200035f576020019181360383136200035f57565b634e487b7160e01b5f52601260045260245ffd5b81156200216f570490565b62002150565b906801bc16d674ec800000918083029283040362001e6a57565b6001600160801b03918216908216039190821162001e6a57565b6001600160401b0381116200062d5760051b60200190565b90620021cd82620021a9565b620021dc604051918262000a9a565b8281528092620021ef601f1991620021a9565b01905f5b8281106200220057505050565b806060602080938501015201620021f3565b634e487b7160e01b5f52603260045260245ffd5b908210156200224057620008439160051b8101906200211b565b62002212565b908092918237015f815290565b3d1562002282573d90620022678262000acd565b9162002277604051938462000a9a565b82523d5f602084013e565b606090565b6020818303126200035f578051906001600160401b0382116200035f570181601f820112156200035f578051620022be8162000acd565b92620022ce604051948562000a9a565b818452602082840101116200035f57620019cf91602080850191016200189c565b8051821015620022405760209160051b010190565b9190916200231283620021c1565b925f5b8181106200232257505050565b5f806200233183858762002226565b604093916200234585518093819362002246565b0390305af4906200235562002253565b9115620023825750906001916200236d8288620022ef565b526200237a8187620022ef565b500162002315565b9060448151106200035f57620023c1620023ab6004928381015160248091830101910162002287565b925162461bcd60e51b81529283928301620019bc565b0390fd5b60d2546001600160a01b031680620019cf57507f000000000000000000000000000000000000000000000000000000000000000090565b610206546001600160a01b0391908216330362000633576001600160a01b0381165f90815261020760205260409020549215159260ff161515831462002491576001600160a01b0381165f9081526102076020526040902060ff1981541660ff851617905560405192835216907fffe80d6d91bb72bd036e4be8badcf33d7c8e13b2a0aaab3dc3aef76f6b1f786a60203392a3565b505050565b61019c546001600160a01b0390811680620024b257505f541690565b905090565b620024c23362003484565b62001d383433620034a6565b90808202905f19818409908280831092039180830392146200253f5761271090828211156200252d577fbc01a36e2eb1c432ca57a786c226809d495182a9930be0ded288ce703afb7e91940990828211900360fc1b910360041c170290565b60405163227bc15360e01b8152600490fd5b505061271091500490565b9091828202915f1984820993838086109503948086039514620025bf57848311156200252d57829109815f038216809204600280826003021880830282030280830282030280830282030280830282030280830282030280920290030293600183805f03040190848311900302920304170290565b505090620019cf925062002164565b5f546001600160a01b031633036200063357565b908160609103126200035f5780519160406020830151920151620019cf8162001a3b565b81835290916001600160fb1b0383116200035f5760209260051b809284830137010190565b90602082528035602083015260208101358060130b8091036200035f57604083015260408101356200265d81620003af565b6001600160a01b031660608381019190915281013536829003601e19018112156200035f5701602081359101906001600160401b0381116200035f578060051b360382136200035f5760a083608080620019cf960152019162002606565b908160209103126200035f575190565b9190915f838201938412911290801582169115161762001e6a57565b6040516325f56f1160e01b81526001600160a01b039291606090829081906200271490600483016200262b565b03815f877f0000000000000000000000000000000000000000000000000000000000000000165af192831562000609575f915f905f9562002852575b508415620027f757816200276362001d74565b16917f0000000000000000000000000000000000000000000000000000000000000000168214620027ef57509060205f92600460405180958193634641257d60e01b83525af19081156200060957620027c5925f92620027c9575b50620026cb565b9190565b620027e791925060203d60201162000db35762000da3818362000a9a565b905f620027be565b9081620027fd575b50509190565b803b156200035f57604051636ee3193160e11b815260048101929092525f908290602490829084905af1801562000609576200283b575b80620027f7565b806200061f6200284b9262000a32565b5f62002834565b919450506200287d915060603d60601162002886575b62002874818362000a9a565b810190620025e2565b93905f62002750565b503d62002868565b600160ff1b811462001e6a575f0390565b801562001d3857620028b76200141360985460801c90565b5f8212620029b75781620028cb9162001e5c565b90620028f6620028db8362003268565b6001600160801b036098549181199060801b16911617609855565b6200290d6065549161ffff8360a01c1690620024ce565b80156200249157807f555ee6b2ef9506d870f386c067e47d3689435330b012ad263d8cc35318686547936200294e620014136098546001600160801b031690565b806200299d5750506200299890925b6001600160a01b03169162002973848462003732565b60405193849384604091949392606082019560018060a01b0316825260208201520152565b0390a1565b6200299892620029b0920390846200254a565b926200295d565b90620029c3906200288e565b620029da62001413609e546001600160801b031690565b8062002a06575b5080620029ec575050565b62002a00620028db9162000acb9362001f57565b62003268565b9062002a697f3623a54e8078be0d90ecfbef82da6a31ff3e6be8aa1718e7a7f3d0d33ff1d32a9162002a596200156862002a4d62002a45888862001e5c565b87856200254a565b80809403960362003268565b6040519081529081906020820190565b0390a15f620029e1565b609954906001600160801b03821691821562002bb45760801c62002aae62002a9c824762001f57565b62002aa78562001cc4565b9062003782565b90811562002bad5762002ac1826200333b565b93841562002ba5578262002b1a6200144a62002a0062000acb96620028db9662002b1462002af862002a008d62002b999a62001f57565b6001600160801b03166001600160801b03196099541617609955565b62001e5c565b62002b268187620037ec565b60408051878152602081018390527f624ea167e477f9d39f7f4094b9dfe2e6346eb4a7aada54338db51abd554c4b9f9190a162002a0062002b7d62002b6b8862003268565b6098546001600160801b03166200218f565b6001600160801b03166001600160801b03196098541617609855565b60985460801c6200218f565b505f93505050565b505f925050565b505f9150565b62002bc4620038cf565b604083015162002bd3620038cf565b6001600160a01b038216801562002cb6576001600160601b0360a01b5f5416175f557f2013570c343af8ab14a9778150e381a0fda34ed6368127a95fd5e7210cbec5bf604051602081528062002c2f33946020830190620018bf565b0390a260208301519262002c42620038cf565b61271061ffff85161162002ca45762002c9a9362002c6462002c8a936200341f565b6065805461ffff60a01b191660a09290921b61ffff60a01b169190911790555162003911565b62002c9462003945565b62003978565b62000acb620039aa565b604051638a81d3b360e01b8152600490fd5b60405163d92e233d60e01b8152600490fd5b62000acb9062001aef620038cf565b6001600160a01b037f0000000000000000000000000000000000000000000000000000000000000000811630811491821562002d17575b505062000e4757565b5f80516020620045708339815191525416141590505f8062002d0e565b9062002d3f62003ae7565b91820180921162001e6a571090565b476099548060801c820391821162001e6a578162002d766001600160801b0380931662001cc4565b908162002da2575b5050811562001d6e57620019cf9162002d9c91609e54169062003782565b62003b2b565b919250908181111562002dba57035b905f8062002d7e565b50505f62002db1565b62002dcd62002d4e565b91609f5492830180931162001e6a578083111562002e1e5762002df292039062003782565b90609e548060801c80155f1462002e095750508190565b6001600160801b03620019cf9216846200254a565b5050505f905f90565b90604051604081018181106001600160401b038211176200062d5760405291546001600160a01b038116835260a01c6020830152565b609a545f9485949390918084108015906200300b575b62002ffe578362002fc7575f5b609a5f526001600160a01b031662002ea85f8051602062004550833981519152860162002e27565b805190979062002ec1906001600160a01b031662000476565b9862002ee862002edc6020809b01516001600160601b031690565b6001600160601b031690565b94838110801562002fbc575b62002faa5791600193979a9562002f1762002f24939488035b838c039062003782565b809201988703916200254a565b0197019380861180159062002f9f575b62002f9457609a5f52829062002f5a5f8051602062004550833981519152870162002e27565b805190890151969992966001600160a01b03909116946001939262002f249290916001600160601b039091169062002f1790880362002f0d565b945050509250509190565b508185101562002f34565b60405163e8722f8f60e01b8152600490fd5b50808b111562002ef4565b609a5f527f44da158ba27f9252712a74ff6a55c5d531f69609f1f6e7f17c4443a8e2089be38401546001600160a01b031662002e80565b505093505050505f905f90565b50841562002e73565b604051633eb1acf760e11b81523060048201526020816024817f00000000000000000000000000000000000000000000000000000000000000006001600160a01b03165afa90811562000609575f9162003083575b506200307157565b60405163e775715160e01b8152600490fd5b620030a0915060203d60201162000cbd5762000cac818362000a9a565b5f62003069565b604290467f0000000000000000000000000000000000000000000000000000000000000000036200315c5760d354905b620030f2620030ea60408301836200211b565b369162000ae9565b602081519101206040519060208201927f838af86bfca91ada6557e38d913af1c2f24ef9b2567b3b77cc9e1144314b35b084523560408301526060820152606081526200313f8162000a7e565b5190206040519161190160f01b8352600283015260228201522090565b6200316662003b67565b90620030d7565b600411156200317857565b634e487b7160e01b5f52602160045260245ffd5b62003198838362003c37565b50620031a7819592956200316d565b15938462003251575b508315620031bf575b50505090565b5f929350908291604051620031fa8162001f966020820194630b135d3f60e11b998a87526024840152604060448401526064830190620018bf565b51915afa906200320962002253565b8262003242575b8262003222575b50505f8080620031b9565b6200323991925060208082518301019101620026bb565b145f8062003217565b91506020825110159162003210565b6001600160a01b0383811691161493505f620031b0565b6001600160801b03908181116200327d571690565b604490604051906306dfcc6560e41b8252608060048301526024820152fd5b907f9b779b17422d0df92223018b32b4d1fa46e071723d6817e2486d003becc55f0091600283541462003329576002835581471062003311575f918291829182916001600160a01b03165af1620032f262002253565b5015620032ff5760019055565b604051630a12f52160e11b8152600490fd5b60405163cd78605960e01b8152306004820152602490fd5b604051633ee5aeb560e01b8152600490fd5b609854906001600160801b038216811580156200336e575b156200335f5750905090565b620019cf9260801c916200254a565b50801562003353565b6098546001600160801b0381169082158015620033cf575b156200339a57505090565b60801c90620033ab8282856200254a565b9282156200216f5709620033bc5790565b6001810180911115620019cf5762001e48565b5081156200338f565b61020680546001600160a01b0319166001600160a01b03929092169182179055337fdd44becc667b27d303085374b2760e783af69bbc9db209947ab811a6f1bbc58b5f80a3565b6200342962003014565b6001600160a01b031680156200347257606580546001600160a01b03191682179055337faaebcf1bfa00580e41d966056b48521fa9f202645c86d4ddf28113e617c1b1d35f80a3565b604051630ed1b8b360e31b8152600490fd5b6001600160a01b03165f908152610207602052604090205460ff166200063357565b9190620034b262003014565b6001600160a01b03831690811562002cb65780156200356c5780620034dd6200141360985460801c90565b0193620034e962001e39565b85116200355a57620028db94620035189162003512620035098562003377565b97889362003268565b62003732565b60408051918252602082018590525f9082015233907f861a4138e41fb21c121a7dbb1053df465c837fc77380cc7226189a662281be2c9080606081015b0390a3565b6040516304ffa0ff60e51b8152600490fd5b6040516318374fd160e21b8152600490fd5b909291926200358c62003014565b6001600160a01b03821691821562002cb65781156200356c5781620035b76200141360985460801c90565b01620035c262001e39565b81116200355a57620028db956200361162003555927f861a4138e41fb21c121a7dbb1053df465c837fc77380cc7226189a662281be2c9462003512620036088862003377565b9a8b9362003268565b60408051948552602085018890526001600160a01b039091169084015233929081906060820190565b805f5261019f8060205260405f2054155f1462001d6e5761019e8054600160401b8110156200062d5760018101808355811015620022405783907fe182ec4162b2bb087af6d462e45917a32b2b0170bcaf1db406b2ae4590b6953b015554915f5260205260405f2055600190565b805f526101a18060205260405f2054155f1462001d6e576101a08054600160401b8110156200062d5760018101808355811015620022405783907f7980fe0f714a613298681d64b7b8ffa7b148338dd52429f307d72798d5c317c4015554915f5260205260405f2055600190565b9190916001600160801b038080941691160191821162001e6a57565b6200373d8262003268565b60985490620037576001600160801b039182841662003716565b16906001600160801b0319161760985560018060a01b03165f52609c60205260405f20908154019055565b9080821015620024b2575090565b609a5490600160401b8210156200062d576001820180609a558210156200224057609a5f52805160209091015160a01b6001600160a01b0319166001600160a01b0391909116175f805160206200455083398151915290910155565b91909180158015620038c6575b620038b4576200380862003ae7565b90810180911162001e6a576001600160a01b0380821162003894576001600160601b039081851162003874579062000acb93946200385d6200386e936200384e62000abc565b95166001600160a01b03168552565b166001600160601b03166020830152565b62003790565b6040516306dfcc6560e41b81526060600482015260248101869052604490fd5b6040516306dfcc6560e41b815260a0600482015260248101839052604490fd5b604051632ec8835b60e21b8152600490fd5b508215620037f9565b60ff7ff0c57e16840df040f15088dc2f81fe391c3923bec73e23a9662efc9c229c6a005460401c1615620038ff57565b604051631afcd79f60e31b8152600490fd5b6200391b620038cf565b80156200393357600181016200392e5750565b609d55565b6040516331278a8760e01b8152600490fd5b6200394f620038cf565b6801bc16d674ec8000006200396362001e39565b1062003933576200397362003b67565b60d355565b62003982620038cf565b6001600160a01b031680620039945750565b61013780546001600160a01b0319169091179055565b620039b4620038cf565b620039be620038cf565b620039c8620038cf565b60017f9b779b17422d0df92223018b32b4d1fa46e071723d6817e2486d003becc55f0055633b9aca00341062003a045762001d383430620034a6565b60405163ea2559bb60e01b8152600490fd5b908160209103126200035f575160ff811681036200035f5790565b6040516352d1902d60e01b81529290916020846004816001600160a01b0387165afa5f948162003ac1575b5062003a8357604051634c9c8ce360e01b81526001600160a01b0384166004820152602490fd5b90915f8051602062004570833981519152840362003aa85762000acb92935062003fd3565b604051632a87526960e21b815260048101859052602490fd5b62003adf91955060203d60201162000db35762000da3818362000a9a565b935f62003a5c565b609a548062003af557505f90565b609a5f527f44da158ba27f9252712a74ff6a55c5d531f69609f1f6e7f17c4443a8e2089be301546001600160a01b031662000476565b609e54908160801c8115801562003b5e575b1562003b495750905090565b6001600160801b03620019cf9316916200254a565b50801562003b3d565b6e5661756c7456616c696461746f727360881b602060405162003b8a8162000a62565b600f8152015260405160208101907f8b73c3c69bb8fe3d512ecc4cf759cc79239f7b179b0ffacaa9a75d522b39400f82527f35d6cf9768d8be929c3a11ed667b1560ae6f1920195a985758fdd7265505d1ca60408201527fc89efdaa54c0f20c7adf612882df0950f5a951637e0307cdcb4c672f298b8bc660608201524660808201523060a082015260a0815260c081018181106001600160401b038211176200062d5760405251902090565b815191906041830362003c6a5762003c639250602082015190606060408401519301515f1a906200407b565b9192909190565b50505f9160029190565b906030116200035f5790603090565b909291928360b0116200035f5783116200035f5760b0019160af190190565b906090116200035f5760300190606090565b9060c4116200035f5760900190603490565b909392938483116200035f5784116200035f578101920390565b35906020811062003cef575090565b5f199060200360031b1b1690565b95949362003d2f62003d3e9362003d206060969460808b5260808b019062002059565b9089820360208b0152620018bf565b91878303604089015262002071565b930152565b9695949062003d3e9362003d2062003d2f926060979560808c5260808c019162002071565b906020620019cf92818152019062002059565b916020620019cf93818152019162002071565b7f00000000000000000000000000000000000000000000000000000000000000006001600160a01b03169160c480820492905f9081805b86841062003dd7575050505050505050565b8262003de891018092878762003cc6565b9062003df5828262003c74565b9162003e0e62003e0785808462003c83565b9062004100565b9062003e3362003e2c62003e23878462003ca2565b97909362003cb4565b9062003ce0565b948c3b156200035f578c5f926801bc16d674ec80000060409562003e6f87519a8b96879586946304512a2360e31b86528d8d6004880162003d43565b03925af190811562000609577f64b6e61d93b7a91e8cc4376183ede0997a27b44fd9dd2f30a866b2a5730efdb19462003eb49262003ec4575b50519283928362003d7b565b0390a16001819301929062003dc5565b806200061f62003ed49262000a32565b5f62003ea8565b816030116200035f577f00000000000000000000000000000000000000000000000000000000000000006001600160a01b03169162003f2062003e0782808562003c83565b62003f2c828462003ca2565b94909260b0116200035f57803b156200035f5762003f75946801bc16d674ec8000005f94604051978895869485936304512a2360e31b855260908b0135928b6004870162003cfd565b03925af190811562000609577f64b6e61d93b7a91e8cc4376183ede0997a27b44fd9dd2f30a866b2a5730efdb192620029989262003fbc575b506040519182918262003d68565b806200061f62003fcc9262000a32565b5f62003fae565b90813b156200405a575f805160206200457083398151915280546001600160a01b0319166001600160a01b0384169081179091557fbc7cd75a20ee27fd9adebab32041f755214dbc6bffa90cc0225b39da2e5c2d3b5f80a28051156200403e5762001d389162004216565b5050346200404857565b60405163b398979f60e01b8152600490fd5b604051634c9c8ce360e01b81526001600160a01b0383166004820152602490fd5b91907f7fffffffffffffffffffffffffffffff5d576e7357a4501ddfe92f46681b20a08411620040f5579160209360809260ff5f9560405194855216868401526040830152606082015282805260015afa1562000609575f516001600160a01b03811615620040eb57905f905f90565b505f906001905f90565b5050505f9160039190565b60148203620041b4576bffffffffffffffffffffffff1991903582811691601481106200419e575b5050905060601c6200414a62001343825f5261019f60205260405f2054151590565b6200418c5760408051600160f81b60208201525f602182015260609290921b6bffffffffffffffffffffffff1916602c830152620019cf908290810162001f96565b604051632899266560e21b8152600490fd5b8391925060140360031b1b1616805f8062004128565b604051639be7315960e01b8152600490fd5b60018060a01b03165f52609c60205260405f2090815481810390811162001e6a57620041f3925562003268565b609854906001600160801b03908183160316906001600160801b03191617609855565b5f80620019cf93602081519101845af46200423062002253565b9190620042485750805115620032ff57805190602001fd5b815115806200427d575b6200425b575090565b604051639996b31560e01b81526001600160a01b039091166004820152602490fd5b50803b156200425256fe60806040526102c8803803806100148161018e565b92833981019060408183031261018a5780516001600160a01b03811680820361018a5760208381015190936001600160401b03821161018a570184601f8201121561018a5780519061006d610068836101c7565b61018e565b9582875285838301011161018a5784905f5b8381106101765750505f9186010152813b1561015e577f360894a13ba1a3210667c828492db98dca3e2076cc3735a920a3ca505d382bbc80546001600160a01b03191682179055604051907fbc7cd75a20ee27fd9adebab32041f755214dbc6bffa90cc0225b39da2e5c2d3b5f80a283511561014057505f80848461012796519101845af4903d15610137573d610118610068826101c7565b9081525f81943d92013e6101e2565b505b604051608290816102468239f35b606092506101e2565b925050503461014f5750610129565b63b398979f60e01b8152600490fd5b60249060405190634c9c8ce360e01b82526004820152fd5b81810183015188820184015286920161007f565b5f80fd5b6040519190601f01601f191682016001600160401b038111838210176101b357604052565b634e487b7160e01b5f52604160045260245ffd5b6001600160401b0381116101b357601f01601f191660200190565b9061020957508051156101f757805190602001fd5b604051630a12f52160e11b8152600490fd5b8151158061023c575b61021a575090565b604051639996b31560e01b81526001600160a01b039091166004820152602490fd5b50803b1561021256fe60806040527f360894a13ba1a3210667c828492db98dca3e2076cc3735a920a3ca505d382bbc545f9081906001600160a01b0316368280378136915af43d5f803e156048573d5ff35b3d5ffdfea2646970667358221220590de6162af1aca5f7d380e459394ce97dc6a2e4a2575dd7c58d5d1cb01c826d64736f6c6343000816003344da158ba27f9252712a74ff6a55c5d531f69609f1f6e7f17c4443a8e2089be4360894a13ba1a3210667c828492db98dca3e2076cc3735a920a3ca505d382bbca2646970667358221220e2d517320a9fadaaddd17a211bfed4486c2c06086c6439e680db393c4e762f5a64736f6c63430008160033",
  "linkReferences": {},
  "deployedLinkReferences": {}
}