{
  "_format": "hh-sol-artifact-1",
  "contractName": "EthRestakePrivErc20Vault",
  "sourceName": "contracts/vaults/ethereum/restake/EthRestakePrivErc20Vault.sol",
  "abi": [
    {
      "inputs": [
        {
          "internalType": "address",
          "name": "_keeper",
          "type": "address"
        },
        {
          "internalType": "address",
          "name": "_vaultsRegistry",
          "type": "address"
        },
        {
          "internalType": "address",
          "name": "_validatorsRegistry",
          "type": "address"
        },
        {
          "internalType": "address",
          "name": "sharedMevEscrow",
          "type": "address"
        },
        {
          "internalType": "address",
          "name": "depositDataRegistry",
          "type": "address"
        },
        {
          "internalType": "address",
          "name": "eigenPodOwnerImplementation",
          "type": "address"
        },
        {
          "internalType": "uint256",
          "name": "exitingAssetsClaimDelay",
          "type": "uint256"
        }
      ],
      "stateMutability": "nonpayable",
      "type": "constructor"
    },
    {
      "inputs": [],
      "name": "AccessDenied",
      "type": "error"
    },
    {
      "inputs": [
        {
          "internalType": "address",
          "name": "target",
          "type": "address"
        }
      ],
      "name": "AddressEmptyCode",
      "type": "error"
    },
    {
      "inputs": [
        {
          "internalType": "address",
          "name": "account",
          "type": "address"
        }
      ],
      "name": "AddressInsufficientBalance",
      "type": "error"
    },
    {
      "inputs": [],
      "name": "CapacityExceeded",
      "type": "error"
    },
    {
      "inputs": [],
      "name": "DeadlineExpired",
      "type": "error"
    },
    {
      "inputs": [
        {
          "internalType": "address",
          "name": "implementation",
          "type": "address"
        }
      ],
      "name": "ERC1967InvalidImplementation",
      "type": "error"
    },
    {
      "inputs": [],
      "name": "ERC1967NonPayable",
      "type": "error"
    },
    {
      "inputs": [],
      "name": "EigenPodNotFound",
      "type": "error"
    },
    {
      "inputs": [],
      "name": "ExitRequestNotProcessed",
      "type": "error"
    },
    {
      "inputs": [],
      "name": "FailedInnerCall",
      "type": "error"
    },
    {
      "inputs": [],
      "name": "InsufficientAssets",
      "type": "error"
    },
    {
      "inputs": [],
      "name": "InvalidAssets",
      "type": "error"
    },
    {
      "inputs": [],
      "name": "InvalidCapacity",
      "type": "error"
    },
    {
      "inputs": [],
      "name": "InvalidCheckpointIndex",
      "type": "error"
    },
    {
      "inputs": [],
      "name": "InvalidCheckpointValue",
      "type": "error"
    },
    {
      "inputs": [],
      "name": "InvalidFeePercent",
      "type": "error"
    },
    {
      "inputs": [],
      "name": "InvalidFeeRecipient",
      "type": "error"
    },
    {
      "inputs": [],
      "name": "InvalidInitialization",
      "type": "error"
    },
    {
      "inputs": [],
      "name": "InvalidSecurityDeposit",
      "type": "error"
    },
    {
      "inputs": [],
      "name": "InvalidShares",
      "type": "error"
    },
    {
      "inputs": [],
      "name": "InvalidTokenMeta",
      "type": "error"
    },
    {
      "inputs": [],
      "name": "InvalidValidators",
      "type": "error"
    },
    {
      "inputs": [],
      "name": "InvalidWithdrawalCredentials",
      "type": "error"
    },
    {
      "inputs": [],
      "name": "MathOverflowedMulDiv",
      "type": "error"
    },
    {
      "inputs": [],
      "name": "NotHarvested",
      "type": "error"
    },
    {
      "inputs": [],
      "name": "NotInitializing",
      "type": "error"
    },
    {
      "inputs": [],
      "name": "PermitInvalidSigner",
      "type": "error"
    },
    {
      "inputs": [],
      "name": "ReentrancyGuardReentrantCall",
      "type": "error"
    },
    {
      "inputs": [
        {
          "internalType": "uint8",
          "name": "bits",
          "type": "uint8"
        },
        {
          "internalType": "uint256",
          "name": "value",
          "type": "uint256"
        }
      ],
      "name": "SafeCastOverflowedUintDowncast",
      "type": "error"
    },
    {
      "inputs": [],
      "name": "UUPSUnauthorizedCallContext",
      "type": "error"
    },
    {
      "inputs": [
        {
          "internalType": "bytes32",
          "name": "slot",
          "type": "bytes32"
        }
      ],
      "name": "UUPSUnsupportedProxiableUUID",
      "type": "error"
    },
    {
      "inputs": [],
      "name": "UpgradeFailed",
      "type": "error"
    },
    {
      "inputs": [],
      "name": "ValueNotChanged",
      "type": "error"
    },
    {
      "inputs": [],
      "name": "ZeroAddress",
      "type": "error"
    },
    {
      "anonymous": false,
      "inputs": [
        {
          "indexed": true,
          "internalType": "address",
          "name": "owner",
          "type": "address"
        },
        {
          "indexed": true,
          "internalType": "address",
          "name": "spender",
          "type": "address"
        },
        {
          "indexed": false,
          "internalType": "uint256",
          "name": "value",
          "type": "uint256"
        }
      ],
      "name": "Approval",
      "type": "event"
    },
    {
      "anonymous": false,
      "inputs": [
        {
          "indexed": false,
          "internalType": "uint256",
          "name": "shares",
          "type": "uint256"
        },
        {
          "indexed": false,
          "internalType": "uint256",
          "name": "assets",
          "type": "uint256"
        }
      ],
      "name": "CheckpointCreated",
      "type": "event"
    },
    {
      "anonymous": false,
      "inputs": [
        {
          "indexed": true,
          "internalType": "address",
          "name": "caller",
          "type": "address"
        },
        {
          "indexed": true,
          "internalType": "address",
          "name": "receiver",
          "type": "address"
        },
        {
          "indexed": false,
          "internalType": "uint256",
          "name": "assets",
          "type": "uint256"
        },
        {
          "indexed": false,
          "internalType": "uint256",
          "name": "shares",
          "type": "uint256"
        },
        {
          "indexed": false,
          "internalType": "address",
          "name": "referrer",
          "type": "address"
        }
      ],
      "name": "Deposited",
      "type": "event"
    },
    {
      "anonymous": false,
      "inputs": [
        {
          "indexed": false,
          "internalType": "address",
          "name": "eigenPodOwner",
          "type": "address"
        },
        {
          "indexed": false,
          "internalType": "address",
          "name": "eigenPod",
          "type": "address"
        }
      ],
      "name": "EigenPodCreated",
      "type": "event"
    },
    {
      "anonymous": false,
      "inputs": [
        {
          "indexed": true,
          "internalType": "address",
          "name": "owner",
          "type": "address"
        },
        {
          "indexed": true,
          "internalType": "address",
          "name": "receiver",
          "type": "address"
        },
        {
          "indexed": false,
          "internalType": "uint256",
          "name": "positionTicket",
          "type": "uint256"
        },
        {
          "indexed": false,
          "internalType": "uint256",
          "name": "shares",
          "type": "uint256"
        }
      ],
      "name": "ExitQueueEntered",
      "type": "event"
    },
    {
      "anonymous": false,
      "inputs": [
        {
          "indexed": true,
          "internalType": "address",
          "name": "receiver",
          "type": "address"
        },
        {
          "indexed": false,
          "internalType": "uint256",
          "name": "prevPositionTicket",
          "type": "uint256"
        },
        {
          "indexed": false,
          "internalType": "uint256",
          "name": "newPositionTicket",
          "type": "uint256"
        },
        {
          "indexed": false,
          "internalType": "uint256",
          "name": "withdrawnAssets",
          "type": "uint256"
        }
      ],
      "name": "ExitedAssetsClaimed",
      "type": "event"
    },
    {
      "anonymous": false,
      "inputs": [
        {
          "indexed": false,
          "internalType": "uint256",
          "name": "penalty",
          "type": "uint256"
        }
      ],
      "name": "ExitingAssetsPenalized",
      "type": "event"
    },
    {
      "anonymous": false,
      "inputs": [
        {
          "indexed": true,
          "internalType": "address",
          "name": "caller",
          "type": "address"
        },
        {
          "indexed": true,
          "internalType": "address",
          "name": "feeRecipient",
          "type": "address"
        }
      ],
      "name": "FeeRecipientUpdated",
      "type": "event"
    },
    {
      "anonymous": false,
      "inputs": [
        {
          "indexed": false,
          "internalType": "address",
          "name": "receiver",
          "type": "address"
        },
        {
          "indexed": false,
          "internalType": "uint256",
          "name": "shares",
          "type": "uint256"
        },
        {
          "indexed": false,
          "internalType": "uint256",
          "name": "assets",
          "type": "uint256"
        }
      ],
      "name": "FeeSharesMinted",
      "type": "event"
    },
    {
      "anonymous": false,
      "inputs": [
        {
          "indexed": false,
          "internalType": "uint64",
          "name": "version",
          "type": "uint64"
        }
      ],
      "name": "Initialized",
      "type": "event"
    },
    {
      "anonymous": false,
      "inputs": [
        {
          "indexed": true,
          "internalType": "address",
          "name": "caller",
          "type": "address"
        },
        {
          "indexed": true,
          "internalType": "address",
          "name": "keysManager",
          "type": "address"
        }
      ],
      "name": "KeysManagerUpdated",
      "type": "event"
    },
    {
      "anonymous": false,
      "inputs": [
        {
          "indexed": true,
          "internalType": "address",
          "name": "caller",
          "type": "address"
        },
        {
          "indexed": false,
          "internalType": "string",
          "name": "metadataIpfsHash",
          "type": "string"
        }
      ],
      "name": "MetadataUpdated",
      "type": "event"
    },
    {
      "anonymous": false,
      "inputs": [
        {
          "indexed": true,
          "internalType": "address",
          "name": "owner",
          "type": "address"
        },
        {
          "indexed": true,
          "internalType": "address",
          "name": "receiver",
          "type": "address"
        },
        {
          "indexed": false,
          "internalType": "uint256",
          "name": "assets",
          "type": "uint256"
        },
        {
          "indexed": false,
          "internalType": "uint256",
          "name": "shares",
          "type": "uint256"
        }
      ],
      "name": "Redeemed",
      "type": "event"
    },
    {
      "anonymous": false,
      "inputs": [
        {
          "indexed": false,
          "internalType": "address",
          "name": "newRestakeOperatorsManager",
          "type": "address"
        }
      ],
      "name": "RestakeOperatorsManagerUpdated",
      "type": "event"
    },
    {
      "anonymous": false,
      "inputs": [
        {
          "indexed": false,
          "internalType": "address",
          "name": "newRestakeWithdrawalsManager",
          "type": "address"
        }
      ],
      "name": "RestakeWithdrawalsManagerUpdated",
      "type": "event"
    },
    {
      "anonymous": false,
      "inputs": [
        {
          "indexed": true,
          "internalType": "address",
          "name": "from",
          "type": "address"
        },
        {
          "indexed": true,
          "internalType": "address",
          "name": "to",
          "type": "address"
        },
        {
          "indexed": false,
          "internalType": "uint256",
          "name": "value",
          "type": "uint256"
        }
      ],
      "name": "Transfer",
      "type": "event"
    },
    {
      "anonymous": false,
      "inputs": [
        {
          "indexed": true,
          "internalType": "address",
          "name": "implementation",
          "type": "address"
        }
      ],
      "name": "Upgraded",
      "type": "event"
    },
    {
      "anonymous": false,
      "inputs": [
        {
          "indexed": true,
          "internalType": "address",
          "name": "owner",
          "type": "address"
        },
        {
          "indexed": true,
          "internalType": "address",
          "name": "receiver",
          "type": "address"
        },
        {
          "indexed": false,
          "internalType": "uint256",
          "name": "positionTicket",
          "type": "uint256"
        },
        {
          "indexed": false,
          "internalType": "uint256",
          "name": "shares",
          "type": "uint256"
        },
        {
          "indexed": false,
          "internalType": "uint256",
          "name": "assets",
          "type": "uint256"
        }
      ],
      "name": "V2ExitQueueEntered",
      "type": "event"
    },
    {
      "anonymous": false,
      "inputs": [
        {
          "indexed": false,
          "internalType": "bytes",
          "name": "publicKey",
          "type": "bytes"
        }
      ],
      "name": "ValidatorRegistered",
      "type": "event"
    },
    {
      "anonymous": false,
      "inputs": [
        {
          "indexed": true,
          "internalType": "address",
          "name": "caller",
          "type": "address"
        },
        {
          "indexed": true,
          "internalType": "address",
          "name": "validatorsManager",
          "type": "address"
        }
      ],
      "name": "ValidatorsManagerUpdated",
      "type": "event"
    },
    {
      "anonymous": false,
      "inputs": [
        {
          "indexed": true,
          "internalType": "address",
          "name": "caller",
          "type": "address"
        },
        {
          "indexed": true,
          "internalType": "bytes32",
          "name": "validatorsRoot",
          "type": "bytes32"
        }
      ],
      "name": "ValidatorsRootUpdated",
      "type": "event"
    },
    {
      "anonymous": false,
      "inputs": [
        {
          "indexed": true,
          "internalType": "address",
          "name": "caller",
          "type": "address"
        },
        {
          "indexed": true,
          "internalType": "address",
          "name": "account",
          "type": "address"
        },
        {
          "indexed": false,
          "internalType": "bool",
          "name": "approved",
          "type": "bool"
        }
      ],
      "name": "WhitelistUpdated",
      "type": "event"
    },
    {
      "anonymous": false,
      "inputs": [
        {
          "indexed": true,
          "internalType": "address",
          "name": "caller",
          "type": "address"
        },
        {
          "indexed": true,
          "internalType": "address",
          "name": "whitelister",
          "type": "address"
        }
      ],
      "name": "WhitelisterUpdated",
      "type": "event"
    },
    {
      "inputs": [],
      "name": "DOMAIN_SEPARATOR",
      "outputs": [
        {
          "internalType": "bytes32",
          "name": "",
          "type": "bytes32"
        }
      ],
      "stateMutability": "view",
      "type": "function"
    },
    {
      "inputs": [],
      "name": "UPGRADE_INTERFACE_VERSION",
      "outputs": [
        {
          "internalType": "string",
          "name": "",
          "type": "string"
        }
      ],
      "stateMutability": "view",
      "type": "function"
    },
    {
      "inputs": [],
      "name": "admin",
      "outputs": [
        {
          "internalType": "address",
          "name": "",
          "type": "address"
        }
      ],
      "stateMutability": "view",
      "type": "function"
    },
    {
      "inputs": [
        {
          "internalType": "address",
          "name": "",
          "type": "address"
        },
        {
          "internalType": "address",
          "name": "",
          "type": "address"
        }
      ],
      "name": "allowance",
      "outputs": [
        {
          "internalType": "uint256",
          "name": "",
          "type": "uint256"
        }
      ],
      "stateMutability": "view",
      "type": "function"
    },
    {
      "inputs": [
        {
          "internalType": "address",
          "name": "spender",
          "type": "address"
        },
        {
          "internalType": "uint256",
          "name": "amount",
          "type": "uint256"
        }
      ],
      "name": "approve",
      "outputs": [
        {
          "internalType": "bool",
          "name": "",
          "type": "bool"
        }
      ],
      "stateMutability": "nonpayable",
      "type": "function"
    },
    {
      "inputs": [
        {
          "internalType": "address",
          "name": "account",
          "type": "address"
        }
      ],
      "name": "balanceOf",
      "outputs": [
        {
          "internalType": "uint256",
          "name": "",
          "type": "uint256"
        }
      ],
      "stateMutability": "view",
      "type": "function"
    },
    {
      "inputs": [
        {
          "internalType": "address",
          "name": "receiver",
          "type": "address"
        },
        {
          "internalType": "uint256",
          "name": "positionTicket",
          "type": "uint256"
        },
        {
          "internalType": "uint256",
          "name": "timestamp",
          "type": "uint256"
        },
        {
          "internalType": "uint256",
          "name": "exitQueueIndex",
          "type": "uint256"
        }
      ],
      "name": "calculateExitedAssets",
      "outputs": [
        {
          "internalType": "uint256",
          "name": "leftTickets",
          "type": "uint256"
        },
        {
          "internalType": "uint256",
          "name": "exitedTickets",
          "type": "uint256"
        },
        {
          "internalType": "uint256",
          "name": "exitedAssets",
          "type": "uint256"
        }
      ],
      "stateMutability": "view",
      "type": "function"
    },
    {
      "inputs": [],
      "name": "capacity",
      "outputs": [
        {
          "internalType": "uint256",
          "name": "",
          "type": "uint256"
        }
      ],
      "stateMutability": "view",
      "type": "function"
    },
    {
      "inputs": [
        {
          "internalType": "uint256",
          "name": "positionTicket",
          "type": "uint256"
        },
        {
          "internalType": "uint256",
          "name": "timestamp",
          "type": "uint256"
        },
        {
          "internalType": "uint256",
          "name": "exitQueueIndex",
          "type": "uint256"
        }
      ],
      "name": "claimExitedAssets",
      "outputs": [],
      "stateMutability": "nonpayable",
      "type": "function"
    },
    {
      "inputs": [
        {
          "internalType": "uint256",
          "name": "shares",
          "type": "uint256"
        }
      ],
      "name": "convertToAssets",
      "outputs": [
        {
          "internalType": "uint256",
          "name": "assets",
          "type": "uint256"
        }
      ],
      "stateMutability": "view",
      "type": "function"
    },
    {
      "inputs": [
        {
          "internalType": "uint256",
          "name": "assets",
          "type": "uint256"
        }
      ],
      "name": "convertToShares",
      "outputs": [
        {
          "internalType": "uint256",
          "name": "shares",
          "type": "uint256"
        }
      ],
      "stateMutability": "view",
      "type": "function"
    },
    {
      "inputs": [],
      "name": "createEigenPod",
      "outputs": [],
      "stateMutability": "nonpayable",
      "type": "function"
    },
    {
      "inputs": [],
      "name": "decimals",
      "outputs": [
        {
          "internalType": "uint8",
          "name": "",
          "type": "uint8"
        }
      ],
      "stateMutability": "view",
      "type": "function"
    },
    {
      "inputs": [
        {
          "internalType": "address",
          "name": "receiver",
          "type": "address"
        },
        {
          "internalType": "address",
          "name": "referrer",
          "type": "address"
        }
      ],
      "name": "deposit",
      "outputs": [
        {
          "internalType": "uint256",
          "name": "shares",
          "type": "uint256"
        }
      ],
      "stateMutability": "payable",
      "type": "function"
    },
    {
      "inputs": [
        {
          "internalType": "uint256",
          "name": "shares",
          "type": "uint256"
        },
        {
          "internalType": "address",
          "name": "receiver",
          "type": "address"
        }
      ],
      "name": "enterExitQueue",
      "outputs": [
        {
          "internalType": "uint256",
          "name": "positionTicket",
          "type": "uint256"
        }
      ],
      "stateMutability": "nonpayable",
      "type": "function"
    },
    {
      "inputs": [],
      "name": "feePercent",
      "outputs": [
        {
          "internalType": "uint16",
          "name": "",
          "type": "uint16"
        }
      ],
      "stateMutability": "view",
      "type": "function"
    },
    {
      "inputs": [],
      "name": "feeRecipient",
      "outputs": [
        {
          "internalType": "address",
          "name": "",
          "type": "address"
        }
      ],
      "stateMutability": "view",
      "type": "function"
    },
    {
      "inputs": [],
      "name": "getEigenPods",
      "outputs": [
        {
          "internalType": "address[]",
          "name": "",
          "type": "address[]"
        }
      ],
      "stateMutability": "view",
      "type": "function"
    },
    {
      "inputs": [
        {
          "internalType": "uint256",
          "name": "positionTicket",
          "type": "uint256"
        }
      ],
      "name": "getExitQueueIndex",
      "outputs": [
        {
          "internalType": "int256",
          "name": "",
          "type": "int256"
        }
      ],
      "stateMutability": "view",
      "type": "function"
    },
    {
      "inputs": [
        {
          "internalType": "address",
          "name": "account",
          "type": "address"
        }
      ],
      "name": "getShares",
      "outputs": [
        {
          "internalType": "uint256",
          "name": "",
          "type": "uint256"
        }
      ],
      "stateMutability": "view",
      "type": "function"
    },
    {
      "inputs": [],
      "name": "implementation",
      "outputs": [
        {
          "internalType": "address",
          "name": "",
          "type": "address"
        }
      ],
      "stateMutability": "view",
      "type": "function"
    },
    {
      "inputs": [
        {
          "internalType": "bytes",
          "name": "params",
          "type": "bytes"
        }
      ],
      "name": "initialize",
      "outputs": [],
      "stateMutability": "payable",
      "type": "function"
    },
    {
      "inputs": [],
      "name": "isStateUpdateRequired",
      "outputs": [
        {
          "internalType": "bool",
          "name": "",
          "type": "bool"
        }
      ],
      "stateMutability": "view",
      "type": "function"
    },
    {
      "inputs": [],
      "name": "mevEscrow",
      "outputs": [
        {
          "internalType": "address",
          "name": "",
          "type": "address"
        }
      ],
      "stateMutability": "view",
      "type": "function"
    },
    {
      "inputs": [
        {
          "internalType": "bytes[]",
          "name": "data",
          "type": "bytes[]"
        }
      ],
      "name": "multicall",
      "outputs": [
        {
          "internalType": "bytes[]",
          "name": "results",
          "type": "bytes[]"
        }
      ],
      "stateMutability": "nonpayable",
      "type": "function"
    },
    {
      "inputs": [],
      "name": "name",
      "outputs": [
        {
          "internalType": "string",
          "name": "",
          "type": "string"
        }
      ],
      "stateMutability": "view",
      "type": "function"
    },
    {
      "inputs": [
        {
          "internalType": "address",
          "name": "",
          "type": "address"
        }
      ],
      "name": "nonces",
      "outputs": [
        {
          "internalType": "uint256",
          "name": "",
          "type": "uint256"
        }
      ],
      "stateMutability": "view",
      "type": "function"
    },
    {
      "inputs": [
        {
          "internalType": "address",
          "name": "owner",
          "type": "address"
        },
        {
          "internalType": "address",
          "name": "spender",
          "type": "address"
        },
        {
          "internalType": "uint256",
          "name": "value",
          "type": "uint256"
        },
        {
          "internalType": "uint256",
          "name": "deadline",
          "type": "uint256"
        },
        {
          "internalType": "uint8",
          "name": "v",
          "type": "uint8"
        },
        {
          "internalType": "bytes32",
          "name": "r",
          "type": "bytes32"
        },
        {
          "internalType": "bytes32",
          "name": "s",
          "type": "bytes32"
        }
      ],
      "name": "permit",
      "outputs": [],
      "stateMutability": "nonpayable",
      "type": "function"
    },
    {
      "inputs": [],
      "name": "proxiableUUID",
      "outputs": [
        {
          "internalType": "bytes32",
          "name": "",
          "type": "bytes32"
        }
      ],
      "stateMutability": "view",
      "type": "function"
    },
    {
      "inputs": [],
      "name": "queuedShares",
      "outputs": [
        {
          "internalType": "uint128",
          "name": "",
          "type": "uint128"
        }
      ],
      "stateMutability": "view",
      "type": "function"
    },
    {
      "inputs": [],
      "name": "receiveFromMevEscrow",
      "outputs": [],
      "stateMutability": "payable",
      "type": "function"
    },
    {
      "inputs": [
        {
          "components": [
            {
              "internalType": "bytes32",
              "name": "validatorsRegistryRoot",
              "type": "bytes32"
            },
            {
              "internalType": "uint256",
              "name": "deadline",
              "type": "uint256"
            },
            {
              "internalType": "bytes",
              "name": "validators",
              "type": "bytes"
            },
            {
              "internalType": "bytes",
              "name": "signatures",
              "type": "bytes"
            },
            {
              "internalType": "string",
              "name": "exitSignaturesIpfsHash",
              "type": "string"
            }
          ],
          "internalType": "struct IKeeperValidators.ApprovalParams",
          "name": "keeperParams",
          "type": "tuple"
        },
        {
          "internalType": "bytes",
          "name": "validatorsManagerSignature",
          "type": "bytes"
        }
      ],
      "name": "registerValidators",
      "outputs": [],
      "stateMutability": "nonpayable",
      "type": "function"
    },
    {
      "inputs": [],
      "name": "restakeOperatorsManager",
      "outputs": [
        {
          "internalType": "address",
          "name": "",
          "type": "address"
        }
      ],
      "stateMutability": "view",
      "type": "function"
    },
    {
      "inputs": [],
      "name": "restakeWithdrawalsManager",
      "outputs": [
        {
          "internalType": "address",
          "name": "",
          "type": "address"
        }
      ],
      "stateMutability": "view",
      "type": "function"
    },
    {
      "inputs": [
        {
          "internalType": "address",
          "name": "_feeRecipient",
          "type": "address"
        }
      ],
      "name": "setFeeRecipient",
      "outputs": [],
      "stateMutability": "nonpayable",
      "type": "function"
    },
    {
      "inputs": [
        {
          "internalType": "string",
          "name": "metadataIpfsHash",
          "type": "string"
        }
      ],
      "name": "setMetadata",
      "outputs": [],
      "stateMutability": "nonpayable",
      "type": "function"
    },
    {
      "inputs": [
        {
          "internalType": "address",
          "name": "newRestakeOperatorsManager",
          "type": "address"
        }
      ],
      "name": "setRestakeOperatorsManager",
      "outputs": [],
      "stateMutability": "nonpayable",
      "type": "function"
    },
    {
      "inputs": [
        {
          "internalType": "address",
          "name": "newRestakeWithdrawalsManager",
          "type": "address"
        }
      ],
      "name": "setRestakeWithdrawalsManager",
      "outputs": [],
      "stateMutability": "nonpayable",
      "type": "function"
    },
    {
      "inputs": [
        {
          "internalType": "address",
          "name": "validatorsManager_",
          "type": "address"
        }
      ],
      "name": "setValidatorsManager",
      "outputs": [],
      "stateMutability": "nonpayable",
      "type": "function"
    },
    {
      "inputs": [
        {
          "internalType": "address",
          "name": "_whitelister",
          "type": "address"
        }
      ],
      "name": "setWhitelister",
      "outputs": [],
      "stateMutability": "nonpayable",
      "type": "function"
    },
    {
      "inputs": [],
      "name": "symbol",
      "outputs": [
        {
          "internalType": "string",
          "name": "",
          "type": "string"
        }
      ],
      "stateMutability": "view",
      "type": "function"
    },
    {
      "inputs": [],
      "name": "totalAssets",
      "outputs": [
        {
          "internalType": "uint256",
          "name": "",
          "type": "uint256"
        }
      ],
      "stateMutability": "view",
      "type": "function"
    },
    {
      "inputs": [],
      "name": "totalExitingAssets",
      "outputs": [
        {
          "internalType": "uint128",
          "name": "",
          "type": "uint128"
        }
      ],
      "stateMutability": "view",
      "type": "function"
    },
    {
      "inputs": [],
      "name": "totalShares",
      "outputs": [
        {
          "internalType": "uint256",
          "name": "",
          "type": "uint256"
        }
      ],
      "stateMutability": "view",
      "type": "function"
    },
    {
      "inputs": [],
      "name": "totalSupply",
      "outputs": [
        {
          "internalType": "uint256",
          "name": "",
          "type": "uint256"
        }
      ],
      "stateMutability": "view",
      "type": "function"
    },
    {
      "inputs": [
        {
          "internalType": "address",
          "name": "to",
          "type": "address"
        },
        {
          "internalType": "uint256",
          "name": "amount",
          "type": "uint256"
        }
      ],
      "name": "transfer",
      "outputs": [
        {
          "internalType": "bool",
          "name": "",
          "type": "bool"
        }
      ],
      "stateMutability": "nonpayable",
      "type": "function"
    },
    {
      "inputs": [
        {
          "internalType": "address",
          "name": "from",
          "type": "address"
        },
        {
          "internalType": "address",
          "name": "to",
          "type": "address"
        },
        {
          "internalType": "uint256",
          "name": "amount",
          "type": "uint256"
        }
      ],
      "name": "transferFrom",
      "outputs": [
        {
          "internalType": "bool",
          "name": "",
          "type": "bool"
        }
      ],
      "stateMutability": "nonpayable",
      "type": "function"
    },
    {
      "inputs": [
        {
          "components": [
            {
              "internalType": "bytes32",
              "name": "rewardsRoot",
              "type": "bytes32"
            },
            {
              "internalType": "int160",
              "name": "reward",
              "type": "int160"
            },
            {
              "internalType": "uint160",
              "name": "unlockedMevReward",
              "type": "uint160"
            },
            {
              "internalType": "bytes32[]",
              "name": "proof",
              "type": "bytes32[]"
            }
          ],
          "internalType": "struct IKeeperRewards.HarvestParams",
          "name": "harvestParams",
          "type": "tuple"
        }
      ],
      "name": "updateState",
      "outputs": [],
      "stateMutability": "nonpayable",
      "type": "function"
    },
    {
      "inputs": [
        {
          "internalType": "address",
          "name": "receiver",
          "type": "address"
        },
        {
          "internalType": "address",
          "name": "referrer",
          "type": "address"
        },
        {
          "components": [
            {
              "internalType": "bytes32",
              "name": "rewardsRoot",
              "type": "bytes32"
            },
            {
              "internalType": "int160",
              "name": "reward",
              "type": "int160"
            },
            {
              "internalType": "uint160",
              "name": "unlockedMevReward",
              "type": "uint160"
            },
            {
              "internalType": "bytes32[]",
              "name": "proof",
              "type": "bytes32[]"
            }
          ],
          "internalType": "struct IKeeperRewards.HarvestParams",
          "name": "harvestParams",
          "type": "tuple"
        }
      ],
      "name": "updateStateAndDeposit",
      "outputs": [
        {
          "internalType": "uint256",
          "name": "shares",
          "type": "uint256"
        }
      ],
      "stateMutability": "payable",
      "type": "function"
    },
    {
      "inputs": [
        {
          "internalType": "address",
          "name": "account",
          "type": "address"
        },
        {
          "internalType": "bool",
          "name": "approved",
          "type": "bool"
        }
      ],
      "name": "updateWhitelist",
      "outputs": [],
      "stateMutability": "nonpayable",
      "type": "function"
    },
    {
      "inputs": [
        {
          "internalType": "address",
          "name": "newImplementation",
          "type": "address"
        },
        {
          "internalType": "bytes",
          "name": "data",
          "type": "bytes"
        }
      ],
      "name": "upgradeToAndCall",
      "outputs": [],
      "stateMutability": "payable",
      "type": "function"
    },
    {
      "inputs": [],
      "name": "validatorsManager",
      "outputs": [
        {
          "internalType": "address",
          "name": "",
          "type": "address"
        }
      ],
      "stateMutability": "view",
      "type": "function"
    },
    {
      "inputs": [],
      "name": "vaultId",
      "outputs": [
        {
          "internalType": "bytes32",
          "name": "",
          "type": "bytes32"
        }
      ],
      "stateMutability": "pure",
      "type": "function"
    },
    {
      "inputs": [],
      "name": "version",
      "outputs": [
        {
          "internalType": "uint8",
          "name": "",
          "type": "uint8"
        }
      ],
      "stateMutability": "pure",
      "type": "function"
    },
    {
      "inputs": [
        {
          "internalType": "address",
          "name": "",
          "type": "address"
        }
      ],
      "name": "whitelistedAccounts",
      "outputs": [
        {
          "internalType": "bool",
          "name": "",
          "type": "bool"
        }
      ],
      "stateMutability": "view",
      "type": "function"
    },
    {
      "inputs": [],
      "name": "whitelister",
      "outputs": [
        {
          "internalType": "address",
          "name": "",
          "type": "address"
        }
      ],
      "stateMutability": "view",
      "type": "function"
    },
    {
      "inputs": [],
      "name": "withdrawableAssets",
      "outputs": [
        {
          "internalType": "uint256",
          "name": "",
          "type": "uint256"
        }
      ],
      "stateMutability": "view",
      "type": "function"
    },
    {
      "stateMutability": "payable",
      "type": "receive"
    }
  ],
  "bytecode": "0x6101c0346200016d57601f6200558138819003918201601f19168301916001600160401b03831184841017620001715780849260e0946040528339810103126200016d576200004e8162000185565b906200005d6020820162000185565b906200006c6040820162000185565b6200007a6060830162000185565b90620000896080840162000185565b9360c06200009a60a0860162000185565b9401519560805260a05260c0523060e052620000b56200019a565b610100934685526101209384526101404681526101609182526101809283526101a0938452620000e46200019a565b6040519461534796876200023a88396080518781816113a20152818161165b01528181612f1d015261386d015260a05187611075015260c0518781816145c20152614718015260e051878181611221015261351f015251866125d301525185612c5f015251846138eb015251836118340152518281816125ae0152612f6a015251816108310152f35b5f80fd5b634e487b7160e01b5f52604160045260245ffd5b51906001600160a01b03821682036200016d57565b7ff0c57e16840df040f15088dc2f81fe391c3923bec73e23a9662efc9c229c6a00805460ff8160401c1662000227576001600160401b036002600160401b031982821601620001e857505050565b6001600160401b031990911681179091556040519081527fc7f505b2f371ae2175ee4913f4499e1f2633a7b5936321eed1cdaeb6115181d290602090a1565b60405163f92ee8a960e01b8152600490fdfe6080604052600436101562000026575b36156200001a575f80fd5b6200002462002ca3565b005b5f3560e01c806301e1d114146200041a57806306fdde03146200041457806307a2d13a146200040e578063095ea7b31462000408578063096ae80d14620004025780630b10b20114620003fc5780630d392cd914620003f657806318160ddd14620003ba57806318f7295014620003f05780631a7ff55314620003ea57806322758a4a14620003e457806323b872dd14620003de5780632cdf740114620003d8578063313ce56714620003d25780633229fa9514620003cc57806333194c0a14620003c65780633644e51514620003c05780633a98ef3914620003ba578063439fab9114620003b45780634690484014620003ae5780634f1ef28614620003a857806352d1902d14620003a257806353156f28146200039c57806354fd4d5014620003965780635c60da1b14620003905780635cfc1a51146200038a57806360d60e6e146200038457806370a0823114620002f457806372b410a8146200037e578063754c3888146200037857806376b58b9014620003725780637b6341c6146200036c5780637ecebe0014620003665780637fd6f15c146200036057806383d430d5146200035a5780638697d2c214620003545780638ceab9aa146200034e57806395d89b411462000348578063a045dd0c1462000342578063a49a1e7d146200033c578063a9059cbb1462000336578063ac9650d81462000330578063ad3cb1cc146200032a578063b1f0e7c71462000324578063c5aecb22146200031e578063c6e6f5921462000318578063d505accf1462000312578063d83ad00c146200030c578063dd62ed3e1462000306578063e74b981b1462000300578063ee3bd5df14620002fa578063f04da65b14620002f4578063f132f5d314620002ee578063f6a6830f14620002e8578063f851a44014620002e2578063f9609f0814620002dc5763f98f5b92036200000f57620023ce565b620023b1565b62002387565b62002342565b620022d5565b62001336565b620022ad565b62002278565b62002230565b620021de565b62001fb6565b62001f88565b62001f6a565b62001f4c565b62001f01565b62001e92565b62001df0565b62001d97565b62001d55565b62001ca3565b62001aa0565b62001803565b620015fe565b620015d8565b62001599565b620014d5565b6200147d565b6200140b565b62001375565b62001314565b620012f6565b620012bf565b620012a2565b6200127a565b6200120d565b62000f45565b62000e93565b62000ce6565b620009f8565b62000c66565b62000c2a565b62000bfa565b62000bdd565b62000bbf565b62000b0e565b62000ae3565b62000aaa565b62000a2f565b620009be565b620007ca565b62000735565b6200068d565b62000651565b62000574565b6200042f565b5f9103126200042b57565b5f80fd5b346200042b575f3660031901126200042b57602060cf5460801c604051908152f35b90600182811c9216801562000481575b60208310146200046d57565b634e487b7160e01b5f52602260045260245ffd5b91607f169162000461565b634e487b7160e01b5f52604160045260245ffd5b6001600160401b038111620004b457604052565b6200048c565b604081019081106001600160401b03821117620004b457604052565b608081019081106001600160401b03821117620004b457604052565b90601f801991011681019081106001600160401b03821117620004b457604052565b5f5b838110620005265750505f910152565b818101518382015260200162000516565b90602091620005528151809281855285808601910162000514565b601f01601f1916010190565b9060206200057192818152019062000537565b90565b346200042b575f3660031901126200042b576040515f8054620005978162000451565b80845290602090600190818116908115620006245750600114620005da575b620005d685620005c981870382620004f2565b604051918291826200055e565b0390f35b5f80805293505f80516020620052928339815191525b8385106200061057505050508101602001620005c982620005d6620005b6565b8054868601840152938201938101620005f0565b869550620005d696935060209250620005c994915060ff191682840152151560051b8201019293620005b6565b346200042b5760203660031901126200042b5760206200067360043562002403565b604051908152f35b6001600160a01b038116036200042b57565b346200042b5760403660031901126200042b57600435620006ae816200067b565b6001600160a01b038116906024359082156200072357620006eb8291335f52600260205260405f209060018060a01b03165f5260205260405f2090565b556040519081527f8c5be1e5ebec7d5bd14f71427d1e84f3dd0314c0f7b2291e5b200ac8c7c3b92560203392a3602060405160018152f35b60405163d92e233d60e01b8152600490fd5b346200042b5760203660031901126200042b5760043562000756816200067b565b610206805490916001600160a01b039081169082168114620007b8577f890ff5077ab1949ce16449a660eb28ce16646b4c99e0901266d44a1042b1f9e89281602093620007a262002dd0565b6001600160a01b031916179055604051908152a1005b604051638c8728c760e01b8152600490fd5b346200042b575f3660031901126200042b57620007f6620007ea62002c81565b6001600160a01b031690565b3303620009a1576040516102c8808201908282106001600160401b03831117620004b4578291620008679162004fca84396001600160a01b037f00000000000000000000000000000000000000000000000000000000000000001681526040602082018190525f9082015260600190565b03905ff080156200097d576001600160a01b0390811690813b156200042b5760405163439fab9160e01b8152602060048201525f602482018190528160448183875af180156200097d5762000983575b506040516351d5709b60e11b815291602083600481845afa9182156200097d577fcdc82cfed67d9b46d3a15dd3b48745fb894a354d554cb5da5fb8c440f85c108e935f9362000940575b506200090f90831662003e7a565b506200091b8162003ee8565b50604080516001600160a01b039283168152929091166020830152819081015b0390a1005b6200090f9193506200096d9060203d60201162000975575b620009648183620004f2565b81019062002437565b929062000901565b503d62000958565b6200242c565b80620009936200099a92620004a0565b8062000420565b5f620008b7565b604051634ca8886760e01b8152600490fd5b801515036200042b57565b346200042b5760403660031901126200042b5762000024600435620009e3816200067b565b60243590620009f282620009b3565b6200244f565b346200042b575f3660031901126200042b5760206001600160801b0360cf5416604051908152f35b908160809103126200042b5790565b60603660031901126200042b5760043562000a4a816200067b565b60243562000a58816200067b565b604435906001600160401b0382116200042b5760209262000a8c62000a866200067394369060040162000a20565b620024e9565b62000a973362003c7c565b62000aa28162003c7c565b349062003dbe565b346200042b5760203660031901126200042b576004356001600160401b0381116200042b5762000a866200002491369060040162000a20565b346200042b575f3660031901126200042b5761026f546040516001600160a01b039091168152602090f35b346200042b5760603660031901126200042b5760043562000b2f816200067b565b60243562000b3d816200067b565b6001600160a01b0382165f818152600260209081526040808320338452909152902090926044359291546001810162000b8a575b5062000b7e935062003276565b60405160018152602090f35b83810390811162000bb9575f94855260026020908152604080872033885290915285205562000b7e9362000b71565b62002539565b346200042b575f3660031901126200042b576020620006736200255b565b346200042b575f3660031901126200042b57602060405160128152f35b346200042b575f3660031901126200042b57602062000c1862002594565b6040516001600160a01b039091168152f35b346200042b575f3660031901126200042b5760206040517f737a47bb3e695a159ef397f75d47c2ca71c770e380ac29b104d3b82ee61be3c88152f35b346200042b575f3660031901126200042b57602062000673620025d0565b9181601f840112156200042b578235916001600160401b0383116200042b57602083818601950101116200042b57565b60206003198201126200042b57600435906001600160401b0382116200042b5762000ce29160040162000c84565b9091565b62000cf13662000cb4565b7ff0c57e16840df040f15088dc2f81fe391c3923bec73e23a9662efc9c229c6a00805460ff8160401c16801562000e7e575b62000e6c5768ffffffffffffffffff19166801000000000000000217905560405163e7f6f22560e01b8152906020908183600481335afa9283156200097d575f9362000e48575b50604051636f4fa30f60e01b8152938285600481335afa9081156200097d5762000dba9562000db4945f9362000e1f575b505062000dac919281019062002636565b908362003433565b62003506565b7ff0c57e16840df040f15088dc2f81fe391c3923bec73e23a9662efc9c229c6a00805468ff000000000000000019169055604051600281527fc7f505b2f371ae2175ee4913f4499e1f2633a7b5936321eed1cdaeb6115181d29080602081016200093b565b62000dac9350908162000e4092903d106200097557620009648183620004f2565b915f62000d9b565b62000e64919350823d84116200097557620009648183620004f2565b915f62000d6a565b60405163f92ee8a960e01b8152600490fd5b5060026001600160401b038216101562000d23565b346200042b575f3660031901126200042b57609c546040516001600160a01b039091168152602090f35b6040519060a082018281106001600160401b03821117620004b457604052565b6040519062000eec82620004ba565b565b6001600160401b038111620004b457601f01601f191660200190565b92919262000f188262000eee565b9162000f286040519384620004f2565b8294818452818301116200042b578281602093845f960137010152565b6040806003193601126200042b57600490813562000f63816200067b565b6024356001600160401b0381116200042b57366023820112156200042b5762000f96903690602481870135910162000f0a565b9162000fa162003515565b80519262000fdc8462000fcd60209363439fab9160e01b85840152846024840152604483019062000537565b03601f198101865285620004f2565b62000fe662003515565b62000ff062002dd0565b6001600160a01b03838116801592919087908415620011dc575b841562001154575b8415620010e6575b5050821562001046575b5050620010375762000024838362004255565b516355299b4960e01b81528390fd5b83516345da87c560e01b81526001600160a01b03861688820190815292935091839183918290819060200103917f0000000000000000000000000000000000000000000000000000000000000000165afa9182156200097d575f92620010b2575b5050155f8062001024565b620010d69250803d10620010de575b620010cd8183620004f2565b810190620027d1565b5f80620010a7565b503d620010c1565b855163054fd4d560e41b81529294508391839182905afa9081156200097d5760039160ff915f9162001120575b5016141591865f6200101a565b620011459150843d86116200114c575b6200113c8183620004f2565b8101906200423d565b5f62001113565b503d62001130565b935050835163198ca60560e11b815282818981875afa9081156200097d5788917f737a47bb3e695a159ef397f75d47c2ca71c770e380ac29b104d3b82ee61be3c8915f91620011a8575b5014159362001012565b620011cd9150853d8711620011d4575b620011c48183620004f2565b81019062002ebe565b5f6200119e565b503d620011b8565b5f80516020620052b283398151915254909450849062001205906001600160a01b0316620007ea565b14936200100a565b346200042b575f3660031901126200042b577f00000000000000000000000000000000000000000000000000000000000000006001600160a01b03163003620012685760206040515f80516020620052b28339815191528152f35b60405163703e46dd60e11b8152600490fd5b5f3660031901126200042b576001600160a01b036200129862002594565b163303620009a157005b346200042b575f3660031901126200042b57602060405160028152f35b346200042b575f3660031901126200042b575f80516020620052b2833981519152546040516001600160a01b039091168152602090f35b346200042b575f3660031901126200042b57602062000673620026e5565b346200042b5760203660031901126200042b5760206200067360043562002702565b346200042b5760203660031901126200042b5760043562001357816200067b565b60018060a01b03165f5260d3602052602060405f2054604051908152f35b346200042b575f3660031901126200042b57604051633eb1acf760e11b81523060048201526020816024817f00000000000000000000000000000000000000000000000000000000000000006001600160a01b03165afa80156200097d576020915f91620013e9575b506040519015158152f35b620014049150823d8411620010de57620010cd8183620004f2565b5f620013de565b346200042b5760203660031901126200042b576004356200142c816200067b565b6200143662002dd0565b61010980546001600160a01b0319166001600160a01b03929092169182179055337f6bdc78d8c88160b3fc3638e67f2afe523b3f4c7d00c56ebb6216790e4c3eb2cb5f80a3005b346200042b5760803660031901126200042b57620005d6620014b8600435620014a6816200067b565b606435906044359060243590620027e9565b604080519384526020840192909252908201529081906060820190565b346200042b575f3660031901126200042b5760405180610207805480845260208094019081925f527f1ad7755b1dd0ab14588b5852415a5ca516498ebfb507c5447b8dda56bd2668c2905f5b86828210620015845786866200153a82880383620004f2565b60405192839281840190828552518091526040840192915f5b8281106200156357505050500390f35b83516001600160a01b03168552869550938101939281019260010162001553565b83548552909301926001928301920162001521565b346200042b5760203660031901126200042b57600435620015ba816200067b565b60018060a01b03165f526003602052602060405f2054604051908152f35b346200042b575f3660031901126200042b57602061ffff609c5460a01c16604051908152f35b346200042b576003196040368201126200042b5760049081356001600160401b038082116200042b5760a08285019383360301126200042b576024359081116200042b5762001651903690850162000c84565b6001600160a01b037f00000000000000000000000000000000000000000000000000000000000000008116803b156200042b5760405163837d444160e01b8152905f908290818381620016a78c828f0162002915565b03925af180156200097d57620017ec575b50620016c362003852565b620016cd62002c49565b9081163314159182620017b5575b50509050620017a4576044019160c4620016f684846200299f565b9050048015801562001789575b62001779576200171d620017166200255b565b91620029f9565b116200176a575060c46200173283836200299f565b9050145f14620017535762000024916200174c916200299f565b906200470d565b620000249162001763916200299f565b90620045c0565b6040516396d8043360e01b8152fd5b50604051631c6c4cf360e31b8152fd5b506200179684846200299f565b905060c48202141562001703565b604051634ca8886760e01b81528390fd5b620017df9250620017d8620017e394620017cf88620038e5565b92369162000f0a565b91620039cb565b1590565b805f80620016db565b8062000993620017fc92620004a0565b5f620016b8565b346200042b5760603660031901126200042b576004356024356200182c604435828433620027e9565b91926200185a7f000000000000000000000000000000000000000000000000000000000000000082620026f4565b4210801562001a97575b801562001a8e575b62001a7c577feb3b05c070c24f667611fdb3ff75fe007d42401c573aed8d8faca95fd00ccb5693620018c186620018bb620018af60d0546001600160801b031690565b6001600160801b031690565b62003572565b15620019da5762001901620018e6620018da8662003aa7565b60d05460801c62002a13565b6001600160801b0360d0549181199060801b1691161760d055565b60408051336020820190815291810184905260608082018990528152601f1993915f9162001948919062001937608082620004f2565b5190205f5260d260205260405f2090565b555f936001831162001984575b5050505062001965823362003adb565b604080519485526020850191909152830152339180606081015b0390a2005b620019cf92939450620019989088620026f4565b60408051336020820190815291810193909352606083018290529094909190620019379082608081015b03908101835282620004f2565b555f80808062001955565b620019e462003852565b62001a2562001a09620019f78662003aa7565b60d5546001600160801b031662002a13565b6001600160801b03166001600160801b031960d554161760d555565b62001a5f62001a4462001a388562003aa7565b60d55460801c62002a13565b6001600160801b0360d5549181199060801b1691161760d555565b62001a7662001a718460d654620026f4565b60d655565b62001901565b604051630e3d8e8d60e11b8152600490fd5b5082156200186c565b50811562001864565b346200042b576040806003193601126200042b576024359060043562001ac6836200067b565b62001ad062003852565b801562001c92576001600160a01b03831690811562001c815762001af48162002403565b90811562001c705762001b07826200435d565b62001b128362003aa7565b60cf5460801c9062001b249162002a13565b62001b44906001600160801b0360cf549181199060801b1691161760cf55565b62001b50823362004f04565b60d554958660801c828160d6549062001b6991620026f4565b9862001b758762003aa7565b62001b89916001600160801b031662004805565b62001baa906001600160801b03166001600160801b031960d554161760d555565b62001bb591620026f4565b62001bc09062003aa7565b62001be0906001600160801b0360d5549181199060801b1691161760d555565b85516001600160a01b039190911660208201908152426040830152606080830189905282529062001c13608082620004f2565b51902062001c29905f5260d260205260405f2090565b5583518581526020810191909152604081019190915233907f869f12645d154414259c47bcb998b6b6983fae50e5e0c6053bc87d4330db9f2d90606090a351908152602090f35b83516318374fd160e21b8152600490fd5b825163d92e233d60e01b8152600490fd5b8151636edcc52360e01b8152600490fd5b346200042b575f3660031901126200042b576040515f6001805462001cc88162000451565b808552916020916001811690811562000624575060011462001cf757620005d685620005c981870382620004f2565b60015f90815293507fb10e2d527612073b26eecdfd717e6a320cf44b4afac2b0732d9fcbe2b7fa0cf65b83851062001d4157505050508101602001620005c982620005d6620005b6565b805486860184015293820193810162001d21565b346200042b575f3660031901126200042b57610206546020906001600160a01b039081168062001d9057508060375416905b60405191168152f35b9062001d87565b346200042b576200197f7f2013570c343af8ab14a9778150e381a0fda34ed6368127a95fd5e7210cbec5bf62001dcd3662000cb4565b929062001dd962002dd0565b6040519182916020835233956020840191620028f5565b346200042b5760403660031901126200042b5762001e2060043562001e15816200067b565b602435903362003276565b602060405160018152f35b6020808201906020835283518092526040830192602060408460051b8301019501935f915b84831062001e615750505050505090565b909192939495848062001e81600193603f198682030187528a5162000537565b980193019301919493929062001e50565b346200042b5760203660031901126200042b576001600160401b036004358181116200042b57366023820112156200042b5780600401359182116200042b573660248360051b830101116200042b57620005d691602462001ef4920162002b88565b6040519182918262001e2b565b346200042b575f3660031901126200042b57620005d660405162001f2581620004ba565b60058152640352e302e360dc1b602082015260405191829160208352602083019062000537565b346200042b575f3660031901126200042b57602062000c1862002c49565b346200042b575f3660031901126200042b57602062000c1862002c81565b346200042b5760203660031901126200042b5760206200067360043562003b7a565b60ff8116036200042b57565b346200042b5760e03660031901126200042b5760043562001fd7816200067b565b60243562001fe5816200067b565b60443590606435926084359062001ffc8262001faa565b6001600160a01b038381169590929086156200072357428110620021cc576020915f91620019c2620020f889878a620020b962002038620025d0565b6001600160a01b0384165f9081526003602052604090209097908054906001820190556040519586948d8601968791959493909260a09360c08401977f6e71edae12b1b97f4d1f60370fef10105fa2faae0126114a169c64845d6126c98552600180871b038092166020860152166040840152606083015260808201520152565b0391620020cf601f1993848101835282620004f2565b5190206040519384918983019687909160429261190160f01b8352600283015260228201520190565b5190206040805191825260ff92909216602082015260a4359181019190915260c435606082015281805260809060015afa156200097d575f51928284168015908115620021be575b50620021ac576200219d8591620021887f8c5be1e5ebec7d5bd14f71427d1e84f3dd0314c0f7b2291e5b200ac8c7c3b9259660018060a01b03165f52600260205260405f2090565b9060018060a01b03165f5260205260405f2090565b556040519384521691602090a3005b6040516323389ba560e21b8152600490fd5b905083831614155f62002140565b604051631ab7da6b60e01b8152600490fd5b346200042b575f3660031901126200042b5760206001600160801b0360d05416604051908152f35b60409060031901126200042b5760043562002221816200067b565b9060243562000571816200067b565b346200042b5760206200226f620022473662002206565b6001600160a01b039182165f9081526002855260408082209290931681526020919091522090565b54604051908152f35b346200042b5760203660031901126200042b57620000246004356200229d816200067b565b620022a762002dd0565b62003c17565b346200042b575f3660031901126200042b5760206001600160801b0360d55416604051908152f35b346200042b5760203660031901126200042b57600435620022f6816200067b565b610205805490916001600160a01b039081169082168114620007b8577f399f9aba7ac1bda99e0bee41ebd93a32387a0f37b3934265478e96121dac166d9281602093620007a262002dd0565b346200042b5760203660031901126200042b5760043562002363816200067b565b60018060a01b03165f52610270602052602060ff60405f2054166040519015158152f35b346200042b575f3660031901126200042b576037546040516001600160a01b039091168152602090f35b602062000673620023c23662002206565b9062000a973362003c7c565b346200042b5760203660031901126200042b5762000024600435620023f3816200067b565b620023fd62002dd0565b62003c9f565b60cf546001600160801b03811690816200241c57505090565b91620005719260801c9062002d4c565b6040513d5f823e3d90fd5b908160209103126200042b575162000571816200067b565b61026f546001600160a01b03919082163303620009a1576001600160a01b0381165f90815261027060205260409020549215159260ff1615158314620024e4576001600160a01b0381165f9081526102706020526040902060ff1981541660ff851617905560405192835216907fd9c6c3eabe38e3b9a606a66358d8f225489216a59eeba66facefb7d91663526660203392a3565b505050565b620024f8620025009162002eea565b9190620030a2565b6200250757565b6200251162004897565b806200251b575b50565b5f906040519081525f80516020620052d283398151915260203092a3565b634e487b7160e01b5f52601160045260245ffd5b9190820391821162000bb957565b4760d0546001600160801b036200257481831662002403565b9060d55416019060801c01908181115f146200258e570390565b50505f90565b61016e546001600160a01b03168015620025ab5790565b507f000000000000000000000000000000000000000000000000000000000000000090565b467f000000000000000000000000000000000000000000000000000000000000000003620025fe5760045490565b62000571620032fe565b359061ffff821682036200042b57565b9080601f830112156200042b57816020620005719335910162000f0a565b906020828203126200042b5781356001600160401b03928382116200042b57019060a0828203126200042b576200266c62000ebd565b92823584526200267f6020840162002608565b602085015260408301358181116200042b57826200269f91850162002618565b604085015260608301358181116200042b5782620026bf91850162002618565b606085015260808301359081116200042b57620026dd920162002618565b608082015290565b60d454806200057157505f1990565b9190820180921162000bb957565b6001600160801b0360d05416620027186200430b565b90810180911162000bb957811062002752576200274260d6546200273b6200358c565b90620026f4565b11156200274d575f90565b5f1990565b60d19060d1549182915f905b8482106200277a57505050811015620027745790565b505f1990565b909193808316906001818518811c830180931162000bb9575f8790525f80516020620052f28339815191528301546001600160a01b0316841015620027c5575050935b91906200275e565b909591019250620027bd565b908160209103126200042b57516200057181620009b3565b604080516001600160a01b039092166020830190815290820193909352606081018290529091906200282981608081015b03601f198101835282620004f2565b5190205f5260d260205260405f20549182156200289e576001600160801b0360d0541690620028576200430b565b91820180921162000bb957839183101562002889579162002878926200369b565b90915b82810390811162000bb95792565b5090620028969162003601565b90916200287b565b5050505f905f905f90565b9035601e19823603018112156200042b5701602081359101916001600160401b0382116200042b5781360383136200042b57565b90603060609281835260208301375f60508201520190565b908060209392818452848401375f828201840152601f01601f1916010190565b9060a0620005719260208152823560208201526020830135604082015262002956620029456040850185620028a9565b84606085015260c0840191620028f5565b906200298f620029836200296e6060870187620028a9565b601f19858703810160808701529591620028f5565b946080810190620028a9565b93909282860301910152620028f5565b903590601e19813603018212156200042b57018035906001600160401b0382116200042b576020019181360383136200042b57565b634e487b7160e01b5f52601260045260245ffd5b8115620029f3570490565b620029d4565b906801bc16d674ec800000918083029283040362000bb957565b6001600160801b03918216908216039190821162000bb957565b6001600160401b038111620004b45760051b60200190565b9062002a518262002a2d565b62002a606040519182620004f2565b828152809262002a73601f199162002a2d565b01905f5b82811062002a8457505050565b80606060208093850101520162002a77565b634e487b7160e01b5f52603260045260245ffd5b9082101562002ac45762000ce29160051b8101906200299f565b62002a96565b908092918237015f815290565b3d1562002b06573d9062002aeb8262000eee565b9162002afb6040519384620004f2565b82523d5f602084013e565b606090565b6020818303126200042b578051906001600160401b0382116200042b570181601f820112156200042b57805162002b428162000eee565b9262002b526040519485620004f2565b818452602082840101116200042b5762000571916020808501910162000514565b805182101562002ac45760209160051b010190565b91909162002b968362002a45565b925f5b81811062002ba657505050565b5f8062002bb583858762002aaa565b6040939162002bc985518093819362002aca565b0390305af49062002bd962002ad7565b911562002c0657509060019162002bf1828862002b73565b5262002bfe818762002b73565b500162002b99565b9060448151106200042b5762002c4562002c2f6004928381015160248091830101910162002b0b565b925162461bcd60e51b815292839283016200055e565b0390fd5b610109546001600160a01b0316806200057157507f000000000000000000000000000000000000000000000000000000000000000090565b610205546001600160a01b039081168062002c9e57506037541690565b905090565b335f5261020a60205260405f20541562002cb957565b62002cc43362003c7c565b62002518343362003ce6565b90808202905f198184099082808310920391808303921462002d4157612710908282111562002d2f577fbc01a36e2eb1c432ca57a786c226809d495182a9930be0ded288ce703afb7e91940990828211900360fc1b910360041c170290565b60405163227bc15360e01b8152600490fd5b505061271091500490565b9091828202915f198482099383808610950394808603951462002dc1578483111562002d2f57829109815f038216809204600280826003021880830282030280830282030280830282030280830282030280830282030280920290030293600183805f03040190848311900302920304170290565b505090620005719250620029e8565b6037546001600160a01b03163303620009a157565b908160609103126200042b57805191604060208301519201516200057181620009b3565b81835290916001600160fb1b0383116200042b5760209260051b809284830137010190565b90602082528035602083015260208101358060130b8091036200042b576040830152604081013562002e60816200067b565b6001600160a01b031660608381019190915281013536829003601e19018112156200042b5701602081359101906001600160401b0381116200042b578060051b360382136200042b5760a08360808062000571960152019162002e09565b908160209103126200042b575190565b9190915f838201938412911290801582169115161762000bb957565b6040516325f56f1160e01b81526001600160a01b0392916060908290819062002f17906004830162002e2e565b03815f877f0000000000000000000000000000000000000000000000000000000000000000165af19283156200097d575f915f905f9562003055575b50841562002ffa578162002f6662002594565b16917f000000000000000000000000000000000000000000000000000000000000000016821462002ff257509060205f92600460405180958193634641257d60e01b83525af19081156200097d5762002fc8925f9262002fcc575b5062002ece565b9190565b62002fea91925060203d602011620011d457620011c48183620004f2565b905f62002fc1565b908162003000575b50509190565b803b156200042b57604051636ee3193160e11b815260048101929092525f908290602490829084905af180156200097d576200303e575b8062002ffa565b80620009936200304e92620004a0565b5f62003037565b9194505062003080915060603d60601162003089575b620030778183620004f2565b81019062002de5565b93905f62002f53565b503d6200306b565b600160ff1b811462000bb9575f0390565b80156200251857620030ba620018af60cf5460801c90565b5f8212620031ba5781620030ce91620026f4565b90620030f9620030de8362003aa7565b6001600160801b0360cf549181199060801b1691161760cf55565b62003110609c549161ffff8360a01c169062002cd0565b8015620024e457807f555ee6b2ef9506d870f386c067e47d3689435330b012ad263d8cc353186865479362003151620018af60cf546001600160801b031690565b80620031a05750506200319b90925b6001600160a01b03169162003176848462004821565b60405193849384604091949392606082019560018060a01b0316825260208201520152565b0390a1565b6200319b92620031b39203908462002d4c565b9262003160565b90620031c69062003091565b620031dd620018af60d5546001600160801b031690565b8062003209575b5080620031ef575050565b62003203620030de9162000eec936200254d565b62003aa7565b906200326c7f3623a54e8078be0d90ecfbef82da6a31ff3e6be8aa1718e7a7f3d0d33ff1d32a916200325c62001a0962003250620032488888620026f4565b878562002d4c565b80809403960362003aa7565b6040519081529081906020820190565b0390a15f620031e4565b90620032828262003c7c565b6200328d8162003c7c565b6001600160a01b039182169182158015620032f3575b6200072357825f5260d360205260405f209081549285840393841162000bb9575f80516020620052d283398151915293602093551693845f5260d3825260405f20818154019055604051908152a3565b5080821615620032a3565b6040515f905f5490620033118262000451565b9283825260209384830193600190866001821691825f1462003411575050600114620033c9575b5050918162003352620033c3936200281a950382620004f2565b519020604080517f8b73c3c69bb8fe3d512ecc4cf759cc79239f7b179b0ffacaa9a75d522b39400f95810195865260208601929092527fc89efdaa54c0f20c7adf612882df0950f5a951637e0307cdcb4c672f298b8bc69085015246606085015230608085015291829060a0850190565b51902090565b5f80805286935091905f80516020620052928339815191525b828410620033fb57505050820101816200335262003338565b80548685018601528794909301928101620033e2565b60ff1916875292151560051b8501909201925083915062003352905062003338565b91906200343f62003f56565b6080820151906200344f62003f56565b6001600160a01b03841680156200072357620034fc94620034eb93620034cf926001600160601b0360a01b60375416176037557f2013570c343af8ab14a9778150e381a0fda34ed6368127a95fd5e7210cbec5bf6040516020815280620034bc3394602083019062000537565b0390a2602085015161ffff169062003f98565b620034db835162003fee565b620034e562004022565b62004056565b606060408201519101519062004088565b62000eec620041d1565b62000eec90620023fd62003f56565b6001600160a01b037f0000000000000000000000000000000000000000000000000000000000000000811630811491821562003555575b50506200126857565b5f80516020620052b28339815191525416141590505f806200354c565b906200357d6200430b565b91820180921162000bb9571090565b4760d0548060801c820391821162000bb95781620035b46001600160801b0380931662002403565b9081620035e0575b505081156200258e576200057191620035da9160d55416906200434f565b6200435d565b9192509081811115620035f857035b905f80620035bc565b50505f620035ef565b6200360b6200358c565b9160d65492830180931162000bb957808311156200365c57620036309203906200434f565b9060d5548060801c80155f14620036475750508190565b6001600160801b036200057192168462002d4c565b5050505f905f90565b90604051604081018181106001600160401b03821117620004b45760405291546001600160a01b038116835260a01c6020830152565b60d1545f94859493909180841080159062003849575b6200383c578362003805575f5b60d15f526001600160a01b0316620036e65f80516020620052f2833981519152860162003665565b8051909790620036ff906001600160a01b0316620007ea565b98620037266200371a6020809b01516001600160601b031690565b6001600160601b031690565b948381108015620037fa575b620037e85791600193979a956200375562003762939488035b838c03906200434f565b8092019887039162002d4c565b01970193808611801590620037dd575b620037d25760d15f528290620037985f80516020620052f2833981519152870162003665565b805190890151969992966001600160a01b039091169460019392620037629290916001600160601b0390911690620037559088036200374b565b945050509250509190565b508185101562003772565b60405163e8722f8f60e01b8152600490fd5b50808b111562003732565b60d15f527f695fb3134ad82c3b8022bc5464edd0bcc9424ef672b52245dcb6ab2374327ce28401546001600160a01b0316620036be565b505093505050505f905f90565b508415620036b1565b604051633eb1acf760e11b81523060048201526020816024817f00000000000000000000000000000000000000000000000000000000000000006001600160a01b03165afa9081156200097d575f91620038c1575b50620038af57565b60405163e775715160e01b8152600490fd5b620038de915060203d602011620010de57620010cd8183620004f2565b5f620038a7565b604290467f0000000000000000000000000000000000000000000000000000000000000000036200399b5761010a54905b620039316200392960408301836200299f565b369162000f0a565b602081519101206040519060208201927f838af86bfca91ada6557e38d913af1c2f24ef9b2567b3b77cc9e1144314b35b084523560408301526060820152606081526200397e81620004d6565b5190206040519161190160f01b8352600283015260228201522090565b620039a562004399565b9062003916565b60041115620039b757565b634e487b7160e01b5f52602160045260245ffd5b620039d7838362004469565b50620039e681959295620039ac565b15938462003a90575b508315620039fe575b50505090565b5f92935090829160405162003a39816200281a6020820194630b135d3f60e11b998a8752602484015260406044840152606483019062000537565b51915afa9062003a4862002ad7565b8262003a81575b8262003a61575b50505f8080620039f8565b62003a789192506020808251830101910162002ebe565b145f8062003a56565b91506020825110159162003a4f565b6001600160a01b0383811691161493505f620039ef565b6001600160801b039081811162003abc571690565b604490604051906306dfcc6560e41b8252608060048301526024820152fd5b907f9b779b17422d0df92223018b32b4d1fa46e071723d6817e2486d003becc55f0091600283541462003b68576002835581471062003b50575f918291829182916001600160a01b03165af162003b3162002ad7565b501562003b3e5760019055565b604051630a12f52160e11b8152600490fd5b60405163cd78605960e01b8152306004820152602490fd5b604051633ee5aeb560e01b8152600490fd5b60cf54906001600160801b0382168115801562003bad575b1562003b9e5750905090565b620005719260801c9162002d4c565b50801562003b92565b60cf546001600160801b038116908215801562003c0e575b1562003bd957505090565b60801c9062003bea82828562002d4c565b928215620029f3570962003bfb5790565b6001810180911115620005715762002539565b50811562003bce565b62003c2162003852565b6001600160a01b0316801562003c6a57609c80546001600160a01b03191682179055337faaebcf1bfa00580e41d966056b48521fa9f202645c86d4ddf28113e617c1b1d35f80a3565b604051630ed1b8b360e31b8152600490fd5b6001600160a01b03165f908152610270602052604090205460ff1615620009a157565b61026f80546001600160a01b0319166001600160a01b03929092169182179055337fda2bcad4d57ac529886ff995d07bce191c08b5424c8f5824de6c73f90cc623d45f80a3565b919062003cf262003852565b6001600160a01b0383169081156200072357801562003dac578062003d1d620018af60cf5460801c90565b019362003d29620026e5565b851162003d9a57620030de9462003d589162003d5262003d498562003bb6565b97889362003aa7565b62004821565b60408051918252602082018590525f9082015233907f861a4138e41fb21c121a7dbb1053df465c837fc77380cc7226189a662281be2c9080606081015b0390a3565b6040516304ffa0ff60e51b8152600490fd5b6040516318374fd160e21b8152600490fd5b9092919262003dcc62003852565b6001600160a01b0382169182156200072357811562003dac578162003df7620018af60cf5460801c90565b0162003e02620026e5565b811162003d9a57620030de9562003e5162003d95927f861a4138e41fb21c121a7dbb1053df465c837fc77380cc7226189a662281be2c9462003d5262003e488862003bb6565b9a8b9362003aa7565b60408051948552602085018890526001600160a01b039091169084015233929081906060820190565b805f526102088060205260405f2054155f146200258e576102078054600160401b811015620004b4576001810180835581101562002ac45783907f1ad7755b1dd0ab14588b5852415a5ca516498ebfb507c5447b8dda56bd2668c2015554915f5260205260405f2055600190565b805f5261020a8060205260405f2054155f146200258e576102098054600160401b811015620004b4576001810180835581101562002ac45783907f99e87348be6dc95028197b5a6b69c6a7a15df569de2f3d37542e8f40b8bae486015554915f5260205260405f2055600190565b60ff7ff0c57e16840df040f15088dc2f81fe391c3923bec73e23a9662efc9c229c6a005460401c161562003f8657565b604051631afcd79f60e31b8152600490fd5b62003fa262003f56565b61271061ffff83161162003fdc5762003fbb9062003c17565b609c805461ffff60a01b191660a09290921b61ffff60a01b16919091179055565b604051638a81d3b360e01b8152600490fd5b62003ff862003f56565b80156200401057600181016200400b5750565b60d455565b6040516331278a8760e01b8152600490fd5b6200402c62003f56565b6801bc16d674ec80000062004040620026e5565b1062004010576200405062004399565b61010a55565b6200406062003f56565b6001600160a01b031680620040725750565b61016e80546001600160a01b0319169091179055565b6200409262003f56565b601e8151118015620041c5575b620041b357620040ae62003f56565b8051906001600160401b038211620004b457620040d782620040d15f5462000451565b620049de565b602090816001601f851114620041385750918062004111926200411995945f926200412c575b50508160011b915f199060031b1c19161790565b5f5562004ab3565b62000eec62004127620032fe565b600455565b015190505f80620040fd565b5f80529190601f1984165f8051602062005292833981519152935f905b8282106200419a575050916001939185620041199796941062004181575b505050811b015f5562004ab3565b01515f1960f88460031b161c191690555f808062004173565b8060018697829497870151815501960194019062004155565b604051632d3f993760e21b8152600490fd5b50600a8251116200409f565b620041db62003f56565b620041e562003f56565b620041ef62003f56565b60017f9b779b17422d0df92223018b32b4d1fa46e071723d6817e2486d003becc55f0055633b9aca0034106200422b5762002518343062003ce6565b60405163ea2559bb60e01b8152600490fd5b908160209103126200042b5751620005718162001faa565b6040516352d1902d60e01b81529290916020846004816001600160a01b0387165afa5f9481620042e5575b50620042a757604051634c9c8ce360e01b81526001600160a01b0384166004820152602490fd5b90915f80516020620052b28339815191528403620042cc5762000eec92935062004b9e565b604051632a87526960e21b815260048101859052602490fd5b6200430391955060203d602011620011d457620011c48183620004f2565b935f62004280565b60d154806200431957505f90565b60d15f527f695fb3134ad82c3b8022bc5464edd0bcc9424ef672b52245dcb6ab2374327ce201546001600160a01b0316620007ea565b908082101562002c9e575090565b60d554908160801c8115801562004390575b156200437b5750905090565b6001600160801b036200057193169162002d4c565b5080156200436f565b6e5661756c7456616c696461746f727360881b6020604051620043bc81620004ba565b600f8152015260405160208101907f8b73c3c69bb8fe3d512ecc4cf759cc79239f7b179b0ffacaa9a75d522b39400f82527f35d6cf9768d8be929c3a11ed667b1560ae6f1920195a985758fdd7265505d1ca60408201527fc89efdaa54c0f20c7adf612882df0950f5a951637e0307cdcb4c672f298b8bc660608201524660808201523060a082015260a0815260c081018181106001600160401b03821117620004b45760405251902090565b81519190604183036200449c57620044959250602082015190606060408401519301515f1a9062004c46565b9192909190565b50505f9160029190565b906030116200042b5790603090565b909291928360b0116200042b5783116200042b5760b0019160af190190565b906090116200042b5760300190606090565b9060c4116200042b5760900190603490565b909392938483116200042b5784116200042b578101920390565b35906020811062004521575090565b5f199060200360031b1b1690565b959493620045616200457093620045526060969460808b5260808b0190620028dd565b9089820360208b015262000537565b918783036040890152620028f5565b930152565b9695949062004570936200455262004561926060979560808c5260808c0191620028f5565b90602062000571928181520190620028dd565b91602062000571938181520191620028f5565b7f00000000000000000000000000000000000000000000000000000000000000006001600160a01b03169160c480820492905f9081805b86841062004609575050505050505050565b826200461a910180928787620044f8565b90620046278282620044a6565b916200464062004639858084620044b5565b9062004cde565b90620046656200465e620046558784620044d4565b979093620044e6565b9062004512565b948c3b156200042b578c5f926801bc16d674ec800000604095620046a187519a8b96879586946304512a2360e31b86528d8d6004880162004575565b03925af19081156200097d577f64b6e61d93b7a91e8cc4376183ede0997a27b44fd9dd2f30a866b2a5730efdb194620046e692620046f6575b505192839283620045ad565b0390a160018193019290620045f7565b80620009936200470692620004a0565b5f620046da565b816030116200042b577f00000000000000000000000000000000000000000000000000000000000000006001600160a01b0316916200475262004639828085620044b5565b6200475e8284620044d4565b94909260b0116200042b57803b156200042b57620047a7946801bc16d674ec8000005f94604051978895869485936304512a2360e31b855260908b0135928b600487016200452f565b03925af19081156200097d577f64b6e61d93b7a91e8cc4376183ede0997a27b44fd9dd2f30a866b2a5730efdb1926200319b92620047ee575b50604051918291826200459a565b8062000993620047fe92620004a0565b5f620047e0565b9190916001600160801b038080941691160191821162000bb957565b5f80516020620052d283398151915260205f926200483f8562003aa7565b60cf5490620048596001600160801b039182841662004805565b6fffffffffffffffffffffffffffffffff1990921691161760cf556001600160a01b031680845260d3825260408085208054870190555194855293a3565b60d054906001600160801b038216918215620049d85760801c620048d2620048c082476200254d565b620048cb8562002403565b906200434f565b908115620049d157620048e58262003b7a565b938415620049c957826200493e620018e66200320362000eec96620030de96620049386200491c620032038d620049bd9a6200254d565b6001600160801b03166001600160801b031960d054161760d055565b620026f4565b6200494a818762004e00565b60408051878152602081018390527f624ea167e477f9d39f7f4094b9dfe2e6346eb4a7aada54338db51abd554c4b9f9190a162003203620049a16200498f8862003aa7565b60cf546001600160801b031662002a13565b6001600160801b03166001600160801b031960cf54161760cf55565b60cf5460801c62002a13565b505f93505050565b505f925050565b505f9150565b601f8111620049eb575050565b5f80525f8051602062005292833981519152906020601f840160051c8301931062004a32575b601f0160051c01905b81811062004a26575050565b5f815560010162004a1a565b909150819062004a11565b90601f821162004a4b575050565b60019160015f527fb10e2d527612073b26eecdfd717e6a320cf44b4afac2b0732d9fcbe2b7fa0cf6906020601f840160051c8301931062004aa8575b601f0160051c01905b81811062004a9d57505050565b5f8155820162004a90565b909150819062004a87565b9081516001600160401b038111620004b45760019062004adf8162004ad9845462000451565b62004a3d565b602080601f831160011462004b175750819062004b139394955f926200412c5750508160011b915f199060031b1c19161790565b9055565b90601f1983169562004b4a60015f527fb10e2d527612073b26eecdfd717e6a320cf44b4afac2b0732d9fcbe2b7fa0cf690565b925f905b88821062004b86575050838596971062004b6d575b505050811b019055565b01515f1960f88460031b161c191690555f808062004b63565b80878596829496860151815501950193019062004b4e565b90813b1562004c25575f80516020620052b283398151915280546001600160a01b0319166001600160a01b0384169081179091557fbc7cd75a20ee27fd9adebab32041f755214dbc6bffa90cc0225b39da2e5c2d3b5f80a280511562004c0957620025189162004ee3565b50503462004c1357565b60405163b398979f60e01b8152600490fd5b604051634c9c8ce360e01b81526001600160a01b0383166004820152602490fd5b90917f7fffffffffffffffffffffffffffffff5d576e7357a4501ddfe92f46681b20a0841162004cd3579062004ca16020945f9493604051948594859094939260ff6060936080840197845216602083015260408201520152565b838052039060015afa156200097d575f516001600160a01b0381161562004cc957905f905f90565b505f906001905f90565b5050505f9160039190565b6014820362004d92576bffffffffffffffffffffffff19919035828116916014811062004d7c575b5050905060601c62004d28620017df825f5261020860205260405f2054151590565b62004d6a5760408051600160f81b60208201525f602182015260609290921b6bffffffffffffffffffffffff1916602c8301526200057190829081016200281a565b604051632899266560e21b8152600490fd5b8391925060140360031b1b1616805f8062004d06565b604051639be7315960e01b8152600490fd5b60d15490600160401b821015620004b457600182018060d15582101562002ac45760d15f52805160209091015160a01b6001600160a01b0319166001600160a01b0391909116175f80516020620052f283398151915290910155565b9190918015801562004eda575b62004ec85762004e1c6200430b565b90810180911162000bb9576001600160a01b0380821162004ea8576001600160601b039081851162004e88579062000eec939462004e7162004e829362004e6262000edd565b95166001600160a01b03168552565b166001600160601b03166020830152565b62004da4565b6040516306dfcc6560e41b81526060600482015260248101869052604490fd5b6040516306dfcc6560e41b815260a0600482015260248101839052604490fd5b604051632ec8835b60e21b8152600490fd5b50821562004e0d565b5f806200057193602081519101845af462004efd62002ad7565b9162004f73565b6001600160a01b03165f81815260d36020526040902080548381039190821162000bb9575f935f80516020620052d2833981519152926020925562004f498162003aa7565b60cf54906001600160801b03908183160316906001600160801b0319161760cf55604051908152a3565b9062004f8a575080511562003b3e57805190602001fd5b8151158062004fbf575b62004f9d575090565b604051639996b31560e01b81526001600160a01b039091166004820152602490fd5b50803b1562004f9456fe60806040526102c8803803806100148161018e565b92833981019060408183031261018a5780516001600160a01b03811680820361018a5760208381015190936001600160401b03821161018a570184601f8201121561018a5780519061006d610068836101c7565b61018e565b9582875285838301011161018a5784905f5b8381106101765750505f9186010152813b1561015e577f360894a13ba1a3210667c828492db98dca3e2076cc3735a920a3ca505d382bbc80546001600160a01b03191682179055604051907fbc7cd75a20ee27fd9adebab32041f755214dbc6bffa90cc0225b39da2e5c2d3b5f80a283511561014057505f80848461012796519101845af4903d15610137573d610118610068826101c7565b9081525f81943d92013e6101e2565b505b604051608290816102468239f35b606092506101e2565b925050503461014f5750610129565b63b398979f60e01b8152600490fd5b60249060405190634c9c8ce360e01b82526004820152fd5b81810183015188820184015286920161007f565b5f80fd5b6040519190601f01601f191682016001600160401b038111838210176101b357604052565b634e487b7160e01b5f52604160045260245ffd5b6001600160401b0381116101b357601f01601f191660200190565b9061020957508051156101f757805190602001fd5b604051630a12f52160e11b8152600490fd5b8151158061023c575b61021a575090565b604051639996b31560e01b81526001600160a01b039091166004820152602490fd5b50803b1561021256fe60806040527f360894a13ba1a3210667c828492db98dca3e2076cc3735a920a3ca505d382bbc545f9081906001600160a01b0316368280378136915af43d5f803e156048573d5ff35b3d5ffdfea2646970667358221220590de6162af1aca5f7d380e459394ce97dc6a2e4a2575dd7c58d5d1cb01c826d64736f6c63430008160033290decd9548b62a8d60345a988386fc84ba6bc95484008f6362f93160ef3e563360894a13ba1a3210667c828492db98dca3e2076cc3735a920a3ca505d382bbcddf252ad1be2c89b69c2b068fc378daa952ba7f163c4a11628f55a4df523b3ef695fb3134ad82c3b8022bc5464edd0bcc9424ef672b52245dcb6ab2374327ce3a264697066735822122001b3bd813422a1da22237ac6d5a0a6c0b2c53c6871ce454c434c474b90bc284764736f6c63430008160033",
  "linkReferences": {},
  "deployedLinkReferences": {}
}