{
  "_format": "hh-sol-artifact-1",
  "contractName": "EthRestakePrivVault",
  "sourceName": "contracts/vaults/ethereum/restake/EthRestakePrivVault.sol",
  "abi": [
    {
      "inputs": [
        {
          "internalType": "address",
          "name": "_keeper",
          "type": "address"
        },
        {
          "internalType": "address",
          "name": "_vaultsRegistry",
          "type": "address"
        },
        {
          "internalType": "address",
          "name": "_validatorsRegistry",
          "type": "address"
        },
        {
          "internalType": "address",
          "name": "sharedMevEscrow",
          "type": "address"
        },
        {
          "internalType": "address",
          "name": "depositDataRegistry",
          "type": "address"
        },
        {
          "internalType": "address",
          "name": "eigenPodOwnerImplementation",
          "type": "address"
        },
        {
          "internalType": "uint256",
          "name": "exitingAssetsClaimDelay",
          "type": "uint256"
        }
      ],
      "stateMutability": "nonpayable",
      "type": "constructor"
    },
    {
      "inputs": [],
      "name": "AccessDenied",
      "type": "error"
    },
    {
      "inputs": [
        {
          "internalType": "address",
          "name": "target",
          "type": "address"
        }
      ],
      "name": "AddressEmptyCode",
      "type": "error"
    },
    {
      "inputs": [
        {
          "internalType": "address",
          "name": "account",
          "type": "address"
        }
      ],
      "name": "AddressInsufficientBalance",
      "type": "error"
    },
    {
      "inputs": [],
      "name": "CapacityExceeded",
      "type": "error"
    },
    {
      "inputs": [
        {
          "internalType": "address",
          "name": "implementation",
          "type": "address"
        }
      ],
      "name": "ERC1967InvalidImplementation",
      "type": "error"
    },
    {
      "inputs": [],
      "name": "ERC1967NonPayable",
      "type": "error"
    },
    {
      "inputs": [],
      "name": "EigenPodNotFound",
      "type": "error"
    },
    {
      "inputs": [],
      "name": "ExitRequestNotProcessed",
      "type": "error"
    },
    {
      "inputs": [],
      "name": "FailedInnerCall",
      "type": "error"
    },
    {
      "inputs": [],
      "name": "InsufficientAssets",
      "type": "error"
    },
    {
      "inputs": [],
      "name": "InvalidAssets",
      "type": "error"
    },
    {
      "inputs": [],
      "name": "InvalidCapacity",
      "type": "error"
    },
    {
      "inputs": [],
      "name": "InvalidCheckpointIndex",
      "type": "error"
    },
    {
      "inputs": [],
      "name": "InvalidCheckpointValue",
      "type": "error"
    },
    {
      "inputs": [],
      "name": "InvalidFeePercent",
      "type": "error"
    },
    {
      "inputs": [],
      "name": "InvalidFeeRecipient",
      "type": "error"
    },
    {
      "inputs": [],
      "name": "InvalidInitialization",
      "type": "error"
    },
    {
      "inputs": [],
      "name": "InvalidSecurityDeposit",
      "type": "error"
    },
    {
      "inputs": [],
      "name": "InvalidShares",
      "type": "error"
    },
    {
      "inputs": [],
      "name": "InvalidValidators",
      "type": "error"
    },
    {
      "inputs": [],
      "name": "InvalidWithdrawalCredentials",
      "type": "error"
    },
    {
      "inputs": [],
      "name": "MathOverflowedMulDiv",
      "type": "error"
    },
    {
      "inputs": [],
      "name": "NotHarvested",
      "type": "error"
    },
    {
      "inputs": [],
      "name": "NotInitializing",
      "type": "error"
    },
    {
      "inputs": [],
      "name": "ReentrancyGuardReentrantCall",
      "type": "error"
    },
    {
      "inputs": [
        {
          "internalType": "uint8",
          "name": "bits",
          "type": "uint8"
        },
        {
          "internalType": "uint256",
          "name": "value",
          "type": "uint256"
        }
      ],
      "name": "SafeCastOverflowedUintDowncast",
      "type": "error"
    },
    {
      "inputs": [],
      "name": "UUPSUnauthorizedCallContext",
      "type": "error"
    },
    {
      "inputs": [
        {
          "internalType": "bytes32",
          "name": "slot",
          "type": "bytes32"
        }
      ],
      "name": "UUPSUnsupportedProxiableUUID",
      "type": "error"
    },
    {
      "inputs": [],
      "name": "UpgradeFailed",
      "type": "error"
    },
    {
      "inputs": [],
      "name": "ValueNotChanged",
      "type": "error"
    },
    {
      "inputs": [],
      "name": "ZeroAddress",
      "type": "error"
    },
    {
      "anonymous": false,
      "inputs": [
        {
          "indexed": false,
          "internalType": "uint256",
          "name": "shares",
          "type": "uint256"
        },
        {
          "indexed": false,
          "internalType": "uint256",
          "name": "assets",
          "type": "uint256"
        }
      ],
      "name": "CheckpointCreated",
      "type": "event"
    },
    {
      "anonymous": false,
      "inputs": [
        {
          "indexed": true,
          "internalType": "address",
          "name": "caller",
          "type": "address"
        },
        {
          "indexed": true,
          "internalType": "address",
          "name": "receiver",
          "type": "address"
        },
        {
          "indexed": false,
          "internalType": "uint256",
          "name": "assets",
          "type": "uint256"
        },
        {
          "indexed": false,
          "internalType": "uint256",
          "name": "shares",
          "type": "uint256"
        },
        {
          "indexed": false,
          "internalType": "address",
          "name": "referrer",
          "type": "address"
        }
      ],
      "name": "Deposited",
      "type": "event"
    },
    {
      "anonymous": false,
      "inputs": [
        {
          "indexed": false,
          "internalType": "address",
          "name": "eigenPodOwner",
          "type": "address"
        },
        {
          "indexed": false,
          "internalType": "address",
          "name": "eigenPod",
          "type": "address"
        }
      ],
      "name": "EigenPodCreated",
      "type": "event"
    },
    {
      "anonymous": false,
      "inputs": [
        {
          "indexed": true,
          "internalType": "address",
          "name": "owner",
          "type": "address"
        },
        {
          "indexed": true,
          "internalType": "address",
          "name": "receiver",
          "type": "address"
        },
        {
          "indexed": false,
          "internalType": "uint256",
          "name": "positionTicket",
          "type": "uint256"
        },
        {
          "indexed": false,
          "internalType": "uint256",
          "name": "shares",
          "type": "uint256"
        }
      ],
      "name": "ExitQueueEntered",
      "type": "event"
    },
    {
      "anonymous": false,
      "inputs": [
        {
          "indexed": true,
          "internalType": "address",
          "name": "receiver",
          "type": "address"
        },
        {
          "indexed": false,
          "internalType": "uint256",
          "name": "prevPositionTicket",
          "type": "uint256"
        },
        {
          "indexed": false,
          "internalType": "uint256",
          "name": "newPositionTicket",
          "type": "uint256"
        },
        {
          "indexed": false,
          "internalType": "uint256",
          "name": "withdrawnAssets",
          "type": "uint256"
        }
      ],
      "name": "ExitedAssetsClaimed",
      "type": "event"
    },
    {
      "anonymous": false,
      "inputs": [
        {
          "indexed": false,
          "internalType": "uint256",
          "name": "penalty",
          "type": "uint256"
        }
      ],
      "name": "ExitingAssetsPenalized",
      "type": "event"
    },
    {
      "anonymous": false,
      "inputs": [
        {
          "indexed": true,
          "internalType": "address",
          "name": "caller",
          "type": "address"
        },
        {
          "indexed": true,
          "internalType": "address",
          "name": "feeRecipient",
          "type": "address"
        }
      ],
      "name": "FeeRecipientUpdated",
      "type": "event"
    },
    {
      "anonymous": false,
      "inputs": [
        {
          "indexed": false,
          "internalType": "address",
          "name": "receiver",
          "type": "address"
        },
        {
          "indexed": false,
          "internalType": "uint256",
          "name": "shares",
          "type": "uint256"
        },
        {
          "indexed": false,
          "internalType": "uint256",
          "name": "assets",
          "type": "uint256"
        }
      ],
      "name": "FeeSharesMinted",
      "type": "event"
    },
    {
      "anonymous": false,
      "inputs": [
        {
          "indexed": false,
          "internalType": "uint64",
          "name": "version",
          "type": "uint64"
        }
      ],
      "name": "Initialized",
      "type": "event"
    },
    {
      "anonymous": false,
      "inputs": [
        {
          "indexed": true,
          "internalType": "address",
          "name": "caller",
          "type": "address"
        },
        {
          "indexed": true,
          "internalType": "address",
          "name": "keysManager",
          "type": "address"
        }
      ],
      "name": "KeysManagerUpdated",
      "type": "event"
    },
    {
      "anonymous": false,
      "inputs": [
        {
          "indexed": true,
          "internalType": "address",
          "name": "caller",
          "type": "address"
        },
        {
          "indexed": false,
          "internalType": "string",
          "name": "metadataIpfsHash",
          "type": "string"
        }
      ],
      "name": "MetadataUpdated",
      "type": "event"
    },
    {
      "anonymous": false,
      "inputs": [
        {
          "indexed": true,
          "internalType": "address",
          "name": "owner",
          "type": "address"
        },
        {
          "indexed": true,
          "internalType": "address",
          "name": "receiver",
          "type": "address"
        },
        {
          "indexed": false,
          "internalType": "uint256",
          "name": "assets",
          "type": "uint256"
        },
        {
          "indexed": false,
          "internalType": "uint256",
          "name": "shares",
          "type": "uint256"
        }
      ],
      "name": "Redeemed",
      "type": "event"
    },
    {
      "anonymous": false,
      "inputs": [
        {
          "indexed": false,
          "internalType": "address",
          "name": "newRestakeOperatorsManager",
          "type": "address"
        }
      ],
      "name": "RestakeOperatorsManagerUpdated",
      "type": "event"
    },
    {
      "anonymous": false,
      "inputs": [
        {
          "indexed": false,
          "internalType": "address",
          "name": "newRestakeWithdrawalsManager",
          "type": "address"
        }
      ],
      "name": "RestakeWithdrawalsManagerUpdated",
      "type": "event"
    },
    {
      "anonymous": false,
      "inputs": [
        {
          "indexed": true,
          "internalType": "address",
          "name": "implementation",
          "type": "address"
        }
      ],
      "name": "Upgraded",
      "type": "event"
    },
    {
      "anonymous": false,
      "inputs": [
        {
          "indexed": true,
          "internalType": "address",
          "name": "owner",
          "type": "address"
        },
        {
          "indexed": true,
          "internalType": "address",
          "name": "receiver",
          "type": "address"
        },
        {
          "indexed": false,
          "internalType": "uint256",
          "name": "positionTicket",
          "type": "uint256"
        },
        {
          "indexed": false,
          "internalType": "uint256",
          "name": "shares",
          "type": "uint256"
        },
        {
          "indexed": false,
          "internalType": "uint256",
          "name": "assets",
          "type": "uint256"
        }
      ],
      "name": "V2ExitQueueEntered",
      "type": "event"
    },
    {
      "anonymous": false,
      "inputs": [
        {
          "indexed": false,
          "internalType": "bytes",
          "name": "publicKey",
          "type": "bytes"
        }
      ],
      "name": "ValidatorRegistered",
      "type": "event"
    },
    {
      "anonymous": false,
      "inputs": [
        {
          "indexed": true,
          "internalType": "address",
          "name": "caller",
          "type": "address"
        },
        {
          "indexed": true,
          "internalType": "address",
          "name": "validatorsManager",
          "type": "address"
        }
      ],
      "name": "ValidatorsManagerUpdated",
      "type": "event"
    },
    {
      "anonymous": false,
      "inputs": [
        {
          "indexed": true,
          "internalType": "address",
          "name": "caller",
          "type": "address"
        },
        {
          "indexed": true,
          "internalType": "bytes32",
          "name": "validatorsRoot",
          "type": "bytes32"
        }
      ],
      "name": "ValidatorsRootUpdated",
      "type": "event"
    },
    {
      "anonymous": false,
      "inputs": [
        {
          "indexed": true,
          "internalType": "address",
          "name": "caller",
          "type": "address"
        },
        {
          "indexed": true,
          "internalType": "address",
          "name": "account",
          "type": "address"
        },
        {
          "indexed": false,
          "internalType": "bool",
          "name": "approved",
          "type": "bool"
        }
      ],
      "name": "WhitelistUpdated",
      "type": "event"
    },
    {
      "anonymous": false,
      "inputs": [
        {
          "indexed": true,
          "internalType": "address",
          "name": "caller",
          "type": "address"
        },
        {
          "indexed": true,
          "internalType": "address",
          "name": "whitelister",
          "type": "address"
        }
      ],
      "name": "WhitelisterUpdated",
      "type": "event"
    },
    {
      "inputs": [],
      "name": "UPGRADE_INTERFACE_VERSION",
      "outputs": [
        {
          "internalType": "string",
          "name": "",
          "type": "string"
        }
      ],
      "stateMutability": "view",
      "type": "function"
    },
    {
      "inputs": [],
      "name": "admin",
      "outputs": [
        {
          "internalType": "address",
          "name": "",
          "type": "address"
        }
      ],
      "stateMutability": "view",
      "type": "function"
    },
    {
      "inputs": [
        {
          "internalType": "address",
          "name": "receiver",
          "type": "address"
        },
        {
          "internalType": "uint256",
          "name": "positionTicket",
          "type": "uint256"
        },
        {
          "internalType": "uint256",
          "name": "timestamp",
          "type": "uint256"
        },
        {
          "internalType": "uint256",
          "name": "exitQueueIndex",
          "type": "uint256"
        }
      ],
      "name": "calculateExitedAssets",
      "outputs": [
        {
          "internalType": "uint256",
          "name": "leftTickets",
          "type": "uint256"
        },
        {
          "internalType": "uint256",
          "name": "exitedTickets",
          "type": "uint256"
        },
        {
          "internalType": "uint256",
          "name": "exitedAssets",
          "type": "uint256"
        }
      ],
      "stateMutability": "view",
      "type": "function"
    },
    {
      "inputs": [],
      "name": "capacity",
      "outputs": [
        {
          "internalType": "uint256",
          "name": "",
          "type": "uint256"
        }
      ],
      "stateMutability": "view",
      "type": "function"
    },
    {
      "inputs": [
        {
          "internalType": "uint256",
          "name": "positionTicket",
          "type": "uint256"
        },
        {
          "internalType": "uint256",
          "name": "timestamp",
          "type": "uint256"
        },
        {
          "internalType": "uint256",
          "name": "exitQueueIndex",
          "type": "uint256"
        }
      ],
      "name": "claimExitedAssets",
      "outputs": [],
      "stateMutability": "nonpayable",
      "type": "function"
    },
    {
      "inputs": [
        {
          "internalType": "uint256",
          "name": "shares",
          "type": "uint256"
        }
      ],
      "name": "convertToAssets",
      "outputs": [
        {
          "internalType": "uint256",
          "name": "assets",
          "type": "uint256"
        }
      ],
      "stateMutability": "view",
      "type": "function"
    },
    {
      "inputs": [
        {
          "internalType": "uint256",
          "name": "assets",
          "type": "uint256"
        }
      ],
      "name": "convertToShares",
      "outputs": [
        {
          "internalType": "uint256",
          "name": "shares",
          "type": "uint256"
        }
      ],
      "stateMutability": "view",
      "type": "function"
    },
    {
      "inputs": [],
      "name": "createEigenPod",
      "outputs": [],
      "stateMutability": "nonpayable",
      "type": "function"
    },
    {
      "inputs": [
        {
          "internalType": "address",
          "name": "receiver",
          "type": "address"
        },
        {
          "internalType": "address",
          "name": "referrer",
          "type": "address"
        }
      ],
      "name": "deposit",
      "outputs": [
        {
          "internalType": "uint256",
          "name": "shares",
          "type": "uint256"
        }
      ],
      "stateMutability": "payable",
      "type": "function"
    },
    {
      "inputs": [
        {
          "internalType": "uint256",
          "name": "shares",
          "type": "uint256"
        },
        {
          "internalType": "address",
          "name": "receiver",
          "type": "address"
        }
      ],
      "name": "enterExitQueue",
      "outputs": [
        {
          "internalType": "uint256",
          "name": "positionTicket",
          "type": "uint256"
        }
      ],
      "stateMutability": "nonpayable",
      "type": "function"
    },
    {
      "inputs": [],
      "name": "feePercent",
      "outputs": [
        {
          "internalType": "uint16",
          "name": "",
          "type": "uint16"
        }
      ],
      "stateMutability": "view",
      "type": "function"
    },
    {
      "inputs": [],
      "name": "feeRecipient",
      "outputs": [
        {
          "internalType": "address",
          "name": "",
          "type": "address"
        }
      ],
      "stateMutability": "view",
      "type": "function"
    },
    {
      "inputs": [],
      "name": "getEigenPods",
      "outputs": [
        {
          "internalType": "address[]",
          "name": "",
          "type": "address[]"
        }
      ],
      "stateMutability": "view",
      "type": "function"
    },
    {
      "inputs": [
        {
          "internalType": "uint256",
          "name": "positionTicket",
          "type": "uint256"
        }
      ],
      "name": "getExitQueueIndex",
      "outputs": [
        {
          "internalType": "int256",
          "name": "",
          "type": "int256"
        }
      ],
      "stateMutability": "view",
      "type": "function"
    },
    {
      "inputs": [
        {
          "internalType": "address",
          "name": "account",
          "type": "address"
        }
      ],
      "name": "getShares",
      "outputs": [
        {
          "internalType": "uint256",
          "name": "",
          "type": "uint256"
        }
      ],
      "stateMutability": "view",
      "type": "function"
    },
    {
      "inputs": [],
      "name": "implementation",
      "outputs": [
        {
          "internalType": "address",
          "name": "",
          "type": "address"
        }
      ],
      "stateMutability": "view",
      "type": "function"
    },
    {
      "inputs": [
        {
          "internalType": "bytes",
          "name": "params",
          "type": "bytes"
        }
      ],
      "name": "initialize",
      "outputs": [],
      "stateMutability": "payable",
      "type": "function"
    },
    {
      "inputs": [],
      "name": "isStateUpdateRequired",
      "outputs": [
        {
          "internalType": "bool",
          "name": "",
          "type": "bool"
        }
      ],
      "stateMutability": "view",
      "type": "function"
    },
    {
      "inputs": [],
      "name": "mevEscrow",
      "outputs": [
        {
          "internalType": "address",
          "name": "",
          "type": "address"
        }
      ],
      "stateMutability": "view",
      "type": "function"
    },
    {
      "inputs": [
        {
          "internalType": "bytes[]",
          "name": "data",
          "type": "bytes[]"
        }
      ],
      "name": "multicall",
      "outputs": [
        {
          "internalType": "bytes[]",
          "name": "results",
          "type": "bytes[]"
        }
      ],
      "stateMutability": "nonpayable",
      "type": "function"
    },
    {
      "inputs": [],
      "name": "proxiableUUID",
      "outputs": [
        {
          "internalType": "bytes32",
          "name": "",
          "type": "bytes32"
        }
      ],
      "stateMutability": "view",
      "type": "function"
    },
    {
      "inputs": [],
      "name": "queuedShares",
      "outputs": [
        {
          "internalType": "uint128",
          "name": "",
          "type": "uint128"
        }
      ],
      "stateMutability": "view",
      "type": "function"
    },
    {
      "inputs": [],
      "name": "receiveFromMevEscrow",
      "outputs": [],
      "stateMutability": "payable",
      "type": "function"
    },
    {
      "inputs": [
        {
          "components": [
            {
              "internalType": "bytes32",
              "name": "validatorsRegistryRoot",
              "type": "bytes32"
            },
            {
              "internalType": "uint256",
              "name": "deadline",
              "type": "uint256"
            },
            {
              "internalType": "bytes",
              "name": "validators",
              "type": "bytes"
            },
            {
              "internalType": "bytes",
              "name": "signatures",
              "type": "bytes"
            },
            {
              "internalType": "string",
              "name": "exitSignaturesIpfsHash",
              "type": "string"
            }
          ],
          "internalType": "struct IKeeperValidators.ApprovalParams",
          "name": "keeperParams",
          "type": "tuple"
        },
        {
          "internalType": "bytes",
          "name": "validatorsManagerSignature",
          "type": "bytes"
        }
      ],
      "name": "registerValidators",
      "outputs": [],
      "stateMutability": "nonpayable",
      "type": "function"
    },
    {
      "inputs": [],
      "name": "restakeOperatorsManager",
      "outputs": [
        {
          "internalType": "address",
          "name": "",
          "type": "address"
        }
      ],
      "stateMutability": "view",
      "type": "function"
    },
    {
      "inputs": [],
      "name": "restakeWithdrawalsManager",
      "outputs": [
        {
          "internalType": "address",
          "name": "",
          "type": "address"
        }
      ],
      "stateMutability": "view",
      "type": "function"
    },
    {
      "inputs": [
        {
          "internalType": "address",
          "name": "_feeRecipient",
          "type": "address"
        }
      ],
      "name": "setFeeRecipient",
      "outputs": [],
      "stateMutability": "nonpayable",
      "type": "function"
    },
    {
      "inputs": [
        {
          "internalType": "string",
          "name": "metadataIpfsHash",
          "type": "string"
        }
      ],
      "name": "setMetadata",
      "outputs": [],
      "stateMutability": "nonpayable",
      "type": "function"
    },
    {
      "inputs": [
        {
          "internalType": "address",
          "name": "newRestakeOperatorsManager",
          "type": "address"
        }
      ],
      "name": "setRestakeOperatorsManager",
      "outputs": [],
      "stateMutability": "nonpayable",
      "type": "function"
    },
    {
      "inputs": [
        {
          "internalType": "address",
          "name": "newRestakeWithdrawalsManager",
          "type": "address"
        }
      ],
      "name": "setRestakeWithdrawalsManager",
      "outputs": [],
      "stateMutability": "nonpayable",
      "type": "function"
    },
    {
      "inputs": [
        {
          "internalType": "address",
          "name": "validatorsManager_",
          "type": "address"
        }
      ],
      "name": "setValidatorsManager",
      "outputs": [],
      "stateMutability": "nonpayable",
      "type": "function"
    },
    {
      "inputs": [
        {
          "internalType": "address",
          "name": "_whitelister",
          "type": "address"
        }
      ],
      "name": "setWhitelister",
      "outputs": [],
      "stateMutability": "nonpayable",
      "type": "function"
    },
    {
      "inputs": [],
      "name": "totalAssets",
      "outputs": [
        {
          "internalType": "uint256",
          "name": "",
          "type": "uint256"
        }
      ],
      "stateMutability": "view",
      "type": "function"
    },
    {
      "inputs": [],
      "name": "totalExitingAssets",
      "outputs": [
        {
          "internalType": "uint128",
          "name": "",
          "type": "uint128"
        }
      ],
      "stateMutability": "view",
      "type": "function"
    },
    {
      "inputs": [],
      "name": "totalShares",
      "outputs": [
        {
          "internalType": "uint256",
          "name": "",
          "type": "uint256"
        }
      ],
      "stateMutability": "view",
      "type": "function"
    },
    {
      "inputs": [
        {
          "components": [
            {
              "internalType": "bytes32",
              "name": "rewardsRoot",
              "type": "bytes32"
            },
            {
              "internalType": "int160",
              "name": "reward",
              "type": "int160"
            },
            {
              "internalType": "uint160",
              "name": "unlockedMevReward",
              "type": "uint160"
            },
            {
              "internalType": "bytes32[]",
              "name": "proof",
              "type": "bytes32[]"
            }
          ],
          "internalType": "struct IKeeperRewards.HarvestParams",
          "name": "harvestParams",
          "type": "tuple"
        }
      ],
      "name": "updateState",
      "outputs": [],
      "stateMutability": "nonpayable",
      "type": "function"
    },
    {
      "inputs": [
        {
          "internalType": "address",
          "name": "receiver",
          "type": "address"
        },
        {
          "internalType": "address",
          "name": "referrer",
          "type": "address"
        },
        {
          "components": [
            {
              "internalType": "bytes32",
              "name": "rewardsRoot",
              "type": "bytes32"
            },
            {
              "internalType": "int160",
              "name": "reward",
              "type": "int160"
            },
            {
              "internalType": "uint160",
              "name": "unlockedMevReward",
              "type": "uint160"
            },
            {
              "internalType": "bytes32[]",
              "name": "proof",
              "type": "bytes32[]"
            }
          ],
          "internalType": "struct IKeeperRewards.HarvestParams",
          "name": "harvestParams",
          "type": "tuple"
        }
      ],
      "name": "updateStateAndDeposit",
      "outputs": [
        {
          "internalType": "uint256",
          "name": "shares",
          "type": "uint256"
        }
      ],
      "stateMutability": "payable",
      "type": "function"
    },
    {
      "inputs": [
        {
          "internalType": "address",
          "name": "account",
          "type": "address"
        },
        {
          "internalType": "bool",
          "name": "approved",
          "type": "bool"
        }
      ],
      "name": "updateWhitelist",
      "outputs": [],
      "stateMutability": "nonpayable",
      "type": "function"
    },
    {
      "inputs": [
        {
          "internalType": "address",
          "name": "newImplementation",
          "type": "address"
        },
        {
          "internalType": "bytes",
          "name": "data",
          "type": "bytes"
        }
      ],
      "name": "upgradeToAndCall",
      "outputs": [],
      "stateMutability": "payable",
      "type": "function"
    },
    {
      "inputs": [],
      "name": "validatorsManager",
      "outputs": [
        {
          "internalType": "address",
          "name": "",
          "type": "address"
        }
      ],
      "stateMutability": "view",
      "type": "function"
    },
    {
      "inputs": [],
      "name": "vaultId",
      "outputs": [
        {
          "internalType": "bytes32",
          "name": "",
          "type": "bytes32"
        }
      ],
      "stateMutability": "pure",
      "type": "function"
    },
    {
      "inputs": [],
      "name": "version",
      "outputs": [
        {
          "internalType": "uint8",
          "name": "",
          "type": "uint8"
        }
      ],
      "stateMutability": "pure",
      "type": "function"
    },
    {
      "inputs": [
        {
          "internalType": "address",
          "name": "",
          "type": "address"
        }
      ],
      "name": "whitelistedAccounts",
      "outputs": [
        {
          "internalType": "bool",
          "name": "",
          "type": "bool"
        }
      ],
      "stateMutability": "view",
      "type": "function"
    },
    {
      "inputs": [],
      "name": "whitelister",
      "outputs": [
        {
          "internalType": "address",
          "name": "",
          "type": "address"
        }
      ],
      "stateMutability": "view",
      "type": "function"
    },
    {
      "inputs": [],
      "name": "withdrawableAssets",
      "outputs": [
        {
          "internalType": "uint256",
          "name": "",
          "type": "uint256"
        }
      ],
      "stateMutability": "view",
      "type": "function"
    },
    {
      "stateMutability": "payable",
      "type": "receive"
    }
  ],
  "bytecode": "0x6101a034620001e457601f620047ee38819003918201601f19168301926001600160401b0392909183851183861017620001e8578160e09284926040978852833981010312620001e4576200005481620001fc565b926200006360208301620001fc565b9362000071828401620001fc565b916200008060608501620001fc565b926200008f60808601620001fc565b9660c0620000a060a08801620001fc565b9601519360805260a05260c0523060e052610100958652610120944686526101409283526101609384526101809485527ff0c57e16840df040f15088dc2f81fe391c3923bec73e23a9662efc9c229c6a009081549060ff82851c16620001d35780808316036200018e575b50505051936145dc9586620002128739608051868181610f8701528181611204015281816127300152613045015260a05186610c99015260c051868181613da70152613efd015260e051868181610e450152612cf701525185612474015251846130c3015251836113dd015251828181611e28015261277d015251816104bd0152f35b6001600160401b0319909116811790915581519081527fc7f505b2f371ae2175ee4913f4499e1f2633a7b5936321eed1cdaeb6115181d290602090a15f80806200010b565b835163f92ee8a960e01b8152600490fd5b5f80fd5b634e487b7160e01b5f52604160045260245ffd5b51906001600160a01b0382168203620001e45756fe6080604052600436101562000026575b36156200001a575f80fd5b62000024620024b7565b005b5f3560e01c806301e1d114146200034e57806307a2d13a1462000348578063096ae80d14620003425780630b10b201146200033c5780630d392cd9146200033657806318f7295014620003305780631a7ff553146200032a57806322758a4a14620003245780632cdf7401146200031e5780633229fa95146200031857806333194c0a14620003125780633a98ef39146200030c578063439fab9114620003065780634690484014620003005780634f1ef28614620002fa57806352d1902d14620002f457806353156f2814620002ee57806354fd4d5014620002e85780635c60da1b14620002e25780635cfc1a5114620002dc57806360d60e6e14620002d657806372b410a814620002d0578063754c388814620002ca57806376b58b9014620002c45780637b6341c614620002be5780637fd6f15c14620002b857806383d430d514620002b25780638697d2c214620002ac5780638ceab9aa14620002a6578063a045dd0c14620002a0578063a49a1e7d146200029a578063ac9650d81462000294578063ad3cb1cc146200028e578063b1f0e7c71462000288578063c5aecb221462000282578063c6e6f592146200027c578063d83ad00c1462000276578063e74b981b1462000270578063ee3bd5df146200026a578063f04da65b1462000264578063f132f5d3146200025e578063f6a6830f1462000258578063f851a4401462000252578063f9609f08146200024c5763f98f5b92036200000f5762001c8f565b62001c5f565b62001c36565b62001bf1565b62001b84565b62001b45565b62001b1d565b62001ae8565b62001ac0565b62001a9e565b62001a80565b62001a62565b62001a17565b62001992565b62001888565b62001847565b62001644565b620013ac565b620011a7565b62001181565b620010bd565b62001061565b62000ff0565b62000f5a565b62000f38565b62000f1a565b62000ee3565b62000ec6565b62000e9e565b62000e31565b62000b69565b62000a39565b6200088c565b62000802565b620007c6565b62000796565b62000778565b6200074d565b62000714565b62000699565b62000650565b62000456565b620003c1565b62000385565b62000363565b5f9103126200035f57565b5f80fd5b346200035f575f3660031901126200035f57602060985460801c604051908152f35b346200035f5760203660031901126200035f576020620003a760043562001cc4565b604051908152f35b6001600160a01b038116036200035f57565b346200035f5760203660031901126200035f57600435620003e281620003af565b61019d805490916001600160a01b03908116908216811462000444577f890ff5077ab1949ce16449a660eb28ce16646b4c99e0901266d44a1042b1f9e892816020936200042e620025e4565b6001600160a01b031916179055604051908152a1005b604051638c8728c760e01b8152600490fd5b346200035f575f3660031901126200035f57620004826200047662002496565b6001600160a01b031690565b330362000633576040516102c8808201908282106001600160401b038311176200062d578291620004f3916200429f84396001600160a01b037f00000000000000000000000000000000000000000000000000000000000000001681526040602082018190525f9082015260600190565b03905ff0801562000609576001600160a01b0390811690813b156200035f5760405163439fab9160e01b8152602060048201525f602482018190528160448183875af1801562000609576200060f575b506040516351d5709b60e11b815291602083600481845afa91821562000609577fcdc82cfed67d9b46d3a15dd3b48745fb894a354d554cb5da5fb8c440f85c108e935f93620005cc575b506200059b90831662003651565b50620005a781620036bf565b50604080516001600160a01b039283168152929091166020830152819081015b0390a1005b6200059b919350620005f99060203d60201162000601575b620005f0818362000adf565b81019062001cf8565b92906200058d565b503d620005e4565b62001ced565b806200061f620006269262000a77565b8062000354565b5f62000543565b62000a63565b604051634ca8886760e01b8152600490fd5b801515036200035f57565b346200035f5760403660031901126200035f57620000246004356200067581620003af565b60243590620006848262000645565b62001d10565b908160809103126200035f5790565b60603660031901126200035f57600435620006b481620003af565b602435620006c281620003af565b604435906001600160401b0382116200035f57602092620006f6620006f0620003a79436906004016200068a565b62001daa565b620007013362003453565b6200070c8162003453565b349062003595565b346200035f5760203660031901126200035f576004356001600160401b0381116200035f57620006f0620000249136906004016200068a565b346200035f575f3660031901126200035f57610206546040516001600160a01b039091168152602090f35b346200035f575f3660031901126200035f576020620003a762001dd5565b346200035f575f3660031901126200035f576020620007b462001e0e565b6040516001600160a01b039091168152f35b346200035f575f3660031901126200035f5760206040517f333122211e64a98ebf9b5890e3a33144b1208484d235be41b9d0a827eb1b5b0c8152f35b346200035f575f3660031901126200035f5760206001600160801b0360985416604051908152f35b9181601f840112156200035f578235916001600160401b0383116200035f57602083818601950101116200035f57565b60206003198201126200035f57600435906001600160401b0382116200035f5762000888916004016200082a565b9091565b62000897366200085a565b7ff0c57e16840df040f15088dc2f81fe391c3923bec73e23a9662efc9c229c6a00805460ff8160401c16801562000a24575b62000a125768ffffffffffffffffff19166801000000000000000217905560405163e7f6f22560e01b8152906020908183600481335afa92831562000609575f93620009ee575b50604051636f4fa30f60e01b8152938285600481335afa908115620006095762000960956200095a945f93620009c5575b505062000952919281019062001e4a565b908362002bd0565b62002cde565b7ff0c57e16840df040f15088dc2f81fe391c3923bec73e23a9662efc9c229c6a00805468ff000000000000000019169055604051600281527fc7f505b2f371ae2175ee4913f4499e1f2633a7b5936321eed1cdaeb6115181d2908060208101620005c7565b6200095293509081620009e692903d106200060157620005f0818362000adf565b915f62000941565b62000a0a919350823d84116200060157620005f0818362000adf565b915f62000910565b60405163f92ee8a960e01b8152600490fd5b5060026001600160401b0382161015620008c9565b346200035f575f3660031901126200035f576065546040516001600160a01b039091168152602090f35b634e487b7160e01b5f52604160045260245ffd5b6001600160401b0381116200062d57604052565b606081019081106001600160401b038211176200062d57604052565b604081019081106001600160401b038211176200062d57604052565b608081019081106001600160401b038211176200062d57604052565b90601f801991011681019081106001600160401b038211176200062d57604052565b6040519062000b108262000aa7565b565b6001600160401b0381116200062d57601f01601f191660200190565b92919262000b3c8262000b12565b9162000b4c604051938462000adf565b8294818452818301116200035f578281602093845f960137010152565b6040806003193601126200035f57600490813562000b8781620003af565b6024356001600160401b0381116200035f57366023820112156200035f5762000bba903690602481870135910162000b2e565b9162000bc562002ced565b80519262000c008462000bf160209363439fab9160e01b85840152846024840152604483019062001904565b03601f19810186528562000adf565b62000c0a62002ced565b62000c14620025e4565b6001600160a01b0383811680159291908790841562000e00575b841562000d78575b841562000d0a575b5050821562000c6a575b505062000c5b5762000024838362003a48565b516355299b4960e01b81528390fd5b83516345da87c560e01b81526001600160a01b03861688820190815292935091839183918290819060200103917f0000000000000000000000000000000000000000000000000000000000000000165afa91821562000609575f9262000cd6575b5050155f8062000c48565b62000cfa9250803d1062000d02575b62000cf1818362000adf565b81019062001fd9565b5f8062000ccb565b503d62000ce5565b855163054fd4d560e41b81529294508391839182905afa908115620006095760039160ff915f9162000d44575b5016141591865f62000c3e565b62000d699150843d861162000d70575b62000d60818362000adf565b81019062003a2d565b5f62000d37565b503d62000d54565b935050835163198ca60560e11b815282818981875afa908115620006095788917f333122211e64a98ebf9b5890e3a33144b1208484d235be41b9d0a827eb1b5b0c915f9162000dcc575b5014159362000c36565b62000df19150853d871162000df8575b62000de8818362000adf565b810190620026d1565b5f62000dc2565b503d62000ddc565b5f805160206200458783398151915254909450849062000e29906001600160a01b031662000476565b149362000c2e565b346200035f575f3660031901126200035f577f00000000000000000000000000000000000000000000000000000000000000006001600160a01b0316300362000e8c5760206040515f80516020620045878339815191528152f35b60405163703e46dd60e11b8152600490fd5b5f3660031901126200035f576001600160a01b0362000ebc62001e0e565b1633036200063357005b346200035f575f3660031901126200035f57602060405160028152f35b346200035f575f3660031901126200035f575f8051602062004587833981519152546040516001600160a01b039091168152602090f35b346200035f575f3660031901126200035f576020620003a762001ed3565b346200035f5760203660031901126200035f576020620003a760043562001f0a565b346200035f575f3660031901126200035f57604051633eb1acf760e11b81523060048201526020816024817f00000000000000000000000000000000000000000000000000000000000000006001600160a01b03165afa801562000609576020915f9162000fce575b506040519015158152f35b62000fe99150823d841162000d025762000cf1818362000adf565b5f62000fc3565b346200035f5760203660031901126200035f576004356200101181620003af565b6200101b620025e4565b60d280546001600160a01b0319166001600160a01b03929092169182179055337f6bdc78d8c88160b3fc3638e67f2afe523b3f4c7d00c56ebb6216790e4c3eb2cb5f80a3005b346200035f5760803660031901126200035f57620010b96200109c6004356200108a81620003af565b60643590604435906024359062001fff565b604080519384526020840192909252908201529081906060820190565b0390f35b346200035f575f3660031901126200035f576040518061019e805480845260208094019081925f527fe182ec4162b2bb087af6d462e45917a32b2b0170bcaf1db406b2ae4590b6953b905f5b868282106200116c578686620011228288038362000adf565b60405192839281840190828552518091526040840192915f5b8281106200114b57505050500390f35b83516001600160a01b0316855286955093810193928101926001016200113b565b83548552909301926001928301920162001109565b346200035f575f3660031901126200035f57602061ffff60655460a01c16604051908152f35b346200035f576003196040368201126200035f5760049081356001600160401b038082116200035f5760a08285019383360301126200035f576024359081116200035f57620011fa90369085016200082a565b6001600160a01b037f00000000000000000000000000000000000000000000000000000000000000008116803b156200035f5760405163837d444160e01b8152905f908290818381620012508c828f016200212b565b03925af18015620006095762001395575b506200126c6200302a565b620012766200245f565b90811633141591826200135e575b505090506200134d576044019160c46200129f8484620021b5565b9050048015801562001332575b6200132257620012c6620012bf62001dd5565b916200220f565b1162001313575060c4620012db8383620021b5565b9050145f14620012fc576200002491620012f591620021b5565b9062003ef2565b62000024916200130c91620021b5565b9062003da5565b6040516396d8043360e01b8152fd5b50604051631c6c4cf360e31b8152fd5b506200133f8484620021b5565b905060c482021415620012ac565b604051634ca8886760e01b81528390fd5b620013889250620013816200138c946200137888620030bd565b92369162000b2e565b91620031a2565b1590565b805f8062001284565b806200061f620013a59262000a77565b5f62001261565b346200035f5760603660031901126200035f57600435602435620013d560443582843362001fff565b9192620014037f00000000000000000000000000000000000000000000000000000000000000008262001ef6565b421080156200163b575b801562001632575b62001620577feb3b05c070c24f667611fdb3ff75fe007d42401c573aed8d8faca95fd00ccb56936200146a8662001464620014586099546001600160801b031690565b6001600160801b031690565b62002d4a565b156200157e57620014aa6200148f62001483866200327e565b60995460801c62002229565b6001600160801b036099549181199060801b16911617609955565b60408051336020820190815291810184905260608082018990528152601f1993915f91620014f19190620014e060808262000adf565b5190205f52609b60205260405f2090565b555f93600183116200152d575b505050506200150e8233620032b2565b604080519485526020850191909152830152339180606081015b0390a2005b620015739293945062001541908862001ef6565b6040805133602082019081529181019390935260608301829052608095860183529094909190620014e0908262000adf565b555f808080620014fe565b620015886200302a565b620015c9620015ad6200159b866200327e565b609e546001600160801b031662002229565b6001600160801b03166001600160801b0319609e541617609e55565b62001603620015e8620015dc856200327e565b609e5460801c62002229565b6001600160801b03609e549181199060801b16911617609e55565b6200161a6200161584609f5462001ef6565b609f55565b620014aa565b604051630e3d8e8d60e11b8152600490fd5b50821562001415565b5081156200140d565b346200035f576040806003193601126200035f57602435906004356200166a83620003af565b620016746200302a565b801562001836576001600160a01b0383169081156200182557620016988162001cc4565b9081156200181457620016ab8262003b42565b620016b6836200327e565b60985460801c90620016c89162002229565b620016e8906001600160801b036098549181199060801b16911617609855565b620016f48233620041dd565b609e54958660801c8281609f54906200170d9162001ef6565b9862001719876200327e565b6200172d916001600160801b03166200372d565b6200174e906001600160801b03166001600160801b0319609e541617609e55565b620017599162001ef6565b62001764906200327e565b62001784906001600160801b03609e549181199060801b16911617609e55565b85516001600160a01b0391909116602082019081524260408301526060808301899052825290620017b760808262000adf565b519020620017cd905f52609b60205260405f2090565b5583518581526020810191909152604081019190915233907f869f12645d154414259c47bcb998b6b6983fae50e5e0c6053bc87d4330db9f2d90606090a351908152602090f35b83516318374fd160e21b8152600490fd5b825163d92e233d60e01b8152600490fd5b8151636edcc52360e01b8152600490fd5b346200035f575f3660031901126200035f5761019d546020906001600160a01b0390811680620018815750805f5416905b60405191168152f35b9062001878565b346200035f57620015287f2013570c343af8ab14a9778150e381a0fda34ed6368127a95fd5e7210cbec5bf620018be366200085a565b9290620018ca620025e4565b60405191829160208352339560208401916200210b565b5f5b838110620018f35750505f910152565b8181015183820152602001620018e3565b906020916200191f81518092818552858086019101620018e1565b601f01601f1916010190565b6020808201906020835283518092526040830192602060408460051b8301019501935f915b848310620019615750505050505090565b909192939495848062001981600193603f198682030187528a5162001904565b980193019301919493929062001950565b346200035f5760203660031901126200035f576001600160401b036004358181116200035f57366023820112156200035f5780600401359182116200035f573660248360051b830101116200035f57620010b9916024620019f492016200239e565b604051918291826200192b565b90602062001a1492818152019062001904565b90565b346200035f575f3660031901126200035f57620010b960405162001a3b8162000aa7565b60058152640352e302e360dc1b602082015260405191829160208352602083019062001904565b346200035f575f3660031901126200035f576020620007b46200245f565b346200035f575f3660031901126200035f576020620007b462002496565b346200035f5760203660031901126200035f576020620003a760043562003351565b346200035f575f3660031901126200035f5760206001600160801b0360995416604051908152f35b346200035f5760203660031901126200035f576200002460043562001b0d81620003af565b62001b17620025e4565b620033ee565b346200035f575f3660031901126200035f5760206001600160801b03609e5416604051908152f35b346200035f5760203660031901126200035f5760043562001b6681620003af565b60018060a01b03165f52609c602052602060405f2054604051908152f35b346200035f5760203660031901126200035f5760043562001ba581620003af565b61019c805490916001600160a01b03908116908216811462000444577f399f9aba7ac1bda99e0bee41ebd93a32387a0f37b3934265478e96121dac166d92816020936200042e620025e4565b346200035f5760203660031901126200035f5760043562001c1281620003af565b60018060a01b03165f52610207602052602060ff60405f2054166040519015158152f35b346200035f575f3660031901126200035f575f546040516001600160a01b039091168152602090f35b60403660031901126200035f576020620003a760043562001c8081620003af565b60243590620006f682620003af565b346200035f5760203660031901126200035f576200002460043562001cb481620003af565b62001cbe620025e4565b62003476565b6098546001600160801b038116908162001cdd57505090565b9162001a149260801c9062002560565b6040513d5f823e3d90fd5b908160209103126200035f575162001a1481620003af565b610206546001600160a01b0391908216330362000633576001600160a01b0381165f90815261020760205260409020549215159260ff161515831462001da5576001600160a01b0381165f9081526102076020526040902060ff1981541660ff851617905560405192835216907fd9c6c3eabe38e3b9a606a66358d8f225489216a59eeba66facefb7d91663526660203392a3565b505050565b62001db962001dc191620026fd565b9190620028b5565b62001dc857565b62001dd262002a89565b50565b476099546001600160801b0362001dee81831662001cc4565b90609e5416019060801c01908181115f1462001e08570390565b50505f90565b610137546001600160a01b0316801562001e255790565b507f000000000000000000000000000000000000000000000000000000000000000090565b906020828203126200035f5781356001600160401b03928382116200035f5701916060838303126200035f576040519262001e858462000a8b565b80358452602081013561ffff811681036200035f57602085015260408101359182116200035f57019080601f830112156200035f5781602062001ecb9335910162000b2e565b604082015290565b609d548062001a1457505f1990565b634e487b7160e01b5f52601160045260245ffd5b9190820180921162001f0457565b62001ee2565b6001600160801b036099541662001f2062003afe565b90810180911162001f0457811062001f5a5762001f4a609f5462001f4362002d64565b9062001ef6565b111562001f55575f90565b5f1990565b609a90609a549182915f905b84821062001f825750505081101562001f7c5790565b505f1990565b909193808316906001818518811c830180931162001f04575f8790525f80516020620045678339815191528301546001600160a01b031684101562001fcd575050935b919062001f66565b90959101925062001fc5565b908160209103126200035f575162001a148162000645565b9190820391821162001f0457565b604080516001600160a01b039092166020830190815290820193909352606081018290529091906200203f81608081015b03601f19810183528262000adf565b5190205f52609b60205260405f2054918215620020b4576001600160801b0360995416906200206d62003afe565b91820180921162001f045783918310156200209f57916200208e9262002e73565b90915b82810390811162001f045792565b5090620020ac9162002dd9565b909162002091565b5050505f905f905f90565b9035601e19823603018112156200035f5701602081359101916001600160401b0382116200035f5781360383136200035f57565b90603060609281835260208301375f60508201520190565b908060209392818452848401375f828201840152601f01601f1916010190565b9060a062001a14926020815282356020820152602083013560408201526200216c6200215b6040850185620020bf565b84606085015260c08401916200210b565b90620021a562002199620021846060870187620020bf565b601f198587038101608087015295916200210b565b946080810190620020bf565b939092828603019101526200210b565b903590601e19813603018212156200035f57018035906001600160401b0382116200035f576020019181360383136200035f57565b634e487b7160e01b5f52601260045260245ffd5b811562002209570490565b620021ea565b906801bc16d674ec800000918083029283040362001f0457565b6001600160801b03918216908216039190821162001f0457565b6001600160401b0381116200062d5760051b60200190565b90620022678262002243565b62002276604051918262000adf565b828152809262002289601f199162002243565b01905f5b8281106200229a57505050565b8060606020809385010152016200228d565b634e487b7160e01b5f52603260045260245ffd5b90821015620022da57620008889160051b810190620021b5565b620022ac565b908092918237015f815290565b3d156200231c573d90620023018262000b12565b9162002311604051938462000adf565b82523d5f602084013e565b606090565b6020818303126200035f578051906001600160401b0382116200035f570181601f820112156200035f578051620023588162000b12565b9262002368604051948562000adf565b818452602082840101116200035f5762001a149160208085019101620018e1565b8051821015620022da5760209160051b010190565b919091620023ac836200225b565b925f5b818110620023bc57505050565b5f80620023cb838587620022c0565b60409391620023df855180938193620022e0565b0390305af490620023ef620022ed565b91156200241c57509060019162002407828862002389565b5262002414818762002389565b5001620023af565b9060448151106200035f576200245b620024456004928381015160248091830101910162002321565b925162461bcd60e51b8152928392830162001a01565b0390fd5b60d2546001600160a01b03168062001a1457507f000000000000000000000000000000000000000000000000000000000000000090565b61019c546001600160a01b0390811680620024b257505f541690565b905090565b335f526101a160205260405f205415620024cd57565b620024d83362003453565b62001dd23433620034bd565b90808202905f19818409908280831092039180830392146200255557612710908282111562002543577fbc01a36e2eb1c432ca57a786c226809d495182a9930be0ded288ce703afb7e91940990828211900360fc1b910360041c170290565b60405163227bc15360e01b8152600490fd5b505061271091500490565b9091828202915f1984820993838086109503948086039514620025d557848311156200254357829109815f038216809204600280826003021880830282030280830282030280830282030280830282030280830282030280920290030293600183805f03040190848311900302920304170290565b50509062001a149250620021fe565b5f546001600160a01b031633036200063357565b908160609103126200035f578051916040602083015192015162001a148162000645565b81835290916001600160fb1b0383116200035f5760209260051b809284830137010190565b90602082528035602083015260208101358060130b8091036200035f57604083015260408101356200267381620003af565b6001600160a01b031660608381019190915281013536829003601e19018112156200035f5701602081359101906001600160401b0381116200035f578060051b360382136200035f5760a08360808062001a1496015201916200261c565b908160209103126200035f575190565b9190915f838201938412911290801582169115161762001f0457565b6040516325f56f1160e01b81526001600160a01b039291606090829081906200272a906004830162002641565b03815f877f0000000000000000000000000000000000000000000000000000000000000000165af192831562000609575f915f905f9562002868575b5084156200280d57816200277962001e0e565b16917f00000000000000000000000000000000000000000000000000000000000000001682146200280557509060205f92600460405180958193634641257d60e01b83525af19081156200060957620027db925f92620027df575b50620026e1565b9190565b620027fd91925060203d60201162000df85762000de8818362000adf565b905f620027d4565b908162002813575b50509190565b803b156200035f57604051636ee3193160e11b815260048101929092525f908290602490829084905af18015620006095762002851575b806200280d565b806200061f620028619262000a77565b5f6200284a565b9194505062002893915060603d6060116200289c575b6200288a818362000adf565b810190620025f8565b93905f62002766565b503d6200287e565b600160ff1b811462001f04575f0390565b801562001dd257620028cd6200145860985460801c90565b5f8212620029cd5781620028e19162001ef6565b906200290c620028f1836200327e565b6001600160801b036098549181199060801b16911617609855565b620029236065549161ffff8360a01c1690620024e4565b801562001da557807f555ee6b2ef9506d870f386c067e47d3689435330b012ad263d8cc353186865479362002964620014586098546001600160801b031690565b80620029b3575050620029ae90925b6001600160a01b03169162002989848462003749565b60405193849384604091949392606082019560018060a01b0316825260208201520152565b0390a1565b620029ae92620029c69203908462002560565b9262002973565b90620029d990620028a4565b620029f062001458609e546001600160801b031690565b8062002a1c575b508062002a02575050565b62002a16620028f19162000b109362001ff1565b6200327e565b9062002a7f7f3623a54e8078be0d90ecfbef82da6a31ff3e6be8aa1718e7a7f3d0d33ff1d32a9162002a6f620015ad62002a6362002a5b888862001ef6565b878562002560565b8080940396036200327e565b6040519081529081906020820190565b0390a15f620029f7565b609954906001600160801b03821691821562002bca5760801c62002ac462002ab2824762001ff1565b62002abd8562001cc4565b9062003799565b90811562002bc35762002ad78262003351565b93841562002bbb578262002b306200148f62002a1662000b1096620028f19662002b2a62002b0e62002a168d62002baf9a62001ff1565b6001600160801b03166001600160801b03196099541617609955565b62001ef6565b62002b3c818762003803565b60408051878152602081018390527f624ea167e477f9d39f7f4094b9dfe2e6346eb4a7aada54338db51abd554c4b9f9190a162002a1662002b9362002b81886200327e565b6098546001600160801b031662002229565b6001600160801b03166001600160801b03196098541617609855565b60985460801c62002229565b505f93505050565b505f925050565b505f9150565b62002bda620038e6565b604083015162002be9620038e6565b6001600160a01b038216801562002ccc576001600160601b0360a01b5f5416175f557f2013570c343af8ab14a9778150e381a0fda34ed6368127a95fd5e7210cbec5bf604051602081528062002c453394602083019062001904565b0390a260208301519262002c58620038e6565b61271061ffff85161162002cba5762002cb09362002c7a62002ca093620033ee565b6065805461ffff60a01b191660a09290921b61ffff60a01b169190911790555162003928565b62002caa6200395c565b6200398f565b62000b10620039c1565b604051638a81d3b360e01b8152600490fd5b60405163d92e233d60e01b8152600490fd5b62000b109062001cbe620038e6565b6001600160a01b037f0000000000000000000000000000000000000000000000000000000000000000811630811491821562002d2d575b505062000e8c57565b5f80516020620045878339815191525416141590505f8062002d24565b9062002d5562003afe565b91820180921162001f04571090565b476099548060801c820391821162001f04578162002d8c6001600160801b0380931662001cc4565b908162002db8575b5050811562001e085762001a149162002db291609e54169062003799565b62003b42565b919250908181111562002dd057035b905f8062002d94565b50505f62002dc7565b62002de362002d64565b91609f5492830180931162001f04578083111562002e345762002e0892039062003799565b90609e548060801c80155f1462002e1f5750508190565b6001600160801b0362001a1492168462002560565b5050505f905f90565b90604051604081018181106001600160401b038211176200062d5760405291546001600160a01b038116835260a01c6020830152565b609a545f94859493909180841080159062003021575b62003014578362002fdd575f5b609a5f526001600160a01b031662002ebe5f8051602062004567833981519152860162002e3d565b805190979062002ed7906001600160a01b031662000476565b9862002efe62002ef26020809b01516001600160601b031690565b6001600160601b031690565b94838110801562002fd2575b62002fc05791600193979a9562002f2d62002f3a939488035b838c039062003799565b8092019887039162002560565b0197019380861180159062002fb5575b62002faa57609a5f52829062002f705f8051602062004567833981519152870162002e3d565b805190890151969992966001600160a01b03909116946001939262002f3a9290916001600160601b039091169062002f2d90880362002f23565b945050509250509190565b508185101562002f4a565b60405163e8722f8f60e01b8152600490fd5b50808b111562002f0a565b609a5f527f44da158ba27f9252712a74ff6a55c5d531f69609f1f6e7f17c4443a8e2089be38401546001600160a01b031662002e96565b505093505050505f905f90565b50841562002e89565b604051633eb1acf760e11b81523060048201526020816024817f00000000000000000000000000000000000000000000000000000000000000006001600160a01b03165afa90811562000609575f9162003099575b506200308757565b60405163e775715160e01b8152600490fd5b620030b6915060203d60201162000d025762000cf1818362000adf565b5f6200307f565b604290467f000000000000000000000000000000000000000000000000000000000000000003620031725760d354905b62003108620031006040830183620021b5565b369162000b2e565b602081519101206040519060208201927f838af86bfca91ada6557e38d913af1c2f24ef9b2567b3b77cc9e1144314b35b08452356040830152606082015260608152620031558162000ac3565b5190206040519161190160f01b8352600283015260228201522090565b6200317c62003b7e565b90620030ed565b600411156200318e57565b634e487b7160e01b5f52602160045260245ffd5b620031ae838362003c4e565b50620031bd8195929562003183565b15938462003267575b508315620031d5575b50505090565b5f9293509082916040516200321081620020306020820194630b135d3f60e11b998a8752602484015260406044840152606483019062001904565b51915afa906200321f620022ed565b8262003258575b8262003238575b50505f8080620031cf565b6200324f91925060208082518301019101620026d1565b145f806200322d565b91506020825110159162003226565b6001600160a01b0383811691161493505f620031c6565b6001600160801b039081811162003293571690565b604490604051906306dfcc6560e41b8252608060048301526024820152fd5b907f9b779b17422d0df92223018b32b4d1fa46e071723d6817e2486d003becc55f009160028354146200333f576002835581471062003327575f918291829182916001600160a01b03165af162003308620022ed565b5015620033155760019055565b604051630a12f52160e11b8152600490fd5b60405163cd78605960e01b8152306004820152602490fd5b604051633ee5aeb560e01b8152600490fd5b609854906001600160801b0382168115801562003384575b15620033755750905090565b62001a149260801c9162002560565b50801562003369565b6098546001600160801b0381169082158015620033e5575b15620033b057505090565b60801c90620033c182828562002560565b928215620022095709620033d25790565b600181018091111562001a145762001ee2565b508115620033a5565b620033f86200302a565b6001600160a01b031680156200344157606580546001600160a01b03191682179055337faaebcf1bfa00580e41d966056b48521fa9f202645c86d4ddf28113e617c1b1d35f80a3565b604051630ed1b8b360e31b8152600490fd5b6001600160a01b03165f908152610207602052604090205460ff16156200063357565b61020680546001600160a01b0319166001600160a01b03929092169182179055337fda2bcad4d57ac529886ff995d07bce191c08b5424c8f5824de6c73f90cc623d45f80a3565b9190620034c96200302a565b6001600160a01b03831690811562002ccc578015620035835780620034f46200145860985460801c90565b01936200350062001ed3565b85116200357157620028f1946200352f916200352962003520856200338d565b9788936200327e565b62003749565b60408051918252602082018590525f9082015233907f861a4138e41fb21c121a7dbb1053df465c837fc77380cc7226189a662281be2c9080606081015b0390a3565b6040516304ffa0ff60e51b8152600490fd5b6040516318374fd160e21b8152600490fd5b90929192620035a36200302a565b6001600160a01b03821691821562002ccc578115620035835781620035ce6200145860985460801c90565b01620035d962001ed3565b81116200357157620028f195620036286200356c927f861a4138e41fb21c121a7dbb1053df465c837fc77380cc7226189a662281be2c94620035296200361f886200338d565b9a8b936200327e565b60408051948552602085018890526001600160a01b039091169084015233929081906060820190565b805f5261019f8060205260405f2054155f1462001e085761019e8054600160401b8110156200062d5760018101808355811015620022da5783907fe182ec4162b2bb087af6d462e45917a32b2b0170bcaf1db406b2ae4590b6953b015554915f5260205260405f2055600190565b805f526101a18060205260405f2054155f1462001e08576101a08054600160401b8110156200062d5760018101808355811015620022da5783907f7980fe0f714a613298681d64b7b8ffa7b148338dd52429f307d72798d5c317c4015554915f5260205260405f2055600190565b9190916001600160801b038080941691160191821162001f0457565b62003754826200327e565b609854906200376e6001600160801b03918284166200372d565b16906001600160801b0319161760985560018060a01b03165f52609c60205260405f20908154019055565b9080821015620024b2575090565b609a5490600160401b8210156200062d576001820180609a55821015620022da57609a5f52805160209091015160a01b6001600160a01b0319166001600160a01b0391909116175f805160206200456783398151915290910155565b91909180158015620038dd575b620038cb576200381f62003afe565b90810180911162001f04576001600160a01b03808211620038ab576001600160601b03908185116200388b579062000b1093946200387462003885936200386562000b01565b95166001600160a01b03168552565b166001600160601b03166020830152565b620037a7565b6040516306dfcc6560e41b81526060600482015260248101869052604490fd5b6040516306dfcc6560e41b815260a0600482015260248101839052604490fd5b604051632ec8835b60e21b8152600490fd5b50821562003810565b60ff7ff0c57e16840df040f15088dc2f81fe391c3923bec73e23a9662efc9c229c6a005460401c16156200391657565b604051631afcd79f60e31b8152600490fd5b62003932620038e6565b80156200394a5760018101620039455750565b609d55565b6040516331278a8760e01b8152600490fd5b62003966620038e6565b6801bc16d674ec8000006200397a62001ed3565b106200394a576200398a62003b7e565b60d355565b62003999620038e6565b6001600160a01b031680620039ab5750565b61013780546001600160a01b0319169091179055565b620039cb620038e6565b620039d5620038e6565b620039df620038e6565b60017f9b779b17422d0df92223018b32b4d1fa46e071723d6817e2486d003becc55f0055633b9aca00341062003a1b5762001dd23430620034bd565b60405163ea2559bb60e01b8152600490fd5b908160209103126200035f575160ff811681036200035f5790565b6040516352d1902d60e01b81529290916020846004816001600160a01b0387165afa5f948162003ad8575b5062003a9a57604051634c9c8ce360e01b81526001600160a01b0384166004820152602490fd5b90915f8051602062004587833981519152840362003abf5762000b1092935062003fea565b604051632a87526960e21b815260048101859052602490fd5b62003af691955060203d60201162000df85762000de8818362000adf565b935f62003a73565b609a548062003b0c57505f90565b609a5f527f44da158ba27f9252712a74ff6a55c5d531f69609f1f6e7f17c4443a8e2089be301546001600160a01b031662000476565b609e54908160801c8115801562003b75575b1562003b605750905090565b6001600160801b0362001a1493169162002560565b50801562003b54565b6e5661756c7456616c696461746f727360881b602060405162003ba18162000aa7565b600f8152015260405160208101907f8b73c3c69bb8fe3d512ecc4cf759cc79239f7b179b0ffacaa9a75d522b39400f82527f35d6cf9768d8be929c3a11ed667b1560ae6f1920195a985758fdd7265505d1ca60408201527fc89efdaa54c0f20c7adf612882df0950f5a951637e0307cdcb4c672f298b8bc660608201524660808201523060a082015260a0815260c081018181106001600160401b038211176200062d5760405251902090565b815191906041830362003c815762003c7a9250602082015190606060408401519301515f1a9062004092565b9192909190565b50505f9160029190565b906030116200035f5790603090565b909291928360b0116200035f5783116200035f5760b0019160af190190565b906090116200035f5760300190606090565b9060c4116200035f5760900190603490565b909392938483116200035f5784116200035f578101920390565b35906020811062003d06575090565b5f199060200360031b1b1690565b95949362003d4662003d559362003d376060969460808b5260808b0190620020f3565b9089820360208b015262001904565b9187830360408901526200210b565b930152565b9695949062003d559362003d3762003d46926060979560808c5260808c01916200210b565b90602062001a14928181520190620020f3565b91602062001a149381815201916200210b565b7f00000000000000000000000000000000000000000000000000000000000000006001600160a01b03169160c480820492905f9081805b86841062003dee575050505050505050565b8262003dff91018092878762003cdd565b9062003e0c828262003c8b565b9162003e2562003e1e85808462003c9a565b9062004117565b9062003e4a62003e4362003e3a878462003cb9565b97909362003ccb565b9062003cf7565b948c3b156200035f578c5f926801bc16d674ec80000060409562003e8687519a8b96879586946304512a2360e31b86528d8d6004880162003d5a565b03925af190811562000609577f64b6e61d93b7a91e8cc4376183ede0997a27b44fd9dd2f30a866b2a5730efdb19462003ecb9262003edb575b50519283928362003d92565b0390a16001819301929062003ddc565b806200061f62003eeb9262000a77565b5f62003ebf565b816030116200035f577f00000000000000000000000000000000000000000000000000000000000000006001600160a01b03169162003f3762003e1e82808562003c9a565b62003f43828462003cb9565b94909260b0116200035f57803b156200035f5762003f8c946801bc16d674ec8000005f94604051978895869485936304512a2360e31b855260908b0135928b6004870162003d14565b03925af190811562000609577f64b6e61d93b7a91e8cc4376183ede0997a27b44fd9dd2f30a866b2a5730efdb192620029ae9262003fd3575b506040519182918262003d7f565b806200061f62003fe39262000a77565b5f62003fc5565b90813b1562004071575f805160206200458783398151915280546001600160a01b0319166001600160a01b0384169081179091557fbc7cd75a20ee27fd9adebab32041f755214dbc6bffa90cc0225b39da2e5c2d3b5f80a2805115620040555762001dd2916200422d565b5050346200405f57565b60405163b398979f60e01b8152600490fd5b604051634c9c8ce360e01b81526001600160a01b0383166004820152602490fd5b91907f7fffffffffffffffffffffffffffffff5d576e7357a4501ddfe92f46681b20a084116200410c579160209360809260ff5f9560405194855216868401526040830152606082015282805260015afa1562000609575f516001600160a01b038116156200410257905f905f90565b505f906001905f90565b5050505f9160039190565b60148203620041cb576bffffffffffffffffffffffff199190358281169160148110620041b5575b5050905060601c6200416162001388825f5261019f60205260405f2054151590565b620041a35760408051600160f81b60208201525f602182015260609290921b6bffffffffffffffffffffffff1916602c83015262001a14908290810162002030565b604051632899266560e21b8152600490fd5b8391925060140360031b1b1616805f806200413f565b604051639be7315960e01b8152600490fd5b60018060a01b03165f52609c60205260405f2090815481810390811162001f04576200420a92556200327e565b609854906001600160801b03908183160316906001600160801b03191617609855565b5f8062001a1493602081519101845af462004247620022ed565b91906200425f57508051156200331557805190602001fd5b8151158062004294575b62004272575090565b604051639996b31560e01b81526001600160a01b039091166004820152602490fd5b50803b156200426956fe60806040526102c8803803806100148161018e565b92833981019060408183031261018a5780516001600160a01b03811680820361018a5760208381015190936001600160401b03821161018a570184601f8201121561018a5780519061006d610068836101c7565b61018e565b9582875285838301011161018a5784905f5b8381106101765750505f9186010152813b1561015e577f360894a13ba1a3210667c828492db98dca3e2076cc3735a920a3ca505d382bbc80546001600160a01b03191682179055604051907fbc7cd75a20ee27fd9adebab32041f755214dbc6bffa90cc0225b39da2e5c2d3b5f80a283511561014057505f80848461012796519101845af4903d15610137573d610118610068826101c7565b9081525f81943d92013e6101e2565b505b604051608290816102468239f35b606092506101e2565b925050503461014f5750610129565b63b398979f60e01b8152600490fd5b60249060405190634c9c8ce360e01b82526004820152fd5b81810183015188820184015286920161007f565b5f80fd5b6040519190601f01601f191682016001600160401b038111838210176101b357604052565b634e487b7160e01b5f52604160045260245ffd5b6001600160401b0381116101b357601f01601f191660200190565b9061020957508051156101f757805190602001fd5b604051630a12f52160e11b8152600490fd5b8151158061023c575b61021a575090565b604051639996b31560e01b81526001600160a01b039091166004820152602490fd5b50803b1561021256fe60806040527f360894a13ba1a3210667c828492db98dca3e2076cc3735a920a3ca505d382bbc545f9081906001600160a01b0316368280378136915af43d5f803e156048573d5ff35b3d5ffdfea2646970667358221220590de6162af1aca5f7d380e459394ce97dc6a2e4a2575dd7c58d5d1cb01c826d64736f6c6343000816003344da158ba27f9252712a74ff6a55c5d531f69609f1f6e7f17c4443a8e2089be4360894a13ba1a3210667c828492db98dca3e2076cc3735a920a3ca505d382bbca2646970667358221220d1c8386a5d967c36f96777f42ae5bc259c8b29932d1bc8864e239f80cb9b37a164736f6c63430008160033",
  "linkReferences": {},
  "deployedLinkReferences": {}
}