{
  "_format": "hh-sol-artifact-1",
  "contractName": "EthRestakeErc20Vault",
  "sourceName": "contracts/vaults/ethereum/restake/EthRestakeErc20Vault.sol",
  "abi": [
    {
      "inputs": [
        {
          "internalType": "address",
          "name": "_keeper",
          "type": "address"
        },
        {
          "internalType": "address",
          "name": "_vaultsRegistry",
          "type": "address"
        },
        {
          "internalType": "address",
          "name": "_validatorsRegistry",
          "type": "address"
        },
        {
          "internalType": "address",
          "name": "sharedMevEscrow",
          "type": "address"
        },
        {
          "internalType": "address",
          "name": "depositDataRegistry",
          "type": "address"
        },
        {
          "internalType": "address",
          "name": "eigenPodOwnerImplementation",
          "type": "address"
        },
        {
          "internalType": "uint256",
          "name": "exitingAssetsClaimDelay",
          "type": "uint256"
        }
      ],
      "stateMutability": "nonpayable",
      "type": "constructor"
    },
    {
      "inputs": [],
      "name": "AccessDenied",
      "type": "error"
    },
    {
      "inputs": [
        {
          "internalType": "address",
          "name": "target",
          "type": "address"
        }
      ],
      "name": "AddressEmptyCode",
      "type": "error"
    },
    {
      "inputs": [
        {
          "internalType": "address",
          "name": "account",
          "type": "address"
        }
      ],
      "name": "AddressInsufficientBalance",
      "type": "error"
    },
    {
      "inputs": [],
      "name": "CapacityExceeded",
      "type": "error"
    },
    {
      "inputs": [],
      "name": "DeadlineExpired",
      "type": "error"
    },
    {
      "inputs": [
        {
          "internalType": "address",
          "name": "implementation",
          "type": "address"
        }
      ],
      "name": "ERC1967InvalidImplementation",
      "type": "error"
    },
    {
      "inputs": [],
      "name": "ERC1967NonPayable",
      "type": "error"
    },
    {
      "inputs": [],
      "name": "EigenPodNotFound",
      "type": "error"
    },
    {
      "inputs": [],
      "name": "ExitRequestNotProcessed",
      "type": "error"
    },
    {
      "inputs": [],
      "name": "FailedInnerCall",
      "type": "error"
    },
    {
      "inputs": [],
      "name": "InsufficientAssets",
      "type": "error"
    },
    {
      "inputs": [],
      "name": "InvalidAssets",
      "type": "error"
    },
    {
      "inputs": [],
      "name": "InvalidCapacity",
      "type": "error"
    },
    {
      "inputs": [],
      "name": "InvalidCheckpointIndex",
      "type": "error"
    },
    {
      "inputs": [],
      "name": "InvalidCheckpointValue",
      "type": "error"
    },
    {
      "inputs": [],
      "name": "InvalidFeePercent",
      "type": "error"
    },
    {
      "inputs": [],
      "name": "InvalidFeeRecipient",
      "type": "error"
    },
    {
      "inputs": [],
      "name": "InvalidInitialization",
      "type": "error"
    },
    {
      "inputs": [],
      "name": "InvalidSecurityDeposit",
      "type": "error"
    },
    {
      "inputs": [],
      "name": "InvalidShares",
      "type": "error"
    },
    {
      "inputs": [],
      "name": "InvalidTokenMeta",
      "type": "error"
    },
    {
      "inputs": [],
      "name": "InvalidValidators",
      "type": "error"
    },
    {
      "inputs": [],
      "name": "InvalidWithdrawalCredentials",
      "type": "error"
    },
    {
      "inputs": [],
      "name": "MathOverflowedMulDiv",
      "type": "error"
    },
    {
      "inputs": [],
      "name": "NotHarvested",
      "type": "error"
    },
    {
      "inputs": [],
      "name": "NotInitializing",
      "type": "error"
    },
    {
      "inputs": [],
      "name": "PermitInvalidSigner",
      "type": "error"
    },
    {
      "inputs": [],
      "name": "ReentrancyGuardReentrantCall",
      "type": "error"
    },
    {
      "inputs": [
        {
          "internalType": "uint8",
          "name": "bits",
          "type": "uint8"
        },
        {
          "internalType": "uint256",
          "name": "value",
          "type": "uint256"
        }
      ],
      "name": "SafeCastOverflowedUintDowncast",
      "type": "error"
    },
    {
      "inputs": [],
      "name": "UUPSUnauthorizedCallContext",
      "type": "error"
    },
    {
      "inputs": [
        {
          "internalType": "bytes32",
          "name": "slot",
          "type": "bytes32"
        }
      ],
      "name": "UUPSUnsupportedProxiableUUID",
      "type": "error"
    },
    {
      "inputs": [],
      "name": "UpgradeFailed",
      "type": "error"
    },
    {
      "inputs": [],
      "name": "ValueNotChanged",
      "type": "error"
    },
    {
      "inputs": [],
      "name": "ZeroAddress",
      "type": "error"
    },
    {
      "anonymous": false,
      "inputs": [
        {
          "indexed": true,
          "internalType": "address",
          "name": "owner",
          "type": "address"
        },
        {
          "indexed": true,
          "internalType": "address",
          "name": "spender",
          "type": "address"
        },
        {
          "indexed": false,
          "internalType": "uint256",
          "name": "value",
          "type": "uint256"
        }
      ],
      "name": "Approval",
      "type": "event"
    },
    {
      "anonymous": false,
      "inputs": [
        {
          "indexed": false,
          "internalType": "uint256",
          "name": "shares",
          "type": "uint256"
        },
        {
          "indexed": false,
          "internalType": "uint256",
          "name": "assets",
          "type": "uint256"
        }
      ],
      "name": "CheckpointCreated",
      "type": "event"
    },
    {
      "anonymous": false,
      "inputs": [
        {
          "indexed": true,
          "internalType": "address",
          "name": "caller",
          "type": "address"
        },
        {
          "indexed": true,
          "internalType": "address",
          "name": "receiver",
          "type": "address"
        },
        {
          "indexed": false,
          "internalType": "uint256",
          "name": "assets",
          "type": "uint256"
        },
        {
          "indexed": false,
          "internalType": "uint256",
          "name": "shares",
          "type": "uint256"
        },
        {
          "indexed": false,
          "internalType": "address",
          "name": "referrer",
          "type": "address"
        }
      ],
      "name": "Deposited",
      "type": "event"
    },
    {
      "anonymous": false,
      "inputs": [
        {
          "indexed": false,
          "internalType": "address",
          "name": "eigenPodOwner",
          "type": "address"
        },
        {
          "indexed": false,
          "internalType": "address",
          "name": "eigenPod",
          "type": "address"
        }
      ],
      "name": "EigenPodCreated",
      "type": "event"
    },
    {
      "anonymous": false,
      "inputs": [
        {
          "indexed": true,
          "internalType": "address",
          "name": "owner",
          "type": "address"
        },
        {
          "indexed": true,
          "internalType": "address",
          "name": "receiver",
          "type": "address"
        },
        {
          "indexed": false,
          "internalType": "uint256",
          "name": "positionTicket",
          "type": "uint256"
        },
        {
          "indexed": false,
          "internalType": "uint256",
          "name": "shares",
          "type": "uint256"
        }
      ],
      "name": "ExitQueueEntered",
      "type": "event"
    },
    {
      "anonymous": false,
      "inputs": [
        {
          "indexed": true,
          "internalType": "address",
          "name": "receiver",
          "type": "address"
        },
        {
          "indexed": false,
          "internalType": "uint256",
          "name": "prevPositionTicket",
          "type": "uint256"
        },
        {
          "indexed": false,
          "internalType": "uint256",
          "name": "newPositionTicket",
          "type": "uint256"
        },
        {
          "indexed": false,
          "internalType": "uint256",
          "name": "withdrawnAssets",
          "type": "uint256"
        }
      ],
      "name": "ExitedAssetsClaimed",
      "type": "event"
    },
    {
      "anonymous": false,
      "inputs": [
        {
          "indexed": false,
          "internalType": "uint256",
          "name": "penalty",
          "type": "uint256"
        }
      ],
      "name": "ExitingAssetsPenalized",
      "type": "event"
    },
    {
      "anonymous": false,
      "inputs": [
        {
          "indexed": true,
          "internalType": "address",
          "name": "caller",
          "type": "address"
        },
        {
          "indexed": true,
          "internalType": "address",
          "name": "feeRecipient",
          "type": "address"
        }
      ],
      "name": "FeeRecipientUpdated",
      "type": "event"
    },
    {
      "anonymous": false,
      "inputs": [
        {
          "indexed": false,
          "internalType": "address",
          "name": "receiver",
          "type": "address"
        },
        {
          "indexed": false,
          "internalType": "uint256",
          "name": "shares",
          "type": "uint256"
        },
        {
          "indexed": false,
          "internalType": "uint256",
          "name": "assets",
          "type": "uint256"
        }
      ],
      "name": "FeeSharesMinted",
      "type": "event"
    },
    {
      "anonymous": false,
      "inputs": [
        {
          "indexed": false,
          "internalType": "uint64",
          "name": "version",
          "type": "uint64"
        }
      ],
      "name": "Initialized",
      "type": "event"
    },
    {
      "anonymous": false,
      "inputs": [
        {
          "indexed": true,
          "internalType": "address",
          "name": "caller",
          "type": "address"
        },
        {
          "indexed": true,
          "internalType": "address",
          "name": "keysManager",
          "type": "address"
        }
      ],
      "name": "KeysManagerUpdated",
      "type": "event"
    },
    {
      "anonymous": false,
      "inputs": [
        {
          "indexed": true,
          "internalType": "address",
          "name": "caller",
          "type": "address"
        },
        {
          "indexed": false,
          "internalType": "string",
          "name": "metadataIpfsHash",
          "type": "string"
        }
      ],
      "name": "MetadataUpdated",
      "type": "event"
    },
    {
      "anonymous": false,
      "inputs": [
        {
          "indexed": true,
          "internalType": "address",
          "name": "owner",
          "type": "address"
        },
        {
          "indexed": true,
          "internalType": "address",
          "name": "receiver",
          "type": "address"
        },
        {
          "indexed": false,
          "internalType": "uint256",
          "name": "assets",
          "type": "uint256"
        },
        {
          "indexed": false,
          "internalType": "uint256",
          "name": "shares",
          "type": "uint256"
        }
      ],
      "name": "Redeemed",
      "type": "event"
    },
    {
      "anonymous": false,
      "inputs": [
        {
          "indexed": false,
          "internalType": "address",
          "name": "newRestakeOperatorsManager",
          "type": "address"
        }
      ],
      "name": "RestakeOperatorsManagerUpdated",
      "type": "event"
    },
    {
      "anonymous": false,
      "inputs": [
        {
          "indexed": false,
          "internalType": "address",
          "name": "newRestakeWithdrawalsManager",
          "type": "address"
        }
      ],
      "name": "RestakeWithdrawalsManagerUpdated",
      "type": "event"
    },
    {
      "anonymous": false,
      "inputs": [
        {
          "indexed": true,
          "internalType": "address",
          "name": "from",
          "type": "address"
        },
        {
          "indexed": true,
          "internalType": "address",
          "name": "to",
          "type": "address"
        },
        {
          "indexed": false,
          "internalType": "uint256",
          "name": "value",
          "type": "uint256"
        }
      ],
      "name": "Transfer",
      "type": "event"
    },
    {
      "anonymous": false,
      "inputs": [
        {
          "indexed": true,
          "internalType": "address",
          "name": "implementation",
          "type": "address"
        }
      ],
      "name": "Upgraded",
      "type": "event"
    },
    {
      "anonymous": false,
      "inputs": [
        {
          "indexed": true,
          "internalType": "address",
          "name": "owner",
          "type": "address"
        },
        {
          "indexed": true,
          "internalType": "address",
          "name": "receiver",
          "type": "address"
        },
        {
          "indexed": false,
          "internalType": "uint256",
          "name": "positionTicket",
          "type": "uint256"
        },
        {
          "indexed": false,
          "internalType": "uint256",
          "name": "shares",
          "type": "uint256"
        },
        {
          "indexed": false,
          "internalType": "uint256",
          "name": "assets",
          "type": "uint256"
        }
      ],
      "name": "V2ExitQueueEntered",
      "type": "event"
    },
    {
      "anonymous": false,
      "inputs": [
        {
          "indexed": false,
          "internalType": "bytes",
          "name": "publicKey",
          "type": "bytes"
        }
      ],
      "name": "ValidatorRegistered",
      "type": "event"
    },
    {
      "anonymous": false,
      "inputs": [
        {
          "indexed": true,
          "internalType": "address",
          "name": "caller",
          "type": "address"
        },
        {
          "indexed": true,
          "internalType": "address",
          "name": "validatorsManager",
          "type": "address"
        }
      ],
      "name": "ValidatorsManagerUpdated",
      "type": "event"
    },
    {
      "anonymous": false,
      "inputs": [
        {
          "indexed": true,
          "internalType": "address",
          "name": "caller",
          "type": "address"
        },
        {
          "indexed": true,
          "internalType": "bytes32",
          "name": "validatorsRoot",
          "type": "bytes32"
        }
      ],
      "name": "ValidatorsRootUpdated",
      "type": "event"
    },
    {
      "inputs": [],
      "name": "DOMAIN_SEPARATOR",
      "outputs": [
        {
          "internalType": "bytes32",
          "name": "",
          "type": "bytes32"
        }
      ],
      "stateMutability": "view",
      "type": "function"
    },
    {
      "inputs": [],
      "name": "UPGRADE_INTERFACE_VERSION",
      "outputs": [
        {
          "internalType": "string",
          "name": "",
          "type": "string"
        }
      ],
      "stateMutability": "view",
      "type": "function"
    },
    {
      "inputs": [],
      "name": "admin",
      "outputs": [
        {
          "internalType": "address",
          "name": "",
          "type": "address"
        }
      ],
      "stateMutability": "view",
      "type": "function"
    },
    {
      "inputs": [
        {
          "internalType": "address",
          "name": "",
          "type": "address"
        },
        {
          "internalType": "address",
          "name": "",
          "type": "address"
        }
      ],
      "name": "allowance",
      "outputs": [
        {
          "internalType": "uint256",
          "name": "",
          "type": "uint256"
        }
      ],
      "stateMutability": "view",
      "type": "function"
    },
    {
      "inputs": [
        {
          "internalType": "address",
          "name": "spender",
          "type": "address"
        },
        {
          "internalType": "uint256",
          "name": "amount",
          "type": "uint256"
        }
      ],
      "name": "approve",
      "outputs": [
        {
          "internalType": "bool",
          "name": "",
          "type": "bool"
        }
      ],
      "stateMutability": "nonpayable",
      "type": "function"
    },
    {
      "inputs": [
        {
          "internalType": "address",
          "name": "account",
          "type": "address"
        }
      ],
      "name": "balanceOf",
      "outputs": [
        {
          "internalType": "uint256",
          "name": "",
          "type": "uint256"
        }
      ],
      "stateMutability": "view",
      "type": "function"
    },
    {
      "inputs": [
        {
          "internalType": "address",
          "name": "receiver",
          "type": "address"
        },
        {
          "internalType": "uint256",
          "name": "positionTicket",
          "type": "uint256"
        },
        {
          "internalType": "uint256",
          "name": "timestamp",
          "type": "uint256"
        },
        {
          "internalType": "uint256",
          "name": "exitQueueIndex",
          "type": "uint256"
        }
      ],
      "name": "calculateExitedAssets",
      "outputs": [
        {
          "internalType": "uint256",
          "name": "leftTickets",
          "type": "uint256"
        },
        {
          "internalType": "uint256",
          "name": "exitedTickets",
          "type": "uint256"
        },
        {
          "internalType": "uint256",
          "name": "exitedAssets",
          "type": "uint256"
        }
      ],
      "stateMutability": "view",
      "type": "function"
    },
    {
      "inputs": [],
      "name": "capacity",
      "outputs": [
        {
          "internalType": "uint256",
          "name": "",
          "type": "uint256"
        }
      ],
      "stateMutability": "view",
      "type": "function"
    },
    {
      "inputs": [
        {
          "internalType": "uint256",
          "name": "positionTicket",
          "type": "uint256"
        },
        {
          "internalType": "uint256",
          "name": "timestamp",
          "type": "uint256"
        },
        {
          "internalType": "uint256",
          "name": "exitQueueIndex",
          "type": "uint256"
        }
      ],
      "name": "claimExitedAssets",
      "outputs": [],
      "stateMutability": "nonpayable",
      "type": "function"
    },
    {
      "inputs": [
        {
          "internalType": "uint256",
          "name": "shares",
          "type": "uint256"
        }
      ],
      "name": "convertToAssets",
      "outputs": [
        {
          "internalType": "uint256",
          "name": "assets",
          "type": "uint256"
        }
      ],
      "stateMutability": "view",
      "type": "function"
    },
    {
      "inputs": [
        {
          "internalType": "uint256",
          "name": "assets",
          "type": "uint256"
        }
      ],
      "name": "convertToShares",
      "outputs": [
        {
          "internalType": "uint256",
          "name": "shares",
          "type": "uint256"
        }
      ],
      "stateMutability": "view",
      "type": "function"
    },
    {
      "inputs": [],
      "name": "createEigenPod",
      "outputs": [],
      "stateMutability": "nonpayable",
      "type": "function"
    },
    {
      "inputs": [],
      "name": "decimals",
      "outputs": [
        {
          "internalType": "uint8",
          "name": "",
          "type": "uint8"
        }
      ],
      "stateMutability": "view",
      "type": "function"
    },
    {
      "inputs": [
        {
          "internalType": "address",
          "name": "receiver",
          "type": "address"
        },
        {
          "internalType": "address",
          "name": "referrer",
          "type": "address"
        }
      ],
      "name": "deposit",
      "outputs": [
        {
          "internalType": "uint256",
          "name": "shares",
          "type": "uint256"
        }
      ],
      "stateMutability": "payable",
      "type": "function"
    },
    {
      "inputs": [
        {
          "internalType": "uint256",
          "name": "shares",
          "type": "uint256"
        },
        {
          "internalType": "address",
          "name": "receiver",
          "type": "address"
        }
      ],
      "name": "enterExitQueue",
      "outputs": [
        {
          "internalType": "uint256",
          "name": "positionTicket",
          "type": "uint256"
        }
      ],
      "stateMutability": "nonpayable",
      "type": "function"
    },
    {
      "inputs": [],
      "name": "feePercent",
      "outputs": [
        {
          "internalType": "uint16",
          "name": "",
          "type": "uint16"
        }
      ],
      "stateMutability": "view",
      "type": "function"
    },
    {
      "inputs": [],
      "name": "feeRecipient",
      "outputs": [
        {
          "internalType": "address",
          "name": "",
          "type": "address"
        }
      ],
      "stateMutability": "view",
      "type": "function"
    },
    {
      "inputs": [],
      "name": "getEigenPods",
      "outputs": [
        {
          "internalType": "address[]",
          "name": "",
          "type": "address[]"
        }
      ],
      "stateMutability": "view",
      "type": "function"
    },
    {
      "inputs": [
        {
          "internalType": "uint256",
          "name": "positionTicket",
          "type": "uint256"
        }
      ],
      "name": "getExitQueueIndex",
      "outputs": [
        {
          "internalType": "int256",
          "name": "",
          "type": "int256"
        }
      ],
      "stateMutability": "view",
      "type": "function"
    },
    {
      "inputs": [
        {
          "internalType": "address",
          "name": "account",
          "type": "address"
        }
      ],
      "name": "getShares",
      "outputs": [
        {
          "internalType": "uint256",
          "name": "",
          "type": "uint256"
        }
      ],
      "stateMutability": "view",
      "type": "function"
    },
    {
      "inputs": [],
      "name": "implementation",
      "outputs": [
        {
          "internalType": "address",
          "name": "",
          "type": "address"
        }
      ],
      "stateMutability": "view",
      "type": "function"
    },
    {
      "inputs": [
        {
          "internalType": "bytes",
          "name": "params",
          "type": "bytes"
        }
      ],
      "name": "initialize",
      "outputs": [],
      "stateMutability": "payable",
      "type": "function"
    },
    {
      "inputs": [],
      "name": "isStateUpdateRequired",
      "outputs": [
        {
          "internalType": "bool",
          "name": "",
          "type": "bool"
        }
      ],
      "stateMutability": "view",
      "type": "function"
    },
    {
      "inputs": [],
      "name": "mevEscrow",
      "outputs": [
        {
          "internalType": "address",
          "name": "",
          "type": "address"
        }
      ],
      "stateMutability": "view",
      "type": "function"
    },
    {
      "inputs": [
        {
          "internalType": "bytes[]",
          "name": "data",
          "type": "bytes[]"
        }
      ],
      "name": "multicall",
      "outputs": [
        {
          "internalType": "bytes[]",
          "name": "results",
          "type": "bytes[]"
        }
      ],
      "stateMutability": "nonpayable",
      "type": "function"
    },
    {
      "inputs": [],
      "name": "name",
      "outputs": [
        {
          "internalType": "string",
          "name": "",
          "type": "string"
        }
      ],
      "stateMutability": "view",
      "type": "function"
    },
    {
      "inputs": [
        {
          "internalType": "address",
          "name": "",
          "type": "address"
        }
      ],
      "name": "nonces",
      "outputs": [
        {
          "internalType": "uint256",
          "name": "",
          "type": "uint256"
        }
      ],
      "stateMutability": "view",
      "type": "function"
    },
    {
      "inputs": [
        {
          "internalType": "address",
          "name": "owner",
          "type": "address"
        },
        {
          "internalType": "address",
          "name": "spender",
          "type": "address"
        },
        {
          "internalType": "uint256",
          "name": "value",
          "type": "uint256"
        },
        {
          "internalType": "uint256",
          "name": "deadline",
          "type": "uint256"
        },
        {
          "internalType": "uint8",
          "name": "v",
          "type": "uint8"
        },
        {
          "internalType": "bytes32",
          "name": "r",
          "type": "bytes32"
        },
        {
          "internalType": "bytes32",
          "name": "s",
          "type": "bytes32"
        }
      ],
      "name": "permit",
      "outputs": [],
      "stateMutability": "nonpayable",
      "type": "function"
    },
    {
      "inputs": [],
      "name": "proxiableUUID",
      "outputs": [
        {
          "internalType": "bytes32",
          "name": "",
          "type": "bytes32"
        }
      ],
      "stateMutability": "view",
      "type": "function"
    },
    {
      "inputs": [],
      "name": "queuedShares",
      "outputs": [
        {
          "internalType": "uint128",
          "name": "",
          "type": "uint128"
        }
      ],
      "stateMutability": "view",
      "type": "function"
    },
    {
      "inputs": [],
      "name": "receiveFromMevEscrow",
      "outputs": [],
      "stateMutability": "payable",
      "type": "function"
    },
    {
      "inputs": [
        {
          "components": [
            {
              "internalType": "bytes32",
              "name": "validatorsRegistryRoot",
              "type": "bytes32"
            },
            {
              "internalType": "uint256",
              "name": "deadline",
              "type": "uint256"
            },
            {
              "internalType": "bytes",
              "name": "validators",
              "type": "bytes"
            },
            {
              "internalType": "bytes",
              "name": "signatures",
              "type": "bytes"
            },
            {
              "internalType": "string",
              "name": "exitSignaturesIpfsHash",
              "type": "string"
            }
          ],
          "internalType": "struct IKeeperValidators.ApprovalParams",
          "name": "keeperParams",
          "type": "tuple"
        },
        {
          "internalType": "bytes",
          "name": "validatorsManagerSignature",
          "type": "bytes"
        }
      ],
      "name": "registerValidators",
      "outputs": [],
      "stateMutability": "nonpayable",
      "type": "function"
    },
    {
      "inputs": [],
      "name": "restakeOperatorsManager",
      "outputs": [
        {
          "internalType": "address",
          "name": "",
          "type": "address"
        }
      ],
      "stateMutability": "view",
      "type": "function"
    },
    {
      "inputs": [],
      "name": "restakeWithdrawalsManager",
      "outputs": [
        {
          "internalType": "address",
          "name": "",
          "type": "address"
        }
      ],
      "stateMutability": "view",
      "type": "function"
    },
    {
      "inputs": [
        {
          "internalType": "address",
          "name": "_feeRecipient",
          "type": "address"
        }
      ],
      "name": "setFeeRecipient",
      "outputs": [],
      "stateMutability": "nonpayable",
      "type": "function"
    },
    {
      "inputs": [
        {
          "internalType": "string",
          "name": "metadataIpfsHash",
          "type": "string"
        }
      ],
      "name": "setMetadata",
      "outputs": [],
      "stateMutability": "nonpayable",
      "type": "function"
    },
    {
      "inputs": [
        {
          "internalType": "address",
          "name": "newRestakeOperatorsManager",
          "type": "address"
        }
      ],
      "name": "setRestakeOperatorsManager",
      "outputs": [],
      "stateMutability": "nonpayable",
      "type": "function"
    },
    {
      "inputs": [
        {
          "internalType": "address",
          "name": "newRestakeWithdrawalsManager",
          "type": "address"
        }
      ],
      "name": "setRestakeWithdrawalsManager",
      "outputs": [],
      "stateMutability": "nonpayable",
      "type": "function"
    },
    {
      "inputs": [
        {
          "internalType": "address",
          "name": "validatorsManager_",
          "type": "address"
        }
      ],
      "name": "setValidatorsManager",
      "outputs": [],
      "stateMutability": "nonpayable",
      "type": "function"
    },
    {
      "inputs": [],
      "name": "symbol",
      "outputs": [
        {
          "internalType": "string",
          "name": "",
          "type": "string"
        }
      ],
      "stateMutability": "view",
      "type": "function"
    },
    {
      "inputs": [],
      "name": "totalAssets",
      "outputs": [
        {
          "internalType": "uint256",
          "name": "",
          "type": "uint256"
        }
      ],
      "stateMutability": "view",
      "type": "function"
    },
    {
      "inputs": [],
      "name": "totalExitingAssets",
      "outputs": [
        {
          "internalType": "uint128",
          "name": "",
          "type": "uint128"
        }
      ],
      "stateMutability": "view",
      "type": "function"
    },
    {
      "inputs": [],
      "name": "totalShares",
      "outputs": [
        {
          "internalType": "uint256",
          "name": "",
          "type": "uint256"
        }
      ],
      "stateMutability": "view",
      "type": "function"
    },
    {
      "inputs": [],
      "name": "totalSupply",
      "outputs": [
        {
          "internalType": "uint256",
          "name": "",
          "type": "uint256"
        }
      ],
      "stateMutability": "view",
      "type": "function"
    },
    {
      "inputs": [
        {
          "internalType": "address",
          "name": "to",
          "type": "address"
        },
        {
          "internalType": "uint256",
          "name": "amount",
          "type": "uint256"
        }
      ],
      "name": "transfer",
      "outputs": [
        {
          "internalType": "bool",
          "name": "",
          "type": "bool"
        }
      ],
      "stateMutability": "nonpayable",
      "type": "function"
    },
    {
      "inputs": [
        {
          "internalType": "address",
          "name": "from",
          "type": "address"
        },
        {
          "internalType": "address",
          "name": "to",
          "type": "address"
        },
        {
          "internalType": "uint256",
          "name": "amount",
          "type": "uint256"
        }
      ],
      "name": "transferFrom",
      "outputs": [
        {
          "internalType": "bool",
          "name": "",
          "type": "bool"
        }
      ],
      "stateMutability": "nonpayable",
      "type": "function"
    },
    {
      "inputs": [
        {
          "components": [
            {
              "internalType": "bytes32",
              "name": "rewardsRoot",
              "type": "bytes32"
            },
            {
              "internalType": "int160",
              "name": "reward",
              "type": "int160"
            },
            {
              "internalType": "uint160",
              "name": "unlockedMevReward",
              "type": "uint160"
            },
            {
              "internalType": "bytes32[]",
              "name": "proof",
              "type": "bytes32[]"
            }
          ],
          "internalType": "struct IKeeperRewards.HarvestParams",
          "name": "harvestParams",
          "type": "tuple"
        }
      ],
      "name": "updateState",
      "outputs": [],
      "stateMutability": "nonpayable",
      "type": "function"
    },
    {
      "inputs": [
        {
          "internalType": "address",
          "name": "receiver",
          "type": "address"
        },
        {
          "internalType": "address",
          "name": "referrer",
          "type": "address"
        },
        {
          "components": [
            {
              "internalType": "bytes32",
              "name": "rewardsRoot",
              "type": "bytes32"
            },
            {
              "internalType": "int160",
              "name": "reward",
              "type": "int160"
            },
            {
              "internalType": "uint160",
              "name": "unlockedMevReward",
              "type": "uint160"
            },
            {
              "internalType": "bytes32[]",
              "name": "proof",
              "type": "bytes32[]"
            }
          ],
          "internalType": "struct IKeeperRewards.HarvestParams",
          "name": "harvestParams",
          "type": "tuple"
        }
      ],
      "name": "updateStateAndDeposit",
      "outputs": [
        {
          "internalType": "uint256",
          "name": "shares",
          "type": "uint256"
        }
      ],
      "stateMutability": "payable",
      "type": "function"
    },
    {
      "inputs": [
        {
          "internalType": "address",
          "name": "newImplementation",
          "type": "address"
        },
        {
          "internalType": "bytes",
          "name": "data",
          "type": "bytes"
        }
      ],
      "name": "upgradeToAndCall",
      "outputs": [],
      "stateMutability": "payable",
      "type": "function"
    },
    {
      "inputs": [],
      "name": "validatorsManager",
      "outputs": [
        {
          "internalType": "address",
          "name": "",
          "type": "address"
        }
      ],
      "stateMutability": "view",
      "type": "function"
    },
    {
      "inputs": [],
      "name": "vaultId",
      "outputs": [
        {
          "internalType": "bytes32",
          "name": "",
          "type": "bytes32"
        }
      ],
      "stateMutability": "pure",
      "type": "function"
    },
    {
      "inputs": [],
      "name": "version",
      "outputs": [
        {
          "internalType": "uint8",
          "name": "",
          "type": "uint8"
        }
      ],
      "stateMutability": "pure",
      "type": "function"
    },
    {
      "inputs": [],
      "name": "withdrawableAssets",
      "outputs": [
        {
          "internalType": "uint256",
          "name": "",
          "type": "uint256"
        }
      ],
      "stateMutability": "view",
      "type": "function"
    },
    {
      "stateMutability": "payable",
      "type": "receive"
    }
  ],
  "bytecode": "0x6101c0346200016d57601f620052e938819003918201601f19168301916001600160401b03831184841017620001715780849260e0946040528339810103126200016d576200004e8162000185565b906200005d6020820162000185565b906200006c6040820162000185565b6200007a6060830162000185565b90620000896080840162000185565b9360c06200009a60a0860162000185565b9401519560805260a05260c0523060e052620000b56200019a565b610100934685526101209384526101404681526101609182526101809283526101a0938452620000e46200019a565b604051946150af96876200023a883960805187818161135a0152818161161301528181612d0f015261363f015260a0518761102d015260c05187818161432a0152614480015260e0518781816111d901526132f10152518661247401525185612a5e015251846136bd015251836117ec01525182818161244f0152612d5c015251816107e90152f35b5f80fd5b634e487b7160e01b5f52604160045260245ffd5b51906001600160a01b03821682036200016d57565b7ff0c57e16840df040f15088dc2f81fe391c3923bec73e23a9662efc9c229c6a00805460ff8160401c1662000227576001600160401b036002600160401b031982821601620001e857505050565b6001600160401b031990911681179091556040519081527fc7f505b2f371ae2175ee4913f4499e1f2633a7b5936321eed1cdaeb6115181d290602090a1565b60405163f92ee8a960e01b8152600490fdfe6080604052600436101562000026575b36156200001a575f80fd5b6200002462002aa2565b005b5f3560e01c806301e1d11414620003d257806306fdde0314620003cc57806307a2d13a14620003c6578063095ea7b314620003c0578063096ae80d14620003ba5780630b10b20114620003b457806318160ddd146200037e57806318f7295014620003ae5780631a7ff55314620003a857806323b872dd14620003a25780632cdf7401146200039c578063313ce56714620003965780633229fa95146200039057806333194c0a146200038a5780633644e51514620003845780633a98ef39146200037e578063439fab9114620003785780634690484014620003725780634f1ef286146200036c57806352d1902d146200036657806353156f28146200036057806354fd4d50146200035a5780635c60da1b14620003545780635cfc1a51146200034e57806360d60e6e146200034857806370a0823114620002b857806372b410a81462000342578063754c3888146200033c57806376b58b9014620003365780637b6341c614620003305780637ecebe00146200032a5780637fd6f15c146200032457806383d430d5146200031e5780638697d2c214620003185780638ceab9aa146200031257806395d89b41146200030c578063a045dd0c1462000306578063a49a1e7d1462000300578063a9059cbb14620002fa578063ac9650d814620002f4578063ad3cb1cc14620002ee578063b1f0e7c714620002e8578063c5aecb2214620002e2578063c6e6f59214620002dc578063d505accf14620002d6578063d83ad00c14620002d0578063dd62ed3e14620002ca578063e74b981b14620002c4578063ee3bd5df14620002be578063f04da65b14620002b8578063f132f5d314620002b2578063f851a44014620002ac5763f9609f08036200000f5762002324565b620022fa565b6200228d565b620012ee565b62002265565b62002230565b620021e8565b62002196565b62001f6e565b62001f40565b62001f22565b62001f04565b62001eb9565b62001e4a565b62001da8565b62001d4f565b62001d0d565b62001c5b565b62001a58565b620017bb565b620015b6565b62001590565b62001551565b6200148d565b62001435565b620013c3565b6200132d565b620012cc565b620012ae565b62001277565b6200125a565b62001232565b620011c5565b62000efd565b62000e4b565b62000c18565b6200096b565b62000b98565b62000b5c565b62000b2c565b62000b0f565b62000af1565b62000a40565b62000a07565b620009a2565b62000782565b620006ed565b62000645565b62000609565b6200052c565b620003e7565b5f910312620003e357565b5f80fd5b34620003e3575f366003190112620003e357602060cf5460801c604051908152f35b90600182811c9216801562000439575b60208310146200042557565b634e487b7160e01b5f52602260045260245ffd5b91607f169162000419565b634e487b7160e01b5f52604160045260245ffd5b6001600160401b0381116200046c57604052565b62000444565b604081019081106001600160401b038211176200046c57604052565b608081019081106001600160401b038211176200046c57604052565b90601f801991011681019081106001600160401b038211176200046c57604052565b5f5b838110620004de5750505f910152565b8181015183820152602001620004ce565b906020916200050a81518092818552858086019101620004cc565b601f01601f1916010190565b90602062000529928181520190620004ef565b90565b34620003e3575f366003190112620003e3576040515f80546200054f8162000409565b80845290602090600190818116908115620005dc575060011462000592575b6200058e856200058181870382620004aa565b6040519182918262000516565b0390f35b5f80805293505f8051602062004ffa8339815191525b838510620005c85750505050810160200162000581826200058e6200056e565b8054868601840152938201938101620005a8565b8695506200058e969350602092506200058194915060ff191682840152151560051b82010192936200056e565b34620003e3576020366003190112620003e35760206200062b6004356200233e565b604051908152f35b6001600160a01b03811603620003e357565b34620003e3576040366003190112620003e357600435620006668162000633565b6001600160a01b03811690602435908215620006db57620006a38291335f52600260205260405f209060018060a01b03165f5260205260405f2090565b556040519081527f8c5be1e5ebec7d5bd14f71427d1e84f3dd0314c0f7b2291e5b200ac8c7c3b92560203392a3602060405160018152f35b60405163d92e233d60e01b8152600490fd5b34620003e3576020366003190112620003e3576004356200070e8162000633565b610206805490916001600160a01b03908116908216811462000770577f890ff5077ab1949ce16449a660eb28ce16646b4c99e0901266d44a1042b1f9e892816020936200075a62002bc4565b6001600160a01b031916179055604051908152a1005b604051638c8728c760e01b8152600490fd5b34620003e3575f366003190112620003e357620007ae620007a262002a80565b6001600160a01b031690565b330362000959576040516102c8808201908282106001600160401b038311176200046c5782916200081f9162004d3284396001600160a01b037f00000000000000000000000000000000000000000000000000000000000000001681526040602082018190525f9082015260600190565b03905ff0801562000935576001600160a01b0390811690813b15620003e35760405163439fab9160e01b8152602060048201525f602482018190528160448183875af1801562000935576200093b575b506040516351d5709b60e11b815291602083600481845afa91821562000935577fcdc82cfed67d9b46d3a15dd3b48745fb894a354d554cb5da5fb8c440f85c108e935f93620008f8575b50620008c790831662003be2565b50620008d38162003c50565b50604080516001600160a01b039283168152929091166020830152819081015b0390a1005b620008c7919350620009259060203d6020116200092d575b6200091c8183620004aa565b81019062002372565b9290620008b9565b503d62000910565b62002367565b806200094b620009529262000458565b80620003d8565b5f6200086f565b604051634ca8886760e01b8152600490fd5b34620003e3575f366003190112620003e35760206001600160801b0360cf5416604051908152f35b90816080910312620003e35790565b6060366003190112620003e357600435620009bd8162000633565b602435620009cb8162000633565b604435906001600160401b038211620003e357602092620009ff620009f96200062b94369060040162000993565b6200238a565b349062003b26565b34620003e3576020366003190112620003e3576004356001600160401b038111620003e357620009f96200002491369060040162000993565b34620003e3576060366003190112620003e35760043562000a618162000633565b60243562000a6f8162000633565b6001600160a01b0382165f818152600260209081526040808320338452909152902090926044359291546001810162000abc575b5062000ab093506200306d565b60405160018152602090f35b83810390811162000aeb575f94855260026020908152604080872033885290915285205562000ab09362000aa3565b620023da565b34620003e3575f366003190112620003e35760206200062b620023fc565b34620003e3575f366003190112620003e357602060405160128152f35b34620003e3575f366003190112620003e357602062000b4a62002435565b6040516001600160a01b039091168152f35b34620003e3575f366003190112620003e35760206040517f778168b2049c66a50853dfa28c8d05dfb083907876871d6640cd612be7e580f28152f35b34620003e3575f366003190112620003e35760206200062b62002471565b9181601f84011215620003e3578235916001600160401b038311620003e35760208381860195010111620003e357565b6020600319820112620003e357600435906001600160401b038211620003e35762000c149160040162000bb6565b9091565b62000c233662000be6565b907ff0c57e16840df040f15088dc2f81fe391c3923bec73e23a9662efc9c229c6a009081549160409260ff81851c16801562000e36575b62000e255768ffffffffffffffffff191668010000000000000002179055815163e7f6f22560e01b8152926020908185600481335afa94851562000935575f9562000e01575b508351636f4fa30f60e01b8152908282600481335afa91821562000935575f9262000ddd575b508301948284870312620003e35783356001600160401b0394858211620003e3570160a081880312620003e35762000cfd62000e75565b938135855262000d0f818301620024a9565b9085015285810135858111620003e3578762000d2d918301620024b9565b868501526060810135858111620003e3578762000d4c918301620024b9565b60608501526080810135948511620003e3577fc7f505b2f371ae2175ee4913f4499e1f2633a7b5936321eed1cdaeb6115181d29662000d9c9562000d919201620024b9565b608084015262003214565b7ff0c57e16840df040f15088dc2f81fe391c3923bec73e23a9662efc9c229c6a00805468ff00000000000000001916905551600281528060208101620008f3565b62000df9919250833d85116200092d576200091c8183620004aa565b905f62000cc6565b62000e1d919550823d84116200092d576200091c8183620004aa565b935f62000ca0565b835163f92ee8a960e01b8152600490fd5b5060026001600160401b038216101562000c5a565b34620003e3575f366003190112620003e357609c546040516001600160a01b039091168152602090f35b6040519060a082018281106001600160401b038211176200046c57604052565b6040519062000ea48262000472565b565b6001600160401b0381116200046c57601f01601f191660200190565b92919262000ed08262000ea6565b9162000ee06040519384620004aa565b829481845281830111620003e3578281602093845f960137010152565b604080600319360112620003e357600490813562000f1b8162000633565b6024356001600160401b038111620003e35736602382011215620003e35762000f4e903690602481870135910162000ec2565b9162000f59620032e7565b80519262000f948462000f8560209363439fab9160e01b858401528460248401526044830190620004ef565b03601f198101865285620004aa565b62000f9e620032e7565b62000fa862002bc4565b6001600160a01b0383811680159291908790841562001194575b84156200110c575b84156200109e575b5050821562000ffe575b505062000fef5762000024838362003fbd565b516355299b4960e01b81528390fd5b83516345da87c560e01b81526001600160a01b03861688820190815292935091839183918290819060200103917f0000000000000000000000000000000000000000000000000000000000000000165afa91821562000935575f926200106a575b5050155f8062000fdc565b6200108e9250803d1062001096575b620010858183620004aa565b810190620025d1565b5f806200105f565b503d62001079565b855163054fd4d560e41b81529294508391839182905afa908115620009355760039160ff915f91620010d8575b5016141591865f62000fd2565b620010fd9150843d861162001104575b620010f48183620004aa565b81019062003fa5565b5f620010cb565b503d620010e8565b935050835163198ca60560e11b815282818981875afa908115620009355788917f778168b2049c66a50853dfa28c8d05dfb083907876871d6640cd612be7e580f2915f9162001160575b5014159362000fca565b620011859150853d87116200118c575b6200117c8183620004aa565b81019062002cb0565b5f62001156565b503d62001170565b5f805160206200501a833981519152549094508490620011bd906001600160a01b0316620007a2565b149362000fc2565b34620003e3575f366003190112620003e3577f00000000000000000000000000000000000000000000000000000000000000006001600160a01b03163003620012205760206040515f805160206200501a8339815191528152f35b60405163703e46dd60e11b8152600490fd5b5f366003190112620003e3576001600160a01b036200125062002435565b1633036200095957005b34620003e3575f366003190112620003e357602060405160028152f35b34620003e3575f366003190112620003e3575f805160206200501a833981519152546040516001600160a01b039091168152602090f35b34620003e3575f366003190112620003e35760206200062b620024d7565b34620003e3576020366003190112620003e35760206200062b600435620024f4565b34620003e3576020366003190112620003e3576004356200130f8162000633565b60018060a01b03165f5260d3602052602060405f2054604051908152f35b34620003e3575f366003190112620003e357604051633eb1acf760e11b81523060048201526020816024817f00000000000000000000000000000000000000000000000000000000000000006001600160a01b03165afa801562000935576020915f91620013a1575b506040519015158152f35b620013bc9150823d84116200109657620010858183620004aa565b5f62001396565b34620003e3576020366003190112620003e357600435620013e48162000633565b620013ee62002bc4565b61010980546001600160a01b0319166001600160a01b03929092169182179055337f6bdc78d8c88160b3fc3638e67f2afe523b3f4c7d00c56ebb6216790e4c3eb2cb5f80a3005b34620003e3576080366003190112620003e3576200058e620014706004356200145e8162000633565b606435906044359060243590620025e8565b604080519384526020840192909252908201529081906060820190565b34620003e3575f366003190112620003e35760405180610207805480845260208094019081925f527f1ad7755b1dd0ab14588b5852415a5ca516498ebfb507c5447b8dda56bd2668c2905f5b868282106200153c578686620014f282880383620004aa565b60405192839281840190828552518091526040840192915f5b8281106200151b57505050500390f35b83516001600160a01b0316855286955093810193928101926001016200150b565b835485529093019260019283019201620014d9565b34620003e3576020366003190112620003e357600435620015728162000633565b60018060a01b03165f526003602052602060405f2054604051908152f35b34620003e3575f366003190112620003e357602061ffff609c5460a01c16604051908152f35b34620003e357600319604036820112620003e35760049081356001600160401b03808211620003e35760a0828501938336030112620003e357602435908111620003e35762001609903690850162000bb6565b6001600160a01b037f00000000000000000000000000000000000000000000000000000000000000008116803b15620003e35760405163837d444160e01b8152905f9082908183816200165f8c828f0162002714565b03925af180156200093557620017a4575b506200167b62003624565b6200168562002a48565b90811633141591826200176d575b505090506200175c576044019160c4620016ae84846200279e565b9050048015801562001741575b6200173157620016d5620016ce620023fc565b91620027f8565b1162001722575060c4620016ea83836200279e565b9050145f146200170b57620000249162001704916200279e565b9062004475565b62000024916200171b916200279e565b9062004328565b6040516396d8043360e01b8152fd5b50604051631c6c4cf360e31b8152fd5b506200174e84846200279e565b905060c482021415620016bb565b604051634ca8886760e01b81528390fd5b620017979250620017906200179b946200178788620036b7565b92369162000ec2565b916200379d565b1590565b805f8062001693565b806200094b620017b49262000458565b5f62001670565b34620003e3576060366003190112620003e357600435602435620017e4604435828433620025e8565b9192620018127f000000000000000000000000000000000000000000000000000000000000000082620024e6565b4210801562001a4f575b801562001a46575b62001a34577feb3b05c070c24f667611fdb3ff75fe007d42401c573aed8d8faca95fd00ccb56936200187986620018736200186760d0546001600160801b031690565b6001600160801b031690565b62003344565b156200199257620018b96200189e620018928662003879565b60d05460801c62002812565b6001600160801b0360d0549181199060801b1691161760d055565b60408051336020820190815291810184905260608082018990528152601f1993915f91620019009190620018ef608082620004aa565b5190205f5260d260205260405f2090565b555f93600183116200193c575b505050506200191d8233620038ad565b604080519485526020850191909152830152339180606081015b0390a2005b6200198792939450620019509088620024e6565b60408051336020820190815291810193909352606083018290529094909190620018ef9082608081015b03908101835282620004aa565b555f8080806200190d565b6200199c62003624565b620019dd620019c1620019af8662003879565b60d5546001600160801b031662002812565b6001600160801b03166001600160801b031960d554161760d555565b62001a17620019fc620019f08562003879565b60d55460801c62002812565b6001600160801b0360d5549181199060801b1691161760d555565b62001a2e62001a298460d654620024e6565b60d655565b620018b9565b604051630e3d8e8d60e11b8152600490fd5b50821562001824565b5081156200181c565b34620003e357604080600319360112620003e3576024359060043562001a7e8362000633565b62001a8862003624565b801562001c4a576001600160a01b03831690811562001c395762001aac816200233e565b90811562001c285762001abf82620040c5565b62001aca8362003879565b60cf5460801c9062001adc9162002812565b62001afc906001600160801b0360cf549181199060801b1691161760cf55565b62001b08823362004c6c565b60d554958660801c828160d6549062001b2191620024e6565b9862001b2d8762003879565b62001b41916001600160801b03166200456d565b62001b62906001600160801b03166001600160801b031960d554161760d555565b62001b6d91620024e6565b62001b789062003879565b62001b98906001600160801b0360d5549181199060801b1691161760d555565b85516001600160a01b039190911660208201908152426040830152606080830189905282529062001bcb608082620004aa565b51902062001be1905f5260d260205260405f2090565b5583518581526020810191909152604081019190915233907f869f12645d154414259c47bcb998b6b6983fae50e5e0c6053bc87d4330db9f2d90606090a351908152602090f35b83516318374fd160e21b8152600490fd5b825163d92e233d60e01b8152600490fd5b8151636edcc52360e01b8152600490fd5b34620003e3575f366003190112620003e3576040515f6001805462001c808162000409565b8085529160209160018116908115620005dc575060011462001caf576200058e856200058181870382620004aa565b60015f90815293507fb10e2d527612073b26eecdfd717e6a320cf44b4afac2b0732d9fcbe2b7fa0cf65b83851062001cf95750505050810160200162000581826200058e6200056e565b805486860184015293820193810162001cd9565b34620003e3575f366003190112620003e357610206546020906001600160a01b039081168062001d4857508060375416905b60405191168152f35b9062001d3f565b34620003e357620019377f2013570c343af8ab14a9778150e381a0fda34ed6368127a95fd5e7210cbec5bf62001d853662000be6565b929062001d9162002bc4565b6040519182916020835233956020840191620026f4565b34620003e3576040366003190112620003e35762001dd860043562001dcd8162000633565b60243590336200306d565b602060405160018152f35b6020808201906020835283518092526040830192602060408460051b8301019501935f915b84831062001e195750505050505090565b909192939495848062001e39600193603f198682030187528a51620004ef565b980193019301919493929062001e08565b34620003e3576020366003190112620003e3576001600160401b03600435818111620003e35736602382011215620003e3578060040135918211620003e3573660248360051b83010111620003e3576200058e91602462001eac920162002987565b6040519182918262001de3565b34620003e3575f366003190112620003e3576200058e60405162001edd8162000472565b60058152640352e302e360dc1b6020820152604051918291602083526020830190620004ef565b34620003e3575f366003190112620003e357602062000b4a62002a48565b34620003e3575f366003190112620003e357602062000b4a62002a80565b34620003e3576020366003190112620003e35760206200062b6004356200394c565b60ff811603620003e357565b34620003e35760e0366003190112620003e35760043562001f8f8162000633565b60243562001f9d8162000633565b60443590606435926084359062001fb48262001f62565b6001600160a01b03838116959092908615620006db5742811062002184576020915f916200197a620020b089878a6200207162001ff062002471565b6001600160a01b0384165f9081526003602052604090209097908054906001820190556040519586948d8601968791959493909260a09360c08401977f6e71edae12b1b97f4d1f60370fef10105fa2faae0126114a169c64845d6126c98552600180871b038092166020860152166040840152606083015260808201520152565b039162002087601f1993848101835282620004aa565b5190206040519384918983019687909160429261190160f01b8352600283015260228201520190565b5190206040805191825260ff92909216602082015260a4359181019190915260c435606082015281805260809060015afa1562000935575f5192828416801590811562002176575b506200216457620021558591620021407f8c5be1e5ebec7d5bd14f71427d1e84f3dd0314c0f7b2291e5b200ac8c7c3b9259660018060a01b03165f52600260205260405f2090565b9060018060a01b03165f5260205260405f2090565b556040519384521691602090a3005b6040516323389ba560e21b8152600490fd5b905083831614155f620020f8565b604051631ab7da6b60e01b8152600490fd5b34620003e3575f366003190112620003e35760206001600160801b0360d05416604051908152f35b6040906003190112620003e357600435620021d98162000633565b90602435620005298162000633565b34620003e357602062002227620021ff36620021be565b6001600160a01b039182165f9081526002855260408082209290931681526020919091522090565b54604051908152f35b34620003e3576020366003190112620003e35762000024600435620022558162000633565b6200225f62002bc4565b620039e9565b34620003e3575f366003190112620003e35760206001600160801b0360d55416604051908152f35b34620003e3576020366003190112620003e357600435620022ae8162000633565b610205805490916001600160a01b03908116908216811462000770577f399f9aba7ac1bda99e0bee41ebd93a32387a0f37b3934265478e96121dac166d92816020936200075a62002bc4565b34620003e3575f366003190112620003e3576037546040516001600160a01b039091168152602090f35b60206200062b6200233536620021be565b90349062003b26565b60cf546001600160801b03811690816200235757505090565b91620005299260801c9062002b40565b6040513d5f823e3d90fd5b90816020910312620003e35751620005298162000633565b62002399620023a19162002cdc565b919062002e94565b620023a857565b620023b2620045ff565b80620023bc575b50565b5f906040519081525f805160206200503a83398151915260203092a3565b634e487b7160e01b5f52601160045260245ffd5b9190820391821162000aeb57565b4760d0546001600160801b03620024158183166200233e565b9060d55416019060801c01908181115f146200242f570390565b50505f90565b61016e546001600160a01b031680156200244c5790565b507f000000000000000000000000000000000000000000000000000000000000000090565b467f0000000000000000000000000000000000000000000000000000000000000000036200249f5760045490565b62000529620030df565b359061ffff82168203620003e357565b9080601f83011215620003e357816020620005299335910162000ec2565b60d454806200052957505f1990565b9190820180921162000aeb57565b6001600160801b0360d054166200250a62004073565b90810180911162000aeb57811062002544576200253460d6546200252d6200335e565b90620024e6565b11156200253f575f90565b5f1990565b60d19060d1549182915f905b8482106200256c57505050811015620025665790565b505f1990565b909193808316906001818518811c830180931162000aeb575f8790525f805160206200505a8339815191528301546001600160a01b0316841015620025b7575050935b919062002550565b909591019250620025af565b51908115158203620003e357565b90816020910312620003e3576200052990620025c3565b604080516001600160a01b039092166020830190815290820193909352606081018290529091906200262881608081015b03601f198101835282620004aa565b5190205f5260d260205260405f20549182156200269d576001600160801b0360d05416906200265662004073565b91820180921162000aeb57839183101562002688579162002677926200346d565b90915b82810390811162000aeb5792565b50906200269591620033d3565b90916200267a565b5050505f905f905f90565b9035601e1982360301811215620003e35701602081359101916001600160401b038211620003e3578136038313620003e357565b90603060609281835260208301375f60508201520190565b908060209392818452848401375f828201840152601f01601f1916010190565b9060a0620005299260208152823560208201526020830135604082015262002755620027446040850185620026a8565b84606085015260c0840191620026f4565b906200278e620027826200276d6060870187620026a8565b601f19858703810160808701529591620026f4565b946080810190620026a8565b93909282860301910152620026f4565b903590601e1981360301821215620003e357018035906001600160401b038211620003e357602001918136038313620003e357565b634e487b7160e01b5f52601260045260245ffd5b8115620027f2570490565b620027d3565b906801bc16d674ec800000918083029283040362000aeb57565b6001600160801b03918216908216039190821162000aeb57565b6001600160401b0381116200046c5760051b60200190565b9062002850826200282c565b6200285f6040519182620004aa565b828152809262002872601f19916200282c565b01905f5b8281106200288357505050565b80606060208093850101520162002876565b634e487b7160e01b5f52603260045260245ffd5b90821015620028c35762000c149160051b8101906200279e565b62002895565b908092918237015f815290565b3d1562002905573d90620028ea8262000ea6565b91620028fa6040519384620004aa565b82523d5f602084013e565b606090565b602081830312620003e3578051906001600160401b038211620003e3570181601f82011215620003e3578051620029418162000ea6565b92620029516040519485620004aa565b81845260208284010111620003e357620005299160208085019101620004cc565b8051821015620028c35760209160051b010190565b919091620029958362002844565b925f5b818110620029a557505050565b5f80620029b4838587620028a9565b60409391620029c8855180938193620028c9565b0390305af490620029d8620028d6565b911562002a05575090600191620029f0828862002972565b52620029fd818762002972565b500162002998565b906044815110620003e35762002a4462002a2e600492838101516024809183010191016200290a565b925162461bcd60e51b8152928392830162000516565b0390fd5b610109546001600160a01b0316806200052957507f000000000000000000000000000000000000000000000000000000000000000090565b610205546001600160a01b039081168062002a9d57506037541690565b905090565b335f5261020a60205260405f20541562002ab857565b620023b9343362003a4e565b90808202905f198184099082808310920391808303921462002b3557612710908282111562002b23577fbc01a36e2eb1c432ca57a786c226809d495182a9930be0ded288ce703afb7e91940990828211900360fc1b910360041c170290565b60405163227bc15360e01b8152600490fd5b505061271091500490565b9091828202915f198482099383808610950394808603951462002bb5578483111562002b2357829109815f038216809204600280826003021880830282030280830282030280830282030280830282030280830282030280920290030293600183805f03040190848311900302920304170290565b505090620005299250620027e7565b6037546001600160a01b031633036200095957565b90816060910312620003e35780519162000529604060208401519301620025c3565b81835290916001600160fb1b038311620003e35760209260051b809284830137010190565b90602082528035602083015260208101358060130b809103620003e3576040830152604081013562002c528162000633565b6001600160a01b031660608381019190915281013536829003601e1901811215620003e35701602081359101906001600160401b038111620003e3578060051b36038213620003e35760a08360808062000529960152019162002bfb565b90816020910312620003e3575190565b9190915f838201938412911290801582169115161762000aeb57565b6040516325f56f1160e01b81526001600160a01b0392916060908290819062002d09906004830162002c20565b03815f877f0000000000000000000000000000000000000000000000000000000000000000165af192831562000935575f915f905f9562002e47575b50841562002dec578162002d5862002435565b16917f000000000000000000000000000000000000000000000000000000000000000016821462002de457509060205f92600460405180958193634641257d60e01b83525af1908115620009355762002dba925f9262002dbe575b5062002cc0565b9190565b62002ddc91925060203d6020116200118c576200117c8183620004aa565b905f62002db3565b908162002df2575b50509190565b803b15620003e357604051636ee3193160e11b815260048101929092525f908290602490829084905af18015620009355762002e30575b8062002dec565b806200094b62002e409262000458565b5f62002e29565b9194505062002e72915060603d60601162002e7b575b62002e698183620004aa565b81019062002bd9565b93905f62002d45565b503d62002e5d565b600160ff1b811462000aeb575f0390565b8015620023b95762002eac6200186760cf5460801c90565b5f821262002fb1578162002ec091620024e6565b9062002eeb62002ed08362003879565b6001600160801b0360cf549181199060801b1691161760cf55565b62002f02609c549161ffff8360a01c169062002ac4565b801562002fac57807f555ee6b2ef9506d870f386c067e47d3689435330b012ad263d8cc353186865479362002f436200186760cf546001600160801b031690565b8062002f9257505062002f8d90925b6001600160a01b03169162002f68848462004589565b60405193849384604091949392606082019560018060a01b0316825260208201520152565b0390a1565b62002f8d9262002fa59203908462002b40565b9262002f52565b505050565b9062002fbd9062002e83565b62002fd46200186760d5546001600160801b031690565b8062003000575b508062002fe6575050565b62002ffa62002ed09162000ea493620023ee565b62003879565b90620030637f3623a54e8078be0d90ecfbef82da6a31ff3e6be8aa1718e7a7f3d0d33ff1d32a9162003053620019c1620030476200303f8888620024e6565b878562002b40565b80809403960362003879565b6040519081529081906020820190565b0390a15f62002fdb565b6001600160a01b03908116919082158015620030d4575b620006db57825f5260d360205260405f209081549285840393841162000aeb575f805160206200503a83398151915293602093551693845f5260d3825260405f20818154019055604051908152a3565b508082161562003084565b6040515f905f5490620030f28262000409565b9283825260209384830193600190866001821691825f14620031f2575050600114620031aa575b5050918162003133620031a49362002619950382620004aa565b519020604080517f8b73c3c69bb8fe3d512ecc4cf759cc79239f7b179b0ffacaa9a75d522b39400f95810195865260208601929092527fc89efdaa54c0f20c7adf612882df0950f5a951637e0307cdcb4c672f298b8bc69085015246606085015230608085015291829060a0850190565b51902090565b5f80805286935091905f8051602062004ffa8339815191525b828410620031dc57505050820101816200313362003119565b80548685018601528794909301928101620031c3565b60ff1916875292151560051b8501909201925083915062003133905062003119565b91906200322062003cbe565b6080820151906200323062003cbe565b6001600160a01b0384168015620006db57620032dd94620032cc93620032b0926001600160601b0360a01b60375416176037557f2013570c343af8ab14a9778150e381a0fda34ed6368127a95fd5e7210cbec5bf60405160208152806200329d33946020830190620004ef565b0390a2602085015161ffff169062003d00565b620032bc835162003d56565b620032c662003d8a565b62003dbe565b606060408201519101519062003df0565b62000ea462003f39565b6001600160a01b037f0000000000000000000000000000000000000000000000000000000000000000811630811491821562003327575b50506200122057565b5f805160206200501a8339815191525416141590505f806200331e565b906200334f62004073565b91820180921162000aeb571090565b4760d0548060801c820391821162000aeb5781620033866001600160801b038093166200233e565b9081620033b2575b505081156200242f576200052991620033ac9160d5541690620040b7565b620040c5565b9192509081811115620033ca57035b905f806200338e565b50505f620033c1565b620033dd6200335e565b9160d65492830180931162000aeb57808311156200342e5762003402920390620040b7565b9060d5548060801c80155f14620034195750508190565b6001600160801b036200052992168462002b40565b5050505f905f90565b90604051604081018181106001600160401b038211176200046c5760405291546001600160a01b038116835260a01c6020830152565b60d1545f9485949390918084108015906200361b575b6200360e5783620035d7575f5b60d15f526001600160a01b0316620034b85f805160206200505a833981519152860162003437565b8051909790620034d1906001600160a01b0316620007a2565b98620034f8620034ec6020809b01516001600160601b031690565b6001600160601b031690565b948381108015620035cc575b620035ba5791600193979a956200352762003534939488035b838c0390620040b7565b8092019887039162002b40565b01970193808611801590620035af575b620035a45760d15f5282906200356a5f805160206200505a833981519152870162003437565b805190890151969992966001600160a01b039091169460019392620035349290916001600160601b0390911690620035279088036200351d565b945050509250509190565b508185101562003544565b60405163e8722f8f60e01b8152600490fd5b50808b111562003504565b60d15f527f695fb3134ad82c3b8022bc5464edd0bcc9424ef672b52245dcb6ab2374327ce28401546001600160a01b031662003490565b505093505050505f905f90565b50841562003483565b604051633eb1acf760e11b81523060048201526020816024817f00000000000000000000000000000000000000000000000000000000000000006001600160a01b03165afa90811562000935575f9162003693575b506200368157565b60405163e775715160e01b8152600490fd5b620036b0915060203d6020116200109657620010858183620004aa565b5f62003679565b604290467f0000000000000000000000000000000000000000000000000000000000000000036200376d5761010a54905b62003703620036fb60408301836200279e565b369162000ec2565b602081519101206040519060208201927f838af86bfca91ada6557e38d913af1c2f24ef9b2567b3b77cc9e1144314b35b0845235604083015260608201526060815262003750816200048e565b5190206040519161190160f01b8352600283015260228201522090565b6200377762004101565b90620036e8565b600411156200378957565b634e487b7160e01b5f52602160045260245ffd5b620037a98383620041d1565b50620037b8819592956200377e565b15938462003862575b508315620037d0575b50505090565b5f9293509082916040516200380b81620026196020820194630b135d3f60e11b998a87526024840152604060448401526064830190620004ef565b51915afa906200381a620028d6565b8262003853575b8262003833575b50505f8080620037ca565b6200384a9192506020808251830101910162002cb0565b145f8062003828565b91506020825110159162003821565b6001600160a01b0383811691161493505f620037c1565b6001600160801b03908181116200388e571690565b604490604051906306dfcc6560e41b8252608060048301526024820152fd5b907f9b779b17422d0df92223018b32b4d1fa46e071723d6817e2486d003becc55f009160028354146200393a576002835581471062003922575f918291829182916001600160a01b03165af162003903620028d6565b5015620039105760019055565b604051630a12f52160e11b8152600490fd5b60405163cd78605960e01b8152306004820152602490fd5b604051633ee5aeb560e01b8152600490fd5b60cf54906001600160801b038216811580156200397f575b15620039705750905090565b620005299260801c9162002b40565b50801562003964565b60cf546001600160801b0381169082158015620039e0575b15620039ab57505090565b60801c90620039bc82828562002b40565b928215620027f25709620039cd5790565b60018101809111156200052957620023da565b508115620039a0565b620039f362003624565b6001600160a01b0316801562003a3c57609c80546001600160a01b03191682179055337faaebcf1bfa00580e41d966056b48521fa9f202645c86d4ddf28113e617c1b1d35f80a3565b604051630ed1b8b360e31b8152600490fd5b919062003a5a62003624565b6001600160a01b038316908115620006db57801562003b14578062003a856200186760cf5460801c90565b019362003a91620024d7565b851162003b025762002ed09462003ac09162003aba62003ab18562003988565b97889362003879565b62004589565b60408051918252602082018590525f9082015233907f861a4138e41fb21c121a7dbb1053df465c837fc77380cc7226189a662281be2c9080606081015b0390a3565b6040516304ffa0ff60e51b8152600490fd5b6040516318374fd160e21b8152600490fd5b9092919262003b3462003624565b6001600160a01b038216918215620006db57811562003b14578162003b5f6200186760cf5460801c90565b0162003b6a620024d7565b811162003b025762002ed09562003bb962003afd927f861a4138e41fb21c121a7dbb1053df465c837fc77380cc7226189a662281be2c9462003aba62003bb08862003988565b9a8b9362003879565b60408051948552602085018890526001600160a01b039091169084015233929081906060820190565b805f526102088060205260405f2054155f146200242f576102078054600160401b8110156200046c5760018101808355811015620028c35783907f1ad7755b1dd0ab14588b5852415a5ca516498ebfb507c5447b8dda56bd2668c2015554915f5260205260405f2055600190565b805f5261020a8060205260405f2054155f146200242f576102098054600160401b8110156200046c5760018101808355811015620028c35783907f99e87348be6dc95028197b5a6b69c6a7a15df569de2f3d37542e8f40b8bae486015554915f5260205260405f2055600190565b60ff7ff0c57e16840df040f15088dc2f81fe391c3923bec73e23a9662efc9c229c6a005460401c161562003cee57565b604051631afcd79f60e31b8152600490fd5b62003d0a62003cbe565b61271061ffff83161162003d445762003d2390620039e9565b609c805461ffff60a01b191660a09290921b61ffff60a01b16919091179055565b604051638a81d3b360e01b8152600490fd5b62003d6062003cbe565b801562003d78576001810162003d735750565b60d455565b6040516331278a8760e01b8152600490fd5b62003d9462003cbe565b6801bc16d674ec80000062003da8620024d7565b1062003d785762003db862004101565b61010a55565b62003dc862003cbe565b6001600160a01b03168062003dda5750565b61016e80546001600160a01b0319169091179055565b62003dfa62003cbe565b601e815111801562003f2d575b62003f1b5762003e1662003cbe565b8051906001600160401b0382116200046c5762003e3f8262003e395f5462000409565b62004746565b602090816001601f85111462003ea05750918062003e799262003e8195945f9262003e94575b50508160011b915f199060031b1c19161790565b5f556200481b565b62000ea462003e8f620030df565b600455565b015190505f8062003e65565b5f80529190601f1984165f8051602062004ffa833981519152935f905b82821062003f0257505091600193918562003e819796941062003ee9575b505050811b015f556200481b565b01515f1960f88460031b161c191690555f808062003edb565b8060018697829497870151815501960194019062003ebd565b604051632d3f993760e21b8152600490fd5b50600a82511162003e07565b62003f4362003cbe565b62003f4d62003cbe565b62003f5762003cbe565b60017f9b779b17422d0df92223018b32b4d1fa46e071723d6817e2486d003becc55f0055633b9aca00341062003f9357620023b9343062003a4e565b60405163ea2559bb60e01b8152600490fd5b90816020910312620003e35751620005298162001f62565b6040516352d1902d60e01b81529290916020846004816001600160a01b0387165afa5f94816200404d575b506200400f57604051634c9c8ce360e01b81526001600160a01b0384166004820152602490fd5b90915f805160206200501a8339815191528403620040345762000ea492935062004906565b604051632a87526960e21b815260048101859052602490fd5b6200406b91955060203d6020116200118c576200117c8183620004aa565b935f62003fe8565b60d154806200408157505f90565b60d15f527f695fb3134ad82c3b8022bc5464edd0bcc9424ef672b52245dcb6ab2374327ce201546001600160a01b0316620007a2565b908082101562002a9d575090565b60d554908160801c81158015620040f8575b15620040e35750905090565b6001600160801b036200052993169162002b40565b508015620040d7565b6e5661756c7456616c696461746f727360881b6020604051620041248162000472565b600f8152015260405160208101907f8b73c3c69bb8fe3d512ecc4cf759cc79239f7b179b0ffacaa9a75d522b39400f82527f35d6cf9768d8be929c3a11ed667b1560ae6f1920195a985758fdd7265505d1ca60408201527fc89efdaa54c0f20c7adf612882df0950f5a951637e0307cdcb4c672f298b8bc660608201524660808201523060a082015260a0815260c081018181106001600160401b038211176200046c5760405251902090565b81519190604183036200420457620041fd9250602082015190606060408401519301515f1a90620049ae565b9192909190565b50505f9160029190565b90603011620003e35790603090565b909291928360b011620003e3578311620003e35760b0019160af190190565b90609011620003e35760300190606090565b9060c411620003e35760900190603490565b90939293848311620003e3578411620003e3578101920390565b35906020811062004289575090565b5f199060200360031b1b1690565b959493620042c9620042d893620042ba6060969460808b5260808b0190620026dc565b9089820360208b0152620004ef565b918783036040890152620026f4565b930152565b96959490620042d893620042ba620042c9926060979560808c5260808c0191620026f4565b90602062000529928181520190620026dc565b91602062000529938181520191620026f4565b7f00000000000000000000000000000000000000000000000000000000000000006001600160a01b03169160c480820492905f9081805b86841062004371575050505050505050565b826200438291018092878762004260565b906200438f82826200420e565b91620043a8620043a18580846200421d565b9062004a46565b90620043cd620043c6620043bd87846200423c565b9790936200424e565b906200427a565b948c3b15620003e3578c5f926801bc16d674ec8000006040956200440987519a8b96879586946304512a2360e31b86528d8d60048801620042dd565b03925af190811562000935577f64b6e61d93b7a91e8cc4376183ede0997a27b44fd9dd2f30a866b2a5730efdb1946200444e926200445e575b50519283928362004315565b0390a1600181930192906200435f565b806200094b6200446e9262000458565b5f62004442565b81603011620003e3577f00000000000000000000000000000000000000000000000000000000000000006001600160a01b031691620044ba620043a18280856200421d565b620044c682846200423c565b94909260b011620003e357803b15620003e3576200450f946801bc16d674ec8000005f94604051978895869485936304512a2360e31b855260908b0135928b6004870162004297565b03925af190811562000935577f64b6e61d93b7a91e8cc4376183ede0997a27b44fd9dd2f30a866b2a5730efdb19262002f8d9262004556575b506040519182918262004302565b806200094b620045669262000458565b5f62004548565b9190916001600160801b038080941691160191821162000aeb57565b5f805160206200503a83398151915260205f92620045a78562003879565b60cf5490620045c16001600160801b03918284166200456d565b6fffffffffffffffffffffffffffffffff1990921691161760cf556001600160a01b031680845260d3825260408085208054870190555194855293a3565b60d054906001600160801b038216918215620047405760801c6200463a620046288247620023ee565b62004633856200233e565b90620040b7565b90811562004739576200464d826200394c565b938415620047315782620046a66200189e62002ffa62000ea49662002ed096620046a06200468462002ffa8d620047259a620023ee565b6001600160801b03166001600160801b031960d054161760d055565b620024e6565b620046b2818762004b68565b60408051878152602081018390527f624ea167e477f9d39f7f4094b9dfe2e6346eb4a7aada54338db51abd554c4b9f9190a162002ffa62004709620046f78862003879565b60cf546001600160801b031662002812565b6001600160801b03166001600160801b031960cf54161760cf55565b60cf5460801c62002812565b505f93505050565b505f925050565b505f9150565b601f811162004753575050565b5f80525f8051602062004ffa833981519152906020601f840160051c830193106200479a575b601f0160051c01905b8181106200478e575050565b5f815560010162004782565b909150819062004779565b90601f8211620047b3575050565b60019160015f527fb10e2d527612073b26eecdfd717e6a320cf44b4afac2b0732d9fcbe2b7fa0cf6906020601f840160051c8301931062004810575b601f0160051c01905b8181106200480557505050565b5f81558201620047f8565b9091508190620047ef565b9081516001600160401b0381116200046c57600190620048478162004841845462000409565b620047a5565b602080601f83116001146200487f575081906200487b9394955f9262003e945750508160011b915f199060031b1c19161790565b9055565b90601f19831695620048b260015f527fb10e2d527612073b26eecdfd717e6a320cf44b4afac2b0732d9fcbe2b7fa0cf690565b925f905b888210620048ee5750508385969710620048d5575b505050811b019055565b01515f1960f88460031b161c191690555f8080620048cb565b808785968294968601518155019501930190620048b6565b90813b156200498d575f805160206200501a83398151915280546001600160a01b0319166001600160a01b0384169081179091557fbc7cd75a20ee27fd9adebab32041f755214dbc6bffa90cc0225b39da2e5c2d3b5f80a28051156200497157620023b99162004c4b565b5050346200497b57565b60405163b398979f60e01b8152600490fd5b604051634c9c8ce360e01b81526001600160a01b0383166004820152602490fd5b90917f7fffffffffffffffffffffffffffffff5d576e7357a4501ddfe92f46681b20a0841162004a3b579062004a096020945f9493604051948594859094939260ff6060936080840197845216602083015260408201520152565b838052039060015afa1562000935575f516001600160a01b0381161562004a3157905f905f90565b505f906001905f90565b5050505f9160039190565b6014820362004afa576bffffffffffffffffffffffff19919035828116916014811062004ae4575b5050905060601c62004a9062001797825f5261020860205260405f2054151590565b62004ad25760408051600160f81b60208201525f602182015260609290921b6bffffffffffffffffffffffff1916602c83015262000529908290810162002619565b604051632899266560e21b8152600490fd5b8391925060140360031b1b1616805f8062004a6e565b604051639be7315960e01b8152600490fd5b60d15490600160401b8210156200046c57600182018060d155821015620028c35760d15f52805160209091015160a01b6001600160a01b0319166001600160a01b0391909116175f805160206200505a83398151915290910155565b9190918015801562004c42575b62004c305762004b8462004073565b90810180911162000aeb576001600160a01b0380821162004c10576001600160601b039081851162004bf0579062000ea4939462004bd962004bea9362004bca62000e95565b95166001600160a01b03168552565b166001600160601b03166020830152565b62004b0c565b6040516306dfcc6560e41b81526060600482015260248101869052604490fd5b6040516306dfcc6560e41b815260a0600482015260248101839052604490fd5b604051632ec8835b60e21b8152600490fd5b50821562004b75565b5f806200052993602081519101845af462004c65620028d6565b9162004cdb565b6001600160a01b03165f81815260d36020526040902080548381039190821162000aeb575f935f805160206200503a833981519152926020925562004cb18162003879565b60cf54906001600160801b03908183160316906001600160801b0319161760cf55604051908152a3565b9062004cf257508051156200391057805190602001fd5b8151158062004d27575b62004d05575090565b604051639996b31560e01b81526001600160a01b039091166004820152602490fd5b50803b1562004cfc56fe60806040526102c8803803806100148161018e565b92833981019060408183031261018a5780516001600160a01b03811680820361018a5760208381015190936001600160401b03821161018a570184601f8201121561018a5780519061006d610068836101c7565b61018e565b9582875285838301011161018a5784905f5b8381106101765750505f9186010152813b1561015e577f360894a13ba1a3210667c828492db98dca3e2076cc3735a920a3ca505d382bbc80546001600160a01b03191682179055604051907fbc7cd75a20ee27fd9adebab32041f755214dbc6bffa90cc0225b39da2e5c2d3b5f80a283511561014057505f80848461012796519101845af4903d15610137573d610118610068826101c7565b9081525f81943d92013e6101e2565b505b604051608290816102468239f35b606092506101e2565b925050503461014f5750610129565b63b398979f60e01b8152600490fd5b60249060405190634c9c8ce360e01b82526004820152fd5b81810183015188820184015286920161007f565b5f80fd5b6040519190601f01601f191682016001600160401b038111838210176101b357604052565b634e487b7160e01b5f52604160045260245ffd5b6001600160401b0381116101b357601f01601f191660200190565b9061020957508051156101f757805190602001fd5b604051630a12f52160e11b8152600490fd5b8151158061023c575b61021a575090565b604051639996b31560e01b81526001600160a01b039091166004820152602490fd5b50803b1561021256fe60806040527f360894a13ba1a3210667c828492db98dca3e2076cc3735a920a3ca505d382bbc545f9081906001600160a01b0316368280378136915af43d5f803e156048573d5ff35b3d5ffdfea2646970667358221220590de6162af1aca5f7d380e459394ce97dc6a2e4a2575dd7c58d5d1cb01c826d64736f6c63430008160033290decd9548b62a8d60345a988386fc84ba6bc95484008f6362f93160ef3e563360894a13ba1a3210667c828492db98dca3e2076cc3735a920a3ca505d382bbcddf252ad1be2c89b69c2b068fc378daa952ba7f163c4a11628f55a4df523b3ef695fb3134ad82c3b8022bc5464edd0bcc9424ef672b52245dcb6ab2374327ce3a2646970667358221220b68208d0deab7c9c59eb855ba27d59d822fe3b48d9358094385ee0075b985d1464736f6c63430008160033",
  "linkReferences": {},
  "deployedLinkReferences": {}
}