{
  "_format": "hh-sol-artifact-1",
  "contractName": "EthRestakeVault",
  "sourceName": "contracts/vaults/ethereum/restake/EthRestakeVault.sol",
  "abi": [
    {
      "inputs": [
        {
          "internalType": "address",
          "name": "_keeper",
          "type": "address"
        },
        {
          "internalType": "address",
          "name": "_vaultsRegistry",
          "type": "address"
        },
        {
          "internalType": "address",
          "name": "_validatorsRegistry",
          "type": "address"
        },
        {
          "internalType": "address",
          "name": "sharedMevEscrow",
          "type": "address"
        },
        {
          "internalType": "address",
          "name": "depositDataRegistry",
          "type": "address"
        },
        {
          "internalType": "address",
          "name": "eigenPodOwnerImplementation",
          "type": "address"
        },
        {
          "internalType": "uint256",
          "name": "exitingAssetsClaimDelay",
          "type": "uint256"
        }
      ],
      "stateMutability": "nonpayable",
      "type": "constructor"
    },
    {
      "inputs": [],
      "name": "AccessDenied",
      "type": "error"
    },
    {
      "inputs": [
        {
          "internalType": "address",
          "name": "target",
          "type": "address"
        }
      ],
      "name": "AddressEmptyCode",
      "type": "error"
    },
    {
      "inputs": [
        {
          "internalType": "address",
          "name": "account",
          "type": "address"
        }
      ],
      "name": "AddressInsufficientBalance",
      "type": "error"
    },
    {
      "inputs": [],
      "name": "CapacityExceeded",
      "type": "error"
    },
    {
      "inputs": [
        {
          "internalType": "address",
          "name": "implementation",
          "type": "address"
        }
      ],
      "name": "ERC1967InvalidImplementation",
      "type": "error"
    },
    {
      "inputs": [],
      "name": "ERC1967NonPayable",
      "type": "error"
    },
    {
      "inputs": [],
      "name": "EigenPodNotFound",
      "type": "error"
    },
    {
      "inputs": [],
      "name": "ExitRequestNotProcessed",
      "type": "error"
    },
    {
      "inputs": [],
      "name": "FailedInnerCall",
      "type": "error"
    },
    {
      "inputs": [],
      "name": "InsufficientAssets",
      "type": "error"
    },
    {
      "inputs": [],
      "name": "InvalidAssets",
      "type": "error"
    },
    {
      "inputs": [],
      "name": "InvalidCapacity",
      "type": "error"
    },
    {
      "inputs": [],
      "name": "InvalidCheckpointIndex",
      "type": "error"
    },
    {
      "inputs": [],
      "name": "InvalidCheckpointValue",
      "type": "error"
    },
    {
      "inputs": [],
      "name": "InvalidFeePercent",
      "type": "error"
    },
    {
      "inputs": [],
      "name": "InvalidFeeRecipient",
      "type": "error"
    },
    {
      "inputs": [],
      "name": "InvalidInitialization",
      "type": "error"
    },
    {
      "inputs": [],
      "name": "InvalidSecurityDeposit",
      "type": "error"
    },
    {
      "inputs": [],
      "name": "InvalidShares",
      "type": "error"
    },
    {
      "inputs": [],
      "name": "InvalidValidators",
      "type": "error"
    },
    {
      "inputs": [],
      "name": "InvalidWithdrawalCredentials",
      "type": "error"
    },
    {
      "inputs": [],
      "name": "MathOverflowedMulDiv",
      "type": "error"
    },
    {
      "inputs": [],
      "name": "NotHarvested",
      "type": "error"
    },
    {
      "inputs": [],
      "name": "NotInitializing",
      "type": "error"
    },
    {
      "inputs": [],
      "name": "ReentrancyGuardReentrantCall",
      "type": "error"
    },
    {
      "inputs": [
        {
          "internalType": "uint8",
          "name": "bits",
          "type": "uint8"
        },
        {
          "internalType": "uint256",
          "name": "value",
          "type": "uint256"
        }
      ],
      "name": "SafeCastOverflowedUintDowncast",
      "type": "error"
    },
    {
      "inputs": [],
      "name": "UUPSUnauthorizedCallContext",
      "type": "error"
    },
    {
      "inputs": [
        {
          "internalType": "bytes32",
          "name": "slot",
          "type": "bytes32"
        }
      ],
      "name": "UUPSUnsupportedProxiableUUID",
      "type": "error"
    },
    {
      "inputs": [],
      "name": "UpgradeFailed",
      "type": "error"
    },
    {
      "inputs": [],
      "name": "ValueNotChanged",
      "type": "error"
    },
    {
      "inputs": [],
      "name": "ZeroAddress",
      "type": "error"
    },
    {
      "anonymous": false,
      "inputs": [
        {
          "indexed": false,
          "internalType": "uint256",
          "name": "shares",
          "type": "uint256"
        },
        {
          "indexed": false,
          "internalType": "uint256",
          "name": "assets",
          "type": "uint256"
        }
      ],
      "name": "CheckpointCreated",
      "type": "event"
    },
    {
      "anonymous": false,
      "inputs": [
        {
          "indexed": true,
          "internalType": "address",
          "name": "caller",
          "type": "address"
        },
        {
          "indexed": true,
          "internalType": "address",
          "name": "receiver",
          "type": "address"
        },
        {
          "indexed": false,
          "internalType": "uint256",
          "name": "assets",
          "type": "uint256"
        },
        {
          "indexed": false,
          "internalType": "uint256",
          "name": "shares",
          "type": "uint256"
        },
        {
          "indexed": false,
          "internalType": "address",
          "name": "referrer",
          "type": "address"
        }
      ],
      "name": "Deposited",
      "type": "event"
    },
    {
      "anonymous": false,
      "inputs": [
        {
          "indexed": false,
          "internalType": "address",
          "name": "eigenPodOwner",
          "type": "address"
        },
        {
          "indexed": false,
          "internalType": "address",
          "name": "eigenPod",
          "type": "address"
        }
      ],
      "name": "EigenPodCreated",
      "type": "event"
    },
    {
      "anonymous": false,
      "inputs": [
        {
          "indexed": true,
          "internalType": "address",
          "name": "owner",
          "type": "address"
        },
        {
          "indexed": true,
          "internalType": "address",
          "name": "receiver",
          "type": "address"
        },
        {
          "indexed": false,
          "internalType": "uint256",
          "name": "positionTicket",
          "type": "uint256"
        },
        {
          "indexed": false,
          "internalType": "uint256",
          "name": "shares",
          "type": "uint256"
        }
      ],
      "name": "ExitQueueEntered",
      "type": "event"
    },
    {
      "anonymous": false,
      "inputs": [
        {
          "indexed": true,
          "internalType": "address",
          "name": "receiver",
          "type": "address"
        },
        {
          "indexed": false,
          "internalType": "uint256",
          "name": "prevPositionTicket",
          "type": "uint256"
        },
        {
          "indexed": false,
          "internalType": "uint256",
          "name": "newPositionTicket",
          "type": "uint256"
        },
        {
          "indexed": false,
          "internalType": "uint256",
          "name": "withdrawnAssets",
          "type": "uint256"
        }
      ],
      "name": "ExitedAssetsClaimed",
      "type": "event"
    },
    {
      "anonymous": false,
      "inputs": [
        {
          "indexed": false,
          "internalType": "uint256",
          "name": "penalty",
          "type": "uint256"
        }
      ],
      "name": "ExitingAssetsPenalized",
      "type": "event"
    },
    {
      "anonymous": false,
      "inputs": [
        {
          "indexed": true,
          "internalType": "address",
          "name": "caller",
          "type": "address"
        },
        {
          "indexed": true,
          "internalType": "address",
          "name": "feeRecipient",
          "type": "address"
        }
      ],
      "name": "FeeRecipientUpdated",
      "type": "event"
    },
    {
      "anonymous": false,
      "inputs": [
        {
          "indexed": false,
          "internalType": "address",
          "name": "receiver",
          "type": "address"
        },
        {
          "indexed": false,
          "internalType": "uint256",
          "name": "shares",
          "type": "uint256"
        },
        {
          "indexed": false,
          "internalType": "uint256",
          "name": "assets",
          "type": "uint256"
        }
      ],
      "name": "FeeSharesMinted",
      "type": "event"
    },
    {
      "anonymous": false,
      "inputs": [
        {
          "indexed": false,
          "internalType": "uint64",
          "name": "version",
          "type": "uint64"
        }
      ],
      "name": "Initialized",
      "type": "event"
    },
    {
      "anonymous": false,
      "inputs": [
        {
          "indexed": true,
          "internalType": "address",
          "name": "caller",
          "type": "address"
        },
        {
          "indexed": true,
          "internalType": "address",
          "name": "keysManager",
          "type": "address"
        }
      ],
      "name": "KeysManagerUpdated",
      "type": "event"
    },
    {
      "anonymous": false,
      "inputs": [
        {
          "indexed": true,
          "internalType": "address",
          "name": "caller",
          "type": "address"
        },
        {
          "indexed": false,
          "internalType": "string",
          "name": "metadataIpfsHash",
          "type": "string"
        }
      ],
      "name": "MetadataUpdated",
      "type": "event"
    },
    {
      "anonymous": false,
      "inputs": [
        {
          "indexed": true,
          "internalType": "address",
          "name": "owner",
          "type": "address"
        },
        {
          "indexed": true,
          "internalType": "address",
          "name": "receiver",
          "type": "address"
        },
        {
          "indexed": false,
          "internalType": "uint256",
          "name": "assets",
          "type": "uint256"
        },
        {
          "indexed": false,
          "internalType": "uint256",
          "name": "shares",
          "type": "uint256"
        }
      ],
      "name": "Redeemed",
      "type": "event"
    },
    {
      "anonymous": false,
      "inputs": [
        {
          "indexed": false,
          "internalType": "address",
          "name": "newRestakeOperatorsManager",
          "type": "address"
        }
      ],
      "name": "RestakeOperatorsManagerUpdated",
      "type": "event"
    },
    {
      "anonymous": false,
      "inputs": [
        {
          "indexed": false,
          "internalType": "address",
          "name": "newRestakeWithdrawalsManager",
          "type": "address"
        }
      ],
      "name": "RestakeWithdrawalsManagerUpdated",
      "type": "event"
    },
    {
      "anonymous": false,
      "inputs": [
        {
          "indexed": true,
          "internalType": "address",
          "name": "implementation",
          "type": "address"
        }
      ],
      "name": "Upgraded",
      "type": "event"
    },
    {
      "anonymous": false,
      "inputs": [
        {
          "indexed": true,
          "internalType": "address",
          "name": "owner",
          "type": "address"
        },
        {
          "indexed": true,
          "internalType": "address",
          "name": "receiver",
          "type": "address"
        },
        {
          "indexed": false,
          "internalType": "uint256",
          "name": "positionTicket",
          "type": "uint256"
        },
        {
          "indexed": false,
          "internalType": "uint256",
          "name": "shares",
          "type": "uint256"
        },
        {
          "indexed": false,
          "internalType": "uint256",
          "name": "assets",
          "type": "uint256"
        }
      ],
      "name": "V2ExitQueueEntered",
      "type": "event"
    },
    {
      "anonymous": false,
      "inputs": [
        {
          "indexed": false,
          "internalType": "bytes",
          "name": "publicKey",
          "type": "bytes"
        }
      ],
      "name": "ValidatorRegistered",
      "type": "event"
    },
    {
      "anonymous": false,
      "inputs": [
        {
          "indexed": true,
          "internalType": "address",
          "name": "caller",
          "type": "address"
        },
        {
          "indexed": true,
          "internalType": "address",
          "name": "validatorsManager",
          "type": "address"
        }
      ],
      "name": "ValidatorsManagerUpdated",
      "type": "event"
    },
    {
      "anonymous": false,
      "inputs": [
        {
          "indexed": true,
          "internalType": "address",
          "name": "caller",
          "type": "address"
        },
        {
          "indexed": true,
          "internalType": "bytes32",
          "name": "validatorsRoot",
          "type": "bytes32"
        }
      ],
      "name": "ValidatorsRootUpdated",
      "type": "event"
    },
    {
      "inputs": [],
      "name": "UPGRADE_INTERFACE_VERSION",
      "outputs": [
        {
          "internalType": "string",
          "name": "",
          "type": "string"
        }
      ],
      "stateMutability": "view",
      "type": "function"
    },
    {
      "inputs": [],
      "name": "admin",
      "outputs": [
        {
          "internalType": "address",
          "name": "",
          "type": "address"
        }
      ],
      "stateMutability": "view",
      "type": "function"
    },
    {
      "inputs": [
        {
          "internalType": "address",
          "name": "receiver",
          "type": "address"
        },
        {
          "internalType": "uint256",
          "name": "positionTicket",
          "type": "uint256"
        },
        {
          "internalType": "uint256",
          "name": "timestamp",
          "type": "uint256"
        },
        {
          "internalType": "uint256",
          "name": "exitQueueIndex",
          "type": "uint256"
        }
      ],
      "name": "calculateExitedAssets",
      "outputs": [
        {
          "internalType": "uint256",
          "name": "leftTickets",
          "type": "uint256"
        },
        {
          "internalType": "uint256",
          "name": "exitedTickets",
          "type": "uint256"
        },
        {
          "internalType": "uint256",
          "name": "exitedAssets",
          "type": "uint256"
        }
      ],
      "stateMutability": "view",
      "type": "function"
    },
    {
      "inputs": [],
      "name": "capacity",
      "outputs": [
        {
          "internalType": "uint256",
          "name": "",
          "type": "uint256"
        }
      ],
      "stateMutability": "view",
      "type": "function"
    },
    {
      "inputs": [
        {
          "internalType": "uint256",
          "name": "positionTicket",
          "type": "uint256"
        },
        {
          "internalType": "uint256",
          "name": "timestamp",
          "type": "uint256"
        },
        {
          "internalType": "uint256",
          "name": "exitQueueIndex",
          "type": "uint256"
        }
      ],
      "name": "claimExitedAssets",
      "outputs": [],
      "stateMutability": "nonpayable",
      "type": "function"
    },
    {
      "inputs": [
        {
          "internalType": "uint256",
          "name": "shares",
          "type": "uint256"
        }
      ],
      "name": "convertToAssets",
      "outputs": [
        {
          "internalType": "uint256",
          "name": "assets",
          "type": "uint256"
        }
      ],
      "stateMutability": "view",
      "type": "function"
    },
    {
      "inputs": [
        {
          "internalType": "uint256",
          "name": "assets",
          "type": "uint256"
        }
      ],
      "name": "convertToShares",
      "outputs": [
        {
          "internalType": "uint256",
          "name": "shares",
          "type": "uint256"
        }
      ],
      "stateMutability": "view",
      "type": "function"
    },
    {
      "inputs": [],
      "name": "createEigenPod",
      "outputs": [],
      "stateMutability": "nonpayable",
      "type": "function"
    },
    {
      "inputs": [
        {
          "internalType": "address",
          "name": "receiver",
          "type": "address"
        },
        {
          "internalType": "address",
          "name": "referrer",
          "type": "address"
        }
      ],
      "name": "deposit",
      "outputs": [
        {
          "internalType": "uint256",
          "name": "shares",
          "type": "uint256"
        }
      ],
      "stateMutability": "payable",
      "type": "function"
    },
    {
      "inputs": [
        {
          "internalType": "uint256",
          "name": "shares",
          "type": "uint256"
        },
        {
          "internalType": "address",
          "name": "receiver",
          "type": "address"
        }
      ],
      "name": "enterExitQueue",
      "outputs": [
        {
          "internalType": "uint256",
          "name": "positionTicket",
          "type": "uint256"
        }
      ],
      "stateMutability": "nonpayable",
      "type": "function"
    },
    {
      "inputs": [],
      "name": "feePercent",
      "outputs": [
        {
          "internalType": "uint16",
          "name": "",
          "type": "uint16"
        }
      ],
      "stateMutability": "view",
      "type": "function"
    },
    {
      "inputs": [],
      "name": "feeRecipient",
      "outputs": [
        {
          "internalType": "address",
          "name": "",
          "type": "address"
        }
      ],
      "stateMutability": "view",
      "type": "function"
    },
    {
      "inputs": [],
      "name": "getEigenPods",
      "outputs": [
        {
          "internalType": "address[]",
          "name": "",
          "type": "address[]"
        }
      ],
      "stateMutability": "view",
      "type": "function"
    },
    {
      "inputs": [
        {
          "internalType": "uint256",
          "name": "positionTicket",
          "type": "uint256"
        }
      ],
      "name": "getExitQueueIndex",
      "outputs": [
        {
          "internalType": "int256",
          "name": "",
          "type": "int256"
        }
      ],
      "stateMutability": "view",
      "type": "function"
    },
    {
      "inputs": [
        {
          "internalType": "address",
          "name": "account",
          "type": "address"
        }
      ],
      "name": "getShares",
      "outputs": [
        {
          "internalType": "uint256",
          "name": "",
          "type": "uint256"
        }
      ],
      "stateMutability": "view",
      "type": "function"
    },
    {
      "inputs": [],
      "name": "implementation",
      "outputs": [
        {
          "internalType": "address",
          "name": "",
          "type": "address"
        }
      ],
      "stateMutability": "view",
      "type": "function"
    },
    {
      "inputs": [
        {
          "internalType": "bytes",
          "name": "params",
          "type": "bytes"
        }
      ],
      "name": "initialize",
      "outputs": [],
      "stateMutability": "payable",
      "type": "function"
    },
    {
      "inputs": [],
      "name": "isStateUpdateRequired",
      "outputs": [
        {
          "internalType": "bool",
          "name": "",
          "type": "bool"
        }
      ],
      "stateMutability": "view",
      "type": "function"
    },
    {
      "inputs": [],
      "name": "mevEscrow",
      "outputs": [
        {
          "internalType": "address",
          "name": "",
          "type": "address"
        }
      ],
      "stateMutability": "view",
      "type": "function"
    },
    {
      "inputs": [
        {
          "internalType": "bytes[]",
          "name": "data",
          "type": "bytes[]"
        }
      ],
      "name": "multicall",
      "outputs": [
        {
          "internalType": "bytes[]",
          "name": "results",
          "type": "bytes[]"
        }
      ],
      "stateMutability": "nonpayable",
      "type": "function"
    },
    {
      "inputs": [],
      "name": "proxiableUUID",
      "outputs": [
        {
          "internalType": "bytes32",
          "name": "",
          "type": "bytes32"
        }
      ],
      "stateMutability": "view",
      "type": "function"
    },
    {
      "inputs": [],
      "name": "queuedShares",
      "outputs": [
        {
          "internalType": "uint128",
          "name": "",
          "type": "uint128"
        }
      ],
      "stateMutability": "view",
      "type": "function"
    },
    {
      "inputs": [],
      "name": "receiveFromMevEscrow",
      "outputs": [],
      "stateMutability": "payable",
      "type": "function"
    },
    {
      "inputs": [
        {
          "components": [
            {
              "internalType": "bytes32",
              "name": "validatorsRegistryRoot",
              "type": "bytes32"
            },
            {
              "internalType": "uint256",
              "name": "deadline",
              "type": "uint256"
            },
            {
              "internalType": "bytes",
              "name": "validators",
              "type": "bytes"
            },
            {
              "internalType": "bytes",
              "name": "signatures",
              "type": "bytes"
            },
            {
              "internalType": "string",
              "name": "exitSignaturesIpfsHash",
              "type": "string"
            }
          ],
          "internalType": "struct IKeeperValidators.ApprovalParams",
          "name": "keeperParams",
          "type": "tuple"
        },
        {
          "internalType": "bytes",
          "name": "validatorsManagerSignature",
          "type": "bytes"
        }
      ],
      "name": "registerValidators",
      "outputs": [],
      "stateMutability": "nonpayable",
      "type": "function"
    },
    {
      "inputs": [],
      "name": "restakeOperatorsManager",
      "outputs": [
        {
          "internalType": "address",
          "name": "",
          "type": "address"
        }
      ],
      "stateMutability": "view",
      "type": "function"
    },
    {
      "inputs": [],
      "name": "restakeWithdrawalsManager",
      "outputs": [
        {
          "internalType": "address",
          "name": "",
          "type": "address"
        }
      ],
      "stateMutability": "view",
      "type": "function"
    },
    {
      "inputs": [
        {
          "internalType": "address",
          "name": "_feeRecipient",
          "type": "address"
        }
      ],
      "name": "setFeeRecipient",
      "outputs": [],
      "stateMutability": "nonpayable",
      "type": "function"
    },
    {
      "inputs": [
        {
          "internalType": "string",
          "name": "metadataIpfsHash",
          "type": "string"
        }
      ],
      "name": "setMetadata",
      "outputs": [],
      "stateMutability": "nonpayable",
      "type": "function"
    },
    {
      "inputs": [
        {
          "internalType": "address",
          "name": "newRestakeOperatorsManager",
          "type": "address"
        }
      ],
      "name": "setRestakeOperatorsManager",
      "outputs": [],
      "stateMutability": "nonpayable",
      "type": "function"
    },
    {
      "inputs": [
        {
          "internalType": "address",
          "name": "newRestakeWithdrawalsManager",
          "type": "address"
        }
      ],
      "name": "setRestakeWithdrawalsManager",
      "outputs": [],
      "stateMutability": "nonpayable",
      "type": "function"
    },
    {
      "inputs": [
        {
          "internalType": "address",
          "name": "validatorsManager_",
          "type": "address"
        }
      ],
      "name": "setValidatorsManager",
      "outputs": [],
      "stateMutability": "nonpayable",
      "type": "function"
    },
    {
      "inputs": [],
      "name": "totalAssets",
      "outputs": [
        {
          "internalType": "uint256",
          "name": "",
          "type": "uint256"
        }
      ],
      "stateMutability": "view",
      "type": "function"
    },
    {
      "inputs": [],
      "name": "totalExitingAssets",
      "outputs": [
        {
          "internalType": "uint128",
          "name": "",
          "type": "uint128"
        }
      ],
      "stateMutability": "view",
      "type": "function"
    },
    {
      "inputs": [],
      "name": "totalShares",
      "outputs": [
        {
          "internalType": "uint256",
          "name": "",
          "type": "uint256"
        }
      ],
      "stateMutability": "view",
      "type": "function"
    },
    {
      "inputs": [
        {
          "components": [
            {
              "internalType": "bytes32",
              "name": "rewardsRoot",
              "type": "bytes32"
            },
            {
              "internalType": "int160",
              "name": "reward",
              "type": "int160"
            },
            {
              "internalType": "uint160",
              "name": "unlockedMevReward",
              "type": "uint160"
            },
            {
              "internalType": "bytes32[]",
              "name": "proof",
              "type": "bytes32[]"
            }
          ],
          "internalType": "struct IKeeperRewards.HarvestParams",
          "name": "harvestParams",
          "type": "tuple"
        }
      ],
      "name": "updateState",
      "outputs": [],
      "stateMutability": "nonpayable",
      "type": "function"
    },
    {
      "inputs": [
        {
          "internalType": "address",
          "name": "receiver",
          "type": "address"
        },
        {
          "internalType": "address",
          "name": "referrer",
          "type": "address"
        },
        {
          "components": [
            {
              "internalType": "bytes32",
              "name": "rewardsRoot",
              "type": "bytes32"
            },
            {
              "internalType": "int160",
              "name": "reward",
              "type": "int160"
            },
            {
              "internalType": "uint160",
              "name": "unlockedMevReward",
              "type": "uint160"
            },
            {
              "internalType": "bytes32[]",
              "name": "proof",
              "type": "bytes32[]"
            }
          ],
          "internalType": "struct IKeeperRewards.HarvestParams",
          "name": "harvestParams",
          "type": "tuple"
        }
      ],
      "name": "updateStateAndDeposit",
      "outputs": [
        {
          "internalType": "uint256",
          "name": "shares",
          "type": "uint256"
        }
      ],
      "stateMutability": "payable",
      "type": "function"
    },
    {
      "inputs": [
        {
          "internalType": "address",
          "name": "newImplementation",
          "type": "address"
        },
        {
          "internalType": "bytes",
          "name": "data",
          "type": "bytes"
        }
      ],
      "name": "upgradeToAndCall",
      "outputs": [],
      "stateMutability": "payable",
      "type": "function"
    },
    {
      "inputs": [],
      "name": "validatorsManager",
      "outputs": [
        {
          "internalType": "address",
          "name": "",
          "type": "address"
        }
      ],
      "stateMutability": "view",
      "type": "function"
    },
    {
      "inputs": [],
      "name": "vaultId",
      "outputs": [
        {
          "internalType": "bytes32",
          "name": "",
          "type": "bytes32"
        }
      ],
      "stateMutability": "pure",
      "type": "function"
    },
    {
      "inputs": [],
      "name": "version",
      "outputs": [
        {
          "internalType": "uint8",
          "name": "",
          "type": "uint8"
        }
      ],
      "stateMutability": "pure",
      "type": "function"
    },
    {
      "inputs": [],
      "name": "withdrawableAssets",
      "outputs": [
        {
          "internalType": "uint256",
          "name": "",
          "type": "uint256"
        }
      ],
      "stateMutability": "view",
      "type": "function"
    },
    {
      "stateMutability": "payable",
      "type": "receive"
    }
  ],
  "bytecode": "0x6101a034620001e457601f6200456c38819003918201601f19168301926001600160401b0392909183851183861017620001e8578160e09284926040978852833981010312620001e4576200005481620001fc565b926200006360208301620001fc565b9362000071828401620001fc565b916200008060608501620001fc565b926200008f60808601620001fc565b9660c0620000a060a08801620001fc565b9601519360805260a05260c0523060e052610100958652610120944686526101409283526101609384526101809485527ff0c57e16840df040f15088dc2f81fe391c3923bec73e23a9662efc9c229c6a009081549060ff82851c16620001d35780808316036200018e575b505050519361435a9586620002128739608051868181610f1601528181611193015281816125220152612e2d015260a05186610c28015260c051868181613b250152613c7b015260e051868181610dd40152612adf0152518561227301525184612eab0152518361136c015251828181611ca3015261256f015251816104750152f35b6001600160401b0319909116811790915581519081527fc7f505b2f371ae2175ee4913f4499e1f2633a7b5936321eed1cdaeb6115181d290602090a15f80806200010b565b835163f92ee8a960e01b8152600490fd5b5f80fd5b634e487b7160e01b5f52604160045260245ffd5b51906001600160a01b0382168203620001e45756fe6080604052600436101562000026575b36156200001a575f80fd5b62000024620022b6565b005b5f3560e01c806301e1d114146200030657806307a2d13a1462000300578063096ae80d14620002fa5780630b10b20114620002f457806318f7295014620002ee5780631a7ff55314620002e85780632cdf740114620002e25780633229fa9514620002dc57806333194c0a14620002d65780633a98ef3914620002d0578063439fab9114620002ca5780634690484014620002c45780634f1ef28614620002be57806352d1902d14620002b857806353156f2814620002b257806354fd4d5014620002ac5780635c60da1b14620002a65780635cfc1a5114620002a057806360d60e6e146200029a57806372b410a81462000294578063754c3888146200028e57806376b58b9014620002885780637b6341c614620002825780637fd6f15c146200027c57806383d430d514620002765780638697d2c214620002705780638ceab9aa146200026a578063a045dd0c1462000264578063a49a1e7d146200025e578063ac9650d81462000258578063ad3cb1cc1462000252578063b1f0e7c7146200024c578063c5aecb221462000246578063c6e6f5921462000240578063d83ad00c146200023a578063e74b981b1462000234578063ee3bd5df146200022e578063f04da65b1462000228578063f132f5d31462000222578063f851a440146200021c5763f9609f08036200000f5762001ba9565b62001b80565b62001b13565b62001ad4565b62001aac565b62001a77565b62001a4f565b62001a2d565b62001a0f565b620019f1565b620019a6565b62001921565b62001817565b620017d6565b620015d3565b6200133b565b62001136565b62001110565b6200104c565b62000ff0565b62000f7f565b62000ee9565b62000ec7565b62000ea9565b62000e72565b62000e55565b62000e2d565b62000dc0565b62000af8565b620009c8565b620007be565b62000734565b620006f8565b620006c8565b620006aa565b62000671565b6200060c565b6200040e565b62000379565b6200033d565b6200031b565b5f9103126200031757565b5f80fd5b3462000317575f3660031901126200031757602060985460801c604051908152f35b3462000317576020366003190112620003175760206200035f60043562001bd9565b604051908152f35b6001600160a01b038116036200031757565b346200031757602036600319011262000317576004356200039a8162000367565b61019d805490916001600160a01b039081169082168114620003fc577f890ff5077ab1949ce16449a660eb28ce16646b4c99e0901266d44a1042b1f9e89281602093620003e6620023d8565b6001600160a01b031916179055604051908152a1005b604051638c8728c760e01b8152600490fd5b3462000317575f36600319011262000317576200043a6200042e62002295565b6001600160a01b031690565b3303620005eb576040516102c8808201908282106001600160401b03831117620005e5578291620004ab916200401d84396001600160a01b037f00000000000000000000000000000000000000000000000000000000000000001681526040602082018190525f9082015260600190565b03905ff08015620005c1576001600160a01b0390811690813b15620003175760405163439fab9160e01b8152602060048201525f602482018190528160448183875af18015620005c157620005c7575b506040516351d5709b60e11b815291602083600481845afa918215620005c1577fcdc82cfed67d9b46d3a15dd3b48745fb894a354d554cb5da5fb8c440f85c108e935f9362000584575b5062000553908316620033cf565b506200055f816200343d565b50604080516001600160a01b039283168152929091166020830152819081015b0390a1005b62000553919350620005b19060203d602011620005b9575b620005a8818362000a6e565b81019062001c0d565b929062000545565b503d6200059c565b62001c02565b80620005d7620005de9262000a06565b806200030c565b5f620004fb565b620009f2565b604051634ca8886760e01b8152600490fd5b90816080910312620003175790565b60603660031901126200031757600435620006278162000367565b602435620006358162000367565b604435906001600160401b038211620003175760209262000669620006636200035f943690600401620005fd565b62001c25565b349062003313565b346200031757602036600319011262000317576004356001600160401b03811162000317576200066362000024913690600401620005fd565b3462000317575f366003190112620003175760206200035f62001c50565b3462000317575f36600319011262000317576020620006e662001c89565b6040516001600160a01b039091168152f35b3462000317575f366003190112620003175760206040517f43d6c07ac63953f42a28f0366affe9895fd54f84336314dd012087bd0941df678152f35b3462000317575f366003190112620003175760206001600160801b0360985416604051908152f35b9181601f8401121562000317578235916001600160401b0383116200031757602083818601950101116200031757565b60206003198201126200031757600435906001600160401b0382116200031757620007ba916004016200075c565b9091565b620007c9366200078c565b7ff0c57e16840df040f15088dc2f81fe391c3923bec73e23a9662efc9c229c6a009081549160409260ff81851c168015620009b3575b620009a25768ffffffffffffffffff191668010000000000000002179055815163e7f6f22560e01b8152926020918285600481335afa948515620005c1575f956200097e575b508351636f4fa30f60e01b8152908382600481335afa918215620005c1575f926200095a575b508201948383870312620003175782356001600160401b0393848211620003175701926060848803126200031757855193620008a78562000a1a565b803585528581013561ffff81168103620003175786860152868101359182116200031757019386601f8601121562000317577fc7f505b2f371ae2175ee4913f4499e1f2633a7b5936321eed1cdaeb6115181d296856200090f92620009199735910162000abd565b85840152620029c7565b7ff0c57e16840df040f15088dc2f81fe391c3923bec73e23a9662efc9c229c6a00805468ff000000000000000019169055516002815280602081016200057f565b62000976919250843d8611620005b957620005a8818362000a6e565b905f6200086b565b6200099a919550833d8511620005b957620005a8818362000a6e565b935f62000845565b835163f92ee8a960e01b8152600490fd5b5060026001600160401b0382161015620007ff565b3462000317575f36600319011262000317576065546040516001600160a01b039091168152602090f35b634e487b7160e01b5f52604160045260245ffd5b6001600160401b038111620005e557604052565b606081019081106001600160401b03821117620005e557604052565b604081019081106001600160401b03821117620005e557604052565b608081019081106001600160401b03821117620005e557604052565b90601f801991011681019081106001600160401b03821117620005e557604052565b6040519062000a9f8262000a36565b565b6001600160401b038111620005e557601f01601f191660200190565b92919262000acb8262000aa1565b9162000adb604051938462000a6e565b82948184528183011162000317578281602093845f960137010152565b6040806003193601126200031757600490813562000b168162000367565b6024356001600160401b038111620003175736602382011215620003175762000b49903690602481870135910162000abd565b9162000b5462002ad5565b80519262000b8f8462000b8060209363439fab9160e01b85840152846024840152604483019062001893565b03601f19810186528562000a6e565b62000b9962002ad5565b62000ba3620023d8565b6001600160a01b0383811680159291908790841562000d8f575b841562000d07575b841562000c99575b5050821562000bf9575b505062000bea57620000248383620037c6565b516355299b4960e01b81528390fd5b83516345da87c560e01b81526001600160a01b03861688820190815292935091839183918290819060200103917f0000000000000000000000000000000000000000000000000000000000000000165afa918215620005c1575f9262000c65575b5050155f8062000bd7565b62000c899250803d1062000c91575b62000c80818362000a6e565b81019062001dd9565b5f8062000c5a565b503d62000c74565b855163054fd4d560e41b81529294508391839182905afa908115620005c15760039160ff915f9162000cd3575b5016141591865f62000bcd565b62000cf89150843d861162000cff575b62000cef818362000a6e565b810190620037ab565b5f62000cc6565b503d62000ce3565b935050835163198ca60560e11b815282818981875afa908115620005c15788917f43d6c07ac63953f42a28f0366affe9895fd54f84336314dd012087bd0941df67915f9162000d5b575b5014159362000bc5565b62000d809150853d871162000d87575b62000d77818362000a6e565b810190620024c3565b5f62000d51565b503d62000d6b565b5f805160206200430583398151915254909450849062000db8906001600160a01b03166200042e565b149362000bbd565b3462000317575f36600319011262000317577f00000000000000000000000000000000000000000000000000000000000000006001600160a01b0316300362000e1b5760206040515f80516020620043058339815191528152f35b60405163703e46dd60e11b8152600490fd5b5f36600319011262000317576001600160a01b0362000e4b62001c89565b163303620005eb57005b3462000317575f3660031901126200031757602060405160028152f35b3462000317575f36600319011262000317575f8051602062004305833981519152546040516001600160a01b039091168152602090f35b3462000317575f366003190112620003175760206200035f62001cc5565b3462000317576020366003190112620003175760206200035f60043562001cfc565b3462000317575f3660031901126200031757604051633eb1acf760e11b81523060048201526020816024817f00000000000000000000000000000000000000000000000000000000000000006001600160a01b03165afa8015620005c1576020915f9162000f5d575b506040519015158152f35b62000f789150823d841162000c915762000c80818362000a6e565b5f62000f52565b3462000317576020366003190112620003175760043562000fa08162000367565b62000faa620023d8565b60d280546001600160a01b0319166001600160a01b03929092169182179055337f6bdc78d8c88160b3fc3638e67f2afe523b3f4c7d00c56ebb6216790e4c3eb2cb5f80a3005b34620003175760803660031901126200031757620010486200102b600435620010198162000367565b60643590604435906024359062001dfe565b604080519384526020840192909252908201529081906060820190565b0390f35b3462000317575f36600319011262000317576040518061019e805480845260208094019081925f527fe182ec4162b2bb087af6d462e45917a32b2b0170bcaf1db406b2ae4590b6953b905f5b86828210620010fb578686620010b18288038362000a6e565b60405192839281840190828552518091526040840192915f5b828110620010da57505050500390f35b83516001600160a01b031685528695509381019392810192600101620010ca565b83548552909301926001928301920162001098565b3462000317575f3660031901126200031757602061ffff60655460a01c16604051908152f35b346200031757600319604036820112620003175760049081356001600160401b03808211620003175760a0828501938336030112620003175760243590811162000317576200118990369085016200075c565b6001600160a01b037f00000000000000000000000000000000000000000000000000000000000000008116803b15620003175760405163837d444160e01b8152905f908290818381620011df8c828f0162001f2a565b03925af18015620005c15762001324575b50620011fb62002e12565b620012056200225e565b9081163314159182620012ed575b50509050620012dc576044019160c46200122e848462001fb4565b90500480158015620012c1575b620012b157620012556200124e62001c50565b916200200e565b11620012a2575060c46200126a838362001fb4565b9050145f146200128b576200002491620012849162001fb4565b9062003c70565b62000024916200129b9162001fb4565b9062003b23565b6040516396d8043360e01b8152fd5b50604051631c6c4cf360e31b8152fd5b50620012ce848462001fb4565b905060c4820214156200123b565b604051634ca8886760e01b81528390fd5b620013179250620013106200131b94620013078862002ea5565b92369162000abd565b9162002f8a565b1590565b805f8062001213565b80620005d7620013349262000a06565b5f620011f0565b346200031757606036600319011262000317576004356024356200136460443582843362001dfe565b9192620013927f00000000000000000000000000000000000000000000000000000000000000008262001ce8565b42108015620015ca575b8015620015c1575b620015af577feb3b05c070c24f667611fdb3ff75fe007d42401c573aed8d8faca95fd00ccb5693620013f986620013f3620013e76099546001600160801b031690565b6001600160801b031690565b62002b32565b156200150d57620014396200141e620014128662003066565b60995460801c62002028565b6001600160801b036099549181199060801b16911617609955565b60408051336020820190815291810184905260608082018990528152601f1993915f916200148091906200146f60808262000a6e565b5190205f52609b60205260405f2090565b555f9360018311620014bc575b505050506200149d82336200309a565b604080519485526020850191909152830152339180606081015b0390a2005b6200150292939450620014d0908862001ce8565b60408051336020820190815291810193909352606083018290526080958601835290949091906200146f908262000a6e565b555f8080806200148d565b6200151762002e12565b620015586200153c6200152a8662003066565b609e546001600160801b031662002028565b6001600160801b03166001600160801b0319609e541617609e55565b62001592620015776200156b8562003066565b609e5460801c62002028565b6001600160801b03609e549181199060801b16911617609e55565b620015a9620015a484609f5462001ce8565b609f55565b62001439565b604051630e3d8e8d60e11b8152600490fd5b508215620013a4565b5081156200139c565b346200031757604080600319360112620003175760243590600435620015f98362000367565b6200160362002e12565b8015620017c5576001600160a01b038316908115620017b457620016278162001bd9565b908115620017a3576200163a82620038c0565b620016458362003066565b60985460801c90620016579162002028565b62001677906001600160801b036098549181199060801b16911617609855565b62001683823362003f5b565b609e54958660801c8281609f54906200169c9162001ce8565b98620016a88762003066565b620016bc916001600160801b0316620034ab565b620016dd906001600160801b03166001600160801b0319609e541617609e55565b620016e89162001ce8565b620016f39062003066565b62001713906001600160801b03609e549181199060801b16911617609e55565b85516001600160a01b03919091166020820190815242604083015260608083018990528252906200174660808262000a6e565b5190206200175c905f52609b60205260405f2090565b5583518581526020810191909152604081019190915233907f869f12645d154414259c47bcb998b6b6983fae50e5e0c6053bc87d4330db9f2d90606090a351908152602090f35b83516318374fd160e21b8152600490fd5b825163d92e233d60e01b8152600490fd5b8151636edcc52360e01b8152600490fd5b3462000317575f366003190112620003175761019d546020906001600160a01b0390811680620018105750805f5416905b60405191168152f35b9062001807565b346200031757620014b77f2013570c343af8ab14a9778150e381a0fda34ed6368127a95fd5e7210cbec5bf6200184d366200078c565b929062001859620023d8565b604051918291602083523395602084019162001f0a565b5f5b838110620018825750505f910152565b818101518382015260200162001872565b90602091620018ae8151809281855285808601910162001870565b601f01601f1916010190565b6020808201906020835283518092526040830192602060408460051b8301019501935f915b848310620018f05750505050505090565b909192939495848062001910600193603f198682030187528a5162001893565b9801930193019194939290620018df565b346200031757602036600319011262000317576001600160401b036004358181116200031757366023820112156200031757806004013591821162000317573660248360051b830101116200031757620010489160246200198392016200219d565b60405191829182620018ba565b906020620019a392818152019062001893565b90565b3462000317575f366003190112620003175762001048604051620019ca8162000a36565b60058152640352e302e360dc1b602082015260405191829160208352602083019062001893565b3462000317575f36600319011262000317576020620006e66200225e565b3462000317575f36600319011262000317576020620006e662002295565b3462000317576020366003190112620003175760206200035f60043562003139565b3462000317575f366003190112620003175760206001600160801b0360995416604051908152f35b346200031757602036600319011262000317576200002460043562001a9c8162000367565b62001aa6620023d8565b620031d6565b3462000317575f366003190112620003175760206001600160801b03609e5416604051908152f35b3462000317576020366003190112620003175760043562001af58162000367565b60018060a01b03165f52609c602052602060405f2054604051908152f35b3462000317576020366003190112620003175760043562001b348162000367565b61019c805490916001600160a01b039081169082168114620003fc577f399f9aba7ac1bda99e0bee41ebd93a32387a0f37b3934265478e96121dac166d9281602093620003e6620023d8565b3462000317575f36600319011262000317575f546040516001600160a01b039091168152602090f35b6040366003190112620003175760206200035f60043562001bca8162000367565b60243590620006698262000367565b6098546001600160801b038116908162001bf257505090565b91620019a39260801c9062002354565b6040513d5f823e3d90fd5b90816020910312620003175751620019a38162000367565b62001c3462001c3c91620024ef565b9190620026a7565b62001c4357565b62001c4d62002880565b50565b476099546001600160801b0362001c6981831662001bd9565b90609e5416019060801c01908181115f1462001c83570390565b50505f90565b610137546001600160a01b0316801562001ca05790565b507f000000000000000000000000000000000000000000000000000000000000000090565b609d5480620019a357505f1990565b634e487b7160e01b5f52601160045260245ffd5b9190820180921162001cf657565b62001cd4565b6001600160801b036099541662001d126200387c565b90810180911162001cf657811062001d4c5762001d3c609f5462001d3562002b4c565b9062001ce8565b111562001d47575f90565b5f1990565b609a90609a549182915f905b84821062001d745750505081101562001d6e5790565b505f1990565b909193808316906001818518811c830180931162001cf6575f8790525f80516020620042e58339815191528301546001600160a01b031684101562001dbf575050935b919062001d58565b90959101925062001db7565b519081151582036200031757565b908160209103126200031757620019a39062001dcb565b9190820391821162001cf657565b604080516001600160a01b0390921660208301908152908201939093526060810182905290919062001e3e81608081015b03601f19810183528262000a6e565b5190205f52609b60205260405f205491821562001eb3576001600160801b03609954169062001e6c6200387c565b91820180921162001cf657839183101562001e9e579162001e8d9262002c5b565b90915b82810390811162001cf65792565b509062001eab9162002bc1565b909162001e90565b5050505f905f905f90565b9035601e1982360301811215620003175701602081359101916001600160401b038211620003175781360383136200031757565b90603060609281835260208301375f60508201520190565b908060209392818452848401375f828201840152601f01601f1916010190565b9060a0620019a39260208152823560208201526020830135604082015262001f6b62001f5a604085018562001ebe565b84606085015260c084019162001f0a565b9062001fa462001f9862001f83606087018762001ebe565b601f1985870381016080870152959162001f0a565b94608081019062001ebe565b9390928286030191015262001f0a565b903590601e19813603018212156200031757018035906001600160401b03821162000317576020019181360383136200031757565b634e487b7160e01b5f52601260045260245ffd5b811562002008570490565b62001fe9565b906801bc16d674ec800000918083029283040362001cf657565b6001600160801b03918216908216039190821162001cf657565b6001600160401b038111620005e55760051b60200190565b90620020668262002042565b62002075604051918262000a6e565b828152809262002088601f199162002042565b01905f5b8281106200209957505050565b8060606020809385010152016200208c565b634e487b7160e01b5f52603260045260245ffd5b90821015620020d957620007ba9160051b81019062001fb4565b620020ab565b908092918237015f815290565b3d156200211b573d90620021008262000aa1565b9162002110604051938462000a6e565b82523d5f602084013e565b606090565b60208183031262000317578051906001600160401b03821162000317570181601f8201121562000317578051620021578162000aa1565b9262002167604051948562000a6e565b818452602082840101116200031757620019a3916020808501910162001870565b8051821015620020d95760209160051b010190565b919091620021ab836200205a565b925f5b818110620021bb57505050565b5f80620021ca838587620020bf565b60409391620021de855180938193620020df565b0390305af490620021ee620020ec565b91156200221b57509060019162002206828862002188565b5262002213818762002188565b5001620021ae565b90604481511062000317576200225a620022446004928381015160248091830101910162002120565b925162461bcd60e51b8152928392830162001990565b0390fd5b60d2546001600160a01b031680620019a357507f000000000000000000000000000000000000000000000000000000000000000090565b61019c546001600160a01b0390811680620022b157505f541690565b905090565b335f526101a160205260405f205415620022cc57565b62001c4d34336200323b565b90808202905f19818409908280831092039180830392146200234957612710908282111562002337577fbc01a36e2eb1c432ca57a786c226809d495182a9930be0ded288ce703afb7e91940990828211900360fc1b910360041c170290565b60405163227bc15360e01b8152600490fd5b505061271091500490565b9091828202915f1984820993838086109503948086039514620023c957848311156200233757829109815f038216809204600280826003021880830282030280830282030280830282030280830282030280830282030280920290030293600183805f03040190848311900302920304170290565b505090620019a3925062001ffd565b5f546001600160a01b03163303620005eb57565b908160609103126200031757805191620019a360406020840151930162001dcb565b81835290916001600160fb1b038311620003175760209260051b809284830137010190565b90602082528035602083015260208101358060130b809103620003175760408301526040810135620024658162000367565b6001600160a01b031660608381019190915281013536829003601e1901811215620003175701602081359101906001600160401b03811162000317578060051b36038213620003175760a083608080620019a396015201916200240e565b9081602091031262000317575190565b9190915f838201938412911290801582169115161762001cf657565b6040516325f56f1160e01b81526001600160a01b039291606090829081906200251c906004830162002433565b03815f877f0000000000000000000000000000000000000000000000000000000000000000165af1928315620005c1575f915f905f956200265a575b508415620025ff57816200256b62001c89565b16917f0000000000000000000000000000000000000000000000000000000000000000168214620025f757509060205f92600460405180958193634641257d60e01b83525af1908115620005c157620025cd925f92620025d1575b50620024d3565b9190565b620025ef91925060203d60201162000d875762000d77818362000a6e565b905f620025c6565b908162002605575b50509190565b803b156200031757604051636ee3193160e11b815260048101929092525f908290602490829084905af18015620005c15762002643575b80620025ff565b80620005d7620026539262000a06565b5f6200263c565b9194505062002685915060603d6060116200268e575b6200267c818362000a6e565b810190620023ec565b93905f62002558565b503d62002670565b600160ff1b811462001cf6575f0390565b801562001c4d57620026bf620013e760985460801c90565b5f8212620027c45781620026d39162001ce8565b90620026fe620026e38362003066565b6001600160801b036098549181199060801b16911617609855565b620027156065549161ffff8360a01c1690620022d8565b8015620027bf57807f555ee6b2ef9506d870f386c067e47d3689435330b012ad263d8cc353186865479362002756620013e76098546001600160801b031690565b80620027a5575050620027a090925b6001600160a01b0316916200277b8484620034c7565b60405193849384604091949392606082019560018060a01b0316825260208201520152565b0390a1565b620027a092620027b89203908462002354565b9262002765565b505050565b90620027d09062002696565b620027e7620013e7609e546001600160801b031690565b8062002813575b5080620027f9575050565b6200280d620026e39162000a9f9362001df0565b62003066565b90620028767f3623a54e8078be0d90ecfbef82da6a31ff3e6be8aa1718e7a7f3d0d33ff1d32a91620028666200153c6200285a62002852888862001ce8565b878562002354565b80809403960362003066565b6040519081529081906020820190565b0390a15f620027ee565b609954906001600160801b038216918215620029c15760801c620028bb620028a9824762001df0565b620028b48562001bd9565b9062003517565b908115620029ba57620028ce8262003139565b938415620029b25782620029276200141e6200280d62000a9f96620026e39662002921620029056200280d8d620029a69a62001df0565b6001600160801b03166001600160801b03196099541617609955565b62001ce8565b62002933818762003581565b60408051878152602081018390527f624ea167e477f9d39f7f4094b9dfe2e6346eb4a7aada54338db51abd554c4b9f9190a16200280d6200298a620029788862003066565b6098546001600160801b031662002028565b6001600160801b03166001600160801b03196098541617609855565b60985460801c62002028565b505f93505050565b505f925050565b505f9150565b620029d162003664565b6040830151620029e062003664565b6001600160a01b038216801562002ac3576001600160601b0360a01b5f5416175f557f2013570c343af8ab14a9778150e381a0fda34ed6368127a95fd5e7210cbec5bf604051602081528062002a3c3394602083019062001893565b0390a260208301519262002a4f62003664565b61271061ffff85161162002ab15762002aa79362002a7162002a9793620031d6565b6065805461ffff60a01b191660a09290921b61ffff60a01b1691909117905551620036a6565b62002aa1620036da565b6200370d565b62000a9f6200373f565b604051638a81d3b360e01b8152600490fd5b60405163d92e233d60e01b8152600490fd5b6001600160a01b037f0000000000000000000000000000000000000000000000000000000000000000811630811491821562002b15575b505062000e1b57565b5f80516020620043058339815191525416141590505f8062002b0c565b9062002b3d6200387c565b91820180921162001cf6571090565b476099548060801c820391821162001cf6578162002b746001600160801b0380931662001bd9565b908162002ba0575b5050811562001c8357620019a39162002b9a91609e54169062003517565b620038c0565b919250908181111562002bb857035b905f8062002b7c565b50505f62002baf565b62002bcb62002b4c565b91609f5492830180931162001cf6578083111562002c1c5762002bf092039062003517565b90609e548060801c80155f1462002c075750508190565b6001600160801b03620019a392168462002354565b5050505f905f90565b90604051604081018181106001600160401b03821117620005e55760405291546001600160a01b038116835260a01c6020830152565b609a545f94859493909180841080159062002e09575b62002dfc578362002dc5575f5b609a5f526001600160a01b031662002ca65f80516020620042e5833981519152860162002c25565b805190979062002cbf906001600160a01b03166200042e565b9862002ce662002cda6020809b01516001600160601b031690565b6001600160601b031690565b94838110801562002dba575b62002da85791600193979a9562002d1562002d22939488035b838c039062003517565b8092019887039162002354565b0197019380861180159062002d9d575b62002d9257609a5f52829062002d585f80516020620042e5833981519152870162002c25565b805190890151969992966001600160a01b03909116946001939262002d229290916001600160601b039091169062002d1590880362002d0b565b945050509250509190565b508185101562002d32565b60405163e8722f8f60e01b8152600490fd5b50808b111562002cf2565b609a5f527f44da158ba27f9252712a74ff6a55c5d531f69609f1f6e7f17c4443a8e2089be38401546001600160a01b031662002c7e565b505093505050505f905f90565b50841562002c71565b604051633eb1acf760e11b81523060048201526020816024817f00000000000000000000000000000000000000000000000000000000000000006001600160a01b03165afa908115620005c1575f9162002e81575b5062002e6f57565b60405163e775715160e01b8152600490fd5b62002e9e915060203d60201162000c915762000c80818362000a6e565b5f62002e67565b604290467f00000000000000000000000000000000000000000000000000000000000000000362002f5a5760d354905b62002ef062002ee8604083018362001fb4565b369162000abd565b602081519101206040519060208201927f838af86bfca91ada6557e38d913af1c2f24ef9b2567b3b77cc9e1144314b35b0845235604083015260608201526060815262002f3d8162000a52565b5190206040519161190160f01b8352600283015260228201522090565b62002f64620038fc565b9062002ed5565b6004111562002f7657565b634e487b7160e01b5f52602160045260245ffd5b62002f968383620039cc565b5062002fa58195929562002f6b565b1593846200304f575b50831562002fbd575b50505090565b5f92935090829160405162002ff88162001e2f6020820194630b135d3f60e11b998a8752602484015260406044840152606483019062001893565b51915afa9062003007620020ec565b8262003040575b8262003020575b50505f808062002fb7565b6200303791925060208082518301019101620024c3565b145f8062003015565b9150602082511015916200300e565b6001600160a01b0383811691161493505f62002fae565b6001600160801b03908181116200307b571690565b604490604051906306dfcc6560e41b8252608060048301526024820152fd5b907f9b779b17422d0df92223018b32b4d1fa46e071723d6817e2486d003becc55f009160028354146200312757600283558147106200310f575f918291829182916001600160a01b03165af1620030f0620020ec565b5015620030fd5760019055565b604051630a12f52160e11b8152600490fd5b60405163cd78605960e01b8152306004820152602490fd5b604051633ee5aeb560e01b8152600490fd5b609854906001600160801b038216811580156200316c575b156200315d5750905090565b620019a39260801c9162002354565b50801562003151565b6098546001600160801b0381169082158015620031cd575b156200319857505090565b60801c90620031a982828562002354565b928215620020085709620031ba5790565b6001810180911115620019a35762001cd4565b5081156200318d565b620031e062002e12565b6001600160a01b031680156200322957606580546001600160a01b03191682179055337faaebcf1bfa00580e41d966056b48521fa9f202645c86d4ddf28113e617c1b1d35f80a3565b604051630ed1b8b360e31b8152600490fd5b91906200324762002e12565b6001600160a01b03831690811562002ac357801562003301578062003272620013e760985460801c90565b01936200327e62001cc5565b8511620032ef57620026e394620032ad91620032a76200329e8562003175565b97889362003066565b620034c7565b60408051918252602082018590525f9082015233907f861a4138e41fb21c121a7dbb1053df465c837fc77380cc7226189a662281be2c9080606081015b0390a3565b6040516304ffa0ff60e51b8152600490fd5b6040516318374fd160e21b8152600490fd5b909291926200332162002e12565b6001600160a01b03821691821562002ac35781156200330157816200334c620013e760985460801c90565b016200335762001cc5565b8111620032ef57620026e395620033a6620032ea927f861a4138e41fb21c121a7dbb1053df465c837fc77380cc7226189a662281be2c94620032a76200339d8862003175565b9a8b9362003066565b60408051948552602085018890526001600160a01b039091169084015233929081906060820190565b805f5261019f8060205260405f2054155f1462001c835761019e8054600160401b811015620005e55760018101808355811015620020d95783907fe182ec4162b2bb087af6d462e45917a32b2b0170bcaf1db406b2ae4590b6953b015554915f5260205260405f2055600190565b805f526101a18060205260405f2054155f1462001c83576101a08054600160401b811015620005e55760018101808355811015620020d95783907f7980fe0f714a613298681d64b7b8ffa7b148338dd52429f307d72798d5c317c4015554915f5260205260405f2055600190565b9190916001600160801b038080941691160191821162001cf657565b620034d28262003066565b60985490620034ec6001600160801b0391828416620034ab565b16906001600160801b0319161760985560018060a01b03165f52609c60205260405f20908154019055565b9080821015620022b1575090565b609a5490600160401b821015620005e5576001820180609a55821015620020d957609a5f52805160209091015160a01b6001600160a01b0319166001600160a01b0391909116175f80516020620042e583398151915290910155565b919091801580156200365b575b62003649576200359d6200387c565b90810180911162001cf6576001600160a01b0380821162003629576001600160601b039081851162003609579062000a9f9394620035f26200360393620035e362000a90565b95166001600160a01b03168552565b166001600160601b03166020830152565b62003525565b6040516306dfcc6560e41b81526060600482015260248101869052604490fd5b6040516306dfcc6560e41b815260a0600482015260248101839052604490fd5b604051632ec8835b60e21b8152600490fd5b5082156200358e565b60ff7ff0c57e16840df040f15088dc2f81fe391c3923bec73e23a9662efc9c229c6a005460401c16156200369457565b604051631afcd79f60e31b8152600490fd5b620036b062003664565b8015620036c85760018101620036c35750565b609d55565b6040516331278a8760e01b8152600490fd5b620036e462003664565b6801bc16d674ec800000620036f862001cc5565b10620036c85762003708620038fc565b60d355565b6200371762003664565b6001600160a01b031680620037295750565b61013780546001600160a01b0319169091179055565b6200374962003664565b6200375362003664565b6200375d62003664565b60017f9b779b17422d0df92223018b32b4d1fa46e071723d6817e2486d003becc55f0055633b9aca003410620037995762001c4d34306200323b565b60405163ea2559bb60e01b8152600490fd5b9081602091031262000317575160ff81168103620003175790565b6040516352d1902d60e01b81529290916020846004816001600160a01b0387165afa5f948162003856575b506200381857604051634c9c8ce360e01b81526001600160a01b0384166004820152602490fd5b90915f805160206200430583398151915284036200383d5762000a9f92935062003d68565b604051632a87526960e21b815260048101859052602490fd5b6200387491955060203d60201162000d875762000d77818362000a6e565b935f620037f1565b609a54806200388a57505f90565b609a5f527f44da158ba27f9252712a74ff6a55c5d531f69609f1f6e7f17c4443a8e2089be301546001600160a01b03166200042e565b609e54908160801c81158015620038f3575b15620038de5750905090565b6001600160801b03620019a393169162002354565b508015620038d2565b6e5661756c7456616c696461746f727360881b60206040516200391f8162000a36565b600f8152015260405160208101907f8b73c3c69bb8fe3d512ecc4cf759cc79239f7b179b0ffacaa9a75d522b39400f82527f35d6cf9768d8be929c3a11ed667b1560ae6f1920195a985758fdd7265505d1ca60408201527fc89efdaa54c0f20c7adf612882df0950f5a951637e0307cdcb4c672f298b8bc660608201524660808201523060a082015260a0815260c081018181106001600160401b03821117620005e55760405251902090565b8151919060418303620039ff57620039f89250602082015190606060408401519301515f1a9062003e10565b9192909190565b50505f9160029190565b90603011620003175790603090565b909291928360b01162000317578311620003175760b0019160af190190565b90609011620003175760300190606090565b9060c411620003175760900190603490565b909392938483116200031757841162000317578101920390565b35906020811062003a84575090565b5f199060200360031b1b1690565b95949362003ac462003ad39362003ab56060969460808b5260808b019062001ef2565b9089820360208b015262001893565b91878303604089015262001f0a565b930152565b9695949062003ad39362003ab562003ac4926060979560808c5260808c019162001f0a565b906020620019a392818152019062001ef2565b916020620019a393818152019162001f0a565b7f00000000000000000000000000000000000000000000000000000000000000006001600160a01b03169160c480820492905f9081805b86841062003b6c575050505050505050565b8262003b7d91018092878762003a5b565b9062003b8a828262003a09565b9162003ba362003b9c85808462003a18565b9062003e95565b9062003bc862003bc162003bb8878462003a37565b97909362003a49565b9062003a75565b948c3b1562000317578c5f926801bc16d674ec80000060409562003c0487519a8b96879586946304512a2360e31b86528d8d6004880162003ad8565b03925af1908115620005c1577f64b6e61d93b7a91e8cc4376183ede0997a27b44fd9dd2f30a866b2a5730efdb19462003c499262003c59575b50519283928362003b10565b0390a16001819301929062003b5a565b80620005d762003c699262000a06565b5f62003c3d565b8160301162000317577f00000000000000000000000000000000000000000000000000000000000000006001600160a01b03169162003cb562003b9c82808562003a18565b62003cc1828462003a37565b94909260b0116200031757803b15620003175762003d0a946801bc16d674ec8000005f94604051978895869485936304512a2360e31b855260908b0135928b6004870162003a92565b03925af1908115620005c1577f64b6e61d93b7a91e8cc4376183ede0997a27b44fd9dd2f30a866b2a5730efdb192620027a09262003d51575b506040519182918262003afd565b80620005d762003d619262000a06565b5f62003d43565b90813b1562003def575f805160206200430583398151915280546001600160a01b0319166001600160a01b0384169081179091557fbc7cd75a20ee27fd9adebab32041f755214dbc6bffa90cc0225b39da2e5c2d3b5f80a280511562003dd35762001c4d9162003fab565b50503462003ddd57565b60405163b398979f60e01b8152600490fd5b604051634c9c8ce360e01b81526001600160a01b0383166004820152602490fd5b91907f7fffffffffffffffffffffffffffffff5d576e7357a4501ddfe92f46681b20a0841162003e8a579160209360809260ff5f9560405194855216868401526040830152606082015282805260015afa15620005c1575f516001600160a01b0381161562003e8057905f905f90565b505f906001905f90565b5050505f9160039190565b6014820362003f49576bffffffffffffffffffffffff19919035828116916014811062003f33575b5050905060601c62003edf62001317825f5261019f60205260405f2054151590565b62003f215760408051600160f81b60208201525f602182015260609290921b6bffffffffffffffffffffffff1916602c830152620019a3908290810162001e2f565b604051632899266560e21b8152600490fd5b8391925060140360031b1b1616805f8062003ebd565b604051639be7315960e01b8152600490fd5b60018060a01b03165f52609c60205260405f2090815481810390811162001cf65762003f88925562003066565b609854906001600160801b03908183160316906001600160801b03191617609855565b5f80620019a393602081519101845af462003fc5620020ec565b919062003fdd5750805115620030fd57805190602001fd5b8151158062004012575b62003ff0575090565b604051639996b31560e01b81526001600160a01b039091166004820152602490fd5b50803b1562003fe756fe60806040526102c8803803806100148161018e565b92833981019060408183031261018a5780516001600160a01b03811680820361018a5760208381015190936001600160401b03821161018a570184601f8201121561018a5780519061006d610068836101c7565b61018e565b9582875285838301011161018a5784905f5b8381106101765750505f9186010152813b1561015e577f360894a13ba1a3210667c828492db98dca3e2076cc3735a920a3ca505d382bbc80546001600160a01b03191682179055604051907fbc7cd75a20ee27fd9adebab32041f755214dbc6bffa90cc0225b39da2e5c2d3b5f80a283511561014057505f80848461012796519101845af4903d15610137573d610118610068826101c7565b9081525f81943d92013e6101e2565b505b604051608290816102468239f35b606092506101e2565b925050503461014f5750610129565b63b398979f60e01b8152600490fd5b60249060405190634c9c8ce360e01b82526004820152fd5b81810183015188820184015286920161007f565b5f80fd5b6040519190601f01601f191682016001600160401b038111838210176101b357604052565b634e487b7160e01b5f52604160045260245ffd5b6001600160401b0381116101b357601f01601f191660200190565b9061020957508051156101f757805190602001fd5b604051630a12f52160e11b8152600490fd5b8151158061023c575b61021a575090565b604051639996b31560e01b81526001600160a01b039091166004820152602490fd5b50803b1561021256fe60806040527f360894a13ba1a3210667c828492db98dca3e2076cc3735a920a3ca505d382bbc545f9081906001600160a01b0316368280378136915af43d5f803e156048573d5ff35b3d5ffdfea2646970667358221220590de6162af1aca5f7d380e459394ce97dc6a2e4a2575dd7c58d5d1cb01c826d64736f6c6343000816003344da158ba27f9252712a74ff6a55c5d531f69609f1f6e7f17c4443a8e2089be4360894a13ba1a3210667c828492db98dca3e2076cc3735a920a3ca505d382bbca2646970667358221220fa998e0f720a3b6c86d4486b23f1ab9d407deb883f0b2b5826894f6e1ae1ee1d64736f6c63430008160033",
  "linkReferences": {},
  "deployedLinkReferences": {}
}