{
  "_format": "hh-sol-artifact-1",
  "contractName": "EthVault",
  "sourceName": "contracts/vaults/ethereum/EthVault.sol",
  "abi": [
    {
      "inputs": [
        {
          "internalType": "address",
          "name": "_keeper",
          "type": "address"
        },
        {
          "internalType": "address",
          "name": "_vaultsRegistry",
          "type": "address"
        },
        {
          "internalType": "address",
          "name": "_validatorsRegistry",
          "type": "address"
        },
        {
          "internalType": "address",
          "name": "osTokenVaultController",
          "type": "address"
        },
        {
          "internalType": "address",
          "name": "osTokenConfig",
          "type": "address"
        },
        {
          "internalType": "address",
          "name": "sharedMevEscrow",
          "type": "address"
        },
        {
          "internalType": "uint256",
          "name": "exitedAssetsClaimDelay",
          "type": "uint256"
        }
      ],
      "stateMutability": "nonpayable",
      "type": "constructor"
    },
    {
      "inputs": [],
      "name": "AccessDenied",
      "type": "error"
    },
    {
      "inputs": [
        {
          "internalType": "address",
          "name": "target",
          "type": "address"
        }
      ],
      "name": "AddressEmptyCode",
      "type": "error"
    },
    {
      "inputs": [
        {
          "internalType": "address",
          "name": "account",
          "type": "address"
        }
      ],
      "name": "AddressInsufficientBalance",
      "type": "error"
    },
    {
      "inputs": [],
      "name": "CapacityExceeded",
      "type": "error"
    },
    {
      "inputs": [],
      "name": "ClaimTooEarly",
      "type": "error"
    },
    {
      "inputs": [],
      "name": "Collateralized",
      "type": "error"
    },
    {
      "inputs": [
        {
          "internalType": "address",
          "name": "implementation",
          "type": "address"
        }
      ],
      "name": "ERC1967InvalidImplementation",
      "type": "error"
    },
    {
      "inputs": [],
      "name": "ERC1967NonPayable",
      "type": "error"
    },
    {
      "inputs": [],
      "name": "FailedInnerCall",
      "type": "error"
    },
    {
      "inputs": [],
      "name": "InsufficientAssets",
      "type": "error"
    },
    {
      "inputs": [],
      "name": "InvalidAssets",
      "type": "error"
    },
    {
      "inputs": [],
      "name": "InvalidCapacity",
      "type": "error"
    },
    {
      "inputs": [],
      "name": "InvalidCheckpointIndex",
      "type": "error"
    },
    {
      "inputs": [],
      "name": "InvalidCheckpointValue",
      "type": "error"
    },
    {
      "inputs": [],
      "name": "InvalidFeePercent",
      "type": "error"
    },
    {
      "inputs": [],
      "name": "InvalidFeeRecipient",
      "type": "error"
    },
    {
      "inputs": [],
      "name": "InvalidHealthFactor",
      "type": "error"
    },
    {
      "inputs": [],
      "name": "InvalidInitialization",
      "type": "error"
    },
    {
      "inputs": [],
      "name": "InvalidLtv",
      "type": "error"
    },
    {
      "inputs": [],
      "name": "InvalidPosition",
      "type": "error"
    },
    {
      "inputs": [],
      "name": "InvalidProof",
      "type": "error"
    },
    {
      "inputs": [],
      "name": "InvalidReceivedAssets",
      "type": "error"
    },
    {
      "inputs": [],
      "name": "InvalidSecurityDeposit",
      "type": "error"
    },
    {
      "inputs": [],
      "name": "InvalidShares",
      "type": "error"
    },
    {
      "inputs": [],
      "name": "InvalidValidator",
      "type": "error"
    },
    {
      "inputs": [],
      "name": "InvalidValidators",
      "type": "error"
    },
    {
      "inputs": [],
      "name": "LowLtv",
      "type": "error"
    },
    {
      "inputs": [],
      "name": "MathOverflowedMulDiv",
      "type": "error"
    },
    {
      "inputs": [],
      "name": "MerkleProofInvalidMultiproof",
      "type": "error"
    },
    {
      "inputs": [],
      "name": "NotCollateralized",
      "type": "error"
    },
    {
      "inputs": [],
      "name": "NotHarvested",
      "type": "error"
    },
    {
      "inputs": [],
      "name": "NotInitializing",
      "type": "error"
    },
    {
      "inputs": [],
      "name": "RedemptionExceeded",
      "type": "error"
    },
    {
      "inputs": [],
      "name": "ReentrancyGuardReentrantCall",
      "type": "error"
    },
    {
      "inputs": [
        {
          "internalType": "uint8",
          "name": "bits",
          "type": "uint8"
        },
        {
          "internalType": "uint256",
          "name": "value",
          "type": "uint256"
        }
      ],
      "name": "SafeCastOverflowedUintDowncast",
      "type": "error"
    },
    {
      "inputs": [],
      "name": "UUPSUnauthorizedCallContext",
      "type": "error"
    },
    {
      "inputs": [
        {
          "internalType": "bytes32",
          "name": "slot",
          "type": "bytes32"
        }
      ],
      "name": "UUPSUnsupportedProxiableUUID",
      "type": "error"
    },
    {
      "inputs": [],
      "name": "UpgradeFailed",
      "type": "error"
    },
    {
      "inputs": [],
      "name": "ZeroAddress",
      "type": "error"
    },
    {
      "anonymous": false,
      "inputs": [
        {
          "indexed": false,
          "internalType": "uint256",
          "name": "shares",
          "type": "uint256"
        },
        {
          "indexed": false,
          "internalType": "uint256",
          "name": "assets",
          "type": "uint256"
        }
      ],
      "name": "CheckpointCreated",
      "type": "event"
    },
    {
      "anonymous": false,
      "inputs": [
        {
          "indexed": true,
          "internalType": "address",
          "name": "caller",
          "type": "address"
        },
        {
          "indexed": true,
          "internalType": "address",
          "name": "receiver",
          "type": "address"
        },
        {
          "indexed": false,
          "internalType": "uint256",
          "name": "assets",
          "type": "uint256"
        },
        {
          "indexed": false,
          "internalType": "uint256",
          "name": "shares",
          "type": "uint256"
        },
        {
          "indexed": false,
          "internalType": "address",
          "name": "referrer",
          "type": "address"
        }
      ],
      "name": "Deposited",
      "type": "event"
    },
    {
      "anonymous": false,
      "inputs": [
        {
          "indexed": true,
          "internalType": "address",
          "name": "owner",
          "type": "address"
        },
        {
          "indexed": true,
          "internalType": "address",
          "name": "receiver",
          "type": "address"
        },
        {
          "indexed": false,
          "internalType": "uint256",
          "name": "positionTicket",
          "type": "uint256"
        },
        {
          "indexed": false,
          "internalType": "uint256",
          "name": "shares",
          "type": "uint256"
        }
      ],
      "name": "ExitQueueEntered",
      "type": "event"
    },
    {
      "anonymous": false,
      "inputs": [
        {
          "indexed": true,
          "internalType": "address",
          "name": "receiver",
          "type": "address"
        },
        {
          "indexed": false,
          "internalType": "uint256",
          "name": "prevPositionTicket",
          "type": "uint256"
        },
        {
          "indexed": false,
          "internalType": "uint256",
          "name": "newPositionTicket",
          "type": "uint256"
        },
        {
          "indexed": false,
          "internalType": "uint256",
          "name": "withdrawnAssets",
          "type": "uint256"
        }
      ],
      "name": "ExitedAssetsClaimed",
      "type": "event"
    },
    {
      "anonymous": false,
      "inputs": [
        {
          "indexed": true,
          "internalType": "address",
          "name": "caller",
          "type": "address"
        },
        {
          "indexed": true,
          "internalType": "address",
          "name": "feeRecipient",
          "type": "address"
        }
      ],
      "name": "FeeRecipientUpdated",
      "type": "event"
    },
    {
      "anonymous": false,
      "inputs": [
        {
          "indexed": false,
          "internalType": "address",
          "name": "receiver",
          "type": "address"
        },
        {
          "indexed": false,
          "internalType": "uint256",
          "name": "shares",
          "type": "uint256"
        },
        {
          "indexed": false,
          "internalType": "uint256",
          "name": "assets",
          "type": "uint256"
        }
      ],
      "name": "FeeSharesMinted",
      "type": "event"
    },
    {
      "anonymous": false,
      "inputs": [
        {
          "indexed": false,
          "internalType": "uint64",
          "name": "version",
          "type": "uint64"
        }
      ],
      "name": "Initialized",
      "type": "event"
    },
    {
      "anonymous": false,
      "inputs": [
        {
          "indexed": true,
          "internalType": "address",
          "name": "caller",
          "type": "address"
        },
        {
          "indexed": true,
          "internalType": "address",
          "name": "keysManager",
          "type": "address"
        }
      ],
      "name": "KeysManagerUpdated",
      "type": "event"
    },
    {
      "anonymous": false,
      "inputs": [
        {
          "indexed": true,
          "internalType": "address",
          "name": "caller",
          "type": "address"
        },
        {
          "indexed": false,
          "internalType": "string",
          "name": "metadataIpfsHash",
          "type": "string"
        }
      ],
      "name": "MetadataUpdated",
      "type": "event"
    },
    {
      "anonymous": false,
      "inputs": [
        {
          "indexed": true,
          "internalType": "address",
          "name": "caller",
          "type": "address"
        },
        {
          "indexed": false,
          "internalType": "uint256",
          "name": "assets",
          "type": "uint256"
        },
        {
          "indexed": false,
          "internalType": "uint256",
          "name": "shares",
          "type": "uint256"
        }
      ],
      "name": "OsTokenBurned",
      "type": "event"
    },
    {
      "anonymous": false,
      "inputs": [
        {
          "indexed": true,
          "internalType": "address",
          "name": "caller",
          "type": "address"
        },
        {
          "indexed": true,
          "internalType": "address",
          "name": "user",
          "type": "address"
        },
        {
          "indexed": false,
          "internalType": "address",
          "name": "receiver",
          "type": "address"
        },
        {
          "indexed": false,
          "internalType": "uint256",
          "name": "osTokenShares",
          "type": "uint256"
        },
        {
          "indexed": false,
          "internalType": "uint256",
          "name": "shares",
          "type": "uint256"
        },
        {
          "indexed": false,
          "internalType": "uint256",
          "name": "receivedAssets",
          "type": "uint256"
        }
      ],
      "name": "OsTokenLiquidated",
      "type": "event"
    },
    {
      "anonymous": false,
      "inputs": [
        {
          "indexed": true,
          "internalType": "address",
          "name": "caller",
          "type": "address"
        },
        {
          "indexed": false,
          "internalType": "address",
          "name": "receiver",
          "type": "address"
        },
        {
          "indexed": false,
          "internalType": "uint256",
          "name": "assets",
          "type": "uint256"
        },
        {
          "indexed": false,
          "internalType": "uint256",
          "name": "shares",
          "type": "uint256"
        },
        {
          "indexed": false,
          "internalType": "address",
          "name": "referrer",
          "type": "address"
        }
      ],
      "name": "OsTokenMinted",
      "type": "event"
    },
    {
      "anonymous": false,
      "inputs": [
        {
          "indexed": true,
          "internalType": "address",
          "name": "caller",
          "type": "address"
        },
        {
          "indexed": true,
          "internalType": "address",
          "name": "user",
          "type": "address"
        },
        {
          "indexed": false,
          "internalType": "address",
          "name": "receiver",
          "type": "address"
        },
        {
          "indexed": false,
          "internalType": "uint256",
          "name": "osTokenShares",
          "type": "uint256"
        },
        {
          "indexed": false,
          "internalType": "uint256",
          "name": "shares",
          "type": "uint256"
        },
        {
          "indexed": false,
          "internalType": "uint256",
          "name": "assets",
          "type": "uint256"
        }
      ],
      "name": "OsTokenRedeemed",
      "type": "event"
    },
    {
      "anonymous": false,
      "inputs": [
        {
          "indexed": true,
          "internalType": "address",
          "name": "owner",
          "type": "address"
        },
        {
          "indexed": true,
          "internalType": "address",
          "name": "receiver",
          "type": "address"
        },
        {
          "indexed": false,
          "internalType": "uint256",
          "name": "assets",
          "type": "uint256"
        },
        {
          "indexed": false,
          "internalType": "uint256",
          "name": "shares",
          "type": "uint256"
        }
      ],
      "name": "Redeemed",
      "type": "event"
    },
    {
      "anonymous": false,
      "inputs": [
        {
          "indexed": true,
          "internalType": "address",
          "name": "implementation",
          "type": "address"
        }
      ],
      "name": "Upgraded",
      "type": "event"
    },
    {
      "anonymous": false,
      "inputs": [
        {
          "indexed": false,
          "internalType": "bytes",
          "name": "publicKey",
          "type": "bytes"
        }
      ],
      "name": "ValidatorRegistered",
      "type": "event"
    },
    {
      "anonymous": false,
      "inputs": [
        {
          "indexed": true,
          "internalType": "address",
          "name": "caller",
          "type": "address"
        },
        {
          "indexed": true,
          "internalType": "bytes32",
          "name": "validatorsRoot",
          "type": "bytes32"
        }
      ],
      "name": "ValidatorsRootUpdated",
      "type": "event"
    },
    {
      "inputs": [],
      "name": "UPGRADE_INTERFACE_VERSION",
      "outputs": [
        {
          "internalType": "string",
          "name": "",
          "type": "string"
        }
      ],
      "stateMutability": "view",
      "type": "function"
    },
    {
      "inputs": [],
      "name": "admin",
      "outputs": [
        {
          "internalType": "address",
          "name": "",
          "type": "address"
        }
      ],
      "stateMutability": "view",
      "type": "function"
    },
    {
      "inputs": [
        {
          "internalType": "uint128",
          "name": "osTokenShares",
          "type": "uint128"
        }
      ],
      "name": "burnOsToken",
      "outputs": [
        {
          "internalType": "uint256",
          "name": "assets",
          "type": "uint256"
        }
      ],
      "stateMutability": "nonpayable",
      "type": "function"
    },
    {
      "inputs": [
        {
          "internalType": "address",
          "name": "receiver",
          "type": "address"
        },
        {
          "internalType": "uint256",
          "name": "positionTicket",
          "type": "uint256"
        },
        {
          "internalType": "uint256",
          "name": "timestamp",
          "type": "uint256"
        },
        {
          "internalType": "uint256",
          "name": "exitQueueIndex",
          "type": "uint256"
        }
      ],
      "name": "calculateExitedAssets",
      "outputs": [
        {
          "internalType": "uint256",
          "name": "leftShares",
          "type": "uint256"
        },
        {
          "internalType": "uint256",
          "name": "claimedShares",
          "type": "uint256"
        },
        {
          "internalType": "uint256",
          "name": "claimedAssets",
          "type": "uint256"
        }
      ],
      "stateMutability": "view",
      "type": "function"
    },
    {
      "inputs": [],
      "name": "capacity",
      "outputs": [
        {
          "internalType": "uint256",
          "name": "",
          "type": "uint256"
        }
      ],
      "stateMutability": "view",
      "type": "function"
    },
    {
      "inputs": [
        {
          "internalType": "uint256",
          "name": "positionTicket",
          "type": "uint256"
        },
        {
          "internalType": "uint256",
          "name": "timestamp",
          "type": "uint256"
        },
        {
          "internalType": "uint256",
          "name": "exitQueueIndex",
          "type": "uint256"
        }
      ],
      "name": "claimExitedAssets",
      "outputs": [
        {
          "internalType": "uint256",
          "name": "newPositionTicket",
          "type": "uint256"
        },
        {
          "internalType": "uint256",
          "name": "claimedShares",
          "type": "uint256"
        },
        {
          "internalType": "uint256",
          "name": "claimedAssets",
          "type": "uint256"
        }
      ],
      "stateMutability": "nonpayable",
      "type": "function"
    },
    {
      "inputs": [
        {
          "internalType": "uint256",
          "name": "shares",
          "type": "uint256"
        }
      ],
      "name": "convertToAssets",
      "outputs": [
        {
          "internalType": "uint256",
          "name": "assets",
          "type": "uint256"
        }
      ],
      "stateMutability": "view",
      "type": "function"
    },
    {
      "inputs": [
        {
          "internalType": "uint256",
          "name": "assets",
          "type": "uint256"
        }
      ],
      "name": "convertToShares",
      "outputs": [
        {
          "internalType": "uint256",
          "name": "shares",
          "type": "uint256"
        }
      ],
      "stateMutability": "view",
      "type": "function"
    },
    {
      "inputs": [
        {
          "internalType": "address",
          "name": "receiver",
          "type": "address"
        },
        {
          "internalType": "address",
          "name": "referrer",
          "type": "address"
        }
      ],
      "name": "deposit",
      "outputs": [
        {
          "internalType": "uint256",
          "name": "shares",
          "type": "uint256"
        }
      ],
      "stateMutability": "payable",
      "type": "function"
    },
    {
      "inputs": [
        {
          "internalType": "uint256",
          "name": "shares",
          "type": "uint256"
        },
        {
          "internalType": "address",
          "name": "receiver",
          "type": "address"
        }
      ],
      "name": "enterExitQueue",
      "outputs": [
        {
          "internalType": "uint256",
          "name": "positionTicket",
          "type": "uint256"
        }
      ],
      "stateMutability": "nonpayable",
      "type": "function"
    },
    {
      "inputs": [],
      "name": "feePercent",
      "outputs": [
        {
          "internalType": "uint16",
          "name": "",
          "type": "uint16"
        }
      ],
      "stateMutability": "view",
      "type": "function"
    },
    {
      "inputs": [],
      "name": "feeRecipient",
      "outputs": [
        {
          "internalType": "address",
          "name": "",
          "type": "address"
        }
      ],
      "stateMutability": "view",
      "type": "function"
    },
    {
      "inputs": [
        {
          "internalType": "uint256",
          "name": "positionTicket",
          "type": "uint256"
        }
      ],
      "name": "getExitQueueIndex",
      "outputs": [
        {
          "internalType": "int256",
          "name": "",
          "type": "int256"
        }
      ],
      "stateMutability": "view",
      "type": "function"
    },
    {
      "inputs": [
        {
          "internalType": "address",
          "name": "account",
          "type": "address"
        }
      ],
      "name": "getShares",
      "outputs": [
        {
          "internalType": "uint256",
          "name": "",
          "type": "uint256"
        }
      ],
      "stateMutability": "view",
      "type": "function"
    },
    {
      "inputs": [],
      "name": "implementation",
      "outputs": [
        {
          "internalType": "address",
          "name": "",
          "type": "address"
        }
      ],
      "stateMutability": "view",
      "type": "function"
    },
    {
      "inputs": [
        {
          "internalType": "bytes",
          "name": "params",
          "type": "bytes"
        }
      ],
      "name": "initialize",
      "outputs": [],
      "stateMutability": "payable",
      "type": "function"
    },
    {
      "inputs": [],
      "name": "isStateUpdateRequired",
      "outputs": [
        {
          "internalType": "bool",
          "name": "",
          "type": "bool"
        }
      ],
      "stateMutability": "view",
      "type": "function"
    },
    {
      "inputs": [],
      "name": "keysManager",
      "outputs": [
        {
          "internalType": "address",
          "name": "",
          "type": "address"
        }
      ],
      "stateMutability": "view",
      "type": "function"
    },
    {
      "inputs": [
        {
          "internalType": "uint256",
          "name": "osTokenShares",
          "type": "uint256"
        },
        {
          "internalType": "address",
          "name": "owner",
          "type": "address"
        },
        {
          "internalType": "address",
          "name": "receiver",
          "type": "address"
        }
      ],
      "name": "liquidateOsToken",
      "outputs": [],
      "stateMutability": "nonpayable",
      "type": "function"
    },
    {
      "inputs": [],
      "name": "mevEscrow",
      "outputs": [
        {
          "internalType": "address",
          "name": "",
          "type": "address"
        }
      ],
      "stateMutability": "view",
      "type": "function"
    },
    {
      "inputs": [
        {
          "internalType": "address",
          "name": "receiver",
          "type": "address"
        },
        {
          "internalType": "uint256",
          "name": "osTokenShares",
          "type": "uint256"
        },
        {
          "internalType": "address",
          "name": "referrer",
          "type": "address"
        }
      ],
      "name": "mintOsToken",
      "outputs": [
        {
          "internalType": "uint256",
          "name": "assets",
          "type": "uint256"
        }
      ],
      "stateMutability": "nonpayable",
      "type": "function"
    },
    {
      "inputs": [
        {
          "internalType": "bytes[]",
          "name": "data",
          "type": "bytes[]"
        }
      ],
      "name": "multicall",
      "outputs": [
        {
          "internalType": "bytes[]",
          "name": "results",
          "type": "bytes[]"
        }
      ],
      "stateMutability": "nonpayable",
      "type": "function"
    },
    {
      "inputs": [
        {
          "internalType": "address",
          "name": "user",
          "type": "address"
        }
      ],
      "name": "osTokenPositions",
      "outputs": [
        {
          "internalType": "uint128",
          "name": "shares",
          "type": "uint128"
        }
      ],
      "stateMutability": "view",
      "type": "function"
    },
    {
      "inputs": [],
      "name": "proxiableUUID",
      "outputs": [
        {
          "internalType": "bytes32",
          "name": "",
          "type": "bytes32"
        }
      ],
      "stateMutability": "view",
      "type": "function"
    },
    {
      "inputs": [],
      "name": "queuedShares",
      "outputs": [
        {
          "internalType": "uint128",
          "name": "",
          "type": "uint128"
        }
      ],
      "stateMutability": "view",
      "type": "function"
    },
    {
      "inputs": [],
      "name": "receiveFromMevEscrow",
      "outputs": [],
      "stateMutability": "payable",
      "type": "function"
    },
    {
      "inputs": [
        {
          "internalType": "uint256",
          "name": "shares",
          "type": "uint256"
        },
        {
          "internalType": "address",
          "name": "receiver",
          "type": "address"
        }
      ],
      "name": "redeem",
      "outputs": [
        {
          "internalType": "uint256",
          "name": "assets",
          "type": "uint256"
        }
      ],
      "stateMutability": "nonpayable",
      "type": "function"
    },
    {
      "inputs": [
        {
          "internalType": "uint256",
          "name": "osTokenShares",
          "type": "uint256"
        },
        {
          "internalType": "address",
          "name": "owner",
          "type": "address"
        },
        {
          "internalType": "address",
          "name": "receiver",
          "type": "address"
        }
      ],
      "name": "redeemOsToken",
      "outputs": [],
      "stateMutability": "nonpayable",
      "type": "function"
    },
    {
      "inputs": [
        {
          "components": [
            {
              "internalType": "bytes32",
              "name": "validatorsRegistryRoot",
              "type": "bytes32"
            },
            {
              "internalType": "uint256",
              "name": "deadline",
              "type": "uint256"
            },
            {
              "internalType": "bytes",
              "name": "validators",
              "type": "bytes"
            },
            {
              "internalType": "bytes",
              "name": "signatures",
              "type": "bytes"
            },
            {
              "internalType": "string",
              "name": "exitSignaturesIpfsHash",
              "type": "string"
            }
          ],
          "internalType": "struct IKeeperValidators.ApprovalParams",
          "name": "keeperParams",
          "type": "tuple"
        },
        {
          "internalType": "bytes32[]",
          "name": "proof",
          "type": "bytes32[]"
        }
      ],
      "name": "registerValidator",
      "outputs": [],
      "stateMutability": "nonpayable",
      "type": "function"
    },
    {
      "inputs": [
        {
          "components": [
            {
              "internalType": "bytes32",
              "name": "validatorsRegistryRoot",
              "type": "bytes32"
            },
            {
              "internalType": "uint256",
              "name": "deadline",
              "type": "uint256"
            },
            {
              "internalType": "bytes",
              "name": "validators",
              "type": "bytes"
            },
            {
              "internalType": "bytes",
              "name": "signatures",
              "type": "bytes"
            },
            {
              "internalType": "string",
              "name": "exitSignaturesIpfsHash",
              "type": "string"
            }
          ],
          "internalType": "struct IKeeperValidators.ApprovalParams",
          "name": "keeperParams",
          "type": "tuple"
        },
        {
          "internalType": "uint256[]",
          "name": "indexes",
          "type": "uint256[]"
        },
        {
          "internalType": "bool[]",
          "name": "proofFlags",
          "type": "bool[]"
        },
        {
          "internalType": "bytes32[]",
          "name": "proof",
          "type": "bytes32[]"
        }
      ],
      "name": "registerValidators",
      "outputs": [],
      "stateMutability": "nonpayable",
      "type": "function"
    },
    {
      "inputs": [
        {
          "internalType": "address",
          "name": "_feeRecipient",
          "type": "address"
        }
      ],
      "name": "setFeeRecipient",
      "outputs": [],
      "stateMutability": "nonpayable",
      "type": "function"
    },
    {
      "inputs": [
        {
          "internalType": "address",
          "name": "keysManager_",
          "type": "address"
        }
      ],
      "name": "setKeysManager",
      "outputs": [],
      "stateMutability": "nonpayable",
      "type": "function"
    },
    {
      "inputs": [
        {
          "internalType": "string",
          "name": "metadataIpfsHash",
          "type": "string"
        }
      ],
      "name": "setMetadata",
      "outputs": [],
      "stateMutability": "nonpayable",
      "type": "function"
    },
    {
      "inputs": [
        {
          "internalType": "bytes32",
          "name": "_validatorsRoot",
          "type": "bytes32"
        }
      ],
      "name": "setValidatorsRoot",
      "outputs": [],
      "stateMutability": "nonpayable",
      "type": "function"
    },
    {
      "inputs": [],
      "name": "totalAssets",
      "outputs": [
        {
          "internalType": "uint256",
          "name": "",
          "type": "uint256"
        }
      ],
      "stateMutability": "view",
      "type": "function"
    },
    {
      "inputs": [],
      "name": "totalShares",
      "outputs": [
        {
          "internalType": "uint256",
          "name": "",
          "type": "uint256"
        }
      ],
      "stateMutability": "view",
      "type": "function"
    },
    {
      "inputs": [
        {
          "components": [
            {
              "internalType": "bytes32",
              "name": "rewardsRoot",
              "type": "bytes32"
            },
            {
              "internalType": "int160",
              "name": "reward",
              "type": "int160"
            },
            {
              "internalType": "uint160",
              "name": "unlockedMevReward",
              "type": "uint160"
            },
            {
              "internalType": "bytes32[]",
              "name": "proof",
              "type": "bytes32[]"
            }
          ],
          "internalType": "struct IKeeperRewards.HarvestParams",
          "name": "harvestParams",
          "type": "tuple"
        }
      ],
      "name": "updateState",
      "outputs": [],
      "stateMutability": "nonpayable",
      "type": "function"
    },
    {
      "inputs": [
        {
          "internalType": "address",
          "name": "receiver",
          "type": "address"
        },
        {
          "internalType": "address",
          "name": "referrer",
          "type": "address"
        },
        {
          "components": [
            {
              "internalType": "bytes32",
              "name": "rewardsRoot",
              "type": "bytes32"
            },
            {
              "internalType": "int160",
              "name": "reward",
              "type": "int160"
            },
            {
              "internalType": "uint160",
              "name": "unlockedMevReward",
              "type": "uint160"
            },
            {
              "internalType": "bytes32[]",
              "name": "proof",
              "type": "bytes32[]"
            }
          ],
          "internalType": "struct IKeeperRewards.HarvestParams",
          "name": "harvestParams",
          "type": "tuple"
        }
      ],
      "name": "updateStateAndDeposit",
      "outputs": [
        {
          "internalType": "uint256",
          "name": "shares",
          "type": "uint256"
        }
      ],
      "stateMutability": "payable",
      "type": "function"
    },
    {
      "inputs": [
        {
          "internalType": "address",
          "name": "newImplementation",
          "type": "address"
        },
        {
          "internalType": "bytes",
          "name": "data",
          "type": "bytes"
        }
      ],
      "name": "upgradeToAndCall",
      "outputs": [],
      "stateMutability": "payable",
      "type": "function"
    },
    {
      "inputs": [],
      "name": "validatorIndex",
      "outputs": [
        {
          "internalType": "uint256",
          "name": "",
          "type": "uint256"
        }
      ],
      "stateMutability": "view",
      "type": "function"
    },
    {
      "inputs": [],
      "name": "validatorsRoot",
      "outputs": [
        {
          "internalType": "bytes32",
          "name": "",
          "type": "bytes32"
        }
      ],
      "stateMutability": "view",
      "type": "function"
    },
    {
      "inputs": [],
      "name": "vaultId",
      "outputs": [
        {
          "internalType": "bytes32",
          "name": "",
          "type": "bytes32"
        }
      ],
      "stateMutability": "pure",
      "type": "function"
    },
    {
      "inputs": [],
      "name": "version",
      "outputs": [
        {
          "internalType": "uint8",
          "name": "",
          "type": "uint8"
        }
      ],
      "stateMutability": "pure",
      "type": "function"
    },
    {
      "inputs": [],
      "name": "withdrawableAssets",
      "outputs": [
        {
          "internalType": "uint256",
          "name": "",
          "type": "uint256"
        }
      ],
      "stateMutability": "view",
      "type": "function"
    },
    {
      "stateMutability": "payable",
      "type": "receive"
    }
  ],
  "bytecode": "0x610180346200022657601f620049a438819003918201601f19168301926001600160401b03929091838511838610176200022a578160e09284926040978852833981010312620002265762000054816200023e565b9262000063602083016200023e565b90620000718184016200023e565b9362000080606085016200023e565b946200008f608086016200023e565b9360c0620000a060a088016200023e565b9601519760805260a05260c0523060e05261010095865260018060a01b038061012096168652610140931683526101609384527ff0c57e16840df040f15088dc2f81fe391c3923bec73e23a9662efc9c229c6a009081549060ff82851c1662000215578080831603620001d0575b5050505192614750948562000254863960805185818161199e015281816121ae01528181612af801528181612f710152818161330e0152613f3f015260a051856115e4015260c0518581816139710152613b12015260e0518581816117d0015261348c015251846126bf01525183818161036f015281816106000152818161091301528181610f3701528181612c6d01526142c80152518281816106dc015281816109bf01528181610fe3015261424701525181818161248f0152612fb90152f35b6001600160401b0319909116811790915581519081527fc7f505b2f371ae2175ee4913f4499e1f2633a7b5936321eed1cdaeb6115181d290602090a15f80806200010e565b835163f92ee8a960e01b8152600490fd5b5f80fd5b634e487b7160e01b5f52604160045260245ffd5b51906001600160a01b0382168203620002265756fe60806040526004361015610022575b3615610018575f80fd5b610020612c4e565b005b5f3560e01c806301e1d114146102e1578063066055e0146102dc57806307a2d13a146102d757806318f72950146102d25780631a7ff553146102cd578063201b9eb5146102c85780632999ad3f146102c35780632cdf7401146102be5780633229fa95146102b957806333194c0a146102b45780633a98ef39146102af578063439fab91146102aa57806343e82a79146102a557806346904840146102a05780634ec96b221461029b5780634f1ef28614610296578063514e27081461029157806352d1902d1461028c57806353156f281461028757806354fd4d50146102825780635c60da1b1461027d5780635cfc1a51146102785780635dddf3a81461027357806360d60e6e1461026e57806372b410a81461026957806376b58b90146102645780637bde82f21461025f5780637fd6f15c1461025a5780638697d2c2146102555780638ceab9aa146102505780639b401cde1461024b578063a1bf49aa14610246578063a49a1e7d14610241578063aaa4e8361461023c578063ac9650d814610237578063ad3cb1cc14610232578063c6e6f5921461022d578063d83ad00c14610228578063e74b981b14610223578063ef2a21581461021e578063f04da65b14610219578063f5e9de4d14610214578063f851a4401461020f5763f9609f080361000e5761230d565b6122e6565b612156565b61211b565b612093565b612058565b612032565b612014565b611fcf565b611eda565b611d94565b611d3d565b611d20565b611d03565b611bbd565b611b98565b611b74565b611a51565b611a00565b611973565b6118ce565b6118b4565b61189a565b611866565b61184b565b611827565b6117be565b611752565b6114cc565b611373565b61134b565b610f0c565b610df3565b610d84565b610d4a565b610d1e565b610d04565b6108e9565b610590565b61055d565b610504565b6104bf565b610314565b6102f4565b5f9103126102f057565b5f80fd5b346102f0575f3660031901126102f057602060985460801c604051908152f35b346102f05760203660031901126102f0576001600160801b03600435818116908181036102f057604051633b9e9f0160e21b81523360048201526001600160801b0382166024820152916020836044815f6001600160a01b037f0000000000000000000000000000000000000000000000000000000000000000165af19283156104ba575f93610489575b50335f908152610137602052604090206103b890612351565b936103ca85516001600160801b031690565b1615610477578361040c6103ff6103ef610425946103ea61047399612c58565b612d08565b83516001600160801b031661238a565b6001600160801b03168252565b335f908152610137602052604090206123a3565b6123a3565b604080518381526001600160801b0392909216602083015233917f3f7354ba02880b4fa37a629985852a38417ff369369ce1e52fa6f8342a9100a79190a26040519081529081906020820190565b0390f35b60405163673f032f60e11b8152600490fd5b6104ac91935060203d6020116104b3575b6104a4818361144b565b810190612337565b915f61039f565b503d61049a565b612346565b346102f05760203660031901126102f05760206104dd6004356123d5565b604051908152f35b6001600160a01b038116036102f057565b908160809103126102f05790565b60603660031901126102f05760043561051c816104e5565b602435610528816104e5565b604435906001600160401b0382116102f0576020926105566105516104dd9436906004016104f6565b6123fb565b3490613cdf565b346102f05760203660031901126102f0576004356001600160401b0381116102f0576105516100209136906004016104f6565b346102f05760603660031901126102f05760048035906105af826104e5565b60243590604435926105c0846104e5565b6105c86132d2565b6105d06132f3565b604080516329460cc560e11b81526001600160a01b038381168286019081526020818101889052929693959192907f00000000000000000000000000000000000000000000000000000000000000008416908290899081908a0103815f855af19788156104ba575f9861089e575b50335f90815261013760205260409020839061065990612351565b946001600160801b0361067387516001600160801b031690565b161561083c5761068286612c58565b6106ae6106a161069189612d08565b88516001600160801b031661242c565b6001600160801b03168752565b335f908152609c6020526040902084906106c9905b546123d5565b918a5193848092631331885160e31b82527f0000000000000000000000000000000000000000000000000000000000000000165afa9182156104ba5761075892859261071c925f9261081d575b50612d5e565b9261072e87516001600160801b031690565b908a5180809581946303d1689d60e11b83528a83019190916001600160801b036020820193169052565b03915afa9283156104ba575f936107fe575b5050106107f05750947fa16d97739893e1436c9753925fb5cef174c4f368699dc86cc8fdb0e6e60f8e58916107b7610473976104203360018060a01b03165f5261013760205260405f2090565b84516001600160a01b039485168152602081018790526040810191909152921660608301523391608090a2519081529081906020820190565b8451633684c65960e01b8152fd5b610815929350803d106104b3576104a4818361144b565b905f8061076a565b610835919250843d86116104b3576104a4818361144b565b905f610716565b885163752a536d60e01b8152915083828681865afa80156104ba5761086d61087c9187945f91610881575b50612d08565b6001600160801b031687860152565b610682565b6108989150873d89116104b3576104a4818361144b565b5f610867565b6108b6919850823d84116104b3576104a4818361144b565b965f61063e565b60609060031901126102f057600435906024356108d9816104e5565b906044356108e6816104e5565b90565b346102f0576108f7366108bd565b906001600160a01b0380831615610cf2576109106132f3565b807f00000000000000000000000000000000000000000000000000000000000000001691823b156102f05760408051631d8557d760e01b815260049491905f81878183875af180156104ba57610cd9575b506001600160a01b0383165f9081526101376020526040902061098390612351565b6001600160801b0361099c82516001600160801b031690565b1615610cc9576109ab81612c58565b81516330fe427560e21b81529260a08488817f00000000000000000000000000000000000000000000000000000000000000008a165afa9687156104ba57610a1a975f955f91610c90575b5084516303d1689d60e11b918282528c828060209d8e938883019190602083019252565b0381885afa80156104ba57610a35925f91610c735750612d5e565b95610a536106c38960018060a01b03165f52609c60205260405f2090565b918288118015610c63575b610c5357908a610a9b92610a7988516001600160801b031690565b908951948592839283528883019190916001600160801b036020820193169052565b0381885afa9081156104ba57670de0b6b3a764000093610ad7938d5f94610c2a575b5050610acb610ad191612ab4565b92612ad1565b91612dd8565b1015610c1c578351633b9e9f0160e21b815233918101918252602082018b905294939291889186919082905f90829060400103925af19081156104ba577f61fd285f9e34a3dbfa9846bdcf22a023e37a3c93549902843b30dd74a18c535097610bf995610b7193610bfe575b5050610b546103ff6103ef8c612d08565b6001600160a01b0386165f908152610137602052604090206123a3565b610b7a82613748565b90610bb8610b9d610b8a85612d08565b60985460801c036001600160801b031690565b6001600160801b036098549181199060801b16911617609855565b610bc28286613f93565b610bcc838961369b565b51948594169733978590949392606092608083019660018060a01b03168352602083015260408201520152565b0390a3005b81610c1492903d106104b3576104a4818361144b565b505f80610b43565b835163185cfc6d60e11b8152fd5b610ad1929450610acb9181610c4a92903d106104b3576104a4818361144b565b9391508d610abd565b865163efda1a2760e01b81528490fd5b50610c6c612447565b8811610a5e565b610c8a91508c8d3d106104b3576104a4818361144b565b5f610716565b9050610cb591955060a03d60a011610cc2575b610cad818361144b565b81019061337e565b509692509050945f6109f6565b503d610ca3565b815163673f032f60e11b81528690fd5b80610ce6610cec9261141d565b806102e6565b5f610961565b60405163d92e233d60e01b8152600490fd5b346102f0575f3660031901126102f05760206104dd612447565b346102f0575f3660031901126102f0576020610d38612476565b6040516001600160a01b039091168152f35b346102f0575f3660031901126102f05760206040517fd92dbcef7ed61a67c0eefa7cafcc41f41d9402a5046486977364b4724c821f8b8152f35b346102f0575f3660031901126102f05760206001600160801b0360985416604051908152f35b9060206003198301126102f0576004356001600160401b03928382116102f057806023830112156102f05781600401359384116102f057602484830101116102f0576024019190565b610dfc36610daa565b905f805160206146fb83398151915254916001600160401b0360ff8460401c1615931680159081610f04575b6001149081610efa575b159081610ef1575b50610edf575f805160206146fb833981519152805467ffffffffffffffff19166001179055610e6d9183610ebb576124c6565b610e7357005b5f805160206146fb833981519152805460ff60401b19169055604051600181527fc7f505b2f371ae2175ee4913f4499e1f2633a7b5936321eed1cdaeb6115181d290602090a1005b5f805160206146fb833981519152805460ff60401b1916600160401b1790556124c6565b60405163f92ee8a960e01b8152600490fd5b9050155f610e3a565b303b159150610e32565b849150610e28565b346102f057610f1a366108bd565b906001600160a01b039081831615610cf257610f346132f3565b817f000000000000000000000000000000000000000000000000000000000000000016803b156102f05760408051631d8557d760e01b815260049291905f81858183875af180156104ba57611338575b506001600160a01b0384165f90815261013760205260409020610fa690612351565b926001600160801b03610fc085516001600160801b031690565b161561132a57610fcf84612c58565b81516330fe427560e21b81529360a08583817f00000000000000000000000000000000000000000000000000000000000000008b165afa9384156104ba575f955f956112fc575b5083516303d1689d60e11b8082528482018c81529197602094939285908a90819083015b0381865afa9889156104ba575f996112dd575b506001600160a01b038a165f908152609c6020526040902061106e906106c3565b90818a1180156112cd575b6112bd576110b4908661109387516001600160801b031690565b8a51809481928883528c83019190916001600160801b036020820193169052565b0381885afa9182156104ba575f9261129c575b506110d29192612d5e565b1161128c578551633b9e9f0160e21b815233868201908152602081018e905290919085908390819060400103815f875af19182156104ba57859261126f575b5061111b8d612d08565b84516001600160801b0316906111309161238a565b6001600160801b031684526001600160a01b038a165f908152610137602052604090208461115d916123a3565b61116689613748565b976111708a612d08565b60985460801c036001600160801b031661119f906001600160801b036098549181199060801b16911617609855565b6111a9898c613f93565b6001600160a01b038b165f908152609c60205260409020546111ca906123d5565b906111d491612d5e565b935187519182526001600160801b0316868201908152909283918290036020019082905afa9283156104ba575f93611250575b505011611242575091610bf9917f57f5eb636bf62215c111b54545422f11dfb0cb115f606be905f0be08e8859dd3959493610bcc838961369b565b9051631d8fa13d60e31b8152fd5b611267929350803d106104b3576104a4818361144b565b905f80611207565b61128590833d85116104b3576104a4818361144b565b505f611111565b855163324b20e160e11b81528590fd5b6110d292506112b790883d8a116104b3576104a4818361144b565b916110c7565b875163efda1a2760e01b81528790fd5b506112d6612447565b8a11611079565b6112f5919950853d87116104b3576104a4818361144b565b975f61104d565b61103a92965061131c91955060a03d60a011610cc257610cad818361144b565b505050959095949091611016565b905163673f032f60e11b8152fd5b80610ce66113459261141d565b5f610f84565b346102f0575f3660031901126102f0576065546040516001600160a01b039091168152602090f35b346102f05760203660031901126102f057600435611390816104e5565b60018060a01b03165f52610137602052602060405f20604051906113b3826113fd565b54906001600160801b03918281169081835260801c848301526113db575b5116604051908152f35b6113e481612c58565b6113d1565b634e487b7160e01b5f52604160045260245ffd5b604081019081106001600160401b0382111761141857604052565b6113e9565b6001600160401b03811161141857604052565b606081019081106001600160401b0382111761141857604052565b90601f801991011681019081106001600160401b0382111761141857604052565b60405190611479826113fd565b565b6001600160401b03811161141857601f01601f191660200190565b9291926114a28261147b565b916114b0604051938461144b565b8294818452818301116102f0578281602093845f960137010152565b6040806003193601126102f05760049081356114e7816104e5565b6024356001600160401b0381116102f057366023820112156102f0576115169036906024818701359101611496565b9161151f613482565b8051926115568461154860209363439fab9160e01b858401528460248401526044830190611e52565b03601f19810186528561144b565b61155e613482565b611566613735565b6001600160a01b0383811680159291908790841561171d575b84156116af575b841561164b575b505082156115b5575b50506115a657610020838361410a565b516355299b4960e01b81528390fd5b83516345da87c560e01b81526001600160a01b03861688820190815292935091839183918290819060200103917f0000000000000000000000000000000000000000000000000000000000000000165afa9182156104ba575f9261161e575b5050155f80611596565b61163d9250803d10611644575b611635818361144b565b810190612618565b5f80611614565b503d61162b565b855163054fd4d560e41b81529294508391839182905afa9081156104ba5760029160ff915f91611682575b5016141591865f61158d565b6116a29150843d86116116a8575b61169a818361144b565b8101906140f1565b5f611676565b503d611690565b935050835163198ca60560e11b815282818981875afa9081156104ba5788917fd92dbcef7ed61a67c0eefa7cafcc41f41d9402a5046486977364b4724c821f8b915f91611700575b50141593611586565b6117179150853d87116104b3576104a4818361144b565b5f6116f7565b5f805160206146db83398151915254909450849061174b906001600160a01b03165b6001600160a01b031690565b149361157f565b346102f05760203660031901126102f0576004356001600160a01b036117766125ef565b1633036117ac578060d0555f60d155337fbe9758e2d6800505eeb0292a08fe647c52762ccea131177456e7062dd77b41065f80a3005b604051634ca8886760e01b8152600490fd5b346102f0575f3660031901126102f0577f00000000000000000000000000000000000000000000000000000000000000006001600160a01b031630036118155760206040515f805160206146db8339815191528152f35b60405163703e46dd60e11b8152600490fd5b5f3660031901126102f0576001600160a01b03611842612476565b1633036117ac57005b346102f0575f3660031901126102f057602060405160018152f35b346102f0575f3660031901126102f0575f805160206146db833981519152546040516001600160a01b039091168152602090f35b346102f0575f3660031901126102f05760206104dd6125e1565b346102f0575f3660031901126102f0576020610d386125ef565b346102f05760203660031901126102f057609a80549081905f6004355b84821061191c5750505081101561191157610473905b6040519081529081906020820190565b506104735f19611901565b909193808316906001818518811c830180931161196e575f8790525f805160206146bb8339815191528301546001600160a01b0316841015611963575050935b91906118eb565b90959101925061195c565b612376565b346102f0575f3660031901126102f057604051633eb1acf760e11b81523060048201526020816024817f00000000000000000000000000000000000000000000000000000000000000006001600160a01b03165afa80156104ba576020915f916119e3575b506040519015158152f35b6119fa9150823d841161164457611635818361144b565b5f6119d8565b346102f05760803660031901126102f057610473611a34600435611a23816104e5565b60643590604435906024359061263a565b604080519384526020840192909252908201529081906060820190565b346102f0576040806003193601126102f05760043560243591611a73836104e5565b611a7b614649565b8115611b64576001600160a01b0383168015611b5357611a9a836123d5565b928315611b4257611aa9612447565b8411611b3157611ae08461047396611ad1610b9d611ac684612d08565b60985460801c61238a565b611adb8433613f93565b61369b565b8251848152602081019190915233907f5cdf07ad0fc222442720b108e3ed4c4640f0fadc2ab2253e66f259a0fea834809080604081015b0390a3611b23336141b5565b519081529081906020820190565b82516396d8043360e01b8152600490fd5b82516318374fd160e21b8152600490fd5b815163d92e233d60e01b8152600490fd5b51636edcc52360e01b8152600490fd5b346102f0575f3660031901126102f057602061ffff60655460a01c16604051908152f35b346102f05760603660031901126102f057610473611a346044356024356004356126b4565b346102f0576040806003193601126102f0576004359060243590611be0826104e5565b611be86132d2565b8215611b64576001600160a01b0382168015611b535783611cc8611cac61047396611c2a611c1e6099546001600160801b031690565b6001600160801b031690565b81611c8a611c3f83611c3a6144f4565b6126a7565b89516001600160a01b03909b1660208c019081524260408d015260608c01829052909a611c7981608081015b03601f19810183528261144b565b5190205f52609b60205260405f2090565b55335f908152609c60205260409020611ca483825461262d565b905501612d08565b6001600160801b03166001600160801b03196099541617609955565b8251848152602081019190915233907f211091c5bf013c1230f996c3bb2bc327e3de429a3d3c356dcea9a0c858bc407f908060408101611b17565b346102f0575f3660031901126102f057602060d054604051908152f35b346102f0575f3660031901126102f057602060d154604051908152f35b346102f057611d8f7f2013570c343af8ab14a9778150e381a0fda34ed6368127a95fd5e7210cbec5bf611d6f36610daa565b9290611d79613735565b604051918291602083523395602084019161284b565b0390a2005b346102f05760203660031901126102f057600435611db1816104e5565b611db9613735565b6001600160a01b03168015610cf25760d280546001600160a01b03191682179055337fb710e1d0ebf395f895942ac4e559a4a86d57f748a90cf05e9d70798c67e9c65b5f80a3005b9181601f840112156102f0578235916001600160401b0383116102f0576020808501948460051b0101116102f057565b5f5b838110611e425750505f910152565b8181015183820152602001611e33565b90602091611e6b81518092818552858086019101611e31565b601f01601f1916010190565b6020808201906020835283518092526040830192602060408460051b8301019501935f915b848310611eac5750505050505090565b9091929394958480611eca600193603f198682030187528a51611e52565b9801930193019194939290611e9c565b346102f05760203660031901126102f057600480356001600160401b0381116102f057611f0b903690600401611e01565b91611f1583612882565b925f5b818110611f2d57604051806104738782611e77565b5f80611f3a838588612911565b60409391611f4c855180938193612931565b0390305af490611f5a61293e565b9115611f81575090600191611f6f82886129d8565b52611f7a81876129d8565b5001611f18565b848260448151106102f057611fa58183611fba93015160248091830101910161296d565b925162461bcd60e51b81529283928301611fbe565b0390fd5b9060206108e6928181520190611e52565b346102f0575f3660031901126102f057610473604051611fee816113fd565b60058152640352e302e360dc1b6020820152604051918291602083526020830190611e52565b346102f05760203660031901126102f05760206104dd600435613748565b346102f0575f3660031901126102f05760206001600160801b0360995416604051908152f35b346102f05760203660031901126102f057610020600435612078816104e5565b612080613735565b6137d7565b908160a09103126102f05790565b346102f05760803660031901126102f0576001600160401b036004358181116102f0576120c4903690600401612085565b6024358281116102f0576120dc903690600401611e01565b6044929192358481116102f0576120f7903690600401611e01565b916064359586116102f057612113610020963690600401611e01565b959094612ae8565b346102f05760203660031901126102f057600435612138816104e5565b60018060a01b03165f52609c602052602060405f2054604051908152f35b346102f0576040806003193601126102f0576004906001600160401b0382358181116102f0576121899036908501612085565b906024359081116102f0576121a19036908501611e01565b9390926121ac6132f3565b7f00000000000000000000000000000000000000000000000000000000000000006001600160a01b0316803b156102f0575f8251809263837d444160e01b82528183816121fb8a8a8301612a1d565b03925af180156104ba576122d3575b506801bc16d674ec80000061221d612447565b106122c6578083019360b061223286866128df565b9050036122b8576122846122889160d1549760d0549061227761226f8b6122598c8c6128df565b611c6b8b94929451938492602084019687612c1a565b519020612c37565b6020815191012092613acc565b1590565b6122ab576100206001866122a561229f88886128df565b90613b04565b0160d155565b516309bde33960e01b8152fd5b5051631a0a9b9f60e21b8152fd5b516396d8043360e01b8152fd5b80610ce66122e09261141d565b5f61220a565b346102f0575f3660031901126102f0575f546040516001600160a01b039091168152602090f35b60403660031901126102f05760206104dd60043561232a816104e5565b60243590610556826104e5565b908160209103126102f0575190565b6040513d5f823e3d90fd5b9060405161235e816113fd565b91546001600160801b038116835260801c6020830152565b634e487b7160e01b5f52601160045260245ffd5b6001600160801b03918216908216039190821161196e57565b815160209092015160801b6fffffffffffffffffffffffffffffffff19166001600160801b0392909216919091179055565b6098546001600160801b03811690816123ed57505090565b916108e69260801c90612dd8565b61240490612f40565b908061241d575b5061241257565b61241a6131d5565b50565b612426906130d6565b5f61240b565b9190916001600160801b038080941691160191821161196e57565b4760995461245d6001600160801b0382166123d5565b9060801c01908181115f14612470570390565b50505f90565b61016a546001600160a01b0316801561248c5790565b507f000000000000000000000000000000000000000000000000000000000000000090565b908160209103126102f057516108e6816104e5565b60405163e7f6f22560e01b8152602092908381600481335afa9081156104ba575f916125c4575b50604051636f4fa30f60e01b8152918483600481335afa9283156104ba575f93612595575b5083019380848603126102f05783356001600160401b03948582116102f05701936060858703126102f0576040519461254a86611430565b803586528281013561ffff811681036102f0578387015260408101359182116102f057019480601f870112156102f0578561258b9261147997359101611496565b60408401526133a5565b6125b6919350853d87116125bd575b6125ae818361144b565b8101906124b1565b915f612512565b503d6125a4565b6125db9150843d86116125bd576125ae818361144b565b5f6124ed565b609d54806108e657505f1990565b60d2546001600160a01b039081168061260957505f541690565b905090565b801515036102f057565b908160209103126102f057516108e68161260e565b9190820391821161196e57565b604080516001600160a01b03909216602083019081529082019390935260608101829052909261268a9290916126738160808101611c6b565b5190205f52609b60205260405f2054928391613500565b909182810390811161196e5792565b906001820180921161196e57565b9190820180921161196e57565b929190915f936126e47f0000000000000000000000000000000000000000000000000000000000000000856126a7565b42106128215760408051336020820190815291810186905260608082018490528152601f19916127259161271960808261144b565b5190209486843361263a565b90969095878781156128135750505f908152609b6020526040812055600182116127c9575b50505061278261276761275c85612d08565b60995460801c61238a565b6001600160801b036099549181199060801b16911617609955565b61278c833361369b565b6040805191825260208201869052810183905233907feb3b05c070c24f667611fdb3ff75fe007d42401c573aed8d8faca95fd00ccb5690606090a2565b61280a919297506127da87856126a7565b60408051336020820190815291810193909352606083018290526080998a0183529098909190611c79908261144b565b555f808061274a565b959950975093955050505050565b604051631613b7eb60e01b8152600490fd5b90603060609281835260208301375f60508201520190565b908060209392818452848401375f828201840152601f01601f1916010190565b6001600160401b0381116114185760051b60200190565b9061288c8261286b565b612899604051918261144b565b82815280926128aa601f199161286b565b01905f5b8281106128ba57505050565b8060606020809385010152016128ae565b634e487b7160e01b5f52603260045260245ffd5b903590601e19813603018212156102f057018035906001600160401b0382116102f0576020019181360383136102f057565b9082101561292c576129289160051b8101906128df565b9091565b6128cb565b908092918237015f815290565b3d15612968573d9061294f8261147b565b9161295d604051938461144b565b82523d5f602084013e565b606090565b6020818303126102f0578051906001600160401b0382116102f0570181601f820112156102f057805161299f8161147b565b926129ad604051948561144b565b818452602082840101116102f0576108e69160208085019101611e31565b80511561292c5760200190565b805182101561292c5760209160051b010190565b9035601e19823603018112156102f05701602081359101916001600160401b0382116102f05781360383136102f057565b9060a06108e692602081528235602082015260208301356040820152612a59612a4960408501856129ec565b84606085015260c084019161284b565b90612a8c612a81612a6d60608701876129ec565b601f1985870381016080870152959161284b565b9460808101906129ec565b9390928286030191015261284b565b906801bc16d674ec800000918083029283040361196e57565b90670de0b6b3a76400009182810292818404149015171561196e57565b906127109182810292818404149015171561196e57565b929094939195612af66132f3565b7f00000000000000000000000000000000000000000000000000000000000000006001600160a01b031695863b156102f0576040965f8851809263837d444160e01b8252818381612b4a8c60048301612a1d565b03925af180156104ba57612c07575b50612b62612447565b612b6b89612a9b565b11612bf65787158015612bdc575b612bcb5791612ba9959391612ba3896122849795612b9d60d054978c8101906128df565b90613947565b94613aba565b612bbb57506114799060d1540160d155565b516309bde33960e01b8152600490fd5b8651631c6c4cf360e31b8152600490fd5b50612be9878601866128df565b905060b089021415612b79565b86516396d8043360e01b8152600490fd5b80610ce6612c149261141d565b5f612b59565b939291602091612c329160408752604087019161284b565b930152565b9060405191602083015260208252611479826113fd565b61241a3433613c17565b60405163752a536d60e01b81526020816004817f00000000000000000000000000000000000000000000000000000000000000006001600160a01b03165afa9081156104ba575f91612ce9575b5060208201916001600160801b03918284511691828214612ce25783612cd56103ea612cdd958584865116612dd8565b169052612d08565b169052565b5050505050565b612d02915060203d6020116104b3576104a4818361144b565b5f612ca5565b6001600160801b0390818111612d1c571690565b604490604051906306dfcc6560e41b8252608060048301526024820152fd5b634e487b7160e01b5f52601260045260245ffd5b8115612d59570490565b612d3b565b90808202905f1981840990828083109203918083039214612dcd576127109082821115612dbb577fbc01a36e2eb1c432ca57a786c226809d495182a9930be0ded288ce703afb7e91940990828211900360fc1b910360041c170290565b60405163227bc15360e01b8152600490fd5b505061271091500490565b9091828202915f1984820993838086109503948086039514612e4b5784831115612dbb57829109815f038216809204600280826003021880830282030280830282030280830282030280830282030280830282030280920290030293600183805f03040190848311900302920304170290565b5050906108e69250612d4f565b908160609103126102f057805191604060208301519201516108e68161260e565b81835290916001600160fb1b0383116102f05760209260051b809284830137010190565b90602082528035602083015260208101358060130b8091036102f05760408301526040810135612ecc816104e5565b6001600160a01b031660608381019190915281013536829003601e19018112156102f05701602081359101906001600160401b0381116102f0578060051b360382136102f05760a0836080806108e69601520191612e79565b9190915f838201938412911290801582169115161761196e57565b6040516325f56f1160e01b81526001600160a01b03929160609082908190612f6b9060048301612e9d565b03815f877f0000000000000000000000000000000000000000000000000000000000000000165af19283156104ba575f915f905f95613091575b50841561303e5781612fb5612476565b16917f000000000000000000000000000000000000000000000000000000000000000016821461303757509060205f92600460405180958193634641257d60e01b83525af19081156104ba57613012925f92613016575b50612f25565b9190565b61303091925060203d6020116104b3576104a4818361144b565b905f61300c565b9081613044575b50509190565b803b156102f057604051636ee3193160e11b815260048101929092525f908290602490829084905af180156104ba5761307e575b8061303e565b80610ce661308b9261141d565b5f613078565b919450506130b7915060603d6060116130bf575b6130af818361144b565b810190612e58565b93905f612fa5565b503d6130a5565b600160ff1b811461196e575f0390565b6130e5611c1e60985460801c90565b5f82126131bc57816130f6916126a7565b90613103610b9d83612d08565b6131186065549161ffff8360a01c1690612d5e565b80156131b757807f555ee6b2ef9506d870f386c067e47d3689435330b012ad263d8cc3531868654793613156611c1e6098546001600160801b031690565b806131a157505061319c90925b6001600160a01b0316916131778484613d8b565b60405193849384604091949392606082019560018060a01b0316825260208201520152565b0390a1565b61319c926131b192039084612dd8565b92613163565b505050565b6103ea610b9d916131cf611479946130c6565b9061262d565b609954906001600160801b0382169182156132cc5760801c6132096131fa824761262d565b613203856123d5565b90613dd7565b9081156132c55761321982613748565b9384156132bd57826132456127676103ea61147996610b9d96611c3a611cac6103ea8d611ac69a61262d565b61324f8187613e3d565b60408051878152602081018390527f624ea167e477f9d39f7f4094b9dfe2e6346eb4a7aada54338db51abd554c4b9f9190a16103ea6132a161329088612d08565b6098546001600160801b031661238a565b6001600160801b03166001600160801b03196098541617609855565b505f93505050565b505f925050565b505f9150565b6132da613f24565b156132e157565b604051630a62fbdb60e11b8152600490fd5b604051633eb1acf760e11b81523060048201526020816024817f00000000000000000000000000000000000000000000000000000000000000006001600160a01b03165afa9081156104ba575f9161335f575b5061334d57565b60405163e775715160e01b8152600490fd5b613378915060203d60201161164457611635818361144b565b5f613346565b908160a09103126102f0578051916020820151916040810151916080606083015192015190565b6133ad613fe0565b60408301516133ba613fe0565b5f80546001600160a01b0319166001600160a01b03841617905560405133917f2013570c343af8ab14a9778150e381a0fda34ed6368127a95fd5e7210cbec5bf919081906134089082611fbe565b0390a2602083015192613419613fe0565b61271061ffff851611613470576134689361343661345b936137d7565b6065805461ffff60a01b191660a09290921b61ffff60a01b169190911790555161400e565b61346361403e565b61405f565b61147961408e565b604051638a81d3b360e01b8152600490fd5b6001600160a01b037f000000000000000000000000000000000000000000000000000000000000000081163081149182156134c0575b505061181557565b5f805160206146db8339815191525416141590505f806134b8565b906040516134e8816113fd565b91546001600160a01b038116835260a01c6020830152565b609a545f948594939091808410801590613693575b6136865783613650575f5b609a5f526001600160a01b03166135455f805160206146bb83398151915286016134db565b805190979061355c906001600160a01b031661173f565b986135816135756020809b01516001600160601b031690565b6001600160601b031690565b948381108015613646575b6136345791600193979a956135ab6135b7939488035b838c0390613dd7565b80920198870391612dd8565b0197019380861180159061362a575b61361f57609a5f5282906135e85f805160206146bb83398151915287016134db565b805190890151969992966001600160a01b0390911694600193926135b79290916001600160601b03909116906135ab9088036135a2565b945050509250509190565b50818510156135c6565b60405163e8722f8f60e01b8152600490fd5b50808b111561358c565b609a5f527f44da158ba27f9252712a74ff6a55c5d531f69609f1f6e7f17c4443a8e2089be38401546001600160a01b0316613520565b505093505050505f905f90565b508415613515565b907f9b779b17422d0df92223018b32b4d1fa46e071723d6817e2486d003becc55f00916002835414613723576002835581471061370b575f918291829182916001600160a01b03165af16136ed61293e565b50156136f95760019055565b604051630a12f52160e11b8152600490fd5b60405163cd78605960e01b8152306004820152602490fd5b604051633ee5aeb560e01b8152600490fd5b5f546001600160a01b031633036117ac57565b609854906001600160801b03821681158015613777575b1561376a5750905090565b6108e69260801c91612dd8565b50801561375f565b6098546001600160801b03811690821580156137cf575b156137a057505090565b60801c906137af828285612dd8565b928215612d5957096137be5790565b60018101809111156108e657612376565b508115613796565b6137df6132f3565b6001600160a01b0316801561382757606580546001600160a01b03191682179055337faaebcf1bfa00580e41d966056b48521fa9f202645c86d4ddf28113e617c1b1d35f80a3565b604051630ed1b8b360e31b8152600490fd5b906138438261286b565b613850604051918261144b565b8281528092613861601f199161286b565b0190602036910137565b906030116102f05790603090565b906090116102f05760300190606090565b9060b0116102f05760900190602090565b909392938483116102f05784116102f0578101920390565b901561292c5790565b919081101561292c5760051b0190565b3590602081106138da575090565b5f199060200360031b1b1690565b96959490612c3293613909613917926060979560808c5260808c019161284b565b9089820360208b0152611e52565b91878303604089015261284b565b9060206108e6928181520190612833565b9160206108e693818152019161284b565b9193929060d154925f925f9061395c81613839565b9761396561434e565b935f9760018060a01b037f000000000000000000000000000000000000000000000000000000000000000016945b848a106139a65750505050505050505050565b60b06139b691018099898561389b565b9960409a8d6139f28d516139da6020918281019061226f81611c6b8c8a8d87612c1a565b8051910120916139eb858b8b6138bc565b35906129d8565b526139fd818461386b565b9093613a1d613a17613a0f8584613879565b95909361388a565b906138cc565b908a3b156102f0578b8f5f93613a48915196879485946304512a2360e31b8652888c600488016138e8565b03816801bc16d674ec8000008d5af19384156104ba57613a9b60018e7f64b6e61d93b7a91e8cc4376183ede0997a27b44fd9dd2f30a866b2a5730efdb1958298613aa7575b5097019e5192839283613936565b0390a101989097613993565b80610ce6613ab49261141d565b5f613a8d565b90613ac8949593929161438f565b1490565b9192915f915b808310613ae0575050501490565b909192613afb600191613af48685876138bc565b359061460b565b93019190613ad2565b816030116102f057613a17917f00000000000000000000000000000000000000000000000000000000000000006001600160a01b0316613b4261434e565b90613b59613b508486613879565b9690948661388a565b94813b156102f0576801bc16d674ec8000005f94613bbf97604051988996879586946304512a2360e31b865260806004870152613bb0613b9d8d6084890190612833565b60031994858983030160248a0152611e52565b9286840301604487015261284b565b90606483015203925af19081156104ba577f64b6e61d93b7a91e8cc4376183ede0997a27b44fd9dd2f30a866b2a5730efdb19261319c92613c08575b5060405191829182613925565b613c119061141d565b5f613bfb565b9190613c216132f3565b6001600160a01b038316908115610cf2578015613ccd5780613c48611c1e60985460801c90565b0193613c526125e1565b8511613cbb57610b9d94613c7991613c74613c6c8561377f565b978893612d08565b613d8b565b60408051918252602082018590525f9082015233907f861a4138e41fb21c121a7dbb1053df465c837fc77380cc7226189a662281be2c9080606081015b0390a3565b6040516304ffa0ff60e51b8152600490fd5b6040516318374fd160e21b8152600490fd5b90929192613ceb6132f3565b6001600160a01b038216918215610cf2578115613ccd5781613d12611c1e60985460801c90565b01613d1b6125e1565b8111613cbb57610b9d95613d62613cb6927f861a4138e41fb21c121a7dbb1053df465c837fc77380cc7226189a662281be2c94613c74613d5a8861377f565b9a8b93612d08565b60408051948552602085018890526001600160a01b039091169084015233929081906060820190565b613d9482612d08565b60985490613dac6001600160801b039182841661242c565b16906001600160801b0319161760985560018060a01b03165f52609c60205260405f20908154019055565b9080821015612609575090565b609a5490600160401b821015611418576001820180609a5582101561292c57609a5f52805160209091015160a01b6001600160a01b0319166001600160a01b0391909116175f805160206146bb83398151915290910155565b9081158015613f1c575b613f0a57609a5480613ed457505f905b6001600160a01b0391821692830192831061196e57818311613eb4576114799291613e9f613e87613eaf93614536565b91613e9061146c565b94166001600160a01b03168452565b6001600160601b03166020830152565b613de4565b6040516306dfcc6560e41b815260a0600482015260248101849052604490fd5b609a5f527f44da158ba27f9252712a74ff6a55c5d531f69609f1f6e7f17c4443a8e2089be301546001600160a01b031690613e57565b604051632ec8835b60e21b8152600490fd5b508015613e47565b604051630156a69560e11b81523060048201526020816024817f00000000000000000000000000000000000000000000000000000000000000006001600160a01b03165afa9081156104ba575f91613f7a575090565b6108e6915060203d60201161164457611635818361144b565b60018060a01b03165f52609c60205260405f2090815481810390811161196e57613fbd9255612d08565b609854906001600160801b03908183160316906001600160801b03191617609855565b60ff5f805160206146fb8339815191525460401c1615613ffc57565b604051631afcd79f60e31b8152600490fd5b614016613fe0565b801561402c57600181016140275750565b609d55565b6040516331278a8760e01b8152600490fd5b614046613fe0565b6801bc16d674ec8000006140586125e1565b1061402c57565b614067613fe0565b6001600160a01b0316806140785750565b61016a80546001600160a01b0319169091179055565b614096613fe0565b61409e613fe0565b6140a6613fe0565b60017f9b779b17422d0df92223018b32b4d1fa46e071723d6817e2486d003becc55f0055633b9aca0034106140df5761241a3430613c17565b60405163ea2559bb60e01b8152600490fd5b908160209103126102f0575160ff811681036102f05790565b6040516352d1902d60e01b81529290916020846004816001600160a01b0387165afa5f9481614194575b5061415a57604051634c9c8ce360e01b81526001600160a01b0384166004820152602490fd5b90915f805160206146db833981519152840361417b57611479929350614569565b604051632a87526960e21b815260048101859052602490fd5b6141ae91955060203d6020116104b3576104a4818361144b565b935f614134565b6001600160a01b0381165f908152610137602052604090206141d690612351565b906001600160801b036141f083516001600160801b031690565b161561434a576106c3614227916142056132f3565b61420e84612c58565b6001600160a01b03165f908152609c6020526040902090565b604051631331885160e31b8152602092916001600160a01b0384836004817f000000000000000000000000000000000000000000000000000000000000000085165afa9182156104ba5761428a8693614298926142c4965f926143325750612d5e565b94516001600160801b031690565b6040516303d1689d60e11b81526001600160801b03909116600482015292839190829081906024820190565b03917f0000000000000000000000000000000000000000000000000000000000000000165afa9283156104ba575f93614313575b50501061430157565b604051633684c65960e01b8152600490fd5b61432a929350803d106104b3576104a4818361144b565b905f806142f8565b610835919250863d88116104b3576104a4818361144b565b5050565b604051600160f81b60208201525f60218201523060601b602c820152602081526108e6816113fd565b5f19811461196e5760010190565b356108e68161260e565b92939190918051936143a184866126a7565b6143aa87612699565b036143ec576143b886613839565b945f8094885f965f5b8281106144245750501591506143fe905057505050036143ec576143e8915f1901906129d8565b5190565b604051631a8a024960e11b8152600490fd5b9195509293501590506144165750506143e8906129cb565b61442092506138b3565b3590565b8a868610156144d757506144566144518261444861444189614377565b988c6129d8565b51955b876138bc565b614385565b156144bc578a8686101561449b57506144876001929361447f61447888614377565b978b6129d8565b515b9061460b565b614491828d6129d8565b5201908a916143c1565b92614487906144b6846144b060019691614377565b966129d8565b51614481565b61448760019293613af46144cf8c614377565b9b8d8b6138bc565b91614451826144ed836144b06144569591614377565b519561444b565b609a548061450157505f90565b609a5f527f44da158ba27f9252712a74ff6a55c5d531f69609f1f6e7f17c4443a8e2089be301546001600160a01b031661173f565b6001600160601b039081811161454a571690565b604490604051906306dfcc6560e41b8252606060048301526024820152fd5b90813b156145ea575f805160206146db83398151915280546001600160a01b0319166001600160a01b0384169081179091557fbc7cd75a20ee27fd9adebab32041f755214dbc6bffa90cc0225b39da2e5c2d3b5f80a28051156145cf5761241a9161462c565b5050346145d857565b60405163b398979f60e01b8152600490fd5b604051634c9c8ce360e01b81526001600160a01b0383166004820152602490fd5b8181101561461f575f5260205260405f2090565b905f5260205260405f2090565b5f806108e693602081519101845af461464361293e565b91614669565b614651613f24565b61465757565b6040516389a1dc6360e01b8152600490fd5b9061467e57508051156136f957805190602001fd5b815115806146b1575b61468f575090565b604051639996b31560e01b81526001600160a01b039091166004820152602490fd5b50803b1561468756fe44da158ba27f9252712a74ff6a55c5d531f69609f1f6e7f17c4443a8e2089be4360894a13ba1a3210667c828492db98dca3e2076cc3735a920a3ca505d382bbcf0c57e16840df040f15088dc2f81fe391c3923bec73e23a9662efc9c229c6a00a2646970667358221220575227d2ab6f6dc09c808397834f8b2864f1374a42b4bf85b19f335a03976c6764736f6c63430008160033",
  "linkReferences": {},
  "deployedLinkReferences": {}
}