{
  "_format": "hh-sol-artifact-1",
  "contractName": "EthVault",
  "sourceName": "contracts/vaults/ethereum/EthVault.sol",
  "abi": [
    {
      "inputs": [
        {
          "internalType": "address",
          "name": "_keeper",
          "type": "address"
        },
        {
          "internalType": "address",
          "name": "_vaultsRegistry",
          "type": "address"
        },
        {
          "internalType": "address",
          "name": "_validatorsRegistry",
          "type": "address"
        },
        {
          "internalType": "address",
          "name": "osTokenVaultController",
          "type": "address"
        },
        {
          "internalType": "address",
          "name": "osTokenConfig",
          "type": "address"
        },
        {
          "internalType": "address",
          "name": "osTokenVaultEscrow",
          "type": "address"
        },
        {
          "internalType": "address",
          "name": "sharedMevEscrow",
          "type": "address"
        },
        {
          "internalType": "address",
          "name": "depositDataRegistry",
          "type": "address"
        },
        {
          "internalType": "uint256",
          "name": "exitingAssetsClaimDelay",
          "type": "uint256"
        }
      ],
      "stateMutability": "nonpayable",
      "type": "constructor"
    },
    {
      "inputs": [],
      "name": "AccessDenied",
      "type": "error"
    },
    {
      "inputs": [
        {
          "internalType": "address",
          "name": "target",
          "type": "address"
        }
      ],
      "name": "AddressEmptyCode",
      "type": "error"
    },
    {
      "inputs": [
        {
          "internalType": "address",
          "name": "account",
          "type": "address"
        }
      ],
      "name": "AddressInsufficientBalance",
      "type": "error"
    },
    {
      "inputs": [],
      "name": "CapacityExceeded",
      "type": "error"
    },
    {
      "inputs": [
        {
          "internalType": "address",
          "name": "implementation",
          "type": "address"
        }
      ],
      "name": "ERC1967InvalidImplementation",
      "type": "error"
    },
    {
      "inputs": [],
      "name": "ERC1967NonPayable",
      "type": "error"
    },
    {
      "inputs": [],
      "name": "ExitRequestNotProcessed",
      "type": "error"
    },
    {
      "inputs": [],
      "name": "FailedInnerCall",
      "type": "error"
    },
    {
      "inputs": [],
      "name": "InsufficientAssets",
      "type": "error"
    },
    {
      "inputs": [],
      "name": "InvalidAssets",
      "type": "error"
    },
    {
      "inputs": [],
      "name": "InvalidCapacity",
      "type": "error"
    },
    {
      "inputs": [],
      "name": "InvalidCheckpointIndex",
      "type": "error"
    },
    {
      "inputs": [],
      "name": "InvalidCheckpointValue",
      "type": "error"
    },
    {
      "inputs": [],
      "name": "InvalidFeePercent",
      "type": "error"
    },
    {
      "inputs": [],
      "name": "InvalidFeeRecipient",
      "type": "error"
    },
    {
      "inputs": [],
      "name": "InvalidHealthFactor",
      "type": "error"
    },
    {
      "inputs": [],
      "name": "InvalidInitialization",
      "type": "error"
    },
    {
      "inputs": [],
      "name": "InvalidPosition",
      "type": "error"
    },
    {
      "inputs": [],
      "name": "InvalidQueuedShares",
      "type": "error"
    },
    {
      "inputs": [],
      "name": "InvalidReceivedAssets",
      "type": "error"
    },
    {
      "inputs": [],
      "name": "InvalidSecurityDeposit",
      "type": "error"
    },
    {
      "inputs": [],
      "name": "InvalidShares",
      "type": "error"
    },
    {
      "inputs": [],
      "name": "InvalidValidators",
      "type": "error"
    },
    {
      "inputs": [],
      "name": "LiquidationDisabled",
      "type": "error"
    },
    {
      "inputs": [],
      "name": "LowLtv",
      "type": "error"
    },
    {
      "inputs": [],
      "name": "MathOverflowedMulDiv",
      "type": "error"
    },
    {
      "inputs": [],
      "name": "NotCollateralized",
      "type": "error"
    },
    {
      "inputs": [],
      "name": "NotHarvested",
      "type": "error"
    },
    {
      "inputs": [],
      "name": "NotInitializing",
      "type": "error"
    },
    {
      "inputs": [],
      "name": "ReentrancyGuardReentrantCall",
      "type": "error"
    },
    {
      "inputs": [
        {
          "internalType": "uint8",
          "name": "bits",
          "type": "uint8"
        },
        {
          "internalType": "uint256",
          "name": "value",
          "type": "uint256"
        }
      ],
      "name": "SafeCastOverflowedUintDowncast",
      "type": "error"
    },
    {
      "inputs": [],
      "name": "UUPSUnauthorizedCallContext",
      "type": "error"
    },
    {
      "inputs": [
        {
          "internalType": "bytes32",
          "name": "slot",
          "type": "bytes32"
        }
      ],
      "name": "UUPSUnsupportedProxiableUUID",
      "type": "error"
    },
    {
      "inputs": [],
      "name": "UpgradeFailed",
      "type": "error"
    },
    {
      "inputs": [],
      "name": "ZeroAddress",
      "type": "error"
    },
    {
      "anonymous": false,
      "inputs": [
        {
          "indexed": false,
          "internalType": "uint256",
          "name": "shares",
          "type": "uint256"
        },
        {
          "indexed": false,
          "internalType": "uint256",
          "name": "assets",
          "type": "uint256"
        }
      ],
      "name": "CheckpointCreated",
      "type": "event"
    },
    {
      "anonymous": false,
      "inputs": [
        {
          "indexed": true,
          "internalType": "address",
          "name": "caller",
          "type": "address"
        },
        {
          "indexed": true,
          "internalType": "address",
          "name": "receiver",
          "type": "address"
        },
        {
          "indexed": false,
          "internalType": "uint256",
          "name": "assets",
          "type": "uint256"
        },
        {
          "indexed": false,
          "internalType": "uint256",
          "name": "shares",
          "type": "uint256"
        },
        {
          "indexed": false,
          "internalType": "address",
          "name": "referrer",
          "type": "address"
        }
      ],
      "name": "Deposited",
      "type": "event"
    },
    {
      "anonymous": false,
      "inputs": [
        {
          "indexed": true,
          "internalType": "address",
          "name": "owner",
          "type": "address"
        },
        {
          "indexed": true,
          "internalType": "address",
          "name": "receiver",
          "type": "address"
        },
        {
          "indexed": false,
          "internalType": "uint256",
          "name": "positionTicket",
          "type": "uint256"
        },
        {
          "indexed": false,
          "internalType": "uint256",
          "name": "shares",
          "type": "uint256"
        }
      ],
      "name": "ExitQueueEntered",
      "type": "event"
    },
    {
      "anonymous": false,
      "inputs": [
        {
          "indexed": true,
          "internalType": "address",
          "name": "receiver",
          "type": "address"
        },
        {
          "indexed": false,
          "internalType": "uint256",
          "name": "prevPositionTicket",
          "type": "uint256"
        },
        {
          "indexed": false,
          "internalType": "uint256",
          "name": "newPositionTicket",
          "type": "uint256"
        },
        {
          "indexed": false,
          "internalType": "uint256",
          "name": "withdrawnAssets",
          "type": "uint256"
        }
      ],
      "name": "ExitedAssetsClaimed",
      "type": "event"
    },
    {
      "anonymous": false,
      "inputs": [
        {
          "indexed": false,
          "internalType": "uint256",
          "name": "penalty",
          "type": "uint256"
        }
      ],
      "name": "ExitingAssetsPenalized",
      "type": "event"
    },
    {
      "anonymous": false,
      "inputs": [
        {
          "indexed": true,
          "internalType": "address",
          "name": "caller",
          "type": "address"
        },
        {
          "indexed": true,
          "internalType": "address",
          "name": "feeRecipient",
          "type": "address"
        }
      ],
      "name": "FeeRecipientUpdated",
      "type": "event"
    },
    {
      "anonymous": false,
      "inputs": [
        {
          "indexed": false,
          "internalType": "address",
          "name": "receiver",
          "type": "address"
        },
        {
          "indexed": false,
          "internalType": "uint256",
          "name": "shares",
          "type": "uint256"
        },
        {
          "indexed": false,
          "internalType": "uint256",
          "name": "assets",
          "type": "uint256"
        }
      ],
      "name": "FeeSharesMinted",
      "type": "event"
    },
    {
      "anonymous": false,
      "inputs": [
        {
          "indexed": false,
          "internalType": "uint64",
          "name": "version",
          "type": "uint64"
        }
      ],
      "name": "Initialized",
      "type": "event"
    },
    {
      "anonymous": false,
      "inputs": [
        {
          "indexed": true,
          "internalType": "address",
          "name": "caller",
          "type": "address"
        },
        {
          "indexed": true,
          "internalType": "address",
          "name": "keysManager",
          "type": "address"
        }
      ],
      "name": "KeysManagerUpdated",
      "type": "event"
    },
    {
      "anonymous": false,
      "inputs": [
        {
          "indexed": true,
          "internalType": "address",
          "name": "caller",
          "type": "address"
        },
        {
          "indexed": false,
          "internalType": "string",
          "name": "metadataIpfsHash",
          "type": "string"
        }
      ],
      "name": "MetadataUpdated",
      "type": "event"
    },
    {
      "anonymous": false,
      "inputs": [
        {
          "indexed": true,
          "internalType": "address",
          "name": "caller",
          "type": "address"
        },
        {
          "indexed": false,
          "internalType": "uint256",
          "name": "assets",
          "type": "uint256"
        },
        {
          "indexed": false,
          "internalType": "uint256",
          "name": "shares",
          "type": "uint256"
        }
      ],
      "name": "OsTokenBurned",
      "type": "event"
    },
    {
      "anonymous": false,
      "inputs": [
        {
          "indexed": true,
          "internalType": "address",
          "name": "caller",
          "type": "address"
        },
        {
          "indexed": true,
          "internalType": "address",
          "name": "user",
          "type": "address"
        },
        {
          "indexed": false,
          "internalType": "address",
          "name": "receiver",
          "type": "address"
        },
        {
          "indexed": false,
          "internalType": "uint256",
          "name": "osTokenShares",
          "type": "uint256"
        },
        {
          "indexed": false,
          "internalType": "uint256",
          "name": "shares",
          "type": "uint256"
        },
        {
          "indexed": false,
          "internalType": "uint256",
          "name": "receivedAssets",
          "type": "uint256"
        }
      ],
      "name": "OsTokenLiquidated",
      "type": "event"
    },
    {
      "anonymous": false,
      "inputs": [
        {
          "indexed": true,
          "internalType": "address",
          "name": "caller",
          "type": "address"
        },
        {
          "indexed": false,
          "internalType": "address",
          "name": "receiver",
          "type": "address"
        },
        {
          "indexed": false,
          "internalType": "uint256",
          "name": "assets",
          "type": "uint256"
        },
        {
          "indexed": false,
          "internalType": "uint256",
          "name": "shares",
          "type": "uint256"
        },
        {
          "indexed": false,
          "internalType": "address",
          "name": "referrer",
          "type": "address"
        }
      ],
      "name": "OsTokenMinted",
      "type": "event"
    },
    {
      "anonymous": false,
      "inputs": [
        {
          "indexed": true,
          "internalType": "address",
          "name": "caller",
          "type": "address"
        },
        {
          "indexed": true,
          "internalType": "address",
          "name": "user",
          "type": "address"
        },
        {
          "indexed": false,
          "internalType": "address",
          "name": "receiver",
          "type": "address"
        },
        {
          "indexed": false,
          "internalType": "uint256",
          "name": "osTokenShares",
          "type": "uint256"
        },
        {
          "indexed": false,
          "internalType": "uint256",
          "name": "shares",
          "type": "uint256"
        },
        {
          "indexed": false,
          "internalType": "uint256",
          "name": "assets",
          "type": "uint256"
        }
      ],
      "name": "OsTokenRedeemed",
      "type": "event"
    },
    {
      "anonymous": false,
      "inputs": [
        {
          "indexed": true,
          "internalType": "address",
          "name": "owner",
          "type": "address"
        },
        {
          "indexed": true,
          "internalType": "address",
          "name": "receiver",
          "type": "address"
        },
        {
          "indexed": false,
          "internalType": "uint256",
          "name": "assets",
          "type": "uint256"
        },
        {
          "indexed": false,
          "internalType": "uint256",
          "name": "shares",
          "type": "uint256"
        }
      ],
      "name": "Redeemed",
      "type": "event"
    },
    {
      "anonymous": false,
      "inputs": [
        {
          "indexed": true,
          "internalType": "address",
          "name": "implementation",
          "type": "address"
        }
      ],
      "name": "Upgraded",
      "type": "event"
    },
    {
      "anonymous": false,
      "inputs": [
        {
          "indexed": true,
          "internalType": "address",
          "name": "owner",
          "type": "address"
        },
        {
          "indexed": true,
          "internalType": "address",
          "name": "receiver",
          "type": "address"
        },
        {
          "indexed": false,
          "internalType": "uint256",
          "name": "positionTicket",
          "type": "uint256"
        },
        {
          "indexed": false,
          "internalType": "uint256",
          "name": "shares",
          "type": "uint256"
        },
        {
          "indexed": false,
          "internalType": "uint256",
          "name": "assets",
          "type": "uint256"
        }
      ],
      "name": "V2ExitQueueEntered",
      "type": "event"
    },
    {
      "anonymous": false,
      "inputs": [
        {
          "indexed": false,
          "internalType": "bytes",
          "name": "publicKey",
          "type": "bytes"
        }
      ],
      "name": "ValidatorRegistered",
      "type": "event"
    },
    {
      "anonymous": false,
      "inputs": [
        {
          "indexed": true,
          "internalType": "address",
          "name": "caller",
          "type": "address"
        },
        {
          "indexed": true,
          "internalType": "address",
          "name": "validatorsManager",
          "type": "address"
        }
      ],
      "name": "ValidatorsManagerUpdated",
      "type": "event"
    },
    {
      "anonymous": false,
      "inputs": [
        {
          "indexed": true,
          "internalType": "address",
          "name": "caller",
          "type": "address"
        },
        {
          "indexed": true,
          "internalType": "bytes32",
          "name": "validatorsRoot",
          "type": "bytes32"
        }
      ],
      "name": "ValidatorsRootUpdated",
      "type": "event"
    },
    {
      "inputs": [],
      "name": "UPGRADE_INTERFACE_VERSION",
      "outputs": [
        {
          "internalType": "string",
          "name": "",
          "type": "string"
        }
      ],
      "stateMutability": "view",
      "type": "function"
    },
    {
      "inputs": [],
      "name": "admin",
      "outputs": [
        {
          "internalType": "address",
          "name": "",
          "type": "address"
        }
      ],
      "stateMutability": "view",
      "type": "function"
    },
    {
      "inputs": [
        {
          "internalType": "uint128",
          "name": "osTokenShares",
          "type": "uint128"
        }
      ],
      "name": "burnOsToken",
      "outputs": [
        {
          "internalType": "uint256",
          "name": "assets",
          "type": "uint256"
        }
      ],
      "stateMutability": "nonpayable",
      "type": "function"
    },
    {
      "inputs": [
        {
          "internalType": "address",
          "name": "receiver",
          "type": "address"
        },
        {
          "internalType": "uint256",
          "name": "positionTicket",
          "type": "uint256"
        },
        {
          "internalType": "uint256",
          "name": "timestamp",
          "type": "uint256"
        },
        {
          "internalType": "uint256",
          "name": "exitQueueIndex",
          "type": "uint256"
        }
      ],
      "name": "calculateExitedAssets",
      "outputs": [
        {
          "internalType": "uint256",
          "name": "leftTickets",
          "type": "uint256"
        },
        {
          "internalType": "uint256",
          "name": "exitedTickets",
          "type": "uint256"
        },
        {
          "internalType": "uint256",
          "name": "exitedAssets",
          "type": "uint256"
        }
      ],
      "stateMutability": "view",
      "type": "function"
    },
    {
      "inputs": [],
      "name": "capacity",
      "outputs": [
        {
          "internalType": "uint256",
          "name": "",
          "type": "uint256"
        }
      ],
      "stateMutability": "view",
      "type": "function"
    },
    {
      "inputs": [
        {
          "internalType": "uint256",
          "name": "positionTicket",
          "type": "uint256"
        },
        {
          "internalType": "uint256",
          "name": "timestamp",
          "type": "uint256"
        },
        {
          "internalType": "uint256",
          "name": "exitQueueIndex",
          "type": "uint256"
        }
      ],
      "name": "claimExitedAssets",
      "outputs": [],
      "stateMutability": "nonpayable",
      "type": "function"
    },
    {
      "inputs": [
        {
          "internalType": "uint256",
          "name": "shares",
          "type": "uint256"
        }
      ],
      "name": "convertToAssets",
      "outputs": [
        {
          "internalType": "uint256",
          "name": "assets",
          "type": "uint256"
        }
      ],
      "stateMutability": "view",
      "type": "function"
    },
    {
      "inputs": [
        {
          "internalType": "uint256",
          "name": "assets",
          "type": "uint256"
        }
      ],
      "name": "convertToShares",
      "outputs": [
        {
          "internalType": "uint256",
          "name": "shares",
          "type": "uint256"
        }
      ],
      "stateMutability": "view",
      "type": "function"
    },
    {
      "inputs": [
        {
          "internalType": "address",
          "name": "receiver",
          "type": "address"
        },
        {
          "internalType": "address",
          "name": "referrer",
          "type": "address"
        }
      ],
      "name": "deposit",
      "outputs": [
        {
          "internalType": "uint256",
          "name": "shares",
          "type": "uint256"
        }
      ],
      "stateMutability": "payable",
      "type": "function"
    },
    {
      "inputs": [
        {
          "internalType": "address",
          "name": "receiver",
          "type": "address"
        },
        {
          "internalType": "uint256",
          "name": "osTokenShares",
          "type": "uint256"
        },
        {
          "internalType": "address",
          "name": "referrer",
          "type": "address"
        }
      ],
      "name": "depositAndMintOsToken",
      "outputs": [
        {
          "internalType": "uint256",
          "name": "",
          "type": "uint256"
        }
      ],
      "stateMutability": "payable",
      "type": "function"
    },
    {
      "inputs": [
        {
          "internalType": "uint256",
          "name": "shares",
          "type": "uint256"
        },
        {
          "internalType": "address",
          "name": "receiver",
          "type": "address"
        }
      ],
      "name": "enterExitQueue",
      "outputs": [
        {
          "internalType": "uint256",
          "name": "positionTicket",
          "type": "uint256"
        }
      ],
      "stateMutability": "nonpayable",
      "type": "function"
    },
    {
      "inputs": [],
      "name": "feePercent",
      "outputs": [
        {
          "internalType": "uint16",
          "name": "",
          "type": "uint16"
        }
      ],
      "stateMutability": "view",
      "type": "function"
    },
    {
      "inputs": [],
      "name": "feeRecipient",
      "outputs": [
        {
          "internalType": "address",
          "name": "",
          "type": "address"
        }
      ],
      "stateMutability": "view",
      "type": "function"
    },
    {
      "inputs": [
        {
          "internalType": "uint256",
          "name": "positionTicket",
          "type": "uint256"
        }
      ],
      "name": "getExitQueueIndex",
      "outputs": [
        {
          "internalType": "int256",
          "name": "",
          "type": "int256"
        }
      ],
      "stateMutability": "view",
      "type": "function"
    },
    {
      "inputs": [
        {
          "internalType": "address",
          "name": "account",
          "type": "address"
        }
      ],
      "name": "getShares",
      "outputs": [
        {
          "internalType": "uint256",
          "name": "",
          "type": "uint256"
        }
      ],
      "stateMutability": "view",
      "type": "function"
    },
    {
      "inputs": [],
      "name": "implementation",
      "outputs": [
        {
          "internalType": "address",
          "name": "",
          "type": "address"
        }
      ],
      "stateMutability": "view",
      "type": "function"
    },
    {
      "inputs": [
        {
          "internalType": "bytes",
          "name": "params",
          "type": "bytes"
        }
      ],
      "name": "initialize",
      "outputs": [],
      "stateMutability": "payable",
      "type": "function"
    },
    {
      "inputs": [],
      "name": "isStateUpdateRequired",
      "outputs": [
        {
          "internalType": "bool",
          "name": "",
          "type": "bool"
        }
      ],
      "stateMutability": "view",
      "type": "function"
    },
    {
      "inputs": [
        {
          "internalType": "uint256",
          "name": "osTokenShares",
          "type": "uint256"
        },
        {
          "internalType": "address",
          "name": "owner",
          "type": "address"
        },
        {
          "internalType": "address",
          "name": "receiver",
          "type": "address"
        }
      ],
      "name": "liquidateOsToken",
      "outputs": [],
      "stateMutability": "nonpayable",
      "type": "function"
    },
    {
      "inputs": [],
      "name": "mevEscrow",
      "outputs": [
        {
          "internalType": "address",
          "name": "",
          "type": "address"
        }
      ],
      "stateMutability": "view",
      "type": "function"
    },
    {
      "inputs": [
        {
          "internalType": "address",
          "name": "receiver",
          "type": "address"
        },
        {
          "internalType": "uint256",
          "name": "osTokenShares",
          "type": "uint256"
        },
        {
          "internalType": "address",
          "name": "referrer",
          "type": "address"
        }
      ],
      "name": "mintOsToken",
      "outputs": [
        {
          "internalType": "uint256",
          "name": "assets",
          "type": "uint256"
        }
      ],
      "stateMutability": "nonpayable",
      "type": "function"
    },
    {
      "inputs": [
        {
          "internalType": "bytes[]",
          "name": "data",
          "type": "bytes[]"
        }
      ],
      "name": "multicall",
      "outputs": [
        {
          "internalType": "bytes[]",
          "name": "results",
          "type": "bytes[]"
        }
      ],
      "stateMutability": "nonpayable",
      "type": "function"
    },
    {
      "inputs": [
        {
          "internalType": "address",
          "name": "user",
          "type": "address"
        }
      ],
      "name": "osTokenPositions",
      "outputs": [
        {
          "internalType": "uint128",
          "name": "shares",
          "type": "uint128"
        }
      ],
      "stateMutability": "view",
      "type": "function"
    },
    {
      "inputs": [],
      "name": "proxiableUUID",
      "outputs": [
        {
          "internalType": "bytes32",
          "name": "",
          "type": "bytes32"
        }
      ],
      "stateMutability": "view",
      "type": "function"
    },
    {
      "inputs": [],
      "name": "queuedShares",
      "outputs": [
        {
          "internalType": "uint128",
          "name": "",
          "type": "uint128"
        }
      ],
      "stateMutability": "view",
      "type": "function"
    },
    {
      "inputs": [],
      "name": "receiveFromMevEscrow",
      "outputs": [],
      "stateMutability": "payable",
      "type": "function"
    },
    {
      "inputs": [
        {
          "internalType": "uint256",
          "name": "osTokenShares",
          "type": "uint256"
        },
        {
          "internalType": "address",
          "name": "owner",
          "type": "address"
        },
        {
          "internalType": "address",
          "name": "receiver",
          "type": "address"
        }
      ],
      "name": "redeemOsToken",
      "outputs": [],
      "stateMutability": "nonpayable",
      "type": "function"
    },
    {
      "inputs": [
        {
          "components": [
            {
              "internalType": "bytes32",
              "name": "validatorsRegistryRoot",
              "type": "bytes32"
            },
            {
              "internalType": "uint256",
              "name": "deadline",
              "type": "uint256"
            },
            {
              "internalType": "bytes",
              "name": "validators",
              "type": "bytes"
            },
            {
              "internalType": "bytes",
              "name": "signatures",
              "type": "bytes"
            },
            {
              "internalType": "string",
              "name": "exitSignaturesIpfsHash",
              "type": "string"
            }
          ],
          "internalType": "struct IKeeperValidators.ApprovalParams",
          "name": "keeperParams",
          "type": "tuple"
        },
        {
          "internalType": "bytes",
          "name": "validatorsManagerSignature",
          "type": "bytes"
        }
      ],
      "name": "registerValidators",
      "outputs": [],
      "stateMutability": "nonpayable",
      "type": "function"
    },
    {
      "inputs": [
        {
          "internalType": "address",
          "name": "_feeRecipient",
          "type": "address"
        }
      ],
      "name": "setFeeRecipient",
      "outputs": [],
      "stateMutability": "nonpayable",
      "type": "function"
    },
    {
      "inputs": [
        {
          "internalType": "string",
          "name": "metadataIpfsHash",
          "type": "string"
        }
      ],
      "name": "setMetadata",
      "outputs": [],
      "stateMutability": "nonpayable",
      "type": "function"
    },
    {
      "inputs": [
        {
          "internalType": "address",
          "name": "validatorsManager_",
          "type": "address"
        }
      ],
      "name": "setValidatorsManager",
      "outputs": [],
      "stateMutability": "nonpayable",
      "type": "function"
    },
    {
      "inputs": [],
      "name": "totalAssets",
      "outputs": [
        {
          "internalType": "uint256",
          "name": "",
          "type": "uint256"
        }
      ],
      "stateMutability": "view",
      "type": "function"
    },
    {
      "inputs": [],
      "name": "totalExitingAssets",
      "outputs": [
        {
          "internalType": "uint128",
          "name": "",
          "type": "uint128"
        }
      ],
      "stateMutability": "view",
      "type": "function"
    },
    {
      "inputs": [],
      "name": "totalShares",
      "outputs": [
        {
          "internalType": "uint256",
          "name": "",
          "type": "uint256"
        }
      ],
      "stateMutability": "view",
      "type": "function"
    },
    {
      "inputs": [
        {
          "internalType": "uint256",
          "name": "osTokenShares",
          "type": "uint256"
        }
      ],
      "name": "transferOsTokenPositionToEscrow",
      "outputs": [
        {
          "internalType": "uint256",
          "name": "positionTicket",
          "type": "uint256"
        }
      ],
      "stateMutability": "nonpayable",
      "type": "function"
    },
    {
      "inputs": [
        {
          "components": [
            {
              "internalType": "bytes32",
              "name": "rewardsRoot",
              "type": "bytes32"
            },
            {
              "internalType": "int160",
              "name": "reward",
              "type": "int160"
            },
            {
              "internalType": "uint160",
              "name": "unlockedMevReward",
              "type": "uint160"
            },
            {
              "internalType": "bytes32[]",
              "name": "proof",
              "type": "bytes32[]"
            }
          ],
          "internalType": "struct IKeeperRewards.HarvestParams",
          "name": "harvestParams",
          "type": "tuple"
        }
      ],
      "name": "updateState",
      "outputs": [],
      "stateMutability": "nonpayable",
      "type": "function"
    },
    {
      "inputs": [
        {
          "internalType": "address",
          "name": "receiver",
          "type": "address"
        },
        {
          "internalType": "address",
          "name": "referrer",
          "type": "address"
        },
        {
          "components": [
            {
              "internalType": "bytes32",
              "name": "rewardsRoot",
              "type": "bytes32"
            },
            {
              "internalType": "int160",
              "name": "reward",
              "type": "int160"
            },
            {
              "internalType": "uint160",
              "name": "unlockedMevReward",
              "type": "uint160"
            },
            {
              "internalType": "bytes32[]",
              "name": "proof",
              "type": "bytes32[]"
            }
          ],
          "internalType": "struct IKeeperRewards.HarvestParams",
          "name": "harvestParams",
          "type": "tuple"
        }
      ],
      "name": "updateStateAndDeposit",
      "outputs": [
        {
          "internalType": "uint256",
          "name": "shares",
          "type": "uint256"
        }
      ],
      "stateMutability": "payable",
      "type": "function"
    },
    {
      "inputs": [
        {
          "internalType": "address",
          "name": "receiver",
          "type": "address"
        },
        {
          "internalType": "uint256",
          "name": "osTokenShares",
          "type": "uint256"
        },
        {
          "internalType": "address",
          "name": "referrer",
          "type": "address"
        },
        {
          "components": [
            {
              "internalType": "bytes32",
              "name": "rewardsRoot",
              "type": "bytes32"
            },
            {
              "internalType": "int160",
              "name": "reward",
              "type": "int160"
            },
            {
              "internalType": "uint160",
              "name": "unlockedMevReward",
              "type": "uint160"
            },
            {
              "internalType": "bytes32[]",
              "name": "proof",
              "type": "bytes32[]"
            }
          ],
          "internalType": "struct IKeeperRewards.HarvestParams",
          "name": "harvestParams",
          "type": "tuple"
        }
      ],
      "name": "updateStateAndDepositAndMintOsToken",
      "outputs": [
        {
          "internalType": "uint256",
          "name": "",
          "type": "uint256"
        }
      ],
      "stateMutability": "payable",
      "type": "function"
    },
    {
      "inputs": [
        {
          "internalType": "address",
          "name": "newImplementation",
          "type": "address"
        },
        {
          "internalType": "bytes",
          "name": "data",
          "type": "bytes"
        }
      ],
      "name": "upgradeToAndCall",
      "outputs": [],
      "stateMutability": "payable",
      "type": "function"
    },
    {
      "inputs": [],
      "name": "validatorsManager",
      "outputs": [
        {
          "internalType": "address",
          "name": "",
          "type": "address"
        }
      ],
      "stateMutability": "view",
      "type": "function"
    },
    {
      "inputs": [],
      "name": "vaultId",
      "outputs": [
        {
          "internalType": "bytes32",
          "name": "",
          "type": "bytes32"
        }
      ],
      "stateMutability": "pure",
      "type": "function"
    },
    {
      "inputs": [],
      "name": "version",
      "outputs": [
        {
          "internalType": "uint8",
          "name": "",
          "type": "uint8"
        }
      ],
      "stateMutability": "pure",
      "type": "function"
    },
    {
      "inputs": [],
      "name": "withdrawableAssets",
      "outputs": [
        {
          "internalType": "uint256",
          "name": "",
          "type": "uint256"
        }
      ],
      "stateMutability": "view",
      "type": "function"
    },
    {
      "stateMutability": "payable",
      "type": "receive"
    }
  ],
  "bytecode": "0x6101e034620002695762004dad6001600160401b03601f38839003908101601f1916840190828211858310176200026d5780859460409384528539610120938491810103126200026957620000548462000281565b91620000636020860162000281565b916200007181870162000281565b93620000806060880162000281565b916200008f6080890162000281565b936200009e60a08a0162000281565b95620000ad60c08b0162000281565b97620000bc60e08c0162000281565b91610100809c01519560805260a05260c0523060e052895246885261014092835260018060a01b03806101609516855280610180961686526101a0961686526101c09687527ff0c57e16840df040f15088dc2f81fe391c3923bec73e23a9662efc9c229c6a009081549060ff82851c166200025857808083160362000213575b5050505195614b1697886200029789396080518881816113cc015281816115640152818161280201528181613744015261489f015260a05188611099015260c051888181613a340152613b55015260e05188818161121801526135070152518761249c015251866137ba0152518561170a0152518481816103f401528181610686015281816124dd01528181612db501528181612f220152818161300e015261423f01525183818161074501528181610d16015281816130cd01526141c3015251826119d4015251818181611eee015261284a0152f35b6001600160401b0319909116811790915581519081527fc7f505b2f371ae2175ee4913f4499e1f2633a7b5936321eed1cdaeb6115181d290602090a15f80806200013c565b835163f92ee8a960e01b8152600490fd5b5f80fd5b634e487b7160e01b5f52604160045260245ffd5b51906001600160a01b0382168203620002695756fe60806040526004361015610022575b3615610018575f80fd5b6100206124be565b005b5f3560e01c806301d523b6146102d157806301e1d114146102cc578063066055e0146102c757806307a2d13a146102c257806318f72950146102bd5780631a7ff553146102b8578063201b9eb5146102b35780632999ad3f146102ae5780632cdf7401146102a95780633229fa95146102a457806333194c0a1461029f57806336fe59d21461029a5780633a98ef3914610295578063439fab911461029057806343e82a791461028b57806346904840146102865780634ec96b22146102815780634f1ef2861461027c57806352d1902d1461027757806353156f281461027257806354fd4d501461026d5780635c60da1b146102685780635cfc1a511461026357806360d60e6e1461025e57806372b410a814610259578063754c38881461025457806376b58b901461024f5780637fd6f15c1461024a57806383d430d5146102455780638697d2c2146102405780638ceab9aa1461023b5780639267842a14610236578063a49a1e7d14610231578063ac9650d81461022c578063ad3cb1cc14610227578063b1f0e7c714610222578063c6e6f5921461021d578063d83ad00c14610218578063e74b981b14610213578063ee3bd5df1461020e578063f04da65b14610209578063f851a440146102045763f9609f080361000e57611d75565b611d4e565b611d13565b611ced565b611cc0565b611c9a565b611c7c565b611c62565b611c1d565b611ba7565b611aac565b6118b8565b611884565b6116de565b61150e565b6114ea565b611499565b61142e565b6113a1565b6112fc565b6112e2565b6112ae565b611293565b61126f565b611206565b610f81565b610e1c565b610df4565b610ce7565b610c21565b610ba0565b610b7f565b610b45565b610b19565b610aff565b61065c565b610619565b6105ba565b610566565b610548565b6103a4565b610373565b6102f9565b6001600160a01b038116036102e757565b5f80fd5b908160809103126102e75790565b60803660031901126102e757600435610311816102d6565b60443561031d816102d6565b606435906001600160401b0382116102e75760209261034b6103466103619436906004016102eb565b611e7b565b610356823433613ee0565b506024359033612cf1565b604051908152f35b5f9103126102e757565b346102e7575f3660031901126102e757602060985460801c604051908152f35b6001600160801b038116036102e757565b346102e75760203660031901126102e7576004356103c181610393565b604051633b9e9f0160e21b81523360048201526001600160801b03821660248201526020816044815f6001600160a01b037f0000000000000000000000000000000000000000000000000000000000000000165af1908115610543575f91610514575b50335f9081526101376020526040902061043d90611db9565b916001600160801b0361045784516001600160801b031690565b1615610502576104b08361046d6104fe956124c8565b61049761048a8461048584516001600160801b031690565b611e0a565b6001600160801b03168252565b335f90815261013760205260409020611e23565b611e23565b604080518381526001600160801b0392909216602083015233917f3f7354ba02880b4fa37a629985852a38417ff369369ce1e52fa6f8342a9100a79190a26040519081529081906020820190565b0390f35b60405163673f032f60e11b8152600490fd5b610536915060203d60201161053c575b61052e8183610f0f565b810190611d9f565b5f610424565b503d610524565b611dae565b346102e75760203660031901126102e7576020610361600435611e55565b60603660031901126102e75760043561057e816102d6565b60243561058a816102d6565b604435906001600160401b0382116102e7576020926105b36103466103619436906004016102eb565b3490613ee0565b346102e75760203660031901126102e7576004356001600160401b0381116102e7576103466100209136906004016102eb565b60609060031901126102e757600435610605816102d6565b9060243590604435610616816102d6565b90565b346102e757602061036161062c366105ed565b9133612cf1565b60609060031901126102e7576004359060243561064f816102d6565b90604435610616816102d6565b346102e75761066a36610633565b906001600160a01b0380831615610aed57610683613729565b807f00000000000000000000000000000000000000000000000000000000000000001691823b156102e75760408051631d8557d760e01b815260049491905f81878183875af1801561054357610ad4575b506001600160a01b0383165f908152610137602052604090206106f690611db9565b6001600160801b03928361071183516001600160801b031690565b1615610ac457610720826124c8565b825163e48a5f7b60e01b8152308882019081529097906060908990819060200103818a7f0000000000000000000000000000000000000000000000000000000000000000165afa978815610543575f98610a93575b50602097888101956001600160401b039182806107998a516001600160401b031690565b1614610a8357908c92918751918c83806107c56303d1689d60e11b988983528a83019190602083019252565b03818a5afa918215610543576107f1938e5f94610a5e575b5050516001600160801b03165b16906125f7565b9661081561080f8a60018060a01b03165f52609c60205260405f2090565b54611e55565b928389118015610a4e575b610a3e57908b61085e939261083c89516001600160801b031690565b908a51958692839283528983019190916001600160801b036020820193169052565b0381895afa91821561054357670de0b6b3a7640000946108ad948e5f95610a11575b505061089f6108916108a592612273565b93516001600160401b031690565b93612273565b92169061266b565b1015610a03578351633b9e9f0160e21b815233918101918252602082018b905294939291889186919082905f90829060400103925af1908115610543577f61fd285f9e34a3dbfa9846bdcf22a023e37a3c93549902843b30dd74a18c5350976109e095610957936109e5575b505061093a61048a61092a8c613c5a565b83516001600160801b0316611e0a565b6001600160a01b0386165f90815261013760205260409020611e23565b61096082613d27565b9061099f61098461097085613c5a565b60985460801c5b036001600160801b031690565b6001600160801b036098549181199060801b16911617609855565b6109a982866142aa565b6109b38389613c8d565b51948594169733978590949392606092608083019660018060a01b03168352602083015260408201520152565b0390a3005b816109fb92903d1061053c5761052e8183610f0f565b505f80610919565b835163185cfc6d60e11b8152fd5b6108a5929550610a3461089f928261089193903d1061053c5761052e8183610f0f565b959250508e610880565b875163efda1a2760e01b81528590fd5b50610a57611e9f565b8911610820565b6107ea9294509081610a7b92903d1061053c5761052e8183610f0f565b92908e6107dd565b8651630709133160e01b81528490fd5b610ab691985060603d606011610abd575b610aae8183610f0f565b810190612fb0565b965f610775565b503d610aa4565b825163673f032f60e11b81528790fd5b80610ae1610ae792610ec6565b80610369565b5f6106d4565b60405163d92e233d60e01b8152600490fd5b346102e7575f3660031901126102e7576020610361611e9f565b346102e7575f3660031901126102e7576020610b33611ed5565b6040516001600160a01b039091168152f35b346102e7575f3660031901126102e75760206040517fd92dbcef7ed61a67c0eefa7cafcc41f41d9402a5046486977364b4724c821f8b8152f35b6020610361610b8d366105ed565b91610b99833433613ee0565b5033612cf1565b346102e7575f3660031901126102e75760206001600160801b0360985416604051908152f35b9181601f840112156102e7578235916001600160401b0383116102e757602083818601950101116102e757565b60206003198201126102e757600435906001600160401b0382116102e757610c1d91600401610bc6565b9091565b610c2a36610bf3565b907ff0c57e16840df040f15088dc2f81fe391c3923bec73e23a9662efc9c229c6a009182549160ff8360401c168015610cd3575b610cc15768010000000000000003610c849368ffffffffffffffffff1916178455611fa4565b68ff00000000000000001981541690557fc7f505b2f371ae2175ee4913f4499e1f2633a7b5936321eed1cdaeb6115181d2602060405160038152a1005b60405163f92ee8a960e01b8152600490fd5b5060036001600160401b0384161015610c5e565b346102e757610cf536610633565b60405163057453a760e31b81529091906001600160a01b03906020816004817f000000000000000000000000000000000000000000000000000000000000000086165afa80156105435782915f91610dc5575b50163303610db357816109e0610d8086867f57f5eb636bf62215c111b54545422f11dfb0cb115f606be905f0be08e8859dd396612ff0565b604080516001600160a01b0390981688526020880198909852968601526060850195909552169233929081906080820190565b604051634ca8886760e01b8152600490fd5b610de7915060203d602011610ded575b610ddf8183610f0f565b810190611f10565b5f610d48565b503d610dd5565b346102e7575f3660031901126102e7576065546040516001600160a01b039091168152602090f35b346102e75760203660031901126102e757600435610e39816102d6565b60018060a01b03165f52610137602052602060405f2060405190610e5c82610ea6565b54906001600160801b03918281169081835260801c84830152610e84575b5116604051908152f35b610e8d816124c8565b610e7a565b634e487b7160e01b5f52604160045260245ffd5b604081019081106001600160401b03821117610ec157604052565b610e92565b6001600160401b038111610ec157604052565b606081019081106001600160401b03821117610ec157604052565b608081019081106001600160401b03821117610ec157604052565b90601f801991011681019081106001600160401b03821117610ec157604052565b6001600160401b038111610ec157601f01601f191660200190565b929192610f5782610f30565b91610f656040519384610f0f565b8294818452818301116102e7578281602093845f960137010152565b6040806003193601126102e7576004908135610f9c816102d6565b6024356001600160401b0381116102e757366023820112156102e757610fcb9036906024818701359101610f4b565b91610fd46134fd565b80519261100b84610ffd60209363439fab9160e01b858401528460248401526044830190611b1f565b03601f198101865285610f0f565b6110136134fd565b61101b613556565b6001600160a01b038381168015929190879084156111d1575b8415611163575b8415611100575b5050821561106a575b505061105b57610020838361445b565b516355299b4960e01b81528390fd5b83516345da87c560e01b81526001600160a01b03861688820190815292935091839183918290819060200103917f0000000000000000000000000000000000000000000000000000000000000000165afa918215610543575f926110d3575b5050155f8061104b565b6110f29250803d106110f9575b6110ea8183610f0f565b810190612084565b5f806110c9565b503d6110e0565b855163054fd4d560e41b81529294508391839182905afa90811561054357879160ff915f91611136575b5016141591865f611042565b6111569150843d861161115c575b61114e8183610f0f565b810190614442565b5f61112a565b503d611144565b935050835163198ca60560e11b815282818981875afa9081156105435788917fd92dbcef7ed61a67c0eefa7cafcc41f41d9402a5046486977364b4724c821f8b915f916111b4575b5014159361103b565b6111cb9150853d871161053c5761052e8183610f0f565b5f6111ab565b5f80516020614ac18339815191525490945084906111ff906001600160a01b03165b6001600160a01b031690565b1493611034565b346102e7575f3660031901126102e7577f00000000000000000000000000000000000000000000000000000000000000006001600160a01b0316300361125d5760206040515f80516020614ac18339815191528152f35b60405163703e46dd60e11b8152600490fd5b5f3660031901126102e7576001600160a01b0361128a611ed5565b163303610db357005b346102e7575f3660031901126102e757602060405160038152f35b346102e7575f3660031901126102e7575f80516020614ac1833981519152546040516001600160a01b039091168152602090f35b346102e7575f3660031901126102e7576020610361612069565b346102e75760203660031901126102e757609a80549081905f6004355b84821061134a5750505081101561133f576104fe905b6040519081529081906020820190565b506104fe5f1961132f565b909193808316906001818518811c830180931161139c575f8790525f80516020614a818339815191528301546001600160a01b0316841015611391575050935b9190611319565b90959101925061138a565b611dde565b346102e7575f3660031901126102e757604051633eb1acf760e11b81523060048201526020816024817f00000000000000000000000000000000000000000000000000000000000000006001600160a01b03165afa8015610543576020915f91611411575b506040519015158152f35b6114289150823d84116110f9576110ea8183610f0f565b5f611406565b346102e75760203660031901126102e75760043561144b816102d6565b611453613556565b60d280546001600160a01b0319166001600160a01b03929092169182179055337f6bdc78d8c88160b3fc3638e67f2afe523b3f4c7d00c56ebb6216790e4c3eb2cb5f80a3005b346102e75760803660031901126102e7576104fe6114cd6004356114bc816102d6565b6064359060443590602435906120a5565b604080519384526020840192909252908201529081906060820190565b346102e7575f3660031901126102e757602061ffff60655460a01c16604051908152f35b346102e7576003196040368201126102e75760049081356001600160401b038082116102e75760a08285019383360301126102e7576024359081116102e75761155a9036908501610bc6565b6001600160a01b037f00000000000000000000000000000000000000000000000000000000000000008116803b156102e75760405163837d444160e01b8152905f9082908183816115ad8c828f01612187565b03925af18015610543576116cb575b506115c5613729565b6115cd612488565b908116331415918261169c575b5050905061168b576044019160b06115f28484612205565b90500480158015611673575b6116635761161361160d611e9f565b9161225a565b11611654575060b06116258383612205565b9050145f14611641576100209161163b91612205565b90613b47565b6100209161164e91612205565b90613a1f565b6040516396d8043360e01b8152fd5b50604051631c6c4cf360e31b8152fd5b5061167e8484612205565b905060b0820214156115fe565b604051634ca8886760e01b81528390fd5b6116bf92506116b96116c3946116b1886137b4565b923691610f4b565b9161388e565b1590565b805f806115da565b80610ae16116d892610ec6565b5f6115bc565b346102e75760603660031901126102e7576004356024356117036044358284336120a5565b919261172f7f000000000000000000000000000000000000000000000000000000000000000082612290565b4210801561187c575b8015611874575b611862577feb3b05c070c24f667611fdb3ff75fe007d42401c573aed8d8faca95fd00ccb569361179a61177f61177486613c5a565b60995460801c611e0a565b6001600160801b036099549181199060801b16911617609955565b60408051336020820190815291810184905260608082018990528152601f1993915f916117de91906117cd608082610f0f565b5190205f52609b60205260405f2090565b555f9360018311611817575b505050506117f88233613c8d565b604080519485526020850191909152830152339180606081015b0390a2005b611858929394506118289088612290565b60408051336020820190815291810193909352606083018290526080958601835290949091906117cd9082610f0f565b555f8080806117ea565b604051630e3d8e8d60e11b8152600490fd5b50821561173f565b508115611738565b346102e75760403660031901126102e75760206118af6024356118a6816102d6565b600435336146b6565b61036133614636565b346102e75760203660031901126102e7576004356118d4613729565b335f908152610137602052604090206118ec90611db9565b6001600160801b038061190683516001600160801b031690565b1615610502578290611917836124c8565b82516001600160801b03161610611a9a57335f908152609c60205260409020548261195861194c84516001600160801b031690565b6001600160801b031690565b14611a845761197c908361197661194c85516001600160801b031690565b9161266b565b916119a961199c61198c83613c5a565b84516001600160801b0316610977565b6001600160801b03168352565b335f908152610137602052604090206119c3908390611e23565b611a0b60206119fc60018060a01b037f0000000000000000000000000000000000000000000000000000000000000000168096336146b6565b9301516001600160801b031690565b833b156102e75760405163074ee96960e31b81523360048201526024810184905260448101929092526001600160801b03166064820152915f908390608490829084905af1918215610543576104fe92611a71575b506040519081529081906020820190565b80610ae1611a7e92610ec6565b5f611a60565b335f9081526101376020526040812055916119c3565b604051636edcc52360e01b8152600490fd5b346102e7576118127f2013570c343af8ab14a9778150e381a0fda34ed6368127a95fd5e7210cbec5bf611ade36610bf3565b9290611ae8613556565b6040519182916020835233956020840191612167565b5f5b838110611b0f5750505f910152565b8181015183820152602001611b00565b90602091611b3881518092818552858086019101611afe565b601f01601f1916010190565b6020808201906020835283518092526040830192602060408460051b8301019501935f915b848310611b795750505050505090565b9091929394958480611b97600193603f198682030187528a51611b1f565b9801930193019194939290611b69565b346102e75760203660031901126102e7576001600160401b036004358181116102e757366023820112156102e75780600401359182116102e7573660248360051b830101116102e7576104fe916024611c0092016123db565b60405191829182611b44565b906020610616928181520190611b1f565b346102e7575f3660031901126102e7576104fe604051611c3c81610ea6565b60058152640352e302e360dc1b6020820152604051918291602083526020830190611b1f565b346102e7575f3660031901126102e7576020610b33612488565b346102e75760203660031901126102e7576020610361600435613d27565b346102e7575f3660031901126102e75760206001600160801b0360995416604051908152f35b346102e75760203660031901126102e757610020600435611ce0816102d6565b611ce8613556565b613db6565b346102e7575f3660031901126102e75760206001600160801b03609e5416604051908152f35b346102e75760203660031901126102e757600435611d30816102d6565b60018060a01b03165f52609c602052602060405f2054604051908152f35b346102e7575f3660031901126102e7575f546040516001600160a01b039091168152602090f35b60403660031901126102e7576020610361600435611d92816102d6565b602435906105b3826102d6565b908160209103126102e7575190565b6040513d5f823e3d90fd5b90604051611dc681610ea6565b91546001600160801b038116835260801c6020830152565b634e487b7160e01b5f52601160045260245ffd5b6001600160801b039081165f19019190821161139c57565b6001600160801b03918216908216039190821161139c57565b815160209092015160801b6fffffffffffffffffffffffffffffffff19166001600160801b0392909216919091179055565b6098546001600160801b0381169081611e6d57505090565b916106169260801c9061266b565b611e87611e8e916127d1565b9190612967565b611e9457565b611e9c612b1d565b50565b476099546001600160801b03611eb6818316611e55565b90609e5416019060801c01908181115f14611ecf570390565b50505f90565b61016a546001600160a01b03168015611eeb5790565b507f000000000000000000000000000000000000000000000000000000000000000090565b908160209103126102e75751610616816102d6565b906020828203126102e75781356001600160401b03928382116102e75701916060838303126102e75760405192611f5b84610ed9565b80358452602081013561ffff811681036102e757602085015260408101359182116102e757019080601f830112156102e757816020611f9c93359101610f4b565b604082015290565b5f549091906001600160a01b031661205f576040519063e7f6f22560e01b82526020928383600481335afa928315610543575f93612040575b50604051636f4fa30f60e01b8152908482600481335afa9182156105435761201b955f9361201d575b50506120159192810190611f25565b91613415565b565b6120159350908161203992903d10610ded57610ddf8183610f0f565b915f612006565b612058919350843d8611610ded57610ddf8183610f0f565b915f611fdd565b505061201b613309565b609d548061061657505f1990565b519081151582036102e757565b908160209103126102e75761061690612077565b9190820391821161139c57565b604080516001600160a01b039092166020830190815290820193909352606081018290529091906120e381608081015b03601f198101835282610f0f565b5190205f52609b60205260405f20549182156121135761210491839161358e565b909182810390811161139c5792565b5050505f905f905f90565b9035601e19823603018112156102e75701602081359101916001600160401b0382116102e75781360383136102e757565b90603060609281835260208301375f60508201520190565b908060209392818452848401375f828201840152601f01601f1916010190565b9060a0610616926020815282356020820152602083013560408201526121c36121b3604085018561211e565b84606085015260c0840191612167565b906121f66121eb6121d7606087018761211e565b601f19858703810160808701529591612167565b94608081019061211e565b93909282860301910152612167565b903590601e19813603018212156102e757018035906001600160401b0382116102e7576020019181360383136102e757565b634e487b7160e01b5f52601260045260245ffd5b8115612255570490565b612237565b906801bc16d674ec800000918083029283040361139c57565b90670de0b6b3a76400009182810292818404149015171561139c57565b9190820180921161139c57565b6001600160401b038111610ec15760051b60200190565b906122be8261229d565b6122cb6040519182610f0f565b82815280926122dc601f199161229d565b01905f5b8281106122ec57505050565b8060606020809385010152016122e0565b634e487b7160e01b5f52603260045260245ffd5b9082101561232857610c1d9160051b810190612205565b6122fd565b908092918237015f815290565b3d15612364573d9061234b82610f30565b916123596040519384610f0f565b82523d5f602084013e565b606090565b6020818303126102e7578051906001600160401b0382116102e7570181601f820112156102e757805161239b81610f30565b926123a96040519485610f0f565b818452602082840101116102e7576106169160208085019101611afe565b80518210156123285760209160051b010190565b9190916123e7836122b4565b925f5b8181106123f657505050565b5f80612403838587612311565b6040939161241585518093819361232d565b0390305af49061242361233a565b911561244a57509060019161243882886123c7565b5261244381876123c7565b50016123ea565b9060448151106102e75761248461246f60049283810151602480918301019101612369565b925162461bcd60e51b81529283928301611c0c565b0390fd5b60d2546001600160a01b03168061061657507f000000000000000000000000000000000000000000000000000000000000000090565b611e9c3433613e18565b60405163752a536d60e01b81526020816004817f00000000000000000000000000000000000000000000000000000000000000006001600160a01b03165afa908115610543575f9161255e575b5060208201916001600160801b03918284511691828214612557578361254a61254561255295858486511661266b565b613c5a565b169052613c5a565b169052565b5050505050565b612577915060203d60201161053c5761052e8183610f0f565b5f612515565b90808202905f19818409908280831092039180830392146125ec5761271090828211156125da577fbc01a36e2eb1c432ca57a786c226809d495182a9930be0ded288ce703afb7e91940990828211900360fc1b910360041c170290565b60405163227bc15360e01b8152600490fd5b505061271091500490565b90808202905f198184099082808310920391808303921461265a57670de0b6b3a764000090828211156125da577faccb18165bd6fe31ae1cf318dc5b51eee0e1ba569b88cd74c1773b91fac10669940990828211900360ee1b910360121c170290565b5050670de0b6b3a764000091500490565b9091828202915f19848209938380861095039480860395146126de57848311156125da57829109815f038216809204600280826003021880830282030280830282030280830282030280830282030280830282030280920290030293600183805f03040190848311900302920304170290565b505090610616925061224b565b908160609103126102e757805191610616604060208401519301612077565b81835290916001600160fb1b0383116102e75760209260051b809284830137010190565b90602082528035602083015260208101358060130b8091036102e7576040830152604081013561275d816102d6565b6001600160a01b031660608381019190915281013536829003601e19018112156102e75701602081359101906001600160401b0381116102e7578060051b360382136102e75760a083608080610616960152019161270a565b9190915f838201938412911290801582169115161761139c57565b6040516325f56f1160e01b81526001600160a01b039291606090829081906127fc906004830161272e565b03815f877f0000000000000000000000000000000000000000000000000000000000000000165af1928315610543575f915f905f95612922575b5084156128cf5781612846611ed5565b16917f00000000000000000000000000000000000000000000000000000000000000001682146128c857509060205f92600460405180958193634641257d60e01b83525af1908115610543576128a3925f926128a7575b506127b6565b9190565b6128c191925060203d60201161053c5761052e8183610f0f565b905f61289d565b90816128d5575b50509190565b803b156102e757604051636ee3193160e11b815260048101929092525f908290602490829084905af180156105435761290f575b806128cf565b80610ae161291c92610ec6565b5f612909565b91945050612948915060603d606011612950575b6129408183610f0f565b8101906126eb565b93905f612836565b503d612936565b600160ff1b811461139c575f0390565b8015611e9c5761297c61194c60985460801c90565b5f8212612a53578161298d91612290565b9061299a61098483613c5a565b6129af6065549161ffff8360a01c169061257d565b8015612a4e57807f555ee6b2ef9506d870f386c067e47d3689435330b012ad263d8cc35318686547936129ed61194c6098546001600160801b031690565b80612a38575050612a3390925b6001600160a01b031691612a0e8484613f8c565b60405193849384604091949392606082019560018060a01b0316825260208201520152565b0390a1565b612a3392612a489203908461266b565b926129fa565b505050565b90612a5d90612957565b612a7261194c609e546001600160801b031690565b80612a92575b5080612a82575050565b6125456109849161201b93612098565b90612af97f3623a54e8078be0d90ecfbef82da6a31ff3e6be8aa1718e7a7f3d0d33ff1d32a9161132f612add612ad2612acb8888612290565b878561266b565b808094039603613c5a565b6001600160801b03166001600160801b0319609e541617609e55565b0390a15f612a78565b9190916001600160801b038080941691160191821161139c57565b612b3647612b3061194c60995460801c90565b90612098565b908115612cec57609e546001600160801b0381169081612c74575b5050612b6861194c6099546001600160801b031690565b9182158015612c6c575b612c6657612b8990612b8384611e55565b9061416d565b8015612c6657612b9881613d27565b928315612c5f57612c5461201b92612bd5612bb96125458861098496612098565b6001600160801b03166001600160801b03196099541617609955565b612bef61177f612be483613c5a565b60995460801c612b02565b612bf98187614036565b60408051878152602081018390525f80516020614aa18339815191529190a1612545612c38612c2788613c5a565b6098546001600160801b0316611e0a565b6001600160801b03166001600160801b03196098541617609855565b60985460801c611e0a565b505f925050565b505f9150565b508015612b72565b8184929410612c5f57612be484612cbc935f80516020614aa18339815191528261177f9560801c612ca58282614036565b604080519182526020820192909252a10394613c5a565b612cd06001600160801b03609e5416609e55565b612ce56001600160801b0319609e5416609e55565b5f80612b51565b5f9150565b9392919091612cfe61417f565b612d06613729565b6001600160a01b0385165f90815261013760205260409020612d2790611db9565b946001600160801b03612d4187516001600160801b031690565b1615612f0d57612d50866124c8565b6001600160a01b0381165f908152609c60205260409020612d7990612d749061080f565b6141a0565b955f198414612edd575b6040516329460cc560e11b81526001600160a01b0386811660048301526024820186905290949093906020866044815f7f00000000000000000000000000000000000000000000000000000000000000008a165af1958615610543575f96612ebc575b508598612e15612e08612df884613c5a565b86516001600160801b0316612b02565b6001600160801b03168552565b612e2961194c85516001600160801b031690565b11612eaa577fa16d97739893e1436c9753925fb5cef174c4f368699dc86cc8fdb0e6e60f8e5895612e72612ea5946104ab8760018060a01b03165f5261013760205260405f2090565b604080516001600160a01b03998a1681526020810192909252810191909152951660608601529116929081906080820190565b0390a2565b604051633684c65960e01b8152600490fd5b612ed691965060203d60201161053c5761052e8183610f0f565b945f612de6565b9250612ef361194c84516001600160801b031690565b80871115612f0357860392612d83565b505f955050505050565b60405163752a536d60e01b81526020816004817f00000000000000000000000000000000000000000000000000000000000000006001600160a01b03165afa90811561054357612f7891612f68915f91612f7d575b50613c5a565b6001600160801b03166020880152565b612d50565b612f96915060203d60201161053c5761052e8183610f0f565b5f612f62565b51906001600160401b03821682036102e757565b908160609103126102e757611f9c6040805192612fcc84610ed9565b8051612fd781610393565b8452612fe560208201612f9c565b602085015201612f9c565b92906001600160a01b039081811615610aed5761300b613729565b817f00000000000000000000000000000000000000000000000000000000000000001690813b156102e757604094855193631d8557d760e01b85526004945f81878183895af18015610543576132f6575b506001600160a01b0388165f9081526101376020526040902061307e90611db9565b906001600160801b0361309883516001600160801b031690565b16156132e6576130a7826124c8565b875163e48a5f7b60e01b81523087820190815290916060918391908290819060200103917f0000000000000000000000000000000000000000000000000000000000000000165afa8015610543576132c7575b508651936303d1689d60e11b97888652602091828780613121888c83019190602083019252565b0381845afa968715610543575f976132a8575b50869961315461080f8d60018060a01b03165f52609c60205260405f2090565b88118015613298575b61328857908361319a9261317887516001600160801b031690565b908551948592839283528d83019190916001600160801b036020820193169052565b0381845afa988915610543575f859488946131df9c61326b575b5051633b9e9f0160e21b815233928101928352602083019490945292998a9384929091839160400190565b03925af19586156105435761092a613226946132099361048a9361201b9a61324d575b5050613c5a565b6001600160a01b0388165f90815261013760205260409020611e23565b61324861323283613d27565b809761324361098461097087613c5a565b6142aa565b613c8d565b8161326392903d1061053c5761052e8183610f0f565b505f80613202565b61328190873d891161053c5761052e8183610f0f565b505f6131b4565b825163efda1a2760e01b81528990fd5b506132a1611e9f565b881161315d565b6132c0919750833d851161053c5761052e8183610f0f565b955f613134565b6132df9060603d606011610abd57610aae8183610f0f565b505f6130fa565b875163673f032f60e11b81528690fd5b80610ae161330392610ec6565b5f61305c565b613311614318565b61332661194c6099546001600160801b031690565b600181116134035760011461339a575b609f54613341614842565b9080821061335d575b50506133555f609f55565b61201b6142f7565b5f80516020614aa183398151915291613390910361337a81614134565b604080519182525f602083015290918291820190565b0390a15f8061334a565b6133b7612c386133b26098546001600160801b031690565b611df2565b6133cc6001600160801b031960995416609955565b6133d46140f2565b5f80516020614aa1833981519152604051806133fb81905f60206040840193600181520152565b0390a1613336565b604051630299325160e41b8152600490fd5b61341d614318565b604083015161342a614318565b6001600160a01b0382168015610aed576001600160601b0360a01b5f5416175f557f2013570c343af8ab14a9778150e381a0fda34ed6368127a95fd5e7210cbec5bf604051602081528061348333946020830190611b1f565b0390a2602083015192613494614318565b61271061ffff8516116134eb576134e3936134b16134d693613db6565b6065805461ffff60a01b191660a09290921b61ffff60a01b1691909117905551614359565b6134de614389565b6143b0565b61201b6143df565b604051638a81d3b360e01b8152600490fd5b6001600160a01b037f0000000000000000000000000000000000000000000000000000000000000000811630811491821561353b575b505061125d57565b5f80516020614ac18339815191525416141590505f80613533565b5f546001600160a01b03163303610db357565b9060405161357681610ea6565b91546001600160a01b038116835260a01c6020830152565b609a545f948594939091808410801590613721575b61371457836136de575f5b609a5f526001600160a01b03166135d35f80516020614a818339815191528601613569565b80519097906135ea906001600160a01b03166111f3565b9861360f6136036020809b01516001600160601b031690565b6001600160601b031690565b9483811080156136d4575b6136c25791600193979a95613639613645939488035b838c039061416d565b8092019887039161266b565b019701938086118015906136b8575b6136ad57609a5f5282906136765f80516020614a818339815191528701613569565b805190890151969992966001600160a01b0390911694600193926136459290916001600160601b0390911690613639908803613630565b945050509250509190565b5081851015613654565b60405163e8722f8f60e01b8152600490fd5b50808b111561361a565b609a5f527f44da158ba27f9252712a74ff6a55c5d531f69609f1f6e7f17c4443a8e2089be38401546001600160a01b03166135ae565b505093505050505f905f90565b5084156135a3565b604051633eb1acf760e11b81523060048201526020816024817f00000000000000000000000000000000000000000000000000000000000000006001600160a01b03165afa908115610543575f91613795575b5061378357565b60405163e775715160e01b8152600490fd5b6137ae915060203d6020116110f9576110ea8183610f0f565b5f61377c565b604290467f0000000000000000000000000000000000000000000000000000000000000000036138625760d354905b6137fa6137f36040830183612205565b3691610f4b565b602081519101206040519060208201927f838af86bfca91ada6557e38d913af1c2f24ef9b2567b3b77cc9e1144314b35b0845235604083015260608201526060815261384581610ef4565b5190206040519161190160f01b8352600283015260228201522090565b61386a614506565b906137e3565b6004111561387a57565b634e487b7160e01b5f52602160045260245ffd5b61389883836145d3565b506138a581959295613870565b159384613941575b5083156138bb575b50505090565b5f9293509082916040516138f3816120d56020820194630b135d3f60e11b998a87526024840152604060448401526064830190611b1f565b51915afa9061390061233a565b82613933575b82613916575b50505f80806138b5565b61392b91925060208082518301019101611d9f565b145f8061390c565b915060208251101591613906565b6001600160a01b0383811691161493505f6138ad565b906030116102e75790603090565b906090116102e75760300190606090565b9060b0116102e75760900190602090565b909392938483116102e75784116102e7578101920390565b3590602081106139ad575090565b5f199060200360031b1b1690565b969594906139f8936139dc6139ea926060979560808c5260808c0191612167565b9089820360208b0152611b1f565b918783036040890152612167565b930152565b90602061061692818152019061214f565b916020610616938181520191612167565b60b091828104915f9081613a3161460d565b957f00000000000000000000000000000000000000000000000000000000000000006001600160a01b0316935f92905b878410613a7357505050505050505050565b82613a82910180928887613987565b90613a8d8282613957565b91613aac613aa6613a9e8684613965565b969093613976565b9061399f565b90893b156102e7575f908d613ad9604094855198899485946304512a2360e31b86528a8a600488016139bb565b03816801bc16d674ec8000008d5af1908115610543577f64b6e61d93b7a91e8cc4376183ede0997a27b44fd9dd2f30a866b2a5730efdb194613b2592613b34575b505192839283613a0e565b0390a160018193019290613a61565b80610ae1613b4192610ec6565b5f613b1a565b816030116102e757613aa6917f00000000000000000000000000000000000000000000000000000000000000006001600160a01b0316613b8561460d565b90613b9c613b938486613965565b96909486613976565b94813b156102e7576801bc16d674ec8000005f94613c0297604051988996879586946304512a2360e31b865260806004870152613bf3613be08d608489019061214f565b60031994858983030160248a0152611b1f565b92868403016044870152612167565b90606483015203925af1908115610543577f64b6e61d93b7a91e8cc4376183ede0997a27b44fd9dd2f30a866b2a5730efdb192612a3392613c4b575b50604051918291826139fd565b613c5490610ec6565b5f613c3e565b6001600160801b0390818111613c6e571690565b604490604051906306dfcc6560e41b8252608060048301526024820152fd5b907f9b779b17422d0df92223018b32b4d1fa46e071723d6817e2486d003becc55f00916002835414613d155760028355814710613cfd575f918291829182916001600160a01b03165af1613cdf61233a565b5015613ceb5760019055565b604051630a12f52160e11b8152600490fd5b60405163cd78605960e01b8152306004820152602490fd5b604051633ee5aeb560e01b8152600490fd5b609854906001600160801b03821681158015613d56575b15613d495750905090565b6106169260801c9161266b565b508015613d3e565b6098546001600160801b0381169082158015613dae575b15613d7f57505090565b60801c90613d8e82828561266b565b9282156122555709613d9d5790565b600181018091111561061657611dde565b508115613d75565b613dbe613729565b6001600160a01b03168015613e0657606580546001600160a01b03191682179055337faaebcf1bfa00580e41d966056b48521fa9f202645c86d4ddf28113e617c1b1d35f80a3565b604051630ed1b8b360e31b8152600490fd5b9190613e22613729565b6001600160a01b038316908115610aed578015613ece5780613e4961194c60985460801c90565b0193613e53612069565b8511613ebc5761098494613e7a91613e75613e6d85613d5e565b978893613c5a565b613f8c565b60408051918252602082018590525f9082015233907f861a4138e41fb21c121a7dbb1053df465c837fc77380cc7226189a662281be2c9080606081015b0390a3565b6040516304ffa0ff60e51b8152600490fd5b6040516318374fd160e21b8152600490fd5b90929192613eec613729565b6001600160a01b038216918215610aed578115613ece5781613f1361194c60985460801c90565b01613f1c612069565b8111613ebc5761098495613f63613eb7927f861a4138e41fb21c121a7dbb1053df465c837fc77380cc7226189a662281be2c94613e75613f5b88613d5e565b9a8b93613c5a565b60408051948552602085018890526001600160a01b039091169084015233929081906060820190565b613f9582613c5a565b60985490613fad6001600160801b0391828416612b02565b16906001600160801b0319161760985560018060a01b03165f52609c60205260405f20908154019055565b609a549068010000000000000000821015610ec1576001820180609a5582101561232857609a5f52805160209091015160a01b6001600160a01b0319166001600160a01b0391909116175f80516020614a8183398151915290910155565b91909180156140e057614047614842565b90810180911161139c576001600160a01b038082116140c0576001600160601b03908185116140a0579061201b939461409b926040519461408786610ea6565b168452166001600160601b03166020830152565b613fd8565b6040516306dfcc6560e41b81526060600482015260248101869052604490fd5b6040516306dfcc6560e41b815260a0600482015260248101839052604490fd5b604051632ec8835b60e21b8152600490fd5b6140fa614842565b6001810180911161139c576001600160a01b038082116140c0579061201b916040519161412683610ea6565b1681525f6020820152613fd8565b80156140e057614142614842565b90810180911161139c576001600160a01b038082116140c0579061201b916040519161412683610ea6565b908082101561417a575090565b905090565b614187614884565b1561418e57565b604051630a62fbdb60e11b8152600490fd5b60405163e48a5f7b60e01b81523060048201526001600160a01b036060826024817f000000000000000000000000000000000000000000000000000000000000000085165afa80156105435761423b936001600160401b036107ea604061421a946020975f9161428b575b5001516001600160401b031690565b9060405180809581946363737ac960e11b8352600483019190602083019252565b03917f0000000000000000000000000000000000000000000000000000000000000000165afa908115610543575f91614272575090565b610616915060203d60201161053c5761052e8183610f0f565b6142a4915060603d606011610abd57610aae8183610f0f565b5f61420b565b60018060a01b03165f52609c60205260405f2090815481810390811161139c576142d49255613c5a565b609854906001600160801b03908183160316906001600160801b03191617609855565b6142ff614318565b614307614506565b60d35481036143135750565b60d355565b60ff7ff0c57e16840df040f15088dc2f81fe391c3923bec73e23a9662efc9c229c6a005460401c161561434757565b604051631afcd79f60e31b8152600490fd5b614361614318565b801561437757600181016143725750565b609d55565b6040516331278a8760e01b8152600490fd5b614391614318565b6801bc16d674ec8000006143a3612069565b1061437757614313614506565b6143b8614318565b6001600160a01b0316806143c95750565b61016a80546001600160a01b0319169091179055565b6143e7614318565b6143ef614318565b6143f7614318565b60017f9b779b17422d0df92223018b32b4d1fa46e071723d6817e2486d003becc55f0055633b9aca00341061443057611e9c3430613e18565b60405163ea2559bb60e01b8152600490fd5b908160209103126102e7575160ff811681036102e75790565b6040516352d1902d60e01b81529290916020846004816001600160a01b0387165afa5f94816144e5575b506144ab57604051634c9c8ce360e01b81526001600160a01b0384166004820152602490fd5b90915f80516020614ac183398151915284036144cc5761201b9293506148f3565b604051632a87526960e21b815260048101859052602490fd5b6144ff91955060203d60201161053c5761052e8183610f0f565b935f614485565b6e5661756c7456616c696461746f727360881b602060405161452781610ea6565b600f8152015260405160208101907f8b73c3c69bb8fe3d512ecc4cf759cc79239f7b179b0ffacaa9a75d522b39400f82527f35d6cf9768d8be929c3a11ed667b1560ae6f1920195a985758fdd7265505d1ca60408201527fc89efdaa54c0f20c7adf612882df0950f5a951637e0307cdcb4c672f298b8bc660608201524660808201523060a082015260a0815260c081018181106001600160401b03821117610ec15760405251902090565b8151919060418303614603576145fc9250602082015190606060408401519301515f1a90614995565b9192909190565b50505f9160029190565b604051600160f81b60208201525f60218201523060601b602c8201526020815261061681610ea6565b60018060a01b0381165f5261013760205260405f20906040519161465983610ea6565b54906001600160801b03918281169081855260801c602085015215612a4e57612d7461080f6146ac9261468a613729565b614693866124c8565b6001600160a01b03165f908152609c6020526040902090565b91511611612eaa57565b9291908015611a9a576001600160a01b03828116928315610aed576146dc6116bf614884565b6147c957906117cd956147ad612bb9857f211091c5bf013c1230f996c3bb2bc327e3de429a3d3c356dcea9a0c858bc407f958161478261472761194c6099546001600160801b031690565b926120d56147548561474f61473a614842565b61474961194c609e5460801c90565b90612290565b612290565b9e8f6040519283916020830195429087604091949392606082019560018060a01b0316825260208201520152565b556001600160a01b0385165f908152609c602052604090206147a5838254612098565b905501613c5a565b6040805188815260208101959095529116929081908101613eb7565b9293946147d583611e55565b938415613ece577f5cdf07ad0fc222442720b108e3ed4c4640f0fadc2ab2253e66f259a0fea834809361481f8661483a93614815610984612c5484613c5a565b61324884876142aa565b60405193849316958360209093929193604081019481520152565b0390a35f1990565b609a548061484f57505f90565b609a5f527f44da158ba27f9252712a74ff6a55c5d531f69609f1f6e7f17c4443a8e2089be301546001600160a01b03166111f3565b604051630156a69560e11b81523060048201526020816024817f00000000000000000000000000000000000000000000000000000000000000006001600160a01b03165afa908115610543575f916148da575090565b610616915060203d6020116110f9576110ea8183610f0f565b90813b15614974575f80516020614ac183398151915280546001600160a01b0319166001600160a01b0384169081179091557fbc7cd75a20ee27fd9adebab32041f755214dbc6bffa90cc0225b39da2e5c2d3b5f80a280511561495957611e9c91614a17565b50503461496257565b60405163b398979f60e01b8152600490fd5b604051634c9c8ce360e01b81526001600160a01b0383166004820152602490fd5b91907f7fffffffffffffffffffffffffffffff5d576e7357a4501ddfe92f46681b20a08411614a0c579160209360809260ff5f9560405194855216868401526040830152606082015282805260015afa15610543575f516001600160a01b03811615614a0257905f905f90565b505f906001905f90565b5050505f9160039190565b5f8061061693602081519101845af4614a2e61233a565b9190614a445750805115613ceb57805190602001fd5b81511580614a77575b614a55575090565b604051639996b31560e01b81526001600160a01b039091166004820152602490fd5b50803b15614a4d56fe44da158ba27f9252712a74ff6a55c5d531f69609f1f6e7f17c4443a8e2089be4624ea167e477f9d39f7f4094b9dfe2e6346eb4a7aada54338db51abd554c4b9f360894a13ba1a3210667c828492db98dca3e2076cc3735a920a3ca505d382bbca2646970667358221220bfc252ddce624b4e17b899c19f83b533ae868abc55e8580e4dbd0b889736bc9064736f6c63430008160033",
  "linkReferences": {},
  "deployedLinkReferences": {}
}