{
  "_format": "hh-sol-artifact-1",
  "contractName": "EthVault",
  "sourceName": "contracts/vaults/ethereum/EthVault.sol",
  "abi": [
    {
      "inputs": [
        {
          "internalType": "address",
          "name": "_keeper",
          "type": "address"
        },
        {
          "internalType": "address",
          "name": "_vaultsRegistry",
          "type": "address"
        },
        {
          "internalType": "address",
          "name": "_validatorsRegistry",
          "type": "address"
        },
        {
          "internalType": "address",
          "name": "osTokenVaultController",
          "type": "address"
        },
        {
          "internalType": "address",
          "name": "osTokenConfig",
          "type": "address"
        },
        {
          "internalType": "address",
          "name": "sharedMevEscrow",
          "type": "address"
        },
        {
          "internalType": "address",
          "name": "depositDataRegistry",
          "type": "address"
        },
        {
          "internalType": "uint256",
          "name": "exitingAssetsClaimDelay",
          "type": "uint256"
        }
      ],
      "stateMutability": "nonpayable",
      "type": "constructor"
    },
    {
      "inputs": [],
      "name": "AccessDenied",
      "type": "error"
    },
    {
      "inputs": [
        {
          "internalType": "address",
          "name": "target",
          "type": "address"
        }
      ],
      "name": "AddressEmptyCode",
      "type": "error"
    },
    {
      "inputs": [
        {
          "internalType": "address",
          "name": "account",
          "type": "address"
        }
      ],
      "name": "AddressInsufficientBalance",
      "type": "error"
    },
    {
      "inputs": [],
      "name": "CapacityExceeded",
      "type": "error"
    },
    {
      "inputs": [
        {
          "internalType": "address",
          "name": "implementation",
          "type": "address"
        }
      ],
      "name": "ERC1967InvalidImplementation",
      "type": "error"
    },
    {
      "inputs": [],
      "name": "ERC1967NonPayable",
      "type": "error"
    },
    {
      "inputs": [],
      "name": "ExitRequestNotProcessed",
      "type": "error"
    },
    {
      "inputs": [],
      "name": "FailedInnerCall",
      "type": "error"
    },
    {
      "inputs": [],
      "name": "InsufficientAssets",
      "type": "error"
    },
    {
      "inputs": [],
      "name": "InvalidAssets",
      "type": "error"
    },
    {
      "inputs": [],
      "name": "InvalidCapacity",
      "type": "error"
    },
    {
      "inputs": [],
      "name": "InvalidCheckpointIndex",
      "type": "error"
    },
    {
      "inputs": [],
      "name": "InvalidCheckpointValue",
      "type": "error"
    },
    {
      "inputs": [],
      "name": "InvalidFeePercent",
      "type": "error"
    },
    {
      "inputs": [],
      "name": "InvalidFeeRecipient",
      "type": "error"
    },
    {
      "inputs": [],
      "name": "InvalidHealthFactor",
      "type": "error"
    },
    {
      "inputs": [],
      "name": "InvalidInitialization",
      "type": "error"
    },
    {
      "inputs": [],
      "name": "InvalidPosition",
      "type": "error"
    },
    {
      "inputs": [],
      "name": "InvalidReceivedAssets",
      "type": "error"
    },
    {
      "inputs": [],
      "name": "InvalidSecurityDeposit",
      "type": "error"
    },
    {
      "inputs": [],
      "name": "InvalidShares",
      "type": "error"
    },
    {
      "inputs": [],
      "name": "InvalidValidators",
      "type": "error"
    },
    {
      "inputs": [],
      "name": "LiquidationDisabled",
      "type": "error"
    },
    {
      "inputs": [],
      "name": "LowLtv",
      "type": "error"
    },
    {
      "inputs": [],
      "name": "MathOverflowedMulDiv",
      "type": "error"
    },
    {
      "inputs": [],
      "name": "NotCollateralized",
      "type": "error"
    },
    {
      "inputs": [],
      "name": "NotHarvested",
      "type": "error"
    },
    {
      "inputs": [],
      "name": "NotInitializing",
      "type": "error"
    },
    {
      "inputs": [],
      "name": "ReentrancyGuardReentrantCall",
      "type": "error"
    },
    {
      "inputs": [
        {
          "internalType": "uint8",
          "name": "bits",
          "type": "uint8"
        },
        {
          "internalType": "uint256",
          "name": "value",
          "type": "uint256"
        }
      ],
      "name": "SafeCastOverflowedUintDowncast",
      "type": "error"
    },
    {
      "inputs": [],
      "name": "UUPSUnauthorizedCallContext",
      "type": "error"
    },
    {
      "inputs": [
        {
          "internalType": "bytes32",
          "name": "slot",
          "type": "bytes32"
        }
      ],
      "name": "UUPSUnsupportedProxiableUUID",
      "type": "error"
    },
    {
      "inputs": [],
      "name": "UpgradeFailed",
      "type": "error"
    },
    {
      "inputs": [],
      "name": "ZeroAddress",
      "type": "error"
    },
    {
      "anonymous": false,
      "inputs": [
        {
          "indexed": false,
          "internalType": "uint256",
          "name": "shares",
          "type": "uint256"
        },
        {
          "indexed": false,
          "internalType": "uint256",
          "name": "assets",
          "type": "uint256"
        }
      ],
      "name": "CheckpointCreated",
      "type": "event"
    },
    {
      "anonymous": false,
      "inputs": [
        {
          "indexed": true,
          "internalType": "address",
          "name": "caller",
          "type": "address"
        },
        {
          "indexed": true,
          "internalType": "address",
          "name": "receiver",
          "type": "address"
        },
        {
          "indexed": false,
          "internalType": "uint256",
          "name": "assets",
          "type": "uint256"
        },
        {
          "indexed": false,
          "internalType": "uint256",
          "name": "shares",
          "type": "uint256"
        },
        {
          "indexed": false,
          "internalType": "address",
          "name": "referrer",
          "type": "address"
        }
      ],
      "name": "Deposited",
      "type": "event"
    },
    {
      "anonymous": false,
      "inputs": [
        {
          "indexed": true,
          "internalType": "address",
          "name": "owner",
          "type": "address"
        },
        {
          "indexed": true,
          "internalType": "address",
          "name": "receiver",
          "type": "address"
        },
        {
          "indexed": false,
          "internalType": "uint256",
          "name": "positionTicket",
          "type": "uint256"
        },
        {
          "indexed": false,
          "internalType": "uint256",
          "name": "shares",
          "type": "uint256"
        }
      ],
      "name": "ExitQueueEntered",
      "type": "event"
    },
    {
      "anonymous": false,
      "inputs": [
        {
          "indexed": true,
          "internalType": "address",
          "name": "receiver",
          "type": "address"
        },
        {
          "indexed": false,
          "internalType": "uint256",
          "name": "prevPositionTicket",
          "type": "uint256"
        },
        {
          "indexed": false,
          "internalType": "uint256",
          "name": "newPositionTicket",
          "type": "uint256"
        },
        {
          "indexed": false,
          "internalType": "uint256",
          "name": "withdrawnAssets",
          "type": "uint256"
        }
      ],
      "name": "ExitedAssetsClaimed",
      "type": "event"
    },
    {
      "anonymous": false,
      "inputs": [
        {
          "indexed": false,
          "internalType": "uint256",
          "name": "penalty",
          "type": "uint256"
        }
      ],
      "name": "ExitingAssetsPenalized",
      "type": "event"
    },
    {
      "anonymous": false,
      "inputs": [
        {
          "indexed": true,
          "internalType": "address",
          "name": "caller",
          "type": "address"
        },
        {
          "indexed": true,
          "internalType": "address",
          "name": "feeRecipient",
          "type": "address"
        }
      ],
      "name": "FeeRecipientUpdated",
      "type": "event"
    },
    {
      "anonymous": false,
      "inputs": [
        {
          "indexed": false,
          "internalType": "address",
          "name": "receiver",
          "type": "address"
        },
        {
          "indexed": false,
          "internalType": "uint256",
          "name": "shares",
          "type": "uint256"
        },
        {
          "indexed": false,
          "internalType": "uint256",
          "name": "assets",
          "type": "uint256"
        }
      ],
      "name": "FeeSharesMinted",
      "type": "event"
    },
    {
      "anonymous": false,
      "inputs": [
        {
          "indexed": false,
          "internalType": "uint64",
          "name": "version",
          "type": "uint64"
        }
      ],
      "name": "Initialized",
      "type": "event"
    },
    {
      "anonymous": false,
      "inputs": [
        {
          "indexed": true,
          "internalType": "address",
          "name": "caller",
          "type": "address"
        },
        {
          "indexed": true,
          "internalType": "address",
          "name": "keysManager",
          "type": "address"
        }
      ],
      "name": "KeysManagerUpdated",
      "type": "event"
    },
    {
      "anonymous": false,
      "inputs": [
        {
          "indexed": true,
          "internalType": "address",
          "name": "caller",
          "type": "address"
        },
        {
          "indexed": false,
          "internalType": "string",
          "name": "metadataIpfsHash",
          "type": "string"
        }
      ],
      "name": "MetadataUpdated",
      "type": "event"
    },
    {
      "anonymous": false,
      "inputs": [
        {
          "indexed": true,
          "internalType": "address",
          "name": "caller",
          "type": "address"
        },
        {
          "indexed": false,
          "internalType": "uint256",
          "name": "assets",
          "type": "uint256"
        },
        {
          "indexed": false,
          "internalType": "uint256",
          "name": "shares",
          "type": "uint256"
        }
      ],
      "name": "OsTokenBurned",
      "type": "event"
    },
    {
      "anonymous": false,
      "inputs": [
        {
          "indexed": true,
          "internalType": "address",
          "name": "caller",
          "type": "address"
        },
        {
          "indexed": true,
          "internalType": "address",
          "name": "user",
          "type": "address"
        },
        {
          "indexed": false,
          "internalType": "address",
          "name": "receiver",
          "type": "address"
        },
        {
          "indexed": false,
          "internalType": "uint256",
          "name": "osTokenShares",
          "type": "uint256"
        },
        {
          "indexed": false,
          "internalType": "uint256",
          "name": "shares",
          "type": "uint256"
        },
        {
          "indexed": false,
          "internalType": "uint256",
          "name": "receivedAssets",
          "type": "uint256"
        }
      ],
      "name": "OsTokenLiquidated",
      "type": "event"
    },
    {
      "anonymous": false,
      "inputs": [
        {
          "indexed": true,
          "internalType": "address",
          "name": "caller",
          "type": "address"
        },
        {
          "indexed": false,
          "internalType": "address",
          "name": "receiver",
          "type": "address"
        },
        {
          "indexed": false,
          "internalType": "uint256",
          "name": "assets",
          "type": "uint256"
        },
        {
          "indexed": false,
          "internalType": "uint256",
          "name": "shares",
          "type": "uint256"
        },
        {
          "indexed": false,
          "internalType": "address",
          "name": "referrer",
          "type": "address"
        }
      ],
      "name": "OsTokenMinted",
      "type": "event"
    },
    {
      "anonymous": false,
      "inputs": [
        {
          "indexed": true,
          "internalType": "address",
          "name": "caller",
          "type": "address"
        },
        {
          "indexed": true,
          "internalType": "address",
          "name": "user",
          "type": "address"
        },
        {
          "indexed": false,
          "internalType": "address",
          "name": "receiver",
          "type": "address"
        },
        {
          "indexed": false,
          "internalType": "uint256",
          "name": "osTokenShares",
          "type": "uint256"
        },
        {
          "indexed": false,
          "internalType": "uint256",
          "name": "shares",
          "type": "uint256"
        },
        {
          "indexed": false,
          "internalType": "uint256",
          "name": "assets",
          "type": "uint256"
        }
      ],
      "name": "OsTokenRedeemed",
      "type": "event"
    },
    {
      "anonymous": false,
      "inputs": [
        {
          "indexed": true,
          "internalType": "address",
          "name": "owner",
          "type": "address"
        },
        {
          "indexed": true,
          "internalType": "address",
          "name": "receiver",
          "type": "address"
        },
        {
          "indexed": false,
          "internalType": "uint256",
          "name": "assets",
          "type": "uint256"
        },
        {
          "indexed": false,
          "internalType": "uint256",
          "name": "shares",
          "type": "uint256"
        }
      ],
      "name": "Redeemed",
      "type": "event"
    },
    {
      "anonymous": false,
      "inputs": [
        {
          "indexed": true,
          "internalType": "address",
          "name": "implementation",
          "type": "address"
        }
      ],
      "name": "Upgraded",
      "type": "event"
    },
    {
      "anonymous": false,
      "inputs": [
        {
          "indexed": true,
          "internalType": "address",
          "name": "owner",
          "type": "address"
        },
        {
          "indexed": true,
          "internalType": "address",
          "name": "receiver",
          "type": "address"
        },
        {
          "indexed": false,
          "internalType": "uint256",
          "name": "positionTicket",
          "type": "uint256"
        },
        {
          "indexed": false,
          "internalType": "uint256",
          "name": "shares",
          "type": "uint256"
        },
        {
          "indexed": false,
          "internalType": "uint256",
          "name": "assets",
          "type": "uint256"
        }
      ],
      "name": "V2ExitQueueEntered",
      "type": "event"
    },
    {
      "anonymous": false,
      "inputs": [
        {
          "indexed": false,
          "internalType": "bytes",
          "name": "publicKey",
          "type": "bytes"
        }
      ],
      "name": "ValidatorRegistered",
      "type": "event"
    },
    {
      "anonymous": false,
      "inputs": [
        {
          "indexed": true,
          "internalType": "address",
          "name": "caller",
          "type": "address"
        },
        {
          "indexed": true,
          "internalType": "address",
          "name": "validatorsManager",
          "type": "address"
        }
      ],
      "name": "ValidatorsManagerUpdated",
      "type": "event"
    },
    {
      "anonymous": false,
      "inputs": [
        {
          "indexed": true,
          "internalType": "address",
          "name": "caller",
          "type": "address"
        },
        {
          "indexed": true,
          "internalType": "bytes32",
          "name": "validatorsRoot",
          "type": "bytes32"
        }
      ],
      "name": "ValidatorsRootUpdated",
      "type": "event"
    },
    {
      "inputs": [],
      "name": "UPGRADE_INTERFACE_VERSION",
      "outputs": [
        {
          "internalType": "string",
          "name": "",
          "type": "string"
        }
      ],
      "stateMutability": "view",
      "type": "function"
    },
    {
      "inputs": [],
      "name": "admin",
      "outputs": [
        {
          "internalType": "address",
          "name": "",
          "type": "address"
        }
      ],
      "stateMutability": "view",
      "type": "function"
    },
    {
      "inputs": [
        {
          "internalType": "uint128",
          "name": "osTokenShares",
          "type": "uint128"
        }
      ],
      "name": "burnOsToken",
      "outputs": [
        {
          "internalType": "uint256",
          "name": "assets",
          "type": "uint256"
        }
      ],
      "stateMutability": "nonpayable",
      "type": "function"
    },
    {
      "inputs": [
        {
          "internalType": "address",
          "name": "receiver",
          "type": "address"
        },
        {
          "internalType": "uint256",
          "name": "positionTicket",
          "type": "uint256"
        },
        {
          "internalType": "uint256",
          "name": "timestamp",
          "type": "uint256"
        },
        {
          "internalType": "uint256",
          "name": "exitQueueIndex",
          "type": "uint256"
        }
      ],
      "name": "calculateExitedAssets",
      "outputs": [
        {
          "internalType": "uint256",
          "name": "leftTickets",
          "type": "uint256"
        },
        {
          "internalType": "uint256",
          "name": "exitedTickets",
          "type": "uint256"
        },
        {
          "internalType": "uint256",
          "name": "exitedAssets",
          "type": "uint256"
        }
      ],
      "stateMutability": "view",
      "type": "function"
    },
    {
      "inputs": [],
      "name": "capacity",
      "outputs": [
        {
          "internalType": "uint256",
          "name": "",
          "type": "uint256"
        }
      ],
      "stateMutability": "view",
      "type": "function"
    },
    {
      "inputs": [
        {
          "internalType": "uint256",
          "name": "positionTicket",
          "type": "uint256"
        },
        {
          "internalType": "uint256",
          "name": "timestamp",
          "type": "uint256"
        },
        {
          "internalType": "uint256",
          "name": "exitQueueIndex",
          "type": "uint256"
        }
      ],
      "name": "claimExitedAssets",
      "outputs": [],
      "stateMutability": "nonpayable",
      "type": "function"
    },
    {
      "inputs": [
        {
          "internalType": "uint256",
          "name": "shares",
          "type": "uint256"
        }
      ],
      "name": "convertToAssets",
      "outputs": [
        {
          "internalType": "uint256",
          "name": "assets",
          "type": "uint256"
        }
      ],
      "stateMutability": "view",
      "type": "function"
    },
    {
      "inputs": [
        {
          "internalType": "uint256",
          "name": "assets",
          "type": "uint256"
        }
      ],
      "name": "convertToShares",
      "outputs": [
        {
          "internalType": "uint256",
          "name": "shares",
          "type": "uint256"
        }
      ],
      "stateMutability": "view",
      "type": "function"
    },
    {
      "inputs": [
        {
          "internalType": "address",
          "name": "receiver",
          "type": "address"
        },
        {
          "internalType": "address",
          "name": "referrer",
          "type": "address"
        }
      ],
      "name": "deposit",
      "outputs": [
        {
          "internalType": "uint256",
          "name": "shares",
          "type": "uint256"
        }
      ],
      "stateMutability": "payable",
      "type": "function"
    },
    {
      "inputs": [
        {
          "internalType": "address",
          "name": "receiver",
          "type": "address"
        },
        {
          "internalType": "uint256",
          "name": "osTokenShares",
          "type": "uint256"
        },
        {
          "internalType": "address",
          "name": "referrer",
          "type": "address"
        }
      ],
      "name": "depositAndMintOsToken",
      "outputs": [
        {
          "internalType": "uint256",
          "name": "",
          "type": "uint256"
        }
      ],
      "stateMutability": "payable",
      "type": "function"
    },
    {
      "inputs": [
        {
          "internalType": "uint256",
          "name": "shares",
          "type": "uint256"
        },
        {
          "internalType": "address",
          "name": "receiver",
          "type": "address"
        }
      ],
      "name": "enterExitQueue",
      "outputs": [
        {
          "internalType": "uint256",
          "name": "positionTicket",
          "type": "uint256"
        }
      ],
      "stateMutability": "nonpayable",
      "type": "function"
    },
    {
      "inputs": [],
      "name": "feePercent",
      "outputs": [
        {
          "internalType": "uint16",
          "name": "",
          "type": "uint16"
        }
      ],
      "stateMutability": "view",
      "type": "function"
    },
    {
      "inputs": [],
      "name": "feeRecipient",
      "outputs": [
        {
          "internalType": "address",
          "name": "",
          "type": "address"
        }
      ],
      "stateMutability": "view",
      "type": "function"
    },
    {
      "inputs": [
        {
          "internalType": "uint256",
          "name": "positionTicket",
          "type": "uint256"
        }
      ],
      "name": "getExitQueueIndex",
      "outputs": [
        {
          "internalType": "int256",
          "name": "",
          "type": "int256"
        }
      ],
      "stateMutability": "view",
      "type": "function"
    },
    {
      "inputs": [
        {
          "internalType": "address",
          "name": "account",
          "type": "address"
        }
      ],
      "name": "getShares",
      "outputs": [
        {
          "internalType": "uint256",
          "name": "",
          "type": "uint256"
        }
      ],
      "stateMutability": "view",
      "type": "function"
    },
    {
      "inputs": [],
      "name": "implementation",
      "outputs": [
        {
          "internalType": "address",
          "name": "",
          "type": "address"
        }
      ],
      "stateMutability": "view",
      "type": "function"
    },
    {
      "inputs": [
        {
          "internalType": "bytes",
          "name": "params",
          "type": "bytes"
        }
      ],
      "name": "initialize",
      "outputs": [],
      "stateMutability": "payable",
      "type": "function"
    },
    {
      "inputs": [],
      "name": "isStateUpdateRequired",
      "outputs": [
        {
          "internalType": "bool",
          "name": "",
          "type": "bool"
        }
      ],
      "stateMutability": "view",
      "type": "function"
    },
    {
      "inputs": [
        {
          "internalType": "uint256",
          "name": "osTokenShares",
          "type": "uint256"
        },
        {
          "internalType": "address",
          "name": "owner",
          "type": "address"
        },
        {
          "internalType": "address",
          "name": "receiver",
          "type": "address"
        }
      ],
      "name": "liquidateOsToken",
      "outputs": [],
      "stateMutability": "nonpayable",
      "type": "function"
    },
    {
      "inputs": [],
      "name": "mevEscrow",
      "outputs": [
        {
          "internalType": "address",
          "name": "",
          "type": "address"
        }
      ],
      "stateMutability": "view",
      "type": "function"
    },
    {
      "inputs": [
        {
          "internalType": "address",
          "name": "receiver",
          "type": "address"
        },
        {
          "internalType": "uint256",
          "name": "osTokenShares",
          "type": "uint256"
        },
        {
          "internalType": "address",
          "name": "referrer",
          "type": "address"
        }
      ],
      "name": "mintOsToken",
      "outputs": [
        {
          "internalType": "uint256",
          "name": "assets",
          "type": "uint256"
        }
      ],
      "stateMutability": "nonpayable",
      "type": "function"
    },
    {
      "inputs": [
        {
          "internalType": "bytes[]",
          "name": "data",
          "type": "bytes[]"
        }
      ],
      "name": "multicall",
      "outputs": [
        {
          "internalType": "bytes[]",
          "name": "results",
          "type": "bytes[]"
        }
      ],
      "stateMutability": "nonpayable",
      "type": "function"
    },
    {
      "inputs": [
        {
          "internalType": "address",
          "name": "user",
          "type": "address"
        }
      ],
      "name": "osTokenPositions",
      "outputs": [
        {
          "internalType": "uint128",
          "name": "shares",
          "type": "uint128"
        }
      ],
      "stateMutability": "view",
      "type": "function"
    },
    {
      "inputs": [],
      "name": "proxiableUUID",
      "outputs": [
        {
          "internalType": "bytes32",
          "name": "",
          "type": "bytes32"
        }
      ],
      "stateMutability": "view",
      "type": "function"
    },
    {
      "inputs": [],
      "name": "queuedShares",
      "outputs": [
        {
          "internalType": "uint128",
          "name": "",
          "type": "uint128"
        }
      ],
      "stateMutability": "view",
      "type": "function"
    },
    {
      "inputs": [],
      "name": "receiveFromMevEscrow",
      "outputs": [],
      "stateMutability": "payable",
      "type": "function"
    },
    {
      "inputs": [
        {
          "internalType": "uint256",
          "name": "osTokenShares",
          "type": "uint256"
        },
        {
          "internalType": "address",
          "name": "owner",
          "type": "address"
        },
        {
          "internalType": "address",
          "name": "receiver",
          "type": "address"
        }
      ],
      "name": "redeemOsToken",
      "outputs": [],
      "stateMutability": "nonpayable",
      "type": "function"
    },
    {
      "inputs": [
        {
          "components": [
            {
              "internalType": "bytes32",
              "name": "validatorsRegistryRoot",
              "type": "bytes32"
            },
            {
              "internalType": "uint256",
              "name": "deadline",
              "type": "uint256"
            },
            {
              "internalType": "bytes",
              "name": "validators",
              "type": "bytes"
            },
            {
              "internalType": "bytes",
              "name": "signatures",
              "type": "bytes"
            },
            {
              "internalType": "string",
              "name": "exitSignaturesIpfsHash",
              "type": "string"
            }
          ],
          "internalType": "struct IKeeperValidators.ApprovalParams",
          "name": "keeperParams",
          "type": "tuple"
        },
        {
          "internalType": "bytes",
          "name": "validatorsManagerSignature",
          "type": "bytes"
        }
      ],
      "name": "registerValidators",
      "outputs": [],
      "stateMutability": "nonpayable",
      "type": "function"
    },
    {
      "inputs": [
        {
          "internalType": "address",
          "name": "_feeRecipient",
          "type": "address"
        }
      ],
      "name": "setFeeRecipient",
      "outputs": [],
      "stateMutability": "nonpayable",
      "type": "function"
    },
    {
      "inputs": [
        {
          "internalType": "string",
          "name": "metadataIpfsHash",
          "type": "string"
        }
      ],
      "name": "setMetadata",
      "outputs": [],
      "stateMutability": "nonpayable",
      "type": "function"
    },
    {
      "inputs": [
        {
          "internalType": "address",
          "name": "validatorsManager_",
          "type": "address"
        }
      ],
      "name": "setValidatorsManager",
      "outputs": [],
      "stateMutability": "nonpayable",
      "type": "function"
    },
    {
      "inputs": [],
      "name": "totalAssets",
      "outputs": [
        {
          "internalType": "uint256",
          "name": "",
          "type": "uint256"
        }
      ],
      "stateMutability": "view",
      "type": "function"
    },
    {
      "inputs": [],
      "name": "totalExitingAssets",
      "outputs": [
        {
          "internalType": "uint128",
          "name": "",
          "type": "uint128"
        }
      ],
      "stateMutability": "view",
      "type": "function"
    },
    {
      "inputs": [],
      "name": "totalShares",
      "outputs": [
        {
          "internalType": "uint256",
          "name": "",
          "type": "uint256"
        }
      ],
      "stateMutability": "view",
      "type": "function"
    },
    {
      "inputs": [
        {
          "components": [
            {
              "internalType": "bytes32",
              "name": "rewardsRoot",
              "type": "bytes32"
            },
            {
              "internalType": "int160",
              "name": "reward",
              "type": "int160"
            },
            {
              "internalType": "uint160",
              "name": "unlockedMevReward",
              "type": "uint160"
            },
            {
              "internalType": "bytes32[]",
              "name": "proof",
              "type": "bytes32[]"
            }
          ],
          "internalType": "struct IKeeperRewards.HarvestParams",
          "name": "harvestParams",
          "type": "tuple"
        }
      ],
      "name": "updateState",
      "outputs": [],
      "stateMutability": "nonpayable",
      "type": "function"
    },
    {
      "inputs": [
        {
          "internalType": "address",
          "name": "receiver",
          "type": "address"
        },
        {
          "internalType": "address",
          "name": "referrer",
          "type": "address"
        },
        {
          "components": [
            {
              "internalType": "bytes32",
              "name": "rewardsRoot",
              "type": "bytes32"
            },
            {
              "internalType": "int160",
              "name": "reward",
              "type": "int160"
            },
            {
              "internalType": "uint160",
              "name": "unlockedMevReward",
              "type": "uint160"
            },
            {
              "internalType": "bytes32[]",
              "name": "proof",
              "type": "bytes32[]"
            }
          ],
          "internalType": "struct IKeeperRewards.HarvestParams",
          "name": "harvestParams",
          "type": "tuple"
        }
      ],
      "name": "updateStateAndDeposit",
      "outputs": [
        {
          "internalType": "uint256",
          "name": "shares",
          "type": "uint256"
        }
      ],
      "stateMutability": "payable",
      "type": "function"
    },
    {
      "inputs": [
        {
          "internalType": "address",
          "name": "receiver",
          "type": "address"
        },
        {
          "internalType": "uint256",
          "name": "osTokenShares",
          "type": "uint256"
        },
        {
          "internalType": "address",
          "name": "referrer",
          "type": "address"
        },
        {
          "components": [
            {
              "internalType": "bytes32",
              "name": "rewardsRoot",
              "type": "bytes32"
            },
            {
              "internalType": "int160",
              "name": "reward",
              "type": "int160"
            },
            {
              "internalType": "uint160",
              "name": "unlockedMevReward",
              "type": "uint160"
            },
            {
              "internalType": "bytes32[]",
              "name": "proof",
              "type": "bytes32[]"
            }
          ],
          "internalType": "struct IKeeperRewards.HarvestParams",
          "name": "harvestParams",
          "type": "tuple"
        }
      ],
      "name": "updateStateAndDepositAndMintOsToken",
      "outputs": [
        {
          "internalType": "uint256",
          "name": "",
          "type": "uint256"
        }
      ],
      "stateMutability": "payable",
      "type": "function"
    },
    {
      "inputs": [
        {
          "internalType": "address",
          "name": "newImplementation",
          "type": "address"
        },
        {
          "internalType": "bytes",
          "name": "data",
          "type": "bytes"
        }
      ],
      "name": "upgradeToAndCall",
      "outputs": [],
      "stateMutability": "payable",
      "type": "function"
    },
    {
      "inputs": [],
      "name": "validatorsManager",
      "outputs": [
        {
          "internalType": "address",
          "name": "",
          "type": "address"
        }
      ],
      "stateMutability": "view",
      "type": "function"
    },
    {
      "inputs": [],
      "name": "vaultId",
      "outputs": [
        {
          "internalType": "bytes32",
          "name": "",
          "type": "bytes32"
        }
      ],
      "stateMutability": "pure",
      "type": "function"
    },
    {
      "inputs": [],
      "name": "version",
      "outputs": [
        {
          "internalType": "uint8",
          "name": "",
          "type": "uint8"
        }
      ],
      "stateMutability": "pure",
      "type": "function"
    },
    {
      "inputs": [],
      "name": "withdrawableAssets",
      "outputs": [
        {
          "internalType": "uint256",
          "name": "",
          "type": "uint256"
        }
      ],
      "stateMutability": "view",
      "type": "function"
    },
    {
      "stateMutability": "payable",
      "type": "receive"
    }
  ],
  "bytecode": "0x6101c0346200024c576001600160401b0362004c20601f38829003908101601f191684019083821185831017620002505780859360409384528439610100948591810103126200024c57620000548262000264565b91620000636020820162000264565b926200007183830162000264565b92620000806060840162000264565b926200008f6080820162000264565b946200009e60a0830162000264565b9660e0620000af60c0850162000264565b9301519460805260a05260c0523060e05287526101209546875261014092835260018060a01b038061016095168552610180951685526101a09586527ff0c57e16840df040f15088dc2f81fe391c3923bec73e23a9662efc9c229c6a009081549060ff82851c166200023b578080831603620001f6575b50505051946149a696876200027a8839608051878181611324015281816114bc01528181612b3701528181612f6f0152612ffb015260a05187611077015260c051878181613c890152613daa015260e0518781816111f7015261370c0152518681816127d1015261357301525185613a0f015251846116620152518381816103d70152818161066301528181611eba0152818161281201528181613191015261321a01525182818161072201528181610ce50152818161311501526132d90152518181816120f20152612b7f0152f35b6001600160401b0319909116811790915581519081527fc7f505b2f371ae2175ee4913f4499e1f2633a7b5936321eed1cdaeb6115181d290602090a15f808062000126565b835163f92ee8a960e01b8152600490fd5b5f80fd5b634e487b7160e01b5f52604160045260245ffd5b51906001600160a01b03821682036200024c5756fe60806040526004361015610022575b3615610018575f80fd5b6100206127f3565b005b5f3560e01c806301d523b6146102c157806301e1d114146102bc578063066055e0146102b757806307a2d13a146102b257806318f72950146102ad5780631a7ff553146102a8578063201b9eb5146102a35780632999ad3f1461029e5780632cdf7401146102995780633229fa951461029457806333194c0a1461028f57806336fe59d21461028a5780633a98ef3914610285578063439fab911461028057806343e82a791461027b57806346904840146102765780634ec96b22146102715780634f1ef2861461026c57806352d1902d1461026757806353156f281461026257806354fd4d501461025d5780635c60da1b146102585780635cfc1a511461025357806360d60e6e1461024e57806372b410a814610249578063754c38881461024457806376b58b901461023f5780637fd6f15c1461023a57806383d430d5146102355780638697d2c2146102305780638ceab9aa1461022b578063a49a1e7d14610226578063ac9650d814610221578063ad3cb1cc1461021c578063b1f0e7c714610217578063c6e6f59214610212578063d83ad00c1461020d578063e74b981b14610208578063ee3bd5df14610203578063f04da65b146101fe578063f851a440146101f95763f9609f080361000e57611d4f565b611d28565b611ced565b611cc7565b611c9a565b611c74565b611c56565b611c3c565b611bf7565b611b81565b611a86565b61189d565b611636565b611466565b611442565b6113f1565b611386565b6112f9565b6112db565b6112c1565b61128d565b611272565b61124e565b6111e5565b610f5f565b610deb565b610dc3565b610cb6565b610bf0565b610b6f565b610b5b565b610b21565b610af5565b610adb565b610639565b6105f7565b610598565b610544565b610526565b610387565b610356565b6102e9565b6001600160a01b038116036102d757565b5f80fd5b908160809103126102d75790565b60803660031901126102d757600435610301816102c6565b60443561030d816102c6565b606435906001600160401b0382116102d75760209261033b6103366103449436906004016102db565b611e42565b60243590612114565b604051908152f35b5f9103126102d757565b346102d7575f3660031901126102d757602060985460801c604051908152f35b6001600160801b038116036102d757565b346102d75760203660031901126102d7576004356103a481610376565b604051633b9e9f0160e21b81523360048201526001600160801b03821660248201526020816044815f6001600160a01b037f0000000000000000000000000000000000000000000000000000000000000000165af1908115610521575f916104f2575b50335f9081526101376020526040902061042090611d93565b916001600160801b0361043a84516001600160801b031690565b16156104e05761048e836104506104dc956127fd565b61047a61046d8461046884516001600160801b031690565b611dcc565b6001600160801b03168252565b335f90815261013760205260409020611dea565b604080518381526001600160801b0392909216602083015233917f3f7354ba02880b4fa37a629985852a38417ff369369ce1e52fa6f8342a9100a79190a26040519081529081906020820190565b0390f35b60405163673f032f60e11b8152600490fd5b610514915060203d60201161051a575b61050c8183610ede565b810190611d79565b5f610407565b503d610502565b611d88565b346102d75760203660031901126102d7576020610344600435611e1c565b60603660031901126102d75760043561055c816102c6565b602435610568816102c6565b604435906001600160401b0382116102d7576020926105916103366103449436906004016102db565b3490614102565b346102d75760203660031901126102d7576004356001600160401b0381116102d7576103366100209136906004016102db565b60609060031901126102d7576004356105e3816102c6565b90602435906044356105f4816102c6565b90565b346102d757602061034461060a366105cb565b91611e81565b60609060031901126102d7576004359060243561062c816102c6565b906044356105f4816102c6565b346102d75761064736610610565b906001600160a01b0380831615610ac957610660612fe0565b807f00000000000000000000000000000000000000000000000000000000000000001691823b156102d75760408051631d8557d760e01b815260049491905f81878183875af1801561052157610ab0575b506001600160a01b0383165f908152610137602052604090206106d390611d93565b6001600160801b0392836106ee83516001600160801b031690565b1615610aa0576106fd826127fd565b825163e48a5f7b60e01b8152308882019081529097906060908990819060200103818a7f0000000000000000000000000000000000000000000000000000000000000000165afa978815610521575f98610a6f575b50602097888101956001600160401b039182806107768a516001600160401b031690565b1614610a5f57908c92918751918c83806107a26303d1689d60e11b988983528a83019190602083019252565b03818a5afa918215610521576107ce938e5f94610a3a575b5050516001600160801b03165b169061292c565b966107f26107ec8a60018060a01b03165f52609c60205260405f2090565b54611e1c565b928389118015610a2a575b610a1a57908b61083b939261081989516001600160801b031690565b908a51958692839283528983019190916001600160801b036020820193169052565b0381895afa91821561052157670de0b6b3a76400009461088a948e5f956109ed575b505061087c61086e610882926125b5565b93516001600160401b031690565b936125b5565b9216906129a0565b10156109df578351633b9e9f0160e21b815233918101918252602082018b905294939291889186919082905f90829060400103925af1908115610521577f61fd285f9e34a3dbfa9846bdcf22a023e37a3c93549902843b30dd74a18c5350976109bc95610934936109c1575b505061091761046d6109078c61306b565b83516001600160801b0316611dcc565b6001600160a01b0386165f90815261013760205260409020611dea565b61093d82613f49565b9061097b61096061094d8561306b565b60985460801c036001600160801b031690565b6001600160801b036098549181199060801b16911617609855565b610985828661433f565b61098f8389613eaf565b51948594169733978590949392606092608083019660018060a01b03168352602083015260408201520152565b0390a3005b816109d792903d1061051a5761050c8183610ede565b505f806108f6565b835163185cfc6d60e11b8152fd5b610882929550610a1061087c928261086e93903d1061051a5761050c8183610ede565b959250508e61085d565b875163efda1a2760e01b81528590fd5b50610a336120a3565b89116107fd565b6107c79294509081610a5792903d1061051a5761050c8183610ede565b92908e6107ba565b8651630709133160e01b81528490fd5b610a9291985060603d606011610a99575b610a8a8183610ede565b8101906130b2565b965f610752565b503d610a80565b825163673f032f60e11b81528790fd5b80610abd610ac392610e95565b8061034c565b5f6106b1565b60405163d92e233d60e01b8152600490fd5b346102d7575f3660031901126102d75760206103446120a3565b346102d7575f3660031901126102d7576020610b0f6120d9565b6040516001600160a01b039091168152f35b346102d7575f3660031901126102d75760206040517fd92dbcef7ed61a67c0eefa7cafcc41f41d9402a5046486977364b4724c821f8b8152f35b6020610344610b69366105cb565b91612114565b346102d7575f3660031901126102d75760206001600160801b0360985416604051908152f35b9181601f840112156102d7578235916001600160401b0383116102d757602083818601950101116102d757565b60206003198201126102d757600435906001600160401b0382116102d757610bec91600401610b95565b9091565b610bf936610bc2565b907ff0c57e16840df040f15088dc2f81fe391c3923bec73e23a9662efc9c229c6a009182549160ff8360401c168015610ca2575b610c905768010000000000000002610c539368ffffffffffffffffff19161784556121e2565b68ff00000000000000001981541690557fc7f505b2f371ae2175ee4913f4499e1f2633a7b5936321eed1cdaeb6115181d2602060405160028152a1005b60405163f92ee8a960e01b8152600490fd5b5060026001600160401b0384161015610c2d565b346102d757610cc436610610565b60405163057453a760e31b81529091906001600160a01b03906020816004817f000000000000000000000000000000000000000000000000000000000000000086165afa80156105215782915f91610d94575b50163303610d8257816109bc610d4f86867f57f5eb636bf62215c111b54545422f11dfb0cb115f606be905f0be08e8859dd3966131fc565b604080516001600160a01b0390981688526020880198909852968601526060850195909552169233929081906080820190565b604051634ca8886760e01b8152600490fd5b610db6915060203d602011610dbc575b610dae8183610ede565b81019061214e565b5f610d17565b503d610da4565b346102d7575f3660031901126102d7576065546040516001600160a01b039091168152602090f35b346102d75760203660031901126102d757600435610e08816102c6565b60018060a01b03165f52610137602052602060405f2060405190610e2b82610e75565b54906001600160801b03918281169081835260801c84830152610e53575b5116604051908152f35b610e5c816127fd565b610e49565b634e487b7160e01b5f52604160045260245ffd5b604081019081106001600160401b03821117610e9057604052565b610e61565b6001600160401b038111610e9057604052565b606081019081106001600160401b03821117610e9057604052565b608081019081106001600160401b03821117610e9057604052565b90601f801991011681019081106001600160401b03821117610e9057604052565b60405190610f0c82610e75565b565b6001600160401b038111610e9057601f01601f191660200190565b929192610f3582610f0e565b91610f436040519384610ede565b8294818452818301116102d7578281602093845f960137010152565b6040806003193601126102d7576004908135610f7a816102c6565b6024356001600160401b0381116102d757366023820112156102d757610fa99036906024818701359101610f29565b91610fb2613702565b805192610fe984610fdb60209363439fab9160e01b858401528460248401526044830190611af9565b03601f198101865285610ede565b610ff1613702565b610ff96137db565b6001600160a01b038381168015929190879084156111b0575b8415611142575b84156110de575b50508215611048575b50506110395761002083836144cf565b516355299b4960e01b81528390fd5b83516345da87c560e01b81526001600160a01b03861688820190815292935091839183918290819060200103917f0000000000000000000000000000000000000000000000000000000000000000165afa918215610521575f926110b1575b5050155f80611029565b6110d09250803d106110d7575b6110c88183610ede565b81019061238c565b5f806110a7565b503d6110be565b855163054fd4d560e41b81529294508391839182905afa9081156105215760039160ff915f91611115575b5016141591865f611020565b6111359150843d861161113b575b61112d8183610ede565b8101906144b6565b5f611109565b503d611123565b935050835163198ca60560e11b815282818981875afa9081156105215788917fd92dbcef7ed61a67c0eefa7cafcc41f41d9402a5046486977364b4724c821f8b915f91611193575b50141593611019565b6111aa9150853d871161051a5761050c8183610ede565b5f61118a565b5f805160206149518339815191525490945084906111de906001600160a01b03165b6001600160a01b031690565b1493611012565b346102d7575f3660031901126102d7577f00000000000000000000000000000000000000000000000000000000000000006001600160a01b0316300361123c5760206040515f805160206149518339815191528152f35b60405163703e46dd60e11b8152600490fd5b5f3660031901126102d7576001600160a01b036112696120d9565b163303610d8257005b346102d7575f3660031901126102d757602060405160028152f35b346102d7575f3660031901126102d7575f80516020614951833981519152546040516001600160a01b039091168152602090f35b346102d7575f3660031901126102d75760206103446122a5565b346102d75760203660031901126102d75760206103446004356122c0565b346102d7575f3660031901126102d757604051633eb1acf760e11b81523060048201526020816024817f00000000000000000000000000000000000000000000000000000000000000006001600160a01b03165afa8015610521576020915f91611369575b506040519015158152f35b6113809150823d84116110d7576110c88183610ede565b5f61135e565b346102d75760203660031901126102d7576004356113a3816102c6565b6113ab6137db565b60d280546001600160a01b0319166001600160a01b03929092169182179055337f6bdc78d8c88160b3fc3638e67f2afe523b3f4c7d00c56ebb6216790e4c3eb2cb5f80a3005b346102d75760803660031901126102d7576104dc611425600435611414816102c6565b6064359060443590602435906123ad565b604080519384526020840192909252908201529081906060820190565b346102d7575f3660031901126102d757602061ffff60655460a01c16604051908152f35b346102d7576003196040368201126102d75760049081356001600160401b038082116102d75760a08285019383360301126102d7576024359081116102d7576114b29036908501610b95565b6001600160a01b037f00000000000000000000000000000000000000000000000000000000000000008116803b156102d75760405163837d444160e01b8152905f9082908183816115058c828f016124c9565b03925af1801561052157611623575b5061151d612fe0565b6115256127bd565b90811633141591826115f4575b505090506115e3576044019160b061154a8484612547565b905004801580156115cb575b6115bb5761156b6115656120a3565b9161259c565b116115ac575060b061157d8383612547565b9050145f14611599576100209161159391612547565b90613d9c565b610020916115a691612547565b90613c74565b6040516396d8043360e01b8152fd5b50604051631c6c4cf360e31b8152fd5b506115d68484612547565b905060b082021415611556565b604051634ca8886760e01b81528390fd5b611617925061161161161b9461160988613a09565b923691610f29565b91613ae3565b1590565b805f80611532565b80610abd61163092610e95565b5f611514565b346102d75760603660031901126102d75760043560243561165b6044358284336123ad565b91926116877f0000000000000000000000000000000000000000000000000000000000000000826122b3565b42108015611895575b801561188d575b61187b577feb3b05c070c24f667611fdb3ff75fe007d42401c573aed8d8faca95fd00ccb56936116e7866116e26116d66099546001600160801b031690565b6001600160801b031690565b61375b565b156117e9576117216117066116fb8661306b565b60995460801c611dcc565b6001600160801b036099549181199060801b16911617609955565b60408051336020820190815291810184905260608082018990528152601f1993915f916117659190611754608082610ede565b5190205f52609b60205260405f2090565b555f936001831161179e575b5050505061177f8233613eaf565b604080519485526020850191909152830152339180606081015b0390a2005b6117df929394506117af90886122b3565b60408051336020820190815291810193909352606083018290526080958601835290949091906117549082610ede565b555f808080611771565b6117f1612fe0565b61182d6118116118008661306b565b609e546001600160801b0316611dcc565b6001600160801b03166001600160801b0319609e541617609e55565b61186261184761183c8561306b565b609e5460801c611dcc565b6001600160801b03609e549181199060801b16911617609e55565b61187661187184609f546122b3565b609f55565b611721565b604051630e3d8e8d60e11b8152600490fd5b508215611697565b508115611690565b346102d7576040806003193601126102d757602435906004356118bf836102c6565b6118c7612fe0565b8015611a75576001600160a01b038316908115611a64576118e781611e1c565b908115611a53576118f7826145bc565b6119008361306b565b60985460801c9061191091611dcc565b61192f906001600160801b036098549181199060801b16911617609855565b611939823361433f565b609e54958660801c8281609f5490611950916122b3565b9861195a8761306b565b61196c916001600160801b0316611e66565b61198c906001600160801b03166001600160801b0319609e541617609e55565b611995916122b3565b61199e9061306b565b6119bd906001600160801b03609e549181199060801b16911617609e55565b85516001600160a01b03919091166020820190815242604083015260608083018990528252906119ee608082610ede565b519020611a03905f52609b60205260405f2090565b5583518581526020810191909152604081019190915233907f869f12645d154414259c47bcb998b6b6983fae50e5e0c6053bc87d4330db9f2d90606090a3611a4a33614723565b51908152602090f35b83516318374fd160e21b8152600490fd5b825163d92e233d60e01b8152600490fd5b8151636edcc52360e01b8152600490fd5b346102d7576117997f2013570c343af8ab14a9778150e381a0fda34ed6368127a95fd5e7210cbec5bf611ab836610bc2565b9290611ac26137db565b60405191829160208352339560208401916124a9565b5f5b838110611ae95750505f910152565b8181015183820152602001611ada565b90602091611b1281518092818552858086019101611ad8565b601f01601f1916010190565b6020808201906020835283518092526040830192602060408460051b8301019501935f915b848310611b535750505050505090565b9091929394958480611b71600193603f198682030187528a51611af9565b9801930193019194939290611b43565b346102d75760203660031901126102d7576001600160401b036004358181116102d757366023820112156102d75780600401359182116102d7573660248360051b830101116102d7576104dc916024611bda9201612710565b60405191829182611b1e565b9060206105f4928181520190611af9565b346102d7575f3660031901126102d7576104dc604051611c1681610e75565b60058152640352e302e360dc1b6020820152604051918291602083526020830190611af9565b346102d7575f3660031901126102d7576020610b0f6127bd565b346102d75760203660031901126102d7576020610344600435613f49565b346102d7575f3660031901126102d75760206001600160801b0360995416604051908152f35b346102d75760203660031901126102d757610020600435611cba816102c6565b611cc26137db565b613fd8565b346102d7575f3660031901126102d75760206001600160801b03609e5416604051908152f35b346102d75760203660031901126102d757600435611d0a816102c6565b60018060a01b03165f52609c602052602060405f2054604051908152f35b346102d7575f3660031901126102d7575f546040516001600160a01b039091168152602090f35b60403660031901126102d7576020610344600435611d6c816102c6565b60243590610591826102c6565b908160209103126102d7575190565b6040513d5f823e3d90fd5b90604051611da081610e75565b91546001600160801b038116835260801c6020830152565b634e487b7160e01b5f52601160045260245ffd5b6001600160801b039182169082160391908211611de557565b611db8565b815160209092015160801b6fffffffffffffffffffffffffffffffff19166001600160801b0392909216919091179055565b6098546001600160801b0381169081611e3457505090565b916105f49260801c906129a0565b611e4e611e5591612b06565b9190612c9c565b611e5b57565b611e63612e2b565b50565b9190916001600160801b0380809416911601918211611de557565b909291611e8c612f54565b611e94612fe0565b6040516329460cc560e11b81526001600160a01b038381166004830152602482018690527f0000000000000000000000000000000000000000000000000000000000000000169490602080826044815f8b5af1918215610521575f92612084575b50335f9081526101376020526040902091968792611f1290611d93565b916001600160801b03611f2c84516001600160801b031690565b1615612020575050611f3d816127fd565b611f5c61046d611f4c8561306b565b83516001600160801b0316611e66565b335f908152609c60205260409020611f7c90611f77906107ec565b6130f2565b611f906116d683516001600160801b031690565b1161200e57335f908152610137602052604090207fa16d97739893e1436c9753925fb5cef174c4f368699dc86cc8fdb0e6e60f8e5894612009929091611fd69190611dea565b604080516001600160a01b0397881681526020810194909452830193909352939091166060820152339281906080820190565b0390a2565b604051633684c65960e01b8152600490fd5b806004926040519384809263752a536d60e01b82525afa9182156105215761206292612053915f91612067575b5061306b565b6001600160801b031690830152565b611f3d565b61207e9150833d851161051a5761050c8183610ede565b5f61204d565b8161209c9293503d841161051a5761050c8183610ede565b905f611ef5565b476099546001600160801b036120ba818316611e1c565b90609e5416019060801c01908181115f146120d3570390565b50505f90565b61016a546001600160a01b031680156120ef5790565b507f000000000000000000000000000000000000000000000000000000000000000090565b91612120813433614102565b505f198214612139575b816121359293611e81565b5090565b6121359150612147346130f2565b915061212a565b908160209103126102d757516105f4816102c6565b906020828203126102d75781356001600160401b03928382116102d75701916060838303126102d7576040519261219984610ea8565b80358452602081013561ffff811681036102d757602085015260408101359182116102d757019080601f830112156102d7578160206121da93359101610f29565b604082015290565b5f549091906001600160a01b031661229b576040519063e7f6f22560e01b82526020928383600481335afa928315610521575f9361227c575b50604051636f4fa30f60e01b8152908482600481335afa91821561052157610f0c955f93612259575b50506122539192810190612163565b9161361a565b6122539350908161227592903d10610dbc57610dae8183610ede565b915f612244565b612294919350843d8611610dbc57610dae8183610ede565b915f61221b565b5050610f0c613515565b609d54806105f457505f1990565b91908201809211611de557565b6001600160801b03609954166122d461457a565b908101809111611de5578110612307576122f8609f546122f2613772565b906122b3565b1115612302575f90565b5f1990565b609a90609a549182915f905b84821061232d575050508110156123275790565b505f1990565b909193808316906001818518811c8301809311611de5575f8790525f805160206149318339815191528301546001600160a01b0316841015612374575050935b9190612313565b90959101925061236d565b519081151582036102d757565b908160209103126102d7576105f49061237f565b91908203918211611de557565b604080516001600160a01b039092166020830190815290820193909352606081018290529091906123eb81608081015b03601f198101835282610ede565b5190205f52609b60205260405f2054918215612455576001600160801b03609954169061241661457a565b918201809211611de557839183101561244357916124339261386e565b90915b828103908111611de55792565b509061244e916137ee565b9091612436565b5050505f905f905f90565b9035601e19823603018112156102d75701602081359101916001600160401b0382116102d75781360383136102d757565b90603060609281835260208301375f60508201520190565b908060209392818452848401375f828201840152601f01601f1916010190565b9060a06105f4926020815282356020820152602083013560408201526125056124f56040850185612460565b84606085015260c08401916124a9565b9061253861252d6125196060870187612460565b601f198587038101608087015295916124a9565b946080810190612460565b939092828603019101526124a9565b903590601e19813603018212156102d757018035906001600160401b0382116102d7576020019181360383136102d757565b634e487b7160e01b5f52601260045260245ffd5b8115612597570490565b612579565b906801bc16d674ec8000009180830292830403611de557565b90670de0b6b3a764000091828102928184041490151715611de557565b6001600160401b038111610e905760051b60200190565b906125f3826125d2565b6126006040519182610ede565b8281528092612611601f19916125d2565b01905f5b82811061262157505050565b806060602080938501015201612615565b634e487b7160e01b5f52603260045260245ffd5b9082101561265d57610bec9160051b810190612547565b612632565b908092918237015f815290565b3d15612699573d9061268082610f0e565b9161268e6040519384610ede565b82523d5f602084013e565b606090565b6020818303126102d7578051906001600160401b0382116102d7570181601f820112156102d75780516126d081610f0e565b926126de6040519485610ede565b818452602082840101116102d7576105f49160208085019101611ad8565b805182101561265d5760209160051b010190565b91909161271c836125e9565b925f5b81811061272b57505050565b5f80612738838587612646565b6040939161274a855180938193612662565b0390305af49061275861266f565b911561277f57509060019161276d82886126fc565b5261277881876126fc565b500161271f565b9060448151106102d7576127b96127a46004928381015160248091830101910161269e565b925162461bcd60e51b81529283928301611be6565b0390fd5b60d2546001600160a01b0316806105f457507f000000000000000000000000000000000000000000000000000000000000000090565b611e63343361403a565b60405163752a536d60e01b81526020816004817f00000000000000000000000000000000000000000000000000000000000000006001600160a01b03165afa908115610521575f91612893575b5060208201916001600160801b0391828451169182821461288c578361287f61287a6128879585848651166129a0565b61306b565b16905261306b565b169052565b5050505050565b6128ac915060203d60201161051a5761050c8183610ede565b5f61284a565b90808202905f198184099082808310920391808303921461292157612710908282111561290f577fbc01a36e2eb1c432ca57a786c226809d495182a9930be0ded288ce703afb7e91940990828211900360fc1b910360041c170290565b60405163227bc15360e01b8152600490fd5b505061271091500490565b90808202905f198184099082808310920391808303921461298f57670de0b6b3a7640000908282111561290f577faccb18165bd6fe31ae1cf318dc5b51eee0e1ba569b88cd74c1773b91fac10669940990828211900360ee1b910360121c170290565b5050670de0b6b3a764000091500490565b9091828202915f1984820993838086109503948086039514612a13578483111561290f57829109815f038216809204600280826003021880830282030280830282030280830282030280830282030280830282030280920290030293600183805f03040190848311900302920304170290565b5050906105f4925061258d565b908160609103126102d7578051916105f460406020840151930161237f565b81835290916001600160fb1b0383116102d75760209260051b809284830137010190565b90602082528035602083015260208101358060130b8091036102d75760408301526040810135612a92816102c6565b6001600160a01b031660608381019190915281013536829003601e19018112156102d75701602081359101906001600160401b0381116102d7578060051b360382136102d75760a0836080806105f49601520191612a3f565b9190915f8382019384129112908015821691151617611de557565b6040516325f56f1160e01b81526001600160a01b03929160609082908190612b319060048301612a63565b03815f877f0000000000000000000000000000000000000000000000000000000000000000165af1928315610521575f915f905f95612c57575b508415612c045781612b7b6120d9565b16917f0000000000000000000000000000000000000000000000000000000000000000168214612bfd57509060205f92600460405180958193634641257d60e01b83525af190811561052157612bd8925f92612bdc575b50612aeb565b9190565b612bf691925060203d60201161051a5761050c8183610ede565b905f612bd2565b9081612c0a575b50509190565b803b156102d757604051636ee3193160e11b815260048101929092525f908290602490829084905af1801561052157612c44575b80612c04565b80610abd612c5192610e95565b5f612c3e565b91945050612c7d915060603d606011612c85575b612c758183610ede565b810190612a20565b93905f612b6b565b503d612c6b565b600160ff1b8114611de5575f0390565b8015611e6357612cb16116d660985460801c90565b5f8212612d885781612cc2916122b3565b90612ccf6109608361306b565b612ce46065549161ffff8360a01c16906128b2565b8015612d8357807f555ee6b2ef9506d870f386c067e47d3689435330b012ad263d8cc3531868654793612d226116d66098546001600160801b031690565b80612d6d575050612d6890925b6001600160a01b031691612d4384846141ae565b60405193849384604091949392606082019560018060a01b0316825260208201520152565b0390a1565b612d6892612d7d920390846129a0565b92612d2f565b505050565b90612d9290612c8c565b612da76116d6609e546001600160801b031690565b80612dc7575b5080612db7575050565b61287a61096091610f0c936123a0565b90612e227f3623a54e8078be0d90ecfbef82da6a31ff3e6be8aa1718e7a7f3d0d33ff1d32a91612e12611811612e07612e0088886122b3565b87856129a0565b80809403960361306b565b6040519081529081906020820190565b0390a15f612dad565b609954906001600160801b038216918215612f4e5760801c612e5f612e5082476123a0565b612e5985611e1c565b906141fa565b908115612f4757612e6f82613f49565b938415612f3f5782612ebc61170661287a610f0c9661096096612eb7612e9b61287a8d612f349a6123a0565b6001600160801b03166001600160801b03196099541617609955565b6122b3565b612ec6818761426a565b60408051878152602081018390527f624ea167e477f9d39f7f4094b9dfe2e6346eb4a7aada54338db51abd554c4b9f9190a161287a612f18612f078861306b565b6098546001600160801b0316611dcc565b6001600160801b03166001600160801b03196098541617609855565b60985460801c611dcc565b505f93505050565b505f925050565b505f9150565b604051630156a69560e11b81523060048201526020816024817f00000000000000000000000000000000000000000000000000000000000000006001600160a01b03165afa908115610521575f91612fc1575b5015612faf57565b604051630a62fbdb60e11b8152600490fd5b612fda915060203d6020116110d7576110c88183610ede565b5f612fa7565b604051633eb1acf760e11b81523060048201526020816024817f00000000000000000000000000000000000000000000000000000000000000006001600160a01b03165afa908115610521575f9161304c575b5061303a57565b60405163e775715160e01b8152600490fd5b613065915060203d6020116110d7576110c88183610ede565b5f613033565b6001600160801b039081811161307f571690565b604490604051906306dfcc6560e41b8252608060048301526024820152fd5b51906001600160401b03821682036102d757565b908160609103126102d7576121da60408051926130ce84610ea8565b80516130d981610376565b84526130e76020820161309e565b60208501520161309e565b60405163e48a5f7b60e01b81523060048201526001600160a01b036060826024817f000000000000000000000000000000000000000000000000000000000000000085165afa80156105215761318d936001600160401b036107c7604061316c946020975f916131dd575b5001516001600160401b031690565b9060405180809581946363737ac960e11b8352600483019190602083019252565b03917f0000000000000000000000000000000000000000000000000000000000000000165afa908115610521575f916131c4575090565b6105f4915060203d60201161051a5761050c8183610ede565b6131f6915060603d606011610a9957610a8a8183610ede565b5f61315d565b92906001600160a01b039081811615610ac957613217612fe0565b817f00000000000000000000000000000000000000000000000000000000000000001690813b156102d757604094855193631d8557d760e01b85526004945f81878183895af1801561052157613502575b506001600160a01b0388165f9081526101376020526040902061328a90611d93565b906001600160801b036132a483516001600160801b031690565b16156134f2576132b3826127fd565b875163e48a5f7b60e01b81523087820190815290916060918391908290819060200103917f0000000000000000000000000000000000000000000000000000000000000000165afa8015610521576134d3575b508651936303d1689d60e11b9788865260209182878061332d888c83019190602083019252565b0381845afa968715610521575f976134b4575b5086996133606107ec8d60018060a01b03165f52609c60205260405f2090565b881180156134a4575b6134945790836133a69261338487516001600160801b031690565b908551948592839283528d83019190916001600160801b036020820193169052565b0381845afa988915610521575f859488946133eb9c613477575b5051633b9e9f0160e21b815233928101928352602083019490945292998a9384929091839160400190565b03925af195861561052157610907613432946134159361046d93610f0c9a613459575b505061306b565b6001600160a01b0388165f90815261013760205260409020611dea565b61345461343e83613f49565b809761344f61096061094d8761306b565b61433f565b613eaf565b8161346f92903d1061051a5761050c8183610ede565b505f8061340e565b61348d90873d891161051a5761050c8183610ede565b505f6133c0565b825163efda1a2760e01b81528990fd5b506134ad6120a3565b8811613369565b6134cc919750833d851161051a5761050c8183610ede565b955f613340565b6134eb9060603d606011610a9957610a8a8183610ede565b505f613306565b875163673f032f60e11b81528690fd5b80610abd61350f92610e95565b5f613268565b61351d61438c565b61352561438c565b61352d61457a565b6001600160801b03609954168101809111611de557609f5561354d61438c565b61355d6135586145f3565b60d355565b60d05460d15460d2549091906001600160a01b037f00000000000000000000000000000000000000000000000000000000000000008116911690803b156102d7576040516376615a5560e01b8152600481019390935260248301939093526001600160a01b03166044820152905f908290606490829084905af1801561052157613607575b506135ec5f60d055565b6135f55f60d155565b60d280546001600160a01b0319169055565b80610abd61361492610e95565b5f6135e2565b61362261438c565b604083015161362f61438c565b6001600160a01b0382168015610ac9576001600160601b0360a01b5f5416175f557f2013570c343af8ab14a9778150e381a0fda34ed6368127a95fd5e7210cbec5bf604051602081528061368833946020830190611af9565b0390a260208301519261369961438c565b61271061ffff8516116136f0576136e8936136b66136db93613fd8565b6065805461ffff60a01b191660a09290921b61ffff60a01b16919091179055516143cd565b6136e36143fd565b614424565b610f0c614453565b604051638a81d3b360e01b8152600490fd5b6001600160a01b037f00000000000000000000000000000000000000000000000000000000000000008116308114918215613740575b505061123c57565b5f805160206149518339815191525416141590505f80613738565b9061376461457a565b918201809211611de5571090565b476099548060801c8203918211611de557816137976001600160801b03809316611e1c565b90816137bd575b505081156120d3576105f4916137b891609e5416906141fa565b6145bc565b91925090818111156137d357035b905f8061379e565b50505f6137cb565b5f546001600160a01b03163303610d8257565b6137f6613772565b91609f54928301809311611de55780831115613840576138179203906141fa565b90609e548060801c80155f1461382d5750508190565b6001600160801b036105f49216846129a0565b5050505f905f90565b9060405161385681610e75565b91546001600160a01b038116835260a01c6020830152565b609a545f948594939091808410801590613a01575b6139f457836139be575f5b609a5f526001600160a01b03166138b35f805160206149318339815191528601613849565b80519097906138ca906001600160a01b03166111d2565b986138ef6138e36020809b01516001600160601b031690565b6001600160601b031690565b9483811080156139b4575b6139a25791600193979a95613919613925939488035b838c03906141fa565b809201988703916129a0565b01970193808611801590613998575b61398d57609a5f5282906139565f805160206149318339815191528701613849565b805190890151969992966001600160a01b0390911694600193926139259290916001600160601b0390911690613919908803613910565b945050509250509190565b5081851015613934565b60405163e8722f8f60e01b8152600490fd5b50808b11156138fa565b609a5f527f44da158ba27f9252712a74ff6a55c5d531f69609f1f6e7f17c4443a8e2089be38401546001600160a01b031661388e565b505093505050505f905f90565b508415613883565b604290467f000000000000000000000000000000000000000000000000000000000000000003613ab75760d354905b613a4f613a486040830183612547565b3691610f29565b602081519101206040519060208201927f838af86bfca91ada6557e38d913af1c2f24ef9b2567b3b77cc9e1144314b35b08452356040830152606082015260608152613a9a81610ec3565b5190206040519161190160f01b8352600283015260228201522090565b613abf6145f3565b90613a38565b60041115613acf57565b634e487b7160e01b5f52602160045260245ffd5b613aed83836146c0565b50613afa81959295613ac5565b159384613b96575b508315613b10575b50505090565b5f929350908291604051613b48816123dd6020820194630b135d3f60e11b998a87526024840152604060448401526064830190611af9565b51915afa90613b5561266f565b82613b88575b82613b6b575b50505f8080613b0a565b613b8091925060208082518301019101611d79565b145f80613b61565b915060208251101591613b5b565b6001600160a01b0383811691161493505f613b02565b906030116102d75790603090565b906090116102d75760300190606090565b9060b0116102d75760900190602090565b909392938483116102d75784116102d7578101920390565b359060208110613c02575090565b5f199060200360031b1b1690565b96959490613c4d93613c31613c3f926060979560808c5260808c01916124a9565b9089820360208b0152611af9565b9187830360408901526124a9565b930152565b9060206105f4928181520190612491565b9160206105f49381815201916124a9565b60b091828104915f9081613c866146fa565b957f00000000000000000000000000000000000000000000000000000000000000006001600160a01b0316935f92905b878410613cc857505050505050505050565b82613cd7910180928887613bdc565b90613ce28282613bac565b91613d01613cfb613cf38684613bba565b969093613bcb565b90613bf4565b90893b156102d7575f908d613d2e604094855198899485946304512a2360e31b86528a8a60048801613c10565b03816801bc16d674ec8000008d5af1908115610521577f64b6e61d93b7a91e8cc4376183ede0997a27b44fd9dd2f30a866b2a5730efdb194613d7a92613d89575b505192839283613c63565b0390a160018193019290613cb6565b80610abd613d9692610e95565b5f613d6f565b816030116102d757613cfb917f00000000000000000000000000000000000000000000000000000000000000006001600160a01b0316613dda6146fa565b90613df1613de88486613bba565b96909486613bcb565b94813b156102d7576801bc16d674ec8000005f94613e5797604051988996879586946304512a2360e31b865260806004870152613e48613e358d6084890190612491565b60031994858983030160248a0152611af9565b928684030160448701526124a9565b90606483015203925af1908115610521577f64b6e61d93b7a91e8cc4376183ede0997a27b44fd9dd2f30a866b2a5730efdb192612d6892613ea0575b5060405191829182613c52565b613ea990610e95565b5f613e93565b907f9b779b17422d0df92223018b32b4d1fa46e071723d6817e2486d003becc55f00916002835414613f375760028355814710613f1f575f918291829182916001600160a01b03165af1613f0161266f565b5015613f0d5760019055565b604051630a12f52160e11b8152600490fd5b60405163cd78605960e01b8152306004820152602490fd5b604051633ee5aeb560e01b8152600490fd5b609854906001600160801b03821681158015613f78575b15613f6b5750905090565b6105f49260801c916129a0565b508015613f60565b6098546001600160801b0381169082158015613fd0575b15613fa157505090565b60801c90613fb08282856129a0565b9282156125975709613fbf5790565b60018101809111156105f457611db8565b508115613f97565b613fe0612fe0565b6001600160a01b0316801561402857606580546001600160a01b03191682179055337faaebcf1bfa00580e41d966056b48521fa9f202645c86d4ddf28113e617c1b1d35f80a3565b604051630ed1b8b360e31b8152600490fd5b9190614044612fe0565b6001600160a01b038316908115610ac95780156140f0578061406b6116d660985460801c90565b01936140756122a5565b85116140de576109609461409c9161409761408f85613f80565b97889361306b565b6141ae565b60408051918252602082018590525f9082015233907f861a4138e41fb21c121a7dbb1053df465c837fc77380cc7226189a662281be2c9080606081015b0390a3565b6040516304ffa0ff60e51b8152600490fd5b6040516318374fd160e21b8152600490fd5b9092919261410e612fe0565b6001600160a01b038216918215610ac95781156140f057816141356116d660985460801c90565b0161413e6122a5565b81116140de57610960956141856140d9927f861a4138e41fb21c121a7dbb1053df465c837fc77380cc7226189a662281be2c9461409761417d88613f80565b9a8b9361306b565b60408051948552602085018890526001600160a01b039091169084015233929081906060820190565b6141b78261306b565b609854906141cf6001600160801b0391828416611e66565b16906001600160801b0319161760985560018060a01b03165f52609c60205260405f20908154019055565b9080821015614207575090565b905090565b609a549068010000000000000000821015610e90576001820180609a5582101561265d57609a5f52805160209091015160a01b6001600160a01b0319166001600160a01b0391909116175f8051602061493183398151915290910155565b91909180158015614337575b6143255761428261457a565b908101809111611de5576001600160a01b03808211614305576001600160601b03908185116142e55790610f0c93946142cf6142e0936142c0610eff565b95166001600160a01b03168552565b166001600160601b03166020830152565b61420c565b6040516306dfcc6560e41b81526060600482015260248101869052604490fd5b6040516306dfcc6560e41b815260a0600482015260248101839052604490fd5b604051632ec8835b60e21b8152600490fd5b508215614276565b60018060a01b03165f52609c60205260405f20908154818103908111611de557614369925561306b565b609854906001600160801b03908183160316906001600160801b03191617609855565b60ff7ff0c57e16840df040f15088dc2f81fe391c3923bec73e23a9662efc9c229c6a005460401c16156143bb57565b604051631afcd79f60e31b8152600490fd5b6143d561438c565b80156143eb57600181016143e65750565b609d55565b6040516331278a8760e01b8152600490fd5b61440561438c565b6801bc16d674ec8000006144176122a5565b106143eb576135586145f3565b61442c61438c565b6001600160a01b03168061443d5750565b61016a80546001600160a01b0319169091179055565b61445b61438c565b61446361438c565b61446b61438c565b60017f9b779b17422d0df92223018b32b4d1fa46e071723d6817e2486d003becc55f0055633b9aca0034106144a457611e63343061403a565b60405163ea2559bb60e01b8152600490fd5b908160209103126102d7575160ff811681036102d75790565b6040516352d1902d60e01b81529290916020846004816001600160a01b0387165afa5f9481614559575b5061451f57604051634c9c8ce360e01b81526001600160a01b0384166004820152602490fd5b90915f80516020614951833981519152840361454057610f0c9293506147a3565b604051632a87526960e21b815260048101859052602490fd5b61457391955060203d60201161051a5761050c8183610ede565b935f6144f9565b609a548061458757505f90565b609a5f527f44da158ba27f9252712a74ff6a55c5d531f69609f1f6e7f17c4443a8e2089be301546001600160a01b03166111d2565b609e54908160801c811580156145eb575b156145d85750905090565b6001600160801b036105f49316916129a0565b5080156145cd565b6e5661756c7456616c696461746f727360881b602060405161461481610e75565b600f8152015260405160208101907f8b73c3c69bb8fe3d512ecc4cf759cc79239f7b179b0ffacaa9a75d522b39400f82527f35d6cf9768d8be929c3a11ed667b1560ae6f1920195a985758fdd7265505d1ca60408201527fc89efdaa54c0f20c7adf612882df0950f5a951637e0307cdcb4c672f298b8bc660608201524660808201523060a082015260a0815260c081018181106001600160401b03821117610e905760405251902090565b81519190604183036146f0576146e99250602082015190606060408401519301515f1a90614845565b9192909190565b50505f9160029190565b604051600160f81b60208201525f60218201523060601b602c820152602081526105f481610e75565b60018060a01b0381165f5261013760205260405f20906040519161474683610e75565b54906001600160801b03918281169081855260801c602085015215612d8357611f776107ec61479992614777612fe0565b614780866127fd565b6001600160a01b03165f908152609c6020526040902090565b9151161161200e57565b90813b15614824575f8051602061495183398151915280546001600160a01b0319166001600160a01b0384169081179091557fbc7cd75a20ee27fd9adebab32041f755214dbc6bffa90cc0225b39da2e5c2d3b5f80a280511561480957611e63916148c7565b50503461481257565b60405163b398979f60e01b8152600490fd5b604051634c9c8ce360e01b81526001600160a01b0383166004820152602490fd5b91907f7fffffffffffffffffffffffffffffff5d576e7357a4501ddfe92f46681b20a084116148bc579160209360809260ff5f9560405194855216868401526040830152606082015282805260015afa15610521575f516001600160a01b038116156148b257905f905f90565b505f906001905f90565b5050505f9160039190565b5f806105f493602081519101845af46148de61266f565b91906148f45750805115613f0d57805190602001fd5b81511580614927575b614905575090565b604051639996b31560e01b81526001600160a01b039091166004820152602490fd5b50803b156148fd56fe44da158ba27f9252712a74ff6a55c5d531f69609f1f6e7f17c4443a8e2089be4360894a13ba1a3210667c828492db98dca3e2076cc3735a920a3ca505d382bbca2646970667358221220eac02bbd9cd86ef82295d10809148886485f94d6e2999183187b262185d6a1c164736f6c63430008160033",
  "linkReferences": {},
  "deployedLinkReferences": {}
}