{
  "_format": "hh-sol-artifact-1",
  "contractName": "GnoBlocklistErc20Vault",
  "sourceName": "contracts/vaults/gnosis/GnoBlocklistErc20Vault.sol",
  "abi": [
    {
      "inputs": [
        {
          "internalType": "address",
          "name": "_keeper",
          "type": "address"
        },
        {
          "internalType": "address",
          "name": "_vaultsRegistry",
          "type": "address"
        },
        {
          "internalType": "address",
          "name": "_validatorsRegistry",
          "type": "address"
        },
        {
          "internalType": "address",
          "name": "osTokenVaultController",
          "type": "address"
        },
        {
          "internalType": "address",
          "name": "osTokenConfig",
          "type": "address"
        },
        {
          "internalType": "address",
          "name": "sharedMevEscrow",
          "type": "address"
        },
        {
          "internalType": "address",
          "name": "depositDataRegistry",
          "type": "address"
        },
        {
          "internalType": "address",
          "name": "gnoToken",
          "type": "address"
        },
        {
          "internalType": "address",
          "name": "xdaiExchange",
          "type": "address"
        },
        {
          "internalType": "uint256",
          "name": "exitingAssetsClaimDelay",
          "type": "uint256"
        }
      ],
      "stateMutability": "nonpayable",
      "type": "constructor"
    },
    {
      "inputs": [],
      "name": "AccessDenied",
      "type": "error"
    },
    {
      "inputs": [
        {
          "internalType": "address",
          "name": "target",
          "type": "address"
        }
      ],
      "name": "AddressEmptyCode",
      "type": "error"
    },
    {
      "inputs": [
        {
          "internalType": "address",
          "name": "account",
          "type": "address"
        }
      ],
      "name": "AddressInsufficientBalance",
      "type": "error"
    },
    {
      "inputs": [],
      "name": "CapacityExceeded",
      "type": "error"
    },
    {
      "inputs": [],
      "name": "DeadlineExpired",
      "type": "error"
    },
    {
      "inputs": [
        {
          "internalType": "address",
          "name": "implementation",
          "type": "address"
        }
      ],
      "name": "ERC1967InvalidImplementation",
      "type": "error"
    },
    {
      "inputs": [],
      "name": "ERC1967NonPayable",
      "type": "error"
    },
    {
      "inputs": [],
      "name": "ExitRequestNotProcessed",
      "type": "error"
    },
    {
      "inputs": [],
      "name": "FailedInnerCall",
      "type": "error"
    },
    {
      "inputs": [],
      "name": "InsufficientAssets",
      "type": "error"
    },
    {
      "inputs": [],
      "name": "InvalidAssets",
      "type": "error"
    },
    {
      "inputs": [],
      "name": "InvalidCapacity",
      "type": "error"
    },
    {
      "inputs": [],
      "name": "InvalidCheckpointIndex",
      "type": "error"
    },
    {
      "inputs": [],
      "name": "InvalidCheckpointValue",
      "type": "error"
    },
    {
      "inputs": [],
      "name": "InvalidFeePercent",
      "type": "error"
    },
    {
      "inputs": [],
      "name": "InvalidFeeRecipient",
      "type": "error"
    },
    {
      "inputs": [],
      "name": "InvalidHealthFactor",
      "type": "error"
    },
    {
      "inputs": [],
      "name": "InvalidInitialization",
      "type": "error"
    },
    {
      "inputs": [],
      "name": "InvalidPosition",
      "type": "error"
    },
    {
      "inputs": [],
      "name": "InvalidReceivedAssets",
      "type": "error"
    },
    {
      "inputs": [],
      "name": "InvalidShares",
      "type": "error"
    },
    {
      "inputs": [],
      "name": "InvalidTokenMeta",
      "type": "error"
    },
    {
      "inputs": [],
      "name": "InvalidValidators",
      "type": "error"
    },
    {
      "inputs": [],
      "name": "LiquidationDisabled",
      "type": "error"
    },
    {
      "inputs": [],
      "name": "LowLtv",
      "type": "error"
    },
    {
      "inputs": [],
      "name": "MathOverflowedMulDiv",
      "type": "error"
    },
    {
      "inputs": [],
      "name": "NotCollateralized",
      "type": "error"
    },
    {
      "inputs": [],
      "name": "NotHarvested",
      "type": "error"
    },
    {
      "inputs": [],
      "name": "NotInitializing",
      "type": "error"
    },
    {
      "inputs": [],
      "name": "PermitInvalidSigner",
      "type": "error"
    },
    {
      "inputs": [],
      "name": "ReentrancyGuardReentrantCall",
      "type": "error"
    },
    {
      "inputs": [
        {
          "internalType": "uint8",
          "name": "bits",
          "type": "uint8"
        },
        {
          "internalType": "uint256",
          "name": "value",
          "type": "uint256"
        }
      ],
      "name": "SafeCastOverflowedUintDowncast",
      "type": "error"
    },
    {
      "inputs": [
        {
          "internalType": "uint256",
          "name": "value",
          "type": "uint256"
        }
      ],
      "name": "SafeCastOverflowedUintToInt",
      "type": "error"
    },
    {
      "inputs": [
        {
          "internalType": "address",
          "name": "token",
          "type": "address"
        }
      ],
      "name": "SafeERC20FailedOperation",
      "type": "error"
    },
    {
      "inputs": [],
      "name": "UUPSUnauthorizedCallContext",
      "type": "error"
    },
    {
      "inputs": [
        {
          "internalType": "bytes32",
          "name": "slot",
          "type": "bytes32"
        }
      ],
      "name": "UUPSUnsupportedProxiableUUID",
      "type": "error"
    },
    {
      "inputs": [],
      "name": "UpgradeFailed",
      "type": "error"
    },
    {
      "inputs": [],
      "name": "ZeroAddress",
      "type": "error"
    },
    {
      "anonymous": false,
      "inputs": [
        {
          "indexed": true,
          "internalType": "address",
          "name": "owner",
          "type": "address"
        },
        {
          "indexed": true,
          "internalType": "address",
          "name": "spender",
          "type": "address"
        },
        {
          "indexed": false,
          "internalType": "uint256",
          "name": "value",
          "type": "uint256"
        }
      ],
      "name": "Approval",
      "type": "event"
    },
    {
      "anonymous": false,
      "inputs": [
        {
          "indexed": true,
          "internalType": "address",
          "name": "caller",
          "type": "address"
        },
        {
          "indexed": true,
          "internalType": "address",
          "name": "blocklistManager",
          "type": "address"
        }
      ],
      "name": "BlocklistManagerUpdated",
      "type": "event"
    },
    {
      "anonymous": false,
      "inputs": [
        {
          "indexed": true,
          "internalType": "address",
          "name": "caller",
          "type": "address"
        },
        {
          "indexed": true,
          "internalType": "address",
          "name": "account",
          "type": "address"
        },
        {
          "indexed": false,
          "internalType": "bool",
          "name": "isBlocked",
          "type": "bool"
        }
      ],
      "name": "BlocklistUpdated",
      "type": "event"
    },
    {
      "anonymous": false,
      "inputs": [
        {
          "indexed": false,
          "internalType": "uint256",
          "name": "shares",
          "type": "uint256"
        },
        {
          "indexed": false,
          "internalType": "uint256",
          "name": "assets",
          "type": "uint256"
        }
      ],
      "name": "CheckpointCreated",
      "type": "event"
    },
    {
      "anonymous": false,
      "inputs": [
        {
          "indexed": true,
          "internalType": "address",
          "name": "caller",
          "type": "address"
        },
        {
          "indexed": true,
          "internalType": "address",
          "name": "receiver",
          "type": "address"
        },
        {
          "indexed": false,
          "internalType": "uint256",
          "name": "assets",
          "type": "uint256"
        },
        {
          "indexed": false,
          "internalType": "uint256",
          "name": "shares",
          "type": "uint256"
        },
        {
          "indexed": false,
          "internalType": "address",
          "name": "referrer",
          "type": "address"
        }
      ],
      "name": "Deposited",
      "type": "event"
    },
    {
      "anonymous": false,
      "inputs": [
        {
          "indexed": true,
          "internalType": "address",
          "name": "owner",
          "type": "address"
        },
        {
          "indexed": true,
          "internalType": "address",
          "name": "receiver",
          "type": "address"
        },
        {
          "indexed": false,
          "internalType": "uint256",
          "name": "positionTicket",
          "type": "uint256"
        },
        {
          "indexed": false,
          "internalType": "uint256",
          "name": "shares",
          "type": "uint256"
        }
      ],
      "name": "ExitQueueEntered",
      "type": "event"
    },
    {
      "anonymous": false,
      "inputs": [
        {
          "indexed": true,
          "internalType": "address",
          "name": "receiver",
          "type": "address"
        },
        {
          "indexed": false,
          "internalType": "uint256",
          "name": "prevPositionTicket",
          "type": "uint256"
        },
        {
          "indexed": false,
          "internalType": "uint256",
          "name": "newPositionTicket",
          "type": "uint256"
        },
        {
          "indexed": false,
          "internalType": "uint256",
          "name": "withdrawnAssets",
          "type": "uint256"
        }
      ],
      "name": "ExitedAssetsClaimed",
      "type": "event"
    },
    {
      "anonymous": false,
      "inputs": [
        {
          "indexed": false,
          "internalType": "uint256",
          "name": "penalty",
          "type": "uint256"
        }
      ],
      "name": "ExitingAssetsPenalized",
      "type": "event"
    },
    {
      "anonymous": false,
      "inputs": [
        {
          "indexed": true,
          "internalType": "address",
          "name": "caller",
          "type": "address"
        },
        {
          "indexed": true,
          "internalType": "address",
          "name": "feeRecipient",
          "type": "address"
        }
      ],
      "name": "FeeRecipientUpdated",
      "type": "event"
    },
    {
      "anonymous": false,
      "inputs": [
        {
          "indexed": false,
          "internalType": "address",
          "name": "receiver",
          "type": "address"
        },
        {
          "indexed": false,
          "internalType": "uint256",
          "name": "shares",
          "type": "uint256"
        },
        {
          "indexed": false,
          "internalType": "uint256",
          "name": "assets",
          "type": "uint256"
        }
      ],
      "name": "FeeSharesMinted",
      "type": "event"
    },
    {
      "anonymous": false,
      "inputs": [
        {
          "indexed": false,
          "internalType": "uint64",
          "name": "version",
          "type": "uint64"
        }
      ],
      "name": "Initialized",
      "type": "event"
    },
    {
      "anonymous": false,
      "inputs": [
        {
          "indexed": true,
          "internalType": "address",
          "name": "caller",
          "type": "address"
        },
        {
          "indexed": true,
          "internalType": "address",
          "name": "keysManager",
          "type": "address"
        }
      ],
      "name": "KeysManagerUpdated",
      "type": "event"
    },
    {
      "anonymous": false,
      "inputs": [
        {
          "indexed": true,
          "internalType": "address",
          "name": "caller",
          "type": "address"
        },
        {
          "indexed": false,
          "internalType": "string",
          "name": "metadataIpfsHash",
          "type": "string"
        }
      ],
      "name": "MetadataUpdated",
      "type": "event"
    },
    {
      "anonymous": false,
      "inputs": [
        {
          "indexed": true,
          "internalType": "address",
          "name": "caller",
          "type": "address"
        },
        {
          "indexed": false,
          "internalType": "uint256",
          "name": "assets",
          "type": "uint256"
        },
        {
          "indexed": false,
          "internalType": "uint256",
          "name": "shares",
          "type": "uint256"
        }
      ],
      "name": "OsTokenBurned",
      "type": "event"
    },
    {
      "anonymous": false,
      "inputs": [
        {
          "indexed": true,
          "internalType": "address",
          "name": "caller",
          "type": "address"
        },
        {
          "indexed": true,
          "internalType": "address",
          "name": "user",
          "type": "address"
        },
        {
          "indexed": false,
          "internalType": "address",
          "name": "receiver",
          "type": "address"
        },
        {
          "indexed": false,
          "internalType": "uint256",
          "name": "osTokenShares",
          "type": "uint256"
        },
        {
          "indexed": false,
          "internalType": "uint256",
          "name": "shares",
          "type": "uint256"
        },
        {
          "indexed": false,
          "internalType": "uint256",
          "name": "receivedAssets",
          "type": "uint256"
        }
      ],
      "name": "OsTokenLiquidated",
      "type": "event"
    },
    {
      "anonymous": false,
      "inputs": [
        {
          "indexed": true,
          "internalType": "address",
          "name": "caller",
          "type": "address"
        },
        {
          "indexed": false,
          "internalType": "address",
          "name": "receiver",
          "type": "address"
        },
        {
          "indexed": false,
          "internalType": "uint256",
          "name": "assets",
          "type": "uint256"
        },
        {
          "indexed": false,
          "internalType": "uint256",
          "name": "shares",
          "type": "uint256"
        },
        {
          "indexed": false,
          "internalType": "address",
          "name": "referrer",
          "type": "address"
        }
      ],
      "name": "OsTokenMinted",
      "type": "event"
    },
    {
      "anonymous": false,
      "inputs": [
        {
          "indexed": true,
          "internalType": "address",
          "name": "caller",
          "type": "address"
        },
        {
          "indexed": true,
          "internalType": "address",
          "name": "user",
          "type": "address"
        },
        {
          "indexed": false,
          "internalType": "address",
          "name": "receiver",
          "type": "address"
        },
        {
          "indexed": false,
          "internalType": "uint256",
          "name": "osTokenShares",
          "type": "uint256"
        },
        {
          "indexed": false,
          "internalType": "uint256",
          "name": "shares",
          "type": "uint256"
        },
        {
          "indexed": false,
          "internalType": "uint256",
          "name": "assets",
          "type": "uint256"
        }
      ],
      "name": "OsTokenRedeemed",
      "type": "event"
    },
    {
      "anonymous": false,
      "inputs": [
        {
          "indexed": true,
          "internalType": "address",
          "name": "owner",
          "type": "address"
        },
        {
          "indexed": true,
          "internalType": "address",
          "name": "receiver",
          "type": "address"
        },
        {
          "indexed": false,
          "internalType": "uint256",
          "name": "assets",
          "type": "uint256"
        },
        {
          "indexed": false,
          "internalType": "uint256",
          "name": "shares",
          "type": "uint256"
        }
      ],
      "name": "Redeemed",
      "type": "event"
    },
    {
      "anonymous": false,
      "inputs": [
        {
          "indexed": true,
          "internalType": "address",
          "name": "from",
          "type": "address"
        },
        {
          "indexed": true,
          "internalType": "address",
          "name": "to",
          "type": "address"
        },
        {
          "indexed": false,
          "internalType": "uint256",
          "name": "value",
          "type": "uint256"
        }
      ],
      "name": "Transfer",
      "type": "event"
    },
    {
      "anonymous": false,
      "inputs": [
        {
          "indexed": true,
          "internalType": "address",
          "name": "implementation",
          "type": "address"
        }
      ],
      "name": "Upgraded",
      "type": "event"
    },
    {
      "anonymous": false,
      "inputs": [
        {
          "indexed": true,
          "internalType": "address",
          "name": "owner",
          "type": "address"
        },
        {
          "indexed": true,
          "internalType": "address",
          "name": "receiver",
          "type": "address"
        },
        {
          "indexed": false,
          "internalType": "uint256",
          "name": "positionTicket",
          "type": "uint256"
        },
        {
          "indexed": false,
          "internalType": "uint256",
          "name": "shares",
          "type": "uint256"
        },
        {
          "indexed": false,
          "internalType": "uint256",
          "name": "assets",
          "type": "uint256"
        }
      ],
      "name": "V2ExitQueueEntered",
      "type": "event"
    },
    {
      "anonymous": false,
      "inputs": [
        {
          "indexed": false,
          "internalType": "bytes",
          "name": "publicKey",
          "type": "bytes"
        }
      ],
      "name": "ValidatorRegistered",
      "type": "event"
    },
    {
      "anonymous": false,
      "inputs": [
        {
          "indexed": true,
          "internalType": "address",
          "name": "caller",
          "type": "address"
        },
        {
          "indexed": true,
          "internalType": "address",
          "name": "validatorsManager",
          "type": "address"
        }
      ],
      "name": "ValidatorsManagerUpdated",
      "type": "event"
    },
    {
      "anonymous": false,
      "inputs": [
        {
          "indexed": true,
          "internalType": "address",
          "name": "caller",
          "type": "address"
        },
        {
          "indexed": true,
          "internalType": "bytes32",
          "name": "validatorsRoot",
          "type": "bytes32"
        }
      ],
      "name": "ValidatorsRootUpdated",
      "type": "event"
    },
    {
      "anonymous": false,
      "inputs": [
        {
          "indexed": false,
          "internalType": "uint256",
          "name": "amount",
          "type": "uint256"
        },
        {
          "indexed": false,
          "internalType": "uint256",
          "name": "assets",
          "type": "uint256"
        }
      ],
      "name": "XdaiSwapped",
      "type": "event"
    },
    {
      "inputs": [],
      "name": "DOMAIN_SEPARATOR",
      "outputs": [
        {
          "internalType": "bytes32",
          "name": "",
          "type": "bytes32"
        }
      ],
      "stateMutability": "view",
      "type": "function"
    },
    {
      "inputs": [],
      "name": "UPGRADE_INTERFACE_VERSION",
      "outputs": [
        {
          "internalType": "string",
          "name": "",
          "type": "string"
        }
      ],
      "stateMutability": "view",
      "type": "function"
    },
    {
      "inputs": [],
      "name": "admin",
      "outputs": [
        {
          "internalType": "address",
          "name": "",
          "type": "address"
        }
      ],
      "stateMutability": "view",
      "type": "function"
    },
    {
      "inputs": [
        {
          "internalType": "address",
          "name": "",
          "type": "address"
        },
        {
          "internalType": "address",
          "name": "",
          "type": "address"
        }
      ],
      "name": "allowance",
      "outputs": [
        {
          "internalType": "uint256",
          "name": "",
          "type": "uint256"
        }
      ],
      "stateMutability": "view",
      "type": "function"
    },
    {
      "inputs": [
        {
          "internalType": "address",
          "name": "spender",
          "type": "address"
        },
        {
          "internalType": "uint256",
          "name": "amount",
          "type": "uint256"
        }
      ],
      "name": "approve",
      "outputs": [
        {
          "internalType": "bool",
          "name": "",
          "type": "bool"
        }
      ],
      "stateMutability": "nonpayable",
      "type": "function"
    },
    {
      "inputs": [
        {
          "internalType": "address",
          "name": "account",
          "type": "address"
        }
      ],
      "name": "balanceOf",
      "outputs": [
        {
          "internalType": "uint256",
          "name": "",
          "type": "uint256"
        }
      ],
      "stateMutability": "view",
      "type": "function"
    },
    {
      "inputs": [
        {
          "internalType": "address",
          "name": "",
          "type": "address"
        }
      ],
      "name": "blockedAccounts",
      "outputs": [
        {
          "internalType": "bool",
          "name": "",
          "type": "bool"
        }
      ],
      "stateMutability": "view",
      "type": "function"
    },
    {
      "inputs": [],
      "name": "blocklistManager",
      "outputs": [
        {
          "internalType": "address",
          "name": "",
          "type": "address"
        }
      ],
      "stateMutability": "view",
      "type": "function"
    },
    {
      "inputs": [
        {
          "internalType": "uint128",
          "name": "osTokenShares",
          "type": "uint128"
        }
      ],
      "name": "burnOsToken",
      "outputs": [
        {
          "internalType": "uint256",
          "name": "assets",
          "type": "uint256"
        }
      ],
      "stateMutability": "nonpayable",
      "type": "function"
    },
    {
      "inputs": [
        {
          "internalType": "address",
          "name": "receiver",
          "type": "address"
        },
        {
          "internalType": "uint256",
          "name": "positionTicket",
          "type": "uint256"
        },
        {
          "internalType": "uint256",
          "name": "timestamp",
          "type": "uint256"
        },
        {
          "internalType": "uint256",
          "name": "exitQueueIndex",
          "type": "uint256"
        }
      ],
      "name": "calculateExitedAssets",
      "outputs": [
        {
          "internalType": "uint256",
          "name": "leftTickets",
          "type": "uint256"
        },
        {
          "internalType": "uint256",
          "name": "exitedTickets",
          "type": "uint256"
        },
        {
          "internalType": "uint256",
          "name": "exitedAssets",
          "type": "uint256"
        }
      ],
      "stateMutability": "view",
      "type": "function"
    },
    {
      "inputs": [],
      "name": "capacity",
      "outputs": [
        {
          "internalType": "uint256",
          "name": "",
          "type": "uint256"
        }
      ],
      "stateMutability": "view",
      "type": "function"
    },
    {
      "inputs": [
        {
          "internalType": "uint256",
          "name": "positionTicket",
          "type": "uint256"
        },
        {
          "internalType": "uint256",
          "name": "timestamp",
          "type": "uint256"
        },
        {
          "internalType": "uint256",
          "name": "exitQueueIndex",
          "type": "uint256"
        }
      ],
      "name": "claimExitedAssets",
      "outputs": [],
      "stateMutability": "nonpayable",
      "type": "function"
    },
    {
      "inputs": [
        {
          "internalType": "uint256",
          "name": "shares",
          "type": "uint256"
        }
      ],
      "name": "convertToAssets",
      "outputs": [
        {
          "internalType": "uint256",
          "name": "assets",
          "type": "uint256"
        }
      ],
      "stateMutability": "view",
      "type": "function"
    },
    {
      "inputs": [
        {
          "internalType": "uint256",
          "name": "assets",
          "type": "uint256"
        }
      ],
      "name": "convertToShares",
      "outputs": [
        {
          "internalType": "uint256",
          "name": "shares",
          "type": "uint256"
        }
      ],
      "stateMutability": "view",
      "type": "function"
    },
    {
      "inputs": [],
      "name": "decimals",
      "outputs": [
        {
          "internalType": "uint8",
          "name": "",
          "type": "uint8"
        }
      ],
      "stateMutability": "view",
      "type": "function"
    },
    {
      "inputs": [
        {
          "internalType": "uint256",
          "name": "assets",
          "type": "uint256"
        },
        {
          "internalType": "address",
          "name": "receiver",
          "type": "address"
        },
        {
          "internalType": "address",
          "name": "referrer",
          "type": "address"
        }
      ],
      "name": "deposit",
      "outputs": [
        {
          "internalType": "uint256",
          "name": "shares",
          "type": "uint256"
        }
      ],
      "stateMutability": "nonpayable",
      "type": "function"
    },
    {
      "inputs": [
        {
          "internalType": "uint256",
          "name": "shares",
          "type": "uint256"
        },
        {
          "internalType": "address",
          "name": "receiver",
          "type": "address"
        }
      ],
      "name": "enterExitQueue",
      "outputs": [
        {
          "internalType": "uint256",
          "name": "positionTicket",
          "type": "uint256"
        }
      ],
      "stateMutability": "nonpayable",
      "type": "function"
    },
    {
      "inputs": [],
      "name": "feePercent",
      "outputs": [
        {
          "internalType": "uint16",
          "name": "",
          "type": "uint16"
        }
      ],
      "stateMutability": "view",
      "type": "function"
    },
    {
      "inputs": [],
      "name": "feeRecipient",
      "outputs": [
        {
          "internalType": "address",
          "name": "",
          "type": "address"
        }
      ],
      "stateMutability": "view",
      "type": "function"
    },
    {
      "inputs": [
        {
          "internalType": "uint256",
          "name": "positionTicket",
          "type": "uint256"
        }
      ],
      "name": "getExitQueueIndex",
      "outputs": [
        {
          "internalType": "int256",
          "name": "",
          "type": "int256"
        }
      ],
      "stateMutability": "view",
      "type": "function"
    },
    {
      "inputs": [
        {
          "internalType": "address",
          "name": "account",
          "type": "address"
        }
      ],
      "name": "getShares",
      "outputs": [
        {
          "internalType": "uint256",
          "name": "",
          "type": "uint256"
        }
      ],
      "stateMutability": "view",
      "type": "function"
    },
    {
      "inputs": [],
      "name": "implementation",
      "outputs": [
        {
          "internalType": "address",
          "name": "",
          "type": "address"
        }
      ],
      "stateMutability": "view",
      "type": "function"
    },
    {
      "inputs": [
        {
          "internalType": "bytes",
          "name": "params",
          "type": "bytes"
        }
      ],
      "name": "initialize",
      "outputs": [],
      "stateMutability": "nonpayable",
      "type": "function"
    },
    {
      "inputs": [],
      "name": "isStateUpdateRequired",
      "outputs": [
        {
          "internalType": "bool",
          "name": "",
          "type": "bool"
        }
      ],
      "stateMutability": "view",
      "type": "function"
    },
    {
      "inputs": [
        {
          "internalType": "uint256",
          "name": "osTokenShares",
          "type": "uint256"
        },
        {
          "internalType": "address",
          "name": "owner",
          "type": "address"
        },
        {
          "internalType": "address",
          "name": "receiver",
          "type": "address"
        }
      ],
      "name": "liquidateOsToken",
      "outputs": [],
      "stateMutability": "nonpayable",
      "type": "function"
    },
    {
      "inputs": [],
      "name": "mevEscrow",
      "outputs": [
        {
          "internalType": "address",
          "name": "",
          "type": "address"
        }
      ],
      "stateMutability": "view",
      "type": "function"
    },
    {
      "inputs": [
        {
          "internalType": "address",
          "name": "receiver",
          "type": "address"
        },
        {
          "internalType": "uint256",
          "name": "osTokenShares",
          "type": "uint256"
        },
        {
          "internalType": "address",
          "name": "referrer",
          "type": "address"
        }
      ],
      "name": "mintOsToken",
      "outputs": [
        {
          "internalType": "uint256",
          "name": "assets",
          "type": "uint256"
        }
      ],
      "stateMutability": "nonpayable",
      "type": "function"
    },
    {
      "inputs": [
        {
          "internalType": "bytes[]",
          "name": "data",
          "type": "bytes[]"
        }
      ],
      "name": "multicall",
      "outputs": [
        {
          "internalType": "bytes[]",
          "name": "results",
          "type": "bytes[]"
        }
      ],
      "stateMutability": "nonpayable",
      "type": "function"
    },
    {
      "inputs": [],
      "name": "name",
      "outputs": [
        {
          "internalType": "string",
          "name": "",
          "type": "string"
        }
      ],
      "stateMutability": "view",
      "type": "function"
    },
    {
      "inputs": [
        {
          "internalType": "address",
          "name": "",
          "type": "address"
        }
      ],
      "name": "nonces",
      "outputs": [
        {
          "internalType": "uint256",
          "name": "",
          "type": "uint256"
        }
      ],
      "stateMutability": "view",
      "type": "function"
    },
    {
      "inputs": [
        {
          "internalType": "address",
          "name": "user",
          "type": "address"
        }
      ],
      "name": "osTokenPositions",
      "outputs": [
        {
          "internalType": "uint128",
          "name": "shares",
          "type": "uint128"
        }
      ],
      "stateMutability": "view",
      "type": "function"
    },
    {
      "inputs": [
        {
          "internalType": "address",
          "name": "owner",
          "type": "address"
        },
        {
          "internalType": "address",
          "name": "spender",
          "type": "address"
        },
        {
          "internalType": "uint256",
          "name": "value",
          "type": "uint256"
        },
        {
          "internalType": "uint256",
          "name": "deadline",
          "type": "uint256"
        },
        {
          "internalType": "uint8",
          "name": "v",
          "type": "uint8"
        },
        {
          "internalType": "bytes32",
          "name": "r",
          "type": "bytes32"
        },
        {
          "internalType": "bytes32",
          "name": "s",
          "type": "bytes32"
        }
      ],
      "name": "permit",
      "outputs": [],
      "stateMutability": "nonpayable",
      "type": "function"
    },
    {
      "inputs": [],
      "name": "proxiableUUID",
      "outputs": [
        {
          "internalType": "bytes32",
          "name": "",
          "type": "bytes32"
        }
      ],
      "stateMutability": "view",
      "type": "function"
    },
    {
      "inputs": [],
      "name": "queuedShares",
      "outputs": [
        {
          "internalType": "uint128",
          "name": "",
          "type": "uint128"
        }
      ],
      "stateMutability": "view",
      "type": "function"
    },
    {
      "inputs": [
        {
          "internalType": "uint256",
          "name": "osTokenShares",
          "type": "uint256"
        },
        {
          "internalType": "address",
          "name": "owner",
          "type": "address"
        },
        {
          "internalType": "address",
          "name": "receiver",
          "type": "address"
        }
      ],
      "name": "redeemOsToken",
      "outputs": [],
      "stateMutability": "nonpayable",
      "type": "function"
    },
    {
      "inputs": [
        {
          "components": [
            {
              "internalType": "bytes32",
              "name": "validatorsRegistryRoot",
              "type": "bytes32"
            },
            {
              "internalType": "uint256",
              "name": "deadline",
              "type": "uint256"
            },
            {
              "internalType": "bytes",
              "name": "validators",
              "type": "bytes"
            },
            {
              "internalType": "bytes",
              "name": "signatures",
              "type": "bytes"
            },
            {
              "internalType": "string",
              "name": "exitSignaturesIpfsHash",
              "type": "string"
            }
          ],
          "internalType": "struct IKeeperValidators.ApprovalParams",
          "name": "keeperParams",
          "type": "tuple"
        },
        {
          "internalType": "bytes",
          "name": "validatorsManagerSignature",
          "type": "bytes"
        }
      ],
      "name": "registerValidators",
      "outputs": [],
      "stateMutability": "nonpayable",
      "type": "function"
    },
    {
      "inputs": [
        {
          "internalType": "address",
          "name": "_blocklistManager",
          "type": "address"
        }
      ],
      "name": "setBlocklistManager",
      "outputs": [],
      "stateMutability": "nonpayable",
      "type": "function"
    },
    {
      "inputs": [
        {
          "internalType": "address",
          "name": "_feeRecipient",
          "type": "address"
        }
      ],
      "name": "setFeeRecipient",
      "outputs": [],
      "stateMutability": "nonpayable",
      "type": "function"
    },
    {
      "inputs": [
        {
          "internalType": "string",
          "name": "metadataIpfsHash",
          "type": "string"
        }
      ],
      "name": "setMetadata",
      "outputs": [],
      "stateMutability": "nonpayable",
      "type": "function"
    },
    {
      "inputs": [
        {
          "internalType": "address",
          "name": "validatorsManager_",
          "type": "address"
        }
      ],
      "name": "setValidatorsManager",
      "outputs": [],
      "stateMutability": "nonpayable",
      "type": "function"
    },
    {
      "inputs": [],
      "name": "swapXdaiToGno",
      "outputs": [],
      "stateMutability": "nonpayable",
      "type": "function"
    },
    {
      "inputs": [],
      "name": "symbol",
      "outputs": [
        {
          "internalType": "string",
          "name": "",
          "type": "string"
        }
      ],
      "stateMutability": "view",
      "type": "function"
    },
    {
      "inputs": [],
      "name": "totalAssets",
      "outputs": [
        {
          "internalType": "uint256",
          "name": "",
          "type": "uint256"
        }
      ],
      "stateMutability": "view",
      "type": "function"
    },
    {
      "inputs": [],
      "name": "totalExitingAssets",
      "outputs": [
        {
          "internalType": "uint128",
          "name": "",
          "type": "uint128"
        }
      ],
      "stateMutability": "view",
      "type": "function"
    },
    {
      "inputs": [],
      "name": "totalShares",
      "outputs": [
        {
          "internalType": "uint256",
          "name": "",
          "type": "uint256"
        }
      ],
      "stateMutability": "view",
      "type": "function"
    },
    {
      "inputs": [],
      "name": "totalSupply",
      "outputs": [
        {
          "internalType": "uint256",
          "name": "",
          "type": "uint256"
        }
      ],
      "stateMutability": "view",
      "type": "function"
    },
    {
      "inputs": [
        {
          "internalType": "address",
          "name": "to",
          "type": "address"
        },
        {
          "internalType": "uint256",
          "name": "amount",
          "type": "uint256"
        }
      ],
      "name": "transfer",
      "outputs": [
        {
          "internalType": "bool",
          "name": "",
          "type": "bool"
        }
      ],
      "stateMutability": "nonpayable",
      "type": "function"
    },
    {
      "inputs": [
        {
          "internalType": "address",
          "name": "from",
          "type": "address"
        },
        {
          "internalType": "address",
          "name": "to",
          "type": "address"
        },
        {
          "internalType": "uint256",
          "name": "amount",
          "type": "uint256"
        }
      ],
      "name": "transferFrom",
      "outputs": [
        {
          "internalType": "bool",
          "name": "",
          "type": "bool"
        }
      ],
      "stateMutability": "nonpayable",
      "type": "function"
    },
    {
      "inputs": [
        {
          "internalType": "address",
          "name": "account",
          "type": "address"
        },
        {
          "internalType": "bool",
          "name": "isBlocked",
          "type": "bool"
        }
      ],
      "name": "updateBlocklist",
      "outputs": [],
      "stateMutability": "nonpayable",
      "type": "function"
    },
    {
      "inputs": [
        {
          "components": [
            {
              "internalType": "bytes32",
              "name": "rewardsRoot",
              "type": "bytes32"
            },
            {
              "internalType": "int160",
              "name": "reward",
              "type": "int160"
            },
            {
              "internalType": "uint160",
              "name": "unlockedMevReward",
              "type": "uint160"
            },
            {
              "internalType": "bytes32[]",
              "name": "proof",
              "type": "bytes32[]"
            }
          ],
          "internalType": "struct IKeeperRewards.HarvestParams",
          "name": "harvestParams",
          "type": "tuple"
        }
      ],
      "name": "updateState",
      "outputs": [],
      "stateMutability": "nonpayable",
      "type": "function"
    },
    {
      "inputs": [
        {
          "internalType": "address",
          "name": "newImplementation",
          "type": "address"
        },
        {
          "internalType": "bytes",
          "name": "data",
          "type": "bytes"
        }
      ],
      "name": "upgradeToAndCall",
      "outputs": [],
      "stateMutability": "payable",
      "type": "function"
    },
    {
      "inputs": [],
      "name": "validatorsManager",
      "outputs": [
        {
          "internalType": "address",
          "name": "",
          "type": "address"
        }
      ],
      "stateMutability": "view",
      "type": "function"
    },
    {
      "inputs": [],
      "name": "vaultId",
      "outputs": [
        {
          "internalType": "bytes32",
          "name": "",
          "type": "bytes32"
        }
      ],
      "stateMutability": "pure",
      "type": "function"
    },
    {
      "inputs": [],
      "name": "version",
      "outputs": [
        {
          "internalType": "uint8",
          "name": "",
          "type": "uint8"
        }
      ],
      "stateMutability": "pure",
      "type": "function"
    },
    {
      "inputs": [],
      "name": "withdrawableAssets",
      "outputs": [
        {
          "internalType": "uint256",
          "name": "",
          "type": "uint256"
        }
      ],
      "stateMutability": "view",
      "type": "function"
    },
    {
      "stateMutability": "payable",
      "type": "receive"
    }
  ],
  "bytecode": "0x610220346200023a5762005fee38819003601f8101601f191683016001600160401b038111848210176200023e57839282916040528339610140928391810103126200023a57620000508162000252565b916200005f6020830162000252565b906200006e6040840162000252565b936200007d6060850162000252565b6200008b6080860162000252565b906200009a60a0870162000252565b92620000a960c0880162000252565b94620000b860e0890162000252565b9561010099620000ca8b8b0162000252565b98610120809b01519460805260a05260c0523060e052620000ea62000267565b468a52885246815261016091825260018060a01b038061018094168452806101a0951685526101c09586526101e0961686526102009687526200012c62000267565b60405197615ce7998a620003078b396080518a8181611ae201528181611cb6015281816135a6015281816142dd0152614cb1015260a0518a61181e015260c0518a8181613d4a0152818161467b015281816148970152615484015260e0518a818161199e0152613fbd01525189612a25015251886131380152518761435301525186611e5c0152518581816104130152818161096f01528181610c6b01528181613207015281816139d80152614dc1015251848181610d2a0152818161152d01528181613a970152614d45015251838181612a0001526135ee01525182818161114401528181613cf9015281816146e5015281816148e101528181614a2501526151fa015251816130590152f35b5f80fd5b634e487b7160e01b5f52604160045260245ffd5b51906001600160a01b03821682036200023a57565b7ff0c57e16840df040f15088dc2f81fe391c3923bec73e23a9662efc9c229c6a00805460ff8160401c16620002f4576001600160401b036002600160401b031982821601620002b557505050565b6001600160401b031990911681179091556040519081527fc7f505b2f371ae2175ee4913f4499e1f2633a7b5936321eed1cdaeb6115181d290602090a1565b60405163f92ee8a960e01b8152600490fdfe6080604052600436101561001a575b3615610018575f80fd5b005b5f3560e01c806301e1d1141461037f578063066055e01461037a57806306fdde031461037557806307a2d13a14610370578063095ea7b31461036b57806314c4184b1461036657806318160ddd1461032f5780631a7ff55314610361578063201b9eb51461035c57806323b872dd146103575780632999ad3f146103525780632cdf74011461034d5780632e2d298414610348578063313ce567146103435780633229fa951461033e57806333194c0a146103395780633644e515146103345780633a98ef391461032f578063439fab911461032a57806343e82a791461032557806346904840146103205780634ec96b221461031b5780634f1ef2861461031657806352d1902d1461031157806354fd4d501461030c5780635c60da1b146103075780635cfc1a511461030257806360d60e6e146102fd57806370a082311461028557806372b410a8146102f8578063754c3888146102f357806376b58b90146102ee5780637ecebe00146102e95780637fd6f15c146102e457806383d430d5146102df5780638697d2c2146102da5780638ceab9aa146102d557806395d89b41146102d0578063a49a1e7d146102cb578063a9059cbb146102c6578063ac9650d8146102c1578063ad3cb1cc146102bc578063b0d11302146102b7578063b1f0e7c7146102b2578063b45a1eb5146102ad578063c6e6f592146102a8578063d0a64ddc146102a3578063d505accf1461029e578063d83ad00c14610299578063dd62ed3e14610294578063e74b981b1461028f578063ee3bd5df1461028a578063f04da65b14610285578063f45bf3d2146102805763f851a4400361000e576128c7565b612886565b611a7c565b612860565b612833565b6127d4565b6127ae565b612599565b612561565b612543565b612511565b6124ed565b6124ba565b612475565b612410565b61236f565b61231d565b612279565b612090565b611e30565b611c60565b611c3c565b611c01565b611bb0565b611b44565b611ab7565b611a5e565b611a44565b611a10565b6119f5565b61198c565b611706565b611623565b6115fb565b6114fe565b61135b565b61085f565b6112e6565b6112ac565b611280565b611265565b6110e5565b6110cb565b610c41565b610b65565b6108fd565b610885565b610836565b610794565b61075d565b610697565b6103c3565b610392565b5f91031261038e57565b5f80fd5b3461038e575f36600319011261038e57602060cf5460801c604051908152f35b6001600160801b0381160361038e57565b3461038e57602036600319011261038e576004356103e0816103b2565b604051633b9e9f0160e21b81523360048201526001600160801b03821660248201526020816044815f6001600160a01b037f0000000000000000000000000000000000000000000000000000000000000000165af1908115610562575f91610533575b50335f90815261016e6020526040902061045c90612909565b916001600160801b0361047684516001600160801b031690565b1615610521576104ca8361048c61051d956131f2565b6104b66104a9846104a484516001600160801b031690565b612942565b6001600160801b03168252565b335f90815261016e6020526040902061295b565b604080518381526001600160801b03909216602083015233917f3f7354ba02880b4fa37a629985852a38417ff369369ce1e52fa6f8342a9100a791819081015b0390a26040519081529081906020820190565b0390f35b60405163673f032f60e11b8152600490fd5b610555915060203d60201161055b575b61054d818361061c565b8101906128ef565b5f610443565b503d610543565b6128fe565b90600182811c92168015610595575b602083101461058157565b634e487b7160e01b5f52602260045260245ffd5b91607f1691610576565b634e487b7160e01b5f52604160045260245ffd5b604081019081106001600160401b038211176105ce57604052565b61059f565b6001600160401b0381116105ce57604052565b60a081019081106001600160401b038211176105ce57604052565b608081019081106001600160401b038211176105ce57604052565b90601f801991011681019081106001600160401b038211176105ce57604052565b5f5b83811061064e5750505f910152565b818101518382015260200161063f565b906020916106778151809281855285808601910161063d565b601f01601f1916010190565b90602061069492818152019061065e565b90565b3461038e575f36600319011261038e576040515f80546106b681610567565b8084529060209060019081811690811561073357506001146106ef575b61051d856106e38187038261061c565b60405191829182610683565b5f80805293505f80516020615c128339815191525b838510610720575050505081016020016106e38261051d6106d3565b8054868601840152938201938101610704565b86955061051d969350602092506106e394915060ff191682840152151560051b82010192936106d3565b3461038e57602036600319011261038e57602061077b600435612984565b604051908152f35b6001600160a01b0381160361038e57565b3461038e57604036600319011261038e576004356107b181610783565b6001600160a01b03811690602435908215610824576107ec8291335f52600260205260405f209060018060a01b03165f5260205260405f2090565b556040519081527f8c5be1e5ebec7d5bd14f71427d1e84f3dd0314c0f7b2291e5b200ac8c7c3b92560203392a3602060405160018152f35b60405163d92e233d60e01b8152600490fd5b3461038e575f36600319011261038e5761026a546040516001600160a01b039091168152602090f35b3461038e575f36600319011261038e5760206001600160801b0360cf5416604051908152f35b3461038e5760031960203682011261038e57600435906001600160401b03821161038e57608090823603011261038e576108c46108cb91600401613575565b919061370b565b6108d157005b6108d9615578565b806108e057005b5f906040519081525f80516020615c5283398151915260203092a3005b3461038e57606036600319011261038e5760043561091a81610783565b602435906044359061092b82610783565b61093433613890565b61093c614c96565b6109446142c2565b6040516329460cc560e11b81526001600160a01b0382811660048301526024820185905290926020917f00000000000000000000000000000000000000000000000000000000000000001682856044815f855af1948515610562575f95610b46575b50335f90815261016e602052604090206109bf90612909565b926001600160801b036109d985516001600160801b031690565b1615610ae25750506109ea826131f2565b610a16610a096109f9876149d4565b84516001600160801b03166138b1565b6001600160801b03168352565b335f90815260d360205260409020610a3890610a33905b54612984565b614d22565b610a58610a4c84516001600160801b031690565b6001600160801b031690565b11610ad057335f90815261016e6020526040902061051d957fa16d97739893e1436c9753925fb5cef174c4f368699dc86cc8fdb0e6e60f8e58939091610a9e919061295b565b604080516001600160a01b0395861681526020810187905290810191909152921660608301523391806080810161050a565b604051633684c65960e01b8152600490fd5b806004926040519384809263752a536d60e01b82525afa91821561056257610b2492610b15915f91610b29575b506149d4565b6001600160801b031690840152565b6109ea565b610b409150833d851161055b5761054d818361061c565b5f610b0f565b610b5e919550833d851161055b5761054d818361061c565b935f6109a6565b3461038e57606036600319011261038e57600435610b8281610783565b60243590610b8f82610783565b6001600160a01b0381165f8181526002602090815260408083203384529091529020546044359160018201610bdf575b610bd384610bce858883614e2c565b6138cc565b60405160018152602090f35b919093818503948511610c13575f928352600260209081526040808520338652909152909220939093559180610bd3610bbf565b61292e565b606090600319011261038e5760043590602435610c3481610783565b9060443561069481610783565b3461038e57610c4f36610c18565b906001600160a01b038083161561082457610c686142c2565b807f00000000000000000000000000000000000000000000000000000000000000001691823b1561038e5760408051631d8557d760e01b815260049491905f81878183875af18015610562576110b2575b506001600160a01b0383165f90815261016e60205260409020610cdb90612909565b6001600160801b039283610cf683516001600160801b031690565b16156110a257610d05826131f2565b825163e48a5f7b60e01b8152308882019081529097906060908990819060200103818a7f0000000000000000000000000000000000000000000000000000000000000000165afa978815610562575f98611071575b50602097888101956001600160401b03918280610d7e8a516001600160401b031690565b161461106157908c92918751918c8380610daa6303d1689d60e11b988983528a83019190602083019252565b03818a5afa91821561056257610dd6938e5f9461103c575b5050516001600160801b03165b1690613321565b96610df4610a2d8a60018060a01b03165f5260d360205260405f2090565b92838911801561102c575b61101c57908b610e3d9392610e1b89516001600160801b031690565b908a51958692839283528983019190916001600160801b036020820193169052565b0381895afa91821561056257670de0b6b3a764000094610e8c948e5f95610fef575b5050610e7e610e70610e8492612e2e565b93516001600160401b031690565b93612e2e565b92169061341a565b1015610fe1578351633b9e9f0160e21b815233918101918252602082018b905294939291889186919082905f90829060400103925af1908115610562577f61fd285f9e34a3dbfa9846bdcf22a023e37a3c93549902843b30dd74a18c535097610fbe95610f3693610fc3575b5050610f196104a9610f098c6149d4565b83516001600160801b0316612942565b6001600160a01b0386165f90815261016e6020526040902061295b565b610f3f82614b20565b90610f7d610f62610f4f856149d4565b60cf5460801c036001600160801b031690565b6001600160801b0360cf549181199060801b1691161760cf55565b610f8782866156a8565b610f918389614a07565b51948594169733978590949392606092608083019660018060a01b03168352602083015260408201520152565b0390a3005b81610fd992903d1061055b5761054d818361061c565b505f80610ef8565b835163185cfc6d60e11b8152fd5b610e84929550611012610e7e9282610e7093903d1061055b5761054d818361061c565b959250508e610e5f565b875163efda1a2760e01b81528590fd5b506110356129aa565b8911610dff565b610dcf929450908161105992903d1061055b5761054d818361061c565b92908e610dc2565b8651630709133160e01b81528490fd5b61109491985060603d60601161109b575b61108c818361061c565b810190613960565b965f610d5a565b503d611082565b825163673f032f60e11b81528790fd5b806110bf6110c5926105d3565b80610384565b5f610cb9565b3461038e575f36600319011261038e57602061077b6129aa565b3461038e576110f336610c18565b916110fd33613890565b61110682613890565b61110e614af1565b60409261116884516323b872dd60e01b602082015233602482015230604482015283606482015260648152611142816105e6565b7f0000000000000000000000000000000000000000000000000000000000000000615713565b6111706142c2565b6001600160a01b0383169283156112545782156112435782611197610a4c60cf5460801c90565b01906111a1612b35565b821161123257611218610f6295936111f286947f861a4138e41fb21c121a7dbb1053df465c837fc77380cc7226189a662281be2c946111ed6111e560209c9a614ba6565b9a8b936149d4565b615510565b8551938452602084018790526001600160a01b0316604084015233929081906060820190565b0390a360015f80516020615c928339815191525551908152f35b85516304ffa0ff60e51b8152600490fd5b84516318374fd160e21b8152600490fd5b845163d92e233d60e01b8152600490fd5b3461038e575f36600319011261038e57602060405160128152f35b3461038e575f36600319011261038e57602061129a6129e7565b6040516001600160a01b039091168152f35b3461038e575f36600319011261038e5760206040517fc77e768dab534fa678edc458b42a344df0e260a0905ed4b4c3727a271a465cd08152f35b3461038e575f36600319011261038e57602061077b612a22565b9181601f8401121561038e578235916001600160401b03831161038e576020838186019501011161038e57565b602060031982011261038e57600435906001600160401b03821161038e5761135791600401611300565b9091565b3461038e576113693661132d565b7ff0c57e16840df040f15088dc2f81fe391c3923bec73e23a9662efc9c229c6a00805460ff8160401c1680156114ea575b6114d85768ffffffffffffffffff19166801000000000000000217905560405163e7f6f22560e01b8152906020908183600481335afa928315610562575f936114b9575b50604051636f4fa30f60e01b8152938285600481335afa9081156105625761142695611421945f93611486575b505061141a9192810190612a96565b9083613ee7565b613fa7565b7ff0c57e16840df040f15088dc2f81fe391c3923bec73e23a9662efc9c229c6a00805468ff000000000000000019169055604051600281527fc7f505b2f371ae2175ee4913f4499e1f2633a7b5936321eed1cdaeb6115181d290602090a1005b61141a935090816114ab92903d106114b2575b6114a3818361061c565b810190612a57565b915f61140b565b503d611499565b6114d1919350823d84116114b2576114a3818361061c565b915f6113de565b60405163f92ee8a960e01b8152600490fd5b5060026001600160401b038216101561139a565b3461038e5761150c36610c18565b60405163057453a760e31b81529091906001600160a01b03906020816004817f000000000000000000000000000000000000000000000000000000000000000086165afa80156105625782915f916115dc575b501633036115ca5781610fbe61159786867f57f5eb636bf62215c111b54545422f11dfb0cb115f606be905f0be08e8859dd3966139ba565b604080516001600160a01b0390981688526020880198909852968601526060850195909552169233929081906080820190565b604051634ca8886760e01b8152600490fd5b6115f5915060203d6020116114b2576114a3818361061c565b5f61155f565b3461038e575f36600319011261038e57609c546040516001600160a01b039091168152602090f35b3461038e57602036600319011261038e5760043561164081610783565b60018060a01b03165f5261016e602052602060405f2060405190611663826105b3565b54906001600160801b03918281169081835260801c8483015261168b575b5116604051908152f35b611694816131f2565b611681565b604051906116a6826105e6565b565b604051906116a6826105b3565b6001600160401b0381116105ce57601f01601f191660200190565b9291926116dc826116b5565b916116ea604051938461061c565b82948184528183011161038e578281602093845f960137010152565b60408060031936011261038e57600490813561172181610783565b6024356001600160401b03811161038e573660238201121561038e5761175090369060248187013591016116d0565b91611759613fb3565b8051926117908461178260209363439fab9160e01b85840152846024840152604483019061065e565b03601f19810186528561061c565b611798613fb3565b6117a0614093565b6001600160a01b03838116801592919087908415611957575b84156118e9575b8415611885575b505082156117ef575b50506117e0576100188383615245565b516355299b4960e01b81528390fd5b83516345da87c560e01b81526001600160a01b03861688820190815292935091839183918290819060200103917f0000000000000000000000000000000000000000000000000000000000000000165afa918215610562575f92611858575b5050155f806117d0565b6118779250803d1061187e575b61186f818361061c565b810190612c1d565b5f8061184e565b503d611865565b855163054fd4d560e41b81529294508391839182905afa9081156105625760039160ff915f916118bc575b5016141591865f6117c7565b6118dc9150843d86116118e2575b6118d4818361061c565b810190615230565b5f6118b0565b503d6118ca565b935050835163198ca60560e11b815282818981875afa9081156105625788917fc77e768dab534fa678edc458b42a344df0e260a0905ed4b4c3727a271a465cd0915f9161193a575b501415936117c0565b6119519150853d871161055b5761054d818361061c565b5f611931565b5f80516020615c32833981519152549094508490611985906001600160a01b03165b6001600160a01b031690565b14936117b9565b3461038e575f36600319011261038e577f00000000000000000000000000000000000000000000000000000000000000006001600160a01b031630036119e35760206040515f80516020615c328339815191528152f35b60405163703e46dd60e11b8152600490fd5b3461038e575f36600319011261038e57602060405160028152f35b3461038e575f36600319011261038e575f80516020615c32833981519152546040516001600160a01b039091168152602090f35b3461038e575f36600319011261038e57602061077b612b35565b3461038e57602036600319011261038e57602061077b600435612b5e565b3461038e57602036600319011261038e57600435611a9981610783565b60018060a01b03165f5260d3602052602060405f2054604051908152f35b3461038e575f36600319011261038e57604051633eb1acf760e11b81523060048201526020816024817f00000000000000000000000000000000000000000000000000000000000000006001600160a01b03165afa8015610562576020915f91611b27575b506040519015158152f35b611b3e9150823d841161187e5761186f818361061c565b5f611b1c565b3461038e57602036600319011261038e57600435611b6181610783565b611b69614093565b61010980546001600160a01b0319166001600160a01b03929092169182179055337f6bdc78d8c88160b3fc3638e67f2afe523b3f4c7d00c56ebb6216790e4c3eb2cb5f80a3005b3461038e57608036600319011261038e5761051d611be4600435611bd381610783565b606435906044359060243590612c3f565b604080519384526020840192909252908201529081906060820190565b3461038e57602036600319011261038e57600435611c1e81610783565b60018060a01b03165f526003602052602060405f2054604051908152f35b3461038e575f36600319011261038e57602061ffff609c5460a01c16604051908152f35b3461038e5760031960403682011261038e5760049081356001600160401b0380821161038e5760a082850193833603011261038e5760243590811161038e57611cac9036908501611300565b6001600160a01b037f00000000000000000000000000000000000000000000000000000000000000008116803b1561038e5760405163837d444160e01b8152905f908290818381611cff8c828f01612d43565b03925af1801561056257611e1d575b50611d176142c2565b611d1f613123565b9081163314159182611dee575b50509050611ddd576044019160b0611d448484612dc1565b90500480158015611dc5575b611db557611d65611d5f6129aa565b91612e16565b11611da6575060b0611d778383612dc1565b9050145f14611d935761001891611d8d91612dc1565b90614875565b61001891611da091612dc1565b90614645565b6040516396d8043360e01b8152fd5b50604051631c6c4cf360e31b8152fd5b50611dd08484612dc1565b905060b082021415611d50565b604051634ca8886760e01b81528390fd5b611e119250611e0b611e1594611e038861434d565b9236916116d0565b91614428565b1590565b805f80611d2c565b806110bf611e2a926105d3565b5f611d0e565b3461038e57606036600319011261038e57600435602435611e55604435828433612c3f565b9192611e817f000000000000000000000000000000000000000000000000000000000000000082612b51565b42108015612088575b8015612080575b61206e577feb3b05c070c24f667611fdb3ff75fe007d42401c573aed8d8faca95fd00ccb5693611ed586611ed0610a4c60d0546001600160801b031690565b61400c565b15611fdc57611f0f611ef4611ee9866149d4565b60d05460801c612942565b6001600160801b0360d0549181199060801b1691161760d055565b60408051336020820190815291810184905260608082018990528152601f1993915f91611f539190611f4260808261061c565b5190205f5260d260205260405f2090565b555f9360018311611f8c575b50505050611f6d8233614a07565b604080519485526020850191909152830152339180606081015b0390a2005b611fd292939450611f9d9088612b51565b60408051336020820190815291810193909352606083018290529094909190611f429082608081015b0390810183528261061c565b555f808080611f5f565b611fe46142c2565b612020612004611ff3866149d4565b60d5546001600160801b0316612942565b6001600160801b03166001600160801b031960d554161760d555565b61205561203a61202f856149d4565b60d55460801c612942565b6001600160801b0360d5549181199060801b1691161760d555565b6120696120648460d654612b51565b60d655565b611f0f565b604051630e3d8e8d60e11b8152600490fd5b508215611e91565b508115611e8a565b3461038e5760408060031936011261038e57602435906004356120b283610783565b6120ba6142c2565b8015612268576001600160a01b038316908115612257576120da81612984565b908115612246576120ea82615344565b6120f3836149d4565b60cf5460801c9061210391612942565b612122906001600160801b0360cf549181199060801b1691161760cf55565b61212c82336156a8565b60d554958660801c828160d6549061214391612b51565b9861214d876149d4565b61215f916001600160801b03166138b1565b61217f906001600160801b03166001600160801b031960d554161760d555565b61218891612b51565b612191906149d4565b6121b0906001600160801b0360d5549181199060801b1691161760d555565b85516001600160a01b03919091166020820190815242604083015260608083018990528252906121e160808261061c565b5190206121f6905f5260d260205260405f2090565b5583518581526020810191909152604081019190915233907f869f12645d154414259c47bcb998b6b6983fae50e5e0c6053bc87d4330db9f2d90606090a361223d336138cc565b51908152602090f35b83516318374fd160e21b8152600490fd5b825163d92e233d60e01b8152600490fd5b8151636edcc52360e01b8152600490fd5b3461038e575f36600319011261038e576040515f6001805461229a81610567565b808552916020916001811690811561073357506001146122c45761051d856106e38187038261061c565b60015f90815293507fb10e2d527612073b26eecdfd717e6a320cf44b4afac2b0732d9fcbe2b7fa0cf65b83851061230a575050505081016020016106e38261051d6106d3565b80548686018401529382019381016122ee565b3461038e57611f877f2013570c343af8ab14a9778150e381a0fda34ed6368127a95fd5e7210cbec5bf61234f3661132d565b9290612359614093565b6040519182916020835233956020840191612d23565b3461038e57604036600319011261038e5761239960043561238f81610783565b6024359033614e2c565b6123a2336138cc565b602060405160018152f35b6020808201906020835283518092526040830192602060408460051b8301019501935f915b8483106123e25750505050505090565b9091929394958480612400600193603f198682030187528a5161065e565b98019301930191949392906123d2565b3461038e57602036600319011261038e576001600160401b0360043581811161038e573660238201121561038e57806004013591821161038e573660248360051b8301011161038e5761051d9160246124699201612f89565b604051918291826123ad565b3461038e575f36600319011261038e5761051d604051612494816105b3565b60058152640352e302e360dc1b602082015260405191829160208352602083019061065e565b3461038e575f36600319011261038e576124d2614af1565b6124da613036565b60015f80516020615c9283398151915255005b3461038e575f36600319011261038e57602061129a613123565b8015150361038e57565b3461038e57604036600319011261038e5761001860043561253181610783565b6024359061253e82612507565b61315a565b3461038e57602036600319011261038e57602061077b600435614b20565b3461038e57602036600319011261038e5761001860043561258181610783565b612589614093565b614bed565b60ff81160361038e57565b3461038e5760e036600319011261038e576004356125b681610783565b6024356125c281610783565b6044359060643592608435906125d78261258e565b6001600160a01b038381169590929086156108245742811061279c576020915f91611fc66126ca89878a61268d61260c612a22565b6001600160a01b0384165f9081526003602052604090209097908054906001820190556040519586948d8601968791959493909260a09360c08401977f6e71edae12b1b97f4d1f60370fef10105fa2faae0126114a169c64845d6126c98552600180871b038092166020860152166040840152606083015260808201520152565b03916126a1601f199384810183528261061c565b5190206040519384918983019687909160429261190160f01b8352600283015260228201520190565b5190206040805191825260ff92909216602082015260a4359181019190915260c435606082015281805260809060015afa15610562575f5192828416801590811561278f575b5061277d5761276a85916127557f8c5be1e5ebec7d5bd14f71427d1e84f3dd0314c0f7b2291e5b200ac8c7c3b9259660018060a01b03165f52600260205260405f2090565b9060018060a01b03165f5260205260405f2090565b5560405193845216918060208101610fbe565b6040516323389ba560e21b8152600490fd5b905083831614155f612710565b604051631ab7da6b60e01b8152600490fd5b3461038e575f36600319011261038e5760206001600160801b0360d05416604051908152f35b3461038e57604036600319011261038e57602061282a6004356127f681610783565b6024359061280382610783565b60018060a01b03165f526002835260405f209060018060a01b03165f5260205260405f2090565b54604051908152f35b3461038e57602036600319011261038e5761001860043561285381610783565b61285b614093565b614c34565b3461038e575f36600319011261038e5760206001600160801b0360d55416604051908152f35b3461038e57602036600319011261038e576004356128a381610783565b60018060a01b03165f5261026b602052602060ff60405f2054166040519015158152f35b3461038e575f36600319011261038e576037546040516001600160a01b039091168152602090f35b9081602091031261038e575190565b6040513d5f823e3d90fd5b90604051612916816105b3565b91546001600160801b038116835260801c6020830152565b634e487b7160e01b5f52601160045260245ffd5b6001600160801b039182169082160391908211610c1357565b815160209092015160801b6001600160801b0319166001600160801b0392909216919091179055565b60cf546001600160801b038116908161299c57505090565b916106949260801c9061341a565b6129b2613cd3565b60d0546001600160801b036129c8818316612984565b9060d55416019060801c01908181115f146129e1570390565b50505f90565b6101a1546001600160a01b031680156129fd5790565b507f000000000000000000000000000000000000000000000000000000000000000090565b467f000000000000000000000000000000000000000000000000000000000000000003612a4f5760045490565b610694613dc1565b9081602091031261038e575161069481610783565b359061ffff8216820361038e57565b9080601f8301121561038e57816020610694933591016116d0565b9060208282031261038e5781356001600160401b039283821161038e57019060a08282031261038e57612ac7611699565b9282358452612ad860208401612a6c565b6020850152604083013581811161038e5782612af5918501612a7b565b6040850152606083013581811161038e5782612b12918501612a7b565b6060850152608083013590811161038e57612b2d9201612a7b565b608082015290565b60d4548061069457505f1990565b9060b08201809211610c1357565b91908201809211610c1357565b6001600160801b0360d05416612b726152f0565b908101809111610c13578110612ba557612b9660d654612b90614023565b90612b51565b1115612ba0575f90565b5f1990565b60d19060d1549182915f905b848210612bcb57505050811015612bc55790565b505f1990565b909193808316906001818518811c8301809311610c13575f8790525f80516020615c728339815191528301546001600160a01b0316841015612c12575050935b9190612bb1565b909591019250612c0b565b9081602091031261038e575161069481612507565b91908203918211610c1357565b604080516001600160a01b03909216602083019081529082019390935260608101829052909190612c7d81608081015b03601f19810183528261061c565b5190205f5260d260205260405f2054918215612ce7576001600160801b0360d0541690612ca86152f0565b918201809211610c13578391831015612cd55791612cc592614127565b90915b828103908111610c135792565b5090612ce0916140a7565b9091612cc8565b5050505f905f905f90565b9035601e198236030181121561038e5701602081359101916001600160401b03821161038e57813603831361038e57565b908060209392818452848401375f828201840152601f01601f1916010190565b9060a061069492602081528235602082015260208301356040820152612d7f612d6f6040850185612cf2565b84606085015260c0840191612d23565b90612db2612da7612d936060870187612cf2565b601f19858703810160808701529591612d23565b946080810190612cf2565b93909282860301910152612d23565b903590601e198136030182121561038e57018035906001600160401b03821161038e5760200191813603831361038e57565b634e487b7160e01b5f52601260045260245ffd5b8115612e11570490565b612df3565b90670de0b6b3a76400009180830292830403610c1357565b90670de0b6b3a764000091828102928184041490151715610c1357565b6001600160401b0381116105ce5760051b60200190565b90612e6c82612e4b565b612e79604051918261061c565b8281528092612e8a601f1991612e4b565b01905f5b828110612e9a57505050565b806060602080938501015201612e8e565b634e487b7160e01b5f52603260045260245ffd5b90821015612ed6576113579160051b810190612dc1565b612eab565b908092918237015f815290565b3d15612f12573d90612ef9826116b5565b91612f07604051938461061c565b82523d5f602084013e565b606090565b60208183031261038e578051906001600160401b03821161038e570181601f8201121561038e578051612f49816116b5565b92612f57604051948561061c565b8184526020828401011161038e57610694916020808501910161063d565b8051821015612ed65760209160051b010190565b919091612f9583612e62565b925f5b818110612fa457505050565b5f80612fb1838587612ebf565b60409391612fc3855180938193612edb565b0390305af490612fd1612ee8565b9115612ff8575090600191612fe68288612f75565b52612ff18187612f75565b5001612f98565b90604481511061038e5761303261301d60049283810151602480918301019101612f17565b925162461bcd60e51b81529283928301610683565b0390fd5b47633b9aca00811061312057604051638119c06560e01b815290602082600481847f00000000000000000000000000000000000000000000000000000000000000006001600160a01b03165af1918215610562575f926130ff575b506001600160ff1b0382116130e657907f07554795962e1f72c5bca846be8a8f44143aa1b4ced204ffc7899be95e7040db916130cc8261370b565b60408051918252602082019290925290819081015b0390a1565b60405163123baf0360e11b815260048101839052602490fd5b61311991925060203d60201161055b5761054d818361061c565b905f613091565b50565b610109546001600160a01b03168061069457507f000000000000000000000000000000000000000000000000000000000000000090565b61026a546001600160a01b039190821633036115ca576001600160a01b0381165f90815261026b60205260409020549215159260ff16151583146131ed576001600160a01b0381165f90815261026b6020526040902060ff1981541660ff851617905560405192835216907fffe80d6d91bb72bd036e4be8badcf33d7c8e13b2a0aaab3dc3aef76f6b1f786a60203392a3565b505050565b60405163752a536d60e01b81526020816004817f00000000000000000000000000000000000000000000000000000000000000006001600160a01b03165afa908115610562575f91613288575b5060208201916001600160801b03918284511691828214613281578361327461326f61327c95858486511661341a565b6149d4565b1690526149d4565b169052565b5050505050565b6132a1915060203d60201161055b5761054d818361061c565b5f61323f565b90808202905f1981840990828083109203918083039214613316576127109082821115613304577fbc01a36e2eb1c432ca57a786c226809d495182a9930be0ded288ce703afb7e91940990828211900360fc1b910360041c170290565b60405163227bc15360e01b8152600490fd5b505061271091500490565b90808202905f198184099082808310920391808303921461338457670de0b6b3a76400009082821115613304577faccb18165bd6fe31ae1cf318dc5b51eee0e1ba569b88cd74c1773b91fac10669940990828211900360ee1b910360121c170290565b5050670de0b6b3a764000091500490565b90633b9aca0080830291905f198482099383808610950394808603951461340d578483111561330457829109815f038216809204600280826003021880830282030280830282030280830282030280830282030280830282030280920290030293600183805f03040190848311900302920304170290565b5050906106949250612e07565b9091828202915f198482099383808610950394808603951461340d578483111561330457829109815f038216809204600280826003021880830282030280830282030280830282030280830282030280830282030280920290030293600183805f03040190848311900302920304170290565b9081606091031261038e578051916040602083015192015161069481612507565b81835290916001600160fb1b03831161038e5760209260051b809284830137010190565b90602082528035602083015260208101358060130b80910361038e576040830152604081013561350181610783565b6001600160a01b031660608381019190915281013536829003601e190181121561038e5701602081359101906001600160401b03811161038e578060051b3603821361038e5760a08360808061069496015201916134ae565b9190915f8382019384129112908015821691151617610c1357565b6040516325f56f1160e01b81526001600160a01b039291606090829081906135a090600483016134d2565b03815f877f0000000000000000000000000000000000000000000000000000000000000000165af1928315610562575f915f905f956136c6575b50841561367357816135ea6129e7565b16917f000000000000000000000000000000000000000000000000000000000000000016821461366c57509060205f92600460405180958193634641257d60e01b83525af190811561056257613647925f9261364b575b5061355a565b9190565b61366591925060203d60201161055b5761054d818361061c565b905f613641565b9081613679575b50509190565b803b1561038e57604051636ee3193160e11b815260048101929092525f908290602490829084905af18015610562576136b3575b80613673565b806110bf6136c0926105d3565b5f6136ad565b919450506136ec915060603d6060116136f4575b6136e4818361061c565b81019061348d565b93905f6135da565b503d6136da565b600160ff1b8114610c13575f0390565b801561312057613720610a4c60cf5460801c90565b5f82126137ed578161373191612b51565b9061373e610f62836149d4565b613753609c549161ffff8360a01c16906132a7565b80156131ed57807f555ee6b2ef9506d870f386c067e47d3689435330b012ad263d8cc3531868654793613791610a4c60cf546001600160801b031690565b806137d75750506130e190925b6001600160a01b0316916137b28484615510565b60405193849384604091949392606082019560018060a01b0316825260208201520152565b6130e1926137e79203908461341a565b9261379e565b906137f7906136fb565b61380c610a4c60d5546001600160801b031690565b8061382c575b508061381c575050565b61326f610f62916116a693612c32565b906138877f3623a54e8078be0d90ecfbef82da6a31ff3e6be8aa1718e7a7f3d0d33ff1d32a9161387761200461386c6138658888612b51565b878561341a565b8080940396036149d4565b6040519081529081906020820190565b0390a15f613812565b6001600160a01b03165f90815261026b602052604090205460ff166115ca57565b9190916001600160801b0380809416911601918211610c1357565b60018060a01b0381165f5261016e60205260405f2090604051916138ef836105b3565b54906001600160801b03918281169081855260801c6020850152156131ed57610a33610a2d613942926139206142c2565b613929866131f2565b6001600160a01b03165f90815260d36020526040902090565b91511611610ad057565b51906001600160401b038216820361038e57565b9081606091031261038e5760405190606082018281106001600160401b038211176105ce576139b29160409182528051613999816103b2565b84526139a76020820161394c565b60208501520161394c565b604082015290565b92906001600160a01b039081811615610824576139d56142c2565b817f00000000000000000000000000000000000000000000000000000000000000001690813b1561038e57604094855193631d8557d760e01b85526004945f81878183895af1801561056257613cc0575b506001600160a01b0388165f90815261016e60205260409020613a4890612909565b906001600160801b03613a6283516001600160801b031690565b1615613cb057613a71826131f2565b875163e48a5f7b60e01b81523087820190815290916060918391908290819060200103917f0000000000000000000000000000000000000000000000000000000000000000165afa801561056257613c91575b508651936303d1689d60e11b97888652602091828780613aeb888c83019190602083019252565b0381845afa968715610562575f97613c72575b508699613b1e610a2d8d60018060a01b03165f5260d360205260405f2090565b88118015613c62575b613c52579083613b6492613b4287516001600160801b031690565b908551948592839283528d83019190916001600160801b036020820193169052565b0381845afa988915610562575f85948894613ba99c613c35575b5051633b9e9f0160e21b815233928101928352602083019490945292998a9384929091839160400190565b03925af195861561056257610f09613bf094613bd3936104a9936116a69a613c17575b50506149d4565b6001600160a01b0388165f90815261016e6020526040902061295b565b613c12613bfc83614b20565b8097613c0d610f62610f4f876149d4565b6156a8565b614a07565b81613c2d92903d1061055b5761054d818361061c565b505f80613bcc565b613c4b90873d891161055b5761054d818361061c565b505f613b7e565b825163efda1a2760e01b81528990fd5b50613c6b6129aa565b8811613b27565b613c8a919750833d851161055b5761054d818361061c565b955f613afe565b613ca99060603d60601161109b5761108c818361061c565b505f613ac4565b875163673f032f60e11b81528690fd5b806110bf613ccd926105d3565b5f613a26565b6040516370a0823160e01b81523060048201526020906001600160a01b039082816024817f000000000000000000000000000000000000000000000000000000000000000086165afa908115610562575f91613da4575b5060405163be7ab51b60e01b8152306004820152918390839060249082907f0000000000000000000000000000000000000000000000000000000000000000165afa91821561056257610694935f93613d85575b5050612b51565b613d9c929350803d1061055b5761054d818361061c565b905f80613d7e565b613dbb9150833d851161055b5761054d818361061c565b5f613d2a565b6040515f905f5490613dd282610567565b9283825260209384830193600190866001821691825f14613ec7575050600114613e84575b50509181613e0d613e7e93612c6f95038261061c565b519020604080517f8b73c3c69bb8fe3d512ecc4cf759cc79239f7b179b0ffacaa9a75d522b39400f95810195865260208601929092527fc89efdaa54c0f20c7adf612882df0950f5a951637e0307cdcb4c672f298b8bc69085015246606085015230608085015291829060a0850190565b51902090565b5f80805286935091905f80516020615c128339815191525b828410613eb25750505082010181613e0d613df7565b80548685018601528794909301928101613e9c565b60ff1916875292151560051b85019092019250839150613e0d9050613df7565b9190613ef1614f00565b608082015190613eff614f00565b6001600160a01b038416801561082457613f9f94613f8f93613f78926001600160601b0360a01b60375416176037557f2013570c343af8ab14a9778150e381a0fda34ed6368127a95fd5e7210cbec5bf6040516020815280613f663394602083019061065e565b0390a2602085015161ffff1690614f41565b613f828351614f92565b613f8a614fc2565b614fee565b606060408201519101519061501d565b6116a661514a565b6116a690612589614f00565b6001600160a01b037f00000000000000000000000000000000000000000000000000000000000000008116308114918215613ff1575b50506119e357565b5f80516020615c328339815191525416141590505f80613fe9565b906140156152f0565b918201809211610c13571090565b61402b613cd3565b60d0548060801c8203918211610c13578161404f6001600160801b03809316612984565b9081614075575b505081156129e157610694916140709160d5541690615332565b615344565b919250908181111561408b57035b905f80614056565b50505f614083565b6037546001600160a01b031633036115ca57565b6140af614023565b9160d654928301809311610c1357808311156140f9576140d0920390615332565b9060d5548060801c80155f146140e65750508190565b6001600160801b0361069492168461341a565b5050505f905f90565b9060405161410f816105b3565b91546001600160a01b038116835260a01c6020830152565b60d1545f9485949390918084108015906142ba575b6142ad5783614277575f5b60d15f526001600160a01b031661416c5f80516020615c728339815191528601614102565b8051909790614183906001600160a01b0316611979565b986141a861419c6020809b01516001600160601b031690565b6001600160601b031690565b94838110801561426d575b61425b5791600193979a956141d26141de939488035b838c0390615332565b8092019887039161341a565b01970193808611801590614251575b6142465760d15f52829061420f5f80516020615c728339815191528701614102565b805190890151969992966001600160a01b0390911694600193926141de9290916001600160601b03909116906141d29088036141c9565b945050509250509190565b50818510156141ed565b60405163e8722f8f60e01b8152600490fd5b50808b11156141b3565b60d15f527f695fb3134ad82c3b8022bc5464edd0bcc9424ef672b52245dcb6ab2374327ce28401546001600160a01b0316614147565b505093505050505f905f90565b50841561413c565b604051633eb1acf760e11b81523060048201526020816024817f00000000000000000000000000000000000000000000000000000000000000006001600160a01b03165afa908115610562575f9161432e575b5061431c57565b60405163e775715160e01b8152600490fd5b614347915060203d60201161187e5761186f818361061c565b5f614315565b604290467f0000000000000000000000000000000000000000000000000000000000000000036143fc5761010a54905b61439461438d6040830183612dc1565b36916116d0565b602081519101206040519060208201927f838af86bfca91ada6557e38d913af1c2f24ef9b2567b3b77cc9e1144314b35b084523560408301526060820152606081526143df81610601565b5190206040519161190160f01b8352600283015260228201522090565b61440461537b565b9061437d565b6004111561441457565b634e487b7160e01b5f52602160045260245ffd5b6144328383615448565b5061443f8195929561440a565b1593846144db575b508315614455575b50505090565b5f92935090829160405161448d81612c6f6020820194630b135d3f60e11b998a8752602484015260406044840152606483019061065e565b51915afa9061449a612ee8565b826144cd575b826144b0575b50505f808061444f565b6144c5919250602080825183010191016128ef565b145f806144a6565b9150602082511015916144a0565b6001600160a01b0383811691161493505f614447565b906144fb82612e4b565b614508604051918261061c565b8281528092614519601f1991612e4b565b0190602036910137565b9060301161038e5790603090565b9060901161038e5760300190606090565b9060b01161038e5760900190602090565b9093929384831161038e57841161038e578101920390565b602090836116a693959495604051968361458e899551809288808901910161063d565b84019185830137015f8382015203808552018361061c565b3590602081106145b4575090565b5f199060200360031b1b1690565b916020610694938181520191612d23565b91926145fd6145ed61460b9360808652608086019061065e565b602095858203602087015261065e565b90838203604085015261065e565b906060818303910152602080845192838152019301915f5b828110614631575050505090565b835185529381019392810192600101614623565b61464d615482565b6060906060905f809460b0810492614664846144f1565b965f905b85821061478357506001600160a01b03947f000000000000000000000000000000000000000000000000000000000000000094506146df9350602092506146af9150612e16565b60405163095ea7b360e01b81526001600160a01b0385166004820152602481019190915291829081906044820190565b03815f877f0000000000000000000000000000000000000000000000000000000000000000165af1801561056257614764575b501661471c6154e7565b813b1561038e575f80946147466040519788968795869463c82655b760e01b8652600486016145d3565b03925af18015610562576147575750565b806110bf6116a6926105d3565b61477c9060203d60201161187e5761186f818361061c565b505f614712565b6148086147d86147e36147c56147bc7f64b6e61d93b7a91e8cc4376183ede0997a27b44fd9dd2f30a866b2a5730efdb1959c9b9c612b43565b80998989614553565b92909a6147d2848d614523565b9161456b565b9a6147d2838c614531565b988b614802866147fc6147f68686614542565b906145a6565b92612f75565b52614523565b90614818604051928392836145c2565b0390a160010183614668565b929461485d670de0b6b3a76400009661484f6080979461486b969b9a9b60a0895260a0890191612d23565b90868203602088015261065e565b918483036040860152612d23565b9460608201520152565b9061487e615482565b6148888183614523565b60405163095ea7b360e01b81527f00000000000000000000000000000000000000000000000000000000000000006001600160a01b038181166004840152670de0b6b3a76400006024840152929492916020816044815f7f000000000000000000000000000000000000000000000000000000000000000088165af18015610562576149b5575b50169061491a6154e7565b916149336147f661492b8489614531565b949098614542565b95813b1561038e575f8094614960604051998a9687958694630cac9f3160e01b86528c8c60048801614824565b03925af1928315610562577f64b6e61d93b7a91e8cc4376183ede0997a27b44fd9dd2f30a866b2a5730efdb1936149a2575b506130e1604051928392836145c2565b806110bf6149af926105d3565b5f614992565b6149cd9060203d60201161187e5761186f818361061c565b505f61490f565b6001600160801b03908181116149e8571690565b604490604051906306dfcc6560e41b8252608060048301526024820152fd5b90614a10614af1565b6040516370a0823160e01b81523060048201527f0000000000000000000000000000000000000000000000000000000000000000906020816024816001600160a01b0386165afa93841561056257614aaf94614aaa925f91614ad2575b508411614ac5575b60405163a9059cbb60e01b60208201526001600160a01b0391909116602482015260448082019490945292835260648361061c565b615713565b6116a660015f80516020615c9283398151915255565b614acd615482565b614a75565b614aeb915060203d60201161055b5761054d818361061c565b5f614a6d565b5f80516020615c928339815191526002815414614b0e5760029055565b604051633ee5aeb560e01b8152600490fd5b60cf54906001600160801b03821681158015614b4f575b15614b425750905090565b6106949260801c9161341a565b508015614b37565b60cf546001600160801b0381169081614b74575050633b9aca0090565b60801c614b818183613395565b918115612e1157633b9aca0009614b955790565b60018101809111156106945761292e565b60cf546001600160801b0381169082158015614be5575b15614bc757505090565b60801c90614bd682828561341a565b928215612e115709614b955790565b508115614bbd565b61026a80546001600160a01b0319166001600160a01b03929092169182179055337fdd44becc667b27d303085374b2760e783af69bbc9db209947ab811a6f1bbc58b5f80a3565b614c3c6142c2565b6001600160a01b03168015614c8457609c80546001600160a01b03191682179055337faaebcf1bfa00580e41d966056b48521fa9f202645c86d4ddf28113e617c1b1d35f80a3565b604051630ed1b8b360e31b8152600490fd5b604051630156a69560e11b81523060048201526020816024817f00000000000000000000000000000000000000000000000000000000000000006001600160a01b03165afa908115610562575f91614d03575b5015614cf157565b604051630a62fbdb60e11b8152600490fd5b614d1c915060203d60201161187e5761186f818361061c565b5f614ce9565b60405163e48a5f7b60e01b81523060048201526001600160a01b036060826024817f000000000000000000000000000000000000000000000000000000000000000085165afa801561056257614dbd936001600160401b03610dcf6040614d9c946020975f91614e0d575b5001516001600160401b031690565b9060405180809581946363737ac960e11b8352600483019190602083019252565b03917f0000000000000000000000000000000000000000000000000000000000000000165afa908115610562575f91614df4575090565b610694915060203d60201161055b5761054d818361061c565b614e26915060603d60601161109b5761108c818361061c565b5f614d8d565b90614e3682613890565b614e3f81613890565b6001600160a01b039182169182158015614eb0575b61082457825f5260d360205260405f2090815492858403938411610c13575f80516020615c528339815191529360209355614e9f8160018060a01b03165f5260d360205260405f2090565b8681540190556040519586521693a3565b5080821615614e54565b6040516323b872dd60e01b60208201526001600160a01b039283166024820152919092166044820152633b9aca0060648083019190915281526116a691614aaa826105e6565b60ff7ff0c57e16840df040f15088dc2f81fe391c3923bec73e23a9662efc9c229c6a005460401c1615614f2f57565b604051631afcd79f60e31b8152600490fd5b614f49614f00565b61271061ffff831611614f8057614f5f90614c34565b609c805461ffff60a01b191660a09290921b61ffff60a01b16919091179055565b604051638a81d3b360e01b8152600490fd5b614f9a614f00565b8015614fb05760018101614fab5750565b60d455565b6040516331278a8760e01b8152600490fd5b614fca614f00565b670de0b6b3a7640000614fdb612b35565b10614fb057614fe861537b565b61010a55565b614ff6614f00565b6001600160a01b0316806150075750565b6101a180546001600160a01b0319169091179055565b615025614f00565b601e815111801561513f575b61512d5761503d614f00565b8051906001600160401b0382116105ce576150618261505c5f54610567565b615784565b602090816001601f8511146150b9575091806150979261509e95945f926150ae575b50508160011b915f199060031b1c19161790565b5f5561584e565b6116a66150a9613dc1565b600455565b015190505f80615083565b5f80529190601f1984165f80516020615c12833981519152935f905b82821061511557505091600193918561509e979694106150fd575b505050811b015f5561584e565b01515f1960f88460031b161c191690555f80806150f0565b806001869782949787015181550196019401906150d5565b604051632d3f993760e21b8152600490fd5b50600a825111615031565b615152614f00565b61515a614f00565b615162614f00565b60015f80516020615c928339815191525561517b6142c2565b301561082457633b9aca008060cf5460801c01615196612b35565b811161521e576151b0610f626151aa614b57565b926149d4565b6151ba8130615510565b60405191825260208201525f604082015230907f861a4138e41fb21c121a7dbb1053df465c837fc77380cc7226189a662281be2c60603392a36116a630337f0000000000000000000000000000000000000000000000000000000000000000614eba565b6040516304ffa0ff60e51b8152600490fd5b9081602091031261038e57516106948161258e565b6040516352d1902d60e01b81529290916020846004816001600160a01b0387165afa5f94816152cf575b5061529557604051634c9c8ce360e01b81526001600160a01b0384166004820152602490fd5b90915f80516020615c3283398151915284036152b6576116a692935061592c565b604051632a87526960e21b815260048101859052602490fd5b6152e991955060203d60201161055b5761054d818361061c565b935f61526f565b60d154806152fd57505f90565b60d15f527f695fb3134ad82c3b8022bc5464edd0bcc9424ef672b52245dcb6ab2374327ce201546001600160a01b0316611979565b908082101561533f575090565b905090565b60d554908160801c81158015615373575b156153605750905090565b6001600160801b0361069493169161341a565b508015615355565b6e5661756c7456616c696461746f727360881b602060405161539c816105b3565b600f8152015260405160208101907f8b73c3c69bb8fe3d512ecc4cf759cc79239f7b179b0ffacaa9a75d522b39400f82527f35d6cf9768d8be929c3a11ed667b1560ae6f1920195a985758fdd7265505d1ca60408201527fc89efdaa54c0f20c7adf612882df0950f5a951637e0307cdcb4c672f298b8bc660608201524660808201523060a082015260a0815260c081018181106001600160401b038211176105ce5760405251902090565b8151919060418303615478576154719250602082015190606060408401519301515f1a906159ce565b9192909190565b50505f9160029190565b7f00000000000000000000000000000000000000000000000000000000000000006001600160a01b0316803b1561038e575f809160246040518094819363a3066aab60e01b83523060048401525af18015610562576154de5750565b6116a6906105d3565b604051600160f81b60208201525f60218201523060601b602c82015260208152610694816105b3565b5f80516020615c5283398151915260205f9261552b856149d4565b60cf54906155436001600160801b03918284166138b1565b6001600160801b031990921691161760cf556001600160a01b031680845260d3825260408085208054870190555194855293a3565b60d054906001600160801b0382169182156156a25760801c6155b36155a48261559f613cd3565b612c32565b6155ad85612984565b90615332565b90811561569b576155c382614b20565b9384156156935782615610611ef461326f6116a696610f629661560b6155ef61326f8d6156889a612c32565b6001600160801b03166001600160801b031960d054161760d055565b612b51565b61561a8187615ac0565b60408051878152602081018390527f624ea167e477f9d39f7f4094b9dfe2e6346eb4a7aada54338db51abd554c4b9f9190a161326f61566c61565b886149d4565b60cf546001600160801b0316612942565b6001600160801b03166001600160801b031960cf54161760cf55565b60cf5460801c612942565b505f93505050565b505f925050565b505f9150565b6001600160a01b03165f81815260d360205260409020805483810391908211610c13575f935f80516020615c5283398151915292602092556156e9816149d4565b60cf54906001600160801b03908183160316906001600160801b0319161760cf55604051908152a3565b5f8061573b9260018060a01b03169360208151910182865af1615734612ee8565b9083615bae565b8051908115159182615769575b50506157515750565b60249060405190635274afe760e01b82526004820152fd5b61577c9250602080918301019101612c1d565b155f80615748565b601f8111615790575050565b5f80525f80516020615c12833981519152906020601f840160051c830193106157d3575b601f0160051c01905b8181106157c8575050565b5f81556001016157bd565b90915081906157b4565b90601f82116157ea575050565b60019160015f527fb10e2d527612073b26eecdfd717e6a320cf44b4afac2b0732d9fcbe2b7fa0cf6906020601f840160051c83019310615844575b601f0160051c01905b81811061583a57505050565b5f8155820161582e565b9091508190615825565b9081516001600160401b0381116105ce57600190615875816158708454610567565b6157dd565b602080601f83116001146158aa575081906158a69394955f926150ae5750508160011b915f199060031b1c19161790565b9055565b90601f198316956158dc60015f527fb10e2d527612073b26eecdfd717e6a320cf44b4afac2b0732d9fcbe2b7fa0cf690565b925f905b88821061591557505083859697106158fd575b505050811b019055565b01515f1960f88460031b161c191690555f80806158f3565b8087859682949686015181550195019301906158e0565b90813b156159ad575f80516020615c3283398151915280546001600160a01b0319166001600160a01b0384169081179091557fbc7cd75a20ee27fd9adebab32041f755214dbc6bffa90cc0225b39da2e5c2d3b5f80a28051156159925761312091615b95565b50503461599b57565b60405163b398979f60e01b8152600490fd5b604051634c9c8ce360e01b81526001600160a01b0383166004820152602490fd5b90917f7fffffffffffffffffffffffffffffff5d576e7357a4501ddfe92f46681b20a08411615a575790615a276020945f9493604051948594859094939260ff6060936080840197845216602083015260408201520152565b838052039060015afa15610562575f516001600160a01b03811615615a4d57905f905f90565b505f906001905f90565b5050505f9160039190565b60d15490680100000000000000008210156105ce57600182018060d155821015612ed65760d15f52805160209091015160a01b6001600160a01b0319166001600160a01b0391909116175f80516020615c7283398151915290910155565b91909180158015615b8d575b615b7b57615ad86152f0565b908101809111610c13576001600160a01b03808211615b5b576001600160601b0390818511615b3b57906116a69394615b25615b3693615b166116a8565b95166001600160a01b03168552565b166001600160601b03166020830152565b615a62565b6040516306dfcc6560e41b81526060600482015260248101869052604490fd5b6040516306dfcc6560e41b815260a0600482015260248101839052604490fd5b604051632ec8835b60e21b8152600490fd5b508215615acc565b5f8061069493602081519101845af4615bac612ee8565b915b90615bd55750805115615bc357805190602001fd5b604051630a12f52160e11b8152600490fd5b81511580615c08575b615be6575090565b604051639996b31560e01b81526001600160a01b039091166004820152602490fd5b50803b15615bde56fe290decd9548b62a8d60345a988386fc84ba6bc95484008f6362f93160ef3e563360894a13ba1a3210667c828492db98dca3e2076cc3735a920a3ca505d382bbcddf252ad1be2c89b69c2b068fc378daa952ba7f163c4a11628f55a4df523b3ef695fb3134ad82c3b8022bc5464edd0bcc9424ef672b52245dcb6ab2374327ce39b779b17422d0df92223018b32b4d1fa46e071723d6817e2486d003becc55f00a26469706673582212205e2a7bcdb163f7625bee491bdb92ae01286deff225a066cb7a56792c0826578364736f6c63430008160033",
  "linkReferences": {},
  "deployedLinkReferences": {}
}