{
  "_format": "hh-sol-artifact-1",
  "contractName": "GnoBlocklistVault",
  "sourceName": "contracts/vaults/gnosis/GnoBlocklistVault.sol",
  "abi": [
    {
      "inputs": [
        {
          "internalType": "address",
          "name": "_keeper",
          "type": "address"
        },
        {
          "internalType": "address",
          "name": "_vaultsRegistry",
          "type": "address"
        },
        {
          "internalType": "address",
          "name": "_validatorsRegistry",
          "type": "address"
        },
        {
          "internalType": "address",
          "name": "osTokenVaultController",
          "type": "address"
        },
        {
          "internalType": "address",
          "name": "osTokenConfig",
          "type": "address"
        },
        {
          "internalType": "address",
          "name": "sharedMevEscrow",
          "type": "address"
        },
        {
          "internalType": "address",
          "name": "depositDataRegistry",
          "type": "address"
        },
        {
          "internalType": "address",
          "name": "gnoToken",
          "type": "address"
        },
        {
          "internalType": "address",
          "name": "xdaiExchange",
          "type": "address"
        },
        {
          "internalType": "uint256",
          "name": "exitingAssetsClaimDelay",
          "type": "uint256"
        }
      ],
      "stateMutability": "nonpayable",
      "type": "constructor"
    },
    {
      "inputs": [],
      "name": "AccessDenied",
      "type": "error"
    },
    {
      "inputs": [
        {
          "internalType": "address",
          "name": "target",
          "type": "address"
        }
      ],
      "name": "AddressEmptyCode",
      "type": "error"
    },
    {
      "inputs": [
        {
          "internalType": "address",
          "name": "account",
          "type": "address"
        }
      ],
      "name": "AddressInsufficientBalance",
      "type": "error"
    },
    {
      "inputs": [],
      "name": "CapacityExceeded",
      "type": "error"
    },
    {
      "inputs": [
        {
          "internalType": "address",
          "name": "implementation",
          "type": "address"
        }
      ],
      "name": "ERC1967InvalidImplementation",
      "type": "error"
    },
    {
      "inputs": [],
      "name": "ERC1967NonPayable",
      "type": "error"
    },
    {
      "inputs": [],
      "name": "ExitRequestNotProcessed",
      "type": "error"
    },
    {
      "inputs": [],
      "name": "FailedInnerCall",
      "type": "error"
    },
    {
      "inputs": [],
      "name": "InsufficientAssets",
      "type": "error"
    },
    {
      "inputs": [],
      "name": "InvalidAssets",
      "type": "error"
    },
    {
      "inputs": [],
      "name": "InvalidCapacity",
      "type": "error"
    },
    {
      "inputs": [],
      "name": "InvalidCheckpointIndex",
      "type": "error"
    },
    {
      "inputs": [],
      "name": "InvalidCheckpointValue",
      "type": "error"
    },
    {
      "inputs": [],
      "name": "InvalidFeePercent",
      "type": "error"
    },
    {
      "inputs": [],
      "name": "InvalidFeeRecipient",
      "type": "error"
    },
    {
      "inputs": [],
      "name": "InvalidHealthFactor",
      "type": "error"
    },
    {
      "inputs": [],
      "name": "InvalidInitialization",
      "type": "error"
    },
    {
      "inputs": [],
      "name": "InvalidPosition",
      "type": "error"
    },
    {
      "inputs": [],
      "name": "InvalidReceivedAssets",
      "type": "error"
    },
    {
      "inputs": [],
      "name": "InvalidShares",
      "type": "error"
    },
    {
      "inputs": [],
      "name": "InvalidValidators",
      "type": "error"
    },
    {
      "inputs": [],
      "name": "LiquidationDisabled",
      "type": "error"
    },
    {
      "inputs": [],
      "name": "LowLtv",
      "type": "error"
    },
    {
      "inputs": [],
      "name": "MathOverflowedMulDiv",
      "type": "error"
    },
    {
      "inputs": [],
      "name": "NotCollateralized",
      "type": "error"
    },
    {
      "inputs": [],
      "name": "NotHarvested",
      "type": "error"
    },
    {
      "inputs": [],
      "name": "NotInitializing",
      "type": "error"
    },
    {
      "inputs": [],
      "name": "ReentrancyGuardReentrantCall",
      "type": "error"
    },
    {
      "inputs": [
        {
          "internalType": "uint8",
          "name": "bits",
          "type": "uint8"
        },
        {
          "internalType": "uint256",
          "name": "value",
          "type": "uint256"
        }
      ],
      "name": "SafeCastOverflowedUintDowncast",
      "type": "error"
    },
    {
      "inputs": [
        {
          "internalType": "uint256",
          "name": "value",
          "type": "uint256"
        }
      ],
      "name": "SafeCastOverflowedUintToInt",
      "type": "error"
    },
    {
      "inputs": [
        {
          "internalType": "address",
          "name": "token",
          "type": "address"
        }
      ],
      "name": "SafeERC20FailedOperation",
      "type": "error"
    },
    {
      "inputs": [],
      "name": "UUPSUnauthorizedCallContext",
      "type": "error"
    },
    {
      "inputs": [
        {
          "internalType": "bytes32",
          "name": "slot",
          "type": "bytes32"
        }
      ],
      "name": "UUPSUnsupportedProxiableUUID",
      "type": "error"
    },
    {
      "inputs": [],
      "name": "UpgradeFailed",
      "type": "error"
    },
    {
      "inputs": [],
      "name": "ZeroAddress",
      "type": "error"
    },
    {
      "anonymous": false,
      "inputs": [
        {
          "indexed": true,
          "internalType": "address",
          "name": "caller",
          "type": "address"
        },
        {
          "indexed": true,
          "internalType": "address",
          "name": "blocklistManager",
          "type": "address"
        }
      ],
      "name": "BlocklistManagerUpdated",
      "type": "event"
    },
    {
      "anonymous": false,
      "inputs": [
        {
          "indexed": true,
          "internalType": "address",
          "name": "caller",
          "type": "address"
        },
        {
          "indexed": true,
          "internalType": "address",
          "name": "account",
          "type": "address"
        },
        {
          "indexed": false,
          "internalType": "bool",
          "name": "isBlocked",
          "type": "bool"
        }
      ],
      "name": "BlocklistUpdated",
      "type": "event"
    },
    {
      "anonymous": false,
      "inputs": [
        {
          "indexed": false,
          "internalType": "uint256",
          "name": "shares",
          "type": "uint256"
        },
        {
          "indexed": false,
          "internalType": "uint256",
          "name": "assets",
          "type": "uint256"
        }
      ],
      "name": "CheckpointCreated",
      "type": "event"
    },
    {
      "anonymous": false,
      "inputs": [
        {
          "indexed": true,
          "internalType": "address",
          "name": "caller",
          "type": "address"
        },
        {
          "indexed": true,
          "internalType": "address",
          "name": "receiver",
          "type": "address"
        },
        {
          "indexed": false,
          "internalType": "uint256",
          "name": "assets",
          "type": "uint256"
        },
        {
          "indexed": false,
          "internalType": "uint256",
          "name": "shares",
          "type": "uint256"
        },
        {
          "indexed": false,
          "internalType": "address",
          "name": "referrer",
          "type": "address"
        }
      ],
      "name": "Deposited",
      "type": "event"
    },
    {
      "anonymous": false,
      "inputs": [
        {
          "indexed": true,
          "internalType": "address",
          "name": "owner",
          "type": "address"
        },
        {
          "indexed": true,
          "internalType": "address",
          "name": "receiver",
          "type": "address"
        },
        {
          "indexed": false,
          "internalType": "uint256",
          "name": "positionTicket",
          "type": "uint256"
        },
        {
          "indexed": false,
          "internalType": "uint256",
          "name": "shares",
          "type": "uint256"
        }
      ],
      "name": "ExitQueueEntered",
      "type": "event"
    },
    {
      "anonymous": false,
      "inputs": [
        {
          "indexed": true,
          "internalType": "address",
          "name": "receiver",
          "type": "address"
        },
        {
          "indexed": false,
          "internalType": "uint256",
          "name": "prevPositionTicket",
          "type": "uint256"
        },
        {
          "indexed": false,
          "internalType": "uint256",
          "name": "newPositionTicket",
          "type": "uint256"
        },
        {
          "indexed": false,
          "internalType": "uint256",
          "name": "withdrawnAssets",
          "type": "uint256"
        }
      ],
      "name": "ExitedAssetsClaimed",
      "type": "event"
    },
    {
      "anonymous": false,
      "inputs": [
        {
          "indexed": false,
          "internalType": "uint256",
          "name": "penalty",
          "type": "uint256"
        }
      ],
      "name": "ExitingAssetsPenalized",
      "type": "event"
    },
    {
      "anonymous": false,
      "inputs": [
        {
          "indexed": true,
          "internalType": "address",
          "name": "caller",
          "type": "address"
        },
        {
          "indexed": true,
          "internalType": "address",
          "name": "feeRecipient",
          "type": "address"
        }
      ],
      "name": "FeeRecipientUpdated",
      "type": "event"
    },
    {
      "anonymous": false,
      "inputs": [
        {
          "indexed": false,
          "internalType": "address",
          "name": "receiver",
          "type": "address"
        },
        {
          "indexed": false,
          "internalType": "uint256",
          "name": "shares",
          "type": "uint256"
        },
        {
          "indexed": false,
          "internalType": "uint256",
          "name": "assets",
          "type": "uint256"
        }
      ],
      "name": "FeeSharesMinted",
      "type": "event"
    },
    {
      "anonymous": false,
      "inputs": [
        {
          "indexed": false,
          "internalType": "uint64",
          "name": "version",
          "type": "uint64"
        }
      ],
      "name": "Initialized",
      "type": "event"
    },
    {
      "anonymous": false,
      "inputs": [
        {
          "indexed": true,
          "internalType": "address",
          "name": "caller",
          "type": "address"
        },
        {
          "indexed": true,
          "internalType": "address",
          "name": "keysManager",
          "type": "address"
        }
      ],
      "name": "KeysManagerUpdated",
      "type": "event"
    },
    {
      "anonymous": false,
      "inputs": [
        {
          "indexed": true,
          "internalType": "address",
          "name": "caller",
          "type": "address"
        },
        {
          "indexed": false,
          "internalType": "string",
          "name": "metadataIpfsHash",
          "type": "string"
        }
      ],
      "name": "MetadataUpdated",
      "type": "event"
    },
    {
      "anonymous": false,
      "inputs": [
        {
          "indexed": true,
          "internalType": "address",
          "name": "caller",
          "type": "address"
        },
        {
          "indexed": false,
          "internalType": "uint256",
          "name": "assets",
          "type": "uint256"
        },
        {
          "indexed": false,
          "internalType": "uint256",
          "name": "shares",
          "type": "uint256"
        }
      ],
      "name": "OsTokenBurned",
      "type": "event"
    },
    {
      "anonymous": false,
      "inputs": [
        {
          "indexed": true,
          "internalType": "address",
          "name": "caller",
          "type": "address"
        },
        {
          "indexed": true,
          "internalType": "address",
          "name": "user",
          "type": "address"
        },
        {
          "indexed": false,
          "internalType": "address",
          "name": "receiver",
          "type": "address"
        },
        {
          "indexed": false,
          "internalType": "uint256",
          "name": "osTokenShares",
          "type": "uint256"
        },
        {
          "indexed": false,
          "internalType": "uint256",
          "name": "shares",
          "type": "uint256"
        },
        {
          "indexed": false,
          "internalType": "uint256",
          "name": "receivedAssets",
          "type": "uint256"
        }
      ],
      "name": "OsTokenLiquidated",
      "type": "event"
    },
    {
      "anonymous": false,
      "inputs": [
        {
          "indexed": true,
          "internalType": "address",
          "name": "caller",
          "type": "address"
        },
        {
          "indexed": false,
          "internalType": "address",
          "name": "receiver",
          "type": "address"
        },
        {
          "indexed": false,
          "internalType": "uint256",
          "name": "assets",
          "type": "uint256"
        },
        {
          "indexed": false,
          "internalType": "uint256",
          "name": "shares",
          "type": "uint256"
        },
        {
          "indexed": false,
          "internalType": "address",
          "name": "referrer",
          "type": "address"
        }
      ],
      "name": "OsTokenMinted",
      "type": "event"
    },
    {
      "anonymous": false,
      "inputs": [
        {
          "indexed": true,
          "internalType": "address",
          "name": "caller",
          "type": "address"
        },
        {
          "indexed": true,
          "internalType": "address",
          "name": "user",
          "type": "address"
        },
        {
          "indexed": false,
          "internalType": "address",
          "name": "receiver",
          "type": "address"
        },
        {
          "indexed": false,
          "internalType": "uint256",
          "name": "osTokenShares",
          "type": "uint256"
        },
        {
          "indexed": false,
          "internalType": "uint256",
          "name": "shares",
          "type": "uint256"
        },
        {
          "indexed": false,
          "internalType": "uint256",
          "name": "assets",
          "type": "uint256"
        }
      ],
      "name": "OsTokenRedeemed",
      "type": "event"
    },
    {
      "anonymous": false,
      "inputs": [
        {
          "indexed": true,
          "internalType": "address",
          "name": "owner",
          "type": "address"
        },
        {
          "indexed": true,
          "internalType": "address",
          "name": "receiver",
          "type": "address"
        },
        {
          "indexed": false,
          "internalType": "uint256",
          "name": "assets",
          "type": "uint256"
        },
        {
          "indexed": false,
          "internalType": "uint256",
          "name": "shares",
          "type": "uint256"
        }
      ],
      "name": "Redeemed",
      "type": "event"
    },
    {
      "anonymous": false,
      "inputs": [
        {
          "indexed": true,
          "internalType": "address",
          "name": "implementation",
          "type": "address"
        }
      ],
      "name": "Upgraded",
      "type": "event"
    },
    {
      "anonymous": false,
      "inputs": [
        {
          "indexed": true,
          "internalType": "address",
          "name": "owner",
          "type": "address"
        },
        {
          "indexed": true,
          "internalType": "address",
          "name": "receiver",
          "type": "address"
        },
        {
          "indexed": false,
          "internalType": "uint256",
          "name": "positionTicket",
          "type": "uint256"
        },
        {
          "indexed": false,
          "internalType": "uint256",
          "name": "shares",
          "type": "uint256"
        },
        {
          "indexed": false,
          "internalType": "uint256",
          "name": "assets",
          "type": "uint256"
        }
      ],
      "name": "V2ExitQueueEntered",
      "type": "event"
    },
    {
      "anonymous": false,
      "inputs": [
        {
          "indexed": false,
          "internalType": "bytes",
          "name": "publicKey",
          "type": "bytes"
        }
      ],
      "name": "ValidatorRegistered",
      "type": "event"
    },
    {
      "anonymous": false,
      "inputs": [
        {
          "indexed": true,
          "internalType": "address",
          "name": "caller",
          "type": "address"
        },
        {
          "indexed": true,
          "internalType": "address",
          "name": "validatorsManager",
          "type": "address"
        }
      ],
      "name": "ValidatorsManagerUpdated",
      "type": "event"
    },
    {
      "anonymous": false,
      "inputs": [
        {
          "indexed": true,
          "internalType": "address",
          "name": "caller",
          "type": "address"
        },
        {
          "indexed": true,
          "internalType": "bytes32",
          "name": "validatorsRoot",
          "type": "bytes32"
        }
      ],
      "name": "ValidatorsRootUpdated",
      "type": "event"
    },
    {
      "anonymous": false,
      "inputs": [
        {
          "indexed": false,
          "internalType": "uint256",
          "name": "amount",
          "type": "uint256"
        },
        {
          "indexed": false,
          "internalType": "uint256",
          "name": "assets",
          "type": "uint256"
        }
      ],
      "name": "XdaiSwapped",
      "type": "event"
    },
    {
      "inputs": [],
      "name": "UPGRADE_INTERFACE_VERSION",
      "outputs": [
        {
          "internalType": "string",
          "name": "",
          "type": "string"
        }
      ],
      "stateMutability": "view",
      "type": "function"
    },
    {
      "inputs": [],
      "name": "admin",
      "outputs": [
        {
          "internalType": "address",
          "name": "",
          "type": "address"
        }
      ],
      "stateMutability": "view",
      "type": "function"
    },
    {
      "inputs": [
        {
          "internalType": "address",
          "name": "",
          "type": "address"
        }
      ],
      "name": "blockedAccounts",
      "outputs": [
        {
          "internalType": "bool",
          "name": "",
          "type": "bool"
        }
      ],
      "stateMutability": "view",
      "type": "function"
    },
    {
      "inputs": [],
      "name": "blocklistManager",
      "outputs": [
        {
          "internalType": "address",
          "name": "",
          "type": "address"
        }
      ],
      "stateMutability": "view",
      "type": "function"
    },
    {
      "inputs": [
        {
          "internalType": "uint128",
          "name": "osTokenShares",
          "type": "uint128"
        }
      ],
      "name": "burnOsToken",
      "outputs": [
        {
          "internalType": "uint256",
          "name": "assets",
          "type": "uint256"
        }
      ],
      "stateMutability": "nonpayable",
      "type": "function"
    },
    {
      "inputs": [
        {
          "internalType": "address",
          "name": "receiver",
          "type": "address"
        },
        {
          "internalType": "uint256",
          "name": "positionTicket",
          "type": "uint256"
        },
        {
          "internalType": "uint256",
          "name": "timestamp",
          "type": "uint256"
        },
        {
          "internalType": "uint256",
          "name": "exitQueueIndex",
          "type": "uint256"
        }
      ],
      "name": "calculateExitedAssets",
      "outputs": [
        {
          "internalType": "uint256",
          "name": "leftTickets",
          "type": "uint256"
        },
        {
          "internalType": "uint256",
          "name": "exitedTickets",
          "type": "uint256"
        },
        {
          "internalType": "uint256",
          "name": "exitedAssets",
          "type": "uint256"
        }
      ],
      "stateMutability": "view",
      "type": "function"
    },
    {
      "inputs": [],
      "name": "capacity",
      "outputs": [
        {
          "internalType": "uint256",
          "name": "",
          "type": "uint256"
        }
      ],
      "stateMutability": "view",
      "type": "function"
    },
    {
      "inputs": [
        {
          "internalType": "uint256",
          "name": "positionTicket",
          "type": "uint256"
        },
        {
          "internalType": "uint256",
          "name": "timestamp",
          "type": "uint256"
        },
        {
          "internalType": "uint256",
          "name": "exitQueueIndex",
          "type": "uint256"
        }
      ],
      "name": "claimExitedAssets",
      "outputs": [],
      "stateMutability": "nonpayable",
      "type": "function"
    },
    {
      "inputs": [
        {
          "internalType": "uint256",
          "name": "shares",
          "type": "uint256"
        }
      ],
      "name": "convertToAssets",
      "outputs": [
        {
          "internalType": "uint256",
          "name": "assets",
          "type": "uint256"
        }
      ],
      "stateMutability": "view",
      "type": "function"
    },
    {
      "inputs": [
        {
          "internalType": "uint256",
          "name": "assets",
          "type": "uint256"
        }
      ],
      "name": "convertToShares",
      "outputs": [
        {
          "internalType": "uint256",
          "name": "shares",
          "type": "uint256"
        }
      ],
      "stateMutability": "view",
      "type": "function"
    },
    {
      "inputs": [
        {
          "internalType": "uint256",
          "name": "assets",
          "type": "uint256"
        },
        {
          "internalType": "address",
          "name": "receiver",
          "type": "address"
        },
        {
          "internalType": "address",
          "name": "referrer",
          "type": "address"
        }
      ],
      "name": "deposit",
      "outputs": [
        {
          "internalType": "uint256",
          "name": "shares",
          "type": "uint256"
        }
      ],
      "stateMutability": "nonpayable",
      "type": "function"
    },
    {
      "inputs": [
        {
          "internalType": "uint256",
          "name": "shares",
          "type": "uint256"
        },
        {
          "internalType": "address",
          "name": "receiver",
          "type": "address"
        }
      ],
      "name": "enterExitQueue",
      "outputs": [
        {
          "internalType": "uint256",
          "name": "positionTicket",
          "type": "uint256"
        }
      ],
      "stateMutability": "nonpayable",
      "type": "function"
    },
    {
      "inputs": [],
      "name": "feePercent",
      "outputs": [
        {
          "internalType": "uint16",
          "name": "",
          "type": "uint16"
        }
      ],
      "stateMutability": "view",
      "type": "function"
    },
    {
      "inputs": [],
      "name": "feeRecipient",
      "outputs": [
        {
          "internalType": "address",
          "name": "",
          "type": "address"
        }
      ],
      "stateMutability": "view",
      "type": "function"
    },
    {
      "inputs": [
        {
          "internalType": "uint256",
          "name": "positionTicket",
          "type": "uint256"
        }
      ],
      "name": "getExitQueueIndex",
      "outputs": [
        {
          "internalType": "int256",
          "name": "",
          "type": "int256"
        }
      ],
      "stateMutability": "view",
      "type": "function"
    },
    {
      "inputs": [
        {
          "internalType": "address",
          "name": "account",
          "type": "address"
        }
      ],
      "name": "getShares",
      "outputs": [
        {
          "internalType": "uint256",
          "name": "",
          "type": "uint256"
        }
      ],
      "stateMutability": "view",
      "type": "function"
    },
    {
      "inputs": [],
      "name": "implementation",
      "outputs": [
        {
          "internalType": "address",
          "name": "",
          "type": "address"
        }
      ],
      "stateMutability": "view",
      "type": "function"
    },
    {
      "inputs": [
        {
          "internalType": "bytes",
          "name": "params",
          "type": "bytes"
        }
      ],
      "name": "initialize",
      "outputs": [],
      "stateMutability": "nonpayable",
      "type": "function"
    },
    {
      "inputs": [],
      "name": "isStateUpdateRequired",
      "outputs": [
        {
          "internalType": "bool",
          "name": "",
          "type": "bool"
        }
      ],
      "stateMutability": "view",
      "type": "function"
    },
    {
      "inputs": [
        {
          "internalType": "uint256",
          "name": "osTokenShares",
          "type": "uint256"
        },
        {
          "internalType": "address",
          "name": "owner",
          "type": "address"
        },
        {
          "internalType": "address",
          "name": "receiver",
          "type": "address"
        }
      ],
      "name": "liquidateOsToken",
      "outputs": [],
      "stateMutability": "nonpayable",
      "type": "function"
    },
    {
      "inputs": [],
      "name": "mevEscrow",
      "outputs": [
        {
          "internalType": "address",
          "name": "",
          "type": "address"
        }
      ],
      "stateMutability": "view",
      "type": "function"
    },
    {
      "inputs": [
        {
          "internalType": "address",
          "name": "receiver",
          "type": "address"
        },
        {
          "internalType": "uint256",
          "name": "osTokenShares",
          "type": "uint256"
        },
        {
          "internalType": "address",
          "name": "referrer",
          "type": "address"
        }
      ],
      "name": "mintOsToken",
      "outputs": [
        {
          "internalType": "uint256",
          "name": "assets",
          "type": "uint256"
        }
      ],
      "stateMutability": "nonpayable",
      "type": "function"
    },
    {
      "inputs": [
        {
          "internalType": "bytes[]",
          "name": "data",
          "type": "bytes[]"
        }
      ],
      "name": "multicall",
      "outputs": [
        {
          "internalType": "bytes[]",
          "name": "results",
          "type": "bytes[]"
        }
      ],
      "stateMutability": "nonpayable",
      "type": "function"
    },
    {
      "inputs": [
        {
          "internalType": "address",
          "name": "user",
          "type": "address"
        }
      ],
      "name": "osTokenPositions",
      "outputs": [
        {
          "internalType": "uint128",
          "name": "shares",
          "type": "uint128"
        }
      ],
      "stateMutability": "view",
      "type": "function"
    },
    {
      "inputs": [],
      "name": "proxiableUUID",
      "outputs": [
        {
          "internalType": "bytes32",
          "name": "",
          "type": "bytes32"
        }
      ],
      "stateMutability": "view",
      "type": "function"
    },
    {
      "inputs": [],
      "name": "queuedShares",
      "outputs": [
        {
          "internalType": "uint128",
          "name": "",
          "type": "uint128"
        }
      ],
      "stateMutability": "view",
      "type": "function"
    },
    {
      "inputs": [
        {
          "internalType": "uint256",
          "name": "osTokenShares",
          "type": "uint256"
        },
        {
          "internalType": "address",
          "name": "owner",
          "type": "address"
        },
        {
          "internalType": "address",
          "name": "receiver",
          "type": "address"
        }
      ],
      "name": "redeemOsToken",
      "outputs": [],
      "stateMutability": "nonpayable",
      "type": "function"
    },
    {
      "inputs": [
        {
          "components": [
            {
              "internalType": "bytes32",
              "name": "validatorsRegistryRoot",
              "type": "bytes32"
            },
            {
              "internalType": "uint256",
              "name": "deadline",
              "type": "uint256"
            },
            {
              "internalType": "bytes",
              "name": "validators",
              "type": "bytes"
            },
            {
              "internalType": "bytes",
              "name": "signatures",
              "type": "bytes"
            },
            {
              "internalType": "string",
              "name": "exitSignaturesIpfsHash",
              "type": "string"
            }
          ],
          "internalType": "struct IKeeperValidators.ApprovalParams",
          "name": "keeperParams",
          "type": "tuple"
        },
        {
          "internalType": "bytes",
          "name": "validatorsManagerSignature",
          "type": "bytes"
        }
      ],
      "name": "registerValidators",
      "outputs": [],
      "stateMutability": "nonpayable",
      "type": "function"
    },
    {
      "inputs": [
        {
          "internalType": "address",
          "name": "_blocklistManager",
          "type": "address"
        }
      ],
      "name": "setBlocklistManager",
      "outputs": [],
      "stateMutability": "nonpayable",
      "type": "function"
    },
    {
      "inputs": [
        {
          "internalType": "address",
          "name": "_feeRecipient",
          "type": "address"
        }
      ],
      "name": "setFeeRecipient",
      "outputs": [],
      "stateMutability": "nonpayable",
      "type": "function"
    },
    {
      "inputs": [
        {
          "internalType": "string",
          "name": "metadataIpfsHash",
          "type": "string"
        }
      ],
      "name": "setMetadata",
      "outputs": [],
      "stateMutability": "nonpayable",
      "type": "function"
    },
    {
      "inputs": [
        {
          "internalType": "address",
          "name": "validatorsManager_",
          "type": "address"
        }
      ],
      "name": "setValidatorsManager",
      "outputs": [],
      "stateMutability": "nonpayable",
      "type": "function"
    },
    {
      "inputs": [],
      "name": "swapXdaiToGno",
      "outputs": [],
      "stateMutability": "nonpayable",
      "type": "function"
    },
    {
      "inputs": [],
      "name": "totalAssets",
      "outputs": [
        {
          "internalType": "uint256",
          "name": "",
          "type": "uint256"
        }
      ],
      "stateMutability": "view",
      "type": "function"
    },
    {
      "inputs": [],
      "name": "totalExitingAssets",
      "outputs": [
        {
          "internalType": "uint128",
          "name": "",
          "type": "uint128"
        }
      ],
      "stateMutability": "view",
      "type": "function"
    },
    {
      "inputs": [],
      "name": "totalShares",
      "outputs": [
        {
          "internalType": "uint256",
          "name": "",
          "type": "uint256"
        }
      ],
      "stateMutability": "view",
      "type": "function"
    },
    {
      "inputs": [
        {
          "internalType": "address",
          "name": "account",
          "type": "address"
        },
        {
          "internalType": "bool",
          "name": "isBlocked",
          "type": "bool"
        }
      ],
      "name": "updateBlocklist",
      "outputs": [],
      "stateMutability": "nonpayable",
      "type": "function"
    },
    {
      "inputs": [
        {
          "components": [
            {
              "internalType": "bytes32",
              "name": "rewardsRoot",
              "type": "bytes32"
            },
            {
              "internalType": "int160",
              "name": "reward",
              "type": "int160"
            },
            {
              "internalType": "uint160",
              "name": "unlockedMevReward",
              "type": "uint160"
            },
            {
              "internalType": "bytes32[]",
              "name": "proof",
              "type": "bytes32[]"
            }
          ],
          "internalType": "struct IKeeperRewards.HarvestParams",
          "name": "harvestParams",
          "type": "tuple"
        }
      ],
      "name": "updateState",
      "outputs": [],
      "stateMutability": "nonpayable",
      "type": "function"
    },
    {
      "inputs": [
        {
          "internalType": "address",
          "name": "newImplementation",
          "type": "address"
        },
        {
          "internalType": "bytes",
          "name": "data",
          "type": "bytes"
        }
      ],
      "name": "upgradeToAndCall",
      "outputs": [],
      "stateMutability": "payable",
      "type": "function"
    },
    {
      "inputs": [],
      "name": "validatorsManager",
      "outputs": [
        {
          "internalType": "address",
          "name": "",
          "type": "address"
        }
      ],
      "stateMutability": "view",
      "type": "function"
    },
    {
      "inputs": [],
      "name": "vaultId",
      "outputs": [
        {
          "internalType": "bytes32",
          "name": "",
          "type": "bytes32"
        }
      ],
      "stateMutability": "pure",
      "type": "function"
    },
    {
      "inputs": [],
      "name": "version",
      "outputs": [
        {
          "internalType": "uint8",
          "name": "",
          "type": "uint8"
        }
      ],
      "stateMutability": "pure",
      "type": "function"
    },
    {
      "inputs": [],
      "name": "withdrawableAssets",
      "outputs": [
        {
          "internalType": "uint256",
          "name": "",
          "type": "uint256"
        }
      ],
      "stateMutability": "view",
      "type": "function"
    },
    {
      "stateMutability": "payable",
      "type": "receive"
    }
  ],
  "bytecode": "0x61020034620002af5762005316601f38829003908101601f19168301906001600160401b039081831185841017620002b3578085946040948552853961014094859181010312620002af576200005583620002c7565b906200006460208501620002c7565b9262000072818601620002c7565b956200008160608701620002c7565b906200009060808801620002c7565b926200009f60a08901620002c7565b94620000ae60c08a01620002c7565b96620000bd60e08b01620002c7565b976101009b620000cf8d8d01620002c7565b9a610120809d01519360805260a05260c0523060e0528b52468a52835260018060a01b03806101609516855280610180961686526101a09687526101c0971687526101e09788527ff0c57e16840df040f15088dc2f81fe391c3923bec73e23a9662efc9c229c6a009081549060ff82851c166200029e57808083160362000259575b50505051966150399889620002dd8a3960805189818161170e015281816118a601528181612e4f01528181613b1d0152614681015260a05189611485015260c05189818161368901528181613eba015281816140d60152614c86015260e05189818161160501526137fe015251886129e101525187613b9301525186611a4c01525185818161035d015281816105d70152818161082301528181612ab00152818161331701526147910152518481816108e2015281816110e8015281816133d601526147150152518381816123290152612e97015251828181610d0e0152818161363801528181613f2401528181614120015281816142640152614a0a015251816129030152f35b6001600160401b0319909116811790915581519081527fc7f505b2f371ae2175ee4913f4499e1f2633a7b5936321eed1cdaeb6115181d290602090a15f808062000151565b835163f92ee8a960e01b8152600490fd5b5f80fd5b634e487b7160e01b5f52604160045260245ffd5b51906001600160a01b0382168203620002af5756fe6080604052600436101561001a575b3615610018575f80fd5b005b5f3560e01c806301e1d114146102c9578063066055e0146102c457806307a2d13a146102bf57806314c4184b146102ba5780631a7ff553146102b5578063201b9eb5146102b05780632999ad3f146102ab5780632cdf7401146102a65780632e2d2984146102a15780633229fa951461029c57806333194c0a146102975780633a98ef3914610292578063439fab911461028d57806343e82a791461028857806346904840146102835780634ec96b221461027e5780634f1ef2861461027957806352d1902d1461027457806354fd4d501461026f5780635c60da1b1461026a5780635cfc1a511461026557806360d60e6e1461026057806372b410a81461025b578063754c38881461025657806376b58b90146102515780637fd6f15c1461024c57806383d430d5146102475780638697d2c2146102425780638ceab9aa1461023d578063a49a1e7d14610238578063ac9650d814610233578063ad3cb1cc1461022e578063b0d1130214610229578063b1f0e7c714610224578063b45a1eb51461021f578063c6e6f5921461021a578063d0a64ddc14610215578063d83ad00c14610210578063e74b981b1461020b578063ee3bd5df14610206578063f04da65b14610201578063f45bf3d2146101fc5763f851a4400361000e576121e3565b6121a2565b612167565b612141565b612114565b6120ee565b6120c1565b6120a3565b612071565b61204d565b61201a565b611fd5565b611f5f565b611e64565b611c7b565b611a20565b611850565b61182c565b6117db565b611770565b6116e3565b6116c5565b6116ab565b611677565b61165c565b6115f3565b61136d565b6111de565b6111b6565b6110b9565b610f16565b610e95565b610e5b565b610e2f565b610caf565b610c95565b6107f9565b610565565b610500565b6104d7565b6104b1565b61030d565b6102dc565b5f9103126102d857565b5f80fd5b346102d8575f3660031901126102d857602060985460801c604051908152f35b6001600160801b038116036102d857565b346102d85760203660031901126102d85760043561032a816102fc565b604051633b9e9f0160e21b81523360048201526001600160801b03821660248201526020816044815f6001600160a01b037f0000000000000000000000000000000000000000000000000000000000000000165af19081156104ac575f9161047d575b50335f908152610137602052604090206103a690612224565b916001600160801b036103c084516001600160801b031690565b161561046b57610414836103d661046795612a9b565b6104006103f3846103ee84516001600160801b031690565b61225d565b6001600160801b03168252565b335f9081526101376020526040902061227b565b604080518381526001600160801b03909216602083015233917f3f7354ba02880b4fa37a629985852a38417ff369369ce1e52fa6f8342a9100a791819081015b0390a26040519081529081906020820190565b0390f35b60405163673f032f60e11b8152600490fd5b61049f915060203d6020116104a5575b61049781836112ec565b81019061220a565b5f61038d565b503d61048d565b612219565b346102d85760203660031901126102d85760206104cf6004356122ad565b604051908152f35b346102d8575f3660031901126102d857610201546040516001600160a01b039091168152602090f35b346102d8576003196020368201126102d857600435906001600160401b0382116102d85760809082360301126102d85761053f61054691600401612e1e565b9190612fb4565b61054c57005b610018613139565b6001600160a01b038116036102d857565b346102d85760603660031901126102d85760043561058281610554565b602435906044359061059382610554565b61059c33613269565b6105a4614666565b6105ac613b02565b6040516329460cc560e11b81526001600160a01b0382811660048301526024820185905290926020917f00000000000000000000000000000000000000000000000000000000000000001682856044815f855af19485156104ac575f956107ae575b50335f9081526101376020526040902061062790612224565b926001600160801b0361064185516001600160801b031690565b161561074a57505061065282612a9b565b61067e61067161066187614213565b84516001600160801b031661328a565b6001600160801b03168352565b335f908152609c602052604090206106a09061069b905b546122ad565b6146f2565b6106c06106b484516001600160801b031690565b6001600160801b031690565b1161073857335f90815261013760205260409020610467957fa16d97739893e1436c9753925fb5cef174c4f368699dc86cc8fdb0e6e60f8e58939091610706919061227b565b604080516001600160a01b03958616815260208101879052908101919091529216606083015233918060808101610454565b604051633684c65960e01b8152600490fd5b806004926040519384809263752a536d60e01b82525afa9182156104ac5761078c9261077d915f91610791575b50614213565b6001600160801b031690840152565b610652565b6107a89150833d85116104a55761049781836112ec565b5f610777565b6107c6919550833d85116104a55761049781836112ec565b935f61060e565b60609060031901126102d857600435906024356107e981610554565b906044356107f681610554565b90565b346102d857610807366107cd565b906001600160a01b0380831615610c8357610820613b02565b807f00000000000000000000000000000000000000000000000000000000000000001691823b156102d85760408051631d8557d760e01b815260049491905f81878183875af180156104ac57610c6a575b506001600160a01b0383165f9081526101376020526040902061089390612224565b6001600160801b0392836108ae83516001600160801b031690565b1615610c5a576108bd82612a9b565b825163e48a5f7b60e01b8152308882019081529097906060908990819060200103818a7f0000000000000000000000000000000000000000000000000000000000000000165afa9788156104ac575f98610c29575b50602097888101956001600160401b039182806109368a516001600160401b031690565b1614610c1957908c92918751918c83806109626303d1689d60e11b988983528a83019190602083019252565b03818a5afa9182156104ac5761098e938e5f94610bf4575b5050516001600160801b03165b1690612bca565b966109ac6106958a60018060a01b03165f52609c60205260405f2090565b928389118015610be4575b610bd457908b6109f593926109d389516001600160801b031690565b908a51958692839283528983019190916001600160801b036020820193169052565b0381895afa9182156104ac57670de0b6b3a764000094610a44948e5f95610ba7575b5050610a36610a28610a3c926126d8565b93516001600160401b031690565b936126d8565b921690612cc3565b1015610b99578351633b9e9f0160e21b815233918101918252602082018b905294939291889186919082905f90829060400103925af19081156104ac577f61fd285f9e34a3dbfa9846bdcf22a023e37a3c93549902843b30dd74a18c535097610b7695610aee93610b7b575b5050610ad16103f3610ac18c614213565b83516001600160801b031661225d565b6001600160a01b0386165f9081526101376020526040902061227b565b610af78261435f565b90610b35610b1a610b0785614213565b60985460801c036001600160801b031690565b6001600160801b036098549181199060801b16911617609855565b610b3f82866147fc565b610b498389614246565b51948594169733978590949392606092608083019660018060a01b03168352602083015260408201520152565b0390a3005b81610b9192903d106104a55761049781836112ec565b505f80610ab0565b835163185cfc6d60e11b8152fd5b610a3c929550610bca610a369282610a2893903d106104a55761049781836112ec565b959250508e610a17565b875163efda1a2760e01b81528590fd5b50610bed6122d3565b89116109b7565b6109879294509081610c1192903d106104a55761049781836112ec565b92908e61097a565b8651630709133160e01b81528490fd5b610c4c91985060603d606011610c53575b610c4481836112ec565b8101906132b9565b965f610912565b503d610c3a565b825163673f032f60e11b81528790fd5b80610c77610c7d92611288565b806102ce565b5f610871565b60405163d92e233d60e01b8152600490fd5b346102d8575f3660031901126102d85760206104cf6122d3565b346102d857610cbd366107cd565b91610cc733613269565b610cd082613269565b610cd8614330565b604092610d3284516323b872dd60e01b602082015233602482015230604482015283606482015260648152610d0c816112b6565b7f0000000000000000000000000000000000000000000000000000000000000000614d92565b610d3a613b02565b6001600160a01b038316928315610e1e578215610e0d5782610d616106b460985460801c90565b0190610d6b6123df565b8211610dfc57610de2610b1a9593610dbc86947f861a4138e41fb21c121a7dbb1053df465c837fc77380cc7226189a662281be2c94610db7610daf60209c9a6143e5565b9a8b93614213565b6144d5565b8551938452602084018790526001600160a01b0316604084015233929081906060820190565b0390a360015f80516020614fe48339815191525551908152f35b85516304ffa0ff60e51b8152600490fd5b84516318374fd160e21b8152600490fd5b845163d92e233d60e01b8152600490fd5b346102d8575f3660031901126102d8576020610e49612310565b6040516001600160a01b039091168152f35b346102d8575f3660031901126102d85760206040517f6c3152ed991a2a6ec7359c31f742e79dd206dc9d7378f631119a96bee15f8b868152f35b346102d8575f3660031901126102d85760206001600160801b0360985416604051908152f35b9181601f840112156102d8578235916001600160401b0383116102d857602083818601950101116102d857565b60206003198201126102d857600435906001600160401b0382116102d857610f1291600401610ebb565b9091565b346102d857610f2436610ee8565b7ff0c57e16840df040f15088dc2f81fe391c3923bec73e23a9662efc9c229c6a00805460ff8160401c1680156110a5575b6110935768ffffffffffffffffff19166801000000000000000217905560405163e7f6f22560e01b8152906020908183600481335afa9283156104ac575f93611074575b50604051636f4fa30f60e01b8152938285600481335afa9081156104ac57610fe195610fdc945f93611041575b5050610fd59192810190612360565b9083613700565b6137e8565b7ff0c57e16840df040f15088dc2f81fe391c3923bec73e23a9662efc9c229c6a00805468ff000000000000000019169055604051600281527fc7f505b2f371ae2175ee4913f4499e1f2633a7b5936321eed1cdaeb6115181d290602090a1005b610fd59350908161106692903d1061106d575b61105e81836112ec565b81019061234b565b915f610fc6565b503d611054565b61108c919350823d841161106d5761105e81836112ec565b915f610f99565b60405163f92ee8a960e01b8152600490fd5b5060026001600160401b0382161015610f55565b346102d8576110c7366107cd565b60405163057453a760e31b81529091906001600160a01b03906020816004817f000000000000000000000000000000000000000000000000000000000000000086165afa80156104ac5782915f91611197575b501633036111855781610b7661115286867f57f5eb636bf62215c111b54545422f11dfb0cb115f606be905f0be08e8859dd3966132f9565b604080516001600160a01b0390981688526020880198909852968601526060850195909552169233929081906080820190565b604051634ca8886760e01b8152600490fd5b6111b0915060203d60201161106d5761105e81836112ec565b5f61111a565b346102d8575f3660031901126102d8576065546040516001600160a01b039091168152602090f35b346102d85760203660031901126102d8576004356111fb81610554565b60018060a01b03165f52610137602052602060405f206040519061121e82611268565b54906001600160801b03918281169081835260801c84830152611246575b5116604051908152f35b61124f81612a9b565b61123c565b634e487b7160e01b5f52604160045260245ffd5b604081019081106001600160401b0382111761128357604052565b611254565b6001600160401b03811161128357604052565b606081019081106001600160401b0382111761128357604052565b60a081019081106001600160401b0382111761128357604052565b608081019081106001600160401b0382111761128357604052565b90601f801991011681019081106001600160401b0382111761128357604052565b6040519061131a82611268565b565b6001600160401b03811161128357601f01601f191660200190565b9291926113438261131c565b9161135160405193846112ec565b8294818452818301116102d8578281602093845f960137010152565b6040806003193601126102d857600490813561138881610554565b6024356001600160401b0381116102d857366023820112156102d8576113b79036906024818701359101611337565b916113c06137f4565b8051926113f7846113e960209363439fab9160e01b858401528460248401526044830190611ed7565b03601f1981018652856112ec565b6113ff6137f4565b6114076138d4565b6001600160a01b038381168015929190879084156115be575b8415611550575b84156114ec575b50508215611456575b5050611447576100188383614a59565b516355299b4960e01b81528390fd5b83516345da87c560e01b81526001600160a01b03861688820190815292935091839183918290819060200103917f0000000000000000000000000000000000000000000000000000000000000000165afa9182156104ac575f926114bf575b5050155f80611437565b6114de9250803d106114e5575b6114d681836112ec565b8101906124c7565b5f806114b5565b503d6114cc565b855163054fd4d560e41b81529294508391839182905afa9081156104ac5760039160ff915f91611523575b5016141591865f61142e565b6115439150843d8611611549575b61153b81836112ec565b810190614a40565b5f611517565b503d611531565b935050835163198ca60560e11b815282818981875afa9081156104ac5788917f6c3152ed991a2a6ec7359c31f742e79dd206dc9d7378f631119a96bee15f8b86915f916115a1575b50141593611427565b6115b89150853d87116104a55761049781836112ec565b5f611598565b5f80516020614fc48339815191525490945084906115ec906001600160a01b03165b6001600160a01b031690565b1493611420565b346102d8575f3660031901126102d8577f00000000000000000000000000000000000000000000000000000000000000006001600160a01b0316300361164a5760206040515f80516020614fc48339815191528152f35b60405163703e46dd60e11b8152600490fd5b346102d8575f3660031901126102d857602060405160028152f35b346102d8575f3660031901126102d8575f80516020614fc4833981519152546040516001600160a01b039091168152602090f35b346102d8575f3660031901126102d85760206104cf6123df565b346102d85760203660031901126102d85760206104cf600435612408565b346102d8575f3660031901126102d857604051633eb1acf760e11b81523060048201526020816024817f00000000000000000000000000000000000000000000000000000000000000006001600160a01b03165afa80156104ac576020915f91611753575b506040519015158152f35b61176a9150823d84116114e5576114d681836112ec565b5f611748565b346102d85760203660031901126102d85760043561178d81610554565b6117956138d4565b60d280546001600160a01b0319166001600160a01b03929092169182179055337f6bdc78d8c88160b3fc3638e67f2afe523b3f4c7d00c56ebb6216790e4c3eb2cb5f80a3005b346102d85760803660031901126102d85761046761180f6004356117fe81610554565b6064359060443590602435906124e9565b604080519384526020840192909252908201529081906060820190565b346102d8575f3660031901126102d857602061ffff60655460a01c16604051908152f35b346102d8576003196040368201126102d85760049081356001600160401b038082116102d85760a08285019383360301126102d8576024359081116102d85761189c9036908501610ebb565b6001600160a01b037f00000000000000000000000000000000000000000000000000000000000000008116803b156102d85760405163837d444160e01b8152905f9082908183816118ef8c828f016125ed565b03925af180156104ac57611a0d575b50611907613b02565b61190f6129cd565b90811633141591826119de575b505090506119cd576044019160b0611934848461266b565b905004801580156119b5575b6119a55761195561194f6122d3565b916126c0565b11611996575060b0611967838361266b565b9050145f14611983576100189161197d9161266b565b906140b4565b610018916119909161266b565b90613e84565b6040516396d8043360e01b8152fd5b50604051631c6c4cf360e31b8152fd5b506119c0848461266b565b905060b082021415611940565b604051634ca8886760e01b81528390fd5b611a0192506119fb611a05946119f388613b8d565b923691611337565b91613c67565b1590565b805f8061191c565b80610c77611a1a92611288565b5f6118fe565b346102d85760603660031901126102d857600435602435611a456044358284336124e9565b9192611a717f0000000000000000000000000000000000000000000000000000000000000000826123fb565b42108015611c73575b8015611c6b575b611c59577feb3b05c070c24f667611fdb3ff75fe007d42401c573aed8d8faca95fd00ccb5693611ac586611ac06106b46099546001600160801b031690565b61384d565b15611bc757611aff611ae4611ad986614213565b60995460801c61225d565b6001600160801b036099549181199060801b16911617609955565b60408051336020820190815291810184905260608082018990528152601f1993915f91611b439190611b326080826112ec565b5190205f52609b60205260405f2090565b555f9360018311611b7c575b50505050611b5d8233614246565b604080519485526020850191909152830152339180606081015b0390a2005b611bbd92939450611b8d90886123fb565b6040805133602082019081529181019390935260608301829052608095860183529094909190611b3290826112ec565b555f808080611b4f565b611bcf613b02565b611c0b611bef611bde86614213565b609e546001600160801b031661225d565b6001600160801b03166001600160801b0319609e541617609e55565b611c40611c25611c1a85614213565b609e5460801c61225d565b6001600160801b03609e549181199060801b16911617609e55565b611c54611c4f84609f546123fb565b609f55565b611aff565b604051630e3d8e8d60e11b8152600490fd5b508215611a81565b508115611a7a565b346102d8576040806003193601126102d85760243590600435611c9d83610554565b611ca5613b02565b8015611e53576001600160a01b038316908115611e4257611cc5816122ad565b908115611e3157611cd582614b46565b611cde83614213565b60985460801c90611cee9161225d565b611d0d906001600160801b036098549181199060801b16911617609855565b611d1782336147fc565b609e54958660801c8281609f5490611d2e916123fb565b98611d3887614213565b611d4a916001600160801b031661328a565b611d6a906001600160801b03166001600160801b0319609e541617609e55565b611d73916123fb565b611d7c90614213565b611d9b906001600160801b03609e549181199060801b16911617609e55565b85516001600160a01b0391909116602082019081524260408301526060808301899052825290611dcc6080826112ec565b519020611de1905f52609b60205260405f2090565b5583518581526020810191909152604081019190915233907f869f12645d154414259c47bcb998b6b6983fae50e5e0c6053bc87d4330db9f2d90606090a3611e2833614d12565b51908152602090f35b83516318374fd160e21b8152600490fd5b825163d92e233d60e01b8152600490fd5b8151636edcc52360e01b8152600490fd5b346102d857611b777f2013570c343af8ab14a9778150e381a0fda34ed6368127a95fd5e7210cbec5bf611e9636610ee8565b9290611ea06138d4565b60405191829160208352339560208401916125cd565b5f5b838110611ec75750505f910152565b8181015183820152602001611eb8565b90602091611ef081518092818552858086019101611eb6565b601f01601f1916010190565b6020808201906020835283518092526040830192602060408460051b8301019501935f915b848310611f315750505050505090565b9091929394958480611f4f600193603f198682030187528a51611ed7565b9801930193019194939290611f21565b346102d85760203660031901126102d8576001600160401b036004358181116102d857366023820112156102d85780600401359182116102d8573660248360051b830101116102d857610467916024611fb89201612833565b60405191829182611efc565b9060206107f6928181520190611ed7565b346102d8575f3660031901126102d857610467604051611ff481611268565b60058152640352e302e360dc1b6020820152604051918291602083526020830190611ed7565b346102d8575f3660031901126102d857612032614330565b61203a6128e0565b60015f80516020614fe483398151915255005b346102d8575f3660031901126102d8576020610e496129cd565b801515036102d857565b346102d85760403660031901126102d85761001860043561209181610554565b6024359061209e82612067565b612a03565b346102d85760203660031901126102d85760206104cf60043561435f565b346102d85760203660031901126102d8576100186004356120e181610554565b6120e96138d4565b61442c565b346102d8575f3660031901126102d85760206001600160801b0360995416604051908152f35b346102d85760203660031901126102d85761001860043561213481610554565b61213c6138d4565b614473565b346102d8575f3660031901126102d85760206001600160801b03609e5416604051908152f35b346102d85760203660031901126102d85760043561218481610554565b60018060a01b03165f52609c602052602060405f2054604051908152f35b346102d85760203660031901126102d8576004356121bf81610554565b60018060a01b03165f52610202602052602060ff60405f2054166040519015158152f35b346102d8575f3660031901126102d8575f546040516001600160a01b039091168152602090f35b908160209103126102d8575190565b6040513d5f823e3d90fd5b9060405161223181611268565b91546001600160801b038116835260801c6020830152565b634e487b7160e01b5f52601160045260245ffd5b6001600160801b03918216908216039190821161227657565b612249565b815160209092015160801b6fffffffffffffffffffffffffffffffff19166001600160801b0392909216919091179055565b6098546001600160801b03811690816122c557505090565b916107f69260801c90612cc3565b6122db613612565b6099546001600160801b036122f18183166122ad565b90609e5416019060801c01908181115f1461230a570390565b50505f90565b61016a546001600160a01b031680156123265790565b507f000000000000000000000000000000000000000000000000000000000000000090565b908160209103126102d857516107f681610554565b906020828203126102d85781356001600160401b03928382116102d85701916060838303126102d857604051926123968461129b565b80358452602081013561ffff811681036102d857602085015260408101359182116102d857019080601f830112156102d8578160206123d793359101611337565b604082015290565b609d54806107f657505f1990565b9060b0820180921161227657565b9190820180921161227657565b6001600160801b036099541661241c614b04565b90810180911161227657811061244f57612440609f5461243a613864565b906123fb565b111561244a575f90565b5f1990565b609a90609a549182915f905b8482106124755750505081101561246f5790565b505f1990565b909193808316906001818518811c8301809311612276575f8790525f80516020614fa48339815191528301546001600160a01b03168410156124bc575050935b919061245b565b9095910192506124b5565b908160209103126102d857516107f681612067565b9190820391821161227657565b604080516001600160a01b0390921660208301908152908201939093526060810182905290919061252781608081015b03601f1981018352826112ec565b5190205f52609b60205260405f2054918215612591576001600160801b036099541690612552614b04565b91820180921161227657839183101561257f579161256f92613967565b90915b8281039081116122765792565b509061258a916138e7565b9091612572565b5050505f905f905f90565b9035601e19823603018112156102d85701602081359101916001600160401b0382116102d85781360383136102d857565b908060209392818452848401375f828201840152601f01601f1916010190565b9060a06107f692602081528235602082015260208301356040820152612629612619604085018561259c565b84606085015260c08401916125cd565b9061265c61265161263d606087018761259c565b601f198587038101608087015295916125cd565b94608081019061259c565b939092828603019101526125cd565b903590601e19813603018212156102d857018035906001600160401b0382116102d8576020019181360383136102d857565b634e487b7160e01b5f52601260045260245ffd5b81156126bb570490565b61269d565b90670de0b6b3a7640000918083029283040361227657565b90670de0b6b3a76400009182810292818404149015171561227657565b6001600160401b0381116112835760051b60200190565b90612716826126f5565b61272360405191826112ec565b8281528092612734601f19916126f5565b01905f5b82811061274457505050565b806060602080938501015201612738565b634e487b7160e01b5f52603260045260245ffd5b9082101561278057610f129160051b81019061266b565b612755565b908092918237015f815290565b3d156127bc573d906127a38261131c565b916127b160405193846112ec565b82523d5f602084013e565b606090565b6020818303126102d8578051906001600160401b0382116102d8570181601f820112156102d85780516127f38161131c565b9261280160405194856112ec565b818452602082840101116102d8576107f69160208085019101611eb6565b80518210156127805760209160051b010190565b91909161283f8361270c565b925f5b81811061284e57505050565b5f8061285b838587612769565b6040939161286d855180938193612785565b0390305af49061287b612792565b91156128a2575090600191612890828861281f565b5261289b818761281f565b5001612842565b9060448151106102d8576128dc6128c7600492838101516024809183010191016127c1565b925162461bcd60e51b81529283928301611fc4565b0390fd5b47633b9aca0081106129ca57604051638119c06560e01b815290602082600481847f00000000000000000000000000000000000000000000000000000000000000006001600160a01b03165af19182156104ac575f926129a9575b506001600160ff1b03821161299057907f07554795962e1f72c5bca846be8a8f44143aa1b4ced204ffc7899be95e7040db9161297682612fb4565b60408051918252602082019290925290819081015b0390a1565b60405163123baf0360e11b815260048101839052602490fd5b6129c391925060203d6020116104a55761049781836112ec565b905f61293b565b50565b60d2546001600160a01b0316806107f657507f000000000000000000000000000000000000000000000000000000000000000090565b610201546001600160a01b03919082163303611185576001600160a01b0381165f90815261020260205260409020549215159260ff1615158314612a96576001600160a01b0381165f9081526102026020526040902060ff1981541660ff851617905560405192835216907fffe80d6d91bb72bd036e4be8badcf33d7c8e13b2a0aaab3dc3aef76f6b1f786a60203392a3565b505050565b60405163752a536d60e01b81526020816004817f00000000000000000000000000000000000000000000000000000000000000006001600160a01b03165afa9081156104ac575f91612b31575b5060208201916001600160801b03918284511691828214612b2a5783612b1d612b18612b25958584865116612cc3565b614213565b169052614213565b169052565b5050505050565b612b4a915060203d6020116104a55761049781836112ec565b5f612ae8565b90808202905f1981840990828083109203918083039214612bbf576127109082821115612bad577fbc01a36e2eb1c432ca57a786c226809d495182a9930be0ded288ce703afb7e91940990828211900360fc1b910360041c170290565b60405163227bc15360e01b8152600490fd5b505061271091500490565b90808202905f1981840990828083109203918083039214612c2d57670de0b6b3a76400009082821115612bad577faccb18165bd6fe31ae1cf318dc5b51eee0e1ba569b88cd74c1773b91fac10669940990828211900360ee1b910360121c170290565b5050670de0b6b3a764000091500490565b90633b9aca0080830291905f1984820993838086109503948086039514612cb65784831115612bad57829109815f038216809204600280826003021880830282030280830282030280830282030280830282030280830282030280920290030293600183805f03040190848311900302920304170290565b5050906107f692506126b1565b9091828202915f1984820993838086109503948086039514612cb65784831115612bad57829109815f038216809204600280826003021880830282030280830282030280830282030280830282030280830282030280920290030293600183805f03040190848311900302920304170290565b908160609103126102d857805191604060208301519201516107f681612067565b81835290916001600160fb1b0383116102d85760209260051b809284830137010190565b90602082528035602083015260208101358060130b8091036102d85760408301526040810135612daa81610554565b6001600160a01b031660608381019190915281013536829003601e19018112156102d85701602081359101906001600160401b0381116102d8578060051b360382136102d85760a0836080806107f69601520191612d57565b9190915f838201938412911290801582169115161761227657565b6040516325f56f1160e01b81526001600160a01b03929160609082908190612e499060048301612d7b565b03815f877f0000000000000000000000000000000000000000000000000000000000000000165af19283156104ac575f915f905f95612f6f575b508415612f1c5781612e93612310565b16917f0000000000000000000000000000000000000000000000000000000000000000168214612f1557509060205f92600460405180958193634641257d60e01b83525af19081156104ac57612ef0925f92612ef4575b50612e03565b9190565b612f0e91925060203d6020116104a55761049781836112ec565b905f612eea565b9081612f22575b50509190565b803b156102d857604051636ee3193160e11b815260048101929092525f908290602490829084905af180156104ac57612f5c575b80612f1c565b80610c77612f6992611288565b5f612f56565b91945050612f95915060603d606011612f9d575b612f8d81836112ec565b810190612d36565b93905f612e83565b503d612f83565b600160ff1b8114612276575f0390565b80156129ca57612fc96106b460985460801c90565b5f82126130965781612fda916123fb565b90612fe7610b1a83614213565b612ffc6065549161ffff8360a01c1690612b50565b8015612a9657807f555ee6b2ef9506d870f386c067e47d3689435330b012ad263d8cc353186865479361303a6106b46098546001600160801b031690565b8061308057505061298b90925b6001600160a01b03169161305b84846144d5565b60405193849384604091949392606082019560018060a01b0316825260208201520152565b61298b9261309092039084612cc3565b92613047565b906130a090612fa4565b6130b56106b4609e546001600160801b031690565b806130d5575b50806130c5575050565b612b18610b1a9161131a936124dc565b906131307f3623a54e8078be0d90ecfbef82da6a31ff3e6be8aa1718e7a7f3d0d33ff1d32a91613120611bef61311561310e88886123fb565b8785612cc3565b808094039603614213565b6040519081529081906020820190565b0390a15f6130bb565b609954906001600160801b0382169182156132635760801c61317461316582613160613612565b6124dc565b61316e856122ad565b90614521565b90811561325c576131848261435f565b93841561325457826131d1611ae4612b1861131a96610b1a966131cc6131b0612b188d6132499a6124dc565b6001600160801b03166001600160801b03196099541617609955565b6123fb565b6131db8187614591565b60408051878152602081018390527f624ea167e477f9d39f7f4094b9dfe2e6346eb4a7aada54338db51abd554c4b9f9190a1612b1861322d61321c88614213565b6098546001600160801b031661225d565b6001600160801b03166001600160801b03196098541617609855565b60985460801c61225d565b505f93505050565b505f925050565b505f9150565b6001600160a01b03165f908152610202602052604090205460ff1661118557565b9190916001600160801b038080941691160191821161227657565b51906001600160401b03821682036102d857565b908160609103126102d8576123d760408051926132d58461129b565b80516132e0816102fc565b84526132ee602082016132a5565b6020850152016132a5565b92906001600160a01b039081811615610c8357613314613b02565b817f00000000000000000000000000000000000000000000000000000000000000001690813b156102d857604094855193631d8557d760e01b85526004945f81878183895af180156104ac576135ff575b506001600160a01b0388165f9081526101376020526040902061338790612224565b906001600160801b036133a183516001600160801b031690565b16156135ef576133b082612a9b565b875163e48a5f7b60e01b81523087820190815290916060918391908290819060200103917f0000000000000000000000000000000000000000000000000000000000000000165afa80156104ac576135d0575b508651936303d1689d60e11b9788865260209182878061342a888c83019190602083019252565b0381845afa9687156104ac575f976135b1575b50869961345d6106958d60018060a01b03165f52609c60205260405f2090565b881180156135a1575b6135915790836134a39261348187516001600160801b031690565b908551948592839283528d83019190916001600160801b036020820193169052565b0381845afa9889156104ac575f859488946134e89c613574575b5051633b9e9f0160e21b815233928101928352602083019490945292998a9384929091839160400190565b03925af19586156104ac57610ac161352f94613512936103f39361131a9a613556575b5050614213565b6001600160a01b0388165f9081526101376020526040902061227b565b61355161353b8361435f565b809761354c610b1a610b0787614213565b6147fc565b614246565b8161356c92903d106104a55761049781836112ec565b505f8061350b565b61358a90873d89116104a55761049781836112ec565b505f6134bd565b825163efda1a2760e01b81528990fd5b506135aa6122d3565b8811613466565b6135c9919750833d85116104a55761049781836112ec565b955f61343d565b6135e89060603d606011610c5357610c4481836112ec565b505f613403565b875163673f032f60e11b81528690fd5b80610c7761360c92611288565b5f613365565b6040516370a0823160e01b81523060048201526020906001600160a01b039082816024817f000000000000000000000000000000000000000000000000000000000000000086165afa9081156104ac575f916136e3575b5060405163be7ab51b60e01b8152306004820152918390839060249082907f0000000000000000000000000000000000000000000000000000000000000000165afa9182156104ac576107f6935f936136c4575b50506123fb565b6136db929350803d106104a55761049781836112ec565b905f806136bd565b6136fa9150833d85116104a55761049781836112ec565b5f613669565b61370861488f565b604083015161371561488f565b6001600160a01b0382168015610c83576001600160601b0360a01b5f5416175f557f2013570c343af8ab14a9778150e381a0fda34ed6368127a95fd5e7210cbec5bf604051602081528061376e33946020830190611ed7565b0390a260208301519261377f61488f565b61271061ffff8516116137d6576137ce9361379c6137c193614473565b6065805461ffff60a01b191660a09290921b61ffff60a01b16919091179055516148d0565b6137c9614900565b61492b565b61131a61495a565b604051638a81d3b360e01b8152600490fd5b61131a906120e961488f565b6001600160a01b037f00000000000000000000000000000000000000000000000000000000000000008116308114918215613832575b505061164a57565b5f80516020614fc48339815191525416141590505f8061382a565b90613856614b04565b918201809211612276571090565b61386c613612565b6099548060801c820391821161227657816138906001600160801b038093166122ad565b90816138b6575b5050811561230a576107f6916138b191609e541690614521565b614b46565b91925090818111156138cc57035b905f80613897565b50505f6138c4565b5f546001600160a01b0316330361118557565b6138ef613864565b91609f54928301809311612276578083111561393957613910920390614521565b90609e548060801c80155f146139265750508190565b6001600160801b036107f6921684612cc3565b5050505f905f90565b9060405161394f81611268565b91546001600160a01b038116835260a01c6020830152565b609a545f948594939091808410801590613afa575b613aed5783613ab7575f5b609a5f526001600160a01b03166139ac5f80516020614fa48339815191528601613942565b80519097906139c3906001600160a01b03166115e0565b986139e86139dc6020809b01516001600160601b031690565b6001600160601b031690565b948381108015613aad575b613a9b5791600193979a95613a12613a1e939488035b838c0390614521565b80920198870391612cc3565b01970193808611801590613a91575b613a8657609a5f528290613a4f5f80516020614fa48339815191528701613942565b805190890151969992966001600160a01b039091169460019392613a1e9290916001600160601b0390911690613a12908803613a09565b945050509250509190565b5081851015613a2d565b60405163e8722f8f60e01b8152600490fd5b50808b11156139f3565b609a5f527f44da158ba27f9252712a74ff6a55c5d531f69609f1f6e7f17c4443a8e2089be38401546001600160a01b0316613987565b505093505050505f905f90565b50841561397c565b604051633eb1acf760e11b81523060048201526020816024817f00000000000000000000000000000000000000000000000000000000000000006001600160a01b03165afa9081156104ac575f91613b6e575b50613b5c57565b60405163e775715160e01b8152600490fd5b613b87915060203d6020116114e5576114d681836112ec565b5f613b55565b604290467f000000000000000000000000000000000000000000000000000000000000000003613c3b5760d354905b613bd3613bcc604083018361266b565b3691611337565b602081519101206040519060208201927f838af86bfca91ada6557e38d913af1c2f24ef9b2567b3b77cc9e1144314b35b08452356040830152606082015260608152613c1e816112d1565b5190206040519161190160f01b8352600283015260228201522090565b613c43614b7d565b90613bbc565b60041115613c5357565b634e487b7160e01b5f52602160045260245ffd5b613c718383614c4a565b50613c7e81959295613c49565b159384613d1a575b508315613c94575b50505090565b5f929350908291604051613ccc816125196020820194630b135d3f60e11b998a87526024840152604060448401526064830190611ed7565b51915afa90613cd9612792565b82613d0c575b82613cef575b50505f8080613c8e565b613d049192506020808251830101910161220a565b145f80613ce5565b915060208251101591613cdf565b6001600160a01b0383811691161493505f613c86565b90613d3a826126f5565b613d4760405191826112ec565b8281528092613d58601f19916126f5565b0190602036910137565b906030116102d85790603090565b906090116102d85760300190606090565b9060b0116102d85760900190602090565b909392938483116102d85784116102d8578101920390565b6020908361131a939594956040519683613dcd8995518092888089019101611eb6565b84019185830137015f838201520380855201836112ec565b359060208110613df3575090565b5f199060200360031b1b1690565b9160206107f69381815201916125cd565b9192613e3c613e2c613e4a93608086526080860190611ed7565b6020958582036020870152611ed7565b908382036040850152611ed7565b906060818303910152602080845192838152019301915f5b828110613e70575050505090565b835185529381019392810192600101613e62565b613e8c614c84565b6060906060905f809460b0810492613ea384613d30565b965f905b858210613fc257506001600160a01b03947f00000000000000000000000000000000000000000000000000000000000000009450613f1e935060209250613eee91506126c0565b60405163095ea7b360e01b81526001600160a01b0385166004820152602481019190915291829081906044820190565b03815f877f0000000000000000000000000000000000000000000000000000000000000000165af180156104ac57613fa3575b5016613f5b614ce9565b813b156102d8575f8094613f856040519788968795869463c82655b760e01b865260048601613e12565b03925af180156104ac57613f965750565b80610c7761131a92611288565b613fbb9060203d6020116114e5576114d681836112ec565b505f613f51565b614047614017614022614004613ffb7f64b6e61d93b7a91e8cc4376183ede0997a27b44fd9dd2f30a866b2a5730efdb1959c9b9c6123ed565b80998989613d92565b92909a614011848d613d62565b91613daa565b9a614011838c613d70565b988b6140418661403b6140358686613d81565b90613de5565b9261281f565b52613d62565b9061405760405192839283613e01565b0390a160010183613ea7565b929461409c670de0b6b3a76400009661408e608097946140aa969b9a9b60a0895260a08901916125cd565b908682036020880152611ed7565b9184830360408601526125cd565b9460608201520152565b906140bd614c84565b6140c78183613d62565b60405163095ea7b360e01b81527f00000000000000000000000000000000000000000000000000000000000000006001600160a01b038181166004840152670de0b6b3a76400006024840152929492916020816044815f7f000000000000000000000000000000000000000000000000000000000000000088165af180156104ac576141f4575b501690614159614ce9565b9161417261403561416a8489613d70565b949098613d81565b95813b156102d8575f809461419f604051998a9687958694630cac9f3160e01b86528c8c60048801614063565b03925af19283156104ac577f64b6e61d93b7a91e8cc4376183ede0997a27b44fd9dd2f30a866b2a5730efdb1936141e1575b5061298b60405192839283613e01565b80610c776141ee92611288565b5f6141d1565b61420c9060203d6020116114e5576114d681836112ec565b505f61414e565b6001600160801b0390818111614227571690565b604490604051906306dfcc6560e41b8252608060048301526024820152fd5b9061424f614330565b6040516370a0823160e01b81523060048201527f0000000000000000000000000000000000000000000000000000000000000000906020816024816001600160a01b0386165afa9384156104ac576142ee946142e9925f91614311575b508411614304575b60405163a9059cbb60e01b60208201526001600160a01b039190911660248201526044808201949094529283526064836112ec565b614d92565b61131a60015f80516020614fe483398151915255565b61430c614c84565b6142b4565b61432a915060203d6020116104a55761049781836112ec565b5f6142ac565b5f80516020614fe4833981519152600281541461434d5760029055565b604051633ee5aeb560e01b8152600490fd5b609854906001600160801b0382168115801561438e575b156143815750905090565b6107f69260801c91612cc3565b508015614376565b6098546001600160801b03811690816143b3575050633b9aca0090565b60801c6143c08183612c3e565b9181156126bb57633b9aca00096143d45790565b60018101809111156107f657612249565b6098546001600160801b0381169082158015614424575b1561440657505090565b60801c90614415828285612cc3565b9282156126bb57096143d45790565b5081156143fc565b61020180546001600160a01b0319166001600160a01b03929092169182179055337fdd44becc667b27d303085374b2760e783af69bbc9db209947ab811a6f1bbc58b5f80a3565b61447b613b02565b6001600160a01b031680156144c357606580546001600160a01b03191682179055337faaebcf1bfa00580e41d966056b48521fa9f202645c86d4ddf28113e617c1b1d35f80a3565b604051630ed1b8b360e31b8152600490fd5b6144de82614213565b609854906144f66001600160801b039182841661328a565b16906001600160801b0319161760985560018060a01b03165f52609c60205260405f20908154019055565b908082101561452e575090565b905090565b609a549068010000000000000000821015611283576001820180609a5582101561278057609a5f52805160209091015160a01b6001600160a01b0319166001600160a01b0391909116175f80516020614fa483398151915290910155565b9190918015801561465e575b61464c576145a9614b04565b908101809111612276576001600160a01b0380821161462c576001600160601b039081851161460c579061131a93946145f6614607936145e761130d565b95166001600160a01b03168552565b166001600160601b03166020830152565b614533565b6040516306dfcc6560e41b81526060600482015260248101869052604490fd5b6040516306dfcc6560e41b815260a0600482015260248101839052604490fd5b604051632ec8835b60e21b8152600490fd5b50821561459d565b604051630156a69560e11b81523060048201526020816024817f00000000000000000000000000000000000000000000000000000000000000006001600160a01b03165afa9081156104ac575f916146d3575b50156146c157565b604051630a62fbdb60e11b8152600490fd5b6146ec915060203d6020116114e5576114d681836112ec565b5f6146b9565b60405163e48a5f7b60e01b81523060048201526001600160a01b036060826024817f000000000000000000000000000000000000000000000000000000000000000085165afa80156104ac5761478d936001600160401b03610987604061476c946020975f916147dd575b5001516001600160401b031690565b9060405180809581946363737ac960e11b8352600483019190602083019252565b03917f0000000000000000000000000000000000000000000000000000000000000000165afa9081156104ac575f916147c4575090565b6107f6915060203d6020116104a55761049781836112ec565b6147f6915060603d606011610c5357610c4481836112ec565b5f61475d565b60018060a01b03165f52609c60205260405f20908154818103908111612276576148269255614213565b609854906001600160801b03908183160316906001600160801b03191617609855565b6040516323b872dd60e01b60208201526001600160a01b039283166024820152919092166044820152633b9aca00606480830191909152815261131a916142e9826112b6565b60ff7ff0c57e16840df040f15088dc2f81fe391c3923bec73e23a9662efc9c229c6a005460401c16156148be57565b604051631afcd79f60e31b8152600490fd5b6148d861488f565b80156148ee57600181016148e95750565b609d55565b6040516331278a8760e01b8152600490fd5b61490861488f565b670de0b6b3a76400006149196123df565b106148ee57614926614b7d565b60d355565b61493361488f565b6001600160a01b0316806149445750565b61016a80546001600160a01b0319169091179055565b61496261488f565b61496a61488f565b61497261488f565b60015f80516020614fe48339815191525561498b613b02565b3015610c8357633b9aca008060985460801c016149a66123df565b8111614a2e576149c0610b1a6149ba614396565b92614213565b6149ca81306144d5565b60405191825260208201525f604082015230907f861a4138e41fb21c121a7dbb1053df465c837fc77380cc7226189a662281be2c60603392a361131a30337f0000000000000000000000000000000000000000000000000000000000000000614849565b6040516304ffa0ff60e51b8152600490fd5b908160209103126102d8575160ff811681036102d85790565b6040516352d1902d60e01b81529290916020846004816001600160a01b0387165afa5f9481614ae3575b50614aa957604051634c9c8ce360e01b81526001600160a01b0384166004820152602490fd5b90915f80516020614fc48339815191528403614aca5761131a929350614e03565b604051632a87526960e21b815260048101859052602490fd5b614afd91955060203d6020116104a55761049781836112ec565b935f614a83565b609a5480614b1157505f90565b609a5f527f44da158ba27f9252712a74ff6a55c5d531f69609f1f6e7f17c4443a8e2089be301546001600160a01b03166115e0565b609e54908160801c81158015614b75575b15614b625750905090565b6001600160801b036107f6931691612cc3565b508015614b57565b6e5661756c7456616c696461746f727360881b6020604051614b9e81611268565b600f8152015260405160208101907f8b73c3c69bb8fe3d512ecc4cf759cc79239f7b179b0ffacaa9a75d522b39400f82527f35d6cf9768d8be929c3a11ed667b1560ae6f1920195a985758fdd7265505d1ca60408201527fc89efdaa54c0f20c7adf612882df0950f5a951637e0307cdcb4c672f298b8bc660608201524660808201523060a082015260a0815260c081018181106001600160401b038211176112835760405251902090565b8151919060418303614c7a57614c739250602082015190606060408401519301515f1a90614ea5565b9192909190565b50505f9160029190565b7f00000000000000000000000000000000000000000000000000000000000000006001600160a01b0316803b156102d8575f809160246040518094819363a3066aab60e01b83523060048401525af180156104ac57614ce05750565b61131a90611288565b604051600160f81b60208201525f60218201523060601b602c820152602081526107f681611268565b60018060a01b0381165f5261013760205260405f209060405191614d3583611268565b54906001600160801b03918281169081855260801c602085015215612a965761069b610695614d8892614d66613b02565b614d6f86612a9b565b6001600160a01b03165f908152609c6020526040902090565b9151161161073857565b5f80614dba9260018060a01b03169360208151910182865af1614db3612792565b9083614f40565b8051908115159182614de8575b5050614dd05750565b60249060405190635274afe760e01b82526004820152fd5b614dfb92506020809183010191016124c7565b155f80614dc7565b90813b15614e84575f80516020614fc483398151915280546001600160a01b0319166001600160a01b0384169081179091557fbc7cd75a20ee27fd9adebab32041f755214dbc6bffa90cc0225b39da2e5c2d3b5f80a2805115614e69576129ca91614f27565b505034614e7257565b60405163b398979f60e01b8152600490fd5b604051634c9c8ce360e01b81526001600160a01b0383166004820152602490fd5b91907f7fffffffffffffffffffffffffffffff5d576e7357a4501ddfe92f46681b20a08411614f1c579160209360809260ff5f9560405194855216868401526040830152606082015282805260015afa156104ac575f516001600160a01b03811615614f1257905f905f90565b505f906001905f90565b5050505f9160039190565b5f806107f693602081519101845af4614f3e612792565b915b90614f675750805115614f5557805190602001fd5b604051630a12f52160e11b8152600490fd5b81511580614f9a575b614f78575090565b604051639996b31560e01b81526001600160a01b039091166004820152602490fd5b50803b15614f7056fe44da158ba27f9252712a74ff6a55c5d531f69609f1f6e7f17c4443a8e2089be4360894a13ba1a3210667c828492db98dca3e2076cc3735a920a3ca505d382bbc9b779b17422d0df92223018b32b4d1fa46e071723d6817e2486d003becc55f00a2646970667358221220ec6f6df673d7dbf00de71fc227d5de317bb95b6881bb8bd514d8065c072c473964736f6c63430008160033",
  "linkReferences": {},
  "deployedLinkReferences": {}
}