{
  "_format": "hh-sol-artifact-1",
  "contractName": "GnoErc20Vault",
  "sourceName": "contracts/vaults/gnosis/GnoErc20Vault.sol",
  "abi": [
    {
      "inputs": [
        {
          "internalType": "address",
          "name": "_keeper",
          "type": "address"
        },
        {
          "internalType": "address",
          "name": "_vaultsRegistry",
          "type": "address"
        },
        {
          "internalType": "address",
          "name": "_validatorsRegistry",
          "type": "address"
        },
        {
          "internalType": "address",
          "name": "osTokenVaultController",
          "type": "address"
        },
        {
          "internalType": "address",
          "name": "osTokenConfig",
          "type": "address"
        },
        {
          "internalType": "address",
          "name": "sharedMevEscrow",
          "type": "address"
        },
        {
          "internalType": "address",
          "name": "depositDataRegistry",
          "type": "address"
        },
        {
          "internalType": "address",
          "name": "gnoToken",
          "type": "address"
        },
        {
          "internalType": "address",
          "name": "xdaiExchange",
          "type": "address"
        },
        {
          "internalType": "uint256",
          "name": "exitingAssetsClaimDelay",
          "type": "uint256"
        }
      ],
      "stateMutability": "nonpayable",
      "type": "constructor"
    },
    {
      "inputs": [],
      "name": "AccessDenied",
      "type": "error"
    },
    {
      "inputs": [
        {
          "internalType": "address",
          "name": "target",
          "type": "address"
        }
      ],
      "name": "AddressEmptyCode",
      "type": "error"
    },
    {
      "inputs": [
        {
          "internalType": "address",
          "name": "account",
          "type": "address"
        }
      ],
      "name": "AddressInsufficientBalance",
      "type": "error"
    },
    {
      "inputs": [],
      "name": "CapacityExceeded",
      "type": "error"
    },
    {
      "inputs": [],
      "name": "DeadlineExpired",
      "type": "error"
    },
    {
      "inputs": [
        {
          "internalType": "address",
          "name": "implementation",
          "type": "address"
        }
      ],
      "name": "ERC1967InvalidImplementation",
      "type": "error"
    },
    {
      "inputs": [],
      "name": "ERC1967NonPayable",
      "type": "error"
    },
    {
      "inputs": [],
      "name": "ExitRequestNotProcessed",
      "type": "error"
    },
    {
      "inputs": [],
      "name": "FailedInnerCall",
      "type": "error"
    },
    {
      "inputs": [],
      "name": "InsufficientAssets",
      "type": "error"
    },
    {
      "inputs": [],
      "name": "InvalidAssets",
      "type": "error"
    },
    {
      "inputs": [],
      "name": "InvalidCapacity",
      "type": "error"
    },
    {
      "inputs": [],
      "name": "InvalidCheckpointIndex",
      "type": "error"
    },
    {
      "inputs": [],
      "name": "InvalidCheckpointValue",
      "type": "error"
    },
    {
      "inputs": [],
      "name": "InvalidFeePercent",
      "type": "error"
    },
    {
      "inputs": [],
      "name": "InvalidFeeRecipient",
      "type": "error"
    },
    {
      "inputs": [],
      "name": "InvalidHealthFactor",
      "type": "error"
    },
    {
      "inputs": [],
      "name": "InvalidInitialization",
      "type": "error"
    },
    {
      "inputs": [],
      "name": "InvalidPosition",
      "type": "error"
    },
    {
      "inputs": [],
      "name": "InvalidReceivedAssets",
      "type": "error"
    },
    {
      "inputs": [],
      "name": "InvalidShares",
      "type": "error"
    },
    {
      "inputs": [],
      "name": "InvalidTokenMeta",
      "type": "error"
    },
    {
      "inputs": [],
      "name": "InvalidValidators",
      "type": "error"
    },
    {
      "inputs": [],
      "name": "LiquidationDisabled",
      "type": "error"
    },
    {
      "inputs": [],
      "name": "LowLtv",
      "type": "error"
    },
    {
      "inputs": [],
      "name": "MathOverflowedMulDiv",
      "type": "error"
    },
    {
      "inputs": [],
      "name": "NotCollateralized",
      "type": "error"
    },
    {
      "inputs": [],
      "name": "NotHarvested",
      "type": "error"
    },
    {
      "inputs": [],
      "name": "NotInitializing",
      "type": "error"
    },
    {
      "inputs": [],
      "name": "PermitInvalidSigner",
      "type": "error"
    },
    {
      "inputs": [],
      "name": "ReentrancyGuardReentrantCall",
      "type": "error"
    },
    {
      "inputs": [
        {
          "internalType": "uint8",
          "name": "bits",
          "type": "uint8"
        },
        {
          "internalType": "uint256",
          "name": "value",
          "type": "uint256"
        }
      ],
      "name": "SafeCastOverflowedUintDowncast",
      "type": "error"
    },
    {
      "inputs": [
        {
          "internalType": "uint256",
          "name": "value",
          "type": "uint256"
        }
      ],
      "name": "SafeCastOverflowedUintToInt",
      "type": "error"
    },
    {
      "inputs": [
        {
          "internalType": "address",
          "name": "token",
          "type": "address"
        }
      ],
      "name": "SafeERC20FailedOperation",
      "type": "error"
    },
    {
      "inputs": [],
      "name": "UUPSUnauthorizedCallContext",
      "type": "error"
    },
    {
      "inputs": [
        {
          "internalType": "bytes32",
          "name": "slot",
          "type": "bytes32"
        }
      ],
      "name": "UUPSUnsupportedProxiableUUID",
      "type": "error"
    },
    {
      "inputs": [],
      "name": "UpgradeFailed",
      "type": "error"
    },
    {
      "inputs": [],
      "name": "ZeroAddress",
      "type": "error"
    },
    {
      "anonymous": false,
      "inputs": [
        {
          "indexed": true,
          "internalType": "address",
          "name": "owner",
          "type": "address"
        },
        {
          "indexed": true,
          "internalType": "address",
          "name": "spender",
          "type": "address"
        },
        {
          "indexed": false,
          "internalType": "uint256",
          "name": "value",
          "type": "uint256"
        }
      ],
      "name": "Approval",
      "type": "event"
    },
    {
      "anonymous": false,
      "inputs": [
        {
          "indexed": false,
          "internalType": "uint256",
          "name": "shares",
          "type": "uint256"
        },
        {
          "indexed": false,
          "internalType": "uint256",
          "name": "assets",
          "type": "uint256"
        }
      ],
      "name": "CheckpointCreated",
      "type": "event"
    },
    {
      "anonymous": false,
      "inputs": [
        {
          "indexed": true,
          "internalType": "address",
          "name": "caller",
          "type": "address"
        },
        {
          "indexed": true,
          "internalType": "address",
          "name": "receiver",
          "type": "address"
        },
        {
          "indexed": false,
          "internalType": "uint256",
          "name": "assets",
          "type": "uint256"
        },
        {
          "indexed": false,
          "internalType": "uint256",
          "name": "shares",
          "type": "uint256"
        },
        {
          "indexed": false,
          "internalType": "address",
          "name": "referrer",
          "type": "address"
        }
      ],
      "name": "Deposited",
      "type": "event"
    },
    {
      "anonymous": false,
      "inputs": [
        {
          "indexed": true,
          "internalType": "address",
          "name": "owner",
          "type": "address"
        },
        {
          "indexed": true,
          "internalType": "address",
          "name": "receiver",
          "type": "address"
        },
        {
          "indexed": false,
          "internalType": "uint256",
          "name": "positionTicket",
          "type": "uint256"
        },
        {
          "indexed": false,
          "internalType": "uint256",
          "name": "shares",
          "type": "uint256"
        }
      ],
      "name": "ExitQueueEntered",
      "type": "event"
    },
    {
      "anonymous": false,
      "inputs": [
        {
          "indexed": true,
          "internalType": "address",
          "name": "receiver",
          "type": "address"
        },
        {
          "indexed": false,
          "internalType": "uint256",
          "name": "prevPositionTicket",
          "type": "uint256"
        },
        {
          "indexed": false,
          "internalType": "uint256",
          "name": "newPositionTicket",
          "type": "uint256"
        },
        {
          "indexed": false,
          "internalType": "uint256",
          "name": "withdrawnAssets",
          "type": "uint256"
        }
      ],
      "name": "ExitedAssetsClaimed",
      "type": "event"
    },
    {
      "anonymous": false,
      "inputs": [
        {
          "indexed": false,
          "internalType": "uint256",
          "name": "penalty",
          "type": "uint256"
        }
      ],
      "name": "ExitingAssetsPenalized",
      "type": "event"
    },
    {
      "anonymous": false,
      "inputs": [
        {
          "indexed": true,
          "internalType": "address",
          "name": "caller",
          "type": "address"
        },
        {
          "indexed": true,
          "internalType": "address",
          "name": "feeRecipient",
          "type": "address"
        }
      ],
      "name": "FeeRecipientUpdated",
      "type": "event"
    },
    {
      "anonymous": false,
      "inputs": [
        {
          "indexed": false,
          "internalType": "address",
          "name": "receiver",
          "type": "address"
        },
        {
          "indexed": false,
          "internalType": "uint256",
          "name": "shares",
          "type": "uint256"
        },
        {
          "indexed": false,
          "internalType": "uint256",
          "name": "assets",
          "type": "uint256"
        }
      ],
      "name": "FeeSharesMinted",
      "type": "event"
    },
    {
      "anonymous": false,
      "inputs": [
        {
          "indexed": false,
          "internalType": "uint64",
          "name": "version",
          "type": "uint64"
        }
      ],
      "name": "Initialized",
      "type": "event"
    },
    {
      "anonymous": false,
      "inputs": [
        {
          "indexed": true,
          "internalType": "address",
          "name": "caller",
          "type": "address"
        },
        {
          "indexed": true,
          "internalType": "address",
          "name": "keysManager",
          "type": "address"
        }
      ],
      "name": "KeysManagerUpdated",
      "type": "event"
    },
    {
      "anonymous": false,
      "inputs": [
        {
          "indexed": true,
          "internalType": "address",
          "name": "caller",
          "type": "address"
        },
        {
          "indexed": false,
          "internalType": "string",
          "name": "metadataIpfsHash",
          "type": "string"
        }
      ],
      "name": "MetadataUpdated",
      "type": "event"
    },
    {
      "anonymous": false,
      "inputs": [
        {
          "indexed": true,
          "internalType": "address",
          "name": "caller",
          "type": "address"
        },
        {
          "indexed": false,
          "internalType": "uint256",
          "name": "assets",
          "type": "uint256"
        },
        {
          "indexed": false,
          "internalType": "uint256",
          "name": "shares",
          "type": "uint256"
        }
      ],
      "name": "OsTokenBurned",
      "type": "event"
    },
    {
      "anonymous": false,
      "inputs": [
        {
          "indexed": true,
          "internalType": "address",
          "name": "caller",
          "type": "address"
        },
        {
          "indexed": true,
          "internalType": "address",
          "name": "user",
          "type": "address"
        },
        {
          "indexed": false,
          "internalType": "address",
          "name": "receiver",
          "type": "address"
        },
        {
          "indexed": false,
          "internalType": "uint256",
          "name": "osTokenShares",
          "type": "uint256"
        },
        {
          "indexed": false,
          "internalType": "uint256",
          "name": "shares",
          "type": "uint256"
        },
        {
          "indexed": false,
          "internalType": "uint256",
          "name": "receivedAssets",
          "type": "uint256"
        }
      ],
      "name": "OsTokenLiquidated",
      "type": "event"
    },
    {
      "anonymous": false,
      "inputs": [
        {
          "indexed": true,
          "internalType": "address",
          "name": "caller",
          "type": "address"
        },
        {
          "indexed": false,
          "internalType": "address",
          "name": "receiver",
          "type": "address"
        },
        {
          "indexed": false,
          "internalType": "uint256",
          "name": "assets",
          "type": "uint256"
        },
        {
          "indexed": false,
          "internalType": "uint256",
          "name": "shares",
          "type": "uint256"
        },
        {
          "indexed": false,
          "internalType": "address",
          "name": "referrer",
          "type": "address"
        }
      ],
      "name": "OsTokenMinted",
      "type": "event"
    },
    {
      "anonymous": false,
      "inputs": [
        {
          "indexed": true,
          "internalType": "address",
          "name": "caller",
          "type": "address"
        },
        {
          "indexed": true,
          "internalType": "address",
          "name": "user",
          "type": "address"
        },
        {
          "indexed": false,
          "internalType": "address",
          "name": "receiver",
          "type": "address"
        },
        {
          "indexed": false,
          "internalType": "uint256",
          "name": "osTokenShares",
          "type": "uint256"
        },
        {
          "indexed": false,
          "internalType": "uint256",
          "name": "shares",
          "type": "uint256"
        },
        {
          "indexed": false,
          "internalType": "uint256",
          "name": "assets",
          "type": "uint256"
        }
      ],
      "name": "OsTokenRedeemed",
      "type": "event"
    },
    {
      "anonymous": false,
      "inputs": [
        {
          "indexed": true,
          "internalType": "address",
          "name": "owner",
          "type": "address"
        },
        {
          "indexed": true,
          "internalType": "address",
          "name": "receiver",
          "type": "address"
        },
        {
          "indexed": false,
          "internalType": "uint256",
          "name": "assets",
          "type": "uint256"
        },
        {
          "indexed": false,
          "internalType": "uint256",
          "name": "shares",
          "type": "uint256"
        }
      ],
      "name": "Redeemed",
      "type": "event"
    },
    {
      "anonymous": false,
      "inputs": [
        {
          "indexed": true,
          "internalType": "address",
          "name": "from",
          "type": "address"
        },
        {
          "indexed": true,
          "internalType": "address",
          "name": "to",
          "type": "address"
        },
        {
          "indexed": false,
          "internalType": "uint256",
          "name": "value",
          "type": "uint256"
        }
      ],
      "name": "Transfer",
      "type": "event"
    },
    {
      "anonymous": false,
      "inputs": [
        {
          "indexed": true,
          "internalType": "address",
          "name": "implementation",
          "type": "address"
        }
      ],
      "name": "Upgraded",
      "type": "event"
    },
    {
      "anonymous": false,
      "inputs": [
        {
          "indexed": true,
          "internalType": "address",
          "name": "owner",
          "type": "address"
        },
        {
          "indexed": true,
          "internalType": "address",
          "name": "receiver",
          "type": "address"
        },
        {
          "indexed": false,
          "internalType": "uint256",
          "name": "positionTicket",
          "type": "uint256"
        },
        {
          "indexed": false,
          "internalType": "uint256",
          "name": "shares",
          "type": "uint256"
        },
        {
          "indexed": false,
          "internalType": "uint256",
          "name": "assets",
          "type": "uint256"
        }
      ],
      "name": "V2ExitQueueEntered",
      "type": "event"
    },
    {
      "anonymous": false,
      "inputs": [
        {
          "indexed": false,
          "internalType": "bytes",
          "name": "publicKey",
          "type": "bytes"
        }
      ],
      "name": "ValidatorRegistered",
      "type": "event"
    },
    {
      "anonymous": false,
      "inputs": [
        {
          "indexed": true,
          "internalType": "address",
          "name": "caller",
          "type": "address"
        },
        {
          "indexed": true,
          "internalType": "address",
          "name": "validatorsManager",
          "type": "address"
        }
      ],
      "name": "ValidatorsManagerUpdated",
      "type": "event"
    },
    {
      "anonymous": false,
      "inputs": [
        {
          "indexed": true,
          "internalType": "address",
          "name": "caller",
          "type": "address"
        },
        {
          "indexed": true,
          "internalType": "bytes32",
          "name": "validatorsRoot",
          "type": "bytes32"
        }
      ],
      "name": "ValidatorsRootUpdated",
      "type": "event"
    },
    {
      "anonymous": false,
      "inputs": [
        {
          "indexed": false,
          "internalType": "uint256",
          "name": "amount",
          "type": "uint256"
        },
        {
          "indexed": false,
          "internalType": "uint256",
          "name": "assets",
          "type": "uint256"
        }
      ],
      "name": "XdaiSwapped",
      "type": "event"
    },
    {
      "inputs": [],
      "name": "DOMAIN_SEPARATOR",
      "outputs": [
        {
          "internalType": "bytes32",
          "name": "",
          "type": "bytes32"
        }
      ],
      "stateMutability": "view",
      "type": "function"
    },
    {
      "inputs": [],
      "name": "UPGRADE_INTERFACE_VERSION",
      "outputs": [
        {
          "internalType": "string",
          "name": "",
          "type": "string"
        }
      ],
      "stateMutability": "view",
      "type": "function"
    },
    {
      "inputs": [],
      "name": "admin",
      "outputs": [
        {
          "internalType": "address",
          "name": "",
          "type": "address"
        }
      ],
      "stateMutability": "view",
      "type": "function"
    },
    {
      "inputs": [
        {
          "internalType": "address",
          "name": "",
          "type": "address"
        },
        {
          "internalType": "address",
          "name": "",
          "type": "address"
        }
      ],
      "name": "allowance",
      "outputs": [
        {
          "internalType": "uint256",
          "name": "",
          "type": "uint256"
        }
      ],
      "stateMutability": "view",
      "type": "function"
    },
    {
      "inputs": [
        {
          "internalType": "address",
          "name": "spender",
          "type": "address"
        },
        {
          "internalType": "uint256",
          "name": "amount",
          "type": "uint256"
        }
      ],
      "name": "approve",
      "outputs": [
        {
          "internalType": "bool",
          "name": "",
          "type": "bool"
        }
      ],
      "stateMutability": "nonpayable",
      "type": "function"
    },
    {
      "inputs": [
        {
          "internalType": "address",
          "name": "account",
          "type": "address"
        }
      ],
      "name": "balanceOf",
      "outputs": [
        {
          "internalType": "uint256",
          "name": "",
          "type": "uint256"
        }
      ],
      "stateMutability": "view",
      "type": "function"
    },
    {
      "inputs": [
        {
          "internalType": "uint128",
          "name": "osTokenShares",
          "type": "uint128"
        }
      ],
      "name": "burnOsToken",
      "outputs": [
        {
          "internalType": "uint256",
          "name": "assets",
          "type": "uint256"
        }
      ],
      "stateMutability": "nonpayable",
      "type": "function"
    },
    {
      "inputs": [
        {
          "internalType": "address",
          "name": "receiver",
          "type": "address"
        },
        {
          "internalType": "uint256",
          "name": "positionTicket",
          "type": "uint256"
        },
        {
          "internalType": "uint256",
          "name": "timestamp",
          "type": "uint256"
        },
        {
          "internalType": "uint256",
          "name": "exitQueueIndex",
          "type": "uint256"
        }
      ],
      "name": "calculateExitedAssets",
      "outputs": [
        {
          "internalType": "uint256",
          "name": "leftTickets",
          "type": "uint256"
        },
        {
          "internalType": "uint256",
          "name": "exitedTickets",
          "type": "uint256"
        },
        {
          "internalType": "uint256",
          "name": "exitedAssets",
          "type": "uint256"
        }
      ],
      "stateMutability": "view",
      "type": "function"
    },
    {
      "inputs": [],
      "name": "capacity",
      "outputs": [
        {
          "internalType": "uint256",
          "name": "",
          "type": "uint256"
        }
      ],
      "stateMutability": "view",
      "type": "function"
    },
    {
      "inputs": [
        {
          "internalType": "uint256",
          "name": "positionTicket",
          "type": "uint256"
        },
        {
          "internalType": "uint256",
          "name": "timestamp",
          "type": "uint256"
        },
        {
          "internalType": "uint256",
          "name": "exitQueueIndex",
          "type": "uint256"
        }
      ],
      "name": "claimExitedAssets",
      "outputs": [],
      "stateMutability": "nonpayable",
      "type": "function"
    },
    {
      "inputs": [
        {
          "internalType": "uint256",
          "name": "shares",
          "type": "uint256"
        }
      ],
      "name": "convertToAssets",
      "outputs": [
        {
          "internalType": "uint256",
          "name": "assets",
          "type": "uint256"
        }
      ],
      "stateMutability": "view",
      "type": "function"
    },
    {
      "inputs": [
        {
          "internalType": "uint256",
          "name": "assets",
          "type": "uint256"
        }
      ],
      "name": "convertToShares",
      "outputs": [
        {
          "internalType": "uint256",
          "name": "shares",
          "type": "uint256"
        }
      ],
      "stateMutability": "view",
      "type": "function"
    },
    {
      "inputs": [],
      "name": "decimals",
      "outputs": [
        {
          "internalType": "uint8",
          "name": "",
          "type": "uint8"
        }
      ],
      "stateMutability": "view",
      "type": "function"
    },
    {
      "inputs": [
        {
          "internalType": "uint256",
          "name": "assets",
          "type": "uint256"
        },
        {
          "internalType": "address",
          "name": "receiver",
          "type": "address"
        },
        {
          "internalType": "address",
          "name": "referrer",
          "type": "address"
        }
      ],
      "name": "deposit",
      "outputs": [
        {
          "internalType": "uint256",
          "name": "shares",
          "type": "uint256"
        }
      ],
      "stateMutability": "nonpayable",
      "type": "function"
    },
    {
      "inputs": [
        {
          "internalType": "uint256",
          "name": "shares",
          "type": "uint256"
        },
        {
          "internalType": "address",
          "name": "receiver",
          "type": "address"
        }
      ],
      "name": "enterExitQueue",
      "outputs": [
        {
          "internalType": "uint256",
          "name": "positionTicket",
          "type": "uint256"
        }
      ],
      "stateMutability": "nonpayable",
      "type": "function"
    },
    {
      "inputs": [],
      "name": "feePercent",
      "outputs": [
        {
          "internalType": "uint16",
          "name": "",
          "type": "uint16"
        }
      ],
      "stateMutability": "view",
      "type": "function"
    },
    {
      "inputs": [],
      "name": "feeRecipient",
      "outputs": [
        {
          "internalType": "address",
          "name": "",
          "type": "address"
        }
      ],
      "stateMutability": "view",
      "type": "function"
    },
    {
      "inputs": [
        {
          "internalType": "uint256",
          "name": "positionTicket",
          "type": "uint256"
        }
      ],
      "name": "getExitQueueIndex",
      "outputs": [
        {
          "internalType": "int256",
          "name": "",
          "type": "int256"
        }
      ],
      "stateMutability": "view",
      "type": "function"
    },
    {
      "inputs": [
        {
          "internalType": "address",
          "name": "account",
          "type": "address"
        }
      ],
      "name": "getShares",
      "outputs": [
        {
          "internalType": "uint256",
          "name": "",
          "type": "uint256"
        }
      ],
      "stateMutability": "view",
      "type": "function"
    },
    {
      "inputs": [],
      "name": "implementation",
      "outputs": [
        {
          "internalType": "address",
          "name": "",
          "type": "address"
        }
      ],
      "stateMutability": "view",
      "type": "function"
    },
    {
      "inputs": [
        {
          "internalType": "bytes",
          "name": "params",
          "type": "bytes"
        }
      ],
      "name": "initialize",
      "outputs": [],
      "stateMutability": "nonpayable",
      "type": "function"
    },
    {
      "inputs": [],
      "name": "isStateUpdateRequired",
      "outputs": [
        {
          "internalType": "bool",
          "name": "",
          "type": "bool"
        }
      ],
      "stateMutability": "view",
      "type": "function"
    },
    {
      "inputs": [
        {
          "internalType": "uint256",
          "name": "osTokenShares",
          "type": "uint256"
        },
        {
          "internalType": "address",
          "name": "owner",
          "type": "address"
        },
        {
          "internalType": "address",
          "name": "receiver",
          "type": "address"
        }
      ],
      "name": "liquidateOsToken",
      "outputs": [],
      "stateMutability": "nonpayable",
      "type": "function"
    },
    {
      "inputs": [],
      "name": "mevEscrow",
      "outputs": [
        {
          "internalType": "address",
          "name": "",
          "type": "address"
        }
      ],
      "stateMutability": "view",
      "type": "function"
    },
    {
      "inputs": [
        {
          "internalType": "address",
          "name": "receiver",
          "type": "address"
        },
        {
          "internalType": "uint256",
          "name": "osTokenShares",
          "type": "uint256"
        },
        {
          "internalType": "address",
          "name": "referrer",
          "type": "address"
        }
      ],
      "name": "mintOsToken",
      "outputs": [
        {
          "internalType": "uint256",
          "name": "assets",
          "type": "uint256"
        }
      ],
      "stateMutability": "nonpayable",
      "type": "function"
    },
    {
      "inputs": [
        {
          "internalType": "bytes[]",
          "name": "data",
          "type": "bytes[]"
        }
      ],
      "name": "multicall",
      "outputs": [
        {
          "internalType": "bytes[]",
          "name": "results",
          "type": "bytes[]"
        }
      ],
      "stateMutability": "nonpayable",
      "type": "function"
    },
    {
      "inputs": [],
      "name": "name",
      "outputs": [
        {
          "internalType": "string",
          "name": "",
          "type": "string"
        }
      ],
      "stateMutability": "view",
      "type": "function"
    },
    {
      "inputs": [
        {
          "internalType": "address",
          "name": "",
          "type": "address"
        }
      ],
      "name": "nonces",
      "outputs": [
        {
          "internalType": "uint256",
          "name": "",
          "type": "uint256"
        }
      ],
      "stateMutability": "view",
      "type": "function"
    },
    {
      "inputs": [
        {
          "internalType": "address",
          "name": "user",
          "type": "address"
        }
      ],
      "name": "osTokenPositions",
      "outputs": [
        {
          "internalType": "uint128",
          "name": "shares",
          "type": "uint128"
        }
      ],
      "stateMutability": "view",
      "type": "function"
    },
    {
      "inputs": [
        {
          "internalType": "address",
          "name": "owner",
          "type": "address"
        },
        {
          "internalType": "address",
          "name": "spender",
          "type": "address"
        },
        {
          "internalType": "uint256",
          "name": "value",
          "type": "uint256"
        },
        {
          "internalType": "uint256",
          "name": "deadline",
          "type": "uint256"
        },
        {
          "internalType": "uint8",
          "name": "v",
          "type": "uint8"
        },
        {
          "internalType": "bytes32",
          "name": "r",
          "type": "bytes32"
        },
        {
          "internalType": "bytes32",
          "name": "s",
          "type": "bytes32"
        }
      ],
      "name": "permit",
      "outputs": [],
      "stateMutability": "nonpayable",
      "type": "function"
    },
    {
      "inputs": [],
      "name": "proxiableUUID",
      "outputs": [
        {
          "internalType": "bytes32",
          "name": "",
          "type": "bytes32"
        }
      ],
      "stateMutability": "view",
      "type": "function"
    },
    {
      "inputs": [],
      "name": "queuedShares",
      "outputs": [
        {
          "internalType": "uint128",
          "name": "",
          "type": "uint128"
        }
      ],
      "stateMutability": "view",
      "type": "function"
    },
    {
      "inputs": [
        {
          "internalType": "uint256",
          "name": "osTokenShares",
          "type": "uint256"
        },
        {
          "internalType": "address",
          "name": "owner",
          "type": "address"
        },
        {
          "internalType": "address",
          "name": "receiver",
          "type": "address"
        }
      ],
      "name": "redeemOsToken",
      "outputs": [],
      "stateMutability": "nonpayable",
      "type": "function"
    },
    {
      "inputs": [
        {
          "components": [
            {
              "internalType": "bytes32",
              "name": "validatorsRegistryRoot",
              "type": "bytes32"
            },
            {
              "internalType": "uint256",
              "name": "deadline",
              "type": "uint256"
            },
            {
              "internalType": "bytes",
              "name": "validators",
              "type": "bytes"
            },
            {
              "internalType": "bytes",
              "name": "signatures",
              "type": "bytes"
            },
            {
              "internalType": "string",
              "name": "exitSignaturesIpfsHash",
              "type": "string"
            }
          ],
          "internalType": "struct IKeeperValidators.ApprovalParams",
          "name": "keeperParams",
          "type": "tuple"
        },
        {
          "internalType": "bytes",
          "name": "validatorsManagerSignature",
          "type": "bytes"
        }
      ],
      "name": "registerValidators",
      "outputs": [],
      "stateMutability": "nonpayable",
      "type": "function"
    },
    {
      "inputs": [
        {
          "internalType": "address",
          "name": "_feeRecipient",
          "type": "address"
        }
      ],
      "name": "setFeeRecipient",
      "outputs": [],
      "stateMutability": "nonpayable",
      "type": "function"
    },
    {
      "inputs": [
        {
          "internalType": "string",
          "name": "metadataIpfsHash",
          "type": "string"
        }
      ],
      "name": "setMetadata",
      "outputs": [],
      "stateMutability": "nonpayable",
      "type": "function"
    },
    {
      "inputs": [
        {
          "internalType": "address",
          "name": "validatorsManager_",
          "type": "address"
        }
      ],
      "name": "setValidatorsManager",
      "outputs": [],
      "stateMutability": "nonpayable",
      "type": "function"
    },
    {
      "inputs": [],
      "name": "swapXdaiToGno",
      "outputs": [],
      "stateMutability": "nonpayable",
      "type": "function"
    },
    {
      "inputs": [],
      "name": "symbol",
      "outputs": [
        {
          "internalType": "string",
          "name": "",
          "type": "string"
        }
      ],
      "stateMutability": "view",
      "type": "function"
    },
    {
      "inputs": [],
      "name": "totalAssets",
      "outputs": [
        {
          "internalType": "uint256",
          "name": "",
          "type": "uint256"
        }
      ],
      "stateMutability": "view",
      "type": "function"
    },
    {
      "inputs": [],
      "name": "totalExitingAssets",
      "outputs": [
        {
          "internalType": "uint128",
          "name": "",
          "type": "uint128"
        }
      ],
      "stateMutability": "view",
      "type": "function"
    },
    {
      "inputs": [],
      "name": "totalShares",
      "outputs": [
        {
          "internalType": "uint256",
          "name": "",
          "type": "uint256"
        }
      ],
      "stateMutability": "view",
      "type": "function"
    },
    {
      "inputs": [],
      "name": "totalSupply",
      "outputs": [
        {
          "internalType": "uint256",
          "name": "",
          "type": "uint256"
        }
      ],
      "stateMutability": "view",
      "type": "function"
    },
    {
      "inputs": [
        {
          "internalType": "address",
          "name": "to",
          "type": "address"
        },
        {
          "internalType": "uint256",
          "name": "amount",
          "type": "uint256"
        }
      ],
      "name": "transfer",
      "outputs": [
        {
          "internalType": "bool",
          "name": "",
          "type": "bool"
        }
      ],
      "stateMutability": "nonpayable",
      "type": "function"
    },
    {
      "inputs": [
        {
          "internalType": "address",
          "name": "from",
          "type": "address"
        },
        {
          "internalType": "address",
          "name": "to",
          "type": "address"
        },
        {
          "internalType": "uint256",
          "name": "amount",
          "type": "uint256"
        }
      ],
      "name": "transferFrom",
      "outputs": [
        {
          "internalType": "bool",
          "name": "",
          "type": "bool"
        }
      ],
      "stateMutability": "nonpayable",
      "type": "function"
    },
    {
      "inputs": [
        {
          "components": [
            {
              "internalType": "bytes32",
              "name": "rewardsRoot",
              "type": "bytes32"
            },
            {
              "internalType": "int160",
              "name": "reward",
              "type": "int160"
            },
            {
              "internalType": "uint160",
              "name": "unlockedMevReward",
              "type": "uint160"
            },
            {
              "internalType": "bytes32[]",
              "name": "proof",
              "type": "bytes32[]"
            }
          ],
          "internalType": "struct IKeeperRewards.HarvestParams",
          "name": "harvestParams",
          "type": "tuple"
        }
      ],
      "name": "updateState",
      "outputs": [],
      "stateMutability": "nonpayable",
      "type": "function"
    },
    {
      "inputs": [
        {
          "internalType": "address",
          "name": "newImplementation",
          "type": "address"
        },
        {
          "internalType": "bytes",
          "name": "data",
          "type": "bytes"
        }
      ],
      "name": "upgradeToAndCall",
      "outputs": [],
      "stateMutability": "payable",
      "type": "function"
    },
    {
      "inputs": [],
      "name": "validatorsManager",
      "outputs": [
        {
          "internalType": "address",
          "name": "",
          "type": "address"
        }
      ],
      "stateMutability": "view",
      "type": "function"
    },
    {
      "inputs": [],
      "name": "vaultId",
      "outputs": [
        {
          "internalType": "bytes32",
          "name": "",
          "type": "bytes32"
        }
      ],
      "stateMutability": "pure",
      "type": "function"
    },
    {
      "inputs": [],
      "name": "version",
      "outputs": [
        {
          "internalType": "uint8",
          "name": "",
          "type": "uint8"
        }
      ],
      "stateMutability": "pure",
      "type": "function"
    },
    {
      "inputs": [],
      "name": "withdrawableAssets",
      "outputs": [
        {
          "internalType": "uint256",
          "name": "",
          "type": "uint256"
        }
      ],
      "stateMutability": "view",
      "type": "function"
    },
    {
      "stateMutability": "payable",
      "type": "receive"
    }
  ],
  "bytecode": "0x610220346200023a5762005d8d38819003601f8101601f191683016001600160401b038111848210176200023e57839282916040528339610140928391810103126200023a57620000508162000252565b916200005f6020830162000252565b906200006e6040840162000252565b936200007d6060850162000252565b6200008b6080860162000252565b906200009a60a0870162000252565b92620000a960c0880162000252565b94620000b860e0890162000252565b9561010099620000ca8b8b0162000252565b98610120809b01519460805260a05260c0523060e052620000ea62000267565b468a52885246815261016091825260018060a01b038061018094168452806101a0951685526101c09586526101e0961686526102009687526200012c62000267565b60405197615a86998a620003078b396080518a8181611ad901528181611cad015281816133e1015281816136eb0152613777015260a0518a611815015260c0518a8181613da2015281816146b6015281816148d20152615294015260e0518a818161199501526140830152518961298d0152518861300d0152518761438e01525186611e530152518581816103d3015281816108fd01528181610bf901528181613044015281816139270152613a30015251848181610cb801528181611524015281816138ab0152613aef01525183818161296801526134290152518281816110c001528181613d51015281816147200152818161491c01528181614a2d015261500a01525181612f2e0152f35b5f80fd5b634e487b7160e01b5f52604160045260245ffd5b51906001600160a01b03821682036200023a57565b7ff0c57e16840df040f15088dc2f81fe391c3923bec73e23a9662efc9c229c6a00805460ff8160401c16620002f4576001600160401b036002600160401b031982821601620002b557505050565b6001600160401b031990911681179091556040519081527fc7f505b2f371ae2175ee4913f4499e1f2633a7b5936321eed1cdaeb6115181d290602090a1565b60405163f92ee8a960e01b8152600490fdfe6080604052600436101561001a575b3615610018575f80fd5b005b5f3560e01c806301e1d1141461033f578063066055e01461033a57806306fdde031461033557806307a2d13a14610330578063095ea7b31461032b57806318160ddd146102f45780631a7ff55314610326578063201b9eb51461032157806323b872dd1461031c5780632999ad3f146103175780632cdf7401146103125780632e2d29841461030d578063313ce567146103085780633229fa951461030357806333194c0a146102fe5780633644e515146102f95780633a98ef39146102f4578063439fab91146102ef57806343e82a79146102ea57806346904840146102e55780634ec96b22146102e05780634f1ef286146102db57806352d1902d146102d657806354fd4d50146102d15780635c60da1b146102cc5780635cfc1a51146102c757806360d60e6e146102c257806370a082311461025457806372b410a8146102bd578063754c3888146102b857806376b58b90146102b35780637ecebe00146102ae5780637fd6f15c146102a957806383d430d5146102a45780638697d2c21461029f5780638ceab9aa1461029a57806395d89b4114610295578063a49a1e7d14610290578063a9059cbb1461028b578063ac9650d814610286578063ad3cb1cc14610281578063b0d113021461027c578063b1f0e7c714610277578063c6e6f59214610272578063d505accf1461026d578063d83ad00c14610268578063dd62ed3e14610263578063e74b981b1461025e578063ee3bd5df14610259578063f04da65b146102545763f851a4400361000e57612814565b611a73565b6127ee565b6127c1565b612762565b61273c565b612527565b6124fe565b6124e4565b6124b1565b61246c565b612407565b612366565b612314565b612270565b612087565b611e27565b611c57565b611c33565b611bf8565b611ba7565b611b3b565b611aae565b611a55565b611a3b565b611a07565b6119ec565b611983565b6116fd565b61161a565b6115f2565b6114f5565b6112d7565b6107f6565b611262565b611228565b6111fc565b6111e1565b611073565b611059565b610bcf565b610af3565b610894565b61081c565b610754565b61071d565b610657565b610383565b610352565b5f91031261034e57565b5f80fd5b3461034e575f36600319011261034e57602060cf5460801c604051908152f35b6001600160801b0381160361034e57565b3461034e57602036600319011261034e576004356103a081610372565b604051633b9e9f0160e21b81523360048201526001600160801b03821660248201526020816044815f6001600160a01b037f0000000000000000000000000000000000000000000000000000000000000000165af1908115610522575f916104f3575b50335f90815261016e6020526040902061041c90612856565b916001600160801b0361043684516001600160801b031690565b16156104e15761048a8361044c6104dd9561302f565b6104766104698461046484516001600160801b031690565b61288f565b6001600160801b03168252565b335f90815261016e602052604090206128a8565b604080518381526001600160801b03909216602083015233917f3f7354ba02880b4fa37a629985852a38417ff369369ce1e52fa6f8342a9100a791819081015b0390a26040519081529081906020820190565b0390f35b60405163673f032f60e11b8152600490fd5b610515915060203d60201161051b575b61050d81836105dc565b81019061283c565b5f610403565b503d610503565b61284b565b90600182811c92168015610555575b602083101461054157565b634e487b7160e01b5f52602260045260245ffd5b91607f1691610536565b634e487b7160e01b5f52604160045260245ffd5b604081019081106001600160401b0382111761058e57604052565b61055f565b6001600160401b03811161058e57604052565b60a081019081106001600160401b0382111761058e57604052565b608081019081106001600160401b0382111761058e57604052565b90601f801991011681019081106001600160401b0382111761058e57604052565b5f5b83811061060e5750505f910152565b81810151838201526020016105ff565b90602091610637815180928185528580860191016105fd565b601f01601f1916010190565b90602061065492818152019061061e565b90565b3461034e575f36600319011261034e576040515f805461067681610527565b808452906020906001908181169081156106f357506001146106af575b6104dd856106a3818703826105dc565b60405191829182610643565b5f80805293505f805160206159b18339815191525b8385106106e0575050505081016020016106a3826104dd610693565b80548686018401529382019381016106c4565b8695506104dd969350602092506106a394915060ff191682840152151560051b8201019293610693565b3461034e57602036600319011261034e57602061073b6004356128d1565b604051908152f35b6001600160a01b0381160361034e57565b3461034e57604036600319011261034e5760043561077181610743565b6001600160a01b038116906024359082156107e4576107ac8291335f52600260205260405f209060018060a01b03165f5260205260405f2090565b556040519081527f8c5be1e5ebec7d5bd14f71427d1e84f3dd0314c0f7b2291e5b200ac8c7c3b92560203392a3602060405160018152f35b60405163d92e233d60e01b8152600490fd5b3461034e575f36600319011261034e5760206001600160801b0360cf5416604051908152f35b3461034e5760031960203682011261034e57600435906001600160401b03821161034e57608090823603011261034e5761085b610862916004016133b0565b9190613546565b61086857005b610870615388565b8061087757005b5f906040519081525f805160206159f183398151915260203092a3005b3461034e57606036600319011261034e576004356108b181610743565b60243590604435906108c282610743565b6108ca6136d0565b6108d261375c565b6040516329460cc560e11b81526001600160a01b0382811660048301526024820185905290926020917f00000000000000000000000000000000000000000000000000000000000000001682856044815f855af1948515610522575f95610ad4575b50335f90815261016e6020526040902061094d90612856565b926001600160801b0361096785516001600160801b031690565b1615610a705750506109788261302f565b6109a4610997610987876137e7565b84516001600160801b03166128f7565b6001600160801b03168352565b335f90815260d3602052604090206109c6906109c1905b546128d1565b613888565b6109e66109da84516001600160801b031690565b6001600160801b031690565b11610a5e57335f90815261016e602052604090206104dd957fa16d97739893e1436c9753925fb5cef174c4f368699dc86cc8fdb0e6e60f8e58939091610a2c91906128a8565b604080516001600160a01b039586168152602081018790529081019190915292166060830152339180608081016104ca565b604051633684c65960e01b8152600490fd5b806004926040519384809263752a536d60e01b82525afa91821561052257610ab292610aa3915f91610ab7575b506137e7565b6001600160801b031690840152565b610978565b610ace9150833d851161051b5761050d81836105dc565b5f610a9d565b610aec919550833d851161051b5761050d81836105dc565b935f610934565b3461034e57606036600319011261034e57600435610b1081610743565b60243590610b1d82610743565b6001600160a01b0381165f8181526002602090815260408083203384529091529020546044359160018201610b6d575b610b6184610b5c858883614c23565b613992565b60405160018152602090f35b919093818503948511610ba1575f928352600260209081526040808520338652909152909220939093559180610b61610b4d565b61287b565b606090600319011261034e5760043590602435610bc281610743565b9060443561065481610743565b3461034e57610bdd36610ba6565b906001600160a01b03808316156107e457610bf661375c565b807f00000000000000000000000000000000000000000000000000000000000000001691823b1561034e5760408051631d8557d760e01b815260049491905f81878183875af1801561052257611040575b506001600160a01b0383165f90815261016e60205260409020610c6990612856565b6001600160801b039283610c8483516001600160801b031690565b161561103057610c938261302f565b825163e48a5f7b60e01b8152308882019081529097906060908990819060200103818a7f0000000000000000000000000000000000000000000000000000000000000000165afa978815610522575f98610fff575b50602097888101956001600160401b03918280610d0c8a516001600160401b031690565b1614610fef57908c92918751918c8380610d386303d1689d60e11b988983528a83019190602083019252565b03818a5afa91821561052257610d64938e5f94610fca575b5050516001600160801b03165b169061315e565b96610d826109bb8a60018060a01b03165f5260d360205260405f2090565b928389118015610fba575b610faa57908b610dcb9392610da989516001600160801b031690565b908a51958692839283528983019190916001600160801b036020820193169052565b0381895afa91821561052257670de0b6b3a764000094610e1a948e5f95610f7d575b5050610e0c610dfe610e1292612d03565b93516001600160401b031690565b93612d03565b921690613257565b1015610f6f578351633b9e9f0160e21b815233918101918252602082018b905294939291889186919082905f90829060400103925af1908115610522577f61fd285f9e34a3dbfa9846bdcf22a023e37a3c93549902843b30dd74a18c535097610f4c95610ec493610f51575b5050610ea7610469610e978c6137e7565b83516001600160801b031661288f565b6001600160a01b0386165f90815261016e602052604090206128a8565b610ecd82614af4565b90610f0b610ef0610edd856137e7565b60cf5460801c036001600160801b031690565b6001600160801b0360cf549181199060801b1691161760cf55565b610f1582866154b8565b610f1f8389614a0f565b51948594169733978590949392606092608083019660018060a01b03168352602083015260408201520152565b0390a3005b81610f6792903d1061051b5761050d81836105dc565b505f80610e86565b835163185cfc6d60e11b8152fd5b610e12929550610fa0610e0c9282610dfe93903d1061051b5761050d81836105dc565b959250508e610ded565b875163efda1a2760e01b81528590fd5b50610fc3612912565b8911610d8d565b610d5d9294509081610fe792903d1061051b5761050d81836105dc565b92908e610d50565b8651630709133160e01b81528490fd5b61102291985060603d606011611029575b61101a81836105dc565b81019061382e565b965f610ce8565b503d611010565b825163673f032f60e11b81528790fd5b8061104d61105392610593565b80610344565b5f610c47565b3461034e575f36600319011261034e57602061073b612912565b3461034e5761108136610ba6565b9161108a613e19565b6040926110e484516323b872dd60e01b6020820152336024820152306044820152836064820152606481526110be816105a6565b7f0000000000000000000000000000000000000000000000000000000000000000614c9f565b6110ec61375c565b6001600160a01b0383169283156111d05782156111bf57826111136109da60cf5460801c90565b019061111d6129fe565b82116111ae57611194610ef0959361116e86947f861a4138e41fb21c121a7dbb1053df465c837fc77380cc7226189a662281be2c9461116961116160209c9a614b7a565b9a8b936137e7565b615320565b8551938452602084018790526001600160a01b0316604084015233929081906060820190565b0390a360015f80516020615a318339815191525551908152f35b85516304ffa0ff60e51b8152600490fd5b84516318374fd160e21b8152600490fd5b845163d92e233d60e01b8152600490fd5b3461034e575f36600319011261034e57602060405160128152f35b3461034e575f36600319011261034e57602061121661294f565b6040516001600160a01b039091168152f35b3461034e575f36600319011261034e5760206040517fd7358ee43135ceaf16fc3a6da49b8f2795ad16de0cf7f569aa7b9b1e67532fc48152f35b3461034e575f36600319011261034e57602061073b61298a565b9181601f8401121561034e578235916001600160401b03831161034e576020838186019501011161034e57565b602060031982011261034e57600435906001600160401b03821161034e576112d39160040161127c565b9091565b3461034e576112e5366112a9565b907ff0c57e16840df040f15088dc2f81fe391c3923bec73e23a9662efc9c229c6a009081549160409260ff81851c1680156114e1575b6114d05768ffffffffffffffffff191668010000000000000002179055815163e7f6f22560e01b8152926020908185600481335afa948515610522575f956114b1575b508351636f4fa30f60e01b8152908282600481335afa918215610522575f92611482575b50830194828487031261034e5783356001600160401b039485821161034e570160a08188031261034e576113b4611690565b93813585526113c48183016129d4565b908501528581013585811161034e57876113df9183016129e3565b86850152606081013585811161034e57876113fb9183016129e3565b6060850152608081013594851161034e577fc7f505b2f371ae2175ee4913f4499e1f2633a7b5936321eed1cdaeb6115181d2966114469561143c92016129e3565b6080840152613fb9565b7ff0c57e16840df040f15088dc2f81fe391c3923bec73e23a9662efc9c229c6a00805468ff0000000000000000191690555160028152602090a1005b6114a3919250833d85116114aa575b61149b81836105dc565b8101906129bf565b905f611382565b503d611491565b6114c9919550823d84116114aa5761149b81836105dc565b935f61135e565b835163f92ee8a960e01b8152600490fd5b5060026001600160401b038216101561131b565b3461034e5761150336610ba6565b60405163057453a760e31b81529091906001600160a01b03906020816004817f000000000000000000000000000000000000000000000000000000000000000086165afa80156105225782915f916115d3575b501633036115c15781610f4c61158e86867f57f5eb636bf62215c111b54545422f11dfb0cb115f606be905f0be08e8859dd396613a12565b604080516001600160a01b0390981688526020880198909852968601526060850195909552169233929081906080820190565b604051634ca8886760e01b8152600490fd5b6115ec915060203d6020116114aa5761149b81836105dc565b5f611556565b3461034e575f36600319011261034e57609c546040516001600160a01b039091168152602090f35b3461034e57602036600319011261034e5760043561163781610743565b60018060a01b03165f5261016e602052602060405f206040519061165a82610573565b54906001600160801b03918281169081835260801c84830152611682575b5116604051908152f35b61168b8161302f565b611678565b6040519061169d826105a6565b565b6040519061169d82610573565b6001600160401b03811161058e57601f01601f191660200190565b9291926116d3826116ac565b916116e160405193846105dc565b82948184528183011161034e578281602093845f960137010152565b60408060031936011261034e57600490813561171881610743565b6024356001600160401b03811161034e573660238201121561034e5761174790369060248187013591016116c7565b91611750614079565b8051926117878461177960209363439fab9160e01b85840152846024840152604483019061061e565b03601f1981018652856105dc565b61178f614079565b611797614159565b6001600160a01b0383811680159291908790841561194e575b84156118e0575b841561187c575b505082156117e6575b50506117d7576100188383615055565b516355299b4960e01b81528390fd5b83516345da87c560e01b81526001600160a01b03861688820190815292935091839183918290819060200103917f0000000000000000000000000000000000000000000000000000000000000000165afa918215610522575f9261184f575b5050155f806117c7565b61186e9250803d10611875575b61186681836105dc565b810190612af3565b5f80611845565b503d61185c565b855163054fd4d560e41b81529294508391839182905afa9081156105225760039160ff915f916118b3575b5016141591865f6117be565b6118d39150843d86116118d9575b6118cb81836105dc565b810190615040565b5f6118a7565b503d6118c1565b935050835163198ca60560e11b815282818981875afa9081156105225788917fd7358ee43135ceaf16fc3a6da49b8f2795ad16de0cf7f569aa7b9b1e67532fc4915f91611931575b501415936117b7565b6119489150853d871161051b5761050d81836105dc565b5f611928565b5f805160206159d183398151915254909450849061197c906001600160a01b03165b6001600160a01b031690565b14936117b0565b3461034e575f36600319011261034e577f00000000000000000000000000000000000000000000000000000000000000006001600160a01b031630036119da5760206040515f805160206159d18339815191528152f35b60405163703e46dd60e11b8152600490fd5b3461034e575f36600319011261034e57602060405160028152f35b3461034e575f36600319011261034e575f805160206159d1833981519152546040516001600160a01b039091168152602090f35b3461034e575f36600319011261034e57602061073b6129fe565b3461034e57602036600319011261034e57602061073b600435612a27565b3461034e57602036600319011261034e57600435611a9081610743565b60018060a01b03165f5260d3602052602060405f2054604051908152f35b3461034e575f36600319011261034e57604051633eb1acf760e11b81523060048201526020816024817f00000000000000000000000000000000000000000000000000000000000000006001600160a01b03165afa8015610522576020915f91611b1e575b506040519015158152f35b611b359150823d84116118755761186681836105dc565b5f611b13565b3461034e57602036600319011261034e57600435611b5881610743565b611b60614159565b61010980546001600160a01b0319166001600160a01b03929092169182179055337f6bdc78d8c88160b3fc3638e67f2afe523b3f4c7d00c56ebb6216790e4c3eb2cb5f80a3005b3461034e57608036600319011261034e576104dd611bdb600435611bca81610743565b606435906044359060243590612b14565b604080519384526020840192909252908201529081906060820190565b3461034e57602036600319011261034e57600435611c1581610743565b60018060a01b03165f526003602052602060405f2054604051908152f35b3461034e575f36600319011261034e57602061ffff609c5460a01c16604051908152f35b3461034e5760031960403682011261034e5760049081356001600160401b0380821161034e5760a082850193833603011261034e5760243590811161034e57611ca3903690850161127c565b6001600160a01b037f00000000000000000000000000000000000000000000000000000000000000008116803b1561034e5760405163837d444160e01b8152905f908290818381611cf68c828f01612c18565b03925af1801561052257611e14575b50611d0e61375c565b611d16612ff8565b9081163314159182611de5575b50509050611dd4576044019160b0611d3b8484612c96565b90500480158015611dbc575b611dac57611d5c611d56612912565b91612ceb565b11611d9d575060b0611d6e8383612c96565b9050145f14611d8a5761001891611d8491612c96565b906148b0565b61001891611d9791612c96565b90614680565b6040516396d8043360e01b8152fd5b50604051631c6c4cf360e31b8152fd5b50611dc78484612c96565b905060b082021415611d47565b604051634ca8886760e01b81528390fd5b611e089250611e02611e0c94611dfa88614388565b9236916116c7565b91614463565b1590565b805f80611d23565b8061104d611e2192610593565b5f611d05565b3461034e57606036600319011261034e57600435602435611e4c604435828433612b14565b9192611e787f000000000000000000000000000000000000000000000000000000000000000082612a1a565b4210801561207f575b8015612077575b612065577feb3b05c070c24f667611fdb3ff75fe007d42401c573aed8d8faca95fd00ccb5693611ecc86611ec76109da60d0546001600160801b031690565b6140d2565b15611fd357611f06611eeb611ee0866137e7565b60d05460801c61288f565b6001600160801b0360d0549181199060801b1691161760d055565b60408051336020820190815291810184905260608082018990528152601f1993915f91611f4a9190611f396080826105dc565b5190205f5260d260205260405f2090565b555f9360018311611f83575b50505050611f648233614a0f565b604080519485526020850191909152830152339180606081015b0390a2005b611fc992939450611f949088612a1a565b60408051336020820190815291810193909352606083018290529094909190611f399082608081015b039081018352826105dc565b555f808080611f56565b611fdb61375c565b612017611ffb611fea866137e7565b60d5546001600160801b031661288f565b6001600160801b03166001600160801b031960d554161760d555565b61204c612031612026856137e7565b60d55460801c61288f565b6001600160801b0360d5549181199060801b1691161760d555565b61206061205b8460d654612a1a565b60d655565b611f06565b604051630e3d8e8d60e11b8152600490fd5b508215611e88565b508115611e81565b3461034e5760408060031936011261034e57602435906004356120a983610743565b6120b161375c565b801561225f576001600160a01b03831690811561224e576120d1816128d1565b90811561223d576120e182615154565b6120ea836137e7565b60cf5460801c906120fa9161288f565b612119906001600160801b0360cf549181199060801b1691161760cf55565b61212382336154b8565b60d554958660801c828160d6549061213a91612a1a565b98612144876137e7565b612156916001600160801b03166128f7565b612176906001600160801b03166001600160801b031960d554161760d555565b61217f91612a1a565b612188906137e7565b6121a7906001600160801b0360d5549181199060801b1691161760d555565b85516001600160a01b03919091166020820190815242604083015260608083018990528252906121d86080826105dc565b5190206121ed905f5260d260205260405f2090565b5583518581526020810191909152604081019190915233907f869f12645d154414259c47bcb998b6b6983fae50e5e0c6053bc87d4330db9f2d90606090a361223433613992565b51908152602090f35b83516318374fd160e21b8152600490fd5b825163d92e233d60e01b8152600490fd5b8151636edcc52360e01b8152600490fd5b3461034e575f36600319011261034e576040515f6001805461229181610527565b80855291602091600181169081156106f357506001146122bb576104dd856106a3818703826105dc565b60015f90815293507fb10e2d527612073b26eecdfd717e6a320cf44b4afac2b0732d9fcbe2b7fa0cf65b838510612301575050505081016020016106a3826104dd610693565b80548686018401529382019381016122e5565b3461034e57611f7e7f2013570c343af8ab14a9778150e381a0fda34ed6368127a95fd5e7210cbec5bf612346366112a9565b9290612350614159565b6040519182916020835233956020840191612bf8565b3461034e57604036600319011261034e5761239060043561238681610743565b6024359033614c23565b61239933613992565b602060405160018152f35b6020808201906020835283518092526040830192602060408460051b8301019501935f915b8483106123d95750505050505090565b90919293949584806123f7600193603f198682030187528a5161061e565b98019301930191949392906123c9565b3461034e57602036600319011261034e576001600160401b0360043581811161034e573660238201121561034e57806004013591821161034e573660248360051b8301011161034e576104dd9160246124609201612e5e565b604051918291826123a4565b3461034e575f36600319011261034e576104dd60405161248b81610573565b60058152640352e302e360dc1b602082015260405191829160208352602083019061061e565b3461034e575f36600319011261034e576124c9613e19565b6124d1612f0b565b60015f80516020615a3183398151915255005b3461034e575f36600319011261034e576020611216612ff8565b3461034e57602036600319011261034e57602061073b600435614af4565b60ff81160361034e57565b3461034e5760e036600319011261034e5760043561254481610743565b60243561255081610743565b6044359060643592608435906125658261251c565b6001600160a01b038381169590929086156107e45742811061272a576020915f91611fbd61265889878a61261b61259a61298a565b6001600160a01b0384165f9081526003602052604090209097908054906001820190556040519586948d8601968791959493909260a09360c08401977f6e71edae12b1b97f4d1f60370fef10105fa2faae0126114a169c64845d6126c98552600180871b038092166020860152166040840152606083015260808201520152565b039161262f601f19938481018352826105dc565b5190206040519384918983019687909160429261190160f01b8352600283015260228201520190565b5190206040805191825260ff92909216602082015260a4359181019190915260c435606082015281805260809060015afa15610522575f5192828416801590811561271d575b5061270b576126f885916126e37f8c5be1e5ebec7d5bd14f71427d1e84f3dd0314c0f7b2291e5b200ac8c7c3b9259660018060a01b03165f52600260205260405f2090565b9060018060a01b03165f5260205260405f2090565b5560405193845216918060208101610f4c565b6040516323389ba560e21b8152600490fd5b905083831614155f61269e565b604051631ab7da6b60e01b8152600490fd5b3461034e575f36600319011261034e5760206001600160801b0360d05416604051908152f35b3461034e57604036600319011261034e5760206127b860043561278481610743565b6024359061279182610743565b60018060a01b03165f526002835260405f209060018060a01b03165f5260205260405f2090565b54604051908152f35b3461034e57602036600319011261034e576100186004356127e181610743565b6127e9614159565b614bc1565b3461034e575f36600319011261034e5760206001600160801b0360d55416604051908152f35b3461034e575f36600319011261034e576037546040516001600160a01b039091168152602090f35b9081602091031261034e575190565b6040513d5f823e3d90fd5b9060405161286381610573565b91546001600160801b038116835260801c6020830152565b634e487b7160e01b5f52601160045260245ffd5b6001600160801b039182169082160391908211610ba157565b815160209092015160801b6001600160801b0319166001600160801b0392909216919091179055565b60cf546001600160801b03811690816128e957505090565b916106549260801c90613257565b9190916001600160801b0380809416911601918211610ba157565b61291a613d2b565b60d0546001600160801b036129308183166128d1565b9060d55416019060801c01908181115f14612949570390565b50505f90565b6101a1546001600160a01b031680156129655790565b507f000000000000000000000000000000000000000000000000000000000000000090565b467f0000000000000000000000000000000000000000000000000000000000000000036129b75760045490565b610654613e93565b9081602091031261034e575161065481610743565b359061ffff8216820361034e57565b9080601f8301121561034e57816020610654933591016116c7565b60d4548061065457505f1990565b9060b08201809211610ba157565b91908201809211610ba157565b6001600160801b0360d05416612a3b615100565b908101809111610ba1578110612a6e57612a5f60d654612a596140e9565b90612a1a565b1115612a69575f90565b5f1990565b60d19060d1549182915f905b848210612a9457505050811015612a8e5790565b505f1990565b909193808316906001818518811c8301809311610ba1575f8790525f80516020615a118339815191528301546001600160a01b0316841015612adb575050935b9190612a7a565b909591019250612ad4565b5190811515820361034e57565b9081602091031261034e5761065490612ae6565b91908203918211610ba157565b604080516001600160a01b03909216602083019081529082019390935260608101829052909190612b5281608081015b03601f1981018352826105dc565b5190205f5260d260205260405f2054918215612bbc576001600160801b0360d0541690612b7d615100565b918201809211610ba1578391831015612baa5791612b9a926141ed565b90915b828103908111610ba15792565b5090612bb59161416d565b9091612b9d565b5050505f905f905f90565b9035601e198236030181121561034e5701602081359101916001600160401b03821161034e57813603831361034e57565b908060209392818452848401375f828201840152601f01601f1916010190565b9060a061065492602081528235602082015260208301356040820152612c54612c446040850185612bc7565b84606085015260c0840191612bf8565b90612c87612c7c612c686060870187612bc7565b601f19858703810160808701529591612bf8565b946080810190612bc7565b93909282860301910152612bf8565b903590601e198136030182121561034e57018035906001600160401b03821161034e5760200191813603831361034e57565b634e487b7160e01b5f52601260045260245ffd5b8115612ce6570490565b612cc8565b90670de0b6b3a76400009180830292830403610ba157565b90670de0b6b3a764000091828102928184041490151715610ba157565b6001600160401b03811161058e5760051b60200190565b90612d4182612d20565b612d4e60405191826105dc565b8281528092612d5f601f1991612d20565b01905f5b828110612d6f57505050565b806060602080938501015201612d63565b634e487b7160e01b5f52603260045260245ffd5b90821015612dab576112d39160051b810190612c96565b612d80565b908092918237015f815290565b3d15612de7573d90612dce826116ac565b91612ddc60405193846105dc565b82523d5f602084013e565b606090565b60208183031261034e578051906001600160401b03821161034e570181601f8201121561034e578051612e1e816116ac565b92612e2c60405194856105dc565b8184526020828401011161034e5761065491602080850191016105fd565b8051821015612dab5760209160051b010190565b919091612e6a83612d37565b925f5b818110612e7957505050565b5f80612e86838587612d94565b60409391612e98855180938193612db0565b0390305af490612ea6612dbd565b9115612ecd575090600191612ebb8288612e4a565b52612ec68187612e4a565b5001612e6d565b90604481511061034e57612f07612ef260049283810151602480918301019101612dec565b925162461bcd60e51b81529283928301610643565b0390fd5b47633b9aca008110612ff557604051638119c06560e01b815290602082600481847f00000000000000000000000000000000000000000000000000000000000000006001600160a01b03165af1918215610522575f92612fd4575b506001600160ff1b038211612fbb57907f07554795962e1f72c5bca846be8a8f44143aa1b4ced204ffc7899be95e7040db91612fa182613546565b60408051918252602082019290925290819081015b0390a1565b60405163123baf0360e11b815260048101839052602490fd5b612fee91925060203d60201161051b5761050d81836105dc565b905f612f66565b50565b610109546001600160a01b03168061065457507f000000000000000000000000000000000000000000000000000000000000000090565b60405163752a536d60e01b81526020816004817f00000000000000000000000000000000000000000000000000000000000000006001600160a01b03165afa908115610522575f916130c5575b5060208201916001600160801b039182845116918282146130be57836130b16130ac6130b9958584865116613257565b6137e7565b1690526137e7565b169052565b5050505050565b6130de915060203d60201161051b5761050d81836105dc565b5f61307c565b90808202905f1981840990828083109203918083039214613153576127109082821115613141577fbc01a36e2eb1c432ca57a786c226809d495182a9930be0ded288ce703afb7e91940990828211900360fc1b910360041c170290565b60405163227bc15360e01b8152600490fd5b505061271091500490565b90808202905f19818409908280831092039180830392146131c157670de0b6b3a76400009082821115613141577faccb18165bd6fe31ae1cf318dc5b51eee0e1ba569b88cd74c1773b91fac10669940990828211900360ee1b910360121c170290565b5050670de0b6b3a764000091500490565b90633b9aca0080830291905f198482099383808610950394808603951461324a578483111561314157829109815f038216809204600280826003021880830282030280830282030280830282030280830282030280830282030280920290030293600183805f03040190848311900302920304170290565b5050906106549250612cdc565b9091828202915f198482099383808610950394808603951461324a578483111561314157829109815f038216809204600280826003021880830282030280830282030280830282030280830282030280830282030280920290030293600183805f03040190848311900302920304170290565b9081606091031261034e57805191610654604060208401519301612ae6565b81835290916001600160fb1b03831161034e5760209260051b809284830137010190565b90602082528035602083015260208101358060130b80910361034e576040830152604081013561333c81610743565b6001600160a01b031660608381019190915281013536829003601e190181121561034e5701602081359101906001600160401b03811161034e578060051b3603821361034e5760a08360808061065496015201916132e9565b9190915f8382019384129112908015821691151617610ba157565b6040516325f56f1160e01b81526001600160a01b039291606090829081906133db906004830161330d565b03815f877f0000000000000000000000000000000000000000000000000000000000000000165af1928315610522575f915f905f95613501575b5084156134ae578161342561294f565b16917f00000000000000000000000000000000000000000000000000000000000000001682146134a757509060205f92600460405180958193634641257d60e01b83525af190811561052257613482925f92613486575b50613395565b9190565b6134a091925060203d60201161051b5761050d81836105dc565b905f61347c565b90816134b4575b50509190565b803b1561034e57604051636ee3193160e11b815260048101929092525f908290602490829084905af18015610522576134ee575b806134ae565b8061104d6134fb92610593565b5f6134e8565b91945050613527915060603d60601161352f575b61351f81836105dc565b8101906132ca565b93905f613415565b503d613515565b600160ff1b8114610ba1575f0390565b8015612ff55761355b6109da60cf5460801c90565b5f821261362d578161356c91612a1a565b90613579610ef0836137e7565b61358e609c549161ffff8360a01c16906130e4565b801561362857807f555ee6b2ef9506d870f386c067e47d3689435330b012ad263d8cc35318686547936135cc6109da60cf546001600160801b031690565b80613612575050612fb690925b6001600160a01b0316916135ed8484615320565b60405193849384604091949392606082019560018060a01b0316825260208201520152565b612fb69261362292039084613257565b926135d9565b505050565b9061363790613536565b61364c6109da60d5546001600160801b031690565b8061366c575b508061365c575050565b6130ac610ef09161169d93612b07565b906136c77f3623a54e8078be0d90ecfbef82da6a31ff3e6be8aa1718e7a7f3d0d33ff1d32a916136b7611ffb6136ac6136a58888612a1a565b8785613257565b8080940396036137e7565b6040519081529081906020820190565b0390a15f613652565b604051630156a69560e11b81523060048201526020816024817f00000000000000000000000000000000000000000000000000000000000000006001600160a01b03165afa908115610522575f9161373d575b501561372b57565b604051630a62fbdb60e11b8152600490fd5b613756915060203d6020116118755761186681836105dc565b5f613723565b604051633eb1acf760e11b81523060048201526020816024817f00000000000000000000000000000000000000000000000000000000000000006001600160a01b03165afa908115610522575f916137c8575b506137b657565b60405163e775715160e01b8152600490fd5b6137e1915060203d6020116118755761186681836105dc565b5f6137af565b6001600160801b03908181116137fb571690565b604490604051906306dfcc6560e41b8252608060048301526024820152fd5b51906001600160401b038216820361034e57565b9081606091031261034e5760405190606082018281106001600160401b0382111761058e57613880916040918252805161386781610372565b84526138756020820161381a565b60208501520161381a565b604082015290565b60405163e48a5f7b60e01b81523060048201526001600160a01b036060826024817f000000000000000000000000000000000000000000000000000000000000000085165afa801561052257613923936001600160401b03610d5d6040613902946020975f91613973575b5001516001600160401b031690565b9060405180809581946363737ac960e11b8352600483019190602083019252565b03917f0000000000000000000000000000000000000000000000000000000000000000165afa908115610522575f9161395a575090565b610654915060203d60201161051b5761050d81836105dc565b61398c915060603d6060116110295761101a81836105dc565b5f6138f3565b60018060a01b0381165f5261016e60205260405f2090604051916139b583610573565b54906001600160801b03918281169081855260801c602085015215613628576109c16109bb613a08926139e661375c565b6139ef8661302f565b6001600160a01b03165f90815260d36020526040902090565b91511611610a5e57565b92906001600160a01b0390818116156107e457613a2d61375c565b817f00000000000000000000000000000000000000000000000000000000000000001690813b1561034e57604094855193631d8557d760e01b85526004945f81878183895af1801561052257613d18575b506001600160a01b0388165f90815261016e60205260409020613aa090612856565b906001600160801b03613aba83516001600160801b031690565b1615613d0857613ac98261302f565b875163e48a5f7b60e01b81523087820190815290916060918391908290819060200103917f0000000000000000000000000000000000000000000000000000000000000000165afa801561052257613ce9575b508651936303d1689d60e11b97888652602091828780613b43888c83019190602083019252565b0381845afa968715610522575f97613cca575b508699613b766109bb8d60018060a01b03165f5260d360205260405f2090565b88118015613cba575b613caa579083613bbc92613b9a87516001600160801b031690565b908551948592839283528d83019190916001600160801b036020820193169052565b0381845afa988915610522575f85948894613c019c613c8d575b5051633b9e9f0160e21b815233928101928352602083019490945292998a9384929091839160400190565b03925af195861561052257610e97613c4894613c2b936104699361169d9a613c6f575b50506137e7565b6001600160a01b0388165f90815261016e602052604090206128a8565b613c6a613c5483614af4565b8097613c65610ef0610edd876137e7565b6154b8565b614a0f565b81613c8592903d1061051b5761050d81836105dc565b505f80613c24565b613ca390873d891161051b5761050d81836105dc565b505f613bd6565b825163efda1a2760e01b81528990fd5b50613cc3612912565b8811613b7f565b613ce2919750833d851161051b5761050d81836105dc565b955f613b56565b613d019060603d6060116110295761101a81836105dc565b505f613b1c565b875163673f032f60e11b81528690fd5b8061104d613d2592610593565b5f613a7e565b6040516370a0823160e01b81523060048201526020906001600160a01b039082816024817f000000000000000000000000000000000000000000000000000000000000000086165afa908115610522575f91613dfc575b5060405163be7ab51b60e01b8152306004820152918390839060249082907f0000000000000000000000000000000000000000000000000000000000000000165afa91821561052257610654935f93613ddd575b5050612a1a565b613df4929350803d1061051b5761050d81836105dc565b905f80613dd6565b613e139150833d851161051b5761050d81836105dc565b5f613d82565b5f80516020615a318339815191526002815414613e365760029055565b604051633ee5aeb560e01b8152600490fd5b6040516323b872dd60e01b60208201526001600160a01b039283166024820152919092166044820152633b9aca00606480830191909152815261169d91613e8e826105a6565b614c9f565b6040515f905f5490613ea482610527565b9283825260209384830193600190866001821691825f14613f99575050600114613f56575b50509181613edf613f5093612b449503826105dc565b519020604080517f8b73c3c69bb8fe3d512ecc4cf759cc79239f7b179b0ffacaa9a75d522b39400f95810195865260208601929092527fc89efdaa54c0f20c7adf612882df0950f5a951637e0307cdcb4c672f298b8bc69085015246606085015230608085015291829060a0850190565b51902090565b5f80805286935091905f805160206159b18339815191525b828410613f845750505082010181613edf613ec9565b80548685018601528794909301928101613f6e565b60ff1916875292151560051b85019092019250839150613edf9050613ec9565b9190613fc3614d10565b608082015190613fd1614d10565b6001600160a01b03841680156107e457614071946140619361404a926001600160601b0360a01b60375416176037557f2013570c343af8ab14a9778150e381a0fda34ed6368127a95fd5e7210cbec5bf60405160208152806140383394602083019061061e565b0390a2602085015161ffff1690614d51565b6140548351614da2565b61405c614dd2565b614dfe565b6060604082015191015190614e2d565b61169d614f5a565b6001600160a01b037f000000000000000000000000000000000000000000000000000000000000000081163081149182156140b7575b50506119da57565b5f805160206159d18339815191525416141590505f806140af565b906140db615100565b918201809211610ba1571090565b6140f1613d2b565b60d0548060801c8203918211610ba157816141156001600160801b038093166128d1565b908161413b575b5050811561294957610654916141369160d5541690615142565b615154565b919250908181111561415157035b905f8061411c565b50505f614149565b6037546001600160a01b031633036115c157565b6141756140e9565b9160d654928301809311610ba157808311156141bf57614196920390615142565b9060d5548060801c80155f146141ac5750508190565b6001600160801b03610654921684613257565b5050505f905f90565b906040516141d581610573565b91546001600160a01b038116835260a01c6020830152565b60d1545f948594939091808410801590614380575b614373578361433d575f5b60d15f526001600160a01b03166142325f80516020615a1183398151915286016141c8565b8051909790614249906001600160a01b0316611970565b9861426e6142626020809b01516001600160601b031690565b6001600160601b031690565b948381108015614333575b6143215791600193979a956142986142a4939488035b838c0390615142565b80920198870391613257565b01970193808611801590614317575b61430c5760d15f5282906142d55f80516020615a1183398151915287016141c8565b805190890151969992966001600160a01b0390911694600193926142a49290916001600160601b039091169061429890880361428f565b945050509250509190565b50818510156142b3565b60405163e8722f8f60e01b8152600490fd5b50808b1115614279565b60d15f527f695fb3134ad82c3b8022bc5464edd0bcc9424ef672b52245dcb6ab2374327ce28401546001600160a01b031661420d565b505093505050505f905f90565b508415614202565b604290467f0000000000000000000000000000000000000000000000000000000000000000036144375761010a54905b6143cf6143c86040830183612c96565b36916116c7565b602081519101206040519060208201927f838af86bfca91ada6557e38d913af1c2f24ef9b2567b3b77cc9e1144314b35b0845235604083015260608201526060815261441a816105c1565b5190206040519161190160f01b8352600283015260228201522090565b61443f61518b565b906143b8565b6004111561444f57565b634e487b7160e01b5f52602160045260245ffd5b61446d8383615258565b5061447a81959295614445565b159384614516575b508315614490575b50505090565b5f9293509082916040516144c881612b446020820194630b135d3f60e11b998a8752602484015260406044840152606483019061061e565b51915afa906144d5612dbd565b82614508575b826144eb575b50505f808061448a565b6145009192506020808251830101910161283c565b145f806144e1565b9150602082511015916144db565b6001600160a01b0383811691161493505f614482565b9061453682612d20565b61454360405191826105dc565b8281528092614554601f1991612d20565b0190602036910137565b9060301161034e5790603090565b9060901161034e5760300190606090565b9060b01161034e5760900190602090565b9093929384831161034e57841161034e578101920390565b6020908361169d9395949560405196836145c989955180928880890191016105fd565b84019185830137015f838201520380855201836105dc565b3590602081106145ef575090565b5f199060200360031b1b1690565b916020610654938181520191612bf8565b91926146386146286146469360808652608086019061061e565b602095858203602087015261061e565b90838203604085015261061e565b906060818303910152602080845192838152019301915f5b82811061466c575050505090565b83518552938101939281019260010161465e565b614688615292565b6060906060905f809460b081049261469f8461452c565b965f905b8582106147be57506001600160a01b03947f0000000000000000000000000000000000000000000000000000000000000000945061471a9350602092506146ea9150612ceb565b60405163095ea7b360e01b81526001600160a01b0385166004820152602481019190915291829081906044820190565b03815f877f0000000000000000000000000000000000000000000000000000000000000000165af180156105225761479f575b50166147576152f7565b813b1561034e575f80946147816040519788968795869463c82655b760e01b86526004860161460e565b03925af18015610522576147925750565b8061104d61169d92610593565b6147b79060203d6020116118755761186681836105dc565b505f61474d565b61484361481361481e6148006147f77f64b6e61d93b7a91e8cc4376183ede0997a27b44fd9dd2f30a866b2a5730efdb1959c9b9c612a0c565b8099898961458e565b92909a61480d848d61455e565b916145a6565b9a61480d838c61456c565b988b61483d86614837614831868661457d565b906145e1565b92612e4a565b5261455e565b90614853604051928392836145fd565b0390a1600101836146a3565b9294614898670de0b6b3a76400009661488a608097946148a6969b9a9b60a0895260a0890191612bf8565b90868203602088015261061e565b918483036040860152612bf8565b9460608201520152565b906148b9615292565b6148c3818361455e565b60405163095ea7b360e01b81527f00000000000000000000000000000000000000000000000000000000000000006001600160a01b038181166004840152670de0b6b3a76400006024840152929492916020816044815f7f000000000000000000000000000000000000000000000000000000000000000088165af18015610522576149f0575b5016906149556152f7565b9161496e614831614966848961456c565b94909861457d565b95813b1561034e575f809461499b604051998a9687958694630cac9f3160e01b86528c8c6004880161485f565b03925af1928315610522577f64b6e61d93b7a91e8cc4376183ede0997a27b44fd9dd2f30a866b2a5730efdb1936149dd575b50612fb6604051928392836145fd565b8061104d6149ea92610593565b5f6149cd565b614a089060203d6020116118755761186681836105dc565b505f61494a565b90614a18613e19565b6040516370a0823160e01b81523060048201527f0000000000000000000000000000000000000000000000000000000000000000906020816024816001600160a01b0386165afa93841561052257614ab294613e8e925f91614ad5575b508411614ac8575b60405163a9059cbb60e01b60208201526001600160a01b039190911660248201526044808201949094529283526064836105dc565b61169d60015f80516020615a3183398151915255565b614ad0615292565b614a7d565b614aee915060203d60201161051b5761050d81836105dc565b5f614a75565b60cf54906001600160801b03821681158015614b23575b15614b165750905090565b6106549260801c91613257565b508015614b0b565b60cf546001600160801b0381169081614b48575050633b9aca0090565b60801c614b5581836131d2565b918115612ce657633b9aca0009614b695790565b60018101809111156106545761287b565b60cf546001600160801b0381169082158015614bb9575b15614b9b57505090565b60801c90614baa828285613257565b928215612ce65709614b695790565b508115614b91565b614bc961375c565b6001600160a01b03168015614c1157609c80546001600160a01b03191682179055337faaebcf1bfa00580e41d966056b48521fa9f202645c86d4ddf28113e617c1b1d35f80a3565b604051630ed1b8b360e31b8152600490fd5b6001600160a01b03908116919082158015614c95575b6107e457825f5260d360205260405f2090815492858403938411610ba1575f805160206159f18339815191529360209355614c848160018060a01b03165f5260d360205260405f2090565b8681540190556040519586521693a3565b5080821615614c39565b5f80614cc79260018060a01b03169360208151910182865af1614cc0612dbd565b908361594d565b8051908115159182614cf5575b5050614cdd5750565b60249060405190635274afe760e01b82526004820152fd5b614d089250602080918301019101612af3565b155f80614cd4565b60ff7ff0c57e16840df040f15088dc2f81fe391c3923bec73e23a9662efc9c229c6a005460401c1615614d3f57565b604051631afcd79f60e31b8152600490fd5b614d59614d10565b61271061ffff831611614d9057614d6f90614bc1565b609c805461ffff60a01b191660a09290921b61ffff60a01b16919091179055565b604051638a81d3b360e01b8152600490fd5b614daa614d10565b8015614dc05760018101614dbb5750565b60d455565b6040516331278a8760e01b8152600490fd5b614dda614d10565b670de0b6b3a7640000614deb6129fe565b10614dc057614df861518b565b61010a55565b614e06614d10565b6001600160a01b031680614e175750565b6101a180546001600160a01b0319169091179055565b614e35614d10565b601e8151118015614f4f575b614f3d57614e4d614d10565b8051906001600160401b03821161058e57614e7182614e6c5f54610527565b615523565b602090816001601f851114614ec957509180614ea792614eae95945f92614ebe575b50508160011b915f199060031b1c19161790565b5f556155ed565b61169d614eb9613e93565b600455565b015190505f80614e93565b5f80529190601f1984165f805160206159b1833981519152935f905b828210614f25575050916001939185614eae97969410614f0d575b505050811b015f556155ed565b01515f1960f88460031b161c191690555f8080614f00565b80600186978294978701518155019601940190614ee5565b604051632d3f993760e21b8152600490fd5b50600a825111614e41565b614f62614d10565b614f6a614d10565b614f72614d10565b60015f80516020615a3183398151915255614f8b61375c565b30156107e457633b9aca008060cf5460801c01614fa66129fe565b811161502e57614fc0610ef0614fba614b2b565b926137e7565b614fca8130615320565b60405191825260208201525f604082015230907f861a4138e41fb21c121a7dbb1053df465c837fc77380cc7226189a662281be2c60603392a361169d30337f0000000000000000000000000000000000000000000000000000000000000000613e48565b6040516304ffa0ff60e51b8152600490fd5b9081602091031261034e57516106548161251c565b6040516352d1902d60e01b81529290916020846004816001600160a01b0387165afa5f94816150df575b506150a557604051634c9c8ce360e01b81526001600160a01b0384166004820152602490fd5b90915f805160206159d183398151915284036150c65761169d9293506156cb565b604051632a87526960e21b815260048101859052602490fd5b6150f991955060203d60201161051b5761050d81836105dc565b935f61507f565b60d1548061510d57505f90565b60d15f527f695fb3134ad82c3b8022bc5464edd0bcc9424ef672b52245dcb6ab2374327ce201546001600160a01b0316611970565b908082101561514f575090565b905090565b60d554908160801c81158015615183575b156151705750905090565b6001600160801b03610654931691613257565b508015615165565b6e5661756c7456616c696461746f727360881b60206040516151ac81610573565b600f8152015260405160208101907f8b73c3c69bb8fe3d512ecc4cf759cc79239f7b179b0ffacaa9a75d522b39400f82527f35d6cf9768d8be929c3a11ed667b1560ae6f1920195a985758fdd7265505d1ca60408201527fc89efdaa54c0f20c7adf612882df0950f5a951637e0307cdcb4c672f298b8bc660608201524660808201523060a082015260a0815260c081018181106001600160401b0382111761058e5760405251902090565b8151919060418303615288576152819250602082015190606060408401519301515f1a9061576d565b9192909190565b50505f9160029190565b7f00000000000000000000000000000000000000000000000000000000000000006001600160a01b0316803b1561034e575f809160246040518094819363a3066aab60e01b83523060048401525af18015610522576152ee5750565b61169d90610593565b604051600160f81b60208201525f60218201523060601b602c8201526020815261065481610573565b5f805160206159f183398151915260205f9261533b856137e7565b60cf54906153536001600160801b03918284166128f7565b6001600160801b031990921691161760cf556001600160a01b031680845260d3825260408085208054870190555194855293a3565b60d054906001600160801b0382169182156154b25760801c6153c36153b4826153af613d2b565b612b07565b6153bd856128d1565b90615142565b9081156154ab576153d382614af4565b9384156154a35782615420611eeb6130ac61169d96610ef09661541b6153ff6130ac8d6154989a612b07565b6001600160801b03166001600160801b031960d054161760d055565b612a1a565b61542a818761585f565b60408051878152602081018390527f624ea167e477f9d39f7f4094b9dfe2e6346eb4a7aada54338db51abd554c4b9f9190a16130ac61547c61546b886137e7565b60cf546001600160801b031661288f565b6001600160801b03166001600160801b031960cf54161760cf55565b60cf5460801c61288f565b505f93505050565b505f925050565b505f9150565b6001600160a01b03165f81815260d360205260409020805483810391908211610ba1575f935f805160206159f183398151915292602092556154f9816137e7565b60cf54906001600160801b03908183160316906001600160801b0319161760cf55604051908152a3565b601f811161552f575050565b5f80525f805160206159b1833981519152906020601f840160051c83019310615572575b601f0160051c01905b818110615567575050565b5f815560010161555c565b9091508190615553565b90601f8211615589575050565b60019160015f527fb10e2d527612073b26eecdfd717e6a320cf44b4afac2b0732d9fcbe2b7fa0cf6906020601f840160051c830193106155e3575b601f0160051c01905b8181106155d957505050565b5f815582016155cd565b90915081906155c4565b9081516001600160401b03811161058e576001906156148161560f8454610527565b61557c565b602080601f8311600114615649575081906156459394955f92614ebe5750508160011b915f199060031b1c19161790565b9055565b90601f1983169561567b60015f527fb10e2d527612073b26eecdfd717e6a320cf44b4afac2b0732d9fcbe2b7fa0cf690565b925f905b8882106156b4575050838596971061569c575b505050811b019055565b01515f1960f88460031b161c191690555f8080615692565b80878596829496860151815501950193019061567f565b90813b1561574c575f805160206159d183398151915280546001600160a01b0319166001600160a01b0384169081179091557fbc7cd75a20ee27fd9adebab32041f755214dbc6bffa90cc0225b39da2e5c2d3b5f80a280511561573157612ff591615934565b50503461573a57565b60405163b398979f60e01b8152600490fd5b604051634c9c8ce360e01b81526001600160a01b0383166004820152602490fd5b90917f7fffffffffffffffffffffffffffffff5d576e7357a4501ddfe92f46681b20a084116157f657906157c66020945f9493604051948594859094939260ff6060936080840197845216602083015260408201520152565b838052039060015afa15610522575f516001600160a01b038116156157ec57905f905f90565b505f906001905f90565b5050505f9160039190565b60d154906801000000000000000082101561058e57600182018060d155821015612dab5760d15f52805160209091015160a01b6001600160a01b0319166001600160a01b0391909116175f80516020615a1183398151915290910155565b9190918015801561592c575b61591a57615877615100565b908101809111610ba1576001600160a01b038082116158fa576001600160601b03908185116158da579061169d93946158c46158d5936158b561169f565b95166001600160a01b03168552565b166001600160601b03166020830152565b615801565b6040516306dfcc6560e41b81526060600482015260248101869052604490fd5b6040516306dfcc6560e41b815260a0600482015260248101839052604490fd5b604051632ec8835b60e21b8152600490fd5b50821561586b565b5f8061065493602081519101845af461594b612dbd565b915b90615974575080511561596257805190602001fd5b604051630a12f52160e11b8152600490fd5b815115806159a7575b615985575090565b604051639996b31560e01b81526001600160a01b039091166004820152602490fd5b50803b1561597d56fe290decd9548b62a8d60345a988386fc84ba6bc95484008f6362f93160ef3e563360894a13ba1a3210667c828492db98dca3e2076cc3735a920a3ca505d382bbcddf252ad1be2c89b69c2b068fc378daa952ba7f163c4a11628f55a4df523b3ef695fb3134ad82c3b8022bc5464edd0bcc9424ef672b52245dcb6ab2374327ce39b779b17422d0df92223018b32b4d1fa46e071723d6817e2486d003becc55f00a26469706673582212208b01db5292bb89ece855b79c6de0cffe4d0ab4b183e773755cfcc0c4955317eb64736f6c63430008160033",
  "linkReferences": {},
  "deployedLinkReferences": {}
}