{
  "_format": "hh-sol-artifact-1",
  "contractName": "GnoGenesisVault",
  "sourceName": "contracts/vaults/gnosis/GnoGenesisVault.sol",
  "abi": [
    {
      "inputs": [
        {
          "internalType": "address",
          "name": "_keeper",
          "type": "address"
        },
        {
          "internalType": "address",
          "name": "_vaultsRegistry",
          "type": "address"
        },
        {
          "internalType": "address",
          "name": "_validatorsRegistry",
          "type": "address"
        },
        {
          "internalType": "address",
          "name": "osTokenVaultController",
          "type": "address"
        },
        {
          "internalType": "address",
          "name": "osTokenConfig",
          "type": "address"
        },
        {
          "internalType": "address",
          "name": "sharedMevEscrow",
          "type": "address"
        },
        {
          "internalType": "address",
          "name": "depositDataRegistry",
          "type": "address"
        },
        {
          "internalType": "address",
          "name": "gnoToken",
          "type": "address"
        },
        {
          "internalType": "address",
          "name": "xdaiExchange",
          "type": "address"
        },
        {
          "internalType": "address",
          "name": "poolEscrow",
          "type": "address"
        },
        {
          "internalType": "address",
          "name": "rewardGnoToken",
          "type": "address"
        },
        {
          "internalType": "uint256",
          "name": "exitingAssetsClaimDelay",
          "type": "uint256"
        }
      ],
      "stateMutability": "nonpayable",
      "type": "constructor"
    },
    {
      "inputs": [],
      "name": "AccessDenied",
      "type": "error"
    },
    {
      "inputs": [
        {
          "internalType": "address",
          "name": "target",
          "type": "address"
        }
      ],
      "name": "AddressEmptyCode",
      "type": "error"
    },
    {
      "inputs": [
        {
          "internalType": "address",
          "name": "account",
          "type": "address"
        }
      ],
      "name": "AddressInsufficientBalance",
      "type": "error"
    },
    {
      "inputs": [],
      "name": "CapacityExceeded",
      "type": "error"
    },
    {
      "inputs": [
        {
          "internalType": "address",
          "name": "implementation",
          "type": "address"
        }
      ],
      "name": "ERC1967InvalidImplementation",
      "type": "error"
    },
    {
      "inputs": [],
      "name": "ERC1967NonPayable",
      "type": "error"
    },
    {
      "inputs": [],
      "name": "ExitRequestNotProcessed",
      "type": "error"
    },
    {
      "inputs": [],
      "name": "FailedInnerCall",
      "type": "error"
    },
    {
      "inputs": [],
      "name": "InsufficientAssets",
      "type": "error"
    },
    {
      "inputs": [],
      "name": "InvalidAssets",
      "type": "error"
    },
    {
      "inputs": [],
      "name": "InvalidCapacity",
      "type": "error"
    },
    {
      "inputs": [],
      "name": "InvalidCheckpointIndex",
      "type": "error"
    },
    {
      "inputs": [],
      "name": "InvalidFeePercent",
      "type": "error"
    },
    {
      "inputs": [],
      "name": "InvalidFeeRecipient",
      "type": "error"
    },
    {
      "inputs": [],
      "name": "InvalidHealthFactor",
      "type": "error"
    },
    {
      "inputs": [],
      "name": "InvalidInitialHarvest",
      "type": "error"
    },
    {
      "inputs": [],
      "name": "InvalidInitialization",
      "type": "error"
    },
    {
      "inputs": [],
      "name": "InvalidPosition",
      "type": "error"
    },
    {
      "inputs": [],
      "name": "InvalidReceivedAssets",
      "type": "error"
    },
    {
      "inputs": [],
      "name": "InvalidShares",
      "type": "error"
    },
    {
      "inputs": [],
      "name": "InvalidValidators",
      "type": "error"
    },
    {
      "inputs": [],
      "name": "LiquidationDisabled",
      "type": "error"
    },
    {
      "inputs": [],
      "name": "LowLtv",
      "type": "error"
    },
    {
      "inputs": [],
      "name": "MathOverflowedMulDiv",
      "type": "error"
    },
    {
      "inputs": [],
      "name": "NotCollateralized",
      "type": "error"
    },
    {
      "inputs": [],
      "name": "NotHarvested",
      "type": "error"
    },
    {
      "inputs": [],
      "name": "NotInitializing",
      "type": "error"
    },
    {
      "inputs": [],
      "name": "ReentrancyGuardReentrantCall",
      "type": "error"
    },
    {
      "inputs": [
        {
          "internalType": "uint8",
          "name": "bits",
          "type": "uint8"
        },
        {
          "internalType": "uint256",
          "name": "value",
          "type": "uint256"
        }
      ],
      "name": "SafeCastOverflowedUintDowncast",
      "type": "error"
    },
    {
      "inputs": [
        {
          "internalType": "uint256",
          "name": "value",
          "type": "uint256"
        }
      ],
      "name": "SafeCastOverflowedUintToInt",
      "type": "error"
    },
    {
      "inputs": [
        {
          "internalType": "address",
          "name": "token",
          "type": "address"
        }
      ],
      "name": "SafeERC20FailedOperation",
      "type": "error"
    },
    {
      "inputs": [],
      "name": "UUPSUnauthorizedCallContext",
      "type": "error"
    },
    {
      "inputs": [
        {
          "internalType": "bytes32",
          "name": "slot",
          "type": "bytes32"
        }
      ],
      "name": "UUPSUnsupportedProxiableUUID",
      "type": "error"
    },
    {
      "inputs": [],
      "name": "UpgradeFailed",
      "type": "error"
    },
    {
      "inputs": [],
      "name": "ZeroAddress",
      "type": "error"
    },
    {
      "anonymous": false,
      "inputs": [
        {
          "indexed": false,
          "internalType": "uint256",
          "name": "shares",
          "type": "uint256"
        },
        {
          "indexed": false,
          "internalType": "uint256",
          "name": "assets",
          "type": "uint256"
        }
      ],
      "name": "CheckpointCreated",
      "type": "event"
    },
    {
      "anonymous": false,
      "inputs": [
        {
          "indexed": true,
          "internalType": "address",
          "name": "caller",
          "type": "address"
        },
        {
          "indexed": true,
          "internalType": "address",
          "name": "receiver",
          "type": "address"
        },
        {
          "indexed": false,
          "internalType": "uint256",
          "name": "assets",
          "type": "uint256"
        },
        {
          "indexed": false,
          "internalType": "uint256",
          "name": "shares",
          "type": "uint256"
        },
        {
          "indexed": false,
          "internalType": "address",
          "name": "referrer",
          "type": "address"
        }
      ],
      "name": "Deposited",
      "type": "event"
    },
    {
      "anonymous": false,
      "inputs": [
        {
          "indexed": true,
          "internalType": "address",
          "name": "owner",
          "type": "address"
        },
        {
          "indexed": true,
          "internalType": "address",
          "name": "receiver",
          "type": "address"
        },
        {
          "indexed": false,
          "internalType": "uint256",
          "name": "positionTicket",
          "type": "uint256"
        },
        {
          "indexed": false,
          "internalType": "uint256",
          "name": "shares",
          "type": "uint256"
        }
      ],
      "name": "ExitQueueEntered",
      "type": "event"
    },
    {
      "anonymous": false,
      "inputs": [
        {
          "indexed": true,
          "internalType": "address",
          "name": "receiver",
          "type": "address"
        },
        {
          "indexed": false,
          "internalType": "uint256",
          "name": "prevPositionTicket",
          "type": "uint256"
        },
        {
          "indexed": false,
          "internalType": "uint256",
          "name": "newPositionTicket",
          "type": "uint256"
        },
        {
          "indexed": false,
          "internalType": "uint256",
          "name": "withdrawnAssets",
          "type": "uint256"
        }
      ],
      "name": "ExitedAssetsClaimed",
      "type": "event"
    },
    {
      "anonymous": false,
      "inputs": [
        {
          "indexed": false,
          "internalType": "uint256",
          "name": "penalty",
          "type": "uint256"
        }
      ],
      "name": "ExitingAssetsPenalized",
      "type": "event"
    },
    {
      "anonymous": false,
      "inputs": [
        {
          "indexed": true,
          "internalType": "address",
          "name": "caller",
          "type": "address"
        },
        {
          "indexed": true,
          "internalType": "address",
          "name": "feeRecipient",
          "type": "address"
        }
      ],
      "name": "FeeRecipientUpdated",
      "type": "event"
    },
    {
      "anonymous": false,
      "inputs": [
        {
          "indexed": false,
          "internalType": "address",
          "name": "receiver",
          "type": "address"
        },
        {
          "indexed": false,
          "internalType": "uint256",
          "name": "shares",
          "type": "uint256"
        },
        {
          "indexed": false,
          "internalType": "uint256",
          "name": "assets",
          "type": "uint256"
        }
      ],
      "name": "FeeSharesMinted",
      "type": "event"
    },
    {
      "anonymous": false,
      "inputs": [
        {
          "indexed": false,
          "internalType": "address",
          "name": "admin",
          "type": "address"
        },
        {
          "indexed": false,
          "internalType": "uint256",
          "name": "capacity",
          "type": "uint256"
        },
        {
          "indexed": false,
          "internalType": "uint16",
          "name": "feePercent",
          "type": "uint16"
        },
        {
          "indexed": false,
          "internalType": "string",
          "name": "metadataIpfsHash",
          "type": "string"
        }
      ],
      "name": "GenesisVaultCreated",
      "type": "event"
    },
    {
      "anonymous": false,
      "inputs": [
        {
          "indexed": false,
          "internalType": "uint64",
          "name": "version",
          "type": "uint64"
        }
      ],
      "name": "Initialized",
      "type": "event"
    },
    {
      "anonymous": false,
      "inputs": [
        {
          "indexed": true,
          "internalType": "address",
          "name": "caller",
          "type": "address"
        },
        {
          "indexed": true,
          "internalType": "address",
          "name": "keysManager",
          "type": "address"
        }
      ],
      "name": "KeysManagerUpdated",
      "type": "event"
    },
    {
      "anonymous": false,
      "inputs": [
        {
          "indexed": true,
          "internalType": "address",
          "name": "caller",
          "type": "address"
        },
        {
          "indexed": false,
          "internalType": "string",
          "name": "metadataIpfsHash",
          "type": "string"
        }
      ],
      "name": "MetadataUpdated",
      "type": "event"
    },
    {
      "anonymous": false,
      "inputs": [
        {
          "indexed": false,
          "internalType": "address",
          "name": "receiver",
          "type": "address"
        },
        {
          "indexed": false,
          "internalType": "uint256",
          "name": "assets",
          "type": "uint256"
        },
        {
          "indexed": false,
          "internalType": "uint256",
          "name": "shares",
          "type": "uint256"
        }
      ],
      "name": "Migrated",
      "type": "event"
    },
    {
      "anonymous": false,
      "inputs": [
        {
          "indexed": true,
          "internalType": "address",
          "name": "caller",
          "type": "address"
        },
        {
          "indexed": false,
          "internalType": "uint256",
          "name": "assets",
          "type": "uint256"
        },
        {
          "indexed": false,
          "internalType": "uint256",
          "name": "shares",
          "type": "uint256"
        }
      ],
      "name": "OsTokenBurned",
      "type": "event"
    },
    {
      "anonymous": false,
      "inputs": [
        {
          "indexed": true,
          "internalType": "address",
          "name": "caller",
          "type": "address"
        },
        {
          "indexed": true,
          "internalType": "address",
          "name": "user",
          "type": "address"
        },
        {
          "indexed": false,
          "internalType": "address",
          "name": "receiver",
          "type": "address"
        },
        {
          "indexed": false,
          "internalType": "uint256",
          "name": "osTokenShares",
          "type": "uint256"
        },
        {
          "indexed": false,
          "internalType": "uint256",
          "name": "shares",
          "type": "uint256"
        },
        {
          "indexed": false,
          "internalType": "uint256",
          "name": "receivedAssets",
          "type": "uint256"
        }
      ],
      "name": "OsTokenLiquidated",
      "type": "event"
    },
    {
      "anonymous": false,
      "inputs": [
        {
          "indexed": true,
          "internalType": "address",
          "name": "caller",
          "type": "address"
        },
        {
          "indexed": false,
          "internalType": "address",
          "name": "receiver",
          "type": "address"
        },
        {
          "indexed": false,
          "internalType": "uint256",
          "name": "assets",
          "type": "uint256"
        },
        {
          "indexed": false,
          "internalType": "uint256",
          "name": "shares",
          "type": "uint256"
        },
        {
          "indexed": false,
          "internalType": "address",
          "name": "referrer",
          "type": "address"
        }
      ],
      "name": "OsTokenMinted",
      "type": "event"
    },
    {
      "anonymous": false,
      "inputs": [
        {
          "indexed": true,
          "internalType": "address",
          "name": "caller",
          "type": "address"
        },
        {
          "indexed": true,
          "internalType": "address",
          "name": "user",
          "type": "address"
        },
        {
          "indexed": false,
          "internalType": "address",
          "name": "receiver",
          "type": "address"
        },
        {
          "indexed": false,
          "internalType": "uint256",
          "name": "osTokenShares",
          "type": "uint256"
        },
        {
          "indexed": false,
          "internalType": "uint256",
          "name": "shares",
          "type": "uint256"
        },
        {
          "indexed": false,
          "internalType": "uint256",
          "name": "assets",
          "type": "uint256"
        }
      ],
      "name": "OsTokenRedeemed",
      "type": "event"
    },
    {
      "anonymous": false,
      "inputs": [
        {
          "indexed": true,
          "internalType": "address",
          "name": "owner",
          "type": "address"
        },
        {
          "indexed": true,
          "internalType": "address",
          "name": "receiver",
          "type": "address"
        },
        {
          "indexed": false,
          "internalType": "uint256",
          "name": "assets",
          "type": "uint256"
        },
        {
          "indexed": false,
          "internalType": "uint256",
          "name": "shares",
          "type": "uint256"
        }
      ],
      "name": "Redeemed",
      "type": "event"
    },
    {
      "anonymous": false,
      "inputs": [
        {
          "indexed": true,
          "internalType": "address",
          "name": "implementation",
          "type": "address"
        }
      ],
      "name": "Upgraded",
      "type": "event"
    },
    {
      "anonymous": false,
      "inputs": [
        {
          "indexed": true,
          "internalType": "address",
          "name": "owner",
          "type": "address"
        },
        {
          "indexed": true,
          "internalType": "address",
          "name": "receiver",
          "type": "address"
        },
        {
          "indexed": false,
          "internalType": "uint256",
          "name": "positionTicket",
          "type": "uint256"
        },
        {
          "indexed": false,
          "internalType": "uint256",
          "name": "shares",
          "type": "uint256"
        },
        {
          "indexed": false,
          "internalType": "uint256",
          "name": "assets",
          "type": "uint256"
        }
      ],
      "name": "V2ExitQueueEntered",
      "type": "event"
    },
    {
      "anonymous": false,
      "inputs": [
        {
          "indexed": false,
          "internalType": "bytes",
          "name": "publicKey",
          "type": "bytes"
        }
      ],
      "name": "ValidatorRegistered",
      "type": "event"
    },
    {
      "anonymous": false,
      "inputs": [
        {
          "indexed": true,
          "internalType": "address",
          "name": "caller",
          "type": "address"
        },
        {
          "indexed": true,
          "internalType": "address",
          "name": "validatorsManager",
          "type": "address"
        }
      ],
      "name": "ValidatorsManagerUpdated",
      "type": "event"
    },
    {
      "anonymous": false,
      "inputs": [
        {
          "indexed": true,
          "internalType": "address",
          "name": "caller",
          "type": "address"
        },
        {
          "indexed": true,
          "internalType": "bytes32",
          "name": "validatorsRoot",
          "type": "bytes32"
        }
      ],
      "name": "ValidatorsRootUpdated",
      "type": "event"
    },
    {
      "anonymous": false,
      "inputs": [
        {
          "indexed": false,
          "internalType": "uint256",
          "name": "amount",
          "type": "uint256"
        },
        {
          "indexed": false,
          "internalType": "uint256",
          "name": "assets",
          "type": "uint256"
        }
      ],
      "name": "XdaiSwapped",
      "type": "event"
    },
    {
      "inputs": [],
      "name": "UPGRADE_INTERFACE_VERSION",
      "outputs": [
        {
          "internalType": "string",
          "name": "",
          "type": "string"
        }
      ],
      "stateMutability": "view",
      "type": "function"
    },
    {
      "inputs": [],
      "name": "acceptPoolEscrowOwnership",
      "outputs": [],
      "stateMutability": "nonpayable",
      "type": "function"
    },
    {
      "inputs": [],
      "name": "admin",
      "outputs": [
        {
          "internalType": "address",
          "name": "",
          "type": "address"
        }
      ],
      "stateMutability": "view",
      "type": "function"
    },
    {
      "inputs": [
        {
          "internalType": "uint128",
          "name": "osTokenShares",
          "type": "uint128"
        }
      ],
      "name": "burnOsToken",
      "outputs": [
        {
          "internalType": "uint256",
          "name": "assets",
          "type": "uint256"
        }
      ],
      "stateMutability": "nonpayable",
      "type": "function"
    },
    {
      "inputs": [
        {
          "internalType": "address",
          "name": "receiver",
          "type": "address"
        },
        {
          "internalType": "uint256",
          "name": "positionTicket",
          "type": "uint256"
        },
        {
          "internalType": "uint256",
          "name": "timestamp",
          "type": "uint256"
        },
        {
          "internalType": "uint256",
          "name": "exitQueueIndex",
          "type": "uint256"
        }
      ],
      "name": "calculateExitedAssets",
      "outputs": [
        {
          "internalType": "uint256",
          "name": "leftTickets",
          "type": "uint256"
        },
        {
          "internalType": "uint256",
          "name": "exitedTickets",
          "type": "uint256"
        },
        {
          "internalType": "uint256",
          "name": "exitedAssets",
          "type": "uint256"
        }
      ],
      "stateMutability": "view",
      "type": "function"
    },
    {
      "inputs": [],
      "name": "capacity",
      "outputs": [
        {
          "internalType": "uint256",
          "name": "",
          "type": "uint256"
        }
      ],
      "stateMutability": "view",
      "type": "function"
    },
    {
      "inputs": [
        {
          "internalType": "uint256",
          "name": "positionTicket",
          "type": "uint256"
        },
        {
          "internalType": "uint256",
          "name": "timestamp",
          "type": "uint256"
        },
        {
          "internalType": "uint256",
          "name": "exitQueueIndex",
          "type": "uint256"
        }
      ],
      "name": "claimExitedAssets",
      "outputs": [],
      "stateMutability": "nonpayable",
      "type": "function"
    },
    {
      "inputs": [
        {
          "internalType": "uint256",
          "name": "shares",
          "type": "uint256"
        }
      ],
      "name": "convertToAssets",
      "outputs": [
        {
          "internalType": "uint256",
          "name": "assets",
          "type": "uint256"
        }
      ],
      "stateMutability": "view",
      "type": "function"
    },
    {
      "inputs": [
        {
          "internalType": "uint256",
          "name": "assets",
          "type": "uint256"
        }
      ],
      "name": "convertToShares",
      "outputs": [
        {
          "internalType": "uint256",
          "name": "shares",
          "type": "uint256"
        }
      ],
      "stateMutability": "view",
      "type": "function"
    },
    {
      "inputs": [
        {
          "internalType": "uint256",
          "name": "assets",
          "type": "uint256"
        },
        {
          "internalType": "address",
          "name": "receiver",
          "type": "address"
        },
        {
          "internalType": "address",
          "name": "referrer",
          "type": "address"
        }
      ],
      "name": "deposit",
      "outputs": [
        {
          "internalType": "uint256",
          "name": "shares",
          "type": "uint256"
        }
      ],
      "stateMutability": "nonpayable",
      "type": "function"
    },
    {
      "inputs": [
        {
          "internalType": "uint256",
          "name": "shares",
          "type": "uint256"
        },
        {
          "internalType": "address",
          "name": "receiver",
          "type": "address"
        }
      ],
      "name": "enterExitQueue",
      "outputs": [
        {
          "internalType": "uint256",
          "name": "positionTicket",
          "type": "uint256"
        }
      ],
      "stateMutability": "nonpayable",
      "type": "function"
    },
    {
      "inputs": [],
      "name": "feePercent",
      "outputs": [
        {
          "internalType": "uint16",
          "name": "",
          "type": "uint16"
        }
      ],
      "stateMutability": "view",
      "type": "function"
    },
    {
      "inputs": [],
      "name": "feeRecipient",
      "outputs": [
        {
          "internalType": "address",
          "name": "",
          "type": "address"
        }
      ],
      "stateMutability": "view",
      "type": "function"
    },
    {
      "inputs": [
        {
          "internalType": "uint256",
          "name": "positionTicket",
          "type": "uint256"
        }
      ],
      "name": "getExitQueueIndex",
      "outputs": [
        {
          "internalType": "int256",
          "name": "",
          "type": "int256"
        }
      ],
      "stateMutability": "view",
      "type": "function"
    },
    {
      "inputs": [
        {
          "internalType": "address",
          "name": "account",
          "type": "address"
        }
      ],
      "name": "getShares",
      "outputs": [
        {
          "internalType": "uint256",
          "name": "",
          "type": "uint256"
        }
      ],
      "stateMutability": "view",
      "type": "function"
    },
    {
      "inputs": [],
      "name": "implementation",
      "outputs": [
        {
          "internalType": "address",
          "name": "",
          "type": "address"
        }
      ],
      "stateMutability": "view",
      "type": "function"
    },
    {
      "inputs": [
        {
          "internalType": "bytes",
          "name": "params",
          "type": "bytes"
        }
      ],
      "name": "initialize",
      "outputs": [],
      "stateMutability": "nonpayable",
      "type": "function"
    },
    {
      "inputs": [],
      "name": "isStateUpdateRequired",
      "outputs": [
        {
          "internalType": "bool",
          "name": "",
          "type": "bool"
        }
      ],
      "stateMutability": "view",
      "type": "function"
    },
    {
      "inputs": [
        {
          "internalType": "uint256",
          "name": "osTokenShares",
          "type": "uint256"
        },
        {
          "internalType": "address",
          "name": "owner",
          "type": "address"
        },
        {
          "internalType": "address",
          "name": "receiver",
          "type": "address"
        }
      ],
      "name": "liquidateOsToken",
      "outputs": [],
      "stateMutability": "nonpayable",
      "type": "function"
    },
    {
      "inputs": [],
      "name": "mevEscrow",
      "outputs": [
        {
          "internalType": "address",
          "name": "",
          "type": "address"
        }
      ],
      "stateMutability": "view",
      "type": "function"
    },
    {
      "inputs": [
        {
          "internalType": "address",
          "name": "receiver",
          "type": "address"
        },
        {
          "internalType": "uint256",
          "name": "assets",
          "type": "uint256"
        }
      ],
      "name": "migrate",
      "outputs": [
        {
          "internalType": "uint256",
          "name": "shares",
          "type": "uint256"
        }
      ],
      "stateMutability": "nonpayable",
      "type": "function"
    },
    {
      "inputs": [
        {
          "internalType": "address",
          "name": "receiver",
          "type": "address"
        },
        {
          "internalType": "uint256",
          "name": "osTokenShares",
          "type": "uint256"
        },
        {
          "internalType": "address",
          "name": "referrer",
          "type": "address"
        }
      ],
      "name": "mintOsToken",
      "outputs": [
        {
          "internalType": "uint256",
          "name": "assets",
          "type": "uint256"
        }
      ],
      "stateMutability": "nonpayable",
      "type": "function"
    },
    {
      "inputs": [
        {
          "internalType": "bytes[]",
          "name": "data",
          "type": "bytes[]"
        }
      ],
      "name": "multicall",
      "outputs": [
        {
          "internalType": "bytes[]",
          "name": "results",
          "type": "bytes[]"
        }
      ],
      "stateMutability": "nonpayable",
      "type": "function"
    },
    {
      "inputs": [
        {
          "internalType": "address",
          "name": "user",
          "type": "address"
        }
      ],
      "name": "osTokenPositions",
      "outputs": [
        {
          "internalType": "uint128",
          "name": "shares",
          "type": "uint128"
        }
      ],
      "stateMutability": "view",
      "type": "function"
    },
    {
      "inputs": [],
      "name": "proxiableUUID",
      "outputs": [
        {
          "internalType": "bytes32",
          "name": "",
          "type": "bytes32"
        }
      ],
      "stateMutability": "view",
      "type": "function"
    },
    {
      "inputs": [],
      "name": "queuedShares",
      "outputs": [
        {
          "internalType": "uint128",
          "name": "",
          "type": "uint128"
        }
      ],
      "stateMutability": "view",
      "type": "function"
    },
    {
      "inputs": [
        {
          "internalType": "uint256",
          "name": "osTokenShares",
          "type": "uint256"
        },
        {
          "internalType": "address",
          "name": "owner",
          "type": "address"
        },
        {
          "internalType": "address",
          "name": "receiver",
          "type": "address"
        }
      ],
      "name": "redeemOsToken",
      "outputs": [],
      "stateMutability": "nonpayable",
      "type": "function"
    },
    {
      "inputs": [
        {
          "components": [
            {
              "internalType": "bytes32",
              "name": "validatorsRegistryRoot",
              "type": "bytes32"
            },
            {
              "internalType": "uint256",
              "name": "deadline",
              "type": "uint256"
            },
            {
              "internalType": "bytes",
              "name": "validators",
              "type": "bytes"
            },
            {
              "internalType": "bytes",
              "name": "signatures",
              "type": "bytes"
            },
            {
              "internalType": "string",
              "name": "exitSignaturesIpfsHash",
              "type": "string"
            }
          ],
          "internalType": "struct IKeeperValidators.ApprovalParams",
          "name": "keeperParams",
          "type": "tuple"
        },
        {
          "internalType": "bytes",
          "name": "validatorsManagerSignature",
          "type": "bytes"
        }
      ],
      "name": "registerValidators",
      "outputs": [],
      "stateMutability": "nonpayable",
      "type": "function"
    },
    {
      "inputs": [
        {
          "internalType": "address",
          "name": "_feeRecipient",
          "type": "address"
        }
      ],
      "name": "setFeeRecipient",
      "outputs": [],
      "stateMutability": "nonpayable",
      "type": "function"
    },
    {
      "inputs": [
        {
          "internalType": "string",
          "name": "metadataIpfsHash",
          "type": "string"
        }
      ],
      "name": "setMetadata",
      "outputs": [],
      "stateMutability": "nonpayable",
      "type": "function"
    },
    {
      "inputs": [
        {
          "internalType": "address",
          "name": "validatorsManager_",
          "type": "address"
        }
      ],
      "name": "setValidatorsManager",
      "outputs": [],
      "stateMutability": "nonpayable",
      "type": "function"
    },
    {
      "inputs": [],
      "name": "swapXdaiToGno",
      "outputs": [],
      "stateMutability": "nonpayable",
      "type": "function"
    },
    {
      "inputs": [],
      "name": "totalAssets",
      "outputs": [
        {
          "internalType": "uint256",
          "name": "",
          "type": "uint256"
        }
      ],
      "stateMutability": "view",
      "type": "function"
    },
    {
      "inputs": [],
      "name": "totalExitingAssets",
      "outputs": [
        {
          "internalType": "uint128",
          "name": "",
          "type": "uint128"
        }
      ],
      "stateMutability": "view",
      "type": "function"
    },
    {
      "inputs": [],
      "name": "totalShares",
      "outputs": [
        {
          "internalType": "uint256",
          "name": "",
          "type": "uint256"
        }
      ],
      "stateMutability": "view",
      "type": "function"
    },
    {
      "inputs": [
        {
          "components": [
            {
              "internalType": "bytes32",
              "name": "rewardsRoot",
              "type": "bytes32"
            },
            {
              "internalType": "int160",
              "name": "reward",
              "type": "int160"
            },
            {
              "internalType": "uint160",
              "name": "unlockedMevReward",
              "type": "uint160"
            },
            {
              "internalType": "bytes32[]",
              "name": "proof",
              "type": "bytes32[]"
            }
          ],
          "internalType": "struct IKeeperRewards.HarvestParams",
          "name": "harvestParams",
          "type": "tuple"
        }
      ],
      "name": "updateState",
      "outputs": [],
      "stateMutability": "nonpayable",
      "type": "function"
    },
    {
      "inputs": [
        {
          "internalType": "address",
          "name": "newImplementation",
          "type": "address"
        },
        {
          "internalType": "bytes",
          "name": "data",
          "type": "bytes"
        }
      ],
      "name": "upgradeToAndCall",
      "outputs": [],
      "stateMutability": "payable",
      "type": "function"
    },
    {
      "inputs": [],
      "name": "validatorsManager",
      "outputs": [
        {
          "internalType": "address",
          "name": "",
          "type": "address"
        }
      ],
      "stateMutability": "view",
      "type": "function"
    },
    {
      "inputs": [],
      "name": "vaultId",
      "outputs": [
        {
          "internalType": "bytes32",
          "name": "",
          "type": "bytes32"
        }
      ],
      "stateMutability": "pure",
      "type": "function"
    },
    {
      "inputs": [],
      "name": "version",
      "outputs": [
        {
          "internalType": "uint8",
          "name": "",
          "type": "uint8"
        }
      ],
      "stateMutability": "pure",
      "type": "function"
    },
    {
      "inputs": [],
      "name": "withdrawableAssets",
      "outputs": [
        {
          "internalType": "uint256",
          "name": "",
          "type": "uint256"
        }
      ],
      "stateMutability": "view",
      "type": "function"
    },
    {
      "stateMutability": "payable",
      "type": "receive"
    }
  ],
  "bytecode": "0x610240346200033457620056e7601f38829003908101601f19168301906001600160401b039081831185841017620003385780859460409485528539610180938491810103126200033457620000e4926200005a856200034c565b9162000069602087016200034c565b93620000778188016200034c565b9262000086606089016200034c565b9762000095608082016200034c565b94620000a460a083016200034c565b93620000b360c084016200034c565b96620000c260e085016200034c565b966101009c8d9a620000d68c88016200034c565b9a6101209e8f89016200034c565b9c61014097620000f6898b016200034c565b9f610160809b01519460805260a05260c0523060e052528d469052855260018060a01b03928380921687521686526101a0968752816101c0981688526101e09889527ff0c57e16840df040f15088dc2f81fe391c3923bec73e23a9662efc9c229c6a009081549060ff82861c1662000323578080831603620002de575b50505080610200991689526102209916895251986153859a8b620003628c396080518b8181610518015281816117e60152818161197e01528181613037015281816133ba0152613446015260a0518b61156e015260c0518b8181613a40015281816142bd015281816144d901528181614f220152615230015260e0518b81816116dd0152613c350152518a612c6301525189613f9601525188611b2401525187818161033d0152818161074c01528181610a1201528181612c9a015281816135e40152613680015251868181610ad1015281816111fb01528181613568015261373f015251858181612563015261307f015251848181610ef9015281816139cd01528181614327015281816145230152818161463401528181614a7301528181614ca20152614f9e01525183612bb10152518281816105e10152818161095d015281816122250152818161399a0152614efe01525181818161057f0152818161211e01526131d90152f35b6001600160401b0319909116811790915582519081527fc7f505b2f371ae2175ee4913f4499e1f2633a7b5936321eed1cdaeb6115181d290602090a15f808062000173565b845163f92ee8a960e01b8152600490fd5b5f80fd5b634e487b7160e01b5f52604160045260245ffd5b51906001600160a01b0382168203620003345756fe6080604052600436101561001a575b3615610018575f80fd5b005b5f3560e01c806301e1d114146102a9578063066055e0146102a457806307a2d13a1461029f5780631a7ff5531461029a578063201b9eb51461029557806323d18ed8146102905780632999ad3f1461028b5780632cdf7401146102865780632e2d2984146102815780633229fa951461027c57806333194c0a146102775780633a98ef3914610272578063439fab911461026d57806343e82a791461026857806346904840146102635780634ec96b221461025e5780634f1ef2861461025957806352d1902d1461025457806354fd4d501461024f5780635c60da1b1461024a5780635cfc1a511461024557806360d60e6e1461024057806372b410a81461023b578063754c38881461023657806376b58b90146102315780637fd6f15c1461022c57806383d430d5146102275780638697d2c2146102225780638ceab9aa1461021d578063a49a1e7d14610218578063ac9650d814610213578063ad3cb1cc1461020e578063ad68ebf714610209578063b0d1130214610204578063b1f0e7c7146101ff578063c6e6f592146101fa578063d83ad00c146101f5578063e74b981b146101f0578063ee3bd5df146101eb578063f04da65b146101e65763f851a4400361000e5761239f565b612364565b61233e565b612311565b6122eb565b6122cd565b6122b3565b612280565b6120f2565b6120ad565b612037565b611f3c565b611d53565b611af8565b611928565b611904565b6118b3565b611848565b6117bb565b61179d565b611783565b61174f565b611734565b6116cb565b611456565b6112f1565b6112c9565b6111cc565b611101565b611080565b611046565b61101a565b610e9e565b610e84565b6109e8565b610942565b6106e3565b6104b7565b610491565b6102ed565b6102bc565b5f9103126102b857565b5f80fd5b346102b8575f3660031901126102b857602060985460801c604051908152f35b6001600160801b038116036102b857565b346102b85760203660031901126102b85760043561030a816102dc565b604051633b9e9f0160e21b81523360048201526001600160801b03821660248201526020816044815f6001600160a01b037f0000000000000000000000000000000000000000000000000000000000000000165af190811561048c575f9161045d575b50335f90815261013760205260409020610386906123e0565b916001600160801b036103a084516001600160801b031690565b161561044b576103f4836103b661044795612c85565b6103e06103d3846103ce84516001600160801b031690565b612419565b6001600160801b03168252565b335f90815261013760205260409020612437565b604080518381526001600160801b03909216602083015233917f3f7354ba02880b4fa37a629985852a38417ff369369ce1e52fa6f8342a9100a791819081015b0390a26040519081529081906020820190565b0390f35b60405163673f032f60e11b8152600490fd5b61047f915060203d602011610485575b61047781836113e4565b8101906123c6565b5f61036d565b503d61046d565b6123d5565b346102b85760203660031901126102b85760206104af600435612469565b604051908152f35b346102b857602060031981813601126102b8576004918235916001600160401b0383116102b85760809083360301126102b857604051630156a69560e11b81523084820190815290926001600160a01b0392918290859081906020010381867f0000000000000000000000000000000000000000000000000000000000000000165afa93841561048c575f9461069f575b50610554908501613006565b50809315610566575b610018846131c5565b60405163070aab0d60e11b8152929350909190828286817f000000000000000000000000000000000000000000000000000000000000000088165afa801561048c576001600160801b036105c6916105cc945f91610672575b501661318c565b906124c5565b91604051638da5cb5b60e01b815282818681857f0000000000000000000000000000000000000000000000000000000000000000165afa92831561048c575f93610643575b505016301480159061063a575b61062a5781808061055d565b5060405163c284f82560e01b8152fd5b505f811261061e565b610663929350803d1061066b575b61065b81836113e4565b8101906124dd565b905f80610611565b503d610651565b6106929150863d8811610698575b61068a81836113e4565b8101906124b0565b5f6105bf565b503d610680565b6105549194506106c490833d85116106cb575b6106bc81836113e4565b81019061249c565b9390610548565b503d6106b2565b6001600160a01b038116036102b857565b346102b85760603660031901126102b857600435610700816106d2565b6024359060443590610711826106d2565b61071961339f565b61072161342b565b6040516329460cc560e11b81526001600160a01b0382811660048301526024820185905290926020917f00000000000000000000000000000000000000000000000000000000000000001682856044815f855af194851561048c575f95610923575b50335f9081526101376020526040902061079c906123e0565b926001600160801b036107b685516001600160801b031690565b16156108bf5750506107c782612c85565b6107f36107e66107d6876134b6565b84516001600160801b03166124f2565b6001600160801b03168352565b335f908152609c6020526040902061081590610810905b54612469565b613545565b61083561082984516001600160801b031690565b6001600160801b031690565b116108ad57335f90815261013760205260409020610447957fa16d97739893e1436c9753925fb5cef174c4f368699dc86cc8fdb0e6e60f8e5893909161087b9190612437565b604080516001600160a01b03958616815260208101879052908101919091529216606083015233918060808101610434565b604051633684c65960e01b8152600490fd5b806004926040519384809263752a536d60e01b82525afa91821561048c57610901926108f2915f91610906575b506134b6565b6001600160801b031690840152565b6107c7565b61091d9150833d85116104855761047781836113e4565b5f6108ec565b61093b919550833d85116104855761047781836113e4565b935f610783565b346102b8575f806003193601126102b85761095b61364f565b7f00000000000000000000000000000000000000000000000000000000000000006001600160a01b0316803b156102b8575f809160046040518094819363b4b6d74f60e01b83525af1801561048c576109b2575080f35b610018915061137b565b60609060031901126102b857600435906024356109d8816106d2565b906044356109e5816106d2565b90565b346102b8576109f6366109bc565b906001600160a01b0380831615610e7257610a0f61342b565b807f00000000000000000000000000000000000000000000000000000000000000001691823b156102b85760408051631d8557d760e01b815260049491905f81878183875af1801561048c57610e59575b506001600160a01b0383165f90815261013760205260409020610a82906123e0565b6001600160801b039283610a9d83516001600160801b031690565b1615610e4957610aac82612c85565b825163e48a5f7b60e01b8152308882019081529097906060908990819060200103818a7f0000000000000000000000000000000000000000000000000000000000000000165afa97881561048c575f98610e18575b50602097888101956001600160401b03918280610b258a516001600160401b031690565b1614610e0857908c92918751918c8380610b516303d1689d60e11b988983528a83019190602083019252565b03818a5afa91821561048c57610b7d938e5f94610de3575b5050516001600160801b03165b1690612d3a565b96610b9b61080a8a60018060a01b03165f52609c60205260405f2090565b928389118015610dd3575b610dc357908b610be49392610bc289516001600160801b031690565b908a51958692839283528983019190916001600160801b036020820193169052565b0381895afa91821561048c57670de0b6b3a764000094610c33948e5f95610d96575b5050610c25610c17610c2b92612987565b93516001600160401b031690565b93612987565b921690612ead565b1015610d88578351633b9e9f0160e21b815233918101918252602082018b905294939291889186919082905f90829060400103925af190811561048c577f61fd285f9e34a3dbfa9846bdcf22a023e37a3c93549902843b30dd74a18c535097610d6595610cdd93610d6a575b5050610cc06103d3610cb08c6134b6565b83516001600160801b0316612419565b6001600160a01b0386165f90815261013760205260409020612437565b610ce68261474c565b90610d24610d09610cf6856134b6565b60985460801c036001600160801b031690565b6001600160801b036098549181199060801b16911617609855565b610d2e8286614a00565b610d388389614616565b51948594169733978590949392606092608083019660018060a01b03168352602083015260408201520152565b0390a3005b81610d8092903d106104855761047781836113e4565b505f80610c9f565b835163185cfc6d60e11b8152fd5b610c2b929550610db9610c259282610c1793903d106104855761047781836113e4565b959250508e610c06565b875163efda1a2760e01b81528590fd5b50610ddc61250d565b8911610ba6565b610b769294509081610e0092903d106104855761047781836113e4565b92908e610b69565b8651630709133160e01b81528490fd5b610e3b91985060603d606011610e42575b610e3381836113e4565b8101906134fd565b965f610b01565b503d610e29565b825163673f032f60e11b81528790fd5b80610e66610e6c9261137b565b806102ae565b5f610a60565b60405163d92e233d60e01b8152600490fd5b346102b8575f3660031901126102b85760206104af61250d565b346102b857610eac366109bc565b91610eb5613ab9565b604080516323b872dd60e01b602082015233602482015230604482015260648101839052909390610f1d90610ef781608481015b03601f1981018352826113e4565b7f0000000000000000000000000000000000000000000000000000000000000000614ae5565b610f2561342b565b6001600160a01b038316928315611009578215610ff85782610f4c61082960985460801c90565b0190610f566126b1565b8211610fe757610fcd610d099593610fa786947f861a4138e41fb21c121a7dbb1053df465c837fc77380cc7226189a662281be2c94610fa2610f9a60209c9a6147d2565b9a8b936134b6565b614700565b8551938452602084018790526001600160a01b0316604084015233929081906060820190565b0390a360015f805160206153308339815191525551908152f35b85516304ffa0ff60e51b8152600490fd5b84516318374fd160e21b8152600490fd5b845163d92e233d60e01b8152600490fd5b346102b8575f3660031901126102b857602061103461254a565b6040516001600160a01b039091168152f35b346102b8575f3660031901126102b85760206040517f017d4155da73718dbec8960abca1d9f85d2dc8a31aa06e2d8e4410b4b093144a8152f35b346102b8575f3660031901126102b85760206001600160801b0360985416604051908152f35b9181601f840112156102b8578235916001600160401b0383116102b857602083818601950101116102b857565b60206003198201126102b857600435906001600160401b0382116102b8576110fd916004016110a6565b9091565b346102b85761110f366110d3565b907ff0c57e16840df040f15088dc2f81fe391c3923bec73e23a9662efc9c229c6a009182549160ff8360401c1680156111b8575b6111a657680100000000000000036111699368ffffffffffffffffff19161784556125b4565b68ff00000000000000001981541690557fc7f505b2f371ae2175ee4913f4499e1f2633a7b5936321eed1cdaeb6115181d2602060405160038152a1005b60405163f92ee8a960e01b8152600490fd5b5060036001600160401b0384161015611143565b346102b8576111da366109bc565b60405163057453a760e31b81529091906001600160a01b03906020816004817f000000000000000000000000000000000000000000000000000000000000000086165afa801561048c5782915f916112aa575b501633036112985781610d6561126586867f57f5eb636bf62215c111b54545422f11dfb0cb115f606be905f0be08e8859dd396613662565b604080516001600160a01b0390981688526020880198909852968601526060850195909552169233929081906080820190565b604051634ca8886760e01b8152600490fd5b6112c3915060203d60201161066b5761065b81836113e4565b5f61122d565b346102b8575f3660031901126102b8576065546040516001600160a01b039091168152602090f35b346102b85760203660031901126102b85760043561130e816106d2565b60018060a01b03165f52610137602052602060405f206040519061133182611393565b54906001600160801b03918281169081835260801c84830152611359575b5116604051908152f35b61136281612c85565b61134f565b634e487b7160e01b5f52604160045260245ffd5b6001600160401b03811161138e57604052565b611367565b604081019081106001600160401b0382111761138e57604052565b606081019081106001600160401b0382111761138e57604052565b608081019081106001600160401b0382111761138e57604052565b90601f801991011681019081106001600160401b0382111761138e57604052565b6001600160401b03811161138e57601f01601f191660200190565b92919261142c82611405565b9161143a60405193846113e4565b8294818452818301116102b8578281602093845f960137010152565b6040806003193601126102b8576004908135611471816106d2565b6024356001600160401b0381116102b857366023820112156102b8576114a09036906024818701359101611420565b916114a9613c2b565b8051926114e0846114d260209363439fab9160e01b858401528460248401526044830190611faf565b03601f1981018652856113e4565b6114e8613c2b565b6114f061364f565b6001600160a01b03838116801592919087908415611696575b8415611628575b84156115c5575b5050821561153f575b5050611530576100188383614cf1565b516355299b4960e01b81528390fd5b83516345da87c560e01b81526001600160a01b03861688820190815292935091839183918290819060200103917f0000000000000000000000000000000000000000000000000000000000000000165afa91821561048c575f926115a8575b5050155f80611520565b6115be9250803d106106cb576106bc81836113e4565b5f8061159e565b855163054fd4d560e41b81529294508391839182905afa90811561048c57879160ff915f916115fb575b5016141591865f611517565b61161b9150843d8611611621575b61161381836113e4565b810190614cd8565b5f6115ef565b503d611609565b935050835163198ca60560e11b815282818981875afa90811561048c5788917f017d4155da73718dbec8960abca1d9f85d2dc8a31aa06e2d8e4410b4b093144a915f91611679575b50141593611510565b6116909150853d87116104855761047781836113e4565b5f611670565b5f805160206153108339815191525490945084906116c4906001600160a01b03165b6001600160a01b031690565b1493611509565b346102b8575f3660031901126102b8577f00000000000000000000000000000000000000000000000000000000000000006001600160a01b031630036117225760206040515f805160206153108339815191528152f35b60405163703e46dd60e11b8152600490fd5b346102b8575f3660031901126102b857602060405160038152f35b346102b8575f3660031901126102b8575f80516020615310833981519152546040516001600160a01b039091168152602090f35b346102b8575f3660031901126102b85760206104af6126b1565b346102b85760203660031901126102b85760206104af6004356126da565b346102b8575f3660031901126102b857604051633eb1acf760e11b81523060048201526020816024817f00000000000000000000000000000000000000000000000000000000000000006001600160a01b03165afa801561048c576020915f9161182b575b506040519015158152f35b6118429150823d84116106cb576106bc81836113e4565b5f611820565b346102b85760203660031901126102b857600435611865816106d2565b61186d61364f565b60d280546001600160a01b0319166001600160a01b03929092169182179055337f6bdc78d8c88160b3fc3638e67f2afe523b3f4c7d00c56ebb6216790e4c3eb2cb5f80a3005b346102b85760803660031901126102b8576104476118e76004356118d6816106d2565b6064359060443590602435906127ae565b604080519384526020840192909252908201529081906060820190565b346102b8575f3660031901126102b857602061ffff60655460a01c16604051908152f35b346102b8576003196040368201126102b85760049081356001600160401b038082116102b85760a08285019383360301126102b8576024359081116102b85761197490369085016110a6565b6001600160a01b037f00000000000000000000000000000000000000000000000000000000000000008116803b156102b85760405163837d444160e01b8152905f9082908183816119c78c828f0161289c565b03925af1801561048c57611ae5575b506119df61342b565b6119e7612c4f565b9081163314159182611ab6575b50509050611aa5576044019160b0611a0c848461291a565b90500480158015611a8d575b611a7d57611a2d611a2761250d565b9161296f565b11611a6e575060b0611a3f838361291a565b9050145f14611a5b5761001891611a559161291a565b906144b7565b61001891611a689161291a565b90614287565b6040516396d8043360e01b8152fd5b50604051631c6c4cf360e31b8152fd5b50611a98848461291a565b905060b082021415611a18565b604051634ca8886760e01b81528390fd5b611ad99250611ad3611add94611acb88613f90565b923691611420565b9161406a565b1590565b805f806119f4565b80610e66611af29261137b565b5f6119d6565b346102b85760603660031901126102b857600435602435611b1d6044358284336127ae565b9192611b497f0000000000000000000000000000000000000000000000000000000000000000826126cd565b42108015611d4b575b8015611d43575b611d31577feb3b05c070c24f667611fdb3ff75fe007d42401c573aed8d8faca95fd00ccb5693611b9d86611b986108296099546001600160801b031690565b613c84565b15611c9f57611bd7611bbc611bb1866134b6565b60995460801c612419565b6001600160801b036099549181199060801b16911617609955565b60408051336020820190815291810184905260608082018990528152601f1993915f91611c1b9190611c0a6080826113e4565b5190205f52609b60205260405f2090565b555f9360018311611c54575b50505050611c358233614616565b604080519485526020850191909152830152339180606081015b0390a2005b611c9592939450611c6590886126cd565b6040805133602082019081529181019390935260608301829052608095860183529094909190611c0a90826113e4565b555f808080611c27565b611ca761342b565b611ce3611cc7611cb6866134b6565b609e546001600160801b0316612419565b6001600160801b03166001600160801b0319609e541617609e55565b611d18611cfd611cf2856134b6565b609e5460801c612419565b6001600160801b03609e549181199060801b16911617609e55565b611d2c611d2784609f546126cd565b609f55565b611bd7565b604051630e3d8e8d60e11b8152600490fd5b508215611b59565b508115611b52565b346102b8576040806003193601126102b85760243590600435611d75836106d2565b611d7d61342b565b8015611f2b576001600160a01b038316908115611f1a57611d9d81612469565b908115611f0957611dad82614dae565b611db6836134b6565b60985460801c90611dc691612419565b611de5906001600160801b036098549181199060801b16911617609855565b611def8233614a00565b609e54958660801c8281609f5490611e06916126cd565b98611e10876134b6565b611e22916001600160801b03166124f2565b611e42906001600160801b03166001600160801b0319609e541617609e55565b611e4b916126cd565b611e54906134b6565b611e73906001600160801b03609e549181199060801b16911617609e55565b85516001600160a01b0391909116602082019081524260408301526060808301899052825290611ea46080826113e4565b519020611eb9905f52609b60205260405f2090565b5583518581526020810191909152604081019190915233907f869f12645d154414259c47bcb998b6b6983fae50e5e0c6053bc87d4330db9f2d90606090a3611f003361508a565b51908152602090f35b83516318374fd160e21b8152600490fd5b825163d92e233d60e01b8152600490fd5b8151636edcc52360e01b8152600490fd5b346102b857611c4f7f2013570c343af8ab14a9778150e381a0fda34ed6368127a95fd5e7210cbec5bf611f6e366110d3565b9290611f7861364f565b604051918291602083523395602084019161287c565b5f5b838110611f9f5750505f910152565b8181015183820152602001611f90565b90602091611fc881518092818552858086019101611f8e565b601f01601f1916010190565b6020808201906020835283518092526040830192602060408460051b8301019501935f915b8483106120095750505050505090565b9091929394958480612027600193603f198682030187528a51611faf565b9801930193019194939290611ff9565b346102b85760203660031901126102b8576001600160401b036004358181116102b857366023820112156102b85780600401359182116102b8573660248360051b830101116102b8576104479160246120909201612ae2565b60405191829182611fd4565b9060206109e5928181520190611faf565b346102b8575f3660031901126102b8576104476040516120cc81611393565b60058152640352e302e360dc1b6020820152604051918291602083526020830190611faf565b346102b8576040806003193601126102b857600435612110816106d2565b6024356001600160a01b03337f0000000000000000000000000000000000000000000000000000000000000000821614801590612210575b6121ff5761215461339f565b61215c61342b565b821615611f1a5780156121ee57917fd083678824038160bef3975359ab29f19c3f0e9bcf9d7ead540a492d4d678b63836121986104479561474c565b936121b3610d096121a8846134b6565b60985460801c6124f2565b6121bd8582614700565b83516001600160a01b03919091168152602081019190915260408101849052606090a1519081529081906020820190565b82516318374fd160e21b8152600490fd5b8351634ca8886760e01b8152600490fd5b508351638da5cb5b60e01b81526020816004817f000000000000000000000000000000000000000000000000000000000000000086165afa90811561048c575f91612261575b508116301415612148565b61227a915060203d60201161066b5761065b81836113e4565b5f612256565b346102b8575f3660031901126102b857612298613ab9565b6122a0612b8f565b60015f8051602061533083398151915255005b346102b8575f3660031901126102b8576020611034612c4f565b346102b85760203660031901126102b85760206104af60043561474c565b346102b8575f3660031901126102b85760206001600160801b0360995416604051908152f35b346102b85760203660031901126102b857610018600435612331816106d2565b61233961364f565b614819565b346102b8575f3660031901126102b85760206001600160801b03609e5416604051908152f35b346102b85760203660031901126102b857600435612381816106d2565b60018060a01b03165f52609c602052602060405f2054604051908152f35b346102b8575f3660031901126102b8575f546040516001600160a01b039091168152602090f35b908160209103126102b8575190565b6040513d5f823e3d90fd5b906040516123ed81611393565b91546001600160801b038116835260801c6020830152565b634e487b7160e01b5f52601160045260245ffd5b6001600160801b03918216908216039190821161243257565b612405565b815160209092015160801b6fffffffffffffffffffffffffffffffff19166001600160801b0392909216919091179055565b6098546001600160801b038116908161248157505090565b916109e59260801c90612ead565b519081151582036102b857565b908160209103126102b8576109e59061248f565b908160209103126102b857516109e5816102dc565b81810392915f13801582851316918412161761243257565b908160209103126102b857516109e5816106d2565b9190916001600160801b038080941691160191821161243257565b61251561397b565b6099546001600160801b0361252b818316612469565b90609e5416019060801c01908181115f14612544570390565b50505f90565b61016a546001600160a01b031680156125605790565b507f000000000000000000000000000000000000000000000000000000000000000090565b906109e5949360809361ffff9260018060a01b0316845260208401521660408201528160608201520190611faf565b5f546001600160a01b03929083166126ac578101906040818303126102b8578035916125df836106d2565b60208201356001600160401b03928382116102b85701926060848303126102b8576040519261260d846113ae565b8435845260208501359461ffff861686036102b8576020850195865260408101359182116102b857019180601f840112156102b8577f6efc3c5ea2064c46840711aa5ff8d7f70826faa0cc04fcf0557a3863533aafad9561267a612698928560206126a797359101611420565b9260408601938452169361268e8186613b44565b51945161ffff1690565b90519060405194859485612585565b0390a1565b505050565b609d54806109e557505f1990565b9060b0820180921161243257565b9190820180921161243257565b6126ef816001600160801b0360995416613c84565b61271657612707609f54612701613cdf565b906126cd565b1115612711575f90565b5f1990565b609a90609a549182915f905b84821061273c575050508110156127365790565b505f1990565b909193808316906001818518811c8301809311612432575f8790527f44da158ba27f9252712a74ff6a55c5d531f69609f1f6e7f17c4443a8e2089be48301546001600160a01b0316841015612796575050935b9190612722565b90959101925061278f565b9190820391821161243257565b604080516001600160a01b039092166020830190815290820193909352606081018290529091906127e28160808101610ee9565b5190205f52609b60205260405f205491821561284057829061280f836001600160801b0360995416613c84565b1561282e579161281e92613dcf565b90915b8281039081116124325792565b509061283991613d4f565b9091612821565b5050505f905f905f90565b9035601e19823603018112156102b85701602081359101916001600160401b0382116102b85781360383136102b857565b908060209392818452848401375f828201840152601f01601f1916010190565b9060a06109e5926020815282356020820152602083013560408201526128d86128c8604085018561284b565b84606085015260c084019161287c565b9061290b6129006128ec606087018761284b565b601f1985870381016080870152959161287c565b94608081019061284b565b9390928286030191015261287c565b903590601e19813603018212156102b857018035906001600160401b0382116102b8576020019181360383136102b857565b634e487b7160e01b5f52601260045260245ffd5b811561296a570490565b61294c565b90670de0b6b3a7640000918083029283040361243257565b90670de0b6b3a76400009182810292818404149015171561243257565b6001600160401b03811161138e5760051b60200190565b906129c5826129a4565b6129d260405191826113e4565b82815280926129e3601f19916129a4565b01905f5b8281106129f357505050565b8060606020809385010152016129e7565b634e487b7160e01b5f52603260045260245ffd5b90821015612a2f576110fd9160051b81019061291a565b612a04565b908092918237015f815290565b3d15612a6b573d90612a5282611405565b91612a6060405193846113e4565b82523d5f602084013e565b606090565b6020818303126102b8578051906001600160401b0382116102b8570181601f820112156102b8578051612aa281611405565b92612ab060405194856113e4565b818452602082840101116102b8576109e59160208085019101611f8e565b8051821015612a2f5760209160051b010190565b919091612aee836129bb565b925f5b818110612afd57505050565b5f80612b0a838587612a18565b60409391612b1c855180938193612a34565b0390305af490612b2a612a41565b9115612b51575090600191612b3f8288612ace565b52612b4a8187612ace565b5001612af1565b9060448151106102b857612b8b612b7660049283810151602480918301019101612a70565b925162461bcd60e51b8152928392830161209c565b0390fd5b47633b9aca008110612c4c57604051638119c06560e01b8152602081600481857f00000000000000000000000000000000000000000000000000000000000000006001600160a01b03165af191821561048c577f07554795962e1f72c5bca846be8a8f44143aa1b4ced204ffc7899be95e7040db926040925f91612c2d575b50612c20612c1b8261318c565b6131c5565b82519182526020820152a1565b612c46915060203d6020116104855761047781836113e4565b5f612c0e565b50565b60d2546001600160a01b0316806109e557507f000000000000000000000000000000000000000000000000000000000000000090565b60405163752a536d60e01b81526020816004817f00000000000000000000000000000000000000000000000000000000000000006001600160a01b03165afa90811561048c575f91612d1b575b5060208201916001600160801b03918284511691828214612d145783612d07612d02612d0f958584865116612ead565b6134b6565b1690526134b6565b169052565b5050505050565b612d34915060203d6020116104855761047781836113e4565b5f612cd2565b90808202905f1981840990828083109203918083039214612daf57670de0b6b3a76400009082821115612d9d577faccb18165bd6fe31ae1cf318dc5b51eee0e1ba569b88cd74c1773b91fac10669940990828211900360ee1b910360121c170290565b60405163227bc15360e01b8152600490fd5b5050670de0b6b3a764000091500490565b90808202905f1981840990828083109203918083039214612e1d576127109082821115612d9d577fbc01a36e2eb1c432ca57a786c226809d495182a9930be0ded288ce703afb7e91940990828211900360fc1b910360041c170290565b505061271091500490565b90633b9aca0080830291905f1984820993838086109503948086039514612ea05784831115612d9d57829109815f038216809204600280826003021880830282030280830282030280830282030280830282030280830282030280920290030293600183805f03040190848311900302920304170290565b5050906109e59250612960565b9091828202915f1984820993838086109503948086039514612ea05784831115612d9d57829109815f038216809204600280826003021880830282030280830282030280830282030280830282030280830282030280920290030293600183805f03040190848311900302920304170290565b908160609103126102b8578051916109e560406020840151930161248f565b81835290916001600160fb1b0383116102b85760209260051b809284830137010190565b90602082528035602083015260208101358060130b8091036102b85760408301526040810135612f92816106d2565b6001600160a01b031660608381019190915281013536829003601e19018112156102b85701602081359101906001600160401b0381116102b8578060051b360382136102b85760a0836080806109e59601520191612f3f565b9190915f838201938412911290801582169115161761243257565b6040516325f56f1160e01b81526001600160a01b039291606090829081906130319060048301612f63565b03815f877f0000000000000000000000000000000000000000000000000000000000000000165af192831561048c575f915f905f95613157575b508415613104578161307b61254a565b16917f00000000000000000000000000000000000000000000000000000000000000001682146130fd57509060205f92600460405180958193634641257d60e01b83525af190811561048c576130d8925f926130dc575b50612feb565b9190565b6130f691925060203d6020116104855761047781836113e4565b905f6130d2565b908161310a575b50509190565b803b156102b857604051636ee3193160e11b815260048101929092525f908290602490829084905af1801561048c57613144575b80613104565b80610e666131519261137b565b5f61313e565b9194505061317d915060603d606011613185575b61317581836113e4565b810190612f20565b93905f61306b565b503d61316b565b6001600160ff1b03811161319d5790565b6024906040519063123baf0360e11b82526004820152fd5b600160ff1b8114612432575f0390565b8015612c4c576040516278744560e21b81527f00000000000000000000000000000000000000000000000000000000000000006001600160a01b031691906020908181600481875afa90811561048c575f91613382575b50604051631cd5ec3960e31b8152908282600481885afa91821561048c5761324c935f93613363575b50506127a1565b80156133585761326a8161326561082960985460801c90565b6126cd565b905f8312156132f45761328e9161328991613284856131b5565b612ead565b61318c565b613297816131b5565b92803b156102b85760405163304f0a6b60e21b815260048101949094525f908490602490829084905af191821561048c576132df936132da936132e15750612feb565b61487b565b565b80610e666132ee9261137b565b5f6130d2565b613302916132899184612ead565b823b156102b85760405163304f0a6b60e21b815260048101829052925f908490602490829084905af191821561048c576132df936132da93613345575b506124c5565b80610e666133529261137b565b5f61333f565b506132df915061487b565b61337a929350803d106104855761047781836113e4565b905f80613245565b6133999150823d84116104855761047781836113e4565b5f61321c565b604051630156a69560e11b81523060048201526020816024817f00000000000000000000000000000000000000000000000000000000000000006001600160a01b03165afa90811561048c575f9161340c575b50156133fa57565b604051630a62fbdb60e11b8152600490fd5b613425915060203d6020116106cb576106bc81836113e4565b5f6133f2565b604051633eb1acf760e11b81523060048201526020816024817f00000000000000000000000000000000000000000000000000000000000000006001600160a01b03165afa90811561048c575f91613497575b5061348557565b60405163e775715160e01b8152600490fd5b6134b0915060203d6020116106cb576106bc81836113e4565b5f61347e565b6001600160801b03908181116134ca571690565b604490604051906306dfcc6560e41b8252608060048301526024820152fd5b51906001600160401b03821682036102b857565b908160609103126102b85761353d6040805192613519846113ae565b8051613524816102dc565b8452613532602082016134e9565b6020850152016134e9565b604082015290565b60405163e48a5f7b60e01b81523060048201526001600160a01b036060826024817f000000000000000000000000000000000000000000000000000000000000000085165afa801561048c576135e0936001600160401b03610b7660406135bf946020975f91613630575b5001516001600160401b031690565b9060405180809581946363737ac960e11b8352600483019190602083019252565b03917f0000000000000000000000000000000000000000000000000000000000000000165afa90811561048c575f91613617575090565b6109e5915060203d6020116104855761047781836113e4565b613649915060603d606011610e4257610e3381836113e4565b5f6135b0565b5f546001600160a01b0316330361129857565b92906001600160a01b039081811615610e725761367d61342b565b817f00000000000000000000000000000000000000000000000000000000000000001690813b156102b857604094855193631d8557d760e01b85526004945f81878183895af1801561048c57613968575b506001600160a01b0388165f908152610137602052604090206136f0906123e0565b906001600160801b0361370a83516001600160801b031690565b16156139585761371982612c85565b875163e48a5f7b60e01b81523087820190815290916060918391908290819060200103917f0000000000000000000000000000000000000000000000000000000000000000165afa801561048c57613939575b508651936303d1689d60e11b97888652602091828780613793888c83019190602083019252565b0381845afa96871561048c575f9761391a575b5086996137c661080a8d60018060a01b03165f52609c60205260405f2090565b8811801561390a575b6138fa57908361380c926137ea87516001600160801b031690565b908551948592839283528d83019190916001600160801b036020820193169052565b0381845afa98891561048c575f859488946138519c6138dd575b5051633b9e9f0160e21b815233928101928352602083019490945292998a9384929091839160400190565b03925af195861561048c57610cb06138989461387b936103d3936132df9a6138bf575b50506134b6565b6001600160a01b0388165f90815261013760205260409020612437565b6138ba6138a48361474c565b80976138b5610d09610cf6876134b6565b614a00565b614616565b816138d592903d106104855761047781836113e4565b505f80613874565b6138f390873d89116104855761047781836113e4565b505f613826565b825163efda1a2760e01b81528990fd5b5061391361250d565b88116137cf565b613932919750833d85116104855761047781836113e4565b955f6137a6565b6139519060603d606011610e4257610e3381836113e4565b505f61376c565b875163673f032f60e11b81528690fd5b80610e666139759261137b565b5f6136ce565b613983614a4d565b6040516370a0823160e01b81526001600160a01b037f00000000000000000000000000000000000000000000000000000000000000008116600483018190526020939084846024817f000000000000000000000000000000000000000000000000000000000000000087165afa93841561048c57613a3c948693613a0e925f92613a9a575b506126cd565b60405163be7ab51b60e01b81526001600160a01b039092166004830152909390928491829081906024820190565b03917f0000000000000000000000000000000000000000000000000000000000000000165afa91821561048c576109e5935f93613a7b575b50506126cd565b613a92929350803d106104855761047781836113e4565b905f80613a74565b613ab2919250853d87116104855761047781836113e4565b905f613a08565b5f805160206153308339815191526002815414613ad65760029055565b604051633ee5aeb560e01b8152600490fd5b6040516323b872dd60e01b60208201526001600160a01b039283166024820152919092166044820152633b9aca00606480830191909152815260a08101916001600160401b0383118284101761138e576132df92604052614ae5565b90613b4d614b56565b6040810151613b5a614b56565b6001600160a01b0383168015610e72576001600160601b0360a01b5f5416175f557f2013570c343af8ab14a9778150e381a0fda34ed6368127a95fd5e7210cbec5bf6040516020815280613bb333946020830190611faf565b0390a26020810151613bc3614b56565b61271061ffff821611613c1957613bdc613c0193614819565b6065805461ffff60a01b191660a09290921b61ffff60a01b1691909117905551614b97565b613c09614bc7565b613c11614b56565b6132df614bf2565b604051638a81d3b360e01b8152600490fd5b6001600160a01b037f00000000000000000000000000000000000000000000000000000000000000008116308114918215613c69575b505061172257565b5f805160206153108339815191525416141590505f80613c61565b90609a5480155f14613caa57505f5b6001600160a01b0316918201918210612432571090565b609a5f527f44da158ba27f9252712a74ff6a55c5d531f69609f1f6e7f17c4443a8e2089be301546001600160a01b0316613c93565b613ce761397b565b6099548060801c82039182116124325781613d0b6001600160801b03809316612469565b9081613d31575b50508115612544576109e591613d2c91609e541690614d9c565b614dae565b9192509081811115613d4757035b905f80613d12565b50505f613d3f565b613d57613cdf565b91609f549283018093116124325780831115613da157613d78920390614d9c565b90609e548060801c80155f14613d8e5750508190565b6001600160801b036109e5921684612ead565b5050505f905f90565b90604051613db781611393565b91546001600160a01b038116835260a01c6020830152565b609a545f948594939091808410801590613f88575b613f7b5783613f45575f5b609a5f526001600160a01b0316613e277f44da158ba27f9252712a74ff6a55c5d531f69609f1f6e7f17c4443a8e2089be48601613daa565b8051909790613e3e906001600160a01b03166116b8565b98613e63613e576020809b01516001600160601b031690565b6001600160601b031690565b948381108015613f3b575b613f295791600193979a95613e8d613e99939488035b838c0390614d9c565b80920198870391612ead565b01970193808611801590613f1f575b613f1457609a5f528290613edd7f44da158ba27f9252712a74ff6a55c5d531f69609f1f6e7f17c4443a8e2089be48701613daa565b805190890151969992966001600160a01b039091169460019392613e999290916001600160601b0390911690613e8d908803613e84565b945050509250509190565b5081851015613ea8565b60405163e8722f8f60e01b8152600490fd5b50808b1115613e6e565b609a5f527f44da158ba27f9252712a74ff6a55c5d531f69609f1f6e7f17c4443a8e2089be38401546001600160a01b0316613def565b505093505050505f905f90565b508415613de4565b604290467f00000000000000000000000000000000000000000000000000000000000000000361403e5760d354905b613fd6613fcf604083018361291a565b3691611420565b602081519101206040519060208201927f838af86bfca91ada6557e38d913af1c2f24ef9b2567b3b77cc9e1144314b35b08452356040830152606082015260608152614021816113c9565b5190206040519161190160f01b8352600283015260228201522090565b614046614de5565b90613fbf565b6004111561405657565b634e487b7160e01b5f52602160045260245ffd5b6140748383614eb2565b506140818195929561404c565b15938461411d575b508315614097575b50505090565b5f9293509082916040516140cf81610ee96020820194630b135d3f60e11b998a87526024840152604060448401526064830190611faf565b51915afa906140dc612a41565b8261410f575b826140f2575b50505f8080614091565b614107919250602080825183010191016123c6565b145f806140e8565b9150602082511015916140e2565b6001600160a01b0383811691161493505f614089565b9061413d826129a4565b61414a60405191826113e4565b828152809261415b601f19916129a4565b0190602036910137565b906030116102b85790603090565b906090116102b85760300190606090565b9060b0116102b85760900190602090565b909392938483116102b85784116102b8578101920390565b602090836132df9395949560405196836141d08995518092888089019101611f8e565b84019185830137015f838201520380855201836113e4565b3590602081106141f6575090565b5f199060200360031b1b1690565b9160206109e593818152019161287c565b919261423f61422f61424d93608086526080860190611faf565b6020958582036020870152611faf565b908382036040850152611faf565b906060818303910152602080845192838152019301915f5b828110614273575050505090565b835185529381019392810192600101614265565b61428f614eec565b6060906060905f809460b08104926142a684614133565b965f905b8582106143c557506001600160a01b03947f000000000000000000000000000000000000000000000000000000000000000094506143219350602092506142f1915061296f565b60405163095ea7b360e01b81526001600160a01b0385166004820152602481019190915291829081906044820190565b03815f877f0000000000000000000000000000000000000000000000000000000000000000165af1801561048c576143a6575b501661435e615061565b813b156102b8575f80946143886040519788968795869463c82655b760e01b865260048601614215565b03925af1801561048c576143995750565b80610e666132df9261137b565b6143be9060203d6020116106cb576106bc81836113e4565b505f614354565b61444a61441a6144256144076143fe7f64b6e61d93b7a91e8cc4376183ede0997a27b44fd9dd2f30a866b2a5730efdb1959c9b9c6126bf565b80998989614195565b92909a614414848d614165565b916141ad565b9a614414838c614173565b988b6144448661443e6144388686614184565b906141e8565b92612ace565b52614165565b9061445a60405192839283614204565b0390a1600101836142aa565b929461449f670de0b6b3a764000096614491608097946144ad969b9a9b60a0895260a089019161287c565b908682036020880152611faf565b91848303604086015261287c565b9460608201520152565b906144c0614eec565b6144ca8183614165565b60405163095ea7b360e01b81527f00000000000000000000000000000000000000000000000000000000000000006001600160a01b038181166004840152670de0b6b3a76400006024840152929492916020816044815f7f000000000000000000000000000000000000000000000000000000000000000088165af1801561048c576145f7575b50169061455c615061565b9161457561443861456d8489614173565b949098614184565b95813b156102b8575f80946145a2604051998a9687958694630cac9f3160e01b86528c8c60048801614466565b03925af192831561048c577f64b6e61d93b7a91e8cc4376183ede0997a27b44fd9dd2f30a866b2a5730efdb1936145e4575b506126a760405192839283614204565b80610e666145f19261137b565b5f6145d4565b61460f9060203d6020116106cb576106bc81836113e4565b505f614551565b9061461f613ab9565b6040516370a0823160e01b81523060048201527f0000000000000000000000000000000000000000000000000000000000000000906020816024816001600160a01b0386165afa93841561048c576146be946146b9925f916146e1575b5084116146d4575b60405163a9059cbb60e01b60208201526001600160a01b039190911660248201526044808201949094529283526064836113e4565b614ae5565b6132df60015f8051602061533083398151915255565b6146dc614eec565b614684565b6146fa915060203d6020116104855761047781836113e4565b5f61467c565b614709826134b6565b609854906147216001600160801b03918284166124f2565b16906001600160801b0319161760985560018060a01b03165f52609c60205260405f20908154019055565b609854906001600160801b0382168115801561477b575b1561476e5750905090565b6109e59260801c91612ead565b508015614763565b6098546001600160801b03811690816147a0575050633b9aca0090565b60801c6147ad8183612e28565b91811561296a57633b9aca00096147c15790565b60018101809111156109e557612405565b6098546001600160801b0381169082158015614811575b156147f357505090565b60801c90614802828285612ead565b92821561296a57096147c15790565b5081156147e9565b61482161342b565b6001600160a01b0316801561486957606580546001600160a01b03191682179055337faaebcf1bfa00580e41d966056b48521fa9f202645c86d4ddf28113e617c1b1d35f80a3565b604051630ed1b8b360e31b8152600490fd5b8015612c4c5761489061082960985460801c90565b5f821261495d57816148a1916126cd565b906148ae610d09836134b6565b6148c36065549161ffff8360a01c1690612dc0565b80156126ac57807f555ee6b2ef9506d870f386c067e47d3689435330b012ad263d8cc35318686547936149016108296098546001600160801b031690565b806149475750506126a790925b6001600160a01b0316916149228484614700565b60405193849384604091949392606082019560018060a01b0316825260208201520152565b6126a79261495792039084612ead565b9261490e565b90614967906131b5565b61497c610829609e546001600160801b031690565b8061499c575b508061498c575050565b612d02610d09916132df936127a1565b906149f77f3623a54e8078be0d90ecfbef82da6a31ff3e6be8aa1718e7a7f3d0d33ff1d32a916149e7611cc76149dc6149d588886126cd565b8785612ead565b8080940396036134b6565b6040519081529081906020820190565b0390a15f614982565b60018060a01b03165f52609c60205260405f2090815481810390811161243257614a2a92556134b6565b609854906001600160801b03908183160316906001600160801b03191617609855565b6040516370a0823160e01b81523060048201526020906001600160a01b039082816024817f000000000000000000000000000000000000000000000000000000000000000086165afa90811561048c575f91614ac8575b5060405163be7ab51b60e01b81523060048201529183908390818060248101613a3c565b614adf9150833d85116104855761047781836113e4565b5f614aa4565b5f80614b0d9260018060a01b03169360208151910182865af1614b06612a41565b90836152ac565b8051908115159182614b3b575b5050614b235750565b60249060405190635274afe760e01b82526004820152fd5b614b4e925060208091830101910161249c565b155f80614b1a565b60ff7ff0c57e16840df040f15088dc2f81fe391c3923bec73e23a9662efc9c229c6a005460401c1615614b8557565b604051631afcd79f60e31b8152600490fd5b614b9f614b56565b8015614bb55760018101614bb05750565b609d55565b6040516331278a8760e01b8152600490fd5b614bcf614b56565b670de0b6b3a7640000614be06126b1565b10614bb557614bed614de5565b60d355565b614bfa614b56565b614c02614b56565b614c0a614b56565b60015f8051602061533083398151915255614c2361342b565b3015610e7257633b9aca008060985460801c01614c3e6126b1565b8111614cc657614c58610d09614c52614783565b926134b6565b614c628130614700565b60405191825260208201525f604082015230907f861a4138e41fb21c121a7dbb1053df465c837fc77380cc7226189a662281be2c60603392a36132df30337f0000000000000000000000000000000000000000000000000000000000000000613ae8565b6040516304ffa0ff60e51b8152600490fd5b908160209103126102b8575160ff811681036102b85790565b6040516352d1902d60e01b81529290916020846004816001600160a01b0387165afa5f9481614d7b575b50614d4157604051634c9c8ce360e01b81526001600160a01b0384166004820152602490fd5b90915f805160206153108339815191528403614d62576132df92935061510a565b604051632a87526960e21b815260048101859052602490fd5b614d9591955060203d6020116104855761047781836113e4565b935f614d1b565b9080821015614da9575090565b905090565b609e54908160801c81158015614ddd575b15614dca5750905090565b6001600160801b036109e5931691612ead565b508015614dbf565b6e5661756c7456616c696461746f727360881b6020604051614e0681611393565b600f8152015260405160208101907f8b73c3c69bb8fe3d512ecc4cf759cc79239f7b179b0ffacaa9a75d522b39400f82527f35d6cf9768d8be929c3a11ed667b1560ae6f1920195a985758fdd7265505d1ca60408201527fc89efdaa54c0f20c7adf612882df0950f5a951637e0307cdcb4c672f298b8bc660608201524660808201523060a082015260a0815260c081018181106001600160401b0382111761138e5760405251902090565b8151919060418303614ee257614edb9250602082015190606060408401519301515f1a906151ac565b9192909190565b50505f9160029190565b614ef461522e565b6001600160a01b037f00000000000000000000000000000000000000000000000000000000000000008116907f00000000000000000000000000000000000000000000000000000000000000008116803b156102b85760405163a3066aab60e01b81526001600160a01b0384166004820152905f908290602490829084905af1801561048c5761504e575b506040516370a0823160e01b81526001600160a01b03831660048201527f00000000000000000000000000000000000000000000000000000000000000009190911690602081602481855afa90811561048c575f9161502f575b5080614fe457505050565b823b156102b857604051632f1a9acf60e11b81526001600160a01b039290921660048301523060248301526044820152905f908290606490829084905af1801561048c576143995750565b615048915060203d6020116104855761047781836113e4565b5f614fd9565b80610e6661505b9261137b565b5f614f7f565b604051600160f81b60208201525f60218201523060601b602c820152602081526109e581611393565b60018060a01b0381165f5261013760205260405f2090604051916150ad83611393565b54906001600160801b03918281169081855260801c6020850152156126ac5761081061080a615100926150de61342b565b6150e786612c85565b6001600160a01b03165f908152609c6020526040902090565b915116116108ad57565b90813b1561518b575f8051602061531083398151915280546001600160a01b0319166001600160a01b0384169081179091557fbc7cd75a20ee27fd9adebab32041f755214dbc6bffa90cc0225b39da2e5c2d3b5f80a280511561517057612c4c91615293565b50503461517957565b60405163b398979f60e01b8152600490fd5b604051634c9c8ce360e01b81526001600160a01b0383166004820152602490fd5b91907f7fffffffffffffffffffffffffffffff5d576e7357a4501ddfe92f46681b20a08411615223579160209360809260ff5f9560405194855216868401526040830152606082015282805260015afa1561048c575f516001600160a01b0381161561521957905f905f90565b505f906001905f90565b5050505f9160039190565b7f00000000000000000000000000000000000000000000000000000000000000006001600160a01b0316803b156102b8575f809160246040518094819363a3066aab60e01b83523060048401525af1801561048c5761528a5750565b6132df9061137b565b5f806109e593602081519101845af46152aa612a41565b915b906152d357508051156152c157805190602001fd5b604051630a12f52160e11b8152600490fd5b81511580615306575b6152e4575090565b604051639996b31560e01b81526001600160a01b039091166004820152602490fd5b50803b156152dc56fe360894a13ba1a3210667c828492db98dca3e2076cc3735a920a3ca505d382bbc9b779b17422d0df92223018b32b4d1fa46e071723d6817e2486d003becc55f00a26469706673582212202d53672be4072773fe6660fb7912327ba8f07de769ad300539ea0d8111dde69e64736f6c63430008160033",
  "linkReferences": {},
  "deployedLinkReferences": {}
}