{
  "_format": "hh-sol-artifact-1",
  "contractName": "GnoVaultFactory",
  "sourceName": "contracts/vaults/gnosis/GnoVaultFactory.sol",
  "abi": [
    {
      "inputs": [
        {
          "internalType": "address",
          "name": "_implementation",
          "type": "address"
        },
        {
          "internalType": "contract IVaultsRegistry",
          "name": "vaultsRegistry",
          "type": "address"
        },
        {
          "internalType": "address",
          "name": "gnoToken",
          "type": "address"
        }
      ],
      "stateMutability": "nonpayable",
      "type": "constructor"
    },
    {
      "inputs": [
        {
          "internalType": "address",
          "name": "target",
          "type": "address"
        }
      ],
      "name": "AddressEmptyCode",
      "type": "error"
    },
    {
      "inputs": [
        {
          "internalType": "address",
          "name": "account",
          "type": "address"
        }
      ],
      "name": "AddressInsufficientBalance",
      "type": "error"
    },
    {
      "inputs": [],
      "name": "FailedInnerCall",
      "type": "error"
    },
    {
      "inputs": [
        {
          "internalType": "address",
          "name": "token",
          "type": "address"
        }
      ],
      "name": "SafeERC20FailedOperation",
      "type": "error"
    },
    {
      "anonymous": false,
      "inputs": [
        {
          "indexed": true,
          "internalType": "address",
          "name": "admin",
          "type": "address"
        },
        {
          "indexed": true,
          "internalType": "address",
          "name": "vault",
          "type": "address"
        },
        {
          "indexed": false,
          "internalType": "address",
          "name": "ownMevEscrow",
          "type": "address"
        },
        {
          "indexed": false,
          "internalType": "bytes",
          "name": "params",
          "type": "bytes"
        }
      ],
      "name": "VaultCreated",
      "type": "event"
    },
    {
      "inputs": [
        {
          "internalType": "bytes",
          "name": "params",
          "type": "bytes"
        },
        {
          "internalType": "bool",
          "name": "isOwnMevEscrow",
          "type": "bool"
        }
      ],
      "name": "createVault",
      "outputs": [
        {
          "internalType": "address",
          "name": "vault",
          "type": "address"
        }
      ],
      "stateMutability": "nonpayable",
      "type": "function"
    },
    {
      "inputs": [],
      "name": "implementation",
      "outputs": [
        {
          "internalType": "address",
          "name": "",
          "type": "address"
        }
      ],
      "stateMutability": "view",
      "type": "function"
    },
    {
      "inputs": [],
      "name": "ownMevEscrow",
      "outputs": [
        {
          "internalType": "address",
          "name": "",
          "type": "address"
        }
      ],
      "stateMutability": "view",
      "type": "function"
    },
    {
      "inputs": [],
      "name": "vaultAdmin",
      "outputs": [
        {
          "internalType": "address",
          "name": "",
          "type": "address"
        }
      ],
      "stateMutability": "view",
      "type": "function"
    }
  ],
  "bytecode": "0x60e0346100a657601f610c7a38819003918201601f19168301916001600160401b038311848410176100aa578084926060946040528339810103126100a657610047816100be565b60208201516001600160a01b039283821682036100a657604061006a91016100be565b9160c0526080521660a052604051610ba790816100d382396080518161029d015260a05181610125015260c0518181816101be01526104e60152f35b5f80fd5b634e487b7160e01b5f52604160045260245ffd5b51906001600160a01b03821682036100a65756fe6080604081815260049182361015610015575f80fd5b5f925f3560e01c9182635c60da1b146104d4575081636f4fa30f146104ad5781639a0d79ad14610079575063e7f6f2251461004e575f80fd5b3461007557816003193601126100755760015490516001600160a01b039091168152602090f35b5080fd5b9190503461039757806003193601126103975781359067ffffffffffffffff808311610397573660238401121561039757828401359080821161039757602493848101908584369201011161039757843590811515820361039757845197602096878a01946323b872dd60e01b865233828c01523060448c0152633b9aca008060648d015260648c5260a08c018c81108382111761049b575f809b9c9d81928c5260018060a01b03998a7f0000000000000000000000000000000000000000000000000000000000000000169d8e9251925af13d1561048f573d83811161047d57610186918d918c519061017684601f19601f840116018361053d565b81525f81933d92013e5b8c610597565b8051908c8215159283610464575b50505061044e5788516102c8808201908282108583111761043b576060918c8f85936105fb85398c7f00000000000000000000000000000000000000000000000000000000000000001683528201525f8d8201520301905ff08015610431578960448e5f8f948c169e8f9451968795869463095ea7b360e01b8652850152898401525af180156104315790869291610404575b505f9561039b575b506bffffffffffffffffffffffff60a01b9033826001541617600155893b1561039757845f898c8f8f9084908f61027e90519788968795869463439fab9160e01b86528501528c840191610577565b03925af1801561038d5761037a575b5061036f575b60015416600155847f000000000000000000000000000000000000000000000000000000000000000016998a3b1561036b5782918991838a519d8e9485936312b5ad0160e11b85528401525af198891561035f5787989997969761033c575b5050906103337f0d606510f33b5e566ed1ca2b9e88d388ab81cea532909665d725b33134516aff93928751938493168352878a840152339588840191610577565b0390a351908152f35b8192939495965061034c90610515565b61035c57908187959493926102f2565b80fd5b508551903d90823e3d90fd5b8280fd5b808354168355610293565b610385919450610515565b5f925f61028d565b8a513d5f823e3d90fd5b5f80fd5b88519195506102af808301918211838310176103f2578b9183916108c383398b81520301905ff080156103e857851693846bffffffffffffffffffffffff60a01b5f5416175f555f61022f565b87513d5f823e3d90fd5b8360418e634e487b7160e01b5f52525ffd5b610423908c8d3d1061042a575b61041b818361053d565b81019061055f565b505f610227565b503d610411565b89513d5f823e3d90fd5b508460418f634e487b7160e01b5f52525ffd5b8851635274afe760e01b8152808d018b90528390fd5b610474935082018101910161055f565b155f8c81610194565b8460418f634e487b7160e01b5f52525ffd5b61018690606090610180565b8360418d634e487b7160e01b5f52525ffd5b8234610397575f366003190112610397575f5490516001600160a01b039091168152602090f35b34610397575f366003190112610397577f00000000000000000000000000000000000000000000000000000000000000006001600160a01b03168152602090f35b67ffffffffffffffff811161052957604052565b634e487b7160e01b5f52604160045260245ffd5b90601f8019910116810190811067ffffffffffffffff82111761052957604052565b90816020910312610397575180151581036103975790565b908060209392818452848401375f828201840152601f01601f1916010190565b906105be57508051156105ac57805190602001fd5b604051630a12f52160e11b8152600490fd5b815115806105f1575b6105cf575090565b604051639996b31560e01b81526001600160a01b039091166004820152602490fd5b50803b156105c756fe60806040526102c8803803806100148161018e565b92833981019060408183031261018a5780516001600160a01b03811680820361018a5760208381015190936001600160401b03821161018a570184601f8201121561018a5780519061006d610068836101c7565b61018e565b9582875285838301011161018a5784905f5b8381106101765750505f9186010152813b1561015e577f360894a13ba1a3210667c828492db98dca3e2076cc3735a920a3ca505d382bbc80546001600160a01b03191682179055604051907fbc7cd75a20ee27fd9adebab32041f755214dbc6bffa90cc0225b39da2e5c2d3b5f80a283511561014057505f80848461012796519101845af4903d15610137573d610118610068826101c7565b9081525f81943d92013e6101e2565b505b604051608290816102468239f35b606092506101e2565b925050503461014f5750610129565b63b398979f60e01b8152600490fd5b60249060405190634c9c8ce360e01b82526004820152fd5b81810183015188820184015286920161007f565b5f80fd5b6040519190601f01601f191682016001600160401b038111838210176101b357604052565b634e487b7160e01b5f52604160045260245ffd5b6001600160401b0381116101b357601f01601f191660200190565b9061020957508051156101f757805190602001fd5b604051630a12f52160e11b8152600490fd5b8151158061023c575b61021a575090565b604051639996b31560e01b81526001600160a01b039091166004820152602490fd5b50803b1561021256fe60806040527f360894a13ba1a3210667c828492db98dca3e2076cc3735a920a3ca505d382bbc545f9081906001600160a01b0316368280378136915af43d5f803e156048573d5ff35b3d5ffdfea2646970667358221220590de6162af1aca5f7d380e459394ce97dc6a2e4a2575dd7c58d5d1cb01c826d64736f6c6343000816003360a03461007157601f6102af38819003918201601f19168301916001600160401b038311848410176100755780849260209460405283398101031261007157516001600160a01b0381169081900361007157608052604051610225908161008a82396080518181816081015260c80152f35b5f80fd5b634e487b7160e01b5f52604160045260245ffdfe60806040908082526004908136101561004a575b5050361561001f575f80fd5b60207f7cb3607a76b32d6d17ca5d1aeb444650b19ac0fabbb1f24c93a0da57346b56109151348152a1005b5f3560e01c9182634641257d146100b457505063fbfa77cf1461006e575f80610013565b346100b0575f3660031901126100b057517f00000000000000000000000000000000000000000000000000000000000000006001600160a01b03168152602090f35b5f80fd5b8390346100b0575f3660031901126100b0577f00000000000000000000000000000000000000000000000000000000000000006001600160a01b031692338490036101e3575047928361010b575b602083515f8152f35b8347106101cc575f80808681945af13d156101c75767ffffffffffffffff3d8181116101b457845191601f8201601f19908116603f01168301908111838210176101a157855281525f60203d92013e5b1561019357507f8e55ccfc9778ff8eba1646d765cf1982537ce0f9257054a17b48aad745250183602080938351908152a18280610102565b9051630a12f52160e11b8152fd5b604185634e487b7160e01b5f525260245ffd5b604184634e487b7160e01b5f525260245ffd5b61015b565b50602491519063cd78605960e01b82523090820152fd5b630d599dd960e11b8152fdfea2646970667358221220946ad74fcaa520949345e848339f2c8ef2b0c8c2b984044d3abdc40e465aa56b64736f6c63430008160033a26469706673582212201be709277a73e23c40a3e8e666638aa05caa6c557e0fd22ffe2c89b141092ebd64736f6c63430008160033",
  "linkReferences": {},
  "deployedLinkReferences": {}
}